{
	"contracts/MTMSToken.sol": {
		"MTMS": {
			"abi": [
				{
					"inputs": [],
					"stateMutability": "nonpayable",
					"type": "constructor"
				},
				{
					"anonymous": false,
					"inputs": [
						{
							"indexed": true,
							"internalType": "address",
							"name": "owner",
							"type": "address"
						},
						{
							"indexed": true,
							"internalType": "address",
							"name": "spender",
							"type": "address"
						},
						{
							"indexed": false,
							"internalType": "uint256",
							"name": "value",
							"type": "uint256"
						}
					],
					"name": "Approval",
					"type": "event"
				},
				{
					"anonymous": false,
					"inputs": [
						{
							"indexed": true,
							"internalType": "address",
							"name": "previousOwner",
							"type": "address"
						},
						{
							"indexed": true,
							"internalType": "address",
							"name": "newOwner",
							"type": "address"
						}
					],
					"name": "OwnershipTransferred",
					"type": "event"
				},
				{
					"anonymous": false,
					"inputs": [
						{
							"indexed": false,
							"internalType": "address",
							"name": "account",
							"type": "address"
						}
					],
					"name": "Paused",
					"type": "event"
				},
				{
					"anonymous": false,
					"inputs": [
						{
							"indexed": true,
							"internalType": "address",
							"name": "from",
							"type": "address"
						},
						{
							"indexed": true,
							"internalType": "address",
							"name": "to",
							"type": "address"
						},
						{
							"indexed": false,
							"internalType": "uint256",
							"name": "value",
							"type": "uint256"
						}
					],
					"name": "Transfer",
					"type": "event"
				},
				{
					"anonymous": false,
					"inputs": [
						{
							"indexed": false,
							"internalType": "address",
							"name": "account",
							"type": "address"
						}
					],
					"name": "Unpaused",
					"type": "event"
				},
				{
					"inputs": [
						{
							"internalType": "address",
							"name": "owner",
							"type": "address"
						},
						{
							"internalType": "address",
							"name": "spender",
							"type": "address"
						}
					],
					"name": "allowance",
					"outputs": [
						{
							"internalType": "uint256",
							"name": "",
							"type": "uint256"
						}
					],
					"stateMutability": "view",
					"type": "function"
				},
				{
					"inputs": [
						{
							"internalType": "address",
							"name": "spender",
							"type": "address"
						},
						{
							"internalType": "uint256",
							"name": "amount",
							"type": "uint256"
						}
					],
					"name": "approve",
					"outputs": [
						{
							"internalType": "bool",
							"name": "",
							"type": "bool"
						}
					],
					"stateMutability": "nonpayable",
					"type": "function"
				},
				{
					"inputs": [
						{
							"internalType": "address",
							"name": "account",
							"type": "address"
						}
					],
					"name": "balanceOf",
					"outputs": [
						{
							"internalType": "uint256",
							"name": "",
							"type": "uint256"
						}
					],
					"stateMutability": "view",
					"type": "function"
				},
				{
					"inputs": [
						{
							"internalType": "uint256",
							"name": "amount",
							"type": "uint256"
						}
					],
					"name": "burn",
					"outputs": [],
					"stateMutability": "nonpayable",
					"type": "function"
				},
				{
					"inputs": [
						{
							"internalType": "address",
							"name": "account",
							"type": "address"
						},
						{
							"internalType": "uint256",
							"name": "amount",
							"type": "uint256"
						}
					],
					"name": "burnFrom",
					"outputs": [],
					"stateMutability": "nonpayable",
					"type": "function"
				},
				{
					"inputs": [],
					"name": "decimals",
					"outputs": [
						{
							"internalType": "uint8",
							"name": "",
							"type": "uint8"
						}
					],
					"stateMutability": "view",
					"type": "function"
				},
				{
					"inputs": [
						{
							"internalType": "address",
							"name": "spender",
							"type": "address"
						},
						{
							"internalType": "uint256",
							"name": "subtractedValue",
							"type": "uint256"
						}
					],
					"name": "decreaseAllowance",
					"outputs": [
						{
							"internalType": "bool",
							"name": "",
							"type": "bool"
						}
					],
					"stateMutability": "nonpayable",
					"type": "function"
				},
				{
					"inputs": [
						{
							"internalType": "address",
							"name": "spender",
							"type": "address"
						},
						{
							"internalType": "uint256",
							"name": "addedValue",
							"type": "uint256"
						}
					],
					"name": "increaseAllowance",
					"outputs": [
						{
							"internalType": "bool",
							"name": "",
							"type": "bool"
						}
					],
					"stateMutability": "nonpayable",
					"type": "function"
				},
				{
					"inputs": [
						{
							"internalType": "address",
							"name": "account",
							"type": "address"
						},
						{
							"internalType": "uint256",
							"name": "amount",
							"type": "uint256"
						}
					],
					"name": "mint",
					"outputs": [],
					"stateMutability": "nonpayable",
					"type": "function"
				},
				{
					"inputs": [],
					"name": "name",
					"outputs": [
						{
							"internalType": "string",
							"name": "",
							"type": "string"
						}
					],
					"stateMutability": "view",
					"type": "function"
				},
				{
					"inputs": [],
					"name": "owner",
					"outputs": [
						{
							"internalType": "address",
							"name": "",
							"type": "address"
						}
					],
					"stateMutability": "view",
					"type": "function"
				},
				{
					"inputs": [],
					"name": "paused",
					"outputs": [
						{
							"internalType": "bool",
							"name": "",
							"type": "bool"
						}
					],
					"stateMutability": "view",
					"type": "function"
				},
				{
					"inputs": [],
					"name": "renounceOwnership",
					"outputs": [],
					"stateMutability": "nonpayable",
					"type": "function"
				},
				{
					"inputs": [],
					"name": "symbol",
					"outputs": [
						{
							"internalType": "string",
							"name": "",
							"type": "string"
						}
					],
					"stateMutability": "view",
					"type": "function"
				},
				{
					"inputs": [],
					"name": "totalSupply",
					"outputs": [
						{
							"internalType": "uint256",
							"name": "",
							"type": "uint256"
						}
					],
					"stateMutability": "view",
					"type": "function"
				},
				{
					"inputs": [
						{
							"internalType": "address",
							"name": "recipient",
							"type": "address"
						},
						{
							"internalType": "uint256",
							"name": "amount",
							"type": "uint256"
						}
					],
					"name": "transfer",
					"outputs": [
						{
							"internalType": "bool",
							"name": "",
							"type": "bool"
						}
					],
					"stateMutability": "nonpayable",
					"type": "function"
				},
				{
					"inputs": [
						{
							"internalType": "address",
							"name": "sender",
							"type": "address"
						},
						{
							"internalType": "address",
							"name": "recipient",
							"type": "address"
						},
						{
							"internalType": "uint256",
							"name": "amount",
							"type": "uint256"
						}
					],
					"name": "transferFrom",
					"outputs": [
						{
							"internalType": "bool",
							"name": "",
							"type": "bool"
						}
					],
					"stateMutability": "nonpayable",
					"type": "function"
				},
				{
					"inputs": [
						{
							"internalType": "address",
							"name": "newOwner",
							"type": "address"
						}
					],
					"name": "transferOwnership",
					"outputs": [],
					"stateMutability": "nonpayable",
					"type": "function"
				}
			],
			"devdoc": {
				"kind": "dev",
				"methods": {
					"allowance(address,address)": {
						"details": "See {IERC20-allowance}."
					},
					"approve(address,uint256)": {
						"details": "See {IERC20-approve}. Requirements: - `spender` cannot be the zero address."
					},
					"balanceOf(address)": {
						"details": "See {IERC20-balanceOf}."
					},
					"burn(uint256)": {
						"details": "Destroys `amount` tokens from the caller. See {ERC20-_burn}."
					},
					"burnFrom(address,uint256)": {
						"details": "Destroys `amount` tokens from `account`, deducting from the caller's allowance. See {ERC20-_burn} and {ERC20-allowance}. Requirements: - the caller must have allowance for ``accounts``'s tokens of at least `amount`."
					},
					"constructor": {
						"details": "Sets the values for {name} and {symbol}, initializes {decimals} with a default value of 18. To select a different value for {decimals}, use {_setupDecimals}. All three of these values are immutable: they can only be set once during construction."
					},
					"decimals()": {
						"details": "Returns the number of decimals used to get its user representation. For example, if `decimals` equals `2`, a balance of `505` tokens should be displayed to a user as `5,05` (`505 / 10 ** 2`). Tokens usually opt for a value of 18, imitating the relationship between Ether and Wei. This is the value {ERC20} uses, unless {_setupDecimals} is called. NOTE: This information is only used for _display_ purposes: it in no way affects any of the arithmetic of the contract, including {IERC20-balanceOf} and {IERC20-transfer}."
					},
					"decreaseAllowance(address,uint256)": {
						"details": "Atomically decreases the allowance granted to `spender` by the caller. This is an alternative to {approve} that can be used as a mitigation for problems described in {IERC20-approve}. Emits an {Approval} event indicating the updated allowance. Requirements: - `spender` cannot be the zero address. - `spender` must have allowance for the caller of at least `subtractedValue`."
					},
					"increaseAllowance(address,uint256)": {
						"details": "Atomically increases the allowance granted to `spender` by the caller. This is an alternative to {approve} that can be used as a mitigation for problems described in {IERC20-approve}. Emits an {Approval} event indicating the updated allowance. Requirements: - `spender` cannot be the zero address."
					},
					"mint(address,uint256)": {
						"details": "Issues `amount` tokens to the designated `address`. Can only be called by the current owner. See {ERC20-_mint}."
					},
					"name()": {
						"details": "Returns the name of the token."
					},
					"owner()": {
						"details": "Returns the address of the current owner."
					},
					"paused()": {
						"details": "Returns true if the contract is paused, and false otherwise."
					},
					"renounceOwnership()": {
						"details": "Leaves the contract without owner. It will not be possible to call `onlyOwner` functions anymore. Can only be called by the current owner. NOTE: Renouncing ownership will leave the contract without an owner, thereby removing any functionality that is only available to the owner."
					},
					"symbol()": {
						"details": "Returns the symbol of the token, usually a shorter version of the name."
					},
					"totalSupply()": {
						"details": "See {IERC20-totalSupply}."
					},
					"transfer(address,uint256)": {
						"details": "See {IERC20-transfer}. Requirements: - `recipient` cannot be the zero address. - the caller must have a balance of at least `amount`."
					},
					"transferFrom(address,address,uint256)": {
						"details": "See {IERC20-transferFrom}. Emits an {Approval} event indicating the updated allowance. This is not required by the EIP. See the note at the beginning of {ERC20}. Requirements: - `sender` and `recipient` cannot be the zero address. - `sender` must have a balance of at least `amount`. - the caller must have allowance for ``sender``'s tokens of at least `amount`."
					},
					"transferOwnership(address)": {
						"details": "Transfers ownership of the contract to a new account (`newOwner`). Can only be called by the current owner."
					}
				},
				"version": 1
			},
			"evm": {
				"assembly": "    /* \"contracts/MTMSToken.sol\":369:9480  contract MTMS is Context, Ownable, Pausable, IERC20 {\r... */\n  mstore(0x40, 0x80)\n    /* \"contracts/MTMSToken.sol\":1041:1210  constructor() {\r... */\n  callvalue\n  dup1\n  iszero\n  tag_1\n  jumpi\n  0x00\n  dup1\n  revert\ntag_1:\n  pop\n    /* \"@openzeppelin/contracts/access/Ownable.sol\":921:953  _transferOwnership(_msgSender()) */\n  tag_6\n    /* \"@openzeppelin/contracts/access/Ownable.sol\":940:952  _msgSender() */\n  tag_7\n    /* \"@openzeppelin/contracts/access/Ownable.sol\":940:950  _msgSender */\n  shl(0x20, tag_8)\n    /* \"@openzeppelin/contracts/access/Ownable.sol\":940:952  _msgSender() */\n  0x20\n  shr\n  jump\t// in\ntag_7:\n    /* \"@openzeppelin/contracts/access/Ownable.sol\":921:939  _transferOwnership */\n  shl(0x20, tag_9)\n    /* \"@openzeppelin/contracts/access/Ownable.sol\":921:953  _transferOwnership(_msgSender()) */\n  0x20\n  shr\n  jump\t// in\ntag_6:\n    /* \"@openzeppelin/contracts/security/Pausable.sol\":991:996  false */\n  0x00\n    /* \"@openzeppelin/contracts/security/Pausable.sol\":981:988  _paused */\n  dup1\n  0x14\n    /* \"@openzeppelin/contracts/security/Pausable.sol\":981:996  _paused = false */\n  0x0100\n  exp\n  dup2\n  sload\n  dup2\n  0xff\n  mul\n  not\n  and\n  swap1\n  dup4\n  iszero\n  iszero\n  mul\n  or\n  swap1\n  sstore\n  pop\n    /* \"contracts/MTMSToken.sol\":1062:1089  _name = \"MTMS Token Test 4\" */\n  mload(0x40)\n  dup1\n  0x40\n  add\n  0x40\n  mstore\n  dup1\n  0x11\n  dup2\n  mstore\n  0x20\n  add\n  0x4d544d5320546f6b656e20546573742034000000000000000000000000000000\n  dup2\n  mstore\n  pop\n    /* \"contracts/MTMSToken.sol\":1062:1067  _name */\n  0x05\n    /* \"contracts/MTMSToken.sol\":1062:1089  _name = \"MTMS Token Test 4\" */\n  swap1\n  dup1\n  mload\n  swap1\n  0x20\n  add\n  swap1\n  tag_12\n  swap3\n  swap2\n  swap1\n  tag_13\n  jump\t// in\ntag_12:\n  pop\n    /* \"contracts/MTMSToken.sol\":1096:1114  _symbol = \"MTMST4\" */\n  mload(0x40)\n  dup1\n  0x40\n  add\n  0x40\n  mstore\n  dup1\n  0x06\n  dup2\n  mstore\n  0x20\n  add\n  0x4d544d5354340000000000000000000000000000000000000000000000000000\n  dup2\n  mstore\n  pop\n    /* \"contracts/MTMSToken.sol\":1096:1103  _symbol */\n  0x06\n    /* \"contracts/MTMSToken.sol\":1096:1114  _symbol = \"MTMST4\" */\n  swap1\n  dup1\n  mload\n  swap1\n  0x20\n  add\n  swap1\n  tag_14\n  swap3\n  swap2\n  swap1\n  tag_13\n  jump\t// in\ntag_14:\n  pop\n    /* \"contracts/MTMSToken.sol\":1133:1134  6 */\n  0x06\n    /* \"contracts/MTMSToken.sol\":1121:1130  _decimals */\n  0x07\n  0x00\n    /* \"contracts/MTMSToken.sol\":1121:1134  _decimals = 6 */\n  0x0100\n  exp\n  dup2\n  sload\n  dup2\n  0xff\n  mul\n  not\n  and\n  swap1\n  dup4\n  0xff\n  and\n  mul\n  or\n  swap1\n  sstore\n  pop\n    /* \"contracts/MTMSToken.sol\":1154:1166  1000_000_000 */\n  0x3b9aca00\n    /* \"contracts/MTMSToken.sol\":1141:1151  _maxSupply */\n  0x03\n    /* \"contracts/MTMSToken.sol\":1141:1166  _maxSupply = 1000_000_000 */\n  dup2\n  swap1\n  sstore\n  pop\n    /* \"contracts/MTMSToken.sol\":1173:1204  _mint(_msgSender(), _maxSupply) */\n  tag_15\n    /* \"contracts/MTMSToken.sol\":1179:1191  _msgSender() */\n  tag_16\n    /* \"contracts/MTMSToken.sol\":1179:1189  _msgSender */\n  shl(0x20, tag_8)\n    /* \"contracts/MTMSToken.sol\":1179:1191  _msgSender() */\n  0x20\n  shr\n  jump\t// in\ntag_16:\n    /* \"contracts/MTMSToken.sol\":1193:1203  _maxSupply */\n  sload(0x03)\n    /* \"contracts/MTMSToken.sol\":1173:1178  _mint */\n  shl(0x20, tag_17)\n    /* \"contracts/MTMSToken.sol\":1173:1204  _mint(_msgSender(), _maxSupply) */\n  0x20\n  shr\n  jump\t// in\ntag_15:\n    /* \"contracts/MTMSToken.sol\":369:9480  contract MTMS is Context, Ownable, Pausable, IERC20 {\r... */\n  jump(tag_18)\n    /* \"@openzeppelin/contracts/utils/Context.sol\":640:736  function _msgSender() internal view virtual returns (address) {... */\ntag_8:\n    /* \"@openzeppelin/contracts/utils/Context.sol\":693:700  address */\n  0x00\n    /* \"@openzeppelin/contracts/utils/Context.sol\":719:729  msg.sender */\n  caller\n    /* \"@openzeppelin/contracts/utils/Context.sol\":712:729  return msg.sender */\n  swap1\n  pop\n    /* \"@openzeppelin/contracts/utils/Context.sol\":640:736  function _msgSender() internal view virtual returns (address) {... */\n  swap1\n  jump\t// out\n    /* \"@openzeppelin/contracts/access/Ownable.sol\":2270:2457  function _transferOwnership(address newOwner) internal virtual {... */\ntag_9:\n    /* \"@openzeppelin/contracts/access/Ownable.sol\":2343:2359  address oldOwner */\n  0x00\n    /* \"@openzeppelin/contracts/access/Ownable.sol\":2362:2368  _owner */\n  dup1\n  0x00\n  swap1\n  sload\n  swap1\n  0x0100\n  exp\n  swap1\n  div\n  0xffffffffffffffffffffffffffffffffffffffff\n  and\n    /* \"@openzeppelin/contracts/access/Ownable.sol\":2343:2368  address oldOwner = _owner */\n  swap1\n  pop\n    /* \"@openzeppelin/contracts/access/Ownable.sol\":2387:2395  newOwner */\n  dup2\n    /* \"@openzeppelin/contracts/access/Ownable.sol\":2378:2384  _owner */\n  0x00\n  dup1\n    /* \"@openzeppelin/contracts/access/Ownable.sol\":2378:2395  _owner = newOwner */\n  0x0100\n  exp\n  dup2\n  sload\n  dup2\n  0xffffffffffffffffffffffffffffffffffffffff\n  mul\n  not\n  and\n  swap1\n  dup4\n  0xffffffffffffffffffffffffffffffffffffffff\n  and\n  mul\n  or\n  swap1\n  sstore\n  pop\n    /* \"@openzeppelin/contracts/access/Ownable.sol\":2441:2449  newOwner */\n  dup2\n    /* \"@openzeppelin/contracts/access/Ownable.sol\":2410:2450  OwnershipTransferred(oldOwner, newOwner) */\n  0xffffffffffffffffffffffffffffffffffffffff\n  and\n    /* \"@openzeppelin/contracts/access/Ownable.sol\":2431:2439  oldOwner */\n  dup2\n    /* \"@openzeppelin/contracts/access/Ownable.sol\":2410:2450  OwnershipTransferred(oldOwner, newOwner) */\n  0xffffffffffffffffffffffffffffffffffffffff\n  and\n  0x8be0079c531659141344cd1fd0a4f28419497f9722a3daafe3b4186f6b6457e0\n  mload(0x40)\n  mload(0x40)\n  dup1\n  swap2\n  sub\n  swap1\n  log3\n    /* \"@openzeppelin/contracts/access/Ownable.sol\":2333:2457  {... */\n  pop\n    /* \"@openzeppelin/contracts/access/Ownable.sol\":2270:2457  function _transferOwnership(address newOwner) internal virtual {... */\n  pop\n  jump\t// out\n    /* \"contracts/MTMSToken.sol\":7618:8000  function _mint(address account, uint256 amount) internal {\r... */\ntag_17:\n    /* \"contracts/MTMSToken.sol\":7709:7710  0 */\n  0x00\n    /* \"contracts/MTMSToken.sol\":7690:7711  account != address(0) */\n  0xffffffffffffffffffffffffffffffffffffffff\n  and\n    /* \"contracts/MTMSToken.sol\":7690:7697  account */\n  dup3\n    /* \"contracts/MTMSToken.sol\":7690:7711  account != address(0) */\n  0xffffffffffffffffffffffffffffffffffffffff\n  and\n  eq\n  iszero\n    /* \"contracts/MTMSToken.sol\":7682:7747  require(account != address(0), \"ERC20: mint to the zero address\") */\n  tag_22\n  jumpi\n  mload(0x40)\n  0x08c379a000000000000000000000000000000000000000000000000000000000\n  dup2\n  mstore\n  0x04\n  add\n  tag_23\n  swap1\n  tag_24\n  jump\t// in\ntag_23:\n  mload(0x40)\n  dup1\n  swap2\n  sub\n  swap1\n  revert\ntag_22:\n    /* \"contracts/MTMSToken.sol\":7787:7797  _maxSupply */\n  sload(0x03)\n    /* \"contracts/MTMSToken.sol\":7777:7783  amount */\n  dup2\n    /* \"contracts/MTMSToken.sol\":7762:7774  _totalSupply */\n  sload(0x04)\n    /* \"contracts/MTMSToken.sol\":7762:7783  _totalSupply + amount */\n  tag_25\n  swap2\n  swap1\n  tag_26\n  jump\t// in\ntag_25:\n    /* \"contracts/MTMSToken.sol\":7762:7797  _totalSupply + amount <= _maxSupply */\n  gt\n  iszero\n    /* \"contracts/MTMSToken.sol\":7754:7839  require(_totalSupply + amount <= _maxSupply, \"ERC20: mint amount exceeds max supply\") */\n  tag_27\n  jumpi\n  mload(0x40)\n  0x08c379a000000000000000000000000000000000000000000000000000000000\n  dup2\n  mstore\n  0x04\n  add\n  tag_28\n  swap1\n  tag_29\n  jump\t// in\ntag_28:\n  mload(0x40)\n  dup1\n  swap2\n  sub\n  swap1\n  revert\ntag_27:\n    /* \"contracts/MTMSToken.sol\":7863:7887  _totalSupply.add(amount) */\n  tag_30\n    /* \"contracts/MTMSToken.sol\":7880:7886  amount */\n  dup2\n    /* \"contracts/MTMSToken.sol\":7863:7875  _totalSupply */\n  sload(0x04)\n    /* \"contracts/MTMSToken.sol\":7863:7879  _totalSupply.add */\n  or(tag_0_94, shl(0x20, tag_31))\n  swap1\n    /* \"contracts/MTMSToken.sol\":7863:7887  _totalSupply.add(amount) */\n  swap2\n  swap1\n  0x20\n  shr\n  jump\t// in\ntag_30:\n    /* \"contracts/MTMSToken.sol\":7848:7860  _totalSupply */\n  0x04\n    /* \"contracts/MTMSToken.sol\":7848:7887  _totalSupply = _totalSupply.add(amount) */\n  dup2\n  swap1\n  sstore\n  pop\n    /* \"contracts/MTMSToken.sol\":7915:7945  _balances[account].add(amount) */\n  tag_32\n    /* \"contracts/MTMSToken.sol\":7938:7944  amount */\n  dup2\n    /* \"contracts/MTMSToken.sol\":7915:7924  _balances */\n  0x01\n    /* \"contracts/MTMSToken.sol\":7915:7933  _balances[account] */\n  0x00\n    /* \"contracts/MTMSToken.sol\":7925:7932  account */\n  dup6\n    /* \"contracts/MTMSToken.sol\":7915:7933  _balances[account] */\n  0xffffffffffffffffffffffffffffffffffffffff\n  and\n  0xffffffffffffffffffffffffffffffffffffffff\n  and\n  dup2\n  mstore\n  0x20\n  add\n  swap1\n  dup2\n  mstore\n  0x20\n  add\n  0x00\n  keccak256\n  sload\n    /* \"contracts/MTMSToken.sol\":7915:7937  _balances[account].add */\n  or(tag_0_94, shl(0x20, tag_31))\n  swap1\n    /* \"contracts/MTMSToken.sol\":7915:7945  _balances[account].add(amount) */\n  swap2\n  swap1\n  0x20\n  shr\n  jump\t// in\ntag_32:\n    /* \"contracts/MTMSToken.sol\":7894:7903  _balances */\n  0x01\n    /* \"contracts/MTMSToken.sol\":7894:7912  _balances[account] */\n  0x00\n    /* \"contracts/MTMSToken.sol\":7904:7911  account */\n  dup5\n    /* \"contracts/MTMSToken.sol\":7894:7912  _balances[account] */\n  0xffffffffffffffffffffffffffffffffffffffff\n  and\n  0xffffffffffffffffffffffffffffffffffffffff\n  and\n  dup2\n  mstore\n  0x20\n  add\n  swap1\n  dup2\n  mstore\n  0x20\n  add\n  0x00\n  keccak256\n    /* \"contracts/MTMSToken.sol\":7894:7945  _balances[account] = _balances[account].add(amount) */\n  dup2\n  swap1\n  sstore\n  pop\n    /* \"contracts/MTMSToken.sol\":7978:7985  account */\n  dup2\n    /* \"contracts/MTMSToken.sol\":7957:7994  Transfer(address(0), account, amount) */\n  0xffffffffffffffffffffffffffffffffffffffff\n  and\n    /* \"contracts/MTMSToken.sol\":7974:7975  0 */\n  0x00\n    /* \"contracts/MTMSToken.sol\":7957:7994  Transfer(address(0), account, amount) */\n  0xffffffffffffffffffffffffffffffffffffffff\n  and\n  0xddf252ad1be2c89b69c2b068fc378daa952ba7f163c4a11628f55a4df523b3ef\n    /* \"contracts/MTMSToken.sol\":7987:7993  amount */\n  dup4\n    /* \"contracts/MTMSToken.sol\":7957:7994  Transfer(address(0), account, amount) */\n  mload(0x40)\n  tag_33\n  swap2\n  swap1\n  tag_34\n  jump\t// in\ntag_33:\n  mload(0x40)\n  dup1\n  swap2\n  sub\n  swap1\n  log3\n    /* \"contracts/MTMSToken.sol\":7618:8000  function _mint(address account, uint256 amount) internal {\r... */\n  pop\n  pop\n  jump\t// out\n    /* \"@openzeppelin/contracts/utils/math/SafeMath.sol\":2755:2851  function add(uint256 a, uint256 b) internal pure returns (uint256) {... */\ntag_31:\n    /* \"@openzeppelin/contracts/utils/math/SafeMath.sol\":2813:2820  uint256 */\n  0x00\n    /* \"@openzeppelin/contracts/utils/math/SafeMath.sol\":2843:2844  b */\n  dup2\n    /* \"@openzeppelin/contracts/utils/math/SafeMath.sol\":2839:2840  a */\n  dup4\n    /* \"@openzeppelin/contracts/utils/math/SafeMath.sol\":2839:2844  a + b */\n  tag_36\n  swap2\n  swap1\n  tag_26\n  jump\t// in\ntag_36:\n    /* \"@openzeppelin/contracts/utils/math/SafeMath.sol\":2832:2844  return a + b */\n  swap1\n  pop\n    /* \"@openzeppelin/contracts/utils/math/SafeMath.sol\":2755:2851  function add(uint256 a, uint256 b) internal pure returns (uint256) {... */\n  swap3\n  swap2\n  pop\n  pop\n  jump\t// out\n    /* \"contracts/MTMSToken.sol\":369:9480  contract MTMS is Context, Ownable, Pausable, IERC20 {\r... */\ntag_13:\n  dup3\n  dup1\n  sload\n  tag_37\n  swap1\n  tag_38\n  jump\t// in\ntag_37:\n  swap1\n  0x00\n  mstore\n  keccak256(0x00, 0x20)\n  swap1\n  0x1f\n  add\n  0x20\n  swap1\n  div\n  dup2\n  add\n  swap3\n  dup3\n  tag_40\n  jumpi\n  0x00\n  dup6\n  sstore\n  jump(tag_39)\ntag_40:\n  dup3\n  0x1f\n  lt\n  tag_41\n  jumpi\n  dup1\n  mload\n  not(0xff)\n  and\n  dup4\n  dup1\n  add\n  or\n  dup6\n  sstore\n  jump(tag_39)\ntag_41:\n  dup3\n  dup1\n  add\n  0x01\n  add\n  dup6\n  sstore\n  dup3\n  iszero\n  tag_39\n  jumpi\n  swap2\n  dup3\n  add\ntag_42:\n  dup3\n  dup2\n  gt\n  iszero\n  tag_43\n  jumpi\n  dup3\n  mload\n  dup3\n  sstore\n  swap2\n  0x20\n  add\n  swap2\n  swap1\n  0x01\n  add\n  swap1\n  jump(tag_42)\ntag_43:\ntag_39:\n  pop\n  swap1\n  pop\n  tag_44\n  swap2\n  swap1\n  tag_45\n  jump\t// in\ntag_44:\n  pop\n  swap1\n  jump\t// out\ntag_45:\ntag_46:\n  dup1\n  dup3\n  gt\n  iszero\n  tag_47\n  jumpi\n  0x00\n  dup2\n  0x00\n  swap1\n  sstore\n  pop\n  0x01\n  add\n  jump(tag_46)\ntag_47:\n  pop\n  swap1\n  jump\t// out\n    /* \"#utility.yul\":7:373   */\ntag_49:\n    /* \"#utility.yul\":149:152   */\n  0x00\n    /* \"#utility.yul\":170:237   */\n  tag_51\n    /* \"#utility.yul\":234:236   */\n  0x25\n    /* \"#utility.yul\":229:232   */\n  dup4\n    /* \"#utility.yul\":170:237   */\n  tag_52\n  jump\t// in\ntag_51:\n    /* \"#utility.yul\":163:237   */\n  swap2\n  pop\n    /* \"#utility.yul\":246:339   */\n  tag_53\n    /* \"#utility.yul\":335:338   */\n  dup3\n    /* \"#utility.yul\":246:339   */\n  tag_54\n  jump\t// in\ntag_53:\n    /* \"#utility.yul\":364:366   */\n  0x40\n    /* \"#utility.yul\":359:362   */\n  dup3\n    /* \"#utility.yul\":355:367   */\n  add\n    /* \"#utility.yul\":348:367   */\n  swap1\n  pop\n    /* \"#utility.yul\":7:373   */\n  swap2\n  swap1\n  pop\n  jump\t// out\n    /* \"#utility.yul\":379:745   */\ntag_55:\n    /* \"#utility.yul\":521:524   */\n  0x00\n    /* \"#utility.yul\":542:609   */\n  tag_57\n    /* \"#utility.yul\":606:608   */\n  0x1f\n    /* \"#utility.yul\":601:604   */\n  dup4\n    /* \"#utility.yul\":542:609   */\n  tag_52\n  jump\t// in\ntag_57:\n    /* \"#utility.yul\":535:609   */\n  swap2\n  pop\n    /* \"#utility.yul\":618:711   */\n  tag_58\n    /* \"#utility.yul\":707:710   */\n  dup3\n    /* \"#utility.yul\":618:711   */\n  tag_59\n  jump\t// in\ntag_58:\n    /* \"#utility.yul\":736:738   */\n  0x20\n    /* \"#utility.yul\":731:734   */\n  dup3\n    /* \"#utility.yul\":727:739   */\n  add\n    /* \"#utility.yul\":720:739   */\n  swap1\n  pop\n    /* \"#utility.yul\":379:745   */\n  swap2\n  swap1\n  pop\n  jump\t// out\n    /* \"#utility.yul\":751:869   */\ntag_60:\n    /* \"#utility.yul\":838:862   */\n  tag_62\n    /* \"#utility.yul\":856:861   */\n  dup2\n    /* \"#utility.yul\":838:862   */\n  tag_63\n  jump\t// in\ntag_62:\n    /* \"#utility.yul\":833:836   */\n  dup3\n    /* \"#utility.yul\":826:863   */\n  mstore\n    /* \"#utility.yul\":751:869   */\n  pop\n  pop\n  jump\t// out\n    /* \"#utility.yul\":875:1294   */\ntag_29:\n    /* \"#utility.yul\":1041:1045   */\n  0x00\n    /* \"#utility.yul\":1079:1081   */\n  0x20\n    /* \"#utility.yul\":1068:1077   */\n  dup3\n    /* \"#utility.yul\":1064:1082   */\n  add\n    /* \"#utility.yul\":1056:1082   */\n  swap1\n  pop\n    /* \"#utility.yul\":1128:1137   */\n  dup2\n    /* \"#utility.yul\":1122:1126   */\n  dup2\n    /* \"#utility.yul\":1118:1138   */\n  sub\n    /* \"#utility.yul\":1114:1115   */\n  0x00\n    /* \"#utility.yul\":1103:1112   */\n  dup4\n    /* \"#utility.yul\":1099:1116   */\n  add\n    /* \"#utility.yul\":1092:1139   */\n  mstore\n    /* \"#utility.yul\":1156:1287   */\n  tag_65\n    /* \"#utility.yul\":1282:1286   */\n  dup2\n    /* \"#utility.yul\":1156:1287   */\n  tag_49\n  jump\t// in\ntag_65:\n    /* \"#utility.yul\":1148:1287   */\n  swap1\n  pop\n    /* \"#utility.yul\":875:1294   */\n  swap2\n  swap1\n  pop\n  jump\t// out\n    /* \"#utility.yul\":1300:1719   */\ntag_24:\n    /* \"#utility.yul\":1466:1470   */\n  0x00\n    /* \"#utility.yul\":1504:1506   */\n  0x20\n    /* \"#utility.yul\":1493:1502   */\n  dup3\n    /* \"#utility.yul\":1489:1507   */\n  add\n    /* \"#utility.yul\":1481:1507   */\n  swap1\n  pop\n    /* \"#utility.yul\":1553:1562   */\n  dup2\n    /* \"#utility.yul\":1547:1551   */\n  dup2\n    /* \"#utility.yul\":1543:1563   */\n  sub\n    /* \"#utility.yul\":1539:1540   */\n  0x00\n    /* \"#utility.yul\":1528:1537   */\n  dup4\n    /* \"#utility.yul\":1524:1541   */\n  add\n    /* \"#utility.yul\":1517:1564   */\n  mstore\n    /* \"#utility.yul\":1581:1712   */\n  tag_67\n    /* \"#utility.yul\":1707:1711   */\n  dup2\n    /* \"#utility.yul\":1581:1712   */\n  tag_55\n  jump\t// in\ntag_67:\n    /* \"#utility.yul\":1573:1712   */\n  swap1\n  pop\n    /* \"#utility.yul\":1300:1719   */\n  swap2\n  swap1\n  pop\n  jump\t// out\n    /* \"#utility.yul\":1725:1947   */\ntag_34:\n    /* \"#utility.yul\":1818:1822   */\n  0x00\n    /* \"#utility.yul\":1856:1858   */\n  0x20\n    /* \"#utility.yul\":1845:1854   */\n  dup3\n    /* \"#utility.yul\":1841:1859   */\n  add\n    /* \"#utility.yul\":1833:1859   */\n  swap1\n  pop\n    /* \"#utility.yul\":1869:1940   */\n  tag_69\n    /* \"#utility.yul\":1937:1938   */\n  0x00\n    /* \"#utility.yul\":1926:1935   */\n  dup4\n    /* \"#utility.yul\":1922:1939   */\n  add\n    /* \"#utility.yul\":1913:1919   */\n  dup5\n    /* \"#utility.yul\":1869:1940   */\n  tag_60\n  jump\t// in\ntag_69:\n    /* \"#utility.yul\":1725:1947   */\n  swap3\n  swap2\n  pop\n  pop\n  jump\t// out\n    /* \"#utility.yul\":1953:2122   */\ntag_52:\n    /* \"#utility.yul\":2037:2048   */\n  0x00\n    /* \"#utility.yul\":2071:2077   */\n  dup3\n    /* \"#utility.yul\":2066:2069   */\n  dup3\n    /* \"#utility.yul\":2059:2078   */\n  mstore\n    /* \"#utility.yul\":2111:2115   */\n  0x20\n    /* \"#utility.yul\":2106:2109   */\n  dup3\n    /* \"#utility.yul\":2102:2116   */\n  add\n    /* \"#utility.yul\":2087:2116   */\n  swap1\n  pop\n    /* \"#utility.yul\":1953:2122   */\n  swap3\n  swap2\n  pop\n  pop\n  jump\t// out\n    /* \"#utility.yul\":2128:2433   */\ntag_26:\n    /* \"#utility.yul\":2168:2171   */\n  0x00\n    /* \"#utility.yul\":2187:2207   */\n  tag_72\n    /* \"#utility.yul\":2205:2206   */\n  dup3\n    /* \"#utility.yul\":2187:2207   */\n  tag_63\n  jump\t// in\ntag_72:\n    /* \"#utility.yul\":2182:2207   */\n  swap2\n  pop\n    /* \"#utility.yul\":2221:2241   */\n  tag_73\n    /* \"#utility.yul\":2239:2240   */\n  dup4\n    /* \"#utility.yul\":2221:2241   */\n  tag_63\n  jump\t// in\ntag_73:\n    /* \"#utility.yul\":2216:2241   */\n  swap3\n  pop\n    /* \"#utility.yul\":2375:2376   */\n  dup3\n    /* \"#utility.yul\":2307:2373   */\n  0xffffffffffffffffffffffffffffffffffffffffffffffffffffffffffffffff\n    /* \"#utility.yul\":2303:2377   */\n  sub\n    /* \"#utility.yul\":2300:2301   */\n  dup3\n    /* \"#utility.yul\":2297:2378   */\n  gt\n    /* \"#utility.yul\":2294:2401   */\n  iszero\n  tag_74\n  jumpi\n    /* \"#utility.yul\":2381:2399   */\n  tag_75\n  tag_76\n  jump\t// in\ntag_75:\n    /* \"#utility.yul\":2294:2401   */\ntag_74:\n    /* \"#utility.yul\":2425:2426   */\n  dup3\n    /* \"#utility.yul\":2422:2423   */\n  dup3\n    /* \"#utility.yul\":2418:2427   */\n  add\n    /* \"#utility.yul\":2411:2427   */\n  swap1\n  pop\n    /* \"#utility.yul\":2128:2433   */\n  swap3\n  swap2\n  pop\n  pop\n  jump\t// out\n    /* \"#utility.yul\":2439:2516   */\ntag_63:\n    /* \"#utility.yul\":2476:2483   */\n  0x00\n    /* \"#utility.yul\":2505:2510   */\n  dup2\n    /* \"#utility.yul\":2494:2510   */\n  swap1\n  pop\n    /* \"#utility.yul\":2439:2516   */\n  swap2\n  swap1\n  pop\n  jump\t// out\n    /* \"#utility.yul\":2522:2842   */\ntag_38:\n    /* \"#utility.yul\":2566:2572   */\n  0x00\n    /* \"#utility.yul\":2603:2604   */\n  0x02\n    /* \"#utility.yul\":2597:2601   */\n  dup3\n    /* \"#utility.yul\":2593:2605   */\n  div\n    /* \"#utility.yul\":2583:2605   */\n  swap1\n  pop\n    /* \"#utility.yul\":2650:2651   */\n  0x01\n    /* \"#utility.yul\":2644:2648   */\n  dup3\n    /* \"#utility.yul\":2640:2652   */\n  and\n    /* \"#utility.yul\":2671:2689   */\n  dup1\n    /* \"#utility.yul\":2661:2742   */\n  tag_79\n  jumpi\n    /* \"#utility.yul\":2727:2731   */\n  0x7f\n    /* \"#utility.yul\":2719:2725   */\n  dup3\n    /* \"#utility.yul\":2715:2732   */\n  and\n    /* \"#utility.yul\":2705:2732   */\n  swap2\n  pop\n    /* \"#utility.yul\":2661:2742   */\ntag_79:\n    /* \"#utility.yul\":2789:2791   */\n  0x20\n    /* \"#utility.yul\":2781:2787   */\n  dup3\n    /* \"#utility.yul\":2778:2792   */\n  lt\n    /* \"#utility.yul\":2758:2776   */\n  dup2\n    /* \"#utility.yul\":2755:2793   */\n  eq\n    /* \"#utility.yul\":2752:2836   */\n  iszero\n  tag_80\n  jumpi\n    /* \"#utility.yul\":2808:2826   */\n  tag_81\n  tag_82\n  jump\t// in\ntag_81:\n    /* \"#utility.yul\":2752:2836   */\ntag_80:\n    /* \"#utility.yul\":2573:2842   */\n  pop\n    /* \"#utility.yul\":2522:2842   */\n  swap2\n  swap1\n  pop\n  jump\t// out\n    /* \"#utility.yul\":2848:3028   */\ntag_76:\n    /* \"#utility.yul\":2896:2973   */\n  0x4e487b7100000000000000000000000000000000000000000000000000000000\n    /* \"#utility.yul\":2893:2894   */\n  0x00\n    /* \"#utility.yul\":2886:2974   */\n  mstore\n    /* \"#utility.yul\":2993:2997   */\n  0x11\n    /* \"#utility.yul\":2990:2991   */\n  0x04\n    /* \"#utility.yul\":2983:2998   */\n  mstore\n    /* \"#utility.yul\":3017:3021   */\n  0x24\n    /* \"#utility.yul\":3014:3015   */\n  0x00\n    /* \"#utility.yul\":3007:3022   */\n  revert\n    /* \"#utility.yul\":3034:3214   */\ntag_82:\n    /* \"#utility.yul\":3082:3159   */\n  0x4e487b7100000000000000000000000000000000000000000000000000000000\n    /* \"#utility.yul\":3079:3080   */\n  0x00\n    /* \"#utility.yul\":3072:3160   */\n  mstore\n    /* \"#utility.yul\":3179:3183   */\n  0x22\n    /* \"#utility.yul\":3176:3177   */\n  0x04\n    /* \"#utility.yul\":3169:3184   */\n  mstore\n    /* \"#utility.yul\":3203:3207   */\n  0x24\n    /* \"#utility.yul\":3200:3201   */\n  0x00\n    /* \"#utility.yul\":3193:3208   */\n  revert\n    /* \"#utility.yul\":3220:3444   */\ntag_54:\n    /* \"#utility.yul\":3360:3394   */\n  0x45524332303a206d696e7420616d6f756e742065786365656473206d61782073\n    /* \"#utility.yul\":3356:3357   */\n  0x00\n    /* \"#utility.yul\":3348:3354   */\n  dup3\n    /* \"#utility.yul\":3344:3358   */\n  add\n    /* \"#utility.yul\":3337:3395   */\n  mstore\n    /* \"#utility.yul\":3429:3436   */\n  0x7570706c79000000000000000000000000000000000000000000000000000000\n    /* \"#utility.yul\":3424:3426   */\n  0x20\n    /* \"#utility.yul\":3416:3422   */\n  dup3\n    /* \"#utility.yul\":3412:3427   */\n  add\n    /* \"#utility.yul\":3405:3437   */\n  mstore\n    /* \"#utility.yul\":3220:3444   */\n  pop\n  jump\t// out\n    /* \"#utility.yul\":3450:3631   */\ntag_59:\n    /* \"#utility.yul\":3590:3623   */\n  0x45524332303a206d696e7420746f20746865207a65726f206164647265737300\n    /* \"#utility.yul\":3586:3587   */\n  0x00\n    /* \"#utility.yul\":3578:3584   */\n  dup3\n    /* \"#utility.yul\":3574:3588   */\n  add\n    /* \"#utility.yul\":3567:3624   */\n  mstore\n    /* \"#utility.yul\":3450:3631   */\n  pop\n  jump\t// out\n    /* \"contracts/MTMSToken.sol\":369:9480  contract MTMS is Context, Ownable, Pausable, IERC20 {\r... */\ntag_18:\n  dataSize(sub_0)\n  dup1\n  dataOffset(sub_0)\n  0x00\n  codecopy\n  0x00\n  return\nstop\n\nsub_0: assembly {\n        /* \"contracts/MTMSToken.sol\":369:9480  contract MTMS is Context, Ownable, Pausable, IERC20 {\r... */\n      mstore(0x40, 0x80)\n      callvalue\n      dup1\n      iszero\n      tag_1\n      jumpi\n      0x00\n      dup1\n      revert\n    tag_1:\n      pop\n      jumpi(tag_2, lt(calldatasize, 0x04))\n      shr(0xe0, calldataload(0x00))\n      dup1\n      0x70a08231\n      gt\n      tag_21\n      jumpi\n      dup1\n      0x95d89b41\n      gt\n      tag_22\n      jumpi\n      dup1\n      0x95d89b41\n      eq\n      tag_16\n      jumpi\n      dup1\n      0xa457c2d7\n      eq\n      tag_17\n      jumpi\n      dup1\n      0xa9059cbb\n      eq\n      tag_18\n      jumpi\n      dup1\n      0xdd62ed3e\n      eq\n      tag_19\n      jumpi\n      dup1\n      0xf2fde38b\n      eq\n      tag_20\n      jumpi\n      jump(tag_2)\n    tag_22:\n      dup1\n      0x70a08231\n      eq\n      tag_12\n      jumpi\n      dup1\n      0x715018a6\n      eq\n      tag_13\n      jumpi\n      dup1\n      0x79cc6790\n      eq\n      tag_14\n      jumpi\n      dup1\n      0x8da5cb5b\n      eq\n      tag_15\n      jumpi\n      jump(tag_2)\n    tag_21:\n      dup1\n      0x313ce567\n      gt\n      tag_23\n      jumpi\n      dup1\n      0x313ce567\n      eq\n      tag_7\n      jumpi\n      dup1\n      0x39509351\n      eq\n      tag_8\n      jumpi\n      dup1\n      0x40c10f19\n      eq\n      tag_9\n      jumpi\n      dup1\n      0x42966c68\n      eq\n      tag_10\n      jumpi\n      dup1\n      0x5c975abb\n      eq\n      tag_11\n      jumpi\n      jump(tag_2)\n    tag_23:\n      dup1\n      0x06fdde03\n      eq\n      tag_3\n      jumpi\n      dup1\n      0x095ea7b3\n      eq\n      tag_4\n      jumpi\n      dup1\n      0x18160ddd\n      eq\n      tag_5\n      jumpi\n      dup1\n      0x23b872dd\n      eq\n      tag_6\n      jumpi\n    tag_2:\n      0x00\n      dup1\n      revert\n        /* \"contracts/MTMSToken.sol\":1272:1349  function name() public view returns (string memory) {\r... */\n    tag_3:\n      tag_24\n      tag_25\n      jump\t// in\n    tag_24:\n      mload(0x40)\n      tag_26\n      swap2\n      swap1\n      tag_27\n      jump\t// in\n    tag_26:\n      mload(0x40)\n      dup1\n      swap2\n      sub\n      swap1\n      return\n        /* \"contracts/MTMSToken.sol\":3227:3378  function approve(address spender, uint256 amount) public override returns (bool) {\r... */\n    tag_4:\n      tag_28\n      0x04\n      dup1\n      calldatasize\n      sub\n      dup2\n      add\n      swap1\n      tag_29\n      swap2\n      swap1\n      tag_30\n      jump\t// in\n    tag_29:\n      tag_31\n      jump\t// in\n    tag_28:\n      mload(0x40)\n      tag_32\n      swap2\n      swap1\n      tag_33\n      jump\t// in\n    tag_32:\n      mload(0x40)\n      dup1\n      swap2\n      sub\n      swap1\n      return\n        /* \"contracts/MTMSToken.sol\":2290:2384  function totalSupply() public view override returns (uint256) {\r... */\n    tag_5:\n      tag_34\n      tag_35\n      jump\t// in\n    tag_34:\n      mload(0x40)\n      tag_36\n      swap2\n      swap1\n      tag_37\n      jump\t// in\n    tag_36:\n      mload(0x40)\n      dup1\n      swap2\n      sub\n      swap1\n      return\n        /* \"contracts/MTMSToken.sol\":3832:4131  function transferFrom(address sender, address recipient, uint256 amount) public override returns (bool) {\r... */\n    tag_6:\n      tag_38\n      0x04\n      dup1\n      calldatasize\n      sub\n      dup2\n      add\n      swap1\n      tag_39\n      swap2\n      swap1\n      tag_40\n      jump\t// in\n    tag_39:\n      tag_41\n      jump\t// in\n    tag_38:\n      mload(0x40)\n      tag_42\n      swap2\n      swap1\n      tag_33\n      jump\t// in\n    tag_42:\n      mload(0x40)\n      dup1\n      swap2\n      sub\n      swap1\n      return\n        /* \"contracts/MTMSToken.sol\":2150:2233  function decimals() public view returns (uint8) {\r... */\n    tag_7:\n      tag_43\n      tag_44\n      jump\t// in\n    tag_43:\n      mload(0x40)\n      tag_45\n      swap2\n      swap1\n      tag_46\n      jump\t// in\n    tag_45:\n      mload(0x40)\n      dup1\n      swap2\n      sub\n      swap1\n      return\n        /* \"contracts/MTMSToken.sol\":4514:4714  function increaseAllowance(address spender, uint256 addedValue) public returns (bool) {\r... */\n    tag_8:\n      tag_47\n      0x04\n      dup1\n      calldatasize\n      sub\n      dup2\n      add\n      swap1\n      tag_48\n      swap2\n      swap1\n      tag_30\n      jump\t// in\n    tag_48:\n      tag_49\n      jump\t// in\n    tag_47:\n      mload(0x40)\n      tag_50\n      swap2\n      swap1\n      tag_33\n      jump\t// in\n    tag_50:\n      mload(0x40)\n      dup1\n      swap2\n      sub\n      swap1\n      return\n        /* \"contracts/MTMSToken.sol\":5599:5698  function mint(address account, uint256 amount) public onlyOwner {\r... */\n    tag_9:\n      tag_51\n      0x04\n      dup1\n      calldatasize\n      sub\n      dup2\n      add\n      swap1\n      tag_52\n      swap2\n      swap1\n      tag_30\n      jump\t// in\n    tag_52:\n      tag_53\n      jump\t// in\n    tag_51:\n      stop\n        /* \"contracts/MTMSToken.sol\":5802:5879  function burn(uint256 amount) public {\r... */\n    tag_10:\n      tag_54\n      0x04\n      dup1\n      calldatasize\n      sub\n      dup2\n      add\n      swap1\n      tag_55\n      swap2\n      swap1\n      tag_56\n      jump\t// in\n    tag_55:\n      tag_57\n      jump\t// in\n    tag_54:\n      stop\n        /* \"@openzeppelin/contracts/security/Pausable.sol\":1098:1182  function paused() public view virtual returns (bool) {... */\n    tag_11:\n      tag_58\n      tag_59\n      jump\t// in\n    tag_58:\n      mload(0x40)\n      tag_60\n      swap2\n      swap1\n      tag_33\n      jump\t// in\n    tag_60:\n      mload(0x40)\n      dup1\n      swap2\n      sub\n      swap1\n      return\n        /* \"contracts/MTMSToken.sol\":2439:2552  function balanceOf(address account) public view override returns (uint256) {\r... */\n    tag_12:\n      tag_61\n      0x04\n      dup1\n      calldatasize\n      sub\n      dup2\n      add\n      swap1\n      tag_62\n      swap2\n      swap1\n      tag_63\n      jump\t// in\n    tag_62:\n      tag_64\n      jump\t// in\n    tag_61:\n      mload(0x40)\n      tag_65\n      swap2\n      swap1\n      tag_37\n      jump\t// in\n    tag_65:\n      mload(0x40)\n      dup1\n      swap2\n      sub\n      swap1\n      return\n        /* \"@openzeppelin/contracts/access/Ownable.sol\":1668:1769  function renounceOwnership() public virtual onlyOwner {... */\n    tag_13:\n      tag_66\n      tag_67\n      jump\t// in\n    tag_66:\n      stop\n        /* \"contracts/MTMSToken.sol\":6174:6447  function burnFrom(address account, uint256 amount) public {\r... */\n    tag_14:\n      tag_68\n      0x04\n      dup1\n      calldatasize\n      sub\n      dup2\n      add\n      swap1\n      tag_69\n      swap2\n      swap1\n      tag_30\n      jump\t// in\n    tag_69:\n      tag_70\n      jump\t// in\n    tag_68:\n      stop\n        /* \"@openzeppelin/contracts/access/Ownable.sol\":1036:1121  function owner() public view virtual returns (address) {... */\n    tag_15:\n      tag_71\n      tag_72\n      jump\t// in\n    tag_71:\n      mload(0x40)\n      tag_73\n      swap2\n      swap1\n      tag_74\n      jump\t// in\n    tag_73:\n      mload(0x40)\n      dup1\n      swap2\n      sub\n      swap1\n      return\n        /* \"contracts/MTMSToken.sol\":1458:1539  function symbol() public view returns (string memory) {\r... */\n    tag_16:\n      tag_75\n      tag_76\n      jump\t// in\n    tag_75:\n      mload(0x40)\n      tag_77\n      swap2\n      swap1\n      tag_27\n      jump\t// in\n    tag_77:\n      mload(0x40)\n      dup1\n      swap2\n      sub\n      swap1\n      return\n        /* \"contracts/MTMSToken.sol\":5187:5438  function decreaseAllowance(address spender, uint256 subtractedValue) public returns (bool) {\r... */\n    tag_17:\n      tag_78\n      0x04\n      dup1\n      calldatasize\n      sub\n      dup2\n      add\n      swap1\n      tag_79\n      swap2\n      swap1\n      tag_30\n      jump\t// in\n    tag_79:\n      tag_80\n      jump\t// in\n    tag_78:\n      mload(0x40)\n      tag_81\n      swap2\n      swap1\n      tag_33\n      jump\t// in\n    tag_81:\n      mload(0x40)\n      dup1\n      swap2\n      sub\n      swap1\n      return\n        /* \"contracts/MTMSToken.sol\":2747:2904  function transfer(address recipient, uint256 amount) public override returns (bool) {\r... */\n    tag_18:\n      tag_82\n      0x04\n      dup1\n      calldatasize\n      sub\n      dup2\n      add\n      swap1\n      tag_83\n      swap2\n      swap1\n      tag_30\n      jump\t// in\n    tag_83:\n      tag_84\n      jump\t// in\n    tag_82:\n      mload(0x40)\n      tag_85\n      swap2\n      swap1\n      tag_33\n      jump\t// in\n    tag_85:\n      mload(0x40)\n      dup1\n      swap2\n      sub\n      swap1\n      return\n        /* \"contracts/MTMSToken.sol\":2959:3096  function allowance(address owner, address spender) public view override returns (uint256) {\r... */\n    tag_19:\n      tag_86\n      0x04\n      dup1\n      calldatasize\n      sub\n      dup2\n      add\n      swap1\n      tag_87\n      swap2\n      swap1\n      tag_88\n      jump\t// in\n    tag_87:\n      tag_89\n      jump\t// in\n    tag_86:\n      mload(0x40)\n      tag_90\n      swap2\n      swap1\n      tag_37\n      jump\t// in\n    tag_90:\n      mload(0x40)\n      dup1\n      swap2\n      sub\n      swap1\n      return\n        /* \"@openzeppelin/contracts/access/Ownable.sol\":1918:2116  function transferOwnership(address newOwner) public virtual onlyOwner {... */\n    tag_20:\n      tag_91\n      0x04\n      dup1\n      calldatasize\n      sub\n      dup2\n      add\n      swap1\n      tag_92\n      swap2\n      swap1\n      tag_63\n      jump\t// in\n    tag_92:\n      tag_93\n      jump\t// in\n    tag_91:\n      stop\n        /* \"contracts/MTMSToken.sol\":1272:1349  function name() public view returns (string memory) {\r... */\n    tag_25:\n        /* \"contracts/MTMSToken.sol\":1309:1322  string memory */\n      0x60\n        /* \"contracts/MTMSToken.sol\":1338:1343  _name */\n      0x05\n        /* \"contracts/MTMSToken.sol\":1331:1343  return _name */\n      dup1\n      sload\n      tag_96\n      swap1\n      tag_97\n      jump\t// in\n    tag_96:\n      dup1\n      0x1f\n      add\n      0x20\n      dup1\n      swap2\n      div\n      mul\n      0x20\n      add\n      mload(0x40)\n      swap1\n      dup2\n      add\n      0x40\n      mstore\n      dup1\n      swap3\n      swap2\n      swap1\n      dup2\n      dup2\n      mstore\n      0x20\n      add\n      dup3\n      dup1\n      sload\n      tag_98\n      swap1\n      tag_97\n      jump\t// in\n    tag_98:\n      dup1\n      iszero\n      tag_99\n      jumpi\n      dup1\n      0x1f\n      lt\n      tag_100\n      jumpi\n      0x0100\n      dup1\n      dup4\n      sload\n      div\n      mul\n      dup4\n      mstore\n      swap2\n      0x20\n      add\n      swap2\n      jump(tag_99)\n    tag_100:\n      dup3\n      add\n      swap2\n      swap1\n      0x00\n      mstore\n      keccak256(0x00, 0x20)\n      swap1\n    tag_101:\n      dup2\n      sload\n      dup2\n      mstore\n      swap1\n      0x01\n      add\n      swap1\n      0x20\n      add\n      dup1\n      dup4\n      gt\n      tag_101\n      jumpi\n      dup3\n      swap1\n      sub\n      0x1f\n      and\n      dup3\n      add\n      swap2\n    tag_99:\n      pop\n      pop\n      pop\n      pop\n      pop\n      swap1\n      pop\n        /* \"contracts/MTMSToken.sol\":1272:1349  function name() public view returns (string memory) {\r... */\n      swap1\n      jump\t// out\n        /* \"contracts/MTMSToken.sol\":3227:3378  function approve(address spender, uint256 amount) public override returns (bool) {\r... */\n    tag_31:\n        /* \"contracts/MTMSToken.sol\":3302:3306  bool */\n      0x00\n        /* \"contracts/MTMSToken.sol\":3315:3354  _approve(_msgSender(), spender, amount) */\n      tag_103\n        /* \"contracts/MTMSToken.sol\":3324:3336  _msgSender() */\n      tag_104\n        /* \"contracts/MTMSToken.sol\":3324:3334  _msgSender */\n      tag_105\n        /* \"contracts/MTMSToken.sol\":3324:3336  _msgSender() */\n      jump\t// in\n    tag_104:\n        /* \"contracts/MTMSToken.sol\":3338:3345  spender */\n      dup5\n        /* \"contracts/MTMSToken.sol\":3347:3353  amount */\n      dup5\n        /* \"contracts/MTMSToken.sol\":3315:3323  _approve */\n      tag_106\n        /* \"contracts/MTMSToken.sol\":3315:3354  _approve(_msgSender(), spender, amount) */\n      jump\t// in\n    tag_103:\n        /* \"contracts/MTMSToken.sol\":3368:3372  true */\n      0x01\n        /* \"contracts/MTMSToken.sol\":3361:3372  return true */\n      swap1\n      pop\n        /* \"contracts/MTMSToken.sol\":3227:3378  function approve(address spender, uint256 amount) public override returns (bool) {\r... */\n      swap3\n      swap2\n      pop\n      pop\n      jump\t// out\n        /* \"contracts/MTMSToken.sol\":2290:2384  function totalSupply() public view override returns (uint256) {\r... */\n    tag_35:\n        /* \"contracts/MTMSToken.sol\":2343:2350  uint256 */\n      0x00\n        /* \"contracts/MTMSToken.sol\":2366:2378  _totalSupply */\n      sload(0x04)\n        /* \"contracts/MTMSToken.sol\":2359:2378  return _totalSupply */\n      swap1\n      pop\n        /* \"contracts/MTMSToken.sol\":2290:2384  function totalSupply() public view override returns (uint256) {\r... */\n      swap1\n      jump\t// out\n        /* \"contracts/MTMSToken.sol\":3832:4131  function transferFrom(address sender, address recipient, uint256 amount) public override returns (bool) {\r... */\n    tag_41:\n        /* \"contracts/MTMSToken.sol\":3930:3934  bool */\n      0x00\n        /* \"contracts/MTMSToken.sol\":3943:3979  _transfer(sender, recipient, amount) */\n      tag_109\n        /* \"contracts/MTMSToken.sol\":3953:3959  sender */\n      dup5\n        /* \"contracts/MTMSToken.sol\":3961:3970  recipient */\n      dup5\n        /* \"contracts/MTMSToken.sol\":3972:3978  amount */\n      dup5\n        /* \"contracts/MTMSToken.sol\":3943:3952  _transfer */\n      tag_110\n        /* \"contracts/MTMSToken.sol\":3943:3979  _transfer(sender, recipient, amount) */\n      jump\t// in\n    tag_109:\n        /* \"contracts/MTMSToken.sol\":3986:4107  _approve(sender, _msgSender(), _allowances[sender][_msgSender()].sub(amount, \"ERC20: transfer amount exceeds allowance\")) */\n      tag_111\n        /* \"contracts/MTMSToken.sol\":3995:4001  sender */\n      dup5\n        /* \"contracts/MTMSToken.sol\":4003:4015  _msgSender() */\n      tag_112\n        /* \"contracts/MTMSToken.sol\":4003:4013  _msgSender */\n      tag_105\n        /* \"contracts/MTMSToken.sol\":4003:4015  _msgSender() */\n      jump\t// in\n    tag_112:\n        /* \"contracts/MTMSToken.sol\":4017:4106  _allowances[sender][_msgSender()].sub(amount, \"ERC20: transfer amount exceeds allowance\") */\n      tag_113\n        /* \"contracts/MTMSToken.sol\":4055:4061  amount */\n      dup6\n        /* \"contracts/MTMSToken.sol\":4017:4106  _allowances[sender][_msgSender()].sub(amount, \"ERC20: transfer amount exceeds allowance\") */\n      mload(0x40)\n      dup1\n      0x60\n      add\n      0x40\n      mstore\n      dup1\n      0x28\n      dup2\n      mstore\n      0x20\n      add\n      data_974d1b4421da69cc60b481194f0dad36a5bb4e23da810da7a7fb30cdba178330\n      0x28\n      swap2\n      codecopy\n        /* \"contracts/MTMSToken.sol\":4017:4028  _allowances */\n      0x02\n        /* \"contracts/MTMSToken.sol\":4017:4036  _allowances[sender] */\n      0x00\n        /* \"contracts/MTMSToken.sol\":4029:4035  sender */\n      dup12\n        /* \"contracts/MTMSToken.sol\":4017:4036  _allowances[sender] */\n      0xffffffffffffffffffffffffffffffffffffffff\n      and\n      0xffffffffffffffffffffffffffffffffffffffff\n      and\n      dup2\n      mstore\n      0x20\n      add\n      swap1\n      dup2\n      mstore\n      0x20\n      add\n      0x00\n      keccak256\n        /* \"contracts/MTMSToken.sol\":4017:4050  _allowances[sender][_msgSender()] */\n      0x00\n        /* \"contracts/MTMSToken.sol\":4037:4049  _msgSender() */\n      tag_114\n        /* \"contracts/MTMSToken.sol\":4037:4047  _msgSender */\n      tag_105\n        /* \"contracts/MTMSToken.sol\":4037:4049  _msgSender() */\n      jump\t// in\n    tag_114:\n        /* \"contracts/MTMSToken.sol\":4017:4050  _allowances[sender][_msgSender()] */\n      0xffffffffffffffffffffffffffffffffffffffff\n      and\n      0xffffffffffffffffffffffffffffffffffffffff\n      and\n      dup2\n      mstore\n      0x20\n      add\n      swap1\n      dup2\n      mstore\n      0x20\n      add\n      0x00\n      keccak256\n      sload\n        /* \"contracts/MTMSToken.sol\":4017:4054  _allowances[sender][_msgSender()].sub */\n      tag_115\n      swap1\n        /* \"contracts/MTMSToken.sol\":4017:4106  _allowances[sender][_msgSender()].sub(amount, \"ERC20: transfer amount exceeds allowance\") */\n      swap3\n      swap2\n      swap1\n      0xffffffff\n      and\n      jump\t// in\n    tag_113:\n        /* \"contracts/MTMSToken.sol\":3986:3994  _approve */\n      tag_106\n        /* \"contracts/MTMSToken.sol\":3986:4107  _approve(sender, _msgSender(), _allowances[sender][_msgSender()].sub(amount, \"ERC20: transfer amount exceeds allowance\")) */\n      jump\t// in\n    tag_111:\n        /* \"contracts/MTMSToken.sol\":4121:4125  true */\n      0x01\n        /* \"contracts/MTMSToken.sol\":4114:4125  return true */\n      swap1\n      pop\n        /* \"contracts/MTMSToken.sol\":3832:4131  function transferFrom(address sender, address recipient, uint256 amount) public override returns (bool) {\r... */\n      swap4\n      swap3\n      pop\n      pop\n      pop\n      jump\t// out\n        /* \"contracts/MTMSToken.sol\":2150:2233  function decimals() public view returns (uint8) {\r... */\n    tag_44:\n        /* \"contracts/MTMSToken.sol\":2191:2196  uint8 */\n      0x00\n        /* \"contracts/MTMSToken.sol\":2216:2225  _decimals */\n      0x07\n      0x00\n      swap1\n      sload\n      swap1\n      0x0100\n      exp\n      swap1\n      div\n      0xff\n      and\n        /* \"contracts/MTMSToken.sol\":2209:2225  return _decimals */\n      swap1\n      pop\n        /* \"contracts/MTMSToken.sol\":2150:2233  function decimals() public view returns (uint8) {\r... */\n      swap1\n      jump\t// out\n        /* \"contracts/MTMSToken.sol\":4514:4714  function increaseAllowance(address spender, uint256 addedValue) public returns (bool) {\r... */\n    tag_49:\n        /* \"contracts/MTMSToken.sol\":4594:4598  bool */\n      0x00\n        /* \"contracts/MTMSToken.sol\":4607:4690  _approve(_msgSender(), spender, _allowances[_msgSender()][spender].add(addedValue)) */\n      tag_118\n        /* \"contracts/MTMSToken.sol\":4616:4628  _msgSender() */\n      tag_119\n        /* \"contracts/MTMSToken.sol\":4616:4626  _msgSender */\n      tag_105\n        /* \"contracts/MTMSToken.sol\":4616:4628  _msgSender() */\n      jump\t// in\n    tag_119:\n        /* \"contracts/MTMSToken.sol\":4630:4637  spender */\n      dup5\n        /* \"contracts/MTMSToken.sol\":4639:4689  _allowances[_msgSender()][spender].add(addedValue) */\n      tag_120\n        /* \"contracts/MTMSToken.sol\":4678:4688  addedValue */\n      dup6\n        /* \"contracts/MTMSToken.sol\":4639:4650  _allowances */\n      0x02\n        /* \"contracts/MTMSToken.sol\":4639:4664  _allowances[_msgSender()] */\n      0x00\n        /* \"contracts/MTMSToken.sol\":4651:4663  _msgSender() */\n      tag_121\n        /* \"contracts/MTMSToken.sol\":4651:4661  _msgSender */\n      tag_105\n        /* \"contracts/MTMSToken.sol\":4651:4663  _msgSender() */\n      jump\t// in\n    tag_121:\n        /* \"contracts/MTMSToken.sol\":4639:4664  _allowances[_msgSender()] */\n      0xffffffffffffffffffffffffffffffffffffffff\n      and\n      0xffffffffffffffffffffffffffffffffffffffff\n      and\n      dup2\n      mstore\n      0x20\n      add\n      swap1\n      dup2\n      mstore\n      0x20\n      add\n      0x00\n      keccak256\n        /* \"contracts/MTMSToken.sol\":4639:4673  _allowances[_msgSender()][spender] */\n      0x00\n        /* \"contracts/MTMSToken.sol\":4665:4672  spender */\n      dup10\n        /* \"contracts/MTMSToken.sol\":4639:4673  _allowances[_msgSender()][spender] */\n      0xffffffffffffffffffffffffffffffffffffffff\n      and\n      0xffffffffffffffffffffffffffffffffffffffff\n      and\n      dup2\n      mstore\n      0x20\n      add\n      swap1\n      dup2\n      mstore\n      0x20\n      add\n      0x00\n      keccak256\n      sload\n        /* \"contracts/MTMSToken.sol\":4639:4677  _allowances[_msgSender()][spender].add */\n      tag_94\n      swap1\n        /* \"contracts/MTMSToken.sol\":4639:4689  _allowances[_msgSender()][spender].add(addedValue) */\n      swap2\n      swap1\n      0xffffffff\n      and\n      jump\t// in\n    tag_120:\n        /* \"contracts/MTMSToken.sol\":4607:4615  _approve */\n      tag_106\n        /* \"contracts/MTMSToken.sol\":4607:4690  _approve(_msgSender(), spender, _allowances[_msgSender()][spender].add(addedValue)) */\n      jump\t// in\n    tag_118:\n        /* \"contracts/MTMSToken.sol\":4704:4708  true */\n      0x01\n        /* \"contracts/MTMSToken.sol\":4697:4708  return true */\n      swap1\n      pop\n        /* \"contracts/MTMSToken.sol\":4514:4714  function increaseAllowance(address spender, uint256 addedValue) public returns (bool) {\r... */\n      swap3\n      swap2\n      pop\n      pop\n      jump\t// out\n        /* \"contracts/MTMSToken.sol\":5599:5698  function mint(address account, uint256 amount) public onlyOwner {\r... */\n    tag_53:\n        /* \"@openzeppelin/contracts/access/Ownable.sol\":1259:1271  _msgSender() */\n      tag_123\n        /* \"@openzeppelin/contracts/access/Ownable.sol\":1259:1269  _msgSender */\n      tag_105\n        /* \"@openzeppelin/contracts/access/Ownable.sol\":1259:1271  _msgSender() */\n      jump\t// in\n    tag_123:\n        /* \"@openzeppelin/contracts/access/Ownable.sol\":1248:1271  owner() == _msgSender() */\n      0xffffffffffffffffffffffffffffffffffffffff\n      and\n        /* \"@openzeppelin/contracts/access/Ownable.sol\":1248:1255  owner() */\n      tag_124\n        /* \"@openzeppelin/contracts/access/Ownable.sol\":1248:1253  owner */\n      tag_72\n        /* \"@openzeppelin/contracts/access/Ownable.sol\":1248:1255  owner() */\n      jump\t// in\n    tag_124:\n        /* \"@openzeppelin/contracts/access/Ownable.sol\":1248:1271  owner() == _msgSender() */\n      0xffffffffffffffffffffffffffffffffffffffff\n      and\n      eq\n        /* \"@openzeppelin/contracts/access/Ownable.sol\":1240:1308  require(owner() == _msgSender(), \"Ownable: caller is not the owner\") */\n      tag_125\n      jumpi\n      mload(0x40)\n      0x08c379a000000000000000000000000000000000000000000000000000000000\n      dup2\n      mstore\n      0x04\n      add\n      tag_126\n      swap1\n      tag_127\n      jump\t// in\n    tag_126:\n      mload(0x40)\n      dup1\n      swap2\n      sub\n      swap1\n      revert\n    tag_125:\n        /* \"contracts/MTMSToken.sol\":5670:5692  _mint(account, amount) */\n      tag_129\n        /* \"contracts/MTMSToken.sol\":5676:5683  account */\n      dup3\n        /* \"contracts/MTMSToken.sol\":5685:5691  amount */\n      dup3\n        /* \"contracts/MTMSToken.sol\":5670:5675  _mint */\n      tag_130\n        /* \"contracts/MTMSToken.sol\":5670:5692  _mint(account, amount) */\n      jump\t// in\n    tag_129:\n        /* \"contracts/MTMSToken.sol\":5599:5698  function mint(address account, uint256 amount) public onlyOwner {\r... */\n      pop\n      pop\n      jump\t// out\n        /* \"contracts/MTMSToken.sol\":5802:5879  function burn(uint256 amount) public {\r... */\n    tag_57:\n        /* \"contracts/MTMSToken.sol\":5846:5873  _burn(_msgSender(), amount) */\n      tag_132\n        /* \"contracts/MTMSToken.sol\":5852:5864  _msgSender() */\n      tag_133\n        /* \"contracts/MTMSToken.sol\":5852:5862  _msgSender */\n      tag_105\n        /* \"contracts/MTMSToken.sol\":5852:5864  _msgSender() */\n      jump\t// in\n    tag_133:\n        /* \"contracts/MTMSToken.sol\":5866:5872  amount */\n      dup3\n        /* \"contracts/MTMSToken.sol\":5846:5851  _burn */\n      tag_134\n        /* \"contracts/MTMSToken.sol\":5846:5873  _burn(_msgSender(), amount) */\n      jump\t// in\n    tag_132:\n        /* \"contracts/MTMSToken.sol\":5802:5879  function burn(uint256 amount) public {\r... */\n      pop\n      jump\t// out\n        /* \"@openzeppelin/contracts/security/Pausable.sol\":1098:1182  function paused() public view virtual returns (bool) {... */\n    tag_59:\n        /* \"@openzeppelin/contracts/security/Pausable.sol\":1145:1149  bool */\n      0x00\n        /* \"@openzeppelin/contracts/security/Pausable.sol\":1168:1175  _paused */\n      dup1\n      0x14\n      swap1\n      sload\n      swap1\n      0x0100\n      exp\n      swap1\n      div\n      0xff\n      and\n        /* \"@openzeppelin/contracts/security/Pausable.sol\":1161:1175  return _paused */\n      swap1\n      pop\n        /* \"@openzeppelin/contracts/security/Pausable.sol\":1098:1182  function paused() public view virtual returns (bool) {... */\n      swap1\n      jump\t// out\n        /* \"contracts/MTMSToken.sol\":2439:2552  function balanceOf(address account) public view override returns (uint256) {\r... */\n    tag_64:\n        /* \"contracts/MTMSToken.sol\":2505:2512  uint256 */\n      0x00\n        /* \"contracts/MTMSToken.sol\":2528:2537  _balances */\n      0x01\n        /* \"contracts/MTMSToken.sol\":2528:2546  _balances[account] */\n      0x00\n        /* \"contracts/MTMSToken.sol\":2538:2545  account */\n      dup4\n        /* \"contracts/MTMSToken.sol\":2528:2546  _balances[account] */\n      0xffffffffffffffffffffffffffffffffffffffff\n      and\n      0xffffffffffffffffffffffffffffffffffffffff\n      and\n      dup2\n      mstore\n      0x20\n      add\n      swap1\n      dup2\n      mstore\n      0x20\n      add\n      0x00\n      keccak256\n      sload\n        /* \"contracts/MTMSToken.sol\":2521:2546  return _balances[account] */\n      swap1\n      pop\n        /* \"contracts/MTMSToken.sol\":2439:2552  function balanceOf(address account) public view override returns (uint256) {\r... */\n      swap2\n      swap1\n      pop\n      jump\t// out\n        /* \"@openzeppelin/contracts/access/Ownable.sol\":1668:1769  function renounceOwnership() public virtual onlyOwner {... */\n    tag_67:\n        /* \"@openzeppelin/contracts/access/Ownable.sol\":1259:1271  _msgSender() */\n      tag_138\n        /* \"@openzeppelin/contracts/access/Ownable.sol\":1259:1269  _msgSender */\n      tag_105\n        /* \"@openzeppelin/contracts/access/Ownable.sol\":1259:1271  _msgSender() */\n      jump\t// in\n    tag_138:\n        /* \"@openzeppelin/contracts/access/Ownable.sol\":1248:1271  owner() == _msgSender() */\n      0xffffffffffffffffffffffffffffffffffffffff\n      and\n        /* \"@openzeppelin/contracts/access/Ownable.sol\":1248:1255  owner() */\n      tag_139\n        /* \"@openzeppelin/contracts/access/Ownable.sol\":1248:1253  owner */\n      tag_72\n        /* \"@openzeppelin/contracts/access/Ownable.sol\":1248:1255  owner() */\n      jump\t// in\n    tag_139:\n        /* \"@openzeppelin/contracts/access/Ownable.sol\":1248:1271  owner() == _msgSender() */\n      0xffffffffffffffffffffffffffffffffffffffff\n      and\n      eq\n        /* \"@openzeppelin/contracts/access/Ownable.sol\":1240:1308  require(owner() == _msgSender(), \"Ownable: caller is not the owner\") */\n      tag_140\n      jumpi\n      mload(0x40)\n      0x08c379a000000000000000000000000000000000000000000000000000000000\n      dup2\n      mstore\n      0x04\n      add\n      tag_141\n      swap1\n      tag_127\n      jump\t// in\n    tag_141:\n      mload(0x40)\n      dup1\n      swap2\n      sub\n      swap1\n      revert\n    tag_140:\n        /* \"@openzeppelin/contracts/access/Ownable.sol\":1732:1762  _transferOwnership(address(0)) */\n      tag_143\n        /* \"@openzeppelin/contracts/access/Ownable.sol\":1759:1760  0 */\n      0x00\n        /* \"@openzeppelin/contracts/access/Ownable.sol\":1732:1750  _transferOwnership */\n      tag_144\n        /* \"@openzeppelin/contracts/access/Ownable.sol\":1732:1762  _transferOwnership(address(0)) */\n      jump\t// in\n    tag_143:\n        /* \"@openzeppelin/contracts/access/Ownable.sol\":1668:1769  function renounceOwnership() public virtual onlyOwner {... */\n      jump\t// out\n        /* \"contracts/MTMSToken.sol\":6174:6447  function burnFrom(address account, uint256 amount) public {\r... */\n    tag_70:\n        /* \"contracts/MTMSToken.sol\":6239:6265  uint256 decreasedAllowance */\n      0x00\n        /* \"contracts/MTMSToken.sol\":6268:6352  allowance(account, _msgSender()).sub(amount, \"ERC20: burn amount exceeds allowance\") */\n      tag_146\n        /* \"contracts/MTMSToken.sol\":6305:6311  amount */\n      dup3\n        /* \"contracts/MTMSToken.sol\":6268:6352  allowance(account, _msgSender()).sub(amount, \"ERC20: burn amount exceeds allowance\") */\n      mload(0x40)\n      dup1\n      0x60\n      add\n      0x40\n      mstore\n      dup1\n      0x24\n      dup2\n      mstore\n      0x20\n      add\n      data_a287c363786607a1457a2d9d12fa61c0073358e02d76b4035fc2c2d86a19c0db\n      0x24\n      swap2\n      codecopy\n        /* \"contracts/MTMSToken.sol\":6268:6300  allowance(account, _msgSender()) */\n      tag_147\n        /* \"contracts/MTMSToken.sol\":6278:6285  account */\n      dup7\n        /* \"contracts/MTMSToken.sol\":6287:6299  _msgSender() */\n      tag_148\n        /* \"contracts/MTMSToken.sol\":6287:6297  _msgSender */\n      tag_105\n        /* \"contracts/MTMSToken.sol\":6287:6299  _msgSender() */\n      jump\t// in\n    tag_148:\n        /* \"contracts/MTMSToken.sol\":6268:6277  allowance */\n      tag_89\n        /* \"contracts/MTMSToken.sol\":6268:6300  allowance(account, _msgSender()) */\n      jump\t// in\n    tag_147:\n        /* \"contracts/MTMSToken.sol\":6268:6304  allowance(account, _msgSender()).sub */\n      tag_115\n      swap1\n        /* \"contracts/MTMSToken.sol\":6268:6352  allowance(account, _msgSender()).sub(amount, \"ERC20: burn amount exceeds allowance\") */\n      swap3\n      swap2\n      swap1\n      0xffffffff\n      and\n      jump\t// in\n    tag_146:\n        /* \"contracts/MTMSToken.sol\":6239:6352  uint256 decreasedAllowance = allowance(account, _msgSender()).sub(amount, \"ERC20: burn amount exceeds allowance\") */\n      swap1\n      pop\n        /* \"contracts/MTMSToken.sol\":6361:6412  _approve(account, _msgSender(), decreasedAllowance) */\n      tag_149\n        /* \"contracts/MTMSToken.sol\":6370:6377  account */\n      dup4\n        /* \"contracts/MTMSToken.sol\":6379:6391  _msgSender() */\n      tag_150\n        /* \"contracts/MTMSToken.sol\":6379:6389  _msgSender */\n      tag_105\n        /* \"contracts/MTMSToken.sol\":6379:6391  _msgSender() */\n      jump\t// in\n    tag_150:\n        /* \"contracts/MTMSToken.sol\":6393:6411  decreasedAllowance */\n      dup4\n        /* \"contracts/MTMSToken.sol\":6361:6369  _approve */\n      tag_106\n        /* \"contracts/MTMSToken.sol\":6361:6412  _approve(account, _msgSender(), decreasedAllowance) */\n      jump\t// in\n    tag_149:\n        /* \"contracts/MTMSToken.sol\":6419:6441  _burn(account, amount) */\n      tag_151\n        /* \"contracts/MTMSToken.sol\":6425:6432  account */\n      dup4\n        /* \"contracts/MTMSToken.sol\":6434:6440  amount */\n      dup4\n        /* \"contracts/MTMSToken.sol\":6419:6424  _burn */\n      tag_134\n        /* \"contracts/MTMSToken.sol\":6419:6441  _burn(account, amount) */\n      jump\t// in\n    tag_151:\n        /* \"contracts/MTMSToken.sol\":6232:6447  {\r... */\n      pop\n        /* \"contracts/MTMSToken.sol\":6174:6447  function burnFrom(address account, uint256 amount) public {\r... */\n      pop\n      pop\n      jump\t// out\n        /* \"@openzeppelin/contracts/access/Ownable.sol\":1036:1121  function owner() public view virtual returns (address) {... */\n    tag_72:\n        /* \"@openzeppelin/contracts/access/Ownable.sol\":1082:1089  address */\n      0x00\n        /* \"@openzeppelin/contracts/access/Ownable.sol\":1108:1114  _owner */\n      dup1\n      0x00\n      swap1\n      sload\n      swap1\n      0x0100\n      exp\n      swap1\n      div\n      0xffffffffffffffffffffffffffffffffffffffff\n      and\n        /* \"@openzeppelin/contracts/access/Ownable.sol\":1101:1114  return _owner */\n      swap1\n      pop\n        /* \"@openzeppelin/contracts/access/Ownable.sol\":1036:1121  function owner() public view virtual returns (address) {... */\n      swap1\n      jump\t// out\n        /* \"contracts/MTMSToken.sol\":1458:1539  function symbol() public view returns (string memory) {\r... */\n    tag_76:\n        /* \"contracts/MTMSToken.sol\":1497:1510  string memory */\n      0x60\n        /* \"contracts/MTMSToken.sol\":1526:1533  _symbol */\n      0x06\n        /* \"contracts/MTMSToken.sol\":1519:1533  return _symbol */\n      dup1\n      sload\n      tag_154\n      swap1\n      tag_97\n      jump\t// in\n    tag_154:\n      dup1\n      0x1f\n      add\n      0x20\n      dup1\n      swap2\n      div\n      mul\n      0x20\n      add\n      mload(0x40)\n      swap1\n      dup2\n      add\n      0x40\n      mstore\n      dup1\n      swap3\n      swap2\n      swap1\n      dup2\n      dup2\n      mstore\n      0x20\n      add\n      dup3\n      dup1\n      sload\n      tag_155\n      swap1\n      tag_97\n      jump\t// in\n    tag_155:\n      dup1\n      iszero\n      tag_156\n      jumpi\n      dup1\n      0x1f\n      lt\n      tag_157\n      jumpi\n      0x0100\n      dup1\n      dup4\n      sload\n      div\n      mul\n      dup4\n      mstore\n      swap2\n      0x20\n      add\n      swap2\n      jump(tag_156)\n    tag_157:\n      dup3\n      add\n      swap2\n      swap1\n      0x00\n      mstore\n      keccak256(0x00, 0x20)\n      swap1\n    tag_158:\n      dup2\n      sload\n      dup2\n      mstore\n      swap1\n      0x01\n      add\n      swap1\n      0x20\n      add\n      dup1\n      dup4\n      gt\n      tag_158\n      jumpi\n      dup3\n      swap1\n      sub\n      0x1f\n      and\n      dup3\n      add\n      swap2\n    tag_156:\n      pop\n      pop\n      pop\n      pop\n      pop\n      swap1\n      pop\n        /* \"contracts/MTMSToken.sol\":1458:1539  function symbol() public view returns (string memory) {\r... */\n      swap1\n      jump\t// out\n        /* \"contracts/MTMSToken.sol\":5187:5438  function decreaseAllowance(address spender, uint256 subtractedValue) public returns (bool) {\r... */\n    tag_80:\n        /* \"contracts/MTMSToken.sol\":5272:5276  bool */\n      0x00\n        /* \"contracts/MTMSToken.sol\":5285:5414  _approve(_msgSender(), spender, _allowances[_msgSender()][spender].sub(subtractedValue, \"ERC20: decreased allowance below zero\")) */\n      tag_160\n        /* \"contracts/MTMSToken.sol\":5294:5306  _msgSender() */\n      tag_161\n        /* \"contracts/MTMSToken.sol\":5294:5304  _msgSender */\n      tag_105\n        /* \"contracts/MTMSToken.sol\":5294:5306  _msgSender() */\n      jump\t// in\n    tag_161:\n        /* \"contracts/MTMSToken.sol\":5308:5315  spender */\n      dup5\n        /* \"contracts/MTMSToken.sol\":5317:5413  _allowances[_msgSender()][spender].sub(subtractedValue, \"ERC20: decreased allowance below zero\") */\n      tag_162\n        /* \"contracts/MTMSToken.sol\":5356:5371  subtractedValue */\n      dup6\n        /* \"contracts/MTMSToken.sol\":5317:5413  _allowances[_msgSender()][spender].sub(subtractedValue, \"ERC20: decreased allowance below zero\") */\n      mload(0x40)\n      dup1\n      0x60\n      add\n      0x40\n      mstore\n      dup1\n      0x25\n      dup2\n      mstore\n      0x20\n      add\n      data_f8b476f7d28209d77d4a4ac1fe36b9f8259aa1bb6bddfa6e89de7e51615cf8a8\n      0x25\n      swap2\n      codecopy\n        /* \"contracts/MTMSToken.sol\":5317:5328  _allowances */\n      0x02\n        /* \"contracts/MTMSToken.sol\":5317:5342  _allowances[_msgSender()] */\n      0x00\n        /* \"contracts/MTMSToken.sol\":5329:5341  _msgSender() */\n      tag_163\n        /* \"contracts/MTMSToken.sol\":5329:5339  _msgSender */\n      tag_105\n        /* \"contracts/MTMSToken.sol\":5329:5341  _msgSender() */\n      jump\t// in\n    tag_163:\n        /* \"contracts/MTMSToken.sol\":5317:5342  _allowances[_msgSender()] */\n      0xffffffffffffffffffffffffffffffffffffffff\n      and\n      0xffffffffffffffffffffffffffffffffffffffff\n      and\n      dup2\n      mstore\n      0x20\n      add\n      swap1\n      dup2\n      mstore\n      0x20\n      add\n      0x00\n      keccak256\n        /* \"contracts/MTMSToken.sol\":5317:5351  _allowances[_msgSender()][spender] */\n      0x00\n        /* \"contracts/MTMSToken.sol\":5343:5350  spender */\n      dup11\n        /* \"contracts/MTMSToken.sol\":5317:5351  _allowances[_msgSender()][spender] */\n      0xffffffffffffffffffffffffffffffffffffffff\n      and\n      0xffffffffffffffffffffffffffffffffffffffff\n      and\n      dup2\n      mstore\n      0x20\n      add\n      swap1\n      dup2\n      mstore\n      0x20\n      add\n      0x00\n      keccak256\n      sload\n        /* \"contracts/MTMSToken.sol\":5317:5355  _allowances[_msgSender()][spender].sub */\n      tag_115\n      swap1\n        /* \"contracts/MTMSToken.sol\":5317:5413  _allowances[_msgSender()][spender].sub(subtractedValue, \"ERC20: decreased allowance below zero\") */\n      swap3\n      swap2\n      swap1\n      0xffffffff\n      and\n      jump\t// in\n    tag_162:\n        /* \"contracts/MTMSToken.sol\":5285:5293  _approve */\n      tag_106\n        /* \"contracts/MTMSToken.sol\":5285:5414  _approve(_msgSender(), spender, _allowances[_msgSender()][spender].sub(subtractedValue, \"ERC20: decreased allowance below zero\")) */\n      jump\t// in\n    tag_160:\n        /* \"contracts/MTMSToken.sol\":5428:5432  true */\n      0x01\n        /* \"contracts/MTMSToken.sol\":5421:5432  return true */\n      swap1\n      pop\n        /* \"contracts/MTMSToken.sol\":5187:5438  function decreaseAllowance(address spender, uint256 subtractedValue) public returns (bool) {\r... */\n      swap3\n      swap2\n      pop\n      pop\n      jump\t// out\n        /* \"contracts/MTMSToken.sol\":2747:2904  function transfer(address recipient, uint256 amount) public override returns (bool) {\r... */\n    tag_84:\n        /* \"contracts/MTMSToken.sol\":2825:2829  bool */\n      0x00\n        /* \"contracts/MTMSToken.sol\":2838:2880  _transfer(_msgSender(), recipient, amount) */\n      tag_165\n        /* \"contracts/MTMSToken.sol\":2848:2860  _msgSender() */\n      tag_166\n        /* \"contracts/MTMSToken.sol\":2848:2858  _msgSender */\n      tag_105\n        /* \"contracts/MTMSToken.sol\":2848:2860  _msgSender() */\n      jump\t// in\n    tag_166:\n        /* \"contracts/MTMSToken.sol\":2862:2871  recipient */\n      dup5\n        /* \"contracts/MTMSToken.sol\":2873:2879  amount */\n      dup5\n        /* \"contracts/MTMSToken.sol\":2838:2847  _transfer */\n      tag_110\n        /* \"contracts/MTMSToken.sol\":2838:2880  _transfer(_msgSender(), recipient, amount) */\n      jump\t// in\n    tag_165:\n        /* \"contracts/MTMSToken.sol\":2894:2898  true */\n      0x01\n        /* \"contracts/MTMSToken.sol\":2887:2898  return true */\n      swap1\n      pop\n        /* \"contracts/MTMSToken.sol\":2747:2904  function transfer(address recipient, uint256 amount) public override returns (bool) {\r... */\n      swap3\n      swap2\n      pop\n      pop\n      jump\t// out\n        /* \"contracts/MTMSToken.sol\":2959:3096  function allowance(address owner, address spender) public view override returns (uint256) {\r... */\n    tag_89:\n        /* \"contracts/MTMSToken.sol\":3040:3047  uint256 */\n      0x00\n        /* \"contracts/MTMSToken.sol\":3063:3074  _allowances */\n      0x02\n        /* \"contracts/MTMSToken.sol\":3063:3081  _allowances[owner] */\n      0x00\n        /* \"contracts/MTMSToken.sol\":3075:3080  owner */\n      dup5\n        /* \"contracts/MTMSToken.sol\":3063:3081  _allowances[owner] */\n      0xffffffffffffffffffffffffffffffffffffffff\n      and\n      0xffffffffffffffffffffffffffffffffffffffff\n      and\n      dup2\n      mstore\n      0x20\n      add\n      swap1\n      dup2\n      mstore\n      0x20\n      add\n      0x00\n      keccak256\n        /* \"contracts/MTMSToken.sol\":3063:3090  _allowances[owner][spender] */\n      0x00\n        /* \"contracts/MTMSToken.sol\":3082:3089  spender */\n      dup4\n        /* \"contracts/MTMSToken.sol\":3063:3090  _allowances[owner][spender] */\n      0xffffffffffffffffffffffffffffffffffffffff\n      and\n      0xffffffffffffffffffffffffffffffffffffffff\n      and\n      dup2\n      mstore\n      0x20\n      add\n      swap1\n      dup2\n      mstore\n      0x20\n      add\n      0x00\n      keccak256\n      sload\n        /* \"contracts/MTMSToken.sol\":3056:3090  return _allowances[owner][spender] */\n      swap1\n      pop\n        /* \"contracts/MTMSToken.sol\":2959:3096  function allowance(address owner, address spender) public view override returns (uint256) {\r... */\n      swap3\n      swap2\n      pop\n      pop\n      jump\t// out\n        /* \"@openzeppelin/contracts/access/Ownable.sol\":1918:2116  function transferOwnership(address newOwner) public virtual onlyOwner {... */\n    tag_93:\n        /* \"@openzeppelin/contracts/access/Ownable.sol\":1259:1271  _msgSender() */\n      tag_169\n        /* \"@openzeppelin/contracts/access/Ownable.sol\":1259:1269  _msgSender */\n      tag_105\n        /* \"@openzeppelin/contracts/access/Ownable.sol\":1259:1271  _msgSender() */\n      jump\t// in\n    tag_169:\n        /* \"@openzeppelin/contracts/access/Ownable.sol\":1248:1271  owner() == _msgSender() */\n      0xffffffffffffffffffffffffffffffffffffffff\n      and\n        /* \"@openzeppelin/contracts/access/Ownable.sol\":1248:1255  owner() */\n      tag_170\n        /* \"@openzeppelin/contracts/access/Ownable.sol\":1248:1253  owner */\n      tag_72\n        /* \"@openzeppelin/contracts/access/Ownable.sol\":1248:1255  owner() */\n      jump\t// in\n    tag_170:\n        /* \"@openzeppelin/contracts/access/Ownable.sol\":1248:1271  owner() == _msgSender() */\n      0xffffffffffffffffffffffffffffffffffffffff\n      and\n      eq\n        /* \"@openzeppelin/contracts/access/Ownable.sol\":1240:1308  require(owner() == _msgSender(), \"Ownable: caller is not the owner\") */\n      tag_171\n      jumpi\n      mload(0x40)\n      0x08c379a000000000000000000000000000000000000000000000000000000000\n      dup2\n      mstore\n      0x04\n      add\n      tag_172\n      swap1\n      tag_127\n      jump\t// in\n    tag_172:\n      mload(0x40)\n      dup1\n      swap2\n      sub\n      swap1\n      revert\n    tag_171:\n        /* \"@openzeppelin/contracts/access/Ownable.sol\":2026:2027  0 */\n      0x00\n        /* \"@openzeppelin/contracts/access/Ownable.sol\":2006:2028  newOwner != address(0) */\n      0xffffffffffffffffffffffffffffffffffffffff\n      and\n        /* \"@openzeppelin/contracts/access/Ownable.sol\":2006:2014  newOwner */\n      dup2\n        /* \"@openzeppelin/contracts/access/Ownable.sol\":2006:2028  newOwner != address(0) */\n      0xffffffffffffffffffffffffffffffffffffffff\n      and\n      eq\n      iszero\n        /* \"@openzeppelin/contracts/access/Ownable.sol\":1998:2071  require(newOwner != address(0), \"Ownable: new owner is the zero address\") */\n      tag_174\n      jumpi\n      mload(0x40)\n      0x08c379a000000000000000000000000000000000000000000000000000000000\n      dup2\n      mstore\n      0x04\n      add\n      tag_175\n      swap1\n      tag_176\n      jump\t// in\n    tag_175:\n      mload(0x40)\n      dup1\n      swap2\n      sub\n      swap1\n      revert\n    tag_174:\n        /* \"@openzeppelin/contracts/access/Ownable.sol\":2081:2109  _transferOwnership(newOwner) */\n      tag_177\n        /* \"@openzeppelin/contracts/access/Ownable.sol\":2100:2108  newOwner */\n      dup2\n        /* \"@openzeppelin/contracts/access/Ownable.sol\":2081:2099  _transferOwnership */\n      tag_144\n        /* \"@openzeppelin/contracts/access/Ownable.sol\":2081:2109  _transferOwnership(newOwner) */\n      jump\t// in\n    tag_177:\n        /* \"@openzeppelin/contracts/access/Ownable.sol\":1918:2116  function transferOwnership(address newOwner) public virtual onlyOwner {... */\n      pop\n      jump\t// out\n        /* \"@openzeppelin/contracts/utils/math/SafeMath.sol\":2755:2851  function add(uint256 a, uint256 b) internal pure returns (uint256) {... */\n    tag_94:\n        /* \"@openzeppelin/contracts/utils/math/SafeMath.sol\":2813:2820  uint256 */\n      0x00\n        /* \"@openzeppelin/contracts/utils/math/SafeMath.sol\":2843:2844  b */\n      dup2\n        /* \"@openzeppelin/contracts/utils/math/SafeMath.sol\":2839:2840  a */\n      dup4\n        /* \"@openzeppelin/contracts/utils/math/SafeMath.sol\":2839:2844  a + b */\n      tag_179\n      swap2\n      swap1\n      tag_180\n      jump\t// in\n    tag_179:\n        /* \"@openzeppelin/contracts/utils/math/SafeMath.sol\":2832:2844  return a + b */\n      swap1\n      pop\n        /* \"@openzeppelin/contracts/utils/math/SafeMath.sol\":2755:2851  function add(uint256 a, uint256 b) internal pure returns (uint256) {... */\n      swap3\n      swap2\n      pop\n      pop\n      jump\t// out\n        /* \"@openzeppelin/contracts/utils/Context.sol\":640:736  function _msgSender() internal view virtual returns (address) {... */\n    tag_105:\n        /* \"@openzeppelin/contracts/utils/Context.sol\":693:700  address */\n      0x00\n        /* \"@openzeppelin/contracts/utils/Context.sol\":719:729  msg.sender */\n      caller\n        /* \"@openzeppelin/contracts/utils/Context.sol\":712:729  return msg.sender */\n      swap1\n      pop\n        /* \"@openzeppelin/contracts/utils/Context.sol\":640:736  function _msgSender() internal view virtual returns (address) {... */\n      swap1\n      jump\t// out\n        /* \"contracts/MTMSToken.sol\":9049:9369  function _approve(address owner, address spender, uint256 amount) internal {\r... */\n    tag_106:\n        /* \"contracts/MTMSToken.sol\":9156:9157  0 */\n      0x00\n        /* \"contracts/MTMSToken.sol\":9139:9158  owner != address(0) */\n      0xffffffffffffffffffffffffffffffffffffffff\n      and\n        /* \"contracts/MTMSToken.sol\":9139:9144  owner */\n      dup4\n        /* \"contracts/MTMSToken.sol\":9139:9158  owner != address(0) */\n      0xffffffffffffffffffffffffffffffffffffffff\n      and\n      eq\n      iszero\n        /* \"contracts/MTMSToken.sol\":9131:9199  require(owner != address(0), \"ERC20: approve from the zero address\") */\n      tag_183\n      jumpi\n      mload(0x40)\n      0x08c379a000000000000000000000000000000000000000000000000000000000\n      dup2\n      mstore\n      0x04\n      add\n      tag_184\n      swap1\n      tag_185\n      jump\t// in\n    tag_184:\n      mload(0x40)\n      dup1\n      swap2\n      sub\n      swap1\n      revert\n    tag_183:\n        /* \"contracts/MTMSToken.sol\":9233:9234  0 */\n      0x00\n        /* \"contracts/MTMSToken.sol\":9214:9235  spender != address(0) */\n      0xffffffffffffffffffffffffffffffffffffffff\n      and\n        /* \"contracts/MTMSToken.sol\":9214:9221  spender */\n      dup3\n        /* \"contracts/MTMSToken.sol\":9214:9235  spender != address(0) */\n      0xffffffffffffffffffffffffffffffffffffffff\n      and\n      eq\n      iszero\n        /* \"contracts/MTMSToken.sol\":9206:9274  require(spender != address(0), \"ERC20: approve to the zero address\") */\n      tag_186\n      jumpi\n      mload(0x40)\n      0x08c379a000000000000000000000000000000000000000000000000000000000\n      dup2\n      mstore\n      0x04\n      add\n      tag_187\n      swap1\n      tag_188\n      jump\t// in\n    tag_187:\n      mload(0x40)\n      dup1\n      swap2\n      sub\n      swap1\n      revert\n    tag_186:\n        /* \"contracts/MTMSToken.sol\":9313:9319  amount */\n      dup1\n        /* \"contracts/MTMSToken.sol\":9283:9294  _allowances */\n      0x02\n        /* \"contracts/MTMSToken.sol\":9283:9301  _allowances[owner] */\n      0x00\n        /* \"contracts/MTMSToken.sol\":9295:9300  owner */\n      dup6\n        /* \"contracts/MTMSToken.sol\":9283:9301  _allowances[owner] */\n      0xffffffffffffffffffffffffffffffffffffffff\n      and\n      0xffffffffffffffffffffffffffffffffffffffff\n      and\n      dup2\n      mstore\n      0x20\n      add\n      swap1\n      dup2\n      mstore\n      0x20\n      add\n      0x00\n      keccak256\n        /* \"contracts/MTMSToken.sol\":9283:9310  _allowances[owner][spender] */\n      0x00\n        /* \"contracts/MTMSToken.sol\":9302:9309  spender */\n      dup5\n        /* \"contracts/MTMSToken.sol\":9283:9310  _allowances[owner][spender] */\n      0xffffffffffffffffffffffffffffffffffffffff\n      and\n      0xffffffffffffffffffffffffffffffffffffffff\n      and\n      dup2\n      mstore\n      0x20\n      add\n      swap1\n      dup2\n      mstore\n      0x20\n      add\n      0x00\n      keccak256\n        /* \"contracts/MTMSToken.sol\":9283:9319  _allowances[owner][spender] = amount */\n      dup2\n      swap1\n      sstore\n      pop\n        /* \"contracts/MTMSToken.sol\":9347:9354  spender */\n      dup2\n        /* \"contracts/MTMSToken.sol\":9331:9363  Approval(owner, spender, amount) */\n      0xffffffffffffffffffffffffffffffffffffffff\n      and\n        /* \"contracts/MTMSToken.sol\":9340:9345  owner */\n      dup4\n        /* \"contracts/MTMSToken.sol\":9331:9363  Approval(owner, spender, amount) */\n      0xffffffffffffffffffffffffffffffffffffffff\n      and\n      0x8c5be1e5ebec7d5bd14f71427d1e84f3dd0314c0f7b2291e5b200ac8c7c3b925\n        /* \"contracts/MTMSToken.sol\":9356:9362  amount */\n      dup4\n        /* \"contracts/MTMSToken.sol\":9331:9363  Approval(owner, spender, amount) */\n      mload(0x40)\n      tag_189\n      swap2\n      swap1\n      tag_37\n      jump\t// in\n    tag_189:\n      mload(0x40)\n      dup1\n      swap2\n      sub\n      swap1\n      log3\n        /* \"contracts/MTMSToken.sol\":9049:9369  function _approve(address owner, address spender, uint256 amount) internal {\r... */\n      pop\n      pop\n      pop\n      jump\t// out\n        /* \"contracts/MTMSToken.sol\":6907:7356  function _transfer(address sender, address recipient, uint256 amount) internal {\r... */\n    tag_110:\n        /* \"contracts/MTMSToken.sol\":7019:7020  0 */\n      0x00\n        /* \"contracts/MTMSToken.sol\":7001:7021  sender != address(0) */\n      0xffffffffffffffffffffffffffffffffffffffff\n      and\n        /* \"contracts/MTMSToken.sol\":7001:7007  sender */\n      dup4\n        /* \"contracts/MTMSToken.sol\":7001:7021  sender != address(0) */\n      0xffffffffffffffffffffffffffffffffffffffff\n      and\n      eq\n      iszero\n        /* \"contracts/MTMSToken.sol\":6993:7063  require(sender != address(0), \"ERC20: transfer from the zero address\") */\n      tag_191\n      jumpi\n      mload(0x40)\n      0x08c379a000000000000000000000000000000000000000000000000000000000\n      dup2\n      mstore\n      0x04\n      add\n      tag_192\n      swap1\n      tag_193\n      jump\t// in\n    tag_192:\n      mload(0x40)\n      dup1\n      swap2\n      sub\n      swap1\n      revert\n    tag_191:\n        /* \"contracts/MTMSToken.sol\":7099:7100  0 */\n      0x00\n        /* \"contracts/MTMSToken.sol\":7078:7101  recipient != address(0) */\n      0xffffffffffffffffffffffffffffffffffffffff\n      and\n        /* \"contracts/MTMSToken.sol\":7078:7087  recipient */\n      dup3\n        /* \"contracts/MTMSToken.sol\":7078:7101  recipient != address(0) */\n      0xffffffffffffffffffffffffffffffffffffffff\n      and\n      eq\n      iszero\n        /* \"contracts/MTMSToken.sol\":7070:7141  require(recipient != address(0), \"ERC20: transfer to the zero address\") */\n      tag_194\n      jumpi\n      mload(0x40)\n      0x08c379a000000000000000000000000000000000000000000000000000000000\n      dup2\n      mstore\n      0x04\n      add\n      tag_195\n      swap1\n      tag_196\n      jump\t// in\n    tag_195:\n      mload(0x40)\n      dup1\n      swap2\n      sub\n      swap1\n      revert\n    tag_194:\n        /* \"contracts/MTMSToken.sol\":7170:7241  _balances[sender].sub(amount, \"ERC20: transfer amount exceeds balance\") */\n      tag_197\n        /* \"contracts/MTMSToken.sol\":7192:7198  amount */\n      dup2\n        /* \"contracts/MTMSToken.sol\":7170:7241  _balances[sender].sub(amount, \"ERC20: transfer amount exceeds balance\") */\n      mload(0x40)\n      dup1\n      0x60\n      add\n      0x40\n      mstore\n      dup1\n      0x26\n      dup2\n      mstore\n      0x20\n      add\n      data_4107e8a8b9e94bf8ff83080ddec1c0bffe897ebc2241b89d44f66b3d274088b6\n      0x26\n      swap2\n      codecopy\n        /* \"contracts/MTMSToken.sol\":7170:7179  _balances */\n      0x01\n        /* \"contracts/MTMSToken.sol\":7170:7187  _balances[sender] */\n      0x00\n        /* \"contracts/MTMSToken.sol\":7180:7186  sender */\n      dup8\n        /* \"contracts/MTMSToken.sol\":7170:7187  _balances[sender] */\n      0xffffffffffffffffffffffffffffffffffffffff\n      and\n      0xffffffffffffffffffffffffffffffffffffffff\n      and\n      dup2\n      mstore\n      0x20\n      add\n      swap1\n      dup2\n      mstore\n      0x20\n      add\n      0x00\n      keccak256\n      sload\n        /* \"contracts/MTMSToken.sol\":7170:7191  _balances[sender].sub */\n      tag_115\n      swap1\n        /* \"contracts/MTMSToken.sol\":7170:7241  _balances[sender].sub(amount, \"ERC20: transfer amount exceeds balance\") */\n      swap3\n      swap2\n      swap1\n      0xffffffff\n      and\n      jump\t// in\n    tag_197:\n        /* \"contracts/MTMSToken.sol\":7150:7159  _balances */\n      0x01\n        /* \"contracts/MTMSToken.sol\":7150:7167  _balances[sender] */\n      0x00\n        /* \"contracts/MTMSToken.sol\":7160:7166  sender */\n      dup6\n        /* \"contracts/MTMSToken.sol\":7150:7167  _balances[sender] */\n      0xffffffffffffffffffffffffffffffffffffffff\n      and\n      0xffffffffffffffffffffffffffffffffffffffff\n      and\n      dup2\n      mstore\n      0x20\n      add\n      swap1\n      dup2\n      mstore\n      0x20\n      add\n      0x00\n      keccak256\n        /* \"contracts/MTMSToken.sol\":7150:7241  _balances[sender] = _balances[sender].sub(amount, \"ERC20: transfer amount exceeds balance\") */\n      dup2\n      swap1\n      sstore\n      pop\n        /* \"contracts/MTMSToken.sol\":7271:7303  _balances[recipient].add(amount) */\n      tag_198\n        /* \"contracts/MTMSToken.sol\":7296:7302  amount */\n      dup2\n        /* \"contracts/MTMSToken.sol\":7271:7280  _balances */\n      0x01\n        /* \"contracts/MTMSToken.sol\":7271:7291  _balances[recipient] */\n      0x00\n        /* \"contracts/MTMSToken.sol\":7281:7290  recipient */\n      dup6\n        /* \"contracts/MTMSToken.sol\":7271:7291  _balances[recipient] */\n      0xffffffffffffffffffffffffffffffffffffffff\n      and\n      0xffffffffffffffffffffffffffffffffffffffff\n      and\n      dup2\n      mstore\n      0x20\n      add\n      swap1\n      dup2\n      mstore\n      0x20\n      add\n      0x00\n      keccak256\n      sload\n        /* \"contracts/MTMSToken.sol\":7271:7295  _balances[recipient].add */\n      tag_94\n      swap1\n        /* \"contracts/MTMSToken.sol\":7271:7303  _balances[recipient].add(amount) */\n      swap2\n      swap1\n      0xffffffff\n      and\n      jump\t// in\n    tag_198:\n        /* \"contracts/MTMSToken.sol\":7248:7257  _balances */\n      0x01\n        /* \"contracts/MTMSToken.sol\":7248:7268  _balances[recipient] */\n      0x00\n        /* \"contracts/MTMSToken.sol\":7258:7267  recipient */\n      dup5\n        /* \"contracts/MTMSToken.sol\":7248:7268  _balances[recipient] */\n      0xffffffffffffffffffffffffffffffffffffffff\n      and\n      0xffffffffffffffffffffffffffffffffffffffff\n      and\n      dup2\n      mstore\n      0x20\n      add\n      swap1\n      dup2\n      mstore\n      0x20\n      add\n      0x00\n      keccak256\n        /* \"contracts/MTMSToken.sol\":7248:7303  _balances[recipient] = _balances[recipient].add(amount) */\n      dup2\n      swap1\n      sstore\n      pop\n        /* \"contracts/MTMSToken.sol\":7332:7341  recipient */\n      dup2\n        /* \"contracts/MTMSToken.sol\":7315:7350  Transfer(sender, recipient, amount) */\n      0xffffffffffffffffffffffffffffffffffffffff\n      and\n        /* \"contracts/MTMSToken.sol\":7324:7330  sender */\n      dup4\n        /* \"contracts/MTMSToken.sol\":7315:7350  Transfer(sender, recipient, amount) */\n      0xffffffffffffffffffffffffffffffffffffffff\n      and\n      0xddf252ad1be2c89b69c2b068fc378daa952ba7f163c4a11628f55a4df523b3ef\n        /* \"contracts/MTMSToken.sol\":7343:7349  amount */\n      dup4\n        /* \"contracts/MTMSToken.sol\":7315:7350  Transfer(sender, recipient, amount) */\n      mload(0x40)\n      tag_199\n      swap2\n      swap1\n      tag_37\n      jump\t// in\n    tag_199:\n      mload(0x40)\n      dup1\n      swap2\n      sub\n      swap1\n      log3\n        /* \"contracts/MTMSToken.sol\":6907:7356  function _transfer(address sender, address recipient, uint256 amount) internal {\r... */\n      pop\n      pop\n      pop\n      jump\t// out\n        /* \"@openzeppelin/contracts/utils/math/SafeMath.sol\":4959:5190  function sub(... */\n    tag_115:\n        /* \"@openzeppelin/contracts/utils/math/SafeMath.sol\":5075:5082  uint256 */\n      0x00\n        /* \"@openzeppelin/contracts/utils/math/SafeMath.sol\":5131:5132  a */\n      dup4\n        /* \"@openzeppelin/contracts/utils/math/SafeMath.sol\":5126:5127  b */\n      dup4\n        /* \"@openzeppelin/contracts/utils/math/SafeMath.sol\":5126:5132  b <= a */\n      gt\n      iszero\n        /* \"@openzeppelin/contracts/utils/math/SafeMath.sol\":5134:5146  errorMessage */\n      dup3\n        /* \"@openzeppelin/contracts/utils/math/SafeMath.sol\":5118:5147  require(b <= a, errorMessage) */\n      swap1\n      tag_201\n      jumpi\n      mload(0x40)\n      0x08c379a000000000000000000000000000000000000000000000000000000000\n      dup2\n      mstore\n      0x04\n      add\n      tag_202\n      swap2\n      swap1\n      tag_27\n      jump\t// in\n    tag_202:\n      mload(0x40)\n      dup1\n      swap2\n      sub\n      swap1\n      revert\n    tag_201:\n      pop\n        /* \"@openzeppelin/contracts/utils/math/SafeMath.sol\":5172:5173  b */\n      dup3\n        /* \"@openzeppelin/contracts/utils/math/SafeMath.sol\":5168:5169  a */\n      dup5\n        /* \"@openzeppelin/contracts/utils/math/SafeMath.sol\":5168:5173  a - b */\n      sub\n        /* \"@openzeppelin/contracts/utils/math/SafeMath.sol\":5161:5173  return a - b */\n      swap1\n      pop\n        /* \"@openzeppelin/contracts/utils/math/SafeMath.sol\":4959:5190  function sub(... */\n      swap4\n      swap3\n      pop\n      pop\n      pop\n      jump\t// out\n        /* \"contracts/MTMSToken.sol\":7618:8000  function _mint(address account, uint256 amount) internal {\r... */\n    tag_130:\n        /* \"contracts/MTMSToken.sol\":7709:7710  0 */\n      0x00\n        /* \"contracts/MTMSToken.sol\":7690:7711  account != address(0) */\n      0xffffffffffffffffffffffffffffffffffffffff\n      and\n        /* \"contracts/MTMSToken.sol\":7690:7697  account */\n      dup3\n        /* \"contracts/MTMSToken.sol\":7690:7711  account != address(0) */\n      0xffffffffffffffffffffffffffffffffffffffff\n      and\n      eq\n      iszero\n        /* \"contracts/MTMSToken.sol\":7682:7747  require(account != address(0), \"ERC20: mint to the zero address\") */\n      tag_204\n      jumpi\n      mload(0x40)\n      0x08c379a000000000000000000000000000000000000000000000000000000000\n      dup2\n      mstore\n      0x04\n      add\n      tag_205\n      swap1\n      tag_206\n      jump\t// in\n    tag_205:\n      mload(0x40)\n      dup1\n      swap2\n      sub\n      swap1\n      revert\n    tag_204:\n        /* \"contracts/MTMSToken.sol\":7787:7797  _maxSupply */\n      sload(0x03)\n        /* \"contracts/MTMSToken.sol\":7777:7783  amount */\n      dup2\n        /* \"contracts/MTMSToken.sol\":7762:7774  _totalSupply */\n      sload(0x04)\n        /* \"contracts/MTMSToken.sol\":7762:7783  _totalSupply + amount */\n      tag_207\n      swap2\n      swap1\n      tag_180\n      jump\t// in\n    tag_207:\n        /* \"contracts/MTMSToken.sol\":7762:7797  _totalSupply + amount <= _maxSupply */\n      gt\n      iszero\n        /* \"contracts/MTMSToken.sol\":7754:7839  require(_totalSupply + amount <= _maxSupply, \"ERC20: mint amount exceeds max supply\") */\n      tag_208\n      jumpi\n      mload(0x40)\n      0x08c379a000000000000000000000000000000000000000000000000000000000\n      dup2\n      mstore\n      0x04\n      add\n      tag_209\n      swap1\n      tag_210\n      jump\t// in\n    tag_209:\n      mload(0x40)\n      dup1\n      swap2\n      sub\n      swap1\n      revert\n    tag_208:\n        /* \"contracts/MTMSToken.sol\":7863:7887  _totalSupply.add(amount) */\n      tag_211\n        /* \"contracts/MTMSToken.sol\":7880:7886  amount */\n      dup2\n        /* \"contracts/MTMSToken.sol\":7863:7875  _totalSupply */\n      sload(0x04)\n        /* \"contracts/MTMSToken.sol\":7863:7879  _totalSupply.add */\n      tag_94\n      swap1\n        /* \"contracts/MTMSToken.sol\":7863:7887  _totalSupply.add(amount) */\n      swap2\n      swap1\n      0xffffffff\n      and\n      jump\t// in\n    tag_211:\n        /* \"contracts/MTMSToken.sol\":7848:7860  _totalSupply */\n      0x04\n        /* \"contracts/MTMSToken.sol\":7848:7887  _totalSupply = _totalSupply.add(amount) */\n      dup2\n      swap1\n      sstore\n      pop\n        /* \"contracts/MTMSToken.sol\":7915:7945  _balances[account].add(amount) */\n      tag_212\n        /* \"contracts/MTMSToken.sol\":7938:7944  amount */\n      dup2\n        /* \"contracts/MTMSToken.sol\":7915:7924  _balances */\n      0x01\n        /* \"contracts/MTMSToken.sol\":7915:7933  _balances[account] */\n      0x00\n        /* \"contracts/MTMSToken.sol\":7925:7932  account */\n      dup6\n        /* \"contracts/MTMSToken.sol\":7915:7933  _balances[account] */\n      0xffffffffffffffffffffffffffffffffffffffff\n      and\n      0xffffffffffffffffffffffffffffffffffffffff\n      and\n      dup2\n      mstore\n      0x20\n      add\n      swap1\n      dup2\n      mstore\n      0x20\n      add\n      0x00\n      keccak256\n      sload\n        /* \"contracts/MTMSToken.sol\":7915:7937  _balances[account].add */\n      tag_94\n      swap1\n        /* \"contracts/MTMSToken.sol\":7915:7945  _balances[account].add(amount) */\n      swap2\n      swap1\n      0xffffffff\n      and\n      jump\t// in\n    tag_212:\n        /* \"contracts/MTMSToken.sol\":7894:7903  _balances */\n      0x01\n        /* \"contracts/MTMSToken.sol\":7894:7912  _balances[account] */\n      0x00\n        /* \"contracts/MTMSToken.sol\":7904:7911  account */\n      dup5\n        /* \"contracts/MTMSToken.sol\":7894:7912  _balances[account] */\n      0xffffffffffffffffffffffffffffffffffffffff\n      and\n      0xffffffffffffffffffffffffffffffffffffffff\n      and\n      dup2\n      mstore\n      0x20\n      add\n      swap1\n      dup2\n      mstore\n      0x20\n      add\n      0x00\n      keccak256\n        /* \"contracts/MTMSToken.sol\":7894:7945  _balances[account] = _balances[account].add(amount) */\n      dup2\n      swap1\n      sstore\n      pop\n        /* \"contracts/MTMSToken.sol\":7978:7985  account */\n      dup2\n        /* \"contracts/MTMSToken.sol\":7957:7994  Transfer(address(0), account, amount) */\n      0xffffffffffffffffffffffffffffffffffffffff\n      and\n        /* \"contracts/MTMSToken.sol\":7974:7975  0 */\n      0x00\n        /* \"contracts/MTMSToken.sol\":7957:7994  Transfer(address(0), account, amount) */\n      0xffffffffffffffffffffffffffffffffffffffff\n      and\n      0xddf252ad1be2c89b69c2b068fc378daa952ba7f163c4a11628f55a4df523b3ef\n        /* \"contracts/MTMSToken.sol\":7987:7993  amount */\n      dup4\n        /* \"contracts/MTMSToken.sol\":7957:7994  Transfer(address(0), account, amount) */\n      mload(0x40)\n      tag_213\n      swap2\n      swap1\n      tag_37\n      jump\t// in\n    tag_213:\n      mload(0x40)\n      dup1\n      swap2\n      sub\n      swap1\n      log3\n        /* \"contracts/MTMSToken.sol\":7618:8000  function _mint(address account, uint256 amount) internal {\r... */\n      pop\n      pop\n      jump\t// out\n        /* \"contracts/MTMSToken.sol\":8309:8639  function _burn(address account, uint256 amount) internal {\r... */\n    tag_134:\n        /* \"contracts/MTMSToken.sol\":8400:8401  0 */\n      0x00\n        /* \"contracts/MTMSToken.sol\":8381:8402  account != address(0) */\n      0xffffffffffffffffffffffffffffffffffffffff\n      and\n        /* \"contracts/MTMSToken.sol\":8381:8388  account */\n      dup3\n        /* \"contracts/MTMSToken.sol\":8381:8402  account != address(0) */\n      0xffffffffffffffffffffffffffffffffffffffff\n      and\n      eq\n      iszero\n        /* \"contracts/MTMSToken.sol\":8373:8440  require(account != address(0), \"ERC20: burn from the zero address\") */\n      tag_215\n      jumpi\n      mload(0x40)\n      0x08c379a000000000000000000000000000000000000000000000000000000000\n      dup2\n      mstore\n      0x04\n      add\n      tag_216\n      swap1\n      tag_217\n      jump\t// in\n    tag_216:\n      mload(0x40)\n      dup1\n      swap2\n      sub\n      swap1\n      revert\n    tag_215:\n        /* \"contracts/MTMSToken.sol\":8470:8538  _balances[account].sub(amount, \"ERC20: burn amount exceeds balance\") */\n      tag_218\n        /* \"contracts/MTMSToken.sol\":8493:8499  amount */\n      dup2\n        /* \"contracts/MTMSToken.sol\":8470:8538  _balances[account].sub(amount, \"ERC20: burn amount exceeds balance\") */\n      mload(0x40)\n      dup1\n      0x60\n      add\n      0x40\n      mstore\n      dup1\n      0x22\n      dup2\n      mstore\n      0x20\n      add\n      data_149b126e7125232b4200af45303d04fba8b74653b1a295a6a561a528c33fefdd\n      0x22\n      swap2\n      codecopy\n        /* \"contracts/MTMSToken.sol\":8470:8479  _balances */\n      0x01\n        /* \"contracts/MTMSToken.sol\":8470:8488  _balances[account] */\n      0x00\n        /* \"contracts/MTMSToken.sol\":8480:8487  account */\n      dup7\n        /* \"contracts/MTMSToken.sol\":8470:8488  _balances[account] */\n      0xffffffffffffffffffffffffffffffffffffffff\n      and\n      0xffffffffffffffffffffffffffffffffffffffff\n      and\n      dup2\n      mstore\n      0x20\n      add\n      swap1\n      dup2\n      mstore\n      0x20\n      add\n      0x00\n      keccak256\n      sload\n        /* \"contracts/MTMSToken.sol\":8470:8492  _balances[account].sub */\n      tag_115\n      swap1\n        /* \"contracts/MTMSToken.sol\":8470:8538  _balances[account].sub(amount, \"ERC20: burn amount exceeds balance\") */\n      swap3\n      swap2\n      swap1\n      0xffffffff\n      and\n      jump\t// in\n    tag_218:\n        /* \"contracts/MTMSToken.sol\":8449:8458  _balances */\n      0x01\n        /* \"contracts/MTMSToken.sol\":8449:8467  _balances[account] */\n      0x00\n        /* \"contracts/MTMSToken.sol\":8459:8466  account */\n      dup5\n        /* \"contracts/MTMSToken.sol\":8449:8467  _balances[account] */\n      0xffffffffffffffffffffffffffffffffffffffff\n      and\n      0xffffffffffffffffffffffffffffffffffffffff\n      and\n      dup2\n      mstore\n      0x20\n      add\n      swap1\n      dup2\n      mstore\n      0x20\n      add\n      0x00\n      keccak256\n        /* \"contracts/MTMSToken.sol\":8449:8538  _balances[account] = _balances[account].sub(amount, \"ERC20: burn amount exceeds balance\") */\n      dup2\n      swap1\n      sstore\n      pop\n        /* \"contracts/MTMSToken.sol\":8560:8584  _totalSupply.sub(amount) */\n      tag_219\n        /* \"contracts/MTMSToken.sol\":8577:8583  amount */\n      dup2\n        /* \"contracts/MTMSToken.sol\":8560:8572  _totalSupply */\n      sload(0x04)\n        /* \"contracts/MTMSToken.sol\":8560:8576  _totalSupply.sub */\n      tag_220\n      swap1\n        /* \"contracts/MTMSToken.sol\":8560:8584  _totalSupply.sub(amount) */\n      swap2\n      swap1\n      0xffffffff\n      and\n      jump\t// in\n    tag_219:\n        /* \"contracts/MTMSToken.sol\":8545:8557  _totalSupply */\n      0x04\n        /* \"contracts/MTMSToken.sol\":8545:8584  _totalSupply = _totalSupply.sub(amount) */\n      dup2\n      swap1\n      sstore\n      pop\n        /* \"contracts/MTMSToken.sol\":8622:8623  0 */\n      0x00\n        /* \"contracts/MTMSToken.sol\":8596:8633  Transfer(account, address(0), amount) */\n      0xffffffffffffffffffffffffffffffffffffffff\n      and\n        /* \"contracts/MTMSToken.sol\":8605:8612  account */\n      dup3\n        /* \"contracts/MTMSToken.sol\":8596:8633  Transfer(account, address(0), amount) */\n      0xffffffffffffffffffffffffffffffffffffffff\n      and\n      0xddf252ad1be2c89b69c2b068fc378daa952ba7f163c4a11628f55a4df523b3ef\n        /* \"contracts/MTMSToken.sol\":8626:8632  amount */\n      dup4\n        /* \"contracts/MTMSToken.sol\":8596:8633  Transfer(account, address(0), amount) */\n      mload(0x40)\n      tag_221\n      swap2\n      swap1\n      tag_37\n      jump\t// in\n    tag_221:\n      mload(0x40)\n      dup1\n      swap2\n      sub\n      swap1\n      log3\n        /* \"contracts/MTMSToken.sol\":8309:8639  function _burn(address account, uint256 amount) internal {\r... */\n      pop\n      pop\n      jump\t// out\n        /* \"@openzeppelin/contracts/access/Ownable.sol\":2270:2457  function _transferOwnership(address newOwner) internal virtual {... */\n    tag_144:\n        /* \"@openzeppelin/contracts/access/Ownable.sol\":2343:2359  address oldOwner */\n      0x00\n        /* \"@openzeppelin/contracts/access/Ownable.sol\":2362:2368  _owner */\n      dup1\n      0x00\n      swap1\n      sload\n      swap1\n      0x0100\n      exp\n      swap1\n      div\n      0xffffffffffffffffffffffffffffffffffffffff\n      and\n        /* \"@openzeppelin/contracts/access/Ownable.sol\":2343:2368  address oldOwner = _owner */\n      swap1\n      pop\n        /* \"@openzeppelin/contracts/access/Ownable.sol\":2387:2395  newOwner */\n      dup2\n        /* \"@openzeppelin/contracts/access/Ownable.sol\":2378:2384  _owner */\n      0x00\n      dup1\n        /* \"@openzeppelin/contracts/access/Ownable.sol\":2378:2395  _owner = newOwner */\n      0x0100\n      exp\n      dup2\n      sload\n      dup2\n      0xffffffffffffffffffffffffffffffffffffffff\n      mul\n      not\n      and\n      swap1\n      dup4\n      0xffffffffffffffffffffffffffffffffffffffff\n      and\n      mul\n      or\n      swap1\n      sstore\n      pop\n        /* \"@openzeppelin/contracts/access/Ownable.sol\":2441:2449  newOwner */\n      dup2\n        /* \"@openzeppelin/contracts/access/Ownable.sol\":2410:2450  OwnershipTransferred(oldOwner, newOwner) */\n      0xffffffffffffffffffffffffffffffffffffffff\n      and\n        /* \"@openzeppelin/contracts/access/Ownable.sol\":2431:2439  oldOwner */\n      dup2\n        /* \"@openzeppelin/contracts/access/Ownable.sol\":2410:2450  OwnershipTransferred(oldOwner, newOwner) */\n      0xffffffffffffffffffffffffffffffffffffffff\n      and\n      0x8be0079c531659141344cd1fd0a4f28419497f9722a3daafe3b4186f6b6457e0\n      mload(0x40)\n      mload(0x40)\n      dup1\n      swap2\n      sub\n      swap1\n      log3\n        /* \"@openzeppelin/contracts/access/Ownable.sol\":2333:2457  {... */\n      pop\n        /* \"@openzeppelin/contracts/access/Ownable.sol\":2270:2457  function _transferOwnership(address newOwner) internal virtual {... */\n      pop\n      jump\t// out\n        /* \"@openzeppelin/contracts/utils/math/SafeMath.sol\":3122:3218  function sub(uint256 a, uint256 b) internal pure returns (uint256) {... */\n    tag_220:\n        /* \"@openzeppelin/contracts/utils/math/SafeMath.sol\":3180:3187  uint256 */\n      0x00\n        /* \"@openzeppelin/contracts/utils/math/SafeMath.sol\":3210:3211  b */\n      dup2\n        /* \"@openzeppelin/contracts/utils/math/SafeMath.sol\":3206:3207  a */\n      dup4\n        /* \"@openzeppelin/contracts/utils/math/SafeMath.sol\":3206:3211  a - b */\n      tag_224\n      swap2\n      swap1\n      tag_225\n      jump\t// in\n    tag_224:\n        /* \"@openzeppelin/contracts/utils/math/SafeMath.sol\":3199:3211  return a - b */\n      swap1\n      pop\n        /* \"@openzeppelin/contracts/utils/math/SafeMath.sol\":3122:3218  function sub(uint256 a, uint256 b) internal pure returns (uint256) {... */\n      swap3\n      swap2\n      pop\n      pop\n      jump\t// out\n        /* \"#utility.yul\":7:146   */\n    tag_227:\n        /* \"#utility.yul\":53:58   */\n      0x00\n        /* \"#utility.yul\":91:97   */\n      dup2\n        /* \"#utility.yul\":78:98   */\n      calldataload\n        /* \"#utility.yul\":69:98   */\n      swap1\n      pop\n        /* \"#utility.yul\":107:140   */\n      tag_229\n        /* \"#utility.yul\":134:139   */\n      dup2\n        /* \"#utility.yul\":107:140   */\n      tag_230\n      jump\t// in\n    tag_229:\n        /* \"#utility.yul\":7:146   */\n      swap3\n      swap2\n      pop\n      pop\n      jump\t// out\n        /* \"#utility.yul\":152:291   */\n    tag_231:\n        /* \"#utility.yul\":198:203   */\n      0x00\n        /* \"#utility.yul\":236:242   */\n      dup2\n        /* \"#utility.yul\":223:243   */\n      calldataload\n        /* \"#utility.yul\":214:243   */\n      swap1\n      pop\n        /* \"#utility.yul\":252:285   */\n      tag_233\n        /* \"#utility.yul\":279:284   */\n      dup2\n        /* \"#utility.yul\":252:285   */\n      tag_234\n      jump\t// in\n    tag_233:\n        /* \"#utility.yul\":152:291   */\n      swap3\n      swap2\n      pop\n      pop\n      jump\t// out\n        /* \"#utility.yul\":297:626   */\n    tag_63:\n        /* \"#utility.yul\":356:362   */\n      0x00\n        /* \"#utility.yul\":405:407   */\n      0x20\n        /* \"#utility.yul\":393:402   */\n      dup3\n        /* \"#utility.yul\":384:391   */\n      dup5\n        /* \"#utility.yul\":380:403   */\n      sub\n        /* \"#utility.yul\":376:408   */\n      slt\n        /* \"#utility.yul\":373:492   */\n      iszero\n      tag_236\n      jumpi\n        /* \"#utility.yul\":411:490   */\n      tag_237\n      tag_238\n      jump\t// in\n    tag_237:\n        /* \"#utility.yul\":373:492   */\n    tag_236:\n        /* \"#utility.yul\":531:532   */\n      0x00\n        /* \"#utility.yul\":556:609   */\n      tag_239\n        /* \"#utility.yul\":601:608   */\n      dup5\n        /* \"#utility.yul\":592:598   */\n      dup3\n        /* \"#utility.yul\":581:590   */\n      dup6\n        /* \"#utility.yul\":577:599   */\n      add\n        /* \"#utility.yul\":556:609   */\n      tag_227\n      jump\t// in\n    tag_239:\n        /* \"#utility.yul\":546:609   */\n      swap2\n      pop\n        /* \"#utility.yul\":502:619   */\n      pop\n        /* \"#utility.yul\":297:626   */\n      swap3\n      swap2\n      pop\n      pop\n      jump\t// out\n        /* \"#utility.yul\":632:1106   */\n    tag_88:\n        /* \"#utility.yul\":700:706   */\n      0x00\n        /* \"#utility.yul\":708:714   */\n      dup1\n        /* \"#utility.yul\":757:759   */\n      0x40\n        /* \"#utility.yul\":745:754   */\n      dup4\n        /* \"#utility.yul\":736:743   */\n      dup6\n        /* \"#utility.yul\":732:755   */\n      sub\n        /* \"#utility.yul\":728:760   */\n      slt\n        /* \"#utility.yul\":725:844   */\n      iszero\n      tag_241\n      jumpi\n        /* \"#utility.yul\":763:842   */\n      tag_242\n      tag_238\n      jump\t// in\n    tag_242:\n        /* \"#utility.yul\":725:844   */\n    tag_241:\n        /* \"#utility.yul\":883:884   */\n      0x00\n        /* \"#utility.yul\":908:961   */\n      tag_243\n        /* \"#utility.yul\":953:960   */\n      dup6\n        /* \"#utility.yul\":944:950   */\n      dup3\n        /* \"#utility.yul\":933:942   */\n      dup7\n        /* \"#utility.yul\":929:951   */\n      add\n        /* \"#utility.yul\":908:961   */\n      tag_227\n      jump\t// in\n    tag_243:\n        /* \"#utility.yul\":898:961   */\n      swap3\n      pop\n        /* \"#utility.yul\":854:971   */\n      pop\n        /* \"#utility.yul\":1010:1012   */\n      0x20\n        /* \"#utility.yul\":1036:1089   */\n      tag_244\n        /* \"#utility.yul\":1081:1088   */\n      dup6\n        /* \"#utility.yul\":1072:1078   */\n      dup3\n        /* \"#utility.yul\":1061:1070   */\n      dup7\n        /* \"#utility.yul\":1057:1079   */\n      add\n        /* \"#utility.yul\":1036:1089   */\n      tag_227\n      jump\t// in\n    tag_244:\n        /* \"#utility.yul\":1026:1089   */\n      swap2\n      pop\n        /* \"#utility.yul\":981:1099   */\n      pop\n        /* \"#utility.yul\":632:1106   */\n      swap3\n      pop\n      swap3\n      swap1\n      pop\n      jump\t// out\n        /* \"#utility.yul\":1112:1731   */\n    tag_40:\n        /* \"#utility.yul\":1189:1195   */\n      0x00\n        /* \"#utility.yul\":1197:1203   */\n      dup1\n        /* \"#utility.yul\":1205:1211   */\n      0x00\n        /* \"#utility.yul\":1254:1256   */\n      0x60\n        /* \"#utility.yul\":1242:1251   */\n      dup5\n        /* \"#utility.yul\":1233:1240   */\n      dup7\n        /* \"#utility.yul\":1229:1252   */\n      sub\n        /* \"#utility.yul\":1225:1257   */\n      slt\n        /* \"#utility.yul\":1222:1341   */\n      iszero\n      tag_246\n      jumpi\n        /* \"#utility.yul\":1260:1339   */\n      tag_247\n      tag_238\n      jump\t// in\n    tag_247:\n        /* \"#utility.yul\":1222:1341   */\n    tag_246:\n        /* \"#utility.yul\":1380:1381   */\n      0x00\n        /* \"#utility.yul\":1405:1458   */\n      tag_248\n        /* \"#utility.yul\":1450:1457   */\n      dup7\n        /* \"#utility.yul\":1441:1447   */\n      dup3\n        /* \"#utility.yul\":1430:1439   */\n      dup8\n        /* \"#utility.yul\":1426:1448   */\n      add\n        /* \"#utility.yul\":1405:1458   */\n      tag_227\n      jump\t// in\n    tag_248:\n        /* \"#utility.yul\":1395:1458   */\n      swap4\n      pop\n        /* \"#utility.yul\":1351:1468   */\n      pop\n        /* \"#utility.yul\":1507:1509   */\n      0x20\n        /* \"#utility.yul\":1533:1586   */\n      tag_249\n        /* \"#utility.yul\":1578:1585   */\n      dup7\n        /* \"#utility.yul\":1569:1575   */\n      dup3\n        /* \"#utility.yul\":1558:1567   */\n      dup8\n        /* \"#utility.yul\":1554:1576   */\n      add\n        /* \"#utility.yul\":1533:1586   */\n      tag_227\n      jump\t// in\n    tag_249:\n        /* \"#utility.yul\":1523:1586   */\n      swap3\n      pop\n        /* \"#utility.yul\":1478:1596   */\n      pop\n        /* \"#utility.yul\":1635:1637   */\n      0x40\n        /* \"#utility.yul\":1661:1714   */\n      tag_250\n        /* \"#utility.yul\":1706:1713   */\n      dup7\n        /* \"#utility.yul\":1697:1703   */\n      dup3\n        /* \"#utility.yul\":1686:1695   */\n      dup8\n        /* \"#utility.yul\":1682:1704   */\n      add\n        /* \"#utility.yul\":1661:1714   */\n      tag_231\n      jump\t// in\n    tag_250:\n        /* \"#utility.yul\":1651:1714   */\n      swap2\n      pop\n        /* \"#utility.yul\":1606:1724   */\n      pop\n        /* \"#utility.yul\":1112:1731   */\n      swap3\n      pop\n      swap3\n      pop\n      swap3\n      jump\t// out\n        /* \"#utility.yul\":1737:2211   */\n    tag_30:\n        /* \"#utility.yul\":1805:1811   */\n      0x00\n        /* \"#utility.yul\":1813:1819   */\n      dup1\n        /* \"#utility.yul\":1862:1864   */\n      0x40\n        /* \"#utility.yul\":1850:1859   */\n      dup4\n        /* \"#utility.yul\":1841:1848   */\n      dup6\n        /* \"#utility.yul\":1837:1860   */\n      sub\n        /* \"#utility.yul\":1833:1865   */\n      slt\n        /* \"#utility.yul\":1830:1949   */\n      iszero\n      tag_252\n      jumpi\n        /* \"#utility.yul\":1868:1947   */\n      tag_253\n      tag_238\n      jump\t// in\n    tag_253:\n        /* \"#utility.yul\":1830:1949   */\n    tag_252:\n        /* \"#utility.yul\":1988:1989   */\n      0x00\n        /* \"#utility.yul\":2013:2066   */\n      tag_254\n        /* \"#utility.yul\":2058:2065   */\n      dup6\n        /* \"#utility.yul\":2049:2055   */\n      dup3\n        /* \"#utility.yul\":2038:2047   */\n      dup7\n        /* \"#utility.yul\":2034:2056   */\n      add\n        /* \"#utility.yul\":2013:2066   */\n      tag_227\n      jump\t// in\n    tag_254:\n        /* \"#utility.yul\":2003:2066   */\n      swap3\n      pop\n        /* \"#utility.yul\":1959:2076   */\n      pop\n        /* \"#utility.yul\":2115:2117   */\n      0x20\n        /* \"#utility.yul\":2141:2194   */\n      tag_255\n        /* \"#utility.yul\":2186:2193   */\n      dup6\n        /* \"#utility.yul\":2177:2183   */\n      dup3\n        /* \"#utility.yul\":2166:2175   */\n      dup7\n        /* \"#utility.yul\":2162:2184   */\n      add\n        /* \"#utility.yul\":2141:2194   */\n      tag_231\n      jump\t// in\n    tag_255:\n        /* \"#utility.yul\":2131:2194   */\n      swap2\n      pop\n        /* \"#utility.yul\":2086:2204   */\n      pop\n        /* \"#utility.yul\":1737:2211   */\n      swap3\n      pop\n      swap3\n      swap1\n      pop\n      jump\t// out\n        /* \"#utility.yul\":2217:2546   */\n    tag_56:\n        /* \"#utility.yul\":2276:2282   */\n      0x00\n        /* \"#utility.yul\":2325:2327   */\n      0x20\n        /* \"#utility.yul\":2313:2322   */\n      dup3\n        /* \"#utility.yul\":2304:2311   */\n      dup5\n        /* \"#utility.yul\":2300:2323   */\n      sub\n        /* \"#utility.yul\":2296:2328   */\n      slt\n        /* \"#utility.yul\":2293:2412   */\n      iszero\n      tag_257\n      jumpi\n        /* \"#utility.yul\":2331:2410   */\n      tag_258\n      tag_238\n      jump\t// in\n    tag_258:\n        /* \"#utility.yul\":2293:2412   */\n    tag_257:\n        /* \"#utility.yul\":2451:2452   */\n      0x00\n        /* \"#utility.yul\":2476:2529   */\n      tag_259\n        /* \"#utility.yul\":2521:2528   */\n      dup5\n        /* \"#utility.yul\":2512:2518   */\n      dup3\n        /* \"#utility.yul\":2501:2510   */\n      dup6\n        /* \"#utility.yul\":2497:2519   */\n      add\n        /* \"#utility.yul\":2476:2529   */\n      tag_231\n      jump\t// in\n    tag_259:\n        /* \"#utility.yul\":2466:2529   */\n      swap2\n      pop\n        /* \"#utility.yul\":2422:2539   */\n      pop\n        /* \"#utility.yul\":2217:2546   */\n      swap3\n      swap2\n      pop\n      pop\n      jump\t// out\n        /* \"#utility.yul\":2552:2670   */\n    tag_260:\n        /* \"#utility.yul\":2639:2663   */\n      tag_262\n        /* \"#utility.yul\":2657:2662   */\n      dup2\n        /* \"#utility.yul\":2639:2663   */\n      tag_263\n      jump\t// in\n    tag_262:\n        /* \"#utility.yul\":2634:2637   */\n      dup3\n        /* \"#utility.yul\":2627:2664   */\n      mstore\n        /* \"#utility.yul\":2552:2670   */\n      pop\n      pop\n      jump\t// out\n        /* \"#utility.yul\":2676:2785   */\n    tag_264:\n        /* \"#utility.yul\":2757:2778   */\n      tag_266\n        /* \"#utility.yul\":2772:2777   */\n      dup2\n        /* \"#utility.yul\":2757:2778   */\n      tag_267\n      jump\t// in\n    tag_266:\n        /* \"#utility.yul\":2752:2755   */\n      dup3\n        /* \"#utility.yul\":2745:2779   */\n      mstore\n        /* \"#utility.yul\":2676:2785   */\n      pop\n      pop\n      jump\t// out\n        /* \"#utility.yul\":2791:3155   */\n    tag_268:\n        /* \"#utility.yul\":2879:2882   */\n      0x00\n        /* \"#utility.yul\":2907:2946   */\n      tag_270\n        /* \"#utility.yul\":2940:2945   */\n      dup3\n        /* \"#utility.yul\":2907:2946   */\n      tag_271\n      jump\t// in\n    tag_270:\n        /* \"#utility.yul\":2962:3033   */\n      tag_272\n        /* \"#utility.yul\":3026:3032   */\n      dup2\n        /* \"#utility.yul\":3021:3024   */\n      dup6\n        /* \"#utility.yul\":2962:3033   */\n      tag_273\n      jump\t// in\n    tag_272:\n        /* \"#utility.yul\":2955:3033   */\n      swap4\n      pop\n        /* \"#utility.yul\":3042:3094   */\n      tag_274\n        /* \"#utility.yul\":3087:3093   */\n      dup2\n        /* \"#utility.yul\":3082:3085   */\n      dup6\n        /* \"#utility.yul\":3075:3079   */\n      0x20\n        /* \"#utility.yul\":3068:3073   */\n      dup7\n        /* \"#utility.yul\":3064:3080   */\n      add\n        /* \"#utility.yul\":3042:3094   */\n      tag_275\n      jump\t// in\n    tag_274:\n        /* \"#utility.yul\":3119:3148   */\n      tag_276\n        /* \"#utility.yul\":3141:3147   */\n      dup2\n        /* \"#utility.yul\":3119:3148   */\n      tag_277\n      jump\t// in\n    tag_276:\n        /* \"#utility.yul\":3114:3117   */\n      dup5\n        /* \"#utility.yul\":3110:3149   */\n      add\n        /* \"#utility.yul\":3103:3149   */\n      swap2\n      pop\n        /* \"#utility.yul\":2883:3155   */\n      pop\n        /* \"#utility.yul\":2791:3155   */\n      swap3\n      swap2\n      pop\n      pop\n      jump\t// out\n        /* \"#utility.yul\":3161:3527   */\n    tag_278:\n        /* \"#utility.yul\":3303:3306   */\n      0x00\n        /* \"#utility.yul\":3324:3391   */\n      tag_280\n        /* \"#utility.yul\":3388:3390   */\n      0x23\n        /* \"#utility.yul\":3383:3386   */\n      dup4\n        /* \"#utility.yul\":3324:3391   */\n      tag_273\n      jump\t// in\n    tag_280:\n        /* \"#utility.yul\":3317:3391   */\n      swap2\n      pop\n        /* \"#utility.yul\":3400:3493   */\n      tag_281\n        /* \"#utility.yul\":3489:3492   */\n      dup3\n        /* \"#utility.yul\":3400:3493   */\n      tag_282\n      jump\t// in\n    tag_281:\n        /* \"#utility.yul\":3518:3520   */\n      0x40\n        /* \"#utility.yul\":3513:3516   */\n      dup3\n        /* \"#utility.yul\":3509:3521   */\n      add\n        /* \"#utility.yul\":3502:3521   */\n      swap1\n      pop\n        /* \"#utility.yul\":3161:3527   */\n      swap2\n      swap1\n      pop\n      jump\t// out\n        /* \"#utility.yul\":3533:3899   */\n    tag_283:\n        /* \"#utility.yul\":3675:3678   */\n      0x00\n        /* \"#utility.yul\":3696:3763   */\n      tag_285\n        /* \"#utility.yul\":3760:3762   */\n      0x26\n        /* \"#utility.yul\":3755:3758   */\n      dup4\n        /* \"#utility.yul\":3696:3763   */\n      tag_273\n      jump\t// in\n    tag_285:\n        /* \"#utility.yul\":3689:3763   */\n      swap2\n      pop\n        /* \"#utility.yul\":3772:3865   */\n      tag_286\n        /* \"#utility.yul\":3861:3864   */\n      dup3\n        /* \"#utility.yul\":3772:3865   */\n      tag_287\n      jump\t// in\n    tag_286:\n        /* \"#utility.yul\":3890:3892   */\n      0x40\n        /* \"#utility.yul\":3885:3888   */\n      dup3\n        /* \"#utility.yul\":3881:3893   */\n      add\n        /* \"#utility.yul\":3874:3893   */\n      swap1\n      pop\n        /* \"#utility.yul\":3533:3899   */\n      swap2\n      swap1\n      pop\n      jump\t// out\n        /* \"#utility.yul\":3905:4271   */\n    tag_288:\n        /* \"#utility.yul\":4047:4050   */\n      0x00\n        /* \"#utility.yul\":4068:4135   */\n      tag_290\n        /* \"#utility.yul\":4132:4134   */\n      0x22\n        /* \"#utility.yul\":4127:4130   */\n      dup4\n        /* \"#utility.yul\":4068:4135   */\n      tag_273\n      jump\t// in\n    tag_290:\n        /* \"#utility.yul\":4061:4135   */\n      swap2\n      pop\n        /* \"#utility.yul\":4144:4237   */\n      tag_291\n        /* \"#utility.yul\":4233:4236   */\n      dup3\n        /* \"#utility.yul\":4144:4237   */\n      tag_292\n      jump\t// in\n    tag_291:\n        /* \"#utility.yul\":4262:4264   */\n      0x40\n        /* \"#utility.yul\":4257:4260   */\n      dup3\n        /* \"#utility.yul\":4253:4265   */\n      add\n        /* \"#utility.yul\":4246:4265   */\n      swap1\n      pop\n        /* \"#utility.yul\":3905:4271   */\n      swap2\n      swap1\n      pop\n      jump\t// out\n        /* \"#utility.yul\":4277:4643   */\n    tag_293:\n        /* \"#utility.yul\":4419:4422   */\n      0x00\n        /* \"#utility.yul\":4440:4507   */\n      tag_295\n        /* \"#utility.yul\":4504:4506   */\n      0x25\n        /* \"#utility.yul\":4499:4502   */\n      dup4\n        /* \"#utility.yul\":4440:4507   */\n      tag_273\n      jump\t// in\n    tag_295:\n        /* \"#utility.yul\":4433:4507   */\n      swap2\n      pop\n        /* \"#utility.yul\":4516:4609   */\n      tag_296\n        /* \"#utility.yul\":4605:4608   */\n      dup3\n        /* \"#utility.yul\":4516:4609   */\n      tag_297\n      jump\t// in\n    tag_296:\n        /* \"#utility.yul\":4634:4636   */\n      0x40\n        /* \"#utility.yul\":4629:4632   */\n      dup3\n        /* \"#utility.yul\":4625:4637   */\n      add\n        /* \"#utility.yul\":4618:4637   */\n      swap1\n      pop\n        /* \"#utility.yul\":4277:4643   */\n      swap2\n      swap1\n      pop\n      jump\t// out\n        /* \"#utility.yul\":4649:5015   */\n    tag_298:\n        /* \"#utility.yul\":4791:4794   */\n      0x00\n        /* \"#utility.yul\":4812:4879   */\n      tag_300\n        /* \"#utility.yul\":4876:4878   */\n      0x20\n        /* \"#utility.yul\":4871:4874   */\n      dup4\n        /* \"#utility.yul\":4812:4879   */\n      tag_273\n      jump\t// in\n    tag_300:\n        /* \"#utility.yul\":4805:4879   */\n      swap2\n      pop\n        /* \"#utility.yul\":4888:4981   */\n      tag_301\n        /* \"#utility.yul\":4977:4980   */\n      dup3\n        /* \"#utility.yul\":4888:4981   */\n      tag_302\n      jump\t// in\n    tag_301:\n        /* \"#utility.yul\":5006:5008   */\n      0x20\n        /* \"#utility.yul\":5001:5004   */\n      dup3\n        /* \"#utility.yul\":4997:5009   */\n      add\n        /* \"#utility.yul\":4990:5009   */\n      swap1\n      pop\n        /* \"#utility.yul\":4649:5015   */\n      swap2\n      swap1\n      pop\n      jump\t// out\n        /* \"#utility.yul\":5021:5387   */\n    tag_303:\n        /* \"#utility.yul\":5163:5166   */\n      0x00\n        /* \"#utility.yul\":5184:5251   */\n      tag_305\n        /* \"#utility.yul\":5248:5250   */\n      0x21\n        /* \"#utility.yul\":5243:5246   */\n      dup4\n        /* \"#utility.yul\":5184:5251   */\n      tag_273\n      jump\t// in\n    tag_305:\n        /* \"#utility.yul\":5177:5251   */\n      swap2\n      pop\n        /* \"#utility.yul\":5260:5353   */\n      tag_306\n        /* \"#utility.yul\":5349:5352   */\n      dup3\n        /* \"#utility.yul\":5260:5353   */\n      tag_307\n      jump\t// in\n    tag_306:\n        /* \"#utility.yul\":5378:5380   */\n      0x40\n        /* \"#utility.yul\":5373:5376   */\n      dup3\n        /* \"#utility.yul\":5369:5381   */\n      add\n        /* \"#utility.yul\":5362:5381   */\n      swap1\n      pop\n        /* \"#utility.yul\":5021:5387   */\n      swap2\n      swap1\n      pop\n      jump\t// out\n        /* \"#utility.yul\":5393:5759   */\n    tag_308:\n        /* \"#utility.yul\":5535:5538   */\n      0x00\n        /* \"#utility.yul\":5556:5623   */\n      tag_310\n        /* \"#utility.yul\":5620:5622   */\n      0x25\n        /* \"#utility.yul\":5615:5618   */\n      dup4\n        /* \"#utility.yul\":5556:5623   */\n      tag_273\n      jump\t// in\n    tag_310:\n        /* \"#utility.yul\":5549:5623   */\n      swap2\n      pop\n        /* \"#utility.yul\":5632:5725   */\n      tag_311\n        /* \"#utility.yul\":5721:5724   */\n      dup3\n        /* \"#utility.yul\":5632:5725   */\n      tag_312\n      jump\t// in\n    tag_311:\n        /* \"#utility.yul\":5750:5752   */\n      0x40\n        /* \"#utility.yul\":5745:5748   */\n      dup3\n        /* \"#utility.yul\":5741:5753   */\n      add\n        /* \"#utility.yul\":5734:5753   */\n      swap1\n      pop\n        /* \"#utility.yul\":5393:5759   */\n      swap2\n      swap1\n      pop\n      jump\t// out\n        /* \"#utility.yul\":5765:6131   */\n    tag_313:\n        /* \"#utility.yul\":5907:5910   */\n      0x00\n        /* \"#utility.yul\":5928:5995   */\n      tag_315\n        /* \"#utility.yul\":5992:5994   */\n      0x24\n        /* \"#utility.yul\":5987:5990   */\n      dup4\n        /* \"#utility.yul\":5928:5995   */\n      tag_273\n      jump\t// in\n    tag_315:\n        /* \"#utility.yul\":5921:5995   */\n      swap2\n      pop\n        /* \"#utility.yul\":6004:6097   */\n      tag_316\n        /* \"#utility.yul\":6093:6096   */\n      dup3\n        /* \"#utility.yul\":6004:6097   */\n      tag_317\n      jump\t// in\n    tag_316:\n        /* \"#utility.yul\":6122:6124   */\n      0x40\n        /* \"#utility.yul\":6117:6120   */\n      dup3\n        /* \"#utility.yul\":6113:6125   */\n      add\n        /* \"#utility.yul\":6106:6125   */\n      swap1\n      pop\n        /* \"#utility.yul\":5765:6131   */\n      swap2\n      swap1\n      pop\n      jump\t// out\n        /* \"#utility.yul\":6137:6503   */\n    tag_318:\n        /* \"#utility.yul\":6279:6282   */\n      0x00\n        /* \"#utility.yul\":6300:6367   */\n      tag_320\n        /* \"#utility.yul\":6364:6366   */\n      0x1f\n        /* \"#utility.yul\":6359:6362   */\n      dup4\n        /* \"#utility.yul\":6300:6367   */\n      tag_273\n      jump\t// in\n    tag_320:\n        /* \"#utility.yul\":6293:6367   */\n      swap2\n      pop\n        /* \"#utility.yul\":6376:6469   */\n      tag_321\n        /* \"#utility.yul\":6465:6468   */\n      dup3\n        /* \"#utility.yul\":6376:6469   */\n      tag_322\n      jump\t// in\n    tag_321:\n        /* \"#utility.yul\":6494:6496   */\n      0x20\n        /* \"#utility.yul\":6489:6492   */\n      dup3\n        /* \"#utility.yul\":6485:6497   */\n      add\n        /* \"#utility.yul\":6478:6497   */\n      swap1\n      pop\n        /* \"#utility.yul\":6137:6503   */\n      swap2\n      swap1\n      pop\n      jump\t// out\n        /* \"#utility.yul\":6509:6627   */\n    tag_323:\n        /* \"#utility.yul\":6596:6620   */\n      tag_325\n        /* \"#utility.yul\":6614:6619   */\n      dup2\n        /* \"#utility.yul\":6596:6620   */\n      tag_326\n      jump\t// in\n    tag_325:\n        /* \"#utility.yul\":6591:6594   */\n      dup3\n        /* \"#utility.yul\":6584:6621   */\n      mstore\n        /* \"#utility.yul\":6509:6627   */\n      pop\n      pop\n      jump\t// out\n        /* \"#utility.yul\":6633:6745   */\n    tag_327:\n        /* \"#utility.yul\":6716:6738   */\n      tag_329\n        /* \"#utility.yul\":6732:6737   */\n      dup2\n        /* \"#utility.yul\":6716:6738   */\n      tag_330\n      jump\t// in\n    tag_329:\n        /* \"#utility.yul\":6711:6714   */\n      dup3\n        /* \"#utility.yul\":6704:6739   */\n      mstore\n        /* \"#utility.yul\":6633:6745   */\n      pop\n      pop\n      jump\t// out\n        /* \"#utility.yul\":6751:6973   */\n    tag_74:\n        /* \"#utility.yul\":6844:6848   */\n      0x00\n        /* \"#utility.yul\":6882:6884   */\n      0x20\n        /* \"#utility.yul\":6871:6880   */\n      dup3\n        /* \"#utility.yul\":6867:6885   */\n      add\n        /* \"#utility.yul\":6859:6885   */\n      swap1\n      pop\n        /* \"#utility.yul\":6895:6966   */\n      tag_332\n        /* \"#utility.yul\":6963:6964   */\n      0x00\n        /* \"#utility.yul\":6952:6961   */\n      dup4\n        /* \"#utility.yul\":6948:6965   */\n      add\n        /* \"#utility.yul\":6939:6945   */\n      dup5\n        /* \"#utility.yul\":6895:6966   */\n      tag_260\n      jump\t// in\n    tag_332:\n        /* \"#utility.yul\":6751:6973   */\n      swap3\n      swap2\n      pop\n      pop\n      jump\t// out\n        /* \"#utility.yul\":6979:7189   */\n    tag_33:\n        /* \"#utility.yul\":7066:7070   */\n      0x00\n        /* \"#utility.yul\":7104:7106   */\n      0x20\n        /* \"#utility.yul\":7093:7102   */\n      dup3\n        /* \"#utility.yul\":7089:7107   */\n      add\n        /* \"#utility.yul\":7081:7107   */\n      swap1\n      pop\n        /* \"#utility.yul\":7117:7182   */\n      tag_334\n        /* \"#utility.yul\":7179:7180   */\n      0x00\n        /* \"#utility.yul\":7168:7177   */\n      dup4\n        /* \"#utility.yul\":7164:7181   */\n      add\n        /* \"#utility.yul\":7155:7161   */\n      dup5\n        /* \"#utility.yul\":7117:7182   */\n      tag_264\n      jump\t// in\n    tag_334:\n        /* \"#utility.yul\":6979:7189   */\n      swap3\n      swap2\n      pop\n      pop\n      jump\t// out\n        /* \"#utility.yul\":7195:7508   */\n    tag_27:\n        /* \"#utility.yul\":7308:7312   */\n      0x00\n        /* \"#utility.yul\":7346:7348   */\n      0x20\n        /* \"#utility.yul\":7335:7344   */\n      dup3\n        /* \"#utility.yul\":7331:7349   */\n      add\n        /* \"#utility.yul\":7323:7349   */\n      swap1\n      pop\n        /* \"#utility.yul\":7395:7404   */\n      dup2\n        /* \"#utility.yul\":7389:7393   */\n      dup2\n        /* \"#utility.yul\":7385:7405   */\n      sub\n        /* \"#utility.yul\":7381:7382   */\n      0x00\n        /* \"#utility.yul\":7370:7379   */\n      dup4\n        /* \"#utility.yul\":7366:7383   */\n      add\n        /* \"#utility.yul\":7359:7406   */\n      mstore\n        /* \"#utility.yul\":7423:7501   */\n      tag_336\n        /* \"#utility.yul\":7496:7500   */\n      dup2\n        /* \"#utility.yul\":7487:7493   */\n      dup5\n        /* \"#utility.yul\":7423:7501   */\n      tag_268\n      jump\t// in\n    tag_336:\n        /* \"#utility.yul\":7415:7501   */\n      swap1\n      pop\n        /* \"#utility.yul\":7195:7508   */\n      swap3\n      swap2\n      pop\n      pop\n      jump\t// out\n        /* \"#utility.yul\":7514:7933   */\n    tag_196:\n        /* \"#utility.yul\":7680:7684   */\n      0x00\n        /* \"#utility.yul\":7718:7720   */\n      0x20\n        /* \"#utility.yul\":7707:7716   */\n      dup3\n        /* \"#utility.yul\":7703:7721   */\n      add\n        /* \"#utility.yul\":7695:7721   */\n      swap1\n      pop\n        /* \"#utility.yul\":7767:7776   */\n      dup2\n        /* \"#utility.yul\":7761:7765   */\n      dup2\n        /* \"#utility.yul\":7757:7777   */\n      sub\n        /* \"#utility.yul\":7753:7754   */\n      0x00\n        /* \"#utility.yul\":7742:7751   */\n      dup4\n        /* \"#utility.yul\":7738:7755   */\n      add\n        /* \"#utility.yul\":7731:7778   */\n      mstore\n        /* \"#utility.yul\":7795:7926   */\n      tag_338\n        /* \"#utility.yul\":7921:7925   */\n      dup2\n        /* \"#utility.yul\":7795:7926   */\n      tag_278\n      jump\t// in\n    tag_338:\n        /* \"#utility.yul\":7787:7926   */\n      swap1\n      pop\n        /* \"#utility.yul\":7514:7933   */\n      swap2\n      swap1\n      pop\n      jump\t// out\n        /* \"#utility.yul\":7939:8358   */\n    tag_176:\n        /* \"#utility.yul\":8105:8109   */\n      0x00\n        /* \"#utility.yul\":8143:8145   */\n      0x20\n        /* \"#utility.yul\":8132:8141   */\n      dup3\n        /* \"#utility.yul\":8128:8146   */\n      add\n        /* \"#utility.yul\":8120:8146   */\n      swap1\n      pop\n        /* \"#utility.yul\":8192:8201   */\n      dup2\n        /* \"#utility.yul\":8186:8190   */\n      dup2\n        /* \"#utility.yul\":8182:8202   */\n      sub\n        /* \"#utility.yul\":8178:8179   */\n      0x00\n        /* \"#utility.yul\":8167:8176   */\n      dup4\n        /* \"#utility.yul\":8163:8180   */\n      add\n        /* \"#utility.yul\":8156:8203   */\n      mstore\n        /* \"#utility.yul\":8220:8351   */\n      tag_340\n        /* \"#utility.yul\":8346:8350   */\n      dup2\n        /* \"#utility.yul\":8220:8351   */\n      tag_283\n      jump\t// in\n    tag_340:\n        /* \"#utility.yul\":8212:8351   */\n      swap1\n      pop\n        /* \"#utility.yul\":7939:8358   */\n      swap2\n      swap1\n      pop\n      jump\t// out\n        /* \"#utility.yul\":8364:8783   */\n    tag_188:\n        /* \"#utility.yul\":8530:8534   */\n      0x00\n        /* \"#utility.yul\":8568:8570   */\n      0x20\n        /* \"#utility.yul\":8557:8566   */\n      dup3\n        /* \"#utility.yul\":8553:8571   */\n      add\n        /* \"#utility.yul\":8545:8571   */\n      swap1\n      pop\n        /* \"#utility.yul\":8617:8626   */\n      dup2\n        /* \"#utility.yul\":8611:8615   */\n      dup2\n        /* \"#utility.yul\":8607:8627   */\n      sub\n        /* \"#utility.yul\":8603:8604   */\n      0x00\n        /* \"#utility.yul\":8592:8601   */\n      dup4\n        /* \"#utility.yul\":8588:8605   */\n      add\n        /* \"#utility.yul\":8581:8628   */\n      mstore\n        /* \"#utility.yul\":8645:8776   */\n      tag_342\n        /* \"#utility.yul\":8771:8775   */\n      dup2\n        /* \"#utility.yul\":8645:8776   */\n      tag_288\n      jump\t// in\n    tag_342:\n        /* \"#utility.yul\":8637:8776   */\n      swap1\n      pop\n        /* \"#utility.yul\":8364:8783   */\n      swap2\n      swap1\n      pop\n      jump\t// out\n        /* \"#utility.yul\":8789:9208   */\n    tag_210:\n        /* \"#utility.yul\":8955:8959   */\n      0x00\n        /* \"#utility.yul\":8993:8995   */\n      0x20\n        /* \"#utility.yul\":8982:8991   */\n      dup3\n        /* \"#utility.yul\":8978:8996   */\n      add\n        /* \"#utility.yul\":8970:8996   */\n      swap1\n      pop\n        /* \"#utility.yul\":9042:9051   */\n      dup2\n        /* \"#utility.yul\":9036:9040   */\n      dup2\n        /* \"#utility.yul\":9032:9052   */\n      sub\n        /* \"#utility.yul\":9028:9029   */\n      0x00\n        /* \"#utility.yul\":9017:9026   */\n      dup4\n        /* \"#utility.yul\":9013:9030   */\n      add\n        /* \"#utility.yul\":9006:9053   */\n      mstore\n        /* \"#utility.yul\":9070:9201   */\n      tag_344\n        /* \"#utility.yul\":9196:9200   */\n      dup2\n        /* \"#utility.yul\":9070:9201   */\n      tag_293\n      jump\t// in\n    tag_344:\n        /* \"#utility.yul\":9062:9201   */\n      swap1\n      pop\n        /* \"#utility.yul\":8789:9208   */\n      swap2\n      swap1\n      pop\n      jump\t// out\n        /* \"#utility.yul\":9214:9633   */\n    tag_127:\n        /* \"#utility.yul\":9380:9384   */\n      0x00\n        /* \"#utility.yul\":9418:9420   */\n      0x20\n        /* \"#utility.yul\":9407:9416   */\n      dup3\n        /* \"#utility.yul\":9403:9421   */\n      add\n        /* \"#utility.yul\":9395:9421   */\n      swap1\n      pop\n        /* \"#utility.yul\":9467:9476   */\n      dup2\n        /* \"#utility.yul\":9461:9465   */\n      dup2\n        /* \"#utility.yul\":9457:9477   */\n      sub\n        /* \"#utility.yul\":9453:9454   */\n      0x00\n        /* \"#utility.yul\":9442:9451   */\n      dup4\n        /* \"#utility.yul\":9438:9455   */\n      add\n        /* \"#utility.yul\":9431:9478   */\n      mstore\n        /* \"#utility.yul\":9495:9626   */\n      tag_346\n        /* \"#utility.yul\":9621:9625   */\n      dup2\n        /* \"#utility.yul\":9495:9626   */\n      tag_298\n      jump\t// in\n    tag_346:\n        /* \"#utility.yul\":9487:9626   */\n      swap1\n      pop\n        /* \"#utility.yul\":9214:9633   */\n      swap2\n      swap1\n      pop\n      jump\t// out\n        /* \"#utility.yul\":9639:10058   */\n    tag_217:\n        /* \"#utility.yul\":9805:9809   */\n      0x00\n        /* \"#utility.yul\":9843:9845   */\n      0x20\n        /* \"#utility.yul\":9832:9841   */\n      dup3\n        /* \"#utility.yul\":9828:9846   */\n      add\n        /* \"#utility.yul\":9820:9846   */\n      swap1\n      pop\n        /* \"#utility.yul\":9892:9901   */\n      dup2\n        /* \"#utility.yul\":9886:9890   */\n      dup2\n        /* \"#utility.yul\":9882:9902   */\n      sub\n        /* \"#utility.yul\":9878:9879   */\n      0x00\n        /* \"#utility.yul\":9867:9876   */\n      dup4\n        /* \"#utility.yul\":9863:9880   */\n      add\n        /* \"#utility.yul\":9856:9903   */\n      mstore\n        /* \"#utility.yul\":9920:10051   */\n      tag_348\n        /* \"#utility.yul\":10046:10050   */\n      dup2\n        /* \"#utility.yul\":9920:10051   */\n      tag_303\n      jump\t// in\n    tag_348:\n        /* \"#utility.yul\":9912:10051   */\n      swap1\n      pop\n        /* \"#utility.yul\":9639:10058   */\n      swap2\n      swap1\n      pop\n      jump\t// out\n        /* \"#utility.yul\":10064:10483   */\n    tag_193:\n        /* \"#utility.yul\":10230:10234   */\n      0x00\n        /* \"#utility.yul\":10268:10270   */\n      0x20\n        /* \"#utility.yul\":10257:10266   */\n      dup3\n        /* \"#utility.yul\":10253:10271   */\n      add\n        /* \"#utility.yul\":10245:10271   */\n      swap1\n      pop\n        /* \"#utility.yul\":10317:10326   */\n      dup2\n        /* \"#utility.yul\":10311:10315   */\n      dup2\n        /* \"#utility.yul\":10307:10327   */\n      sub\n        /* \"#utility.yul\":10303:10304   */\n      0x00\n        /* \"#utility.yul\":10292:10301   */\n      dup4\n        /* \"#utility.yul\":10288:10305   */\n      add\n        /* \"#utility.yul\":10281:10328   */\n      mstore\n        /* \"#utility.yul\":10345:10476   */\n      tag_350\n        /* \"#utility.yul\":10471:10475   */\n      dup2\n        /* \"#utility.yul\":10345:10476   */\n      tag_308\n      jump\t// in\n    tag_350:\n        /* \"#utility.yul\":10337:10476   */\n      swap1\n      pop\n        /* \"#utility.yul\":10064:10483   */\n      swap2\n      swap1\n      pop\n      jump\t// out\n        /* \"#utility.yul\":10489:10908   */\n    tag_185:\n        /* \"#utility.yul\":10655:10659   */\n      0x00\n        /* \"#utility.yul\":10693:10695   */\n      0x20\n        /* \"#utility.yul\":10682:10691   */\n      dup3\n        /* \"#utility.yul\":10678:10696   */\n      add\n        /* \"#utility.yul\":10670:10696   */\n      swap1\n      pop\n        /* \"#utility.yul\":10742:10751   */\n      dup2\n        /* \"#utility.yul\":10736:10740   */\n      dup2\n        /* \"#utility.yul\":10732:10752   */\n      sub\n        /* \"#utility.yul\":10728:10729   */\n      0x00\n        /* \"#utility.yul\":10717:10726   */\n      dup4\n        /* \"#utility.yul\":10713:10730   */\n      add\n        /* \"#utility.yul\":10706:10753   */\n      mstore\n        /* \"#utility.yul\":10770:10901   */\n      tag_352\n        /* \"#utility.yul\":10896:10900   */\n      dup2\n        /* \"#utility.yul\":10770:10901   */\n      tag_313\n      jump\t// in\n    tag_352:\n        /* \"#utility.yul\":10762:10901   */\n      swap1\n      pop\n        /* \"#utility.yul\":10489:10908   */\n      swap2\n      swap1\n      pop\n      jump\t// out\n        /* \"#utility.yul\":10914:11333   */\n    tag_206:\n        /* \"#utility.yul\":11080:11084   */\n      0x00\n        /* \"#utility.yul\":11118:11120   */\n      0x20\n        /* \"#utility.yul\":11107:11116   */\n      dup3\n        /* \"#utility.yul\":11103:11121   */\n      add\n        /* \"#utility.yul\":11095:11121   */\n      swap1\n      pop\n        /* \"#utility.yul\":11167:11176   */\n      dup2\n        /* \"#utility.yul\":11161:11165   */\n      dup2\n        /* \"#utility.yul\":11157:11177   */\n      sub\n        /* \"#utility.yul\":11153:11154   */\n      0x00\n        /* \"#utility.yul\":11142:11151   */\n      dup4\n        /* \"#utility.yul\":11138:11155   */\n      add\n        /* \"#utility.yul\":11131:11178   */\n      mstore\n        /* \"#utility.yul\":11195:11326   */\n      tag_354\n        /* \"#utility.yul\":11321:11325   */\n      dup2\n        /* \"#utility.yul\":11195:11326   */\n      tag_318\n      jump\t// in\n    tag_354:\n        /* \"#utility.yul\":11187:11326   */\n      swap1\n      pop\n        /* \"#utility.yul\":10914:11333   */\n      swap2\n      swap1\n      pop\n      jump\t// out\n        /* \"#utility.yul\":11339:11561   */\n    tag_37:\n        /* \"#utility.yul\":11432:11436   */\n      0x00\n        /* \"#utility.yul\":11470:11472   */\n      0x20\n        /* \"#utility.yul\":11459:11468   */\n      dup3\n        /* \"#utility.yul\":11455:11473   */\n      add\n        /* \"#utility.yul\":11447:11473   */\n      swap1\n      pop\n        /* \"#utility.yul\":11483:11554   */\n      tag_356\n        /* \"#utility.yul\":11551:11552   */\n      0x00\n        /* \"#utility.yul\":11540:11549   */\n      dup4\n        /* \"#utility.yul\":11536:11553   */\n      add\n        /* \"#utility.yul\":11527:11533   */\n      dup5\n        /* \"#utility.yul\":11483:11554   */\n      tag_323\n      jump\t// in\n    tag_356:\n        /* \"#utility.yul\":11339:11561   */\n      swap3\n      swap2\n      pop\n      pop\n      jump\t// out\n        /* \"#utility.yul\":11567:11781   */\n    tag_46:\n        /* \"#utility.yul\":11656:11660   */\n      0x00\n        /* \"#utility.yul\":11694:11696   */\n      0x20\n        /* \"#utility.yul\":11683:11692   */\n      dup3\n        /* \"#utility.yul\":11679:11697   */\n      add\n        /* \"#utility.yul\":11671:11697   */\n      swap1\n      pop\n        /* \"#utility.yul\":11707:11774   */\n      tag_358\n        /* \"#utility.yul\":11771:11772   */\n      0x00\n        /* \"#utility.yul\":11760:11769   */\n      dup4\n        /* \"#utility.yul\":11756:11773   */\n      add\n        /* \"#utility.yul\":11747:11753   */\n      dup5\n        /* \"#utility.yul\":11707:11774   */\n      tag_327\n      jump\t// in\n    tag_358:\n        /* \"#utility.yul\":11567:11781   */\n      swap3\n      swap2\n      pop\n      pop\n      jump\t// out\n        /* \"#utility.yul\":11868:11967   */\n    tag_271:\n        /* \"#utility.yul\":11920:11926   */\n      0x00\n        /* \"#utility.yul\":11954:11959   */\n      dup2\n        /* \"#utility.yul\":11948:11960   */\n      mload\n        /* \"#utility.yul\":11938:11960   */\n      swap1\n      pop\n        /* \"#utility.yul\":11868:11967   */\n      swap2\n      swap1\n      pop\n      jump\t// out\n        /* \"#utility.yul\":11973:12142   */\n    tag_273:\n        /* \"#utility.yul\":12057:12068   */\n      0x00\n        /* \"#utility.yul\":12091:12097   */\n      dup3\n        /* \"#utility.yul\":12086:12089   */\n      dup3\n        /* \"#utility.yul\":12079:12098   */\n      mstore\n        /* \"#utility.yul\":12131:12135   */\n      0x20\n        /* \"#utility.yul\":12126:12129   */\n      dup3\n        /* \"#utility.yul\":12122:12136   */\n      add\n        /* \"#utility.yul\":12107:12136   */\n      swap1\n      pop\n        /* \"#utility.yul\":11973:12142   */\n      swap3\n      swap2\n      pop\n      pop\n      jump\t// out\n        /* \"#utility.yul\":12148:12453   */\n    tag_180:\n        /* \"#utility.yul\":12188:12191   */\n      0x00\n        /* \"#utility.yul\":12207:12227   */\n      tag_364\n        /* \"#utility.yul\":12225:12226   */\n      dup3\n        /* \"#utility.yul\":12207:12227   */\n      tag_326\n      jump\t// in\n    tag_364:\n        /* \"#utility.yul\":12202:12227   */\n      swap2\n      pop\n        /* \"#utility.yul\":12241:12261   */\n      tag_365\n        /* \"#utility.yul\":12259:12260   */\n      dup4\n        /* \"#utility.yul\":12241:12261   */\n      tag_326\n      jump\t// in\n    tag_365:\n        /* \"#utility.yul\":12236:12261   */\n      swap3\n      pop\n        /* \"#utility.yul\":12395:12396   */\n      dup3\n        /* \"#utility.yul\":12327:12393   */\n      0xffffffffffffffffffffffffffffffffffffffffffffffffffffffffffffffff\n        /* \"#utility.yul\":12323:12397   */\n      sub\n        /* \"#utility.yul\":12320:12321   */\n      dup3\n        /* \"#utility.yul\":12317:12398   */\n      gt\n        /* \"#utility.yul\":12314:12421   */\n      iszero\n      tag_366\n      jumpi\n        /* \"#utility.yul\":12401:12419   */\n      tag_367\n      tag_368\n      jump\t// in\n    tag_367:\n        /* \"#utility.yul\":12314:12421   */\n    tag_366:\n        /* \"#utility.yul\":12445:12446   */\n      dup3\n        /* \"#utility.yul\":12442:12443   */\n      dup3\n        /* \"#utility.yul\":12438:12447   */\n      add\n        /* \"#utility.yul\":12431:12447   */\n      swap1\n      pop\n        /* \"#utility.yul\":12148:12453   */\n      swap3\n      swap2\n      pop\n      pop\n      jump\t// out\n        /* \"#utility.yul\":12459:12650   */\n    tag_225:\n        /* \"#utility.yul\":12499:12503   */\n      0x00\n        /* \"#utility.yul\":12519:12539   */\n      tag_370\n        /* \"#utility.yul\":12537:12538   */\n      dup3\n        /* \"#utility.yul\":12519:12539   */\n      tag_326\n      jump\t// in\n    tag_370:\n        /* \"#utility.yul\":12514:12539   */\n      swap2\n      pop\n        /* \"#utility.yul\":12553:12573   */\n      tag_371\n        /* \"#utility.yul\":12571:12572   */\n      dup4\n        /* \"#utility.yul\":12553:12573   */\n      tag_326\n      jump\t// in\n    tag_371:\n        /* \"#utility.yul\":12548:12573   */\n      swap3\n      pop\n        /* \"#utility.yul\":12592:12593   */\n      dup3\n        /* \"#utility.yul\":12589:12590   */\n      dup3\n        /* \"#utility.yul\":12586:12594   */\n      lt\n        /* \"#utility.yul\":12583:12617   */\n      iszero\n      tag_372\n      jumpi\n        /* \"#utility.yul\":12597:12615   */\n      tag_373\n      tag_368\n      jump\t// in\n    tag_373:\n        /* \"#utility.yul\":12583:12617   */\n    tag_372:\n        /* \"#utility.yul\":12642:12643   */\n      dup3\n        /* \"#utility.yul\":12639:12640   */\n      dup3\n        /* \"#utility.yul\":12635:12644   */\n      sub\n        /* \"#utility.yul\":12627:12644   */\n      swap1\n      pop\n        /* \"#utility.yul\":12459:12650   */\n      swap3\n      swap2\n      pop\n      pop\n      jump\t// out\n        /* \"#utility.yul\":12656:12752   */\n    tag_263:\n        /* \"#utility.yul\":12693:12700   */\n      0x00\n        /* \"#utility.yul\":12722:12746   */\n      tag_375\n        /* \"#utility.yul\":12740:12745   */\n      dup3\n        /* \"#utility.yul\":12722:12746   */\n      tag_376\n      jump\t// in\n    tag_375:\n        /* \"#utility.yul\":12711:12746   */\n      swap1\n      pop\n        /* \"#utility.yul\":12656:12752   */\n      swap2\n      swap1\n      pop\n      jump\t// out\n        /* \"#utility.yul\":12758:12848   */\n    tag_267:\n        /* \"#utility.yul\":12792:12799   */\n      0x00\n        /* \"#utility.yul\":12835:12840   */\n      dup2\n        /* \"#utility.yul\":12828:12841   */\n      iszero\n        /* \"#utility.yul\":12821:12842   */\n      iszero\n        /* \"#utility.yul\":12810:12842   */\n      swap1\n      pop\n        /* \"#utility.yul\":12758:12848   */\n      swap2\n      swap1\n      pop\n      jump\t// out\n        /* \"#utility.yul\":12854:12980   */\n    tag_376:\n        /* \"#utility.yul\":12891:12898   */\n      0x00\n        /* \"#utility.yul\":12931:12973   */\n      0xffffffffffffffffffffffffffffffffffffffff\n        /* \"#utility.yul\":12924:12929   */\n      dup3\n        /* \"#utility.yul\":12920:12974   */\n      and\n        /* \"#utility.yul\":12909:12974   */\n      swap1\n      pop\n        /* \"#utility.yul\":12854:12980   */\n      swap2\n      swap1\n      pop\n      jump\t// out\n        /* \"#utility.yul\":12986:13063   */\n    tag_326:\n        /* \"#utility.yul\":13023:13030   */\n      0x00\n        /* \"#utility.yul\":13052:13057   */\n      dup2\n        /* \"#utility.yul\":13041:13057   */\n      swap1\n      pop\n        /* \"#utility.yul\":12986:13063   */\n      swap2\n      swap1\n      pop\n      jump\t// out\n        /* \"#utility.yul\":13069:13155   */\n    tag_330:\n        /* \"#utility.yul\":13104:13111   */\n      0x00\n        /* \"#utility.yul\":13144:13148   */\n      0xff\n        /* \"#utility.yul\":13137:13142   */\n      dup3\n        /* \"#utility.yul\":13133:13149   */\n      and\n        /* \"#utility.yul\":13122:13149   */\n      swap1\n      pop\n        /* \"#utility.yul\":13069:13155   */\n      swap2\n      swap1\n      pop\n      jump\t// out\n        /* \"#utility.yul\":13161:13468   */\n    tag_275:\n        /* \"#utility.yul\":13229:13230   */\n      0x00\n        /* \"#utility.yul\":13239:13352   */\n    tag_382:\n        /* \"#utility.yul\":13253:13259   */\n      dup4\n        /* \"#utility.yul\":13250:13251   */\n      dup2\n        /* \"#utility.yul\":13247:13260   */\n      lt\n        /* \"#utility.yul\":13239:13352   */\n      iszero\n      tag_384\n      jumpi\n        /* \"#utility.yul\":13338:13339   */\n      dup1\n        /* \"#utility.yul\":13333:13336   */\n      dup3\n        /* \"#utility.yul\":13329:13340   */\n      add\n        /* \"#utility.yul\":13323:13341   */\n      mload\n        /* \"#utility.yul\":13319:13320   */\n      dup2\n        /* \"#utility.yul\":13314:13317   */\n      dup5\n        /* \"#utility.yul\":13310:13321   */\n      add\n        /* \"#utility.yul\":13303:13342   */\n      mstore\n        /* \"#utility.yul\":13275:13277   */\n      0x20\n        /* \"#utility.yul\":13272:13273   */\n      dup2\n        /* \"#utility.yul\":13268:13278   */\n      add\n        /* \"#utility.yul\":13263:13278   */\n      swap1\n      pop\n        /* \"#utility.yul\":13239:13352   */\n      jump(tag_382)\n    tag_384:\n        /* \"#utility.yul\":13370:13376   */\n      dup4\n        /* \"#utility.yul\":13367:13368   */\n      dup2\n        /* \"#utility.yul\":13364:13377   */\n      gt\n        /* \"#utility.yul\":13361:13462   */\n      iszero\n      tag_385\n      jumpi\n        /* \"#utility.yul\":13450:13451   */\n      0x00\n        /* \"#utility.yul\":13441:13447   */\n      dup5\n        /* \"#utility.yul\":13436:13439   */\n      dup5\n        /* \"#utility.yul\":13432:13448   */\n      add\n        /* \"#utility.yul\":13425:13452   */\n      mstore\n        /* \"#utility.yul\":13361:13462   */\n    tag_385:\n        /* \"#utility.yul\":13210:13468   */\n      pop\n        /* \"#utility.yul\":13161:13468   */\n      pop\n      pop\n      pop\n      jump\t// out\n        /* \"#utility.yul\":13474:13794   */\n    tag_97:\n        /* \"#utility.yul\":13518:13524   */\n      0x00\n        /* \"#utility.yul\":13555:13556   */\n      0x02\n        /* \"#utility.yul\":13549:13553   */\n      dup3\n        /* \"#utility.yul\":13545:13557   */\n      div\n        /* \"#utility.yul\":13535:13557   */\n      swap1\n      pop\n        /* \"#utility.yul\":13602:13603   */\n      0x01\n        /* \"#utility.yul\":13596:13600   */\n      dup3\n        /* \"#utility.yul\":13592:13604   */\n      and\n        /* \"#utility.yul\":13623:13641   */\n      dup1\n        /* \"#utility.yul\":13613:13694   */\n      tag_387\n      jumpi\n        /* \"#utility.yul\":13679:13683   */\n      0x7f\n        /* \"#utility.yul\":13671:13677   */\n      dup3\n        /* \"#utility.yul\":13667:13684   */\n      and\n        /* \"#utility.yul\":13657:13684   */\n      swap2\n      pop\n        /* \"#utility.yul\":13613:13694   */\n    tag_387:\n        /* \"#utility.yul\":13741:13743   */\n      0x20\n        /* \"#utility.yul\":13733:13739   */\n      dup3\n        /* \"#utility.yul\":13730:13744   */\n      lt\n        /* \"#utility.yul\":13710:13728   */\n      dup2\n        /* \"#utility.yul\":13707:13745   */\n      eq\n        /* \"#utility.yul\":13704:13788   */\n      iszero\n      tag_388\n      jumpi\n        /* \"#utility.yul\":13760:13778   */\n      tag_389\n      tag_390\n      jump\t// in\n    tag_389:\n        /* \"#utility.yul\":13704:13788   */\n    tag_388:\n        /* \"#utility.yul\":13525:13794   */\n      pop\n        /* \"#utility.yul\":13474:13794   */\n      swap2\n      swap1\n      pop\n      jump\t// out\n        /* \"#utility.yul\":13800:13980   */\n    tag_368:\n        /* \"#utility.yul\":13848:13925   */\n      0x4e487b7100000000000000000000000000000000000000000000000000000000\n        /* \"#utility.yul\":13845:13846   */\n      0x00\n        /* \"#utility.yul\":13838:13926   */\n      mstore\n        /* \"#utility.yul\":13945:13949   */\n      0x11\n        /* \"#utility.yul\":13942:13943   */\n      0x04\n        /* \"#utility.yul\":13935:13950   */\n      mstore\n        /* \"#utility.yul\":13969:13973   */\n      0x24\n        /* \"#utility.yul\":13966:13967   */\n      0x00\n        /* \"#utility.yul\":13959:13974   */\n      revert\n        /* \"#utility.yul\":13986:14166   */\n    tag_390:\n        /* \"#utility.yul\":14034:14111   */\n      0x4e487b7100000000000000000000000000000000000000000000000000000000\n        /* \"#utility.yul\":14031:14032   */\n      0x00\n        /* \"#utility.yul\":14024:14112   */\n      mstore\n        /* \"#utility.yul\":14131:14135   */\n      0x22\n        /* \"#utility.yul\":14128:14129   */\n      0x04\n        /* \"#utility.yul\":14121:14136   */\n      mstore\n        /* \"#utility.yul\":14155:14159   */\n      0x24\n        /* \"#utility.yul\":14152:14153   */\n      0x00\n        /* \"#utility.yul\":14145:14160   */\n      revert\n        /* \"#utility.yul\":14295:14412   */\n    tag_238:\n        /* \"#utility.yul\":14404:14405   */\n      0x00\n        /* \"#utility.yul\":14401:14402   */\n      dup1\n        /* \"#utility.yul\":14394:14406   */\n      revert\n        /* \"#utility.yul\":14418:14520   */\n    tag_277:\n        /* \"#utility.yul\":14459:14465   */\n      0x00\n        /* \"#utility.yul\":14510:14512   */\n      0x1f\n        /* \"#utility.yul\":14506:14513   */\n      not\n        /* \"#utility.yul\":14501:14503   */\n      0x1f\n        /* \"#utility.yul\":14494:14499   */\n      dup4\n        /* \"#utility.yul\":14490:14504   */\n      add\n        /* \"#utility.yul\":14486:14514   */\n      and\n        /* \"#utility.yul\":14476:14514   */\n      swap1\n      pop\n        /* \"#utility.yul\":14418:14520   */\n      swap2\n      swap1\n      pop\n      jump\t// out\n        /* \"#utility.yul\":14526:14748   */\n    tag_282:\n        /* \"#utility.yul\":14666:14700   */\n      0x45524332303a207472616e7366657220746f20746865207a65726f2061646472\n        /* \"#utility.yul\":14662:14663   */\n      0x00\n        /* \"#utility.yul\":14654:14660   */\n      dup3\n        /* \"#utility.yul\":14650:14664   */\n      add\n        /* \"#utility.yul\":14643:14701   */\n      mstore\n        /* \"#utility.yul\":14735:14740   */\n      0x6573730000000000000000000000000000000000000000000000000000000000\n        /* \"#utility.yul\":14730:14732   */\n      0x20\n        /* \"#utility.yul\":14722:14728   */\n      dup3\n        /* \"#utility.yul\":14718:14733   */\n      add\n        /* \"#utility.yul\":14711:14741   */\n      mstore\n        /* \"#utility.yul\":14526:14748   */\n      pop\n      jump\t// out\n        /* \"#utility.yul\":14754:14979   */\n    tag_287:\n        /* \"#utility.yul\":14894:14928   */\n      0x4f776e61626c653a206e6577206f776e657220697320746865207a65726f2061\n        /* \"#utility.yul\":14890:14891   */\n      0x00\n        /* \"#utility.yul\":14882:14888   */\n      dup3\n        /* \"#utility.yul\":14878:14892   */\n      add\n        /* \"#utility.yul\":14871:14929   */\n      mstore\n        /* \"#utility.yul\":14963:14971   */\n      0x6464726573730000000000000000000000000000000000000000000000000000\n        /* \"#utility.yul\":14958:14960   */\n      0x20\n        /* \"#utility.yul\":14950:14956   */\n      dup3\n        /* \"#utility.yul\":14946:14961   */\n      add\n        /* \"#utility.yul\":14939:14972   */\n      mstore\n        /* \"#utility.yul\":14754:14979   */\n      pop\n      jump\t// out\n        /* \"#utility.yul\":14985:15206   */\n    tag_292:\n        /* \"#utility.yul\":15125:15159   */\n      0x45524332303a20617070726f766520746f20746865207a65726f206164647265\n        /* \"#utility.yul\":15121:15122   */\n      0x00\n        /* \"#utility.yul\":15113:15119   */\n      dup3\n        /* \"#utility.yul\":15109:15123   */\n      add\n        /* \"#utility.yul\":15102:15160   */\n      mstore\n        /* \"#utility.yul\":15194:15198   */\n      0x7373000000000000000000000000000000000000000000000000000000000000\n        /* \"#utility.yul\":15189:15191   */\n      0x20\n        /* \"#utility.yul\":15181:15187   */\n      dup3\n        /* \"#utility.yul\":15177:15192   */\n      add\n        /* \"#utility.yul\":15170:15199   */\n      mstore\n        /* \"#utility.yul\":14985:15206   */\n      pop\n      jump\t// out\n        /* \"#utility.yul\":15212:15436   */\n    tag_297:\n        /* \"#utility.yul\":15352:15386   */\n      0x45524332303a206d696e7420616d6f756e742065786365656473206d61782073\n        /* \"#utility.yul\":15348:15349   */\n      0x00\n        /* \"#utility.yul\":15340:15346   */\n      dup3\n        /* \"#utility.yul\":15336:15350   */\n      add\n        /* \"#utility.yul\":15329:15387   */\n      mstore\n        /* \"#utility.yul\":15421:15428   */\n      0x7570706c79000000000000000000000000000000000000000000000000000000\n        /* \"#utility.yul\":15416:15418   */\n      0x20\n        /* \"#utility.yul\":15408:15414   */\n      dup3\n        /* \"#utility.yul\":15404:15419   */\n      add\n        /* \"#utility.yul\":15397:15429   */\n      mstore\n        /* \"#utility.yul\":15212:15436   */\n      pop\n      jump\t// out\n        /* \"#utility.yul\":15442:15624   */\n    tag_302:\n        /* \"#utility.yul\":15582:15616   */\n      0x4f776e61626c653a2063616c6c6572206973206e6f7420746865206f776e6572\n        /* \"#utility.yul\":15578:15579   */\n      0x00\n        /* \"#utility.yul\":15570:15576   */\n      dup3\n        /* \"#utility.yul\":15566:15580   */\n      add\n        /* \"#utility.yul\":15559:15617   */\n      mstore\n        /* \"#utility.yul\":15442:15624   */\n      pop\n      jump\t// out\n        /* \"#utility.yul\":15630:15850   */\n    tag_307:\n        /* \"#utility.yul\":15770:15804   */\n      0x45524332303a206275726e2066726f6d20746865207a65726f20616464726573\n        /* \"#utility.yul\":15766:15767   */\n      0x00\n        /* \"#utility.yul\":15758:15764   */\n      dup3\n        /* \"#utility.yul\":15754:15768   */\n      add\n        /* \"#utility.yul\":15747:15805   */\n      mstore\n        /* \"#utility.yul\":15839:15842   */\n      0x7300000000000000000000000000000000000000000000000000000000000000\n        /* \"#utility.yul\":15834:15836   */\n      0x20\n        /* \"#utility.yul\":15826:15832   */\n      dup3\n        /* \"#utility.yul\":15822:15837   */\n      add\n        /* \"#utility.yul\":15815:15843   */\n      mstore\n        /* \"#utility.yul\":15630:15850   */\n      pop\n      jump\t// out\n        /* \"#utility.yul\":15856:16080   */\n    tag_312:\n        /* \"#utility.yul\":15996:16030   */\n      0x45524332303a207472616e736665722066726f6d20746865207a65726f206164\n        /* \"#utility.yul\":15992:15993   */\n      0x00\n        /* \"#utility.yul\":15984:15990   */\n      dup3\n        /* \"#utility.yul\":15980:15994   */\n      add\n        /* \"#utility.yul\":15973:16031   */\n      mstore\n        /* \"#utility.yul\":16065:16072   */\n      0x6472657373000000000000000000000000000000000000000000000000000000\n        /* \"#utility.yul\":16060:16062   */\n      0x20\n        /* \"#utility.yul\":16052:16058   */\n      dup3\n        /* \"#utility.yul\":16048:16063   */\n      add\n        /* \"#utility.yul\":16041:16073   */\n      mstore\n        /* \"#utility.yul\":15856:16080   */\n      pop\n      jump\t// out\n        /* \"#utility.yul\":16086:16309   */\n    tag_317:\n        /* \"#utility.yul\":16226:16260   */\n      0x45524332303a20617070726f76652066726f6d20746865207a65726f20616464\n        /* \"#utility.yul\":16222:16223   */\n      0x00\n        /* \"#utility.yul\":16214:16220   */\n      dup3\n        /* \"#utility.yul\":16210:16224   */\n      add\n        /* \"#utility.yul\":16203:16261   */\n      mstore\n        /* \"#utility.yul\":16295:16301   */\n      0x7265737300000000000000000000000000000000000000000000000000000000\n        /* \"#utility.yul\":16290:16292   */\n      0x20\n        /* \"#utility.yul\":16282:16288   */\n      dup3\n        /* \"#utility.yul\":16278:16293   */\n      add\n        /* \"#utility.yul\":16271:16302   */\n      mstore\n        /* \"#utility.yul\":16086:16309   */\n      pop\n      jump\t// out\n        /* \"#utility.yul\":16315:16496   */\n    tag_322:\n        /* \"#utility.yul\":16455:16488   */\n      0x45524332303a206d696e7420746f20746865207a65726f206164647265737300\n        /* \"#utility.yul\":16451:16452   */\n      0x00\n        /* \"#utility.yul\":16443:16449   */\n      dup3\n        /* \"#utility.yul\":16439:16453   */\n      add\n        /* \"#utility.yul\":16432:16489   */\n      mstore\n        /* \"#utility.yul\":16315:16496   */\n      pop\n      jump\t// out\n        /* \"#utility.yul\":16502:16624   */\n    tag_230:\n        /* \"#utility.yul\":16575:16599   */\n      tag_407\n        /* \"#utility.yul\":16593:16598   */\n      dup2\n        /* \"#utility.yul\":16575:16599   */\n      tag_263\n      jump\t// in\n    tag_407:\n        /* \"#utility.yul\":16568:16573   */\n      dup2\n        /* \"#utility.yul\":16565:16600   */\n      eq\n        /* \"#utility.yul\":16555:16618   */\n      tag_408\n      jumpi\n        /* \"#utility.yul\":16614:16615   */\n      0x00\n        /* \"#utility.yul\":16611:16612   */\n      dup1\n        /* \"#utility.yul\":16604:16616   */\n      revert\n        /* \"#utility.yul\":16555:16618   */\n    tag_408:\n        /* \"#utility.yul\":16502:16624   */\n      pop\n      jump\t// out\n        /* \"#utility.yul\":16630:16752   */\n    tag_234:\n        /* \"#utility.yul\":16703:16727   */\n      tag_410\n        /* \"#utility.yul\":16721:16726   */\n      dup2\n        /* \"#utility.yul\":16703:16727   */\n      tag_326\n      jump\t// in\n    tag_410:\n        /* \"#utility.yul\":16696:16701   */\n      dup2\n        /* \"#utility.yul\":16693:16728   */\n      eq\n        /* \"#utility.yul\":16683:16746   */\n      tag_411\n      jumpi\n        /* \"#utility.yul\":16742:16743   */\n      0x00\n        /* \"#utility.yul\":16739:16740   */\n      dup1\n        /* \"#utility.yul\":16732:16744   */\n      revert\n        /* \"#utility.yul\":16683:16746   */\n    tag_411:\n        /* \"#utility.yul\":16630:16752   */\n      pop\n      jump\t// out\n    stop\n    data_149b126e7125232b4200af45303d04fba8b74653b1a295a6a561a528c33fefdd 45524332303a206275726e20616d6f756e7420657863656564732062616c616e6365\n    data_4107e8a8b9e94bf8ff83080ddec1c0bffe897ebc2241b89d44f66b3d274088b6 45524332303a207472616e7366657220616d6f756e7420657863656564732062616c616e6365\n    data_974d1b4421da69cc60b481194f0dad36a5bb4e23da810da7a7fb30cdba178330 45524332303a207472616e7366657220616d6f756e74206578636565647320616c6c6f77616e6365\n    data_a287c363786607a1457a2d9d12fa61c0073358e02d76b4035fc2c2d86a19c0db 45524332303a206275726e20616d6f756e74206578636565647320616c6c6f77616e6365\n    data_f8b476f7d28209d77d4a4ac1fe36b9f8259aa1bb6bddfa6e89de7e51615cf8a8 45524332303a2064656372656173656420616c6c6f77616e63652062656c6f77207a65726f\n\n    auxdata: 0xa26469706673582212206ddc68216922195ef0c7f62dfd58c449c7a45d39479cda4f599c267feec40d1664736f6c63430008070033\n}\n",
				"bytecode": {
					"linkReferences": {},
					"object": "60806040523480156200001157600080fd5b5062000032620000266200013860201b60201c565b6200014060201b60201c565b60008060146101000a81548160ff0219169083151502179055506040518060400160405280601181526020017f4d544d5320546f6b656e20546573742034000000000000000000000000000000815250600590805190602001906200009992919062000410565b506040518060400160405280600681526020017f4d544d535434000000000000000000000000000000000000000000000000000081525060069080519060200190620000e792919062000410565b506006600760006101000a81548160ff021916908360ff160217905550633b9aca0060038190555062000132620001236200013860201b60201c565b6003546200020460201b60201c565b62000704565b600033905090565b60008060009054906101000a900473ffffffffffffffffffffffffffffffffffffffff169050816000806101000a81548173ffffffffffffffffffffffffffffffffffffffff021916908373ffffffffffffffffffffffffffffffffffffffff1602179055508173ffffffffffffffffffffffffffffffffffffffff168173ffffffffffffffffffffffffffffffffffffffff167f8be0079c531659141344cd1fd0a4f28419497f9722a3daafe3b4186f6b6457e060405160405180910390a35050565b600073ffffffffffffffffffffffffffffffffffffffff168273ffffffffffffffffffffffffffffffffffffffff16141562000277576040517f08c379a00000000000000000000000000000000000000000000000000000000081526004016200026e9062000541565b60405180910390fd5b600354816004546200028a919062000591565b1115620002ce576040517f08c379a0000000000000000000000000000000000000000000000000000000008152600401620002c5906200051f565b60405180910390fd5b620002ea81600454620003f860201b62000b021790919060201c565b6004819055506200034981600160008573ffffffffffffffffffffffffffffffffffffffff1673ffffffffffffffffffffffffffffffffffffffff16815260200190815260200160002054620003f860201b62000b021790919060201c565b600160008473ffffffffffffffffffffffffffffffffffffffff1673ffffffffffffffffffffffffffffffffffffffff168152602001908152602001600020819055508173ffffffffffffffffffffffffffffffffffffffff16600073ffffffffffffffffffffffffffffffffffffffff167fddf252ad1be2c89b69c2b068fc378daa952ba7f163c4a11628f55a4df523b3ef83604051620003ec919062000563565b60405180910390a35050565b6000818362000408919062000591565b905092915050565b8280546200041e90620005f8565b90600052602060002090601f0160209004810192826200044257600085556200048e565b82601f106200045d57805160ff19168380011785556200048e565b828001600101855582156200048e579182015b828111156200048d57825182559160200191906001019062000470565b5b5090506200049d9190620004a1565b5090565b5b80821115620004bc576000816000905550600101620004a2565b5090565b6000620004cf60258362000580565b9150620004dc826200068c565b604082019050919050565b6000620004f6601f8362000580565b91506200050382620006db565b602082019050919050565b6200051981620005ee565b82525050565b600060208201905081810360008301526200053a81620004c0565b9050919050565b600060208201905081810360008301526200055c81620004e7565b9050919050565b60006020820190506200057a60008301846200050e565b92915050565b600082825260208201905092915050565b60006200059e82620005ee565b9150620005ab83620005ee565b9250827fffffffffffffffffffffffffffffffffffffffffffffffffffffffffffffffff03821115620005e357620005e26200062e565b5b828201905092915050565b6000819050919050565b600060028204905060018216806200061157607f821691505b602082108114156200062857620006276200065d565b5b50919050565b7f4e487b7100000000000000000000000000000000000000000000000000000000600052601160045260246000fd5b7f4e487b7100000000000000000000000000000000000000000000000000000000600052602260045260246000fd5b7f45524332303a206d696e7420616d6f756e742065786365656473206d6178207360008201527f7570706c79000000000000000000000000000000000000000000000000000000602082015250565b7f45524332303a206d696e7420746f20746865207a65726f206164647265737300600082015250565b611e4980620007146000396000f3fe608060405234801561001057600080fd5b50600436106101165760003560e01c806370a08231116100a257806395d89b411161007157806395d89b41146102cf578063a457c2d7146102ed578063a9059cbb1461031d578063dd62ed3e1461034d578063f2fde38b1461037d57610116565b806370a082311461025b578063715018a61461028b57806379cc6790146102955780638da5cb5b146102b157610116565b8063313ce567116100e9578063313ce567146101b757806339509351146101d557806340c10f191461020557806342966c68146102215780635c975abb1461023d57610116565b806306fdde031461011b578063095ea7b31461013957806318160ddd1461016957806323b872dd14610187575b600080fd5b610123610399565b6040516101309190611765565b60405180910390f35b610153600480360381019061014e9190611512565b61042b565b604051610160919061174a565b60405180910390f35b610171610449565b60405161017e91906118a7565b60405180910390f35b6101a1600480360381019061019c91906114bf565b610453565b6040516101ae919061174a565b60405180910390f35b6101bf61052c565b6040516101cc91906118c2565b60405180910390f35b6101ef60048036038101906101ea9190611512565b610543565b6040516101fc919061174a565b60405180910390f35b61021f600480360381019061021a9190611512565b6105f6565b005b61023b60048036038101906102369190611552565b610680565b005b610245610694565b604051610252919061174a565b60405180910390f35b61027560048036038101906102709190611452565b6106aa565b60405161028291906118a7565b60405180910390f35b6102936106f3565b005b6102af60048036038101906102aa9190611512565b61077b565b005b6102b96107dd565b6040516102c6919061172f565b60405180910390f35b6102d7610806565b6040516102e49190611765565b60405180910390f35b61030760048036038101906103029190611512565b610898565b604051610314919061174a565b60405180910390f35b61033760048036038101906103329190611512565b610965565b604051610344919061174a565b60405180910390f35b6103676004803603810190610362919061147f565b610983565b60405161037491906118a7565b60405180910390f35b61039760048036038101906103929190611452565b610a0a565b005b6060600580546103a890611a0b565b80601f01602080910402602001604051908101604052809291908181526020018280546103d490611a0b565b80156104215780601f106103f657610100808354040283529160200191610421565b820191906000526020600020905b81548152906001019060200180831161040457829003601f168201915b5050505050905090565b600061043f610438610b18565b8484610b20565b6001905092915050565b6000600454905090565b6000610460848484610ceb565b6105218461046c610b18565b61051c85604051806060016040528060288152602001611da360289139600260008b73ffffffffffffffffffffffffffffffffffffffff1673ffffffffffffffffffffffffffffffffffffffff16815260200190815260200160002060006104d2610b18565b73ffffffffffffffffffffffffffffffffffffffff1673ffffffffffffffffffffffffffffffffffffffff16815260200190815260200160002054610f799092919063ffffffff16565b610b20565b600190509392505050565b6000600760009054906101000a900460ff16905090565b60006105ec610550610b18565b846105e78560026000610561610b18565b73ffffffffffffffffffffffffffffffffffffffff1673ffffffffffffffffffffffffffffffffffffffff16815260200190815260200160002060008973ffffffffffffffffffffffffffffffffffffffff1673ffffffffffffffffffffffffffffffffffffffff16815260200190815260200160002054610b0290919063ffffffff16565b610b20565b6001905092915050565b6105fe610b18565b73ffffffffffffffffffffffffffffffffffffffff1661061c6107dd565b73ffffffffffffffffffffffffffffffffffffffff1614610672576040517f08c379a000000000000000000000000000000000000000000000000000000000815260040161066990611807565b60405180910390fd5b61067c8282610fce565b5050565b61069161068b610b18565b826111aa565b50565b60008060149054906101000a900460ff16905090565b6000600160008373ffffffffffffffffffffffffffffffffffffffff1673ffffffffffffffffffffffffffffffffffffffff168152602001908152602001600020549050919050565b6106fb610b18565b73ffffffffffffffffffffffffffffffffffffffff166107196107dd565b73ffffffffffffffffffffffffffffffffffffffff161461076f576040517f08c379a000000000000000000000000000000000000000000000000000000000815260040161076690611807565b60405180910390fd5b610779600061134e565b565b60006107ba82604051806060016040528060248152602001611dcb602491396107ab866107a6610b18565b610983565b610f799092919063ffffffff16565b90506107ce836107c8610b18565b83610b20565b6107d883836111aa565b505050565b60008060009054906101000a900473ffffffffffffffffffffffffffffffffffffffff16905090565b60606006805461081590611a0b565b80601f016020809104026020016040519081016040528092919081815260200182805461084190611a0b565b801561088e5780601f106108635761010080835404028352916020019161088e565b820191906000526020600020905b81548152906001019060200180831161087157829003601f168201915b5050505050905090565b600061095b6108a5610b18565b8461095685604051806060016040528060258152602001611def60259139600260006108cf610b18565b73ffffffffffffffffffffffffffffffffffffffff1673ffffffffffffffffffffffffffffffffffffffff16815260200190815260200160002060008a73ffffffffffffffffffffffffffffffffffffffff1673ffffffffffffffffffffffffffffffffffffffff16815260200190815260200160002054610f799092919063ffffffff16565b610b20565b6001905092915050565b6000610979610972610b18565b8484610ceb565b6001905092915050565b6000600260008473ffffffffffffffffffffffffffffffffffffffff1673ffffffffffffffffffffffffffffffffffffffff16815260200190815260200160002060008373ffffffffffffffffffffffffffffffffffffffff1673ffffffffffffffffffffffffffffffffffffffff16815260200190815260200160002054905092915050565b610a12610b18565b73ffffffffffffffffffffffffffffffffffffffff16610a306107dd565b73ffffffffffffffffffffffffffffffffffffffff1614610a86576040517f08c379a0000000000000000000000000000000000000000000000000000000008152600401610a7d90611807565b60405180910390fd5b600073ffffffffffffffffffffffffffffffffffffffff168173ffffffffffffffffffffffffffffffffffffffff161415610af6576040517f08c379a0000000000000000000000000000000000000000000000000000000008152600401610aed906117a7565b60405180910390fd5b610aff8161134e565b50565b60008183610b1091906118f9565b905092915050565b600033905090565b600073ffffffffffffffffffffffffffffffffffffffff168373ffffffffffffffffffffffffffffffffffffffff161415610b90576040517f08c379a0000000000000000000000000000000000000000000000000000000008152600401610b8790611867565b60405180910390fd5b600073ffffffffffffffffffffffffffffffffffffffff168273ffffffffffffffffffffffffffffffffffffffff161415610c00576040517f08c379a0000000000000000000000000000000000000000000000000000000008152600401610bf7906117c7565b60405180910390fd5b80600260008573ffffffffffffffffffffffffffffffffffffffff1673ffffffffffffffffffffffffffffffffffffffff16815260200190815260200160002060008473ffffffffffffffffffffffffffffffffffffffff1673ffffffffffffffffffffffffffffffffffffffff168152602001908152602001600020819055508173ffffffffffffffffffffffffffffffffffffffff168373ffffffffffffffffffffffffffffffffffffffff167f8c5be1e5ebec7d5bd14f71427d1e84f3dd0314c0f7b2291e5b200ac8c7c3b92583604051610cde91906118a7565b60405180910390a3505050565b600073ffffffffffffffffffffffffffffffffffffffff168373ffffffffffffffffffffffffffffffffffffffff161415610d5b576040517f08c379a0000000000000000000000000000000000000000000000000000000008152600401610d5290611847565b60405180910390fd5b600073ffffffffffffffffffffffffffffffffffffffff168273ffffffffffffffffffffffffffffffffffffffff161415610dcb576040517f08c379a0000000000000000000000000000000000000000000000000000000008152600401610dc290611787565b60405180910390fd5b610e3781604051806060016040528060268152602001611d7d60269139600160008773ffffffffffffffffffffffffffffffffffffffff1673ffffffffffffffffffffffffffffffffffffffff16815260200190815260200160002054610f799092919063ffffffff16565b600160008573ffffffffffffffffffffffffffffffffffffffff1673ffffffffffffffffffffffffffffffffffffffff16815260200190815260200160002081905550610ecc81600160008573ffffffffffffffffffffffffffffffffffffffff1673ffffffffffffffffffffffffffffffffffffffff16815260200190815260200160002054610b0290919063ffffffff16565b600160008473ffffffffffffffffffffffffffffffffffffffff1673ffffffffffffffffffffffffffffffffffffffff168152602001908152602001600020819055508173ffffffffffffffffffffffffffffffffffffffff168373ffffffffffffffffffffffffffffffffffffffff167fddf252ad1be2c89b69c2b068fc378daa952ba7f163c4a11628f55a4df523b3ef83604051610f6c91906118a7565b60405180910390a3505050565b6000838311158290610fc1576040517f08c379a0000000000000000000000000000000000000000000000000000000008152600401610fb89190611765565b60405180910390fd5b5082840390509392505050565b600073ffffffffffffffffffffffffffffffffffffffff168273ffffffffffffffffffffffffffffffffffffffff16141561103e576040517f08c379a000000000000000000000000000000000000000000000000000000000815260040161103590611887565b60405180910390fd5b6003548160045461104f91906118f9565b1115611090576040517f08c379a0000000000000000000000000000000000000000000000000000000008152600401611087906117e7565b60405180910390fd5b6110a581600454610b0290919063ffffffff16565b6004819055506110fd81600160008573ffffffffffffffffffffffffffffffffffffffff1673ffffffffffffffffffffffffffffffffffffffff16815260200190815260200160002054610b0290919063ffffffff16565b600160008473ffffffffffffffffffffffffffffffffffffffff1673ffffffffffffffffffffffffffffffffffffffff168152602001908152602001600020819055508173ffffffffffffffffffffffffffffffffffffffff16600073ffffffffffffffffffffffffffffffffffffffff167fddf252ad1be2c89b69c2b068fc378daa952ba7f163c4a11628f55a4df523b3ef8360405161119e91906118a7565b60405180910390a35050565b600073ffffffffffffffffffffffffffffffffffffffff168273ffffffffffffffffffffffffffffffffffffffff16141561121a576040517f08c379a000000000000000000000000000000000000000000000000000000000815260040161121190611827565b60405180910390fd5b61128681604051806060016040528060228152602001611d5b60229139600160008673ffffffffffffffffffffffffffffffffffffffff1673ffffffffffffffffffffffffffffffffffffffff16815260200190815260200160002054610f799092919063ffffffff16565b600160008473ffffffffffffffffffffffffffffffffffffffff1673ffffffffffffffffffffffffffffffffffffffff168152602001908152602001600020819055506112de8160045461141290919063ffffffff16565b600481905550600073ffffffffffffffffffffffffffffffffffffffff168273ffffffffffffffffffffffffffffffffffffffff167fddf252ad1be2c89b69c2b068fc378daa952ba7f163c4a11628f55a4df523b3ef8360405161134291906118a7565b60405180910390a35050565b60008060009054906101000a900473ffffffffffffffffffffffffffffffffffffffff169050816000806101000a81548173ffffffffffffffffffffffffffffffffffffffff021916908373ffffffffffffffffffffffffffffffffffffffff1602179055508173ffffffffffffffffffffffffffffffffffffffff168173ffffffffffffffffffffffffffffffffffffffff167f8be0079c531659141344cd1fd0a4f28419497f9722a3daafe3b4186f6b6457e060405160405180910390a35050565b60008183611420919061194f565b905092915050565b60008135905061143781611d2c565b92915050565b60008135905061144c81611d43565b92915050565b60006020828403121561146857611467611a9b565b5b600061147684828501611428565b91505092915050565b6000806040838503121561149657611495611a9b565b5b60006114a485828601611428565b92505060206114b585828601611428565b9150509250929050565b6000806000606084860312156114d8576114d7611a9b565b5b60006114e686828701611428565b93505060206114f786828701611428565b92505060406115088682870161143d565b9150509250925092565b6000806040838503121561152957611528611a9b565b5b600061153785828601611428565b92505060206115488582860161143d565b9150509250929050565b60006020828403121561156857611567611a9b565b5b60006115768482850161143d565b91505092915050565b61158881611983565b82525050565b61159781611995565b82525050565b60006115a8826118dd565b6115b281856118e8565b93506115c28185602086016119d8565b6115cb81611aa0565b840191505092915050565b60006115e36023836118e8565b91506115ee82611ab1565b604082019050919050565b60006116066026836118e8565b915061161182611b00565b604082019050919050565b60006116296022836118e8565b915061163482611b4f565b604082019050919050565b600061164c6025836118e8565b915061165782611b9e565b604082019050919050565b600061166f6020836118e8565b915061167a82611bed565b602082019050919050565b60006116926021836118e8565b915061169d82611c16565b604082019050919050565b60006116b56025836118e8565b91506116c082611c65565b604082019050919050565b60006116d86024836118e8565b91506116e382611cb4565b604082019050919050565b60006116fb601f836118e8565b915061170682611d03565b602082019050919050565b61171a816119c1565b82525050565b611729816119cb565b82525050565b6000602082019050611744600083018461157f565b92915050565b600060208201905061175f600083018461158e565b92915050565b6000602082019050818103600083015261177f818461159d565b905092915050565b600060208201905081810360008301526117a0816115d6565b9050919050565b600060208201905081810360008301526117c0816115f9565b9050919050565b600060208201905081810360008301526117e08161161c565b9050919050565b600060208201905081810360008301526118008161163f565b9050919050565b6000602082019050818103600083015261182081611662565b9050919050565b6000602082019050818103600083015261184081611685565b9050919050565b60006020820190508181036000830152611860816116a8565b9050919050565b60006020820190508181036000830152611880816116cb565b9050919050565b600060208201905081810360008301526118a0816116ee565b9050919050565b60006020820190506118bc6000830184611711565b92915050565b60006020820190506118d76000830184611720565b92915050565b600081519050919050565b600082825260208201905092915050565b6000611904826119c1565b915061190f836119c1565b9250827fffffffffffffffffffffffffffffffffffffffffffffffffffffffffffffffff0382111561194457611943611a3d565b5b828201905092915050565b600061195a826119c1565b9150611965836119c1565b92508282101561197857611977611a3d565b5b828203905092915050565b600061198e826119a1565b9050919050565b60008115159050919050565b600073ffffffffffffffffffffffffffffffffffffffff82169050919050565b6000819050919050565b600060ff82169050919050565b60005b838110156119f65780820151818401526020810190506119db565b83811115611a05576000848401525b50505050565b60006002820490506001821680611a2357607f821691505b60208210811415611a3757611a36611a6c565b5b50919050565b7f4e487b7100000000000000000000000000000000000000000000000000000000600052601160045260246000fd5b7f4e487b7100000000000000000000000000000000000000000000000000000000600052602260045260246000fd5b600080fd5b6000601f19601f8301169050919050565b7f45524332303a207472616e7366657220746f20746865207a65726f206164647260008201527f6573730000000000000000000000000000000000000000000000000000000000602082015250565b7f4f776e61626c653a206e6577206f776e657220697320746865207a65726f206160008201527f6464726573730000000000000000000000000000000000000000000000000000602082015250565b7f45524332303a20617070726f766520746f20746865207a65726f20616464726560008201527f7373000000000000000000000000000000000000000000000000000000000000602082015250565b7f45524332303a206d696e7420616d6f756e742065786365656473206d6178207360008201527f7570706c79000000000000000000000000000000000000000000000000000000602082015250565b7f4f776e61626c653a2063616c6c6572206973206e6f7420746865206f776e6572600082015250565b7f45524332303a206275726e2066726f6d20746865207a65726f2061646472657360008201527f7300000000000000000000000000000000000000000000000000000000000000602082015250565b7f45524332303a207472616e736665722066726f6d20746865207a65726f20616460008201527f6472657373000000000000000000000000000000000000000000000000000000602082015250565b7f45524332303a20617070726f76652066726f6d20746865207a65726f2061646460008201527f7265737300000000000000000000000000000000000000000000000000000000602082015250565b7f45524332303a206d696e7420746f20746865207a65726f206164647265737300600082015250565b611d3581611983565b8114611d4057600080fd5b50565b611d4c816119c1565b8114611d5757600080fd5b5056fe45524332303a206275726e20616d6f756e7420657863656564732062616c616e636545524332303a207472616e7366657220616d6f756e7420657863656564732062616c616e636545524332303a207472616e7366657220616d6f756e74206578636565647320616c6c6f77616e636545524332303a206275726e20616d6f756e74206578636565647320616c6c6f77616e636545524332303a2064656372656173656420616c6c6f77616e63652062656c6f77207a65726fa26469706673582212206ddc68216922195ef0c7f62dfd58c449c7a45d39479cda4f599c267feec40d1664736f6c63430008070033",
					"opcodes": "PUSH1 0x80 PUSH1 0x40 MSTORE CALLVALUE DUP1 ISZERO PUSH3 0x11 JUMPI PUSH1 0x0 DUP1 REVERT JUMPDEST POP PUSH3 0x32 PUSH3 0x26 PUSH3 0x138 PUSH1 0x20 SHL PUSH1 0x20 SHR JUMP JUMPDEST PUSH3 0x140 PUSH1 0x20 SHL PUSH1 0x20 SHR JUMP JUMPDEST PUSH1 0x0 DUP1 PUSH1 0x14 PUSH2 0x100 EXP DUP2 SLOAD DUP2 PUSH1 0xFF MUL NOT AND SWAP1 DUP4 ISZERO ISZERO MUL OR SWAP1 SSTORE POP PUSH1 0x40 MLOAD DUP1 PUSH1 0x40 ADD PUSH1 0x40 MSTORE DUP1 PUSH1 0x11 DUP2 MSTORE PUSH1 0x20 ADD PUSH32 0x4D544D5320546F6B656E20546573742034000000000000000000000000000000 DUP2 MSTORE POP PUSH1 0x5 SWAP1 DUP1 MLOAD SWAP1 PUSH1 0x20 ADD SWAP1 PUSH3 0x99 SWAP3 SWAP2 SWAP1 PUSH3 0x410 JUMP JUMPDEST POP PUSH1 0x40 MLOAD DUP1 PUSH1 0x40 ADD PUSH1 0x40 MSTORE DUP1 PUSH1 0x6 DUP2 MSTORE PUSH1 0x20 ADD PUSH32 0x4D544D5354340000000000000000000000000000000000000000000000000000 DUP2 MSTORE POP PUSH1 0x6 SWAP1 DUP1 MLOAD SWAP1 PUSH1 0x20 ADD SWAP1 PUSH3 0xE7 SWAP3 SWAP2 SWAP1 PUSH3 0x410 JUMP JUMPDEST POP PUSH1 0x6 PUSH1 0x7 PUSH1 0x0 PUSH2 0x100 EXP DUP2 SLOAD DUP2 PUSH1 0xFF MUL NOT AND SWAP1 DUP4 PUSH1 0xFF AND MUL OR SWAP1 SSTORE POP PUSH4 0x3B9ACA00 PUSH1 0x3 DUP2 SWAP1 SSTORE POP PUSH3 0x132 PUSH3 0x123 PUSH3 0x138 PUSH1 0x20 SHL PUSH1 0x20 SHR JUMP JUMPDEST PUSH1 0x3 SLOAD PUSH3 0x204 PUSH1 0x20 SHL PUSH1 0x20 SHR JUMP JUMPDEST PUSH3 0x704 JUMP JUMPDEST PUSH1 0x0 CALLER SWAP1 POP SWAP1 JUMP JUMPDEST PUSH1 0x0 DUP1 PUSH1 0x0 SWAP1 SLOAD SWAP1 PUSH2 0x100 EXP SWAP1 DIV PUSH20 0xFFFFFFFFFFFFFFFFFFFFFFFFFFFFFFFFFFFFFFFF AND SWAP1 POP DUP2 PUSH1 0x0 DUP1 PUSH2 0x100 EXP DUP2 SLOAD DUP2 PUSH20 0xFFFFFFFFFFFFFFFFFFFFFFFFFFFFFFFFFFFFFFFF MUL NOT AND SWAP1 DUP4 PUSH20 0xFFFFFFFFFFFFFFFFFFFFFFFFFFFFFFFFFFFFFFFF AND MUL OR SWAP1 SSTORE POP DUP2 PUSH20 0xFFFFFFFFFFFFFFFFFFFFFFFFFFFFFFFFFFFFFFFF AND DUP2 PUSH20 0xFFFFFFFFFFFFFFFFFFFFFFFFFFFFFFFFFFFFFFFF AND PUSH32 0x8BE0079C531659141344CD1FD0A4F28419497F9722A3DAAFE3B4186F6B6457E0 PUSH1 0x40 MLOAD PUSH1 0x40 MLOAD DUP1 SWAP2 SUB SWAP1 LOG3 POP POP JUMP JUMPDEST PUSH1 0x0 PUSH20 0xFFFFFFFFFFFFFFFFFFFFFFFFFFFFFFFFFFFFFFFF AND DUP3 PUSH20 0xFFFFFFFFFFFFFFFFFFFFFFFFFFFFFFFFFFFFFFFF AND EQ ISZERO PUSH3 0x277 JUMPI PUSH1 0x40 MLOAD PUSH32 0x8C379A000000000000000000000000000000000000000000000000000000000 DUP2 MSTORE PUSH1 0x4 ADD PUSH3 0x26E SWAP1 PUSH3 0x541 JUMP JUMPDEST PUSH1 0x40 MLOAD DUP1 SWAP2 SUB SWAP1 REVERT JUMPDEST PUSH1 0x3 SLOAD DUP2 PUSH1 0x4 SLOAD PUSH3 0x28A SWAP2 SWAP1 PUSH3 0x591 JUMP JUMPDEST GT ISZERO PUSH3 0x2CE JUMPI PUSH1 0x40 MLOAD PUSH32 0x8C379A000000000000000000000000000000000000000000000000000000000 DUP2 MSTORE PUSH1 0x4 ADD PUSH3 0x2C5 SWAP1 PUSH3 0x51F JUMP JUMPDEST PUSH1 0x40 MLOAD DUP1 SWAP2 SUB SWAP1 REVERT JUMPDEST PUSH3 0x2EA DUP2 PUSH1 0x4 SLOAD PUSH3 0x3F8 PUSH1 0x20 SHL PUSH3 0xB02 OR SWAP1 SWAP2 SWAP1 PUSH1 0x20 SHR JUMP JUMPDEST PUSH1 0x4 DUP2 SWAP1 SSTORE POP PUSH3 0x349 DUP2 PUSH1 0x1 PUSH1 0x0 DUP6 PUSH20 0xFFFFFFFFFFFFFFFFFFFFFFFFFFFFFFFFFFFFFFFF AND PUSH20 0xFFFFFFFFFFFFFFFFFFFFFFFFFFFFFFFFFFFFFFFF AND DUP2 MSTORE PUSH1 0x20 ADD SWAP1 DUP2 MSTORE PUSH1 0x20 ADD PUSH1 0x0 KECCAK256 SLOAD PUSH3 0x3F8 PUSH1 0x20 SHL PUSH3 0xB02 OR SWAP1 SWAP2 SWAP1 PUSH1 0x20 SHR JUMP JUMPDEST PUSH1 0x1 PUSH1 0x0 DUP5 PUSH20 0xFFFFFFFFFFFFFFFFFFFFFFFFFFFFFFFFFFFFFFFF AND PUSH20 0xFFFFFFFFFFFFFFFFFFFFFFFFFFFFFFFFFFFFFFFF AND DUP2 MSTORE PUSH1 0x20 ADD SWAP1 DUP2 MSTORE PUSH1 0x20 ADD PUSH1 0x0 KECCAK256 DUP2 SWAP1 SSTORE POP DUP2 PUSH20 0xFFFFFFFFFFFFFFFFFFFFFFFFFFFFFFFFFFFFFFFF AND PUSH1 0x0 PUSH20 0xFFFFFFFFFFFFFFFFFFFFFFFFFFFFFFFFFFFFFFFF AND PUSH32 0xDDF252AD1BE2C89B69C2B068FC378DAA952BA7F163C4A11628F55A4DF523B3EF DUP4 PUSH1 0x40 MLOAD PUSH3 0x3EC SWAP2 SWAP1 PUSH3 0x563 JUMP JUMPDEST PUSH1 0x40 MLOAD DUP1 SWAP2 SUB SWAP1 LOG3 POP POP JUMP JUMPDEST PUSH1 0x0 DUP2 DUP4 PUSH3 0x408 SWAP2 SWAP1 PUSH3 0x591 JUMP JUMPDEST SWAP1 POP SWAP3 SWAP2 POP POP JUMP JUMPDEST DUP3 DUP1 SLOAD PUSH3 0x41E SWAP1 PUSH3 0x5F8 JUMP JUMPDEST SWAP1 PUSH1 0x0 MSTORE PUSH1 0x20 PUSH1 0x0 KECCAK256 SWAP1 PUSH1 0x1F ADD PUSH1 0x20 SWAP1 DIV DUP2 ADD SWAP3 DUP3 PUSH3 0x442 JUMPI PUSH1 0x0 DUP6 SSTORE PUSH3 0x48E JUMP JUMPDEST DUP3 PUSH1 0x1F LT PUSH3 0x45D JUMPI DUP1 MLOAD PUSH1 0xFF NOT AND DUP4 DUP1 ADD OR DUP6 SSTORE PUSH3 0x48E JUMP JUMPDEST DUP3 DUP1 ADD PUSH1 0x1 ADD DUP6 SSTORE DUP3 ISZERO PUSH3 0x48E JUMPI SWAP2 DUP3 ADD JUMPDEST DUP3 DUP2 GT ISZERO PUSH3 0x48D JUMPI DUP3 MLOAD DUP3 SSTORE SWAP2 PUSH1 0x20 ADD SWAP2 SWAP1 PUSH1 0x1 ADD SWAP1 PUSH3 0x470 JUMP JUMPDEST JUMPDEST POP SWAP1 POP PUSH3 0x49D SWAP2 SWAP1 PUSH3 0x4A1 JUMP JUMPDEST POP SWAP1 JUMP JUMPDEST JUMPDEST DUP1 DUP3 GT ISZERO PUSH3 0x4BC JUMPI PUSH1 0x0 DUP2 PUSH1 0x0 SWAP1 SSTORE POP PUSH1 0x1 ADD PUSH3 0x4A2 JUMP JUMPDEST POP SWAP1 JUMP JUMPDEST PUSH1 0x0 PUSH3 0x4CF PUSH1 0x25 DUP4 PUSH3 0x580 JUMP JUMPDEST SWAP2 POP PUSH3 0x4DC DUP3 PUSH3 0x68C JUMP JUMPDEST PUSH1 0x40 DUP3 ADD SWAP1 POP SWAP2 SWAP1 POP JUMP JUMPDEST PUSH1 0x0 PUSH3 0x4F6 PUSH1 0x1F DUP4 PUSH3 0x580 JUMP JUMPDEST SWAP2 POP PUSH3 0x503 DUP3 PUSH3 0x6DB JUMP JUMPDEST PUSH1 0x20 DUP3 ADD SWAP1 POP SWAP2 SWAP1 POP JUMP JUMPDEST PUSH3 0x519 DUP2 PUSH3 0x5EE JUMP JUMPDEST DUP3 MSTORE POP POP JUMP JUMPDEST PUSH1 0x0 PUSH1 0x20 DUP3 ADD SWAP1 POP DUP2 DUP2 SUB PUSH1 0x0 DUP4 ADD MSTORE PUSH3 0x53A DUP2 PUSH3 0x4C0 JUMP JUMPDEST SWAP1 POP SWAP2 SWAP1 POP JUMP JUMPDEST PUSH1 0x0 PUSH1 0x20 DUP3 ADD SWAP1 POP DUP2 DUP2 SUB PUSH1 0x0 DUP4 ADD MSTORE PUSH3 0x55C DUP2 PUSH3 0x4E7 JUMP JUMPDEST SWAP1 POP SWAP2 SWAP1 POP JUMP JUMPDEST PUSH1 0x0 PUSH1 0x20 DUP3 ADD SWAP1 POP PUSH3 0x57A PUSH1 0x0 DUP4 ADD DUP5 PUSH3 0x50E JUMP JUMPDEST SWAP3 SWAP2 POP POP JUMP JUMPDEST PUSH1 0x0 DUP3 DUP3 MSTORE PUSH1 0x20 DUP3 ADD SWAP1 POP SWAP3 SWAP2 POP POP JUMP JUMPDEST PUSH1 0x0 PUSH3 0x59E DUP3 PUSH3 0x5EE JUMP JUMPDEST SWAP2 POP PUSH3 0x5AB DUP4 PUSH3 0x5EE JUMP JUMPDEST SWAP3 POP DUP3 PUSH32 0xFFFFFFFFFFFFFFFFFFFFFFFFFFFFFFFFFFFFFFFFFFFFFFFFFFFFFFFFFFFFFFFF SUB DUP3 GT ISZERO PUSH3 0x5E3 JUMPI PUSH3 0x5E2 PUSH3 0x62E JUMP JUMPDEST JUMPDEST DUP3 DUP3 ADD SWAP1 POP SWAP3 SWAP2 POP POP JUMP JUMPDEST PUSH1 0x0 DUP2 SWAP1 POP SWAP2 SWAP1 POP JUMP JUMPDEST PUSH1 0x0 PUSH1 0x2 DUP3 DIV SWAP1 POP PUSH1 0x1 DUP3 AND DUP1 PUSH3 0x611 JUMPI PUSH1 0x7F DUP3 AND SWAP2 POP JUMPDEST PUSH1 0x20 DUP3 LT DUP2 EQ ISZERO PUSH3 0x628 JUMPI PUSH3 0x627 PUSH3 0x65D JUMP JUMPDEST JUMPDEST POP SWAP2 SWAP1 POP JUMP JUMPDEST PUSH32 0x4E487B7100000000000000000000000000000000000000000000000000000000 PUSH1 0x0 MSTORE PUSH1 0x11 PUSH1 0x4 MSTORE PUSH1 0x24 PUSH1 0x0 REVERT JUMPDEST PUSH32 0x4E487B7100000000000000000000000000000000000000000000000000000000 PUSH1 0x0 MSTORE PUSH1 0x22 PUSH1 0x4 MSTORE PUSH1 0x24 PUSH1 0x0 REVERT JUMPDEST PUSH32 0x45524332303A206D696E7420616D6F756E742065786365656473206D61782073 PUSH1 0x0 DUP3 ADD MSTORE PUSH32 0x7570706C79000000000000000000000000000000000000000000000000000000 PUSH1 0x20 DUP3 ADD MSTORE POP JUMP JUMPDEST PUSH32 0x45524332303A206D696E7420746F20746865207A65726F206164647265737300 PUSH1 0x0 DUP3 ADD MSTORE POP JUMP JUMPDEST PUSH2 0x1E49 DUP1 PUSH3 0x714 PUSH1 0x0 CODECOPY PUSH1 0x0 RETURN INVALID PUSH1 0x80 PUSH1 0x40 MSTORE CALLVALUE DUP1 ISZERO PUSH2 0x10 JUMPI PUSH1 0x0 DUP1 REVERT JUMPDEST POP PUSH1 0x4 CALLDATASIZE LT PUSH2 0x116 JUMPI PUSH1 0x0 CALLDATALOAD PUSH1 0xE0 SHR DUP1 PUSH4 0x70A08231 GT PUSH2 0xA2 JUMPI DUP1 PUSH4 0x95D89B41 GT PUSH2 0x71 JUMPI DUP1 PUSH4 0x95D89B41 EQ PUSH2 0x2CF JUMPI DUP1 PUSH4 0xA457C2D7 EQ PUSH2 0x2ED JUMPI DUP1 PUSH4 0xA9059CBB EQ PUSH2 0x31D JUMPI DUP1 PUSH4 0xDD62ED3E EQ PUSH2 0x34D JUMPI DUP1 PUSH4 0xF2FDE38B EQ PUSH2 0x37D JUMPI PUSH2 0x116 JUMP JUMPDEST DUP1 PUSH4 0x70A08231 EQ PUSH2 0x25B JUMPI DUP1 PUSH4 0x715018A6 EQ PUSH2 0x28B JUMPI DUP1 PUSH4 0x79CC6790 EQ PUSH2 0x295 JUMPI DUP1 PUSH4 0x8DA5CB5B EQ PUSH2 0x2B1 JUMPI PUSH2 0x116 JUMP JUMPDEST DUP1 PUSH4 0x313CE567 GT PUSH2 0xE9 JUMPI DUP1 PUSH4 0x313CE567 EQ PUSH2 0x1B7 JUMPI DUP1 PUSH4 0x39509351 EQ PUSH2 0x1D5 JUMPI DUP1 PUSH4 0x40C10F19 EQ PUSH2 0x205 JUMPI DUP1 PUSH4 0x42966C68 EQ PUSH2 0x221 JUMPI DUP1 PUSH4 0x5C975ABB EQ PUSH2 0x23D JUMPI PUSH2 0x116 JUMP JUMPDEST DUP1 PUSH4 0x6FDDE03 EQ PUSH2 0x11B JUMPI DUP1 PUSH4 0x95EA7B3 EQ PUSH2 0x139 JUMPI DUP1 PUSH4 0x18160DDD EQ PUSH2 0x169 JUMPI DUP1 PUSH4 0x23B872DD EQ PUSH2 0x187 JUMPI JUMPDEST PUSH1 0x0 DUP1 REVERT JUMPDEST PUSH2 0x123 PUSH2 0x399 JUMP JUMPDEST PUSH1 0x40 MLOAD PUSH2 0x130 SWAP2 SWAP1 PUSH2 0x1765 JUMP JUMPDEST PUSH1 0x40 MLOAD DUP1 SWAP2 SUB SWAP1 RETURN JUMPDEST PUSH2 0x153 PUSH1 0x4 DUP1 CALLDATASIZE SUB DUP2 ADD SWAP1 PUSH2 0x14E SWAP2 SWAP1 PUSH2 0x1512 JUMP JUMPDEST PUSH2 0x42B JUMP JUMPDEST PUSH1 0x40 MLOAD PUSH2 0x160 SWAP2 SWAP1 PUSH2 0x174A JUMP JUMPDEST PUSH1 0x40 MLOAD DUP1 SWAP2 SUB SWAP1 RETURN JUMPDEST PUSH2 0x171 PUSH2 0x449 JUMP JUMPDEST PUSH1 0x40 MLOAD PUSH2 0x17E SWAP2 SWAP1 PUSH2 0x18A7 JUMP JUMPDEST PUSH1 0x40 MLOAD DUP1 SWAP2 SUB SWAP1 RETURN JUMPDEST PUSH2 0x1A1 PUSH1 0x4 DUP1 CALLDATASIZE SUB DUP2 ADD SWAP1 PUSH2 0x19C SWAP2 SWAP1 PUSH2 0x14BF JUMP JUMPDEST PUSH2 0x453 JUMP JUMPDEST PUSH1 0x40 MLOAD PUSH2 0x1AE SWAP2 SWAP1 PUSH2 0x174A JUMP JUMPDEST PUSH1 0x40 MLOAD DUP1 SWAP2 SUB SWAP1 RETURN JUMPDEST PUSH2 0x1BF PUSH2 0x52C JUMP JUMPDEST PUSH1 0x40 MLOAD PUSH2 0x1CC SWAP2 SWAP1 PUSH2 0x18C2 JUMP JUMPDEST PUSH1 0x40 MLOAD DUP1 SWAP2 SUB SWAP1 RETURN JUMPDEST PUSH2 0x1EF PUSH1 0x4 DUP1 CALLDATASIZE SUB DUP2 ADD SWAP1 PUSH2 0x1EA SWAP2 SWAP1 PUSH2 0x1512 JUMP JUMPDEST PUSH2 0x543 JUMP JUMPDEST PUSH1 0x40 MLOAD PUSH2 0x1FC SWAP2 SWAP1 PUSH2 0x174A JUMP JUMPDEST PUSH1 0x40 MLOAD DUP1 SWAP2 SUB SWAP1 RETURN JUMPDEST PUSH2 0x21F PUSH1 0x4 DUP1 CALLDATASIZE SUB DUP2 ADD SWAP1 PUSH2 0x21A SWAP2 SWAP1 PUSH2 0x1512 JUMP JUMPDEST PUSH2 0x5F6 JUMP JUMPDEST STOP JUMPDEST PUSH2 0x23B PUSH1 0x4 DUP1 CALLDATASIZE SUB DUP2 ADD SWAP1 PUSH2 0x236 SWAP2 SWAP1 PUSH2 0x1552 JUMP JUMPDEST PUSH2 0x680 JUMP JUMPDEST STOP JUMPDEST PUSH2 0x245 PUSH2 0x694 JUMP JUMPDEST PUSH1 0x40 MLOAD PUSH2 0x252 SWAP2 SWAP1 PUSH2 0x174A JUMP JUMPDEST PUSH1 0x40 MLOAD DUP1 SWAP2 SUB SWAP1 RETURN JUMPDEST PUSH2 0x275 PUSH1 0x4 DUP1 CALLDATASIZE SUB DUP2 ADD SWAP1 PUSH2 0x270 SWAP2 SWAP1 PUSH2 0x1452 JUMP JUMPDEST PUSH2 0x6AA JUMP JUMPDEST PUSH1 0x40 MLOAD PUSH2 0x282 SWAP2 SWAP1 PUSH2 0x18A7 JUMP JUMPDEST PUSH1 0x40 MLOAD DUP1 SWAP2 SUB SWAP1 RETURN JUMPDEST PUSH2 0x293 PUSH2 0x6F3 JUMP JUMPDEST STOP JUMPDEST PUSH2 0x2AF PUSH1 0x4 DUP1 CALLDATASIZE SUB DUP2 ADD SWAP1 PUSH2 0x2AA SWAP2 SWAP1 PUSH2 0x1512 JUMP JUMPDEST PUSH2 0x77B JUMP JUMPDEST STOP JUMPDEST PUSH2 0x2B9 PUSH2 0x7DD JUMP JUMPDEST PUSH1 0x40 MLOAD PUSH2 0x2C6 SWAP2 SWAP1 PUSH2 0x172F JUMP JUMPDEST PUSH1 0x40 MLOAD DUP1 SWAP2 SUB SWAP1 RETURN JUMPDEST PUSH2 0x2D7 PUSH2 0x806 JUMP JUMPDEST PUSH1 0x40 MLOAD PUSH2 0x2E4 SWAP2 SWAP1 PUSH2 0x1765 JUMP JUMPDEST PUSH1 0x40 MLOAD DUP1 SWAP2 SUB SWAP1 RETURN JUMPDEST PUSH2 0x307 PUSH1 0x4 DUP1 CALLDATASIZE SUB DUP2 ADD SWAP1 PUSH2 0x302 SWAP2 SWAP1 PUSH2 0x1512 JUMP JUMPDEST PUSH2 0x898 JUMP JUMPDEST PUSH1 0x40 MLOAD PUSH2 0x314 SWAP2 SWAP1 PUSH2 0x174A JUMP JUMPDEST PUSH1 0x40 MLOAD DUP1 SWAP2 SUB SWAP1 RETURN JUMPDEST PUSH2 0x337 PUSH1 0x4 DUP1 CALLDATASIZE SUB DUP2 ADD SWAP1 PUSH2 0x332 SWAP2 SWAP1 PUSH2 0x1512 JUMP JUMPDEST PUSH2 0x965 JUMP JUMPDEST PUSH1 0x40 MLOAD PUSH2 0x344 SWAP2 SWAP1 PUSH2 0x174A JUMP JUMPDEST PUSH1 0x40 MLOAD DUP1 SWAP2 SUB SWAP1 RETURN JUMPDEST PUSH2 0x367 PUSH1 0x4 DUP1 CALLDATASIZE SUB DUP2 ADD SWAP1 PUSH2 0x362 SWAP2 SWAP1 PUSH2 0x147F JUMP JUMPDEST PUSH2 0x983 JUMP JUMPDEST PUSH1 0x40 MLOAD PUSH2 0x374 SWAP2 SWAP1 PUSH2 0x18A7 JUMP JUMPDEST PUSH1 0x40 MLOAD DUP1 SWAP2 SUB SWAP1 RETURN JUMPDEST PUSH2 0x397 PUSH1 0x4 DUP1 CALLDATASIZE SUB DUP2 ADD SWAP1 PUSH2 0x392 SWAP2 SWAP1 PUSH2 0x1452 JUMP JUMPDEST PUSH2 0xA0A JUMP JUMPDEST STOP JUMPDEST PUSH1 0x60 PUSH1 0x5 DUP1 SLOAD PUSH2 0x3A8 SWAP1 PUSH2 0x1A0B JUMP JUMPDEST DUP1 PUSH1 0x1F ADD PUSH1 0x20 DUP1 SWAP2 DIV MUL PUSH1 0x20 ADD PUSH1 0x40 MLOAD SWAP1 DUP2 ADD PUSH1 0x40 MSTORE DUP1 SWAP3 SWAP2 SWAP1 DUP2 DUP2 MSTORE PUSH1 0x20 ADD DUP3 DUP1 SLOAD PUSH2 0x3D4 SWAP1 PUSH2 0x1A0B JUMP JUMPDEST DUP1 ISZERO PUSH2 0x421 JUMPI DUP1 PUSH1 0x1F LT PUSH2 0x3F6 JUMPI PUSH2 0x100 DUP1 DUP4 SLOAD DIV MUL DUP4 MSTORE SWAP2 PUSH1 0x20 ADD SWAP2 PUSH2 0x421 JUMP JUMPDEST DUP3 ADD SWAP2 SWAP1 PUSH1 0x0 MSTORE PUSH1 0x20 PUSH1 0x0 KECCAK256 SWAP1 JUMPDEST DUP2 SLOAD DUP2 MSTORE SWAP1 PUSH1 0x1 ADD SWAP1 PUSH1 0x20 ADD DUP1 DUP4 GT PUSH2 0x404 JUMPI DUP3 SWAP1 SUB PUSH1 0x1F AND DUP3 ADD SWAP2 JUMPDEST POP POP POP POP POP SWAP1 POP SWAP1 JUMP JUMPDEST PUSH1 0x0 PUSH2 0x43F PUSH2 0x438 PUSH2 0xB18 JUMP JUMPDEST DUP5 DUP5 PUSH2 0xB20 JUMP JUMPDEST PUSH1 0x1 SWAP1 POP SWAP3 SWAP2 POP POP JUMP JUMPDEST PUSH1 0x0 PUSH1 0x4 SLOAD SWAP1 POP SWAP1 JUMP JUMPDEST PUSH1 0x0 PUSH2 0x460 DUP5 DUP5 DUP5 PUSH2 0xCEB JUMP JUMPDEST PUSH2 0x521 DUP5 PUSH2 0x46C PUSH2 0xB18 JUMP JUMPDEST PUSH2 0x51C DUP6 PUSH1 0x40 MLOAD DUP1 PUSH1 0x60 ADD PUSH1 0x40 MSTORE DUP1 PUSH1 0x28 DUP2 MSTORE PUSH1 0x20 ADD PUSH2 0x1DA3 PUSH1 0x28 SWAP2 CODECOPY PUSH1 0x2 PUSH1 0x0 DUP12 PUSH20 0xFFFFFFFFFFFFFFFFFFFFFFFFFFFFFFFFFFFFFFFF AND PUSH20 0xFFFFFFFFFFFFFFFFFFFFFFFFFFFFFFFFFFFFFFFF AND DUP2 MSTORE PUSH1 0x20 ADD SWAP1 DUP2 MSTORE PUSH1 0x20 ADD PUSH1 0x0 KECCAK256 PUSH1 0x0 PUSH2 0x4D2 PUSH2 0xB18 JUMP JUMPDEST PUSH20 0xFFFFFFFFFFFFFFFFFFFFFFFFFFFFFFFFFFFFFFFF AND PUSH20 0xFFFFFFFFFFFFFFFFFFFFFFFFFFFFFFFFFFFFFFFF AND DUP2 MSTORE PUSH1 0x20 ADD SWAP1 DUP2 MSTORE PUSH1 0x20 ADD PUSH1 0x0 KECCAK256 SLOAD PUSH2 0xF79 SWAP1 SWAP3 SWAP2 SWAP1 PUSH4 0xFFFFFFFF AND JUMP JUMPDEST PUSH2 0xB20 JUMP JUMPDEST PUSH1 0x1 SWAP1 POP SWAP4 SWAP3 POP POP POP JUMP JUMPDEST PUSH1 0x0 PUSH1 0x7 PUSH1 0x0 SWAP1 SLOAD SWAP1 PUSH2 0x100 EXP SWAP1 DIV PUSH1 0xFF AND SWAP1 POP SWAP1 JUMP JUMPDEST PUSH1 0x0 PUSH2 0x5EC PUSH2 0x550 PUSH2 0xB18 JUMP JUMPDEST DUP5 PUSH2 0x5E7 DUP6 PUSH1 0x2 PUSH1 0x0 PUSH2 0x561 PUSH2 0xB18 JUMP JUMPDEST PUSH20 0xFFFFFFFFFFFFFFFFFFFFFFFFFFFFFFFFFFFFFFFF AND PUSH20 0xFFFFFFFFFFFFFFFFFFFFFFFFFFFFFFFFFFFFFFFF AND DUP2 MSTORE PUSH1 0x20 ADD SWAP1 DUP2 MSTORE PUSH1 0x20 ADD PUSH1 0x0 KECCAK256 PUSH1 0x0 DUP10 PUSH20 0xFFFFFFFFFFFFFFFFFFFFFFFFFFFFFFFFFFFFFFFF AND PUSH20 0xFFFFFFFFFFFFFFFFFFFFFFFFFFFFFFFFFFFFFFFF AND DUP2 MSTORE PUSH1 0x20 ADD SWAP1 DUP2 MSTORE PUSH1 0x20 ADD PUSH1 0x0 KECCAK256 SLOAD PUSH2 0xB02 SWAP1 SWAP2 SWAP1 PUSH4 0xFFFFFFFF AND JUMP JUMPDEST PUSH2 0xB20 JUMP JUMPDEST PUSH1 0x1 SWAP1 POP SWAP3 SWAP2 POP POP JUMP JUMPDEST PUSH2 0x5FE PUSH2 0xB18 JUMP JUMPDEST PUSH20 0xFFFFFFFFFFFFFFFFFFFFFFFFFFFFFFFFFFFFFFFF AND PUSH2 0x61C PUSH2 0x7DD JUMP JUMPDEST PUSH20 0xFFFFFFFFFFFFFFFFFFFFFFFFFFFFFFFFFFFFFFFF AND EQ PUSH2 0x672 JUMPI PUSH1 0x40 MLOAD PUSH32 0x8C379A000000000000000000000000000000000000000000000000000000000 DUP2 MSTORE PUSH1 0x4 ADD PUSH2 0x669 SWAP1 PUSH2 0x1807 JUMP JUMPDEST PUSH1 0x40 MLOAD DUP1 SWAP2 SUB SWAP1 REVERT JUMPDEST PUSH2 0x67C DUP3 DUP3 PUSH2 0xFCE JUMP JUMPDEST POP POP JUMP JUMPDEST PUSH2 0x691 PUSH2 0x68B PUSH2 0xB18 JUMP JUMPDEST DUP3 PUSH2 0x11AA JUMP JUMPDEST POP JUMP JUMPDEST PUSH1 0x0 DUP1 PUSH1 0x14 SWAP1 SLOAD SWAP1 PUSH2 0x100 EXP SWAP1 DIV PUSH1 0xFF AND SWAP1 POP SWAP1 JUMP JUMPDEST PUSH1 0x0 PUSH1 0x1 PUSH1 0x0 DUP4 PUSH20 0xFFFFFFFFFFFFFFFFFFFFFFFFFFFFFFFFFFFFFFFF AND PUSH20 0xFFFFFFFFFFFFFFFFFFFFFFFFFFFFFFFFFFFFFFFF AND DUP2 MSTORE PUSH1 0x20 ADD SWAP1 DUP2 MSTORE PUSH1 0x20 ADD PUSH1 0x0 KECCAK256 SLOAD SWAP1 POP SWAP2 SWAP1 POP JUMP JUMPDEST PUSH2 0x6FB PUSH2 0xB18 JUMP JUMPDEST PUSH20 0xFFFFFFFFFFFFFFFFFFFFFFFFFFFFFFFFFFFFFFFF AND PUSH2 0x719 PUSH2 0x7DD JUMP JUMPDEST PUSH20 0xFFFFFFFFFFFFFFFFFFFFFFFFFFFFFFFFFFFFFFFF AND EQ PUSH2 0x76F JUMPI PUSH1 0x40 MLOAD PUSH32 0x8C379A000000000000000000000000000000000000000000000000000000000 DUP2 MSTORE PUSH1 0x4 ADD PUSH2 0x766 SWAP1 PUSH2 0x1807 JUMP JUMPDEST PUSH1 0x40 MLOAD DUP1 SWAP2 SUB SWAP1 REVERT JUMPDEST PUSH2 0x779 PUSH1 0x0 PUSH2 0x134E JUMP JUMPDEST JUMP JUMPDEST PUSH1 0x0 PUSH2 0x7BA DUP3 PUSH1 0x40 MLOAD DUP1 PUSH1 0x60 ADD PUSH1 0x40 MSTORE DUP1 PUSH1 0x24 DUP2 MSTORE PUSH1 0x20 ADD PUSH2 0x1DCB PUSH1 0x24 SWAP2 CODECOPY PUSH2 0x7AB DUP7 PUSH2 0x7A6 PUSH2 0xB18 JUMP JUMPDEST PUSH2 0x983 JUMP JUMPDEST PUSH2 0xF79 SWAP1 SWAP3 SWAP2 SWAP1 PUSH4 0xFFFFFFFF AND JUMP JUMPDEST SWAP1 POP PUSH2 0x7CE DUP4 PUSH2 0x7C8 PUSH2 0xB18 JUMP JUMPDEST DUP4 PUSH2 0xB20 JUMP JUMPDEST PUSH2 0x7D8 DUP4 DUP4 PUSH2 0x11AA JUMP JUMPDEST POP POP POP JUMP JUMPDEST PUSH1 0x0 DUP1 PUSH1 0x0 SWAP1 SLOAD SWAP1 PUSH2 0x100 EXP SWAP1 DIV PUSH20 0xFFFFFFFFFFFFFFFFFFFFFFFFFFFFFFFFFFFFFFFF AND SWAP1 POP SWAP1 JUMP JUMPDEST PUSH1 0x60 PUSH1 0x6 DUP1 SLOAD PUSH2 0x815 SWAP1 PUSH2 0x1A0B JUMP JUMPDEST DUP1 PUSH1 0x1F ADD PUSH1 0x20 DUP1 SWAP2 DIV MUL PUSH1 0x20 ADD PUSH1 0x40 MLOAD SWAP1 DUP2 ADD PUSH1 0x40 MSTORE DUP1 SWAP3 SWAP2 SWAP1 DUP2 DUP2 MSTORE PUSH1 0x20 ADD DUP3 DUP1 SLOAD PUSH2 0x841 SWAP1 PUSH2 0x1A0B JUMP JUMPDEST DUP1 ISZERO PUSH2 0x88E JUMPI DUP1 PUSH1 0x1F LT PUSH2 0x863 JUMPI PUSH2 0x100 DUP1 DUP4 SLOAD DIV MUL DUP4 MSTORE SWAP2 PUSH1 0x20 ADD SWAP2 PUSH2 0x88E JUMP JUMPDEST DUP3 ADD SWAP2 SWAP1 PUSH1 0x0 MSTORE PUSH1 0x20 PUSH1 0x0 KECCAK256 SWAP1 JUMPDEST DUP2 SLOAD DUP2 MSTORE SWAP1 PUSH1 0x1 ADD SWAP1 PUSH1 0x20 ADD DUP1 DUP4 GT PUSH2 0x871 JUMPI DUP3 SWAP1 SUB PUSH1 0x1F AND DUP3 ADD SWAP2 JUMPDEST POP POP POP POP POP SWAP1 POP SWAP1 JUMP JUMPDEST PUSH1 0x0 PUSH2 0x95B PUSH2 0x8A5 PUSH2 0xB18 JUMP JUMPDEST DUP5 PUSH2 0x956 DUP6 PUSH1 0x40 MLOAD DUP1 PUSH1 0x60 ADD PUSH1 0x40 MSTORE DUP1 PUSH1 0x25 DUP2 MSTORE PUSH1 0x20 ADD PUSH2 0x1DEF PUSH1 0x25 SWAP2 CODECOPY PUSH1 0x2 PUSH1 0x0 PUSH2 0x8CF PUSH2 0xB18 JUMP JUMPDEST PUSH20 0xFFFFFFFFFFFFFFFFFFFFFFFFFFFFFFFFFFFFFFFF AND PUSH20 0xFFFFFFFFFFFFFFFFFFFFFFFFFFFFFFFFFFFFFFFF AND DUP2 MSTORE PUSH1 0x20 ADD SWAP1 DUP2 MSTORE PUSH1 0x20 ADD PUSH1 0x0 KECCAK256 PUSH1 0x0 DUP11 PUSH20 0xFFFFFFFFFFFFFFFFFFFFFFFFFFFFFFFFFFFFFFFF AND PUSH20 0xFFFFFFFFFFFFFFFFFFFFFFFFFFFFFFFFFFFFFFFF AND DUP2 MSTORE PUSH1 0x20 ADD SWAP1 DUP2 MSTORE PUSH1 0x20 ADD PUSH1 0x0 KECCAK256 SLOAD PUSH2 0xF79 SWAP1 SWAP3 SWAP2 SWAP1 PUSH4 0xFFFFFFFF AND JUMP JUMPDEST PUSH2 0xB20 JUMP JUMPDEST PUSH1 0x1 SWAP1 POP SWAP3 SWAP2 POP POP JUMP JUMPDEST PUSH1 0x0 PUSH2 0x979 PUSH2 0x972 PUSH2 0xB18 JUMP JUMPDEST DUP5 DUP5 PUSH2 0xCEB JUMP JUMPDEST PUSH1 0x1 SWAP1 POP SWAP3 SWAP2 POP POP JUMP JUMPDEST PUSH1 0x0 PUSH1 0x2 PUSH1 0x0 DUP5 PUSH20 0xFFFFFFFFFFFFFFFFFFFFFFFFFFFFFFFFFFFFFFFF AND PUSH20 0xFFFFFFFFFFFFFFFFFFFFFFFFFFFFFFFFFFFFFFFF AND DUP2 MSTORE PUSH1 0x20 ADD SWAP1 DUP2 MSTORE PUSH1 0x20 ADD PUSH1 0x0 KECCAK256 PUSH1 0x0 DUP4 PUSH20 0xFFFFFFFFFFFFFFFFFFFFFFFFFFFFFFFFFFFFFFFF AND PUSH20 0xFFFFFFFFFFFFFFFFFFFFFFFFFFFFFFFFFFFFFFFF AND DUP2 MSTORE PUSH1 0x20 ADD SWAP1 DUP2 MSTORE PUSH1 0x20 ADD PUSH1 0x0 KECCAK256 SLOAD SWAP1 POP SWAP3 SWAP2 POP POP JUMP JUMPDEST PUSH2 0xA12 PUSH2 0xB18 JUMP JUMPDEST PUSH20 0xFFFFFFFFFFFFFFFFFFFFFFFFFFFFFFFFFFFFFFFF AND PUSH2 0xA30 PUSH2 0x7DD JUMP JUMPDEST PUSH20 0xFFFFFFFFFFFFFFFFFFFFFFFFFFFFFFFFFFFFFFFF AND EQ PUSH2 0xA86 JUMPI PUSH1 0x40 MLOAD PUSH32 0x8C379A000000000000000000000000000000000000000000000000000000000 DUP2 MSTORE PUSH1 0x4 ADD PUSH2 0xA7D SWAP1 PUSH2 0x1807 JUMP JUMPDEST PUSH1 0x40 MLOAD DUP1 SWAP2 SUB SWAP1 REVERT JUMPDEST PUSH1 0x0 PUSH20 0xFFFFFFFFFFFFFFFFFFFFFFFFFFFFFFFFFFFFFFFF AND DUP2 PUSH20 0xFFFFFFFFFFFFFFFFFFFFFFFFFFFFFFFFFFFFFFFF AND EQ ISZERO PUSH2 0xAF6 JUMPI PUSH1 0x40 MLOAD PUSH32 0x8C379A000000000000000000000000000000000000000000000000000000000 DUP2 MSTORE PUSH1 0x4 ADD PUSH2 0xAED SWAP1 PUSH2 0x17A7 JUMP JUMPDEST PUSH1 0x40 MLOAD DUP1 SWAP2 SUB SWAP1 REVERT JUMPDEST PUSH2 0xAFF DUP2 PUSH2 0x134E JUMP JUMPDEST POP JUMP JUMPDEST PUSH1 0x0 DUP2 DUP4 PUSH2 0xB10 SWAP2 SWAP1 PUSH2 0x18F9 JUMP JUMPDEST SWAP1 POP SWAP3 SWAP2 POP POP JUMP JUMPDEST PUSH1 0x0 CALLER SWAP1 POP SWAP1 JUMP JUMPDEST PUSH1 0x0 PUSH20 0xFFFFFFFFFFFFFFFFFFFFFFFFFFFFFFFFFFFFFFFF AND DUP4 PUSH20 0xFFFFFFFFFFFFFFFFFFFFFFFFFFFFFFFFFFFFFFFF AND EQ ISZERO PUSH2 0xB90 JUMPI PUSH1 0x40 MLOAD PUSH32 0x8C379A000000000000000000000000000000000000000000000000000000000 DUP2 MSTORE PUSH1 0x4 ADD PUSH2 0xB87 SWAP1 PUSH2 0x1867 JUMP JUMPDEST PUSH1 0x40 MLOAD DUP1 SWAP2 SUB SWAP1 REVERT JUMPDEST PUSH1 0x0 PUSH20 0xFFFFFFFFFFFFFFFFFFFFFFFFFFFFFFFFFFFFFFFF AND DUP3 PUSH20 0xFFFFFFFFFFFFFFFFFFFFFFFFFFFFFFFFFFFFFFFF AND EQ ISZERO PUSH2 0xC00 JUMPI PUSH1 0x40 MLOAD PUSH32 0x8C379A000000000000000000000000000000000000000000000000000000000 DUP2 MSTORE PUSH1 0x4 ADD PUSH2 0xBF7 SWAP1 PUSH2 0x17C7 JUMP JUMPDEST PUSH1 0x40 MLOAD DUP1 SWAP2 SUB SWAP1 REVERT JUMPDEST DUP1 PUSH1 0x2 PUSH1 0x0 DUP6 PUSH20 0xFFFFFFFFFFFFFFFFFFFFFFFFFFFFFFFFFFFFFFFF AND PUSH20 0xFFFFFFFFFFFFFFFFFFFFFFFFFFFFFFFFFFFFFFFF AND DUP2 MSTORE PUSH1 0x20 ADD SWAP1 DUP2 MSTORE PUSH1 0x20 ADD PUSH1 0x0 KECCAK256 PUSH1 0x0 DUP5 PUSH20 0xFFFFFFFFFFFFFFFFFFFFFFFFFFFFFFFFFFFFFFFF AND PUSH20 0xFFFFFFFFFFFFFFFFFFFFFFFFFFFFFFFFFFFFFFFF AND DUP2 MSTORE PUSH1 0x20 ADD SWAP1 DUP2 MSTORE PUSH1 0x20 ADD PUSH1 0x0 KECCAK256 DUP2 SWAP1 SSTORE POP DUP2 PUSH20 0xFFFFFFFFFFFFFFFFFFFFFFFFFFFFFFFFFFFFFFFF AND DUP4 PUSH20 0xFFFFFFFFFFFFFFFFFFFFFFFFFFFFFFFFFFFFFFFF AND PUSH32 0x8C5BE1E5EBEC7D5BD14F71427D1E84F3DD0314C0F7B2291E5B200AC8C7C3B925 DUP4 PUSH1 0x40 MLOAD PUSH2 0xCDE SWAP2 SWAP1 PUSH2 0x18A7 JUMP JUMPDEST PUSH1 0x40 MLOAD DUP1 SWAP2 SUB SWAP1 LOG3 POP POP POP JUMP JUMPDEST PUSH1 0x0 PUSH20 0xFFFFFFFFFFFFFFFFFFFFFFFFFFFFFFFFFFFFFFFF AND DUP4 PUSH20 0xFFFFFFFFFFFFFFFFFFFFFFFFFFFFFFFFFFFFFFFF AND EQ ISZERO PUSH2 0xD5B JUMPI PUSH1 0x40 MLOAD PUSH32 0x8C379A000000000000000000000000000000000000000000000000000000000 DUP2 MSTORE PUSH1 0x4 ADD PUSH2 0xD52 SWAP1 PUSH2 0x1847 JUMP JUMPDEST PUSH1 0x40 MLOAD DUP1 SWAP2 SUB SWAP1 REVERT JUMPDEST PUSH1 0x0 PUSH20 0xFFFFFFFFFFFFFFFFFFFFFFFFFFFFFFFFFFFFFFFF AND DUP3 PUSH20 0xFFFFFFFFFFFFFFFFFFFFFFFFFFFFFFFFFFFFFFFF AND EQ ISZERO PUSH2 0xDCB JUMPI PUSH1 0x40 MLOAD PUSH32 0x8C379A000000000000000000000000000000000000000000000000000000000 DUP2 MSTORE PUSH1 0x4 ADD PUSH2 0xDC2 SWAP1 PUSH2 0x1787 JUMP JUMPDEST PUSH1 0x40 MLOAD DUP1 SWAP2 SUB SWAP1 REVERT JUMPDEST PUSH2 0xE37 DUP2 PUSH1 0x40 MLOAD DUP1 PUSH1 0x60 ADD PUSH1 0x40 MSTORE DUP1 PUSH1 0x26 DUP2 MSTORE PUSH1 0x20 ADD PUSH2 0x1D7D PUSH1 0x26 SWAP2 CODECOPY PUSH1 0x1 PUSH1 0x0 DUP8 PUSH20 0xFFFFFFFFFFFFFFFFFFFFFFFFFFFFFFFFFFFFFFFF AND PUSH20 0xFFFFFFFFFFFFFFFFFFFFFFFFFFFFFFFFFFFFFFFF AND DUP2 MSTORE PUSH1 0x20 ADD SWAP1 DUP2 MSTORE PUSH1 0x20 ADD PUSH1 0x0 KECCAK256 SLOAD PUSH2 0xF79 SWAP1 SWAP3 SWAP2 SWAP1 PUSH4 0xFFFFFFFF AND JUMP JUMPDEST PUSH1 0x1 PUSH1 0x0 DUP6 PUSH20 0xFFFFFFFFFFFFFFFFFFFFFFFFFFFFFFFFFFFFFFFF AND PUSH20 0xFFFFFFFFFFFFFFFFFFFFFFFFFFFFFFFFFFFFFFFF AND DUP2 MSTORE PUSH1 0x20 ADD SWAP1 DUP2 MSTORE PUSH1 0x20 ADD PUSH1 0x0 KECCAK256 DUP2 SWAP1 SSTORE POP PUSH2 0xECC DUP2 PUSH1 0x1 PUSH1 0x0 DUP6 PUSH20 0xFFFFFFFFFFFFFFFFFFFFFFFFFFFFFFFFFFFFFFFF AND PUSH20 0xFFFFFFFFFFFFFFFFFFFFFFFFFFFFFFFFFFFFFFFF AND DUP2 MSTORE PUSH1 0x20 ADD SWAP1 DUP2 MSTORE PUSH1 0x20 ADD PUSH1 0x0 KECCAK256 SLOAD PUSH2 0xB02 SWAP1 SWAP2 SWAP1 PUSH4 0xFFFFFFFF AND JUMP JUMPDEST PUSH1 0x1 PUSH1 0x0 DUP5 PUSH20 0xFFFFFFFFFFFFFFFFFFFFFFFFFFFFFFFFFFFFFFFF AND PUSH20 0xFFFFFFFFFFFFFFFFFFFFFFFFFFFFFFFFFFFFFFFF AND DUP2 MSTORE PUSH1 0x20 ADD SWAP1 DUP2 MSTORE PUSH1 0x20 ADD PUSH1 0x0 KECCAK256 DUP2 SWAP1 SSTORE POP DUP2 PUSH20 0xFFFFFFFFFFFFFFFFFFFFFFFFFFFFFFFFFFFFFFFF AND DUP4 PUSH20 0xFFFFFFFFFFFFFFFFFFFFFFFFFFFFFFFFFFFFFFFF AND PUSH32 0xDDF252AD1BE2C89B69C2B068FC378DAA952BA7F163C4A11628F55A4DF523B3EF DUP4 PUSH1 0x40 MLOAD PUSH2 0xF6C SWAP2 SWAP1 PUSH2 0x18A7 JUMP JUMPDEST PUSH1 0x40 MLOAD DUP1 SWAP2 SUB SWAP1 LOG3 POP POP POP JUMP JUMPDEST PUSH1 0x0 DUP4 DUP4 GT ISZERO DUP3 SWAP1 PUSH2 0xFC1 JUMPI PUSH1 0x40 MLOAD PUSH32 0x8C379A000000000000000000000000000000000000000000000000000000000 DUP2 MSTORE PUSH1 0x4 ADD PUSH2 0xFB8 SWAP2 SWAP1 PUSH2 0x1765 JUMP JUMPDEST PUSH1 0x40 MLOAD DUP1 SWAP2 SUB SWAP1 REVERT JUMPDEST POP DUP3 DUP5 SUB SWAP1 POP SWAP4 SWAP3 POP POP POP JUMP JUMPDEST PUSH1 0x0 PUSH20 0xFFFFFFFFFFFFFFFFFFFFFFFFFFFFFFFFFFFFFFFF AND DUP3 PUSH20 0xFFFFFFFFFFFFFFFFFFFFFFFFFFFFFFFFFFFFFFFF AND EQ ISZERO PUSH2 0x103E JUMPI PUSH1 0x40 MLOAD PUSH32 0x8C379A000000000000000000000000000000000000000000000000000000000 DUP2 MSTORE PUSH1 0x4 ADD PUSH2 0x1035 SWAP1 PUSH2 0x1887 JUMP JUMPDEST PUSH1 0x40 MLOAD DUP1 SWAP2 SUB SWAP1 REVERT JUMPDEST PUSH1 0x3 SLOAD DUP2 PUSH1 0x4 SLOAD PUSH2 0x104F SWAP2 SWAP1 PUSH2 0x18F9 JUMP JUMPDEST GT ISZERO PUSH2 0x1090 JUMPI PUSH1 0x40 MLOAD PUSH32 0x8C379A000000000000000000000000000000000000000000000000000000000 DUP2 MSTORE PUSH1 0x4 ADD PUSH2 0x1087 SWAP1 PUSH2 0x17E7 JUMP JUMPDEST PUSH1 0x40 MLOAD DUP1 SWAP2 SUB SWAP1 REVERT JUMPDEST PUSH2 0x10A5 DUP2 PUSH1 0x4 SLOAD PUSH2 0xB02 SWAP1 SWAP2 SWAP1 PUSH4 0xFFFFFFFF AND JUMP JUMPDEST PUSH1 0x4 DUP2 SWAP1 SSTORE POP PUSH2 0x10FD DUP2 PUSH1 0x1 PUSH1 0x0 DUP6 PUSH20 0xFFFFFFFFFFFFFFFFFFFFFFFFFFFFFFFFFFFFFFFF AND PUSH20 0xFFFFFFFFFFFFFFFFFFFFFFFFFFFFFFFFFFFFFFFF AND DUP2 MSTORE PUSH1 0x20 ADD SWAP1 DUP2 MSTORE PUSH1 0x20 ADD PUSH1 0x0 KECCAK256 SLOAD PUSH2 0xB02 SWAP1 SWAP2 SWAP1 PUSH4 0xFFFFFFFF AND JUMP JUMPDEST PUSH1 0x1 PUSH1 0x0 DUP5 PUSH20 0xFFFFFFFFFFFFFFFFFFFFFFFFFFFFFFFFFFFFFFFF AND PUSH20 0xFFFFFFFFFFFFFFFFFFFFFFFFFFFFFFFFFFFFFFFF AND DUP2 MSTORE PUSH1 0x20 ADD SWAP1 DUP2 MSTORE PUSH1 0x20 ADD PUSH1 0x0 KECCAK256 DUP2 SWAP1 SSTORE POP DUP2 PUSH20 0xFFFFFFFFFFFFFFFFFFFFFFFFFFFFFFFFFFFFFFFF AND PUSH1 0x0 PUSH20 0xFFFFFFFFFFFFFFFFFFFFFFFFFFFFFFFFFFFFFFFF AND PUSH32 0xDDF252AD1BE2C89B69C2B068FC378DAA952BA7F163C4A11628F55A4DF523B3EF DUP4 PUSH1 0x40 MLOAD PUSH2 0x119E SWAP2 SWAP1 PUSH2 0x18A7 JUMP JUMPDEST PUSH1 0x40 MLOAD DUP1 SWAP2 SUB SWAP1 LOG3 POP POP JUMP JUMPDEST PUSH1 0x0 PUSH20 0xFFFFFFFFFFFFFFFFFFFFFFFFFFFFFFFFFFFFFFFF AND DUP3 PUSH20 0xFFFFFFFFFFFFFFFFFFFFFFFFFFFFFFFFFFFFFFFF AND EQ ISZERO PUSH2 0x121A JUMPI PUSH1 0x40 MLOAD PUSH32 0x8C379A000000000000000000000000000000000000000000000000000000000 DUP2 MSTORE PUSH1 0x4 ADD PUSH2 0x1211 SWAP1 PUSH2 0x1827 JUMP JUMPDEST PUSH1 0x40 MLOAD DUP1 SWAP2 SUB SWAP1 REVERT JUMPDEST PUSH2 0x1286 DUP2 PUSH1 0x40 MLOAD DUP1 PUSH1 0x60 ADD PUSH1 0x40 MSTORE DUP1 PUSH1 0x22 DUP2 MSTORE PUSH1 0x20 ADD PUSH2 0x1D5B PUSH1 0x22 SWAP2 CODECOPY PUSH1 0x1 PUSH1 0x0 DUP7 PUSH20 0xFFFFFFFFFFFFFFFFFFFFFFFFFFFFFFFFFFFFFFFF AND PUSH20 0xFFFFFFFFFFFFFFFFFFFFFFFFFFFFFFFFFFFFFFFF AND DUP2 MSTORE PUSH1 0x20 ADD SWAP1 DUP2 MSTORE PUSH1 0x20 ADD PUSH1 0x0 KECCAK256 SLOAD PUSH2 0xF79 SWAP1 SWAP3 SWAP2 SWAP1 PUSH4 0xFFFFFFFF AND JUMP JUMPDEST PUSH1 0x1 PUSH1 0x0 DUP5 PUSH20 0xFFFFFFFFFFFFFFFFFFFFFFFFFFFFFFFFFFFFFFFF AND PUSH20 0xFFFFFFFFFFFFFFFFFFFFFFFFFFFFFFFFFFFFFFFF AND DUP2 MSTORE PUSH1 0x20 ADD SWAP1 DUP2 MSTORE PUSH1 0x20 ADD PUSH1 0x0 KECCAK256 DUP2 SWAP1 SSTORE POP PUSH2 0x12DE DUP2 PUSH1 0x4 SLOAD PUSH2 0x1412 SWAP1 SWAP2 SWAP1 PUSH4 0xFFFFFFFF AND JUMP JUMPDEST PUSH1 0x4 DUP2 SWAP1 SSTORE POP PUSH1 0x0 PUSH20 0xFFFFFFFFFFFFFFFFFFFFFFFFFFFFFFFFFFFFFFFF AND DUP3 PUSH20 0xFFFFFFFFFFFFFFFFFFFFFFFFFFFFFFFFFFFFFFFF AND PUSH32 0xDDF252AD1BE2C89B69C2B068FC378DAA952BA7F163C4A11628F55A4DF523B3EF DUP4 PUSH1 0x40 MLOAD PUSH2 0x1342 SWAP2 SWAP1 PUSH2 0x18A7 JUMP JUMPDEST PUSH1 0x40 MLOAD DUP1 SWAP2 SUB SWAP1 LOG3 POP POP JUMP JUMPDEST PUSH1 0x0 DUP1 PUSH1 0x0 SWAP1 SLOAD SWAP1 PUSH2 0x100 EXP SWAP1 DIV PUSH20 0xFFFFFFFFFFFFFFFFFFFFFFFFFFFFFFFFFFFFFFFF AND SWAP1 POP DUP2 PUSH1 0x0 DUP1 PUSH2 0x100 EXP DUP2 SLOAD DUP2 PUSH20 0xFFFFFFFFFFFFFFFFFFFFFFFFFFFFFFFFFFFFFFFF MUL NOT AND SWAP1 DUP4 PUSH20 0xFFFFFFFFFFFFFFFFFFFFFFFFFFFFFFFFFFFFFFFF AND MUL OR SWAP1 SSTORE POP DUP2 PUSH20 0xFFFFFFFFFFFFFFFFFFFFFFFFFFFFFFFFFFFFFFFF AND DUP2 PUSH20 0xFFFFFFFFFFFFFFFFFFFFFFFFFFFFFFFFFFFFFFFF AND PUSH32 0x8BE0079C531659141344CD1FD0A4F28419497F9722A3DAAFE3B4186F6B6457E0 PUSH1 0x40 MLOAD PUSH1 0x40 MLOAD DUP1 SWAP2 SUB SWAP1 LOG3 POP POP JUMP JUMPDEST PUSH1 0x0 DUP2 DUP4 PUSH2 0x1420 SWAP2 SWAP1 PUSH2 0x194F JUMP JUMPDEST SWAP1 POP SWAP3 SWAP2 POP POP JUMP JUMPDEST PUSH1 0x0 DUP2 CALLDATALOAD SWAP1 POP PUSH2 0x1437 DUP2 PUSH2 0x1D2C JUMP JUMPDEST SWAP3 SWAP2 POP POP JUMP JUMPDEST PUSH1 0x0 DUP2 CALLDATALOAD SWAP1 POP PUSH2 0x144C DUP2 PUSH2 0x1D43 JUMP JUMPDEST SWAP3 SWAP2 POP POP JUMP JUMPDEST PUSH1 0x0 PUSH1 0x20 DUP3 DUP5 SUB SLT ISZERO PUSH2 0x1468 JUMPI PUSH2 0x1467 PUSH2 0x1A9B JUMP JUMPDEST JUMPDEST PUSH1 0x0 PUSH2 0x1476 DUP5 DUP3 DUP6 ADD PUSH2 0x1428 JUMP JUMPDEST SWAP2 POP POP SWAP3 SWAP2 POP POP JUMP JUMPDEST PUSH1 0x0 DUP1 PUSH1 0x40 DUP4 DUP6 SUB SLT ISZERO PUSH2 0x1496 JUMPI PUSH2 0x1495 PUSH2 0x1A9B JUMP JUMPDEST JUMPDEST PUSH1 0x0 PUSH2 0x14A4 DUP6 DUP3 DUP7 ADD PUSH2 0x1428 JUMP JUMPDEST SWAP3 POP POP PUSH1 0x20 PUSH2 0x14B5 DUP6 DUP3 DUP7 ADD PUSH2 0x1428 JUMP JUMPDEST SWAP2 POP POP SWAP3 POP SWAP3 SWAP1 POP JUMP JUMPDEST PUSH1 0x0 DUP1 PUSH1 0x0 PUSH1 0x60 DUP5 DUP7 SUB SLT ISZERO PUSH2 0x14D8 JUMPI PUSH2 0x14D7 PUSH2 0x1A9B JUMP JUMPDEST JUMPDEST PUSH1 0x0 PUSH2 0x14E6 DUP7 DUP3 DUP8 ADD PUSH2 0x1428 JUMP JUMPDEST SWAP4 POP POP PUSH1 0x20 PUSH2 0x14F7 DUP7 DUP3 DUP8 ADD PUSH2 0x1428 JUMP JUMPDEST SWAP3 POP POP PUSH1 0x40 PUSH2 0x1508 DUP7 DUP3 DUP8 ADD PUSH2 0x143D JUMP JUMPDEST SWAP2 POP POP SWAP3 POP SWAP3 POP SWAP3 JUMP JUMPDEST PUSH1 0x0 DUP1 PUSH1 0x40 DUP4 DUP6 SUB SLT ISZERO PUSH2 0x1529 JUMPI PUSH2 0x1528 PUSH2 0x1A9B JUMP JUMPDEST JUMPDEST PUSH1 0x0 PUSH2 0x1537 DUP6 DUP3 DUP7 ADD PUSH2 0x1428 JUMP JUMPDEST SWAP3 POP POP PUSH1 0x20 PUSH2 0x1548 DUP6 DUP3 DUP7 ADD PUSH2 0x143D JUMP JUMPDEST SWAP2 POP POP SWAP3 POP SWAP3 SWAP1 POP JUMP JUMPDEST PUSH1 0x0 PUSH1 0x20 DUP3 DUP5 SUB SLT ISZERO PUSH2 0x1568 JUMPI PUSH2 0x1567 PUSH2 0x1A9B JUMP JUMPDEST JUMPDEST PUSH1 0x0 PUSH2 0x1576 DUP5 DUP3 DUP6 ADD PUSH2 0x143D JUMP JUMPDEST SWAP2 POP POP SWAP3 SWAP2 POP POP JUMP JUMPDEST PUSH2 0x1588 DUP2 PUSH2 0x1983 JUMP JUMPDEST DUP3 MSTORE POP POP JUMP JUMPDEST PUSH2 0x1597 DUP2 PUSH2 0x1995 JUMP JUMPDEST DUP3 MSTORE POP POP JUMP JUMPDEST PUSH1 0x0 PUSH2 0x15A8 DUP3 PUSH2 0x18DD JUMP JUMPDEST PUSH2 0x15B2 DUP2 DUP6 PUSH2 0x18E8 JUMP JUMPDEST SWAP4 POP PUSH2 0x15C2 DUP2 DUP6 PUSH1 0x20 DUP7 ADD PUSH2 0x19D8 JUMP JUMPDEST PUSH2 0x15CB DUP2 PUSH2 0x1AA0 JUMP JUMPDEST DUP5 ADD SWAP2 POP POP SWAP3 SWAP2 POP POP JUMP JUMPDEST PUSH1 0x0 PUSH2 0x15E3 PUSH1 0x23 DUP4 PUSH2 0x18E8 JUMP JUMPDEST SWAP2 POP PUSH2 0x15EE DUP3 PUSH2 0x1AB1 JUMP JUMPDEST PUSH1 0x40 DUP3 ADD SWAP1 POP SWAP2 SWAP1 POP JUMP JUMPDEST PUSH1 0x0 PUSH2 0x1606 PUSH1 0x26 DUP4 PUSH2 0x18E8 JUMP JUMPDEST SWAP2 POP PUSH2 0x1611 DUP3 PUSH2 0x1B00 JUMP JUMPDEST PUSH1 0x40 DUP3 ADD SWAP1 POP SWAP2 SWAP1 POP JUMP JUMPDEST PUSH1 0x0 PUSH2 0x1629 PUSH1 0x22 DUP4 PUSH2 0x18E8 JUMP JUMPDEST SWAP2 POP PUSH2 0x1634 DUP3 PUSH2 0x1B4F JUMP JUMPDEST PUSH1 0x40 DUP3 ADD SWAP1 POP SWAP2 SWAP1 POP JUMP JUMPDEST PUSH1 0x0 PUSH2 0x164C PUSH1 0x25 DUP4 PUSH2 0x18E8 JUMP JUMPDEST SWAP2 POP PUSH2 0x1657 DUP3 PUSH2 0x1B9E JUMP JUMPDEST PUSH1 0x40 DUP3 ADD SWAP1 POP SWAP2 SWAP1 POP JUMP JUMPDEST PUSH1 0x0 PUSH2 0x166F PUSH1 0x20 DUP4 PUSH2 0x18E8 JUMP JUMPDEST SWAP2 POP PUSH2 0x167A DUP3 PUSH2 0x1BED JUMP JUMPDEST PUSH1 0x20 DUP3 ADD SWAP1 POP SWAP2 SWAP1 POP JUMP JUMPDEST PUSH1 0x0 PUSH2 0x1692 PUSH1 0x21 DUP4 PUSH2 0x18E8 JUMP JUMPDEST SWAP2 POP PUSH2 0x169D DUP3 PUSH2 0x1C16 JUMP JUMPDEST PUSH1 0x40 DUP3 ADD SWAP1 POP SWAP2 SWAP1 POP JUMP JUMPDEST PUSH1 0x0 PUSH2 0x16B5 PUSH1 0x25 DUP4 PUSH2 0x18E8 JUMP JUMPDEST SWAP2 POP PUSH2 0x16C0 DUP3 PUSH2 0x1C65 JUMP JUMPDEST PUSH1 0x40 DUP3 ADD SWAP1 POP SWAP2 SWAP1 POP JUMP JUMPDEST PUSH1 0x0 PUSH2 0x16D8 PUSH1 0x24 DUP4 PUSH2 0x18E8 JUMP JUMPDEST SWAP2 POP PUSH2 0x16E3 DUP3 PUSH2 0x1CB4 JUMP JUMPDEST PUSH1 0x40 DUP3 ADD SWAP1 POP SWAP2 SWAP1 POP JUMP JUMPDEST PUSH1 0x0 PUSH2 0x16FB PUSH1 0x1F DUP4 PUSH2 0x18E8 JUMP JUMPDEST SWAP2 POP PUSH2 0x1706 DUP3 PUSH2 0x1D03 JUMP JUMPDEST PUSH1 0x20 DUP3 ADD SWAP1 POP SWAP2 SWAP1 POP JUMP JUMPDEST PUSH2 0x171A DUP2 PUSH2 0x19C1 JUMP JUMPDEST DUP3 MSTORE POP POP JUMP JUMPDEST PUSH2 0x1729 DUP2 PUSH2 0x19CB JUMP JUMPDEST DUP3 MSTORE POP POP JUMP JUMPDEST PUSH1 0x0 PUSH1 0x20 DUP3 ADD SWAP1 POP PUSH2 0x1744 PUSH1 0x0 DUP4 ADD DUP5 PUSH2 0x157F JUMP JUMPDEST SWAP3 SWAP2 POP POP JUMP JUMPDEST PUSH1 0x0 PUSH1 0x20 DUP3 ADD SWAP1 POP PUSH2 0x175F PUSH1 0x0 DUP4 ADD DUP5 PUSH2 0x158E JUMP JUMPDEST SWAP3 SWAP2 POP POP JUMP JUMPDEST PUSH1 0x0 PUSH1 0x20 DUP3 ADD SWAP1 POP DUP2 DUP2 SUB PUSH1 0x0 DUP4 ADD MSTORE PUSH2 0x177F DUP2 DUP5 PUSH2 0x159D JUMP JUMPDEST SWAP1 POP SWAP3 SWAP2 POP POP JUMP JUMPDEST PUSH1 0x0 PUSH1 0x20 DUP3 ADD SWAP1 POP DUP2 DUP2 SUB PUSH1 0x0 DUP4 ADD MSTORE PUSH2 0x17A0 DUP2 PUSH2 0x15D6 JUMP JUMPDEST SWAP1 POP SWAP2 SWAP1 POP JUMP JUMPDEST PUSH1 0x0 PUSH1 0x20 DUP3 ADD SWAP1 POP DUP2 DUP2 SUB PUSH1 0x0 DUP4 ADD MSTORE PUSH2 0x17C0 DUP2 PUSH2 0x15F9 JUMP JUMPDEST SWAP1 POP SWAP2 SWAP1 POP JUMP JUMPDEST PUSH1 0x0 PUSH1 0x20 DUP3 ADD SWAP1 POP DUP2 DUP2 SUB PUSH1 0x0 DUP4 ADD MSTORE PUSH2 0x17E0 DUP2 PUSH2 0x161C JUMP JUMPDEST SWAP1 POP SWAP2 SWAP1 POP JUMP JUMPDEST PUSH1 0x0 PUSH1 0x20 DUP3 ADD SWAP1 POP DUP2 DUP2 SUB PUSH1 0x0 DUP4 ADD MSTORE PUSH2 0x1800 DUP2 PUSH2 0x163F JUMP JUMPDEST SWAP1 POP SWAP2 SWAP1 POP JUMP JUMPDEST PUSH1 0x0 PUSH1 0x20 DUP3 ADD SWAP1 POP DUP2 DUP2 SUB PUSH1 0x0 DUP4 ADD MSTORE PUSH2 0x1820 DUP2 PUSH2 0x1662 JUMP JUMPDEST SWAP1 POP SWAP2 SWAP1 POP JUMP JUMPDEST PUSH1 0x0 PUSH1 0x20 DUP3 ADD SWAP1 POP DUP2 DUP2 SUB PUSH1 0x0 DUP4 ADD MSTORE PUSH2 0x1840 DUP2 PUSH2 0x1685 JUMP JUMPDEST SWAP1 POP SWAP2 SWAP1 POP JUMP JUMPDEST PUSH1 0x0 PUSH1 0x20 DUP3 ADD SWAP1 POP DUP2 DUP2 SUB PUSH1 0x0 DUP4 ADD MSTORE PUSH2 0x1860 DUP2 PUSH2 0x16A8 JUMP JUMPDEST SWAP1 POP SWAP2 SWAP1 POP JUMP JUMPDEST PUSH1 0x0 PUSH1 0x20 DUP3 ADD SWAP1 POP DUP2 DUP2 SUB PUSH1 0x0 DUP4 ADD MSTORE PUSH2 0x1880 DUP2 PUSH2 0x16CB JUMP JUMPDEST SWAP1 POP SWAP2 SWAP1 POP JUMP JUMPDEST PUSH1 0x0 PUSH1 0x20 DUP3 ADD SWAP1 POP DUP2 DUP2 SUB PUSH1 0x0 DUP4 ADD MSTORE PUSH2 0x18A0 DUP2 PUSH2 0x16EE JUMP JUMPDEST SWAP1 POP SWAP2 SWAP1 POP JUMP JUMPDEST PUSH1 0x0 PUSH1 0x20 DUP3 ADD SWAP1 POP PUSH2 0x18BC PUSH1 0x0 DUP4 ADD DUP5 PUSH2 0x1711 JUMP JUMPDEST SWAP3 SWAP2 POP POP JUMP JUMPDEST PUSH1 0x0 PUSH1 0x20 DUP3 ADD SWAP1 POP PUSH2 0x18D7 PUSH1 0x0 DUP4 ADD DUP5 PUSH2 0x1720 JUMP JUMPDEST SWAP3 SWAP2 POP POP JUMP JUMPDEST PUSH1 0x0 DUP2 MLOAD SWAP1 POP SWAP2 SWAP1 POP JUMP JUMPDEST PUSH1 0x0 DUP3 DUP3 MSTORE PUSH1 0x20 DUP3 ADD SWAP1 POP SWAP3 SWAP2 POP POP JUMP JUMPDEST PUSH1 0x0 PUSH2 0x1904 DUP3 PUSH2 0x19C1 JUMP JUMPDEST SWAP2 POP PUSH2 0x190F DUP4 PUSH2 0x19C1 JUMP JUMPDEST SWAP3 POP DUP3 PUSH32 0xFFFFFFFFFFFFFFFFFFFFFFFFFFFFFFFFFFFFFFFFFFFFFFFFFFFFFFFFFFFFFFFF SUB DUP3 GT ISZERO PUSH2 0x1944 JUMPI PUSH2 0x1943 PUSH2 0x1A3D JUMP JUMPDEST JUMPDEST DUP3 DUP3 ADD SWAP1 POP SWAP3 SWAP2 POP POP JUMP JUMPDEST PUSH1 0x0 PUSH2 0x195A DUP3 PUSH2 0x19C1 JUMP JUMPDEST SWAP2 POP PUSH2 0x1965 DUP4 PUSH2 0x19C1 JUMP JUMPDEST SWAP3 POP DUP3 DUP3 LT ISZERO PUSH2 0x1978 JUMPI PUSH2 0x1977 PUSH2 0x1A3D JUMP JUMPDEST JUMPDEST DUP3 DUP3 SUB SWAP1 POP SWAP3 SWAP2 POP POP JUMP JUMPDEST PUSH1 0x0 PUSH2 0x198E DUP3 PUSH2 0x19A1 JUMP JUMPDEST SWAP1 POP SWAP2 SWAP1 POP JUMP JUMPDEST PUSH1 0x0 DUP2 ISZERO ISZERO SWAP1 POP SWAP2 SWAP1 POP JUMP JUMPDEST PUSH1 0x0 PUSH20 0xFFFFFFFFFFFFFFFFFFFFFFFFFFFFFFFFFFFFFFFF DUP3 AND SWAP1 POP SWAP2 SWAP1 POP JUMP JUMPDEST PUSH1 0x0 DUP2 SWAP1 POP SWAP2 SWAP1 POP JUMP JUMPDEST PUSH1 0x0 PUSH1 0xFF DUP3 AND SWAP1 POP SWAP2 SWAP1 POP JUMP JUMPDEST PUSH1 0x0 JUMPDEST DUP4 DUP2 LT ISZERO PUSH2 0x19F6 JUMPI DUP1 DUP3 ADD MLOAD DUP2 DUP5 ADD MSTORE PUSH1 0x20 DUP2 ADD SWAP1 POP PUSH2 0x19DB JUMP JUMPDEST DUP4 DUP2 GT ISZERO PUSH2 0x1A05 JUMPI PUSH1 0x0 DUP5 DUP5 ADD MSTORE JUMPDEST POP POP POP POP JUMP JUMPDEST PUSH1 0x0 PUSH1 0x2 DUP3 DIV SWAP1 POP PUSH1 0x1 DUP3 AND DUP1 PUSH2 0x1A23 JUMPI PUSH1 0x7F DUP3 AND SWAP2 POP JUMPDEST PUSH1 0x20 DUP3 LT DUP2 EQ ISZERO PUSH2 0x1A37 JUMPI PUSH2 0x1A36 PUSH2 0x1A6C JUMP JUMPDEST JUMPDEST POP SWAP2 SWAP1 POP JUMP JUMPDEST PUSH32 0x4E487B7100000000000000000000000000000000000000000000000000000000 PUSH1 0x0 MSTORE PUSH1 0x11 PUSH1 0x4 MSTORE PUSH1 0x24 PUSH1 0x0 REVERT JUMPDEST PUSH32 0x4E487B7100000000000000000000000000000000000000000000000000000000 PUSH1 0x0 MSTORE PUSH1 0x22 PUSH1 0x4 MSTORE PUSH1 0x24 PUSH1 0x0 REVERT JUMPDEST PUSH1 0x0 DUP1 REVERT JUMPDEST PUSH1 0x0 PUSH1 0x1F NOT PUSH1 0x1F DUP4 ADD AND SWAP1 POP SWAP2 SWAP1 POP JUMP JUMPDEST PUSH32 0x45524332303A207472616E7366657220746F20746865207A65726F2061646472 PUSH1 0x0 DUP3 ADD MSTORE PUSH32 0x6573730000000000000000000000000000000000000000000000000000000000 PUSH1 0x20 DUP3 ADD MSTORE POP JUMP JUMPDEST PUSH32 0x4F776E61626C653A206E6577206F776E657220697320746865207A65726F2061 PUSH1 0x0 DUP3 ADD MSTORE PUSH32 0x6464726573730000000000000000000000000000000000000000000000000000 PUSH1 0x20 DUP3 ADD MSTORE POP JUMP JUMPDEST PUSH32 0x45524332303A20617070726F766520746F20746865207A65726F206164647265 PUSH1 0x0 DUP3 ADD MSTORE PUSH32 0x7373000000000000000000000000000000000000000000000000000000000000 PUSH1 0x20 DUP3 ADD MSTORE POP JUMP JUMPDEST PUSH32 0x45524332303A206D696E7420616D6F756E742065786365656473206D61782073 PUSH1 0x0 DUP3 ADD MSTORE PUSH32 0x7570706C79000000000000000000000000000000000000000000000000000000 PUSH1 0x20 DUP3 ADD MSTORE POP JUMP JUMPDEST PUSH32 0x4F776E61626C653A2063616C6C6572206973206E6F7420746865206F776E6572 PUSH1 0x0 DUP3 ADD MSTORE POP JUMP JUMPDEST PUSH32 0x45524332303A206275726E2066726F6D20746865207A65726F20616464726573 PUSH1 0x0 DUP3 ADD MSTORE PUSH32 0x7300000000000000000000000000000000000000000000000000000000000000 PUSH1 0x20 DUP3 ADD MSTORE POP JUMP JUMPDEST PUSH32 0x45524332303A207472616E736665722066726F6D20746865207A65726F206164 PUSH1 0x0 DUP3 ADD MSTORE PUSH32 0x6472657373000000000000000000000000000000000000000000000000000000 PUSH1 0x20 DUP3 ADD MSTORE POP JUMP JUMPDEST PUSH32 0x45524332303A20617070726F76652066726F6D20746865207A65726F20616464 PUSH1 0x0 DUP3 ADD MSTORE PUSH32 0x7265737300000000000000000000000000000000000000000000000000000000 PUSH1 0x20 DUP3 ADD MSTORE POP JUMP JUMPDEST PUSH32 0x45524332303A206D696E7420746F20746865207A65726F206164647265737300 PUSH1 0x0 DUP3 ADD MSTORE POP JUMP JUMPDEST PUSH2 0x1D35 DUP2 PUSH2 0x1983 JUMP JUMPDEST DUP2 EQ PUSH2 0x1D40 JUMPI PUSH1 0x0 DUP1 REVERT JUMPDEST POP JUMP JUMPDEST PUSH2 0x1D4C DUP2 PUSH2 0x19C1 JUMP JUMPDEST DUP2 EQ PUSH2 0x1D57 JUMPI PUSH1 0x0 DUP1 REVERT JUMPDEST POP JUMP INVALID GASLIMIT MSTORE NUMBER ORIGIN ADDRESS GASPRICE KECCAK256 PUSH3 0x75726E KECCAK256 PUSH2 0x6D6F PUSH22 0x6E7420657863656564732062616C616E636545524332 ADDRESS GASPRICE KECCAK256 PUSH21 0x72616E7366657220616D6F756E7420657863656564 PUSH20 0x2062616C616E636545524332303A207472616E73 PUSH7 0x657220616D6F75 PUSH15 0x74206578636565647320616C6C6F77 PUSH2 0x6E63 PUSH6 0x45524332303A KECCAK256 PUSH3 0x75726E KECCAK256 PUSH2 0x6D6F PUSH22 0x6E74206578636565647320616C6C6F77616E63654552 NUMBER ORIGIN ADDRESS GASPRICE KECCAK256 PUSH5 0x6563726561 PUSH20 0x656420616C6C6F77616E63652062656C6F77207A PUSH6 0x726FA2646970 PUSH7 0x73582212206DDC PUSH9 0x216922195EF0C7F62D REVERT PC 0xC4 0x49 0xC7 LOG4 0x5D CODECOPY SELFBALANCE SWAP13 0xDA 0x4F MSIZE SWAP13 0x26 PUSH32 0xEEC40D1664736F6C634300080700330000000000000000000000000000000000 "
				},
				"gasEstimates": {
					"creation": {
						"codeDepositCost": "1550600",
						"executionCost": "infinite",
						"totalCost": "infinite"
					},
					"external": {
						"allowance(address,address)": "infinite",
						"approve(address,uint256)": "infinite",
						"balanceOf(address)": "2864",
						"burn(uint256)": "infinite",
						"burnFrom(address,uint256)": "infinite",
						"decimals()": "2502",
						"decreaseAllowance(address,uint256)": "infinite",
						"increaseAllowance(address,uint256)": "infinite",
						"mint(address,uint256)": "infinite",
						"name()": "infinite",
						"owner()": "2611",
						"paused()": "2640",
						"renounceOwnership()": "30419",
						"symbol()": "infinite",
						"totalSupply()": "2505",
						"transfer(address,uint256)": "infinite",
						"transferFrom(address,address,uint256)": "infinite",
						"transferOwnership(address)": "30833"
					},
					"internal": {
						"_afterTokenTransfer(address,address,uint256)": "infinite",
						"_approve(address,address,uint256)": "infinite",
						"_burn(address,uint256)": "infinite",
						"_mint(address,uint256)": "infinite",
						"_transfer(address,address,uint256)": "infinite"
					}
				},
				"methodIdentifiers": {
					"allowance(address,address)": "dd62ed3e",
					"approve(address,uint256)": "095ea7b3",
					"balanceOf(address)": "70a08231",
					"burn(uint256)": "42966c68",
					"burnFrom(address,uint256)": "79cc6790",
					"decimals()": "313ce567",
					"decreaseAllowance(address,uint256)": "a457c2d7",
					"increaseAllowance(address,uint256)": "39509351",
					"mint(address,uint256)": "40c10f19",
					"name()": "06fdde03",
					"owner()": "8da5cb5b",
					"paused()": "5c975abb",
					"renounceOwnership()": "715018a6",
					"symbol()": "95d89b41",
					"totalSupply()": "18160ddd",
					"transfer(address,uint256)": "a9059cbb",
					"transferFrom(address,address,uint256)": "23b872dd",
					"transferOwnership(address)": "f2fde38b"
				}
			},
			"storageLayout": {
				"storage": [
					{
						"astId": 7,
						"contract": "contracts/MTMSToken.sol:MTMS",
						"label": "_owner",
						"offset": 0,
						"slot": "0",
						"type": "t_address"
					},
					{
						"astId": 122,
						"contract": "contracts/MTMSToken.sol:MTMS",
						"label": "_paused",
						"offset": 20,
						"slot": "0",
						"type": "t_bool"
					},
					{
						"astId": 1242,
						"contract": "contracts/MTMSToken.sol:MTMS",
						"label": "_balances",
						"offset": 0,
						"slot": "1",
						"type": "t_mapping(t_address,t_uint256)"
					},
					{
						"astId": 1248,
						"contract": "contracts/MTMSToken.sol:MTMS",
						"label": "_allowances",
						"offset": 0,
						"slot": "2",
						"type": "t_mapping(t_address,t_mapping(t_address,t_uint256))"
					},
					{
						"astId": 1250,
						"contract": "contracts/MTMSToken.sol:MTMS",
						"label": "_maxSupply",
						"offset": 0,
						"slot": "3",
						"type": "t_uint256"
					},
					{
						"astId": 1252,
						"contract": "contracts/MTMSToken.sol:MTMS",
						"label": "_totalSupply",
						"offset": 0,
						"slot": "4",
						"type": "t_uint256"
					},
					{
						"astId": 1254,
						"contract": "contracts/MTMSToken.sol:MTMS",
						"label": "_name",
						"offset": 0,
						"slot": "5",
						"type": "t_string_storage"
					},
					{
						"astId": 1256,
						"contract": "contracts/MTMSToken.sol:MTMS",
						"label": "_symbol",
						"offset": 0,
						"slot": "6",
						"type": "t_string_storage"
					},
					{
						"astId": 1258,
						"contract": "contracts/MTMSToken.sol:MTMS",
						"label": "_decimals",
						"offset": 0,
						"slot": "7",
						"type": "t_uint8"
					}
				],
				"types": {
					"t_address": {
						"encoding": "inplace",
						"label": "address",
						"numberOfBytes": "20"
					},
					"t_bool": {
						"encoding": "inplace",
						"label": "bool",
						"numberOfBytes": "1"
					},
					"t_mapping(t_address,t_mapping(t_address,t_uint256))": {
						"encoding": "mapping",
						"key": "t_address",
						"label": "mapping(address => mapping(address => uint256))",
						"numberOfBytes": "32",
						"value": "t_mapping(t_address,t_uint256)"
					},
					"t_mapping(t_address,t_uint256)": {
						"encoding": "mapping",
						"key": "t_address",
						"label": "mapping(address => uint256)",
						"numberOfBytes": "32",
						"value": "t_uint256"
					},
					"t_string_storage": {
						"encoding": "bytes",
						"label": "string",
						"numberOfBytes": "32"
					},
					"t_uint256": {
						"encoding": "inplace",
						"label": "uint256",
						"numberOfBytes": "32"
					},
					"t_uint8": {
						"encoding": "inplace",
						"label": "uint8",
						"numberOfBytes": "1"
					}
				}
			},
			"userdoc": {
				"kind": "user",
				"methods": {},
				"version": 1
			}
		}
	}
}