{
	"contracts/MTMSAirdrop.sol": {
		"MTMSAirdrop": {
			"abi": [
				{
					"inputs": [
						{
							"internalType": "contract IERC20",
							"name": "_token",
							"type": "address"
						}
					],
					"stateMutability": "nonpayable",
					"type": "constructor"
				},
				{
					"anonymous": false,
					"inputs": [
						{
							"indexed": false,
							"internalType": "address",
							"name": "claimant",
							"type": "address"
						},
						{
							"indexed": false,
							"internalType": "uint256",
							"name": "week",
							"type": "uint256"
						},
						{
							"indexed": false,
							"internalType": "uint256",
							"name": "balance",
							"type": "uint256"
						}
					],
					"name": "Claimed",
					"type": "event"
				},
				{
					"anonymous": false,
					"inputs": [
						{
							"indexed": true,
							"internalType": "address",
							"name": "previousOwner",
							"type": "address"
						},
						{
							"indexed": true,
							"internalType": "address",
							"name": "newOwner",
							"type": "address"
						}
					],
					"name": "OwnershipTransferred",
					"type": "event"
				},
				{
					"anonymous": false,
					"inputs": [
						{
							"indexed": true,
							"internalType": "address",
							"name": "_address",
							"type": "address"
						}
					],
					"name": "RemovedFunder",
					"type": "event"
				},
				{
					"anonymous": false,
					"inputs": [
						{
							"indexed": false,
							"internalType": "uint256",
							"name": "tranche",
							"type": "uint256"
						},
						{
							"indexed": false,
							"internalType": "bytes32",
							"name": "merkleRoot",
							"type": "bytes32"
						},
						{
							"indexed": false,
							"internalType": "uint256",
							"name": "totalAmount",
							"type": "uint256"
						}
					],
					"name": "TrancheAdded",
					"type": "event"
				},
				{
					"anonymous": false,
					"inputs": [
						{
							"indexed": false,
							"internalType": "uint256",
							"name": "tranche",
							"type": "uint256"
						}
					],
					"name": "TrancheExpired",
					"type": "event"
				},
				{
					"inputs": [
						{
							"internalType": "address",
							"name": "_liquidityProvider",
							"type": "address"
						},
						{
							"internalType": "uint256",
							"name": "_tranche",
							"type": "uint256"
						},
						{
							"internalType": "uint256",
							"name": "_balance",
							"type": "uint256"
						},
						{
							"internalType": "bytes32[]",
							"name": "_merkleProof",
							"type": "bytes32[]"
						}
					],
					"name": "claimWeek",
					"outputs": [],
					"stateMutability": "nonpayable",
					"type": "function"
				},
				{
					"inputs": [
						{
							"internalType": "address",
							"name": "_liquidityProvider",
							"type": "address"
						},
						{
							"internalType": "uint256[]",
							"name": "_tranches",
							"type": "uint256[]"
						},
						{
							"internalType": "uint256[]",
							"name": "_balances",
							"type": "uint256[]"
						},
						{
							"internalType": "bytes32[][]",
							"name": "_merkleProofs",
							"type": "bytes32[][]"
						}
					],
					"name": "claimWeeks",
					"outputs": [],
					"stateMutability": "nonpayable",
					"type": "function"
				},
				{
					"inputs": [
						{
							"internalType": "uint256",
							"name": "",
							"type": "uint256"
						},
						{
							"internalType": "address",
							"name": "",
							"type": "address"
						}
					],
					"name": "claimed",
					"outputs": [
						{
							"internalType": "bool",
							"name": "",
							"type": "bool"
						}
					],
					"stateMutability": "view",
					"type": "function"
				},
				{
					"inputs": [
						{
							"internalType": "uint256",
							"name": "_trancheId",
							"type": "uint256"
						}
					],
					"name": "expireTranche",
					"outputs": [],
					"stateMutability": "nonpayable",
					"type": "function"
				},
				{
					"inputs": [
						{
							"internalType": "uint256",
							"name": "",
							"type": "uint256"
						}
					],
					"name": "merkleRoots",
					"outputs": [
						{
							"internalType": "bytes32",
							"name": "",
							"type": "bytes32"
						}
					],
					"stateMutability": "view",
					"type": "function"
				},
				{
					"inputs": [],
					"name": "owner",
					"outputs": [
						{
							"internalType": "address",
							"name": "",
							"type": "address"
						}
					],
					"stateMutability": "view",
					"type": "function"
				},
				{
					"inputs": [
						{
							"internalType": "address",
							"name": "",
							"type": "address"
						}
					],
					"name": "recipients",
					"outputs": [
						{
							"internalType": "uint256",
							"name": "",
							"type": "uint256"
						}
					],
					"stateMutability": "view",
					"type": "function"
				},
				{
					"inputs": [],
					"name": "renounceOwnership",
					"outputs": [],
					"stateMutability": "nonpayable",
					"type": "function"
				},
				{
					"inputs": [
						{
							"internalType": "address[]",
							"name": "_recipients",
							"type": "address[]"
						},
						{
							"internalType": "uint256[]",
							"name": "_amounts",
							"type": "uint256[]"
						},
						{
							"internalType": "uint256",
							"name": "_totalAllocation",
							"type": "uint256"
						}
					],
					"name": "seedNewAllocations",
					"outputs": [],
					"stateMutability": "nonpayable",
					"type": "function"
				},
				{
					"inputs": [],
					"name": "token",
					"outputs": [
						{
							"internalType": "contract IERC20",
							"name": "",
							"type": "address"
						}
					],
					"stateMutability": "view",
					"type": "function"
				},
				{
					"inputs": [],
					"name": "tranches",
					"outputs": [
						{
							"internalType": "uint256",
							"name": "",
							"type": "uint256"
						}
					],
					"stateMutability": "view",
					"type": "function"
				},
				{
					"inputs": [
						{
							"internalType": "address",
							"name": "newOwner",
							"type": "address"
						}
					],
					"name": "transferOwnership",
					"outputs": [],
					"stateMutability": "nonpayable",
					"type": "function"
				},
				{
					"inputs": [
						{
							"internalType": "address",
							"name": "_liquidityProvider",
							"type": "address"
						},
						{
							"internalType": "uint256",
							"name": "_tranche",
							"type": "uint256"
						},
						{
							"internalType": "uint256",
							"name": "_balance",
							"type": "uint256"
						},
						{
							"internalType": "bytes32[]",
							"name": "_merkleProof",
							"type": "bytes32[]"
						}
					],
					"name": "verifyClaim",
					"outputs": [
						{
							"internalType": "bool",
							"name": "valid",
							"type": "bool"
						}
					],
					"stateMutability": "view",
					"type": "function"
				}
			],
			"devdoc": {
				"kind": "dev",
				"methods": {
					"owner()": {
						"details": "Returns the address of the current owner."
					},
					"renounceOwnership()": {
						"details": "Leaves the contract without owner. It will not be possible to call `onlyOwner` functions anymore. Can only be called by the current owner. NOTE: Renouncing ownership will leave the contract without an owner, thereby removing any functionality that is only available to the owner."
					},
					"transferOwnership(address)": {
						"details": "Transfers ownership of the contract to a new account (`newOwner`). Can only be called by the current owner."
					}
				},
				"version": 1
			},
			"evm": {
				"assembly": "    /* \"contracts/MTMSAirdrop.sol\":441:4326  contract MTMSAirdrop is Ownable {\r... */\n  mstore(0x40, 0x80)\n    /* \"contracts/MTMSAirdrop.sol\":1031:1098  constructor(IERC20 _token) public {\r... */\n  callvalue\n  dup1\n  iszero\n  tag_1\n  jumpi\n  0x00\n  dup1\n  revert\ntag_1:\n  pop\n  mload(0x40)\n  sub(codesize, bytecodeSize)\n  dup1\n  bytecodeSize\n  dup4\n  codecopy\n  dup2\n  dup2\n  add\n  0x40\n  mstore\n  dup2\n  add\n  swap1\n  tag_2\n  swap2\n  swap1\n  tag_3\n  jump\t// in\ntag_2:\n    /* \"@openzeppelin/contracts/access/Ownable.sol\":921:953  _transferOwnership(_msgSender()) */\n  tag_7\n    /* \"@openzeppelin/contracts/access/Ownable.sol\":940:952  _msgSender() */\n  tag_8\n    /* \"@openzeppelin/contracts/access/Ownable.sol\":940:950  _msgSender */\n  shl(0x20, tag_9)\n    /* \"@openzeppelin/contracts/access/Ownable.sol\":940:952  _msgSender() */\n  0x20\n  shr\n  jump\t// in\ntag_8:\n    /* \"@openzeppelin/contracts/access/Ownable.sol\":921:939  _transferOwnership */\n  shl(0x20, tag_10)\n    /* \"@openzeppelin/contracts/access/Ownable.sol\":921:953  _transferOwnership(_msgSender()) */\n  0x20\n  shr\n  jump\t// in\ntag_7:\n    /* \"contracts/MTMSAirdrop.sol\":1084:1090  _token */\n  dup1\n    /* \"contracts/MTMSAirdrop.sol\":1076:1081  token */\n  0x01\n  0x00\n    /* \"contracts/MTMSAirdrop.sol\":1076:1090  token = _token */\n  0x0100\n  exp\n  dup2\n  sload\n  dup2\n  0xffffffffffffffffffffffffffffffffffffffff\n  mul\n  not\n  and\n  swap1\n  dup4\n  0xffffffffffffffffffffffffffffffffffffffff\n  and\n  mul\n  or\n  swap1\n  sstore\n  pop\n    /* \"contracts/MTMSAirdrop.sol\":1031:1098  constructor(IERC20 _token) public {\r... */\n  pop\n    /* \"contracts/MTMSAirdrop.sol\":441:4326  contract MTMSAirdrop is Ownable {\r... */\n  jump(tag_12)\n    /* \"@openzeppelin/contracts/utils/Context.sol\":640:736  function _msgSender() internal view virtual returns (address) {... */\ntag_9:\n    /* \"@openzeppelin/contracts/utils/Context.sol\":693:700  address */\n  0x00\n    /* \"@openzeppelin/contracts/utils/Context.sol\":719:729  msg.sender */\n  caller\n    /* \"@openzeppelin/contracts/utils/Context.sol\":712:729  return msg.sender */\n  swap1\n  pop\n    /* \"@openzeppelin/contracts/utils/Context.sol\":640:736  function _msgSender() internal view virtual returns (address) {... */\n  swap1\n  jump\t// out\n    /* \"@openzeppelin/contracts/access/Ownable.sol\":2270:2457  function _transferOwnership(address newOwner) internal virtual {... */\ntag_10:\n    /* \"@openzeppelin/contracts/access/Ownable.sol\":2343:2359  address oldOwner */\n  0x00\n    /* \"@openzeppelin/contracts/access/Ownable.sol\":2362:2368  _owner */\n  dup1\n  0x00\n  swap1\n  sload\n  swap1\n  0x0100\n  exp\n  swap1\n  div\n  0xffffffffffffffffffffffffffffffffffffffff\n  and\n    /* \"@openzeppelin/contracts/access/Ownable.sol\":2343:2368  address oldOwner = _owner */\n  swap1\n  pop\n    /* \"@openzeppelin/contracts/access/Ownable.sol\":2387:2395  newOwner */\n  dup2\n    /* \"@openzeppelin/contracts/access/Ownable.sol\":2378:2384  _owner */\n  0x00\n  dup1\n    /* \"@openzeppelin/contracts/access/Ownable.sol\":2378:2395  _owner = newOwner */\n  0x0100\n  exp\n  dup2\n  sload\n  dup2\n  0xffffffffffffffffffffffffffffffffffffffff\n  mul\n  not\n  and\n  swap1\n  dup4\n  0xffffffffffffffffffffffffffffffffffffffff\n  and\n  mul\n  or\n  swap1\n  sstore\n  pop\n    /* \"@openzeppelin/contracts/access/Ownable.sol\":2441:2449  newOwner */\n  dup2\n    /* \"@openzeppelin/contracts/access/Ownable.sol\":2410:2450  OwnershipTransferred(oldOwner, newOwner) */\n  0xffffffffffffffffffffffffffffffffffffffff\n  and\n    /* \"@openzeppelin/contracts/access/Ownable.sol\":2431:2439  oldOwner */\n  dup2\n    /* \"@openzeppelin/contracts/access/Ownable.sol\":2410:2450  OwnershipTransferred(oldOwner, newOwner) */\n  0xffffffffffffffffffffffffffffffffffffffff\n  and\n  0x8be0079c531659141344cd1fd0a4f28419497f9722a3daafe3b4186f6b6457e0\n  mload(0x40)\n  mload(0x40)\n  dup1\n  swap2\n  sub\n  swap1\n  log3\n    /* \"@openzeppelin/contracts/access/Ownable.sol\":2333:2457  {... */\n  pop\n    /* \"@openzeppelin/contracts/access/Ownable.sol\":2270:2457  function _transferOwnership(address newOwner) internal virtual {... */\n  pop\n  jump\t// out\n    /* \"#utility.yul\":7:178   */\ntag_16:\n    /* \"#utility.yul\":78:83   */\n  0x00\n    /* \"#utility.yul\":109:115   */\n  dup2\n    /* \"#utility.yul\":103:116   */\n  mload\n    /* \"#utility.yul\":94:116   */\n  swap1\n  pop\n    /* \"#utility.yul\":125:172   */\n  tag_18\n    /* \"#utility.yul\":166:171   */\n  dup2\n    /* \"#utility.yul\":125:172   */\n  tag_19\n  jump\t// in\ntag_18:\n    /* \"#utility.yul\":7:178   */\n  swap3\n  swap2\n  pop\n  pop\n  jump\t// out\n    /* \"#utility.yul\":184:563   */\ntag_3:\n    /* \"#utility.yul\":268:274   */\n  0x00\n    /* \"#utility.yul\":317:319   */\n  0x20\n    /* \"#utility.yul\":305:314   */\n  dup3\n    /* \"#utility.yul\":296:303   */\n  dup5\n    /* \"#utility.yul\":292:315   */\n  sub\n    /* \"#utility.yul\":288:320   */\n  slt\n    /* \"#utility.yul\":285:404   */\n  iszero\n  tag_21\n  jumpi\n    /* \"#utility.yul\":323:402   */\n  tag_22\n  tag_23\n  jump\t// in\ntag_22:\n    /* \"#utility.yul\":285:404   */\ntag_21:\n    /* \"#utility.yul\":443:444   */\n  0x00\n    /* \"#utility.yul\":468:546   */\n  tag_24\n    /* \"#utility.yul\":538:545   */\n  dup5\n    /* \"#utility.yul\":529:535   */\n  dup3\n    /* \"#utility.yul\":518:527   */\n  dup6\n    /* \"#utility.yul\":514:536   */\n  add\n    /* \"#utility.yul\":468:546   */\n  tag_16\n  jump\t// in\ntag_24:\n    /* \"#utility.yul\":458:546   */\n  swap2\n  pop\n    /* \"#utility.yul\":414:556   */\n  pop\n    /* \"#utility.yul\":184:563   */\n  swap3\n  swap2\n  pop\n  pop\n  jump\t// out\n    /* \"#utility.yul\":650:746   */\ntag_27:\n    /* \"#utility.yul\":687:694   */\n  0x00\n    /* \"#utility.yul\":716:740   */\n  tag_29\n    /* \"#utility.yul\":734:739   */\n  dup3\n    /* \"#utility.yul\":716:740   */\n  tag_30\n  jump\t// in\ntag_29:\n    /* \"#utility.yul\":705:740   */\n  swap1\n  pop\n    /* \"#utility.yul\":650:746   */\n  swap2\n  swap1\n  pop\n  jump\t// out\n    /* \"#utility.yul\":752:862   */\ntag_31:\n    /* \"#utility.yul\":803:810   */\n  0x00\n    /* \"#utility.yul\":832:856   */\n  tag_33\n    /* \"#utility.yul\":850:855   */\n  dup3\n    /* \"#utility.yul\":832:856   */\n  tag_27\n  jump\t// in\ntag_33:\n    /* \"#utility.yul\":821:856   */\n  swap1\n  pop\n    /* \"#utility.yul\":752:862   */\n  swap2\n  swap1\n  pop\n  jump\t// out\n    /* \"#utility.yul\":868:994   */\ntag_30:\n    /* \"#utility.yul\":905:912   */\n  0x00\n    /* \"#utility.yul\":945:987   */\n  0xffffffffffffffffffffffffffffffffffffffff\n    /* \"#utility.yul\":938:943   */\n  dup3\n    /* \"#utility.yul\":934:988   */\n  and\n    /* \"#utility.yul\":923:988   */\n  swap1\n  pop\n    /* \"#utility.yul\":868:994   */\n  swap2\n  swap1\n  pop\n  jump\t// out\n    /* \"#utility.yul\":1123:1240   */\ntag_23:\n    /* \"#utility.yul\":1232:1233   */\n  0x00\n    /* \"#utility.yul\":1229:1230   */\n  dup1\n    /* \"#utility.yul\":1222:1234   */\n  revert\n    /* \"#utility.yul\":1246:1396   */\ntag_19:\n    /* \"#utility.yul\":1333:1371   */\n  tag_39\n    /* \"#utility.yul\":1365:1370   */\n  dup2\n    /* \"#utility.yul\":1333:1371   */\n  tag_31\n  jump\t// in\ntag_39:\n    /* \"#utility.yul\":1326:1331   */\n  dup2\n    /* \"#utility.yul\":1323:1372   */\n  eq\n    /* \"#utility.yul\":1313:1390   */\n  tag_40\n  jumpi\n    /* \"#utility.yul\":1386:1387   */\n  0x00\n    /* \"#utility.yul\":1383:1384   */\n  dup1\n    /* \"#utility.yul\":1376:1388   */\n  revert\n    /* \"#utility.yul\":1313:1390   */\ntag_40:\n    /* \"#utility.yul\":1246:1396   */\n  pop\n  jump\t// out\n    /* \"contracts/MTMSAirdrop.sol\":441:4326  contract MTMSAirdrop is Ownable {\r... */\ntag_12:\n  dataSize(sub_0)\n  dup1\n  dataOffset(sub_0)\n  0x00\n  codecopy\n  0x00\n  return\nstop\n\nsub_0: assembly {\n        /* \"contracts/MTMSAirdrop.sol\":441:4326  contract MTMSAirdrop is Ownable {\r... */\n      mstore(0x40, 0x80)\n      callvalue\n      dup1\n      iszero\n      tag_1\n      jumpi\n      0x00\n      dup1\n      revert\n    tag_1:\n      pop\n      jumpi(tag_2, lt(calldatasize, 0x04))\n      shr(0xe0, calldataload(0x00))\n      dup1\n      0xcf9aa8cc\n      gt\n      tag_16\n      jumpi\n      dup1\n      0xeb820312\n      gt\n      tag_17\n      jumpi\n      dup1\n      0xeb820312\n      eq\n      tag_12\n      jumpi\n      dup1\n      0xebf04917\n      eq\n      tag_13\n      jumpi\n      dup1\n      0xf2fde38b\n      eq\n      tag_14\n      jumpi\n      dup1\n      0xfc0c546a\n      eq\n      tag_15\n      jumpi\n      jump(tag_2)\n    tag_17:\n      dup1\n      0xcf9aa8cc\n      eq\n      tag_9\n      jumpi\n      dup1\n      0xd5efd20a\n      eq\n      tag_10\n      jumpi\n      dup1\n      0xeb0d07f5\n      eq\n      tag_11\n      jumpi\n      jump(tag_2)\n    tag_16:\n      dup1\n      0x120aa877\n      eq\n      tag_3\n      jumpi\n      dup1\n      0x58b4e4b4\n      eq\n      tag_4\n      jumpi\n      dup1\n      0x715018a6\n      eq\n      tag_5\n      jumpi\n      dup1\n      0x71c5ecb1\n      eq\n      tag_6\n      jumpi\n      dup1\n      0x8da5cb5b\n      eq\n      tag_7\n      jumpi\n      dup1\n      0xba593714\n      eq\n      tag_8\n      jumpi\n    tag_2:\n      0x00\n      dup1\n      revert\n        /* \"contracts/MTMSAirdrop.sol\":933:992  mapping(uint256 => mapping(address => bool)) public claimed */\n    tag_3:\n      tag_18\n      0x04\n      dup1\n      calldatasize\n      sub\n      dup2\n      add\n      swap1\n      tag_19\n      swap2\n      swap1\n      tag_20\n      jump\t// in\n    tag_19:\n      tag_21\n      jump\t// in\n    tag_18:\n      mload(0x40)\n      tag_22\n      swap2\n      swap1\n      tag_23\n      jump\t// in\n    tag_22:\n      mload(0x40)\n      dup1\n      swap2\n      sub\n      swap1\n      return\n        /* \"contracts/MTMSAirdrop.sol\":1741:2052  function claimWeek(\r... */\n    tag_4:\n      tag_24\n      0x04\n      dup1\n      calldatasize\n      sub\n      dup2\n      add\n      swap1\n      tag_25\n      swap2\n      swap1\n      tag_26\n      jump\t// in\n    tag_25:\n      tag_27\n      jump\t// in\n    tag_24:\n      stop\n        /* \"@openzeppelin/contracts/access/Ownable.sol\":1668:1769  function renounceOwnership() public virtual onlyOwner {... */\n    tag_5:\n      tag_28\n      tag_29\n      jump\t// in\n    tag_28:\n      stop\n        /* \"contracts/MTMSAirdrop.sol\":880:926  mapping(uint256 => bytes32) public merkleRoots */\n    tag_6:\n      tag_30\n      0x04\n      dup1\n      calldatasize\n      sub\n      dup2\n      add\n      swap1\n      tag_31\n      swap2\n      swap1\n      tag_32\n      jump\t// in\n    tag_31:\n      tag_33\n      jump\t// in\n    tag_30:\n      mload(0x40)\n      tag_34\n      swap2\n      swap1\n      tag_35\n      jump\t// in\n    tag_34:\n      mload(0x40)\n      dup1\n      swap2\n      sub\n      swap1\n      return\n        /* \"@openzeppelin/contracts/access/Ownable.sol\":1036:1121  function owner() public view virtual returns (address) {... */\n    tag_7:\n      tag_36\n      tag_37\n      jump\t// in\n    tag_36:\n      mload(0x40)\n      tag_38\n      swap2\n      swap1\n      tag_39\n      jump\t// in\n    tag_38:\n      mload(0x40)\n      dup1\n      swap2\n      sub\n      swap1\n      return\n        /* \"contracts/MTMSAirdrop.sol\":2062:2706  function claimWeeks(\r... */\n    tag_8:\n      tag_40\n      0x04\n      dup1\n      calldatasize\n      sub\n      dup2\n      add\n      swap1\n      tag_41\n      swap2\n      swap1\n      tag_42\n      jump\t// in\n    tag_41:\n      tag_43\n      jump\t// in\n    tag_40:\n      stop\n        /* \"contracts/MTMSAirdrop.sol\":1106:1543  function seedNewAllocations(address[] memory _recipients,uint256[] memory _amounts, uint256 _totalAllocation)\r... */\n    tag_9:\n      tag_44\n      0x04\n      dup1\n      calldatasize\n      sub\n      dup2\n      add\n      swap1\n      tag_45\n      swap2\n      swap1\n      tag_46\n      jump\t// in\n    tag_45:\n      tag_47\n      jump\t// in\n    tag_44:\n      stop\n        /* \"contracts/MTMSAirdrop.sol\":1551:1733  function expireTranche(uint256 _trancheId)\r... */\n    tag_10:\n      tag_48\n      0x04\n      dup1\n      calldatasize\n      sub\n      dup2\n      add\n      swap1\n      tag_49\n      swap2\n      swap1\n      tag_32\n      jump\t// in\n    tag_49:\n      tag_50\n      jump\t// in\n    tag_48:\n      stop\n        /* \"contracts/MTMSAirdrop.sol\":2716:3032  function verifyClaim(\r... */\n    tag_11:\n      tag_51\n      0x04\n      dup1\n      calldatasize\n      sub\n      dup2\n      add\n      swap1\n      tag_52\n      swap2\n      swap1\n      tag_26\n      jump\t// in\n    tag_52:\n      tag_53\n      jump\t// in\n    tag_51:\n      mload(0x40)\n      tag_54\n      swap2\n      swap1\n      tag_23\n      jump\t// in\n    tag_54:\n      mload(0x40)\n      dup1\n      swap2\n      sub\n      swap1\n      return\n        /* \"contracts/MTMSAirdrop.sol\":826:871  mapping(address => uint256) public recipients */\n    tag_12:\n      tag_55\n      0x04\n      dup1\n      calldatasize\n      sub\n      dup2\n      add\n      swap1\n      tag_56\n      swap2\n      swap1\n      tag_57\n      jump\t// in\n    tag_56:\n      tag_58\n      jump\t// in\n    tag_55:\n      mload(0x40)\n      tag_59\n      swap2\n      swap1\n      tag_60\n      jump\t// in\n    tag_59:\n      mload(0x40)\n      dup1\n      swap2\n      sub\n      swap1\n      return\n        /* \"contracts/MTMSAirdrop.sol\":999:1022  uint256 public tranches */\n    tag_13:\n      tag_61\n      tag_62\n      jump\t// in\n    tag_61:\n      mload(0x40)\n      tag_63\n      swap2\n      swap1\n      tag_60\n      jump\t// in\n    tag_63:\n      mload(0x40)\n      dup1\n      swap2\n      sub\n      swap1\n      return\n        /* \"@openzeppelin/contracts/access/Ownable.sol\":1918:2116  function transferOwnership(address newOwner) public virtual onlyOwner {... */\n    tag_14:\n      tag_64\n      0x04\n      dup1\n      calldatasize\n      sub\n      dup2\n      add\n      swap1\n      tag_65\n      swap2\n      swap1\n      tag_57\n      jump\t// in\n    tag_65:\n      tag_66\n      jump\t// in\n    tag_64:\n      stop\n        /* \"contracts/MTMSAirdrop.sol\":798:817  IERC20 public token */\n    tag_15:\n      tag_67\n      tag_68\n      jump\t// in\n    tag_67:\n      mload(0x40)\n      tag_69\n      swap2\n      swap1\n      tag_70\n      jump\t// in\n    tag_69:\n      mload(0x40)\n      dup1\n      swap2\n      sub\n      swap1\n      return\n        /* \"contracts/MTMSAirdrop.sol\":933:992  mapping(uint256 => mapping(address => bool)) public claimed */\n    tag_21:\n      mstore(0x20, 0x04)\n      dup2\n      0x00\n      mstore\n      mstore(0x20, keccak256(0x00, 0x40))\n      dup1\n      0x00\n      mstore\n      keccak256(0x00, 0x40)\n      0x00\n      swap2\n      pop\n      swap2\n      pop\n      swap1\n      sload\n      swap1\n      0x0100\n      exp\n      swap1\n      div\n      0xff\n      and\n      dup2\n      jump\t// out\n        /* \"contracts/MTMSAirdrop.sol\":1741:2052  function claimWeek(\r... */\n    tag_27:\n        /* \"contracts/MTMSAirdrop.sol\":1930:1994  _claimWeek(_liquidityProvider, _tranche, _balance, _merkleProof) */\n      tag_72\n        /* \"contracts/MTMSAirdrop.sol\":1941:1959  _liquidityProvider */\n      dup5\n        /* \"contracts/MTMSAirdrop.sol\":1961:1969  _tranche */\n      dup5\n        /* \"contracts/MTMSAirdrop.sol\":1971:1979  _balance */\n      dup5\n        /* \"contracts/MTMSAirdrop.sol\":1981:1993  _merkleProof */\n      dup5\n        /* \"contracts/MTMSAirdrop.sol\":1930:1940  _claimWeek */\n      tag_73\n        /* \"contracts/MTMSAirdrop.sol\":1930:1994  _claimWeek(_liquidityProvider, _tranche, _balance, _merkleProof) */\n      jump\t// in\n    tag_72:\n        /* \"contracts/MTMSAirdrop.sol\":2005:2044  _disburse(_liquidityProvider, _balance) */\n      tag_74\n        /* \"contracts/MTMSAirdrop.sol\":2015:2033  _liquidityProvider */\n      dup5\n        /* \"contracts/MTMSAirdrop.sol\":2035:2043  _balance */\n      dup4\n        /* \"contracts/MTMSAirdrop.sol\":2005:2014  _disburse */\n      tag_75\n        /* \"contracts/MTMSAirdrop.sol\":2005:2044  _disburse(_liquidityProvider, _balance) */\n      jump\t// in\n    tag_74:\n        /* \"contracts/MTMSAirdrop.sol\":1741:2052  function claimWeek(\r... */\n      pop\n      pop\n      pop\n      pop\n      jump\t// out\n        /* \"@openzeppelin/contracts/access/Ownable.sol\":1668:1769  function renounceOwnership() public virtual onlyOwner {... */\n    tag_29:\n        /* \"@openzeppelin/contracts/access/Ownable.sol\":1259:1271  _msgSender() */\n      tag_77\n        /* \"@openzeppelin/contracts/access/Ownable.sol\":1259:1269  _msgSender */\n      tag_78\n        /* \"@openzeppelin/contracts/access/Ownable.sol\":1259:1271  _msgSender() */\n      jump\t// in\n    tag_77:\n        /* \"@openzeppelin/contracts/access/Ownable.sol\":1248:1271  owner() == _msgSender() */\n      0xffffffffffffffffffffffffffffffffffffffff\n      and\n        /* \"@openzeppelin/contracts/access/Ownable.sol\":1248:1255  owner() */\n      tag_79\n        /* \"@openzeppelin/contracts/access/Ownable.sol\":1248:1253  owner */\n      tag_37\n        /* \"@openzeppelin/contracts/access/Ownable.sol\":1248:1255  owner() */\n      jump\t// in\n    tag_79:\n        /* \"@openzeppelin/contracts/access/Ownable.sol\":1248:1271  owner() == _msgSender() */\n      0xffffffffffffffffffffffffffffffffffffffff\n      and\n      eq\n        /* \"@openzeppelin/contracts/access/Ownable.sol\":1240:1308  require(owner() == _msgSender(), \"Ownable: caller is not the owner\") */\n      tag_80\n      jumpi\n      mload(0x40)\n      0x08c379a000000000000000000000000000000000000000000000000000000000\n      dup2\n      mstore\n      0x04\n      add\n      tag_81\n      swap1\n      tag_82\n      jump\t// in\n    tag_81:\n      mload(0x40)\n      dup1\n      swap2\n      sub\n      swap1\n      revert\n    tag_80:\n        /* \"@openzeppelin/contracts/access/Ownable.sol\":1732:1762  _transferOwnership(address(0)) */\n      tag_84\n        /* \"@openzeppelin/contracts/access/Ownable.sol\":1759:1760  0 */\n      0x00\n        /* \"@openzeppelin/contracts/access/Ownable.sol\":1732:1750  _transferOwnership */\n      tag_85\n        /* \"@openzeppelin/contracts/access/Ownable.sol\":1732:1762  _transferOwnership(address(0)) */\n      jump\t// in\n    tag_84:\n        /* \"@openzeppelin/contracts/access/Ownable.sol\":1668:1769  function renounceOwnership() public virtual onlyOwner {... */\n      jump\t// out\n        /* \"contracts/MTMSAirdrop.sol\":880:926  mapping(uint256 => bytes32) public merkleRoots */\n    tag_33:\n      mstore(0x20, 0x03)\n      dup1\n      0x00\n      mstore\n      keccak256(0x00, 0x40)\n      0x00\n      swap2\n      pop\n      swap1\n      pop\n      sload\n      dup2\n      jump\t// out\n        /* \"@openzeppelin/contracts/access/Ownable.sol\":1036:1121  function owner() public view virtual returns (address) {... */\n    tag_37:\n        /* \"@openzeppelin/contracts/access/Ownable.sol\":1082:1089  address */\n      0x00\n        /* \"@openzeppelin/contracts/access/Ownable.sol\":1108:1114  _owner */\n      dup1\n      0x00\n      swap1\n      sload\n      swap1\n      0x0100\n      exp\n      swap1\n      div\n      0xffffffffffffffffffffffffffffffffffffffff\n      and\n        /* \"@openzeppelin/contracts/access/Ownable.sol\":1101:1114  return _owner */\n      swap1\n      pop\n        /* \"@openzeppelin/contracts/access/Ownable.sol\":1036:1121  function owner() public view virtual returns (address) {... */\n      swap1\n      jump\t// out\n        /* \"contracts/MTMSAirdrop.sol\":2062:2706  function claimWeeks(\r... */\n    tag_43:\n        /* \"contracts/MTMSAirdrop.sol\":2275:2286  uint256 len */\n      0x00\n        /* \"contracts/MTMSAirdrop.sol\":2289:2298  _tranches */\n      dup4\n        /* \"contracts/MTMSAirdrop.sol\":2289:2305  _tranches.length */\n      mload\n        /* \"contracts/MTMSAirdrop.sol\":2275:2305  uint256 len = _tranches.length */\n      swap1\n      pop\n        /* \"contracts/MTMSAirdrop.sol\":2331:2340  _balances */\n      dup3\n        /* \"contracts/MTMSAirdrop.sol\":2331:2347  _balances.length */\n      mload\n        /* \"contracts/MTMSAirdrop.sol\":2324:2327  len */\n      dup2\n        /* \"contracts/MTMSAirdrop.sol\":2324:2347  len == _balances.length */\n      eq\n        /* \"contracts/MTMSAirdrop.sol\":2324:2378  len == _balances.length && len == _merkleProofs.length */\n      dup1\n      iszero\n      tag_88\n      jumpi\n      pop\n        /* \"contracts/MTMSAirdrop.sol\":2358:2371  _merkleProofs */\n      dup2\n        /* \"contracts/MTMSAirdrop.sol\":2358:2378  _merkleProofs.length */\n      mload\n        /* \"contracts/MTMSAirdrop.sol\":2351:2354  len */\n      dup2\n        /* \"contracts/MTMSAirdrop.sol\":2351:2378  len == _merkleProofs.length */\n      eq\n        /* \"contracts/MTMSAirdrop.sol\":2324:2378  len == _balances.length && len == _merkleProofs.length */\n    tag_88:\n        /* \"contracts/MTMSAirdrop.sol\":2316:2401  require(len == _balances.length && len == _merkleProofs.length, \"Mismatching inputs\") */\n      tag_89\n      jumpi\n      mload(0x40)\n      0x08c379a000000000000000000000000000000000000000000000000000000000\n      dup2\n      mstore\n      0x04\n      add\n      tag_90\n      swap1\n      tag_91\n      jump\t// in\n    tag_90:\n      mload(0x40)\n      dup1\n      swap2\n      sub\n      swap1\n      revert\n    tag_89:\n        /* \"contracts/MTMSAirdrop.sol\":2414:2434  uint256 totalBalance */\n      0x00\n        /* \"contracts/MTMSAirdrop.sol\":2453:2462  uint256 i */\n      dup1\n        /* \"contracts/MTMSAirdrop.sol\":2449:2645  for(uint256 i = 0; i < len; i++) {\r... */\n    tag_92:\n        /* \"contracts/MTMSAirdrop.sol\":2472:2475  len */\n      dup3\n        /* \"contracts/MTMSAirdrop.sol\":2468:2469  i */\n      dup2\n        /* \"contracts/MTMSAirdrop.sol\":2468:2475  i < len */\n      lt\n        /* \"contracts/MTMSAirdrop.sol\":2449:2645  for(uint256 i = 0; i < len; i++) {\r... */\n      iszero\n      tag_93\n      jumpi\n        /* \"contracts/MTMSAirdrop.sol\":2497:2573  _claimWeek(_liquidityProvider, _tranches[i], _balances[i], _merkleProofs[i]) */\n      tag_95\n        /* \"contracts/MTMSAirdrop.sol\":2508:2526  _liquidityProvider */\n      dup8\n        /* \"contracts/MTMSAirdrop.sol\":2528:2537  _tranches */\n      dup8\n        /* \"contracts/MTMSAirdrop.sol\":2538:2539  i */\n      dup4\n        /* \"contracts/MTMSAirdrop.sol\":2528:2540  _tranches[i] */\n      dup2\n      mload\n      dup2\n      lt\n      tag_96\n      jumpi\n      tag_97\n      tag_98\n      jump\t// in\n    tag_97:\n    tag_96:\n      0x20\n      mul\n      0x20\n      add\n      add\n      mload\n        /* \"contracts/MTMSAirdrop.sol\":2542:2551  _balances */\n      dup8\n        /* \"contracts/MTMSAirdrop.sol\":2552:2553  i */\n      dup5\n        /* \"contracts/MTMSAirdrop.sol\":2542:2554  _balances[i] */\n      dup2\n      mload\n      dup2\n      lt\n      tag_99\n      jumpi\n      tag_100\n      tag_98\n      jump\t// in\n    tag_100:\n    tag_99:\n      0x20\n      mul\n      0x20\n      add\n      add\n      mload\n        /* \"contracts/MTMSAirdrop.sol\":2556:2569  _merkleProofs */\n      dup8\n        /* \"contracts/MTMSAirdrop.sol\":2570:2571  i */\n      dup6\n        /* \"contracts/MTMSAirdrop.sol\":2556:2572  _merkleProofs[i] */\n      dup2\n      mload\n      dup2\n      lt\n      tag_101\n      jumpi\n      tag_102\n      tag_98\n      jump\t// in\n    tag_102:\n    tag_101:\n      0x20\n      mul\n      0x20\n      add\n      add\n      mload\n        /* \"contracts/MTMSAirdrop.sol\":2497:2507  _claimWeek */\n      tag_73\n        /* \"contracts/MTMSAirdrop.sol\":2497:2573  _claimWeek(_liquidityProvider, _tranches[i], _balances[i], _merkleProofs[i]) */\n      jump\t// in\n    tag_95:\n        /* \"contracts/MTMSAirdrop.sol\":2603:2633  totalBalance.add(_balances[i]) */\n      tag_103\n        /* \"contracts/MTMSAirdrop.sol\":2620:2629  _balances */\n      dup6\n        /* \"contracts/MTMSAirdrop.sol\":2630:2631  i */\n      dup3\n        /* \"contracts/MTMSAirdrop.sol\":2620:2632  _balances[i] */\n      dup2\n      mload\n      dup2\n      lt\n      tag_104\n      jumpi\n      tag_105\n      tag_98\n      jump\t// in\n    tag_105:\n    tag_104:\n      0x20\n      mul\n      0x20\n      add\n      add\n      mload\n        /* \"contracts/MTMSAirdrop.sol\":2603:2615  totalBalance */\n      dup4\n        /* \"contracts/MTMSAirdrop.sol\":2603:2619  totalBalance.add */\n      tag_106\n      swap1\n        /* \"contracts/MTMSAirdrop.sol\":2603:2633  totalBalance.add(_balances[i]) */\n      swap2\n      swap1\n      0xffffffff\n      and\n      jump\t// in\n    tag_103:\n        /* \"contracts/MTMSAirdrop.sol\":2588:2633  totalBalance = totalBalance.add(_balances[i]) */\n      swap2\n      pop\n        /* \"contracts/MTMSAirdrop.sol\":2477:2480  i++ */\n      dup1\n      dup1\n      tag_107\n      swap1\n      tag_108\n      jump\t// in\n    tag_107:\n      swap2\n      pop\n      pop\n        /* \"contracts/MTMSAirdrop.sol\":2449:2645  for(uint256 i = 0; i < len; i++) {\r... */\n      jump(tag_92)\n    tag_93:\n      pop\n        /* \"contracts/MTMSAirdrop.sol\":2655:2698  _disburse(_liquidityProvider, totalBalance) */\n      tag_109\n        /* \"contracts/MTMSAirdrop.sol\":2665:2683  _liquidityProvider */\n      dup7\n        /* \"contracts/MTMSAirdrop.sol\":2685:2697  totalBalance */\n      dup3\n        /* \"contracts/MTMSAirdrop.sol\":2655:2664  _disburse */\n      tag_75\n        /* \"contracts/MTMSAirdrop.sol\":2655:2698  _disburse(_liquidityProvider, totalBalance) */\n      jump\t// in\n    tag_109:\n        /* \"contracts/MTMSAirdrop.sol\":2264:2706  {\r... */\n      pop\n      pop\n        /* \"contracts/MTMSAirdrop.sol\":2062:2706  function claimWeeks(\r... */\n      pop\n      pop\n      pop\n      pop\n      jump\t// out\n        /* \"contracts/MTMSAirdrop.sol\":1106:1543  function seedNewAllocations(address[] memory _recipients,uint256[] memory _amounts, uint256 _totalAllocation)\r... */\n    tag_47:\n        /* \"@openzeppelin/contracts/access/Ownable.sol\":1259:1271  _msgSender() */\n      tag_111\n        /* \"@openzeppelin/contracts/access/Ownable.sol\":1259:1269  _msgSender */\n      tag_78\n        /* \"@openzeppelin/contracts/access/Ownable.sol\":1259:1271  _msgSender() */\n      jump\t// in\n    tag_111:\n        /* \"@openzeppelin/contracts/access/Ownable.sol\":1248:1271  owner() == _msgSender() */\n      0xffffffffffffffffffffffffffffffffffffffff\n      and\n        /* \"@openzeppelin/contracts/access/Ownable.sol\":1248:1255  owner() */\n      tag_112\n        /* \"@openzeppelin/contracts/access/Ownable.sol\":1248:1253  owner */\n      tag_37\n        /* \"@openzeppelin/contracts/access/Ownable.sol\":1248:1255  owner() */\n      jump\t// in\n    tag_112:\n        /* \"@openzeppelin/contracts/access/Ownable.sol\":1248:1271  owner() == _msgSender() */\n      0xffffffffffffffffffffffffffffffffffffffff\n      and\n      eq\n        /* \"@openzeppelin/contracts/access/Ownable.sol\":1240:1308  require(owner() == _msgSender(), \"Ownable: caller is not the owner\") */\n      tag_113\n      jumpi\n      mload(0x40)\n      0x08c379a000000000000000000000000000000000000000000000000000000000\n      dup2\n      mstore\n      0x04\n      add\n      tag_114\n      swap1\n      tag_82\n      jump\t// in\n    tag_114:\n      mload(0x40)\n      dup1\n      swap2\n      sub\n      swap1\n      revert\n    tag_113:\n        /* \"contracts/MTMSAirdrop.sol\":1297:1305  _amounts */\n      dup2\n        /* \"contracts/MTMSAirdrop.sol\":1297:1312  _amounts.length */\n      mload\n        /* \"contracts/MTMSAirdrop.sol\":1275:1286  _recipients */\n      dup4\n        /* \"contracts/MTMSAirdrop.sol\":1275:1293  _recipients.length */\n      mload\n        /* \"contracts/MTMSAirdrop.sol\":1275:1312  _recipients.length == _amounts.length */\n      eq\n        /* \"contracts/MTMSAirdrop.sol\":1267:1335  require(_recipients.length == _amounts.length, \"Mismatching inputs\") */\n      tag_116\n      jumpi\n      mload(0x40)\n      0x08c379a000000000000000000000000000000000000000000000000000000000\n      dup2\n      mstore\n      0x04\n      add\n      tag_117\n      swap1\n      tag_91\n      jump\t// in\n    tag_117:\n      mload(0x40)\n      dup1\n      swap2\n      sub\n      swap1\n      revert\n    tag_116:\n        /* \"contracts/MTMSAirdrop.sol\":1346:1413  token.safeTransferFrom(msg.sender, address(this), _totalAllocation) */\n      tag_118\n        /* \"contracts/MTMSAirdrop.sol\":1369:1379  msg.sender */\n      caller\n        /* \"contracts/MTMSAirdrop.sol\":1389:1393  this */\n      address\n        /* \"contracts/MTMSAirdrop.sol\":1396:1412  _totalAllocation */\n      dup4\n        /* \"contracts/MTMSAirdrop.sol\":1346:1351  token */\n      0x01\n      0x00\n      swap1\n      sload\n      swap1\n      0x0100\n      exp\n      swap1\n      div\n      0xffffffffffffffffffffffffffffffffffffffff\n      and\n        /* \"contracts/MTMSAirdrop.sol\":1346:1368  token.safeTransferFrom */\n      0xffffffffffffffffffffffffffffffffffffffff\n      and\n      tag_119\n      swap1\n        /* \"contracts/MTMSAirdrop.sol\":1346:1413  token.safeTransferFrom(msg.sender, address(this), _totalAllocation) */\n      swap4\n      swap3\n      swap2\n      swap1\n      0xffffffff\n      and\n      jump\t// in\n    tag_118:\n        /* \"contracts/MTMSAirdrop.sol\":1430:1436  uint i */\n      0x00\n        /* \"contracts/MTMSAirdrop.sol\":1426:1536  for(uint i=0; i < _recipients.length; i++){\r... */\n    tag_120:\n        /* \"contracts/MTMSAirdrop.sol\":1444:1455  _recipients */\n      dup4\n        /* \"contracts/MTMSAirdrop.sol\":1444:1462  _recipients.length */\n      mload\n        /* \"contracts/MTMSAirdrop.sol\":1440:1441  i */\n      dup2\n        /* \"contracts/MTMSAirdrop.sol\":1440:1462  i < _recipients.length */\n      lt\n        /* \"contracts/MTMSAirdrop.sol\":1426:1536  for(uint i=0; i < _recipients.length; i++){\r... */\n      iszero\n      tag_121\n      jumpi\n        /* \"contracts/MTMSAirdrop.sol\":1513:1521  _amounts */\n      dup3\n        /* \"contracts/MTMSAirdrop.sol\":1522:1523  i */\n      dup2\n        /* \"contracts/MTMSAirdrop.sol\":1513:1524  _amounts[i] */\n      dup2\n      mload\n      dup2\n      lt\n      tag_123\n      jumpi\n      tag_124\n      tag_98\n      jump\t// in\n    tag_124:\n    tag_123:\n      0x20\n      mul\n      0x20\n      add\n      add\n      mload\n        /* \"contracts/MTMSAirdrop.sol\":1484:1494  recipients */\n      0x02\n        /* \"contracts/MTMSAirdrop.sol\":1484:1510  recipients[_recipients[i]] */\n      0x00\n        /* \"contracts/MTMSAirdrop.sol\":1495:1506  _recipients */\n      dup7\n        /* \"contracts/MTMSAirdrop.sol\":1507:1508  i */\n      dup5\n        /* \"contracts/MTMSAirdrop.sol\":1495:1509  _recipients[i] */\n      dup2\n      mload\n      dup2\n      lt\n      tag_125\n      jumpi\n      tag_126\n      tag_98\n      jump\t// in\n    tag_126:\n    tag_125:\n      0x20\n      mul\n      0x20\n      add\n      add\n      mload\n        /* \"contracts/MTMSAirdrop.sol\":1484:1510  recipients[_recipients[i]] */\n      0xffffffffffffffffffffffffffffffffffffffff\n      and\n      0xffffffffffffffffffffffffffffffffffffffff\n      and\n      dup2\n      mstore\n      0x20\n      add\n      swap1\n      dup2\n      mstore\n      0x20\n      add\n      0x00\n      keccak256\n        /* \"contracts/MTMSAirdrop.sol\":1484:1524  recipients[_recipients[i]] = _amounts[i] */\n      dup2\n      swap1\n      sstore\n      pop\n        /* \"contracts/MTMSAirdrop.sol\":1464:1467  i++ */\n      dup1\n      dup1\n      tag_127\n      swap1\n      tag_108\n      jump\t// in\n    tag_127:\n      swap2\n      pop\n      pop\n        /* \"contracts/MTMSAirdrop.sol\":1426:1536  for(uint i=0; i < _recipients.length; i++){\r... */\n      jump(tag_120)\n    tag_121:\n      pop\n        /* \"contracts/MTMSAirdrop.sol\":1106:1543  function seedNewAllocations(address[] memory _recipients,uint256[] memory _amounts, uint256 _totalAllocation)\r... */\n      pop\n      pop\n      pop\n      jump\t// out\n        /* \"contracts/MTMSAirdrop.sol\":1551:1733  function expireTranche(uint256 _trancheId)\r... */\n    tag_50:\n        /* \"@openzeppelin/contracts/access/Ownable.sol\":1259:1271  _msgSender() */\n      tag_129\n        /* \"@openzeppelin/contracts/access/Ownable.sol\":1259:1269  _msgSender */\n      tag_78\n        /* \"@openzeppelin/contracts/access/Ownable.sol\":1259:1271  _msgSender() */\n      jump\t// in\n    tag_129:\n        /* \"@openzeppelin/contracts/access/Ownable.sol\":1248:1271  owner() == _msgSender() */\n      0xffffffffffffffffffffffffffffffffffffffff\n      and\n        /* \"@openzeppelin/contracts/access/Ownable.sol\":1248:1255  owner() */\n      tag_130\n        /* \"@openzeppelin/contracts/access/Ownable.sol\":1248:1253  owner */\n      tag_37\n        /* \"@openzeppelin/contracts/access/Ownable.sol\":1248:1255  owner() */\n      jump\t// in\n    tag_130:\n        /* \"@openzeppelin/contracts/access/Ownable.sol\":1248:1271  owner() == _msgSender() */\n      0xffffffffffffffffffffffffffffffffffffffff\n      and\n      eq\n        /* \"@openzeppelin/contracts/access/Ownable.sol\":1240:1308  require(owner() == _msgSender(), \"Ownable: caller is not the owner\") */\n      tag_131\n      jumpi\n      mload(0x40)\n      0x08c379a000000000000000000000000000000000000000000000000000000000\n      dup2\n      mstore\n      0x04\n      add\n      tag_132\n      swap1\n      tag_82\n      jump\t// in\n    tag_132:\n      mload(0x40)\n      dup1\n      swap2\n      sub\n      swap1\n      revert\n    tag_131:\n        /* \"contracts/MTMSAirdrop.sol\":1679:1680  0 */\n      0x00\n        /* \"contracts/MTMSAirdrop.sol\":1671:1681  bytes32(0) */\n      dup1\n      shl\n        /* \"contracts/MTMSAirdrop.sol\":1645:1656  merkleRoots */\n      0x03\n        /* \"contracts/MTMSAirdrop.sol\":1645:1668  merkleRoots[_trancheId] */\n      0x00\n        /* \"contracts/MTMSAirdrop.sol\":1657:1667  _trancheId */\n      dup4\n        /* \"contracts/MTMSAirdrop.sol\":1645:1668  merkleRoots[_trancheId] */\n      dup2\n      mstore\n      0x20\n      add\n      swap1\n      dup2\n      mstore\n      0x20\n      add\n      0x00\n      keccak256\n        /* \"contracts/MTMSAirdrop.sol\":1645:1681  merkleRoots[_trancheId] = bytes32(0) */\n      dup2\n      swap1\n      sstore\n      pop\n        /* \"contracts/MTMSAirdrop.sol\":1699:1725  TrancheExpired(_trancheId) */\n      0xcc071cbd9ae50a4c78d1153b76bd2d46ba8d4c7662842718ec3de1d67a144daf\n        /* \"contracts/MTMSAirdrop.sol\":1714:1724  _trancheId */\n      dup2\n        /* \"contracts/MTMSAirdrop.sol\":1699:1725  TrancheExpired(_trancheId) */\n      mload(0x40)\n      tag_134\n      swap2\n      swap1\n      tag_60\n      jump\t// in\n    tag_134:\n      mload(0x40)\n      dup1\n      swap2\n      sub\n      swap1\n      log1\n        /* \"contracts/MTMSAirdrop.sol\":1551:1733  function expireTranche(uint256 _trancheId)\r... */\n      pop\n      jump\t// out\n        /* \"contracts/MTMSAirdrop.sol\":2716:3032  function verifyClaim(\r... */\n    tag_53:\n        /* \"contracts/MTMSAirdrop.sol\":2923:2933  bool valid */\n      0x00\n        /* \"contracts/MTMSAirdrop.sol\":2958:3024  _verifyClaim(_liquidityProvider, _tranche, _balance, _merkleProof) */\n      tag_136\n        /* \"contracts/MTMSAirdrop.sol\":2971:2989  _liquidityProvider */\n      dup6\n        /* \"contracts/MTMSAirdrop.sol\":2991:2999  _tranche */\n      dup6\n        /* \"contracts/MTMSAirdrop.sol\":3001:3009  _balance */\n      dup6\n        /* \"contracts/MTMSAirdrop.sol\":3011:3023  _merkleProof */\n      dup6\n        /* \"contracts/MTMSAirdrop.sol\":2958:2970  _verifyClaim */\n      tag_137\n        /* \"contracts/MTMSAirdrop.sol\":2958:3024  _verifyClaim(_liquidityProvider, _tranche, _balance, _merkleProof) */\n      jump\t// in\n    tag_136:\n        /* \"contracts/MTMSAirdrop.sol\":2951:3024  return _verifyClaim(_liquidityProvider, _tranche, _balance, _merkleProof) */\n      swap1\n      pop\n        /* \"contracts/MTMSAirdrop.sol\":2716:3032  function verifyClaim(\r... */\n      swap5\n      swap4\n      pop\n      pop\n      pop\n      pop\n      jump\t// out\n        /* \"contracts/MTMSAirdrop.sol\":826:871  mapping(address => uint256) public recipients */\n    tag_58:\n      mstore(0x20, 0x02)\n      dup1\n      0x00\n      mstore\n      keccak256(0x00, 0x40)\n      0x00\n      swap2\n      pop\n      swap1\n      pop\n      sload\n      dup2\n      jump\t// out\n        /* \"contracts/MTMSAirdrop.sol\":999:1022  uint256 public tranches */\n    tag_62:\n      sload(0x05)\n      dup2\n      jump\t// out\n        /* \"@openzeppelin/contracts/access/Ownable.sol\":1918:2116  function transferOwnership(address newOwner) public virtual onlyOwner {... */\n    tag_66:\n        /* \"@openzeppelin/contracts/access/Ownable.sol\":1259:1271  _msgSender() */\n      tag_139\n        /* \"@openzeppelin/contracts/access/Ownable.sol\":1259:1269  _msgSender */\n      tag_78\n        /* \"@openzeppelin/contracts/access/Ownable.sol\":1259:1271  _msgSender() */\n      jump\t// in\n    tag_139:\n        /* \"@openzeppelin/contracts/access/Ownable.sol\":1248:1271  owner() == _msgSender() */\n      0xffffffffffffffffffffffffffffffffffffffff\n      and\n        /* \"@openzeppelin/contracts/access/Ownable.sol\":1248:1255  owner() */\n      tag_140\n        /* \"@openzeppelin/contracts/access/Ownable.sol\":1248:1253  owner */\n      tag_37\n        /* \"@openzeppelin/contracts/access/Ownable.sol\":1248:1255  owner() */\n      jump\t// in\n    tag_140:\n        /* \"@openzeppelin/contracts/access/Ownable.sol\":1248:1271  owner() == _msgSender() */\n      0xffffffffffffffffffffffffffffffffffffffff\n      and\n      eq\n        /* \"@openzeppelin/contracts/access/Ownable.sol\":1240:1308  require(owner() == _msgSender(), \"Ownable: caller is not the owner\") */\n      tag_141\n      jumpi\n      mload(0x40)\n      0x08c379a000000000000000000000000000000000000000000000000000000000\n      dup2\n      mstore\n      0x04\n      add\n      tag_142\n      swap1\n      tag_82\n      jump\t// in\n    tag_142:\n      mload(0x40)\n      dup1\n      swap2\n      sub\n      swap1\n      revert\n    tag_141:\n        /* \"@openzeppelin/contracts/access/Ownable.sol\":2026:2027  0 */\n      0x00\n        /* \"@openzeppelin/contracts/access/Ownable.sol\":2006:2028  newOwner != address(0) */\n      0xffffffffffffffffffffffffffffffffffffffff\n      and\n        /* \"@openzeppelin/contracts/access/Ownable.sol\":2006:2014  newOwner */\n      dup2\n        /* \"@openzeppelin/contracts/access/Ownable.sol\":2006:2028  newOwner != address(0) */\n      0xffffffffffffffffffffffffffffffffffffffff\n      and\n      eq\n      iszero\n        /* \"@openzeppelin/contracts/access/Ownable.sol\":1998:2071  require(newOwner != address(0), \"Ownable: new owner is the zero address\") */\n      tag_144\n      jumpi\n      mload(0x40)\n      0x08c379a000000000000000000000000000000000000000000000000000000000\n      dup2\n      mstore\n      0x04\n      add\n      tag_145\n      swap1\n      tag_146\n      jump\t// in\n    tag_145:\n      mload(0x40)\n      dup1\n      swap2\n      sub\n      swap1\n      revert\n    tag_144:\n        /* \"@openzeppelin/contracts/access/Ownable.sol\":2081:2109  _transferOwnership(newOwner) */\n      tag_147\n        /* \"@openzeppelin/contracts/access/Ownable.sol\":2100:2108  newOwner */\n      dup2\n        /* \"@openzeppelin/contracts/access/Ownable.sol\":2081:2099  _transferOwnership */\n      tag_85\n        /* \"@openzeppelin/contracts/access/Ownable.sol\":2081:2109  _transferOwnership(newOwner) */\n      jump\t// in\n    tag_147:\n        /* \"@openzeppelin/contracts/access/Ownable.sol\":1918:2116  function transferOwnership(address newOwner) public virtual onlyOwner {... */\n      pop\n      jump\t// out\n        /* \"contracts/MTMSAirdrop.sol\":798:817  IERC20 public token */\n    tag_68:\n      0x01\n      0x00\n      swap1\n      sload\n      swap1\n      0x0100\n      exp\n      swap1\n      div\n      0xffffffffffffffffffffffffffffffffffffffff\n      and\n      dup2\n      jump\t// out\n        /* \"contracts/MTMSAirdrop.sol\":3040:3619  function _claimWeek(\r... */\n    tag_73:\n        /* \"contracts/MTMSAirdrop.sol\":3250:3258  tranches */\n      sload(0x05)\n        /* \"contracts/MTMSAirdrop.sol\":3239:3247  _tranche */\n      dup4\n        /* \"contracts/MTMSAirdrop.sol\":3239:3258  _tranche < tranches */\n      lt\n        /* \"contracts/MTMSAirdrop.sol\":3231:3291  require(_tranche < tranches, \"Week cannot be in the future\") */\n      tag_149\n      jumpi\n      mload(0x40)\n      0x08c379a000000000000000000000000000000000000000000000000000000000\n      dup2\n      mstore\n      0x04\n      add\n      tag_150\n      swap1\n      tag_151\n      jump\t// in\n    tag_150:\n      mload(0x40)\n      dup1\n      swap2\n      sub\n      swap1\n      revert\n    tag_149:\n        /* \"contracts/MTMSAirdrop.sol\":3313:3320  claimed */\n      0x04\n        /* \"contracts/MTMSAirdrop.sol\":3313:3330  claimed[_tranche] */\n      0x00\n        /* \"contracts/MTMSAirdrop.sol\":3321:3329  _tranche */\n      dup5\n        /* \"contracts/MTMSAirdrop.sol\":3313:3330  claimed[_tranche] */\n      dup2\n      mstore\n      0x20\n      add\n      swap1\n      dup2\n      mstore\n      0x20\n      add\n      0x00\n      keccak256\n        /* \"contracts/MTMSAirdrop.sol\":3313:3350  claimed[_tranche][_liquidityProvider] */\n      0x00\n        /* \"contracts/MTMSAirdrop.sol\":3331:3349  _liquidityProvider */\n      dup6\n        /* \"contracts/MTMSAirdrop.sol\":3313:3350  claimed[_tranche][_liquidityProvider] */\n      0xffffffffffffffffffffffffffffffffffffffff\n      and\n      0xffffffffffffffffffffffffffffffffffffffff\n      and\n      dup2\n      mstore\n      0x20\n      add\n      swap1\n      dup2\n      mstore\n      0x20\n      add\n      0x00\n      keccak256\n      0x00\n      swap1\n      sload\n      swap1\n      0x0100\n      exp\n      swap1\n      div\n      0xff\n      and\n        /* \"contracts/MTMSAirdrop.sol\":3312:3350  !claimed[_tranche][_liquidityProvider] */\n      iszero\n        /* \"contracts/MTMSAirdrop.sol\":3304:3377  require(!claimed[_tranche][_liquidityProvider], \"LP has already claimed\") */\n      tag_152\n      jumpi\n      mload(0x40)\n      0x08c379a000000000000000000000000000000000000000000000000000000000\n      dup2\n      mstore\n      0x04\n      add\n      tag_153\n      swap1\n      tag_154\n      jump\t// in\n    tag_153:\n      mload(0x40)\n      dup1\n      swap2\n      sub\n      swap1\n      revert\n    tag_152:\n        /* \"contracts/MTMSAirdrop.sol\":3396:3462  _verifyClaim(_liquidityProvider, _tranche, _balance, _merkleProof) */\n      tag_155\n        /* \"contracts/MTMSAirdrop.sol\":3409:3427  _liquidityProvider */\n      dup5\n        /* \"contracts/MTMSAirdrop.sol\":3429:3437  _tranche */\n      dup5\n        /* \"contracts/MTMSAirdrop.sol\":3439:3447  _balance */\n      dup5\n        /* \"contracts/MTMSAirdrop.sol\":3449:3461  _merkleProof */\n      dup5\n        /* \"contracts/MTMSAirdrop.sol\":3396:3408  _verifyClaim */\n      tag_137\n        /* \"contracts/MTMSAirdrop.sol\":3396:3462  _verifyClaim(_liquidityProvider, _tranche, _balance, _merkleProof) */\n      jump\t// in\n    tag_155:\n        /* \"contracts/MTMSAirdrop.sol\":3388:3489  require(_verifyClaim(_liquidityProvider, _tranche, _balance, _merkleProof), \"Incorrect merkle proof\") */\n      tag_156\n      jumpi\n      mload(0x40)\n      0x08c379a000000000000000000000000000000000000000000000000000000000\n      dup2\n      mstore\n      0x04\n      add\n      tag_157\n      swap1\n      tag_158\n      jump\t// in\n    tag_157:\n      mload(0x40)\n      dup1\n      swap2\n      sub\n      swap1\n      revert\n    tag_156:\n        /* \"contracts/MTMSAirdrop.sol\":3542:3546  true */\n      0x01\n        /* \"contracts/MTMSAirdrop.sol\":3502:3509  claimed */\n      0x04\n        /* \"contracts/MTMSAirdrop.sol\":3502:3519  claimed[_tranche] */\n      0x00\n        /* \"contracts/MTMSAirdrop.sol\":3510:3518  _tranche */\n      dup6\n        /* \"contracts/MTMSAirdrop.sol\":3502:3519  claimed[_tranche] */\n      dup2\n      mstore\n      0x20\n      add\n      swap1\n      dup2\n      mstore\n      0x20\n      add\n      0x00\n      keccak256\n        /* \"contracts/MTMSAirdrop.sol\":3502:3539  claimed[_tranche][_liquidityProvider] */\n      0x00\n        /* \"contracts/MTMSAirdrop.sol\":3520:3538  _liquidityProvider */\n      dup7\n        /* \"contracts/MTMSAirdrop.sol\":3502:3539  claimed[_tranche][_liquidityProvider] */\n      0xffffffffffffffffffffffffffffffffffffffff\n      and\n      0xffffffffffffffffffffffffffffffffffffffff\n      and\n      dup2\n      mstore\n      0x20\n      add\n      swap1\n      dup2\n      mstore\n      0x20\n      add\n      0x00\n      keccak256\n      0x00\n        /* \"contracts/MTMSAirdrop.sol\":3502:3546  claimed[_tranche][_liquidityProvider] = true */\n      0x0100\n      exp\n      dup2\n      sload\n      dup2\n      0xff\n      mul\n      not\n      and\n      swap1\n      dup4\n      iszero\n      iszero\n      mul\n      or\n      swap1\n      sstore\n      pop\n        /* \"contracts/MTMSAirdrop.sol\":3564:3611  Claimed(_liquidityProvider, _tranche, _balance) */\n      0x987d620f307ff6b94d58743cb7a7509f24071586a77759b77c2d4e29f75a2f9a\n        /* \"contracts/MTMSAirdrop.sol\":3572:3590  _liquidityProvider */\n      dup5\n        /* \"contracts/MTMSAirdrop.sol\":3592:3600  _tranche */\n      dup5\n        /* \"contracts/MTMSAirdrop.sol\":3602:3610  _balance */\n      dup5\n        /* \"contracts/MTMSAirdrop.sol\":3564:3611  Claimed(_liquidityProvider, _tranche, _balance) */\n      mload(0x40)\n      tag_159\n      swap4\n      swap3\n      swap2\n      swap1\n      tag_160\n      jump\t// in\n    tag_159:\n      mload(0x40)\n      dup1\n      swap2\n      sub\n      swap1\n      log1\n        /* \"contracts/MTMSAirdrop.sol\":3040:3619  function _claimWeek(\r... */\n      pop\n      pop\n      pop\n      pop\n      jump\t// out\n        /* \"contracts/MTMSAirdrop.sol\":4035:4323  function _disburse(address _liquidityProvider, uint256 _balance) private {\r... */\n    tag_75:\n        /* \"contracts/MTMSAirdrop.sol\":4134:4135  0 */\n      0x00\n        /* \"contracts/MTMSAirdrop.sol\":4123:4131  _balance */\n      dup2\n        /* \"contracts/MTMSAirdrop.sol\":4123:4135  _balance > 0 */\n      gt\n        /* \"contracts/MTMSAirdrop.sol\":4119:4316  if (_balance > 0) {\r... */\n      iszero\n      tag_162\n      jumpi\n        /* \"contracts/MTMSAirdrop.sol\":4152:4200  token.safeTransfer(_liquidityProvider, _balance) */\n      tag_163\n        /* \"contracts/MTMSAirdrop.sol\":4171:4189  _liquidityProvider */\n      dup3\n        /* \"contracts/MTMSAirdrop.sol\":4191:4199  _balance */\n      dup3\n        /* \"contracts/MTMSAirdrop.sol\":4152:4157  token */\n      0x01\n      0x00\n      swap1\n      sload\n      swap1\n      0x0100\n      exp\n      swap1\n      div\n      0xffffffffffffffffffffffffffffffffffffffff\n      and\n        /* \"contracts/MTMSAirdrop.sol\":4152:4170  token.safeTransfer */\n      0xffffffffffffffffffffffffffffffffffffffff\n      and\n      tag_164\n      swap1\n        /* \"contracts/MTMSAirdrop.sol\":4152:4200  token.safeTransfer(_liquidityProvider, _balance) */\n      swap3\n      swap2\n      swap1\n      0xffffffff\n      and\n      jump\t// in\n    tag_163:\n        /* \"contracts/MTMSAirdrop.sol\":4119:4316  if (_balance > 0) {\r... */\n      jump(tag_165)\n    tag_162:\n        /* \"contracts/MTMSAirdrop.sol\":4233:4304  revert(\"No balance would be transferred - not going to waste your gas\") */\n      mload(0x40)\n      0x08c379a000000000000000000000000000000000000000000000000000000000\n      dup2\n      mstore\n      0x04\n      add\n      tag_166\n      swap1\n      tag_167\n      jump\t// in\n    tag_166:\n      mload(0x40)\n      dup1\n      swap2\n      sub\n      swap1\n      revert\n        /* \"contracts/MTMSAirdrop.sol\":4119:4316  if (_balance > 0) {\r... */\n    tag_165:\n        /* \"contracts/MTMSAirdrop.sol\":4035:4323  function _disburse(address _liquidityProvider, uint256 _balance) private {\r... */\n      pop\n      pop\n      jump\t// out\n        /* \"@openzeppelin/contracts/utils/Context.sol\":640:736  function _msgSender() internal view virtual returns (address) {... */\n    tag_78:\n        /* \"@openzeppelin/contracts/utils/Context.sol\":693:700  address */\n      0x00\n        /* \"@openzeppelin/contracts/utils/Context.sol\":719:729  msg.sender */\n      caller\n        /* \"@openzeppelin/contracts/utils/Context.sol\":712:729  return msg.sender */\n      swap1\n      pop\n        /* \"@openzeppelin/contracts/utils/Context.sol\":640:736  function _msgSender() internal view virtual returns (address) {... */\n      swap1\n      jump\t// out\n        /* \"@openzeppelin/contracts/access/Ownable.sol\":2270:2457  function _transferOwnership(address newOwner) internal virtual {... */\n    tag_85:\n        /* \"@openzeppelin/contracts/access/Ownable.sol\":2343:2359  address oldOwner */\n      0x00\n        /* \"@openzeppelin/contracts/access/Ownable.sol\":2362:2368  _owner */\n      dup1\n      0x00\n      swap1\n      sload\n      swap1\n      0x0100\n      exp\n      swap1\n      div\n      0xffffffffffffffffffffffffffffffffffffffff\n      and\n        /* \"@openzeppelin/contracts/access/Ownable.sol\":2343:2368  address oldOwner = _owner */\n      swap1\n      pop\n        /* \"@openzeppelin/contracts/access/Ownable.sol\":2387:2395  newOwner */\n      dup2\n        /* \"@openzeppelin/contracts/access/Ownable.sol\":2378:2384  _owner */\n      0x00\n      dup1\n        /* \"@openzeppelin/contracts/access/Ownable.sol\":2378:2395  _owner = newOwner */\n      0x0100\n      exp\n      dup2\n      sload\n      dup2\n      0xffffffffffffffffffffffffffffffffffffffff\n      mul\n      not\n      and\n      swap1\n      dup4\n      0xffffffffffffffffffffffffffffffffffffffff\n      and\n      mul\n      or\n      swap1\n      sstore\n      pop\n        /* \"@openzeppelin/contracts/access/Ownable.sol\":2441:2449  newOwner */\n      dup2\n        /* \"@openzeppelin/contracts/access/Ownable.sol\":2410:2450  OwnershipTransferred(oldOwner, newOwner) */\n      0xffffffffffffffffffffffffffffffffffffffff\n      and\n        /* \"@openzeppelin/contracts/access/Ownable.sol\":2431:2439  oldOwner */\n      dup2\n        /* \"@openzeppelin/contracts/access/Ownable.sol\":2410:2450  OwnershipTransferred(oldOwner, newOwner) */\n      0xffffffffffffffffffffffffffffffffffffffff\n      and\n      0x8be0079c531659141344cd1fd0a4f28419497f9722a3daafe3b4186f6b6457e0\n      mload(0x40)\n      mload(0x40)\n      dup1\n      swap2\n      sub\n      swap1\n      log3\n        /* \"@openzeppelin/contracts/access/Ownable.sol\":2333:2457  {... */\n      pop\n        /* \"@openzeppelin/contracts/access/Ownable.sol\":2270:2457  function _transferOwnership(address newOwner) internal virtual {... */\n      pop\n      jump\t// out\n        /* \"@openzeppelin/contracts/utils/math/SafeMath.sol\":2741:2837  function add(uint256 a, uint256 b) internal pure returns (uint256) {... */\n    tag_106:\n        /* \"@openzeppelin/contracts/utils/math/SafeMath.sol\":2799:2806  uint256 */\n      0x00\n        /* \"@openzeppelin/contracts/utils/math/SafeMath.sol\":2829:2830  b */\n      dup2\n        /* \"@openzeppelin/contracts/utils/math/SafeMath.sol\":2825:2826  a */\n      dup4\n        /* \"@openzeppelin/contracts/utils/math/SafeMath.sol\":2825:2830  a + b */\n      tag_171\n      swap2\n      swap1\n      tag_172\n      jump\t// in\n    tag_171:\n        /* \"@openzeppelin/contracts/utils/math/SafeMath.sol\":2818:2830  return a + b */\n      swap1\n      pop\n        /* \"@openzeppelin/contracts/utils/math/SafeMath.sol\":2741:2837  function add(uint256 a, uint256 b) internal pure returns (uint256) {... */\n      swap3\n      swap2\n      pop\n      pop\n      jump\t// out\n        /* \"@openzeppelin/contracts/token/ERC20/utils/SafeERC20.sol\":912:1153  function safeTransferFrom(... */\n    tag_119:\n        /* \"@openzeppelin/contracts/token/ERC20/utils/SafeERC20.sol\":1050:1146  _callOptionalReturn(token, abi.encodeWithSelector(token.transferFrom.selector, from, to, value)) */\n      tag_174\n        /* \"@openzeppelin/contracts/token/ERC20/utils/SafeERC20.sol\":1070:1075  token */\n      dup5\n        /* \"@openzeppelin/contracts/token/ERC20/utils/SafeERC20.sol\":1100:1127  token.transferFrom.selector */\n      shl(0xe0, 0x23b872dd)\n        /* \"@openzeppelin/contracts/token/ERC20/utils/SafeERC20.sol\":1129:1133  from */\n      dup6\n        /* \"@openzeppelin/contracts/token/ERC20/utils/SafeERC20.sol\":1135:1137  to */\n      dup6\n        /* \"@openzeppelin/contracts/token/ERC20/utils/SafeERC20.sol\":1139:1144  value */\n      dup6\n        /* \"@openzeppelin/contracts/token/ERC20/utils/SafeERC20.sol\":1077:1145  abi.encodeWithSelector(token.transferFrom.selector, from, to, value) */\n      add(0x24, mload(0x40))\n      tag_175\n      swap4\n      swap3\n      swap2\n      swap1\n      tag_176\n      jump\t// in\n    tag_175:\n      mload(0x40)\n      0x20\n      dup2\n      dup4\n      sub\n      sub\n      dup2\n      mstore\n      swap1\n      0x40\n      mstore\n      swap1\n      not(0xffffffffffffffffffffffffffffffffffffffffffffffffffffffff)\n      and\n      0x20\n      dup3\n      add\n      dup1\n      mload\n      0xffffffffffffffffffffffffffffffffffffffffffffffffffffffff\n      dup4\n      dup2\n      dup4\n      and\n      or\n      dup4\n      mstore\n      pop\n      pop\n      pop\n      pop\n        /* \"@openzeppelin/contracts/token/ERC20/utils/SafeERC20.sol\":1050:1069  _callOptionalReturn */\n      tag_177\n        /* \"@openzeppelin/contracts/token/ERC20/utils/SafeERC20.sol\":1050:1146  _callOptionalReturn(token, abi.encodeWithSelector(token.transferFrom.selector, from, to, value)) */\n      jump\t// in\n    tag_174:\n        /* \"@openzeppelin/contracts/token/ERC20/utils/SafeERC20.sol\":912:1153  function safeTransferFrom(... */\n      pop\n      pop\n      pop\n      pop\n      jump\t// out\n        /* \"contracts/MTMSAirdrop.sol\":3629:4025  function _verifyClaim(\r... */\n    tag_137:\n        /* \"contracts/MTMSAirdrop.sol\":3838:3848  bool valid */\n      0x00\n        /* \"contracts/MTMSAirdrop.sol\":3866:3878  bytes32 leaf */\n      dup1\n        /* \"contracts/MTMSAirdrop.sol\":3908:3926  _liquidityProvider */\n      dup6\n        /* \"contracts/MTMSAirdrop.sol\":3928:3936  _balance */\n      dup5\n        /* \"contracts/MTMSAirdrop.sol\":3891:3937  abi.encodePacked(_liquidityProvider, _balance) */\n      add(0x20, mload(0x40))\n      tag_179\n      swap3\n      swap2\n      swap1\n      tag_180\n      jump\t// in\n    tag_179:\n      mload(0x40)\n      0x20\n      dup2\n      dup4\n      sub\n      sub\n      dup2\n      mstore\n      swap1\n      0x40\n      mstore\n        /* \"contracts/MTMSAirdrop.sol\":3881:3938  keccak256(abi.encodePacked(_liquidityProvider, _balance)) */\n      dup1\n      mload\n      swap1\n      0x20\n      add\n      keccak256\n        /* \"contracts/MTMSAirdrop.sol\":3866:3938  bytes32 leaf = keccak256(abi.encodePacked(_liquidityProvider, _balance)) */\n      swap1\n      pop\n        /* \"contracts/MTMSAirdrop.sol\":3956:4017  MerkleProof.verify(_merkleProof, merkleRoots[_tranche], leaf) */\n      tag_181\n        /* \"contracts/MTMSAirdrop.sol\":3975:3987  _merkleProof */\n      dup4\n        /* \"contracts/MTMSAirdrop.sol\":3989:4000  merkleRoots */\n      0x03\n        /* \"contracts/MTMSAirdrop.sol\":3989:4010  merkleRoots[_tranche] */\n      0x00\n        /* \"contracts/MTMSAirdrop.sol\":4001:4009  _tranche */\n      dup9\n        /* \"contracts/MTMSAirdrop.sol\":3989:4010  merkleRoots[_tranche] */\n      dup2\n      mstore\n      0x20\n      add\n      swap1\n      dup2\n      mstore\n      0x20\n      add\n      0x00\n      keccak256\n      sload\n        /* \"contracts/MTMSAirdrop.sol\":4012:4016  leaf */\n      dup4\n        /* \"contracts/MTMSAirdrop.sol\":3956:3974  MerkleProof.verify */\n      tag_182\n        /* \"contracts/MTMSAirdrop.sol\":3956:4017  MerkleProof.verify(_merkleProof, merkleRoots[_tranche], leaf) */\n      jump\t// in\n    tag_181:\n        /* \"contracts/MTMSAirdrop.sol\":3949:4017  return MerkleProof.verify(_merkleProof, merkleRoots[_tranche], leaf) */\n      swap2\n      pop\n      pop\n        /* \"contracts/MTMSAirdrop.sol\":3629:4025  function _verifyClaim(\r... */\n      swap5\n      swap4\n      pop\n      pop\n      pop\n      pop\n      jump\t// out\n        /* \"@openzeppelin/contracts/token/ERC20/utils/SafeERC20.sol\":701:906  function safeTransfer(... */\n    tag_164:\n        /* \"@openzeppelin/contracts/token/ERC20/utils/SafeERC20.sol\":813:899  _callOptionalReturn(token, abi.encodeWithSelector(token.transfer.selector, to, value)) */\n      tag_184\n        /* \"@openzeppelin/contracts/token/ERC20/utils/SafeERC20.sol\":833:838  token */\n      dup4\n        /* \"@openzeppelin/contracts/token/ERC20/utils/SafeERC20.sol\":863:886  token.transfer.selector */\n      shl(0xe0, 0xa9059cbb)\n        /* \"@openzeppelin/contracts/token/ERC20/utils/SafeERC20.sol\":888:890  to */\n      dup5\n        /* \"@openzeppelin/contracts/token/ERC20/utils/SafeERC20.sol\":892:897  value */\n      dup5\n        /* \"@openzeppelin/contracts/token/ERC20/utils/SafeERC20.sol\":840:898  abi.encodeWithSelector(token.transfer.selector, to, value) */\n      add(0x24, mload(0x40))\n      tag_185\n      swap3\n      swap2\n      swap1\n      tag_186\n      jump\t// in\n    tag_185:\n      mload(0x40)\n      0x20\n      dup2\n      dup4\n      sub\n      sub\n      dup2\n      mstore\n      swap1\n      0x40\n      mstore\n      swap1\n      not(0xffffffffffffffffffffffffffffffffffffffffffffffffffffffff)\n      and\n      0x20\n      dup3\n      add\n      dup1\n      mload\n      0xffffffffffffffffffffffffffffffffffffffffffffffffffffffff\n      dup4\n      dup2\n      dup4\n      and\n      or\n      dup4\n      mstore\n      pop\n      pop\n      pop\n      pop\n        /* \"@openzeppelin/contracts/token/ERC20/utils/SafeERC20.sol\":813:832  _callOptionalReturn */\n      tag_177\n        /* \"@openzeppelin/contracts/token/ERC20/utils/SafeERC20.sol\":813:899  _callOptionalReturn(token, abi.encodeWithSelector(token.transfer.selector, to, value)) */\n      jump\t// in\n    tag_184:\n        /* \"@openzeppelin/contracts/token/ERC20/utils/SafeERC20.sol\":701:906  function safeTransfer(... */\n      pop\n      pop\n      pop\n      jump\t// out\n        /* \"@openzeppelin/contracts/token/ERC20/utils/SafeERC20.sol\":3207:3913  function _callOptionalReturn(IERC20 token, bytes memory data) private {... */\n    tag_177:\n        /* \"@openzeppelin/contracts/token/ERC20/utils/SafeERC20.sol\":3626:3649  bytes memory returndata */\n      0x00\n        /* \"@openzeppelin/contracts/token/ERC20/utils/SafeERC20.sol\":3652:3721  address(token).functionCall(data, \"SafeERC20: low-level call failed\") */\n      tag_188\n        /* \"@openzeppelin/contracts/token/ERC20/utils/SafeERC20.sol\":3680:3684  data */\n      dup3\n        /* \"@openzeppelin/contracts/token/ERC20/utils/SafeERC20.sol\":3652:3721  address(token).functionCall(data, \"SafeERC20: low-level call failed\") */\n      mload(0x40)\n      dup1\n      0x40\n      add\n      0x40\n      mstore\n      dup1\n      0x20\n      dup2\n      mstore\n      0x20\n      add\n      0x5361666545524332303a206c6f772d6c6576656c2063616c6c206661696c6564\n      dup2\n      mstore\n      pop\n        /* \"@openzeppelin/contracts/token/ERC20/utils/SafeERC20.sol\":3660:3665  token */\n      dup6\n        /* \"@openzeppelin/contracts/token/ERC20/utils/SafeERC20.sol\":3652:3679  address(token).functionCall */\n      0xffffffffffffffffffffffffffffffffffffffff\n      and\n      tag_189\n      swap1\n        /* \"@openzeppelin/contracts/token/ERC20/utils/SafeERC20.sol\":3652:3721  address(token).functionCall(data, \"SafeERC20: low-level call failed\") */\n      swap3\n      swap2\n      swap1\n      0xffffffff\n      and\n      jump\t// in\n    tag_188:\n        /* \"@openzeppelin/contracts/token/ERC20/utils/SafeERC20.sol\":3626:3721  bytes memory returndata = address(token).functionCall(data, \"SafeERC20: low-level call failed\") */\n      swap1\n      pop\n        /* \"@openzeppelin/contracts/token/ERC20/utils/SafeERC20.sol\":3755:3756  0 */\n      0x00\n        /* \"@openzeppelin/contracts/token/ERC20/utils/SafeERC20.sol\":3735:3745  returndata */\n      dup2\n        /* \"@openzeppelin/contracts/token/ERC20/utils/SafeERC20.sol\":3735:3752  returndata.length */\n      mload\n        /* \"@openzeppelin/contracts/token/ERC20/utils/SafeERC20.sol\":3735:3756  returndata.length > 0 */\n      gt\n        /* \"@openzeppelin/contracts/token/ERC20/utils/SafeERC20.sol\":3731:3907  if (returndata.length > 0) {... */\n      iszero\n      tag_190\n      jumpi\n        /* \"@openzeppelin/contracts/token/ERC20/utils/SafeERC20.sol\":3830:3840  returndata */\n      dup1\n        /* \"@openzeppelin/contracts/token/ERC20/utils/SafeERC20.sol\":3819:3849  abi.decode(returndata, (bool)) */\n      dup1\n      0x20\n      add\n      swap1\n      mload\n      dup2\n      add\n      swap1\n      tag_191\n      swap2\n      swap1\n      tag_192\n      jump\t// in\n    tag_191:\n        /* \"@openzeppelin/contracts/token/ERC20/utils/SafeERC20.sol\":3811:3896  require(abi.decode(returndata, (bool)), \"SafeERC20: ERC20 operation did not succeed\") */\n      tag_193\n      jumpi\n      mload(0x40)\n      0x08c379a000000000000000000000000000000000000000000000000000000000\n      dup2\n      mstore\n      0x04\n      add\n      tag_194\n      swap1\n      tag_195\n      jump\t// in\n    tag_194:\n      mload(0x40)\n      dup1\n      swap2\n      sub\n      swap1\n      revert\n    tag_193:\n        /* \"@openzeppelin/contracts/token/ERC20/utils/SafeERC20.sol\":3731:3907  if (returndata.length > 0) {... */\n    tag_190:\n        /* \"@openzeppelin/contracts/token/ERC20/utils/SafeERC20.sol\":3277:3913  {... */\n      pop\n        /* \"@openzeppelin/contracts/token/ERC20/utils/SafeERC20.sol\":3207:3913  function _callOptionalReturn(IERC20 token, bytes memory data) private {... */\n      pop\n      pop\n      jump\t// out\n        /* \"@openzeppelin/contracts/utils/cryptography/MerkleProof.sol\":862:1046  function verify(... */\n    tag_182:\n        /* \"@openzeppelin/contracts/utils/cryptography/MerkleProof.sol\":983:987  bool */\n      0x00\n        /* \"@openzeppelin/contracts/utils/cryptography/MerkleProof.sol\":1035:1039  root */\n      dup3\n        /* \"@openzeppelin/contracts/utils/cryptography/MerkleProof.sol\":1006:1031  processProof(proof, leaf) */\n      tag_197\n        /* \"@openzeppelin/contracts/utils/cryptography/MerkleProof.sol\":1019:1024  proof */\n      dup6\n        /* \"@openzeppelin/contracts/utils/cryptography/MerkleProof.sol\":1026:1030  leaf */\n      dup5\n        /* \"@openzeppelin/contracts/utils/cryptography/MerkleProof.sol\":1006:1018  processProof */\n      tag_198\n        /* \"@openzeppelin/contracts/utils/cryptography/MerkleProof.sol\":1006:1031  processProof(proof, leaf) */\n      jump\t// in\n    tag_197:\n        /* \"@openzeppelin/contracts/utils/cryptography/MerkleProof.sol\":1006:1039  processProof(proof, leaf) == root */\n      eq\n        /* \"@openzeppelin/contracts/utils/cryptography/MerkleProof.sol\":999:1039  return processProof(proof, leaf) == root */\n      swap1\n      pop\n        /* \"@openzeppelin/contracts/utils/cryptography/MerkleProof.sol\":862:1046  function verify(... */\n      swap4\n      swap3\n      pop\n      pop\n      pop\n      jump\t// out\n        /* \"@openzeppelin/contracts/utils/Address.sol\":3861:4084  function functionCall(... */\n    tag_189:\n        /* \"@openzeppelin/contracts/utils/Address.sol\":3994:4006  bytes memory */\n      0x60\n        /* \"@openzeppelin/contracts/utils/Address.sol\":4025:4077  functionCallWithValue(target, data, 0, errorMessage) */\n      tag_200\n        /* \"@openzeppelin/contracts/utils/Address.sol\":4047:4053  target */\n      dup5\n        /* \"@openzeppelin/contracts/utils/Address.sol\":4055:4059  data */\n      dup5\n        /* \"@openzeppelin/contracts/utils/Address.sol\":4061:4062  0 */\n      0x00\n        /* \"@openzeppelin/contracts/utils/Address.sol\":4064:4076  errorMessage */\n      dup6\n        /* \"@openzeppelin/contracts/utils/Address.sol\":4025:4046  functionCallWithValue */\n      tag_201\n        /* \"@openzeppelin/contracts/utils/Address.sol\":4025:4077  functionCallWithValue(target, data, 0, errorMessage) */\n      jump\t// in\n    tag_200:\n        /* \"@openzeppelin/contracts/utils/Address.sol\":4018:4077  return functionCallWithValue(target, data, 0, errorMessage) */\n      swap1\n      pop\n        /* \"@openzeppelin/contracts/utils/Address.sol\":3861:4084  function functionCall(... */\n      swap4\n      swap3\n      pop\n      pop\n      pop\n      jump\t// out\n        /* \"@openzeppelin/contracts/utils/cryptography/MerkleProof.sol\":1398:2060  function processProof(bytes32[] memory proof, bytes32 leaf) internal pure returns (bytes32) {... */\n    tag_198:\n        /* \"@openzeppelin/contracts/utils/cryptography/MerkleProof.sol\":1481:1488  bytes32 */\n      0x00\n        /* \"@openzeppelin/contracts/utils/cryptography/MerkleProof.sol\":1500:1520  bytes32 computedHash */\n      dup1\n        /* \"@openzeppelin/contracts/utils/cryptography/MerkleProof.sol\":1523:1527  leaf */\n      dup3\n        /* \"@openzeppelin/contracts/utils/cryptography/MerkleProof.sol\":1500:1527  bytes32 computedHash = leaf */\n      swap1\n      pop\n        /* \"@openzeppelin/contracts/utils/cryptography/MerkleProof.sol\":1542:1551  uint256 i */\n      0x00\n        /* \"@openzeppelin/contracts/utils/cryptography/MerkleProof.sol\":1537:2025  for (uint256 i = 0; i < proof.length; i++) {... */\n    tag_203:\n        /* \"@openzeppelin/contracts/utils/cryptography/MerkleProof.sol\":1561:1566  proof */\n      dup5\n        /* \"@openzeppelin/contracts/utils/cryptography/MerkleProof.sol\":1561:1573  proof.length */\n      mload\n        /* \"@openzeppelin/contracts/utils/cryptography/MerkleProof.sol\":1557:1558  i */\n      dup2\n        /* \"@openzeppelin/contracts/utils/cryptography/MerkleProof.sol\":1557:1573  i < proof.length */\n      lt\n        /* \"@openzeppelin/contracts/utils/cryptography/MerkleProof.sol\":1537:2025  for (uint256 i = 0; i < proof.length; i++) {... */\n      iszero\n      tag_204\n      jumpi\n        /* \"@openzeppelin/contracts/utils/cryptography/MerkleProof.sol\":1594:1614  bytes32 proofElement */\n      0x00\n        /* \"@openzeppelin/contracts/utils/cryptography/MerkleProof.sol\":1617:1622  proof */\n      dup6\n        /* \"@openzeppelin/contracts/utils/cryptography/MerkleProof.sol\":1623:1624  i */\n      dup3\n        /* \"@openzeppelin/contracts/utils/cryptography/MerkleProof.sol\":1617:1625  proof[i] */\n      dup2\n      mload\n      dup2\n      lt\n      tag_206\n      jumpi\n      tag_207\n      tag_98\n      jump\t// in\n    tag_207:\n    tag_206:\n      0x20\n      mul\n      0x20\n      add\n      add\n      mload\n        /* \"@openzeppelin/contracts/utils/cryptography/MerkleProof.sol\":1594:1625  bytes32 proofElement = proof[i] */\n      swap1\n      pop\n        /* \"@openzeppelin/contracts/utils/cryptography/MerkleProof.sol\":1659:1671  proofElement */\n      dup1\n        /* \"@openzeppelin/contracts/utils/cryptography/MerkleProof.sol\":1643:1655  computedHash */\n      dup4\n        /* \"@openzeppelin/contracts/utils/cryptography/MerkleProof.sol\":1643:1671  computedHash <= proofElement */\n      gt\n        /* \"@openzeppelin/contracts/utils/cryptography/MerkleProof.sol\":1639:2015  if (computedHash <= proofElement) {... */\n      tag_208\n      jumpi\n        /* \"@openzeppelin/contracts/utils/cryptography/MerkleProof.sol\":1784:1826  _efficientHash(computedHash, proofElement) */\n      tag_209\n        /* \"@openzeppelin/contracts/utils/cryptography/MerkleProof.sol\":1799:1811  computedHash */\n      dup4\n        /* \"@openzeppelin/contracts/utils/cryptography/MerkleProof.sol\":1813:1825  proofElement */\n      dup3\n        /* \"@openzeppelin/contracts/utils/cryptography/MerkleProof.sol\":1784:1798  _efficientHash */\n      tag_210\n        /* \"@openzeppelin/contracts/utils/cryptography/MerkleProof.sol\":1784:1826  _efficientHash(computedHash, proofElement) */\n      jump\t// in\n    tag_209:\n        /* \"@openzeppelin/contracts/utils/cryptography/MerkleProof.sol\":1769:1826  computedHash = _efficientHash(computedHash, proofElement) */\n      swap3\n      pop\n        /* \"@openzeppelin/contracts/utils/cryptography/MerkleProof.sol\":1639:2015  if (computedHash <= proofElement) {... */\n      jump(tag_211)\n    tag_208:\n        /* \"@openzeppelin/contracts/utils/cryptography/MerkleProof.sol\":1958:2000  _efficientHash(proofElement, computedHash) */\n      tag_212\n        /* \"@openzeppelin/contracts/utils/cryptography/MerkleProof.sol\":1973:1985  proofElement */\n      dup2\n        /* \"@openzeppelin/contracts/utils/cryptography/MerkleProof.sol\":1987:1999  computedHash */\n      dup5\n        /* \"@openzeppelin/contracts/utils/cryptography/MerkleProof.sol\":1958:1972  _efficientHash */\n      tag_210\n        /* \"@openzeppelin/contracts/utils/cryptography/MerkleProof.sol\":1958:2000  _efficientHash(proofElement, computedHash) */\n      jump\t// in\n    tag_212:\n        /* \"@openzeppelin/contracts/utils/cryptography/MerkleProof.sol\":1943:2000  computedHash = _efficientHash(proofElement, computedHash) */\n      swap3\n      pop\n        /* \"@openzeppelin/contracts/utils/cryptography/MerkleProof.sol\":1639:2015  if (computedHash <= proofElement) {... */\n    tag_211:\n        /* \"@openzeppelin/contracts/utils/cryptography/MerkleProof.sol\":1580:2025  {... */\n      pop\n        /* \"@openzeppelin/contracts/utils/cryptography/MerkleProof.sol\":1575:1578  i++ */\n      dup1\n      dup1\n      tag_213\n      swap1\n      tag_108\n      jump\t// in\n    tag_213:\n      swap2\n      pop\n      pop\n        /* \"@openzeppelin/contracts/utils/cryptography/MerkleProof.sol\":1537:2025  for (uint256 i = 0; i < proof.length; i++) {... */\n      jump(tag_203)\n    tag_204:\n      pop\n        /* \"@openzeppelin/contracts/utils/cryptography/MerkleProof.sol\":2041:2053  computedHash */\n      dup1\n        /* \"@openzeppelin/contracts/utils/cryptography/MerkleProof.sol\":2034:2053  return computedHash */\n      swap2\n      pop\n      pop\n        /* \"@openzeppelin/contracts/utils/cryptography/MerkleProof.sol\":1398:2060  function processProof(bytes32[] memory proof, bytes32 leaf) internal pure returns (bytes32) {... */\n      swap3\n      swap2\n      pop\n      pop\n      jump\t// out\n        /* \"@openzeppelin/contracts/utils/Address.sol\":4948:5447  function functionCallWithValue(... */\n    tag_201:\n        /* \"@openzeppelin/contracts/utils/Address.sol\":5113:5125  bytes memory */\n      0x60\n        /* \"@openzeppelin/contracts/utils/Address.sol\":5170:5175  value */\n      dup3\n        /* \"@openzeppelin/contracts/utils/Address.sol\":5145:5166  address(this).balance */\n      selfbalance\n        /* \"@openzeppelin/contracts/utils/Address.sol\":5145:5175  address(this).balance >= value */\n      lt\n      iszero\n        /* \"@openzeppelin/contracts/utils/Address.sol\":5137:5218  require(address(this).balance >= value, \"Address: insufficient balance for call\") */\n      tag_215\n      jumpi\n      mload(0x40)\n      0x08c379a000000000000000000000000000000000000000000000000000000000\n      dup2\n      mstore\n      0x04\n      add\n      tag_216\n      swap1\n      tag_217\n      jump\t// in\n    tag_216:\n      mload(0x40)\n      dup1\n      swap2\n      sub\n      swap1\n      revert\n    tag_215:\n        /* \"@openzeppelin/contracts/utils/Address.sol\":5236:5254  isContract(target) */\n      tag_218\n        /* \"@openzeppelin/contracts/utils/Address.sol\":5247:5253  target */\n      dup6\n        /* \"@openzeppelin/contracts/utils/Address.sol\":5236:5246  isContract */\n      tag_219\n        /* \"@openzeppelin/contracts/utils/Address.sol\":5236:5254  isContract(target) */\n      jump\t// in\n    tag_218:\n        /* \"@openzeppelin/contracts/utils/Address.sol\":5228:5288  require(isContract(target), \"Address: call to non-contract\") */\n      tag_220\n      jumpi\n      mload(0x40)\n      0x08c379a000000000000000000000000000000000000000000000000000000000\n      dup2\n      mstore\n      0x04\n      add\n      tag_221\n      swap1\n      tag_222\n      jump\t// in\n    tag_221:\n      mload(0x40)\n      dup1\n      swap2\n      sub\n      swap1\n      revert\n    tag_220:\n        /* \"@openzeppelin/contracts/utils/Address.sol\":5300:5312  bool success */\n      0x00\n        /* \"@openzeppelin/contracts/utils/Address.sol\":5314:5337  bytes memory returndata */\n      dup1\n        /* \"@openzeppelin/contracts/utils/Address.sol\":5341:5347  target */\n      dup7\n        /* \"@openzeppelin/contracts/utils/Address.sol\":5341:5352  target.call */\n      0xffffffffffffffffffffffffffffffffffffffff\n      and\n        /* \"@openzeppelin/contracts/utils/Address.sol\":5360:5365  value */\n      dup6\n        /* \"@openzeppelin/contracts/utils/Address.sol\":5367:5371  data */\n      dup8\n        /* \"@openzeppelin/contracts/utils/Address.sol\":5341:5372  target.call{value: value}(data) */\n      mload(0x40)\n      tag_223\n      swap2\n      swap1\n      tag_224\n      jump\t// in\n    tag_223:\n      0x00\n      mload(0x40)\n      dup1\n      dup4\n      sub\n      dup2\n      dup6\n      dup8\n      gas\n      call\n      swap3\n      pop\n      pop\n      pop\n      returndatasize\n      dup1\n      0x00\n      dup2\n      eq\n      tag_227\n      jumpi\n      mload(0x40)\n      swap2\n      pop\n      and(add(returndatasize, 0x3f), not(0x1f))\n      dup3\n      add\n      0x40\n      mstore\n      returndatasize\n      dup3\n      mstore\n      returndatasize\n      0x00\n      0x20\n      dup5\n      add\n      returndatacopy\n      jump(tag_226)\n    tag_227:\n      0x60\n      swap2\n      pop\n    tag_226:\n      pop\n        /* \"@openzeppelin/contracts/utils/Address.sol\":5299:5372  (bool success, bytes memory returndata) = target.call{value: value}(data) */\n      swap2\n      pop\n      swap2\n      pop\n        /* \"@openzeppelin/contracts/utils/Address.sol\":5389:5440  verifyCallResult(success, returndata, errorMessage) */\n      tag_228\n        /* \"@openzeppelin/contracts/utils/Address.sol\":5406:5413  success */\n      dup3\n        /* \"@openzeppelin/contracts/utils/Address.sol\":5415:5425  returndata */\n      dup3\n        /* \"@openzeppelin/contracts/utils/Address.sol\":5427:5439  errorMessage */\n      dup7\n        /* \"@openzeppelin/contracts/utils/Address.sol\":5389:5405  verifyCallResult */\n      tag_229\n        /* \"@openzeppelin/contracts/utils/Address.sol\":5389:5440  verifyCallResult(success, returndata, errorMessage) */\n      jump\t// in\n    tag_228:\n        /* \"@openzeppelin/contracts/utils/Address.sol\":5382:5440  return verifyCallResult(success, returndata, errorMessage) */\n      swap3\n      pop\n      pop\n      pop\n        /* \"@openzeppelin/contracts/utils/Address.sol\":4948:5447  function functionCallWithValue(... */\n      swap5\n      swap4\n      pop\n      pop\n      pop\n      pop\n      jump\t// out\n        /* \"@openzeppelin/contracts/utils/cryptography/MerkleProof.sol\":2066:2284  function _efficientHash(bytes32 a, bytes32 b) private pure returns (bytes32 value) {... */\n    tag_210:\n        /* \"@openzeppelin/contracts/utils/cryptography/MerkleProof.sol\":2134:2147  bytes32 value */\n      0x00\n        /* \"@openzeppelin/contracts/utils/cryptography/MerkleProof.sol\":2195:2196  a */\n      dup3\n        /* \"@openzeppelin/contracts/utils/cryptography/MerkleProof.sol\":2189:2193  0x00 */\n      0x00\n        /* \"@openzeppelin/contracts/utils/cryptography/MerkleProof.sol\":2182:2197  mstore(0x00, a) */\n      mstore\n        /* \"@openzeppelin/contracts/utils/cryptography/MerkleProof.sol\":2223:2224  b */\n      dup2\n        /* \"@openzeppelin/contracts/utils/cryptography/MerkleProof.sol\":2217:2221  0x20 */\n      0x20\n        /* \"@openzeppelin/contracts/utils/cryptography/MerkleProof.sol\":2210:2225  mstore(0x20, b) */\n      mstore\n        /* \"@openzeppelin/contracts/utils/cryptography/MerkleProof.sol\":2263:2267  0x40 */\n      0x40\n        /* \"@openzeppelin/contracts/utils/cryptography/MerkleProof.sol\":2257:2261  0x00 */\n      0x00\n        /* \"@openzeppelin/contracts/utils/cryptography/MerkleProof.sol\":2247:2268  keccak256(0x00, 0x40) */\n      keccak256\n        /* \"@openzeppelin/contracts/utils/cryptography/MerkleProof.sol\":2238:2268  value := keccak256(0x00, 0x40) */\n      swap1\n      pop\n        /* \"@openzeppelin/contracts/utils/cryptography/MerkleProof.sol\":2066:2284  function _efficientHash(bytes32 a, bytes32 b) private pure returns (bytes32 value) {... */\n      swap3\n      swap2\n      pop\n      pop\n      jump\t// out\n        /* \"@openzeppelin/contracts/utils/Address.sol\":1175:1495  function isContract(address account) internal view returns (bool) {... */\n    tag_219:\n        /* \"@openzeppelin/contracts/utils/Address.sol\":1235:1239  bool */\n      0x00\n        /* \"@openzeppelin/contracts/utils/Address.sol\":1487:1488  0 */\n      dup1\n        /* \"@openzeppelin/contracts/utils/Address.sol\":1465:1472  account */\n      dup3\n        /* \"@openzeppelin/contracts/utils/Address.sol\":1465:1484  account.code.length */\n      0xffffffffffffffffffffffffffffffffffffffff\n      and\n      extcodesize\n        /* \"@openzeppelin/contracts/utils/Address.sol\":1465:1488  account.code.length > 0 */\n      gt\n        /* \"@openzeppelin/contracts/utils/Address.sol\":1458:1488  return account.code.length > 0 */\n      swap1\n      pop\n        /* \"@openzeppelin/contracts/utils/Address.sol\":1175:1495  function isContract(address account) internal view returns (bool) {... */\n      swap2\n      swap1\n      pop\n      jump\t// out\n        /* \"@openzeppelin/contracts/utils/Address.sol\":7561:8253  function verifyCallResult(... */\n    tag_229:\n        /* \"@openzeppelin/contracts/utils/Address.sol\":7707:7719  bytes memory */\n      0x60\n        /* \"@openzeppelin/contracts/utils/Address.sol\":7735:7742  success */\n      dup4\n        /* \"@openzeppelin/contracts/utils/Address.sol\":7731:8247  if (success) {... */\n      iszero\n      tag_233\n      jumpi\n        /* \"@openzeppelin/contracts/utils/Address.sol\":7765:7775  returndata */\n      dup3\n        /* \"@openzeppelin/contracts/utils/Address.sol\":7758:7775  return returndata */\n      swap1\n      pop\n      jump(tag_232)\n        /* \"@openzeppelin/contracts/utils/Address.sol\":7731:8247  if (success) {... */\n    tag_233:\n        /* \"@openzeppelin/contracts/utils/Address.sol\":7896:7897  0 */\n      0x00\n        /* \"@openzeppelin/contracts/utils/Address.sol\":7876:7886  returndata */\n      dup4\n        /* \"@openzeppelin/contracts/utils/Address.sol\":7876:7893  returndata.length */\n      mload\n        /* \"@openzeppelin/contracts/utils/Address.sol\":7876:7897  returndata.length > 0 */\n      gt\n        /* \"@openzeppelin/contracts/utils/Address.sol\":7872:8237  if (returndata.length > 0) {... */\n      iszero\n      tag_235\n      jumpi\n        /* \"@openzeppelin/contracts/utils/Address.sol\":8070:8080  returndata */\n      dup3\n        /* \"@openzeppelin/contracts/utils/Address.sol\":8064:8081  mload(returndata) */\n      mload\n        /* \"@openzeppelin/contracts/utils/Address.sol\":8130:8145  returndata_size */\n      dup1\n        /* \"@openzeppelin/contracts/utils/Address.sol\":8117:8127  returndata */\n      dup5\n        /* \"@openzeppelin/contracts/utils/Address.sol\":8113:8115  32 */\n      0x20\n        /* \"@openzeppelin/contracts/utils/Address.sol\":8109:8128  add(32, returndata) */\n      add\n        /* \"@openzeppelin/contracts/utils/Address.sol\":8102:8146  revert(add(32, returndata), returndata_size) */\n      revert\n        /* \"@openzeppelin/contracts/utils/Address.sol\":7872:8237  if (returndata.length > 0) {... */\n    tag_235:\n        /* \"@openzeppelin/contracts/utils/Address.sol\":8209:8221  errorMessage */\n      dup2\n        /* \"@openzeppelin/contracts/utils/Address.sol\":8202:8222  revert(errorMessage) */\n      mload(0x40)\n      0x08c379a000000000000000000000000000000000000000000000000000000000\n      dup2\n      mstore\n      0x04\n      add\n      tag_237\n      swap2\n      swap1\n      tag_238\n      jump\t// in\n    tag_237:\n      mload(0x40)\n      dup1\n      swap2\n      sub\n      swap1\n      revert\n        /* \"@openzeppelin/contracts/utils/Address.sol\":7561:8253  function verifyCallResult(... */\n    tag_232:\n      swap4\n      swap3\n      pop\n      pop\n      pop\n      jump\t// out\n        /* \"#utility.yul\":24:746   */\n    tag_240:\n        /* \"#utility.yul\":120:125   */\n      0x00\n        /* \"#utility.yul\":145:226   */\n      tag_242\n        /* \"#utility.yul\":161:225   */\n      tag_243\n        /* \"#utility.yul\":218:224   */\n      dup5\n        /* \"#utility.yul\":161:225   */\n      tag_244\n      jump\t// in\n    tag_243:\n        /* \"#utility.yul\":145:226   */\n      tag_245\n      jump\t// in\n    tag_242:\n        /* \"#utility.yul\":136:226   */\n      swap1\n      pop\n        /* \"#utility.yul\":246:251   */\n      dup1\n        /* \"#utility.yul\":275:281   */\n      dup4\n        /* \"#utility.yul\":268:273   */\n      dup3\n        /* \"#utility.yul\":261:282   */\n      mstore\n        /* \"#utility.yul\":309:313   */\n      0x20\n        /* \"#utility.yul\":302:307   */\n      dup3\n        /* \"#utility.yul\":298:314   */\n      add\n        /* \"#utility.yul\":291:314   */\n      swap1\n      pop\n        /* \"#utility.yul\":335:341   */\n      dup3\n        /* \"#utility.yul\":385:388   */\n      dup6\n        /* \"#utility.yul\":377:381   */\n      0x20\n        /* \"#utility.yul\":369:375   */\n      dup7\n        /* \"#utility.yul\":365:382   */\n      mul\n        /* \"#utility.yul\":360:363   */\n      dup3\n        /* \"#utility.yul\":356:383   */\n      add\n        /* \"#utility.yul\":353:389   */\n      gt\n        /* \"#utility.yul\":350:493   */\n      iszero\n      tag_246\n      jumpi\n        /* \"#utility.yul\":404:483   */\n      tag_247\n      tag_248\n      jump\t// in\n    tag_247:\n        /* \"#utility.yul\":350:493   */\n    tag_246:\n        /* \"#utility.yul\":517:518   */\n      0x00\n        /* \"#utility.yul\":502:740   */\n    tag_249:\n        /* \"#utility.yul\":527:533   */\n      dup6\n        /* \"#utility.yul\":524:525   */\n      dup2\n        /* \"#utility.yul\":521:534   */\n      lt\n        /* \"#utility.yul\":502:740   */\n      iszero\n      tag_251\n      jumpi\n        /* \"#utility.yul\":595:598   */\n      dup2\n        /* \"#utility.yul\":624:661   */\n      tag_252\n        /* \"#utility.yul\":657:660   */\n      dup9\n        /* \"#utility.yul\":645:655   */\n      dup3\n        /* \"#utility.yul\":624:661   */\n      tag_253\n      jump\t// in\n    tag_252:\n        /* \"#utility.yul\":619:622   */\n      dup5\n        /* \"#utility.yul\":612:662   */\n      mstore\n        /* \"#utility.yul\":691:695   */\n      0x20\n        /* \"#utility.yul\":686:689   */\n      dup5\n        /* \"#utility.yul\":682:696   */\n      add\n        /* \"#utility.yul\":675:696   */\n      swap4\n      pop\n        /* \"#utility.yul\":725:729   */\n      0x20\n        /* \"#utility.yul\":720:723   */\n      dup4\n        /* \"#utility.yul\":716:730   */\n      add\n        /* \"#utility.yul\":709:730   */\n      swap3\n      pop\n        /* \"#utility.yul\":562:740   */\n      pop\n        /* \"#utility.yul\":549:550   */\n      0x01\n        /* \"#utility.yul\":546:547   */\n      dup2\n        /* \"#utility.yul\":542:551   */\n      add\n        /* \"#utility.yul\":537:551   */\n      swap1\n      pop\n        /* \"#utility.yul\":502:740   */\n      jump(tag_249)\n    tag_251:\n        /* \"#utility.yul\":506:520   */\n      pop\n        /* \"#utility.yul\":126:746   */\n      pop\n      pop\n        /* \"#utility.yul\":24:746   */\n      swap4\n      swap3\n      pop\n      pop\n      pop\n      jump\t// out\n        /* \"#utility.yul\":771:1773   */\n    tag_254:\n        /* \"#utility.yul\":892:897   */\n      0x00\n        /* \"#utility.yul\":917:1023   */\n      tag_256\n        /* \"#utility.yul\":933:1022   */\n      tag_257\n        /* \"#utility.yul\":1015:1021   */\n      dup5\n        /* \"#utility.yul\":933:1022   */\n      tag_258\n      jump\t// in\n    tag_257:\n        /* \"#utility.yul\":917:1023   */\n      tag_245\n      jump\t// in\n    tag_256:\n        /* \"#utility.yul\":908:1023   */\n      swap1\n      pop\n        /* \"#utility.yul\":1043:1048   */\n      dup1\n        /* \"#utility.yul\":1072:1078   */\n      dup4\n        /* \"#utility.yul\":1065:1070   */\n      dup3\n        /* \"#utility.yul\":1058:1079   */\n      mstore\n        /* \"#utility.yul\":1106:1110   */\n      0x20\n        /* \"#utility.yul\":1099:1104   */\n      dup3\n        /* \"#utility.yul\":1095:1111   */\n      add\n        /* \"#utility.yul\":1088:1111   */\n      swap1\n      pop\n        /* \"#utility.yul\":1132:1138   */\n      dup3\n        /* \"#utility.yul\":1182:1185   */\n      dup6\n        /* \"#utility.yul\":1174:1178   */\n      0x20\n        /* \"#utility.yul\":1166:1172   */\n      dup7\n        /* \"#utility.yul\":1162:1179   */\n      mul\n        /* \"#utility.yul\":1157:1160   */\n      dup3\n        /* \"#utility.yul\":1153:1180   */\n      add\n        /* \"#utility.yul\":1150:1186   */\n      gt\n        /* \"#utility.yul\":1147:1290   */\n      iszero\n      tag_259\n      jumpi\n        /* \"#utility.yul\":1201:1280   */\n      tag_260\n      tag_248\n      jump\t// in\n    tag_260:\n        /* \"#utility.yul\":1147:1290   */\n    tag_259:\n        /* \"#utility.yul\":1314:1315   */\n      0x00\n        /* \"#utility.yul\":1299:1767   */\n    tag_261:\n        /* \"#utility.yul\":1324:1330   */\n      dup6\n        /* \"#utility.yul\":1321:1322   */\n      dup2\n        /* \"#utility.yul\":1318:1331   */\n      lt\n        /* \"#utility.yul\":1299:1767   */\n      iszero\n      tag_263\n      jumpi\n        /* \"#utility.yul\":1406:1409   */\n      dup2\n        /* \"#utility.yul\":1393:1410   */\n      calldataload\n        /* \"#utility.yul\":1442:1460   */\n      0xffffffffffffffff\n        /* \"#utility.yul\":1429:1440   */\n      dup2\n        /* \"#utility.yul\":1426:1461   */\n      gt\n        /* \"#utility.yul\":1423:1545   */\n      iszero\n      tag_264\n      jumpi\n        /* \"#utility.yul\":1464:1543   */\n      tag_265\n      tag_266\n      jump\t// in\n    tag_265:\n        /* \"#utility.yul\":1423:1545   */\n    tag_264:\n        /* \"#utility.yul\":1588:1599   */\n      dup1\n        /* \"#utility.yul\":1580:1586   */\n      dup7\n        /* \"#utility.yul\":1576:1600   */\n      add\n        /* \"#utility.yul\":1626:1688   */\n      tag_267\n        /* \"#utility.yul\":1684:1687   */\n      dup10\n        /* \"#utility.yul\":1672:1682   */\n      dup3\n        /* \"#utility.yul\":1626:1688   */\n      tag_268\n      jump\t// in\n    tag_267:\n        /* \"#utility.yul\":1621:1624   */\n      dup6\n        /* \"#utility.yul\":1614:1689   */\n      mstore\n        /* \"#utility.yul\":1718:1722   */\n      0x20\n        /* \"#utility.yul\":1713:1716   */\n      dup6\n        /* \"#utility.yul\":1709:1723   */\n      add\n        /* \"#utility.yul\":1702:1723   */\n      swap5\n      pop\n        /* \"#utility.yul\":1752:1756   */\n      0x20\n        /* \"#utility.yul\":1747:1750   */\n      dup5\n        /* \"#utility.yul\":1743:1757   */\n      add\n        /* \"#utility.yul\":1736:1757   */\n      swap4\n      pop\n        /* \"#utility.yul\":1359:1767   */\n      pop\n      pop\n        /* \"#utility.yul\":1346:1347   */\n      0x01\n        /* \"#utility.yul\":1343:1344   */\n      dup2\n        /* \"#utility.yul\":1339:1348   */\n      add\n        /* \"#utility.yul\":1334:1348   */\n      swap1\n      pop\n        /* \"#utility.yul\":1299:1767   */\n      jump(tag_261)\n    tag_263:\n        /* \"#utility.yul\":1303:1317   */\n      pop\n        /* \"#utility.yul\":898:1773   */\n      pop\n      pop\n        /* \"#utility.yul\":771:1773   */\n      swap4\n      swap3\n      pop\n      pop\n      pop\n      jump\t// out\n        /* \"#utility.yul\":1796:2518   */\n    tag_269:\n        /* \"#utility.yul\":1892:1897   */\n      0x00\n        /* \"#utility.yul\":1917:1998   */\n      tag_271\n        /* \"#utility.yul\":1933:1997   */\n      tag_272\n        /* \"#utility.yul\":1990:1996   */\n      dup5\n        /* \"#utility.yul\":1933:1997   */\n      tag_273\n      jump\t// in\n    tag_272:\n        /* \"#utility.yul\":1917:1998   */\n      tag_245\n      jump\t// in\n    tag_271:\n        /* \"#utility.yul\":1908:1998   */\n      swap1\n      pop\n        /* \"#utility.yul\":2018:2023   */\n      dup1\n        /* \"#utility.yul\":2047:2053   */\n      dup4\n        /* \"#utility.yul\":2040:2045   */\n      dup3\n        /* \"#utility.yul\":2033:2054   */\n      mstore\n        /* \"#utility.yul\":2081:2085   */\n      0x20\n        /* \"#utility.yul\":2074:2079   */\n      dup3\n        /* \"#utility.yul\":2070:2086   */\n      add\n        /* \"#utility.yul\":2063:2086   */\n      swap1\n      pop\n        /* \"#utility.yul\":2107:2113   */\n      dup3\n        /* \"#utility.yul\":2157:2160   */\n      dup6\n        /* \"#utility.yul\":2149:2153   */\n      0x20\n        /* \"#utility.yul\":2141:2147   */\n      dup7\n        /* \"#utility.yul\":2137:2154   */\n      mul\n        /* \"#utility.yul\":2132:2135   */\n      dup3\n        /* \"#utility.yul\":2128:2155   */\n      add\n        /* \"#utility.yul\":2125:2161   */\n      gt\n        /* \"#utility.yul\":2122:2265   */\n      iszero\n      tag_274\n      jumpi\n        /* \"#utility.yul\":2176:2255   */\n      tag_275\n      tag_248\n      jump\t// in\n    tag_275:\n        /* \"#utility.yul\":2122:2265   */\n    tag_274:\n        /* \"#utility.yul\":2289:2290   */\n      0x00\n        /* \"#utility.yul\":2274:2512   */\n    tag_276:\n        /* \"#utility.yul\":2299:2305   */\n      dup6\n        /* \"#utility.yul\":2296:2297   */\n      dup2\n        /* \"#utility.yul\":2293:2306   */\n      lt\n        /* \"#utility.yul\":2274:2512   */\n      iszero\n      tag_278\n      jumpi\n        /* \"#utility.yul\":2367:2370   */\n      dup2\n        /* \"#utility.yul\":2396:2433   */\n      tag_279\n        /* \"#utility.yul\":2429:2432   */\n      dup9\n        /* \"#utility.yul\":2417:2427   */\n      dup3\n        /* \"#utility.yul\":2396:2433   */\n      tag_280\n      jump\t// in\n    tag_279:\n        /* \"#utility.yul\":2391:2394   */\n      dup5\n        /* \"#utility.yul\":2384:2434   */\n      mstore\n        /* \"#utility.yul\":2463:2467   */\n      0x20\n        /* \"#utility.yul\":2458:2461   */\n      dup5\n        /* \"#utility.yul\":2454:2468   */\n      add\n        /* \"#utility.yul\":2447:2468   */\n      swap4\n      pop\n        /* \"#utility.yul\":2497:2501   */\n      0x20\n        /* \"#utility.yul\":2492:2495   */\n      dup4\n        /* \"#utility.yul\":2488:2502   */\n      add\n        /* \"#utility.yul\":2481:2502   */\n      swap3\n      pop\n        /* \"#utility.yul\":2334:2512   */\n      pop\n        /* \"#utility.yul\":2321:2322   */\n      0x01\n        /* \"#utility.yul\":2318:2319   */\n      dup2\n        /* \"#utility.yul\":2314:2323   */\n      add\n        /* \"#utility.yul\":2309:2323   */\n      swap1\n      pop\n        /* \"#utility.yul\":2274:2512   */\n      jump(tag_276)\n    tag_278:\n        /* \"#utility.yul\":2278:2292   */\n      pop\n        /* \"#utility.yul\":1898:2518   */\n      pop\n      pop\n        /* \"#utility.yul\":1796:2518   */\n      swap4\n      swap3\n      pop\n      pop\n      pop\n      jump\t// out\n        /* \"#utility.yul\":2541:3263   */\n    tag_281:\n        /* \"#utility.yul\":2637:2642   */\n      0x00\n        /* \"#utility.yul\":2662:2743   */\n      tag_283\n        /* \"#utility.yul\":2678:2742   */\n      tag_284\n        /* \"#utility.yul\":2735:2741   */\n      dup5\n        /* \"#utility.yul\":2678:2742   */\n      tag_285\n      jump\t// in\n    tag_284:\n        /* \"#utility.yul\":2662:2743   */\n      tag_245\n      jump\t// in\n    tag_283:\n        /* \"#utility.yul\":2653:2743   */\n      swap1\n      pop\n        /* \"#utility.yul\":2763:2768   */\n      dup1\n        /* \"#utility.yul\":2792:2798   */\n      dup4\n        /* \"#utility.yul\":2785:2790   */\n      dup3\n        /* \"#utility.yul\":2778:2799   */\n      mstore\n        /* \"#utility.yul\":2826:2830   */\n      0x20\n        /* \"#utility.yul\":2819:2824   */\n      dup3\n        /* \"#utility.yul\":2815:2831   */\n      add\n        /* \"#utility.yul\":2808:2831   */\n      swap1\n      pop\n        /* \"#utility.yul\":2852:2858   */\n      dup3\n        /* \"#utility.yul\":2902:2905   */\n      dup6\n        /* \"#utility.yul\":2894:2898   */\n      0x20\n        /* \"#utility.yul\":2886:2892   */\n      dup7\n        /* \"#utility.yul\":2882:2899   */\n      mul\n        /* \"#utility.yul\":2877:2880   */\n      dup3\n        /* \"#utility.yul\":2873:2900   */\n      add\n        /* \"#utility.yul\":2870:2906   */\n      gt\n        /* \"#utility.yul\":2867:3010   */\n      iszero\n      tag_286\n      jumpi\n        /* \"#utility.yul\":2921:3000   */\n      tag_287\n      tag_248\n      jump\t// in\n    tag_287:\n        /* \"#utility.yul\":2867:3010   */\n    tag_286:\n        /* \"#utility.yul\":3034:3035   */\n      0x00\n        /* \"#utility.yul\":3019:3257   */\n    tag_288:\n        /* \"#utility.yul\":3044:3050   */\n      dup6\n        /* \"#utility.yul\":3041:3042   */\n      dup2\n        /* \"#utility.yul\":3038:3051   */\n      lt\n        /* \"#utility.yul\":3019:3257   */\n      iszero\n      tag_290\n      jumpi\n        /* \"#utility.yul\":3112:3115   */\n      dup2\n        /* \"#utility.yul\":3141:3178   */\n      tag_291\n        /* \"#utility.yul\":3174:3177   */\n      dup9\n        /* \"#utility.yul\":3162:3172   */\n      dup3\n        /* \"#utility.yul\":3141:3178   */\n      tag_292\n      jump\t// in\n    tag_291:\n        /* \"#utility.yul\":3136:3139   */\n      dup5\n        /* \"#utility.yul\":3129:3179   */\n      mstore\n        /* \"#utility.yul\":3208:3212   */\n      0x20\n        /* \"#utility.yul\":3203:3206   */\n      dup5\n        /* \"#utility.yul\":3199:3213   */\n      add\n        /* \"#utility.yul\":3192:3213   */\n      swap4\n      pop\n        /* \"#utility.yul\":3242:3246   */\n      0x20\n        /* \"#utility.yul\":3237:3240   */\n      dup4\n        /* \"#utility.yul\":3233:3247   */\n      add\n        /* \"#utility.yul\":3226:3247   */\n      swap3\n      pop\n        /* \"#utility.yul\":3079:3257   */\n      pop\n        /* \"#utility.yul\":3066:3067   */\n      0x01\n        /* \"#utility.yul\":3063:3064   */\n      dup2\n        /* \"#utility.yul\":3059:3068   */\n      add\n        /* \"#utility.yul\":3054:3068   */\n      swap1\n      pop\n        /* \"#utility.yul\":3019:3257   */\n      jump(tag_288)\n    tag_290:\n        /* \"#utility.yul\":3023:3037   */\n      pop\n        /* \"#utility.yul\":2643:3263   */\n      pop\n      pop\n        /* \"#utility.yul\":2541:3263   */\n      swap4\n      swap3\n      pop\n      pop\n      pop\n      jump\t// out\n        /* \"#utility.yul\":3269:3408   */\n    tag_253:\n        /* \"#utility.yul\":3315:3320   */\n      0x00\n        /* \"#utility.yul\":3353:3359   */\n      dup2\n        /* \"#utility.yul\":3340:3360   */\n      calldataload\n        /* \"#utility.yul\":3331:3360   */\n      swap1\n      pop\n        /* \"#utility.yul\":3369:3402   */\n      tag_294\n        /* \"#utility.yul\":3396:3401   */\n      dup2\n        /* \"#utility.yul\":3369:3402   */\n      tag_295\n      jump\t// in\n    tag_294:\n        /* \"#utility.yul\":3269:3408   */\n      swap3\n      swap2\n      pop\n      pop\n      jump\t// out\n        /* \"#utility.yul\":3431:3801   */\n    tag_296:\n        /* \"#utility.yul\":3502:3507   */\n      0x00\n        /* \"#utility.yul\":3551:3554   */\n      dup3\n        /* \"#utility.yul\":3544:3548   */\n      0x1f\n        /* \"#utility.yul\":3536:3542   */\n      dup4\n        /* \"#utility.yul\":3532:3549   */\n      add\n        /* \"#utility.yul\":3528:3555   */\n      slt\n        /* \"#utility.yul\":3518:3640   */\n      tag_298\n      jumpi\n        /* \"#utility.yul\":3559:3638   */\n      tag_299\n      tag_266\n      jump\t// in\n    tag_299:\n        /* \"#utility.yul\":3518:3640   */\n    tag_298:\n        /* \"#utility.yul\":3676:3682   */\n      dup2\n        /* \"#utility.yul\":3663:3683   */\n      calldataload\n        /* \"#utility.yul\":3701:3795   */\n      tag_300\n        /* \"#utility.yul\":3791:3794   */\n      dup5\n        /* \"#utility.yul\":3783:3789   */\n      dup3\n        /* \"#utility.yul\":3776:3780   */\n      0x20\n        /* \"#utility.yul\":3768:3774   */\n      dup7\n        /* \"#utility.yul\":3764:3781   */\n      add\n        /* \"#utility.yul\":3701:3795   */\n      tag_240\n      jump\t// in\n    tag_300:\n        /* \"#utility.yul\":3692:3795   */\n      swap2\n      pop\n        /* \"#utility.yul\":3508:3801   */\n      pop\n        /* \"#utility.yul\":3431:3801   */\n      swap3\n      swap2\n      pop\n      pop\n      jump\t// out\n        /* \"#utility.yul\":3826:4246   */\n    tag_301:\n        /* \"#utility.yul\":3922:3927   */\n      0x00\n        /* \"#utility.yul\":3971:3974   */\n      dup3\n        /* \"#utility.yul\":3964:3968   */\n      0x1f\n        /* \"#utility.yul\":3956:3962   */\n      dup4\n        /* \"#utility.yul\":3952:3969   */\n      add\n        /* \"#utility.yul\":3948:3975   */\n      slt\n        /* \"#utility.yul\":3938:4060   */\n      tag_303\n      jumpi\n        /* \"#utility.yul\":3979:4058   */\n      tag_304\n      tag_266\n      jump\t// in\n    tag_304:\n        /* \"#utility.yul\":3938:4060   */\n    tag_303:\n        /* \"#utility.yul\":4096:4102   */\n      dup2\n        /* \"#utility.yul\":4083:4103   */\n      calldataload\n        /* \"#utility.yul\":4121:4240   */\n      tag_305\n        /* \"#utility.yul\":4236:4239   */\n      dup5\n        /* \"#utility.yul\":4228:4234   */\n      dup3\n        /* \"#utility.yul\":4221:4225   */\n      0x20\n        /* \"#utility.yul\":4213:4219   */\n      dup7\n        /* \"#utility.yul\":4209:4226   */\n      add\n        /* \"#utility.yul\":4121:4240   */\n      tag_254\n      jump\t// in\n    tag_305:\n        /* \"#utility.yul\":4112:4240   */\n      swap2\n      pop\n        /* \"#utility.yul\":3928:4246   */\n      pop\n        /* \"#utility.yul\":3826:4246   */\n      swap3\n      swap2\n      pop\n      pop\n      jump\t// out\n        /* \"#utility.yul\":4269:4639   */\n    tag_268:\n        /* \"#utility.yul\":4340:4345   */\n      0x00\n        /* \"#utility.yul\":4389:4392   */\n      dup3\n        /* \"#utility.yul\":4382:4386   */\n      0x1f\n        /* \"#utility.yul\":4374:4380   */\n      dup4\n        /* \"#utility.yul\":4370:4387   */\n      add\n        /* \"#utility.yul\":4366:4393   */\n      slt\n        /* \"#utility.yul\":4356:4478   */\n      tag_307\n      jumpi\n        /* \"#utility.yul\":4397:4476   */\n      tag_308\n      tag_266\n      jump\t// in\n    tag_308:\n        /* \"#utility.yul\":4356:4478   */\n    tag_307:\n        /* \"#utility.yul\":4514:4520   */\n      dup2\n        /* \"#utility.yul\":4501:4521   */\n      calldataload\n        /* \"#utility.yul\":4539:4633   */\n      tag_309\n        /* \"#utility.yul\":4629:4632   */\n      dup5\n        /* \"#utility.yul\":4621:4627   */\n      dup3\n        /* \"#utility.yul\":4614:4618   */\n      0x20\n        /* \"#utility.yul\":4606:4612   */\n      dup7\n        /* \"#utility.yul\":4602:4619   */\n      add\n        /* \"#utility.yul\":4539:4633   */\n      tag_269\n      jump\t// in\n    tag_309:\n        /* \"#utility.yul\":4530:4633   */\n      swap2\n      pop\n        /* \"#utility.yul\":4346:4639   */\n      pop\n        /* \"#utility.yul\":4269:4639   */\n      swap3\n      swap2\n      pop\n      pop\n      jump\t// out\n        /* \"#utility.yul\":4662:5032   */\n    tag_310:\n        /* \"#utility.yul\":4733:4738   */\n      0x00\n        /* \"#utility.yul\":4782:4785   */\n      dup3\n        /* \"#utility.yul\":4775:4779   */\n      0x1f\n        /* \"#utility.yul\":4767:4773   */\n      dup4\n        /* \"#utility.yul\":4763:4780   */\n      add\n        /* \"#utility.yul\":4759:4786   */\n      slt\n        /* \"#utility.yul\":4749:4871   */\n      tag_312\n      jumpi\n        /* \"#utility.yul\":4790:4869   */\n      tag_313\n      tag_266\n      jump\t// in\n    tag_313:\n        /* \"#utility.yul\":4749:4871   */\n    tag_312:\n        /* \"#utility.yul\":4907:4913   */\n      dup2\n        /* \"#utility.yul\":4894:4914   */\n      calldataload\n        /* \"#utility.yul\":4932:5026   */\n      tag_314\n        /* \"#utility.yul\":5022:5025   */\n      dup5\n        /* \"#utility.yul\":5014:5020   */\n      dup3\n        /* \"#utility.yul\":5007:5011   */\n      0x20\n        /* \"#utility.yul\":4999:5005   */\n      dup7\n        /* \"#utility.yul\":4995:5012   */\n      add\n        /* \"#utility.yul\":4932:5026   */\n      tag_281\n      jump\t// in\n    tag_314:\n        /* \"#utility.yul\":4923:5026   */\n      swap2\n      pop\n        /* \"#utility.yul\":4739:5032   */\n      pop\n        /* \"#utility.yul\":4662:5032   */\n      swap3\n      swap2\n      pop\n      pop\n      jump\t// out\n        /* \"#utility.yul\":5038:5175   */\n    tag_315:\n        /* \"#utility.yul\":5092:5097   */\n      0x00\n        /* \"#utility.yul\":5123:5129   */\n      dup2\n        /* \"#utility.yul\":5117:5130   */\n      mload\n        /* \"#utility.yul\":5108:5130   */\n      swap1\n      pop\n        /* \"#utility.yul\":5139:5169   */\n      tag_317\n        /* \"#utility.yul\":5163:5168   */\n      dup2\n        /* \"#utility.yul\":5139:5169   */\n      tag_318\n      jump\t// in\n    tag_317:\n        /* \"#utility.yul\":5038:5175   */\n      swap3\n      swap2\n      pop\n      pop\n      jump\t// out\n        /* \"#utility.yul\":5181:5320   */\n    tag_280:\n        /* \"#utility.yul\":5227:5232   */\n      0x00\n        /* \"#utility.yul\":5265:5271   */\n      dup2\n        /* \"#utility.yul\":5252:5272   */\n      calldataload\n        /* \"#utility.yul\":5243:5272   */\n      swap1\n      pop\n        /* \"#utility.yul\":5281:5314   */\n      tag_320\n        /* \"#utility.yul\":5308:5313   */\n      dup2\n        /* \"#utility.yul\":5281:5314   */\n      tag_321\n      jump\t// in\n    tag_320:\n        /* \"#utility.yul\":5181:5320   */\n      swap3\n      swap2\n      pop\n      pop\n      jump\t// out\n        /* \"#utility.yul\":5326:5465   */\n    tag_292:\n        /* \"#utility.yul\":5372:5377   */\n      0x00\n        /* \"#utility.yul\":5410:5416   */\n      dup2\n        /* \"#utility.yul\":5397:5417   */\n      calldataload\n        /* \"#utility.yul\":5388:5417   */\n      swap1\n      pop\n        /* \"#utility.yul\":5426:5459   */\n      tag_323\n        /* \"#utility.yul\":5453:5458   */\n      dup2\n        /* \"#utility.yul\":5426:5459   */\n      tag_324\n      jump\t// in\n    tag_323:\n        /* \"#utility.yul\":5326:5465   */\n      swap3\n      swap2\n      pop\n      pop\n      jump\t// out\n        /* \"#utility.yul\":5471:5800   */\n    tag_57:\n        /* \"#utility.yul\":5530:5536   */\n      0x00\n        /* \"#utility.yul\":5579:5581   */\n      0x20\n        /* \"#utility.yul\":5567:5576   */\n      dup3\n        /* \"#utility.yul\":5558:5565   */\n      dup5\n        /* \"#utility.yul\":5554:5577   */\n      sub\n        /* \"#utility.yul\":5550:5582   */\n      slt\n        /* \"#utility.yul\":5547:5666   */\n      iszero\n      tag_326\n      jumpi\n        /* \"#utility.yul\":5585:5664   */\n      tag_327\n      tag_328\n      jump\t// in\n    tag_327:\n        /* \"#utility.yul\":5547:5666   */\n    tag_326:\n        /* \"#utility.yul\":5705:5706   */\n      0x00\n        /* \"#utility.yul\":5730:5783   */\n      tag_329\n        /* \"#utility.yul\":5775:5782   */\n      dup5\n        /* \"#utility.yul\":5766:5772   */\n      dup3\n        /* \"#utility.yul\":5755:5764   */\n      dup6\n        /* \"#utility.yul\":5751:5773   */\n      add\n        /* \"#utility.yul\":5730:5783   */\n      tag_253\n      jump\t// in\n    tag_329:\n        /* \"#utility.yul\":5720:5783   */\n      swap2\n      pop\n        /* \"#utility.yul\":5676:5793   */\n      pop\n        /* \"#utility.yul\":5471:5800   */\n      swap3\n      swap2\n      pop\n      pop\n      jump\t// out\n        /* \"#utility.yul\":5806:7251   */\n    tag_42:\n        /* \"#utility.yul\":5992:5998   */\n      0x00\n        /* \"#utility.yul\":6000:6006   */\n      dup1\n        /* \"#utility.yul\":6008:6014   */\n      0x00\n        /* \"#utility.yul\":6016:6022   */\n      dup1\n        /* \"#utility.yul\":6065:6068   */\n      0x80\n        /* \"#utility.yul\":6053:6062   */\n      dup6\n        /* \"#utility.yul\":6044:6051   */\n      dup8\n        /* \"#utility.yul\":6040:6063   */\n      sub\n        /* \"#utility.yul\":6036:6069   */\n      slt\n        /* \"#utility.yul\":6033:6153   */\n      iszero\n      tag_331\n      jumpi\n        /* \"#utility.yul\":6072:6151   */\n      tag_332\n      tag_328\n      jump\t// in\n    tag_332:\n        /* \"#utility.yul\":6033:6153   */\n    tag_331:\n        /* \"#utility.yul\":6192:6193   */\n      0x00\n        /* \"#utility.yul\":6217:6270   */\n      tag_333\n        /* \"#utility.yul\":6262:6269   */\n      dup8\n        /* \"#utility.yul\":6253:6259   */\n      dup3\n        /* \"#utility.yul\":6242:6251   */\n      dup9\n        /* \"#utility.yul\":6238:6260   */\n      add\n        /* \"#utility.yul\":6217:6270   */\n      tag_253\n      jump\t// in\n    tag_333:\n        /* \"#utility.yul\":6207:6270   */\n      swap5\n      pop\n        /* \"#utility.yul\":6163:6280   */\n      pop\n        /* \"#utility.yul\":6347:6349   */\n      0x20\n        /* \"#utility.yul\":6336:6345   */\n      dup6\n        /* \"#utility.yul\":6332:6350   */\n      add\n        /* \"#utility.yul\":6319:6351   */\n      calldataload\n        /* \"#utility.yul\":6378:6396   */\n      0xffffffffffffffff\n        /* \"#utility.yul\":6370:6376   */\n      dup2\n        /* \"#utility.yul\":6367:6397   */\n      gt\n        /* \"#utility.yul\":6364:6481   */\n      iszero\n      tag_334\n      jumpi\n        /* \"#utility.yul\":6400:6479   */\n      tag_335\n      tag_336\n      jump\t// in\n    tag_335:\n        /* \"#utility.yul\":6364:6481   */\n    tag_334:\n        /* \"#utility.yul\":6505:6583   */\n      tag_337\n        /* \"#utility.yul\":6575:6582   */\n      dup8\n        /* \"#utility.yul\":6566:6572   */\n      dup3\n        /* \"#utility.yul\":6555:6564   */\n      dup9\n        /* \"#utility.yul\":6551:6573   */\n      add\n        /* \"#utility.yul\":6505:6583   */\n      tag_310\n      jump\t// in\n    tag_337:\n        /* \"#utility.yul\":6495:6583   */\n      swap4\n      pop\n        /* \"#utility.yul\":6290:6593   */\n      pop\n        /* \"#utility.yul\":6660:6662   */\n      0x40\n        /* \"#utility.yul\":6649:6658   */\n      dup6\n        /* \"#utility.yul\":6645:6663   */\n      add\n        /* \"#utility.yul\":6632:6664   */\n      calldataload\n        /* \"#utility.yul\":6691:6709   */\n      0xffffffffffffffff\n        /* \"#utility.yul\":6683:6689   */\n      dup2\n        /* \"#utility.yul\":6680:6710   */\n      gt\n        /* \"#utility.yul\":6677:6794   */\n      iszero\n      tag_338\n      jumpi\n        /* \"#utility.yul\":6713:6792   */\n      tag_339\n      tag_336\n      jump\t// in\n    tag_339:\n        /* \"#utility.yul\":6677:6794   */\n    tag_338:\n        /* \"#utility.yul\":6818:6896   */\n      tag_340\n        /* \"#utility.yul\":6888:6895   */\n      dup8\n        /* \"#utility.yul\":6879:6885   */\n      dup3\n        /* \"#utility.yul\":6868:6877   */\n      dup9\n        /* \"#utility.yul\":6864:6886   */\n      add\n        /* \"#utility.yul\":6818:6896   */\n      tag_310\n      jump\t// in\n    tag_340:\n        /* \"#utility.yul\":6808:6896   */\n      swap3\n      pop\n        /* \"#utility.yul\":6603:6906   */\n      pop\n        /* \"#utility.yul\":6973:6975   */\n      0x60\n        /* \"#utility.yul\":6962:6971   */\n      dup6\n        /* \"#utility.yul\":6958:6976   */\n      add\n        /* \"#utility.yul\":6945:6977   */\n      calldataload\n        /* \"#utility.yul\":7004:7022   */\n      0xffffffffffffffff\n        /* \"#utility.yul\":6996:7002   */\n      dup2\n        /* \"#utility.yul\":6993:7023   */\n      gt\n        /* \"#utility.yul\":6990:7107   */\n      iszero\n      tag_341\n      jumpi\n        /* \"#utility.yul\":7026:7105   */\n      tag_342\n      tag_336\n      jump\t// in\n    tag_342:\n        /* \"#utility.yul\":6990:7107   */\n    tag_341:\n        /* \"#utility.yul\":7131:7234   */\n      tag_343\n        /* \"#utility.yul\":7226:7233   */\n      dup8\n        /* \"#utility.yul\":7217:7223   */\n      dup3\n        /* \"#utility.yul\":7206:7215   */\n      dup9\n        /* \"#utility.yul\":7202:7224   */\n      add\n        /* \"#utility.yul\":7131:7234   */\n      tag_301\n      jump\t// in\n    tag_343:\n        /* \"#utility.yul\":7121:7234   */\n      swap2\n      pop\n        /* \"#utility.yul\":6916:7244   */\n      pop\n        /* \"#utility.yul\":5806:7251   */\n      swap3\n      swap6\n      swap2\n      swap5\n      pop\n      swap3\n      pop\n      jump\t// out\n        /* \"#utility.yul\":7257:8232   */\n    tag_26:\n        /* \"#utility.yul\":7368:7374   */\n      0x00\n        /* \"#utility.yul\":7376:7382   */\n      dup1\n        /* \"#utility.yul\":7384:7390   */\n      0x00\n        /* \"#utility.yul\":7392:7398   */\n      dup1\n        /* \"#utility.yul\":7441:7444   */\n      0x80\n        /* \"#utility.yul\":7429:7438   */\n      dup6\n        /* \"#utility.yul\":7420:7427   */\n      dup8\n        /* \"#utility.yul\":7416:7439   */\n      sub\n        /* \"#utility.yul\":7412:7445   */\n      slt\n        /* \"#utility.yul\":7409:7529   */\n      iszero\n      tag_345\n      jumpi\n        /* \"#utility.yul\":7448:7527   */\n      tag_346\n      tag_328\n      jump\t// in\n    tag_346:\n        /* \"#utility.yul\":7409:7529   */\n    tag_345:\n        /* \"#utility.yul\":7568:7569   */\n      0x00\n        /* \"#utility.yul\":7593:7646   */\n      tag_347\n        /* \"#utility.yul\":7638:7645   */\n      dup8\n        /* \"#utility.yul\":7629:7635   */\n      dup3\n        /* \"#utility.yul\":7618:7627   */\n      dup9\n        /* \"#utility.yul\":7614:7636   */\n      add\n        /* \"#utility.yul\":7593:7646   */\n      tag_253\n      jump\t// in\n    tag_347:\n        /* \"#utility.yul\":7583:7646   */\n      swap5\n      pop\n        /* \"#utility.yul\":7539:7656   */\n      pop\n        /* \"#utility.yul\":7695:7697   */\n      0x20\n        /* \"#utility.yul\":7721:7774   */\n      tag_348\n        /* \"#utility.yul\":7766:7773   */\n      dup8\n        /* \"#utility.yul\":7757:7763   */\n      dup3\n        /* \"#utility.yul\":7746:7755   */\n      dup9\n        /* \"#utility.yul\":7742:7764   */\n      add\n        /* \"#utility.yul\":7721:7774   */\n      tag_292\n      jump\t// in\n    tag_348:\n        /* \"#utility.yul\":7711:7774   */\n      swap4\n      pop\n        /* \"#utility.yul\":7666:7784   */\n      pop\n        /* \"#utility.yul\":7823:7825   */\n      0x40\n        /* \"#utility.yul\":7849:7902   */\n      tag_349\n        /* \"#utility.yul\":7894:7901   */\n      dup8\n        /* \"#utility.yul\":7885:7891   */\n      dup3\n        /* \"#utility.yul\":7874:7883   */\n      dup9\n        /* \"#utility.yul\":7870:7892   */\n      add\n        /* \"#utility.yul\":7849:7902   */\n      tag_292\n      jump\t// in\n    tag_349:\n        /* \"#utility.yul\":7839:7902   */\n      swap3\n      pop\n        /* \"#utility.yul\":7794:7912   */\n      pop\n        /* \"#utility.yul\":7979:7981   */\n      0x60\n        /* \"#utility.yul\":7968:7977   */\n      dup6\n        /* \"#utility.yul\":7964:7982   */\n      add\n        /* \"#utility.yul\":7951:7983   */\n      calldataload\n        /* \"#utility.yul\":8010:8028   */\n      0xffffffffffffffff\n        /* \"#utility.yul\":8002:8008   */\n      dup2\n        /* \"#utility.yul\":7999:8029   */\n      gt\n        /* \"#utility.yul\":7996:8113   */\n      iszero\n      tag_350\n      jumpi\n        /* \"#utility.yul\":8032:8111   */\n      tag_351\n      tag_336\n      jump\t// in\n    tag_351:\n        /* \"#utility.yul\":7996:8113   */\n    tag_350:\n        /* \"#utility.yul\":8137:8215   */\n      tag_352\n        /* \"#utility.yul\":8207:8214   */\n      dup8\n        /* \"#utility.yul\":8198:8204   */\n      dup3\n        /* \"#utility.yul\":8187:8196   */\n      dup9\n        /* \"#utility.yul\":8183:8205   */\n      add\n        /* \"#utility.yul\":8137:8215   */\n      tag_268\n      jump\t// in\n    tag_352:\n        /* \"#utility.yul\":8127:8215   */\n      swap2\n      pop\n        /* \"#utility.yul\":7922:8225   */\n      pop\n        /* \"#utility.yul\":7257:8232   */\n      swap3\n      swap6\n      swap2\n      swap5\n      pop\n      swap3\n      pop\n      jump\t// out\n        /* \"#utility.yul\":8238:9277   */\n    tag_46:\n        /* \"#utility.yul\":8365:8371   */\n      0x00\n        /* \"#utility.yul\":8373:8379   */\n      dup1\n        /* \"#utility.yul\":8381:8387   */\n      0x00\n        /* \"#utility.yul\":8430:8432   */\n      0x60\n        /* \"#utility.yul\":8418:8427   */\n      dup5\n        /* \"#utility.yul\":8409:8416   */\n      dup7\n        /* \"#utility.yul\":8405:8428   */\n      sub\n        /* \"#utility.yul\":8401:8433   */\n      slt\n        /* \"#utility.yul\":8398:8517   */\n      iszero\n      tag_354\n      jumpi\n        /* \"#utility.yul\":8436:8515   */\n      tag_355\n      tag_328\n      jump\t// in\n    tag_355:\n        /* \"#utility.yul\":8398:8517   */\n    tag_354:\n        /* \"#utility.yul\":8584:8585   */\n      0x00\n        /* \"#utility.yul\":8573:8582   */\n      dup5\n        /* \"#utility.yul\":8569:8586   */\n      add\n        /* \"#utility.yul\":8556:8587   */\n      calldataload\n        /* \"#utility.yul\":8614:8632   */\n      0xffffffffffffffff\n        /* \"#utility.yul\":8606:8612   */\n      dup2\n        /* \"#utility.yul\":8603:8633   */\n      gt\n        /* \"#utility.yul\":8600:8717   */\n      iszero\n      tag_356\n      jumpi\n        /* \"#utility.yul\":8636:8715   */\n      tag_357\n      tag_336\n      jump\t// in\n    tag_357:\n        /* \"#utility.yul\":8600:8717   */\n    tag_356:\n        /* \"#utility.yul\":8741:8819   */\n      tag_358\n        /* \"#utility.yul\":8811:8818   */\n      dup7\n        /* \"#utility.yul\":8802:8808   */\n      dup3\n        /* \"#utility.yul\":8791:8800   */\n      dup8\n        /* \"#utility.yul\":8787:8809   */\n      add\n        /* \"#utility.yul\":8741:8819   */\n      tag_296\n      jump\t// in\n    tag_358:\n        /* \"#utility.yul\":8731:8819   */\n      swap4\n      pop\n        /* \"#utility.yul\":8527:8829   */\n      pop\n        /* \"#utility.yul\":8896:8898   */\n      0x20\n        /* \"#utility.yul\":8885:8894   */\n      dup5\n        /* \"#utility.yul\":8881:8899   */\n      add\n        /* \"#utility.yul\":8868:8900   */\n      calldataload\n        /* \"#utility.yul\":8927:8945   */\n      0xffffffffffffffff\n        /* \"#utility.yul\":8919:8925   */\n      dup2\n        /* \"#utility.yul\":8916:8946   */\n      gt\n        /* \"#utility.yul\":8913:9030   */\n      iszero\n      tag_359\n      jumpi\n        /* \"#utility.yul\":8949:9028   */\n      tag_360\n      tag_336\n      jump\t// in\n    tag_360:\n        /* \"#utility.yul\":8913:9030   */\n    tag_359:\n        /* \"#utility.yul\":9054:9132   */\n      tag_361\n        /* \"#utility.yul\":9124:9131   */\n      dup7\n        /* \"#utility.yul\":9115:9121   */\n      dup3\n        /* \"#utility.yul\":9104:9113   */\n      dup8\n        /* \"#utility.yul\":9100:9122   */\n      add\n        /* \"#utility.yul\":9054:9132   */\n      tag_310\n      jump\t// in\n    tag_361:\n        /* \"#utility.yul\":9044:9132   */\n      swap3\n      pop\n        /* \"#utility.yul\":8839:9142   */\n      pop\n        /* \"#utility.yul\":9181:9183   */\n      0x40\n        /* \"#utility.yul\":9207:9260   */\n      tag_362\n        /* \"#utility.yul\":9252:9259   */\n      dup7\n        /* \"#utility.yul\":9243:9249   */\n      dup3\n        /* \"#utility.yul\":9232:9241   */\n      dup8\n        /* \"#utility.yul\":9228:9250   */\n      add\n        /* \"#utility.yul\":9207:9260   */\n      tag_292\n      jump\t// in\n    tag_362:\n        /* \"#utility.yul\":9197:9260   */\n      swap2\n      pop\n        /* \"#utility.yul\":9152:9270   */\n      pop\n        /* \"#utility.yul\":8238:9277   */\n      swap3\n      pop\n      swap3\n      pop\n      swap3\n      jump\t// out\n        /* \"#utility.yul\":9283:9628   */\n    tag_192:\n        /* \"#utility.yul\":9350:9356   */\n      0x00\n        /* \"#utility.yul\":9399:9401   */\n      0x20\n        /* \"#utility.yul\":9387:9396   */\n      dup3\n        /* \"#utility.yul\":9378:9385   */\n      dup5\n        /* \"#utility.yul\":9374:9397   */\n      sub\n        /* \"#utility.yul\":9370:9402   */\n      slt\n        /* \"#utility.yul\":9367:9486   */\n      iszero\n      tag_364\n      jumpi\n        /* \"#utility.yul\":9405:9484   */\n      tag_365\n      tag_328\n      jump\t// in\n    tag_365:\n        /* \"#utility.yul\":9367:9486   */\n    tag_364:\n        /* \"#utility.yul\":9525:9526   */\n      0x00\n        /* \"#utility.yul\":9550:9611   */\n      tag_366\n        /* \"#utility.yul\":9603:9610   */\n      dup5\n        /* \"#utility.yul\":9594:9600   */\n      dup3\n        /* \"#utility.yul\":9583:9592   */\n      dup6\n        /* \"#utility.yul\":9579:9601   */\n      add\n        /* \"#utility.yul\":9550:9611   */\n      tag_315\n      jump\t// in\n    tag_366:\n        /* \"#utility.yul\":9540:9611   */\n      swap2\n      pop\n        /* \"#utility.yul\":9496:9621   */\n      pop\n        /* \"#utility.yul\":9283:9628   */\n      swap3\n      swap2\n      pop\n      pop\n      jump\t// out\n        /* \"#utility.yul\":9634:9963   */\n    tag_32:\n        /* \"#utility.yul\":9693:9699   */\n      0x00\n        /* \"#utility.yul\":9742:9744   */\n      0x20\n        /* \"#utility.yul\":9730:9739   */\n      dup3\n        /* \"#utility.yul\":9721:9728   */\n      dup5\n        /* \"#utility.yul\":9717:9740   */\n      sub\n        /* \"#utility.yul\":9713:9745   */\n      slt\n        /* \"#utility.yul\":9710:9829   */\n      iszero\n      tag_368\n      jumpi\n        /* \"#utility.yul\":9748:9827   */\n      tag_369\n      tag_328\n      jump\t// in\n    tag_369:\n        /* \"#utility.yul\":9710:9829   */\n    tag_368:\n        /* \"#utility.yul\":9868:9869   */\n      0x00\n        /* \"#utility.yul\":9893:9946   */\n      tag_370\n        /* \"#utility.yul\":9938:9945   */\n      dup5\n        /* \"#utility.yul\":9929:9935   */\n      dup3\n        /* \"#utility.yul\":9918:9927   */\n      dup6\n        /* \"#utility.yul\":9914:9936   */\n      add\n        /* \"#utility.yul\":9893:9946   */\n      tag_292\n      jump\t// in\n    tag_370:\n        /* \"#utility.yul\":9883:9946   */\n      swap2\n      pop\n        /* \"#utility.yul\":9839:9956   */\n      pop\n        /* \"#utility.yul\":9634:9963   */\n      swap3\n      swap2\n      pop\n      pop\n      jump\t// out\n        /* \"#utility.yul\":9969:10443   */\n    tag_20:\n        /* \"#utility.yul\":10037:10043   */\n      0x00\n        /* \"#utility.yul\":10045:10051   */\n      dup1\n        /* \"#utility.yul\":10094:10096   */\n      0x40\n        /* \"#utility.yul\":10082:10091   */\n      dup4\n        /* \"#utility.yul\":10073:10080   */\n      dup6\n        /* \"#utility.yul\":10069:10092   */\n      sub\n        /* \"#utility.yul\":10065:10097   */\n      slt\n        /* \"#utility.yul\":10062:10181   */\n      iszero\n      tag_372\n      jumpi\n        /* \"#utility.yul\":10100:10179   */\n      tag_373\n      tag_328\n      jump\t// in\n    tag_373:\n        /* \"#utility.yul\":10062:10181   */\n    tag_372:\n        /* \"#utility.yul\":10220:10221   */\n      0x00\n        /* \"#utility.yul\":10245:10298   */\n      tag_374\n        /* \"#utility.yul\":10290:10297   */\n      dup6\n        /* \"#utility.yul\":10281:10287   */\n      dup3\n        /* \"#utility.yul\":10270:10279   */\n      dup7\n        /* \"#utility.yul\":10266:10288   */\n      add\n        /* \"#utility.yul\":10245:10298   */\n      tag_292\n      jump\t// in\n    tag_374:\n        /* \"#utility.yul\":10235:10298   */\n      swap3\n      pop\n        /* \"#utility.yul\":10191:10308   */\n      pop\n        /* \"#utility.yul\":10347:10349   */\n      0x20\n        /* \"#utility.yul\":10373:10426   */\n      tag_375\n        /* \"#utility.yul\":10418:10425   */\n      dup6\n        /* \"#utility.yul\":10409:10415   */\n      dup3\n        /* \"#utility.yul\":10398:10407   */\n      dup7\n        /* \"#utility.yul\":10394:10416   */\n      add\n        /* \"#utility.yul\":10373:10426   */\n      tag_253\n      jump\t// in\n    tag_375:\n        /* \"#utility.yul\":10363:10426   */\n      swap2\n      pop\n        /* \"#utility.yul\":10318:10436   */\n      pop\n        /* \"#utility.yul\":9969:10443   */\n      swap3\n      pop\n      swap3\n      swap1\n      pop\n      jump\t// out\n        /* \"#utility.yul\":10449:10567   */\n    tag_376:\n        /* \"#utility.yul\":10536:10560   */\n      tag_378\n        /* \"#utility.yul\":10554:10559   */\n      dup2\n        /* \"#utility.yul\":10536:10560   */\n      tag_379\n      jump\t// in\n    tag_378:\n        /* \"#utility.yul\":10531:10534   */\n      dup3\n        /* \"#utility.yul\":10524:10561   */\n      mstore\n        /* \"#utility.yul\":10449:10567   */\n      pop\n      pop\n      jump\t// out\n        /* \"#utility.yul\":10573:10730   */\n    tag_380:\n        /* \"#utility.yul\":10678:10723   */\n      tag_382\n        /* \"#utility.yul\":10698:10722   */\n      tag_383\n        /* \"#utility.yul\":10716:10721   */\n      dup3\n        /* \"#utility.yul\":10698:10722   */\n      tag_379\n      jump\t// in\n    tag_383:\n        /* \"#utility.yul\":10678:10723   */\n      tag_384\n      jump\t// in\n    tag_382:\n        /* \"#utility.yul\":10673:10676   */\n      dup3\n        /* \"#utility.yul\":10666:10724   */\n      mstore\n        /* \"#utility.yul\":10573:10730   */\n      pop\n      pop\n      jump\t// out\n        /* \"#utility.yul\":10736:10845   */\n    tag_385:\n        /* \"#utility.yul\":10817:10838   */\n      tag_387\n        /* \"#utility.yul\":10832:10837   */\n      dup2\n        /* \"#utility.yul\":10817:10838   */\n      tag_388\n      jump\t// in\n    tag_387:\n        /* \"#utility.yul\":10812:10815   */\n      dup3\n        /* \"#utility.yul\":10805:10839   */\n      mstore\n        /* \"#utility.yul\":10736:10845   */\n      pop\n      pop\n      jump\t// out\n        /* \"#utility.yul\":10851:10969   */\n    tag_389:\n        /* \"#utility.yul\":10938:10962   */\n      tag_391\n        /* \"#utility.yul\":10956:10961   */\n      dup2\n        /* \"#utility.yul\":10938:10962   */\n      tag_392\n      jump\t// in\n    tag_391:\n        /* \"#utility.yul\":10933:10936   */\n      dup3\n        /* \"#utility.yul\":10926:10963   */\n      mstore\n        /* \"#utility.yul\":10851:10969   */\n      pop\n      pop\n      jump\t// out\n        /* \"#utility.yul\":10975:11348   */\n    tag_393:\n        /* \"#utility.yul\":11079:11082   */\n      0x00\n        /* \"#utility.yul\":11107:11145   */\n      tag_395\n        /* \"#utility.yul\":11139:11144   */\n      dup3\n        /* \"#utility.yul\":11107:11145   */\n      tag_396\n      jump\t// in\n    tag_395:\n        /* \"#utility.yul\":11161:11249   */\n      tag_397\n        /* \"#utility.yul\":11242:11248   */\n      dup2\n        /* \"#utility.yul\":11237:11240   */\n      dup6\n        /* \"#utility.yul\":11161:11249   */\n      tag_398\n      jump\t// in\n    tag_397:\n        /* \"#utility.yul\":11154:11249   */\n      swap4\n      pop\n        /* \"#utility.yul\":11258:11310   */\n      tag_399\n        /* \"#utility.yul\":11303:11309   */\n      dup2\n        /* \"#utility.yul\":11298:11301   */\n      dup6\n        /* \"#utility.yul\":11291:11295   */\n      0x20\n        /* \"#utility.yul\":11284:11289   */\n      dup7\n        /* \"#utility.yul\":11280:11296   */\n      add\n        /* \"#utility.yul\":11258:11310   */\n      tag_400\n      jump\t// in\n    tag_399:\n        /* \"#utility.yul\":11335:11341   */\n      dup1\n        /* \"#utility.yul\":11330:11333   */\n      dup5\n        /* \"#utility.yul\":11326:11342   */\n      add\n        /* \"#utility.yul\":11319:11342   */\n      swap2\n      pop\n        /* \"#utility.yul\":11083:11348   */\n      pop\n        /* \"#utility.yul\":10975:11348   */\n      swap3\n      swap2\n      pop\n      pop\n      jump\t// out\n        /* \"#utility.yul\":11354:11513   */\n    tag_401:\n        /* \"#utility.yul\":11455:11506   */\n      tag_403\n        /* \"#utility.yul\":11500:11505   */\n      dup2\n        /* \"#utility.yul\":11455:11506   */\n      tag_404\n      jump\t// in\n    tag_403:\n        /* \"#utility.yul\":11450:11453   */\n      dup3\n        /* \"#utility.yul\":11443:11507   */\n      mstore\n        /* \"#utility.yul\":11354:11513   */\n      pop\n      pop\n      jump\t// out\n        /* \"#utility.yul\":11519:11883   */\n    tag_405:\n        /* \"#utility.yul\":11607:11610   */\n      0x00\n        /* \"#utility.yul\":11635:11674   */\n      tag_407\n        /* \"#utility.yul\":11668:11673   */\n      dup3\n        /* \"#utility.yul\":11635:11674   */\n      tag_408\n      jump\t// in\n    tag_407:\n        /* \"#utility.yul\":11690:11761   */\n      tag_409\n        /* \"#utility.yul\":11754:11760   */\n      dup2\n        /* \"#utility.yul\":11749:11752   */\n      dup6\n        /* \"#utility.yul\":11690:11761   */\n      tag_410\n      jump\t// in\n    tag_409:\n        /* \"#utility.yul\":11683:11761   */\n      swap4\n      pop\n        /* \"#utility.yul\":11770:11822   */\n      tag_411\n        /* \"#utility.yul\":11815:11821   */\n      dup2\n        /* \"#utility.yul\":11810:11813   */\n      dup6\n        /* \"#utility.yul\":11803:11807   */\n      0x20\n        /* \"#utility.yul\":11796:11801   */\n      dup7\n        /* \"#utility.yul\":11792:11808   */\n      add\n        /* \"#utility.yul\":11770:11822   */\n      tag_400\n      jump\t// in\n    tag_411:\n        /* \"#utility.yul\":11847:11876   */\n      tag_412\n        /* \"#utility.yul\":11869:11875   */\n      dup2\n        /* \"#utility.yul\":11847:11876   */\n      tag_413\n      jump\t// in\n    tag_412:\n        /* \"#utility.yul\":11842:11845   */\n      dup5\n        /* \"#utility.yul\":11838:11877   */\n      add\n        /* \"#utility.yul\":11831:11877   */\n      swap2\n      pop\n        /* \"#utility.yul\":11611:11883   */\n      pop\n        /* \"#utility.yul\":11519:11883   */\n      swap3\n      swap2\n      pop\n      pop\n      jump\t// out\n        /* \"#utility.yul\":11889:12255   */\n    tag_414:\n        /* \"#utility.yul\":12031:12034   */\n      0x00\n        /* \"#utility.yul\":12052:12119   */\n      tag_416\n        /* \"#utility.yul\":12116:12118   */\n      0x1c\n        /* \"#utility.yul\":12111:12114   */\n      dup4\n        /* \"#utility.yul\":12052:12119   */\n      tag_410\n      jump\t// in\n    tag_416:\n        /* \"#utility.yul\":12045:12119   */\n      swap2\n      pop\n        /* \"#utility.yul\":12128:12221   */\n      tag_417\n        /* \"#utility.yul\":12217:12220   */\n      dup3\n        /* \"#utility.yul\":12128:12221   */\n      tag_418\n      jump\t// in\n    tag_417:\n        /* \"#utility.yul\":12246:12248   */\n      0x20\n        /* \"#utility.yul\":12241:12244   */\n      dup3\n        /* \"#utility.yul\":12237:12249   */\n      add\n        /* \"#utility.yul\":12230:12249   */\n      swap1\n      pop\n        /* \"#utility.yul\":11889:12255   */\n      swap2\n      swap1\n      pop\n      jump\t// out\n        /* \"#utility.yul\":12261:12627   */\n    tag_419:\n        /* \"#utility.yul\":12403:12406   */\n      0x00\n        /* \"#utility.yul\":12424:12491   */\n      tag_421\n        /* \"#utility.yul\":12488:12490   */\n      0x26\n        /* \"#utility.yul\":12483:12486   */\n      dup4\n        /* \"#utility.yul\":12424:12491   */\n      tag_410\n      jump\t// in\n    tag_421:\n        /* \"#utility.yul\":12417:12491   */\n      swap2\n      pop\n        /* \"#utility.yul\":12500:12593   */\n      tag_422\n        /* \"#utility.yul\":12589:12592   */\n      dup3\n        /* \"#utility.yul\":12500:12593   */\n      tag_423\n      jump\t// in\n    tag_422:\n        /* \"#utility.yul\":12618:12620   */\n      0x40\n        /* \"#utility.yul\":12613:12616   */\n      dup3\n        /* \"#utility.yul\":12609:12621   */\n      add\n        /* \"#utility.yul\":12602:12621   */\n      swap1\n      pop\n        /* \"#utility.yul\":12261:12627   */\n      swap2\n      swap1\n      pop\n      jump\t// out\n        /* \"#utility.yul\":12633:12999   */\n    tag_424:\n        /* \"#utility.yul\":12775:12778   */\n      0x00\n        /* \"#utility.yul\":12796:12863   */\n      tag_426\n        /* \"#utility.yul\":12860:12862   */\n      0x16\n        /* \"#utility.yul\":12855:12858   */\n      dup4\n        /* \"#utility.yul\":12796:12863   */\n      tag_410\n      jump\t// in\n    tag_426:\n        /* \"#utility.yul\":12789:12863   */\n      swap2\n      pop\n        /* \"#utility.yul\":12872:12965   */\n      tag_427\n        /* \"#utility.yul\":12961:12964   */\n      dup3\n        /* \"#utility.yul\":12872:12965   */\n      tag_428\n      jump\t// in\n    tag_427:\n        /* \"#utility.yul\":12990:12992   */\n      0x20\n        /* \"#utility.yul\":12985:12988   */\n      dup3\n        /* \"#utility.yul\":12981:12993   */\n      add\n        /* \"#utility.yul\":12974:12993   */\n      swap1\n      pop\n        /* \"#utility.yul\":12633:12999   */\n      swap2\n      swap1\n      pop\n      jump\t// out\n        /* \"#utility.yul\":13005:13371   */\n    tag_429:\n        /* \"#utility.yul\":13147:13150   */\n      0x00\n        /* \"#utility.yul\":13168:13235   */\n      tag_431\n        /* \"#utility.yul\":13232:13234   */\n      0x26\n        /* \"#utility.yul\":13227:13230   */\n      dup4\n        /* \"#utility.yul\":13168:13235   */\n      tag_410\n      jump\t// in\n    tag_431:\n        /* \"#utility.yul\":13161:13235   */\n      swap2\n      pop\n        /* \"#utility.yul\":13244:13337   */\n      tag_432\n        /* \"#utility.yul\":13333:13336   */\n      dup3\n        /* \"#utility.yul\":13244:13337   */\n      tag_433\n      jump\t// in\n    tag_432:\n        /* \"#utility.yul\":13362:13364   */\n      0x40\n        /* \"#utility.yul\":13357:13360   */\n      dup3\n        /* \"#utility.yul\":13353:13365   */\n      add\n        /* \"#utility.yul\":13346:13365   */\n      swap1\n      pop\n        /* \"#utility.yul\":13005:13371   */\n      swap2\n      swap1\n      pop\n      jump\t// out\n        /* \"#utility.yul\":13377:13743   */\n    tag_434:\n        /* \"#utility.yul\":13519:13522   */\n      0x00\n        /* \"#utility.yul\":13540:13607   */\n      tag_436\n        /* \"#utility.yul\":13604:13606   */\n      0x20\n        /* \"#utility.yul\":13599:13602   */\n      dup4\n        /* \"#utility.yul\":13540:13607   */\n      tag_410\n      jump\t// in\n    tag_436:\n        /* \"#utility.yul\":13533:13607   */\n      swap2\n      pop\n        /* \"#utility.yul\":13616:13709   */\n      tag_437\n        /* \"#utility.yul\":13705:13708   */\n      dup3\n        /* \"#utility.yul\":13616:13709   */\n      tag_438\n      jump\t// in\n    tag_437:\n        /* \"#utility.yul\":13734:13736   */\n      0x20\n        /* \"#utility.yul\":13729:13732   */\n      dup3\n        /* \"#utility.yul\":13725:13737   */\n      add\n        /* \"#utility.yul\":13718:13737   */\n      swap1\n      pop\n        /* \"#utility.yul\":13377:13743   */\n      swap2\n      swap1\n      pop\n      jump\t// out\n        /* \"#utility.yul\":13749:14115   */\n    tag_439:\n        /* \"#utility.yul\":13891:13894   */\n      0x00\n        /* \"#utility.yul\":13912:13979   */\n      tag_441\n        /* \"#utility.yul\":13976:13978   */\n      0x3d\n        /* \"#utility.yul\":13971:13974   */\n      dup4\n        /* \"#utility.yul\":13912:13979   */\n      tag_410\n      jump\t// in\n    tag_441:\n        /* \"#utility.yul\":13905:13979   */\n      swap2\n      pop\n        /* \"#utility.yul\":13988:14081   */\n      tag_442\n        /* \"#utility.yul\":14077:14080   */\n      dup3\n        /* \"#utility.yul\":13988:14081   */\n      tag_443\n      jump\t// in\n    tag_442:\n        /* \"#utility.yul\":14106:14108   */\n      0x40\n        /* \"#utility.yul\":14101:14104   */\n      dup3\n        /* \"#utility.yul\":14097:14109   */\n      add\n        /* \"#utility.yul\":14090:14109   */\n      swap1\n      pop\n        /* \"#utility.yul\":13749:14115   */\n      swap2\n      swap1\n      pop\n      jump\t// out\n        /* \"#utility.yul\":14121:14487   */\n    tag_444:\n        /* \"#utility.yul\":14263:14266   */\n      0x00\n        /* \"#utility.yul\":14284:14351   */\n      tag_446\n        /* \"#utility.yul\":14348:14350   */\n      0x16\n        /* \"#utility.yul\":14343:14346   */\n      dup4\n        /* \"#utility.yul\":14284:14351   */\n      tag_410\n      jump\t// in\n    tag_446:\n        /* \"#utility.yul\":14277:14351   */\n      swap2\n      pop\n        /* \"#utility.yul\":14360:14453   */\n      tag_447\n        /* \"#utility.yul\":14449:14452   */\n      dup3\n        /* \"#utility.yul\":14360:14453   */\n      tag_448\n      jump\t// in\n    tag_447:\n        /* \"#utility.yul\":14478:14480   */\n      0x20\n        /* \"#utility.yul\":14473:14476   */\n      dup3\n        /* \"#utility.yul\":14469:14481   */\n      add\n        /* \"#utility.yul\":14462:14481   */\n      swap1\n      pop\n        /* \"#utility.yul\":14121:14487   */\n      swap2\n      swap1\n      pop\n      jump\t// out\n        /* \"#utility.yul\":14493:14859   */\n    tag_449:\n        /* \"#utility.yul\":14635:14638   */\n      0x00\n        /* \"#utility.yul\":14656:14723   */\n      tag_451\n        /* \"#utility.yul\":14720:14722   */\n      0x1d\n        /* \"#utility.yul\":14715:14718   */\n      dup4\n        /* \"#utility.yul\":14656:14723   */\n      tag_410\n      jump\t// in\n    tag_451:\n        /* \"#utility.yul\":14649:14723   */\n      swap2\n      pop\n        /* \"#utility.yul\":14732:14825   */\n      tag_452\n        /* \"#utility.yul\":14821:14824   */\n      dup3\n        /* \"#utility.yul\":14732:14825   */\n      tag_453\n      jump\t// in\n    tag_452:\n        /* \"#utility.yul\":14850:14852   */\n      0x20\n        /* \"#utility.yul\":14845:14848   */\n      dup3\n        /* \"#utility.yul\":14841:14853   */\n      add\n        /* \"#utility.yul\":14834:14853   */\n      swap1\n      pop\n        /* \"#utility.yul\":14493:14859   */\n      swap2\n      swap1\n      pop\n      jump\t// out\n        /* \"#utility.yul\":14865:15231   */\n    tag_454:\n        /* \"#utility.yul\":15007:15010   */\n      0x00\n        /* \"#utility.yul\":15028:15095   */\n      tag_456\n        /* \"#utility.yul\":15092:15094   */\n      0x12\n        /* \"#utility.yul\":15087:15090   */\n      dup4\n        /* \"#utility.yul\":15028:15095   */\n      tag_410\n      jump\t// in\n    tag_456:\n        /* \"#utility.yul\":15021:15095   */\n      swap2\n      pop\n        /* \"#utility.yul\":15104:15197   */\n      tag_457\n        /* \"#utility.yul\":15193:15196   */\n      dup3\n        /* \"#utility.yul\":15104:15197   */\n      tag_458\n      jump\t// in\n    tag_457:\n        /* \"#utility.yul\":15222:15224   */\n      0x20\n        /* \"#utility.yul\":15217:15220   */\n      dup3\n        /* \"#utility.yul\":15213:15225   */\n      add\n        /* \"#utility.yul\":15206:15225   */\n      swap1\n      pop\n        /* \"#utility.yul\":14865:15231   */\n      swap2\n      swap1\n      pop\n      jump\t// out\n        /* \"#utility.yul\":15237:15603   */\n    tag_459:\n        /* \"#utility.yul\":15379:15382   */\n      0x00\n        /* \"#utility.yul\":15400:15467   */\n      tag_461\n        /* \"#utility.yul\":15464:15466   */\n      0x2a\n        /* \"#utility.yul\":15459:15462   */\n      dup4\n        /* \"#utility.yul\":15400:15467   */\n      tag_410\n      jump\t// in\n    tag_461:\n        /* \"#utility.yul\":15393:15467   */\n      swap2\n      pop\n        /* \"#utility.yul\":15476:15569   */\n      tag_462\n        /* \"#utility.yul\":15565:15568   */\n      dup3\n        /* \"#utility.yul\":15476:15569   */\n      tag_463\n      jump\t// in\n    tag_462:\n        /* \"#utility.yul\":15594:15596   */\n      0x40\n        /* \"#utility.yul\":15589:15592   */\n      dup3\n        /* \"#utility.yul\":15585:15597   */\n      add\n        /* \"#utility.yul\":15578:15597   */\n      swap1\n      pop\n        /* \"#utility.yul\":15237:15603   */\n      swap2\n      swap1\n      pop\n      jump\t// out\n        /* \"#utility.yul\":15609:15727   */\n    tag_464:\n        /* \"#utility.yul\":15696:15720   */\n      tag_466\n        /* \"#utility.yul\":15714:15719   */\n      dup2\n        /* \"#utility.yul\":15696:15720   */\n      tag_467\n      jump\t// in\n    tag_466:\n        /* \"#utility.yul\":15691:15694   */\n      dup3\n        /* \"#utility.yul\":15684:15721   */\n      mstore\n        /* \"#utility.yul\":15609:15727   */\n      pop\n      pop\n      jump\t// out\n        /* \"#utility.yul\":15733:15890   */\n    tag_468:\n        /* \"#utility.yul\":15838:15883   */\n      tag_470\n        /* \"#utility.yul\":15858:15882   */\n      tag_471\n        /* \"#utility.yul\":15876:15881   */\n      dup3\n        /* \"#utility.yul\":15858:15882   */\n      tag_467\n      jump\t// in\n    tag_471:\n        /* \"#utility.yul\":15838:15883   */\n      tag_472\n      jump\t// in\n    tag_470:\n        /* \"#utility.yul\":15833:15836   */\n      dup3\n        /* \"#utility.yul\":15826:15884   */\n      mstore\n        /* \"#utility.yul\":15733:15890   */\n      pop\n      pop\n      jump\t// out\n        /* \"#utility.yul\":15896:16293   */\n    tag_180:\n        /* \"#utility.yul\":16036:16039   */\n      0x00\n        /* \"#utility.yul\":16051:16126   */\n      tag_474\n        /* \"#utility.yul\":16122:16125   */\n      dup3\n        /* \"#utility.yul\":16113:16119   */\n      dup6\n        /* \"#utility.yul\":16051:16126   */\n      tag_380\n      jump\t// in\n    tag_474:\n        /* \"#utility.yul\":16151:16153   */\n      0x14\n        /* \"#utility.yul\":16146:16149   */\n      dup3\n        /* \"#utility.yul\":16142:16154   */\n      add\n        /* \"#utility.yul\":16135:16154   */\n      swap2\n      pop\n        /* \"#utility.yul\":16164:16239   */\n      tag_475\n        /* \"#utility.yul\":16235:16238   */\n      dup3\n        /* \"#utility.yul\":16226:16232   */\n      dup5\n        /* \"#utility.yul\":16164:16239   */\n      tag_468\n      jump\t// in\n    tag_475:\n        /* \"#utility.yul\":16264:16266   */\n      0x20\n        /* \"#utility.yul\":16259:16262   */\n      dup3\n        /* \"#utility.yul\":16255:16267   */\n      add\n        /* \"#utility.yul\":16248:16267   */\n      swap2\n      pop\n        /* \"#utility.yul\":16284:16287   */\n      dup2\n        /* \"#utility.yul\":16277:16287   */\n      swap1\n      pop\n        /* \"#utility.yul\":15896:16293   */\n      swap4\n      swap3\n      pop\n      pop\n      pop\n      jump\t// out\n        /* \"#utility.yul\":16299:16570   */\n    tag_224:\n        /* \"#utility.yul\":16429:16432   */\n      0x00\n        /* \"#utility.yul\":16451:16544   */\n      tag_477\n        /* \"#utility.yul\":16540:16543   */\n      dup3\n        /* \"#utility.yul\":16531:16537   */\n      dup5\n        /* \"#utility.yul\":16451:16544   */\n      tag_393\n      jump\t// in\n    tag_477:\n        /* \"#utility.yul\":16444:16544   */\n      swap2\n      pop\n        /* \"#utility.yul\":16561:16564   */\n      dup2\n        /* \"#utility.yul\":16554:16564   */\n      swap1\n      pop\n        /* \"#utility.yul\":16299:16570   */\n      swap3\n      swap2\n      pop\n      pop\n      jump\t// out\n        /* \"#utility.yul\":16576:16798   */\n    tag_39:\n        /* \"#utility.yul\":16669:16673   */\n      0x00\n        /* \"#utility.yul\":16707:16709   */\n      0x20\n        /* \"#utility.yul\":16696:16705   */\n      dup3\n        /* \"#utility.yul\":16692:16710   */\n      add\n        /* \"#utility.yul\":16684:16710   */\n      swap1\n      pop\n        /* \"#utility.yul\":16720:16791   */\n      tag_479\n        /* \"#utility.yul\":16788:16789   */\n      0x00\n        /* \"#utility.yul\":16777:16786   */\n      dup4\n        /* \"#utility.yul\":16773:16790   */\n      add\n        /* \"#utility.yul\":16764:16770   */\n      dup5\n        /* \"#utility.yul\":16720:16791   */\n      tag_376\n      jump\t// in\n    tag_479:\n        /* \"#utility.yul\":16576:16798   */\n      swap3\n      swap2\n      pop\n      pop\n      jump\t// out\n        /* \"#utility.yul\":16804:17246   */\n    tag_176:\n        /* \"#utility.yul\":16953:16957   */\n      0x00\n        /* \"#utility.yul\":16991:16993   */\n      0x60\n        /* \"#utility.yul\":16980:16989   */\n      dup3\n        /* \"#utility.yul\":16976:16994   */\n      add\n        /* \"#utility.yul\":16968:16994   */\n      swap1\n      pop\n        /* \"#utility.yul\":17004:17075   */\n      tag_481\n        /* \"#utility.yul\":17072:17073   */\n      0x00\n        /* \"#utility.yul\":17061:17070   */\n      dup4\n        /* \"#utility.yul\":17057:17074   */\n      add\n        /* \"#utility.yul\":17048:17054   */\n      dup7\n        /* \"#utility.yul\":17004:17075   */\n      tag_376\n      jump\t// in\n    tag_481:\n        /* \"#utility.yul\":17085:17157   */\n      tag_482\n        /* \"#utility.yul\":17153:17155   */\n      0x20\n        /* \"#utility.yul\":17142:17151   */\n      dup4\n        /* \"#utility.yul\":17138:17156   */\n      add\n        /* \"#utility.yul\":17129:17135   */\n      dup6\n        /* \"#utility.yul\":17085:17157   */\n      tag_376\n      jump\t// in\n    tag_482:\n        /* \"#utility.yul\":17167:17239   */\n      tag_483\n        /* \"#utility.yul\":17235:17237   */\n      0x40\n        /* \"#utility.yul\":17224:17233   */\n      dup4\n        /* \"#utility.yul\":17220:17238   */\n      add\n        /* \"#utility.yul\":17211:17217   */\n      dup5\n        /* \"#utility.yul\":17167:17239   */\n      tag_464\n      jump\t// in\n    tag_483:\n        /* \"#utility.yul\":16804:17246   */\n      swap5\n      swap4\n      pop\n      pop\n      pop\n      pop\n      jump\t// out\n        /* \"#utility.yul\":17252:17584   */\n    tag_186:\n        /* \"#utility.yul\":17373:17377   */\n      0x00\n        /* \"#utility.yul\":17411:17413   */\n      0x40\n        /* \"#utility.yul\":17400:17409   */\n      dup3\n        /* \"#utility.yul\":17396:17414   */\n      add\n        /* \"#utility.yul\":17388:17414   */\n      swap1\n      pop\n        /* \"#utility.yul\":17424:17495   */\n      tag_485\n        /* \"#utility.yul\":17492:17493   */\n      0x00\n        /* \"#utility.yul\":17481:17490   */\n      dup4\n        /* \"#utility.yul\":17477:17494   */\n      add\n        /* \"#utility.yul\":17468:17474   */\n      dup6\n        /* \"#utility.yul\":17424:17495   */\n      tag_376\n      jump\t// in\n    tag_485:\n        /* \"#utility.yul\":17505:17577   */\n      tag_486\n        /* \"#utility.yul\":17573:17575   */\n      0x20\n        /* \"#utility.yul\":17562:17571   */\n      dup4\n        /* \"#utility.yul\":17558:17576   */\n      add\n        /* \"#utility.yul\":17549:17555   */\n      dup5\n        /* \"#utility.yul\":17505:17577   */\n      tag_464\n      jump\t// in\n    tag_486:\n        /* \"#utility.yul\":17252:17584   */\n      swap4\n      swap3\n      pop\n      pop\n      pop\n      jump\t// out\n        /* \"#utility.yul\":17590:18032   */\n    tag_160:\n        /* \"#utility.yul\":17739:17743   */\n      0x00\n        /* \"#utility.yul\":17777:17779   */\n      0x60\n        /* \"#utility.yul\":17766:17775   */\n      dup3\n        /* \"#utility.yul\":17762:17780   */\n      add\n        /* \"#utility.yul\":17754:17780   */\n      swap1\n      pop\n        /* \"#utility.yul\":17790:17861   */\n      tag_488\n        /* \"#utility.yul\":17858:17859   */\n      0x00\n        /* \"#utility.yul\":17847:17856   */\n      dup4\n        /* \"#utility.yul\":17843:17860   */\n      add\n        /* \"#utility.yul\":17834:17840   */\n      dup7\n        /* \"#utility.yul\":17790:17861   */\n      tag_376\n      jump\t// in\n    tag_488:\n        /* \"#utility.yul\":17871:17943   */\n      tag_489\n        /* \"#utility.yul\":17939:17941   */\n      0x20\n        /* \"#utility.yul\":17928:17937   */\n      dup4\n        /* \"#utility.yul\":17924:17942   */\n      add\n        /* \"#utility.yul\":17915:17921   */\n      dup6\n        /* \"#utility.yul\":17871:17943   */\n      tag_464\n      jump\t// in\n    tag_489:\n        /* \"#utility.yul\":17953:18025   */\n      tag_490\n        /* \"#utility.yul\":18021:18023   */\n      0x40\n        /* \"#utility.yul\":18010:18019   */\n      dup4\n        /* \"#utility.yul\":18006:18024   */\n      add\n        /* \"#utility.yul\":17997:18003   */\n      dup5\n        /* \"#utility.yul\":17953:18025   */\n      tag_464\n      jump\t// in\n    tag_490:\n        /* \"#utility.yul\":17590:18032   */\n      swap5\n      swap4\n      pop\n      pop\n      pop\n      pop\n      jump\t// out\n        /* \"#utility.yul\":18038:18248   */\n    tag_23:\n        /* \"#utility.yul\":18125:18129   */\n      0x00\n        /* \"#utility.yul\":18163:18165   */\n      0x20\n        /* \"#utility.yul\":18152:18161   */\n      dup3\n        /* \"#utility.yul\":18148:18166   */\n      add\n        /* \"#utility.yul\":18140:18166   */\n      swap1\n      pop\n        /* \"#utility.yul\":18176:18241   */\n      tag_492\n        /* \"#utility.yul\":18238:18239   */\n      0x00\n        /* \"#utility.yul\":18227:18236   */\n      dup4\n        /* \"#utility.yul\":18223:18240   */\n      add\n        /* \"#utility.yul\":18214:18220   */\n      dup5\n        /* \"#utility.yul\":18176:18241   */\n      tag_385\n      jump\t// in\n    tag_492:\n        /* \"#utility.yul\":18038:18248   */\n      swap3\n      swap2\n      pop\n      pop\n      jump\t// out\n        /* \"#utility.yul\":18254:18476   */\n    tag_35:\n        /* \"#utility.yul\":18347:18351   */\n      0x00\n        /* \"#utility.yul\":18385:18387   */\n      0x20\n        /* \"#utility.yul\":18374:18383   */\n      dup3\n        /* \"#utility.yul\":18370:18388   */\n      add\n        /* \"#utility.yul\":18362:18388   */\n      swap1\n      pop\n        /* \"#utility.yul\":18398:18469   */\n      tag_494\n        /* \"#utility.yul\":18466:18467   */\n      0x00\n        /* \"#utility.yul\":18455:18464   */\n      dup4\n        /* \"#utility.yul\":18451:18468   */\n      add\n        /* \"#utility.yul\":18442:18448   */\n      dup5\n        /* \"#utility.yul\":18398:18469   */\n      tag_389\n      jump\t// in\n    tag_494:\n        /* \"#utility.yul\":18254:18476   */\n      swap3\n      swap2\n      pop\n      pop\n      jump\t// out\n        /* \"#utility.yul\":18482:18732   */\n    tag_70:\n        /* \"#utility.yul\":18589:18593   */\n      0x00\n        /* \"#utility.yul\":18627:18629   */\n      0x20\n        /* \"#utility.yul\":18616:18625   */\n      dup3\n        /* \"#utility.yul\":18612:18630   */\n      add\n        /* \"#utility.yul\":18604:18630   */\n      swap1\n      pop\n        /* \"#utility.yul\":18640:18725   */\n      tag_496\n        /* \"#utility.yul\":18722:18723   */\n      0x00\n        /* \"#utility.yul\":18711:18720   */\n      dup4\n        /* \"#utility.yul\":18707:18724   */\n      add\n        /* \"#utility.yul\":18698:18704   */\n      dup5\n        /* \"#utility.yul\":18640:18725   */\n      tag_401\n      jump\t// in\n    tag_496:\n        /* \"#utility.yul\":18482:18732   */\n      swap3\n      swap2\n      pop\n      pop\n      jump\t// out\n        /* \"#utility.yul\":18738:19051   */\n    tag_238:\n        /* \"#utility.yul\":18851:18855   */\n      0x00\n        /* \"#utility.yul\":18889:18891   */\n      0x20\n        /* \"#utility.yul\":18878:18887   */\n      dup3\n        /* \"#utility.yul\":18874:18892   */\n      add\n        /* \"#utility.yul\":18866:18892   */\n      swap1\n      pop\n        /* \"#utility.yul\":18938:18947   */\n      dup2\n        /* \"#utility.yul\":18932:18936   */\n      dup2\n        /* \"#utility.yul\":18928:18948   */\n      sub\n        /* \"#utility.yul\":18924:18925   */\n      0x00\n        /* \"#utility.yul\":18913:18922   */\n      dup4\n        /* \"#utility.yul\":18909:18926   */\n      add\n        /* \"#utility.yul\":18902:18949   */\n      mstore\n        /* \"#utility.yul\":18966:19044   */\n      tag_498\n        /* \"#utility.yul\":19039:19043   */\n      dup2\n        /* \"#utility.yul\":19030:19036   */\n      dup5\n        /* \"#utility.yul\":18966:19044   */\n      tag_405\n      jump\t// in\n    tag_498:\n        /* \"#utility.yul\":18958:19044   */\n      swap1\n      pop\n        /* \"#utility.yul\":18738:19051   */\n      swap3\n      swap2\n      pop\n      pop\n      jump\t// out\n        /* \"#utility.yul\":19057:19476   */\n    tag_151:\n        /* \"#utility.yul\":19223:19227   */\n      0x00\n        /* \"#utility.yul\":19261:19263   */\n      0x20\n        /* \"#utility.yul\":19250:19259   */\n      dup3\n        /* \"#utility.yul\":19246:19264   */\n      add\n        /* \"#utility.yul\":19238:19264   */\n      swap1\n      pop\n        /* \"#utility.yul\":19310:19319   */\n      dup2\n        /* \"#utility.yul\":19304:19308   */\n      dup2\n        /* \"#utility.yul\":19300:19320   */\n      sub\n        /* \"#utility.yul\":19296:19297   */\n      0x00\n        /* \"#utility.yul\":19285:19294   */\n      dup4\n        /* \"#utility.yul\":19281:19298   */\n      add\n        /* \"#utility.yul\":19274:19321   */\n      mstore\n        /* \"#utility.yul\":19338:19469   */\n      tag_500\n        /* \"#utility.yul\":19464:19468   */\n      dup2\n        /* \"#utility.yul\":19338:19469   */\n      tag_414\n      jump\t// in\n    tag_500:\n        /* \"#utility.yul\":19330:19469   */\n      swap1\n      pop\n        /* \"#utility.yul\":19057:19476   */\n      swap2\n      swap1\n      pop\n      jump\t// out\n        /* \"#utility.yul\":19482:19901   */\n    tag_146:\n        /* \"#utility.yul\":19648:19652   */\n      0x00\n        /* \"#utility.yul\":19686:19688   */\n      0x20\n        /* \"#utility.yul\":19675:19684   */\n      dup3\n        /* \"#utility.yul\":19671:19689   */\n      add\n        /* \"#utility.yul\":19663:19689   */\n      swap1\n      pop\n        /* \"#utility.yul\":19735:19744   */\n      dup2\n        /* \"#utility.yul\":19729:19733   */\n      dup2\n        /* \"#utility.yul\":19725:19745   */\n      sub\n        /* \"#utility.yul\":19721:19722   */\n      0x00\n        /* \"#utility.yul\":19710:19719   */\n      dup4\n        /* \"#utility.yul\":19706:19723   */\n      add\n        /* \"#utility.yul\":19699:19746   */\n      mstore\n        /* \"#utility.yul\":19763:19894   */\n      tag_502\n        /* \"#utility.yul\":19889:19893   */\n      dup2\n        /* \"#utility.yul\":19763:19894   */\n      tag_419\n      jump\t// in\n    tag_502:\n        /* \"#utility.yul\":19755:19894   */\n      swap1\n      pop\n        /* \"#utility.yul\":19482:19901   */\n      swap2\n      swap1\n      pop\n      jump\t// out\n        /* \"#utility.yul\":19907:20326   */\n    tag_158:\n        /* \"#utility.yul\":20073:20077   */\n      0x00\n        /* \"#utility.yul\":20111:20113   */\n      0x20\n        /* \"#utility.yul\":20100:20109   */\n      dup3\n        /* \"#utility.yul\":20096:20114   */\n      add\n        /* \"#utility.yul\":20088:20114   */\n      swap1\n      pop\n        /* \"#utility.yul\":20160:20169   */\n      dup2\n        /* \"#utility.yul\":20154:20158   */\n      dup2\n        /* \"#utility.yul\":20150:20170   */\n      sub\n        /* \"#utility.yul\":20146:20147   */\n      0x00\n        /* \"#utility.yul\":20135:20144   */\n      dup4\n        /* \"#utility.yul\":20131:20148   */\n      add\n        /* \"#utility.yul\":20124:20171   */\n      mstore\n        /* \"#utility.yul\":20188:20319   */\n      tag_504\n        /* \"#utility.yul\":20314:20318   */\n      dup2\n        /* \"#utility.yul\":20188:20319   */\n      tag_424\n      jump\t// in\n    tag_504:\n        /* \"#utility.yul\":20180:20319   */\n      swap1\n      pop\n        /* \"#utility.yul\":19907:20326   */\n      swap2\n      swap1\n      pop\n      jump\t// out\n        /* \"#utility.yul\":20332:20751   */\n    tag_217:\n        /* \"#utility.yul\":20498:20502   */\n      0x00\n        /* \"#utility.yul\":20536:20538   */\n      0x20\n        /* \"#utility.yul\":20525:20534   */\n      dup3\n        /* \"#utility.yul\":20521:20539   */\n      add\n        /* \"#utility.yul\":20513:20539   */\n      swap1\n      pop\n        /* \"#utility.yul\":20585:20594   */\n      dup2\n        /* \"#utility.yul\":20579:20583   */\n      dup2\n        /* \"#utility.yul\":20575:20595   */\n      sub\n        /* \"#utility.yul\":20571:20572   */\n      0x00\n        /* \"#utility.yul\":20560:20569   */\n      dup4\n        /* \"#utility.yul\":20556:20573   */\n      add\n        /* \"#utility.yul\":20549:20596   */\n      mstore\n        /* \"#utility.yul\":20613:20744   */\n      tag_506\n        /* \"#utility.yul\":20739:20743   */\n      dup2\n        /* \"#utility.yul\":20613:20744   */\n      tag_429\n      jump\t// in\n    tag_506:\n        /* \"#utility.yul\":20605:20744   */\n      swap1\n      pop\n        /* \"#utility.yul\":20332:20751   */\n      swap2\n      swap1\n      pop\n      jump\t// out\n        /* \"#utility.yul\":20757:21176   */\n    tag_82:\n        /* \"#utility.yul\":20923:20927   */\n      0x00\n        /* \"#utility.yul\":20961:20963   */\n      0x20\n        /* \"#utility.yul\":20950:20959   */\n      dup3\n        /* \"#utility.yul\":20946:20964   */\n      add\n        /* \"#utility.yul\":20938:20964   */\n      swap1\n      pop\n        /* \"#utility.yul\":21010:21019   */\n      dup2\n        /* \"#utility.yul\":21004:21008   */\n      dup2\n        /* \"#utility.yul\":21000:21020   */\n      sub\n        /* \"#utility.yul\":20996:20997   */\n      0x00\n        /* \"#utility.yul\":20985:20994   */\n      dup4\n        /* \"#utility.yul\":20981:20998   */\n      add\n        /* \"#utility.yul\":20974:21021   */\n      mstore\n        /* \"#utility.yul\":21038:21169   */\n      tag_508\n        /* \"#utility.yul\":21164:21168   */\n      dup2\n        /* \"#utility.yul\":21038:21169   */\n      tag_434\n      jump\t// in\n    tag_508:\n        /* \"#utility.yul\":21030:21169   */\n      swap1\n      pop\n        /* \"#utility.yul\":20757:21176   */\n      swap2\n      swap1\n      pop\n      jump\t// out\n        /* \"#utility.yul\":21182:21601   */\n    tag_167:\n        /* \"#utility.yul\":21348:21352   */\n      0x00\n        /* \"#utility.yul\":21386:21388   */\n      0x20\n        /* \"#utility.yul\":21375:21384   */\n      dup3\n        /* \"#utility.yul\":21371:21389   */\n      add\n        /* \"#utility.yul\":21363:21389   */\n      swap1\n      pop\n        /* \"#utility.yul\":21435:21444   */\n      dup2\n        /* \"#utility.yul\":21429:21433   */\n      dup2\n        /* \"#utility.yul\":21425:21445   */\n      sub\n        /* \"#utility.yul\":21421:21422   */\n      0x00\n        /* \"#utility.yul\":21410:21419   */\n      dup4\n        /* \"#utility.yul\":21406:21423   */\n      add\n        /* \"#utility.yul\":21399:21446   */\n      mstore\n        /* \"#utility.yul\":21463:21594   */\n      tag_510\n        /* \"#utility.yul\":21589:21593   */\n      dup2\n        /* \"#utility.yul\":21463:21594   */\n      tag_439\n      jump\t// in\n    tag_510:\n        /* \"#utility.yul\":21455:21594   */\n      swap1\n      pop\n        /* \"#utility.yul\":21182:21601   */\n      swap2\n      swap1\n      pop\n      jump\t// out\n        /* \"#utility.yul\":21607:22026   */\n    tag_154:\n        /* \"#utility.yul\":21773:21777   */\n      0x00\n        /* \"#utility.yul\":21811:21813   */\n      0x20\n        /* \"#utility.yul\":21800:21809   */\n      dup3\n        /* \"#utility.yul\":21796:21814   */\n      add\n        /* \"#utility.yul\":21788:21814   */\n      swap1\n      pop\n        /* \"#utility.yul\":21860:21869   */\n      dup2\n        /* \"#utility.yul\":21854:21858   */\n      dup2\n        /* \"#utility.yul\":21850:21870   */\n      sub\n        /* \"#utility.yul\":21846:21847   */\n      0x00\n        /* \"#utility.yul\":21835:21844   */\n      dup4\n        /* \"#utility.yul\":21831:21848   */\n      add\n        /* \"#utility.yul\":21824:21871   */\n      mstore\n        /* \"#utility.yul\":21888:22019   */\n      tag_512\n        /* \"#utility.yul\":22014:22018   */\n      dup2\n        /* \"#utility.yul\":21888:22019   */\n      tag_444\n      jump\t// in\n    tag_512:\n        /* \"#utility.yul\":21880:22019   */\n      swap1\n      pop\n        /* \"#utility.yul\":21607:22026   */\n      swap2\n      swap1\n      pop\n      jump\t// out\n        /* \"#utility.yul\":22032:22451   */\n    tag_222:\n        /* \"#utility.yul\":22198:22202   */\n      0x00\n        /* \"#utility.yul\":22236:22238   */\n      0x20\n        /* \"#utility.yul\":22225:22234   */\n      dup3\n        /* \"#utility.yul\":22221:22239   */\n      add\n        /* \"#utility.yul\":22213:22239   */\n      swap1\n      pop\n        /* \"#utility.yul\":22285:22294   */\n      dup2\n        /* \"#utility.yul\":22279:22283   */\n      dup2\n        /* \"#utility.yul\":22275:22295   */\n      sub\n        /* \"#utility.yul\":22271:22272   */\n      0x00\n        /* \"#utility.yul\":22260:22269   */\n      dup4\n        /* \"#utility.yul\":22256:22273   */\n      add\n        /* \"#utility.yul\":22249:22296   */\n      mstore\n        /* \"#utility.yul\":22313:22444   */\n      tag_514\n        /* \"#utility.yul\":22439:22443   */\n      dup2\n        /* \"#utility.yul\":22313:22444   */\n      tag_449\n      jump\t// in\n    tag_514:\n        /* \"#utility.yul\":22305:22444   */\n      swap1\n      pop\n        /* \"#utility.yul\":22032:22451   */\n      swap2\n      swap1\n      pop\n      jump\t// out\n        /* \"#utility.yul\":22457:22876   */\n    tag_91:\n        /* \"#utility.yul\":22623:22627   */\n      0x00\n        /* \"#utility.yul\":22661:22663   */\n      0x20\n        /* \"#utility.yul\":22650:22659   */\n      dup3\n        /* \"#utility.yul\":22646:22664   */\n      add\n        /* \"#utility.yul\":22638:22664   */\n      swap1\n      pop\n        /* \"#utility.yul\":22710:22719   */\n      dup2\n        /* \"#utility.yul\":22704:22708   */\n      dup2\n        /* \"#utility.yul\":22700:22720   */\n      sub\n        /* \"#utility.yul\":22696:22697   */\n      0x00\n        /* \"#utility.yul\":22685:22694   */\n      dup4\n        /* \"#utility.yul\":22681:22698   */\n      add\n        /* \"#utility.yul\":22674:22721   */\n      mstore\n        /* \"#utility.yul\":22738:22869   */\n      tag_516\n        /* \"#utility.yul\":22864:22868   */\n      dup2\n        /* \"#utility.yul\":22738:22869   */\n      tag_454\n      jump\t// in\n    tag_516:\n        /* \"#utility.yul\":22730:22869   */\n      swap1\n      pop\n        /* \"#utility.yul\":22457:22876   */\n      swap2\n      swap1\n      pop\n      jump\t// out\n        /* \"#utility.yul\":22882:23301   */\n    tag_195:\n        /* \"#utility.yul\":23048:23052   */\n      0x00\n        /* \"#utility.yul\":23086:23088   */\n      0x20\n        /* \"#utility.yul\":23075:23084   */\n      dup3\n        /* \"#utility.yul\":23071:23089   */\n      add\n        /* \"#utility.yul\":23063:23089   */\n      swap1\n      pop\n        /* \"#utility.yul\":23135:23144   */\n      dup2\n        /* \"#utility.yul\":23129:23133   */\n      dup2\n        /* \"#utility.yul\":23125:23145   */\n      sub\n        /* \"#utility.yul\":23121:23122   */\n      0x00\n        /* \"#utility.yul\":23110:23119   */\n      dup4\n        /* \"#utility.yul\":23106:23123   */\n      add\n        /* \"#utility.yul\":23099:23146   */\n      mstore\n        /* \"#utility.yul\":23163:23294   */\n      tag_518\n        /* \"#utility.yul\":23289:23293   */\n      dup2\n        /* \"#utility.yul\":23163:23294   */\n      tag_459\n      jump\t// in\n    tag_518:\n        /* \"#utility.yul\":23155:23294   */\n      swap1\n      pop\n        /* \"#utility.yul\":22882:23301   */\n      swap2\n      swap1\n      pop\n      jump\t// out\n        /* \"#utility.yul\":23307:23529   */\n    tag_60:\n        /* \"#utility.yul\":23400:23404   */\n      0x00\n        /* \"#utility.yul\":23438:23440   */\n      0x20\n        /* \"#utility.yul\":23427:23436   */\n      dup3\n        /* \"#utility.yul\":23423:23441   */\n      add\n        /* \"#utility.yul\":23415:23441   */\n      swap1\n      pop\n        /* \"#utility.yul\":23451:23522   */\n      tag_520\n        /* \"#utility.yul\":23519:23520   */\n      0x00\n        /* \"#utility.yul\":23508:23517   */\n      dup4\n        /* \"#utility.yul\":23504:23521   */\n      add\n        /* \"#utility.yul\":23495:23501   */\n      dup5\n        /* \"#utility.yul\":23451:23522   */\n      tag_464\n      jump\t// in\n    tag_520:\n        /* \"#utility.yul\":23307:23529   */\n      swap3\n      swap2\n      pop\n      pop\n      jump\t// out\n        /* \"#utility.yul\":23535:23664   */\n    tag_245:\n        /* \"#utility.yul\":23569:23575   */\n      0x00\n        /* \"#utility.yul\":23596:23616   */\n      tag_522\n      tag_523\n      jump\t// in\n    tag_522:\n        /* \"#utility.yul\":23586:23616   */\n      swap1\n      pop\n        /* \"#utility.yul\":23625:23658   */\n      tag_524\n        /* \"#utility.yul\":23653:23657   */\n      dup3\n        /* \"#utility.yul\":23645:23651   */\n      dup3\n        /* \"#utility.yul\":23625:23658   */\n      tag_525\n      jump\t// in\n    tag_524:\n        /* \"#utility.yul\":23535:23664   */\n      swap2\n      swap1\n      pop\n      jump\t// out\n        /* \"#utility.yul\":23670:23745   */\n    tag_523:\n        /* \"#utility.yul\":23703:23709   */\n      0x00\n        /* \"#utility.yul\":23736:23738   */\n      0x40\n        /* \"#utility.yul\":23730:23739   */\n      mload\n        /* \"#utility.yul\":23720:23739   */\n      swap1\n      pop\n        /* \"#utility.yul\":23670:23745   */\n      swap1\n      jump\t// out\n        /* \"#utility.yul\":23751:24062   */\n    tag_244:\n        /* \"#utility.yul\":23828:23832   */\n      0x00\n        /* \"#utility.yul\":23918:23936   */\n      0xffffffffffffffff\n        /* \"#utility.yul\":23910:23916   */\n      dup3\n        /* \"#utility.yul\":23907:23937   */\n      gt\n        /* \"#utility.yul\":23904:23960   */\n      iszero\n      tag_528\n      jumpi\n        /* \"#utility.yul\":23940:23958   */\n      tag_529\n      tag_530\n      jump\t// in\n    tag_529:\n        /* \"#utility.yul\":23904:23960   */\n    tag_528:\n        /* \"#utility.yul\":23990:23994   */\n      0x20\n        /* \"#utility.yul\":23982:23988   */\n      dup3\n        /* \"#utility.yul\":23978:23995   */\n      mul\n        /* \"#utility.yul\":23970:23995   */\n      swap1\n      pop\n        /* \"#utility.yul\":24050:24054   */\n      0x20\n        /* \"#utility.yul\":24044:24048   */\n      dup2\n        /* \"#utility.yul\":24040:24055   */\n      add\n        /* \"#utility.yul\":24032:24055   */\n      swap1\n      pop\n        /* \"#utility.yul\":23751:24062   */\n      swap2\n      swap1\n      pop\n      jump\t// out\n        /* \"#utility.yul\":24068:24404   */\n    tag_258:\n        /* \"#utility.yul\":24170:24174   */\n      0x00\n        /* \"#utility.yul\":24260:24278   */\n      0xffffffffffffffff\n        /* \"#utility.yul\":24252:24258   */\n      dup3\n        /* \"#utility.yul\":24249:24279   */\n      gt\n        /* \"#utility.yul\":24246:24302   */\n      iszero\n      tag_532\n      jumpi\n        /* \"#utility.yul\":24282:24300   */\n      tag_533\n      tag_530\n      jump\t// in\n    tag_533:\n        /* \"#utility.yul\":24246:24302   */\n    tag_532:\n        /* \"#utility.yul\":24332:24336   */\n      0x20\n        /* \"#utility.yul\":24324:24330   */\n      dup3\n        /* \"#utility.yul\":24320:24337   */\n      mul\n        /* \"#utility.yul\":24312:24337   */\n      swap1\n      pop\n        /* \"#utility.yul\":24392:24396   */\n      0x20\n        /* \"#utility.yul\":24386:24390   */\n      dup2\n        /* \"#utility.yul\":24382:24397   */\n      add\n        /* \"#utility.yul\":24374:24397   */\n      swap1\n      pop\n        /* \"#utility.yul\":24068:24404   */\n      swap2\n      swap1\n      pop\n      jump\t// out\n        /* \"#utility.yul\":24410:24721   */\n    tag_273:\n        /* \"#utility.yul\":24487:24491   */\n      0x00\n        /* \"#utility.yul\":24577:24595   */\n      0xffffffffffffffff\n        /* \"#utility.yul\":24569:24575   */\n      dup3\n        /* \"#utility.yul\":24566:24596   */\n      gt\n        /* \"#utility.yul\":24563:24619   */\n      iszero\n      tag_535\n      jumpi\n        /* \"#utility.yul\":24599:24617   */\n      tag_536\n      tag_530\n      jump\t// in\n    tag_536:\n        /* \"#utility.yul\":24563:24619   */\n    tag_535:\n        /* \"#utility.yul\":24649:24653   */\n      0x20\n        /* \"#utility.yul\":24641:24647   */\n      dup3\n        /* \"#utility.yul\":24637:24654   */\n      mul\n        /* \"#utility.yul\":24629:24654   */\n      swap1\n      pop\n        /* \"#utility.yul\":24709:24713   */\n      0x20\n        /* \"#utility.yul\":24703:24707   */\n      dup2\n        /* \"#utility.yul\":24699:24714   */\n      add\n        /* \"#utility.yul\":24691:24714   */\n      swap1\n      pop\n        /* \"#utility.yul\":24410:24721   */\n      swap2\n      swap1\n      pop\n      jump\t// out\n        /* \"#utility.yul\":24727:25038   */\n    tag_285:\n        /* \"#utility.yul\":24804:24808   */\n      0x00\n        /* \"#utility.yul\":24894:24912   */\n      0xffffffffffffffff\n        /* \"#utility.yul\":24886:24892   */\n      dup3\n        /* \"#utility.yul\":24883:24913   */\n      gt\n        /* \"#utility.yul\":24880:24936   */\n      iszero\n      tag_538\n      jumpi\n        /* \"#utility.yul\":24916:24934   */\n      tag_539\n      tag_530\n      jump\t// in\n    tag_539:\n        /* \"#utility.yul\":24880:24936   */\n    tag_538:\n        /* \"#utility.yul\":24966:24970   */\n      0x20\n        /* \"#utility.yul\":24958:24964   */\n      dup3\n        /* \"#utility.yul\":24954:24971   */\n      mul\n        /* \"#utility.yul\":24946:24971   */\n      swap1\n      pop\n        /* \"#utility.yul\":25026:25030   */\n      0x20\n        /* \"#utility.yul\":25020:25024   */\n      dup2\n        /* \"#utility.yul\":25016:25031   */\n      add\n        /* \"#utility.yul\":25008:25031   */\n      swap1\n      pop\n        /* \"#utility.yul\":24727:25038   */\n      swap2\n      swap1\n      pop\n      jump\t// out\n        /* \"#utility.yul\":25044:25142   */\n    tag_396:\n        /* \"#utility.yul\":25095:25101   */\n      0x00\n        /* \"#utility.yul\":25129:25134   */\n      dup2\n        /* \"#utility.yul\":25123:25135   */\n      mload\n        /* \"#utility.yul\":25113:25135   */\n      swap1\n      pop\n        /* \"#utility.yul\":25044:25142   */\n      swap2\n      swap1\n      pop\n      jump\t// out\n        /* \"#utility.yul\":25148:25247   */\n    tag_408:\n        /* \"#utility.yul\":25200:25206   */\n      0x00\n        /* \"#utility.yul\":25234:25239   */\n      dup2\n        /* \"#utility.yul\":25228:25240   */\n      mload\n        /* \"#utility.yul\":25218:25240   */\n      swap1\n      pop\n        /* \"#utility.yul\":25148:25247   */\n      swap2\n      swap1\n      pop\n      jump\t// out\n        /* \"#utility.yul\":25253:25400   */\n    tag_398:\n        /* \"#utility.yul\":25354:25365   */\n      0x00\n        /* \"#utility.yul\":25391:25394   */\n      dup2\n        /* \"#utility.yul\":25376:25394   */\n      swap1\n      pop\n        /* \"#utility.yul\":25253:25400   */\n      swap3\n      swap2\n      pop\n      pop\n      jump\t// out\n        /* \"#utility.yul\":25406:25575   */\n    tag_410:\n        /* \"#utility.yul\":25490:25501   */\n      0x00\n        /* \"#utility.yul\":25524:25530   */\n      dup3\n        /* \"#utility.yul\":25519:25522   */\n      dup3\n        /* \"#utility.yul\":25512:25531   */\n      mstore\n        /* \"#utility.yul\":25564:25568   */\n      0x20\n        /* \"#utility.yul\":25559:25562   */\n      dup3\n        /* \"#utility.yul\":25555:25569   */\n      add\n        /* \"#utility.yul\":25540:25569   */\n      swap1\n      pop\n        /* \"#utility.yul\":25406:25575   */\n      swap3\n      swap2\n      pop\n      pop\n      jump\t// out\n        /* \"#utility.yul\":25581:25886   */\n    tag_172:\n        /* \"#utility.yul\":25621:25624   */\n      0x00\n        /* \"#utility.yul\":25640:25660   */\n      tag_545\n        /* \"#utility.yul\":25658:25659   */\n      dup3\n        /* \"#utility.yul\":25640:25660   */\n      tag_467\n      jump\t// in\n    tag_545:\n        /* \"#utility.yul\":25635:25660   */\n      swap2\n      pop\n        /* \"#utility.yul\":25674:25694   */\n      tag_546\n        /* \"#utility.yul\":25692:25693   */\n      dup4\n        /* \"#utility.yul\":25674:25694   */\n      tag_467\n      jump\t// in\n    tag_546:\n        /* \"#utility.yul\":25669:25694   */\n      swap3\n      pop\n        /* \"#utility.yul\":25828:25829   */\n      dup3\n        /* \"#utility.yul\":25760:25826   */\n      0xffffffffffffffffffffffffffffffffffffffffffffffffffffffffffffffff\n        /* \"#utility.yul\":25756:25830   */\n      sub\n        /* \"#utility.yul\":25753:25754   */\n      dup3\n        /* \"#utility.yul\":25750:25831   */\n      gt\n        /* \"#utility.yul\":25747:25854   */\n      iszero\n      tag_547\n      jumpi\n        /* \"#utility.yul\":25834:25852   */\n      tag_548\n      tag_549\n      jump\t// in\n    tag_548:\n        /* \"#utility.yul\":25747:25854   */\n    tag_547:\n        /* \"#utility.yul\":25878:25879   */\n      dup3\n        /* \"#utility.yul\":25875:25876   */\n      dup3\n        /* \"#utility.yul\":25871:25880   */\n      add\n        /* \"#utility.yul\":25864:25880   */\n      swap1\n      pop\n        /* \"#utility.yul\":25581:25886   */\n      swap3\n      swap2\n      pop\n      pop\n      jump\t// out\n        /* \"#utility.yul\":25892:25988   */\n    tag_379:\n        /* \"#utility.yul\":25929:25936   */\n      0x00\n        /* \"#utility.yul\":25958:25982   */\n      tag_551\n        /* \"#utility.yul\":25976:25981   */\n      dup3\n        /* \"#utility.yul\":25958:25982   */\n      tag_552\n      jump\t// in\n    tag_551:\n        /* \"#utility.yul\":25947:25982   */\n      swap1\n      pop\n        /* \"#utility.yul\":25892:25988   */\n      swap2\n      swap1\n      pop\n      jump\t// out\n        /* \"#utility.yul\":25994:26084   */\n    tag_388:\n        /* \"#utility.yul\":26028:26035   */\n      0x00\n        /* \"#utility.yul\":26071:26076   */\n      dup2\n        /* \"#utility.yul\":26064:26077   */\n      iszero\n        /* \"#utility.yul\":26057:26078   */\n      iszero\n        /* \"#utility.yul\":26046:26078   */\n      swap1\n      pop\n        /* \"#utility.yul\":25994:26084   */\n      swap2\n      swap1\n      pop\n      jump\t// out\n        /* \"#utility.yul\":26090:26167   */\n    tag_392:\n        /* \"#utility.yul\":26127:26134   */\n      0x00\n        /* \"#utility.yul\":26156:26161   */\n      dup2\n        /* \"#utility.yul\":26145:26161   */\n      swap1\n      pop\n        /* \"#utility.yul\":26090:26167   */\n      swap2\n      swap1\n      pop\n      jump\t// out\n        /* \"#utility.yul\":26173:26299   */\n    tag_552:\n        /* \"#utility.yul\":26210:26217   */\n      0x00\n        /* \"#utility.yul\":26250:26292   */\n      0xffffffffffffffffffffffffffffffffffffffff\n        /* \"#utility.yul\":26243:26248   */\n      dup3\n        /* \"#utility.yul\":26239:26293   */\n      and\n        /* \"#utility.yul\":26228:26293   */\n      swap1\n      pop\n        /* \"#utility.yul\":26173:26299   */\n      swap2\n      swap1\n      pop\n      jump\t// out\n        /* \"#utility.yul\":26305:26382   */\n    tag_467:\n        /* \"#utility.yul\":26342:26349   */\n      0x00\n        /* \"#utility.yul\":26371:26376   */\n      dup2\n        /* \"#utility.yul\":26360:26376   */\n      swap1\n      pop\n        /* \"#utility.yul\":26305:26382   */\n      swap2\n      swap1\n      pop\n      jump\t// out\n        /* \"#utility.yul\":26388:26528   */\n    tag_404:\n        /* \"#utility.yul\":26452:26461   */\n      0x00\n        /* \"#utility.yul\":26485:26522   */\n      tag_558\n        /* \"#utility.yul\":26516:26521   */\n      dup3\n        /* \"#utility.yul\":26485:26522   */\n      tag_559\n      jump\t// in\n    tag_558:\n        /* \"#utility.yul\":26472:26522   */\n      swap1\n      pop\n        /* \"#utility.yul\":26388:26528   */\n      swap2\n      swap1\n      pop\n      jump\t// out\n        /* \"#utility.yul\":26534:26660   */\n    tag_559:\n        /* \"#utility.yul\":26584:26593   */\n      0x00\n        /* \"#utility.yul\":26617:26654   */\n      tag_561\n        /* \"#utility.yul\":26648:26653   */\n      dup3\n        /* \"#utility.yul\":26617:26654   */\n      tag_562\n      jump\t// in\n    tag_561:\n        /* \"#utility.yul\":26604:26654   */\n      swap1\n      pop\n        /* \"#utility.yul\":26534:26660   */\n      swap2\n      swap1\n      pop\n      jump\t// out\n        /* \"#utility.yul\":26666:26779   */\n    tag_562:\n        /* \"#utility.yul\":26716:26725   */\n      0x00\n        /* \"#utility.yul\":26749:26773   */\n      tag_564\n        /* \"#utility.yul\":26767:26772   */\n      dup3\n        /* \"#utility.yul\":26749:26773   */\n      tag_552\n      jump\t// in\n    tag_564:\n        /* \"#utility.yul\":26736:26773   */\n      swap1\n      pop\n        /* \"#utility.yul\":26666:26779   */\n      swap2\n      swap1\n      pop\n      jump\t// out\n        /* \"#utility.yul\":26785:27092   */\n    tag_400:\n        /* \"#utility.yul\":26853:26854   */\n      0x00\n        /* \"#utility.yul\":26863:26976   */\n    tag_566:\n        /* \"#utility.yul\":26877:26883   */\n      dup4\n        /* \"#utility.yul\":26874:26875   */\n      dup2\n        /* \"#utility.yul\":26871:26884   */\n      lt\n        /* \"#utility.yul\":26863:26976   */\n      iszero\n      tag_568\n      jumpi\n        /* \"#utility.yul\":26962:26963   */\n      dup1\n        /* \"#utility.yul\":26957:26960   */\n      dup3\n        /* \"#utility.yul\":26953:26964   */\n      add\n        /* \"#utility.yul\":26947:26965   */\n      mload\n        /* \"#utility.yul\":26943:26944   */\n      dup2\n        /* \"#utility.yul\":26938:26941   */\n      dup5\n        /* \"#utility.yul\":26934:26945   */\n      add\n        /* \"#utility.yul\":26927:26966   */\n      mstore\n        /* \"#utility.yul\":26899:26901   */\n      0x20\n        /* \"#utility.yul\":26896:26897   */\n      dup2\n        /* \"#utility.yul\":26892:26902   */\n      add\n        /* \"#utility.yul\":26887:26902   */\n      swap1\n      pop\n        /* \"#utility.yul\":26863:26976   */\n      jump(tag_566)\n    tag_568:\n        /* \"#utility.yul\":26994:27000   */\n      dup4\n        /* \"#utility.yul\":26991:26992   */\n      dup2\n        /* \"#utility.yul\":26988:27001   */\n      gt\n        /* \"#utility.yul\":26985:27086   */\n      iszero\n      tag_569\n      jumpi\n        /* \"#utility.yul\":27074:27075   */\n      0x00\n        /* \"#utility.yul\":27065:27071   */\n      dup5\n        /* \"#utility.yul\":27060:27063   */\n      dup5\n        /* \"#utility.yul\":27056:27072   */\n      add\n        /* \"#utility.yul\":27049:27076   */\n      mstore\n        /* \"#utility.yul\":26985:27086   */\n    tag_569:\n        /* \"#utility.yul\":26834:27092   */\n      pop\n        /* \"#utility.yul\":26785:27092   */\n      pop\n      pop\n      pop\n      jump\t// out\n        /* \"#utility.yul\":27098:27379   */\n    tag_525:\n        /* \"#utility.yul\":27181:27208   */\n      tag_571\n        /* \"#utility.yul\":27203:27207   */\n      dup3\n        /* \"#utility.yul\":27181:27208   */\n      tag_413\n      jump\t// in\n    tag_571:\n        /* \"#utility.yul\":27173:27179   */\n      dup2\n        /* \"#utility.yul\":27169:27209   */\n      add\n        /* \"#utility.yul\":27311:27317   */\n      dup2\n        /* \"#utility.yul\":27299:27309   */\n      dup2\n        /* \"#utility.yul\":27296:27318   */\n      lt\n        /* \"#utility.yul\":27275:27293   */\n      0xffffffffffffffff\n        /* \"#utility.yul\":27263:27273   */\n      dup3\n        /* \"#utility.yul\":27260:27294   */\n      gt\n        /* \"#utility.yul\":27257:27319   */\n      or\n        /* \"#utility.yul\":27254:27342   */\n      iszero\n      tag_572\n      jumpi\n        /* \"#utility.yul\":27322:27340   */\n      tag_573\n      tag_530\n      jump\t// in\n    tag_573:\n        /* \"#utility.yul\":27254:27342   */\n    tag_572:\n        /* \"#utility.yul\":27362:27372   */\n      dup1\n        /* \"#utility.yul\":27358:27360   */\n      0x40\n        /* \"#utility.yul\":27351:27373   */\n      mstore\n        /* \"#utility.yul\":27141:27379   */\n      pop\n        /* \"#utility.yul\":27098:27379   */\n      pop\n      pop\n      jump\t// out\n        /* \"#utility.yul\":27385:27618   */\n    tag_108:\n        /* \"#utility.yul\":27424:27427   */\n      0x00\n        /* \"#utility.yul\":27447:27471   */\n      tag_575\n        /* \"#utility.yul\":27465:27470   */\n      dup3\n        /* \"#utility.yul\":27447:27471   */\n      tag_467\n      jump\t// in\n    tag_575:\n        /* \"#utility.yul\":27438:27471   */\n      swap2\n      pop\n        /* \"#utility.yul\":27493:27559   */\n      0xffffffffffffffffffffffffffffffffffffffffffffffffffffffffffffffff\n        /* \"#utility.yul\":27486:27491   */\n      dup3\n        /* \"#utility.yul\":27483:27560   */\n      eq\n        /* \"#utility.yul\":27480:27583   */\n      iszero\n      tag_576\n      jumpi\n        /* \"#utility.yul\":27563:27581   */\n      tag_577\n      tag_549\n      jump\t// in\n    tag_577:\n        /* \"#utility.yul\":27480:27583   */\n    tag_576:\n        /* \"#utility.yul\":27610:27611   */\n      0x01\n        /* \"#utility.yul\":27603:27608   */\n      dup3\n        /* \"#utility.yul\":27599:27612   */\n      add\n        /* \"#utility.yul\":27592:27612   */\n      swap1\n      pop\n        /* \"#utility.yul\":27385:27618   */\n      swap2\n      swap1\n      pop\n      jump\t// out\n        /* \"#utility.yul\":27624:27724   */\n    tag_384:\n        /* \"#utility.yul\":27663:27670   */\n      0x00\n        /* \"#utility.yul\":27692:27718   */\n      tag_579\n        /* \"#utility.yul\":27712:27717   */\n      dup3\n        /* \"#utility.yul\":27692:27718   */\n      tag_580\n      jump\t// in\n    tag_579:\n        /* \"#utility.yul\":27681:27718   */\n      swap1\n      pop\n        /* \"#utility.yul\":27624:27724   */\n      swap2\n      swap1\n      pop\n      jump\t// out\n        /* \"#utility.yul\":27730:27824   */\n    tag_580:\n        /* \"#utility.yul\":27769:27776   */\n      0x00\n        /* \"#utility.yul\":27798:27818   */\n      tag_582\n        /* \"#utility.yul\":27812:27817   */\n      dup3\n        /* \"#utility.yul\":27798:27818   */\n      tag_583\n      jump\t// in\n    tag_582:\n        /* \"#utility.yul\":27787:27818   */\n      swap1\n      pop\n        /* \"#utility.yul\":27730:27824   */\n      swap2\n      swap1\n      pop\n      jump\t// out\n        /* \"#utility.yul\":27830:27909   */\n    tag_472:\n        /* \"#utility.yul\":27869:27876   */\n      0x00\n        /* \"#utility.yul\":27898:27903   */\n      dup2\n        /* \"#utility.yul\":27887:27903   */\n      swap1\n      pop\n        /* \"#utility.yul\":27830:27909   */\n      swap2\n      swap1\n      pop\n      jump\t// out\n        /* \"#utility.yul\":27915:28095   */\n    tag_549:\n        /* \"#utility.yul\":27963:28040   */\n      0x4e487b7100000000000000000000000000000000000000000000000000000000\n        /* \"#utility.yul\":27960:27961   */\n      0x00\n        /* \"#utility.yul\":27953:28041   */\n      mstore\n        /* \"#utility.yul\":28060:28064   */\n      0x11\n        /* \"#utility.yul\":28057:28058   */\n      0x04\n        /* \"#utility.yul\":28050:28065   */\n      mstore\n        /* \"#utility.yul\":28084:28088   */\n      0x24\n        /* \"#utility.yul\":28081:28082   */\n      0x00\n        /* \"#utility.yul\":28074:28089   */\n      revert\n        /* \"#utility.yul\":28101:28281   */\n    tag_98:\n        /* \"#utility.yul\":28149:28226   */\n      0x4e487b7100000000000000000000000000000000000000000000000000000000\n        /* \"#utility.yul\":28146:28147   */\n      0x00\n        /* \"#utility.yul\":28139:28227   */\n      mstore\n        /* \"#utility.yul\":28246:28250   */\n      0x32\n        /* \"#utility.yul\":28243:28244   */\n      0x04\n        /* \"#utility.yul\":28236:28251   */\n      mstore\n        /* \"#utility.yul\":28270:28274   */\n      0x24\n        /* \"#utility.yul\":28267:28268   */\n      0x00\n        /* \"#utility.yul\":28260:28275   */\n      revert\n        /* \"#utility.yul\":28287:28467   */\n    tag_530:\n        /* \"#utility.yul\":28335:28412   */\n      0x4e487b7100000000000000000000000000000000000000000000000000000000\n        /* \"#utility.yul\":28332:28333   */\n      0x00\n        /* \"#utility.yul\":28325:28413   */\n      mstore\n        /* \"#utility.yul\":28432:28436   */\n      0x41\n        /* \"#utility.yul\":28429:28430   */\n      0x04\n        /* \"#utility.yul\":28422:28437   */\n      mstore\n        /* \"#utility.yul\":28456:28460   */\n      0x24\n        /* \"#utility.yul\":28453:28454   */\n      0x00\n        /* \"#utility.yul\":28446:28461   */\n      revert\n        /* \"#utility.yul\":28473:28590   */\n    tag_266:\n        /* \"#utility.yul\":28582:28583   */\n      0x00\n        /* \"#utility.yul\":28579:28580   */\n      dup1\n        /* \"#utility.yul\":28572:28584   */\n      revert\n        /* \"#utility.yul\":28596:28713   */\n    tag_248:\n        /* \"#utility.yul\":28705:28706   */\n      0x00\n        /* \"#utility.yul\":28702:28703   */\n      dup1\n        /* \"#utility.yul\":28695:28707   */\n      revert\n        /* \"#utility.yul\":28719:28836   */\n    tag_336:\n        /* \"#utility.yul\":28828:28829   */\n      0x00\n        /* \"#utility.yul\":28825:28826   */\n      dup1\n        /* \"#utility.yul\":28818:28830   */\n      revert\n        /* \"#utility.yul\":28842:28959   */\n    tag_328:\n        /* \"#utility.yul\":28951:28952   */\n      0x00\n        /* \"#utility.yul\":28948:28949   */\n      dup1\n        /* \"#utility.yul\":28941:28953   */\n      revert\n        /* \"#utility.yul\":28965:29067   */\n    tag_413:\n        /* \"#utility.yul\":29006:29012   */\n      0x00\n        /* \"#utility.yul\":29057:29059   */\n      0x1f\n        /* \"#utility.yul\":29053:29060   */\n      not\n        /* \"#utility.yul\":29048:29050   */\n      0x1f\n        /* \"#utility.yul\":29041:29046   */\n      dup4\n        /* \"#utility.yul\":29037:29051   */\n      add\n        /* \"#utility.yul\":29033:29061   */\n      and\n        /* \"#utility.yul\":29023:29061   */\n      swap1\n      pop\n        /* \"#utility.yul\":28965:29067   */\n      swap2\n      swap1\n      pop\n      jump\t// out\n        /* \"#utility.yul\":29073:29167   */\n    tag_583:\n        /* \"#utility.yul\":29106:29114   */\n      0x00\n        /* \"#utility.yul\":29154:29159   */\n      dup2\n        /* \"#utility.yul\":29150:29152   */\n      0x60\n        /* \"#utility.yul\":29146:29160   */\n      shl\n        /* \"#utility.yul\":29125:29160   */\n      swap1\n      pop\n        /* \"#utility.yul\":29073:29167   */\n      swap2\n      swap1\n      pop\n      jump\t// out\n        /* \"#utility.yul\":29173:29351   */\n    tag_418:\n        /* \"#utility.yul\":29313:29343   */\n      0x5765656b2063616e6e6f7420626520696e207468652066757475726500000000\n        /* \"#utility.yul\":29309:29310   */\n      0x00\n        /* \"#utility.yul\":29301:29307   */\n      dup3\n        /* \"#utility.yul\":29297:29311   */\n      add\n        /* \"#utility.yul\":29290:29344   */\n      mstore\n        /* \"#utility.yul\":29173:29351   */\n      pop\n      jump\t// out\n        /* \"#utility.yul\":29357:29582   */\n    tag_423:\n        /* \"#utility.yul\":29497:29531   */\n      0x4f776e61626c653a206e6577206f776e657220697320746865207a65726f2061\n        /* \"#utility.yul\":29493:29494   */\n      0x00\n        /* \"#utility.yul\":29485:29491   */\n      dup3\n        /* \"#utility.yul\":29481:29495   */\n      add\n        /* \"#utility.yul\":29474:29532   */\n      mstore\n        /* \"#utility.yul\":29566:29574   */\n      0x6464726573730000000000000000000000000000000000000000000000000000\n        /* \"#utility.yul\":29561:29563   */\n      0x20\n        /* \"#utility.yul\":29553:29559   */\n      dup3\n        /* \"#utility.yul\":29549:29564   */\n      add\n        /* \"#utility.yul\":29542:29575   */\n      mstore\n        /* \"#utility.yul\":29357:29582   */\n      pop\n      jump\t// out\n        /* \"#utility.yul\":29588:29760   */\n    tag_428:\n        /* \"#utility.yul\":29728:29752   */\n      0x496e636f7272656374206d65726b6c652070726f6f6600000000000000000000\n        /* \"#utility.yul\":29724:29725   */\n      0x00\n        /* \"#utility.yul\":29716:29722   */\n      dup3\n        /* \"#utility.yul\":29712:29726   */\n      add\n        /* \"#utility.yul\":29705:29753   */\n      mstore\n        /* \"#utility.yul\":29588:29760   */\n      pop\n      jump\t// out\n        /* \"#utility.yul\":29766:29991   */\n    tag_433:\n        /* \"#utility.yul\":29906:29940   */\n      0x416464726573733a20696e73756666696369656e742062616c616e636520666f\n        /* \"#utility.yul\":29902:29903   */\n      0x00\n        /* \"#utility.yul\":29894:29900   */\n      dup3\n        /* \"#utility.yul\":29890:29904   */\n      add\n        /* \"#utility.yul\":29883:29941   */\n      mstore\n        /* \"#utility.yul\":29975:29983   */\n      0x722063616c6c0000000000000000000000000000000000000000000000000000\n        /* \"#utility.yul\":29970:29972   */\n      0x20\n        /* \"#utility.yul\":29962:29968   */\n      dup3\n        /* \"#utility.yul\":29958:29973   */\n      add\n        /* \"#utility.yul\":29951:29984   */\n      mstore\n        /* \"#utility.yul\":29766:29991   */\n      pop\n      jump\t// out\n        /* \"#utility.yul\":29997:30179   */\n    tag_438:\n        /* \"#utility.yul\":30137:30171   */\n      0x4f776e61626c653a2063616c6c6572206973206e6f7420746865206f776e6572\n        /* \"#utility.yul\":30133:30134   */\n      0x00\n        /* \"#utility.yul\":30125:30131   */\n      dup3\n        /* \"#utility.yul\":30121:30135   */\n      add\n        /* \"#utility.yul\":30114:30172   */\n      mstore\n        /* \"#utility.yul\":29997:30179   */\n      pop\n      jump\t// out\n        /* \"#utility.yul\":30185:30433   */\n    tag_443:\n        /* \"#utility.yul\":30325:30359   */\n      0x4e6f2062616c616e636520776f756c64206265207472616e7366657272656420\n        /* \"#utility.yul\":30321:30322   */\n      0x00\n        /* \"#utility.yul\":30313:30319   */\n      dup3\n        /* \"#utility.yul\":30309:30323   */\n      add\n        /* \"#utility.yul\":30302:30360   */\n      mstore\n        /* \"#utility.yul\":30394:30425   */\n      0x2d206e6f7420676f696e6720746f20776173746520796f757220676173000000\n        /* \"#utility.yul\":30389:30391   */\n      0x20\n        /* \"#utility.yul\":30381:30387   */\n      dup3\n        /* \"#utility.yul\":30377:30392   */\n      add\n        /* \"#utility.yul\":30370:30426   */\n      mstore\n        /* \"#utility.yul\":30185:30433   */\n      pop\n      jump\t// out\n        /* \"#utility.yul\":30439:30611   */\n    tag_448:\n        /* \"#utility.yul\":30579:30603   */\n      0x4c502068617320616c726561647920636c61696d656400000000000000000000\n        /* \"#utility.yul\":30575:30576   */\n      0x00\n        /* \"#utility.yul\":30567:30573   */\n      dup3\n        /* \"#utility.yul\":30563:30577   */\n      add\n        /* \"#utility.yul\":30556:30604   */\n      mstore\n        /* \"#utility.yul\":30439:30611   */\n      pop\n      jump\t// out\n        /* \"#utility.yul\":30617:30796   */\n    tag_453:\n        /* \"#utility.yul\":30757:30788   */\n      0x416464726573733a2063616c6c20746f206e6f6e2d636f6e7472616374000000\n        /* \"#utility.yul\":30753:30754   */\n      0x00\n        /* \"#utility.yul\":30745:30751   */\n      dup3\n        /* \"#utility.yul\":30741:30755   */\n      add\n        /* \"#utility.yul\":30734:30789   */\n      mstore\n        /* \"#utility.yul\":30617:30796   */\n      pop\n      jump\t// out\n        /* \"#utility.yul\":30802:30970   */\n    tag_458:\n        /* \"#utility.yul\":30942:30962   */\n      0x4d69736d61746368696e6720696e707574730000000000000000000000000000\n        /* \"#utility.yul\":30938:30939   */\n      0x00\n        /* \"#utility.yul\":30930:30936   */\n      dup3\n        /* \"#utility.yul\":30926:30940   */\n      add\n        /* \"#utility.yul\":30919:30963   */\n      mstore\n        /* \"#utility.yul\":30802:30970   */\n      pop\n      jump\t// out\n        /* \"#utility.yul\":30976:31205   */\n    tag_463:\n        /* \"#utility.yul\":31116:31150   */\n      0x5361666545524332303a204552433230206f7065726174696f6e20646964206e\n        /* \"#utility.yul\":31112:31113   */\n      0x00\n        /* \"#utility.yul\":31104:31110   */\n      dup3\n        /* \"#utility.yul\":31100:31114   */\n      add\n        /* \"#utility.yul\":31093:31151   */\n      mstore\n        /* \"#utility.yul\":31185:31197   */\n      0x6f74207375636365656400000000000000000000000000000000000000000000\n        /* \"#utility.yul\":31180:31182   */\n      0x20\n        /* \"#utility.yul\":31172:31178   */\n      dup3\n        /* \"#utility.yul\":31168:31183   */\n      add\n        /* \"#utility.yul\":31161:31198   */\n      mstore\n        /* \"#utility.yul\":30976:31205   */\n      pop\n      jump\t// out\n        /* \"#utility.yul\":31211:31333   */\n    tag_295:\n        /* \"#utility.yul\":31284:31308   */\n      tag_605\n        /* \"#utility.yul\":31302:31307   */\n      dup2\n        /* \"#utility.yul\":31284:31308   */\n      tag_379\n      jump\t// in\n    tag_605:\n        /* \"#utility.yul\":31277:31282   */\n      dup2\n        /* \"#utility.yul\":31274:31309   */\n      eq\n        /* \"#utility.yul\":31264:31327   */\n      tag_606\n      jumpi\n        /* \"#utility.yul\":31323:31324   */\n      0x00\n        /* \"#utility.yul\":31320:31321   */\n      dup1\n        /* \"#utility.yul\":31313:31325   */\n      revert\n        /* \"#utility.yul\":31264:31327   */\n    tag_606:\n        /* \"#utility.yul\":31211:31333   */\n      pop\n      jump\t// out\n        /* \"#utility.yul\":31339:31455   */\n    tag_318:\n        /* \"#utility.yul\":31409:31430   */\n      tag_608\n        /* \"#utility.yul\":31424:31429   */\n      dup2\n        /* \"#utility.yul\":31409:31430   */\n      tag_388\n      jump\t// in\n    tag_608:\n        /* \"#utility.yul\":31402:31407   */\n      dup2\n        /* \"#utility.yul\":31399:31431   */\n      eq\n        /* \"#utility.yul\":31389:31449   */\n      tag_609\n      jumpi\n        /* \"#utility.yul\":31445:31446   */\n      0x00\n        /* \"#utility.yul\":31442:31443   */\n      dup1\n        /* \"#utility.yul\":31435:31447   */\n      revert\n        /* \"#utility.yul\":31389:31449   */\n    tag_609:\n        /* \"#utility.yul\":31339:31455   */\n      pop\n      jump\t// out\n        /* \"#utility.yul\":31461:31583   */\n    tag_321:\n        /* \"#utility.yul\":31534:31558   */\n      tag_611\n        /* \"#utility.yul\":31552:31557   */\n      dup2\n        /* \"#utility.yul\":31534:31558   */\n      tag_392\n      jump\t// in\n    tag_611:\n        /* \"#utility.yul\":31527:31532   */\n      dup2\n        /* \"#utility.yul\":31524:31559   */\n      eq\n        /* \"#utility.yul\":31514:31577   */\n      tag_612\n      jumpi\n        /* \"#utility.yul\":31573:31574   */\n      0x00\n        /* \"#utility.yul\":31570:31571   */\n      dup1\n        /* \"#utility.yul\":31563:31575   */\n      revert\n        /* \"#utility.yul\":31514:31577   */\n    tag_612:\n        /* \"#utility.yul\":31461:31583   */\n      pop\n      jump\t// out\n        /* \"#utility.yul\":31589:31711   */\n    tag_324:\n        /* \"#utility.yul\":31662:31686   */\n      tag_614\n        /* \"#utility.yul\":31680:31685   */\n      dup2\n        /* \"#utility.yul\":31662:31686   */\n      tag_467\n      jump\t// in\n    tag_614:\n        /* \"#utility.yul\":31655:31660   */\n      dup2\n        /* \"#utility.yul\":31652:31687   */\n      eq\n        /* \"#utility.yul\":31642:31705   */\n      tag_615\n      jumpi\n        /* \"#utility.yul\":31701:31702   */\n      0x00\n        /* \"#utility.yul\":31698:31699   */\n      dup1\n        /* \"#utility.yul\":31691:31703   */\n      revert\n        /* \"#utility.yul\":31642:31705   */\n    tag_615:\n        /* \"#utility.yul\":31589:31711   */\n      pop\n      jump\t// out\n\n    auxdata: 0xa2646970667358221220926330791705df650ef124ab5dfa27f2fef707f9cddbaa1b09ef25abd30d818f64736f6c63430008070033\n}\n",
				"bytecode": {
					"linkReferences": {},
					"object": "60806040523480156200001157600080fd5b506040516200233e3803806200233e833981810160405281019062000037919062000182565b620000576200004b6200009f60201b60201c565b620000a760201b60201c565b80600160006101000a81548173ffffffffffffffffffffffffffffffffffffffff021916908373ffffffffffffffffffffffffffffffffffffffff160217905550506200021b565b600033905090565b60008060009054906101000a900473ffffffffffffffffffffffffffffffffffffffff169050816000806101000a81548173ffffffffffffffffffffffffffffffffffffffff021916908373ffffffffffffffffffffffffffffffffffffffff1602179055508173ffffffffffffffffffffffffffffffffffffffff168173ffffffffffffffffffffffffffffffffffffffff167f8be0079c531659141344cd1fd0a4f28419497f9722a3daafe3b4186f6b6457e060405160405180910390a35050565b6000815190506200017c8162000201565b92915050565b6000602082840312156200019b576200019a620001fc565b5b6000620001ab848285016200016b565b91505092915050565b6000620001c182620001dc565b9050919050565b6000620001d582620001b4565b9050919050565b600073ffffffffffffffffffffffffffffffffffffffff82169050919050565b600080fd5b6200020c81620001c8565b81146200021857600080fd5b50565b612113806200022b6000396000f3fe608060405234801561001057600080fd5b50600436106100cf5760003560e01c8063cf9aa8cc1161008c578063eb82031211610066578063eb820312146101fc578063ebf049171461022c578063f2fde38b1461024a578063fc0c546a14610266576100cf565b8063cf9aa8cc14610194578063d5efd20a146101b0578063eb0d07f5146101cc576100cf565b8063120aa877146100d457806358b4e4b414610104578063715018a61461012057806371c5ecb11461012a5780638da5cb5b1461015a578063ba59371414610178575b600080fd5b6100ee60048036038101906100e9919061158c565b610284565b6040516100fb9190611902565b60405180910390f35b61011e60048036038101906101199190611424565b6102b3565b005b6101286102cf565b005b610144600480360381019061013f919061155f565b610357565b604051610151919061191d565b60405180910390f35b61016261036f565b60405161016f9190611850565b60405180910390f35b610192600480360381019061018d9190611369565b610398565b005b6101ae60048036038101906101a991906114a7565b6104a8565b005b6101ca60048036038101906101c5919061155f565b610654565b005b6101e660048036038101906101e19190611424565b610725565b6040516101f39190611902565b60405180910390f35b6102166004803603810190610211919061133c565b61073d565b6040516102239190611ab5565b60405180910390f35b610234610755565b6040516102419190611ab5565b60405180910390f35b610264600480360381019061025f919061133c565b61075b565b005b61026e610853565b60405161027b9190611938565b60405180910390f35b60046020528160005260406000206020528060005260406000206000915091509054906101000a900460ff1681565b6102bf84848484610879565b6102c98483610a50565b50505050565b6102d7610aea565b73ffffffffffffffffffffffffffffffffffffffff166102f561036f565b73ffffffffffffffffffffffffffffffffffffffff161461034b576040517f08c379a0000000000000000000000000000000000000000000000000000000008152600401610342906119f5565b60405180910390fd5b6103556000610af2565b565b60036020528060005260406000206000915090505481565b60008060009054906101000a900473ffffffffffffffffffffffffffffffffffffffff16905090565b6000835190508251811480156103ae5750815181145b6103ed576040517f08c379a00000000000000000000000000000000000000000000000000000000081526004016103e490611a75565b60405180910390fd5b6000805b8281101561049557610453878783815181106104105761040f611dbf565b5b602002602001015187848151811061042b5761042a611dbf565b5b602002602001015187858151811061044657610445611dbf565b5b6020026020010151610879565b61048085828151811061046957610468611dbf565b5b602002602001015183610bb690919063ffffffff16565b9150808061048d90611d19565b9150506103f1565b506104a08682610a50565b505050505050565b6104b0610aea565b73ffffffffffffffffffffffffffffffffffffffff166104ce61036f565b73ffffffffffffffffffffffffffffffffffffffff1614610524576040517f08c379a000000000000000000000000000000000000000000000000000000000815260040161051b906119f5565b60405180910390fd5b8151835114610568576040517f08c379a000000000000000000000000000000000000000000000000000000000815260040161055f90611a75565b60405180910390fd5b6105b7333083600160009054906101000a900473ffffffffffffffffffffffffffffffffffffffff1673ffffffffffffffffffffffffffffffffffffffff16610bcc909392919063ffffffff16565b60005b835181101561064e578281815181106105d6576105d5611dbf565b5b6020026020010151600260008684815181106105f5576105f4611dbf565b5b602002602001015173ffffffffffffffffffffffffffffffffffffffff1673ffffffffffffffffffffffffffffffffffffffff16815260200190815260200160002081905550808061064690611d19565b9150506105ba565b50505050565b61065c610aea565b73ffffffffffffffffffffffffffffffffffffffff1661067a61036f565b73ffffffffffffffffffffffffffffffffffffffff16146106d0576040517f08c379a00000000000000000000000000000000000000000000000000000000081526004016106c7906119f5565b60405180910390fd5b6000801b60036000838152602001908152602001600020819055507fcc071cbd9ae50a4c78d1153b76bd2d46ba8d4c7662842718ec3de1d67a144daf8160405161071a9190611ab5565b60405180910390a150565b600061073385858585610c55565b9050949350505050565b60026020528060005260406000206000915090505481565b60055481565b610763610aea565b73ffffffffffffffffffffffffffffffffffffffff1661078161036f565b73ffffffffffffffffffffffffffffffffffffffff16146107d7576040517f08c379a00000000000000000000000000000000000000000000000000000000081526004016107ce906119f5565b60405180910390fd5b600073ffffffffffffffffffffffffffffffffffffffff168173ffffffffffffffffffffffffffffffffffffffff161415610847576040517f08c379a000000000000000000000000000000000000000000000000000000000815260040161083e90611995565b60405180910390fd5b61085081610af2565b50565b600160009054906101000a900473ffffffffffffffffffffffffffffffffffffffff1681565b60055483106108bd576040517f08c379a00000000000000000000000000000000000000000000000000000000081526004016108b490611975565b60405180910390fd5b6004600084815260200190815260200160002060008573ffffffffffffffffffffffffffffffffffffffff1673ffffffffffffffffffffffffffffffffffffffff16815260200190815260200160002060009054906101000a900460ff161561095b576040517f08c379a000000000000000000000000000000000000000000000000000000000815260040161095290611a35565b60405180910390fd5b61096784848484610c55565b6109a6576040517f08c379a000000000000000000000000000000000000000000000000000000000815260040161099d906119b5565b60405180910390fd5b60016004600085815260200190815260200160002060008673ffffffffffffffffffffffffffffffffffffffff1673ffffffffffffffffffffffffffffffffffffffff16815260200190815260200160002060006101000a81548160ff0219169083151502179055507f987d620f307ff6b94d58743cb7a7509f24071586a77759b77c2d4e29f75a2f9a848484604051610a42939291906118cb565b60405180910390a150505050565b6000811115610aab57610aa68282600160009054906101000a900473ffffffffffffffffffffffffffffffffffffffff1673ffffffffffffffffffffffffffffffffffffffff16610cac9092919063ffffffff16565b610ae6565b6040517f08c379a0000000000000000000000000000000000000000000000000000000008152600401610add90611a15565b60405180910390fd5b5050565b600033905090565b60008060009054906101000a900473ffffffffffffffffffffffffffffffffffffffff169050816000806101000a81548173ffffffffffffffffffffffffffffffffffffffff021916908373ffffffffffffffffffffffffffffffffffffffff1602179055508173ffffffffffffffffffffffffffffffffffffffff168173ffffffffffffffffffffffffffffffffffffffff167f8be0079c531659141344cd1fd0a4f28419497f9722a3daafe3b4186f6b6457e060405160405180910390a35050565b60008183610bc49190611bd7565b905092915050565b610c4f846323b872dd60e01b858585604051602401610bed9392919061186b565b604051602081830303815290604052907bffffffffffffffffffffffffffffffffffffffffffffffffffffffff19166020820180517bffffffffffffffffffffffffffffffffffffffffffffffffffffffff8381831617835250505050610d32565b50505050565b6000808584604051602001610c6b92919061180d565b604051602081830303815290604052805190602001209050610ca183600360008881526020019081526020016000205483610df9565b915050949350505050565b610d2d8363a9059cbb60e01b8484604051602401610ccb9291906118a2565b604051602081830303815290604052907bffffffffffffffffffffffffffffffffffffffffffffffffffffffff19166020820180517bffffffffffffffffffffffffffffffffffffffffffffffffffffffff8381831617835250505050610d32565b505050565b6000610d94826040518060400160405280602081526020017f5361666545524332303a206c6f772d6c6576656c2063616c6c206661696c65648152508573ffffffffffffffffffffffffffffffffffffffff16610e109092919063ffffffff16565b9050600081511115610df45780806020019051810190610db49190611532565b610df3576040517f08c379a0000000000000000000000000000000000000000000000000000000008152600401610dea90611a95565b60405180910390fd5b5b505050565b600082610e068584610e28565b1490509392505050565b6060610e1f8484600085610e9d565b90509392505050565b60008082905060005b8451811015610e92576000858281518110610e4f57610e4e611dbf565b5b60200260200101519050808311610e7157610e6a8382610fb1565b9250610e7e565b610e7b8184610fb1565b92505b508080610e8a90611d19565b915050610e31565b508091505092915050565b606082471015610ee2576040517f08c379a0000000000000000000000000000000000000000000000000000000008152600401610ed9906119d5565b60405180910390fd5b610eeb85610fc8565b610f2a576040517f08c379a0000000000000000000000000000000000000000000000000000000008152600401610f2190611a55565b60405180910390fd5b6000808673ffffffffffffffffffffffffffffffffffffffff168587604051610f539190611839565b60006040518083038185875af1925050503d8060008114610f90576040519150601f19603f3d011682016040523d82523d6000602084013e610f95565b606091505b5091509150610fa5828286610feb565b92505050949350505050565b600082600052816020526040600020905092915050565b6000808273ffffffffffffffffffffffffffffffffffffffff163b119050919050565b60608315610ffb5782905061104b565b60008351111561100e5782518084602001fd5b816040517f08c379a00000000000000000000000000000000000000000000000000000000081526004016110429190611953565b60405180910390fd5b9392505050565b600061106561106084611af5565b611ad0565b9050808382526020820190508285602086028201111561108857611087611e22565b5b60005b858110156110b8578161109e8882611230565b84526020840193506020830192505060018101905061108b565b5050509392505050565b60006110d56110d084611b21565b611ad0565b905080838252602082019050828560208602820111156110f8576110f7611e22565b5b60005b8581101561114657813567ffffffffffffffff81111561111e5761111d611e1d565b5b80860161112b89826112a1565b855260208501945060208401935050506001810190506110fb565b5050509392505050565b600061116361115e84611b4d565b611ad0565b9050808382526020820190508285602086028201111561118657611185611e22565b5b60005b858110156111b6578161119c8882611312565b845260208401935060208301925050600181019050611189565b5050509392505050565b60006111d36111ce84611b79565b611ad0565b905080838252602082019050828560208602820111156111f6576111f5611e22565b5b60005b85811015611226578161120c8882611327565b8452602084019350602083019250506001810190506111f9565b5050509392505050565b60008135905061123f81612081565b92915050565b600082601f83011261125a57611259611e1d565b5b813561126a848260208601611052565b91505092915050565b600082601f83011261128857611287611e1d565b5b81356112988482602086016110c2565b91505092915050565b600082601f8301126112b6576112b5611e1d565b5b81356112c6848260208601611150565b91505092915050565b600082601f8301126112e4576112e3611e1d565b5b81356112f48482602086016111c0565b91505092915050565b60008151905061130c81612098565b92915050565b600081359050611321816120af565b92915050565b600081359050611336816120c6565b92915050565b60006020828403121561135257611351611e2c565b5b600061136084828501611230565b91505092915050565b6000806000806080858703121561138357611382611e2c565b5b600061139187828801611230565b945050602085013567ffffffffffffffff8111156113b2576113b1611e27565b5b6113be878288016112cf565b935050604085013567ffffffffffffffff8111156113df576113de611e27565b5b6113eb878288016112cf565b925050606085013567ffffffffffffffff81111561140c5761140b611e27565b5b61141887828801611273565b91505092959194509250565b6000806000806080858703121561143e5761143d611e2c565b5b600061144c87828801611230565b945050602061145d87828801611327565b935050604061146e87828801611327565b925050606085013567ffffffffffffffff81111561148f5761148e611e27565b5b61149b878288016112a1565b91505092959194509250565b6000806000606084860312156114c0576114bf611e2c565b5b600084013567ffffffffffffffff8111156114de576114dd611e27565b5b6114ea86828701611245565b935050602084013567ffffffffffffffff81111561150b5761150a611e27565b5b611517868287016112cf565b925050604061152886828701611327565b9150509250925092565b60006020828403121561154857611547611e2c565b5b6000611556848285016112fd565b91505092915050565b60006020828403121561157557611574611e2c565b5b600061158384828501611327565b91505092915050565b600080604083850312156115a3576115a2611e2c565b5b60006115b185828601611327565b92505060206115c285828601611230565b9150509250929050565b6115d581611c2d565b82525050565b6115ec6115e782611c2d565b611d62565b82525050565b6115fb81611c3f565b82525050565b61160a81611c4b565b82525050565b600061161b82611ba5565b6116258185611bbb565b9350611635818560208601611cb5565b80840191505092915050565b61164a81611c7f565b82525050565b600061165b82611bb0565b6116658185611bc6565b9350611675818560208601611cb5565b61167e81611e31565b840191505092915050565b6000611696601c83611bc6565b91506116a182611e4f565b602082019050919050565b60006116b9602683611bc6565b91506116c482611e78565b604082019050919050565b60006116dc601683611bc6565b91506116e782611ec7565b602082019050919050565b60006116ff602683611bc6565b915061170a82611ef0565b604082019050919050565b6000611722602083611bc6565b915061172d82611f3f565b602082019050919050565b6000611745603d83611bc6565b915061175082611f68565b604082019050919050565b6000611768601683611bc6565b915061177382611fb7565b602082019050919050565b600061178b601d83611bc6565b915061179682611fe0565b602082019050919050565b60006117ae601283611bc6565b91506117b982612009565b602082019050919050565b60006117d1602a83611bc6565b91506117dc82612032565b604082019050919050565b6117f081611c75565b82525050565b61180761180282611c75565b611d86565b82525050565b600061181982856115db565b60148201915061182982846117f6565b6020820191508190509392505050565b60006118458284611610565b915081905092915050565b600060208201905061186560008301846115cc565b92915050565b600060608201905061188060008301866115cc565b61188d60208301856115cc565b61189a60408301846117e7565b949350505050565b60006040820190506118b760008301856115cc565b6118c460208301846117e7565b9392505050565b60006060820190506118e060008301866115cc565b6118ed60208301856117e7565b6118fa60408301846117e7565b949350505050565b600060208201905061191760008301846115f2565b92915050565b60006020820190506119326000830184611601565b92915050565b600060208201905061194d6000830184611641565b92915050565b6000602082019050818103600083015261196d8184611650565b905092915050565b6000602082019050818103600083015261198e81611689565b9050919050565b600060208201905081810360008301526119ae816116ac565b9050919050565b600060208201905081810360008301526119ce816116cf565b9050919050565b600060208201905081810360008301526119ee816116f2565b9050919050565b60006020820190508181036000830152611a0e81611715565b9050919050565b60006020820190508181036000830152611a2e81611738565b9050919050565b60006020820190508181036000830152611a4e8161175b565b9050919050565b60006020820190508181036000830152611a6e8161177e565b9050919050565b60006020820190508181036000830152611a8e816117a1565b9050919050565b60006020820190508181036000830152611aae816117c4565b9050919050565b6000602082019050611aca60008301846117e7565b92915050565b6000611ada611aeb565b9050611ae68282611ce8565b919050565b6000604051905090565b600067ffffffffffffffff821115611b1057611b0f611dee565b5b602082029050602081019050919050565b600067ffffffffffffffff821115611b3c57611b3b611dee565b5b602082029050602081019050919050565b600067ffffffffffffffff821115611b6857611b67611dee565b5b602082029050602081019050919050565b600067ffffffffffffffff821115611b9457611b93611dee565b5b602082029050602081019050919050565b600081519050919050565b600081519050919050565b600081905092915050565b600082825260208201905092915050565b6000611be282611c75565b9150611bed83611c75565b9250827fffffffffffffffffffffffffffffffffffffffffffffffffffffffffffffffff03821115611c2257611c21611d90565b5b828201905092915050565b6000611c3882611c55565b9050919050565b60008115159050919050565b6000819050919050565b600073ffffffffffffffffffffffffffffffffffffffff82169050919050565b6000819050919050565b6000611c8a82611c91565b9050919050565b6000611c9c82611ca3565b9050919050565b6000611cae82611c55565b9050919050565b60005b83811015611cd3578082015181840152602081019050611cb8565b83811115611ce2576000848401525b50505050565b611cf182611e31565b810181811067ffffffffffffffff82111715611d1057611d0f611dee565b5b80604052505050565b6000611d2482611c75565b91507fffffffffffffffffffffffffffffffffffffffffffffffffffffffffffffffff821415611d5757611d56611d90565b5b600182019050919050565b6000611d6d82611d74565b9050919050565b6000611d7f82611e42565b9050919050565b6000819050919050565b7f4e487b7100000000000000000000000000000000000000000000000000000000600052601160045260246000fd5b7f4e487b7100000000000000000000000000000000000000000000000000000000600052603260045260246000fd5b7f4e487b7100000000000000000000000000000000000000000000000000000000600052604160045260246000fd5b600080fd5b600080fd5b600080fd5b600080fd5b6000601f19601f8301169050919050565b60008160601b9050919050565b7f5765656b2063616e6e6f7420626520696e207468652066757475726500000000600082015250565b7f4f776e61626c653a206e6577206f776e657220697320746865207a65726f206160008201527f6464726573730000000000000000000000000000000000000000000000000000602082015250565b7f496e636f7272656374206d65726b6c652070726f6f6600000000000000000000600082015250565b7f416464726573733a20696e73756666696369656e742062616c616e636520666f60008201527f722063616c6c0000000000000000000000000000000000000000000000000000602082015250565b7f4f776e61626c653a2063616c6c6572206973206e6f7420746865206f776e6572600082015250565b7f4e6f2062616c616e636520776f756c64206265207472616e736665727265642060008201527f2d206e6f7420676f696e6720746f20776173746520796f757220676173000000602082015250565b7f4c502068617320616c726561647920636c61696d656400000000000000000000600082015250565b7f416464726573733a2063616c6c20746f206e6f6e2d636f6e7472616374000000600082015250565b7f4d69736d61746368696e6720696e707574730000000000000000000000000000600082015250565b7f5361666545524332303a204552433230206f7065726174696f6e20646964206e60008201527f6f74207375636365656400000000000000000000000000000000000000000000602082015250565b61208a81611c2d565b811461209557600080fd5b50565b6120a181611c3f565b81146120ac57600080fd5b50565b6120b881611c4b565b81146120c357600080fd5b50565b6120cf81611c75565b81146120da57600080fd5b5056fea2646970667358221220926330791705df650ef124ab5dfa27f2fef707f9cddbaa1b09ef25abd30d818f64736f6c63430008070033",
					"opcodes": "PUSH1 0x80 PUSH1 0x40 MSTORE CALLVALUE DUP1 ISZERO PUSH3 0x11 JUMPI PUSH1 0x0 DUP1 REVERT JUMPDEST POP PUSH1 0x40 MLOAD PUSH3 0x233E CODESIZE SUB DUP1 PUSH3 0x233E DUP4 CODECOPY DUP2 DUP2 ADD PUSH1 0x40 MSTORE DUP2 ADD SWAP1 PUSH3 0x37 SWAP2 SWAP1 PUSH3 0x182 JUMP JUMPDEST PUSH3 0x57 PUSH3 0x4B PUSH3 0x9F PUSH1 0x20 SHL PUSH1 0x20 SHR JUMP JUMPDEST PUSH3 0xA7 PUSH1 0x20 SHL PUSH1 0x20 SHR JUMP JUMPDEST DUP1 PUSH1 0x1 PUSH1 0x0 PUSH2 0x100 EXP DUP2 SLOAD DUP2 PUSH20 0xFFFFFFFFFFFFFFFFFFFFFFFFFFFFFFFFFFFFFFFF MUL NOT AND SWAP1 DUP4 PUSH20 0xFFFFFFFFFFFFFFFFFFFFFFFFFFFFFFFFFFFFFFFF AND MUL OR SWAP1 SSTORE POP POP PUSH3 0x21B JUMP JUMPDEST PUSH1 0x0 CALLER SWAP1 POP SWAP1 JUMP JUMPDEST PUSH1 0x0 DUP1 PUSH1 0x0 SWAP1 SLOAD SWAP1 PUSH2 0x100 EXP SWAP1 DIV PUSH20 0xFFFFFFFFFFFFFFFFFFFFFFFFFFFFFFFFFFFFFFFF AND SWAP1 POP DUP2 PUSH1 0x0 DUP1 PUSH2 0x100 EXP DUP2 SLOAD DUP2 PUSH20 0xFFFFFFFFFFFFFFFFFFFFFFFFFFFFFFFFFFFFFFFF MUL NOT AND SWAP1 DUP4 PUSH20 0xFFFFFFFFFFFFFFFFFFFFFFFFFFFFFFFFFFFFFFFF AND MUL OR SWAP1 SSTORE POP DUP2 PUSH20 0xFFFFFFFFFFFFFFFFFFFFFFFFFFFFFFFFFFFFFFFF AND DUP2 PUSH20 0xFFFFFFFFFFFFFFFFFFFFFFFFFFFFFFFFFFFFFFFF AND PUSH32 0x8BE0079C531659141344CD1FD0A4F28419497F9722A3DAAFE3B4186F6B6457E0 PUSH1 0x40 MLOAD PUSH1 0x40 MLOAD DUP1 SWAP2 SUB SWAP1 LOG3 POP POP JUMP JUMPDEST PUSH1 0x0 DUP2 MLOAD SWAP1 POP PUSH3 0x17C DUP2 PUSH3 0x201 JUMP JUMPDEST SWAP3 SWAP2 POP POP JUMP JUMPDEST PUSH1 0x0 PUSH1 0x20 DUP3 DUP5 SUB SLT ISZERO PUSH3 0x19B JUMPI PUSH3 0x19A PUSH3 0x1FC JUMP JUMPDEST JUMPDEST PUSH1 0x0 PUSH3 0x1AB DUP5 DUP3 DUP6 ADD PUSH3 0x16B JUMP JUMPDEST SWAP2 POP POP SWAP3 SWAP2 POP POP JUMP JUMPDEST PUSH1 0x0 PUSH3 0x1C1 DUP3 PUSH3 0x1DC JUMP JUMPDEST SWAP1 POP SWAP2 SWAP1 POP JUMP JUMPDEST PUSH1 0x0 PUSH3 0x1D5 DUP3 PUSH3 0x1B4 JUMP JUMPDEST SWAP1 POP SWAP2 SWAP1 POP JUMP JUMPDEST PUSH1 0x0 PUSH20 0xFFFFFFFFFFFFFFFFFFFFFFFFFFFFFFFFFFFFFFFF DUP3 AND SWAP1 POP SWAP2 SWAP1 POP JUMP JUMPDEST PUSH1 0x0 DUP1 REVERT JUMPDEST PUSH3 0x20C DUP2 PUSH3 0x1C8 JUMP JUMPDEST DUP2 EQ PUSH3 0x218 JUMPI PUSH1 0x0 DUP1 REVERT JUMPDEST POP JUMP JUMPDEST PUSH2 0x2113 DUP1 PUSH3 0x22B PUSH1 0x0 CODECOPY PUSH1 0x0 RETURN INVALID PUSH1 0x80 PUSH1 0x40 MSTORE CALLVALUE DUP1 ISZERO PUSH2 0x10 JUMPI PUSH1 0x0 DUP1 REVERT JUMPDEST POP PUSH1 0x4 CALLDATASIZE LT PUSH2 0xCF JUMPI PUSH1 0x0 CALLDATALOAD PUSH1 0xE0 SHR DUP1 PUSH4 0xCF9AA8CC GT PUSH2 0x8C JUMPI DUP1 PUSH4 0xEB820312 GT PUSH2 0x66 JUMPI DUP1 PUSH4 0xEB820312 EQ PUSH2 0x1FC JUMPI DUP1 PUSH4 0xEBF04917 EQ PUSH2 0x22C JUMPI DUP1 PUSH4 0xF2FDE38B EQ PUSH2 0x24A JUMPI DUP1 PUSH4 0xFC0C546A EQ PUSH2 0x266 JUMPI PUSH2 0xCF JUMP JUMPDEST DUP1 PUSH4 0xCF9AA8CC EQ PUSH2 0x194 JUMPI DUP1 PUSH4 0xD5EFD20A EQ PUSH2 0x1B0 JUMPI DUP1 PUSH4 0xEB0D07F5 EQ PUSH2 0x1CC JUMPI PUSH2 0xCF JUMP JUMPDEST DUP1 PUSH4 0x120AA877 EQ PUSH2 0xD4 JUMPI DUP1 PUSH4 0x58B4E4B4 EQ PUSH2 0x104 JUMPI DUP1 PUSH4 0x715018A6 EQ PUSH2 0x120 JUMPI DUP1 PUSH4 0x71C5ECB1 EQ PUSH2 0x12A JUMPI DUP1 PUSH4 0x8DA5CB5B EQ PUSH2 0x15A JUMPI DUP1 PUSH4 0xBA593714 EQ PUSH2 0x178 JUMPI JUMPDEST PUSH1 0x0 DUP1 REVERT JUMPDEST PUSH2 0xEE PUSH1 0x4 DUP1 CALLDATASIZE SUB DUP2 ADD SWAP1 PUSH2 0xE9 SWAP2 SWAP1 PUSH2 0x158C JUMP JUMPDEST PUSH2 0x284 JUMP JUMPDEST PUSH1 0x40 MLOAD PUSH2 0xFB SWAP2 SWAP1 PUSH2 0x1902 JUMP JUMPDEST PUSH1 0x40 MLOAD DUP1 SWAP2 SUB SWAP1 RETURN JUMPDEST PUSH2 0x11E PUSH1 0x4 DUP1 CALLDATASIZE SUB DUP2 ADD SWAP1 PUSH2 0x119 SWAP2 SWAP1 PUSH2 0x1424 JUMP JUMPDEST PUSH2 0x2B3 JUMP JUMPDEST STOP JUMPDEST PUSH2 0x128 PUSH2 0x2CF JUMP JUMPDEST STOP JUMPDEST PUSH2 0x144 PUSH1 0x4 DUP1 CALLDATASIZE SUB DUP2 ADD SWAP1 PUSH2 0x13F SWAP2 SWAP1 PUSH2 0x155F JUMP JUMPDEST PUSH2 0x357 JUMP JUMPDEST PUSH1 0x40 MLOAD PUSH2 0x151 SWAP2 SWAP1 PUSH2 0x191D JUMP JUMPDEST PUSH1 0x40 MLOAD DUP1 SWAP2 SUB SWAP1 RETURN JUMPDEST PUSH2 0x162 PUSH2 0x36F JUMP JUMPDEST PUSH1 0x40 MLOAD PUSH2 0x16F SWAP2 SWAP1 PUSH2 0x1850 JUMP JUMPDEST PUSH1 0x40 MLOAD DUP1 SWAP2 SUB SWAP1 RETURN JUMPDEST PUSH2 0x192 PUSH1 0x4 DUP1 CALLDATASIZE SUB DUP2 ADD SWAP1 PUSH2 0x18D SWAP2 SWAP1 PUSH2 0x1369 JUMP JUMPDEST PUSH2 0x398 JUMP JUMPDEST STOP JUMPDEST PUSH2 0x1AE PUSH1 0x4 DUP1 CALLDATASIZE SUB DUP2 ADD SWAP1 PUSH2 0x1A9 SWAP2 SWAP1 PUSH2 0x14A7 JUMP JUMPDEST PUSH2 0x4A8 JUMP JUMPDEST STOP JUMPDEST PUSH2 0x1CA PUSH1 0x4 DUP1 CALLDATASIZE SUB DUP2 ADD SWAP1 PUSH2 0x1C5 SWAP2 SWAP1 PUSH2 0x155F JUMP JUMPDEST PUSH2 0x654 JUMP JUMPDEST STOP JUMPDEST PUSH2 0x1E6 PUSH1 0x4 DUP1 CALLDATASIZE SUB DUP2 ADD SWAP1 PUSH2 0x1E1 SWAP2 SWAP1 PUSH2 0x1424 JUMP JUMPDEST PUSH2 0x725 JUMP JUMPDEST PUSH1 0x40 MLOAD PUSH2 0x1F3 SWAP2 SWAP1 PUSH2 0x1902 JUMP JUMPDEST PUSH1 0x40 MLOAD DUP1 SWAP2 SUB SWAP1 RETURN JUMPDEST PUSH2 0x216 PUSH1 0x4 DUP1 CALLDATASIZE SUB DUP2 ADD SWAP1 PUSH2 0x211 SWAP2 SWAP1 PUSH2 0x133C JUMP JUMPDEST PUSH2 0x73D JUMP JUMPDEST PUSH1 0x40 MLOAD PUSH2 0x223 SWAP2 SWAP1 PUSH2 0x1AB5 JUMP JUMPDEST PUSH1 0x40 MLOAD DUP1 SWAP2 SUB SWAP1 RETURN JUMPDEST PUSH2 0x234 PUSH2 0x755 JUMP JUMPDEST PUSH1 0x40 MLOAD PUSH2 0x241 SWAP2 SWAP1 PUSH2 0x1AB5 JUMP JUMPDEST PUSH1 0x40 MLOAD DUP1 SWAP2 SUB SWAP1 RETURN JUMPDEST PUSH2 0x264 PUSH1 0x4 DUP1 CALLDATASIZE SUB DUP2 ADD SWAP1 PUSH2 0x25F SWAP2 SWAP1 PUSH2 0x133C JUMP JUMPDEST PUSH2 0x75B JUMP JUMPDEST STOP JUMPDEST PUSH2 0x26E PUSH2 0x853 JUMP JUMPDEST PUSH1 0x40 MLOAD PUSH2 0x27B SWAP2 SWAP1 PUSH2 0x1938 JUMP JUMPDEST PUSH1 0x40 MLOAD DUP1 SWAP2 SUB SWAP1 RETURN JUMPDEST PUSH1 0x4 PUSH1 0x20 MSTORE DUP2 PUSH1 0x0 MSTORE PUSH1 0x40 PUSH1 0x0 KECCAK256 PUSH1 0x20 MSTORE DUP1 PUSH1 0x0 MSTORE PUSH1 0x40 PUSH1 0x0 KECCAK256 PUSH1 0x0 SWAP2 POP SWAP2 POP SWAP1 SLOAD SWAP1 PUSH2 0x100 EXP SWAP1 DIV PUSH1 0xFF AND DUP2 JUMP JUMPDEST PUSH2 0x2BF DUP5 DUP5 DUP5 DUP5 PUSH2 0x879 JUMP JUMPDEST PUSH2 0x2C9 DUP5 DUP4 PUSH2 0xA50 JUMP JUMPDEST POP POP POP POP JUMP JUMPDEST PUSH2 0x2D7 PUSH2 0xAEA JUMP JUMPDEST PUSH20 0xFFFFFFFFFFFFFFFFFFFFFFFFFFFFFFFFFFFFFFFF AND PUSH2 0x2F5 PUSH2 0x36F JUMP JUMPDEST PUSH20 0xFFFFFFFFFFFFFFFFFFFFFFFFFFFFFFFFFFFFFFFF AND EQ PUSH2 0x34B JUMPI PUSH1 0x40 MLOAD PUSH32 0x8C379A000000000000000000000000000000000000000000000000000000000 DUP2 MSTORE PUSH1 0x4 ADD PUSH2 0x342 SWAP1 PUSH2 0x19F5 JUMP JUMPDEST PUSH1 0x40 MLOAD DUP1 SWAP2 SUB SWAP1 REVERT JUMPDEST PUSH2 0x355 PUSH1 0x0 PUSH2 0xAF2 JUMP JUMPDEST JUMP JUMPDEST PUSH1 0x3 PUSH1 0x20 MSTORE DUP1 PUSH1 0x0 MSTORE PUSH1 0x40 PUSH1 0x0 KECCAK256 PUSH1 0x0 SWAP2 POP SWAP1 POP SLOAD DUP2 JUMP JUMPDEST PUSH1 0x0 DUP1 PUSH1 0x0 SWAP1 SLOAD SWAP1 PUSH2 0x100 EXP SWAP1 DIV PUSH20 0xFFFFFFFFFFFFFFFFFFFFFFFFFFFFFFFFFFFFFFFF AND SWAP1 POP SWAP1 JUMP JUMPDEST PUSH1 0x0 DUP4 MLOAD SWAP1 POP DUP3 MLOAD DUP2 EQ DUP1 ISZERO PUSH2 0x3AE JUMPI POP DUP2 MLOAD DUP2 EQ JUMPDEST PUSH2 0x3ED JUMPI PUSH1 0x40 MLOAD PUSH32 0x8C379A000000000000000000000000000000000000000000000000000000000 DUP2 MSTORE PUSH1 0x4 ADD PUSH2 0x3E4 SWAP1 PUSH2 0x1A75 JUMP JUMPDEST PUSH1 0x40 MLOAD DUP1 SWAP2 SUB SWAP1 REVERT JUMPDEST PUSH1 0x0 DUP1 JUMPDEST DUP3 DUP2 LT ISZERO PUSH2 0x495 JUMPI PUSH2 0x453 DUP8 DUP8 DUP4 DUP2 MLOAD DUP2 LT PUSH2 0x410 JUMPI PUSH2 0x40F PUSH2 0x1DBF JUMP JUMPDEST JUMPDEST PUSH1 0x20 MUL PUSH1 0x20 ADD ADD MLOAD DUP8 DUP5 DUP2 MLOAD DUP2 LT PUSH2 0x42B JUMPI PUSH2 0x42A PUSH2 0x1DBF JUMP JUMPDEST JUMPDEST PUSH1 0x20 MUL PUSH1 0x20 ADD ADD MLOAD DUP8 DUP6 DUP2 MLOAD DUP2 LT PUSH2 0x446 JUMPI PUSH2 0x445 PUSH2 0x1DBF JUMP JUMPDEST JUMPDEST PUSH1 0x20 MUL PUSH1 0x20 ADD ADD MLOAD PUSH2 0x879 JUMP JUMPDEST PUSH2 0x480 DUP6 DUP3 DUP2 MLOAD DUP2 LT PUSH2 0x469 JUMPI PUSH2 0x468 PUSH2 0x1DBF JUMP JUMPDEST JUMPDEST PUSH1 0x20 MUL PUSH1 0x20 ADD ADD MLOAD DUP4 PUSH2 0xBB6 SWAP1 SWAP2 SWAP1 PUSH4 0xFFFFFFFF AND JUMP JUMPDEST SWAP2 POP DUP1 DUP1 PUSH2 0x48D SWAP1 PUSH2 0x1D19 JUMP JUMPDEST SWAP2 POP POP PUSH2 0x3F1 JUMP JUMPDEST POP PUSH2 0x4A0 DUP7 DUP3 PUSH2 0xA50 JUMP JUMPDEST POP POP POP POP POP POP JUMP JUMPDEST PUSH2 0x4B0 PUSH2 0xAEA JUMP JUMPDEST PUSH20 0xFFFFFFFFFFFFFFFFFFFFFFFFFFFFFFFFFFFFFFFF AND PUSH2 0x4CE PUSH2 0x36F JUMP JUMPDEST PUSH20 0xFFFFFFFFFFFFFFFFFFFFFFFFFFFFFFFFFFFFFFFF AND EQ PUSH2 0x524 JUMPI PUSH1 0x40 MLOAD PUSH32 0x8C379A000000000000000000000000000000000000000000000000000000000 DUP2 MSTORE PUSH1 0x4 ADD PUSH2 0x51B SWAP1 PUSH2 0x19F5 JUMP JUMPDEST PUSH1 0x40 MLOAD DUP1 SWAP2 SUB SWAP1 REVERT JUMPDEST DUP2 MLOAD DUP4 MLOAD EQ PUSH2 0x568 JUMPI PUSH1 0x40 MLOAD PUSH32 0x8C379A000000000000000000000000000000000000000000000000000000000 DUP2 MSTORE PUSH1 0x4 ADD PUSH2 0x55F SWAP1 PUSH2 0x1A75 JUMP JUMPDEST PUSH1 0x40 MLOAD DUP1 SWAP2 SUB SWAP1 REVERT JUMPDEST PUSH2 0x5B7 CALLER ADDRESS DUP4 PUSH1 0x1 PUSH1 0x0 SWAP1 SLOAD SWAP1 PUSH2 0x100 EXP SWAP1 DIV PUSH20 0xFFFFFFFFFFFFFFFFFFFFFFFFFFFFFFFFFFFFFFFF AND PUSH20 0xFFFFFFFFFFFFFFFFFFFFFFFFFFFFFFFFFFFFFFFF AND PUSH2 0xBCC SWAP1 SWAP4 SWAP3 SWAP2 SWAP1 PUSH4 0xFFFFFFFF AND JUMP JUMPDEST PUSH1 0x0 JUMPDEST DUP4 MLOAD DUP2 LT ISZERO PUSH2 0x64E JUMPI DUP3 DUP2 DUP2 MLOAD DUP2 LT PUSH2 0x5D6 JUMPI PUSH2 0x5D5 PUSH2 0x1DBF JUMP JUMPDEST JUMPDEST PUSH1 0x20 MUL PUSH1 0x20 ADD ADD MLOAD PUSH1 0x2 PUSH1 0x0 DUP7 DUP5 DUP2 MLOAD DUP2 LT PUSH2 0x5F5 JUMPI PUSH2 0x5F4 PUSH2 0x1DBF JUMP JUMPDEST JUMPDEST PUSH1 0x20 MUL PUSH1 0x20 ADD ADD MLOAD PUSH20 0xFFFFFFFFFFFFFFFFFFFFFFFFFFFFFFFFFFFFFFFF AND PUSH20 0xFFFFFFFFFFFFFFFFFFFFFFFFFFFFFFFFFFFFFFFF AND DUP2 MSTORE PUSH1 0x20 ADD SWAP1 DUP2 MSTORE PUSH1 0x20 ADD PUSH1 0x0 KECCAK256 DUP2 SWAP1 SSTORE POP DUP1 DUP1 PUSH2 0x646 SWAP1 PUSH2 0x1D19 JUMP JUMPDEST SWAP2 POP POP PUSH2 0x5BA JUMP JUMPDEST POP POP POP POP JUMP JUMPDEST PUSH2 0x65C PUSH2 0xAEA JUMP JUMPDEST PUSH20 0xFFFFFFFFFFFFFFFFFFFFFFFFFFFFFFFFFFFFFFFF AND PUSH2 0x67A PUSH2 0x36F JUMP JUMPDEST PUSH20 0xFFFFFFFFFFFFFFFFFFFFFFFFFFFFFFFFFFFFFFFF AND EQ PUSH2 0x6D0 JUMPI PUSH1 0x40 MLOAD PUSH32 0x8C379A000000000000000000000000000000000000000000000000000000000 DUP2 MSTORE PUSH1 0x4 ADD PUSH2 0x6C7 SWAP1 PUSH2 0x19F5 JUMP JUMPDEST PUSH1 0x40 MLOAD DUP1 SWAP2 SUB SWAP1 REVERT JUMPDEST PUSH1 0x0 DUP1 SHL PUSH1 0x3 PUSH1 0x0 DUP4 DUP2 MSTORE PUSH1 0x20 ADD SWAP1 DUP2 MSTORE PUSH1 0x20 ADD PUSH1 0x0 KECCAK256 DUP2 SWAP1 SSTORE POP PUSH32 0xCC071CBD9AE50A4C78D1153B76BD2D46BA8D4C7662842718EC3DE1D67A144DAF DUP2 PUSH1 0x40 MLOAD PUSH2 0x71A SWAP2 SWAP1 PUSH2 0x1AB5 JUMP JUMPDEST PUSH1 0x40 MLOAD DUP1 SWAP2 SUB SWAP1 LOG1 POP JUMP JUMPDEST PUSH1 0x0 PUSH2 0x733 DUP6 DUP6 DUP6 DUP6 PUSH2 0xC55 JUMP JUMPDEST SWAP1 POP SWAP5 SWAP4 POP POP POP POP JUMP JUMPDEST PUSH1 0x2 PUSH1 0x20 MSTORE DUP1 PUSH1 0x0 MSTORE PUSH1 0x40 PUSH1 0x0 KECCAK256 PUSH1 0x0 SWAP2 POP SWAP1 POP SLOAD DUP2 JUMP JUMPDEST PUSH1 0x5 SLOAD DUP2 JUMP JUMPDEST PUSH2 0x763 PUSH2 0xAEA JUMP JUMPDEST PUSH20 0xFFFFFFFFFFFFFFFFFFFFFFFFFFFFFFFFFFFFFFFF AND PUSH2 0x781 PUSH2 0x36F JUMP JUMPDEST PUSH20 0xFFFFFFFFFFFFFFFFFFFFFFFFFFFFFFFFFFFFFFFF AND EQ PUSH2 0x7D7 JUMPI PUSH1 0x40 MLOAD PUSH32 0x8C379A000000000000000000000000000000000000000000000000000000000 DUP2 MSTORE PUSH1 0x4 ADD PUSH2 0x7CE SWAP1 PUSH2 0x19F5 JUMP JUMPDEST PUSH1 0x40 MLOAD DUP1 SWAP2 SUB SWAP1 REVERT JUMPDEST PUSH1 0x0 PUSH20 0xFFFFFFFFFFFFFFFFFFFFFFFFFFFFFFFFFFFFFFFF AND DUP2 PUSH20 0xFFFFFFFFFFFFFFFFFFFFFFFFFFFFFFFFFFFFFFFF AND EQ ISZERO PUSH2 0x847 JUMPI PUSH1 0x40 MLOAD PUSH32 0x8C379A000000000000000000000000000000000000000000000000000000000 DUP2 MSTORE PUSH1 0x4 ADD PUSH2 0x83E SWAP1 PUSH2 0x1995 JUMP JUMPDEST PUSH1 0x40 MLOAD DUP1 SWAP2 SUB SWAP1 REVERT JUMPDEST PUSH2 0x850 DUP2 PUSH2 0xAF2 JUMP JUMPDEST POP JUMP JUMPDEST PUSH1 0x1 PUSH1 0x0 SWAP1 SLOAD SWAP1 PUSH2 0x100 EXP SWAP1 DIV PUSH20 0xFFFFFFFFFFFFFFFFFFFFFFFFFFFFFFFFFFFFFFFF AND DUP2 JUMP JUMPDEST PUSH1 0x5 SLOAD DUP4 LT PUSH2 0x8BD JUMPI PUSH1 0x40 MLOAD PUSH32 0x8C379A000000000000000000000000000000000000000000000000000000000 DUP2 MSTORE PUSH1 0x4 ADD PUSH2 0x8B4 SWAP1 PUSH2 0x1975 JUMP JUMPDEST PUSH1 0x40 MLOAD DUP1 SWAP2 SUB SWAP1 REVERT JUMPDEST PUSH1 0x4 PUSH1 0x0 DUP5 DUP2 MSTORE PUSH1 0x20 ADD SWAP1 DUP2 MSTORE PUSH1 0x20 ADD PUSH1 0x0 KECCAK256 PUSH1 0x0 DUP6 PUSH20 0xFFFFFFFFFFFFFFFFFFFFFFFFFFFFFFFFFFFFFFFF AND PUSH20 0xFFFFFFFFFFFFFFFFFFFFFFFFFFFFFFFFFFFFFFFF AND DUP2 MSTORE PUSH1 0x20 ADD SWAP1 DUP2 MSTORE PUSH1 0x20 ADD PUSH1 0x0 KECCAK256 PUSH1 0x0 SWAP1 SLOAD SWAP1 PUSH2 0x100 EXP SWAP1 DIV PUSH1 0xFF AND ISZERO PUSH2 0x95B JUMPI PUSH1 0x40 MLOAD PUSH32 0x8C379A000000000000000000000000000000000000000000000000000000000 DUP2 MSTORE PUSH1 0x4 ADD PUSH2 0x952 SWAP1 PUSH2 0x1A35 JUMP JUMPDEST PUSH1 0x40 MLOAD DUP1 SWAP2 SUB SWAP1 REVERT JUMPDEST PUSH2 0x967 DUP5 DUP5 DUP5 DUP5 PUSH2 0xC55 JUMP JUMPDEST PUSH2 0x9A6 JUMPI PUSH1 0x40 MLOAD PUSH32 0x8C379A000000000000000000000000000000000000000000000000000000000 DUP2 MSTORE PUSH1 0x4 ADD PUSH2 0x99D SWAP1 PUSH2 0x19B5 JUMP JUMPDEST PUSH1 0x40 MLOAD DUP1 SWAP2 SUB SWAP1 REVERT JUMPDEST PUSH1 0x1 PUSH1 0x4 PUSH1 0x0 DUP6 DUP2 MSTORE PUSH1 0x20 ADD SWAP1 DUP2 MSTORE PUSH1 0x20 ADD PUSH1 0x0 KECCAK256 PUSH1 0x0 DUP7 PUSH20 0xFFFFFFFFFFFFFFFFFFFFFFFFFFFFFFFFFFFFFFFF AND PUSH20 0xFFFFFFFFFFFFFFFFFFFFFFFFFFFFFFFFFFFFFFFF AND DUP2 MSTORE PUSH1 0x20 ADD SWAP1 DUP2 MSTORE PUSH1 0x20 ADD PUSH1 0x0 KECCAK256 PUSH1 0x0 PUSH2 0x100 EXP DUP2 SLOAD DUP2 PUSH1 0xFF MUL NOT AND SWAP1 DUP4 ISZERO ISZERO MUL OR SWAP1 SSTORE POP PUSH32 0x987D620F307FF6B94D58743CB7A7509F24071586A77759B77C2D4E29F75A2F9A DUP5 DUP5 DUP5 PUSH1 0x40 MLOAD PUSH2 0xA42 SWAP4 SWAP3 SWAP2 SWAP1 PUSH2 0x18CB JUMP JUMPDEST PUSH1 0x40 MLOAD DUP1 SWAP2 SUB SWAP1 LOG1 POP POP POP POP JUMP JUMPDEST PUSH1 0x0 DUP2 GT ISZERO PUSH2 0xAAB JUMPI PUSH2 0xAA6 DUP3 DUP3 PUSH1 0x1 PUSH1 0x0 SWAP1 SLOAD SWAP1 PUSH2 0x100 EXP SWAP1 DIV PUSH20 0xFFFFFFFFFFFFFFFFFFFFFFFFFFFFFFFFFFFFFFFF AND PUSH20 0xFFFFFFFFFFFFFFFFFFFFFFFFFFFFFFFFFFFFFFFF AND PUSH2 0xCAC SWAP1 SWAP3 SWAP2 SWAP1 PUSH4 0xFFFFFFFF AND JUMP JUMPDEST PUSH2 0xAE6 JUMP JUMPDEST PUSH1 0x40 MLOAD PUSH32 0x8C379A000000000000000000000000000000000000000000000000000000000 DUP2 MSTORE PUSH1 0x4 ADD PUSH2 0xADD SWAP1 PUSH2 0x1A15 JUMP JUMPDEST PUSH1 0x40 MLOAD DUP1 SWAP2 SUB SWAP1 REVERT JUMPDEST POP POP JUMP JUMPDEST PUSH1 0x0 CALLER SWAP1 POP SWAP1 JUMP JUMPDEST PUSH1 0x0 DUP1 PUSH1 0x0 SWAP1 SLOAD SWAP1 PUSH2 0x100 EXP SWAP1 DIV PUSH20 0xFFFFFFFFFFFFFFFFFFFFFFFFFFFFFFFFFFFFFFFF AND SWAP1 POP DUP2 PUSH1 0x0 DUP1 PUSH2 0x100 EXP DUP2 SLOAD DUP2 PUSH20 0xFFFFFFFFFFFFFFFFFFFFFFFFFFFFFFFFFFFFFFFF MUL NOT AND SWAP1 DUP4 PUSH20 0xFFFFFFFFFFFFFFFFFFFFFFFFFFFFFFFFFFFFFFFF AND MUL OR SWAP1 SSTORE POP DUP2 PUSH20 0xFFFFFFFFFFFFFFFFFFFFFFFFFFFFFFFFFFFFFFFF AND DUP2 PUSH20 0xFFFFFFFFFFFFFFFFFFFFFFFFFFFFFFFFFFFFFFFF AND PUSH32 0x8BE0079C531659141344CD1FD0A4F28419497F9722A3DAAFE3B4186F6B6457E0 PUSH1 0x40 MLOAD PUSH1 0x40 MLOAD DUP1 SWAP2 SUB SWAP1 LOG3 POP POP JUMP JUMPDEST PUSH1 0x0 DUP2 DUP4 PUSH2 0xBC4 SWAP2 SWAP1 PUSH2 0x1BD7 JUMP JUMPDEST SWAP1 POP SWAP3 SWAP2 POP POP JUMP JUMPDEST PUSH2 0xC4F DUP5 PUSH4 0x23B872DD PUSH1 0xE0 SHL DUP6 DUP6 DUP6 PUSH1 0x40 MLOAD PUSH1 0x24 ADD PUSH2 0xBED SWAP4 SWAP3 SWAP2 SWAP1 PUSH2 0x186B JUMP JUMPDEST PUSH1 0x40 MLOAD PUSH1 0x20 DUP2 DUP4 SUB SUB DUP2 MSTORE SWAP1 PUSH1 0x40 MSTORE SWAP1 PUSH28 0xFFFFFFFFFFFFFFFFFFFFFFFFFFFFFFFFFFFFFFFFFFFFFFFFFFFFFFFF NOT AND PUSH1 0x20 DUP3 ADD DUP1 MLOAD PUSH28 0xFFFFFFFFFFFFFFFFFFFFFFFFFFFFFFFFFFFFFFFFFFFFFFFFFFFFFFFF DUP4 DUP2 DUP4 AND OR DUP4 MSTORE POP POP POP POP PUSH2 0xD32 JUMP JUMPDEST POP POP POP POP JUMP JUMPDEST PUSH1 0x0 DUP1 DUP6 DUP5 PUSH1 0x40 MLOAD PUSH1 0x20 ADD PUSH2 0xC6B SWAP3 SWAP2 SWAP1 PUSH2 0x180D JUMP JUMPDEST PUSH1 0x40 MLOAD PUSH1 0x20 DUP2 DUP4 SUB SUB DUP2 MSTORE SWAP1 PUSH1 0x40 MSTORE DUP1 MLOAD SWAP1 PUSH1 0x20 ADD KECCAK256 SWAP1 POP PUSH2 0xCA1 DUP4 PUSH1 0x3 PUSH1 0x0 DUP9 DUP2 MSTORE PUSH1 0x20 ADD SWAP1 DUP2 MSTORE PUSH1 0x20 ADD PUSH1 0x0 KECCAK256 SLOAD DUP4 PUSH2 0xDF9 JUMP JUMPDEST SWAP2 POP POP SWAP5 SWAP4 POP POP POP POP JUMP JUMPDEST PUSH2 0xD2D DUP4 PUSH4 0xA9059CBB PUSH1 0xE0 SHL DUP5 DUP5 PUSH1 0x40 MLOAD PUSH1 0x24 ADD PUSH2 0xCCB SWAP3 SWAP2 SWAP1 PUSH2 0x18A2 JUMP JUMPDEST PUSH1 0x40 MLOAD PUSH1 0x20 DUP2 DUP4 SUB SUB DUP2 MSTORE SWAP1 PUSH1 0x40 MSTORE SWAP1 PUSH28 0xFFFFFFFFFFFFFFFFFFFFFFFFFFFFFFFFFFFFFFFFFFFFFFFFFFFFFFFF NOT AND PUSH1 0x20 DUP3 ADD DUP1 MLOAD PUSH28 0xFFFFFFFFFFFFFFFFFFFFFFFFFFFFFFFFFFFFFFFFFFFFFFFFFFFFFFFF DUP4 DUP2 DUP4 AND OR DUP4 MSTORE POP POP POP POP PUSH2 0xD32 JUMP JUMPDEST POP POP POP JUMP JUMPDEST PUSH1 0x0 PUSH2 0xD94 DUP3 PUSH1 0x40 MLOAD DUP1 PUSH1 0x40 ADD PUSH1 0x40 MSTORE DUP1 PUSH1 0x20 DUP2 MSTORE PUSH1 0x20 ADD PUSH32 0x5361666545524332303A206C6F772D6C6576656C2063616C6C206661696C6564 DUP2 MSTORE POP DUP6 PUSH20 0xFFFFFFFFFFFFFFFFFFFFFFFFFFFFFFFFFFFFFFFF AND PUSH2 0xE10 SWAP1 SWAP3 SWAP2 SWAP1 PUSH4 0xFFFFFFFF AND JUMP JUMPDEST SWAP1 POP PUSH1 0x0 DUP2 MLOAD GT ISZERO PUSH2 0xDF4 JUMPI DUP1 DUP1 PUSH1 0x20 ADD SWAP1 MLOAD DUP2 ADD SWAP1 PUSH2 0xDB4 SWAP2 SWAP1 PUSH2 0x1532 JUMP JUMPDEST PUSH2 0xDF3 JUMPI PUSH1 0x40 MLOAD PUSH32 0x8C379A000000000000000000000000000000000000000000000000000000000 DUP2 MSTORE PUSH1 0x4 ADD PUSH2 0xDEA SWAP1 PUSH2 0x1A95 JUMP JUMPDEST PUSH1 0x40 MLOAD DUP1 SWAP2 SUB SWAP1 REVERT JUMPDEST JUMPDEST POP POP POP JUMP JUMPDEST PUSH1 0x0 DUP3 PUSH2 0xE06 DUP6 DUP5 PUSH2 0xE28 JUMP JUMPDEST EQ SWAP1 POP SWAP4 SWAP3 POP POP POP JUMP JUMPDEST PUSH1 0x60 PUSH2 0xE1F DUP5 DUP5 PUSH1 0x0 DUP6 PUSH2 0xE9D JUMP JUMPDEST SWAP1 POP SWAP4 SWAP3 POP POP POP JUMP JUMPDEST PUSH1 0x0 DUP1 DUP3 SWAP1 POP PUSH1 0x0 JUMPDEST DUP5 MLOAD DUP2 LT ISZERO PUSH2 0xE92 JUMPI PUSH1 0x0 DUP6 DUP3 DUP2 MLOAD DUP2 LT PUSH2 0xE4F JUMPI PUSH2 0xE4E PUSH2 0x1DBF JUMP JUMPDEST JUMPDEST PUSH1 0x20 MUL PUSH1 0x20 ADD ADD MLOAD SWAP1 POP DUP1 DUP4 GT PUSH2 0xE71 JUMPI PUSH2 0xE6A DUP4 DUP3 PUSH2 0xFB1 JUMP JUMPDEST SWAP3 POP PUSH2 0xE7E JUMP JUMPDEST PUSH2 0xE7B DUP2 DUP5 PUSH2 0xFB1 JUMP JUMPDEST SWAP3 POP JUMPDEST POP DUP1 DUP1 PUSH2 0xE8A SWAP1 PUSH2 0x1D19 JUMP JUMPDEST SWAP2 POP POP PUSH2 0xE31 JUMP JUMPDEST POP DUP1 SWAP2 POP POP SWAP3 SWAP2 POP POP JUMP JUMPDEST PUSH1 0x60 DUP3 SELFBALANCE LT ISZERO PUSH2 0xEE2 JUMPI PUSH1 0x40 MLOAD PUSH32 0x8C379A000000000000000000000000000000000000000000000000000000000 DUP2 MSTORE PUSH1 0x4 ADD PUSH2 0xED9 SWAP1 PUSH2 0x19D5 JUMP JUMPDEST PUSH1 0x40 MLOAD DUP1 SWAP2 SUB SWAP1 REVERT JUMPDEST PUSH2 0xEEB DUP6 PUSH2 0xFC8 JUMP JUMPDEST PUSH2 0xF2A JUMPI PUSH1 0x40 MLOAD PUSH32 0x8C379A000000000000000000000000000000000000000000000000000000000 DUP2 MSTORE PUSH1 0x4 ADD PUSH2 0xF21 SWAP1 PUSH2 0x1A55 JUMP JUMPDEST PUSH1 0x40 MLOAD DUP1 SWAP2 SUB SWAP1 REVERT JUMPDEST PUSH1 0x0 DUP1 DUP7 PUSH20 0xFFFFFFFFFFFFFFFFFFFFFFFFFFFFFFFFFFFFFFFF AND DUP6 DUP8 PUSH1 0x40 MLOAD PUSH2 0xF53 SWAP2 SWAP1 PUSH2 0x1839 JUMP JUMPDEST PUSH1 0x0 PUSH1 0x40 MLOAD DUP1 DUP4 SUB DUP2 DUP6 DUP8 GAS CALL SWAP3 POP POP POP RETURNDATASIZE DUP1 PUSH1 0x0 DUP2 EQ PUSH2 0xF90 JUMPI PUSH1 0x40 MLOAD SWAP2 POP PUSH1 0x1F NOT PUSH1 0x3F RETURNDATASIZE ADD AND DUP3 ADD PUSH1 0x40 MSTORE RETURNDATASIZE DUP3 MSTORE RETURNDATASIZE PUSH1 0x0 PUSH1 0x20 DUP5 ADD RETURNDATACOPY PUSH2 0xF95 JUMP JUMPDEST PUSH1 0x60 SWAP2 POP JUMPDEST POP SWAP2 POP SWAP2 POP PUSH2 0xFA5 DUP3 DUP3 DUP7 PUSH2 0xFEB JUMP JUMPDEST SWAP3 POP POP POP SWAP5 SWAP4 POP POP POP POP JUMP JUMPDEST PUSH1 0x0 DUP3 PUSH1 0x0 MSTORE DUP2 PUSH1 0x20 MSTORE PUSH1 0x40 PUSH1 0x0 KECCAK256 SWAP1 POP SWAP3 SWAP2 POP POP JUMP JUMPDEST PUSH1 0x0 DUP1 DUP3 PUSH20 0xFFFFFFFFFFFFFFFFFFFFFFFFFFFFFFFFFFFFFFFF AND EXTCODESIZE GT SWAP1 POP SWAP2 SWAP1 POP JUMP JUMPDEST PUSH1 0x60 DUP4 ISZERO PUSH2 0xFFB JUMPI DUP3 SWAP1 POP PUSH2 0x104B JUMP JUMPDEST PUSH1 0x0 DUP4 MLOAD GT ISZERO PUSH2 0x100E JUMPI DUP3 MLOAD DUP1 DUP5 PUSH1 0x20 ADD REVERT JUMPDEST DUP2 PUSH1 0x40 MLOAD PUSH32 0x8C379A000000000000000000000000000000000000000000000000000000000 DUP2 MSTORE PUSH1 0x4 ADD PUSH2 0x1042 SWAP2 SWAP1 PUSH2 0x1953 JUMP JUMPDEST PUSH1 0x40 MLOAD DUP1 SWAP2 SUB SWAP1 REVERT JUMPDEST SWAP4 SWAP3 POP POP POP JUMP JUMPDEST PUSH1 0x0 PUSH2 0x1065 PUSH2 0x1060 DUP5 PUSH2 0x1AF5 JUMP JUMPDEST PUSH2 0x1AD0 JUMP JUMPDEST SWAP1 POP DUP1 DUP4 DUP3 MSTORE PUSH1 0x20 DUP3 ADD SWAP1 POP DUP3 DUP6 PUSH1 0x20 DUP7 MUL DUP3 ADD GT ISZERO PUSH2 0x1088 JUMPI PUSH2 0x1087 PUSH2 0x1E22 JUMP JUMPDEST JUMPDEST PUSH1 0x0 JUMPDEST DUP6 DUP2 LT ISZERO PUSH2 0x10B8 JUMPI DUP2 PUSH2 0x109E DUP9 DUP3 PUSH2 0x1230 JUMP JUMPDEST DUP5 MSTORE PUSH1 0x20 DUP5 ADD SWAP4 POP PUSH1 0x20 DUP4 ADD SWAP3 POP POP PUSH1 0x1 DUP2 ADD SWAP1 POP PUSH2 0x108B JUMP JUMPDEST POP POP POP SWAP4 SWAP3 POP POP POP JUMP JUMPDEST PUSH1 0x0 PUSH2 0x10D5 PUSH2 0x10D0 DUP5 PUSH2 0x1B21 JUMP JUMPDEST PUSH2 0x1AD0 JUMP JUMPDEST SWAP1 POP DUP1 DUP4 DUP3 MSTORE PUSH1 0x20 DUP3 ADD SWAP1 POP DUP3 DUP6 PUSH1 0x20 DUP7 MUL DUP3 ADD GT ISZERO PUSH2 0x10F8 JUMPI PUSH2 0x10F7 PUSH2 0x1E22 JUMP JUMPDEST JUMPDEST PUSH1 0x0 JUMPDEST DUP6 DUP2 LT ISZERO PUSH2 0x1146 JUMPI DUP2 CALLDATALOAD PUSH8 0xFFFFFFFFFFFFFFFF DUP2 GT ISZERO PUSH2 0x111E JUMPI PUSH2 0x111D PUSH2 0x1E1D JUMP JUMPDEST JUMPDEST DUP1 DUP7 ADD PUSH2 0x112B DUP10 DUP3 PUSH2 0x12A1 JUMP JUMPDEST DUP6 MSTORE PUSH1 0x20 DUP6 ADD SWAP5 POP PUSH1 0x20 DUP5 ADD SWAP4 POP POP POP PUSH1 0x1 DUP2 ADD SWAP1 POP PUSH2 0x10FB JUMP JUMPDEST POP POP POP SWAP4 SWAP3 POP POP POP JUMP JUMPDEST PUSH1 0x0 PUSH2 0x1163 PUSH2 0x115E DUP5 PUSH2 0x1B4D JUMP JUMPDEST PUSH2 0x1AD0 JUMP JUMPDEST SWAP1 POP DUP1 DUP4 DUP3 MSTORE PUSH1 0x20 DUP3 ADD SWAP1 POP DUP3 DUP6 PUSH1 0x20 DUP7 MUL DUP3 ADD GT ISZERO PUSH2 0x1186 JUMPI PUSH2 0x1185 PUSH2 0x1E22 JUMP JUMPDEST JUMPDEST PUSH1 0x0 JUMPDEST DUP6 DUP2 LT ISZERO PUSH2 0x11B6 JUMPI DUP2 PUSH2 0x119C DUP9 DUP3 PUSH2 0x1312 JUMP JUMPDEST DUP5 MSTORE PUSH1 0x20 DUP5 ADD SWAP4 POP PUSH1 0x20 DUP4 ADD SWAP3 POP POP PUSH1 0x1 DUP2 ADD SWAP1 POP PUSH2 0x1189 JUMP JUMPDEST POP POP POP SWAP4 SWAP3 POP POP POP JUMP JUMPDEST PUSH1 0x0 PUSH2 0x11D3 PUSH2 0x11CE DUP5 PUSH2 0x1B79 JUMP JUMPDEST PUSH2 0x1AD0 JUMP JUMPDEST SWAP1 POP DUP1 DUP4 DUP3 MSTORE PUSH1 0x20 DUP3 ADD SWAP1 POP DUP3 DUP6 PUSH1 0x20 DUP7 MUL DUP3 ADD GT ISZERO PUSH2 0x11F6 JUMPI PUSH2 0x11F5 PUSH2 0x1E22 JUMP JUMPDEST JUMPDEST PUSH1 0x0 JUMPDEST DUP6 DUP2 LT ISZERO PUSH2 0x1226 JUMPI DUP2 PUSH2 0x120C DUP9 DUP3 PUSH2 0x1327 JUMP JUMPDEST DUP5 MSTORE PUSH1 0x20 DUP5 ADD SWAP4 POP PUSH1 0x20 DUP4 ADD SWAP3 POP POP PUSH1 0x1 DUP2 ADD SWAP1 POP PUSH2 0x11F9 JUMP JUMPDEST POP POP POP SWAP4 SWAP3 POP POP POP JUMP JUMPDEST PUSH1 0x0 DUP2 CALLDATALOAD SWAP1 POP PUSH2 0x123F DUP2 PUSH2 0x2081 JUMP JUMPDEST SWAP3 SWAP2 POP POP JUMP JUMPDEST PUSH1 0x0 DUP3 PUSH1 0x1F DUP4 ADD SLT PUSH2 0x125A JUMPI PUSH2 0x1259 PUSH2 0x1E1D JUMP JUMPDEST JUMPDEST DUP2 CALLDATALOAD PUSH2 0x126A DUP5 DUP3 PUSH1 0x20 DUP7 ADD PUSH2 0x1052 JUMP JUMPDEST SWAP2 POP POP SWAP3 SWAP2 POP POP JUMP JUMPDEST PUSH1 0x0 DUP3 PUSH1 0x1F DUP4 ADD SLT PUSH2 0x1288 JUMPI PUSH2 0x1287 PUSH2 0x1E1D JUMP JUMPDEST JUMPDEST DUP2 CALLDATALOAD PUSH2 0x1298 DUP5 DUP3 PUSH1 0x20 DUP7 ADD PUSH2 0x10C2 JUMP JUMPDEST SWAP2 POP POP SWAP3 SWAP2 POP POP JUMP JUMPDEST PUSH1 0x0 DUP3 PUSH1 0x1F DUP4 ADD SLT PUSH2 0x12B6 JUMPI PUSH2 0x12B5 PUSH2 0x1E1D JUMP JUMPDEST JUMPDEST DUP2 CALLDATALOAD PUSH2 0x12C6 DUP5 DUP3 PUSH1 0x20 DUP7 ADD PUSH2 0x1150 JUMP JUMPDEST SWAP2 POP POP SWAP3 SWAP2 POP POP JUMP JUMPDEST PUSH1 0x0 DUP3 PUSH1 0x1F DUP4 ADD SLT PUSH2 0x12E4 JUMPI PUSH2 0x12E3 PUSH2 0x1E1D JUMP JUMPDEST JUMPDEST DUP2 CALLDATALOAD PUSH2 0x12F4 DUP5 DUP3 PUSH1 0x20 DUP7 ADD PUSH2 0x11C0 JUMP JUMPDEST SWAP2 POP POP SWAP3 SWAP2 POP POP JUMP JUMPDEST PUSH1 0x0 DUP2 MLOAD SWAP1 POP PUSH2 0x130C DUP2 PUSH2 0x2098 JUMP JUMPDEST SWAP3 SWAP2 POP POP JUMP JUMPDEST PUSH1 0x0 DUP2 CALLDATALOAD SWAP1 POP PUSH2 0x1321 DUP2 PUSH2 0x20AF JUMP JUMPDEST SWAP3 SWAP2 POP POP JUMP JUMPDEST PUSH1 0x0 DUP2 CALLDATALOAD SWAP1 POP PUSH2 0x1336 DUP2 PUSH2 0x20C6 JUMP JUMPDEST SWAP3 SWAP2 POP POP JUMP JUMPDEST PUSH1 0x0 PUSH1 0x20 DUP3 DUP5 SUB SLT ISZERO PUSH2 0x1352 JUMPI PUSH2 0x1351 PUSH2 0x1E2C JUMP JUMPDEST JUMPDEST PUSH1 0x0 PUSH2 0x1360 DUP5 DUP3 DUP6 ADD PUSH2 0x1230 JUMP JUMPDEST SWAP2 POP POP SWAP3 SWAP2 POP POP JUMP JUMPDEST PUSH1 0x0 DUP1 PUSH1 0x0 DUP1 PUSH1 0x80 DUP6 DUP8 SUB SLT ISZERO PUSH2 0x1383 JUMPI PUSH2 0x1382 PUSH2 0x1E2C JUMP JUMPDEST JUMPDEST PUSH1 0x0 PUSH2 0x1391 DUP8 DUP3 DUP9 ADD PUSH2 0x1230 JUMP JUMPDEST SWAP5 POP POP PUSH1 0x20 DUP6 ADD CALLDATALOAD PUSH8 0xFFFFFFFFFFFFFFFF DUP2 GT ISZERO PUSH2 0x13B2 JUMPI PUSH2 0x13B1 PUSH2 0x1E27 JUMP JUMPDEST JUMPDEST PUSH2 0x13BE DUP8 DUP3 DUP9 ADD PUSH2 0x12CF JUMP JUMPDEST SWAP4 POP POP PUSH1 0x40 DUP6 ADD CALLDATALOAD PUSH8 0xFFFFFFFFFFFFFFFF DUP2 GT ISZERO PUSH2 0x13DF JUMPI PUSH2 0x13DE PUSH2 0x1E27 JUMP JUMPDEST JUMPDEST PUSH2 0x13EB DUP8 DUP3 DUP9 ADD PUSH2 0x12CF JUMP JUMPDEST SWAP3 POP POP PUSH1 0x60 DUP6 ADD CALLDATALOAD PUSH8 0xFFFFFFFFFFFFFFFF DUP2 GT ISZERO PUSH2 0x140C JUMPI PUSH2 0x140B PUSH2 0x1E27 JUMP JUMPDEST JUMPDEST PUSH2 0x1418 DUP8 DUP3 DUP9 ADD PUSH2 0x1273 JUMP JUMPDEST SWAP2 POP POP SWAP3 SWAP6 SWAP2 SWAP5 POP SWAP3 POP JUMP JUMPDEST PUSH1 0x0 DUP1 PUSH1 0x0 DUP1 PUSH1 0x80 DUP6 DUP8 SUB SLT ISZERO PUSH2 0x143E JUMPI PUSH2 0x143D PUSH2 0x1E2C JUMP JUMPDEST JUMPDEST PUSH1 0x0 PUSH2 0x144C DUP8 DUP3 DUP9 ADD PUSH2 0x1230 JUMP JUMPDEST SWAP5 POP POP PUSH1 0x20 PUSH2 0x145D DUP8 DUP3 DUP9 ADD PUSH2 0x1327 JUMP JUMPDEST SWAP4 POP POP PUSH1 0x40 PUSH2 0x146E DUP8 DUP3 DUP9 ADD PUSH2 0x1327 JUMP JUMPDEST SWAP3 POP POP PUSH1 0x60 DUP6 ADD CALLDATALOAD PUSH8 0xFFFFFFFFFFFFFFFF DUP2 GT ISZERO PUSH2 0x148F JUMPI PUSH2 0x148E PUSH2 0x1E27 JUMP JUMPDEST JUMPDEST PUSH2 0x149B DUP8 DUP3 DUP9 ADD PUSH2 0x12A1 JUMP JUMPDEST SWAP2 POP POP SWAP3 SWAP6 SWAP2 SWAP5 POP SWAP3 POP JUMP JUMPDEST PUSH1 0x0 DUP1 PUSH1 0x0 PUSH1 0x60 DUP5 DUP7 SUB SLT ISZERO PUSH2 0x14C0 JUMPI PUSH2 0x14BF PUSH2 0x1E2C JUMP JUMPDEST JUMPDEST PUSH1 0x0 DUP5 ADD CALLDATALOAD PUSH8 0xFFFFFFFFFFFFFFFF DUP2 GT ISZERO PUSH2 0x14DE JUMPI PUSH2 0x14DD PUSH2 0x1E27 JUMP JUMPDEST JUMPDEST PUSH2 0x14EA DUP7 DUP3 DUP8 ADD PUSH2 0x1245 JUMP JUMPDEST SWAP4 POP POP PUSH1 0x20 DUP5 ADD CALLDATALOAD PUSH8 0xFFFFFFFFFFFFFFFF DUP2 GT ISZERO PUSH2 0x150B JUMPI PUSH2 0x150A PUSH2 0x1E27 JUMP JUMPDEST JUMPDEST PUSH2 0x1517 DUP7 DUP3 DUP8 ADD PUSH2 0x12CF JUMP JUMPDEST SWAP3 POP POP PUSH1 0x40 PUSH2 0x1528 DUP7 DUP3 DUP8 ADD PUSH2 0x1327 JUMP JUMPDEST SWAP2 POP POP SWAP3 POP SWAP3 POP SWAP3 JUMP JUMPDEST PUSH1 0x0 PUSH1 0x20 DUP3 DUP5 SUB SLT ISZERO PUSH2 0x1548 JUMPI PUSH2 0x1547 PUSH2 0x1E2C JUMP JUMPDEST JUMPDEST PUSH1 0x0 PUSH2 0x1556 DUP5 DUP3 DUP6 ADD PUSH2 0x12FD JUMP JUMPDEST SWAP2 POP POP SWAP3 SWAP2 POP POP JUMP JUMPDEST PUSH1 0x0 PUSH1 0x20 DUP3 DUP5 SUB SLT ISZERO PUSH2 0x1575 JUMPI PUSH2 0x1574 PUSH2 0x1E2C JUMP JUMPDEST JUMPDEST PUSH1 0x0 PUSH2 0x1583 DUP5 DUP3 DUP6 ADD PUSH2 0x1327 JUMP JUMPDEST SWAP2 POP POP SWAP3 SWAP2 POP POP JUMP JUMPDEST PUSH1 0x0 DUP1 PUSH1 0x40 DUP4 DUP6 SUB SLT ISZERO PUSH2 0x15A3 JUMPI PUSH2 0x15A2 PUSH2 0x1E2C JUMP JUMPDEST JUMPDEST PUSH1 0x0 PUSH2 0x15B1 DUP6 DUP3 DUP7 ADD PUSH2 0x1327 JUMP JUMPDEST SWAP3 POP POP PUSH1 0x20 PUSH2 0x15C2 DUP6 DUP3 DUP7 ADD PUSH2 0x1230 JUMP JUMPDEST SWAP2 POP POP SWAP3 POP SWAP3 SWAP1 POP JUMP JUMPDEST PUSH2 0x15D5 DUP2 PUSH2 0x1C2D JUMP JUMPDEST DUP3 MSTORE POP POP JUMP JUMPDEST PUSH2 0x15EC PUSH2 0x15E7 DUP3 PUSH2 0x1C2D JUMP JUMPDEST PUSH2 0x1D62 JUMP JUMPDEST DUP3 MSTORE POP POP JUMP JUMPDEST PUSH2 0x15FB DUP2 PUSH2 0x1C3F JUMP JUMPDEST DUP3 MSTORE POP POP JUMP JUMPDEST PUSH2 0x160A DUP2 PUSH2 0x1C4B JUMP JUMPDEST DUP3 MSTORE POP POP JUMP JUMPDEST PUSH1 0x0 PUSH2 0x161B DUP3 PUSH2 0x1BA5 JUMP JUMPDEST PUSH2 0x1625 DUP2 DUP6 PUSH2 0x1BBB JUMP JUMPDEST SWAP4 POP PUSH2 0x1635 DUP2 DUP6 PUSH1 0x20 DUP7 ADD PUSH2 0x1CB5 JUMP JUMPDEST DUP1 DUP5 ADD SWAP2 POP POP SWAP3 SWAP2 POP POP JUMP JUMPDEST PUSH2 0x164A DUP2 PUSH2 0x1C7F JUMP JUMPDEST DUP3 MSTORE POP POP JUMP JUMPDEST PUSH1 0x0 PUSH2 0x165B DUP3 PUSH2 0x1BB0 JUMP JUMPDEST PUSH2 0x1665 DUP2 DUP6 PUSH2 0x1BC6 JUMP JUMPDEST SWAP4 POP PUSH2 0x1675 DUP2 DUP6 PUSH1 0x20 DUP7 ADD PUSH2 0x1CB5 JUMP JUMPDEST PUSH2 0x167E DUP2 PUSH2 0x1E31 JUMP JUMPDEST DUP5 ADD SWAP2 POP POP SWAP3 SWAP2 POP POP JUMP JUMPDEST PUSH1 0x0 PUSH2 0x1696 PUSH1 0x1C DUP4 PUSH2 0x1BC6 JUMP JUMPDEST SWAP2 POP PUSH2 0x16A1 DUP3 PUSH2 0x1E4F JUMP JUMPDEST PUSH1 0x20 DUP3 ADD SWAP1 POP SWAP2 SWAP1 POP JUMP JUMPDEST PUSH1 0x0 PUSH2 0x16B9 PUSH1 0x26 DUP4 PUSH2 0x1BC6 JUMP JUMPDEST SWAP2 POP PUSH2 0x16C4 DUP3 PUSH2 0x1E78 JUMP JUMPDEST PUSH1 0x40 DUP3 ADD SWAP1 POP SWAP2 SWAP1 POP JUMP JUMPDEST PUSH1 0x0 PUSH2 0x16DC PUSH1 0x16 DUP4 PUSH2 0x1BC6 JUMP JUMPDEST SWAP2 POP PUSH2 0x16E7 DUP3 PUSH2 0x1EC7 JUMP JUMPDEST PUSH1 0x20 DUP3 ADD SWAP1 POP SWAP2 SWAP1 POP JUMP JUMPDEST PUSH1 0x0 PUSH2 0x16FF PUSH1 0x26 DUP4 PUSH2 0x1BC6 JUMP JUMPDEST SWAP2 POP PUSH2 0x170A DUP3 PUSH2 0x1EF0 JUMP JUMPDEST PUSH1 0x40 DUP3 ADD SWAP1 POP SWAP2 SWAP1 POP JUMP JUMPDEST PUSH1 0x0 PUSH2 0x1722 PUSH1 0x20 DUP4 PUSH2 0x1BC6 JUMP JUMPDEST SWAP2 POP PUSH2 0x172D DUP3 PUSH2 0x1F3F JUMP JUMPDEST PUSH1 0x20 DUP3 ADD SWAP1 POP SWAP2 SWAP1 POP JUMP JUMPDEST PUSH1 0x0 PUSH2 0x1745 PUSH1 0x3D DUP4 PUSH2 0x1BC6 JUMP JUMPDEST SWAP2 POP PUSH2 0x1750 DUP3 PUSH2 0x1F68 JUMP JUMPDEST PUSH1 0x40 DUP3 ADD SWAP1 POP SWAP2 SWAP1 POP JUMP JUMPDEST PUSH1 0x0 PUSH2 0x1768 PUSH1 0x16 DUP4 PUSH2 0x1BC6 JUMP JUMPDEST SWAP2 POP PUSH2 0x1773 DUP3 PUSH2 0x1FB7 JUMP JUMPDEST PUSH1 0x20 DUP3 ADD SWAP1 POP SWAP2 SWAP1 POP JUMP JUMPDEST PUSH1 0x0 PUSH2 0x178B PUSH1 0x1D DUP4 PUSH2 0x1BC6 JUMP JUMPDEST SWAP2 POP PUSH2 0x1796 DUP3 PUSH2 0x1FE0 JUMP JUMPDEST PUSH1 0x20 DUP3 ADD SWAP1 POP SWAP2 SWAP1 POP JUMP JUMPDEST PUSH1 0x0 PUSH2 0x17AE PUSH1 0x12 DUP4 PUSH2 0x1BC6 JUMP JUMPDEST SWAP2 POP PUSH2 0x17B9 DUP3 PUSH2 0x2009 JUMP JUMPDEST PUSH1 0x20 DUP3 ADD SWAP1 POP SWAP2 SWAP1 POP JUMP JUMPDEST PUSH1 0x0 PUSH2 0x17D1 PUSH1 0x2A DUP4 PUSH2 0x1BC6 JUMP JUMPDEST SWAP2 POP PUSH2 0x17DC DUP3 PUSH2 0x2032 JUMP JUMPDEST PUSH1 0x40 DUP3 ADD SWAP1 POP SWAP2 SWAP1 POP JUMP JUMPDEST PUSH2 0x17F0 DUP2 PUSH2 0x1C75 JUMP JUMPDEST DUP3 MSTORE POP POP JUMP JUMPDEST PUSH2 0x1807 PUSH2 0x1802 DUP3 PUSH2 0x1C75 JUMP JUMPDEST PUSH2 0x1D86 JUMP JUMPDEST DUP3 MSTORE POP POP JUMP JUMPDEST PUSH1 0x0 PUSH2 0x1819 DUP3 DUP6 PUSH2 0x15DB JUMP JUMPDEST PUSH1 0x14 DUP3 ADD SWAP2 POP PUSH2 0x1829 DUP3 DUP5 PUSH2 0x17F6 JUMP JUMPDEST PUSH1 0x20 DUP3 ADD SWAP2 POP DUP2 SWAP1 POP SWAP4 SWAP3 POP POP POP JUMP JUMPDEST PUSH1 0x0 PUSH2 0x1845 DUP3 DUP5 PUSH2 0x1610 JUMP JUMPDEST SWAP2 POP DUP2 SWAP1 POP SWAP3 SWAP2 POP POP JUMP JUMPDEST PUSH1 0x0 PUSH1 0x20 DUP3 ADD SWAP1 POP PUSH2 0x1865 PUSH1 0x0 DUP4 ADD DUP5 PUSH2 0x15CC JUMP JUMPDEST SWAP3 SWAP2 POP POP JUMP JUMPDEST PUSH1 0x0 PUSH1 0x60 DUP3 ADD SWAP1 POP PUSH2 0x1880 PUSH1 0x0 DUP4 ADD DUP7 PUSH2 0x15CC JUMP JUMPDEST PUSH2 0x188D PUSH1 0x20 DUP4 ADD DUP6 PUSH2 0x15CC JUMP JUMPDEST PUSH2 0x189A PUSH1 0x40 DUP4 ADD DUP5 PUSH2 0x17E7 JUMP JUMPDEST SWAP5 SWAP4 POP POP POP POP JUMP JUMPDEST PUSH1 0x0 PUSH1 0x40 DUP3 ADD SWAP1 POP PUSH2 0x18B7 PUSH1 0x0 DUP4 ADD DUP6 PUSH2 0x15CC JUMP JUMPDEST PUSH2 0x18C4 PUSH1 0x20 DUP4 ADD DUP5 PUSH2 0x17E7 JUMP JUMPDEST SWAP4 SWAP3 POP POP POP JUMP JUMPDEST PUSH1 0x0 PUSH1 0x60 DUP3 ADD SWAP1 POP PUSH2 0x18E0 PUSH1 0x0 DUP4 ADD DUP7 PUSH2 0x15CC JUMP JUMPDEST PUSH2 0x18ED PUSH1 0x20 DUP4 ADD DUP6 PUSH2 0x17E7 JUMP JUMPDEST PUSH2 0x18FA PUSH1 0x40 DUP4 ADD DUP5 PUSH2 0x17E7 JUMP JUMPDEST SWAP5 SWAP4 POP POP POP POP JUMP JUMPDEST PUSH1 0x0 PUSH1 0x20 DUP3 ADD SWAP1 POP PUSH2 0x1917 PUSH1 0x0 DUP4 ADD DUP5 PUSH2 0x15F2 JUMP JUMPDEST SWAP3 SWAP2 POP POP JUMP JUMPDEST PUSH1 0x0 PUSH1 0x20 DUP3 ADD SWAP1 POP PUSH2 0x1932 PUSH1 0x0 DUP4 ADD DUP5 PUSH2 0x1601 JUMP JUMPDEST SWAP3 SWAP2 POP POP JUMP JUMPDEST PUSH1 0x0 PUSH1 0x20 DUP3 ADD SWAP1 POP PUSH2 0x194D PUSH1 0x0 DUP4 ADD DUP5 PUSH2 0x1641 JUMP JUMPDEST SWAP3 SWAP2 POP POP JUMP JUMPDEST PUSH1 0x0 PUSH1 0x20 DUP3 ADD SWAP1 POP DUP2 DUP2 SUB PUSH1 0x0 DUP4 ADD MSTORE PUSH2 0x196D DUP2 DUP5 PUSH2 0x1650 JUMP JUMPDEST SWAP1 POP SWAP3 SWAP2 POP POP JUMP JUMPDEST PUSH1 0x0 PUSH1 0x20 DUP3 ADD SWAP1 POP DUP2 DUP2 SUB PUSH1 0x0 DUP4 ADD MSTORE PUSH2 0x198E DUP2 PUSH2 0x1689 JUMP JUMPDEST SWAP1 POP SWAP2 SWAP1 POP JUMP JUMPDEST PUSH1 0x0 PUSH1 0x20 DUP3 ADD SWAP1 POP DUP2 DUP2 SUB PUSH1 0x0 DUP4 ADD MSTORE PUSH2 0x19AE DUP2 PUSH2 0x16AC JUMP JUMPDEST SWAP1 POP SWAP2 SWAP1 POP JUMP JUMPDEST PUSH1 0x0 PUSH1 0x20 DUP3 ADD SWAP1 POP DUP2 DUP2 SUB PUSH1 0x0 DUP4 ADD MSTORE PUSH2 0x19CE DUP2 PUSH2 0x16CF JUMP JUMPDEST SWAP1 POP SWAP2 SWAP1 POP JUMP JUMPDEST PUSH1 0x0 PUSH1 0x20 DUP3 ADD SWAP1 POP DUP2 DUP2 SUB PUSH1 0x0 DUP4 ADD MSTORE PUSH2 0x19EE DUP2 PUSH2 0x16F2 JUMP JUMPDEST SWAP1 POP SWAP2 SWAP1 POP JUMP JUMPDEST PUSH1 0x0 PUSH1 0x20 DUP3 ADD SWAP1 POP DUP2 DUP2 SUB PUSH1 0x0 DUP4 ADD MSTORE PUSH2 0x1A0E DUP2 PUSH2 0x1715 JUMP JUMPDEST SWAP1 POP SWAP2 SWAP1 POP JUMP JUMPDEST PUSH1 0x0 PUSH1 0x20 DUP3 ADD SWAP1 POP DUP2 DUP2 SUB PUSH1 0x0 DUP4 ADD MSTORE PUSH2 0x1A2E DUP2 PUSH2 0x1738 JUMP JUMPDEST SWAP1 POP SWAP2 SWAP1 POP JUMP JUMPDEST PUSH1 0x0 PUSH1 0x20 DUP3 ADD SWAP1 POP DUP2 DUP2 SUB PUSH1 0x0 DUP4 ADD MSTORE PUSH2 0x1A4E DUP2 PUSH2 0x175B JUMP JUMPDEST SWAP1 POP SWAP2 SWAP1 POP JUMP JUMPDEST PUSH1 0x0 PUSH1 0x20 DUP3 ADD SWAP1 POP DUP2 DUP2 SUB PUSH1 0x0 DUP4 ADD MSTORE PUSH2 0x1A6E DUP2 PUSH2 0x177E JUMP JUMPDEST SWAP1 POP SWAP2 SWAP1 POP JUMP JUMPDEST PUSH1 0x0 PUSH1 0x20 DUP3 ADD SWAP1 POP DUP2 DUP2 SUB PUSH1 0x0 DUP4 ADD MSTORE PUSH2 0x1A8E DUP2 PUSH2 0x17A1 JUMP JUMPDEST SWAP1 POP SWAP2 SWAP1 POP JUMP JUMPDEST PUSH1 0x0 PUSH1 0x20 DUP3 ADD SWAP1 POP DUP2 DUP2 SUB PUSH1 0x0 DUP4 ADD MSTORE PUSH2 0x1AAE DUP2 PUSH2 0x17C4 JUMP JUMPDEST SWAP1 POP SWAP2 SWAP1 POP JUMP JUMPDEST PUSH1 0x0 PUSH1 0x20 DUP3 ADD SWAP1 POP PUSH2 0x1ACA PUSH1 0x0 DUP4 ADD DUP5 PUSH2 0x17E7 JUMP JUMPDEST SWAP3 SWAP2 POP POP JUMP JUMPDEST PUSH1 0x0 PUSH2 0x1ADA PUSH2 0x1AEB JUMP JUMPDEST SWAP1 POP PUSH2 0x1AE6 DUP3 DUP3 PUSH2 0x1CE8 JUMP JUMPDEST SWAP2 SWAP1 POP JUMP JUMPDEST PUSH1 0x0 PUSH1 0x40 MLOAD SWAP1 POP SWAP1 JUMP JUMPDEST PUSH1 0x0 PUSH8 0xFFFFFFFFFFFFFFFF DUP3 GT ISZERO PUSH2 0x1B10 JUMPI PUSH2 0x1B0F PUSH2 0x1DEE JUMP JUMPDEST JUMPDEST PUSH1 0x20 DUP3 MUL SWAP1 POP PUSH1 0x20 DUP2 ADD SWAP1 POP SWAP2 SWAP1 POP JUMP JUMPDEST PUSH1 0x0 PUSH8 0xFFFFFFFFFFFFFFFF DUP3 GT ISZERO PUSH2 0x1B3C JUMPI PUSH2 0x1B3B PUSH2 0x1DEE JUMP JUMPDEST JUMPDEST PUSH1 0x20 DUP3 MUL SWAP1 POP PUSH1 0x20 DUP2 ADD SWAP1 POP SWAP2 SWAP1 POP JUMP JUMPDEST PUSH1 0x0 PUSH8 0xFFFFFFFFFFFFFFFF DUP3 GT ISZERO PUSH2 0x1B68 JUMPI PUSH2 0x1B67 PUSH2 0x1DEE JUMP JUMPDEST JUMPDEST PUSH1 0x20 DUP3 MUL SWAP1 POP PUSH1 0x20 DUP2 ADD SWAP1 POP SWAP2 SWAP1 POP JUMP JUMPDEST PUSH1 0x0 PUSH8 0xFFFFFFFFFFFFFFFF DUP3 GT ISZERO PUSH2 0x1B94 JUMPI PUSH2 0x1B93 PUSH2 0x1DEE JUMP JUMPDEST JUMPDEST PUSH1 0x20 DUP3 MUL SWAP1 POP PUSH1 0x20 DUP2 ADD SWAP1 POP SWAP2 SWAP1 POP JUMP JUMPDEST PUSH1 0x0 DUP2 MLOAD SWAP1 POP SWAP2 SWAP1 POP JUMP JUMPDEST PUSH1 0x0 DUP2 MLOAD SWAP1 POP SWAP2 SWAP1 POP JUMP JUMPDEST PUSH1 0x0 DUP2 SWAP1 POP SWAP3 SWAP2 POP POP JUMP JUMPDEST PUSH1 0x0 DUP3 DUP3 MSTORE PUSH1 0x20 DUP3 ADD SWAP1 POP SWAP3 SWAP2 POP POP JUMP JUMPDEST PUSH1 0x0 PUSH2 0x1BE2 DUP3 PUSH2 0x1C75 JUMP JUMPDEST SWAP2 POP PUSH2 0x1BED DUP4 PUSH2 0x1C75 JUMP JUMPDEST SWAP3 POP DUP3 PUSH32 0xFFFFFFFFFFFFFFFFFFFFFFFFFFFFFFFFFFFFFFFFFFFFFFFFFFFFFFFFFFFFFFFF SUB DUP3 GT ISZERO PUSH2 0x1C22 JUMPI PUSH2 0x1C21 PUSH2 0x1D90 JUMP JUMPDEST JUMPDEST DUP3 DUP3 ADD SWAP1 POP SWAP3 SWAP2 POP POP JUMP JUMPDEST PUSH1 0x0 PUSH2 0x1C38 DUP3 PUSH2 0x1C55 JUMP JUMPDEST SWAP1 POP SWAP2 SWAP1 POP JUMP JUMPDEST PUSH1 0x0 DUP2 ISZERO ISZERO SWAP1 POP SWAP2 SWAP1 POP JUMP JUMPDEST PUSH1 0x0 DUP2 SWAP1 POP SWAP2 SWAP1 POP JUMP JUMPDEST PUSH1 0x0 PUSH20 0xFFFFFFFFFFFFFFFFFFFFFFFFFFFFFFFFFFFFFFFF DUP3 AND SWAP1 POP SWAP2 SWAP1 POP JUMP JUMPDEST PUSH1 0x0 DUP2 SWAP1 POP SWAP2 SWAP1 POP JUMP JUMPDEST PUSH1 0x0 PUSH2 0x1C8A DUP3 PUSH2 0x1C91 JUMP JUMPDEST SWAP1 POP SWAP2 SWAP1 POP JUMP JUMPDEST PUSH1 0x0 PUSH2 0x1C9C DUP3 PUSH2 0x1CA3 JUMP JUMPDEST SWAP1 POP SWAP2 SWAP1 POP JUMP JUMPDEST PUSH1 0x0 PUSH2 0x1CAE DUP3 PUSH2 0x1C55 JUMP JUMPDEST SWAP1 POP SWAP2 SWAP1 POP JUMP JUMPDEST PUSH1 0x0 JUMPDEST DUP4 DUP2 LT ISZERO PUSH2 0x1CD3 JUMPI DUP1 DUP3 ADD MLOAD DUP2 DUP5 ADD MSTORE PUSH1 0x20 DUP2 ADD SWAP1 POP PUSH2 0x1CB8 JUMP JUMPDEST DUP4 DUP2 GT ISZERO PUSH2 0x1CE2 JUMPI PUSH1 0x0 DUP5 DUP5 ADD MSTORE JUMPDEST POP POP POP POP JUMP JUMPDEST PUSH2 0x1CF1 DUP3 PUSH2 0x1E31 JUMP JUMPDEST DUP2 ADD DUP2 DUP2 LT PUSH8 0xFFFFFFFFFFFFFFFF DUP3 GT OR ISZERO PUSH2 0x1D10 JUMPI PUSH2 0x1D0F PUSH2 0x1DEE JUMP JUMPDEST JUMPDEST DUP1 PUSH1 0x40 MSTORE POP POP POP JUMP JUMPDEST PUSH1 0x0 PUSH2 0x1D24 DUP3 PUSH2 0x1C75 JUMP JUMPDEST SWAP2 POP PUSH32 0xFFFFFFFFFFFFFFFFFFFFFFFFFFFFFFFFFFFFFFFFFFFFFFFFFFFFFFFFFFFFFFFF DUP3 EQ ISZERO PUSH2 0x1D57 JUMPI PUSH2 0x1D56 PUSH2 0x1D90 JUMP JUMPDEST JUMPDEST PUSH1 0x1 DUP3 ADD SWAP1 POP SWAP2 SWAP1 POP JUMP JUMPDEST PUSH1 0x0 PUSH2 0x1D6D DUP3 PUSH2 0x1D74 JUMP JUMPDEST SWAP1 POP SWAP2 SWAP1 POP JUMP JUMPDEST PUSH1 0x0 PUSH2 0x1D7F DUP3 PUSH2 0x1E42 JUMP JUMPDEST SWAP1 POP SWAP2 SWAP1 POP JUMP JUMPDEST PUSH1 0x0 DUP2 SWAP1 POP SWAP2 SWAP1 POP JUMP JUMPDEST PUSH32 0x4E487B7100000000000000000000000000000000000000000000000000000000 PUSH1 0x0 MSTORE PUSH1 0x11 PUSH1 0x4 MSTORE PUSH1 0x24 PUSH1 0x0 REVERT JUMPDEST PUSH32 0x4E487B7100000000000000000000000000000000000000000000000000000000 PUSH1 0x0 MSTORE PUSH1 0x32 PUSH1 0x4 MSTORE PUSH1 0x24 PUSH1 0x0 REVERT JUMPDEST PUSH32 0x4E487B7100000000000000000000000000000000000000000000000000000000 PUSH1 0x0 MSTORE PUSH1 0x41 PUSH1 0x4 MSTORE PUSH1 0x24 PUSH1 0x0 REVERT JUMPDEST PUSH1 0x0 DUP1 REVERT JUMPDEST PUSH1 0x0 DUP1 REVERT JUMPDEST PUSH1 0x0 DUP1 REVERT JUMPDEST PUSH1 0x0 DUP1 REVERT JUMPDEST PUSH1 0x0 PUSH1 0x1F NOT PUSH1 0x1F DUP4 ADD AND SWAP1 POP SWAP2 SWAP1 POP JUMP JUMPDEST PUSH1 0x0 DUP2 PUSH1 0x60 SHL SWAP1 POP SWAP2 SWAP1 POP JUMP JUMPDEST PUSH32 0x5765656B2063616E6E6F7420626520696E207468652066757475726500000000 PUSH1 0x0 DUP3 ADD MSTORE POP JUMP JUMPDEST PUSH32 0x4F776E61626C653A206E6577206F776E657220697320746865207A65726F2061 PUSH1 0x0 DUP3 ADD MSTORE PUSH32 0x6464726573730000000000000000000000000000000000000000000000000000 PUSH1 0x20 DUP3 ADD MSTORE POP JUMP JUMPDEST PUSH32 0x496E636F7272656374206D65726B6C652070726F6F6600000000000000000000 PUSH1 0x0 DUP3 ADD MSTORE POP JUMP JUMPDEST PUSH32 0x416464726573733A20696E73756666696369656E742062616C616E636520666F PUSH1 0x0 DUP3 ADD MSTORE PUSH32 0x722063616C6C0000000000000000000000000000000000000000000000000000 PUSH1 0x20 DUP3 ADD MSTORE POP JUMP JUMPDEST PUSH32 0x4F776E61626C653A2063616C6C6572206973206E6F7420746865206F776E6572 PUSH1 0x0 DUP3 ADD MSTORE POP JUMP JUMPDEST PUSH32 0x4E6F2062616C616E636520776F756C64206265207472616E7366657272656420 PUSH1 0x0 DUP3 ADD MSTORE PUSH32 0x2D206E6F7420676F696E6720746F20776173746520796F757220676173000000 PUSH1 0x20 DUP3 ADD MSTORE POP JUMP JUMPDEST PUSH32 0x4C502068617320616C726561647920636C61696D656400000000000000000000 PUSH1 0x0 DUP3 ADD MSTORE POP JUMP JUMPDEST PUSH32 0x416464726573733A2063616C6C20746F206E6F6E2D636F6E7472616374000000 PUSH1 0x0 DUP3 ADD MSTORE POP JUMP JUMPDEST PUSH32 0x4D69736D61746368696E6720696E707574730000000000000000000000000000 PUSH1 0x0 DUP3 ADD MSTORE POP JUMP JUMPDEST PUSH32 0x5361666545524332303A204552433230206F7065726174696F6E20646964206E PUSH1 0x0 DUP3 ADD MSTORE PUSH32 0x6F74207375636365656400000000000000000000000000000000000000000000 PUSH1 0x20 DUP3 ADD MSTORE POP JUMP JUMPDEST PUSH2 0x208A DUP2 PUSH2 0x1C2D JUMP JUMPDEST DUP2 EQ PUSH2 0x2095 JUMPI PUSH1 0x0 DUP1 REVERT JUMPDEST POP JUMP JUMPDEST PUSH2 0x20A1 DUP2 PUSH2 0x1C3F JUMP JUMPDEST DUP2 EQ PUSH2 0x20AC JUMPI PUSH1 0x0 DUP1 REVERT JUMPDEST POP JUMP JUMPDEST PUSH2 0x20B8 DUP2 PUSH2 0x1C4B JUMP JUMPDEST DUP2 EQ PUSH2 0x20C3 JUMPI PUSH1 0x0 DUP1 REVERT JUMPDEST POP JUMP JUMPDEST PUSH2 0x20CF DUP2 PUSH2 0x1C75 JUMP JUMPDEST DUP2 EQ PUSH2 0x20DA JUMPI PUSH1 0x0 DUP1 REVERT JUMPDEST POP JUMP INVALID LOG2 PUSH5 0x6970667358 0x22 SLT KECCAK256 SWAP3 PUSH4 0x30791705 0xDF PUSH6 0xEF124AB5DFA 0x27 CALLCODE INVALID 0xF7 SMOD 0xF9 0xCD 0xDB 0xAA SHL MULMOD 0xEF 0x25 0xAB 0xD3 0xD DUP2 DUP16 PUSH5 0x736F6C6343 STOP ADDMOD SMOD STOP CALLER "
				},
				"gasEstimates": {
					"creation": {
						"codeDepositCost": "1693400",
						"executionCost": "infinite",
						"totalCost": "infinite"
					},
					"external": {
						"claimWeek(address,uint256,uint256,bytes32[])": "infinite",
						"claimWeeks(address,uint256[],uint256[],bytes32[][])": "infinite",
						"claimed(uint256,address)": "3088",
						"expireTranche(uint256)": "infinite",
						"merkleRoots(uint256)": "2832",
						"owner()": "2611",
						"recipients(address)": "2836",
						"renounceOwnership()": "30419",
						"seedNewAllocations(address[],uint256[],uint256)": "infinite",
						"token()": "2688",
						"tranches()": "2473",
						"transferOwnership(address)": "30789",
						"verifyClaim(address,uint256,uint256,bytes32[])": "infinite"
					},
					"internal": {
						"_claimWeek(address,uint256,uint256,bytes32[] memory)": "infinite",
						"_disburse(address,uint256)": "infinite",
						"_verifyClaim(address,uint256,uint256,bytes32[] memory)": "infinite"
					}
				},
				"methodIdentifiers": {
					"claimWeek(address,uint256,uint256,bytes32[])": "58b4e4b4",
					"claimWeeks(address,uint256[],uint256[],bytes32[][])": "ba593714",
					"claimed(uint256,address)": "120aa877",
					"expireTranche(uint256)": "d5efd20a",
					"merkleRoots(uint256)": "71c5ecb1",
					"owner()": "8da5cb5b",
					"recipients(address)": "eb820312",
					"renounceOwnership()": "715018a6",
					"seedNewAllocations(address[],uint256[],uint256)": "cf9aa8cc",
					"token()": "fc0c546a",
					"tranches()": "ebf04917",
					"transferOwnership(address)": "f2fde38b",
					"verifyClaim(address,uint256,uint256,bytes32[])": "eb0d07f5"
				}
			},
			"storageLayout": {
				"storage": [
					{
						"astId": 7,
						"contract": "contracts/MTMSAirdrop.sol:MTMSAirdrop",
						"label": "_owner",
						"offset": 0,
						"slot": "0",
						"type": "t_address"
					},
					{
						"astId": 1247,
						"contract": "contracts/MTMSAirdrop.sol:MTMSAirdrop",
						"label": "token",
						"offset": 0,
						"slot": "1",
						"type": "t_contract(IERC20)256"
					},
					{
						"astId": 1251,
						"contract": "contracts/MTMSAirdrop.sol:MTMSAirdrop",
						"label": "recipients",
						"offset": 0,
						"slot": "2",
						"type": "t_mapping(t_address,t_uint256)"
					},
					{
						"astId": 1255,
						"contract": "contracts/MTMSAirdrop.sol:MTMSAirdrop",
						"label": "merkleRoots",
						"offset": 0,
						"slot": "3",
						"type": "t_mapping(t_uint256,t_bytes32)"
					},
					{
						"astId": 1261,
						"contract": "contracts/MTMSAirdrop.sol:MTMSAirdrop",
						"label": "claimed",
						"offset": 0,
						"slot": "4",
						"type": "t_mapping(t_uint256,t_mapping(t_address,t_bool))"
					},
					{
						"astId": 1263,
						"contract": "contracts/MTMSAirdrop.sol:MTMSAirdrop",
						"label": "tranches",
						"offset": 0,
						"slot": "5",
						"type": "t_uint256"
					}
				],
				"types": {
					"t_address": {
						"encoding": "inplace",
						"label": "address",
						"numberOfBytes": "20"
					},
					"t_bool": {
						"encoding": "inplace",
						"label": "bool",
						"numberOfBytes": "1"
					},
					"t_bytes32": {
						"encoding": "inplace",
						"label": "bytes32",
						"numberOfBytes": "32"
					},
					"t_contract(IERC20)256": {
						"encoding": "inplace",
						"label": "contract IERC20",
						"numberOfBytes": "20"
					},
					"t_mapping(t_address,t_bool)": {
						"encoding": "mapping",
						"key": "t_address",
						"label": "mapping(address => bool)",
						"numberOfBytes": "32",
						"value": "t_bool"
					},
					"t_mapping(t_address,t_uint256)": {
						"encoding": "mapping",
						"key": "t_address",
						"label": "mapping(address => uint256)",
						"numberOfBytes": "32",
						"value": "t_uint256"
					},
					"t_mapping(t_uint256,t_bytes32)": {
						"encoding": "mapping",
						"key": "t_uint256",
						"label": "mapping(uint256 => bytes32)",
						"numberOfBytes": "32",
						"value": "t_bytes32"
					},
					"t_mapping(t_uint256,t_mapping(t_address,t_bool))": {
						"encoding": "mapping",
						"key": "t_uint256",
						"label": "mapping(uint256 => mapping(address => bool))",
						"numberOfBytes": "32",
						"value": "t_mapping(t_address,t_bool)"
					},
					"t_uint256": {
						"encoding": "inplace",
						"label": "uint256",
						"numberOfBytes": "32"
					}
				}
			},
			"userdoc": {
				"kind": "user",
				"methods": {},
				"version": 1
			}
		}
	}
}