{
	"contracts/MTMSAirdrop.sol": {
		"MTMSAirdrop": {
			"abi": [
				{
					"inputs": [
						{
							"internalType": "contract IERC20",
							"name": "_token",
							"type": "address"
						}
					],
					"stateMutability": "nonpayable",
					"type": "constructor"
				},
				{
					"anonymous": false,
					"inputs": [
						{
							"indexed": false,
							"internalType": "address",
							"name": "claimant",
							"type": "address"
						},
						{
							"indexed": false,
							"internalType": "uint256",
							"name": "week",
							"type": "uint256"
						},
						{
							"indexed": false,
							"internalType": "uint256",
							"name": "balance",
							"type": "uint256"
						}
					],
					"name": "Claimed",
					"type": "event"
				},
				{
					"anonymous": false,
					"inputs": [
						{
							"indexed": true,
							"internalType": "address",
							"name": "previousOwner",
							"type": "address"
						},
						{
							"indexed": true,
							"internalType": "address",
							"name": "newOwner",
							"type": "address"
						}
					],
					"name": "OwnershipTransferred",
					"type": "event"
				},
				{
					"anonymous": false,
					"inputs": [
						{
							"indexed": true,
							"internalType": "address",
							"name": "_address",
							"type": "address"
						}
					],
					"name": "RemovedFunder",
					"type": "event"
				},
				{
					"anonymous": false,
					"inputs": [
						{
							"indexed": false,
							"internalType": "uint256",
							"name": "tranche",
							"type": "uint256"
						},
						{
							"indexed": false,
							"internalType": "bytes32",
							"name": "merkleRoot",
							"type": "bytes32"
						},
						{
							"indexed": false,
							"internalType": "uint256",
							"name": "totalAmount",
							"type": "uint256"
						}
					],
					"name": "TrancheAdded",
					"type": "event"
				},
				{
					"anonymous": false,
					"inputs": [
						{
							"indexed": false,
							"internalType": "uint256",
							"name": "tranche",
							"type": "uint256"
						}
					],
					"name": "TrancheExpired",
					"type": "event"
				},
				{
					"inputs": [
						{
							"internalType": "address",
							"name": "_liquidityProvider",
							"type": "address"
						},
						{
							"internalType": "uint256",
							"name": "_tranche",
							"type": "uint256"
						},
						{
							"internalType": "uint256",
							"name": "_balance",
							"type": "uint256"
						},
						{
							"internalType": "bytes32[]",
							"name": "_merkleProof",
							"type": "bytes32[]"
						}
					],
					"name": "claimWeek",
					"outputs": [],
					"stateMutability": "nonpayable",
					"type": "function"
				},
				{
					"inputs": [
						{
							"internalType": "address",
							"name": "_liquidityProvider",
							"type": "address"
						},
						{
							"internalType": "uint256[]",
							"name": "_tranches",
							"type": "uint256[]"
						},
						{
							"internalType": "uint256[]",
							"name": "_balances",
							"type": "uint256[]"
						},
						{
							"internalType": "bytes32[][]",
							"name": "_merkleProofs",
							"type": "bytes32[][]"
						}
					],
					"name": "claimWeeks",
					"outputs": [],
					"stateMutability": "nonpayable",
					"type": "function"
				},
				{
					"inputs": [
						{
							"internalType": "uint256",
							"name": "",
							"type": "uint256"
						},
						{
							"internalType": "address",
							"name": "",
							"type": "address"
						}
					],
					"name": "claimed",
					"outputs": [
						{
							"internalType": "bool",
							"name": "",
							"type": "bool"
						}
					],
					"stateMutability": "view",
					"type": "function"
				},
				{
					"inputs": [
						{
							"internalType": "uint256",
							"name": "_trancheId",
							"type": "uint256"
						}
					],
					"name": "expireTranche",
					"outputs": [],
					"stateMutability": "nonpayable",
					"type": "function"
				},
				{
					"inputs": [
						{
							"internalType": "uint256",
							"name": "",
							"type": "uint256"
						}
					],
					"name": "merkleRoots",
					"outputs": [
						{
							"internalType": "bytes32",
							"name": "",
							"type": "bytes32"
						}
					],
					"stateMutability": "view",
					"type": "function"
				},
				{
					"inputs": [],
					"name": "owner",
					"outputs": [
						{
							"internalType": "address",
							"name": "",
							"type": "address"
						}
					],
					"stateMutability": "view",
					"type": "function"
				},
				{
					"inputs": [],
					"name": "renounceOwnership",
					"outputs": [],
					"stateMutability": "nonpayable",
					"type": "function"
				},
				{
					"inputs": [
						{
							"internalType": "bytes32",
							"name": "_merkleRoot",
							"type": "bytes32"
						},
						{
							"internalType": "uint256",
							"name": "_totalAllocation",
							"type": "uint256"
						}
					],
					"name": "seedNewAllocations",
					"outputs": [
						{
							"internalType": "uint256",
							"name": "trancheId",
							"type": "uint256"
						}
					],
					"stateMutability": "nonpayable",
					"type": "function"
				},
				{
					"inputs": [],
					"name": "token",
					"outputs": [
						{
							"internalType": "contract IERC20",
							"name": "",
							"type": "address"
						}
					],
					"stateMutability": "view",
					"type": "function"
				},
				{
					"inputs": [],
					"name": "tranches",
					"outputs": [
						{
							"internalType": "uint256",
							"name": "",
							"type": "uint256"
						}
					],
					"stateMutability": "view",
					"type": "function"
				},
				{
					"inputs": [
						{
							"internalType": "address",
							"name": "newOwner",
							"type": "address"
						}
					],
					"name": "transferOwnership",
					"outputs": [],
					"stateMutability": "nonpayable",
					"type": "function"
				},
				{
					"inputs": [
						{
							"internalType": "address",
							"name": "_liquidityProvider",
							"type": "address"
						},
						{
							"internalType": "uint256",
							"name": "_tranche",
							"type": "uint256"
						},
						{
							"internalType": "uint256",
							"name": "_balance",
							"type": "uint256"
						},
						{
							"internalType": "bytes32[]",
							"name": "_merkleProof",
							"type": "bytes32[]"
						}
					],
					"name": "verifyClaim",
					"outputs": [
						{
							"internalType": "bool",
							"name": "valid",
							"type": "bool"
						}
					],
					"stateMutability": "view",
					"type": "function"
				}
			],
			"devdoc": {
				"kind": "dev",
				"methods": {
					"owner()": {
						"details": "Returns the address of the current owner."
					},
					"renounceOwnership()": {
						"details": "Leaves the contract without owner. It will not be possible to call `onlyOwner` functions anymore. Can only be called by the current owner. NOTE: Renouncing ownership will leave the contract without an owner, thereby removing any functionality that is only available to the owner."
					},
					"transferOwnership(address)": {
						"details": "Transfers ownership of the contract to a new account (`newOwner`). Can only be called by the current owner."
					}
				},
				"version": 1
			},
			"evm": {
				"assembly": "    /* \"contracts/MTMSAirdrop.sol\":441:4264  contract MTMSAirdrop is Ownable {\r... */\n  mstore(0x40, 0x80)\n    /* \"contracts/MTMSAirdrop.sol\":977:1044  constructor(IERC20 _token) public {\r... */\n  callvalue\n  dup1\n  iszero\n  tag_1\n  jumpi\n  0x00\n  dup1\n  revert\ntag_1:\n  pop\n  mload(0x40)\n  sub(codesize, bytecodeSize)\n  dup1\n  bytecodeSize\n  dup4\n  codecopy\n  dup2\n  dup2\n  add\n  0x40\n  mstore\n  dup2\n  add\n  swap1\n  tag_2\n  swap2\n  swap1\n  tag_3\n  jump\t// in\ntag_2:\n    /* \"@openzeppelin/contracts/access/Ownable.sol\":921:953  _transferOwnership(_msgSender()) */\n  tag_7\n    /* \"@openzeppelin/contracts/access/Ownable.sol\":940:952  _msgSender() */\n  tag_8\n    /* \"@openzeppelin/contracts/access/Ownable.sol\":940:950  _msgSender */\n  shl(0x20, tag_9)\n    /* \"@openzeppelin/contracts/access/Ownable.sol\":940:952  _msgSender() */\n  0x20\n  shr\n  jump\t// in\ntag_8:\n    /* \"@openzeppelin/contracts/access/Ownable.sol\":921:939  _transferOwnership */\n  shl(0x20, tag_10)\n    /* \"@openzeppelin/contracts/access/Ownable.sol\":921:953  _transferOwnership(_msgSender()) */\n  0x20\n  shr\n  jump\t// in\ntag_7:\n    /* \"contracts/MTMSAirdrop.sol\":1030:1036  _token */\n  dup1\n    /* \"contracts/MTMSAirdrop.sol\":1022:1027  token */\n  0x01\n  0x00\n    /* \"contracts/MTMSAirdrop.sol\":1022:1036  token = _token */\n  0x0100\n  exp\n  dup2\n  sload\n  dup2\n  0xffffffffffffffffffffffffffffffffffffffff\n  mul\n  not\n  and\n  swap1\n  dup4\n  0xffffffffffffffffffffffffffffffffffffffff\n  and\n  mul\n  or\n  swap1\n  sstore\n  pop\n    /* \"contracts/MTMSAirdrop.sol\":977:1044  constructor(IERC20 _token) public {\r... */\n  pop\n    /* \"contracts/MTMSAirdrop.sol\":441:4264  contract MTMSAirdrop is Ownable {\r... */\n  jump(tag_12)\n    /* \"@openzeppelin/contracts/utils/Context.sol\":640:736  function _msgSender() internal view virtual returns (address) {... */\ntag_9:\n    /* \"@openzeppelin/contracts/utils/Context.sol\":693:700  address */\n  0x00\n    /* \"@openzeppelin/contracts/utils/Context.sol\":719:729  msg.sender */\n  caller\n    /* \"@openzeppelin/contracts/utils/Context.sol\":712:729  return msg.sender */\n  swap1\n  pop\n    /* \"@openzeppelin/contracts/utils/Context.sol\":640:736  function _msgSender() internal view virtual returns (address) {... */\n  swap1\n  jump\t// out\n    /* \"@openzeppelin/contracts/access/Ownable.sol\":2270:2457  function _transferOwnership(address newOwner) internal virtual {... */\ntag_10:\n    /* \"@openzeppelin/contracts/access/Ownable.sol\":2343:2359  address oldOwner */\n  0x00\n    /* \"@openzeppelin/contracts/access/Ownable.sol\":2362:2368  _owner */\n  dup1\n  0x00\n  swap1\n  sload\n  swap1\n  0x0100\n  exp\n  swap1\n  div\n  0xffffffffffffffffffffffffffffffffffffffff\n  and\n    /* \"@openzeppelin/contracts/access/Ownable.sol\":2343:2368  address oldOwner = _owner */\n  swap1\n  pop\n    /* \"@openzeppelin/contracts/access/Ownable.sol\":2387:2395  newOwner */\n  dup2\n    /* \"@openzeppelin/contracts/access/Ownable.sol\":2378:2384  _owner */\n  0x00\n  dup1\n    /* \"@openzeppelin/contracts/access/Ownable.sol\":2378:2395  _owner = newOwner */\n  0x0100\n  exp\n  dup2\n  sload\n  dup2\n  0xffffffffffffffffffffffffffffffffffffffff\n  mul\n  not\n  and\n  swap1\n  dup4\n  0xffffffffffffffffffffffffffffffffffffffff\n  and\n  mul\n  or\n  swap1\n  sstore\n  pop\n    /* \"@openzeppelin/contracts/access/Ownable.sol\":2441:2449  newOwner */\n  dup2\n    /* \"@openzeppelin/contracts/access/Ownable.sol\":2410:2450  OwnershipTransferred(oldOwner, newOwner) */\n  0xffffffffffffffffffffffffffffffffffffffff\n  and\n    /* \"@openzeppelin/contracts/access/Ownable.sol\":2431:2439  oldOwner */\n  dup2\n    /* \"@openzeppelin/contracts/access/Ownable.sol\":2410:2450  OwnershipTransferred(oldOwner, newOwner) */\n  0xffffffffffffffffffffffffffffffffffffffff\n  and\n  0x8be0079c531659141344cd1fd0a4f28419497f9722a3daafe3b4186f6b6457e0\n  mload(0x40)\n  mload(0x40)\n  dup1\n  swap2\n  sub\n  swap1\n  log3\n    /* \"@openzeppelin/contracts/access/Ownable.sol\":2333:2457  {... */\n  pop\n    /* \"@openzeppelin/contracts/access/Ownable.sol\":2270:2457  function _transferOwnership(address newOwner) internal virtual {... */\n  pop\n  jump\t// out\n    /* \"#utility.yul\":7:178   */\ntag_16:\n    /* \"#utility.yul\":78:83   */\n  0x00\n    /* \"#utility.yul\":109:115   */\n  dup2\n    /* \"#utility.yul\":103:116   */\n  mload\n    /* \"#utility.yul\":94:116   */\n  swap1\n  pop\n    /* \"#utility.yul\":125:172   */\n  tag_18\n    /* \"#utility.yul\":166:171   */\n  dup2\n    /* \"#utility.yul\":125:172   */\n  tag_19\n  jump\t// in\ntag_18:\n    /* \"#utility.yul\":7:178   */\n  swap3\n  swap2\n  pop\n  pop\n  jump\t// out\n    /* \"#utility.yul\":184:563   */\ntag_3:\n    /* \"#utility.yul\":268:274   */\n  0x00\n    /* \"#utility.yul\":317:319   */\n  0x20\n    /* \"#utility.yul\":305:314   */\n  dup3\n    /* \"#utility.yul\":296:303   */\n  dup5\n    /* \"#utility.yul\":292:315   */\n  sub\n    /* \"#utility.yul\":288:320   */\n  slt\n    /* \"#utility.yul\":285:404   */\n  iszero\n  tag_21\n  jumpi\n    /* \"#utility.yul\":323:402   */\n  tag_22\n  tag_23\n  jump\t// in\ntag_22:\n    /* \"#utility.yul\":285:404   */\ntag_21:\n    /* \"#utility.yul\":443:444   */\n  0x00\n    /* \"#utility.yul\":468:546   */\n  tag_24\n    /* \"#utility.yul\":538:545   */\n  dup5\n    /* \"#utility.yul\":529:535   */\n  dup3\n    /* \"#utility.yul\":518:527   */\n  dup6\n    /* \"#utility.yul\":514:536   */\n  add\n    /* \"#utility.yul\":468:546   */\n  tag_16\n  jump\t// in\ntag_24:\n    /* \"#utility.yul\":458:546   */\n  swap2\n  pop\n    /* \"#utility.yul\":414:556   */\n  pop\n    /* \"#utility.yul\":184:563   */\n  swap3\n  swap2\n  pop\n  pop\n  jump\t// out\n    /* \"#utility.yul\":650:746   */\ntag_27:\n    /* \"#utility.yul\":687:694   */\n  0x00\n    /* \"#utility.yul\":716:740   */\n  tag_29\n    /* \"#utility.yul\":734:739   */\n  dup3\n    /* \"#utility.yul\":716:740   */\n  tag_30\n  jump\t// in\ntag_29:\n    /* \"#utility.yul\":705:740   */\n  swap1\n  pop\n    /* \"#utility.yul\":650:746   */\n  swap2\n  swap1\n  pop\n  jump\t// out\n    /* \"#utility.yul\":752:862   */\ntag_31:\n    /* \"#utility.yul\":803:810   */\n  0x00\n    /* \"#utility.yul\":832:856   */\n  tag_33\n    /* \"#utility.yul\":850:855   */\n  dup3\n    /* \"#utility.yul\":832:856   */\n  tag_27\n  jump\t// in\ntag_33:\n    /* \"#utility.yul\":821:856   */\n  swap1\n  pop\n    /* \"#utility.yul\":752:862   */\n  swap2\n  swap1\n  pop\n  jump\t// out\n    /* \"#utility.yul\":868:994   */\ntag_30:\n    /* \"#utility.yul\":905:912   */\n  0x00\n    /* \"#utility.yul\":945:987   */\n  0xffffffffffffffffffffffffffffffffffffffff\n    /* \"#utility.yul\":938:943   */\n  dup3\n    /* \"#utility.yul\":934:988   */\n  and\n    /* \"#utility.yul\":923:988   */\n  swap1\n  pop\n    /* \"#utility.yul\":868:994   */\n  swap2\n  swap1\n  pop\n  jump\t// out\n    /* \"#utility.yul\":1123:1240   */\ntag_23:\n    /* \"#utility.yul\":1232:1233   */\n  0x00\n    /* \"#utility.yul\":1229:1230   */\n  dup1\n    /* \"#utility.yul\":1222:1234   */\n  revert\n    /* \"#utility.yul\":1246:1396   */\ntag_19:\n    /* \"#utility.yul\":1333:1371   */\n  tag_39\n    /* \"#utility.yul\":1365:1370   */\n  dup2\n    /* \"#utility.yul\":1333:1371   */\n  tag_31\n  jump\t// in\ntag_39:\n    /* \"#utility.yul\":1326:1331   */\n  dup2\n    /* \"#utility.yul\":1323:1372   */\n  eq\n    /* \"#utility.yul\":1313:1390   */\n  tag_40\n  jumpi\n    /* \"#utility.yul\":1386:1387   */\n  0x00\n    /* \"#utility.yul\":1383:1384   */\n  dup1\n    /* \"#utility.yul\":1376:1388   */\n  revert\n    /* \"#utility.yul\":1313:1390   */\ntag_40:\n    /* \"#utility.yul\":1246:1396   */\n  pop\n  jump\t// out\n    /* \"contracts/MTMSAirdrop.sol\":441:4264  contract MTMSAirdrop is Ownable {\r... */\ntag_12:\n  dataSize(sub_0)\n  dup1\n  dataOffset(sub_0)\n  0x00\n  codecopy\n  0x00\n  return\nstop\n\nsub_0: assembly {\n        /* \"contracts/MTMSAirdrop.sol\":441:4264  contract MTMSAirdrop is Ownable {\r... */\n      mstore(0x40, 0x80)\n      callvalue\n      dup1\n      iszero\n      tag_1\n      jumpi\n      0x00\n      dup1\n      revert\n    tag_1:\n      pop\n      jumpi(tag_2, lt(calldatasize, 0x04))\n      shr(0xe0, calldataload(0x00))\n      dup1\n      0xba593714\n      gt\n      tag_15\n      jumpi\n      dup1\n      0xba593714\n      eq\n      tag_9\n      jumpi\n      dup1\n      0xd5efd20a\n      eq\n      tag_10\n      jumpi\n      dup1\n      0xeb0d07f5\n      eq\n      tag_11\n      jumpi\n      dup1\n      0xebf04917\n      eq\n      tag_12\n      jumpi\n      dup1\n      0xf2fde38b\n      eq\n      tag_13\n      jumpi\n      dup1\n      0xfc0c546a\n      eq\n      tag_14\n      jumpi\n      jump(tag_2)\n    tag_15:\n      dup1\n      0x120aa877\n      eq\n      tag_3\n      jumpi\n      dup1\n      0x58b4e4b4\n      eq\n      tag_4\n      jumpi\n      dup1\n      0x65ef53b1\n      eq\n      tag_5\n      jumpi\n      dup1\n      0x715018a6\n      eq\n      tag_6\n      jumpi\n      dup1\n      0x71c5ecb1\n      eq\n      tag_7\n      jumpi\n      dup1\n      0x8da5cb5b\n      eq\n      tag_8\n      jumpi\n    tag_2:\n      0x00\n      dup1\n      revert\n        /* \"contracts/MTMSAirdrop.sol\":879:938  mapping(uint256 => mapping(address => bool)) public claimed */\n    tag_3:\n      tag_16\n      0x04\n      dup1\n      calldatasize\n      sub\n      dup2\n      add\n      swap1\n      tag_17\n      swap2\n      swap1\n      tag_18\n      jump\t// in\n    tag_17:\n      tag_19\n      jump\t// in\n    tag_16:\n      mload(0x40)\n      tag_20\n      swap2\n      swap1\n      tag_21\n      jump\t// in\n    tag_20:\n      mload(0x40)\n      dup1\n      swap2\n      sub\n      swap1\n      return\n        /* \"contracts/MTMSAirdrop.sol\":1679:1990  function claimWeek(\r... */\n    tag_4:\n      tag_22\n      0x04\n      dup1\n      calldatasize\n      sub\n      dup2\n      add\n      swap1\n      tag_23\n      swap2\n      swap1\n      tag_24\n      jump\t// in\n    tag_23:\n      tag_25\n      jump\t// in\n    tag_22:\n      stop\n        /* \"contracts/MTMSAirdrop.sol\":1052:1481  function seedNewAllocations(bytes32 _merkleRoot, uint256 _totalAllocation)\r... */\n    tag_5:\n      tag_26\n      0x04\n      dup1\n      calldatasize\n      sub\n      dup2\n      add\n      swap1\n      tag_27\n      swap2\n      swap1\n      tag_28\n      jump\t// in\n    tag_27:\n      tag_29\n      jump\t// in\n    tag_26:\n      mload(0x40)\n      tag_30\n      swap2\n      swap1\n      tag_31\n      jump\t// in\n    tag_30:\n      mload(0x40)\n      dup1\n      swap2\n      sub\n      swap1\n      return\n        /* \"@openzeppelin/contracts/access/Ownable.sol\":1668:1769  function renounceOwnership() public virtual onlyOwner {... */\n    tag_6:\n      tag_32\n      tag_33\n      jump\t// in\n    tag_32:\n      stop\n        /* \"contracts/MTMSAirdrop.sol\":826:872  mapping(uint256 => bytes32) public merkleRoots */\n    tag_7:\n      tag_34\n      0x04\n      dup1\n      calldatasize\n      sub\n      dup2\n      add\n      swap1\n      tag_35\n      swap2\n      swap1\n      tag_36\n      jump\t// in\n    tag_35:\n      tag_37\n      jump\t// in\n    tag_34:\n      mload(0x40)\n      tag_38\n      swap2\n      swap1\n      tag_39\n      jump\t// in\n    tag_38:\n      mload(0x40)\n      dup1\n      swap2\n      sub\n      swap1\n      return\n        /* \"@openzeppelin/contracts/access/Ownable.sol\":1036:1121  function owner() public view virtual returns (address) {... */\n    tag_8:\n      tag_40\n      tag_41\n      jump\t// in\n    tag_40:\n      mload(0x40)\n      tag_42\n      swap2\n      swap1\n      tag_43\n      jump\t// in\n    tag_42:\n      mload(0x40)\n      dup1\n      swap2\n      sub\n      swap1\n      return\n        /* \"contracts/MTMSAirdrop.sol\":2000:2644  function claimWeeks(\r... */\n    tag_9:\n      tag_44\n      0x04\n      dup1\n      calldatasize\n      sub\n      dup2\n      add\n      swap1\n      tag_45\n      swap2\n      swap1\n      tag_46\n      jump\t// in\n    tag_45:\n      tag_47\n      jump\t// in\n    tag_44:\n      stop\n        /* \"contracts/MTMSAirdrop.sol\":1489:1671  function expireTranche(uint256 _trancheId)\r... */\n    tag_10:\n      tag_48\n      0x04\n      dup1\n      calldatasize\n      sub\n      dup2\n      add\n      swap1\n      tag_49\n      swap2\n      swap1\n      tag_36\n      jump\t// in\n    tag_49:\n      tag_50\n      jump\t// in\n    tag_48:\n      stop\n        /* \"contracts/MTMSAirdrop.sol\":2654:2970  function verifyClaim(\r... */\n    tag_11:\n      tag_51\n      0x04\n      dup1\n      calldatasize\n      sub\n      dup2\n      add\n      swap1\n      tag_52\n      swap2\n      swap1\n      tag_24\n      jump\t// in\n    tag_52:\n      tag_53\n      jump\t// in\n    tag_51:\n      mload(0x40)\n      tag_54\n      swap2\n      swap1\n      tag_21\n      jump\t// in\n    tag_54:\n      mload(0x40)\n      dup1\n      swap2\n      sub\n      swap1\n      return\n        /* \"contracts/MTMSAirdrop.sol\":945:968  uint256 public tranches */\n    tag_12:\n      tag_55\n      tag_56\n      jump\t// in\n    tag_55:\n      mload(0x40)\n      tag_57\n      swap2\n      swap1\n      tag_31\n      jump\t// in\n    tag_57:\n      mload(0x40)\n      dup1\n      swap2\n      sub\n      swap1\n      return\n        /* \"@openzeppelin/contracts/access/Ownable.sol\":1918:2116  function transferOwnership(address newOwner) public virtual onlyOwner {... */\n    tag_13:\n      tag_58\n      0x04\n      dup1\n      calldatasize\n      sub\n      dup2\n      add\n      swap1\n      tag_59\n      swap2\n      swap1\n      tag_60\n      jump\t// in\n    tag_59:\n      tag_61\n      jump\t// in\n    tag_58:\n      stop\n        /* \"contracts/MTMSAirdrop.sol\":798:817  IERC20 public token */\n    tag_14:\n      tag_62\n      tag_63\n      jump\t// in\n    tag_62:\n      mload(0x40)\n      tag_64\n      swap2\n      swap1\n      tag_65\n      jump\t// in\n    tag_64:\n      mload(0x40)\n      dup1\n      swap2\n      sub\n      swap1\n      return\n        /* \"contracts/MTMSAirdrop.sol\":879:938  mapping(uint256 => mapping(address => bool)) public claimed */\n    tag_19:\n      mstore(0x20, 0x03)\n      dup2\n      0x00\n      mstore\n      mstore(0x20, keccak256(0x00, 0x40))\n      dup1\n      0x00\n      mstore\n      keccak256(0x00, 0x40)\n      0x00\n      swap2\n      pop\n      swap2\n      pop\n      swap1\n      sload\n      swap1\n      0x0100\n      exp\n      swap1\n      div\n      0xff\n      and\n      dup2\n      jump\t// out\n        /* \"contracts/MTMSAirdrop.sol\":1679:1990  function claimWeek(\r... */\n    tag_25:\n        /* \"contracts/MTMSAirdrop.sol\":1868:1932  _claimWeek(_liquidityProvider, _tranche, _balance, _merkleProof) */\n      tag_67\n        /* \"contracts/MTMSAirdrop.sol\":1879:1897  _liquidityProvider */\n      dup5\n        /* \"contracts/MTMSAirdrop.sol\":1899:1907  _tranche */\n      dup5\n        /* \"contracts/MTMSAirdrop.sol\":1909:1917  _balance */\n      dup5\n        /* \"contracts/MTMSAirdrop.sol\":1919:1931  _merkleProof */\n      dup5\n        /* \"contracts/MTMSAirdrop.sol\":1868:1878  _claimWeek */\n      tag_68\n        /* \"contracts/MTMSAirdrop.sol\":1868:1932  _claimWeek(_liquidityProvider, _tranche, _balance, _merkleProof) */\n      jump\t// in\n    tag_67:\n        /* \"contracts/MTMSAirdrop.sol\":1943:1982  _disburse(_liquidityProvider, _balance) */\n      tag_69\n        /* \"contracts/MTMSAirdrop.sol\":1953:1971  _liquidityProvider */\n      dup5\n        /* \"contracts/MTMSAirdrop.sol\":1973:1981  _balance */\n      dup4\n        /* \"contracts/MTMSAirdrop.sol\":1943:1952  _disburse */\n      tag_70\n        /* \"contracts/MTMSAirdrop.sol\":1943:1982  _disburse(_liquidityProvider, _balance) */\n      jump\t// in\n    tag_69:\n        /* \"contracts/MTMSAirdrop.sol\":1679:1990  function claimWeek(\r... */\n      pop\n      pop\n      pop\n      pop\n      jump\t// out\n        /* \"contracts/MTMSAirdrop.sol\":1052:1481  function seedNewAllocations(bytes32 _merkleRoot, uint256 _totalAllocation)\r... */\n    tag_29:\n        /* \"contracts/MTMSAirdrop.sol\":1180:1197  uint256 trancheId */\n      0x00\n        /* \"@openzeppelin/contracts/access/Ownable.sol\":1259:1271  _msgSender() */\n      tag_72\n        /* \"@openzeppelin/contracts/access/Ownable.sol\":1259:1269  _msgSender */\n      tag_73\n        /* \"@openzeppelin/contracts/access/Ownable.sol\":1259:1271  _msgSender() */\n      jump\t// in\n    tag_72:\n        /* \"@openzeppelin/contracts/access/Ownable.sol\":1248:1271  owner() == _msgSender() */\n      0xffffffffffffffffffffffffffffffffffffffff\n      and\n        /* \"@openzeppelin/contracts/access/Ownable.sol\":1248:1255  owner() */\n      tag_74\n        /* \"@openzeppelin/contracts/access/Ownable.sol\":1248:1253  owner */\n      tag_41\n        /* \"@openzeppelin/contracts/access/Ownable.sol\":1248:1255  owner() */\n      jump\t// in\n    tag_74:\n        /* \"@openzeppelin/contracts/access/Ownable.sol\":1248:1271  owner() == _msgSender() */\n      0xffffffffffffffffffffffffffffffffffffffff\n      and\n      eq\n        /* \"@openzeppelin/contracts/access/Ownable.sol\":1240:1308  require(owner() == _msgSender(), \"Ownable: caller is not the owner\") */\n      tag_75\n      jumpi\n      mload(0x40)\n      0x08c379a000000000000000000000000000000000000000000000000000000000\n      dup2\n      mstore\n      0x04\n      add\n      tag_76\n      swap1\n      tag_77\n      jump\t// in\n    tag_76:\n      mload(0x40)\n      dup1\n      swap2\n      sub\n      swap1\n      revert\n    tag_75:\n        /* \"contracts/MTMSAirdrop.sol\":1215:1282  token.safeTransferFrom(msg.sender, address(this), _totalAllocation) */\n      tag_79\n        /* \"contracts/MTMSAirdrop.sol\":1238:1248  msg.sender */\n      caller\n        /* \"contracts/MTMSAirdrop.sol\":1258:1262  this */\n      address\n        /* \"contracts/MTMSAirdrop.sol\":1265:1281  _totalAllocation */\n      dup5\n        /* \"contracts/MTMSAirdrop.sol\":1215:1220  token */\n      0x01\n      0x00\n      swap1\n      sload\n      swap1\n      0x0100\n      exp\n      swap1\n      div\n      0xffffffffffffffffffffffffffffffffffffffff\n      and\n        /* \"contracts/MTMSAirdrop.sol\":1215:1237  token.safeTransferFrom */\n      0xffffffffffffffffffffffffffffffffffffffff\n      and\n      tag_80\n      swap1\n        /* \"contracts/MTMSAirdrop.sol\":1215:1282  token.safeTransferFrom(msg.sender, address(this), _totalAllocation) */\n      swap4\n      swap3\n      swap2\n      swap1\n      0xffffffff\n      and\n      jump\t// in\n    tag_79:\n        /* \"contracts/MTMSAirdrop.sol\":1307:1315  tranches */\n      sload(0x04)\n        /* \"contracts/MTMSAirdrop.sol\":1295:1315  trancheId = tranches */\n      swap1\n      pop\n        /* \"contracts/MTMSAirdrop.sol\":1351:1362  _merkleRoot */\n      dup3\n        /* \"contracts/MTMSAirdrop.sol\":1326:1337  merkleRoots */\n      0x02\n        /* \"contracts/MTMSAirdrop.sol\":1326:1348  merkleRoots[trancheId] */\n      0x00\n        /* \"contracts/MTMSAirdrop.sol\":1338:1347  trancheId */\n      dup4\n        /* \"contracts/MTMSAirdrop.sol\":1326:1348  merkleRoots[trancheId] */\n      dup2\n      mstore\n      0x20\n      add\n      swap1\n      dup2\n      mstore\n      0x20\n      add\n      0x00\n      keccak256\n        /* \"contracts/MTMSAirdrop.sol\":1326:1362  merkleRoots[trancheId] = _merkleRoot */\n      dup2\n      swap1\n      sstore\n      pop\n        /* \"contracts/MTMSAirdrop.sol\":1386:1401  tranches.add(1) */\n      tag_81\n        /* \"contracts/MTMSAirdrop.sol\":1399:1400  1 */\n      0x01\n        /* \"contracts/MTMSAirdrop.sol\":1386:1394  tranches */\n      sload(0x04)\n        /* \"contracts/MTMSAirdrop.sol\":1386:1398  tranches.add */\n      tag_82\n      swap1\n        /* \"contracts/MTMSAirdrop.sol\":1386:1401  tranches.add(1) */\n      swap2\n      swap1\n      0xffffffff\n      and\n      jump\t// in\n    tag_81:\n        /* \"contracts/MTMSAirdrop.sol\":1375:1383  tranches */\n      0x04\n        /* \"contracts/MTMSAirdrop.sol\":1375:1401  tranches = tranches.add(1) */\n      dup2\n      swap1\n      sstore\n      pop\n        /* \"contracts/MTMSAirdrop.sol\":1419:1473  TrancheAdded(trancheId, _merkleRoot, _totalAllocation) */\n      0x5c8770684b8f82e9ade880fb05ccfb53c969170cd40e9746a3703f241c9023ec\n        /* \"contracts/MTMSAirdrop.sol\":1432:1441  trancheId */\n      dup2\n        /* \"contracts/MTMSAirdrop.sol\":1443:1454  _merkleRoot */\n      dup5\n        /* \"contracts/MTMSAirdrop.sol\":1456:1472  _totalAllocation */\n      dup5\n        /* \"contracts/MTMSAirdrop.sol\":1419:1473  TrancheAdded(trancheId, _merkleRoot, _totalAllocation) */\n      mload(0x40)\n      tag_83\n      swap4\n      swap3\n      swap2\n      swap1\n      tag_84\n      jump\t// in\n    tag_83:\n      mload(0x40)\n      dup1\n      swap2\n      sub\n      swap1\n      log1\n        /* \"contracts/MTMSAirdrop.sol\":1052:1481  function seedNewAllocations(bytes32 _merkleRoot, uint256 _totalAllocation)\r... */\n      swap3\n      swap2\n      pop\n      pop\n      jump\t// out\n        /* \"@openzeppelin/contracts/access/Ownable.sol\":1668:1769  function renounceOwnership() public virtual onlyOwner {... */\n    tag_33:\n        /* \"@openzeppelin/contracts/access/Ownable.sol\":1259:1271  _msgSender() */\n      tag_86\n        /* \"@openzeppelin/contracts/access/Ownable.sol\":1259:1269  _msgSender */\n      tag_73\n        /* \"@openzeppelin/contracts/access/Ownable.sol\":1259:1271  _msgSender() */\n      jump\t// in\n    tag_86:\n        /* \"@openzeppelin/contracts/access/Ownable.sol\":1248:1271  owner() == _msgSender() */\n      0xffffffffffffffffffffffffffffffffffffffff\n      and\n        /* \"@openzeppelin/contracts/access/Ownable.sol\":1248:1255  owner() */\n      tag_87\n        /* \"@openzeppelin/contracts/access/Ownable.sol\":1248:1253  owner */\n      tag_41\n        /* \"@openzeppelin/contracts/access/Ownable.sol\":1248:1255  owner() */\n      jump\t// in\n    tag_87:\n        /* \"@openzeppelin/contracts/access/Ownable.sol\":1248:1271  owner() == _msgSender() */\n      0xffffffffffffffffffffffffffffffffffffffff\n      and\n      eq\n        /* \"@openzeppelin/contracts/access/Ownable.sol\":1240:1308  require(owner() == _msgSender(), \"Ownable: caller is not the owner\") */\n      tag_88\n      jumpi\n      mload(0x40)\n      0x08c379a000000000000000000000000000000000000000000000000000000000\n      dup2\n      mstore\n      0x04\n      add\n      tag_89\n      swap1\n      tag_77\n      jump\t// in\n    tag_89:\n      mload(0x40)\n      dup1\n      swap2\n      sub\n      swap1\n      revert\n    tag_88:\n        /* \"@openzeppelin/contracts/access/Ownable.sol\":1732:1762  _transferOwnership(address(0)) */\n      tag_91\n        /* \"@openzeppelin/contracts/access/Ownable.sol\":1759:1760  0 */\n      0x00\n        /* \"@openzeppelin/contracts/access/Ownable.sol\":1732:1750  _transferOwnership */\n      tag_92\n        /* \"@openzeppelin/contracts/access/Ownable.sol\":1732:1762  _transferOwnership(address(0)) */\n      jump\t// in\n    tag_91:\n        /* \"@openzeppelin/contracts/access/Ownable.sol\":1668:1769  function renounceOwnership() public virtual onlyOwner {... */\n      jump\t// out\n        /* \"contracts/MTMSAirdrop.sol\":826:872  mapping(uint256 => bytes32) public merkleRoots */\n    tag_37:\n      mstore(0x20, 0x02)\n      dup1\n      0x00\n      mstore\n      keccak256(0x00, 0x40)\n      0x00\n      swap2\n      pop\n      swap1\n      pop\n      sload\n      dup2\n      jump\t// out\n        /* \"@openzeppelin/contracts/access/Ownable.sol\":1036:1121  function owner() public view virtual returns (address) {... */\n    tag_41:\n        /* \"@openzeppelin/contracts/access/Ownable.sol\":1082:1089  address */\n      0x00\n        /* \"@openzeppelin/contracts/access/Ownable.sol\":1108:1114  _owner */\n      dup1\n      0x00\n      swap1\n      sload\n      swap1\n      0x0100\n      exp\n      swap1\n      div\n      0xffffffffffffffffffffffffffffffffffffffff\n      and\n        /* \"@openzeppelin/contracts/access/Ownable.sol\":1101:1114  return _owner */\n      swap1\n      pop\n        /* \"@openzeppelin/contracts/access/Ownable.sol\":1036:1121  function owner() public view virtual returns (address) {... */\n      swap1\n      jump\t// out\n        /* \"contracts/MTMSAirdrop.sol\":2000:2644  function claimWeeks(\r... */\n    tag_47:\n        /* \"contracts/MTMSAirdrop.sol\":2213:2224  uint256 len */\n      0x00\n        /* \"contracts/MTMSAirdrop.sol\":2227:2236  _tranches */\n      dup4\n        /* \"contracts/MTMSAirdrop.sol\":2227:2243  _tranches.length */\n      mload\n        /* \"contracts/MTMSAirdrop.sol\":2213:2243  uint256 len = _tranches.length */\n      swap1\n      pop\n        /* \"contracts/MTMSAirdrop.sol\":2269:2278  _balances */\n      dup3\n        /* \"contracts/MTMSAirdrop.sol\":2269:2285  _balances.length */\n      mload\n        /* \"contracts/MTMSAirdrop.sol\":2262:2265  len */\n      dup2\n        /* \"contracts/MTMSAirdrop.sol\":2262:2285  len == _balances.length */\n      eq\n        /* \"contracts/MTMSAirdrop.sol\":2262:2316  len == _balances.length && len == _merkleProofs.length */\n      dup1\n      iszero\n      tag_95\n      jumpi\n      pop\n        /* \"contracts/MTMSAirdrop.sol\":2296:2309  _merkleProofs */\n      dup2\n        /* \"contracts/MTMSAirdrop.sol\":2296:2316  _merkleProofs.length */\n      mload\n        /* \"contracts/MTMSAirdrop.sol\":2289:2292  len */\n      dup2\n        /* \"contracts/MTMSAirdrop.sol\":2289:2316  len == _merkleProofs.length */\n      eq\n        /* \"contracts/MTMSAirdrop.sol\":2262:2316  len == _balances.length && len == _merkleProofs.length */\n    tag_95:\n        /* \"contracts/MTMSAirdrop.sol\":2254:2339  require(len == _balances.length && len == _merkleProofs.length, \"Mismatching inputs\") */\n      tag_96\n      jumpi\n      mload(0x40)\n      0x08c379a000000000000000000000000000000000000000000000000000000000\n      dup2\n      mstore\n      0x04\n      add\n      tag_97\n      swap1\n      tag_98\n      jump\t// in\n    tag_97:\n      mload(0x40)\n      dup1\n      swap2\n      sub\n      swap1\n      revert\n    tag_96:\n        /* \"contracts/MTMSAirdrop.sol\":2352:2372  uint256 totalBalance */\n      0x00\n        /* \"contracts/MTMSAirdrop.sol\":2391:2400  uint256 i */\n      dup1\n        /* \"contracts/MTMSAirdrop.sol\":2387:2583  for(uint256 i = 0; i < len; i++) {\r... */\n    tag_99:\n        /* \"contracts/MTMSAirdrop.sol\":2410:2413  len */\n      dup3\n        /* \"contracts/MTMSAirdrop.sol\":2406:2407  i */\n      dup2\n        /* \"contracts/MTMSAirdrop.sol\":2406:2413  i < len */\n      lt\n        /* \"contracts/MTMSAirdrop.sol\":2387:2583  for(uint256 i = 0; i < len; i++) {\r... */\n      iszero\n      tag_100\n      jumpi\n        /* \"contracts/MTMSAirdrop.sol\":2435:2511  _claimWeek(_liquidityProvider, _tranches[i], _balances[i], _merkleProofs[i]) */\n      tag_102\n        /* \"contracts/MTMSAirdrop.sol\":2446:2464  _liquidityProvider */\n      dup8\n        /* \"contracts/MTMSAirdrop.sol\":2466:2475  _tranches */\n      dup8\n        /* \"contracts/MTMSAirdrop.sol\":2476:2477  i */\n      dup4\n        /* \"contracts/MTMSAirdrop.sol\":2466:2478  _tranches[i] */\n      dup2\n      mload\n      dup2\n      lt\n      tag_103\n      jumpi\n      tag_104\n      tag_105\n      jump\t// in\n    tag_104:\n    tag_103:\n      0x20\n      mul\n      0x20\n      add\n      add\n      mload\n        /* \"contracts/MTMSAirdrop.sol\":2480:2489  _balances */\n      dup8\n        /* \"contracts/MTMSAirdrop.sol\":2490:2491  i */\n      dup5\n        /* \"contracts/MTMSAirdrop.sol\":2480:2492  _balances[i] */\n      dup2\n      mload\n      dup2\n      lt\n      tag_106\n      jumpi\n      tag_107\n      tag_105\n      jump\t// in\n    tag_107:\n    tag_106:\n      0x20\n      mul\n      0x20\n      add\n      add\n      mload\n        /* \"contracts/MTMSAirdrop.sol\":2494:2507  _merkleProofs */\n      dup8\n        /* \"contracts/MTMSAirdrop.sol\":2508:2509  i */\n      dup6\n        /* \"contracts/MTMSAirdrop.sol\":2494:2510  _merkleProofs[i] */\n      dup2\n      mload\n      dup2\n      lt\n      tag_108\n      jumpi\n      tag_109\n      tag_105\n      jump\t// in\n    tag_109:\n    tag_108:\n      0x20\n      mul\n      0x20\n      add\n      add\n      mload\n        /* \"contracts/MTMSAirdrop.sol\":2435:2445  _claimWeek */\n      tag_68\n        /* \"contracts/MTMSAirdrop.sol\":2435:2511  _claimWeek(_liquidityProvider, _tranches[i], _balances[i], _merkleProofs[i]) */\n      jump\t// in\n    tag_102:\n        /* \"contracts/MTMSAirdrop.sol\":2541:2571  totalBalance.add(_balances[i]) */\n      tag_110\n        /* \"contracts/MTMSAirdrop.sol\":2558:2567  _balances */\n      dup6\n        /* \"contracts/MTMSAirdrop.sol\":2568:2569  i */\n      dup3\n        /* \"contracts/MTMSAirdrop.sol\":2558:2570  _balances[i] */\n      dup2\n      mload\n      dup2\n      lt\n      tag_111\n      jumpi\n      tag_112\n      tag_105\n      jump\t// in\n    tag_112:\n    tag_111:\n      0x20\n      mul\n      0x20\n      add\n      add\n      mload\n        /* \"contracts/MTMSAirdrop.sol\":2541:2553  totalBalance */\n      dup4\n        /* \"contracts/MTMSAirdrop.sol\":2541:2557  totalBalance.add */\n      tag_82\n      swap1\n        /* \"contracts/MTMSAirdrop.sol\":2541:2571  totalBalance.add(_balances[i]) */\n      swap2\n      swap1\n      0xffffffff\n      and\n      jump\t// in\n    tag_110:\n        /* \"contracts/MTMSAirdrop.sol\":2526:2571  totalBalance = totalBalance.add(_balances[i]) */\n      swap2\n      pop\n        /* \"contracts/MTMSAirdrop.sol\":2415:2418  i++ */\n      dup1\n      dup1\n      tag_113\n      swap1\n      tag_114\n      jump\t// in\n    tag_113:\n      swap2\n      pop\n      pop\n        /* \"contracts/MTMSAirdrop.sol\":2387:2583  for(uint256 i = 0; i < len; i++) {\r... */\n      jump(tag_99)\n    tag_100:\n      pop\n        /* \"contracts/MTMSAirdrop.sol\":2593:2636  _disburse(_liquidityProvider, totalBalance) */\n      tag_115\n        /* \"contracts/MTMSAirdrop.sol\":2603:2621  _liquidityProvider */\n      dup7\n        /* \"contracts/MTMSAirdrop.sol\":2623:2635  totalBalance */\n      dup3\n        /* \"contracts/MTMSAirdrop.sol\":2593:2602  _disburse */\n      tag_70\n        /* \"contracts/MTMSAirdrop.sol\":2593:2636  _disburse(_liquidityProvider, totalBalance) */\n      jump\t// in\n    tag_115:\n        /* \"contracts/MTMSAirdrop.sol\":2202:2644  {\r... */\n      pop\n      pop\n        /* \"contracts/MTMSAirdrop.sol\":2000:2644  function claimWeeks(\r... */\n      pop\n      pop\n      pop\n      pop\n      jump\t// out\n        /* \"contracts/MTMSAirdrop.sol\":1489:1671  function expireTranche(uint256 _trancheId)\r... */\n    tag_50:\n        /* \"@openzeppelin/contracts/access/Ownable.sol\":1259:1271  _msgSender() */\n      tag_117\n        /* \"@openzeppelin/contracts/access/Ownable.sol\":1259:1269  _msgSender */\n      tag_73\n        /* \"@openzeppelin/contracts/access/Ownable.sol\":1259:1271  _msgSender() */\n      jump\t// in\n    tag_117:\n        /* \"@openzeppelin/contracts/access/Ownable.sol\":1248:1271  owner() == _msgSender() */\n      0xffffffffffffffffffffffffffffffffffffffff\n      and\n        /* \"@openzeppelin/contracts/access/Ownable.sol\":1248:1255  owner() */\n      tag_118\n        /* \"@openzeppelin/contracts/access/Ownable.sol\":1248:1253  owner */\n      tag_41\n        /* \"@openzeppelin/contracts/access/Ownable.sol\":1248:1255  owner() */\n      jump\t// in\n    tag_118:\n        /* \"@openzeppelin/contracts/access/Ownable.sol\":1248:1271  owner() == _msgSender() */\n      0xffffffffffffffffffffffffffffffffffffffff\n      and\n      eq\n        /* \"@openzeppelin/contracts/access/Ownable.sol\":1240:1308  require(owner() == _msgSender(), \"Ownable: caller is not the owner\") */\n      tag_119\n      jumpi\n      mload(0x40)\n      0x08c379a000000000000000000000000000000000000000000000000000000000\n      dup2\n      mstore\n      0x04\n      add\n      tag_120\n      swap1\n      tag_77\n      jump\t// in\n    tag_120:\n      mload(0x40)\n      dup1\n      swap2\n      sub\n      swap1\n      revert\n    tag_119:\n        /* \"contracts/MTMSAirdrop.sol\":1617:1618  0 */\n      0x00\n        /* \"contracts/MTMSAirdrop.sol\":1609:1619  bytes32(0) */\n      dup1\n      shl\n        /* \"contracts/MTMSAirdrop.sol\":1583:1594  merkleRoots */\n      0x02\n        /* \"contracts/MTMSAirdrop.sol\":1583:1606  merkleRoots[_trancheId] */\n      0x00\n        /* \"contracts/MTMSAirdrop.sol\":1595:1605  _trancheId */\n      dup4\n        /* \"contracts/MTMSAirdrop.sol\":1583:1606  merkleRoots[_trancheId] */\n      dup2\n      mstore\n      0x20\n      add\n      swap1\n      dup2\n      mstore\n      0x20\n      add\n      0x00\n      keccak256\n        /* \"contracts/MTMSAirdrop.sol\":1583:1619  merkleRoots[_trancheId] = bytes32(0) */\n      dup2\n      swap1\n      sstore\n      pop\n        /* \"contracts/MTMSAirdrop.sol\":1637:1663  TrancheExpired(_trancheId) */\n      0xcc071cbd9ae50a4c78d1153b76bd2d46ba8d4c7662842718ec3de1d67a144daf\n        /* \"contracts/MTMSAirdrop.sol\":1652:1662  _trancheId */\n      dup2\n        /* \"contracts/MTMSAirdrop.sol\":1637:1663  TrancheExpired(_trancheId) */\n      mload(0x40)\n      tag_122\n      swap2\n      swap1\n      tag_31\n      jump\t// in\n    tag_122:\n      mload(0x40)\n      dup1\n      swap2\n      sub\n      swap1\n      log1\n        /* \"contracts/MTMSAirdrop.sol\":1489:1671  function expireTranche(uint256 _trancheId)\r... */\n      pop\n      jump\t// out\n        /* \"contracts/MTMSAirdrop.sol\":2654:2970  function verifyClaim(\r... */\n    tag_53:\n        /* \"contracts/MTMSAirdrop.sol\":2861:2871  bool valid */\n      0x00\n        /* \"contracts/MTMSAirdrop.sol\":2896:2962  _verifyClaim(_liquidityProvider, _tranche, _balance, _merkleProof) */\n      tag_124\n        /* \"contracts/MTMSAirdrop.sol\":2909:2927  _liquidityProvider */\n      dup6\n        /* \"contracts/MTMSAirdrop.sol\":2929:2937  _tranche */\n      dup6\n        /* \"contracts/MTMSAirdrop.sol\":2939:2947  _balance */\n      dup6\n        /* \"contracts/MTMSAirdrop.sol\":2949:2961  _merkleProof */\n      dup6\n        /* \"contracts/MTMSAirdrop.sol\":2896:2908  _verifyClaim */\n      tag_125\n        /* \"contracts/MTMSAirdrop.sol\":2896:2962  _verifyClaim(_liquidityProvider, _tranche, _balance, _merkleProof) */\n      jump\t// in\n    tag_124:\n        /* \"contracts/MTMSAirdrop.sol\":2889:2962  return _verifyClaim(_liquidityProvider, _tranche, _balance, _merkleProof) */\n      swap1\n      pop\n        /* \"contracts/MTMSAirdrop.sol\":2654:2970  function verifyClaim(\r... */\n      swap5\n      swap4\n      pop\n      pop\n      pop\n      pop\n      jump\t// out\n        /* \"contracts/MTMSAirdrop.sol\":945:968  uint256 public tranches */\n    tag_56:\n      sload(0x04)\n      dup2\n      jump\t// out\n        /* \"@openzeppelin/contracts/access/Ownable.sol\":1918:2116  function transferOwnership(address newOwner) public virtual onlyOwner {... */\n    tag_61:\n        /* \"@openzeppelin/contracts/access/Ownable.sol\":1259:1271  _msgSender() */\n      tag_127\n        /* \"@openzeppelin/contracts/access/Ownable.sol\":1259:1269  _msgSender */\n      tag_73\n        /* \"@openzeppelin/contracts/access/Ownable.sol\":1259:1271  _msgSender() */\n      jump\t// in\n    tag_127:\n        /* \"@openzeppelin/contracts/access/Ownable.sol\":1248:1271  owner() == _msgSender() */\n      0xffffffffffffffffffffffffffffffffffffffff\n      and\n        /* \"@openzeppelin/contracts/access/Ownable.sol\":1248:1255  owner() */\n      tag_128\n        /* \"@openzeppelin/contracts/access/Ownable.sol\":1248:1253  owner */\n      tag_41\n        /* \"@openzeppelin/contracts/access/Ownable.sol\":1248:1255  owner() */\n      jump\t// in\n    tag_128:\n        /* \"@openzeppelin/contracts/access/Ownable.sol\":1248:1271  owner() == _msgSender() */\n      0xffffffffffffffffffffffffffffffffffffffff\n      and\n      eq\n        /* \"@openzeppelin/contracts/access/Ownable.sol\":1240:1308  require(owner() == _msgSender(), \"Ownable: caller is not the owner\") */\n      tag_129\n      jumpi\n      mload(0x40)\n      0x08c379a000000000000000000000000000000000000000000000000000000000\n      dup2\n      mstore\n      0x04\n      add\n      tag_130\n      swap1\n      tag_77\n      jump\t// in\n    tag_130:\n      mload(0x40)\n      dup1\n      swap2\n      sub\n      swap1\n      revert\n    tag_129:\n        /* \"@openzeppelin/contracts/access/Ownable.sol\":2026:2027  0 */\n      0x00\n        /* \"@openzeppelin/contracts/access/Ownable.sol\":2006:2028  newOwner != address(0) */\n      0xffffffffffffffffffffffffffffffffffffffff\n      and\n        /* \"@openzeppelin/contracts/access/Ownable.sol\":2006:2014  newOwner */\n      dup2\n        /* \"@openzeppelin/contracts/access/Ownable.sol\":2006:2028  newOwner != address(0) */\n      0xffffffffffffffffffffffffffffffffffffffff\n      and\n      eq\n      iszero\n        /* \"@openzeppelin/contracts/access/Ownable.sol\":1998:2071  require(newOwner != address(0), \"Ownable: new owner is the zero address\") */\n      tag_132\n      jumpi\n      mload(0x40)\n      0x08c379a000000000000000000000000000000000000000000000000000000000\n      dup2\n      mstore\n      0x04\n      add\n      tag_133\n      swap1\n      tag_134\n      jump\t// in\n    tag_133:\n      mload(0x40)\n      dup1\n      swap2\n      sub\n      swap1\n      revert\n    tag_132:\n        /* \"@openzeppelin/contracts/access/Ownable.sol\":2081:2109  _transferOwnership(newOwner) */\n      tag_135\n        /* \"@openzeppelin/contracts/access/Ownable.sol\":2100:2108  newOwner */\n      dup2\n        /* \"@openzeppelin/contracts/access/Ownable.sol\":2081:2099  _transferOwnership */\n      tag_92\n        /* \"@openzeppelin/contracts/access/Ownable.sol\":2081:2109  _transferOwnership(newOwner) */\n      jump\t// in\n    tag_135:\n        /* \"@openzeppelin/contracts/access/Ownable.sol\":1918:2116  function transferOwnership(address newOwner) public virtual onlyOwner {... */\n      pop\n      jump\t// out\n        /* \"contracts/MTMSAirdrop.sol\":798:817  IERC20 public token */\n    tag_63:\n      0x01\n      0x00\n      swap1\n      sload\n      swap1\n      0x0100\n      exp\n      swap1\n      div\n      0xffffffffffffffffffffffffffffffffffffffff\n      and\n      dup2\n      jump\t// out\n        /* \"contracts/MTMSAirdrop.sol\":2978:3557  function _claimWeek(\r... */\n    tag_68:\n        /* \"contracts/MTMSAirdrop.sol\":3188:3196  tranches */\n      sload(0x04)\n        /* \"contracts/MTMSAirdrop.sol\":3177:3185  _tranche */\n      dup4\n        /* \"contracts/MTMSAirdrop.sol\":3177:3196  _tranche < tranches */\n      lt\n        /* \"contracts/MTMSAirdrop.sol\":3169:3229  require(_tranche < tranches, \"Week cannot be in the future\") */\n      tag_137\n      jumpi\n      mload(0x40)\n      0x08c379a000000000000000000000000000000000000000000000000000000000\n      dup2\n      mstore\n      0x04\n      add\n      tag_138\n      swap1\n      tag_139\n      jump\t// in\n    tag_138:\n      mload(0x40)\n      dup1\n      swap2\n      sub\n      swap1\n      revert\n    tag_137:\n        /* \"contracts/MTMSAirdrop.sol\":3251:3258  claimed */\n      0x03\n        /* \"contracts/MTMSAirdrop.sol\":3251:3268  claimed[_tranche] */\n      0x00\n        /* \"contracts/MTMSAirdrop.sol\":3259:3267  _tranche */\n      dup5\n        /* \"contracts/MTMSAirdrop.sol\":3251:3268  claimed[_tranche] */\n      dup2\n      mstore\n      0x20\n      add\n      swap1\n      dup2\n      mstore\n      0x20\n      add\n      0x00\n      keccak256\n        /* \"contracts/MTMSAirdrop.sol\":3251:3288  claimed[_tranche][_liquidityProvider] */\n      0x00\n        /* \"contracts/MTMSAirdrop.sol\":3269:3287  _liquidityProvider */\n      dup6\n        /* \"contracts/MTMSAirdrop.sol\":3251:3288  claimed[_tranche][_liquidityProvider] */\n      0xffffffffffffffffffffffffffffffffffffffff\n      and\n      0xffffffffffffffffffffffffffffffffffffffff\n      and\n      dup2\n      mstore\n      0x20\n      add\n      swap1\n      dup2\n      mstore\n      0x20\n      add\n      0x00\n      keccak256\n      0x00\n      swap1\n      sload\n      swap1\n      0x0100\n      exp\n      swap1\n      div\n      0xff\n      and\n        /* \"contracts/MTMSAirdrop.sol\":3250:3288  !claimed[_tranche][_liquidityProvider] */\n      iszero\n        /* \"contracts/MTMSAirdrop.sol\":3242:3315  require(!claimed[_tranche][_liquidityProvider], \"LP has already claimed\") */\n      tag_140\n      jumpi\n      mload(0x40)\n      0x08c379a000000000000000000000000000000000000000000000000000000000\n      dup2\n      mstore\n      0x04\n      add\n      tag_141\n      swap1\n      tag_142\n      jump\t// in\n    tag_141:\n      mload(0x40)\n      dup1\n      swap2\n      sub\n      swap1\n      revert\n    tag_140:\n        /* \"contracts/MTMSAirdrop.sol\":3334:3400  _verifyClaim(_liquidityProvider, _tranche, _balance, _merkleProof) */\n      tag_143\n        /* \"contracts/MTMSAirdrop.sol\":3347:3365  _liquidityProvider */\n      dup5\n        /* \"contracts/MTMSAirdrop.sol\":3367:3375  _tranche */\n      dup5\n        /* \"contracts/MTMSAirdrop.sol\":3377:3385  _balance */\n      dup5\n        /* \"contracts/MTMSAirdrop.sol\":3387:3399  _merkleProof */\n      dup5\n        /* \"contracts/MTMSAirdrop.sol\":3334:3346  _verifyClaim */\n      tag_125\n        /* \"contracts/MTMSAirdrop.sol\":3334:3400  _verifyClaim(_liquidityProvider, _tranche, _balance, _merkleProof) */\n      jump\t// in\n    tag_143:\n        /* \"contracts/MTMSAirdrop.sol\":3326:3427  require(_verifyClaim(_liquidityProvider, _tranche, _balance, _merkleProof), \"Incorrect merkle proof\") */\n      tag_144\n      jumpi\n      mload(0x40)\n      0x08c379a000000000000000000000000000000000000000000000000000000000\n      dup2\n      mstore\n      0x04\n      add\n      tag_145\n      swap1\n      tag_146\n      jump\t// in\n    tag_145:\n      mload(0x40)\n      dup1\n      swap2\n      sub\n      swap1\n      revert\n    tag_144:\n        /* \"contracts/MTMSAirdrop.sol\":3480:3484  true */\n      0x01\n        /* \"contracts/MTMSAirdrop.sol\":3440:3447  claimed */\n      0x03\n        /* \"contracts/MTMSAirdrop.sol\":3440:3457  claimed[_tranche] */\n      0x00\n        /* \"contracts/MTMSAirdrop.sol\":3448:3456  _tranche */\n      dup6\n        /* \"contracts/MTMSAirdrop.sol\":3440:3457  claimed[_tranche] */\n      dup2\n      mstore\n      0x20\n      add\n      swap1\n      dup2\n      mstore\n      0x20\n      add\n      0x00\n      keccak256\n        /* \"contracts/MTMSAirdrop.sol\":3440:3477  claimed[_tranche][_liquidityProvider] */\n      0x00\n        /* \"contracts/MTMSAirdrop.sol\":3458:3476  _liquidityProvider */\n      dup7\n        /* \"contracts/MTMSAirdrop.sol\":3440:3477  claimed[_tranche][_liquidityProvider] */\n      0xffffffffffffffffffffffffffffffffffffffff\n      and\n      0xffffffffffffffffffffffffffffffffffffffff\n      and\n      dup2\n      mstore\n      0x20\n      add\n      swap1\n      dup2\n      mstore\n      0x20\n      add\n      0x00\n      keccak256\n      0x00\n        /* \"contracts/MTMSAirdrop.sol\":3440:3484  claimed[_tranche][_liquidityProvider] = true */\n      0x0100\n      exp\n      dup2\n      sload\n      dup2\n      0xff\n      mul\n      not\n      and\n      swap1\n      dup4\n      iszero\n      iszero\n      mul\n      or\n      swap1\n      sstore\n      pop\n        /* \"contracts/MTMSAirdrop.sol\":3502:3549  Claimed(_liquidityProvider, _tranche, _balance) */\n      0x987d620f307ff6b94d58743cb7a7509f24071586a77759b77c2d4e29f75a2f9a\n        /* \"contracts/MTMSAirdrop.sol\":3510:3528  _liquidityProvider */\n      dup5\n        /* \"contracts/MTMSAirdrop.sol\":3530:3538  _tranche */\n      dup5\n        /* \"contracts/MTMSAirdrop.sol\":3540:3548  _balance */\n      dup5\n        /* \"contracts/MTMSAirdrop.sol\":3502:3549  Claimed(_liquidityProvider, _tranche, _balance) */\n      mload(0x40)\n      tag_147\n      swap4\n      swap3\n      swap2\n      swap1\n      tag_148\n      jump\t// in\n    tag_147:\n      mload(0x40)\n      dup1\n      swap2\n      sub\n      swap1\n      log1\n        /* \"contracts/MTMSAirdrop.sol\":2978:3557  function _claimWeek(\r... */\n      pop\n      pop\n      pop\n      pop\n      jump\t// out\n        /* \"contracts/MTMSAirdrop.sol\":3973:4261  function _disburse(address _liquidityProvider, uint256 _balance) private {\r... */\n    tag_70:\n        /* \"contracts/MTMSAirdrop.sol\":4072:4073  0 */\n      0x00\n        /* \"contracts/MTMSAirdrop.sol\":4061:4069  _balance */\n      dup2\n        /* \"contracts/MTMSAirdrop.sol\":4061:4073  _balance > 0 */\n      gt\n        /* \"contracts/MTMSAirdrop.sol\":4057:4254  if (_balance > 0) {\r... */\n      iszero\n      tag_150\n      jumpi\n        /* \"contracts/MTMSAirdrop.sol\":4090:4138  token.safeTransfer(_liquidityProvider, _balance) */\n      tag_151\n        /* \"contracts/MTMSAirdrop.sol\":4109:4127  _liquidityProvider */\n      dup3\n        /* \"contracts/MTMSAirdrop.sol\":4129:4137  _balance */\n      dup3\n        /* \"contracts/MTMSAirdrop.sol\":4090:4095  token */\n      0x01\n      0x00\n      swap1\n      sload\n      swap1\n      0x0100\n      exp\n      swap1\n      div\n      0xffffffffffffffffffffffffffffffffffffffff\n      and\n        /* \"contracts/MTMSAirdrop.sol\":4090:4108  token.safeTransfer */\n      0xffffffffffffffffffffffffffffffffffffffff\n      and\n      tag_152\n      swap1\n        /* \"contracts/MTMSAirdrop.sol\":4090:4138  token.safeTransfer(_liquidityProvider, _balance) */\n      swap3\n      swap2\n      swap1\n      0xffffffff\n      and\n      jump\t// in\n    tag_151:\n        /* \"contracts/MTMSAirdrop.sol\":4057:4254  if (_balance > 0) {\r... */\n      jump(tag_153)\n    tag_150:\n        /* \"contracts/MTMSAirdrop.sol\":4171:4242  revert(\"No balance would be transferred - not going to waste your gas\") */\n      mload(0x40)\n      0x08c379a000000000000000000000000000000000000000000000000000000000\n      dup2\n      mstore\n      0x04\n      add\n      tag_154\n      swap1\n      tag_155\n      jump\t// in\n    tag_154:\n      mload(0x40)\n      dup1\n      swap2\n      sub\n      swap1\n      revert\n        /* \"contracts/MTMSAirdrop.sol\":4057:4254  if (_balance > 0) {\r... */\n    tag_153:\n        /* \"contracts/MTMSAirdrop.sol\":3973:4261  function _disburse(address _liquidityProvider, uint256 _balance) private {\r... */\n      pop\n      pop\n      jump\t// out\n        /* \"@openzeppelin/contracts/utils/Context.sol\":640:736  function _msgSender() internal view virtual returns (address) {... */\n    tag_73:\n        /* \"@openzeppelin/contracts/utils/Context.sol\":693:700  address */\n      0x00\n        /* \"@openzeppelin/contracts/utils/Context.sol\":719:729  msg.sender */\n      caller\n        /* \"@openzeppelin/contracts/utils/Context.sol\":712:729  return msg.sender */\n      swap1\n      pop\n        /* \"@openzeppelin/contracts/utils/Context.sol\":640:736  function _msgSender() internal view virtual returns (address) {... */\n      swap1\n      jump\t// out\n        /* \"@openzeppelin/contracts/token/ERC20/utils/SafeERC20.sol\":912:1153  function safeTransferFrom(... */\n    tag_80:\n        /* \"@openzeppelin/contracts/token/ERC20/utils/SafeERC20.sol\":1050:1146  _callOptionalReturn(token, abi.encodeWithSelector(token.transferFrom.selector, from, to, value)) */\n      tag_158\n        /* \"@openzeppelin/contracts/token/ERC20/utils/SafeERC20.sol\":1070:1075  token */\n      dup5\n        /* \"@openzeppelin/contracts/token/ERC20/utils/SafeERC20.sol\":1100:1127  token.transferFrom.selector */\n      shl(0xe0, 0x23b872dd)\n        /* \"@openzeppelin/contracts/token/ERC20/utils/SafeERC20.sol\":1129:1133  from */\n      dup6\n        /* \"@openzeppelin/contracts/token/ERC20/utils/SafeERC20.sol\":1135:1137  to */\n      dup6\n        /* \"@openzeppelin/contracts/token/ERC20/utils/SafeERC20.sol\":1139:1144  value */\n      dup6\n        /* \"@openzeppelin/contracts/token/ERC20/utils/SafeERC20.sol\":1077:1145  abi.encodeWithSelector(token.transferFrom.selector, from, to, value) */\n      add(0x24, mload(0x40))\n      tag_159\n      swap4\n      swap3\n      swap2\n      swap1\n      tag_160\n      jump\t// in\n    tag_159:\n      mload(0x40)\n      0x20\n      dup2\n      dup4\n      sub\n      sub\n      dup2\n      mstore\n      swap1\n      0x40\n      mstore\n      swap1\n      not(0xffffffffffffffffffffffffffffffffffffffffffffffffffffffff)\n      and\n      0x20\n      dup3\n      add\n      dup1\n      mload\n      0xffffffffffffffffffffffffffffffffffffffffffffffffffffffff\n      dup4\n      dup2\n      dup4\n      and\n      or\n      dup4\n      mstore\n      pop\n      pop\n      pop\n      pop\n        /* \"@openzeppelin/contracts/token/ERC20/utils/SafeERC20.sol\":1050:1069  _callOptionalReturn */\n      tag_161\n        /* \"@openzeppelin/contracts/token/ERC20/utils/SafeERC20.sol\":1050:1146  _callOptionalReturn(token, abi.encodeWithSelector(token.transferFrom.selector, from, to, value)) */\n      jump\t// in\n    tag_158:\n        /* \"@openzeppelin/contracts/token/ERC20/utils/SafeERC20.sol\":912:1153  function safeTransferFrom(... */\n      pop\n      pop\n      pop\n      pop\n      jump\t// out\n        /* \"@openzeppelin/contracts/utils/math/SafeMath.sol\":2755:2851  function add(uint256 a, uint256 b) internal pure returns (uint256) {... */\n    tag_82:\n        /* \"@openzeppelin/contracts/utils/math/SafeMath.sol\":2813:2820  uint256 */\n      0x00\n        /* \"@openzeppelin/contracts/utils/math/SafeMath.sol\":2843:2844  b */\n      dup2\n        /* \"@openzeppelin/contracts/utils/math/SafeMath.sol\":2839:2840  a */\n      dup4\n        /* \"@openzeppelin/contracts/utils/math/SafeMath.sol\":2839:2844  a + b */\n      tag_163\n      swap2\n      swap1\n      tag_164\n      jump\t// in\n    tag_163:\n        /* \"@openzeppelin/contracts/utils/math/SafeMath.sol\":2832:2844  return a + b */\n      swap1\n      pop\n        /* \"@openzeppelin/contracts/utils/math/SafeMath.sol\":2755:2851  function add(uint256 a, uint256 b) internal pure returns (uint256) {... */\n      swap3\n      swap2\n      pop\n      pop\n      jump\t// out\n        /* \"@openzeppelin/contracts/access/Ownable.sol\":2270:2457  function _transferOwnership(address newOwner) internal virtual {... */\n    tag_92:\n        /* \"@openzeppelin/contracts/access/Ownable.sol\":2343:2359  address oldOwner */\n      0x00\n        /* \"@openzeppelin/contracts/access/Ownable.sol\":2362:2368  _owner */\n      dup1\n      0x00\n      swap1\n      sload\n      swap1\n      0x0100\n      exp\n      swap1\n      div\n      0xffffffffffffffffffffffffffffffffffffffff\n      and\n        /* \"@openzeppelin/contracts/access/Ownable.sol\":2343:2368  address oldOwner = _owner */\n      swap1\n      pop\n        /* \"@openzeppelin/contracts/access/Ownable.sol\":2387:2395  newOwner */\n      dup2\n        /* \"@openzeppelin/contracts/access/Ownable.sol\":2378:2384  _owner */\n      0x00\n      dup1\n        /* \"@openzeppelin/contracts/access/Ownable.sol\":2378:2395  _owner = newOwner */\n      0x0100\n      exp\n      dup2\n      sload\n      dup2\n      0xffffffffffffffffffffffffffffffffffffffff\n      mul\n      not\n      and\n      swap1\n      dup4\n      0xffffffffffffffffffffffffffffffffffffffff\n      and\n      mul\n      or\n      swap1\n      sstore\n      pop\n        /* \"@openzeppelin/contracts/access/Ownable.sol\":2441:2449  newOwner */\n      dup2\n        /* \"@openzeppelin/contracts/access/Ownable.sol\":2410:2450  OwnershipTransferred(oldOwner, newOwner) */\n      0xffffffffffffffffffffffffffffffffffffffff\n      and\n        /* \"@openzeppelin/contracts/access/Ownable.sol\":2431:2439  oldOwner */\n      dup2\n        /* \"@openzeppelin/contracts/access/Ownable.sol\":2410:2450  OwnershipTransferred(oldOwner, newOwner) */\n      0xffffffffffffffffffffffffffffffffffffffff\n      and\n      0x8be0079c531659141344cd1fd0a4f28419497f9722a3daafe3b4186f6b6457e0\n      mload(0x40)\n      mload(0x40)\n      dup1\n      swap2\n      sub\n      swap1\n      log3\n        /* \"@openzeppelin/contracts/access/Ownable.sol\":2333:2457  {... */\n      pop\n        /* \"@openzeppelin/contracts/access/Ownable.sol\":2270:2457  function _transferOwnership(address newOwner) internal virtual {... */\n      pop\n      jump\t// out\n        /* \"contracts/MTMSAirdrop.sol\":3567:3963  function _verifyClaim(\r... */\n    tag_125:\n        /* \"contracts/MTMSAirdrop.sol\":3776:3786  bool valid */\n      0x00\n        /* \"contracts/MTMSAirdrop.sol\":3804:3816  bytes32 leaf */\n      dup1\n        /* \"contracts/MTMSAirdrop.sol\":3846:3864  _liquidityProvider */\n      dup6\n        /* \"contracts/MTMSAirdrop.sol\":3866:3874  _balance */\n      dup5\n        /* \"contracts/MTMSAirdrop.sol\":3829:3875  abi.encodePacked(_liquidityProvider, _balance) */\n      add(0x20, mload(0x40))\n      tag_167\n      swap3\n      swap2\n      swap1\n      tag_168\n      jump\t// in\n    tag_167:\n      mload(0x40)\n      0x20\n      dup2\n      dup4\n      sub\n      sub\n      dup2\n      mstore\n      swap1\n      0x40\n      mstore\n        /* \"contracts/MTMSAirdrop.sol\":3819:3876  keccak256(abi.encodePacked(_liquidityProvider, _balance)) */\n      dup1\n      mload\n      swap1\n      0x20\n      add\n      keccak256\n        /* \"contracts/MTMSAirdrop.sol\":3804:3876  bytes32 leaf = keccak256(abi.encodePacked(_liquidityProvider, _balance)) */\n      swap1\n      pop\n        /* \"contracts/MTMSAirdrop.sol\":3894:3955  MerkleProof.verify(_merkleProof, merkleRoots[_tranche], leaf) */\n      tag_169\n        /* \"contracts/MTMSAirdrop.sol\":3913:3925  _merkleProof */\n      dup4\n        /* \"contracts/MTMSAirdrop.sol\":3927:3938  merkleRoots */\n      0x02\n        /* \"contracts/MTMSAirdrop.sol\":3927:3948  merkleRoots[_tranche] */\n      0x00\n        /* \"contracts/MTMSAirdrop.sol\":3939:3947  _tranche */\n      dup9\n        /* \"contracts/MTMSAirdrop.sol\":3927:3948  merkleRoots[_tranche] */\n      dup2\n      mstore\n      0x20\n      add\n      swap1\n      dup2\n      mstore\n      0x20\n      add\n      0x00\n      keccak256\n      sload\n        /* \"contracts/MTMSAirdrop.sol\":3950:3954  leaf */\n      dup4\n        /* \"contracts/MTMSAirdrop.sol\":3894:3912  MerkleProof.verify */\n      tag_170\n        /* \"contracts/MTMSAirdrop.sol\":3894:3955  MerkleProof.verify(_merkleProof, merkleRoots[_tranche], leaf) */\n      jump\t// in\n    tag_169:\n        /* \"contracts/MTMSAirdrop.sol\":3887:3955  return MerkleProof.verify(_merkleProof, merkleRoots[_tranche], leaf) */\n      swap2\n      pop\n      pop\n        /* \"contracts/MTMSAirdrop.sol\":3567:3963  function _verifyClaim(\r... */\n      swap5\n      swap4\n      pop\n      pop\n      pop\n      pop\n      jump\t// out\n        /* \"@openzeppelin/contracts/token/ERC20/utils/SafeERC20.sol\":701:906  function safeTransfer(... */\n    tag_152:\n        /* \"@openzeppelin/contracts/token/ERC20/utils/SafeERC20.sol\":813:899  _callOptionalReturn(token, abi.encodeWithSelector(token.transfer.selector, to, value)) */\n      tag_172\n        /* \"@openzeppelin/contracts/token/ERC20/utils/SafeERC20.sol\":833:838  token */\n      dup4\n        /* \"@openzeppelin/contracts/token/ERC20/utils/SafeERC20.sol\":863:886  token.transfer.selector */\n      shl(0xe0, 0xa9059cbb)\n        /* \"@openzeppelin/contracts/token/ERC20/utils/SafeERC20.sol\":888:890  to */\n      dup5\n        /* \"@openzeppelin/contracts/token/ERC20/utils/SafeERC20.sol\":892:897  value */\n      dup5\n        /* \"@openzeppelin/contracts/token/ERC20/utils/SafeERC20.sol\":840:898  abi.encodeWithSelector(token.transfer.selector, to, value) */\n      add(0x24, mload(0x40))\n      tag_173\n      swap3\n      swap2\n      swap1\n      tag_174\n      jump\t// in\n    tag_173:\n      mload(0x40)\n      0x20\n      dup2\n      dup4\n      sub\n      sub\n      dup2\n      mstore\n      swap1\n      0x40\n      mstore\n      swap1\n      not(0xffffffffffffffffffffffffffffffffffffffffffffffffffffffff)\n      and\n      0x20\n      dup3\n      add\n      dup1\n      mload\n      0xffffffffffffffffffffffffffffffffffffffffffffffffffffffff\n      dup4\n      dup2\n      dup4\n      and\n      or\n      dup4\n      mstore\n      pop\n      pop\n      pop\n      pop\n        /* \"@openzeppelin/contracts/token/ERC20/utils/SafeERC20.sol\":813:832  _callOptionalReturn */\n      tag_161\n        /* \"@openzeppelin/contracts/token/ERC20/utils/SafeERC20.sol\":813:899  _callOptionalReturn(token, abi.encodeWithSelector(token.transfer.selector, to, value)) */\n      jump\t// in\n    tag_172:\n        /* \"@openzeppelin/contracts/token/ERC20/utils/SafeERC20.sol\":701:906  function safeTransfer(... */\n      pop\n      pop\n      pop\n      jump\t// out\n        /* \"@openzeppelin/contracts/token/ERC20/utils/SafeERC20.sol\":3207:3913  function _callOptionalReturn(IERC20 token, bytes memory data) private {... */\n    tag_161:\n        /* \"@openzeppelin/contracts/token/ERC20/utils/SafeERC20.sol\":3626:3649  bytes memory returndata */\n      0x00\n        /* \"@openzeppelin/contracts/token/ERC20/utils/SafeERC20.sol\":3652:3721  address(token).functionCall(data, \"SafeERC20: low-level call failed\") */\n      tag_176\n        /* \"@openzeppelin/contracts/token/ERC20/utils/SafeERC20.sol\":3680:3684  data */\n      dup3\n        /* \"@openzeppelin/contracts/token/ERC20/utils/SafeERC20.sol\":3652:3721  address(token).functionCall(data, \"SafeERC20: low-level call failed\") */\n      mload(0x40)\n      dup1\n      0x40\n      add\n      0x40\n      mstore\n      dup1\n      0x20\n      dup2\n      mstore\n      0x20\n      add\n      0x5361666545524332303a206c6f772d6c6576656c2063616c6c206661696c6564\n      dup2\n      mstore\n      pop\n        /* \"@openzeppelin/contracts/token/ERC20/utils/SafeERC20.sol\":3660:3665  token */\n      dup6\n        /* \"@openzeppelin/contracts/token/ERC20/utils/SafeERC20.sol\":3652:3679  address(token).functionCall */\n      0xffffffffffffffffffffffffffffffffffffffff\n      and\n      tag_177\n      swap1\n        /* \"@openzeppelin/contracts/token/ERC20/utils/SafeERC20.sol\":3652:3721  address(token).functionCall(data, \"SafeERC20: low-level call failed\") */\n      swap3\n      swap2\n      swap1\n      0xffffffff\n      and\n      jump\t// in\n    tag_176:\n        /* \"@openzeppelin/contracts/token/ERC20/utils/SafeERC20.sol\":3626:3721  bytes memory returndata = address(token).functionCall(data, \"SafeERC20: low-level call failed\") */\n      swap1\n      pop\n        /* \"@openzeppelin/contracts/token/ERC20/utils/SafeERC20.sol\":3755:3756  0 */\n      0x00\n        /* \"@openzeppelin/contracts/token/ERC20/utils/SafeERC20.sol\":3735:3745  returndata */\n      dup2\n        /* \"@openzeppelin/contracts/token/ERC20/utils/SafeERC20.sol\":3735:3752  returndata.length */\n      mload\n        /* \"@openzeppelin/contracts/token/ERC20/utils/SafeERC20.sol\":3735:3756  returndata.length > 0 */\n      gt\n        /* \"@openzeppelin/contracts/token/ERC20/utils/SafeERC20.sol\":3731:3907  if (returndata.length > 0) {... */\n      iszero\n      tag_178\n      jumpi\n        /* \"@openzeppelin/contracts/token/ERC20/utils/SafeERC20.sol\":3830:3840  returndata */\n      dup1\n        /* \"@openzeppelin/contracts/token/ERC20/utils/SafeERC20.sol\":3819:3849  abi.decode(returndata, (bool)) */\n      dup1\n      0x20\n      add\n      swap1\n      mload\n      dup2\n      add\n      swap1\n      tag_179\n      swap2\n      swap1\n      tag_180\n      jump\t// in\n    tag_179:\n        /* \"@openzeppelin/contracts/token/ERC20/utils/SafeERC20.sol\":3811:3896  require(abi.decode(returndata, (bool)), \"SafeERC20: ERC20 operation did not succeed\") */\n      tag_181\n      jumpi\n      mload(0x40)\n      0x08c379a000000000000000000000000000000000000000000000000000000000\n      dup2\n      mstore\n      0x04\n      add\n      tag_182\n      swap1\n      tag_183\n      jump\t// in\n    tag_182:\n      mload(0x40)\n      dup1\n      swap2\n      sub\n      swap1\n      revert\n    tag_181:\n        /* \"@openzeppelin/contracts/token/ERC20/utils/SafeERC20.sol\":3731:3907  if (returndata.length > 0) {... */\n    tag_178:\n        /* \"@openzeppelin/contracts/token/ERC20/utils/SafeERC20.sol\":3277:3913  {... */\n      pop\n        /* \"@openzeppelin/contracts/token/ERC20/utils/SafeERC20.sol\":3207:3913  function _callOptionalReturn(IERC20 token, bytes memory data) private {... */\n      pop\n      pop\n      jump\t// out\n        /* \"@openzeppelin/contracts/utils/cryptography/MerkleProof.sol\":1154:1338  function verify(... */\n    tag_170:\n        /* \"@openzeppelin/contracts/utils/cryptography/MerkleProof.sol\":1275:1279  bool */\n      0x00\n        /* \"@openzeppelin/contracts/utils/cryptography/MerkleProof.sol\":1327:1331  root */\n      dup3\n        /* \"@openzeppelin/contracts/utils/cryptography/MerkleProof.sol\":1298:1323  processProof(proof, leaf) */\n      tag_185\n        /* \"@openzeppelin/contracts/utils/cryptography/MerkleProof.sol\":1311:1316  proof */\n      dup6\n        /* \"@openzeppelin/contracts/utils/cryptography/MerkleProof.sol\":1318:1322  leaf */\n      dup5\n        /* \"@openzeppelin/contracts/utils/cryptography/MerkleProof.sol\":1298:1310  processProof */\n      tag_186\n        /* \"@openzeppelin/contracts/utils/cryptography/MerkleProof.sol\":1298:1323  processProof(proof, leaf) */\n      jump\t// in\n    tag_185:\n        /* \"@openzeppelin/contracts/utils/cryptography/MerkleProof.sol\":1298:1331  processProof(proof, leaf) == root */\n      eq\n        /* \"@openzeppelin/contracts/utils/cryptography/MerkleProof.sol\":1291:1331  return processProof(proof, leaf) == root */\n      swap1\n      pop\n        /* \"@openzeppelin/contracts/utils/cryptography/MerkleProof.sol\":1154:1338  function verify(... */\n      swap4\n      swap3\n      pop\n      pop\n      pop\n      jump\t// out\n        /* \"@openzeppelin/contracts/utils/Address.sol\":3861:4084  function functionCall(... */\n    tag_177:\n        /* \"@openzeppelin/contracts/utils/Address.sol\":3994:4006  bytes memory */\n      0x60\n        /* \"@openzeppelin/contracts/utils/Address.sol\":4025:4077  functionCallWithValue(target, data, 0, errorMessage) */\n      tag_188\n        /* \"@openzeppelin/contracts/utils/Address.sol\":4047:4053  target */\n      dup5\n        /* \"@openzeppelin/contracts/utils/Address.sol\":4055:4059  data */\n      dup5\n        /* \"@openzeppelin/contracts/utils/Address.sol\":4061:4062  0 */\n      0x00\n        /* \"@openzeppelin/contracts/utils/Address.sol\":4064:4076  errorMessage */\n      dup6\n        /* \"@openzeppelin/contracts/utils/Address.sol\":4025:4046  functionCallWithValue */\n      tag_189\n        /* \"@openzeppelin/contracts/utils/Address.sol\":4025:4077  functionCallWithValue(target, data, 0, errorMessage) */\n      jump\t// in\n    tag_188:\n        /* \"@openzeppelin/contracts/utils/Address.sol\":4018:4077  return functionCallWithValue(target, data, 0, errorMessage) */\n      swap1\n      pop\n        /* \"@openzeppelin/contracts/utils/Address.sol\":3861:4084  function functionCall(... */\n      swap4\n      swap3\n      pop\n      pop\n      pop\n      jump\t// out\n        /* \"@openzeppelin/contracts/utils/cryptography/MerkleProof.sol\":1689:2351  function processProof(bytes32[] memory proof, bytes32 leaf) internal pure returns (bytes32) {... */\n    tag_186:\n        /* \"@openzeppelin/contracts/utils/cryptography/MerkleProof.sol\":1772:1779  bytes32 */\n      0x00\n        /* \"@openzeppelin/contracts/utils/cryptography/MerkleProof.sol\":1791:1811  bytes32 computedHash */\n      dup1\n        /* \"@openzeppelin/contracts/utils/cryptography/MerkleProof.sol\":1814:1818  leaf */\n      dup3\n        /* \"@openzeppelin/contracts/utils/cryptography/MerkleProof.sol\":1791:1818  bytes32 computedHash = leaf */\n      swap1\n      pop\n        /* \"@openzeppelin/contracts/utils/cryptography/MerkleProof.sol\":1833:1842  uint256 i */\n      0x00\n        /* \"@openzeppelin/contracts/utils/cryptography/MerkleProof.sol\":1828:2316  for (uint256 i = 0; i < proof.length; i++) {... */\n    tag_191:\n        /* \"@openzeppelin/contracts/utils/cryptography/MerkleProof.sol\":1852:1857  proof */\n      dup5\n        /* \"@openzeppelin/contracts/utils/cryptography/MerkleProof.sol\":1852:1864  proof.length */\n      mload\n        /* \"@openzeppelin/contracts/utils/cryptography/MerkleProof.sol\":1848:1849  i */\n      dup2\n        /* \"@openzeppelin/contracts/utils/cryptography/MerkleProof.sol\":1848:1864  i < proof.length */\n      lt\n        /* \"@openzeppelin/contracts/utils/cryptography/MerkleProof.sol\":1828:2316  for (uint256 i = 0; i < proof.length; i++) {... */\n      iszero\n      tag_192\n      jumpi\n        /* \"@openzeppelin/contracts/utils/cryptography/MerkleProof.sol\":1885:1905  bytes32 proofElement */\n      0x00\n        /* \"@openzeppelin/contracts/utils/cryptography/MerkleProof.sol\":1908:1913  proof */\n      dup6\n        /* \"@openzeppelin/contracts/utils/cryptography/MerkleProof.sol\":1914:1915  i */\n      dup3\n        /* \"@openzeppelin/contracts/utils/cryptography/MerkleProof.sol\":1908:1916  proof[i] */\n      dup2\n      mload\n      dup2\n      lt\n      tag_194\n      jumpi\n      tag_195\n      tag_105\n      jump\t// in\n    tag_195:\n    tag_194:\n      0x20\n      mul\n      0x20\n      add\n      add\n      mload\n        /* \"@openzeppelin/contracts/utils/cryptography/MerkleProof.sol\":1885:1916  bytes32 proofElement = proof[i] */\n      swap1\n      pop\n        /* \"@openzeppelin/contracts/utils/cryptography/MerkleProof.sol\":1950:1962  proofElement */\n      dup1\n        /* \"@openzeppelin/contracts/utils/cryptography/MerkleProof.sol\":1934:1946  computedHash */\n      dup4\n        /* \"@openzeppelin/contracts/utils/cryptography/MerkleProof.sol\":1934:1962  computedHash <= proofElement */\n      gt\n        /* \"@openzeppelin/contracts/utils/cryptography/MerkleProof.sol\":1930:2306  if (computedHash <= proofElement) {... */\n      tag_196\n      jumpi\n        /* \"@openzeppelin/contracts/utils/cryptography/MerkleProof.sol\":2075:2117  _efficientHash(computedHash, proofElement) */\n      tag_197\n        /* \"@openzeppelin/contracts/utils/cryptography/MerkleProof.sol\":2090:2102  computedHash */\n      dup4\n        /* \"@openzeppelin/contracts/utils/cryptography/MerkleProof.sol\":2104:2116  proofElement */\n      dup3\n        /* \"@openzeppelin/contracts/utils/cryptography/MerkleProof.sol\":2075:2089  _efficientHash */\n      tag_198\n        /* \"@openzeppelin/contracts/utils/cryptography/MerkleProof.sol\":2075:2117  _efficientHash(computedHash, proofElement) */\n      jump\t// in\n    tag_197:\n        /* \"@openzeppelin/contracts/utils/cryptography/MerkleProof.sol\":2060:2117  computedHash = _efficientHash(computedHash, proofElement) */\n      swap3\n      pop\n        /* \"@openzeppelin/contracts/utils/cryptography/MerkleProof.sol\":1930:2306  if (computedHash <= proofElement) {... */\n      jump(tag_199)\n    tag_196:\n        /* \"@openzeppelin/contracts/utils/cryptography/MerkleProof.sol\":2249:2291  _efficientHash(proofElement, computedHash) */\n      tag_200\n        /* \"@openzeppelin/contracts/utils/cryptography/MerkleProof.sol\":2264:2276  proofElement */\n      dup2\n        /* \"@openzeppelin/contracts/utils/cryptography/MerkleProof.sol\":2278:2290  computedHash */\n      dup5\n        /* \"@openzeppelin/contracts/utils/cryptography/MerkleProof.sol\":2249:2263  _efficientHash */\n      tag_198\n        /* \"@openzeppelin/contracts/utils/cryptography/MerkleProof.sol\":2249:2291  _efficientHash(proofElement, computedHash) */\n      jump\t// in\n    tag_200:\n        /* \"@openzeppelin/contracts/utils/cryptography/MerkleProof.sol\":2234:2291  computedHash = _efficientHash(proofElement, computedHash) */\n      swap3\n      pop\n        /* \"@openzeppelin/contracts/utils/cryptography/MerkleProof.sol\":1930:2306  if (computedHash <= proofElement) {... */\n    tag_199:\n        /* \"@openzeppelin/contracts/utils/cryptography/MerkleProof.sol\":1871:2316  {... */\n      pop\n        /* \"@openzeppelin/contracts/utils/cryptography/MerkleProof.sol\":1866:1869  i++ */\n      dup1\n      dup1\n      tag_201\n      swap1\n      tag_114\n      jump\t// in\n    tag_201:\n      swap2\n      pop\n      pop\n        /* \"@openzeppelin/contracts/utils/cryptography/MerkleProof.sol\":1828:2316  for (uint256 i = 0; i < proof.length; i++) {... */\n      jump(tag_191)\n    tag_192:\n      pop\n        /* \"@openzeppelin/contracts/utils/cryptography/MerkleProof.sol\":2332:2344  computedHash */\n      dup1\n        /* \"@openzeppelin/contracts/utils/cryptography/MerkleProof.sol\":2325:2344  return computedHash */\n      swap2\n      pop\n      pop\n        /* \"@openzeppelin/contracts/utils/cryptography/MerkleProof.sol\":1689:2351  function processProof(bytes32[] memory proof, bytes32 leaf) internal pure returns (bytes32) {... */\n      swap3\n      swap2\n      pop\n      pop\n      jump\t// out\n        /* \"@openzeppelin/contracts/utils/Address.sol\":4948:5447  function functionCallWithValue(... */\n    tag_189:\n        /* \"@openzeppelin/contracts/utils/Address.sol\":5113:5125  bytes memory */\n      0x60\n        /* \"@openzeppelin/contracts/utils/Address.sol\":5170:5175  value */\n      dup3\n        /* \"@openzeppelin/contracts/utils/Address.sol\":5145:5166  address(this).balance */\n      selfbalance\n        /* \"@openzeppelin/contracts/utils/Address.sol\":5145:5175  address(this).balance >= value */\n      lt\n      iszero\n        /* \"@openzeppelin/contracts/utils/Address.sol\":5137:5218  require(address(this).balance >= value, \"Address: insufficient balance for call\") */\n      tag_203\n      jumpi\n      mload(0x40)\n      0x08c379a000000000000000000000000000000000000000000000000000000000\n      dup2\n      mstore\n      0x04\n      add\n      tag_204\n      swap1\n      tag_205\n      jump\t// in\n    tag_204:\n      mload(0x40)\n      dup1\n      swap2\n      sub\n      swap1\n      revert\n    tag_203:\n        /* \"@openzeppelin/contracts/utils/Address.sol\":5236:5254  isContract(target) */\n      tag_206\n        /* \"@openzeppelin/contracts/utils/Address.sol\":5247:5253  target */\n      dup6\n        /* \"@openzeppelin/contracts/utils/Address.sol\":5236:5246  isContract */\n      tag_207\n        /* \"@openzeppelin/contracts/utils/Address.sol\":5236:5254  isContract(target) */\n      jump\t// in\n    tag_206:\n        /* \"@openzeppelin/contracts/utils/Address.sol\":5228:5288  require(isContract(target), \"Address: call to non-contract\") */\n      tag_208\n      jumpi\n      mload(0x40)\n      0x08c379a000000000000000000000000000000000000000000000000000000000\n      dup2\n      mstore\n      0x04\n      add\n      tag_209\n      swap1\n      tag_210\n      jump\t// in\n    tag_209:\n      mload(0x40)\n      dup1\n      swap2\n      sub\n      swap1\n      revert\n    tag_208:\n        /* \"@openzeppelin/contracts/utils/Address.sol\":5300:5312  bool success */\n      0x00\n        /* \"@openzeppelin/contracts/utils/Address.sol\":5314:5337  bytes memory returndata */\n      dup1\n        /* \"@openzeppelin/contracts/utils/Address.sol\":5341:5347  target */\n      dup7\n        /* \"@openzeppelin/contracts/utils/Address.sol\":5341:5352  target.call */\n      0xffffffffffffffffffffffffffffffffffffffff\n      and\n        /* \"@openzeppelin/contracts/utils/Address.sol\":5360:5365  value */\n      dup6\n        /* \"@openzeppelin/contracts/utils/Address.sol\":5367:5371  data */\n      dup8\n        /* \"@openzeppelin/contracts/utils/Address.sol\":5341:5372  target.call{value: value}(data) */\n      mload(0x40)\n      tag_211\n      swap2\n      swap1\n      tag_212\n      jump\t// in\n    tag_211:\n      0x00\n      mload(0x40)\n      dup1\n      dup4\n      sub\n      dup2\n      dup6\n      dup8\n      gas\n      call\n      swap3\n      pop\n      pop\n      pop\n      returndatasize\n      dup1\n      0x00\n      dup2\n      eq\n      tag_215\n      jumpi\n      mload(0x40)\n      swap2\n      pop\n      and(add(returndatasize, 0x3f), not(0x1f))\n      dup3\n      add\n      0x40\n      mstore\n      returndatasize\n      dup3\n      mstore\n      returndatasize\n      0x00\n      0x20\n      dup5\n      add\n      returndatacopy\n      jump(tag_214)\n    tag_215:\n      0x60\n      swap2\n      pop\n    tag_214:\n      pop\n        /* \"@openzeppelin/contracts/utils/Address.sol\":5299:5372  (bool success, bytes memory returndata) = target.call{value: value}(data) */\n      swap2\n      pop\n      swap2\n      pop\n        /* \"@openzeppelin/contracts/utils/Address.sol\":5389:5440  verifyCallResult(success, returndata, errorMessage) */\n      tag_216\n        /* \"@openzeppelin/contracts/utils/Address.sol\":5406:5413  success */\n      dup3\n        /* \"@openzeppelin/contracts/utils/Address.sol\":5415:5425  returndata */\n      dup3\n        /* \"@openzeppelin/contracts/utils/Address.sol\":5427:5439  errorMessage */\n      dup7\n        /* \"@openzeppelin/contracts/utils/Address.sol\":5389:5405  verifyCallResult */\n      tag_217\n        /* \"@openzeppelin/contracts/utils/Address.sol\":5389:5440  verifyCallResult(success, returndata, errorMessage) */\n      jump\t// in\n    tag_216:\n        /* \"@openzeppelin/contracts/utils/Address.sol\":5382:5440  return verifyCallResult(success, returndata, errorMessage) */\n      swap3\n      pop\n      pop\n      pop\n        /* \"@openzeppelin/contracts/utils/Address.sol\":4948:5447  function functionCallWithValue(... */\n      swap5\n      swap4\n      pop\n      pop\n      pop\n      pop\n      jump\t// out\n        /* \"@openzeppelin/contracts/utils/cryptography/MerkleProof.sol\":2357:2575  function _efficientHash(bytes32 a, bytes32 b) private pure returns (bytes32 value) {... */\n    tag_198:\n        /* \"@openzeppelin/contracts/utils/cryptography/MerkleProof.sol\":2425:2438  bytes32 value */\n      0x00\n        /* \"@openzeppelin/contracts/utils/cryptography/MerkleProof.sol\":2486:2487  a */\n      dup3\n        /* \"@openzeppelin/contracts/utils/cryptography/MerkleProof.sol\":2480:2484  0x00 */\n      0x00\n        /* \"@openzeppelin/contracts/utils/cryptography/MerkleProof.sol\":2473:2488  mstore(0x00, a) */\n      mstore\n        /* \"@openzeppelin/contracts/utils/cryptography/MerkleProof.sol\":2514:2515  b */\n      dup2\n        /* \"@openzeppelin/contracts/utils/cryptography/MerkleProof.sol\":2508:2512  0x20 */\n      0x20\n        /* \"@openzeppelin/contracts/utils/cryptography/MerkleProof.sol\":2501:2516  mstore(0x20, b) */\n      mstore\n        /* \"@openzeppelin/contracts/utils/cryptography/MerkleProof.sol\":2554:2558  0x40 */\n      0x40\n        /* \"@openzeppelin/contracts/utils/cryptography/MerkleProof.sol\":2548:2552  0x00 */\n      0x00\n        /* \"@openzeppelin/contracts/utils/cryptography/MerkleProof.sol\":2538:2559  keccak256(0x00, 0x40) */\n      keccak256\n        /* \"@openzeppelin/contracts/utils/cryptography/MerkleProof.sol\":2529:2559  value := keccak256(0x00, 0x40) */\n      swap1\n      pop\n        /* \"@openzeppelin/contracts/utils/cryptography/MerkleProof.sol\":2357:2575  function _efficientHash(bytes32 a, bytes32 b) private pure returns (bytes32 value) {... */\n      swap3\n      swap2\n      pop\n      pop\n      jump\t// out\n        /* \"@openzeppelin/contracts/utils/Address.sol\":1175:1495  function isContract(address account) internal view returns (bool) {... */\n    tag_207:\n        /* \"@openzeppelin/contracts/utils/Address.sol\":1235:1239  bool */\n      0x00\n        /* \"@openzeppelin/contracts/utils/Address.sol\":1487:1488  0 */\n      dup1\n        /* \"@openzeppelin/contracts/utils/Address.sol\":1465:1472  account */\n      dup3\n        /* \"@openzeppelin/contracts/utils/Address.sol\":1465:1484  account.code.length */\n      0xffffffffffffffffffffffffffffffffffffffff\n      and\n      extcodesize\n        /* \"@openzeppelin/contracts/utils/Address.sol\":1465:1488  account.code.length > 0 */\n      gt\n        /* \"@openzeppelin/contracts/utils/Address.sol\":1458:1488  return account.code.length > 0 */\n      swap1\n      pop\n        /* \"@openzeppelin/contracts/utils/Address.sol\":1175:1495  function isContract(address account) internal view returns (bool) {... */\n      swap2\n      swap1\n      pop\n      jump\t// out\n        /* \"@openzeppelin/contracts/utils/Address.sol\":7561:8253  function verifyCallResult(... */\n    tag_217:\n        /* \"@openzeppelin/contracts/utils/Address.sol\":7707:7719  bytes memory */\n      0x60\n        /* \"@openzeppelin/contracts/utils/Address.sol\":7735:7742  success */\n      dup4\n        /* \"@openzeppelin/contracts/utils/Address.sol\":7731:8247  if (success) {... */\n      iszero\n      tag_221\n      jumpi\n        /* \"@openzeppelin/contracts/utils/Address.sol\":7765:7775  returndata */\n      dup3\n        /* \"@openzeppelin/contracts/utils/Address.sol\":7758:7775  return returndata */\n      swap1\n      pop\n      jump(tag_220)\n        /* \"@openzeppelin/contracts/utils/Address.sol\":7731:8247  if (success) {... */\n    tag_221:\n        /* \"@openzeppelin/contracts/utils/Address.sol\":7896:7897  0 */\n      0x00\n        /* \"@openzeppelin/contracts/utils/Address.sol\":7876:7886  returndata */\n      dup4\n        /* \"@openzeppelin/contracts/utils/Address.sol\":7876:7893  returndata.length */\n      mload\n        /* \"@openzeppelin/contracts/utils/Address.sol\":7876:7897  returndata.length > 0 */\n      gt\n        /* \"@openzeppelin/contracts/utils/Address.sol\":7872:8237  if (returndata.length > 0) {... */\n      iszero\n      tag_223\n      jumpi\n        /* \"@openzeppelin/contracts/utils/Address.sol\":8070:8080  returndata */\n      dup3\n        /* \"@openzeppelin/contracts/utils/Address.sol\":8064:8081  mload(returndata) */\n      mload\n        /* \"@openzeppelin/contracts/utils/Address.sol\":8130:8145  returndata_size */\n      dup1\n        /* \"@openzeppelin/contracts/utils/Address.sol\":8117:8127  returndata */\n      dup5\n        /* \"@openzeppelin/contracts/utils/Address.sol\":8113:8115  32 */\n      0x20\n        /* \"@openzeppelin/contracts/utils/Address.sol\":8109:8128  add(32, returndata) */\n      add\n        /* \"@openzeppelin/contracts/utils/Address.sol\":8102:8146  revert(add(32, returndata), returndata_size) */\n      revert\n        /* \"@openzeppelin/contracts/utils/Address.sol\":7872:8237  if (returndata.length > 0) {... */\n    tag_223:\n        /* \"@openzeppelin/contracts/utils/Address.sol\":8209:8221  errorMessage */\n      dup2\n        /* \"@openzeppelin/contracts/utils/Address.sol\":8202:8222  revert(errorMessage) */\n      mload(0x40)\n      0x08c379a000000000000000000000000000000000000000000000000000000000\n      dup2\n      mstore\n      0x04\n      add\n      tag_225\n      swap2\n      swap1\n      tag_226\n      jump\t// in\n    tag_225:\n      mload(0x40)\n      dup1\n      swap2\n      sub\n      swap1\n      revert\n        /* \"@openzeppelin/contracts/utils/Address.sol\":7561:8253  function verifyCallResult(... */\n    tag_220:\n      swap4\n      swap3\n      pop\n      pop\n      pop\n      jump\t// out\n        /* \"#utility.yul\":26:1028   */\n    tag_228:\n        /* \"#utility.yul\":147:152   */\n      0x00\n        /* \"#utility.yul\":172:278   */\n      tag_230\n        /* \"#utility.yul\":188:277   */\n      tag_231\n        /* \"#utility.yul\":270:276   */\n      dup5\n        /* \"#utility.yul\":188:277   */\n      tag_232\n      jump\t// in\n    tag_231:\n        /* \"#utility.yul\":172:278   */\n      tag_233\n      jump\t// in\n    tag_230:\n        /* \"#utility.yul\":163:278   */\n      swap1\n      pop\n        /* \"#utility.yul\":298:303   */\n      dup1\n        /* \"#utility.yul\":327:333   */\n      dup4\n        /* \"#utility.yul\":320:325   */\n      dup3\n        /* \"#utility.yul\":313:334   */\n      mstore\n        /* \"#utility.yul\":361:365   */\n      0x20\n        /* \"#utility.yul\":354:359   */\n      dup3\n        /* \"#utility.yul\":350:366   */\n      add\n        /* \"#utility.yul\":343:366   */\n      swap1\n      pop\n        /* \"#utility.yul\":387:393   */\n      dup3\n        /* \"#utility.yul\":437:440   */\n      dup6\n        /* \"#utility.yul\":429:433   */\n      0x20\n        /* \"#utility.yul\":421:427   */\n      dup7\n        /* \"#utility.yul\":417:434   */\n      mul\n        /* \"#utility.yul\":412:415   */\n      dup3\n        /* \"#utility.yul\":408:435   */\n      add\n        /* \"#utility.yul\":405:441   */\n      gt\n        /* \"#utility.yul\":402:545   */\n      iszero\n      tag_234\n      jumpi\n        /* \"#utility.yul\":456:535   */\n      tag_235\n      tag_236\n      jump\t// in\n    tag_235:\n        /* \"#utility.yul\":402:545   */\n    tag_234:\n        /* \"#utility.yul\":569:570   */\n      0x00\n        /* \"#utility.yul\":554:1022   */\n    tag_237:\n        /* \"#utility.yul\":579:585   */\n      dup6\n        /* \"#utility.yul\":576:577   */\n      dup2\n        /* \"#utility.yul\":573:586   */\n      lt\n        /* \"#utility.yul\":554:1022   */\n      iszero\n      tag_239\n      jumpi\n        /* \"#utility.yul\":661:664   */\n      dup2\n        /* \"#utility.yul\":648:665   */\n      calldataload\n        /* \"#utility.yul\":697:715   */\n      0xffffffffffffffff\n        /* \"#utility.yul\":684:695   */\n      dup2\n        /* \"#utility.yul\":681:716   */\n      gt\n        /* \"#utility.yul\":678:800   */\n      iszero\n      tag_240\n      jumpi\n        /* \"#utility.yul\":719:798   */\n      tag_241\n      tag_242\n      jump\t// in\n    tag_241:\n        /* \"#utility.yul\":678:800   */\n    tag_240:\n        /* \"#utility.yul\":843:854   */\n      dup1\n        /* \"#utility.yul\":835:841   */\n      dup7\n        /* \"#utility.yul\":831:855   */\n      add\n        /* \"#utility.yul\":881:943   */\n      tag_243\n        /* \"#utility.yul\":939:942   */\n      dup10\n        /* \"#utility.yul\":927:937   */\n      dup3\n        /* \"#utility.yul\":881:943   */\n      tag_244\n      jump\t// in\n    tag_243:\n        /* \"#utility.yul\":876:879   */\n      dup6\n        /* \"#utility.yul\":869:944   */\n      mstore\n        /* \"#utility.yul\":973:977   */\n      0x20\n        /* \"#utility.yul\":968:971   */\n      dup6\n        /* \"#utility.yul\":964:978   */\n      add\n        /* \"#utility.yul\":957:978   */\n      swap5\n      pop\n        /* \"#utility.yul\":1007:1011   */\n      0x20\n        /* \"#utility.yul\":1002:1005   */\n      dup5\n        /* \"#utility.yul\":998:1012   */\n      add\n        /* \"#utility.yul\":991:1012   */\n      swap4\n      pop\n        /* \"#utility.yul\":614:1022   */\n      pop\n      pop\n        /* \"#utility.yul\":601:602   */\n      0x01\n        /* \"#utility.yul\":598:599   */\n      dup2\n        /* \"#utility.yul\":594:603   */\n      add\n        /* \"#utility.yul\":589:603   */\n      swap1\n      pop\n        /* \"#utility.yul\":554:1022   */\n      jump(tag_237)\n    tag_239:\n        /* \"#utility.yul\":558:572   */\n      pop\n        /* \"#utility.yul\":153:1028   */\n      pop\n      pop\n        /* \"#utility.yul\":26:1028   */\n      swap4\n      swap3\n      pop\n      pop\n      pop\n      jump\t// out\n        /* \"#utility.yul\":1051:1773   */\n    tag_245:\n        /* \"#utility.yul\":1147:1152   */\n      0x00\n        /* \"#utility.yul\":1172:1253   */\n      tag_247\n        /* \"#utility.yul\":1188:1252   */\n      tag_248\n        /* \"#utility.yul\":1245:1251   */\n      dup5\n        /* \"#utility.yul\":1188:1252   */\n      tag_249\n      jump\t// in\n    tag_248:\n        /* \"#utility.yul\":1172:1253   */\n      tag_233\n      jump\t// in\n    tag_247:\n        /* \"#utility.yul\":1163:1253   */\n      swap1\n      pop\n        /* \"#utility.yul\":1273:1278   */\n      dup1\n        /* \"#utility.yul\":1302:1308   */\n      dup4\n        /* \"#utility.yul\":1295:1300   */\n      dup3\n        /* \"#utility.yul\":1288:1309   */\n      mstore\n        /* \"#utility.yul\":1336:1340   */\n      0x20\n        /* \"#utility.yul\":1329:1334   */\n      dup3\n        /* \"#utility.yul\":1325:1341   */\n      add\n        /* \"#utility.yul\":1318:1341   */\n      swap1\n      pop\n        /* \"#utility.yul\":1362:1368   */\n      dup3\n        /* \"#utility.yul\":1412:1415   */\n      dup6\n        /* \"#utility.yul\":1404:1408   */\n      0x20\n        /* \"#utility.yul\":1396:1402   */\n      dup7\n        /* \"#utility.yul\":1392:1409   */\n      mul\n        /* \"#utility.yul\":1387:1390   */\n      dup3\n        /* \"#utility.yul\":1383:1410   */\n      add\n        /* \"#utility.yul\":1380:1416   */\n      gt\n        /* \"#utility.yul\":1377:1520   */\n      iszero\n      tag_250\n      jumpi\n        /* \"#utility.yul\":1431:1510   */\n      tag_251\n      tag_236\n      jump\t// in\n    tag_251:\n        /* \"#utility.yul\":1377:1520   */\n    tag_250:\n        /* \"#utility.yul\":1544:1545   */\n      0x00\n        /* \"#utility.yul\":1529:1767   */\n    tag_252:\n        /* \"#utility.yul\":1554:1560   */\n      dup6\n        /* \"#utility.yul\":1551:1552   */\n      dup2\n        /* \"#utility.yul\":1548:1561   */\n      lt\n        /* \"#utility.yul\":1529:1767   */\n      iszero\n      tag_254\n      jumpi\n        /* \"#utility.yul\":1622:1625   */\n      dup2\n        /* \"#utility.yul\":1651:1688   */\n      tag_255\n        /* \"#utility.yul\":1684:1687   */\n      dup9\n        /* \"#utility.yul\":1672:1682   */\n      dup3\n        /* \"#utility.yul\":1651:1688   */\n      tag_256\n      jump\t// in\n    tag_255:\n        /* \"#utility.yul\":1646:1649   */\n      dup5\n        /* \"#utility.yul\":1639:1689   */\n      mstore\n        /* \"#utility.yul\":1718:1722   */\n      0x20\n        /* \"#utility.yul\":1713:1716   */\n      dup5\n        /* \"#utility.yul\":1709:1723   */\n      add\n        /* \"#utility.yul\":1702:1723   */\n      swap4\n      pop\n        /* \"#utility.yul\":1752:1756   */\n      0x20\n        /* \"#utility.yul\":1747:1750   */\n      dup4\n        /* \"#utility.yul\":1743:1757   */\n      add\n        /* \"#utility.yul\":1736:1757   */\n      swap3\n      pop\n        /* \"#utility.yul\":1589:1767   */\n      pop\n        /* \"#utility.yul\":1576:1577   */\n      0x01\n        /* \"#utility.yul\":1573:1574   */\n      dup2\n        /* \"#utility.yul\":1569:1578   */\n      add\n        /* \"#utility.yul\":1564:1578   */\n      swap1\n      pop\n        /* \"#utility.yul\":1529:1767   */\n      jump(tag_252)\n    tag_254:\n        /* \"#utility.yul\":1533:1547   */\n      pop\n        /* \"#utility.yul\":1153:1773   */\n      pop\n      pop\n        /* \"#utility.yul\":1051:1773   */\n      swap4\n      swap3\n      pop\n      pop\n      pop\n      jump\t// out\n        /* \"#utility.yul\":1796:2518   */\n    tag_257:\n        /* \"#utility.yul\":1892:1897   */\n      0x00\n        /* \"#utility.yul\":1917:1998   */\n      tag_259\n        /* \"#utility.yul\":1933:1997   */\n      tag_260\n        /* \"#utility.yul\":1990:1996   */\n      dup5\n        /* \"#utility.yul\":1933:1997   */\n      tag_261\n      jump\t// in\n    tag_260:\n        /* \"#utility.yul\":1917:1998   */\n      tag_233\n      jump\t// in\n    tag_259:\n        /* \"#utility.yul\":1908:1998   */\n      swap1\n      pop\n        /* \"#utility.yul\":2018:2023   */\n      dup1\n        /* \"#utility.yul\":2047:2053   */\n      dup4\n        /* \"#utility.yul\":2040:2045   */\n      dup3\n        /* \"#utility.yul\":2033:2054   */\n      mstore\n        /* \"#utility.yul\":2081:2085   */\n      0x20\n        /* \"#utility.yul\":2074:2079   */\n      dup3\n        /* \"#utility.yul\":2070:2086   */\n      add\n        /* \"#utility.yul\":2063:2086   */\n      swap1\n      pop\n        /* \"#utility.yul\":2107:2113   */\n      dup3\n        /* \"#utility.yul\":2157:2160   */\n      dup6\n        /* \"#utility.yul\":2149:2153   */\n      0x20\n        /* \"#utility.yul\":2141:2147   */\n      dup7\n        /* \"#utility.yul\":2137:2154   */\n      mul\n        /* \"#utility.yul\":2132:2135   */\n      dup3\n        /* \"#utility.yul\":2128:2155   */\n      add\n        /* \"#utility.yul\":2125:2161   */\n      gt\n        /* \"#utility.yul\":2122:2265   */\n      iszero\n      tag_262\n      jumpi\n        /* \"#utility.yul\":2176:2255   */\n      tag_263\n      tag_236\n      jump\t// in\n    tag_263:\n        /* \"#utility.yul\":2122:2265   */\n    tag_262:\n        /* \"#utility.yul\":2289:2290   */\n      0x00\n        /* \"#utility.yul\":2274:2512   */\n    tag_264:\n        /* \"#utility.yul\":2299:2305   */\n      dup6\n        /* \"#utility.yul\":2296:2297   */\n      dup2\n        /* \"#utility.yul\":2293:2306   */\n      lt\n        /* \"#utility.yul\":2274:2512   */\n      iszero\n      tag_266\n      jumpi\n        /* \"#utility.yul\":2367:2370   */\n      dup2\n        /* \"#utility.yul\":2396:2433   */\n      tag_267\n        /* \"#utility.yul\":2429:2432   */\n      dup9\n        /* \"#utility.yul\":2417:2427   */\n      dup3\n        /* \"#utility.yul\":2396:2433   */\n      tag_268\n      jump\t// in\n    tag_267:\n        /* \"#utility.yul\":2391:2394   */\n      dup5\n        /* \"#utility.yul\":2384:2434   */\n      mstore\n        /* \"#utility.yul\":2463:2467   */\n      0x20\n        /* \"#utility.yul\":2458:2461   */\n      dup5\n        /* \"#utility.yul\":2454:2468   */\n      add\n        /* \"#utility.yul\":2447:2468   */\n      swap4\n      pop\n        /* \"#utility.yul\":2497:2501   */\n      0x20\n        /* \"#utility.yul\":2492:2495   */\n      dup4\n        /* \"#utility.yul\":2488:2502   */\n      add\n        /* \"#utility.yul\":2481:2502   */\n      swap3\n      pop\n        /* \"#utility.yul\":2334:2512   */\n      pop\n        /* \"#utility.yul\":2321:2322   */\n      0x01\n        /* \"#utility.yul\":2318:2319   */\n      dup2\n        /* \"#utility.yul\":2314:2323   */\n      add\n        /* \"#utility.yul\":2309:2323   */\n      swap1\n      pop\n        /* \"#utility.yul\":2274:2512   */\n      jump(tag_264)\n    tag_266:\n        /* \"#utility.yul\":2278:2292   */\n      pop\n        /* \"#utility.yul\":1898:2518   */\n      pop\n      pop\n        /* \"#utility.yul\":1796:2518   */\n      swap4\n      swap3\n      pop\n      pop\n      pop\n      jump\t// out\n        /* \"#utility.yul\":2524:2663   */\n    tag_269:\n        /* \"#utility.yul\":2570:2575   */\n      0x00\n        /* \"#utility.yul\":2608:2614   */\n      dup2\n        /* \"#utility.yul\":2595:2615   */\n      calldataload\n        /* \"#utility.yul\":2586:2615   */\n      swap1\n      pop\n        /* \"#utility.yul\":2624:2657   */\n      tag_271\n        /* \"#utility.yul\":2651:2656   */\n      dup2\n        /* \"#utility.yul\":2624:2657   */\n      tag_272\n      jump\t// in\n    tag_271:\n        /* \"#utility.yul\":2524:2663   */\n      swap3\n      swap2\n      pop\n      pop\n      jump\t// out\n        /* \"#utility.yul\":2688:3108   */\n    tag_273:\n        /* \"#utility.yul\":2784:2789   */\n      0x00\n        /* \"#utility.yul\":2833:2836   */\n      dup3\n        /* \"#utility.yul\":2826:2830   */\n      0x1f\n        /* \"#utility.yul\":2818:2824   */\n      dup4\n        /* \"#utility.yul\":2814:2831   */\n      add\n        /* \"#utility.yul\":2810:2837   */\n      slt\n        /* \"#utility.yul\":2800:2922   */\n      tag_275\n      jumpi\n        /* \"#utility.yul\":2841:2920   */\n      tag_276\n      tag_242\n      jump\t// in\n    tag_276:\n        /* \"#utility.yul\":2800:2922   */\n    tag_275:\n        /* \"#utility.yul\":2958:2964   */\n      dup2\n        /* \"#utility.yul\":2945:2965   */\n      calldataload\n        /* \"#utility.yul\":2983:3102   */\n      tag_277\n        /* \"#utility.yul\":3098:3101   */\n      dup5\n        /* \"#utility.yul\":3090:3096   */\n      dup3\n        /* \"#utility.yul\":3083:3087   */\n      0x20\n        /* \"#utility.yul\":3075:3081   */\n      dup7\n        /* \"#utility.yul\":3071:3088   */\n      add\n        /* \"#utility.yul\":2983:3102   */\n      tag_228\n      jump\t// in\n    tag_277:\n        /* \"#utility.yul\":2974:3102   */\n      swap2\n      pop\n        /* \"#utility.yul\":2790:3108   */\n      pop\n        /* \"#utility.yul\":2688:3108   */\n      swap3\n      swap2\n      pop\n      pop\n      jump\t// out\n        /* \"#utility.yul\":3131:3501   */\n    tag_244:\n        /* \"#utility.yul\":3202:3207   */\n      0x00\n        /* \"#utility.yul\":3251:3254   */\n      dup3\n        /* \"#utility.yul\":3244:3248   */\n      0x1f\n        /* \"#utility.yul\":3236:3242   */\n      dup4\n        /* \"#utility.yul\":3232:3249   */\n      add\n        /* \"#utility.yul\":3228:3255   */\n      slt\n        /* \"#utility.yul\":3218:3340   */\n      tag_279\n      jumpi\n        /* \"#utility.yul\":3259:3338   */\n      tag_280\n      tag_242\n      jump\t// in\n    tag_280:\n        /* \"#utility.yul\":3218:3340   */\n    tag_279:\n        /* \"#utility.yul\":3376:3382   */\n      dup2\n        /* \"#utility.yul\":3363:3383   */\n      calldataload\n        /* \"#utility.yul\":3401:3495   */\n      tag_281\n        /* \"#utility.yul\":3491:3494   */\n      dup5\n        /* \"#utility.yul\":3483:3489   */\n      dup3\n        /* \"#utility.yul\":3476:3480   */\n      0x20\n        /* \"#utility.yul\":3468:3474   */\n      dup7\n        /* \"#utility.yul\":3464:3481   */\n      add\n        /* \"#utility.yul\":3401:3495   */\n      tag_245\n      jump\t// in\n    tag_281:\n        /* \"#utility.yul\":3392:3495   */\n      swap2\n      pop\n        /* \"#utility.yul\":3208:3501   */\n      pop\n        /* \"#utility.yul\":3131:3501   */\n      swap3\n      swap2\n      pop\n      pop\n      jump\t// out\n        /* \"#utility.yul\":3524:3894   */\n    tag_282:\n        /* \"#utility.yul\":3595:3600   */\n      0x00\n        /* \"#utility.yul\":3644:3647   */\n      dup3\n        /* \"#utility.yul\":3637:3641   */\n      0x1f\n        /* \"#utility.yul\":3629:3635   */\n      dup4\n        /* \"#utility.yul\":3625:3642   */\n      add\n        /* \"#utility.yul\":3621:3648   */\n      slt\n        /* \"#utility.yul\":3611:3733   */\n      tag_284\n      jumpi\n        /* \"#utility.yul\":3652:3731   */\n      tag_285\n      tag_242\n      jump\t// in\n    tag_285:\n        /* \"#utility.yul\":3611:3733   */\n    tag_284:\n        /* \"#utility.yul\":3769:3775   */\n      dup2\n        /* \"#utility.yul\":3756:3776   */\n      calldataload\n        /* \"#utility.yul\":3794:3888   */\n      tag_286\n        /* \"#utility.yul\":3884:3887   */\n      dup5\n        /* \"#utility.yul\":3876:3882   */\n      dup3\n        /* \"#utility.yul\":3869:3873   */\n      0x20\n        /* \"#utility.yul\":3861:3867   */\n      dup7\n        /* \"#utility.yul\":3857:3874   */\n      add\n        /* \"#utility.yul\":3794:3888   */\n      tag_257\n      jump\t// in\n    tag_286:\n        /* \"#utility.yul\":3785:3888   */\n      swap2\n      pop\n        /* \"#utility.yul\":3601:3894   */\n      pop\n        /* \"#utility.yul\":3524:3894   */\n      swap3\n      swap2\n      pop\n      pop\n      jump\t// out\n        /* \"#utility.yul\":3900:4037   */\n    tag_287:\n        /* \"#utility.yul\":3954:3959   */\n      0x00\n        /* \"#utility.yul\":3985:3991   */\n      dup2\n        /* \"#utility.yul\":3979:3992   */\n      mload\n        /* \"#utility.yul\":3970:3992   */\n      swap1\n      pop\n        /* \"#utility.yul\":4001:4031   */\n      tag_289\n        /* \"#utility.yul\":4025:4030   */\n      dup2\n        /* \"#utility.yul\":4001:4031   */\n      tag_290\n      jump\t// in\n    tag_289:\n        /* \"#utility.yul\":3900:4037   */\n      swap3\n      swap2\n      pop\n      pop\n      jump\t// out\n        /* \"#utility.yul\":4043:4182   */\n    tag_256:\n        /* \"#utility.yul\":4089:4094   */\n      0x00\n        /* \"#utility.yul\":4127:4133   */\n      dup2\n        /* \"#utility.yul\":4114:4134   */\n      calldataload\n        /* \"#utility.yul\":4105:4134   */\n      swap1\n      pop\n        /* \"#utility.yul\":4143:4176   */\n      tag_292\n        /* \"#utility.yul\":4170:4175   */\n      dup2\n        /* \"#utility.yul\":4143:4176   */\n      tag_293\n      jump\t// in\n    tag_292:\n        /* \"#utility.yul\":4043:4182   */\n      swap3\n      swap2\n      pop\n      pop\n      jump\t// out\n        /* \"#utility.yul\":4188:4327   */\n    tag_268:\n        /* \"#utility.yul\":4234:4239   */\n      0x00\n        /* \"#utility.yul\":4272:4278   */\n      dup2\n        /* \"#utility.yul\":4259:4279   */\n      calldataload\n        /* \"#utility.yul\":4250:4279   */\n      swap1\n      pop\n        /* \"#utility.yul\":4288:4321   */\n      tag_295\n        /* \"#utility.yul\":4315:4320   */\n      dup2\n        /* \"#utility.yul\":4288:4321   */\n      tag_296\n      jump\t// in\n    tag_295:\n        /* \"#utility.yul\":4188:4327   */\n      swap3\n      swap2\n      pop\n      pop\n      jump\t// out\n        /* \"#utility.yul\":4333:4662   */\n    tag_60:\n        /* \"#utility.yul\":4392:4398   */\n      0x00\n        /* \"#utility.yul\":4441:4443   */\n      0x20\n        /* \"#utility.yul\":4429:4438   */\n      dup3\n        /* \"#utility.yul\":4420:4427   */\n      dup5\n        /* \"#utility.yul\":4416:4439   */\n      sub\n        /* \"#utility.yul\":4412:4444   */\n      slt\n        /* \"#utility.yul\":4409:4528   */\n      iszero\n      tag_298\n      jumpi\n        /* \"#utility.yul\":4447:4526   */\n      tag_299\n      tag_300\n      jump\t// in\n    tag_299:\n        /* \"#utility.yul\":4409:4528   */\n    tag_298:\n        /* \"#utility.yul\":4567:4568   */\n      0x00\n        /* \"#utility.yul\":4592:4645   */\n      tag_301\n        /* \"#utility.yul\":4637:4644   */\n      dup5\n        /* \"#utility.yul\":4628:4634   */\n      dup3\n        /* \"#utility.yul\":4617:4626   */\n      dup6\n        /* \"#utility.yul\":4613:4635   */\n      add\n        /* \"#utility.yul\":4592:4645   */\n      tag_269\n      jump\t// in\n    tag_301:\n        /* \"#utility.yul\":4582:4645   */\n      swap2\n      pop\n        /* \"#utility.yul\":4538:4655   */\n      pop\n        /* \"#utility.yul\":4333:4662   */\n      swap3\n      swap2\n      pop\n      pop\n      jump\t// out\n        /* \"#utility.yul\":4668:6113   */\n    tag_46:\n        /* \"#utility.yul\":4854:4860   */\n      0x00\n        /* \"#utility.yul\":4862:4868   */\n      dup1\n        /* \"#utility.yul\":4870:4876   */\n      0x00\n        /* \"#utility.yul\":4878:4884   */\n      dup1\n        /* \"#utility.yul\":4927:4930   */\n      0x80\n        /* \"#utility.yul\":4915:4924   */\n      dup6\n        /* \"#utility.yul\":4906:4913   */\n      dup8\n        /* \"#utility.yul\":4902:4925   */\n      sub\n        /* \"#utility.yul\":4898:4931   */\n      slt\n        /* \"#utility.yul\":4895:5015   */\n      iszero\n      tag_303\n      jumpi\n        /* \"#utility.yul\":4934:5013   */\n      tag_304\n      tag_300\n      jump\t// in\n    tag_304:\n        /* \"#utility.yul\":4895:5015   */\n    tag_303:\n        /* \"#utility.yul\":5054:5055   */\n      0x00\n        /* \"#utility.yul\":5079:5132   */\n      tag_305\n        /* \"#utility.yul\":5124:5131   */\n      dup8\n        /* \"#utility.yul\":5115:5121   */\n      dup3\n        /* \"#utility.yul\":5104:5113   */\n      dup9\n        /* \"#utility.yul\":5100:5122   */\n      add\n        /* \"#utility.yul\":5079:5132   */\n      tag_269\n      jump\t// in\n    tag_305:\n        /* \"#utility.yul\":5069:5132   */\n      swap5\n      pop\n        /* \"#utility.yul\":5025:5142   */\n      pop\n        /* \"#utility.yul\":5209:5211   */\n      0x20\n        /* \"#utility.yul\":5198:5207   */\n      dup6\n        /* \"#utility.yul\":5194:5212   */\n      add\n        /* \"#utility.yul\":5181:5213   */\n      calldataload\n        /* \"#utility.yul\":5240:5258   */\n      0xffffffffffffffff\n        /* \"#utility.yul\":5232:5238   */\n      dup2\n        /* \"#utility.yul\":5229:5259   */\n      gt\n        /* \"#utility.yul\":5226:5343   */\n      iszero\n      tag_306\n      jumpi\n        /* \"#utility.yul\":5262:5341   */\n      tag_307\n      tag_308\n      jump\t// in\n    tag_307:\n        /* \"#utility.yul\":5226:5343   */\n    tag_306:\n        /* \"#utility.yul\":5367:5445   */\n      tag_309\n        /* \"#utility.yul\":5437:5444   */\n      dup8\n        /* \"#utility.yul\":5428:5434   */\n      dup3\n        /* \"#utility.yul\":5417:5426   */\n      dup9\n        /* \"#utility.yul\":5413:5435   */\n      add\n        /* \"#utility.yul\":5367:5445   */\n      tag_282\n      jump\t// in\n    tag_309:\n        /* \"#utility.yul\":5357:5445   */\n      swap4\n      pop\n        /* \"#utility.yul\":5152:5455   */\n      pop\n        /* \"#utility.yul\":5522:5524   */\n      0x40\n        /* \"#utility.yul\":5511:5520   */\n      dup6\n        /* \"#utility.yul\":5507:5525   */\n      add\n        /* \"#utility.yul\":5494:5526   */\n      calldataload\n        /* \"#utility.yul\":5553:5571   */\n      0xffffffffffffffff\n        /* \"#utility.yul\":5545:5551   */\n      dup2\n        /* \"#utility.yul\":5542:5572   */\n      gt\n        /* \"#utility.yul\":5539:5656   */\n      iszero\n      tag_310\n      jumpi\n        /* \"#utility.yul\":5575:5654   */\n      tag_311\n      tag_308\n      jump\t// in\n    tag_311:\n        /* \"#utility.yul\":5539:5656   */\n    tag_310:\n        /* \"#utility.yul\":5680:5758   */\n      tag_312\n        /* \"#utility.yul\":5750:5757   */\n      dup8\n        /* \"#utility.yul\":5741:5747   */\n      dup3\n        /* \"#utility.yul\":5730:5739   */\n      dup9\n        /* \"#utility.yul\":5726:5748   */\n      add\n        /* \"#utility.yul\":5680:5758   */\n      tag_282\n      jump\t// in\n    tag_312:\n        /* \"#utility.yul\":5670:5758   */\n      swap3\n      pop\n        /* \"#utility.yul\":5465:5768   */\n      pop\n        /* \"#utility.yul\":5835:5837   */\n      0x60\n        /* \"#utility.yul\":5824:5833   */\n      dup6\n        /* \"#utility.yul\":5820:5838   */\n      add\n        /* \"#utility.yul\":5807:5839   */\n      calldataload\n        /* \"#utility.yul\":5866:5884   */\n      0xffffffffffffffff\n        /* \"#utility.yul\":5858:5864   */\n      dup2\n        /* \"#utility.yul\":5855:5885   */\n      gt\n        /* \"#utility.yul\":5852:5969   */\n      iszero\n      tag_313\n      jumpi\n        /* \"#utility.yul\":5888:5967   */\n      tag_314\n      tag_308\n      jump\t// in\n    tag_314:\n        /* \"#utility.yul\":5852:5969   */\n    tag_313:\n        /* \"#utility.yul\":5993:6096   */\n      tag_315\n        /* \"#utility.yul\":6088:6095   */\n      dup8\n        /* \"#utility.yul\":6079:6085   */\n      dup3\n        /* \"#utility.yul\":6068:6077   */\n      dup9\n        /* \"#utility.yul\":6064:6086   */\n      add\n        /* \"#utility.yul\":5993:6096   */\n      tag_273\n      jump\t// in\n    tag_315:\n        /* \"#utility.yul\":5983:6096   */\n      swap2\n      pop\n        /* \"#utility.yul\":5778:6106   */\n      pop\n        /* \"#utility.yul\":4668:6113   */\n      swap3\n      swap6\n      swap2\n      swap5\n      pop\n      swap3\n      pop\n      jump\t// out\n        /* \"#utility.yul\":6119:7094   */\n    tag_24:\n        /* \"#utility.yul\":6230:6236   */\n      0x00\n        /* \"#utility.yul\":6238:6244   */\n      dup1\n        /* \"#utility.yul\":6246:6252   */\n      0x00\n        /* \"#utility.yul\":6254:6260   */\n      dup1\n        /* \"#utility.yul\":6303:6306   */\n      0x80\n        /* \"#utility.yul\":6291:6300   */\n      dup6\n        /* \"#utility.yul\":6282:6289   */\n      dup8\n        /* \"#utility.yul\":6278:6301   */\n      sub\n        /* \"#utility.yul\":6274:6307   */\n      slt\n        /* \"#utility.yul\":6271:6391   */\n      iszero\n      tag_317\n      jumpi\n        /* \"#utility.yul\":6310:6389   */\n      tag_318\n      tag_300\n      jump\t// in\n    tag_318:\n        /* \"#utility.yul\":6271:6391   */\n    tag_317:\n        /* \"#utility.yul\":6430:6431   */\n      0x00\n        /* \"#utility.yul\":6455:6508   */\n      tag_319\n        /* \"#utility.yul\":6500:6507   */\n      dup8\n        /* \"#utility.yul\":6491:6497   */\n      dup3\n        /* \"#utility.yul\":6480:6489   */\n      dup9\n        /* \"#utility.yul\":6476:6498   */\n      add\n        /* \"#utility.yul\":6455:6508   */\n      tag_269\n      jump\t// in\n    tag_319:\n        /* \"#utility.yul\":6445:6508   */\n      swap5\n      pop\n        /* \"#utility.yul\":6401:6518   */\n      pop\n        /* \"#utility.yul\":6557:6559   */\n      0x20\n        /* \"#utility.yul\":6583:6636   */\n      tag_320\n        /* \"#utility.yul\":6628:6635   */\n      dup8\n        /* \"#utility.yul\":6619:6625   */\n      dup3\n        /* \"#utility.yul\":6608:6617   */\n      dup9\n        /* \"#utility.yul\":6604:6626   */\n      add\n        /* \"#utility.yul\":6583:6636   */\n      tag_268\n      jump\t// in\n    tag_320:\n        /* \"#utility.yul\":6573:6636   */\n      swap4\n      pop\n        /* \"#utility.yul\":6528:6646   */\n      pop\n        /* \"#utility.yul\":6685:6687   */\n      0x40\n        /* \"#utility.yul\":6711:6764   */\n      tag_321\n        /* \"#utility.yul\":6756:6763   */\n      dup8\n        /* \"#utility.yul\":6747:6753   */\n      dup3\n        /* \"#utility.yul\":6736:6745   */\n      dup9\n        /* \"#utility.yul\":6732:6754   */\n      add\n        /* \"#utility.yul\":6711:6764   */\n      tag_268\n      jump\t// in\n    tag_321:\n        /* \"#utility.yul\":6701:6764   */\n      swap3\n      pop\n        /* \"#utility.yul\":6656:6774   */\n      pop\n        /* \"#utility.yul\":6841:6843   */\n      0x60\n        /* \"#utility.yul\":6830:6839   */\n      dup6\n        /* \"#utility.yul\":6826:6844   */\n      add\n        /* \"#utility.yul\":6813:6845   */\n      calldataload\n        /* \"#utility.yul\":6872:6890   */\n      0xffffffffffffffff\n        /* \"#utility.yul\":6864:6870   */\n      dup2\n        /* \"#utility.yul\":6861:6891   */\n      gt\n        /* \"#utility.yul\":6858:6975   */\n      iszero\n      tag_322\n      jumpi\n        /* \"#utility.yul\":6894:6973   */\n      tag_323\n      tag_308\n      jump\t// in\n    tag_323:\n        /* \"#utility.yul\":6858:6975   */\n    tag_322:\n        /* \"#utility.yul\":6999:7077   */\n      tag_324\n        /* \"#utility.yul\":7069:7076   */\n      dup8\n        /* \"#utility.yul\":7060:7066   */\n      dup3\n        /* \"#utility.yul\":7049:7058   */\n      dup9\n        /* \"#utility.yul\":7045:7067   */\n      add\n        /* \"#utility.yul\":6999:7077   */\n      tag_244\n      jump\t// in\n    tag_324:\n        /* \"#utility.yul\":6989:7077   */\n      swap2\n      pop\n        /* \"#utility.yul\":6784:7087   */\n      pop\n        /* \"#utility.yul\":6119:7094   */\n      swap3\n      swap6\n      swap2\n      swap5\n      pop\n      swap3\n      pop\n      jump\t// out\n        /* \"#utility.yul\":7100:7445   */\n    tag_180:\n        /* \"#utility.yul\":7167:7173   */\n      0x00\n        /* \"#utility.yul\":7216:7218   */\n      0x20\n        /* \"#utility.yul\":7204:7213   */\n      dup3\n        /* \"#utility.yul\":7195:7202   */\n      dup5\n        /* \"#utility.yul\":7191:7214   */\n      sub\n        /* \"#utility.yul\":7187:7219   */\n      slt\n        /* \"#utility.yul\":7184:7303   */\n      iszero\n      tag_326\n      jumpi\n        /* \"#utility.yul\":7222:7301   */\n      tag_327\n      tag_300\n      jump\t// in\n    tag_327:\n        /* \"#utility.yul\":7184:7303   */\n    tag_326:\n        /* \"#utility.yul\":7342:7343   */\n      0x00\n        /* \"#utility.yul\":7367:7428   */\n      tag_328\n        /* \"#utility.yul\":7420:7427   */\n      dup5\n        /* \"#utility.yul\":7411:7417   */\n      dup3\n        /* \"#utility.yul\":7400:7409   */\n      dup6\n        /* \"#utility.yul\":7396:7418   */\n      add\n        /* \"#utility.yul\":7367:7428   */\n      tag_287\n      jump\t// in\n    tag_328:\n        /* \"#utility.yul\":7357:7428   */\n      swap2\n      pop\n        /* \"#utility.yul\":7313:7438   */\n      pop\n        /* \"#utility.yul\":7100:7445   */\n      swap3\n      swap2\n      pop\n      pop\n      jump\t// out\n        /* \"#utility.yul\":7451:7925   */\n    tag_28:\n        /* \"#utility.yul\":7519:7525   */\n      0x00\n        /* \"#utility.yul\":7527:7533   */\n      dup1\n        /* \"#utility.yul\":7576:7578   */\n      0x40\n        /* \"#utility.yul\":7564:7573   */\n      dup4\n        /* \"#utility.yul\":7555:7562   */\n      dup6\n        /* \"#utility.yul\":7551:7574   */\n      sub\n        /* \"#utility.yul\":7547:7579   */\n      slt\n        /* \"#utility.yul\":7544:7663   */\n      iszero\n      tag_330\n      jumpi\n        /* \"#utility.yul\":7582:7661   */\n      tag_331\n      tag_300\n      jump\t// in\n    tag_331:\n        /* \"#utility.yul\":7544:7663   */\n    tag_330:\n        /* \"#utility.yul\":7702:7703   */\n      0x00\n        /* \"#utility.yul\":7727:7780   */\n      tag_332\n        /* \"#utility.yul\":7772:7779   */\n      dup6\n        /* \"#utility.yul\":7763:7769   */\n      dup3\n        /* \"#utility.yul\":7752:7761   */\n      dup7\n        /* \"#utility.yul\":7748:7770   */\n      add\n        /* \"#utility.yul\":7727:7780   */\n      tag_256\n      jump\t// in\n    tag_332:\n        /* \"#utility.yul\":7717:7780   */\n      swap3\n      pop\n        /* \"#utility.yul\":7673:7790   */\n      pop\n        /* \"#utility.yul\":7829:7831   */\n      0x20\n        /* \"#utility.yul\":7855:7908   */\n      tag_333\n        /* \"#utility.yul\":7900:7907   */\n      dup6\n        /* \"#utility.yul\":7891:7897   */\n      dup3\n        /* \"#utility.yul\":7880:7889   */\n      dup7\n        /* \"#utility.yul\":7876:7898   */\n      add\n        /* \"#utility.yul\":7855:7908   */\n      tag_268\n      jump\t// in\n    tag_333:\n        /* \"#utility.yul\":7845:7908   */\n      swap2\n      pop\n        /* \"#utility.yul\":7800:7918   */\n      pop\n        /* \"#utility.yul\":7451:7925   */\n      swap3\n      pop\n      swap3\n      swap1\n      pop\n      jump\t// out\n        /* \"#utility.yul\":7931:8260   */\n    tag_36:\n        /* \"#utility.yul\":7990:7996   */\n      0x00\n        /* \"#utility.yul\":8039:8041   */\n      0x20\n        /* \"#utility.yul\":8027:8036   */\n      dup3\n        /* \"#utility.yul\":8018:8025   */\n      dup5\n        /* \"#utility.yul\":8014:8037   */\n      sub\n        /* \"#utility.yul\":8010:8042   */\n      slt\n        /* \"#utility.yul\":8007:8126   */\n      iszero\n      tag_335\n      jumpi\n        /* \"#utility.yul\":8045:8124   */\n      tag_336\n      tag_300\n      jump\t// in\n    tag_336:\n        /* \"#utility.yul\":8007:8126   */\n    tag_335:\n        /* \"#utility.yul\":8165:8166   */\n      0x00\n        /* \"#utility.yul\":8190:8243   */\n      tag_337\n        /* \"#utility.yul\":8235:8242   */\n      dup5\n        /* \"#utility.yul\":8226:8232   */\n      dup3\n        /* \"#utility.yul\":8215:8224   */\n      dup6\n        /* \"#utility.yul\":8211:8233   */\n      add\n        /* \"#utility.yul\":8190:8243   */\n      tag_268\n      jump\t// in\n    tag_337:\n        /* \"#utility.yul\":8180:8243   */\n      swap2\n      pop\n        /* \"#utility.yul\":8136:8253   */\n      pop\n        /* \"#utility.yul\":7931:8260   */\n      swap3\n      swap2\n      pop\n      pop\n      jump\t// out\n        /* \"#utility.yul\":8266:8740   */\n    tag_18:\n        /* \"#utility.yul\":8334:8340   */\n      0x00\n        /* \"#utility.yul\":8342:8348   */\n      dup1\n        /* \"#utility.yul\":8391:8393   */\n      0x40\n        /* \"#utility.yul\":8379:8388   */\n      dup4\n        /* \"#utility.yul\":8370:8377   */\n      dup6\n        /* \"#utility.yul\":8366:8389   */\n      sub\n        /* \"#utility.yul\":8362:8394   */\n      slt\n        /* \"#utility.yul\":8359:8478   */\n      iszero\n      tag_339\n      jumpi\n        /* \"#utility.yul\":8397:8476   */\n      tag_340\n      tag_300\n      jump\t// in\n    tag_340:\n        /* \"#utility.yul\":8359:8478   */\n    tag_339:\n        /* \"#utility.yul\":8517:8518   */\n      0x00\n        /* \"#utility.yul\":8542:8595   */\n      tag_341\n        /* \"#utility.yul\":8587:8594   */\n      dup6\n        /* \"#utility.yul\":8578:8584   */\n      dup3\n        /* \"#utility.yul\":8567:8576   */\n      dup7\n        /* \"#utility.yul\":8563:8585   */\n      add\n        /* \"#utility.yul\":8542:8595   */\n      tag_268\n      jump\t// in\n    tag_341:\n        /* \"#utility.yul\":8532:8595   */\n      swap3\n      pop\n        /* \"#utility.yul\":8488:8605   */\n      pop\n        /* \"#utility.yul\":8644:8646   */\n      0x20\n        /* \"#utility.yul\":8670:8723   */\n      tag_342\n        /* \"#utility.yul\":8715:8722   */\n      dup6\n        /* \"#utility.yul\":8706:8712   */\n      dup3\n        /* \"#utility.yul\":8695:8704   */\n      dup7\n        /* \"#utility.yul\":8691:8713   */\n      add\n        /* \"#utility.yul\":8670:8723   */\n      tag_269\n      jump\t// in\n    tag_342:\n        /* \"#utility.yul\":8660:8723   */\n      swap2\n      pop\n        /* \"#utility.yul\":8615:8733   */\n      pop\n        /* \"#utility.yul\":8266:8740   */\n      swap3\n      pop\n      swap3\n      swap1\n      pop\n      jump\t// out\n        /* \"#utility.yul\":8746:8864   */\n    tag_343:\n        /* \"#utility.yul\":8833:8857   */\n      tag_345\n        /* \"#utility.yul\":8851:8856   */\n      dup2\n        /* \"#utility.yul\":8833:8857   */\n      tag_346\n      jump\t// in\n    tag_345:\n        /* \"#utility.yul\":8828:8831   */\n      dup3\n        /* \"#utility.yul\":8821:8858   */\n      mstore\n        /* \"#utility.yul\":8746:8864   */\n      pop\n      pop\n      jump\t// out\n        /* \"#utility.yul\":8870:9027   */\n    tag_347:\n        /* \"#utility.yul\":8975:9020   */\n      tag_349\n        /* \"#utility.yul\":8995:9019   */\n      tag_350\n        /* \"#utility.yul\":9013:9018   */\n      dup3\n        /* \"#utility.yul\":8995:9019   */\n      tag_346\n      jump\t// in\n    tag_350:\n        /* \"#utility.yul\":8975:9020   */\n      tag_351\n      jump\t// in\n    tag_349:\n        /* \"#utility.yul\":8970:8973   */\n      dup3\n        /* \"#utility.yul\":8963:9021   */\n      mstore\n        /* \"#utility.yul\":8870:9027   */\n      pop\n      pop\n      jump\t// out\n        /* \"#utility.yul\":9033:9142   */\n    tag_352:\n        /* \"#utility.yul\":9114:9135   */\n      tag_354\n        /* \"#utility.yul\":9129:9134   */\n      dup2\n        /* \"#utility.yul\":9114:9135   */\n      tag_355\n      jump\t// in\n    tag_354:\n        /* \"#utility.yul\":9109:9112   */\n      dup3\n        /* \"#utility.yul\":9102:9136   */\n      mstore\n        /* \"#utility.yul\":9033:9142   */\n      pop\n      pop\n      jump\t// out\n        /* \"#utility.yul\":9148:9266   */\n    tag_356:\n        /* \"#utility.yul\":9235:9259   */\n      tag_358\n        /* \"#utility.yul\":9253:9258   */\n      dup2\n        /* \"#utility.yul\":9235:9259   */\n      tag_359\n      jump\t// in\n    tag_358:\n        /* \"#utility.yul\":9230:9233   */\n      dup3\n        /* \"#utility.yul\":9223:9260   */\n      mstore\n        /* \"#utility.yul\":9148:9266   */\n      pop\n      pop\n      jump\t// out\n        /* \"#utility.yul\":9272:9645   */\n    tag_360:\n        /* \"#utility.yul\":9376:9379   */\n      0x00\n        /* \"#utility.yul\":9404:9442   */\n      tag_362\n        /* \"#utility.yul\":9436:9441   */\n      dup3\n        /* \"#utility.yul\":9404:9442   */\n      tag_363\n      jump\t// in\n    tag_362:\n        /* \"#utility.yul\":9458:9546   */\n      tag_364\n        /* \"#utility.yul\":9539:9545   */\n      dup2\n        /* \"#utility.yul\":9534:9537   */\n      dup6\n        /* \"#utility.yul\":9458:9546   */\n      tag_365\n      jump\t// in\n    tag_364:\n        /* \"#utility.yul\":9451:9546   */\n      swap4\n      pop\n        /* \"#utility.yul\":9555:9607   */\n      tag_366\n        /* \"#utility.yul\":9600:9606   */\n      dup2\n        /* \"#utility.yul\":9595:9598   */\n      dup6\n        /* \"#utility.yul\":9588:9592   */\n      0x20\n        /* \"#utility.yul\":9581:9586   */\n      dup7\n        /* \"#utility.yul\":9577:9593   */\n      add\n        /* \"#utility.yul\":9555:9607   */\n      tag_367\n      jump\t// in\n    tag_366:\n        /* \"#utility.yul\":9632:9638   */\n      dup1\n        /* \"#utility.yul\":9627:9630   */\n      dup5\n        /* \"#utility.yul\":9623:9639   */\n      add\n        /* \"#utility.yul\":9616:9639   */\n      swap2\n      pop\n        /* \"#utility.yul\":9380:9645   */\n      pop\n        /* \"#utility.yul\":9272:9645   */\n      swap3\n      swap2\n      pop\n      pop\n      jump\t// out\n        /* \"#utility.yul\":9651:9810   */\n    tag_368:\n        /* \"#utility.yul\":9752:9803   */\n      tag_370\n        /* \"#utility.yul\":9797:9802   */\n      dup2\n        /* \"#utility.yul\":9752:9803   */\n      tag_371\n      jump\t// in\n    tag_370:\n        /* \"#utility.yul\":9747:9750   */\n      dup3\n        /* \"#utility.yul\":9740:9804   */\n      mstore\n        /* \"#utility.yul\":9651:9810   */\n      pop\n      pop\n      jump\t// out\n        /* \"#utility.yul\":9816:10180   */\n    tag_372:\n        /* \"#utility.yul\":9904:9907   */\n      0x00\n        /* \"#utility.yul\":9932:9971   */\n      tag_374\n        /* \"#utility.yul\":9965:9970   */\n      dup3\n        /* \"#utility.yul\":9932:9971   */\n      tag_375\n      jump\t// in\n    tag_374:\n        /* \"#utility.yul\":9987:10058   */\n      tag_376\n        /* \"#utility.yul\":10051:10057   */\n      dup2\n        /* \"#utility.yul\":10046:10049   */\n      dup6\n        /* \"#utility.yul\":9987:10058   */\n      tag_377\n      jump\t// in\n    tag_376:\n        /* \"#utility.yul\":9980:10058   */\n      swap4\n      pop\n        /* \"#utility.yul\":10067:10119   */\n      tag_378\n        /* \"#utility.yul\":10112:10118   */\n      dup2\n        /* \"#utility.yul\":10107:10110   */\n      dup6\n        /* \"#utility.yul\":10100:10104   */\n      0x20\n        /* \"#utility.yul\":10093:10098   */\n      dup7\n        /* \"#utility.yul\":10089:10105   */\n      add\n        /* \"#utility.yul\":10067:10119   */\n      tag_367\n      jump\t// in\n    tag_378:\n        /* \"#utility.yul\":10144:10173   */\n      tag_379\n        /* \"#utility.yul\":10166:10172   */\n      dup2\n        /* \"#utility.yul\":10144:10173   */\n      tag_380\n      jump\t// in\n    tag_379:\n        /* \"#utility.yul\":10139:10142   */\n      dup5\n        /* \"#utility.yul\":10135:10174   */\n      add\n        /* \"#utility.yul\":10128:10174   */\n      swap2\n      pop\n        /* \"#utility.yul\":9908:10180   */\n      pop\n        /* \"#utility.yul\":9816:10180   */\n      swap3\n      swap2\n      pop\n      pop\n      jump\t// out\n        /* \"#utility.yul\":10186:10552   */\n    tag_381:\n        /* \"#utility.yul\":10328:10331   */\n      0x00\n        /* \"#utility.yul\":10349:10416   */\n      tag_383\n        /* \"#utility.yul\":10413:10415   */\n      0x1c\n        /* \"#utility.yul\":10408:10411   */\n      dup4\n        /* \"#utility.yul\":10349:10416   */\n      tag_377\n      jump\t// in\n    tag_383:\n        /* \"#utility.yul\":10342:10416   */\n      swap2\n      pop\n        /* \"#utility.yul\":10425:10518   */\n      tag_384\n        /* \"#utility.yul\":10514:10517   */\n      dup3\n        /* \"#utility.yul\":10425:10518   */\n      tag_385\n      jump\t// in\n    tag_384:\n        /* \"#utility.yul\":10543:10545   */\n      0x20\n        /* \"#utility.yul\":10538:10541   */\n      dup3\n        /* \"#utility.yul\":10534:10546   */\n      add\n        /* \"#utility.yul\":10527:10546   */\n      swap1\n      pop\n        /* \"#utility.yul\":10186:10552   */\n      swap2\n      swap1\n      pop\n      jump\t// out\n        /* \"#utility.yul\":10558:10924   */\n    tag_386:\n        /* \"#utility.yul\":10700:10703   */\n      0x00\n        /* \"#utility.yul\":10721:10788   */\n      tag_388\n        /* \"#utility.yul\":10785:10787   */\n      0x26\n        /* \"#utility.yul\":10780:10783   */\n      dup4\n        /* \"#utility.yul\":10721:10788   */\n      tag_377\n      jump\t// in\n    tag_388:\n        /* \"#utility.yul\":10714:10788   */\n      swap2\n      pop\n        /* \"#utility.yul\":10797:10890   */\n      tag_389\n        /* \"#utility.yul\":10886:10889   */\n      dup3\n        /* \"#utility.yul\":10797:10890   */\n      tag_390\n      jump\t// in\n    tag_389:\n        /* \"#utility.yul\":10915:10917   */\n      0x40\n        /* \"#utility.yul\":10910:10913   */\n      dup3\n        /* \"#utility.yul\":10906:10918   */\n      add\n        /* \"#utility.yul\":10899:10918   */\n      swap1\n      pop\n        /* \"#utility.yul\":10558:10924   */\n      swap2\n      swap1\n      pop\n      jump\t// out\n        /* \"#utility.yul\":10930:11296   */\n    tag_391:\n        /* \"#utility.yul\":11072:11075   */\n      0x00\n        /* \"#utility.yul\":11093:11160   */\n      tag_393\n        /* \"#utility.yul\":11157:11159   */\n      0x16\n        /* \"#utility.yul\":11152:11155   */\n      dup4\n        /* \"#utility.yul\":11093:11160   */\n      tag_377\n      jump\t// in\n    tag_393:\n        /* \"#utility.yul\":11086:11160   */\n      swap2\n      pop\n        /* \"#utility.yul\":11169:11262   */\n      tag_394\n        /* \"#utility.yul\":11258:11261   */\n      dup3\n        /* \"#utility.yul\":11169:11262   */\n      tag_395\n      jump\t// in\n    tag_394:\n        /* \"#utility.yul\":11287:11289   */\n      0x20\n        /* \"#utility.yul\":11282:11285   */\n      dup3\n        /* \"#utility.yul\":11278:11290   */\n      add\n        /* \"#utility.yul\":11271:11290   */\n      swap1\n      pop\n        /* \"#utility.yul\":10930:11296   */\n      swap2\n      swap1\n      pop\n      jump\t// out\n        /* \"#utility.yul\":11302:11668   */\n    tag_396:\n        /* \"#utility.yul\":11444:11447   */\n      0x00\n        /* \"#utility.yul\":11465:11532   */\n      tag_398\n        /* \"#utility.yul\":11529:11531   */\n      0x26\n        /* \"#utility.yul\":11524:11527   */\n      dup4\n        /* \"#utility.yul\":11465:11532   */\n      tag_377\n      jump\t// in\n    tag_398:\n        /* \"#utility.yul\":11458:11532   */\n      swap2\n      pop\n        /* \"#utility.yul\":11541:11634   */\n      tag_399\n        /* \"#utility.yul\":11630:11633   */\n      dup3\n        /* \"#utility.yul\":11541:11634   */\n      tag_400\n      jump\t// in\n    tag_399:\n        /* \"#utility.yul\":11659:11661   */\n      0x40\n        /* \"#utility.yul\":11654:11657   */\n      dup3\n        /* \"#utility.yul\":11650:11662   */\n      add\n        /* \"#utility.yul\":11643:11662   */\n      swap1\n      pop\n        /* \"#utility.yul\":11302:11668   */\n      swap2\n      swap1\n      pop\n      jump\t// out\n        /* \"#utility.yul\":11674:12040   */\n    tag_401:\n        /* \"#utility.yul\":11816:11819   */\n      0x00\n        /* \"#utility.yul\":11837:11904   */\n      tag_403\n        /* \"#utility.yul\":11901:11903   */\n      0x20\n        /* \"#utility.yul\":11896:11899   */\n      dup4\n        /* \"#utility.yul\":11837:11904   */\n      tag_377\n      jump\t// in\n    tag_403:\n        /* \"#utility.yul\":11830:11904   */\n      swap2\n      pop\n        /* \"#utility.yul\":11913:12006   */\n      tag_404\n        /* \"#utility.yul\":12002:12005   */\n      dup3\n        /* \"#utility.yul\":11913:12006   */\n      tag_405\n      jump\t// in\n    tag_404:\n        /* \"#utility.yul\":12031:12033   */\n      0x20\n        /* \"#utility.yul\":12026:12029   */\n      dup3\n        /* \"#utility.yul\":12022:12034   */\n      add\n        /* \"#utility.yul\":12015:12034   */\n      swap1\n      pop\n        /* \"#utility.yul\":11674:12040   */\n      swap2\n      swap1\n      pop\n      jump\t// out\n        /* \"#utility.yul\":12046:12412   */\n    tag_406:\n        /* \"#utility.yul\":12188:12191   */\n      0x00\n        /* \"#utility.yul\":12209:12276   */\n      tag_408\n        /* \"#utility.yul\":12273:12275   */\n      0x3d\n        /* \"#utility.yul\":12268:12271   */\n      dup4\n        /* \"#utility.yul\":12209:12276   */\n      tag_377\n      jump\t// in\n    tag_408:\n        /* \"#utility.yul\":12202:12276   */\n      swap2\n      pop\n        /* \"#utility.yul\":12285:12378   */\n      tag_409\n        /* \"#utility.yul\":12374:12377   */\n      dup3\n        /* \"#utility.yul\":12285:12378   */\n      tag_410\n      jump\t// in\n    tag_409:\n        /* \"#utility.yul\":12403:12405   */\n      0x40\n        /* \"#utility.yul\":12398:12401   */\n      dup3\n        /* \"#utility.yul\":12394:12406   */\n      add\n        /* \"#utility.yul\":12387:12406   */\n      swap1\n      pop\n        /* \"#utility.yul\":12046:12412   */\n      swap2\n      swap1\n      pop\n      jump\t// out\n        /* \"#utility.yul\":12418:12784   */\n    tag_411:\n        /* \"#utility.yul\":12560:12563   */\n      0x00\n        /* \"#utility.yul\":12581:12648   */\n      tag_413\n        /* \"#utility.yul\":12645:12647   */\n      0x16\n        /* \"#utility.yul\":12640:12643   */\n      dup4\n        /* \"#utility.yul\":12581:12648   */\n      tag_377\n      jump\t// in\n    tag_413:\n        /* \"#utility.yul\":12574:12648   */\n      swap2\n      pop\n        /* \"#utility.yul\":12657:12750   */\n      tag_414\n        /* \"#utility.yul\":12746:12749   */\n      dup3\n        /* \"#utility.yul\":12657:12750   */\n      tag_415\n      jump\t// in\n    tag_414:\n        /* \"#utility.yul\":12775:12777   */\n      0x20\n        /* \"#utility.yul\":12770:12773   */\n      dup3\n        /* \"#utility.yul\":12766:12778   */\n      add\n        /* \"#utility.yul\":12759:12778   */\n      swap1\n      pop\n        /* \"#utility.yul\":12418:12784   */\n      swap2\n      swap1\n      pop\n      jump\t// out\n        /* \"#utility.yul\":12790:13156   */\n    tag_416:\n        /* \"#utility.yul\":12932:12935   */\n      0x00\n        /* \"#utility.yul\":12953:13020   */\n      tag_418\n        /* \"#utility.yul\":13017:13019   */\n      0x1d\n        /* \"#utility.yul\":13012:13015   */\n      dup4\n        /* \"#utility.yul\":12953:13020   */\n      tag_377\n      jump\t// in\n    tag_418:\n        /* \"#utility.yul\":12946:13020   */\n      swap2\n      pop\n        /* \"#utility.yul\":13029:13122   */\n      tag_419\n        /* \"#utility.yul\":13118:13121   */\n      dup3\n        /* \"#utility.yul\":13029:13122   */\n      tag_420\n      jump\t// in\n    tag_419:\n        /* \"#utility.yul\":13147:13149   */\n      0x20\n        /* \"#utility.yul\":13142:13145   */\n      dup3\n        /* \"#utility.yul\":13138:13150   */\n      add\n        /* \"#utility.yul\":13131:13150   */\n      swap1\n      pop\n        /* \"#utility.yul\":12790:13156   */\n      swap2\n      swap1\n      pop\n      jump\t// out\n        /* \"#utility.yul\":13162:13528   */\n    tag_421:\n        /* \"#utility.yul\":13304:13307   */\n      0x00\n        /* \"#utility.yul\":13325:13392   */\n      tag_423\n        /* \"#utility.yul\":13389:13391   */\n      0x12\n        /* \"#utility.yul\":13384:13387   */\n      dup4\n        /* \"#utility.yul\":13325:13392   */\n      tag_377\n      jump\t// in\n    tag_423:\n        /* \"#utility.yul\":13318:13392   */\n      swap2\n      pop\n        /* \"#utility.yul\":13401:13494   */\n      tag_424\n        /* \"#utility.yul\":13490:13493   */\n      dup3\n        /* \"#utility.yul\":13401:13494   */\n      tag_425\n      jump\t// in\n    tag_424:\n        /* \"#utility.yul\":13519:13521   */\n      0x20\n        /* \"#utility.yul\":13514:13517   */\n      dup3\n        /* \"#utility.yul\":13510:13522   */\n      add\n        /* \"#utility.yul\":13503:13522   */\n      swap1\n      pop\n        /* \"#utility.yul\":13162:13528   */\n      swap2\n      swap1\n      pop\n      jump\t// out\n        /* \"#utility.yul\":13534:13900   */\n    tag_426:\n        /* \"#utility.yul\":13676:13679   */\n      0x00\n        /* \"#utility.yul\":13697:13764   */\n      tag_428\n        /* \"#utility.yul\":13761:13763   */\n      0x2a\n        /* \"#utility.yul\":13756:13759   */\n      dup4\n        /* \"#utility.yul\":13697:13764   */\n      tag_377\n      jump\t// in\n    tag_428:\n        /* \"#utility.yul\":13690:13764   */\n      swap2\n      pop\n        /* \"#utility.yul\":13773:13866   */\n      tag_429\n        /* \"#utility.yul\":13862:13865   */\n      dup3\n        /* \"#utility.yul\":13773:13866   */\n      tag_430\n      jump\t// in\n    tag_429:\n        /* \"#utility.yul\":13891:13893   */\n      0x40\n        /* \"#utility.yul\":13886:13889   */\n      dup3\n        /* \"#utility.yul\":13882:13894   */\n      add\n        /* \"#utility.yul\":13875:13894   */\n      swap1\n      pop\n        /* \"#utility.yul\":13534:13900   */\n      swap2\n      swap1\n      pop\n      jump\t// out\n        /* \"#utility.yul\":13906:14024   */\n    tag_431:\n        /* \"#utility.yul\":13993:14017   */\n      tag_433\n        /* \"#utility.yul\":14011:14016   */\n      dup2\n        /* \"#utility.yul\":13993:14017   */\n      tag_434\n      jump\t// in\n    tag_433:\n        /* \"#utility.yul\":13988:13991   */\n      dup3\n        /* \"#utility.yul\":13981:14018   */\n      mstore\n        /* \"#utility.yul\":13906:14024   */\n      pop\n      pop\n      jump\t// out\n        /* \"#utility.yul\":14030:14187   */\n    tag_435:\n        /* \"#utility.yul\":14135:14180   */\n      tag_437\n        /* \"#utility.yul\":14155:14179   */\n      tag_438\n        /* \"#utility.yul\":14173:14178   */\n      dup3\n        /* \"#utility.yul\":14155:14179   */\n      tag_434\n      jump\t// in\n    tag_438:\n        /* \"#utility.yul\":14135:14180   */\n      tag_439\n      jump\t// in\n    tag_437:\n        /* \"#utility.yul\":14130:14133   */\n      dup3\n        /* \"#utility.yul\":14123:14181   */\n      mstore\n        /* \"#utility.yul\":14030:14187   */\n      pop\n      pop\n      jump\t// out\n        /* \"#utility.yul\":14193:14590   */\n    tag_168:\n        /* \"#utility.yul\":14333:14336   */\n      0x00\n        /* \"#utility.yul\":14348:14423   */\n      tag_441\n        /* \"#utility.yul\":14419:14422   */\n      dup3\n        /* \"#utility.yul\":14410:14416   */\n      dup6\n        /* \"#utility.yul\":14348:14423   */\n      tag_347\n      jump\t// in\n    tag_441:\n        /* \"#utility.yul\":14448:14450   */\n      0x14\n        /* \"#utility.yul\":14443:14446   */\n      dup3\n        /* \"#utility.yul\":14439:14451   */\n      add\n        /* \"#utility.yul\":14432:14451   */\n      swap2\n      pop\n        /* \"#utility.yul\":14461:14536   */\n      tag_442\n        /* \"#utility.yul\":14532:14535   */\n      dup3\n        /* \"#utility.yul\":14523:14529   */\n      dup5\n        /* \"#utility.yul\":14461:14536   */\n      tag_435\n      jump\t// in\n    tag_442:\n        /* \"#utility.yul\":14561:14563   */\n      0x20\n        /* \"#utility.yul\":14556:14559   */\n      dup3\n        /* \"#utility.yul\":14552:14564   */\n      add\n        /* \"#utility.yul\":14545:14564   */\n      swap2\n      pop\n        /* \"#utility.yul\":14581:14584   */\n      dup2\n        /* \"#utility.yul\":14574:14584   */\n      swap1\n      pop\n        /* \"#utility.yul\":14193:14590   */\n      swap4\n      swap3\n      pop\n      pop\n      pop\n      jump\t// out\n        /* \"#utility.yul\":14596:14867   */\n    tag_212:\n        /* \"#utility.yul\":14726:14729   */\n      0x00\n        /* \"#utility.yul\":14748:14841   */\n      tag_444\n        /* \"#utility.yul\":14837:14840   */\n      dup3\n        /* \"#utility.yul\":14828:14834   */\n      dup5\n        /* \"#utility.yul\":14748:14841   */\n      tag_360\n      jump\t// in\n    tag_444:\n        /* \"#utility.yul\":14741:14841   */\n      swap2\n      pop\n        /* \"#utility.yul\":14858:14861   */\n      dup2\n        /* \"#utility.yul\":14851:14861   */\n      swap1\n      pop\n        /* \"#utility.yul\":14596:14867   */\n      swap3\n      swap2\n      pop\n      pop\n      jump\t// out\n        /* \"#utility.yul\":14873:15095   */\n    tag_43:\n        /* \"#utility.yul\":14966:14970   */\n      0x00\n        /* \"#utility.yul\":15004:15006   */\n      0x20\n        /* \"#utility.yul\":14993:15002   */\n      dup3\n        /* \"#utility.yul\":14989:15007   */\n      add\n        /* \"#utility.yul\":14981:15007   */\n      swap1\n      pop\n        /* \"#utility.yul\":15017:15088   */\n      tag_446\n        /* \"#utility.yul\":15085:15086   */\n      0x00\n        /* \"#utility.yul\":15074:15083   */\n      dup4\n        /* \"#utility.yul\":15070:15087   */\n      add\n        /* \"#utility.yul\":15061:15067   */\n      dup5\n        /* \"#utility.yul\":15017:15088   */\n      tag_343\n      jump\t// in\n    tag_446:\n        /* \"#utility.yul\":14873:15095   */\n      swap3\n      swap2\n      pop\n      pop\n      jump\t// out\n        /* \"#utility.yul\":15101:15543   */\n    tag_160:\n        /* \"#utility.yul\":15250:15254   */\n      0x00\n        /* \"#utility.yul\":15288:15290   */\n      0x60\n        /* \"#utility.yul\":15277:15286   */\n      dup3\n        /* \"#utility.yul\":15273:15291   */\n      add\n        /* \"#utility.yul\":15265:15291   */\n      swap1\n      pop\n        /* \"#utility.yul\":15301:15372   */\n      tag_448\n        /* \"#utility.yul\":15369:15370   */\n      0x00\n        /* \"#utility.yul\":15358:15367   */\n      dup4\n        /* \"#utility.yul\":15354:15371   */\n      add\n        /* \"#utility.yul\":15345:15351   */\n      dup7\n        /* \"#utility.yul\":15301:15372   */\n      tag_343\n      jump\t// in\n    tag_448:\n        /* \"#utility.yul\":15382:15454   */\n      tag_449\n        /* \"#utility.yul\":15450:15452   */\n      0x20\n        /* \"#utility.yul\":15439:15448   */\n      dup4\n        /* \"#utility.yul\":15435:15453   */\n      add\n        /* \"#utility.yul\":15426:15432   */\n      dup6\n        /* \"#utility.yul\":15382:15454   */\n      tag_343\n      jump\t// in\n    tag_449:\n        /* \"#utility.yul\":15464:15536   */\n      tag_450\n        /* \"#utility.yul\":15532:15534   */\n      0x40\n        /* \"#utility.yul\":15521:15530   */\n      dup4\n        /* \"#utility.yul\":15517:15535   */\n      add\n        /* \"#utility.yul\":15508:15514   */\n      dup5\n        /* \"#utility.yul\":15464:15536   */\n      tag_431\n      jump\t// in\n    tag_450:\n        /* \"#utility.yul\":15101:15543   */\n      swap5\n      swap4\n      pop\n      pop\n      pop\n      pop\n      jump\t// out\n        /* \"#utility.yul\":15549:15881   */\n    tag_174:\n        /* \"#utility.yul\":15670:15674   */\n      0x00\n        /* \"#utility.yul\":15708:15710   */\n      0x40\n        /* \"#utility.yul\":15697:15706   */\n      dup3\n        /* \"#utility.yul\":15693:15711   */\n      add\n        /* \"#utility.yul\":15685:15711   */\n      swap1\n      pop\n        /* \"#utility.yul\":15721:15792   */\n      tag_452\n        /* \"#utility.yul\":15789:15790   */\n      0x00\n        /* \"#utility.yul\":15778:15787   */\n      dup4\n        /* \"#utility.yul\":15774:15791   */\n      add\n        /* \"#utility.yul\":15765:15771   */\n      dup6\n        /* \"#utility.yul\":15721:15792   */\n      tag_343\n      jump\t// in\n    tag_452:\n        /* \"#utility.yul\":15802:15874   */\n      tag_453\n        /* \"#utility.yul\":15870:15872   */\n      0x20\n        /* \"#utility.yul\":15859:15868   */\n      dup4\n        /* \"#utility.yul\":15855:15873   */\n      add\n        /* \"#utility.yul\":15846:15852   */\n      dup5\n        /* \"#utility.yul\":15802:15874   */\n      tag_431\n      jump\t// in\n    tag_453:\n        /* \"#utility.yul\":15549:15881   */\n      swap4\n      swap3\n      pop\n      pop\n      pop\n      jump\t// out\n        /* \"#utility.yul\":15887:16329   */\n    tag_148:\n        /* \"#utility.yul\":16036:16040   */\n      0x00\n        /* \"#utility.yul\":16074:16076   */\n      0x60\n        /* \"#utility.yul\":16063:16072   */\n      dup3\n        /* \"#utility.yul\":16059:16077   */\n      add\n        /* \"#utility.yul\":16051:16077   */\n      swap1\n      pop\n        /* \"#utility.yul\":16087:16158   */\n      tag_455\n        /* \"#utility.yul\":16155:16156   */\n      0x00\n        /* \"#utility.yul\":16144:16153   */\n      dup4\n        /* \"#utility.yul\":16140:16157   */\n      add\n        /* \"#utility.yul\":16131:16137   */\n      dup7\n        /* \"#utility.yul\":16087:16158   */\n      tag_343\n      jump\t// in\n    tag_455:\n        /* \"#utility.yul\":16168:16240   */\n      tag_456\n        /* \"#utility.yul\":16236:16238   */\n      0x20\n        /* \"#utility.yul\":16225:16234   */\n      dup4\n        /* \"#utility.yul\":16221:16239   */\n      add\n        /* \"#utility.yul\":16212:16218   */\n      dup6\n        /* \"#utility.yul\":16168:16240   */\n      tag_431\n      jump\t// in\n    tag_456:\n        /* \"#utility.yul\":16250:16322   */\n      tag_457\n        /* \"#utility.yul\":16318:16320   */\n      0x40\n        /* \"#utility.yul\":16307:16316   */\n      dup4\n        /* \"#utility.yul\":16303:16321   */\n      add\n        /* \"#utility.yul\":16294:16300   */\n      dup5\n        /* \"#utility.yul\":16250:16322   */\n      tag_431\n      jump\t// in\n    tag_457:\n        /* \"#utility.yul\":15887:16329   */\n      swap5\n      swap4\n      pop\n      pop\n      pop\n      pop\n      jump\t// out\n        /* \"#utility.yul\":16335:16545   */\n    tag_21:\n        /* \"#utility.yul\":16422:16426   */\n      0x00\n        /* \"#utility.yul\":16460:16462   */\n      0x20\n        /* \"#utility.yul\":16449:16458   */\n      dup3\n        /* \"#utility.yul\":16445:16463   */\n      add\n        /* \"#utility.yul\":16437:16463   */\n      swap1\n      pop\n        /* \"#utility.yul\":16473:16538   */\n      tag_459\n        /* \"#utility.yul\":16535:16536   */\n      0x00\n        /* \"#utility.yul\":16524:16533   */\n      dup4\n        /* \"#utility.yul\":16520:16537   */\n      add\n        /* \"#utility.yul\":16511:16517   */\n      dup5\n        /* \"#utility.yul\":16473:16538   */\n      tag_352\n      jump\t// in\n    tag_459:\n        /* \"#utility.yul\":16335:16545   */\n      swap3\n      swap2\n      pop\n      pop\n      jump\t// out\n        /* \"#utility.yul\":16551:16773   */\n    tag_39:\n        /* \"#utility.yul\":16644:16648   */\n      0x00\n        /* \"#utility.yul\":16682:16684   */\n      0x20\n        /* \"#utility.yul\":16671:16680   */\n      dup3\n        /* \"#utility.yul\":16667:16685   */\n      add\n        /* \"#utility.yul\":16659:16685   */\n      swap1\n      pop\n        /* \"#utility.yul\":16695:16766   */\n      tag_461\n        /* \"#utility.yul\":16763:16764   */\n      0x00\n        /* \"#utility.yul\":16752:16761   */\n      dup4\n        /* \"#utility.yul\":16748:16765   */\n      add\n        /* \"#utility.yul\":16739:16745   */\n      dup5\n        /* \"#utility.yul\":16695:16766   */\n      tag_356\n      jump\t// in\n    tag_461:\n        /* \"#utility.yul\":16551:16773   */\n      swap3\n      swap2\n      pop\n      pop\n      jump\t// out\n        /* \"#utility.yul\":16779:17029   */\n    tag_65:\n        /* \"#utility.yul\":16886:16890   */\n      0x00\n        /* \"#utility.yul\":16924:16926   */\n      0x20\n        /* \"#utility.yul\":16913:16922   */\n      dup3\n        /* \"#utility.yul\":16909:16927   */\n      add\n        /* \"#utility.yul\":16901:16927   */\n      swap1\n      pop\n        /* \"#utility.yul\":16937:17022   */\n      tag_463\n        /* \"#utility.yul\":17019:17020   */\n      0x00\n        /* \"#utility.yul\":17008:17017   */\n      dup4\n        /* \"#utility.yul\":17004:17021   */\n      add\n        /* \"#utility.yul\":16995:17001   */\n      dup5\n        /* \"#utility.yul\":16937:17022   */\n      tag_368\n      jump\t// in\n    tag_463:\n        /* \"#utility.yul\":16779:17029   */\n      swap3\n      swap2\n      pop\n      pop\n      jump\t// out\n        /* \"#utility.yul\":17035:17348   */\n    tag_226:\n        /* \"#utility.yul\":17148:17152   */\n      0x00\n        /* \"#utility.yul\":17186:17188   */\n      0x20\n        /* \"#utility.yul\":17175:17184   */\n      dup3\n        /* \"#utility.yul\":17171:17189   */\n      add\n        /* \"#utility.yul\":17163:17189   */\n      swap1\n      pop\n        /* \"#utility.yul\":17235:17244   */\n      dup2\n        /* \"#utility.yul\":17229:17233   */\n      dup2\n        /* \"#utility.yul\":17225:17245   */\n      sub\n        /* \"#utility.yul\":17221:17222   */\n      0x00\n        /* \"#utility.yul\":17210:17219   */\n      dup4\n        /* \"#utility.yul\":17206:17223   */\n      add\n        /* \"#utility.yul\":17199:17246   */\n      mstore\n        /* \"#utility.yul\":17263:17341   */\n      tag_465\n        /* \"#utility.yul\":17336:17340   */\n      dup2\n        /* \"#utility.yul\":17327:17333   */\n      dup5\n        /* \"#utility.yul\":17263:17341   */\n      tag_372\n      jump\t// in\n    tag_465:\n        /* \"#utility.yul\":17255:17341   */\n      swap1\n      pop\n        /* \"#utility.yul\":17035:17348   */\n      swap3\n      swap2\n      pop\n      pop\n      jump\t// out\n        /* \"#utility.yul\":17354:17773   */\n    tag_139:\n        /* \"#utility.yul\":17520:17524   */\n      0x00\n        /* \"#utility.yul\":17558:17560   */\n      0x20\n        /* \"#utility.yul\":17547:17556   */\n      dup3\n        /* \"#utility.yul\":17543:17561   */\n      add\n        /* \"#utility.yul\":17535:17561   */\n      swap1\n      pop\n        /* \"#utility.yul\":17607:17616   */\n      dup2\n        /* \"#utility.yul\":17601:17605   */\n      dup2\n        /* \"#utility.yul\":17597:17617   */\n      sub\n        /* \"#utility.yul\":17593:17594   */\n      0x00\n        /* \"#utility.yul\":17582:17591   */\n      dup4\n        /* \"#utility.yul\":17578:17595   */\n      add\n        /* \"#utility.yul\":17571:17618   */\n      mstore\n        /* \"#utility.yul\":17635:17766   */\n      tag_467\n        /* \"#utility.yul\":17761:17765   */\n      dup2\n        /* \"#utility.yul\":17635:17766   */\n      tag_381\n      jump\t// in\n    tag_467:\n        /* \"#utility.yul\":17627:17766   */\n      swap1\n      pop\n        /* \"#utility.yul\":17354:17773   */\n      swap2\n      swap1\n      pop\n      jump\t// out\n        /* \"#utility.yul\":17779:18198   */\n    tag_134:\n        /* \"#utility.yul\":17945:17949   */\n      0x00\n        /* \"#utility.yul\":17983:17985   */\n      0x20\n        /* \"#utility.yul\":17972:17981   */\n      dup3\n        /* \"#utility.yul\":17968:17986   */\n      add\n        /* \"#utility.yul\":17960:17986   */\n      swap1\n      pop\n        /* \"#utility.yul\":18032:18041   */\n      dup2\n        /* \"#utility.yul\":18026:18030   */\n      dup2\n        /* \"#utility.yul\":18022:18042   */\n      sub\n        /* \"#utility.yul\":18018:18019   */\n      0x00\n        /* \"#utility.yul\":18007:18016   */\n      dup4\n        /* \"#utility.yul\":18003:18020   */\n      add\n        /* \"#utility.yul\":17996:18043   */\n      mstore\n        /* \"#utility.yul\":18060:18191   */\n      tag_469\n        /* \"#utility.yul\":18186:18190   */\n      dup2\n        /* \"#utility.yul\":18060:18191   */\n      tag_386\n      jump\t// in\n    tag_469:\n        /* \"#utility.yul\":18052:18191   */\n      swap1\n      pop\n        /* \"#utility.yul\":17779:18198   */\n      swap2\n      swap1\n      pop\n      jump\t// out\n        /* \"#utility.yul\":18204:18623   */\n    tag_146:\n        /* \"#utility.yul\":18370:18374   */\n      0x00\n        /* \"#utility.yul\":18408:18410   */\n      0x20\n        /* \"#utility.yul\":18397:18406   */\n      dup3\n        /* \"#utility.yul\":18393:18411   */\n      add\n        /* \"#utility.yul\":18385:18411   */\n      swap1\n      pop\n        /* \"#utility.yul\":18457:18466   */\n      dup2\n        /* \"#utility.yul\":18451:18455   */\n      dup2\n        /* \"#utility.yul\":18447:18467   */\n      sub\n        /* \"#utility.yul\":18443:18444   */\n      0x00\n        /* \"#utility.yul\":18432:18441   */\n      dup4\n        /* \"#utility.yul\":18428:18445   */\n      add\n        /* \"#utility.yul\":18421:18468   */\n      mstore\n        /* \"#utility.yul\":18485:18616   */\n      tag_471\n        /* \"#utility.yul\":18611:18615   */\n      dup2\n        /* \"#utility.yul\":18485:18616   */\n      tag_391\n      jump\t// in\n    tag_471:\n        /* \"#utility.yul\":18477:18616   */\n      swap1\n      pop\n        /* \"#utility.yul\":18204:18623   */\n      swap2\n      swap1\n      pop\n      jump\t// out\n        /* \"#utility.yul\":18629:19048   */\n    tag_205:\n        /* \"#utility.yul\":18795:18799   */\n      0x00\n        /* \"#utility.yul\":18833:18835   */\n      0x20\n        /* \"#utility.yul\":18822:18831   */\n      dup3\n        /* \"#utility.yul\":18818:18836   */\n      add\n        /* \"#utility.yul\":18810:18836   */\n      swap1\n      pop\n        /* \"#utility.yul\":18882:18891   */\n      dup2\n        /* \"#utility.yul\":18876:18880   */\n      dup2\n        /* \"#utility.yul\":18872:18892   */\n      sub\n        /* \"#utility.yul\":18868:18869   */\n      0x00\n        /* \"#utility.yul\":18857:18866   */\n      dup4\n        /* \"#utility.yul\":18853:18870   */\n      add\n        /* \"#utility.yul\":18846:18893   */\n      mstore\n        /* \"#utility.yul\":18910:19041   */\n      tag_473\n        /* \"#utility.yul\":19036:19040   */\n      dup2\n        /* \"#utility.yul\":18910:19041   */\n      tag_396\n      jump\t// in\n    tag_473:\n        /* \"#utility.yul\":18902:19041   */\n      swap1\n      pop\n        /* \"#utility.yul\":18629:19048   */\n      swap2\n      swap1\n      pop\n      jump\t// out\n        /* \"#utility.yul\":19054:19473   */\n    tag_77:\n        /* \"#utility.yul\":19220:19224   */\n      0x00\n        /* \"#utility.yul\":19258:19260   */\n      0x20\n        /* \"#utility.yul\":19247:19256   */\n      dup3\n        /* \"#utility.yul\":19243:19261   */\n      add\n        /* \"#utility.yul\":19235:19261   */\n      swap1\n      pop\n        /* \"#utility.yul\":19307:19316   */\n      dup2\n        /* \"#utility.yul\":19301:19305   */\n      dup2\n        /* \"#utility.yul\":19297:19317   */\n      sub\n        /* \"#utility.yul\":19293:19294   */\n      0x00\n        /* \"#utility.yul\":19282:19291   */\n      dup4\n        /* \"#utility.yul\":19278:19295   */\n      add\n        /* \"#utility.yul\":19271:19318   */\n      mstore\n        /* \"#utility.yul\":19335:19466   */\n      tag_475\n        /* \"#utility.yul\":19461:19465   */\n      dup2\n        /* \"#utility.yul\":19335:19466   */\n      tag_401\n      jump\t// in\n    tag_475:\n        /* \"#utility.yul\":19327:19466   */\n      swap1\n      pop\n        /* \"#utility.yul\":19054:19473   */\n      swap2\n      swap1\n      pop\n      jump\t// out\n        /* \"#utility.yul\":19479:19898   */\n    tag_155:\n        /* \"#utility.yul\":19645:19649   */\n      0x00\n        /* \"#utility.yul\":19683:19685   */\n      0x20\n        /* \"#utility.yul\":19672:19681   */\n      dup3\n        /* \"#utility.yul\":19668:19686   */\n      add\n        /* \"#utility.yul\":19660:19686   */\n      swap1\n      pop\n        /* \"#utility.yul\":19732:19741   */\n      dup2\n        /* \"#utility.yul\":19726:19730   */\n      dup2\n        /* \"#utility.yul\":19722:19742   */\n      sub\n        /* \"#utility.yul\":19718:19719   */\n      0x00\n        /* \"#utility.yul\":19707:19716   */\n      dup4\n        /* \"#utility.yul\":19703:19720   */\n      add\n        /* \"#utility.yul\":19696:19743   */\n      mstore\n        /* \"#utility.yul\":19760:19891   */\n      tag_477\n        /* \"#utility.yul\":19886:19890   */\n      dup2\n        /* \"#utility.yul\":19760:19891   */\n      tag_406\n      jump\t// in\n    tag_477:\n        /* \"#utility.yul\":19752:19891   */\n      swap1\n      pop\n        /* \"#utility.yul\":19479:19898   */\n      swap2\n      swap1\n      pop\n      jump\t// out\n        /* \"#utility.yul\":19904:20323   */\n    tag_142:\n        /* \"#utility.yul\":20070:20074   */\n      0x00\n        /* \"#utility.yul\":20108:20110   */\n      0x20\n        /* \"#utility.yul\":20097:20106   */\n      dup3\n        /* \"#utility.yul\":20093:20111   */\n      add\n        /* \"#utility.yul\":20085:20111   */\n      swap1\n      pop\n        /* \"#utility.yul\":20157:20166   */\n      dup2\n        /* \"#utility.yul\":20151:20155   */\n      dup2\n        /* \"#utility.yul\":20147:20167   */\n      sub\n        /* \"#utility.yul\":20143:20144   */\n      0x00\n        /* \"#utility.yul\":20132:20141   */\n      dup4\n        /* \"#utility.yul\":20128:20145   */\n      add\n        /* \"#utility.yul\":20121:20168   */\n      mstore\n        /* \"#utility.yul\":20185:20316   */\n      tag_479\n        /* \"#utility.yul\":20311:20315   */\n      dup2\n        /* \"#utility.yul\":20185:20316   */\n      tag_411\n      jump\t// in\n    tag_479:\n        /* \"#utility.yul\":20177:20316   */\n      swap1\n      pop\n        /* \"#utility.yul\":19904:20323   */\n      swap2\n      swap1\n      pop\n      jump\t// out\n        /* \"#utility.yul\":20329:20748   */\n    tag_210:\n        /* \"#utility.yul\":20495:20499   */\n      0x00\n        /* \"#utility.yul\":20533:20535   */\n      0x20\n        /* \"#utility.yul\":20522:20531   */\n      dup3\n        /* \"#utility.yul\":20518:20536   */\n      add\n        /* \"#utility.yul\":20510:20536   */\n      swap1\n      pop\n        /* \"#utility.yul\":20582:20591   */\n      dup2\n        /* \"#utility.yul\":20576:20580   */\n      dup2\n        /* \"#utility.yul\":20572:20592   */\n      sub\n        /* \"#utility.yul\":20568:20569   */\n      0x00\n        /* \"#utility.yul\":20557:20566   */\n      dup4\n        /* \"#utility.yul\":20553:20570   */\n      add\n        /* \"#utility.yul\":20546:20593   */\n      mstore\n        /* \"#utility.yul\":20610:20741   */\n      tag_481\n        /* \"#utility.yul\":20736:20740   */\n      dup2\n        /* \"#utility.yul\":20610:20741   */\n      tag_416\n      jump\t// in\n    tag_481:\n        /* \"#utility.yul\":20602:20741   */\n      swap1\n      pop\n        /* \"#utility.yul\":20329:20748   */\n      swap2\n      swap1\n      pop\n      jump\t// out\n        /* \"#utility.yul\":20754:21173   */\n    tag_98:\n        /* \"#utility.yul\":20920:20924   */\n      0x00\n        /* \"#utility.yul\":20958:20960   */\n      0x20\n        /* \"#utility.yul\":20947:20956   */\n      dup3\n        /* \"#utility.yul\":20943:20961   */\n      add\n        /* \"#utility.yul\":20935:20961   */\n      swap1\n      pop\n        /* \"#utility.yul\":21007:21016   */\n      dup2\n        /* \"#utility.yul\":21001:21005   */\n      dup2\n        /* \"#utility.yul\":20997:21017   */\n      sub\n        /* \"#utility.yul\":20993:20994   */\n      0x00\n        /* \"#utility.yul\":20982:20991   */\n      dup4\n        /* \"#utility.yul\":20978:20995   */\n      add\n        /* \"#utility.yul\":20971:21018   */\n      mstore\n        /* \"#utility.yul\":21035:21166   */\n      tag_483\n        /* \"#utility.yul\":21161:21165   */\n      dup2\n        /* \"#utility.yul\":21035:21166   */\n      tag_421\n      jump\t// in\n    tag_483:\n        /* \"#utility.yul\":21027:21166   */\n      swap1\n      pop\n        /* \"#utility.yul\":20754:21173   */\n      swap2\n      swap1\n      pop\n      jump\t// out\n        /* \"#utility.yul\":21179:21598   */\n    tag_183:\n        /* \"#utility.yul\":21345:21349   */\n      0x00\n        /* \"#utility.yul\":21383:21385   */\n      0x20\n        /* \"#utility.yul\":21372:21381   */\n      dup3\n        /* \"#utility.yul\":21368:21386   */\n      add\n        /* \"#utility.yul\":21360:21386   */\n      swap1\n      pop\n        /* \"#utility.yul\":21432:21441   */\n      dup2\n        /* \"#utility.yul\":21426:21430   */\n      dup2\n        /* \"#utility.yul\":21422:21442   */\n      sub\n        /* \"#utility.yul\":21418:21419   */\n      0x00\n        /* \"#utility.yul\":21407:21416   */\n      dup4\n        /* \"#utility.yul\":21403:21420   */\n      add\n        /* \"#utility.yul\":21396:21443   */\n      mstore\n        /* \"#utility.yul\":21460:21591   */\n      tag_485\n        /* \"#utility.yul\":21586:21590   */\n      dup2\n        /* \"#utility.yul\":21460:21591   */\n      tag_426\n      jump\t// in\n    tag_485:\n        /* \"#utility.yul\":21452:21591   */\n      swap1\n      pop\n        /* \"#utility.yul\":21179:21598   */\n      swap2\n      swap1\n      pop\n      jump\t// out\n        /* \"#utility.yul\":21604:21826   */\n    tag_31:\n        /* \"#utility.yul\":21697:21701   */\n      0x00\n        /* \"#utility.yul\":21735:21737   */\n      0x20\n        /* \"#utility.yul\":21724:21733   */\n      dup3\n        /* \"#utility.yul\":21720:21738   */\n      add\n        /* \"#utility.yul\":21712:21738   */\n      swap1\n      pop\n        /* \"#utility.yul\":21748:21819   */\n      tag_487\n        /* \"#utility.yul\":21816:21817   */\n      0x00\n        /* \"#utility.yul\":21805:21814   */\n      dup4\n        /* \"#utility.yul\":21801:21818   */\n      add\n        /* \"#utility.yul\":21792:21798   */\n      dup5\n        /* \"#utility.yul\":21748:21819   */\n      tag_431\n      jump\t// in\n    tag_487:\n        /* \"#utility.yul\":21604:21826   */\n      swap3\n      swap2\n      pop\n      pop\n      jump\t// out\n        /* \"#utility.yul\":21832:22274   */\n    tag_84:\n        /* \"#utility.yul\":21981:21985   */\n      0x00\n        /* \"#utility.yul\":22019:22021   */\n      0x60\n        /* \"#utility.yul\":22008:22017   */\n      dup3\n        /* \"#utility.yul\":22004:22022   */\n      add\n        /* \"#utility.yul\":21996:22022   */\n      swap1\n      pop\n        /* \"#utility.yul\":22032:22103   */\n      tag_489\n        /* \"#utility.yul\":22100:22101   */\n      0x00\n        /* \"#utility.yul\":22089:22098   */\n      dup4\n        /* \"#utility.yul\":22085:22102   */\n      add\n        /* \"#utility.yul\":22076:22082   */\n      dup7\n        /* \"#utility.yul\":22032:22103   */\n      tag_431\n      jump\t// in\n    tag_489:\n        /* \"#utility.yul\":22113:22185   */\n      tag_490\n        /* \"#utility.yul\":22181:22183   */\n      0x20\n        /* \"#utility.yul\":22170:22179   */\n      dup4\n        /* \"#utility.yul\":22166:22184   */\n      add\n        /* \"#utility.yul\":22157:22163   */\n      dup6\n        /* \"#utility.yul\":22113:22185   */\n      tag_356\n      jump\t// in\n    tag_490:\n        /* \"#utility.yul\":22195:22267   */\n      tag_491\n        /* \"#utility.yul\":22263:22265   */\n      0x40\n        /* \"#utility.yul\":22252:22261   */\n      dup4\n        /* \"#utility.yul\":22248:22266   */\n      add\n        /* \"#utility.yul\":22239:22245   */\n      dup5\n        /* \"#utility.yul\":22195:22267   */\n      tag_431\n      jump\t// in\n    tag_491:\n        /* \"#utility.yul\":21832:22274   */\n      swap5\n      swap4\n      pop\n      pop\n      pop\n      pop\n      jump\t// out\n        /* \"#utility.yul\":22280:22409   */\n    tag_233:\n        /* \"#utility.yul\":22314:22320   */\n      0x00\n        /* \"#utility.yul\":22341:22361   */\n      tag_493\n      tag_494\n      jump\t// in\n    tag_493:\n        /* \"#utility.yul\":22331:22361   */\n      swap1\n      pop\n        /* \"#utility.yul\":22370:22403   */\n      tag_495\n        /* \"#utility.yul\":22398:22402   */\n      dup3\n        /* \"#utility.yul\":22390:22396   */\n      dup3\n        /* \"#utility.yul\":22370:22403   */\n      tag_496\n      jump\t// in\n    tag_495:\n        /* \"#utility.yul\":22280:22409   */\n      swap2\n      swap1\n      pop\n      jump\t// out\n        /* \"#utility.yul\":22415:22490   */\n    tag_494:\n        /* \"#utility.yul\":22448:22454   */\n      0x00\n        /* \"#utility.yul\":22481:22483   */\n      0x40\n        /* \"#utility.yul\":22475:22484   */\n      mload\n        /* \"#utility.yul\":22465:22484   */\n      swap1\n      pop\n        /* \"#utility.yul\":22415:22490   */\n      swap1\n      jump\t// out\n        /* \"#utility.yul\":22496:22832   */\n    tag_232:\n        /* \"#utility.yul\":22598:22602   */\n      0x00\n        /* \"#utility.yul\":22688:22706   */\n      0xffffffffffffffff\n        /* \"#utility.yul\":22680:22686   */\n      dup3\n        /* \"#utility.yul\":22677:22707   */\n      gt\n        /* \"#utility.yul\":22674:22730   */\n      iszero\n      tag_499\n      jumpi\n        /* \"#utility.yul\":22710:22728   */\n      tag_500\n      tag_501\n      jump\t// in\n    tag_500:\n        /* \"#utility.yul\":22674:22730   */\n    tag_499:\n        /* \"#utility.yul\":22760:22764   */\n      0x20\n        /* \"#utility.yul\":22752:22758   */\n      dup3\n        /* \"#utility.yul\":22748:22765   */\n      mul\n        /* \"#utility.yul\":22740:22765   */\n      swap1\n      pop\n        /* \"#utility.yul\":22820:22824   */\n      0x20\n        /* \"#utility.yul\":22814:22818   */\n      dup2\n        /* \"#utility.yul\":22810:22825   */\n      add\n        /* \"#utility.yul\":22802:22825   */\n      swap1\n      pop\n        /* \"#utility.yul\":22496:22832   */\n      swap2\n      swap1\n      pop\n      jump\t// out\n        /* \"#utility.yul\":22838:23149   */\n    tag_249:\n        /* \"#utility.yul\":22915:22919   */\n      0x00\n        /* \"#utility.yul\":23005:23023   */\n      0xffffffffffffffff\n        /* \"#utility.yul\":22997:23003   */\n      dup3\n        /* \"#utility.yul\":22994:23024   */\n      gt\n        /* \"#utility.yul\":22991:23047   */\n      iszero\n      tag_503\n      jumpi\n        /* \"#utility.yul\":23027:23045   */\n      tag_504\n      tag_501\n      jump\t// in\n    tag_504:\n        /* \"#utility.yul\":22991:23047   */\n    tag_503:\n        /* \"#utility.yul\":23077:23081   */\n      0x20\n        /* \"#utility.yul\":23069:23075   */\n      dup3\n        /* \"#utility.yul\":23065:23082   */\n      mul\n        /* \"#utility.yul\":23057:23082   */\n      swap1\n      pop\n        /* \"#utility.yul\":23137:23141   */\n      0x20\n        /* \"#utility.yul\":23131:23135   */\n      dup2\n        /* \"#utility.yul\":23127:23142   */\n      add\n        /* \"#utility.yul\":23119:23142   */\n      swap1\n      pop\n        /* \"#utility.yul\":22838:23149   */\n      swap2\n      swap1\n      pop\n      jump\t// out\n        /* \"#utility.yul\":23155:23466   */\n    tag_261:\n        /* \"#utility.yul\":23232:23236   */\n      0x00\n        /* \"#utility.yul\":23322:23340   */\n      0xffffffffffffffff\n        /* \"#utility.yul\":23314:23320   */\n      dup3\n        /* \"#utility.yul\":23311:23341   */\n      gt\n        /* \"#utility.yul\":23308:23364   */\n      iszero\n      tag_506\n      jumpi\n        /* \"#utility.yul\":23344:23362   */\n      tag_507\n      tag_501\n      jump\t// in\n    tag_507:\n        /* \"#utility.yul\":23308:23364   */\n    tag_506:\n        /* \"#utility.yul\":23394:23398   */\n      0x20\n        /* \"#utility.yul\":23386:23392   */\n      dup3\n        /* \"#utility.yul\":23382:23399   */\n      mul\n        /* \"#utility.yul\":23374:23399   */\n      swap1\n      pop\n        /* \"#utility.yul\":23454:23458   */\n      0x20\n        /* \"#utility.yul\":23448:23452   */\n      dup2\n        /* \"#utility.yul\":23444:23459   */\n      add\n        /* \"#utility.yul\":23436:23459   */\n      swap1\n      pop\n        /* \"#utility.yul\":23155:23466   */\n      swap2\n      swap1\n      pop\n      jump\t// out\n        /* \"#utility.yul\":23472:23570   */\n    tag_363:\n        /* \"#utility.yul\":23523:23529   */\n      0x00\n        /* \"#utility.yul\":23557:23562   */\n      dup2\n        /* \"#utility.yul\":23551:23563   */\n      mload\n        /* \"#utility.yul\":23541:23563   */\n      swap1\n      pop\n        /* \"#utility.yul\":23472:23570   */\n      swap2\n      swap1\n      pop\n      jump\t// out\n        /* \"#utility.yul\":23576:23675   */\n    tag_375:\n        /* \"#utility.yul\":23628:23634   */\n      0x00\n        /* \"#utility.yul\":23662:23667   */\n      dup2\n        /* \"#utility.yul\":23656:23668   */\n      mload\n        /* \"#utility.yul\":23646:23668   */\n      swap1\n      pop\n        /* \"#utility.yul\":23576:23675   */\n      swap2\n      swap1\n      pop\n      jump\t// out\n        /* \"#utility.yul\":23681:23828   */\n    tag_365:\n        /* \"#utility.yul\":23782:23793   */\n      0x00\n        /* \"#utility.yul\":23819:23822   */\n      dup2\n        /* \"#utility.yul\":23804:23822   */\n      swap1\n      pop\n        /* \"#utility.yul\":23681:23828   */\n      swap3\n      swap2\n      pop\n      pop\n      jump\t// out\n        /* \"#utility.yul\":23834:24003   */\n    tag_377:\n        /* \"#utility.yul\":23918:23929   */\n      0x00\n        /* \"#utility.yul\":23952:23958   */\n      dup3\n        /* \"#utility.yul\":23947:23950   */\n      dup3\n        /* \"#utility.yul\":23940:23959   */\n      mstore\n        /* \"#utility.yul\":23992:23996   */\n      0x20\n        /* \"#utility.yul\":23987:23990   */\n      dup3\n        /* \"#utility.yul\":23983:23997   */\n      add\n        /* \"#utility.yul\":23968:23997   */\n      swap1\n      pop\n        /* \"#utility.yul\":23834:24003   */\n      swap3\n      swap2\n      pop\n      pop\n      jump\t// out\n        /* \"#utility.yul\":24009:24314   */\n    tag_164:\n        /* \"#utility.yul\":24049:24052   */\n      0x00\n        /* \"#utility.yul\":24068:24088   */\n      tag_513\n        /* \"#utility.yul\":24086:24087   */\n      dup3\n        /* \"#utility.yul\":24068:24088   */\n      tag_434\n      jump\t// in\n    tag_513:\n        /* \"#utility.yul\":24063:24088   */\n      swap2\n      pop\n        /* \"#utility.yul\":24102:24122   */\n      tag_514\n        /* \"#utility.yul\":24120:24121   */\n      dup4\n        /* \"#utility.yul\":24102:24122   */\n      tag_434\n      jump\t// in\n    tag_514:\n        /* \"#utility.yul\":24097:24122   */\n      swap3\n      pop\n        /* \"#utility.yul\":24256:24257   */\n      dup3\n        /* \"#utility.yul\":24188:24254   */\n      0xffffffffffffffffffffffffffffffffffffffffffffffffffffffffffffffff\n        /* \"#utility.yul\":24184:24258   */\n      sub\n        /* \"#utility.yul\":24181:24182   */\n      dup3\n        /* \"#utility.yul\":24178:24259   */\n      gt\n        /* \"#utility.yul\":24175:24282   */\n      iszero\n      tag_515\n      jumpi\n        /* \"#utility.yul\":24262:24280   */\n      tag_516\n      tag_517\n      jump\t// in\n    tag_516:\n        /* \"#utility.yul\":24175:24282   */\n    tag_515:\n        /* \"#utility.yul\":24306:24307   */\n      dup3\n        /* \"#utility.yul\":24303:24304   */\n      dup3\n        /* \"#utility.yul\":24299:24308   */\n      add\n        /* \"#utility.yul\":24292:24308   */\n      swap1\n      pop\n        /* \"#utility.yul\":24009:24314   */\n      swap3\n      swap2\n      pop\n      pop\n      jump\t// out\n        /* \"#utility.yul\":24320:24416   */\n    tag_346:\n        /* \"#utility.yul\":24357:24364   */\n      0x00\n        /* \"#utility.yul\":24386:24410   */\n      tag_519\n        /* \"#utility.yul\":24404:24409   */\n      dup3\n        /* \"#utility.yul\":24386:24410   */\n      tag_520\n      jump\t// in\n    tag_519:\n        /* \"#utility.yul\":24375:24410   */\n      swap1\n      pop\n        /* \"#utility.yul\":24320:24416   */\n      swap2\n      swap1\n      pop\n      jump\t// out\n        /* \"#utility.yul\":24422:24512   */\n    tag_355:\n        /* \"#utility.yul\":24456:24463   */\n      0x00\n        /* \"#utility.yul\":24499:24504   */\n      dup2\n        /* \"#utility.yul\":24492:24505   */\n      iszero\n        /* \"#utility.yul\":24485:24506   */\n      iszero\n        /* \"#utility.yul\":24474:24506   */\n      swap1\n      pop\n        /* \"#utility.yul\":24422:24512   */\n      swap2\n      swap1\n      pop\n      jump\t// out\n        /* \"#utility.yul\":24518:24595   */\n    tag_359:\n        /* \"#utility.yul\":24555:24562   */\n      0x00\n        /* \"#utility.yul\":24584:24589   */\n      dup2\n        /* \"#utility.yul\":24573:24589   */\n      swap1\n      pop\n        /* \"#utility.yul\":24518:24595   */\n      swap2\n      swap1\n      pop\n      jump\t// out\n        /* \"#utility.yul\":24601:24727   */\n    tag_520:\n        /* \"#utility.yul\":24638:24645   */\n      0x00\n        /* \"#utility.yul\":24678:24720   */\n      0xffffffffffffffffffffffffffffffffffffffff\n        /* \"#utility.yul\":24671:24676   */\n      dup3\n        /* \"#utility.yul\":24667:24721   */\n      and\n        /* \"#utility.yul\":24656:24721   */\n      swap1\n      pop\n        /* \"#utility.yul\":24601:24727   */\n      swap2\n      swap1\n      pop\n      jump\t// out\n        /* \"#utility.yul\":24733:24810   */\n    tag_434:\n        /* \"#utility.yul\":24770:24777   */\n      0x00\n        /* \"#utility.yul\":24799:24804   */\n      dup2\n        /* \"#utility.yul\":24788:24804   */\n      swap1\n      pop\n        /* \"#utility.yul\":24733:24810   */\n      swap2\n      swap1\n      pop\n      jump\t// out\n        /* \"#utility.yul\":24816:24956   */\n    tag_371:\n        /* \"#utility.yul\":24880:24889   */\n      0x00\n        /* \"#utility.yul\":24913:24950   */\n      tag_526\n        /* \"#utility.yul\":24944:24949   */\n      dup3\n        /* \"#utility.yul\":24913:24950   */\n      tag_527\n      jump\t// in\n    tag_526:\n        /* \"#utility.yul\":24900:24950   */\n      swap1\n      pop\n        /* \"#utility.yul\":24816:24956   */\n      swap2\n      swap1\n      pop\n      jump\t// out\n        /* \"#utility.yul\":24962:25088   */\n    tag_527:\n        /* \"#utility.yul\":25012:25021   */\n      0x00\n        /* \"#utility.yul\":25045:25082   */\n      tag_529\n        /* \"#utility.yul\":25076:25081   */\n      dup3\n        /* \"#utility.yul\":25045:25082   */\n      tag_530\n      jump\t// in\n    tag_529:\n        /* \"#utility.yul\":25032:25082   */\n      swap1\n      pop\n        /* \"#utility.yul\":24962:25088   */\n      swap2\n      swap1\n      pop\n      jump\t// out\n        /* \"#utility.yul\":25094:25207   */\n    tag_530:\n        /* \"#utility.yul\":25144:25153   */\n      0x00\n        /* \"#utility.yul\":25177:25201   */\n      tag_532\n        /* \"#utility.yul\":25195:25200   */\n      dup3\n        /* \"#utility.yul\":25177:25201   */\n      tag_520\n      jump\t// in\n    tag_532:\n        /* \"#utility.yul\":25164:25201   */\n      swap1\n      pop\n        /* \"#utility.yul\":25094:25207   */\n      swap2\n      swap1\n      pop\n      jump\t// out\n        /* \"#utility.yul\":25213:25520   */\n    tag_367:\n        /* \"#utility.yul\":25281:25282   */\n      0x00\n        /* \"#utility.yul\":25291:25404   */\n    tag_534:\n        /* \"#utility.yul\":25305:25311   */\n      dup4\n        /* \"#utility.yul\":25302:25303   */\n      dup2\n        /* \"#utility.yul\":25299:25312   */\n      lt\n        /* \"#utility.yul\":25291:25404   */\n      iszero\n      tag_536\n      jumpi\n        /* \"#utility.yul\":25390:25391   */\n      dup1\n        /* \"#utility.yul\":25385:25388   */\n      dup3\n        /* \"#utility.yul\":25381:25392   */\n      add\n        /* \"#utility.yul\":25375:25393   */\n      mload\n        /* \"#utility.yul\":25371:25372   */\n      dup2\n        /* \"#utility.yul\":25366:25369   */\n      dup5\n        /* \"#utility.yul\":25362:25373   */\n      add\n        /* \"#utility.yul\":25355:25394   */\n      mstore\n        /* \"#utility.yul\":25327:25329   */\n      0x20\n        /* \"#utility.yul\":25324:25325   */\n      dup2\n        /* \"#utility.yul\":25320:25330   */\n      add\n        /* \"#utility.yul\":25315:25330   */\n      swap1\n      pop\n        /* \"#utility.yul\":25291:25404   */\n      jump(tag_534)\n    tag_536:\n        /* \"#utility.yul\":25422:25428   */\n      dup4\n        /* \"#utility.yul\":25419:25420   */\n      dup2\n        /* \"#utility.yul\":25416:25429   */\n      gt\n        /* \"#utility.yul\":25413:25514   */\n      iszero\n      tag_537\n      jumpi\n        /* \"#utility.yul\":25502:25503   */\n      0x00\n        /* \"#utility.yul\":25493:25499   */\n      dup5\n        /* \"#utility.yul\":25488:25491   */\n      dup5\n        /* \"#utility.yul\":25484:25500   */\n      add\n        /* \"#utility.yul\":25477:25504   */\n      mstore\n        /* \"#utility.yul\":25413:25514   */\n    tag_537:\n        /* \"#utility.yul\":25262:25520   */\n      pop\n        /* \"#utility.yul\":25213:25520   */\n      pop\n      pop\n      pop\n      jump\t// out\n        /* \"#utility.yul\":25526:25807   */\n    tag_496:\n        /* \"#utility.yul\":25609:25636   */\n      tag_539\n        /* \"#utility.yul\":25631:25635   */\n      dup3\n        /* \"#utility.yul\":25609:25636   */\n      tag_380\n      jump\t// in\n    tag_539:\n        /* \"#utility.yul\":25601:25607   */\n      dup2\n        /* \"#utility.yul\":25597:25637   */\n      add\n        /* \"#utility.yul\":25739:25745   */\n      dup2\n        /* \"#utility.yul\":25727:25737   */\n      dup2\n        /* \"#utility.yul\":25724:25746   */\n      lt\n        /* \"#utility.yul\":25703:25721   */\n      0xffffffffffffffff\n        /* \"#utility.yul\":25691:25701   */\n      dup3\n        /* \"#utility.yul\":25688:25722   */\n      gt\n        /* \"#utility.yul\":25685:25747   */\n      or\n        /* \"#utility.yul\":25682:25770   */\n      iszero\n      tag_540\n      jumpi\n        /* \"#utility.yul\":25750:25768   */\n      tag_541\n      tag_501\n      jump\t// in\n    tag_541:\n        /* \"#utility.yul\":25682:25770   */\n    tag_540:\n        /* \"#utility.yul\":25790:25800   */\n      dup1\n        /* \"#utility.yul\":25786:25788   */\n      0x40\n        /* \"#utility.yul\":25779:25801   */\n      mstore\n        /* \"#utility.yul\":25569:25807   */\n      pop\n        /* \"#utility.yul\":25526:25807   */\n      pop\n      pop\n      jump\t// out\n        /* \"#utility.yul\":25813:26046   */\n    tag_114:\n        /* \"#utility.yul\":25852:25855   */\n      0x00\n        /* \"#utility.yul\":25875:25899   */\n      tag_543\n        /* \"#utility.yul\":25893:25898   */\n      dup3\n        /* \"#utility.yul\":25875:25899   */\n      tag_434\n      jump\t// in\n    tag_543:\n        /* \"#utility.yul\":25866:25899   */\n      swap2\n      pop\n        /* \"#utility.yul\":25921:25987   */\n      0xffffffffffffffffffffffffffffffffffffffffffffffffffffffffffffffff\n        /* \"#utility.yul\":25914:25919   */\n      dup3\n        /* \"#utility.yul\":25911:25988   */\n      eq\n        /* \"#utility.yul\":25908:26011   */\n      iszero\n      tag_544\n      jumpi\n        /* \"#utility.yul\":25991:26009   */\n      tag_545\n      tag_517\n      jump\t// in\n    tag_545:\n        /* \"#utility.yul\":25908:26011   */\n    tag_544:\n        /* \"#utility.yul\":26038:26039   */\n      0x01\n        /* \"#utility.yul\":26031:26036   */\n      dup3\n        /* \"#utility.yul\":26027:26040   */\n      add\n        /* \"#utility.yul\":26020:26040   */\n      swap1\n      pop\n        /* \"#utility.yul\":25813:26046   */\n      swap2\n      swap1\n      pop\n      jump\t// out\n        /* \"#utility.yul\":26052:26152   */\n    tag_351:\n        /* \"#utility.yul\":26091:26098   */\n      0x00\n        /* \"#utility.yul\":26120:26146   */\n      tag_547\n        /* \"#utility.yul\":26140:26145   */\n      dup3\n        /* \"#utility.yul\":26120:26146   */\n      tag_548\n      jump\t// in\n    tag_547:\n        /* \"#utility.yul\":26109:26146   */\n      swap1\n      pop\n        /* \"#utility.yul\":26052:26152   */\n      swap2\n      swap1\n      pop\n      jump\t// out\n        /* \"#utility.yul\":26158:26252   */\n    tag_548:\n        /* \"#utility.yul\":26197:26204   */\n      0x00\n        /* \"#utility.yul\":26226:26246   */\n      tag_550\n        /* \"#utility.yul\":26240:26245   */\n      dup3\n        /* \"#utility.yul\":26226:26246   */\n      tag_551\n      jump\t// in\n    tag_550:\n        /* \"#utility.yul\":26215:26246   */\n      swap1\n      pop\n        /* \"#utility.yul\":26158:26252   */\n      swap2\n      swap1\n      pop\n      jump\t// out\n        /* \"#utility.yul\":26258:26337   */\n    tag_439:\n        /* \"#utility.yul\":26297:26304   */\n      0x00\n        /* \"#utility.yul\":26326:26331   */\n      dup2\n        /* \"#utility.yul\":26315:26331   */\n      swap1\n      pop\n        /* \"#utility.yul\":26258:26337   */\n      swap2\n      swap1\n      pop\n      jump\t// out\n        /* \"#utility.yul\":26343:26523   */\n    tag_517:\n        /* \"#utility.yul\":26391:26468   */\n      0x4e487b7100000000000000000000000000000000000000000000000000000000\n        /* \"#utility.yul\":26388:26389   */\n      0x00\n        /* \"#utility.yul\":26381:26469   */\n      mstore\n        /* \"#utility.yul\":26488:26492   */\n      0x11\n        /* \"#utility.yul\":26485:26486   */\n      0x04\n        /* \"#utility.yul\":26478:26493   */\n      mstore\n        /* \"#utility.yul\":26512:26516   */\n      0x24\n        /* \"#utility.yul\":26509:26510   */\n      0x00\n        /* \"#utility.yul\":26502:26517   */\n      revert\n        /* \"#utility.yul\":26529:26709   */\n    tag_105:\n        /* \"#utility.yul\":26577:26654   */\n      0x4e487b7100000000000000000000000000000000000000000000000000000000\n        /* \"#utility.yul\":26574:26575   */\n      0x00\n        /* \"#utility.yul\":26567:26655   */\n      mstore\n        /* \"#utility.yul\":26674:26678   */\n      0x32\n        /* \"#utility.yul\":26671:26672   */\n      0x04\n        /* \"#utility.yul\":26664:26679   */\n      mstore\n        /* \"#utility.yul\":26698:26702   */\n      0x24\n        /* \"#utility.yul\":26695:26696   */\n      0x00\n        /* \"#utility.yul\":26688:26703   */\n      revert\n        /* \"#utility.yul\":26715:26895   */\n    tag_501:\n        /* \"#utility.yul\":26763:26840   */\n      0x4e487b7100000000000000000000000000000000000000000000000000000000\n        /* \"#utility.yul\":26760:26761   */\n      0x00\n        /* \"#utility.yul\":26753:26841   */\n      mstore\n        /* \"#utility.yul\":26860:26864   */\n      0x41\n        /* \"#utility.yul\":26857:26858   */\n      0x04\n        /* \"#utility.yul\":26850:26865   */\n      mstore\n        /* \"#utility.yul\":26884:26888   */\n      0x24\n        /* \"#utility.yul\":26881:26882   */\n      0x00\n        /* \"#utility.yul\":26874:26889   */\n      revert\n        /* \"#utility.yul\":26901:27018   */\n    tag_242:\n        /* \"#utility.yul\":27010:27011   */\n      0x00\n        /* \"#utility.yul\":27007:27008   */\n      dup1\n        /* \"#utility.yul\":27000:27012   */\n      revert\n        /* \"#utility.yul\":27024:27141   */\n    tag_236:\n        /* \"#utility.yul\":27133:27134   */\n      0x00\n        /* \"#utility.yul\":27130:27131   */\n      dup1\n        /* \"#utility.yul\":27123:27135   */\n      revert\n        /* \"#utility.yul\":27147:27264   */\n    tag_308:\n        /* \"#utility.yul\":27256:27257   */\n      0x00\n        /* \"#utility.yul\":27253:27254   */\n      dup1\n        /* \"#utility.yul\":27246:27258   */\n      revert\n        /* \"#utility.yul\":27270:27387   */\n    tag_300:\n        /* \"#utility.yul\":27379:27380   */\n      0x00\n        /* \"#utility.yul\":27376:27377   */\n      dup1\n        /* \"#utility.yul\":27369:27381   */\n      revert\n        /* \"#utility.yul\":27393:27495   */\n    tag_380:\n        /* \"#utility.yul\":27434:27440   */\n      0x00\n        /* \"#utility.yul\":27485:27487   */\n      0x1f\n        /* \"#utility.yul\":27481:27488   */\n      not\n        /* \"#utility.yul\":27476:27478   */\n      0x1f\n        /* \"#utility.yul\":27469:27474   */\n      dup4\n        /* \"#utility.yul\":27465:27479   */\n      add\n        /* \"#utility.yul\":27461:27489   */\n      and\n        /* \"#utility.yul\":27451:27489   */\n      swap1\n      pop\n        /* \"#utility.yul\":27393:27495   */\n      swap2\n      swap1\n      pop\n      jump\t// out\n        /* \"#utility.yul\":27501:27595   */\n    tag_551:\n        /* \"#utility.yul\":27534:27542   */\n      0x00\n        /* \"#utility.yul\":27582:27587   */\n      dup2\n        /* \"#utility.yul\":27578:27580   */\n      0x60\n        /* \"#utility.yul\":27574:27588   */\n      shl\n        /* \"#utility.yul\":27553:27588   */\n      swap1\n      pop\n        /* \"#utility.yul\":27501:27595   */\n      swap2\n      swap1\n      pop\n      jump\t// out\n        /* \"#utility.yul\":27601:27779   */\n    tag_385:\n        /* \"#utility.yul\":27741:27771   */\n      0x5765656b2063616e6e6f7420626520696e207468652066757475726500000000\n        /* \"#utility.yul\":27737:27738   */\n      0x00\n        /* \"#utility.yul\":27729:27735   */\n      dup3\n        /* \"#utility.yul\":27725:27739   */\n      add\n        /* \"#utility.yul\":27718:27772   */\n      mstore\n        /* \"#utility.yul\":27601:27779   */\n      pop\n      jump\t// out\n        /* \"#utility.yul\":27785:28010   */\n    tag_390:\n        /* \"#utility.yul\":27925:27959   */\n      0x4f776e61626c653a206e6577206f776e657220697320746865207a65726f2061\n        /* \"#utility.yul\":27921:27922   */\n      0x00\n        /* \"#utility.yul\":27913:27919   */\n      dup3\n        /* \"#utility.yul\":27909:27923   */\n      add\n        /* \"#utility.yul\":27902:27960   */\n      mstore\n        /* \"#utility.yul\":27994:28002   */\n      0x6464726573730000000000000000000000000000000000000000000000000000\n        /* \"#utility.yul\":27989:27991   */\n      0x20\n        /* \"#utility.yul\":27981:27987   */\n      dup3\n        /* \"#utility.yul\":27977:27992   */\n      add\n        /* \"#utility.yul\":27970:28003   */\n      mstore\n        /* \"#utility.yul\":27785:28010   */\n      pop\n      jump\t// out\n        /* \"#utility.yul\":28016:28188   */\n    tag_395:\n        /* \"#utility.yul\":28156:28180   */\n      0x496e636f7272656374206d65726b6c652070726f6f6600000000000000000000\n        /* \"#utility.yul\":28152:28153   */\n      0x00\n        /* \"#utility.yul\":28144:28150   */\n      dup3\n        /* \"#utility.yul\":28140:28154   */\n      add\n        /* \"#utility.yul\":28133:28181   */\n      mstore\n        /* \"#utility.yul\":28016:28188   */\n      pop\n      jump\t// out\n        /* \"#utility.yul\":28194:28419   */\n    tag_400:\n        /* \"#utility.yul\":28334:28368   */\n      0x416464726573733a20696e73756666696369656e742062616c616e636520666f\n        /* \"#utility.yul\":28330:28331   */\n      0x00\n        /* \"#utility.yul\":28322:28328   */\n      dup3\n        /* \"#utility.yul\":28318:28332   */\n      add\n        /* \"#utility.yul\":28311:28369   */\n      mstore\n        /* \"#utility.yul\":28403:28411   */\n      0x722063616c6c0000000000000000000000000000000000000000000000000000\n        /* \"#utility.yul\":28398:28400   */\n      0x20\n        /* \"#utility.yul\":28390:28396   */\n      dup3\n        /* \"#utility.yul\":28386:28401   */\n      add\n        /* \"#utility.yul\":28379:28412   */\n      mstore\n        /* \"#utility.yul\":28194:28419   */\n      pop\n      jump\t// out\n        /* \"#utility.yul\":28425:28607   */\n    tag_405:\n        /* \"#utility.yul\":28565:28599   */\n      0x4f776e61626c653a2063616c6c6572206973206e6f7420746865206f776e6572\n        /* \"#utility.yul\":28561:28562   */\n      0x00\n        /* \"#utility.yul\":28553:28559   */\n      dup3\n        /* \"#utility.yul\":28549:28563   */\n      add\n        /* \"#utility.yul\":28542:28600   */\n      mstore\n        /* \"#utility.yul\":28425:28607   */\n      pop\n      jump\t// out\n        /* \"#utility.yul\":28613:28861   */\n    tag_410:\n        /* \"#utility.yul\":28753:28787   */\n      0x4e6f2062616c616e636520776f756c64206265207472616e7366657272656420\n        /* \"#utility.yul\":28749:28750   */\n      0x00\n        /* \"#utility.yul\":28741:28747   */\n      dup3\n        /* \"#utility.yul\":28737:28751   */\n      add\n        /* \"#utility.yul\":28730:28788   */\n      mstore\n        /* \"#utility.yul\":28822:28853   */\n      0x2d206e6f7420676f696e6720746f20776173746520796f757220676173000000\n        /* \"#utility.yul\":28817:28819   */\n      0x20\n        /* \"#utility.yul\":28809:28815   */\n      dup3\n        /* \"#utility.yul\":28805:28820   */\n      add\n        /* \"#utility.yul\":28798:28854   */\n      mstore\n        /* \"#utility.yul\":28613:28861   */\n      pop\n      jump\t// out\n        /* \"#utility.yul\":28867:29039   */\n    tag_415:\n        /* \"#utility.yul\":29007:29031   */\n      0x4c502068617320616c726561647920636c61696d656400000000000000000000\n        /* \"#utility.yul\":29003:29004   */\n      0x00\n        /* \"#utility.yul\":28995:29001   */\n      dup3\n        /* \"#utility.yul\":28991:29005   */\n      add\n        /* \"#utility.yul\":28984:29032   */\n      mstore\n        /* \"#utility.yul\":28867:29039   */\n      pop\n      jump\t// out\n        /* \"#utility.yul\":29045:29224   */\n    tag_420:\n        /* \"#utility.yul\":29185:29216   */\n      0x416464726573733a2063616c6c20746f206e6f6e2d636f6e7472616374000000\n        /* \"#utility.yul\":29181:29182   */\n      0x00\n        /* \"#utility.yul\":29173:29179   */\n      dup3\n        /* \"#utility.yul\":29169:29183   */\n      add\n        /* \"#utility.yul\":29162:29217   */\n      mstore\n        /* \"#utility.yul\":29045:29224   */\n      pop\n      jump\t// out\n        /* \"#utility.yul\":29230:29398   */\n    tag_425:\n        /* \"#utility.yul\":29370:29390   */\n      0x4d69736d61746368696e6720696e707574730000000000000000000000000000\n        /* \"#utility.yul\":29366:29367   */\n      0x00\n        /* \"#utility.yul\":29358:29364   */\n      dup3\n        /* \"#utility.yul\":29354:29368   */\n      add\n        /* \"#utility.yul\":29347:29391   */\n      mstore\n        /* \"#utility.yul\":29230:29398   */\n      pop\n      jump\t// out\n        /* \"#utility.yul\":29404:29633   */\n    tag_430:\n        /* \"#utility.yul\":29544:29578   */\n      0x5361666545524332303a204552433230206f7065726174696f6e20646964206e\n        /* \"#utility.yul\":29540:29541   */\n      0x00\n        /* \"#utility.yul\":29532:29538   */\n      dup3\n        /* \"#utility.yul\":29528:29542   */\n      add\n        /* \"#utility.yul\":29521:29579   */\n      mstore\n        /* \"#utility.yul\":29613:29625   */\n      0x6f74207375636365656400000000000000000000000000000000000000000000\n        /* \"#utility.yul\":29608:29610   */\n      0x20\n        /* \"#utility.yul\":29600:29606   */\n      dup3\n        /* \"#utility.yul\":29596:29611   */\n      add\n        /* \"#utility.yul\":29589:29626   */\n      mstore\n        /* \"#utility.yul\":29404:29633   */\n      pop\n      jump\t// out\n        /* \"#utility.yul\":29639:29761   */\n    tag_272:\n        /* \"#utility.yul\":29712:29736   */\n      tag_573\n        /* \"#utility.yul\":29730:29735   */\n      dup2\n        /* \"#utility.yul\":29712:29736   */\n      tag_346\n      jump\t// in\n    tag_573:\n        /* \"#utility.yul\":29705:29710   */\n      dup2\n        /* \"#utility.yul\":29702:29737   */\n      eq\n        /* \"#utility.yul\":29692:29755   */\n      tag_574\n      jumpi\n        /* \"#utility.yul\":29751:29752   */\n      0x00\n        /* \"#utility.yul\":29748:29749   */\n      dup1\n        /* \"#utility.yul\":29741:29753   */\n      revert\n        /* \"#utility.yul\":29692:29755   */\n    tag_574:\n        /* \"#utility.yul\":29639:29761   */\n      pop\n      jump\t// out\n        /* \"#utility.yul\":29767:29883   */\n    tag_290:\n        /* \"#utility.yul\":29837:29858   */\n      tag_576\n        /* \"#utility.yul\":29852:29857   */\n      dup2\n        /* \"#utility.yul\":29837:29858   */\n      tag_355\n      jump\t// in\n    tag_576:\n        /* \"#utility.yul\":29830:29835   */\n      dup2\n        /* \"#utility.yul\":29827:29859   */\n      eq\n        /* \"#utility.yul\":29817:29877   */\n      tag_577\n      jumpi\n        /* \"#utility.yul\":29873:29874   */\n      0x00\n        /* \"#utility.yul\":29870:29871   */\n      dup1\n        /* \"#utility.yul\":29863:29875   */\n      revert\n        /* \"#utility.yul\":29817:29877   */\n    tag_577:\n        /* \"#utility.yul\":29767:29883   */\n      pop\n      jump\t// out\n        /* \"#utility.yul\":29889:30011   */\n    tag_293:\n        /* \"#utility.yul\":29962:29986   */\n      tag_579\n        /* \"#utility.yul\":29980:29985   */\n      dup2\n        /* \"#utility.yul\":29962:29986   */\n      tag_359\n      jump\t// in\n    tag_579:\n        /* \"#utility.yul\":29955:29960   */\n      dup2\n        /* \"#utility.yul\":29952:29987   */\n      eq\n        /* \"#utility.yul\":29942:30005   */\n      tag_580\n      jumpi\n        /* \"#utility.yul\":30001:30002   */\n      0x00\n        /* \"#utility.yul\":29998:29999   */\n      dup1\n        /* \"#utility.yul\":29991:30003   */\n      revert\n        /* \"#utility.yul\":29942:30005   */\n    tag_580:\n        /* \"#utility.yul\":29889:30011   */\n      pop\n      jump\t// out\n        /* \"#utility.yul\":30017:30139   */\n    tag_296:\n        /* \"#utility.yul\":30090:30114   */\n      tag_582\n        /* \"#utility.yul\":30108:30113   */\n      dup2\n        /* \"#utility.yul\":30090:30114   */\n      tag_434\n      jump\t// in\n    tag_582:\n        /* \"#utility.yul\":30083:30088   */\n      dup2\n        /* \"#utility.yul\":30080:30115   */\n      eq\n        /* \"#utility.yul\":30070:30133   */\n      tag_583\n      jumpi\n        /* \"#utility.yul\":30129:30130   */\n      0x00\n        /* \"#utility.yul\":30126:30127   */\n      dup1\n        /* \"#utility.yul\":30119:30131   */\n      revert\n        /* \"#utility.yul\":30070:30133   */\n    tag_583:\n        /* \"#utility.yul\":30017:30139   */\n      pop\n      jump\t// out\n\n    auxdata: 0xa2646970667358221220918f3967c24c58d440c2e8829d311f6173841f86a06ffbc7394e90b66215c24c64736f6c63430008070033\n}\n",
				"bytecode": {
					"linkReferences": {},
					"object": "60806040523480156200001157600080fd5b50604051620021ac380380620021ac833981810160405281019062000037919062000182565b620000576200004b6200009f60201b60201c565b620000a760201b60201c565b80600160006101000a81548173ffffffffffffffffffffffffffffffffffffffff021916908373ffffffffffffffffffffffffffffffffffffffff160217905550506200021b565b600033905090565b60008060009054906101000a900473ffffffffffffffffffffffffffffffffffffffff169050816000806101000a81548173ffffffffffffffffffffffffffffffffffffffff021916908373ffffffffffffffffffffffffffffffffffffffff1602179055508173ffffffffffffffffffffffffffffffffffffffff168173ffffffffffffffffffffffffffffffffffffffff167f8be0079c531659141344cd1fd0a4f28419497f9722a3daafe3b4186f6b6457e060405160405180910390a35050565b6000815190506200017c8162000201565b92915050565b6000602082840312156200019b576200019a620001fc565b5b6000620001ab848285016200016b565b91505092915050565b6000620001c182620001dc565b9050919050565b6000620001d582620001b4565b9050919050565b600073ffffffffffffffffffffffffffffffffffffffff82169050919050565b600080fd5b6200020c81620001c8565b81146200021857600080fd5b50565b611f81806200022b6000396000f3fe608060405234801561001057600080fd5b50600436106100b45760003560e01c8063ba59371411610071578063ba5937141461018d578063d5efd20a146101a9578063eb0d07f5146101c5578063ebf04917146101f5578063f2fde38b14610213578063fc0c546a1461022f576100b4565b8063120aa877146100b957806358b4e4b4146100e957806365ef53b114610105578063715018a61461013557806371c5ecb11461013f5780638da5cb5b1461016f575b600080fd5b6100d360048036038101906100ce91906113ef565b61024d565b6040516100e09190611765565b60405180910390f35b61010360048036038101906100fe91906112d2565b61027c565b005b61011f600480360381019061011a9190611382565b610298565b60405161012c9190611918565b60405180910390f35b61013d6103df565b005b610159600480360381019061015491906113c2565b610467565b6040516101669190611780565b60405180910390f35b61017761047f565b60405161018491906116b3565b60405180910390f35b6101a760048036038101906101a29190611217565b6104a8565b005b6101c360048036038101906101be91906113c2565b6105b8565b005b6101df60048036038101906101da91906112d2565b610689565b6040516101ec9190611765565b60405180910390f35b6101fd6106a1565b60405161020a9190611918565b60405180910390f35b61022d600480360381019061022891906111ea565b6106a7565b005b61023761079f565b604051610244919061179b565b60405180910390f35b60036020528160005260406000206020528060005260406000206000915091509054906101000a900460ff1681565b610288848484846107c5565b610292848361099c565b50505050565b60006102a2610a36565b73ffffffffffffffffffffffffffffffffffffffff166102c061047f565b73ffffffffffffffffffffffffffffffffffffffff1614610316576040517f08c379a000000000000000000000000000000000000000000000000000000000815260040161030d90611858565b60405180910390fd5b610365333084600160009054906101000a900473ffffffffffffffffffffffffffffffffffffffff1673ffffffffffffffffffffffffffffffffffffffff16610a3e909392919063ffffffff16565b60045490508260026000838152602001908152602001600020819055506103986001600454610ac790919063ffffffff16565b6004819055507f5c8770684b8f82e9ade880fb05ccfb53c969170cd40e9746a3703f241c9023ec8184846040516103d193929190611933565b60405180910390a192915050565b6103e7610a36565b73ffffffffffffffffffffffffffffffffffffffff1661040561047f565b73ffffffffffffffffffffffffffffffffffffffff161461045b576040517f08c379a000000000000000000000000000000000000000000000000000000000815260040161045290611858565b60405180910390fd5b6104656000610add565b565b60026020528060005260406000206000915090505481565b60008060009054906101000a900473ffffffffffffffffffffffffffffffffffffffff16905090565b6000835190508251811480156104be5750815181145b6104fd576040517f08c379a00000000000000000000000000000000000000000000000000000000081526004016104f4906118d8565b60405180910390fd5b6000805b828110156105a557610563878783815181106105205761051f611c2d565b5b602002602001015187848151811061053b5761053a611c2d565b5b602002602001015187858151811061055657610555611c2d565b5b60200260200101516107c5565b61059085828151811061057957610578611c2d565b5b602002602001015183610ac790919063ffffffff16565b9150808061059d90611b87565b915050610501565b506105b0868261099c565b505050505050565b6105c0610a36565b73ffffffffffffffffffffffffffffffffffffffff166105de61047f565b73ffffffffffffffffffffffffffffffffffffffff1614610634576040517f08c379a000000000000000000000000000000000000000000000000000000000815260040161062b90611858565b60405180910390fd5b6000801b60026000838152602001908152602001600020819055507fcc071cbd9ae50a4c78d1153b76bd2d46ba8d4c7662842718ec3de1d67a144daf8160405161067e9190611918565b60405180910390a150565b600061069785858585610ba1565b9050949350505050565b60045481565b6106af610a36565b73ffffffffffffffffffffffffffffffffffffffff166106cd61047f565b73ffffffffffffffffffffffffffffffffffffffff1614610723576040517f08c379a000000000000000000000000000000000000000000000000000000000815260040161071a90611858565b60405180910390fd5b600073ffffffffffffffffffffffffffffffffffffffff168173ffffffffffffffffffffffffffffffffffffffff161415610793576040517f08c379a000000000000000000000000000000000000000000000000000000000815260040161078a906117f8565b60405180910390fd5b61079c81610add565b50565b600160009054906101000a900473ffffffffffffffffffffffffffffffffffffffff1681565b6004548310610809576040517f08c379a0000000000000000000000000000000000000000000000000000000008152600401610800906117d8565b60405180910390fd5b6003600084815260200190815260200160002060008573ffffffffffffffffffffffffffffffffffffffff1673ffffffffffffffffffffffffffffffffffffffff16815260200190815260200160002060009054906101000a900460ff16156108a7576040517f08c379a000000000000000000000000000000000000000000000000000000000815260040161089e90611898565b60405180910390fd5b6108b384848484610ba1565b6108f2576040517f08c379a00000000000000000000000000000000000000000000000000000000081526004016108e990611818565b60405180910390fd5b60016003600085815260200190815260200160002060008673ffffffffffffffffffffffffffffffffffffffff1673ffffffffffffffffffffffffffffffffffffffff16815260200190815260200160002060006101000a81548160ff0219169083151502179055507f987d620f307ff6b94d58743cb7a7509f24071586a77759b77c2d4e29f75a2f9a84848460405161098e9392919061172e565b60405180910390a150505050565b60008111156109f7576109f28282600160009054906101000a900473ffffffffffffffffffffffffffffffffffffffff1673ffffffffffffffffffffffffffffffffffffffff16610bf89092919063ffffffff16565b610a32565b6040517f08c379a0000000000000000000000000000000000000000000000000000000008152600401610a2990611878565b60405180910390fd5b5050565b600033905090565b610ac1846323b872dd60e01b858585604051602401610a5f939291906116ce565b604051602081830303815290604052907bffffffffffffffffffffffffffffffffffffffffffffffffffffffff19166020820180517bffffffffffffffffffffffffffffffffffffffffffffffffffffffff8381831617835250505050610c7e565b50505050565b60008183610ad59190611a45565b905092915050565b60008060009054906101000a900473ffffffffffffffffffffffffffffffffffffffff169050816000806101000a81548173ffffffffffffffffffffffffffffffffffffffff021916908373ffffffffffffffffffffffffffffffffffffffff1602179055508173ffffffffffffffffffffffffffffffffffffffff168173ffffffffffffffffffffffffffffffffffffffff167f8be0079c531659141344cd1fd0a4f28419497f9722a3daafe3b4186f6b6457e060405160405180910390a35050565b6000808584604051602001610bb7929190611670565b604051602081830303815290604052805190602001209050610bed83600260008881526020019081526020016000205483610d45565b915050949350505050565b610c798363a9059cbb60e01b8484604051602401610c17929190611705565b604051602081830303815290604052907bffffffffffffffffffffffffffffffffffffffffffffffffffffffff19166020820180517bffffffffffffffffffffffffffffffffffffffffffffffffffffffff8381831617835250505050610c7e565b505050565b6000610ce0826040518060400160405280602081526020017f5361666545524332303a206c6f772d6c6576656c2063616c6c206661696c65648152508573ffffffffffffffffffffffffffffffffffffffff16610d5c9092919063ffffffff16565b9050600081511115610d405780806020019051810190610d009190611355565b610d3f576040517f08c379a0000000000000000000000000000000000000000000000000000000008152600401610d36906118f8565b60405180910390fd5b5b505050565b600082610d528584610d74565b1490509392505050565b6060610d6b8484600085610de9565b90509392505050565b60008082905060005b8451811015610dde576000858281518110610d9b57610d9a611c2d565b5b60200260200101519050808311610dbd57610db68382610efd565b9250610dca565b610dc78184610efd565b92505b508080610dd690611b87565b915050610d7d565b508091505092915050565b606082471015610e2e576040517f08c379a0000000000000000000000000000000000000000000000000000000008152600401610e2590611838565b60405180910390fd5b610e3785610f14565b610e76576040517f08c379a0000000000000000000000000000000000000000000000000000000008152600401610e6d906118b8565b60405180910390fd5b6000808673ffffffffffffffffffffffffffffffffffffffff168587604051610e9f919061169c565b60006040518083038185875af1925050503d8060008114610edc576040519150601f19603f3d011682016040523d82523d6000602084013e610ee1565b606091505b5091509150610ef1828286610f37565b92505050949350505050565b600082600052816020526040600020905092915050565b6000808273ffffffffffffffffffffffffffffffffffffffff163b119050919050565b60608315610f4757829050610f97565b600083511115610f5a5782518084602001fd5b816040517f08c379a0000000000000000000000000000000000000000000000000000000008152600401610f8e91906117b6565b60405180910390fd5b9392505050565b6000610fb1610fac8461198f565b61196a565b90508083825260208201905082856020860282011115610fd457610fd3611c90565b5b60005b8581101561102257813567ffffffffffffffff811115610ffa57610ff9611c8b565b5b808601611007898261114f565b85526020850194506020840193505050600181019050610fd7565b5050509392505050565b600061103f61103a846119bb565b61196a565b9050808382526020820190508285602086028201111561106257611061611c90565b5b60005b85811015611092578161107888826111c0565b845260208401935060208301925050600181019050611065565b5050509392505050565b60006110af6110aa846119e7565b61196a565b905080838252602082019050828560208602820111156110d2576110d1611c90565b5b60005b8581101561110257816110e888826111d5565b8452602084019350602083019250506001810190506110d5565b5050509392505050565b60008135905061111b81611eef565b92915050565b600082601f83011261113657611135611c8b565b5b8135611146848260208601610f9e565b91505092915050565b600082601f83011261116457611163611c8b565b5b813561117484826020860161102c565b91505092915050565b600082601f83011261119257611191611c8b565b5b81356111a284826020860161109c565b91505092915050565b6000815190506111ba81611f06565b92915050565b6000813590506111cf81611f1d565b92915050565b6000813590506111e481611f34565b92915050565b600060208284031215611200576111ff611c9a565b5b600061120e8482850161110c565b91505092915050565b6000806000806080858703121561123157611230611c9a565b5b600061123f8782880161110c565b945050602085013567ffffffffffffffff8111156112605761125f611c95565b5b61126c8782880161117d565b935050604085013567ffffffffffffffff81111561128d5761128c611c95565b5b6112998782880161117d565b925050606085013567ffffffffffffffff8111156112ba576112b9611c95565b5b6112c687828801611121565b91505092959194509250565b600080600080608085870312156112ec576112eb611c9a565b5b60006112fa8782880161110c565b945050602061130b878288016111d5565b935050604061131c878288016111d5565b925050606085013567ffffffffffffffff81111561133d5761133c611c95565b5b6113498782880161114f565b91505092959194509250565b60006020828403121561136b5761136a611c9a565b5b6000611379848285016111ab565b91505092915050565b6000806040838503121561139957611398611c9a565b5b60006113a7858286016111c0565b92505060206113b8858286016111d5565b9150509250929050565b6000602082840312156113d8576113d7611c9a565b5b60006113e6848285016111d5565b91505092915050565b6000806040838503121561140657611405611c9a565b5b6000611414858286016111d5565b92505060206114258582860161110c565b9150509250929050565b61143881611a9b565b82525050565b61144f61144a82611a9b565b611bd0565b82525050565b61145e81611aad565b82525050565b61146d81611ab9565b82525050565b600061147e82611a13565b6114888185611a29565b9350611498818560208601611b23565b80840191505092915050565b6114ad81611aed565b82525050565b60006114be82611a1e565b6114c88185611a34565b93506114d8818560208601611b23565b6114e181611c9f565b840191505092915050565b60006114f9601c83611a34565b915061150482611cbd565b602082019050919050565b600061151c602683611a34565b915061152782611ce6565b604082019050919050565b600061153f601683611a34565b915061154a82611d35565b602082019050919050565b6000611562602683611a34565b915061156d82611d5e565b604082019050919050565b6000611585602083611a34565b915061159082611dad565b602082019050919050565b60006115a8603d83611a34565b91506115b382611dd6565b604082019050919050565b60006115cb601683611a34565b91506115d682611e25565b602082019050919050565b60006115ee601d83611a34565b91506115f982611e4e565b602082019050919050565b6000611611601283611a34565b915061161c82611e77565b602082019050919050565b6000611634602a83611a34565b915061163f82611ea0565b604082019050919050565b61165381611ae3565b82525050565b61166a61166582611ae3565b611bf4565b82525050565b600061167c828561143e565b60148201915061168c8284611659565b6020820191508190509392505050565b60006116a88284611473565b915081905092915050565b60006020820190506116c8600083018461142f565b92915050565b60006060820190506116e3600083018661142f565b6116f0602083018561142f565b6116fd604083018461164a565b949350505050565b600060408201905061171a600083018561142f565b611727602083018461164a565b9392505050565b6000606082019050611743600083018661142f565b611750602083018561164a565b61175d604083018461164a565b949350505050565b600060208201905061177a6000830184611455565b92915050565b60006020820190506117956000830184611464565b92915050565b60006020820190506117b060008301846114a4565b92915050565b600060208201905081810360008301526117d081846114b3565b905092915050565b600060208201905081810360008301526117f1816114ec565b9050919050565b600060208201905081810360008301526118118161150f565b9050919050565b6000602082019050818103600083015261183181611532565b9050919050565b6000602082019050818103600083015261185181611555565b9050919050565b6000602082019050818103600083015261187181611578565b9050919050565b600060208201905081810360008301526118918161159b565b9050919050565b600060208201905081810360008301526118b1816115be565b9050919050565b600060208201905081810360008301526118d1816115e1565b9050919050565b600060208201905081810360008301526118f181611604565b9050919050565b6000602082019050818103600083015261191181611627565b9050919050565b600060208201905061192d600083018461164a565b92915050565b6000606082019050611948600083018661164a565b6119556020830185611464565b611962604083018461164a565b949350505050565b6000611974611985565b90506119808282611b56565b919050565b6000604051905090565b600067ffffffffffffffff8211156119aa576119a9611c5c565b5b602082029050602081019050919050565b600067ffffffffffffffff8211156119d6576119d5611c5c565b5b602082029050602081019050919050565b600067ffffffffffffffff821115611a0257611a01611c5c565b5b602082029050602081019050919050565b600081519050919050565b600081519050919050565b600081905092915050565b600082825260208201905092915050565b6000611a5082611ae3565b9150611a5b83611ae3565b9250827fffffffffffffffffffffffffffffffffffffffffffffffffffffffffffffffff03821115611a9057611a8f611bfe565b5b828201905092915050565b6000611aa682611ac3565b9050919050565b60008115159050919050565b6000819050919050565b600073ffffffffffffffffffffffffffffffffffffffff82169050919050565b6000819050919050565b6000611af882611aff565b9050919050565b6000611b0a82611b11565b9050919050565b6000611b1c82611ac3565b9050919050565b60005b83811015611b41578082015181840152602081019050611b26565b83811115611b50576000848401525b50505050565b611b5f82611c9f565b810181811067ffffffffffffffff82111715611b7e57611b7d611c5c565b5b80604052505050565b6000611b9282611ae3565b91507fffffffffffffffffffffffffffffffffffffffffffffffffffffffffffffffff821415611bc557611bc4611bfe565b5b600182019050919050565b6000611bdb82611be2565b9050919050565b6000611bed82611cb0565b9050919050565b6000819050919050565b7f4e487b7100000000000000000000000000000000000000000000000000000000600052601160045260246000fd5b7f4e487b7100000000000000000000000000000000000000000000000000000000600052603260045260246000fd5b7f4e487b7100000000000000000000000000000000000000000000000000000000600052604160045260246000fd5b600080fd5b600080fd5b600080fd5b600080fd5b6000601f19601f8301169050919050565b60008160601b9050919050565b7f5765656b2063616e6e6f7420626520696e207468652066757475726500000000600082015250565b7f4f776e61626c653a206e6577206f776e657220697320746865207a65726f206160008201527f6464726573730000000000000000000000000000000000000000000000000000602082015250565b7f496e636f7272656374206d65726b6c652070726f6f6600000000000000000000600082015250565b7f416464726573733a20696e73756666696369656e742062616c616e636520666f60008201527f722063616c6c0000000000000000000000000000000000000000000000000000602082015250565b7f4f776e61626c653a2063616c6c6572206973206e6f7420746865206f776e6572600082015250565b7f4e6f2062616c616e636520776f756c64206265207472616e736665727265642060008201527f2d206e6f7420676f696e6720746f20776173746520796f757220676173000000602082015250565b7f4c502068617320616c726561647920636c61696d656400000000000000000000600082015250565b7f416464726573733a2063616c6c20746f206e6f6e2d636f6e7472616374000000600082015250565b7f4d69736d61746368696e6720696e707574730000000000000000000000000000600082015250565b7f5361666545524332303a204552433230206f7065726174696f6e20646964206e60008201527f6f74207375636365656400000000000000000000000000000000000000000000602082015250565b611ef881611a9b565b8114611f0357600080fd5b50565b611f0f81611aad565b8114611f1a57600080fd5b50565b611f2681611ab9565b8114611f3157600080fd5b50565b611f3d81611ae3565b8114611f4857600080fd5b5056fea2646970667358221220918f3967c24c58d440c2e8829d311f6173841f86a06ffbc7394e90b66215c24c64736f6c63430008070033",
					"opcodes": "PUSH1 0x80 PUSH1 0x40 MSTORE CALLVALUE DUP1 ISZERO PUSH3 0x11 JUMPI PUSH1 0x0 DUP1 REVERT JUMPDEST POP PUSH1 0x40 MLOAD PUSH3 0x21AC CODESIZE SUB DUP1 PUSH3 0x21AC DUP4 CODECOPY DUP2 DUP2 ADD PUSH1 0x40 MSTORE DUP2 ADD SWAP1 PUSH3 0x37 SWAP2 SWAP1 PUSH3 0x182 JUMP JUMPDEST PUSH3 0x57 PUSH3 0x4B PUSH3 0x9F PUSH1 0x20 SHL PUSH1 0x20 SHR JUMP JUMPDEST PUSH3 0xA7 PUSH1 0x20 SHL PUSH1 0x20 SHR JUMP JUMPDEST DUP1 PUSH1 0x1 PUSH1 0x0 PUSH2 0x100 EXP DUP2 SLOAD DUP2 PUSH20 0xFFFFFFFFFFFFFFFFFFFFFFFFFFFFFFFFFFFFFFFF MUL NOT AND SWAP1 DUP4 PUSH20 0xFFFFFFFFFFFFFFFFFFFFFFFFFFFFFFFFFFFFFFFF AND MUL OR SWAP1 SSTORE POP POP PUSH3 0x21B JUMP JUMPDEST PUSH1 0x0 CALLER SWAP1 POP SWAP1 JUMP JUMPDEST PUSH1 0x0 DUP1 PUSH1 0x0 SWAP1 SLOAD SWAP1 PUSH2 0x100 EXP SWAP1 DIV PUSH20 0xFFFFFFFFFFFFFFFFFFFFFFFFFFFFFFFFFFFFFFFF AND SWAP1 POP DUP2 PUSH1 0x0 DUP1 PUSH2 0x100 EXP DUP2 SLOAD DUP2 PUSH20 0xFFFFFFFFFFFFFFFFFFFFFFFFFFFFFFFFFFFFFFFF MUL NOT AND SWAP1 DUP4 PUSH20 0xFFFFFFFFFFFFFFFFFFFFFFFFFFFFFFFFFFFFFFFF AND MUL OR SWAP1 SSTORE POP DUP2 PUSH20 0xFFFFFFFFFFFFFFFFFFFFFFFFFFFFFFFFFFFFFFFF AND DUP2 PUSH20 0xFFFFFFFFFFFFFFFFFFFFFFFFFFFFFFFFFFFFFFFF AND PUSH32 0x8BE0079C531659141344CD1FD0A4F28419497F9722A3DAAFE3B4186F6B6457E0 PUSH1 0x40 MLOAD PUSH1 0x40 MLOAD DUP1 SWAP2 SUB SWAP1 LOG3 POP POP JUMP JUMPDEST PUSH1 0x0 DUP2 MLOAD SWAP1 POP PUSH3 0x17C DUP2 PUSH3 0x201 JUMP JUMPDEST SWAP3 SWAP2 POP POP JUMP JUMPDEST PUSH1 0x0 PUSH1 0x20 DUP3 DUP5 SUB SLT ISZERO PUSH3 0x19B JUMPI PUSH3 0x19A PUSH3 0x1FC JUMP JUMPDEST JUMPDEST PUSH1 0x0 PUSH3 0x1AB DUP5 DUP3 DUP6 ADD PUSH3 0x16B JUMP JUMPDEST SWAP2 POP POP SWAP3 SWAP2 POP POP JUMP JUMPDEST PUSH1 0x0 PUSH3 0x1C1 DUP3 PUSH3 0x1DC JUMP JUMPDEST SWAP1 POP SWAP2 SWAP1 POP JUMP JUMPDEST PUSH1 0x0 PUSH3 0x1D5 DUP3 PUSH3 0x1B4 JUMP JUMPDEST SWAP1 POP SWAP2 SWAP1 POP JUMP JUMPDEST PUSH1 0x0 PUSH20 0xFFFFFFFFFFFFFFFFFFFFFFFFFFFFFFFFFFFFFFFF DUP3 AND SWAP1 POP SWAP2 SWAP1 POP JUMP JUMPDEST PUSH1 0x0 DUP1 REVERT JUMPDEST PUSH3 0x20C DUP2 PUSH3 0x1C8 JUMP JUMPDEST DUP2 EQ PUSH3 0x218 JUMPI PUSH1 0x0 DUP1 REVERT JUMPDEST POP JUMP JUMPDEST PUSH2 0x1F81 DUP1 PUSH3 0x22B PUSH1 0x0 CODECOPY PUSH1 0x0 RETURN INVALID PUSH1 0x80 PUSH1 0x40 MSTORE CALLVALUE DUP1 ISZERO PUSH2 0x10 JUMPI PUSH1 0x0 DUP1 REVERT JUMPDEST POP PUSH1 0x4 CALLDATASIZE LT PUSH2 0xB4 JUMPI PUSH1 0x0 CALLDATALOAD PUSH1 0xE0 SHR DUP1 PUSH4 0xBA593714 GT PUSH2 0x71 JUMPI DUP1 PUSH4 0xBA593714 EQ PUSH2 0x18D JUMPI DUP1 PUSH4 0xD5EFD20A EQ PUSH2 0x1A9 JUMPI DUP1 PUSH4 0xEB0D07F5 EQ PUSH2 0x1C5 JUMPI DUP1 PUSH4 0xEBF04917 EQ PUSH2 0x1F5 JUMPI DUP1 PUSH4 0xF2FDE38B EQ PUSH2 0x213 JUMPI DUP1 PUSH4 0xFC0C546A EQ PUSH2 0x22F JUMPI PUSH2 0xB4 JUMP JUMPDEST DUP1 PUSH4 0x120AA877 EQ PUSH2 0xB9 JUMPI DUP1 PUSH4 0x58B4E4B4 EQ PUSH2 0xE9 JUMPI DUP1 PUSH4 0x65EF53B1 EQ PUSH2 0x105 JUMPI DUP1 PUSH4 0x715018A6 EQ PUSH2 0x135 JUMPI DUP1 PUSH4 0x71C5ECB1 EQ PUSH2 0x13F JUMPI DUP1 PUSH4 0x8DA5CB5B EQ PUSH2 0x16F JUMPI JUMPDEST PUSH1 0x0 DUP1 REVERT JUMPDEST PUSH2 0xD3 PUSH1 0x4 DUP1 CALLDATASIZE SUB DUP2 ADD SWAP1 PUSH2 0xCE SWAP2 SWAP1 PUSH2 0x13EF JUMP JUMPDEST PUSH2 0x24D JUMP JUMPDEST PUSH1 0x40 MLOAD PUSH2 0xE0 SWAP2 SWAP1 PUSH2 0x1765 JUMP JUMPDEST PUSH1 0x40 MLOAD DUP1 SWAP2 SUB SWAP1 RETURN JUMPDEST PUSH2 0x103 PUSH1 0x4 DUP1 CALLDATASIZE SUB DUP2 ADD SWAP1 PUSH2 0xFE SWAP2 SWAP1 PUSH2 0x12D2 JUMP JUMPDEST PUSH2 0x27C JUMP JUMPDEST STOP JUMPDEST PUSH2 0x11F PUSH1 0x4 DUP1 CALLDATASIZE SUB DUP2 ADD SWAP1 PUSH2 0x11A SWAP2 SWAP1 PUSH2 0x1382 JUMP JUMPDEST PUSH2 0x298 JUMP JUMPDEST PUSH1 0x40 MLOAD PUSH2 0x12C SWAP2 SWAP1 PUSH2 0x1918 JUMP JUMPDEST PUSH1 0x40 MLOAD DUP1 SWAP2 SUB SWAP1 RETURN JUMPDEST PUSH2 0x13D PUSH2 0x3DF JUMP JUMPDEST STOP JUMPDEST PUSH2 0x159 PUSH1 0x4 DUP1 CALLDATASIZE SUB DUP2 ADD SWAP1 PUSH2 0x154 SWAP2 SWAP1 PUSH2 0x13C2 JUMP JUMPDEST PUSH2 0x467 JUMP JUMPDEST PUSH1 0x40 MLOAD PUSH2 0x166 SWAP2 SWAP1 PUSH2 0x1780 JUMP JUMPDEST PUSH1 0x40 MLOAD DUP1 SWAP2 SUB SWAP1 RETURN JUMPDEST PUSH2 0x177 PUSH2 0x47F JUMP JUMPDEST PUSH1 0x40 MLOAD PUSH2 0x184 SWAP2 SWAP1 PUSH2 0x16B3 JUMP JUMPDEST PUSH1 0x40 MLOAD DUP1 SWAP2 SUB SWAP1 RETURN JUMPDEST PUSH2 0x1A7 PUSH1 0x4 DUP1 CALLDATASIZE SUB DUP2 ADD SWAP1 PUSH2 0x1A2 SWAP2 SWAP1 PUSH2 0x1217 JUMP JUMPDEST PUSH2 0x4A8 JUMP JUMPDEST STOP JUMPDEST PUSH2 0x1C3 PUSH1 0x4 DUP1 CALLDATASIZE SUB DUP2 ADD SWAP1 PUSH2 0x1BE SWAP2 SWAP1 PUSH2 0x13C2 JUMP JUMPDEST PUSH2 0x5B8 JUMP JUMPDEST STOP JUMPDEST PUSH2 0x1DF PUSH1 0x4 DUP1 CALLDATASIZE SUB DUP2 ADD SWAP1 PUSH2 0x1DA SWAP2 SWAP1 PUSH2 0x12D2 JUMP JUMPDEST PUSH2 0x689 JUMP JUMPDEST PUSH1 0x40 MLOAD PUSH2 0x1EC SWAP2 SWAP1 PUSH2 0x1765 JUMP JUMPDEST PUSH1 0x40 MLOAD DUP1 SWAP2 SUB SWAP1 RETURN JUMPDEST PUSH2 0x1FD PUSH2 0x6A1 JUMP JUMPDEST PUSH1 0x40 MLOAD PUSH2 0x20A SWAP2 SWAP1 PUSH2 0x1918 JUMP JUMPDEST PUSH1 0x40 MLOAD DUP1 SWAP2 SUB SWAP1 RETURN JUMPDEST PUSH2 0x22D PUSH1 0x4 DUP1 CALLDATASIZE SUB DUP2 ADD SWAP1 PUSH2 0x228 SWAP2 SWAP1 PUSH2 0x11EA JUMP JUMPDEST PUSH2 0x6A7 JUMP JUMPDEST STOP JUMPDEST PUSH2 0x237 PUSH2 0x79F JUMP JUMPDEST PUSH1 0x40 MLOAD PUSH2 0x244 SWAP2 SWAP1 PUSH2 0x179B JUMP JUMPDEST PUSH1 0x40 MLOAD DUP1 SWAP2 SUB SWAP1 RETURN JUMPDEST PUSH1 0x3 PUSH1 0x20 MSTORE DUP2 PUSH1 0x0 MSTORE PUSH1 0x40 PUSH1 0x0 KECCAK256 PUSH1 0x20 MSTORE DUP1 PUSH1 0x0 MSTORE PUSH1 0x40 PUSH1 0x0 KECCAK256 PUSH1 0x0 SWAP2 POP SWAP2 POP SWAP1 SLOAD SWAP1 PUSH2 0x100 EXP SWAP1 DIV PUSH1 0xFF AND DUP2 JUMP JUMPDEST PUSH2 0x288 DUP5 DUP5 DUP5 DUP5 PUSH2 0x7C5 JUMP JUMPDEST PUSH2 0x292 DUP5 DUP4 PUSH2 0x99C JUMP JUMPDEST POP POP POP POP JUMP JUMPDEST PUSH1 0x0 PUSH2 0x2A2 PUSH2 0xA36 JUMP JUMPDEST PUSH20 0xFFFFFFFFFFFFFFFFFFFFFFFFFFFFFFFFFFFFFFFF AND PUSH2 0x2C0 PUSH2 0x47F JUMP JUMPDEST PUSH20 0xFFFFFFFFFFFFFFFFFFFFFFFFFFFFFFFFFFFFFFFF AND EQ PUSH2 0x316 JUMPI PUSH1 0x40 MLOAD PUSH32 0x8C379A000000000000000000000000000000000000000000000000000000000 DUP2 MSTORE PUSH1 0x4 ADD PUSH2 0x30D SWAP1 PUSH2 0x1858 JUMP JUMPDEST PUSH1 0x40 MLOAD DUP1 SWAP2 SUB SWAP1 REVERT JUMPDEST PUSH2 0x365 CALLER ADDRESS DUP5 PUSH1 0x1 PUSH1 0x0 SWAP1 SLOAD SWAP1 PUSH2 0x100 EXP SWAP1 DIV PUSH20 0xFFFFFFFFFFFFFFFFFFFFFFFFFFFFFFFFFFFFFFFF AND PUSH20 0xFFFFFFFFFFFFFFFFFFFFFFFFFFFFFFFFFFFFFFFF AND PUSH2 0xA3E SWAP1 SWAP4 SWAP3 SWAP2 SWAP1 PUSH4 0xFFFFFFFF AND JUMP JUMPDEST PUSH1 0x4 SLOAD SWAP1 POP DUP3 PUSH1 0x2 PUSH1 0x0 DUP4 DUP2 MSTORE PUSH1 0x20 ADD SWAP1 DUP2 MSTORE PUSH1 0x20 ADD PUSH1 0x0 KECCAK256 DUP2 SWAP1 SSTORE POP PUSH2 0x398 PUSH1 0x1 PUSH1 0x4 SLOAD PUSH2 0xAC7 SWAP1 SWAP2 SWAP1 PUSH4 0xFFFFFFFF AND JUMP JUMPDEST PUSH1 0x4 DUP2 SWAP1 SSTORE POP PUSH32 0x5C8770684B8F82E9ADE880FB05CCFB53C969170CD40E9746A3703F241C9023EC DUP2 DUP5 DUP5 PUSH1 0x40 MLOAD PUSH2 0x3D1 SWAP4 SWAP3 SWAP2 SWAP1 PUSH2 0x1933 JUMP JUMPDEST PUSH1 0x40 MLOAD DUP1 SWAP2 SUB SWAP1 LOG1 SWAP3 SWAP2 POP POP JUMP JUMPDEST PUSH2 0x3E7 PUSH2 0xA36 JUMP JUMPDEST PUSH20 0xFFFFFFFFFFFFFFFFFFFFFFFFFFFFFFFFFFFFFFFF AND PUSH2 0x405 PUSH2 0x47F JUMP JUMPDEST PUSH20 0xFFFFFFFFFFFFFFFFFFFFFFFFFFFFFFFFFFFFFFFF AND EQ PUSH2 0x45B JUMPI PUSH1 0x40 MLOAD PUSH32 0x8C379A000000000000000000000000000000000000000000000000000000000 DUP2 MSTORE PUSH1 0x4 ADD PUSH2 0x452 SWAP1 PUSH2 0x1858 JUMP JUMPDEST PUSH1 0x40 MLOAD DUP1 SWAP2 SUB SWAP1 REVERT JUMPDEST PUSH2 0x465 PUSH1 0x0 PUSH2 0xADD JUMP JUMPDEST JUMP JUMPDEST PUSH1 0x2 PUSH1 0x20 MSTORE DUP1 PUSH1 0x0 MSTORE PUSH1 0x40 PUSH1 0x0 KECCAK256 PUSH1 0x0 SWAP2 POP SWAP1 POP SLOAD DUP2 JUMP JUMPDEST PUSH1 0x0 DUP1 PUSH1 0x0 SWAP1 SLOAD SWAP1 PUSH2 0x100 EXP SWAP1 DIV PUSH20 0xFFFFFFFFFFFFFFFFFFFFFFFFFFFFFFFFFFFFFFFF AND SWAP1 POP SWAP1 JUMP JUMPDEST PUSH1 0x0 DUP4 MLOAD SWAP1 POP DUP3 MLOAD DUP2 EQ DUP1 ISZERO PUSH2 0x4BE JUMPI POP DUP2 MLOAD DUP2 EQ JUMPDEST PUSH2 0x4FD JUMPI PUSH1 0x40 MLOAD PUSH32 0x8C379A000000000000000000000000000000000000000000000000000000000 DUP2 MSTORE PUSH1 0x4 ADD PUSH2 0x4F4 SWAP1 PUSH2 0x18D8 JUMP JUMPDEST PUSH1 0x40 MLOAD DUP1 SWAP2 SUB SWAP1 REVERT JUMPDEST PUSH1 0x0 DUP1 JUMPDEST DUP3 DUP2 LT ISZERO PUSH2 0x5A5 JUMPI PUSH2 0x563 DUP8 DUP8 DUP4 DUP2 MLOAD DUP2 LT PUSH2 0x520 JUMPI PUSH2 0x51F PUSH2 0x1C2D JUMP JUMPDEST JUMPDEST PUSH1 0x20 MUL PUSH1 0x20 ADD ADD MLOAD DUP8 DUP5 DUP2 MLOAD DUP2 LT PUSH2 0x53B JUMPI PUSH2 0x53A PUSH2 0x1C2D JUMP JUMPDEST JUMPDEST PUSH1 0x20 MUL PUSH1 0x20 ADD ADD MLOAD DUP8 DUP6 DUP2 MLOAD DUP2 LT PUSH2 0x556 JUMPI PUSH2 0x555 PUSH2 0x1C2D JUMP JUMPDEST JUMPDEST PUSH1 0x20 MUL PUSH1 0x20 ADD ADD MLOAD PUSH2 0x7C5 JUMP JUMPDEST PUSH2 0x590 DUP6 DUP3 DUP2 MLOAD DUP2 LT PUSH2 0x579 JUMPI PUSH2 0x578 PUSH2 0x1C2D JUMP JUMPDEST JUMPDEST PUSH1 0x20 MUL PUSH1 0x20 ADD ADD MLOAD DUP4 PUSH2 0xAC7 SWAP1 SWAP2 SWAP1 PUSH4 0xFFFFFFFF AND JUMP JUMPDEST SWAP2 POP DUP1 DUP1 PUSH2 0x59D SWAP1 PUSH2 0x1B87 JUMP JUMPDEST SWAP2 POP POP PUSH2 0x501 JUMP JUMPDEST POP PUSH2 0x5B0 DUP7 DUP3 PUSH2 0x99C JUMP JUMPDEST POP POP POP POP POP POP JUMP JUMPDEST PUSH2 0x5C0 PUSH2 0xA36 JUMP JUMPDEST PUSH20 0xFFFFFFFFFFFFFFFFFFFFFFFFFFFFFFFFFFFFFFFF AND PUSH2 0x5DE PUSH2 0x47F JUMP JUMPDEST PUSH20 0xFFFFFFFFFFFFFFFFFFFFFFFFFFFFFFFFFFFFFFFF AND EQ PUSH2 0x634 JUMPI PUSH1 0x40 MLOAD PUSH32 0x8C379A000000000000000000000000000000000000000000000000000000000 DUP2 MSTORE PUSH1 0x4 ADD PUSH2 0x62B SWAP1 PUSH2 0x1858 JUMP JUMPDEST PUSH1 0x40 MLOAD DUP1 SWAP2 SUB SWAP1 REVERT JUMPDEST PUSH1 0x0 DUP1 SHL PUSH1 0x2 PUSH1 0x0 DUP4 DUP2 MSTORE PUSH1 0x20 ADD SWAP1 DUP2 MSTORE PUSH1 0x20 ADD PUSH1 0x0 KECCAK256 DUP2 SWAP1 SSTORE POP PUSH32 0xCC071CBD9AE50A4C78D1153B76BD2D46BA8D4C7662842718EC3DE1D67A144DAF DUP2 PUSH1 0x40 MLOAD PUSH2 0x67E SWAP2 SWAP1 PUSH2 0x1918 JUMP JUMPDEST PUSH1 0x40 MLOAD DUP1 SWAP2 SUB SWAP1 LOG1 POP JUMP JUMPDEST PUSH1 0x0 PUSH2 0x697 DUP6 DUP6 DUP6 DUP6 PUSH2 0xBA1 JUMP JUMPDEST SWAP1 POP SWAP5 SWAP4 POP POP POP POP JUMP JUMPDEST PUSH1 0x4 SLOAD DUP2 JUMP JUMPDEST PUSH2 0x6AF PUSH2 0xA36 JUMP JUMPDEST PUSH20 0xFFFFFFFFFFFFFFFFFFFFFFFFFFFFFFFFFFFFFFFF AND PUSH2 0x6CD PUSH2 0x47F JUMP JUMPDEST PUSH20 0xFFFFFFFFFFFFFFFFFFFFFFFFFFFFFFFFFFFFFFFF AND EQ PUSH2 0x723 JUMPI PUSH1 0x40 MLOAD PUSH32 0x8C379A000000000000000000000000000000000000000000000000000000000 DUP2 MSTORE PUSH1 0x4 ADD PUSH2 0x71A SWAP1 PUSH2 0x1858 JUMP JUMPDEST PUSH1 0x40 MLOAD DUP1 SWAP2 SUB SWAP1 REVERT JUMPDEST PUSH1 0x0 PUSH20 0xFFFFFFFFFFFFFFFFFFFFFFFFFFFFFFFFFFFFFFFF AND DUP2 PUSH20 0xFFFFFFFFFFFFFFFFFFFFFFFFFFFFFFFFFFFFFFFF AND EQ ISZERO PUSH2 0x793 JUMPI PUSH1 0x40 MLOAD PUSH32 0x8C379A000000000000000000000000000000000000000000000000000000000 DUP2 MSTORE PUSH1 0x4 ADD PUSH2 0x78A SWAP1 PUSH2 0x17F8 JUMP JUMPDEST PUSH1 0x40 MLOAD DUP1 SWAP2 SUB SWAP1 REVERT JUMPDEST PUSH2 0x79C DUP2 PUSH2 0xADD JUMP JUMPDEST POP JUMP JUMPDEST PUSH1 0x1 PUSH1 0x0 SWAP1 SLOAD SWAP1 PUSH2 0x100 EXP SWAP1 DIV PUSH20 0xFFFFFFFFFFFFFFFFFFFFFFFFFFFFFFFFFFFFFFFF AND DUP2 JUMP JUMPDEST PUSH1 0x4 SLOAD DUP4 LT PUSH2 0x809 JUMPI PUSH1 0x40 MLOAD PUSH32 0x8C379A000000000000000000000000000000000000000000000000000000000 DUP2 MSTORE PUSH1 0x4 ADD PUSH2 0x800 SWAP1 PUSH2 0x17D8 JUMP JUMPDEST PUSH1 0x40 MLOAD DUP1 SWAP2 SUB SWAP1 REVERT JUMPDEST PUSH1 0x3 PUSH1 0x0 DUP5 DUP2 MSTORE PUSH1 0x20 ADD SWAP1 DUP2 MSTORE PUSH1 0x20 ADD PUSH1 0x0 KECCAK256 PUSH1 0x0 DUP6 PUSH20 0xFFFFFFFFFFFFFFFFFFFFFFFFFFFFFFFFFFFFFFFF AND PUSH20 0xFFFFFFFFFFFFFFFFFFFFFFFFFFFFFFFFFFFFFFFF AND DUP2 MSTORE PUSH1 0x20 ADD SWAP1 DUP2 MSTORE PUSH1 0x20 ADD PUSH1 0x0 KECCAK256 PUSH1 0x0 SWAP1 SLOAD SWAP1 PUSH2 0x100 EXP SWAP1 DIV PUSH1 0xFF AND ISZERO PUSH2 0x8A7 JUMPI PUSH1 0x40 MLOAD PUSH32 0x8C379A000000000000000000000000000000000000000000000000000000000 DUP2 MSTORE PUSH1 0x4 ADD PUSH2 0x89E SWAP1 PUSH2 0x1898 JUMP JUMPDEST PUSH1 0x40 MLOAD DUP1 SWAP2 SUB SWAP1 REVERT JUMPDEST PUSH2 0x8B3 DUP5 DUP5 DUP5 DUP5 PUSH2 0xBA1 JUMP JUMPDEST PUSH2 0x8F2 JUMPI PUSH1 0x40 MLOAD PUSH32 0x8C379A000000000000000000000000000000000000000000000000000000000 DUP2 MSTORE PUSH1 0x4 ADD PUSH2 0x8E9 SWAP1 PUSH2 0x1818 JUMP JUMPDEST PUSH1 0x40 MLOAD DUP1 SWAP2 SUB SWAP1 REVERT JUMPDEST PUSH1 0x1 PUSH1 0x3 PUSH1 0x0 DUP6 DUP2 MSTORE PUSH1 0x20 ADD SWAP1 DUP2 MSTORE PUSH1 0x20 ADD PUSH1 0x0 KECCAK256 PUSH1 0x0 DUP7 PUSH20 0xFFFFFFFFFFFFFFFFFFFFFFFFFFFFFFFFFFFFFFFF AND PUSH20 0xFFFFFFFFFFFFFFFFFFFFFFFFFFFFFFFFFFFFFFFF AND DUP2 MSTORE PUSH1 0x20 ADD SWAP1 DUP2 MSTORE PUSH1 0x20 ADD PUSH1 0x0 KECCAK256 PUSH1 0x0 PUSH2 0x100 EXP DUP2 SLOAD DUP2 PUSH1 0xFF MUL NOT AND SWAP1 DUP4 ISZERO ISZERO MUL OR SWAP1 SSTORE POP PUSH32 0x987D620F307FF6B94D58743CB7A7509F24071586A77759B77C2D4E29F75A2F9A DUP5 DUP5 DUP5 PUSH1 0x40 MLOAD PUSH2 0x98E SWAP4 SWAP3 SWAP2 SWAP1 PUSH2 0x172E JUMP JUMPDEST PUSH1 0x40 MLOAD DUP1 SWAP2 SUB SWAP1 LOG1 POP POP POP POP JUMP JUMPDEST PUSH1 0x0 DUP2 GT ISZERO PUSH2 0x9F7 JUMPI PUSH2 0x9F2 DUP3 DUP3 PUSH1 0x1 PUSH1 0x0 SWAP1 SLOAD SWAP1 PUSH2 0x100 EXP SWAP1 DIV PUSH20 0xFFFFFFFFFFFFFFFFFFFFFFFFFFFFFFFFFFFFFFFF AND PUSH20 0xFFFFFFFFFFFFFFFFFFFFFFFFFFFFFFFFFFFFFFFF AND PUSH2 0xBF8 SWAP1 SWAP3 SWAP2 SWAP1 PUSH4 0xFFFFFFFF AND JUMP JUMPDEST PUSH2 0xA32 JUMP JUMPDEST PUSH1 0x40 MLOAD PUSH32 0x8C379A000000000000000000000000000000000000000000000000000000000 DUP2 MSTORE PUSH1 0x4 ADD PUSH2 0xA29 SWAP1 PUSH2 0x1878 JUMP JUMPDEST PUSH1 0x40 MLOAD DUP1 SWAP2 SUB SWAP1 REVERT JUMPDEST POP POP JUMP JUMPDEST PUSH1 0x0 CALLER SWAP1 POP SWAP1 JUMP JUMPDEST PUSH2 0xAC1 DUP5 PUSH4 0x23B872DD PUSH1 0xE0 SHL DUP6 DUP6 DUP6 PUSH1 0x40 MLOAD PUSH1 0x24 ADD PUSH2 0xA5F SWAP4 SWAP3 SWAP2 SWAP1 PUSH2 0x16CE JUMP JUMPDEST PUSH1 0x40 MLOAD PUSH1 0x20 DUP2 DUP4 SUB SUB DUP2 MSTORE SWAP1 PUSH1 0x40 MSTORE SWAP1 PUSH28 0xFFFFFFFFFFFFFFFFFFFFFFFFFFFFFFFFFFFFFFFFFFFFFFFFFFFFFFFF NOT AND PUSH1 0x20 DUP3 ADD DUP1 MLOAD PUSH28 0xFFFFFFFFFFFFFFFFFFFFFFFFFFFFFFFFFFFFFFFFFFFFFFFFFFFFFFFF DUP4 DUP2 DUP4 AND OR DUP4 MSTORE POP POP POP POP PUSH2 0xC7E JUMP JUMPDEST POP POP POP POP JUMP JUMPDEST PUSH1 0x0 DUP2 DUP4 PUSH2 0xAD5 SWAP2 SWAP1 PUSH2 0x1A45 JUMP JUMPDEST SWAP1 POP SWAP3 SWAP2 POP POP JUMP JUMPDEST PUSH1 0x0 DUP1 PUSH1 0x0 SWAP1 SLOAD SWAP1 PUSH2 0x100 EXP SWAP1 DIV PUSH20 0xFFFFFFFFFFFFFFFFFFFFFFFFFFFFFFFFFFFFFFFF AND SWAP1 POP DUP2 PUSH1 0x0 DUP1 PUSH2 0x100 EXP DUP2 SLOAD DUP2 PUSH20 0xFFFFFFFFFFFFFFFFFFFFFFFFFFFFFFFFFFFFFFFF MUL NOT AND SWAP1 DUP4 PUSH20 0xFFFFFFFFFFFFFFFFFFFFFFFFFFFFFFFFFFFFFFFF AND MUL OR SWAP1 SSTORE POP DUP2 PUSH20 0xFFFFFFFFFFFFFFFFFFFFFFFFFFFFFFFFFFFFFFFF AND DUP2 PUSH20 0xFFFFFFFFFFFFFFFFFFFFFFFFFFFFFFFFFFFFFFFF AND PUSH32 0x8BE0079C531659141344CD1FD0A4F28419497F9722A3DAAFE3B4186F6B6457E0 PUSH1 0x40 MLOAD PUSH1 0x40 MLOAD DUP1 SWAP2 SUB SWAP1 LOG3 POP POP JUMP JUMPDEST PUSH1 0x0 DUP1 DUP6 DUP5 PUSH1 0x40 MLOAD PUSH1 0x20 ADD PUSH2 0xBB7 SWAP3 SWAP2 SWAP1 PUSH2 0x1670 JUMP JUMPDEST PUSH1 0x40 MLOAD PUSH1 0x20 DUP2 DUP4 SUB SUB DUP2 MSTORE SWAP1 PUSH1 0x40 MSTORE DUP1 MLOAD SWAP1 PUSH1 0x20 ADD KECCAK256 SWAP1 POP PUSH2 0xBED DUP4 PUSH1 0x2 PUSH1 0x0 DUP9 DUP2 MSTORE PUSH1 0x20 ADD SWAP1 DUP2 MSTORE PUSH1 0x20 ADD PUSH1 0x0 KECCAK256 SLOAD DUP4 PUSH2 0xD45 JUMP JUMPDEST SWAP2 POP POP SWAP5 SWAP4 POP POP POP POP JUMP JUMPDEST PUSH2 0xC79 DUP4 PUSH4 0xA9059CBB PUSH1 0xE0 SHL DUP5 DUP5 PUSH1 0x40 MLOAD PUSH1 0x24 ADD PUSH2 0xC17 SWAP3 SWAP2 SWAP1 PUSH2 0x1705 JUMP JUMPDEST PUSH1 0x40 MLOAD PUSH1 0x20 DUP2 DUP4 SUB SUB DUP2 MSTORE SWAP1 PUSH1 0x40 MSTORE SWAP1 PUSH28 0xFFFFFFFFFFFFFFFFFFFFFFFFFFFFFFFFFFFFFFFFFFFFFFFFFFFFFFFF NOT AND PUSH1 0x20 DUP3 ADD DUP1 MLOAD PUSH28 0xFFFFFFFFFFFFFFFFFFFFFFFFFFFFFFFFFFFFFFFFFFFFFFFFFFFFFFFF DUP4 DUP2 DUP4 AND OR DUP4 MSTORE POP POP POP POP PUSH2 0xC7E JUMP JUMPDEST POP POP POP JUMP JUMPDEST PUSH1 0x0 PUSH2 0xCE0 DUP3 PUSH1 0x40 MLOAD DUP1 PUSH1 0x40 ADD PUSH1 0x40 MSTORE DUP1 PUSH1 0x20 DUP2 MSTORE PUSH1 0x20 ADD PUSH32 0x5361666545524332303A206C6F772D6C6576656C2063616C6C206661696C6564 DUP2 MSTORE POP DUP6 PUSH20 0xFFFFFFFFFFFFFFFFFFFFFFFFFFFFFFFFFFFFFFFF AND PUSH2 0xD5C SWAP1 SWAP3 SWAP2 SWAP1 PUSH4 0xFFFFFFFF AND JUMP JUMPDEST SWAP1 POP PUSH1 0x0 DUP2 MLOAD GT ISZERO PUSH2 0xD40 JUMPI DUP1 DUP1 PUSH1 0x20 ADD SWAP1 MLOAD DUP2 ADD SWAP1 PUSH2 0xD00 SWAP2 SWAP1 PUSH2 0x1355 JUMP JUMPDEST PUSH2 0xD3F JUMPI PUSH1 0x40 MLOAD PUSH32 0x8C379A000000000000000000000000000000000000000000000000000000000 DUP2 MSTORE PUSH1 0x4 ADD PUSH2 0xD36 SWAP1 PUSH2 0x18F8 JUMP JUMPDEST PUSH1 0x40 MLOAD DUP1 SWAP2 SUB SWAP1 REVERT JUMPDEST JUMPDEST POP POP POP JUMP JUMPDEST PUSH1 0x0 DUP3 PUSH2 0xD52 DUP6 DUP5 PUSH2 0xD74 JUMP JUMPDEST EQ SWAP1 POP SWAP4 SWAP3 POP POP POP JUMP JUMPDEST PUSH1 0x60 PUSH2 0xD6B DUP5 DUP5 PUSH1 0x0 DUP6 PUSH2 0xDE9 JUMP JUMPDEST SWAP1 POP SWAP4 SWAP3 POP POP POP JUMP JUMPDEST PUSH1 0x0 DUP1 DUP3 SWAP1 POP PUSH1 0x0 JUMPDEST DUP5 MLOAD DUP2 LT ISZERO PUSH2 0xDDE JUMPI PUSH1 0x0 DUP6 DUP3 DUP2 MLOAD DUP2 LT PUSH2 0xD9B JUMPI PUSH2 0xD9A PUSH2 0x1C2D JUMP JUMPDEST JUMPDEST PUSH1 0x20 MUL PUSH1 0x20 ADD ADD MLOAD SWAP1 POP DUP1 DUP4 GT PUSH2 0xDBD JUMPI PUSH2 0xDB6 DUP4 DUP3 PUSH2 0xEFD JUMP JUMPDEST SWAP3 POP PUSH2 0xDCA JUMP JUMPDEST PUSH2 0xDC7 DUP2 DUP5 PUSH2 0xEFD JUMP JUMPDEST SWAP3 POP JUMPDEST POP DUP1 DUP1 PUSH2 0xDD6 SWAP1 PUSH2 0x1B87 JUMP JUMPDEST SWAP2 POP POP PUSH2 0xD7D JUMP JUMPDEST POP DUP1 SWAP2 POP POP SWAP3 SWAP2 POP POP JUMP JUMPDEST PUSH1 0x60 DUP3 SELFBALANCE LT ISZERO PUSH2 0xE2E JUMPI PUSH1 0x40 MLOAD PUSH32 0x8C379A000000000000000000000000000000000000000000000000000000000 DUP2 MSTORE PUSH1 0x4 ADD PUSH2 0xE25 SWAP1 PUSH2 0x1838 JUMP JUMPDEST PUSH1 0x40 MLOAD DUP1 SWAP2 SUB SWAP1 REVERT JUMPDEST PUSH2 0xE37 DUP6 PUSH2 0xF14 JUMP JUMPDEST PUSH2 0xE76 JUMPI PUSH1 0x40 MLOAD PUSH32 0x8C379A000000000000000000000000000000000000000000000000000000000 DUP2 MSTORE PUSH1 0x4 ADD PUSH2 0xE6D SWAP1 PUSH2 0x18B8 JUMP JUMPDEST PUSH1 0x40 MLOAD DUP1 SWAP2 SUB SWAP1 REVERT JUMPDEST PUSH1 0x0 DUP1 DUP7 PUSH20 0xFFFFFFFFFFFFFFFFFFFFFFFFFFFFFFFFFFFFFFFF AND DUP6 DUP8 PUSH1 0x40 MLOAD PUSH2 0xE9F SWAP2 SWAP1 PUSH2 0x169C JUMP JUMPDEST PUSH1 0x0 PUSH1 0x40 MLOAD DUP1 DUP4 SUB DUP2 DUP6 DUP8 GAS CALL SWAP3 POP POP POP RETURNDATASIZE DUP1 PUSH1 0x0 DUP2 EQ PUSH2 0xEDC JUMPI PUSH1 0x40 MLOAD SWAP2 POP PUSH1 0x1F NOT PUSH1 0x3F RETURNDATASIZE ADD AND DUP3 ADD PUSH1 0x40 MSTORE RETURNDATASIZE DUP3 MSTORE RETURNDATASIZE PUSH1 0x0 PUSH1 0x20 DUP5 ADD RETURNDATACOPY PUSH2 0xEE1 JUMP JUMPDEST PUSH1 0x60 SWAP2 POP JUMPDEST POP SWAP2 POP SWAP2 POP PUSH2 0xEF1 DUP3 DUP3 DUP7 PUSH2 0xF37 JUMP JUMPDEST SWAP3 POP POP POP SWAP5 SWAP4 POP POP POP POP JUMP JUMPDEST PUSH1 0x0 DUP3 PUSH1 0x0 MSTORE DUP2 PUSH1 0x20 MSTORE PUSH1 0x40 PUSH1 0x0 KECCAK256 SWAP1 POP SWAP3 SWAP2 POP POP JUMP JUMPDEST PUSH1 0x0 DUP1 DUP3 PUSH20 0xFFFFFFFFFFFFFFFFFFFFFFFFFFFFFFFFFFFFFFFF AND EXTCODESIZE GT SWAP1 POP SWAP2 SWAP1 POP JUMP JUMPDEST PUSH1 0x60 DUP4 ISZERO PUSH2 0xF47 JUMPI DUP3 SWAP1 POP PUSH2 0xF97 JUMP JUMPDEST PUSH1 0x0 DUP4 MLOAD GT ISZERO PUSH2 0xF5A JUMPI DUP3 MLOAD DUP1 DUP5 PUSH1 0x20 ADD REVERT JUMPDEST DUP2 PUSH1 0x40 MLOAD PUSH32 0x8C379A000000000000000000000000000000000000000000000000000000000 DUP2 MSTORE PUSH1 0x4 ADD PUSH2 0xF8E SWAP2 SWAP1 PUSH2 0x17B6 JUMP JUMPDEST PUSH1 0x40 MLOAD DUP1 SWAP2 SUB SWAP1 REVERT JUMPDEST SWAP4 SWAP3 POP POP POP JUMP JUMPDEST PUSH1 0x0 PUSH2 0xFB1 PUSH2 0xFAC DUP5 PUSH2 0x198F JUMP JUMPDEST PUSH2 0x196A JUMP JUMPDEST SWAP1 POP DUP1 DUP4 DUP3 MSTORE PUSH1 0x20 DUP3 ADD SWAP1 POP DUP3 DUP6 PUSH1 0x20 DUP7 MUL DUP3 ADD GT ISZERO PUSH2 0xFD4 JUMPI PUSH2 0xFD3 PUSH2 0x1C90 JUMP JUMPDEST JUMPDEST PUSH1 0x0 JUMPDEST DUP6 DUP2 LT ISZERO PUSH2 0x1022 JUMPI DUP2 CALLDATALOAD PUSH8 0xFFFFFFFFFFFFFFFF DUP2 GT ISZERO PUSH2 0xFFA JUMPI PUSH2 0xFF9 PUSH2 0x1C8B JUMP JUMPDEST JUMPDEST DUP1 DUP7 ADD PUSH2 0x1007 DUP10 DUP3 PUSH2 0x114F JUMP JUMPDEST DUP6 MSTORE PUSH1 0x20 DUP6 ADD SWAP5 POP PUSH1 0x20 DUP5 ADD SWAP4 POP POP POP PUSH1 0x1 DUP2 ADD SWAP1 POP PUSH2 0xFD7 JUMP JUMPDEST POP POP POP SWAP4 SWAP3 POP POP POP JUMP JUMPDEST PUSH1 0x0 PUSH2 0x103F PUSH2 0x103A DUP5 PUSH2 0x19BB JUMP JUMPDEST PUSH2 0x196A JUMP JUMPDEST SWAP1 POP DUP1 DUP4 DUP3 MSTORE PUSH1 0x20 DUP3 ADD SWAP1 POP DUP3 DUP6 PUSH1 0x20 DUP7 MUL DUP3 ADD GT ISZERO PUSH2 0x1062 JUMPI PUSH2 0x1061 PUSH2 0x1C90 JUMP JUMPDEST JUMPDEST PUSH1 0x0 JUMPDEST DUP6 DUP2 LT ISZERO PUSH2 0x1092 JUMPI DUP2 PUSH2 0x1078 DUP9 DUP3 PUSH2 0x11C0 JUMP JUMPDEST DUP5 MSTORE PUSH1 0x20 DUP5 ADD SWAP4 POP PUSH1 0x20 DUP4 ADD SWAP3 POP POP PUSH1 0x1 DUP2 ADD SWAP1 POP PUSH2 0x1065 JUMP JUMPDEST POP POP POP SWAP4 SWAP3 POP POP POP JUMP JUMPDEST PUSH1 0x0 PUSH2 0x10AF PUSH2 0x10AA DUP5 PUSH2 0x19E7 JUMP JUMPDEST PUSH2 0x196A JUMP JUMPDEST SWAP1 POP DUP1 DUP4 DUP3 MSTORE PUSH1 0x20 DUP3 ADD SWAP1 POP DUP3 DUP6 PUSH1 0x20 DUP7 MUL DUP3 ADD GT ISZERO PUSH2 0x10D2 JUMPI PUSH2 0x10D1 PUSH2 0x1C90 JUMP JUMPDEST JUMPDEST PUSH1 0x0 JUMPDEST DUP6 DUP2 LT ISZERO PUSH2 0x1102 JUMPI DUP2 PUSH2 0x10E8 DUP9 DUP3 PUSH2 0x11D5 JUMP JUMPDEST DUP5 MSTORE PUSH1 0x20 DUP5 ADD SWAP4 POP PUSH1 0x20 DUP4 ADD SWAP3 POP POP PUSH1 0x1 DUP2 ADD SWAP1 POP PUSH2 0x10D5 JUMP JUMPDEST POP POP POP SWAP4 SWAP3 POP POP POP JUMP JUMPDEST PUSH1 0x0 DUP2 CALLDATALOAD SWAP1 POP PUSH2 0x111B DUP2 PUSH2 0x1EEF JUMP JUMPDEST SWAP3 SWAP2 POP POP JUMP JUMPDEST PUSH1 0x0 DUP3 PUSH1 0x1F DUP4 ADD SLT PUSH2 0x1136 JUMPI PUSH2 0x1135 PUSH2 0x1C8B JUMP JUMPDEST JUMPDEST DUP2 CALLDATALOAD PUSH2 0x1146 DUP5 DUP3 PUSH1 0x20 DUP7 ADD PUSH2 0xF9E JUMP JUMPDEST SWAP2 POP POP SWAP3 SWAP2 POP POP JUMP JUMPDEST PUSH1 0x0 DUP3 PUSH1 0x1F DUP4 ADD SLT PUSH2 0x1164 JUMPI PUSH2 0x1163 PUSH2 0x1C8B JUMP JUMPDEST JUMPDEST DUP2 CALLDATALOAD PUSH2 0x1174 DUP5 DUP3 PUSH1 0x20 DUP7 ADD PUSH2 0x102C JUMP JUMPDEST SWAP2 POP POP SWAP3 SWAP2 POP POP JUMP JUMPDEST PUSH1 0x0 DUP3 PUSH1 0x1F DUP4 ADD SLT PUSH2 0x1192 JUMPI PUSH2 0x1191 PUSH2 0x1C8B JUMP JUMPDEST JUMPDEST DUP2 CALLDATALOAD PUSH2 0x11A2 DUP5 DUP3 PUSH1 0x20 DUP7 ADD PUSH2 0x109C JUMP JUMPDEST SWAP2 POP POP SWAP3 SWAP2 POP POP JUMP JUMPDEST PUSH1 0x0 DUP2 MLOAD SWAP1 POP PUSH2 0x11BA DUP2 PUSH2 0x1F06 JUMP JUMPDEST SWAP3 SWAP2 POP POP JUMP JUMPDEST PUSH1 0x0 DUP2 CALLDATALOAD SWAP1 POP PUSH2 0x11CF DUP2 PUSH2 0x1F1D JUMP JUMPDEST SWAP3 SWAP2 POP POP JUMP JUMPDEST PUSH1 0x0 DUP2 CALLDATALOAD SWAP1 POP PUSH2 0x11E4 DUP2 PUSH2 0x1F34 JUMP JUMPDEST SWAP3 SWAP2 POP POP JUMP JUMPDEST PUSH1 0x0 PUSH1 0x20 DUP3 DUP5 SUB SLT ISZERO PUSH2 0x1200 JUMPI PUSH2 0x11FF PUSH2 0x1C9A JUMP JUMPDEST JUMPDEST PUSH1 0x0 PUSH2 0x120E DUP5 DUP3 DUP6 ADD PUSH2 0x110C JUMP JUMPDEST SWAP2 POP POP SWAP3 SWAP2 POP POP JUMP JUMPDEST PUSH1 0x0 DUP1 PUSH1 0x0 DUP1 PUSH1 0x80 DUP6 DUP8 SUB SLT ISZERO PUSH2 0x1231 JUMPI PUSH2 0x1230 PUSH2 0x1C9A JUMP JUMPDEST JUMPDEST PUSH1 0x0 PUSH2 0x123F DUP8 DUP3 DUP9 ADD PUSH2 0x110C JUMP JUMPDEST SWAP5 POP POP PUSH1 0x20 DUP6 ADD CALLDATALOAD PUSH8 0xFFFFFFFFFFFFFFFF DUP2 GT ISZERO PUSH2 0x1260 JUMPI PUSH2 0x125F PUSH2 0x1C95 JUMP JUMPDEST JUMPDEST PUSH2 0x126C DUP8 DUP3 DUP9 ADD PUSH2 0x117D JUMP JUMPDEST SWAP4 POP POP PUSH1 0x40 DUP6 ADD CALLDATALOAD PUSH8 0xFFFFFFFFFFFFFFFF DUP2 GT ISZERO PUSH2 0x128D JUMPI PUSH2 0x128C PUSH2 0x1C95 JUMP JUMPDEST JUMPDEST PUSH2 0x1299 DUP8 DUP3 DUP9 ADD PUSH2 0x117D JUMP JUMPDEST SWAP3 POP POP PUSH1 0x60 DUP6 ADD CALLDATALOAD PUSH8 0xFFFFFFFFFFFFFFFF DUP2 GT ISZERO PUSH2 0x12BA JUMPI PUSH2 0x12B9 PUSH2 0x1C95 JUMP JUMPDEST JUMPDEST PUSH2 0x12C6 DUP8 DUP3 DUP9 ADD PUSH2 0x1121 JUMP JUMPDEST SWAP2 POP POP SWAP3 SWAP6 SWAP2 SWAP5 POP SWAP3 POP JUMP JUMPDEST PUSH1 0x0 DUP1 PUSH1 0x0 DUP1 PUSH1 0x80 DUP6 DUP8 SUB SLT ISZERO PUSH2 0x12EC JUMPI PUSH2 0x12EB PUSH2 0x1C9A JUMP JUMPDEST JUMPDEST PUSH1 0x0 PUSH2 0x12FA DUP8 DUP3 DUP9 ADD PUSH2 0x110C JUMP JUMPDEST SWAP5 POP POP PUSH1 0x20 PUSH2 0x130B DUP8 DUP3 DUP9 ADD PUSH2 0x11D5 JUMP JUMPDEST SWAP4 POP POP PUSH1 0x40 PUSH2 0x131C DUP8 DUP3 DUP9 ADD PUSH2 0x11D5 JUMP JUMPDEST SWAP3 POP POP PUSH1 0x60 DUP6 ADD CALLDATALOAD PUSH8 0xFFFFFFFFFFFFFFFF DUP2 GT ISZERO PUSH2 0x133D JUMPI PUSH2 0x133C PUSH2 0x1C95 JUMP JUMPDEST JUMPDEST PUSH2 0x1349 DUP8 DUP3 DUP9 ADD PUSH2 0x114F JUMP JUMPDEST SWAP2 POP POP SWAP3 SWAP6 SWAP2 SWAP5 POP SWAP3 POP JUMP JUMPDEST PUSH1 0x0 PUSH1 0x20 DUP3 DUP5 SUB SLT ISZERO PUSH2 0x136B JUMPI PUSH2 0x136A PUSH2 0x1C9A JUMP JUMPDEST JUMPDEST PUSH1 0x0 PUSH2 0x1379 DUP5 DUP3 DUP6 ADD PUSH2 0x11AB JUMP JUMPDEST SWAP2 POP POP SWAP3 SWAP2 POP POP JUMP JUMPDEST PUSH1 0x0 DUP1 PUSH1 0x40 DUP4 DUP6 SUB SLT ISZERO PUSH2 0x1399 JUMPI PUSH2 0x1398 PUSH2 0x1C9A JUMP JUMPDEST JUMPDEST PUSH1 0x0 PUSH2 0x13A7 DUP6 DUP3 DUP7 ADD PUSH2 0x11C0 JUMP JUMPDEST SWAP3 POP POP PUSH1 0x20 PUSH2 0x13B8 DUP6 DUP3 DUP7 ADD PUSH2 0x11D5 JUMP JUMPDEST SWAP2 POP POP SWAP3 POP SWAP3 SWAP1 POP JUMP JUMPDEST PUSH1 0x0 PUSH1 0x20 DUP3 DUP5 SUB SLT ISZERO PUSH2 0x13D8 JUMPI PUSH2 0x13D7 PUSH2 0x1C9A JUMP JUMPDEST JUMPDEST PUSH1 0x0 PUSH2 0x13E6 DUP5 DUP3 DUP6 ADD PUSH2 0x11D5 JUMP JUMPDEST SWAP2 POP POP SWAP3 SWAP2 POP POP JUMP JUMPDEST PUSH1 0x0 DUP1 PUSH1 0x40 DUP4 DUP6 SUB SLT ISZERO PUSH2 0x1406 JUMPI PUSH2 0x1405 PUSH2 0x1C9A JUMP JUMPDEST JUMPDEST PUSH1 0x0 PUSH2 0x1414 DUP6 DUP3 DUP7 ADD PUSH2 0x11D5 JUMP JUMPDEST SWAP3 POP POP PUSH1 0x20 PUSH2 0x1425 DUP6 DUP3 DUP7 ADD PUSH2 0x110C JUMP JUMPDEST SWAP2 POP POP SWAP3 POP SWAP3 SWAP1 POP JUMP JUMPDEST PUSH2 0x1438 DUP2 PUSH2 0x1A9B JUMP JUMPDEST DUP3 MSTORE POP POP JUMP JUMPDEST PUSH2 0x144F PUSH2 0x144A DUP3 PUSH2 0x1A9B JUMP JUMPDEST PUSH2 0x1BD0 JUMP JUMPDEST DUP3 MSTORE POP POP JUMP JUMPDEST PUSH2 0x145E DUP2 PUSH2 0x1AAD JUMP JUMPDEST DUP3 MSTORE POP POP JUMP JUMPDEST PUSH2 0x146D DUP2 PUSH2 0x1AB9 JUMP JUMPDEST DUP3 MSTORE POP POP JUMP JUMPDEST PUSH1 0x0 PUSH2 0x147E DUP3 PUSH2 0x1A13 JUMP JUMPDEST PUSH2 0x1488 DUP2 DUP6 PUSH2 0x1A29 JUMP JUMPDEST SWAP4 POP PUSH2 0x1498 DUP2 DUP6 PUSH1 0x20 DUP7 ADD PUSH2 0x1B23 JUMP JUMPDEST DUP1 DUP5 ADD SWAP2 POP POP SWAP3 SWAP2 POP POP JUMP JUMPDEST PUSH2 0x14AD DUP2 PUSH2 0x1AED JUMP JUMPDEST DUP3 MSTORE POP POP JUMP JUMPDEST PUSH1 0x0 PUSH2 0x14BE DUP3 PUSH2 0x1A1E JUMP JUMPDEST PUSH2 0x14C8 DUP2 DUP6 PUSH2 0x1A34 JUMP JUMPDEST SWAP4 POP PUSH2 0x14D8 DUP2 DUP6 PUSH1 0x20 DUP7 ADD PUSH2 0x1B23 JUMP JUMPDEST PUSH2 0x14E1 DUP2 PUSH2 0x1C9F JUMP JUMPDEST DUP5 ADD SWAP2 POP POP SWAP3 SWAP2 POP POP JUMP JUMPDEST PUSH1 0x0 PUSH2 0x14F9 PUSH1 0x1C DUP4 PUSH2 0x1A34 JUMP JUMPDEST SWAP2 POP PUSH2 0x1504 DUP3 PUSH2 0x1CBD JUMP JUMPDEST PUSH1 0x20 DUP3 ADD SWAP1 POP SWAP2 SWAP1 POP JUMP JUMPDEST PUSH1 0x0 PUSH2 0x151C PUSH1 0x26 DUP4 PUSH2 0x1A34 JUMP JUMPDEST SWAP2 POP PUSH2 0x1527 DUP3 PUSH2 0x1CE6 JUMP JUMPDEST PUSH1 0x40 DUP3 ADD SWAP1 POP SWAP2 SWAP1 POP JUMP JUMPDEST PUSH1 0x0 PUSH2 0x153F PUSH1 0x16 DUP4 PUSH2 0x1A34 JUMP JUMPDEST SWAP2 POP PUSH2 0x154A DUP3 PUSH2 0x1D35 JUMP JUMPDEST PUSH1 0x20 DUP3 ADD SWAP1 POP SWAP2 SWAP1 POP JUMP JUMPDEST PUSH1 0x0 PUSH2 0x1562 PUSH1 0x26 DUP4 PUSH2 0x1A34 JUMP JUMPDEST SWAP2 POP PUSH2 0x156D DUP3 PUSH2 0x1D5E JUMP JUMPDEST PUSH1 0x40 DUP3 ADD SWAP1 POP SWAP2 SWAP1 POP JUMP JUMPDEST PUSH1 0x0 PUSH2 0x1585 PUSH1 0x20 DUP4 PUSH2 0x1A34 JUMP JUMPDEST SWAP2 POP PUSH2 0x1590 DUP3 PUSH2 0x1DAD JUMP JUMPDEST PUSH1 0x20 DUP3 ADD SWAP1 POP SWAP2 SWAP1 POP JUMP JUMPDEST PUSH1 0x0 PUSH2 0x15A8 PUSH1 0x3D DUP4 PUSH2 0x1A34 JUMP JUMPDEST SWAP2 POP PUSH2 0x15B3 DUP3 PUSH2 0x1DD6 JUMP JUMPDEST PUSH1 0x40 DUP3 ADD SWAP1 POP SWAP2 SWAP1 POP JUMP JUMPDEST PUSH1 0x0 PUSH2 0x15CB PUSH1 0x16 DUP4 PUSH2 0x1A34 JUMP JUMPDEST SWAP2 POP PUSH2 0x15D6 DUP3 PUSH2 0x1E25 JUMP JUMPDEST PUSH1 0x20 DUP3 ADD SWAP1 POP SWAP2 SWAP1 POP JUMP JUMPDEST PUSH1 0x0 PUSH2 0x15EE PUSH1 0x1D DUP4 PUSH2 0x1A34 JUMP JUMPDEST SWAP2 POP PUSH2 0x15F9 DUP3 PUSH2 0x1E4E JUMP JUMPDEST PUSH1 0x20 DUP3 ADD SWAP1 POP SWAP2 SWAP1 POP JUMP JUMPDEST PUSH1 0x0 PUSH2 0x1611 PUSH1 0x12 DUP4 PUSH2 0x1A34 JUMP JUMPDEST SWAP2 POP PUSH2 0x161C DUP3 PUSH2 0x1E77 JUMP JUMPDEST PUSH1 0x20 DUP3 ADD SWAP1 POP SWAP2 SWAP1 POP JUMP JUMPDEST PUSH1 0x0 PUSH2 0x1634 PUSH1 0x2A DUP4 PUSH2 0x1A34 JUMP JUMPDEST SWAP2 POP PUSH2 0x163F DUP3 PUSH2 0x1EA0 JUMP JUMPDEST PUSH1 0x40 DUP3 ADD SWAP1 POP SWAP2 SWAP1 POP JUMP JUMPDEST PUSH2 0x1653 DUP2 PUSH2 0x1AE3 JUMP JUMPDEST DUP3 MSTORE POP POP JUMP JUMPDEST PUSH2 0x166A PUSH2 0x1665 DUP3 PUSH2 0x1AE3 JUMP JUMPDEST PUSH2 0x1BF4 JUMP JUMPDEST DUP3 MSTORE POP POP JUMP JUMPDEST PUSH1 0x0 PUSH2 0x167C DUP3 DUP6 PUSH2 0x143E JUMP JUMPDEST PUSH1 0x14 DUP3 ADD SWAP2 POP PUSH2 0x168C DUP3 DUP5 PUSH2 0x1659 JUMP JUMPDEST PUSH1 0x20 DUP3 ADD SWAP2 POP DUP2 SWAP1 POP SWAP4 SWAP3 POP POP POP JUMP JUMPDEST PUSH1 0x0 PUSH2 0x16A8 DUP3 DUP5 PUSH2 0x1473 JUMP JUMPDEST SWAP2 POP DUP2 SWAP1 POP SWAP3 SWAP2 POP POP JUMP JUMPDEST PUSH1 0x0 PUSH1 0x20 DUP3 ADD SWAP1 POP PUSH2 0x16C8 PUSH1 0x0 DUP4 ADD DUP5 PUSH2 0x142F JUMP JUMPDEST SWAP3 SWAP2 POP POP JUMP JUMPDEST PUSH1 0x0 PUSH1 0x60 DUP3 ADD SWAP1 POP PUSH2 0x16E3 PUSH1 0x0 DUP4 ADD DUP7 PUSH2 0x142F JUMP JUMPDEST PUSH2 0x16F0 PUSH1 0x20 DUP4 ADD DUP6 PUSH2 0x142F JUMP JUMPDEST PUSH2 0x16FD PUSH1 0x40 DUP4 ADD DUP5 PUSH2 0x164A JUMP JUMPDEST SWAP5 SWAP4 POP POP POP POP JUMP JUMPDEST PUSH1 0x0 PUSH1 0x40 DUP3 ADD SWAP1 POP PUSH2 0x171A PUSH1 0x0 DUP4 ADD DUP6 PUSH2 0x142F JUMP JUMPDEST PUSH2 0x1727 PUSH1 0x20 DUP4 ADD DUP5 PUSH2 0x164A JUMP JUMPDEST SWAP4 SWAP3 POP POP POP JUMP JUMPDEST PUSH1 0x0 PUSH1 0x60 DUP3 ADD SWAP1 POP PUSH2 0x1743 PUSH1 0x0 DUP4 ADD DUP7 PUSH2 0x142F JUMP JUMPDEST PUSH2 0x1750 PUSH1 0x20 DUP4 ADD DUP6 PUSH2 0x164A JUMP JUMPDEST PUSH2 0x175D PUSH1 0x40 DUP4 ADD DUP5 PUSH2 0x164A JUMP JUMPDEST SWAP5 SWAP4 POP POP POP POP JUMP JUMPDEST PUSH1 0x0 PUSH1 0x20 DUP3 ADD SWAP1 POP PUSH2 0x177A PUSH1 0x0 DUP4 ADD DUP5 PUSH2 0x1455 JUMP JUMPDEST SWAP3 SWAP2 POP POP JUMP JUMPDEST PUSH1 0x0 PUSH1 0x20 DUP3 ADD SWAP1 POP PUSH2 0x1795 PUSH1 0x0 DUP4 ADD DUP5 PUSH2 0x1464 JUMP JUMPDEST SWAP3 SWAP2 POP POP JUMP JUMPDEST PUSH1 0x0 PUSH1 0x20 DUP3 ADD SWAP1 POP PUSH2 0x17B0 PUSH1 0x0 DUP4 ADD DUP5 PUSH2 0x14A4 JUMP JUMPDEST SWAP3 SWAP2 POP POP JUMP JUMPDEST PUSH1 0x0 PUSH1 0x20 DUP3 ADD SWAP1 POP DUP2 DUP2 SUB PUSH1 0x0 DUP4 ADD MSTORE PUSH2 0x17D0 DUP2 DUP5 PUSH2 0x14B3 JUMP JUMPDEST SWAP1 POP SWAP3 SWAP2 POP POP JUMP JUMPDEST PUSH1 0x0 PUSH1 0x20 DUP3 ADD SWAP1 POP DUP2 DUP2 SUB PUSH1 0x0 DUP4 ADD MSTORE PUSH2 0x17F1 DUP2 PUSH2 0x14EC JUMP JUMPDEST SWAP1 POP SWAP2 SWAP1 POP JUMP JUMPDEST PUSH1 0x0 PUSH1 0x20 DUP3 ADD SWAP1 POP DUP2 DUP2 SUB PUSH1 0x0 DUP4 ADD MSTORE PUSH2 0x1811 DUP2 PUSH2 0x150F JUMP JUMPDEST SWAP1 POP SWAP2 SWAP1 POP JUMP JUMPDEST PUSH1 0x0 PUSH1 0x20 DUP3 ADD SWAP1 POP DUP2 DUP2 SUB PUSH1 0x0 DUP4 ADD MSTORE PUSH2 0x1831 DUP2 PUSH2 0x1532 JUMP JUMPDEST SWAP1 POP SWAP2 SWAP1 POP JUMP JUMPDEST PUSH1 0x0 PUSH1 0x20 DUP3 ADD SWAP1 POP DUP2 DUP2 SUB PUSH1 0x0 DUP4 ADD MSTORE PUSH2 0x1851 DUP2 PUSH2 0x1555 JUMP JUMPDEST SWAP1 POP SWAP2 SWAP1 POP JUMP JUMPDEST PUSH1 0x0 PUSH1 0x20 DUP3 ADD SWAP1 POP DUP2 DUP2 SUB PUSH1 0x0 DUP4 ADD MSTORE PUSH2 0x1871 DUP2 PUSH2 0x1578 JUMP JUMPDEST SWAP1 POP SWAP2 SWAP1 POP JUMP JUMPDEST PUSH1 0x0 PUSH1 0x20 DUP3 ADD SWAP1 POP DUP2 DUP2 SUB PUSH1 0x0 DUP4 ADD MSTORE PUSH2 0x1891 DUP2 PUSH2 0x159B JUMP JUMPDEST SWAP1 POP SWAP2 SWAP1 POP JUMP JUMPDEST PUSH1 0x0 PUSH1 0x20 DUP3 ADD SWAP1 POP DUP2 DUP2 SUB PUSH1 0x0 DUP4 ADD MSTORE PUSH2 0x18B1 DUP2 PUSH2 0x15BE JUMP JUMPDEST SWAP1 POP SWAP2 SWAP1 POP JUMP JUMPDEST PUSH1 0x0 PUSH1 0x20 DUP3 ADD SWAP1 POP DUP2 DUP2 SUB PUSH1 0x0 DUP4 ADD MSTORE PUSH2 0x18D1 DUP2 PUSH2 0x15E1 JUMP JUMPDEST SWAP1 POP SWAP2 SWAP1 POP JUMP JUMPDEST PUSH1 0x0 PUSH1 0x20 DUP3 ADD SWAP1 POP DUP2 DUP2 SUB PUSH1 0x0 DUP4 ADD MSTORE PUSH2 0x18F1 DUP2 PUSH2 0x1604 JUMP JUMPDEST SWAP1 POP SWAP2 SWAP1 POP JUMP JUMPDEST PUSH1 0x0 PUSH1 0x20 DUP3 ADD SWAP1 POP DUP2 DUP2 SUB PUSH1 0x0 DUP4 ADD MSTORE PUSH2 0x1911 DUP2 PUSH2 0x1627 JUMP JUMPDEST SWAP1 POP SWAP2 SWAP1 POP JUMP JUMPDEST PUSH1 0x0 PUSH1 0x20 DUP3 ADD SWAP1 POP PUSH2 0x192D PUSH1 0x0 DUP4 ADD DUP5 PUSH2 0x164A JUMP JUMPDEST SWAP3 SWAP2 POP POP JUMP JUMPDEST PUSH1 0x0 PUSH1 0x60 DUP3 ADD SWAP1 POP PUSH2 0x1948 PUSH1 0x0 DUP4 ADD DUP7 PUSH2 0x164A JUMP JUMPDEST PUSH2 0x1955 PUSH1 0x20 DUP4 ADD DUP6 PUSH2 0x1464 JUMP JUMPDEST PUSH2 0x1962 PUSH1 0x40 DUP4 ADD DUP5 PUSH2 0x164A JUMP JUMPDEST SWAP5 SWAP4 POP POP POP POP JUMP JUMPDEST PUSH1 0x0 PUSH2 0x1974 PUSH2 0x1985 JUMP JUMPDEST SWAP1 POP PUSH2 0x1980 DUP3 DUP3 PUSH2 0x1B56 JUMP JUMPDEST SWAP2 SWAP1 POP JUMP JUMPDEST PUSH1 0x0 PUSH1 0x40 MLOAD SWAP1 POP SWAP1 JUMP JUMPDEST PUSH1 0x0 PUSH8 0xFFFFFFFFFFFFFFFF DUP3 GT ISZERO PUSH2 0x19AA JUMPI PUSH2 0x19A9 PUSH2 0x1C5C JUMP JUMPDEST JUMPDEST PUSH1 0x20 DUP3 MUL SWAP1 POP PUSH1 0x20 DUP2 ADD SWAP1 POP SWAP2 SWAP1 POP JUMP JUMPDEST PUSH1 0x0 PUSH8 0xFFFFFFFFFFFFFFFF DUP3 GT ISZERO PUSH2 0x19D6 JUMPI PUSH2 0x19D5 PUSH2 0x1C5C JUMP JUMPDEST JUMPDEST PUSH1 0x20 DUP3 MUL SWAP1 POP PUSH1 0x20 DUP2 ADD SWAP1 POP SWAP2 SWAP1 POP JUMP JUMPDEST PUSH1 0x0 PUSH8 0xFFFFFFFFFFFFFFFF DUP3 GT ISZERO PUSH2 0x1A02 JUMPI PUSH2 0x1A01 PUSH2 0x1C5C JUMP JUMPDEST JUMPDEST PUSH1 0x20 DUP3 MUL SWAP1 POP PUSH1 0x20 DUP2 ADD SWAP1 POP SWAP2 SWAP1 POP JUMP JUMPDEST PUSH1 0x0 DUP2 MLOAD SWAP1 POP SWAP2 SWAP1 POP JUMP JUMPDEST PUSH1 0x0 DUP2 MLOAD SWAP1 POP SWAP2 SWAP1 POP JUMP JUMPDEST PUSH1 0x0 DUP2 SWAP1 POP SWAP3 SWAP2 POP POP JUMP JUMPDEST PUSH1 0x0 DUP3 DUP3 MSTORE PUSH1 0x20 DUP3 ADD SWAP1 POP SWAP3 SWAP2 POP POP JUMP JUMPDEST PUSH1 0x0 PUSH2 0x1A50 DUP3 PUSH2 0x1AE3 JUMP JUMPDEST SWAP2 POP PUSH2 0x1A5B DUP4 PUSH2 0x1AE3 JUMP JUMPDEST SWAP3 POP DUP3 PUSH32 0xFFFFFFFFFFFFFFFFFFFFFFFFFFFFFFFFFFFFFFFFFFFFFFFFFFFFFFFFFFFFFFFF SUB DUP3 GT ISZERO PUSH2 0x1A90 JUMPI PUSH2 0x1A8F PUSH2 0x1BFE JUMP JUMPDEST JUMPDEST DUP3 DUP3 ADD SWAP1 POP SWAP3 SWAP2 POP POP JUMP JUMPDEST PUSH1 0x0 PUSH2 0x1AA6 DUP3 PUSH2 0x1AC3 JUMP JUMPDEST SWAP1 POP SWAP2 SWAP1 POP JUMP JUMPDEST PUSH1 0x0 DUP2 ISZERO ISZERO SWAP1 POP SWAP2 SWAP1 POP JUMP JUMPDEST PUSH1 0x0 DUP2 SWAP1 POP SWAP2 SWAP1 POP JUMP JUMPDEST PUSH1 0x0 PUSH20 0xFFFFFFFFFFFFFFFFFFFFFFFFFFFFFFFFFFFFFFFF DUP3 AND SWAP1 POP SWAP2 SWAP1 POP JUMP JUMPDEST PUSH1 0x0 DUP2 SWAP1 POP SWAP2 SWAP1 POP JUMP JUMPDEST PUSH1 0x0 PUSH2 0x1AF8 DUP3 PUSH2 0x1AFF JUMP JUMPDEST SWAP1 POP SWAP2 SWAP1 POP JUMP JUMPDEST PUSH1 0x0 PUSH2 0x1B0A DUP3 PUSH2 0x1B11 JUMP JUMPDEST SWAP1 POP SWAP2 SWAP1 POP JUMP JUMPDEST PUSH1 0x0 PUSH2 0x1B1C DUP3 PUSH2 0x1AC3 JUMP JUMPDEST SWAP1 POP SWAP2 SWAP1 POP JUMP JUMPDEST PUSH1 0x0 JUMPDEST DUP4 DUP2 LT ISZERO PUSH2 0x1B41 JUMPI DUP1 DUP3 ADD MLOAD DUP2 DUP5 ADD MSTORE PUSH1 0x20 DUP2 ADD SWAP1 POP PUSH2 0x1B26 JUMP JUMPDEST DUP4 DUP2 GT ISZERO PUSH2 0x1B50 JUMPI PUSH1 0x0 DUP5 DUP5 ADD MSTORE JUMPDEST POP POP POP POP JUMP JUMPDEST PUSH2 0x1B5F DUP3 PUSH2 0x1C9F JUMP JUMPDEST DUP2 ADD DUP2 DUP2 LT PUSH8 0xFFFFFFFFFFFFFFFF DUP3 GT OR ISZERO PUSH2 0x1B7E JUMPI PUSH2 0x1B7D PUSH2 0x1C5C JUMP JUMPDEST JUMPDEST DUP1 PUSH1 0x40 MSTORE POP POP POP JUMP JUMPDEST PUSH1 0x0 PUSH2 0x1B92 DUP3 PUSH2 0x1AE3 JUMP JUMPDEST SWAP2 POP PUSH32 0xFFFFFFFFFFFFFFFFFFFFFFFFFFFFFFFFFFFFFFFFFFFFFFFFFFFFFFFFFFFFFFFF DUP3 EQ ISZERO PUSH2 0x1BC5 JUMPI PUSH2 0x1BC4 PUSH2 0x1BFE JUMP JUMPDEST JUMPDEST PUSH1 0x1 DUP3 ADD SWAP1 POP SWAP2 SWAP1 POP JUMP JUMPDEST PUSH1 0x0 PUSH2 0x1BDB DUP3 PUSH2 0x1BE2 JUMP JUMPDEST SWAP1 POP SWAP2 SWAP1 POP JUMP JUMPDEST PUSH1 0x0 PUSH2 0x1BED DUP3 PUSH2 0x1CB0 JUMP JUMPDEST SWAP1 POP SWAP2 SWAP1 POP JUMP JUMPDEST PUSH1 0x0 DUP2 SWAP1 POP SWAP2 SWAP1 POP JUMP JUMPDEST PUSH32 0x4E487B7100000000000000000000000000000000000000000000000000000000 PUSH1 0x0 MSTORE PUSH1 0x11 PUSH1 0x4 MSTORE PUSH1 0x24 PUSH1 0x0 REVERT JUMPDEST PUSH32 0x4E487B7100000000000000000000000000000000000000000000000000000000 PUSH1 0x0 MSTORE PUSH1 0x32 PUSH1 0x4 MSTORE PUSH1 0x24 PUSH1 0x0 REVERT JUMPDEST PUSH32 0x4E487B7100000000000000000000000000000000000000000000000000000000 PUSH1 0x0 MSTORE PUSH1 0x41 PUSH1 0x4 MSTORE PUSH1 0x24 PUSH1 0x0 REVERT JUMPDEST PUSH1 0x0 DUP1 REVERT JUMPDEST PUSH1 0x0 DUP1 REVERT JUMPDEST PUSH1 0x0 DUP1 REVERT JUMPDEST PUSH1 0x0 DUP1 REVERT JUMPDEST PUSH1 0x0 PUSH1 0x1F NOT PUSH1 0x1F DUP4 ADD AND SWAP1 POP SWAP2 SWAP1 POP JUMP JUMPDEST PUSH1 0x0 DUP2 PUSH1 0x60 SHL SWAP1 POP SWAP2 SWAP1 POP JUMP JUMPDEST PUSH32 0x5765656B2063616E6E6F7420626520696E207468652066757475726500000000 PUSH1 0x0 DUP3 ADD MSTORE POP JUMP JUMPDEST PUSH32 0x4F776E61626C653A206E6577206F776E657220697320746865207A65726F2061 PUSH1 0x0 DUP3 ADD MSTORE PUSH32 0x6464726573730000000000000000000000000000000000000000000000000000 PUSH1 0x20 DUP3 ADD MSTORE POP JUMP JUMPDEST PUSH32 0x496E636F7272656374206D65726B6C652070726F6F6600000000000000000000 PUSH1 0x0 DUP3 ADD MSTORE POP JUMP JUMPDEST PUSH32 0x416464726573733A20696E73756666696369656E742062616C616E636520666F PUSH1 0x0 DUP3 ADD MSTORE PUSH32 0x722063616C6C0000000000000000000000000000000000000000000000000000 PUSH1 0x20 DUP3 ADD MSTORE POP JUMP JUMPDEST PUSH32 0x4F776E61626C653A2063616C6C6572206973206E6F7420746865206F776E6572 PUSH1 0x0 DUP3 ADD MSTORE POP JUMP JUMPDEST PUSH32 0x4E6F2062616C616E636520776F756C64206265207472616E7366657272656420 PUSH1 0x0 DUP3 ADD MSTORE PUSH32 0x2D206E6F7420676F696E6720746F20776173746520796F757220676173000000 PUSH1 0x20 DUP3 ADD MSTORE POP JUMP JUMPDEST PUSH32 0x4C502068617320616C726561647920636C61696D656400000000000000000000 PUSH1 0x0 DUP3 ADD MSTORE POP JUMP JUMPDEST PUSH32 0x416464726573733A2063616C6C20746F206E6F6E2D636F6E7472616374000000 PUSH1 0x0 DUP3 ADD MSTORE POP JUMP JUMPDEST PUSH32 0x4D69736D61746368696E6720696E707574730000000000000000000000000000 PUSH1 0x0 DUP3 ADD MSTORE POP JUMP JUMPDEST PUSH32 0x5361666545524332303A204552433230206F7065726174696F6E20646964206E PUSH1 0x0 DUP3 ADD MSTORE PUSH32 0x6F74207375636365656400000000000000000000000000000000000000000000 PUSH1 0x20 DUP3 ADD MSTORE POP JUMP JUMPDEST PUSH2 0x1EF8 DUP2 PUSH2 0x1A9B JUMP JUMPDEST DUP2 EQ PUSH2 0x1F03 JUMPI PUSH1 0x0 DUP1 REVERT JUMPDEST POP JUMP JUMPDEST PUSH2 0x1F0F DUP2 PUSH2 0x1AAD JUMP JUMPDEST DUP2 EQ PUSH2 0x1F1A JUMPI PUSH1 0x0 DUP1 REVERT JUMPDEST POP JUMP JUMPDEST PUSH2 0x1F26 DUP2 PUSH2 0x1AB9 JUMP JUMPDEST DUP2 EQ PUSH2 0x1F31 JUMPI PUSH1 0x0 DUP1 REVERT JUMPDEST POP JUMP JUMPDEST PUSH2 0x1F3D DUP2 PUSH2 0x1AE3 JUMP JUMPDEST DUP2 EQ PUSH2 0x1F48 JUMPI PUSH1 0x0 DUP1 REVERT JUMPDEST POP JUMP INVALID LOG2 PUSH5 0x6970667358 0x22 SLT KECCAK256 SWAP2 DUP16 CODECOPY PUSH8 0xC24C58D440C2E882 SWAP14 BALANCE 0x1F PUSH2 0x7384 0x1F DUP7 LOG0 PUSH16 0xFBC7394E90B66215C24C64736F6C6343 STOP ADDMOD SMOD STOP CALLER "
				},
				"gasEstimates": {
					"creation": {
						"codeDepositCost": "1613000",
						"executionCost": "infinite",
						"totalCost": "infinite"
					},
					"external": {
						"claimWeek(address,uint256,uint256,bytes32[])": "infinite",
						"claimWeeks(address,uint256[],uint256[],bytes32[][])": "infinite",
						"claimed(uint256,address)": "3088",
						"expireTranche(uint256)": "infinite",
						"merkleRoots(uint256)": "2854",
						"owner()": "2633",
						"renounceOwnership()": "30441",
						"seedNewAllocations(bytes32,uint256)": "infinite",
						"token()": "2710",
						"tranches()": "2495",
						"transferOwnership(address)": "30811",
						"verifyClaim(address,uint256,uint256,bytes32[])": "infinite"
					},
					"internal": {
						"_claimWeek(address,uint256,uint256,bytes32[] memory)": "infinite",
						"_disburse(address,uint256)": "infinite",
						"_verifyClaim(address,uint256,uint256,bytes32[] memory)": "infinite"
					}
				},
				"methodIdentifiers": {
					"claimWeek(address,uint256,uint256,bytes32[])": "58b4e4b4",
					"claimWeeks(address,uint256[],uint256[],bytes32[][])": "ba593714",
					"claimed(uint256,address)": "120aa877",
					"expireTranche(uint256)": "d5efd20a",
					"merkleRoots(uint256)": "71c5ecb1",
					"owner()": "8da5cb5b",
					"renounceOwnership()": "715018a6",
					"seedNewAllocations(bytes32,uint256)": "65ef53b1",
					"token()": "fc0c546a",
					"tranches()": "ebf04917",
					"transferOwnership(address)": "f2fde38b",
					"verifyClaim(address,uint256,uint256,bytes32[])": "eb0d07f5"
				}
			},
			"storageLayout": {
				"storage": [
					{
						"astId": 7,
						"contract": "contracts/MTMSAirdrop.sol:MTMSAirdrop",
						"label": "_owner",
						"offset": 0,
						"slot": "0",
						"type": "t_address"
					},
					{
						"astId": 1315,
						"contract": "contracts/MTMSAirdrop.sol:MTMSAirdrop",
						"label": "token",
						"offset": 0,
						"slot": "1",
						"type": "t_contract(IERC20)324"
					},
					{
						"astId": 1319,
						"contract": "contracts/MTMSAirdrop.sol:MTMSAirdrop",
						"label": "merkleRoots",
						"offset": 0,
						"slot": "2",
						"type": "t_mapping(t_uint256,t_bytes32)"
					},
					{
						"astId": 1325,
						"contract": "contracts/MTMSAirdrop.sol:MTMSAirdrop",
						"label": "claimed",
						"offset": 0,
						"slot": "3",
						"type": "t_mapping(t_uint256,t_mapping(t_address,t_bool))"
					},
					{
						"astId": 1327,
						"contract": "contracts/MTMSAirdrop.sol:MTMSAirdrop",
						"label": "tranches",
						"offset": 0,
						"slot": "4",
						"type": "t_uint256"
					}
				],
				"types": {
					"t_address": {
						"encoding": "inplace",
						"label": "address",
						"numberOfBytes": "20"
					},
					"t_bool": {
						"encoding": "inplace",
						"label": "bool",
						"numberOfBytes": "1"
					},
					"t_bytes32": {
						"encoding": "inplace",
						"label": "bytes32",
						"numberOfBytes": "32"
					},
					"t_contract(IERC20)324": {
						"encoding": "inplace",
						"label": "contract IERC20",
						"numberOfBytes": "20"
					},
					"t_mapping(t_address,t_bool)": {
						"encoding": "mapping",
						"key": "t_address",
						"label": "mapping(address => bool)",
						"numberOfBytes": "32",
						"value": "t_bool"
					},
					"t_mapping(t_uint256,t_bytes32)": {
						"encoding": "mapping",
						"key": "t_uint256",
						"label": "mapping(uint256 => bytes32)",
						"numberOfBytes": "32",
						"value": "t_bytes32"
					},
					"t_mapping(t_uint256,t_mapping(t_address,t_bool))": {
						"encoding": "mapping",
						"key": "t_uint256",
						"label": "mapping(uint256 => mapping(address => bool))",
						"numberOfBytes": "32",
						"value": "t_mapping(t_address,t_bool)"
					},
					"t_uint256": {
						"encoding": "inplace",
						"label": "uint256",
						"numberOfBytes": "32"
					}
				}
			},
			"userdoc": {
				"kind": "user",
				"methods": {},
				"version": 1
			}
		}
	}
}