{
	"contracts/MTMSAirdrop.sol": {
		"MTMSAirdrop": {
			"abi": [
				{
					"inputs": [
						{
							"internalType": "contract IERC20",
							"name": "_token",
							"type": "address"
						}
					],
					"stateMutability": "nonpayable",
					"type": "constructor"
				},
				{
					"anonymous": false,
					"inputs": [
						{
							"indexed": false,
							"internalType": "address",
							"name": "claimant",
							"type": "address"
						},
						{
							"indexed": false,
							"internalType": "uint256",
							"name": "week",
							"type": "uint256"
						},
						{
							"indexed": false,
							"internalType": "uint256",
							"name": "balance",
							"type": "uint256"
						}
					],
					"name": "Claimed",
					"type": "event"
				},
				{
					"anonymous": false,
					"inputs": [
						{
							"indexed": true,
							"internalType": "address",
							"name": "previousOwner",
							"type": "address"
						},
						{
							"indexed": true,
							"internalType": "address",
							"name": "newOwner",
							"type": "address"
						}
					],
					"name": "OwnershipTransferred",
					"type": "event"
				},
				{
					"anonymous": false,
					"inputs": [
						{
							"indexed": true,
							"internalType": "address",
							"name": "_address",
							"type": "address"
						}
					],
					"name": "RemovedFunder",
					"type": "event"
				},
				{
					"anonymous": false,
					"inputs": [
						{
							"indexed": false,
							"internalType": "uint256",
							"name": "tranche",
							"type": "uint256"
						},
						{
							"indexed": false,
							"internalType": "bytes32",
							"name": "merkleRoot",
							"type": "bytes32"
						},
						{
							"indexed": false,
							"internalType": "uint256",
							"name": "totalAmount",
							"type": "uint256"
						}
					],
					"name": "TrancheAdded",
					"type": "event"
				},
				{
					"anonymous": false,
					"inputs": [
						{
							"indexed": false,
							"internalType": "uint256",
							"name": "tranche",
							"type": "uint256"
						}
					],
					"name": "TrancheExpired",
					"type": "event"
				},
				{
					"inputs": [
						{
							"internalType": "address",
							"name": "_liquidityProvider",
							"type": "address"
						},
						{
							"internalType": "uint256",
							"name": "_balance",
							"type": "uint256"
						}
					],
					"name": "claimWeek",
					"outputs": [],
					"stateMutability": "nonpayable",
					"type": "function"
				},
				{
					"inputs": [
						{
							"internalType": "address",
							"name": "_liquidityProvider",
							"type": "address"
						},
						{
							"internalType": "uint256[]",
							"name": "_tranches",
							"type": "uint256[]"
						},
						{
							"internalType": "uint256[]",
							"name": "_balances",
							"type": "uint256[]"
						},
						{
							"internalType": "bytes32[][]",
							"name": "_merkleProofs",
							"type": "bytes32[][]"
						}
					],
					"name": "claimWeeks",
					"outputs": [],
					"stateMutability": "nonpayable",
					"type": "function"
				},
				{
					"inputs": [
						{
							"internalType": "uint256",
							"name": "",
							"type": "uint256"
						},
						{
							"internalType": "address",
							"name": "",
							"type": "address"
						}
					],
					"name": "claimed",
					"outputs": [
						{
							"internalType": "bool",
							"name": "",
							"type": "bool"
						}
					],
					"stateMutability": "view",
					"type": "function"
				},
				{
					"inputs": [
						{
							"internalType": "uint256",
							"name": "_trancheId",
							"type": "uint256"
						}
					],
					"name": "expireTranche",
					"outputs": [],
					"stateMutability": "nonpayable",
					"type": "function"
				},
				{
					"inputs": [
						{
							"internalType": "uint256",
							"name": "",
							"type": "uint256"
						}
					],
					"name": "merkleRoots",
					"outputs": [
						{
							"internalType": "bytes32",
							"name": "",
							"type": "bytes32"
						}
					],
					"stateMutability": "view",
					"type": "function"
				},
				{
					"inputs": [],
					"name": "owner",
					"outputs": [
						{
							"internalType": "address",
							"name": "",
							"type": "address"
						}
					],
					"stateMutability": "view",
					"type": "function"
				},
				{
					"inputs": [
						{
							"internalType": "address",
							"name": "",
							"type": "address"
						}
					],
					"name": "recipients",
					"outputs": [
						{
							"internalType": "uint256",
							"name": "",
							"type": "uint256"
						}
					],
					"stateMutability": "view",
					"type": "function"
				},
				{
					"inputs": [],
					"name": "renounceOwnership",
					"outputs": [],
					"stateMutability": "nonpayable",
					"type": "function"
				},
				{
					"inputs": [
						{
							"internalType": "address[]",
							"name": "_recipients",
							"type": "address[]"
						},
						{
							"internalType": "uint256[]",
							"name": "_amounts",
							"type": "uint256[]"
						},
						{
							"internalType": "uint256",
							"name": "_totalAllocation",
							"type": "uint256"
						}
					],
					"name": "seedNewAllocations",
					"outputs": [],
					"stateMutability": "nonpayable",
					"type": "function"
				},
				{
					"inputs": [],
					"name": "token",
					"outputs": [
						{
							"internalType": "contract IERC20",
							"name": "",
							"type": "address"
						}
					],
					"stateMutability": "view",
					"type": "function"
				},
				{
					"inputs": [],
					"name": "tranches",
					"outputs": [
						{
							"internalType": "uint256",
							"name": "",
							"type": "uint256"
						}
					],
					"stateMutability": "view",
					"type": "function"
				},
				{
					"inputs": [
						{
							"internalType": "address",
							"name": "newOwner",
							"type": "address"
						}
					],
					"name": "transferOwnership",
					"outputs": [],
					"stateMutability": "nonpayable",
					"type": "function"
				},
				{
					"inputs": [
						{
							"internalType": "address",
							"name": "_liquidityProvider",
							"type": "address"
						},
						{
							"internalType": "uint256",
							"name": "_tranche",
							"type": "uint256"
						},
						{
							"internalType": "uint256",
							"name": "_balance",
							"type": "uint256"
						},
						{
							"internalType": "bytes32[]",
							"name": "_merkleProof",
							"type": "bytes32[]"
						}
					],
					"name": "verifyClaim",
					"outputs": [
						{
							"internalType": "bool",
							"name": "valid",
							"type": "bool"
						}
					],
					"stateMutability": "view",
					"type": "function"
				}
			],
			"devdoc": {
				"kind": "dev",
				"methods": {
					"owner()": {
						"details": "Returns the address of the current owner."
					},
					"renounceOwnership()": {
						"details": "Leaves the contract without owner. It will not be possible to call `onlyOwner` functions anymore. Can only be called by the current owner. NOTE: Renouncing ownership will leave the contract without an owner, thereby removing any functionality that is only available to the owner."
					},
					"transferOwnership(address)": {
						"details": "Transfers ownership of the contract to a new account (`newOwner`). Can only be called by the current owner."
					}
				},
				"version": 1
			},
			"evm": {
				"assembly": "    /* \"contracts/MTMSAirdrop.sol\":441:3913  contract MTMSAirdrop is Ownable {\r... */\n  mstore(0x40, 0x80)\n    /* \"contracts/MTMSAirdrop.sol\":1031:1098  constructor(IERC20 _token) public {\r... */\n  callvalue\n  dup1\n  iszero\n  tag_1\n  jumpi\n  0x00\n  dup1\n  revert\ntag_1:\n  pop\n  mload(0x40)\n  sub(codesize, bytecodeSize)\n  dup1\n  bytecodeSize\n  dup4\n  codecopy\n  dup2\n  dup2\n  add\n  0x40\n  mstore\n  dup2\n  add\n  swap1\n  tag_2\n  swap2\n  swap1\n  tag_3\n  jump\t// in\ntag_2:\n    /* \"@openzeppelin/contracts/access/Ownable.sol\":921:953  _transferOwnership(_msgSender()) */\n  tag_7\n    /* \"@openzeppelin/contracts/access/Ownable.sol\":940:952  _msgSender() */\n  tag_8\n    /* \"@openzeppelin/contracts/access/Ownable.sol\":940:950  _msgSender */\n  shl(0x20, tag_9)\n    /* \"@openzeppelin/contracts/access/Ownable.sol\":940:952  _msgSender() */\n  0x20\n  shr\n  jump\t// in\ntag_8:\n    /* \"@openzeppelin/contracts/access/Ownable.sol\":921:939  _transferOwnership */\n  shl(0x20, tag_10)\n    /* \"@openzeppelin/contracts/access/Ownable.sol\":921:953  _transferOwnership(_msgSender()) */\n  0x20\n  shr\n  jump\t// in\ntag_7:\n    /* \"contracts/MTMSAirdrop.sol\":1084:1090  _token */\n  dup1\n    /* \"contracts/MTMSAirdrop.sol\":1076:1081  token */\n  0x01\n  0x00\n    /* \"contracts/MTMSAirdrop.sol\":1076:1090  token = _token */\n  0x0100\n  exp\n  dup2\n  sload\n  dup2\n  0xffffffffffffffffffffffffffffffffffffffff\n  mul\n  not\n  and\n  swap1\n  dup4\n  0xffffffffffffffffffffffffffffffffffffffff\n  and\n  mul\n  or\n  swap1\n  sstore\n  pop\n    /* \"contracts/MTMSAirdrop.sol\":1031:1098  constructor(IERC20 _token) public {\r... */\n  pop\n    /* \"contracts/MTMSAirdrop.sol\":441:3913  contract MTMSAirdrop is Ownable {\r... */\n  jump(tag_12)\n    /* \"@openzeppelin/contracts/utils/Context.sol\":640:736  function _msgSender() internal view virtual returns (address) {... */\ntag_9:\n    /* \"@openzeppelin/contracts/utils/Context.sol\":693:700  address */\n  0x00\n    /* \"@openzeppelin/contracts/utils/Context.sol\":719:729  msg.sender */\n  caller\n    /* \"@openzeppelin/contracts/utils/Context.sol\":712:729  return msg.sender */\n  swap1\n  pop\n    /* \"@openzeppelin/contracts/utils/Context.sol\":640:736  function _msgSender() internal view virtual returns (address) {... */\n  swap1\n  jump\t// out\n    /* \"@openzeppelin/contracts/access/Ownable.sol\":2270:2457  function _transferOwnership(address newOwner) internal virtual {... */\ntag_10:\n    /* \"@openzeppelin/contracts/access/Ownable.sol\":2343:2359  address oldOwner */\n  0x00\n    /* \"@openzeppelin/contracts/access/Ownable.sol\":2362:2368  _owner */\n  dup1\n  0x00\n  swap1\n  sload\n  swap1\n  0x0100\n  exp\n  swap1\n  div\n  0xffffffffffffffffffffffffffffffffffffffff\n  and\n    /* \"@openzeppelin/contracts/access/Ownable.sol\":2343:2368  address oldOwner = _owner */\n  swap1\n  pop\n    /* \"@openzeppelin/contracts/access/Ownable.sol\":2387:2395  newOwner */\n  dup2\n    /* \"@openzeppelin/contracts/access/Ownable.sol\":2378:2384  _owner */\n  0x00\n  dup1\n    /* \"@openzeppelin/contracts/access/Ownable.sol\":2378:2395  _owner = newOwner */\n  0x0100\n  exp\n  dup2\n  sload\n  dup2\n  0xffffffffffffffffffffffffffffffffffffffff\n  mul\n  not\n  and\n  swap1\n  dup4\n  0xffffffffffffffffffffffffffffffffffffffff\n  and\n  mul\n  or\n  swap1\n  sstore\n  pop\n    /* \"@openzeppelin/contracts/access/Ownable.sol\":2441:2449  newOwner */\n  dup2\n    /* \"@openzeppelin/contracts/access/Ownable.sol\":2410:2450  OwnershipTransferred(oldOwner, newOwner) */\n  0xffffffffffffffffffffffffffffffffffffffff\n  and\n    /* \"@openzeppelin/contracts/access/Ownable.sol\":2431:2439  oldOwner */\n  dup2\n    /* \"@openzeppelin/contracts/access/Ownable.sol\":2410:2450  OwnershipTransferred(oldOwner, newOwner) */\n  0xffffffffffffffffffffffffffffffffffffffff\n  and\n  0x8be0079c531659141344cd1fd0a4f28419497f9722a3daafe3b4186f6b6457e0\n  mload(0x40)\n  mload(0x40)\n  dup1\n  swap2\n  sub\n  swap1\n  log3\n    /* \"@openzeppelin/contracts/access/Ownable.sol\":2333:2457  {... */\n  pop\n    /* \"@openzeppelin/contracts/access/Ownable.sol\":2270:2457  function _transferOwnership(address newOwner) internal virtual {... */\n  pop\n  jump\t// out\n    /* \"#utility.yul\":7:178   */\ntag_16:\n    /* \"#utility.yul\":78:83   */\n  0x00\n    /* \"#utility.yul\":109:115   */\n  dup2\n    /* \"#utility.yul\":103:116   */\n  mload\n    /* \"#utility.yul\":94:116   */\n  swap1\n  pop\n    /* \"#utility.yul\":125:172   */\n  tag_18\n    /* \"#utility.yul\":166:171   */\n  dup2\n    /* \"#utility.yul\":125:172   */\n  tag_19\n  jump\t// in\ntag_18:\n    /* \"#utility.yul\":7:178   */\n  swap3\n  swap2\n  pop\n  pop\n  jump\t// out\n    /* \"#utility.yul\":184:563   */\ntag_3:\n    /* \"#utility.yul\":268:274   */\n  0x00\n    /* \"#utility.yul\":317:319   */\n  0x20\n    /* \"#utility.yul\":305:314   */\n  dup3\n    /* \"#utility.yul\":296:303   */\n  dup5\n    /* \"#utility.yul\":292:315   */\n  sub\n    /* \"#utility.yul\":288:320   */\n  slt\n    /* \"#utility.yul\":285:404   */\n  iszero\n  tag_21\n  jumpi\n    /* \"#utility.yul\":323:402   */\n  tag_22\n  tag_23\n  jump\t// in\ntag_22:\n    /* \"#utility.yul\":285:404   */\ntag_21:\n    /* \"#utility.yul\":443:444   */\n  0x00\n    /* \"#utility.yul\":468:546   */\n  tag_24\n    /* \"#utility.yul\":538:545   */\n  dup5\n    /* \"#utility.yul\":529:535   */\n  dup3\n    /* \"#utility.yul\":518:527   */\n  dup6\n    /* \"#utility.yul\":514:536   */\n  add\n    /* \"#utility.yul\":468:546   */\n  tag_16\n  jump\t// in\ntag_24:\n    /* \"#utility.yul\":458:546   */\n  swap2\n  pop\n    /* \"#utility.yul\":414:556   */\n  pop\n    /* \"#utility.yul\":184:563   */\n  swap3\n  swap2\n  pop\n  pop\n  jump\t// out\n    /* \"#utility.yul\":650:746   */\ntag_27:\n    /* \"#utility.yul\":687:694   */\n  0x00\n    /* \"#utility.yul\":716:740   */\n  tag_29\n    /* \"#utility.yul\":734:739   */\n  dup3\n    /* \"#utility.yul\":716:740   */\n  tag_30\n  jump\t// in\ntag_29:\n    /* \"#utility.yul\":705:740   */\n  swap1\n  pop\n    /* \"#utility.yul\":650:746   */\n  swap2\n  swap1\n  pop\n  jump\t// out\n    /* \"#utility.yul\":752:862   */\ntag_31:\n    /* \"#utility.yul\":803:810   */\n  0x00\n    /* \"#utility.yul\":832:856   */\n  tag_33\n    /* \"#utility.yul\":850:855   */\n  dup3\n    /* \"#utility.yul\":832:856   */\n  tag_27\n  jump\t// in\ntag_33:\n    /* \"#utility.yul\":821:856   */\n  swap1\n  pop\n    /* \"#utility.yul\":752:862   */\n  swap2\n  swap1\n  pop\n  jump\t// out\n    /* \"#utility.yul\":868:994   */\ntag_30:\n    /* \"#utility.yul\":905:912   */\n  0x00\n    /* \"#utility.yul\":945:987   */\n  0xffffffffffffffffffffffffffffffffffffffff\n    /* \"#utility.yul\":938:943   */\n  dup3\n    /* \"#utility.yul\":934:988   */\n  and\n    /* \"#utility.yul\":923:988   */\n  swap1\n  pop\n    /* \"#utility.yul\":868:994   */\n  swap2\n  swap1\n  pop\n  jump\t// out\n    /* \"#utility.yul\":1123:1240   */\ntag_23:\n    /* \"#utility.yul\":1232:1233   */\n  0x00\n    /* \"#utility.yul\":1229:1230   */\n  dup1\n    /* \"#utility.yul\":1222:1234   */\n  revert\n    /* \"#utility.yul\":1246:1396   */\ntag_19:\n    /* \"#utility.yul\":1333:1371   */\n  tag_39\n    /* \"#utility.yul\":1365:1370   */\n  dup2\n    /* \"#utility.yul\":1333:1371   */\n  tag_31\n  jump\t// in\ntag_39:\n    /* \"#utility.yul\":1326:1331   */\n  dup2\n    /* \"#utility.yul\":1323:1372   */\n  eq\n    /* \"#utility.yul\":1313:1390   */\n  tag_40\n  jumpi\n    /* \"#utility.yul\":1386:1387   */\n  0x00\n    /* \"#utility.yul\":1383:1384   */\n  dup1\n    /* \"#utility.yul\":1376:1388   */\n  revert\n    /* \"#utility.yul\":1313:1390   */\ntag_40:\n    /* \"#utility.yul\":1246:1396   */\n  pop\n  jump\t// out\n    /* \"contracts/MTMSAirdrop.sol\":441:3913  contract MTMSAirdrop is Ownable {\r... */\ntag_12:\n  dataSize(sub_0)\n  dup1\n  dataOffset(sub_0)\n  0x00\n  codecopy\n  0x00\n  return\nstop\n\nsub_0: assembly {\n        /* \"contracts/MTMSAirdrop.sol\":441:3913  contract MTMSAirdrop is Ownable {\r... */\n      mstore(0x40, 0x80)\n      callvalue\n      dup1\n      iszero\n      tag_1\n      jumpi\n      0x00\n      dup1\n      revert\n    tag_1:\n      pop\n      jumpi(tag_2, lt(calldatasize, 0x04))\n      shr(0xe0, calldataload(0x00))\n      dup1\n      0xcf9aa8cc\n      gt\n      tag_16\n      jumpi\n      dup1\n      0xeb820312\n      gt\n      tag_17\n      jumpi\n      dup1\n      0xeb820312\n      eq\n      tag_12\n      jumpi\n      dup1\n      0xebf04917\n      eq\n      tag_13\n      jumpi\n      dup1\n      0xf2fde38b\n      eq\n      tag_14\n      jumpi\n      dup1\n      0xfc0c546a\n      eq\n      tag_15\n      jumpi\n      jump(tag_2)\n    tag_17:\n      dup1\n      0xcf9aa8cc\n      eq\n      tag_9\n      jumpi\n      dup1\n      0xd5efd20a\n      eq\n      tag_10\n      jumpi\n      dup1\n      0xeb0d07f5\n      eq\n      tag_11\n      jumpi\n      jump(tag_2)\n    tag_16:\n      dup1\n      0x120aa877\n      eq\n      tag_3\n      jumpi\n      dup1\n      0x554d2761\n      eq\n      tag_4\n      jumpi\n      dup1\n      0x715018a6\n      eq\n      tag_5\n      jumpi\n      dup1\n      0x71c5ecb1\n      eq\n      tag_6\n      jumpi\n      dup1\n      0x8da5cb5b\n      eq\n      tag_7\n      jumpi\n      dup1\n      0xba593714\n      eq\n      tag_8\n      jumpi\n    tag_2:\n      0x00\n      dup1\n      revert\n        /* \"contracts/MTMSAirdrop.sol\":933:992  mapping(uint256 => mapping(address => bool)) public claimed */\n    tag_3:\n      tag_18\n      0x04\n      dup1\n      calldatasize\n      sub\n      dup2\n      add\n      swap1\n      tag_19\n      swap2\n      swap1\n      tag_20\n      jump\t// in\n    tag_19:\n      tag_21\n      jump\t// in\n    tag_18:\n      mload(0x40)\n      tag_22\n      swap2\n      swap1\n      tag_23\n      jump\t// in\n    tag_22:\n      mload(0x40)\n      dup1\n      swap2\n      sub\n      swap1\n      return\n        /* \"contracts/MTMSAirdrop.sol\":1741:1961  function claimWeek(\r... */\n    tag_4:\n      tag_24\n      0x04\n      dup1\n      calldatasize\n      sub\n      dup2\n      add\n      swap1\n      tag_25\n      swap2\n      swap1\n      tag_26\n      jump\t// in\n    tag_25:\n      tag_27\n      jump\t// in\n    tag_24:\n      stop\n        /* \"@openzeppelin/contracts/access/Ownable.sol\":1668:1769  function renounceOwnership() public virtual onlyOwner {... */\n    tag_5:\n      tag_28\n      tag_29\n      jump\t// in\n    tag_28:\n      stop\n        /* \"contracts/MTMSAirdrop.sol\":880:926  mapping(uint256 => bytes32) public merkleRoots */\n    tag_6:\n      tag_30\n      0x04\n      dup1\n      calldatasize\n      sub\n      dup2\n      add\n      swap1\n      tag_31\n      swap2\n      swap1\n      tag_32\n      jump\t// in\n    tag_31:\n      tag_33\n      jump\t// in\n    tag_30:\n      mload(0x40)\n      tag_34\n      swap2\n      swap1\n      tag_35\n      jump\t// in\n    tag_34:\n      mload(0x40)\n      dup1\n      swap2\n      sub\n      swap1\n      return\n        /* \"@openzeppelin/contracts/access/Ownable.sol\":1036:1121  function owner() public view virtual returns (address) {... */\n    tag_7:\n      tag_36\n      tag_37\n      jump\t// in\n    tag_36:\n      mload(0x40)\n      tag_38\n      swap2\n      swap1\n      tag_39\n      jump\t// in\n    tag_38:\n      mload(0x40)\n      dup1\n      swap2\n      sub\n      swap1\n      return\n        /* \"contracts/MTMSAirdrop.sol\":1971:2583  function claimWeeks(\r... */\n    tag_8:\n      tag_40\n      0x04\n      dup1\n      calldatasize\n      sub\n      dup2\n      add\n      swap1\n      tag_41\n      swap2\n      swap1\n      tag_42\n      jump\t// in\n    tag_41:\n      tag_43\n      jump\t// in\n    tag_40:\n      stop\n        /* \"contracts/MTMSAirdrop.sol\":1106:1543  function seedNewAllocations(address[] memory _recipients,uint256[] memory _amounts, uint256 _totalAllocation)\r... */\n    tag_9:\n      tag_44\n      0x04\n      dup1\n      calldatasize\n      sub\n      dup2\n      add\n      swap1\n      tag_45\n      swap2\n      swap1\n      tag_46\n      jump\t// in\n    tag_45:\n      tag_47\n      jump\t// in\n    tag_44:\n      stop\n        /* \"contracts/MTMSAirdrop.sol\":1551:1733  function expireTranche(uint256 _trancheId)\r... */\n    tag_10:\n      tag_48\n      0x04\n      dup1\n      calldatasize\n      sub\n      dup2\n      add\n      swap1\n      tag_49\n      swap2\n      swap1\n      tag_32\n      jump\t// in\n    tag_49:\n      tag_50\n      jump\t// in\n    tag_48:\n      stop\n        /* \"contracts/MTMSAirdrop.sol\":2593:2909  function verifyClaim(\r... */\n    tag_11:\n      tag_51\n      0x04\n      dup1\n      calldatasize\n      sub\n      dup2\n      add\n      swap1\n      tag_52\n      swap2\n      swap1\n      tag_53\n      jump\t// in\n    tag_52:\n      tag_54\n      jump\t// in\n    tag_51:\n      mload(0x40)\n      tag_55\n      swap2\n      swap1\n      tag_23\n      jump\t// in\n    tag_55:\n      mload(0x40)\n      dup1\n      swap2\n      sub\n      swap1\n      return\n        /* \"contracts/MTMSAirdrop.sol\":826:871  mapping(address => uint256) public recipients */\n    tag_12:\n      tag_56\n      0x04\n      dup1\n      calldatasize\n      sub\n      dup2\n      add\n      swap1\n      tag_57\n      swap2\n      swap1\n      tag_58\n      jump\t// in\n    tag_57:\n      tag_59\n      jump\t// in\n    tag_56:\n      mload(0x40)\n      tag_60\n      swap2\n      swap1\n      tag_61\n      jump\t// in\n    tag_60:\n      mload(0x40)\n      dup1\n      swap2\n      sub\n      swap1\n      return\n        /* \"contracts/MTMSAirdrop.sol\":999:1022  uint256 public tranches */\n    tag_13:\n      tag_62\n      tag_63\n      jump\t// in\n    tag_62:\n      mload(0x40)\n      tag_64\n      swap2\n      swap1\n      tag_61\n      jump\t// in\n    tag_64:\n      mload(0x40)\n      dup1\n      swap2\n      sub\n      swap1\n      return\n        /* \"@openzeppelin/contracts/access/Ownable.sol\":1918:2116  function transferOwnership(address newOwner) public virtual onlyOwner {... */\n    tag_14:\n      tag_65\n      0x04\n      dup1\n      calldatasize\n      sub\n      dup2\n      add\n      swap1\n      tag_66\n      swap2\n      swap1\n      tag_58\n      jump\t// in\n    tag_66:\n      tag_67\n      jump\t// in\n    tag_65:\n      stop\n        /* \"contracts/MTMSAirdrop.sol\":798:817  IERC20 public token */\n    tag_15:\n      tag_68\n      tag_69\n      jump\t// in\n    tag_68:\n      mload(0x40)\n      tag_70\n      swap2\n      swap1\n      tag_71\n      jump\t// in\n    tag_70:\n      mload(0x40)\n      dup1\n      swap2\n      sub\n      swap1\n      return\n        /* \"contracts/MTMSAirdrop.sol\":933:992  mapping(uint256 => mapping(address => bool)) public claimed */\n    tag_21:\n      mstore(0x20, 0x04)\n      dup2\n      0x00\n      mstore\n      mstore(0x20, keccak256(0x00, 0x40))\n      dup1\n      0x00\n      mstore\n      keccak256(0x00, 0x40)\n      0x00\n      swap2\n      pop\n      swap2\n      pop\n      swap1\n      sload\n      swap1\n      0x0100\n      exp\n      swap1\n      div\n      0xff\n      and\n      dup2\n      jump\t// out\n        /* \"contracts/MTMSAirdrop.sol\":1741:1961  function claimWeek(\r... */\n    tag_27:\n        /* \"contracts/MTMSAirdrop.sol\":1863:1903  _claimWeek(_liquidityProvider, _balance) */\n      tag_73\n        /* \"contracts/MTMSAirdrop.sol\":1874:1892  _liquidityProvider */\n      dup3\n        /* \"contracts/MTMSAirdrop.sol\":1894:1902  _balance */\n      dup3\n        /* \"contracts/MTMSAirdrop.sol\":1863:1873  _claimWeek */\n      tag_74\n        /* \"contracts/MTMSAirdrop.sol\":1863:1903  _claimWeek(_liquidityProvider, _balance) */\n      jump\t// in\n    tag_73:\n        /* \"contracts/MTMSAirdrop.sol\":1914:1953  _disburse(_liquidityProvider, _balance) */\n      tag_75\n        /* \"contracts/MTMSAirdrop.sol\":1924:1942  _liquidityProvider */\n      dup3\n        /* \"contracts/MTMSAirdrop.sol\":1944:1952  _balance */\n      dup3\n        /* \"contracts/MTMSAirdrop.sol\":1914:1923  _disburse */\n      tag_76\n        /* \"contracts/MTMSAirdrop.sol\":1914:1953  _disburse(_liquidityProvider, _balance) */\n      jump\t// in\n    tag_75:\n        /* \"contracts/MTMSAirdrop.sol\":1741:1961  function claimWeek(\r... */\n      pop\n      pop\n      jump\t// out\n        /* \"@openzeppelin/contracts/access/Ownable.sol\":1668:1769  function renounceOwnership() public virtual onlyOwner {... */\n    tag_29:\n        /* \"@openzeppelin/contracts/access/Ownable.sol\":1259:1271  _msgSender() */\n      tag_78\n        /* \"@openzeppelin/contracts/access/Ownable.sol\":1259:1269  _msgSender */\n      tag_79\n        /* \"@openzeppelin/contracts/access/Ownable.sol\":1259:1271  _msgSender() */\n      jump\t// in\n    tag_78:\n        /* \"@openzeppelin/contracts/access/Ownable.sol\":1248:1271  owner() == _msgSender() */\n      0xffffffffffffffffffffffffffffffffffffffff\n      and\n        /* \"@openzeppelin/contracts/access/Ownable.sol\":1248:1255  owner() */\n      tag_80\n        /* \"@openzeppelin/contracts/access/Ownable.sol\":1248:1253  owner */\n      tag_37\n        /* \"@openzeppelin/contracts/access/Ownable.sol\":1248:1255  owner() */\n      jump\t// in\n    tag_80:\n        /* \"@openzeppelin/contracts/access/Ownable.sol\":1248:1271  owner() == _msgSender() */\n      0xffffffffffffffffffffffffffffffffffffffff\n      and\n      eq\n        /* \"@openzeppelin/contracts/access/Ownable.sol\":1240:1308  require(owner() == _msgSender(), \"Ownable: caller is not the owner\") */\n      tag_81\n      jumpi\n      mload(0x40)\n      0x08c379a000000000000000000000000000000000000000000000000000000000\n      dup2\n      mstore\n      0x04\n      add\n      tag_82\n      swap1\n      tag_83\n      jump\t// in\n    tag_82:\n      mload(0x40)\n      dup1\n      swap2\n      sub\n      swap1\n      revert\n    tag_81:\n        /* \"@openzeppelin/contracts/access/Ownable.sol\":1732:1762  _transferOwnership(address(0)) */\n      tag_85\n        /* \"@openzeppelin/contracts/access/Ownable.sol\":1759:1760  0 */\n      0x00\n        /* \"@openzeppelin/contracts/access/Ownable.sol\":1732:1750  _transferOwnership */\n      tag_86\n        /* \"@openzeppelin/contracts/access/Ownable.sol\":1732:1762  _transferOwnership(address(0)) */\n      jump\t// in\n    tag_85:\n        /* \"@openzeppelin/contracts/access/Ownable.sol\":1668:1769  function renounceOwnership() public virtual onlyOwner {... */\n      jump\t// out\n        /* \"contracts/MTMSAirdrop.sol\":880:926  mapping(uint256 => bytes32) public merkleRoots */\n    tag_33:\n      mstore(0x20, 0x03)\n      dup1\n      0x00\n      mstore\n      keccak256(0x00, 0x40)\n      0x00\n      swap2\n      pop\n      swap1\n      pop\n      sload\n      dup2\n      jump\t// out\n        /* \"@openzeppelin/contracts/access/Ownable.sol\":1036:1121  function owner() public view virtual returns (address) {... */\n    tag_37:\n        /* \"@openzeppelin/contracts/access/Ownable.sol\":1082:1089  address */\n      0x00\n        /* \"@openzeppelin/contracts/access/Ownable.sol\":1108:1114  _owner */\n      dup1\n      0x00\n      swap1\n      sload\n      swap1\n      0x0100\n      exp\n      swap1\n      div\n      0xffffffffffffffffffffffffffffffffffffffff\n      and\n        /* \"@openzeppelin/contracts/access/Ownable.sol\":1101:1114  return _owner */\n      swap1\n      pop\n        /* \"@openzeppelin/contracts/access/Ownable.sol\":1036:1121  function owner() public view virtual returns (address) {... */\n      swap1\n      jump\t// out\n        /* \"contracts/MTMSAirdrop.sol\":1971:2583  function claimWeeks(\r... */\n    tag_43:\n        /* \"contracts/MTMSAirdrop.sol\":2184:2195  uint256 len */\n      0x00\n        /* \"contracts/MTMSAirdrop.sol\":2198:2207  _tranches */\n      dup4\n        /* \"contracts/MTMSAirdrop.sol\":2198:2214  _tranches.length */\n      mload\n        /* \"contracts/MTMSAirdrop.sol\":2184:2214  uint256 len = _tranches.length */\n      swap1\n      pop\n        /* \"contracts/MTMSAirdrop.sol\":2240:2249  _balances */\n      dup3\n        /* \"contracts/MTMSAirdrop.sol\":2240:2256  _balances.length */\n      mload\n        /* \"contracts/MTMSAirdrop.sol\":2233:2236  len */\n      dup2\n        /* \"contracts/MTMSAirdrop.sol\":2233:2256  len == _balances.length */\n      eq\n        /* \"contracts/MTMSAirdrop.sol\":2233:2287  len == _balances.length && len == _merkleProofs.length */\n      dup1\n      iszero\n      tag_89\n      jumpi\n      pop\n        /* \"contracts/MTMSAirdrop.sol\":2267:2280  _merkleProofs */\n      dup2\n        /* \"contracts/MTMSAirdrop.sol\":2267:2287  _merkleProofs.length */\n      mload\n        /* \"contracts/MTMSAirdrop.sol\":2260:2263  len */\n      dup2\n        /* \"contracts/MTMSAirdrop.sol\":2260:2287  len == _merkleProofs.length */\n      eq\n        /* \"contracts/MTMSAirdrop.sol\":2233:2287  len == _balances.length && len == _merkleProofs.length */\n    tag_89:\n        /* \"contracts/MTMSAirdrop.sol\":2225:2310  require(len == _balances.length && len == _merkleProofs.length, \"Mismatching inputs\") */\n      tag_90\n      jumpi\n      mload(0x40)\n      0x08c379a000000000000000000000000000000000000000000000000000000000\n      dup2\n      mstore\n      0x04\n      add\n      tag_91\n      swap1\n      tag_92\n      jump\t// in\n    tag_91:\n      mload(0x40)\n      dup1\n      swap2\n      sub\n      swap1\n      revert\n    tag_90:\n        /* \"contracts/MTMSAirdrop.sol\":2323:2343  uint256 totalBalance */\n      0x00\n        /* \"contracts/MTMSAirdrop.sol\":2362:2371  uint256 i */\n      dup1\n        /* \"contracts/MTMSAirdrop.sol\":2358:2522  for(uint256 i = 0; i < len; i++) {\r... */\n    tag_93:\n        /* \"contracts/MTMSAirdrop.sol\":2381:2384  len */\n      dup3\n        /* \"contracts/MTMSAirdrop.sol\":2377:2378  i */\n      dup2\n        /* \"contracts/MTMSAirdrop.sol\":2377:2384  i < len */\n      lt\n        /* \"contracts/MTMSAirdrop.sol\":2358:2522  for(uint256 i = 0; i < len; i++) {\r... */\n      iszero\n      tag_94\n      jumpi\n        /* \"contracts/MTMSAirdrop.sol\":2406:2450  _claimWeek(_liquidityProvider, _balances[i]) */\n      tag_96\n        /* \"contracts/MTMSAirdrop.sol\":2417:2435  _liquidityProvider */\n      dup8\n        /* \"contracts/MTMSAirdrop.sol\":2437:2446  _balances */\n      dup7\n        /* \"contracts/MTMSAirdrop.sol\":2447:2448  i */\n      dup4\n        /* \"contracts/MTMSAirdrop.sol\":2437:2449  _balances[i] */\n      dup2\n      mload\n      dup2\n      lt\n      tag_97\n      jumpi\n      tag_98\n      tag_99\n      jump\t// in\n    tag_98:\n    tag_97:\n      0x20\n      mul\n      0x20\n      add\n      add\n      mload\n        /* \"contracts/MTMSAirdrop.sol\":2406:2416  _claimWeek */\n      tag_74\n        /* \"contracts/MTMSAirdrop.sol\":2406:2450  _claimWeek(_liquidityProvider, _balances[i]) */\n      jump\t// in\n    tag_96:\n        /* \"contracts/MTMSAirdrop.sol\":2480:2510  totalBalance.add(_balances[i]) */\n      tag_100\n        /* \"contracts/MTMSAirdrop.sol\":2497:2506  _balances */\n      dup6\n        /* \"contracts/MTMSAirdrop.sol\":2507:2508  i */\n      dup3\n        /* \"contracts/MTMSAirdrop.sol\":2497:2509  _balances[i] */\n      dup2\n      mload\n      dup2\n      lt\n      tag_101\n      jumpi\n      tag_102\n      tag_99\n      jump\t// in\n    tag_102:\n    tag_101:\n      0x20\n      mul\n      0x20\n      add\n      add\n      mload\n        /* \"contracts/MTMSAirdrop.sol\":2480:2492  totalBalance */\n      dup4\n        /* \"contracts/MTMSAirdrop.sol\":2480:2496  totalBalance.add */\n      tag_103\n      swap1\n        /* \"contracts/MTMSAirdrop.sol\":2480:2510  totalBalance.add(_balances[i]) */\n      swap2\n      swap1\n      0xffffffff\n      and\n      jump\t// in\n    tag_100:\n        /* \"contracts/MTMSAirdrop.sol\":2465:2510  totalBalance = totalBalance.add(_balances[i]) */\n      swap2\n      pop\n        /* \"contracts/MTMSAirdrop.sol\":2386:2389  i++ */\n      dup1\n      dup1\n      tag_104\n      swap1\n      tag_105\n      jump\t// in\n    tag_104:\n      swap2\n      pop\n      pop\n        /* \"contracts/MTMSAirdrop.sol\":2358:2522  for(uint256 i = 0; i < len; i++) {\r... */\n      jump(tag_93)\n    tag_94:\n      pop\n        /* \"contracts/MTMSAirdrop.sol\":2532:2575  _disburse(_liquidityProvider, totalBalance) */\n      tag_106\n        /* \"contracts/MTMSAirdrop.sol\":2542:2560  _liquidityProvider */\n      dup7\n        /* \"contracts/MTMSAirdrop.sol\":2562:2574  totalBalance */\n      dup3\n        /* \"contracts/MTMSAirdrop.sol\":2532:2541  _disburse */\n      tag_76\n        /* \"contracts/MTMSAirdrop.sol\":2532:2575  _disburse(_liquidityProvider, totalBalance) */\n      jump\t// in\n    tag_106:\n        /* \"contracts/MTMSAirdrop.sol\":2173:2583  {\r... */\n      pop\n      pop\n        /* \"contracts/MTMSAirdrop.sol\":1971:2583  function claimWeeks(\r... */\n      pop\n      pop\n      pop\n      pop\n      jump\t// out\n        /* \"contracts/MTMSAirdrop.sol\":1106:1543  function seedNewAllocations(address[] memory _recipients,uint256[] memory _amounts, uint256 _totalAllocation)\r... */\n    tag_47:\n        /* \"@openzeppelin/contracts/access/Ownable.sol\":1259:1271  _msgSender() */\n      tag_108\n        /* \"@openzeppelin/contracts/access/Ownable.sol\":1259:1269  _msgSender */\n      tag_79\n        /* \"@openzeppelin/contracts/access/Ownable.sol\":1259:1271  _msgSender() */\n      jump\t// in\n    tag_108:\n        /* \"@openzeppelin/contracts/access/Ownable.sol\":1248:1271  owner() == _msgSender() */\n      0xffffffffffffffffffffffffffffffffffffffff\n      and\n        /* \"@openzeppelin/contracts/access/Ownable.sol\":1248:1255  owner() */\n      tag_109\n        /* \"@openzeppelin/contracts/access/Ownable.sol\":1248:1253  owner */\n      tag_37\n        /* \"@openzeppelin/contracts/access/Ownable.sol\":1248:1255  owner() */\n      jump\t// in\n    tag_109:\n        /* \"@openzeppelin/contracts/access/Ownable.sol\":1248:1271  owner() == _msgSender() */\n      0xffffffffffffffffffffffffffffffffffffffff\n      and\n      eq\n        /* \"@openzeppelin/contracts/access/Ownable.sol\":1240:1308  require(owner() == _msgSender(), \"Ownable: caller is not the owner\") */\n      tag_110\n      jumpi\n      mload(0x40)\n      0x08c379a000000000000000000000000000000000000000000000000000000000\n      dup2\n      mstore\n      0x04\n      add\n      tag_111\n      swap1\n      tag_83\n      jump\t// in\n    tag_111:\n      mload(0x40)\n      dup1\n      swap2\n      sub\n      swap1\n      revert\n    tag_110:\n        /* \"contracts/MTMSAirdrop.sol\":1297:1305  _amounts */\n      dup2\n        /* \"contracts/MTMSAirdrop.sol\":1297:1312  _amounts.length */\n      mload\n        /* \"contracts/MTMSAirdrop.sol\":1275:1286  _recipients */\n      dup4\n        /* \"contracts/MTMSAirdrop.sol\":1275:1293  _recipients.length */\n      mload\n        /* \"contracts/MTMSAirdrop.sol\":1275:1312  _recipients.length == _amounts.length */\n      eq\n        /* \"contracts/MTMSAirdrop.sol\":1267:1335  require(_recipients.length == _amounts.length, \"Mismatching inputs\") */\n      tag_113\n      jumpi\n      mload(0x40)\n      0x08c379a000000000000000000000000000000000000000000000000000000000\n      dup2\n      mstore\n      0x04\n      add\n      tag_114\n      swap1\n      tag_92\n      jump\t// in\n    tag_114:\n      mload(0x40)\n      dup1\n      swap2\n      sub\n      swap1\n      revert\n    tag_113:\n        /* \"contracts/MTMSAirdrop.sol\":1346:1413  token.safeTransferFrom(msg.sender, address(this), _totalAllocation) */\n      tag_115\n        /* \"contracts/MTMSAirdrop.sol\":1369:1379  msg.sender */\n      caller\n        /* \"contracts/MTMSAirdrop.sol\":1389:1393  this */\n      address\n        /* \"contracts/MTMSAirdrop.sol\":1396:1412  _totalAllocation */\n      dup4\n        /* \"contracts/MTMSAirdrop.sol\":1346:1351  token */\n      0x01\n      0x00\n      swap1\n      sload\n      swap1\n      0x0100\n      exp\n      swap1\n      div\n      0xffffffffffffffffffffffffffffffffffffffff\n      and\n        /* \"contracts/MTMSAirdrop.sol\":1346:1368  token.safeTransferFrom */\n      0xffffffffffffffffffffffffffffffffffffffff\n      and\n      tag_116\n      swap1\n        /* \"contracts/MTMSAirdrop.sol\":1346:1413  token.safeTransferFrom(msg.sender, address(this), _totalAllocation) */\n      swap4\n      swap3\n      swap2\n      swap1\n      0xffffffff\n      and\n      jump\t// in\n    tag_115:\n        /* \"contracts/MTMSAirdrop.sol\":1430:1436  uint i */\n      0x00\n        /* \"contracts/MTMSAirdrop.sol\":1426:1536  for(uint i=0; i < _recipients.length; i++){\r... */\n    tag_117:\n        /* \"contracts/MTMSAirdrop.sol\":1444:1455  _recipients */\n      dup4\n        /* \"contracts/MTMSAirdrop.sol\":1444:1462  _recipients.length */\n      mload\n        /* \"contracts/MTMSAirdrop.sol\":1440:1441  i */\n      dup2\n        /* \"contracts/MTMSAirdrop.sol\":1440:1462  i < _recipients.length */\n      lt\n        /* \"contracts/MTMSAirdrop.sol\":1426:1536  for(uint i=0; i < _recipients.length; i++){\r... */\n      iszero\n      tag_118\n      jumpi\n        /* \"contracts/MTMSAirdrop.sol\":1513:1521  _amounts */\n      dup3\n        /* \"contracts/MTMSAirdrop.sol\":1522:1523  i */\n      dup2\n        /* \"contracts/MTMSAirdrop.sol\":1513:1524  _amounts[i] */\n      dup2\n      mload\n      dup2\n      lt\n      tag_120\n      jumpi\n      tag_121\n      tag_99\n      jump\t// in\n    tag_121:\n    tag_120:\n      0x20\n      mul\n      0x20\n      add\n      add\n      mload\n        /* \"contracts/MTMSAirdrop.sol\":1484:1494  recipients */\n      0x02\n        /* \"contracts/MTMSAirdrop.sol\":1484:1510  recipients[_recipients[i]] */\n      0x00\n        /* \"contracts/MTMSAirdrop.sol\":1495:1506  _recipients */\n      dup7\n        /* \"contracts/MTMSAirdrop.sol\":1507:1508  i */\n      dup5\n        /* \"contracts/MTMSAirdrop.sol\":1495:1509  _recipients[i] */\n      dup2\n      mload\n      dup2\n      lt\n      tag_122\n      jumpi\n      tag_123\n      tag_99\n      jump\t// in\n    tag_123:\n    tag_122:\n      0x20\n      mul\n      0x20\n      add\n      add\n      mload\n        /* \"contracts/MTMSAirdrop.sol\":1484:1510  recipients[_recipients[i]] */\n      0xffffffffffffffffffffffffffffffffffffffff\n      and\n      0xffffffffffffffffffffffffffffffffffffffff\n      and\n      dup2\n      mstore\n      0x20\n      add\n      swap1\n      dup2\n      mstore\n      0x20\n      add\n      0x00\n      keccak256\n        /* \"contracts/MTMSAirdrop.sol\":1484:1524  recipients[_recipients[i]] = _amounts[i] */\n      dup2\n      swap1\n      sstore\n      pop\n        /* \"contracts/MTMSAirdrop.sol\":1464:1467  i++ */\n      dup1\n      dup1\n      tag_124\n      swap1\n      tag_105\n      jump\t// in\n    tag_124:\n      swap2\n      pop\n      pop\n        /* \"contracts/MTMSAirdrop.sol\":1426:1536  for(uint i=0; i < _recipients.length; i++){\r... */\n      jump(tag_117)\n    tag_118:\n      pop\n        /* \"contracts/MTMSAirdrop.sol\":1106:1543  function seedNewAllocations(address[] memory _recipients,uint256[] memory _amounts, uint256 _totalAllocation)\r... */\n      pop\n      pop\n      pop\n      jump\t// out\n        /* \"contracts/MTMSAirdrop.sol\":1551:1733  function expireTranche(uint256 _trancheId)\r... */\n    tag_50:\n        /* \"@openzeppelin/contracts/access/Ownable.sol\":1259:1271  _msgSender() */\n      tag_126\n        /* \"@openzeppelin/contracts/access/Ownable.sol\":1259:1269  _msgSender */\n      tag_79\n        /* \"@openzeppelin/contracts/access/Ownable.sol\":1259:1271  _msgSender() */\n      jump\t// in\n    tag_126:\n        /* \"@openzeppelin/contracts/access/Ownable.sol\":1248:1271  owner() == _msgSender() */\n      0xffffffffffffffffffffffffffffffffffffffff\n      and\n        /* \"@openzeppelin/contracts/access/Ownable.sol\":1248:1255  owner() */\n      tag_127\n        /* \"@openzeppelin/contracts/access/Ownable.sol\":1248:1253  owner */\n      tag_37\n        /* \"@openzeppelin/contracts/access/Ownable.sol\":1248:1255  owner() */\n      jump\t// in\n    tag_127:\n        /* \"@openzeppelin/contracts/access/Ownable.sol\":1248:1271  owner() == _msgSender() */\n      0xffffffffffffffffffffffffffffffffffffffff\n      and\n      eq\n        /* \"@openzeppelin/contracts/access/Ownable.sol\":1240:1308  require(owner() == _msgSender(), \"Ownable: caller is not the owner\") */\n      tag_128\n      jumpi\n      mload(0x40)\n      0x08c379a000000000000000000000000000000000000000000000000000000000\n      dup2\n      mstore\n      0x04\n      add\n      tag_129\n      swap1\n      tag_83\n      jump\t// in\n    tag_129:\n      mload(0x40)\n      dup1\n      swap2\n      sub\n      swap1\n      revert\n    tag_128:\n        /* \"contracts/MTMSAirdrop.sol\":1679:1680  0 */\n      0x00\n        /* \"contracts/MTMSAirdrop.sol\":1671:1681  bytes32(0) */\n      dup1\n      shl\n        /* \"contracts/MTMSAirdrop.sol\":1645:1656  merkleRoots */\n      0x03\n        /* \"contracts/MTMSAirdrop.sol\":1645:1668  merkleRoots[_trancheId] */\n      0x00\n        /* \"contracts/MTMSAirdrop.sol\":1657:1667  _trancheId */\n      dup4\n        /* \"contracts/MTMSAirdrop.sol\":1645:1668  merkleRoots[_trancheId] */\n      dup2\n      mstore\n      0x20\n      add\n      swap1\n      dup2\n      mstore\n      0x20\n      add\n      0x00\n      keccak256\n        /* \"contracts/MTMSAirdrop.sol\":1645:1681  merkleRoots[_trancheId] = bytes32(0) */\n      dup2\n      swap1\n      sstore\n      pop\n        /* \"contracts/MTMSAirdrop.sol\":1699:1725  TrancheExpired(_trancheId) */\n      0xcc071cbd9ae50a4c78d1153b76bd2d46ba8d4c7662842718ec3de1d67a144daf\n        /* \"contracts/MTMSAirdrop.sol\":1714:1724  _trancheId */\n      dup2\n        /* \"contracts/MTMSAirdrop.sol\":1699:1725  TrancheExpired(_trancheId) */\n      mload(0x40)\n      tag_131\n      swap2\n      swap1\n      tag_61\n      jump\t// in\n    tag_131:\n      mload(0x40)\n      dup1\n      swap2\n      sub\n      swap1\n      log1\n        /* \"contracts/MTMSAirdrop.sol\":1551:1733  function expireTranche(uint256 _trancheId)\r... */\n      pop\n      jump\t// out\n        /* \"contracts/MTMSAirdrop.sol\":2593:2909  function verifyClaim(\r... */\n    tag_54:\n        /* \"contracts/MTMSAirdrop.sol\":2800:2810  bool valid */\n      0x00\n        /* \"contracts/MTMSAirdrop.sol\":2835:2901  _verifyClaim(_liquidityProvider, _tranche, _balance, _merkleProof) */\n      tag_133\n        /* \"contracts/MTMSAirdrop.sol\":2848:2866  _liquidityProvider */\n      dup6\n        /* \"contracts/MTMSAirdrop.sol\":2868:2876  _tranche */\n      dup6\n        /* \"contracts/MTMSAirdrop.sol\":2878:2886  _balance */\n      dup6\n        /* \"contracts/MTMSAirdrop.sol\":2888:2900  _merkleProof */\n      dup6\n        /* \"contracts/MTMSAirdrop.sol\":2835:2847  _verifyClaim */\n      tag_134\n        /* \"contracts/MTMSAirdrop.sol\":2835:2901  _verifyClaim(_liquidityProvider, _tranche, _balance, _merkleProof) */\n      jump\t// in\n    tag_133:\n        /* \"contracts/MTMSAirdrop.sol\":2828:2901  return _verifyClaim(_liquidityProvider, _tranche, _balance, _merkleProof) */\n      swap1\n      pop\n        /* \"contracts/MTMSAirdrop.sol\":2593:2909  function verifyClaim(\r... */\n      swap5\n      swap4\n      pop\n      pop\n      pop\n      pop\n      jump\t// out\n        /* \"contracts/MTMSAirdrop.sol\":826:871  mapping(address => uint256) public recipients */\n    tag_59:\n      mstore(0x20, 0x02)\n      dup1\n      0x00\n      mstore\n      keccak256(0x00, 0x40)\n      0x00\n      swap2\n      pop\n      swap1\n      pop\n      sload\n      dup2\n      jump\t// out\n        /* \"contracts/MTMSAirdrop.sol\":999:1022  uint256 public tranches */\n    tag_63:\n      sload(0x05)\n      dup2\n      jump\t// out\n        /* \"@openzeppelin/contracts/access/Ownable.sol\":1918:2116  function transferOwnership(address newOwner) public virtual onlyOwner {... */\n    tag_67:\n        /* \"@openzeppelin/contracts/access/Ownable.sol\":1259:1271  _msgSender() */\n      tag_136\n        /* \"@openzeppelin/contracts/access/Ownable.sol\":1259:1269  _msgSender */\n      tag_79\n        /* \"@openzeppelin/contracts/access/Ownable.sol\":1259:1271  _msgSender() */\n      jump\t// in\n    tag_136:\n        /* \"@openzeppelin/contracts/access/Ownable.sol\":1248:1271  owner() == _msgSender() */\n      0xffffffffffffffffffffffffffffffffffffffff\n      and\n        /* \"@openzeppelin/contracts/access/Ownable.sol\":1248:1255  owner() */\n      tag_137\n        /* \"@openzeppelin/contracts/access/Ownable.sol\":1248:1253  owner */\n      tag_37\n        /* \"@openzeppelin/contracts/access/Ownable.sol\":1248:1255  owner() */\n      jump\t// in\n    tag_137:\n        /* \"@openzeppelin/contracts/access/Ownable.sol\":1248:1271  owner() == _msgSender() */\n      0xffffffffffffffffffffffffffffffffffffffff\n      and\n      eq\n        /* \"@openzeppelin/contracts/access/Ownable.sol\":1240:1308  require(owner() == _msgSender(), \"Ownable: caller is not the owner\") */\n      tag_138\n      jumpi\n      mload(0x40)\n      0x08c379a000000000000000000000000000000000000000000000000000000000\n      dup2\n      mstore\n      0x04\n      add\n      tag_139\n      swap1\n      tag_83\n      jump\t// in\n    tag_139:\n      mload(0x40)\n      dup1\n      swap2\n      sub\n      swap1\n      revert\n    tag_138:\n        /* \"@openzeppelin/contracts/access/Ownable.sol\":2026:2027  0 */\n      0x00\n        /* \"@openzeppelin/contracts/access/Ownable.sol\":2006:2028  newOwner != address(0) */\n      0xffffffffffffffffffffffffffffffffffffffff\n      and\n        /* \"@openzeppelin/contracts/access/Ownable.sol\":2006:2014  newOwner */\n      dup2\n        /* \"@openzeppelin/contracts/access/Ownable.sol\":2006:2028  newOwner != address(0) */\n      0xffffffffffffffffffffffffffffffffffffffff\n      and\n      eq\n      iszero\n        /* \"@openzeppelin/contracts/access/Ownable.sol\":1998:2071  require(newOwner != address(0), \"Ownable: new owner is the zero address\") */\n      tag_141\n      jumpi\n      mload(0x40)\n      0x08c379a000000000000000000000000000000000000000000000000000000000\n      dup2\n      mstore\n      0x04\n      add\n      tag_142\n      swap1\n      tag_143\n      jump\t// in\n    tag_142:\n      mload(0x40)\n      dup1\n      swap2\n      sub\n      swap1\n      revert\n    tag_141:\n        /* \"@openzeppelin/contracts/access/Ownable.sol\":2081:2109  _transferOwnership(newOwner) */\n      tag_144\n        /* \"@openzeppelin/contracts/access/Ownable.sol\":2100:2108  newOwner */\n      dup2\n        /* \"@openzeppelin/contracts/access/Ownable.sol\":2081:2099  _transferOwnership */\n      tag_86\n        /* \"@openzeppelin/contracts/access/Ownable.sol\":2081:2109  _transferOwnership(newOwner) */\n      jump\t// in\n    tag_144:\n        /* \"@openzeppelin/contracts/access/Ownable.sol\":1918:2116  function transferOwnership(address newOwner) public virtual onlyOwner {... */\n      pop\n      jump\t// out\n        /* \"contracts/MTMSAirdrop.sol\":798:817  IERC20 public token */\n    tag_69:\n      0x01\n      0x00\n      swap1\n      sload\n      swap1\n      0x0100\n      exp\n      swap1\n      div\n      0xffffffffffffffffffffffffffffffffffffffff\n      and\n      dup2\n      jump\t// out\n        /* \"contracts/MTMSAirdrop.sol\":2917:3206  function _claimWeek(\r... */\n    tag_74:\n        /* \"contracts/MTMSAirdrop.sol\":3082:3083  0 */\n      0x00\n        /* \"contracts/MTMSAirdrop.sol\":3049:3059  recipients */\n      0x02\n        /* \"contracts/MTMSAirdrop.sol\":3049:3079  recipients[_liquidityProvider] */\n      0x00\n        /* \"contracts/MTMSAirdrop.sol\":3060:3078  _liquidityProvider */\n      dup5\n        /* \"contracts/MTMSAirdrop.sol\":3049:3079  recipients[_liquidityProvider] */\n      0xffffffffffffffffffffffffffffffffffffffff\n      and\n      0xffffffffffffffffffffffffffffffffffffffff\n      and\n      dup2\n      mstore\n      0x20\n      add\n      swap1\n      dup2\n      mstore\n      0x20\n      add\n      0x00\n      keccak256\n      sload\n        /* \"contracts/MTMSAirdrop.sol\":3049:3083  recipients[_liquidityProvider] > 0 */\n      gt\n        /* \"contracts/MTMSAirdrop.sol\":3041:3110  require(recipients[_liquidityProvider] > 0, \"LP has already claimed\") */\n      tag_146\n      jumpi\n      mload(0x40)\n      0x08c379a000000000000000000000000000000000000000000000000000000000\n      dup2\n      mstore\n      0x04\n      add\n      tag_147\n      swap1\n      tag_148\n      jump\t// in\n    tag_147:\n      mload(0x40)\n      dup1\n      swap2\n      sub\n      swap1\n      revert\n    tag_146:\n        /* \"contracts/MTMSAirdrop.sol\":3163:3171  _balance */\n      dup1\n        /* \"contracts/MTMSAirdrop.sol\":3129:3139  recipients */\n      0x02\n        /* \"contracts/MTMSAirdrop.sol\":3129:3159  recipients[_liquidityProvider] */\n      0x00\n        /* \"contracts/MTMSAirdrop.sol\":3140:3158  _liquidityProvider */\n      dup5\n        /* \"contracts/MTMSAirdrop.sol\":3129:3159  recipients[_liquidityProvider] */\n      0xffffffffffffffffffffffffffffffffffffffff\n      and\n      0xffffffffffffffffffffffffffffffffffffffff\n      and\n      dup2\n      mstore\n      0x20\n      add\n      swap1\n      dup2\n      mstore\n      0x20\n      add\n      0x00\n      keccak256\n      sload\n        /* \"contracts/MTMSAirdrop.sol\":3129:3171  recipients[_liquidityProvider] >= _balance */\n      lt\n      iszero\n        /* \"contracts/MTMSAirdrop.sol\":3121:3198  require(recipients[_liquidityProvider] >= _balance, \"Incorrect merkle proof\") */\n      tag_149\n      jumpi\n      mload(0x40)\n      0x08c379a000000000000000000000000000000000000000000000000000000000\n      dup2\n      mstore\n      0x04\n      add\n      tag_150\n      swap1\n      tag_151\n      jump\t// in\n    tag_150:\n      mload(0x40)\n      dup1\n      swap2\n      sub\n      swap1\n      revert\n    tag_149:\n        /* \"contracts/MTMSAirdrop.sol\":2917:3206  function _claimWeek(\r... */\n      pop\n      pop\n      jump\t// out\n        /* \"contracts/MTMSAirdrop.sol\":3622:3910  function _disburse(address _liquidityProvider, uint256 _balance) private {\r... */\n    tag_76:\n        /* \"contracts/MTMSAirdrop.sol\":3721:3722  0 */\n      0x00\n        /* \"contracts/MTMSAirdrop.sol\":3710:3718  _balance */\n      dup2\n        /* \"contracts/MTMSAirdrop.sol\":3710:3722  _balance > 0 */\n      gt\n        /* \"contracts/MTMSAirdrop.sol\":3706:3903  if (_balance > 0) {\r... */\n      iszero\n      tag_153\n      jumpi\n        /* \"contracts/MTMSAirdrop.sol\":3739:3787  token.safeTransfer(_liquidityProvider, _balance) */\n      tag_154\n        /* \"contracts/MTMSAirdrop.sol\":3758:3776  _liquidityProvider */\n      dup3\n        /* \"contracts/MTMSAirdrop.sol\":3778:3786  _balance */\n      dup3\n        /* \"contracts/MTMSAirdrop.sol\":3739:3744  token */\n      0x01\n      0x00\n      swap1\n      sload\n      swap1\n      0x0100\n      exp\n      swap1\n      div\n      0xffffffffffffffffffffffffffffffffffffffff\n      and\n        /* \"contracts/MTMSAirdrop.sol\":3739:3757  token.safeTransfer */\n      0xffffffffffffffffffffffffffffffffffffffff\n      and\n      tag_155\n      swap1\n        /* \"contracts/MTMSAirdrop.sol\":3739:3787  token.safeTransfer(_liquidityProvider, _balance) */\n      swap3\n      swap2\n      swap1\n      0xffffffff\n      and\n      jump\t// in\n    tag_154:\n        /* \"contracts/MTMSAirdrop.sol\":3706:3903  if (_balance > 0) {\r... */\n      jump(tag_156)\n    tag_153:\n        /* \"contracts/MTMSAirdrop.sol\":3820:3891  revert(\"No balance would be transferred - not going to waste your gas\") */\n      mload(0x40)\n      0x08c379a000000000000000000000000000000000000000000000000000000000\n      dup2\n      mstore\n      0x04\n      add\n      tag_157\n      swap1\n      tag_158\n      jump\t// in\n    tag_157:\n      mload(0x40)\n      dup1\n      swap2\n      sub\n      swap1\n      revert\n        /* \"contracts/MTMSAirdrop.sol\":3706:3903  if (_balance > 0) {\r... */\n    tag_156:\n        /* \"contracts/MTMSAirdrop.sol\":3622:3910  function _disburse(address _liquidityProvider, uint256 _balance) private {\r... */\n      pop\n      pop\n      jump\t// out\n        /* \"@openzeppelin/contracts/utils/Context.sol\":640:736  function _msgSender() internal view virtual returns (address) {... */\n    tag_79:\n        /* \"@openzeppelin/contracts/utils/Context.sol\":693:700  address */\n      0x00\n        /* \"@openzeppelin/contracts/utils/Context.sol\":719:729  msg.sender */\n      caller\n        /* \"@openzeppelin/contracts/utils/Context.sol\":712:729  return msg.sender */\n      swap1\n      pop\n        /* \"@openzeppelin/contracts/utils/Context.sol\":640:736  function _msgSender() internal view virtual returns (address) {... */\n      swap1\n      jump\t// out\n        /* \"@openzeppelin/contracts/access/Ownable.sol\":2270:2457  function _transferOwnership(address newOwner) internal virtual {... */\n    tag_86:\n        /* \"@openzeppelin/contracts/access/Ownable.sol\":2343:2359  address oldOwner */\n      0x00\n        /* \"@openzeppelin/contracts/access/Ownable.sol\":2362:2368  _owner */\n      dup1\n      0x00\n      swap1\n      sload\n      swap1\n      0x0100\n      exp\n      swap1\n      div\n      0xffffffffffffffffffffffffffffffffffffffff\n      and\n        /* \"@openzeppelin/contracts/access/Ownable.sol\":2343:2368  address oldOwner = _owner */\n      swap1\n      pop\n        /* \"@openzeppelin/contracts/access/Ownable.sol\":2387:2395  newOwner */\n      dup2\n        /* \"@openzeppelin/contracts/access/Ownable.sol\":2378:2384  _owner */\n      0x00\n      dup1\n        /* \"@openzeppelin/contracts/access/Ownable.sol\":2378:2395  _owner = newOwner */\n      0x0100\n      exp\n      dup2\n      sload\n      dup2\n      0xffffffffffffffffffffffffffffffffffffffff\n      mul\n      not\n      and\n      swap1\n      dup4\n      0xffffffffffffffffffffffffffffffffffffffff\n      and\n      mul\n      or\n      swap1\n      sstore\n      pop\n        /* \"@openzeppelin/contracts/access/Ownable.sol\":2441:2449  newOwner */\n      dup2\n        /* \"@openzeppelin/contracts/access/Ownable.sol\":2410:2450  OwnershipTransferred(oldOwner, newOwner) */\n      0xffffffffffffffffffffffffffffffffffffffff\n      and\n        /* \"@openzeppelin/contracts/access/Ownable.sol\":2431:2439  oldOwner */\n      dup2\n        /* \"@openzeppelin/contracts/access/Ownable.sol\":2410:2450  OwnershipTransferred(oldOwner, newOwner) */\n      0xffffffffffffffffffffffffffffffffffffffff\n      and\n      0x8be0079c531659141344cd1fd0a4f28419497f9722a3daafe3b4186f6b6457e0\n      mload(0x40)\n      mload(0x40)\n      dup1\n      swap2\n      sub\n      swap1\n      log3\n        /* \"@openzeppelin/contracts/access/Ownable.sol\":2333:2457  {... */\n      pop\n        /* \"@openzeppelin/contracts/access/Ownable.sol\":2270:2457  function _transferOwnership(address newOwner) internal virtual {... */\n      pop\n      jump\t// out\n        /* \"@openzeppelin/contracts/utils/math/SafeMath.sol\":2741:2837  function add(uint256 a, uint256 b) internal pure returns (uint256) {... */\n    tag_103:\n        /* \"@openzeppelin/contracts/utils/math/SafeMath.sol\":2799:2806  uint256 */\n      0x00\n        /* \"@openzeppelin/contracts/utils/math/SafeMath.sol\":2829:2830  b */\n      dup2\n        /* \"@openzeppelin/contracts/utils/math/SafeMath.sol\":2825:2826  a */\n      dup4\n        /* \"@openzeppelin/contracts/utils/math/SafeMath.sol\":2825:2830  a + b */\n      tag_162\n      swap2\n      swap1\n      tag_163\n      jump\t// in\n    tag_162:\n        /* \"@openzeppelin/contracts/utils/math/SafeMath.sol\":2818:2830  return a + b */\n      swap1\n      pop\n        /* \"@openzeppelin/contracts/utils/math/SafeMath.sol\":2741:2837  function add(uint256 a, uint256 b) internal pure returns (uint256) {... */\n      swap3\n      swap2\n      pop\n      pop\n      jump\t// out\n        /* \"@openzeppelin/contracts/token/ERC20/utils/SafeERC20.sol\":912:1153  function safeTransferFrom(... */\n    tag_116:\n        /* \"@openzeppelin/contracts/token/ERC20/utils/SafeERC20.sol\":1050:1146  _callOptionalReturn(token, abi.encodeWithSelector(token.transferFrom.selector, from, to, value)) */\n      tag_165\n        /* \"@openzeppelin/contracts/token/ERC20/utils/SafeERC20.sol\":1070:1075  token */\n      dup5\n        /* \"@openzeppelin/contracts/token/ERC20/utils/SafeERC20.sol\":1100:1127  token.transferFrom.selector */\n      shl(0xe0, 0x23b872dd)\n        /* \"@openzeppelin/contracts/token/ERC20/utils/SafeERC20.sol\":1129:1133  from */\n      dup6\n        /* \"@openzeppelin/contracts/token/ERC20/utils/SafeERC20.sol\":1135:1137  to */\n      dup6\n        /* \"@openzeppelin/contracts/token/ERC20/utils/SafeERC20.sol\":1139:1144  value */\n      dup6\n        /* \"@openzeppelin/contracts/token/ERC20/utils/SafeERC20.sol\":1077:1145  abi.encodeWithSelector(token.transferFrom.selector, from, to, value) */\n      add(0x24, mload(0x40))\n      tag_166\n      swap4\n      swap3\n      swap2\n      swap1\n      tag_167\n      jump\t// in\n    tag_166:\n      mload(0x40)\n      0x20\n      dup2\n      dup4\n      sub\n      sub\n      dup2\n      mstore\n      swap1\n      0x40\n      mstore\n      swap1\n      not(0xffffffffffffffffffffffffffffffffffffffffffffffffffffffff)\n      and\n      0x20\n      dup3\n      add\n      dup1\n      mload\n      0xffffffffffffffffffffffffffffffffffffffffffffffffffffffff\n      dup4\n      dup2\n      dup4\n      and\n      or\n      dup4\n      mstore\n      pop\n      pop\n      pop\n      pop\n        /* \"@openzeppelin/contracts/token/ERC20/utils/SafeERC20.sol\":1050:1069  _callOptionalReturn */\n      tag_168\n        /* \"@openzeppelin/contracts/token/ERC20/utils/SafeERC20.sol\":1050:1146  _callOptionalReturn(token, abi.encodeWithSelector(token.transferFrom.selector, from, to, value)) */\n      jump\t// in\n    tag_165:\n        /* \"@openzeppelin/contracts/token/ERC20/utils/SafeERC20.sol\":912:1153  function safeTransferFrom(... */\n      pop\n      pop\n      pop\n      pop\n      jump\t// out\n        /* \"contracts/MTMSAirdrop.sol\":3216:3612  function _verifyClaim(\r... */\n    tag_134:\n        /* \"contracts/MTMSAirdrop.sol\":3425:3435  bool valid */\n      0x00\n        /* \"contracts/MTMSAirdrop.sol\":3453:3465  bytes32 leaf */\n      dup1\n        /* \"contracts/MTMSAirdrop.sol\":3495:3513  _liquidityProvider */\n      dup6\n        /* \"contracts/MTMSAirdrop.sol\":3515:3523  _balance */\n      dup5\n        /* \"contracts/MTMSAirdrop.sol\":3478:3524  abi.encodePacked(_liquidityProvider, _balance) */\n      add(0x20, mload(0x40))\n      tag_170\n      swap3\n      swap2\n      swap1\n      tag_171\n      jump\t// in\n    tag_170:\n      mload(0x40)\n      0x20\n      dup2\n      dup4\n      sub\n      sub\n      dup2\n      mstore\n      swap1\n      0x40\n      mstore\n        /* \"contracts/MTMSAirdrop.sol\":3468:3525  keccak256(abi.encodePacked(_liquidityProvider, _balance)) */\n      dup1\n      mload\n      swap1\n      0x20\n      add\n      keccak256\n        /* \"contracts/MTMSAirdrop.sol\":3453:3525  bytes32 leaf = keccak256(abi.encodePacked(_liquidityProvider, _balance)) */\n      swap1\n      pop\n        /* \"contracts/MTMSAirdrop.sol\":3543:3604  MerkleProof.verify(_merkleProof, merkleRoots[_tranche], leaf) */\n      tag_172\n        /* \"contracts/MTMSAirdrop.sol\":3562:3574  _merkleProof */\n      dup4\n        /* \"contracts/MTMSAirdrop.sol\":3576:3587  merkleRoots */\n      0x03\n        /* \"contracts/MTMSAirdrop.sol\":3576:3597  merkleRoots[_tranche] */\n      0x00\n        /* \"contracts/MTMSAirdrop.sol\":3588:3596  _tranche */\n      dup9\n        /* \"contracts/MTMSAirdrop.sol\":3576:3597  merkleRoots[_tranche] */\n      dup2\n      mstore\n      0x20\n      add\n      swap1\n      dup2\n      mstore\n      0x20\n      add\n      0x00\n      keccak256\n      sload\n        /* \"contracts/MTMSAirdrop.sol\":3599:3603  leaf */\n      dup4\n        /* \"contracts/MTMSAirdrop.sol\":3543:3561  MerkleProof.verify */\n      tag_173\n        /* \"contracts/MTMSAirdrop.sol\":3543:3604  MerkleProof.verify(_merkleProof, merkleRoots[_tranche], leaf) */\n      jump\t// in\n    tag_172:\n        /* \"contracts/MTMSAirdrop.sol\":3536:3604  return MerkleProof.verify(_merkleProof, merkleRoots[_tranche], leaf) */\n      swap2\n      pop\n      pop\n        /* \"contracts/MTMSAirdrop.sol\":3216:3612  function _verifyClaim(\r... */\n      swap5\n      swap4\n      pop\n      pop\n      pop\n      pop\n      jump\t// out\n        /* \"@openzeppelin/contracts/token/ERC20/utils/SafeERC20.sol\":701:906  function safeTransfer(... */\n    tag_155:\n        /* \"@openzeppelin/contracts/token/ERC20/utils/SafeERC20.sol\":813:899  _callOptionalReturn(token, abi.encodeWithSelector(token.transfer.selector, to, value)) */\n      tag_175\n        /* \"@openzeppelin/contracts/token/ERC20/utils/SafeERC20.sol\":833:838  token */\n      dup4\n        /* \"@openzeppelin/contracts/token/ERC20/utils/SafeERC20.sol\":863:886  token.transfer.selector */\n      shl(0xe0, 0xa9059cbb)\n        /* \"@openzeppelin/contracts/token/ERC20/utils/SafeERC20.sol\":888:890  to */\n      dup5\n        /* \"@openzeppelin/contracts/token/ERC20/utils/SafeERC20.sol\":892:897  value */\n      dup5\n        /* \"@openzeppelin/contracts/token/ERC20/utils/SafeERC20.sol\":840:898  abi.encodeWithSelector(token.transfer.selector, to, value) */\n      add(0x24, mload(0x40))\n      tag_176\n      swap3\n      swap2\n      swap1\n      tag_177\n      jump\t// in\n    tag_176:\n      mload(0x40)\n      0x20\n      dup2\n      dup4\n      sub\n      sub\n      dup2\n      mstore\n      swap1\n      0x40\n      mstore\n      swap1\n      not(0xffffffffffffffffffffffffffffffffffffffffffffffffffffffff)\n      and\n      0x20\n      dup3\n      add\n      dup1\n      mload\n      0xffffffffffffffffffffffffffffffffffffffffffffffffffffffff\n      dup4\n      dup2\n      dup4\n      and\n      or\n      dup4\n      mstore\n      pop\n      pop\n      pop\n      pop\n        /* \"@openzeppelin/contracts/token/ERC20/utils/SafeERC20.sol\":813:832  _callOptionalReturn */\n      tag_168\n        /* \"@openzeppelin/contracts/token/ERC20/utils/SafeERC20.sol\":813:899  _callOptionalReturn(token, abi.encodeWithSelector(token.transfer.selector, to, value)) */\n      jump\t// in\n    tag_175:\n        /* \"@openzeppelin/contracts/token/ERC20/utils/SafeERC20.sol\":701:906  function safeTransfer(... */\n      pop\n      pop\n      pop\n      jump\t// out\n        /* \"@openzeppelin/contracts/token/ERC20/utils/SafeERC20.sol\":3207:3913  function _callOptionalReturn(IERC20 token, bytes memory data) private {... */\n    tag_168:\n        /* \"@openzeppelin/contracts/token/ERC20/utils/SafeERC20.sol\":3626:3649  bytes memory returndata */\n      0x00\n        /* \"@openzeppelin/contracts/token/ERC20/utils/SafeERC20.sol\":3652:3721  address(token).functionCall(data, \"SafeERC20: low-level call failed\") */\n      tag_179\n        /* \"@openzeppelin/contracts/token/ERC20/utils/SafeERC20.sol\":3680:3684  data */\n      dup3\n        /* \"@openzeppelin/contracts/token/ERC20/utils/SafeERC20.sol\":3652:3721  address(token).functionCall(data, \"SafeERC20: low-level call failed\") */\n      mload(0x40)\n      dup1\n      0x40\n      add\n      0x40\n      mstore\n      dup1\n      0x20\n      dup2\n      mstore\n      0x20\n      add\n      0x5361666545524332303a206c6f772d6c6576656c2063616c6c206661696c6564\n      dup2\n      mstore\n      pop\n        /* \"@openzeppelin/contracts/token/ERC20/utils/SafeERC20.sol\":3660:3665  token */\n      dup6\n        /* \"@openzeppelin/contracts/token/ERC20/utils/SafeERC20.sol\":3652:3679  address(token).functionCall */\n      0xffffffffffffffffffffffffffffffffffffffff\n      and\n      tag_180\n      swap1\n        /* \"@openzeppelin/contracts/token/ERC20/utils/SafeERC20.sol\":3652:3721  address(token).functionCall(data, \"SafeERC20: low-level call failed\") */\n      swap3\n      swap2\n      swap1\n      0xffffffff\n      and\n      jump\t// in\n    tag_179:\n        /* \"@openzeppelin/contracts/token/ERC20/utils/SafeERC20.sol\":3626:3721  bytes memory returndata = address(token).functionCall(data, \"SafeERC20: low-level call failed\") */\n      swap1\n      pop\n        /* \"@openzeppelin/contracts/token/ERC20/utils/SafeERC20.sol\":3755:3756  0 */\n      0x00\n        /* \"@openzeppelin/contracts/token/ERC20/utils/SafeERC20.sol\":3735:3745  returndata */\n      dup2\n        /* \"@openzeppelin/contracts/token/ERC20/utils/SafeERC20.sol\":3735:3752  returndata.length */\n      mload\n        /* \"@openzeppelin/contracts/token/ERC20/utils/SafeERC20.sol\":3735:3756  returndata.length > 0 */\n      gt\n        /* \"@openzeppelin/contracts/token/ERC20/utils/SafeERC20.sol\":3731:3907  if (returndata.length > 0) {... */\n      iszero\n      tag_181\n      jumpi\n        /* \"@openzeppelin/contracts/token/ERC20/utils/SafeERC20.sol\":3830:3840  returndata */\n      dup1\n        /* \"@openzeppelin/contracts/token/ERC20/utils/SafeERC20.sol\":3819:3849  abi.decode(returndata, (bool)) */\n      dup1\n      0x20\n      add\n      swap1\n      mload\n      dup2\n      add\n      swap1\n      tag_182\n      swap2\n      swap1\n      tag_183\n      jump\t// in\n    tag_182:\n        /* \"@openzeppelin/contracts/token/ERC20/utils/SafeERC20.sol\":3811:3896  require(abi.decode(returndata, (bool)), \"SafeERC20: ERC20 operation did not succeed\") */\n      tag_184\n      jumpi\n      mload(0x40)\n      0x08c379a000000000000000000000000000000000000000000000000000000000\n      dup2\n      mstore\n      0x04\n      add\n      tag_185\n      swap1\n      tag_186\n      jump\t// in\n    tag_185:\n      mload(0x40)\n      dup1\n      swap2\n      sub\n      swap1\n      revert\n    tag_184:\n        /* \"@openzeppelin/contracts/token/ERC20/utils/SafeERC20.sol\":3731:3907  if (returndata.length > 0) {... */\n    tag_181:\n        /* \"@openzeppelin/contracts/token/ERC20/utils/SafeERC20.sol\":3277:3913  {... */\n      pop\n        /* \"@openzeppelin/contracts/token/ERC20/utils/SafeERC20.sol\":3207:3913  function _callOptionalReturn(IERC20 token, bytes memory data) private {... */\n      pop\n      pop\n      jump\t// out\n        /* \"@openzeppelin/contracts/utils/cryptography/MerkleProof.sol\":862:1046  function verify(... */\n    tag_173:\n        /* \"@openzeppelin/contracts/utils/cryptography/MerkleProof.sol\":983:987  bool */\n      0x00\n        /* \"@openzeppelin/contracts/utils/cryptography/MerkleProof.sol\":1035:1039  root */\n      dup3\n        /* \"@openzeppelin/contracts/utils/cryptography/MerkleProof.sol\":1006:1031  processProof(proof, leaf) */\n      tag_188\n        /* \"@openzeppelin/contracts/utils/cryptography/MerkleProof.sol\":1019:1024  proof */\n      dup6\n        /* \"@openzeppelin/contracts/utils/cryptography/MerkleProof.sol\":1026:1030  leaf */\n      dup5\n        /* \"@openzeppelin/contracts/utils/cryptography/MerkleProof.sol\":1006:1018  processProof */\n      tag_189\n        /* \"@openzeppelin/contracts/utils/cryptography/MerkleProof.sol\":1006:1031  processProof(proof, leaf) */\n      jump\t// in\n    tag_188:\n        /* \"@openzeppelin/contracts/utils/cryptography/MerkleProof.sol\":1006:1039  processProof(proof, leaf) == root */\n      eq\n        /* \"@openzeppelin/contracts/utils/cryptography/MerkleProof.sol\":999:1039  return processProof(proof, leaf) == root */\n      swap1\n      pop\n        /* \"@openzeppelin/contracts/utils/cryptography/MerkleProof.sol\":862:1046  function verify(... */\n      swap4\n      swap3\n      pop\n      pop\n      pop\n      jump\t// out\n        /* \"@openzeppelin/contracts/utils/Address.sol\":3861:4084  function functionCall(... */\n    tag_180:\n        /* \"@openzeppelin/contracts/utils/Address.sol\":3994:4006  bytes memory */\n      0x60\n        /* \"@openzeppelin/contracts/utils/Address.sol\":4025:4077  functionCallWithValue(target, data, 0, errorMessage) */\n      tag_191\n        /* \"@openzeppelin/contracts/utils/Address.sol\":4047:4053  target */\n      dup5\n        /* \"@openzeppelin/contracts/utils/Address.sol\":4055:4059  data */\n      dup5\n        /* \"@openzeppelin/contracts/utils/Address.sol\":4061:4062  0 */\n      0x00\n        /* \"@openzeppelin/contracts/utils/Address.sol\":4064:4076  errorMessage */\n      dup6\n        /* \"@openzeppelin/contracts/utils/Address.sol\":4025:4046  functionCallWithValue */\n      tag_192\n        /* \"@openzeppelin/contracts/utils/Address.sol\":4025:4077  functionCallWithValue(target, data, 0, errorMessage) */\n      jump\t// in\n    tag_191:\n        /* \"@openzeppelin/contracts/utils/Address.sol\":4018:4077  return functionCallWithValue(target, data, 0, errorMessage) */\n      swap1\n      pop\n        /* \"@openzeppelin/contracts/utils/Address.sol\":3861:4084  function functionCall(... */\n      swap4\n      swap3\n      pop\n      pop\n      pop\n      jump\t// out\n        /* \"@openzeppelin/contracts/utils/cryptography/MerkleProof.sol\":1398:2060  function processProof(bytes32[] memory proof, bytes32 leaf) internal pure returns (bytes32) {... */\n    tag_189:\n        /* \"@openzeppelin/contracts/utils/cryptography/MerkleProof.sol\":1481:1488  bytes32 */\n      0x00\n        /* \"@openzeppelin/contracts/utils/cryptography/MerkleProof.sol\":1500:1520  bytes32 computedHash */\n      dup1\n        /* \"@openzeppelin/contracts/utils/cryptography/MerkleProof.sol\":1523:1527  leaf */\n      dup3\n        /* \"@openzeppelin/contracts/utils/cryptography/MerkleProof.sol\":1500:1527  bytes32 computedHash = leaf */\n      swap1\n      pop\n        /* \"@openzeppelin/contracts/utils/cryptography/MerkleProof.sol\":1542:1551  uint256 i */\n      0x00\n        /* \"@openzeppelin/contracts/utils/cryptography/MerkleProof.sol\":1537:2025  for (uint256 i = 0; i < proof.length; i++) {... */\n    tag_194:\n        /* \"@openzeppelin/contracts/utils/cryptography/MerkleProof.sol\":1561:1566  proof */\n      dup5\n        /* \"@openzeppelin/contracts/utils/cryptography/MerkleProof.sol\":1561:1573  proof.length */\n      mload\n        /* \"@openzeppelin/contracts/utils/cryptography/MerkleProof.sol\":1557:1558  i */\n      dup2\n        /* \"@openzeppelin/contracts/utils/cryptography/MerkleProof.sol\":1557:1573  i < proof.length */\n      lt\n        /* \"@openzeppelin/contracts/utils/cryptography/MerkleProof.sol\":1537:2025  for (uint256 i = 0; i < proof.length; i++) {... */\n      iszero\n      tag_195\n      jumpi\n        /* \"@openzeppelin/contracts/utils/cryptography/MerkleProof.sol\":1594:1614  bytes32 proofElement */\n      0x00\n        /* \"@openzeppelin/contracts/utils/cryptography/MerkleProof.sol\":1617:1622  proof */\n      dup6\n        /* \"@openzeppelin/contracts/utils/cryptography/MerkleProof.sol\":1623:1624  i */\n      dup3\n        /* \"@openzeppelin/contracts/utils/cryptography/MerkleProof.sol\":1617:1625  proof[i] */\n      dup2\n      mload\n      dup2\n      lt\n      tag_197\n      jumpi\n      tag_198\n      tag_99\n      jump\t// in\n    tag_198:\n    tag_197:\n      0x20\n      mul\n      0x20\n      add\n      add\n      mload\n        /* \"@openzeppelin/contracts/utils/cryptography/MerkleProof.sol\":1594:1625  bytes32 proofElement = proof[i] */\n      swap1\n      pop\n        /* \"@openzeppelin/contracts/utils/cryptography/MerkleProof.sol\":1659:1671  proofElement */\n      dup1\n        /* \"@openzeppelin/contracts/utils/cryptography/MerkleProof.sol\":1643:1655  computedHash */\n      dup4\n        /* \"@openzeppelin/contracts/utils/cryptography/MerkleProof.sol\":1643:1671  computedHash <= proofElement */\n      gt\n        /* \"@openzeppelin/contracts/utils/cryptography/MerkleProof.sol\":1639:2015  if (computedHash <= proofElement) {... */\n      tag_199\n      jumpi\n        /* \"@openzeppelin/contracts/utils/cryptography/MerkleProof.sol\":1784:1826  _efficientHash(computedHash, proofElement) */\n      tag_200\n        /* \"@openzeppelin/contracts/utils/cryptography/MerkleProof.sol\":1799:1811  computedHash */\n      dup4\n        /* \"@openzeppelin/contracts/utils/cryptography/MerkleProof.sol\":1813:1825  proofElement */\n      dup3\n        /* \"@openzeppelin/contracts/utils/cryptography/MerkleProof.sol\":1784:1798  _efficientHash */\n      tag_201\n        /* \"@openzeppelin/contracts/utils/cryptography/MerkleProof.sol\":1784:1826  _efficientHash(computedHash, proofElement) */\n      jump\t// in\n    tag_200:\n        /* \"@openzeppelin/contracts/utils/cryptography/MerkleProof.sol\":1769:1826  computedHash = _efficientHash(computedHash, proofElement) */\n      swap3\n      pop\n        /* \"@openzeppelin/contracts/utils/cryptography/MerkleProof.sol\":1639:2015  if (computedHash <= proofElement) {... */\n      jump(tag_202)\n    tag_199:\n        /* \"@openzeppelin/contracts/utils/cryptography/MerkleProof.sol\":1958:2000  _efficientHash(proofElement, computedHash) */\n      tag_203\n        /* \"@openzeppelin/contracts/utils/cryptography/MerkleProof.sol\":1973:1985  proofElement */\n      dup2\n        /* \"@openzeppelin/contracts/utils/cryptography/MerkleProof.sol\":1987:1999  computedHash */\n      dup5\n        /* \"@openzeppelin/contracts/utils/cryptography/MerkleProof.sol\":1958:1972  _efficientHash */\n      tag_201\n        /* \"@openzeppelin/contracts/utils/cryptography/MerkleProof.sol\":1958:2000  _efficientHash(proofElement, computedHash) */\n      jump\t// in\n    tag_203:\n        /* \"@openzeppelin/contracts/utils/cryptography/MerkleProof.sol\":1943:2000  computedHash = _efficientHash(proofElement, computedHash) */\n      swap3\n      pop\n        /* \"@openzeppelin/contracts/utils/cryptography/MerkleProof.sol\":1639:2015  if (computedHash <= proofElement) {... */\n    tag_202:\n        /* \"@openzeppelin/contracts/utils/cryptography/MerkleProof.sol\":1580:2025  {... */\n      pop\n        /* \"@openzeppelin/contracts/utils/cryptography/MerkleProof.sol\":1575:1578  i++ */\n      dup1\n      dup1\n      tag_204\n      swap1\n      tag_105\n      jump\t// in\n    tag_204:\n      swap2\n      pop\n      pop\n        /* \"@openzeppelin/contracts/utils/cryptography/MerkleProof.sol\":1537:2025  for (uint256 i = 0; i < proof.length; i++) {... */\n      jump(tag_194)\n    tag_195:\n      pop\n        /* \"@openzeppelin/contracts/utils/cryptography/MerkleProof.sol\":2041:2053  computedHash */\n      dup1\n        /* \"@openzeppelin/contracts/utils/cryptography/MerkleProof.sol\":2034:2053  return computedHash */\n      swap2\n      pop\n      pop\n        /* \"@openzeppelin/contracts/utils/cryptography/MerkleProof.sol\":1398:2060  function processProof(bytes32[] memory proof, bytes32 leaf) internal pure returns (bytes32) {... */\n      swap3\n      swap2\n      pop\n      pop\n      jump\t// out\n        /* \"@openzeppelin/contracts/utils/Address.sol\":4948:5447  function functionCallWithValue(... */\n    tag_192:\n        /* \"@openzeppelin/contracts/utils/Address.sol\":5113:5125  bytes memory */\n      0x60\n        /* \"@openzeppelin/contracts/utils/Address.sol\":5170:5175  value */\n      dup3\n        /* \"@openzeppelin/contracts/utils/Address.sol\":5145:5166  address(this).balance */\n      selfbalance\n        /* \"@openzeppelin/contracts/utils/Address.sol\":5145:5175  address(this).balance >= value */\n      lt\n      iszero\n        /* \"@openzeppelin/contracts/utils/Address.sol\":5137:5218  require(address(this).balance >= value, \"Address: insufficient balance for call\") */\n      tag_206\n      jumpi\n      mload(0x40)\n      0x08c379a000000000000000000000000000000000000000000000000000000000\n      dup2\n      mstore\n      0x04\n      add\n      tag_207\n      swap1\n      tag_208\n      jump\t// in\n    tag_207:\n      mload(0x40)\n      dup1\n      swap2\n      sub\n      swap1\n      revert\n    tag_206:\n        /* \"@openzeppelin/contracts/utils/Address.sol\":5236:5254  isContract(target) */\n      tag_209\n        /* \"@openzeppelin/contracts/utils/Address.sol\":5247:5253  target */\n      dup6\n        /* \"@openzeppelin/contracts/utils/Address.sol\":5236:5246  isContract */\n      tag_210\n        /* \"@openzeppelin/contracts/utils/Address.sol\":5236:5254  isContract(target) */\n      jump\t// in\n    tag_209:\n        /* \"@openzeppelin/contracts/utils/Address.sol\":5228:5288  require(isContract(target), \"Address: call to non-contract\") */\n      tag_211\n      jumpi\n      mload(0x40)\n      0x08c379a000000000000000000000000000000000000000000000000000000000\n      dup2\n      mstore\n      0x04\n      add\n      tag_212\n      swap1\n      tag_213\n      jump\t// in\n    tag_212:\n      mload(0x40)\n      dup1\n      swap2\n      sub\n      swap1\n      revert\n    tag_211:\n        /* \"@openzeppelin/contracts/utils/Address.sol\":5300:5312  bool success */\n      0x00\n        /* \"@openzeppelin/contracts/utils/Address.sol\":5314:5337  bytes memory returndata */\n      dup1\n        /* \"@openzeppelin/contracts/utils/Address.sol\":5341:5347  target */\n      dup7\n        /* \"@openzeppelin/contracts/utils/Address.sol\":5341:5352  target.call */\n      0xffffffffffffffffffffffffffffffffffffffff\n      and\n        /* \"@openzeppelin/contracts/utils/Address.sol\":5360:5365  value */\n      dup6\n        /* \"@openzeppelin/contracts/utils/Address.sol\":5367:5371  data */\n      dup8\n        /* \"@openzeppelin/contracts/utils/Address.sol\":5341:5372  target.call{value: value}(data) */\n      mload(0x40)\n      tag_214\n      swap2\n      swap1\n      tag_215\n      jump\t// in\n    tag_214:\n      0x00\n      mload(0x40)\n      dup1\n      dup4\n      sub\n      dup2\n      dup6\n      dup8\n      gas\n      call\n      swap3\n      pop\n      pop\n      pop\n      returndatasize\n      dup1\n      0x00\n      dup2\n      eq\n      tag_218\n      jumpi\n      mload(0x40)\n      swap2\n      pop\n      and(add(returndatasize, 0x3f), not(0x1f))\n      dup3\n      add\n      0x40\n      mstore\n      returndatasize\n      dup3\n      mstore\n      returndatasize\n      0x00\n      0x20\n      dup5\n      add\n      returndatacopy\n      jump(tag_217)\n    tag_218:\n      0x60\n      swap2\n      pop\n    tag_217:\n      pop\n        /* \"@openzeppelin/contracts/utils/Address.sol\":5299:5372  (bool success, bytes memory returndata) = target.call{value: value}(data) */\n      swap2\n      pop\n      swap2\n      pop\n        /* \"@openzeppelin/contracts/utils/Address.sol\":5389:5440  verifyCallResult(success, returndata, errorMessage) */\n      tag_219\n        /* \"@openzeppelin/contracts/utils/Address.sol\":5406:5413  success */\n      dup3\n        /* \"@openzeppelin/contracts/utils/Address.sol\":5415:5425  returndata */\n      dup3\n        /* \"@openzeppelin/contracts/utils/Address.sol\":5427:5439  errorMessage */\n      dup7\n        /* \"@openzeppelin/contracts/utils/Address.sol\":5389:5405  verifyCallResult */\n      tag_220\n        /* \"@openzeppelin/contracts/utils/Address.sol\":5389:5440  verifyCallResult(success, returndata, errorMessage) */\n      jump\t// in\n    tag_219:\n        /* \"@openzeppelin/contracts/utils/Address.sol\":5382:5440  return verifyCallResult(success, returndata, errorMessage) */\n      swap3\n      pop\n      pop\n      pop\n        /* \"@openzeppelin/contracts/utils/Address.sol\":4948:5447  function functionCallWithValue(... */\n      swap5\n      swap4\n      pop\n      pop\n      pop\n      pop\n      jump\t// out\n        /* \"@openzeppelin/contracts/utils/cryptography/MerkleProof.sol\":2066:2284  function _efficientHash(bytes32 a, bytes32 b) private pure returns (bytes32 value) {... */\n    tag_201:\n        /* \"@openzeppelin/contracts/utils/cryptography/MerkleProof.sol\":2134:2147  bytes32 value */\n      0x00\n        /* \"@openzeppelin/contracts/utils/cryptography/MerkleProof.sol\":2195:2196  a */\n      dup3\n        /* \"@openzeppelin/contracts/utils/cryptography/MerkleProof.sol\":2189:2193  0x00 */\n      0x00\n        /* \"@openzeppelin/contracts/utils/cryptography/MerkleProof.sol\":2182:2197  mstore(0x00, a) */\n      mstore\n        /* \"@openzeppelin/contracts/utils/cryptography/MerkleProof.sol\":2223:2224  b */\n      dup2\n        /* \"@openzeppelin/contracts/utils/cryptography/MerkleProof.sol\":2217:2221  0x20 */\n      0x20\n        /* \"@openzeppelin/contracts/utils/cryptography/MerkleProof.sol\":2210:2225  mstore(0x20, b) */\n      mstore\n        /* \"@openzeppelin/contracts/utils/cryptography/MerkleProof.sol\":2263:2267  0x40 */\n      0x40\n        /* \"@openzeppelin/contracts/utils/cryptography/MerkleProof.sol\":2257:2261  0x00 */\n      0x00\n        /* \"@openzeppelin/contracts/utils/cryptography/MerkleProof.sol\":2247:2268  keccak256(0x00, 0x40) */\n      keccak256\n        /* \"@openzeppelin/contracts/utils/cryptography/MerkleProof.sol\":2238:2268  value := keccak256(0x00, 0x40) */\n      swap1\n      pop\n        /* \"@openzeppelin/contracts/utils/cryptography/MerkleProof.sol\":2066:2284  function _efficientHash(bytes32 a, bytes32 b) private pure returns (bytes32 value) {... */\n      swap3\n      swap2\n      pop\n      pop\n      jump\t// out\n        /* \"@openzeppelin/contracts/utils/Address.sol\":1175:1495  function isContract(address account) internal view returns (bool) {... */\n    tag_210:\n        /* \"@openzeppelin/contracts/utils/Address.sol\":1235:1239  bool */\n      0x00\n        /* \"@openzeppelin/contracts/utils/Address.sol\":1487:1488  0 */\n      dup1\n        /* \"@openzeppelin/contracts/utils/Address.sol\":1465:1472  account */\n      dup3\n        /* \"@openzeppelin/contracts/utils/Address.sol\":1465:1484  account.code.length */\n      0xffffffffffffffffffffffffffffffffffffffff\n      and\n      extcodesize\n        /* \"@openzeppelin/contracts/utils/Address.sol\":1465:1488  account.code.length > 0 */\n      gt\n        /* \"@openzeppelin/contracts/utils/Address.sol\":1458:1488  return account.code.length > 0 */\n      swap1\n      pop\n        /* \"@openzeppelin/contracts/utils/Address.sol\":1175:1495  function isContract(address account) internal view returns (bool) {... */\n      swap2\n      swap1\n      pop\n      jump\t// out\n        /* \"@openzeppelin/contracts/utils/Address.sol\":7561:8253  function verifyCallResult(... */\n    tag_220:\n        /* \"@openzeppelin/contracts/utils/Address.sol\":7707:7719  bytes memory */\n      0x60\n        /* \"@openzeppelin/contracts/utils/Address.sol\":7735:7742  success */\n      dup4\n        /* \"@openzeppelin/contracts/utils/Address.sol\":7731:8247  if (success) {... */\n      iszero\n      tag_224\n      jumpi\n        /* \"@openzeppelin/contracts/utils/Address.sol\":7765:7775  returndata */\n      dup3\n        /* \"@openzeppelin/contracts/utils/Address.sol\":7758:7775  return returndata */\n      swap1\n      pop\n      jump(tag_223)\n        /* \"@openzeppelin/contracts/utils/Address.sol\":7731:8247  if (success) {... */\n    tag_224:\n        /* \"@openzeppelin/contracts/utils/Address.sol\":7896:7897  0 */\n      0x00\n        /* \"@openzeppelin/contracts/utils/Address.sol\":7876:7886  returndata */\n      dup4\n        /* \"@openzeppelin/contracts/utils/Address.sol\":7876:7893  returndata.length */\n      mload\n        /* \"@openzeppelin/contracts/utils/Address.sol\":7876:7897  returndata.length > 0 */\n      gt\n        /* \"@openzeppelin/contracts/utils/Address.sol\":7872:8237  if (returndata.length > 0) {... */\n      iszero\n      tag_226\n      jumpi\n        /* \"@openzeppelin/contracts/utils/Address.sol\":8070:8080  returndata */\n      dup3\n        /* \"@openzeppelin/contracts/utils/Address.sol\":8064:8081  mload(returndata) */\n      mload\n        /* \"@openzeppelin/contracts/utils/Address.sol\":8130:8145  returndata_size */\n      dup1\n        /* \"@openzeppelin/contracts/utils/Address.sol\":8117:8127  returndata */\n      dup5\n        /* \"@openzeppelin/contracts/utils/Address.sol\":8113:8115  32 */\n      0x20\n        /* \"@openzeppelin/contracts/utils/Address.sol\":8109:8128  add(32, returndata) */\n      add\n        /* \"@openzeppelin/contracts/utils/Address.sol\":8102:8146  revert(add(32, returndata), returndata_size) */\n      revert\n        /* \"@openzeppelin/contracts/utils/Address.sol\":7872:8237  if (returndata.length > 0) {... */\n    tag_226:\n        /* \"@openzeppelin/contracts/utils/Address.sol\":8209:8221  errorMessage */\n      dup2\n        /* \"@openzeppelin/contracts/utils/Address.sol\":8202:8222  revert(errorMessage) */\n      mload(0x40)\n      0x08c379a000000000000000000000000000000000000000000000000000000000\n      dup2\n      mstore\n      0x04\n      add\n      tag_228\n      swap2\n      swap1\n      tag_229\n      jump\t// in\n    tag_228:\n      mload(0x40)\n      dup1\n      swap2\n      sub\n      swap1\n      revert\n        /* \"@openzeppelin/contracts/utils/Address.sol\":7561:8253  function verifyCallResult(... */\n    tag_223:\n      swap4\n      swap3\n      pop\n      pop\n      pop\n      jump\t// out\n        /* \"#utility.yul\":24:746   */\n    tag_231:\n        /* \"#utility.yul\":120:125   */\n      0x00\n        /* \"#utility.yul\":145:226   */\n      tag_233\n        /* \"#utility.yul\":161:225   */\n      tag_234\n        /* \"#utility.yul\":218:224   */\n      dup5\n        /* \"#utility.yul\":161:225   */\n      tag_235\n      jump\t// in\n    tag_234:\n        /* \"#utility.yul\":145:226   */\n      tag_236\n      jump\t// in\n    tag_233:\n        /* \"#utility.yul\":136:226   */\n      swap1\n      pop\n        /* \"#utility.yul\":246:251   */\n      dup1\n        /* \"#utility.yul\":275:281   */\n      dup4\n        /* \"#utility.yul\":268:273   */\n      dup3\n        /* \"#utility.yul\":261:282   */\n      mstore\n        /* \"#utility.yul\":309:313   */\n      0x20\n        /* \"#utility.yul\":302:307   */\n      dup3\n        /* \"#utility.yul\":298:314   */\n      add\n        /* \"#utility.yul\":291:314   */\n      swap1\n      pop\n        /* \"#utility.yul\":335:341   */\n      dup3\n        /* \"#utility.yul\":385:388   */\n      dup6\n        /* \"#utility.yul\":377:381   */\n      0x20\n        /* \"#utility.yul\":369:375   */\n      dup7\n        /* \"#utility.yul\":365:382   */\n      mul\n        /* \"#utility.yul\":360:363   */\n      dup3\n        /* \"#utility.yul\":356:383   */\n      add\n        /* \"#utility.yul\":353:389   */\n      gt\n        /* \"#utility.yul\":350:493   */\n      iszero\n      tag_237\n      jumpi\n        /* \"#utility.yul\":404:483   */\n      tag_238\n      tag_239\n      jump\t// in\n    tag_238:\n        /* \"#utility.yul\":350:493   */\n    tag_237:\n        /* \"#utility.yul\":517:518   */\n      0x00\n        /* \"#utility.yul\":502:740   */\n    tag_240:\n        /* \"#utility.yul\":527:533   */\n      dup6\n        /* \"#utility.yul\":524:525   */\n      dup2\n        /* \"#utility.yul\":521:534   */\n      lt\n        /* \"#utility.yul\":502:740   */\n      iszero\n      tag_242\n      jumpi\n        /* \"#utility.yul\":595:598   */\n      dup2\n        /* \"#utility.yul\":624:661   */\n      tag_243\n        /* \"#utility.yul\":657:660   */\n      dup9\n        /* \"#utility.yul\":645:655   */\n      dup3\n        /* \"#utility.yul\":624:661   */\n      tag_244\n      jump\t// in\n    tag_243:\n        /* \"#utility.yul\":619:622   */\n      dup5\n        /* \"#utility.yul\":612:662   */\n      mstore\n        /* \"#utility.yul\":691:695   */\n      0x20\n        /* \"#utility.yul\":686:689   */\n      dup5\n        /* \"#utility.yul\":682:696   */\n      add\n        /* \"#utility.yul\":675:696   */\n      swap4\n      pop\n        /* \"#utility.yul\":725:729   */\n      0x20\n        /* \"#utility.yul\":720:723   */\n      dup4\n        /* \"#utility.yul\":716:730   */\n      add\n        /* \"#utility.yul\":709:730   */\n      swap3\n      pop\n        /* \"#utility.yul\":562:740   */\n      pop\n        /* \"#utility.yul\":549:550   */\n      0x01\n        /* \"#utility.yul\":546:547   */\n      dup2\n        /* \"#utility.yul\":542:551   */\n      add\n        /* \"#utility.yul\":537:551   */\n      swap1\n      pop\n        /* \"#utility.yul\":502:740   */\n      jump(tag_240)\n    tag_242:\n        /* \"#utility.yul\":506:520   */\n      pop\n        /* \"#utility.yul\":126:746   */\n      pop\n      pop\n        /* \"#utility.yul\":24:746   */\n      swap4\n      swap3\n      pop\n      pop\n      pop\n      jump\t// out\n        /* \"#utility.yul\":771:1773   */\n    tag_245:\n        /* \"#utility.yul\":892:897   */\n      0x00\n        /* \"#utility.yul\":917:1023   */\n      tag_247\n        /* \"#utility.yul\":933:1022   */\n      tag_248\n        /* \"#utility.yul\":1015:1021   */\n      dup5\n        /* \"#utility.yul\":933:1022   */\n      tag_249\n      jump\t// in\n    tag_248:\n        /* \"#utility.yul\":917:1023   */\n      tag_236\n      jump\t// in\n    tag_247:\n        /* \"#utility.yul\":908:1023   */\n      swap1\n      pop\n        /* \"#utility.yul\":1043:1048   */\n      dup1\n        /* \"#utility.yul\":1072:1078   */\n      dup4\n        /* \"#utility.yul\":1065:1070   */\n      dup3\n        /* \"#utility.yul\":1058:1079   */\n      mstore\n        /* \"#utility.yul\":1106:1110   */\n      0x20\n        /* \"#utility.yul\":1099:1104   */\n      dup3\n        /* \"#utility.yul\":1095:1111   */\n      add\n        /* \"#utility.yul\":1088:1111   */\n      swap1\n      pop\n        /* \"#utility.yul\":1132:1138   */\n      dup3\n        /* \"#utility.yul\":1182:1185   */\n      dup6\n        /* \"#utility.yul\":1174:1178   */\n      0x20\n        /* \"#utility.yul\":1166:1172   */\n      dup7\n        /* \"#utility.yul\":1162:1179   */\n      mul\n        /* \"#utility.yul\":1157:1160   */\n      dup3\n        /* \"#utility.yul\":1153:1180   */\n      add\n        /* \"#utility.yul\":1150:1186   */\n      gt\n        /* \"#utility.yul\":1147:1290   */\n      iszero\n      tag_250\n      jumpi\n        /* \"#utility.yul\":1201:1280   */\n      tag_251\n      tag_239\n      jump\t// in\n    tag_251:\n        /* \"#utility.yul\":1147:1290   */\n    tag_250:\n        /* \"#utility.yul\":1314:1315   */\n      0x00\n        /* \"#utility.yul\":1299:1767   */\n    tag_252:\n        /* \"#utility.yul\":1324:1330   */\n      dup6\n        /* \"#utility.yul\":1321:1322   */\n      dup2\n        /* \"#utility.yul\":1318:1331   */\n      lt\n        /* \"#utility.yul\":1299:1767   */\n      iszero\n      tag_254\n      jumpi\n        /* \"#utility.yul\":1406:1409   */\n      dup2\n        /* \"#utility.yul\":1393:1410   */\n      calldataload\n        /* \"#utility.yul\":1442:1460   */\n      0xffffffffffffffff\n        /* \"#utility.yul\":1429:1440   */\n      dup2\n        /* \"#utility.yul\":1426:1461   */\n      gt\n        /* \"#utility.yul\":1423:1545   */\n      iszero\n      tag_255\n      jumpi\n        /* \"#utility.yul\":1464:1543   */\n      tag_256\n      tag_257\n      jump\t// in\n    tag_256:\n        /* \"#utility.yul\":1423:1545   */\n    tag_255:\n        /* \"#utility.yul\":1588:1599   */\n      dup1\n        /* \"#utility.yul\":1580:1586   */\n      dup7\n        /* \"#utility.yul\":1576:1600   */\n      add\n        /* \"#utility.yul\":1626:1688   */\n      tag_258\n        /* \"#utility.yul\":1684:1687   */\n      dup10\n        /* \"#utility.yul\":1672:1682   */\n      dup3\n        /* \"#utility.yul\":1626:1688   */\n      tag_259\n      jump\t// in\n    tag_258:\n        /* \"#utility.yul\":1621:1624   */\n      dup6\n        /* \"#utility.yul\":1614:1689   */\n      mstore\n        /* \"#utility.yul\":1718:1722   */\n      0x20\n        /* \"#utility.yul\":1713:1716   */\n      dup6\n        /* \"#utility.yul\":1709:1723   */\n      add\n        /* \"#utility.yul\":1702:1723   */\n      swap5\n      pop\n        /* \"#utility.yul\":1752:1756   */\n      0x20\n        /* \"#utility.yul\":1747:1750   */\n      dup5\n        /* \"#utility.yul\":1743:1757   */\n      add\n        /* \"#utility.yul\":1736:1757   */\n      swap4\n      pop\n        /* \"#utility.yul\":1359:1767   */\n      pop\n      pop\n        /* \"#utility.yul\":1346:1347   */\n      0x01\n        /* \"#utility.yul\":1343:1344   */\n      dup2\n        /* \"#utility.yul\":1339:1348   */\n      add\n        /* \"#utility.yul\":1334:1348   */\n      swap1\n      pop\n        /* \"#utility.yul\":1299:1767   */\n      jump(tag_252)\n    tag_254:\n        /* \"#utility.yul\":1303:1317   */\n      pop\n        /* \"#utility.yul\":898:1773   */\n      pop\n      pop\n        /* \"#utility.yul\":771:1773   */\n      swap4\n      swap3\n      pop\n      pop\n      pop\n      jump\t// out\n        /* \"#utility.yul\":1796:2518   */\n    tag_260:\n        /* \"#utility.yul\":1892:1897   */\n      0x00\n        /* \"#utility.yul\":1917:1998   */\n      tag_262\n        /* \"#utility.yul\":1933:1997   */\n      tag_263\n        /* \"#utility.yul\":1990:1996   */\n      dup5\n        /* \"#utility.yul\":1933:1997   */\n      tag_264\n      jump\t// in\n    tag_263:\n        /* \"#utility.yul\":1917:1998   */\n      tag_236\n      jump\t// in\n    tag_262:\n        /* \"#utility.yul\":1908:1998   */\n      swap1\n      pop\n        /* \"#utility.yul\":2018:2023   */\n      dup1\n        /* \"#utility.yul\":2047:2053   */\n      dup4\n        /* \"#utility.yul\":2040:2045   */\n      dup3\n        /* \"#utility.yul\":2033:2054   */\n      mstore\n        /* \"#utility.yul\":2081:2085   */\n      0x20\n        /* \"#utility.yul\":2074:2079   */\n      dup3\n        /* \"#utility.yul\":2070:2086   */\n      add\n        /* \"#utility.yul\":2063:2086   */\n      swap1\n      pop\n        /* \"#utility.yul\":2107:2113   */\n      dup3\n        /* \"#utility.yul\":2157:2160   */\n      dup6\n        /* \"#utility.yul\":2149:2153   */\n      0x20\n        /* \"#utility.yul\":2141:2147   */\n      dup7\n        /* \"#utility.yul\":2137:2154   */\n      mul\n        /* \"#utility.yul\":2132:2135   */\n      dup3\n        /* \"#utility.yul\":2128:2155   */\n      add\n        /* \"#utility.yul\":2125:2161   */\n      gt\n        /* \"#utility.yul\":2122:2265   */\n      iszero\n      tag_265\n      jumpi\n        /* \"#utility.yul\":2176:2255   */\n      tag_266\n      tag_239\n      jump\t// in\n    tag_266:\n        /* \"#utility.yul\":2122:2265   */\n    tag_265:\n        /* \"#utility.yul\":2289:2290   */\n      0x00\n        /* \"#utility.yul\":2274:2512   */\n    tag_267:\n        /* \"#utility.yul\":2299:2305   */\n      dup6\n        /* \"#utility.yul\":2296:2297   */\n      dup2\n        /* \"#utility.yul\":2293:2306   */\n      lt\n        /* \"#utility.yul\":2274:2512   */\n      iszero\n      tag_269\n      jumpi\n        /* \"#utility.yul\":2367:2370   */\n      dup2\n        /* \"#utility.yul\":2396:2433   */\n      tag_270\n        /* \"#utility.yul\":2429:2432   */\n      dup9\n        /* \"#utility.yul\":2417:2427   */\n      dup3\n        /* \"#utility.yul\":2396:2433   */\n      tag_271\n      jump\t// in\n    tag_270:\n        /* \"#utility.yul\":2391:2394   */\n      dup5\n        /* \"#utility.yul\":2384:2434   */\n      mstore\n        /* \"#utility.yul\":2463:2467   */\n      0x20\n        /* \"#utility.yul\":2458:2461   */\n      dup5\n        /* \"#utility.yul\":2454:2468   */\n      add\n        /* \"#utility.yul\":2447:2468   */\n      swap4\n      pop\n        /* \"#utility.yul\":2497:2501   */\n      0x20\n        /* \"#utility.yul\":2492:2495   */\n      dup4\n        /* \"#utility.yul\":2488:2502   */\n      add\n        /* \"#utility.yul\":2481:2502   */\n      swap3\n      pop\n        /* \"#utility.yul\":2334:2512   */\n      pop\n        /* \"#utility.yul\":2321:2322   */\n      0x01\n        /* \"#utility.yul\":2318:2319   */\n      dup2\n        /* \"#utility.yul\":2314:2323   */\n      add\n        /* \"#utility.yul\":2309:2323   */\n      swap1\n      pop\n        /* \"#utility.yul\":2274:2512   */\n      jump(tag_267)\n    tag_269:\n        /* \"#utility.yul\":2278:2292   */\n      pop\n        /* \"#utility.yul\":1898:2518   */\n      pop\n      pop\n        /* \"#utility.yul\":1796:2518   */\n      swap4\n      swap3\n      pop\n      pop\n      pop\n      jump\t// out\n        /* \"#utility.yul\":2541:3263   */\n    tag_272:\n        /* \"#utility.yul\":2637:2642   */\n      0x00\n        /* \"#utility.yul\":2662:2743   */\n      tag_274\n        /* \"#utility.yul\":2678:2742   */\n      tag_275\n        /* \"#utility.yul\":2735:2741   */\n      dup5\n        /* \"#utility.yul\":2678:2742   */\n      tag_276\n      jump\t// in\n    tag_275:\n        /* \"#utility.yul\":2662:2743   */\n      tag_236\n      jump\t// in\n    tag_274:\n        /* \"#utility.yul\":2653:2743   */\n      swap1\n      pop\n        /* \"#utility.yul\":2763:2768   */\n      dup1\n        /* \"#utility.yul\":2792:2798   */\n      dup4\n        /* \"#utility.yul\":2785:2790   */\n      dup3\n        /* \"#utility.yul\":2778:2799   */\n      mstore\n        /* \"#utility.yul\":2826:2830   */\n      0x20\n        /* \"#utility.yul\":2819:2824   */\n      dup3\n        /* \"#utility.yul\":2815:2831   */\n      add\n        /* \"#utility.yul\":2808:2831   */\n      swap1\n      pop\n        /* \"#utility.yul\":2852:2858   */\n      dup3\n        /* \"#utility.yul\":2902:2905   */\n      dup6\n        /* \"#utility.yul\":2894:2898   */\n      0x20\n        /* \"#utility.yul\":2886:2892   */\n      dup7\n        /* \"#utility.yul\":2882:2899   */\n      mul\n        /* \"#utility.yul\":2877:2880   */\n      dup3\n        /* \"#utility.yul\":2873:2900   */\n      add\n        /* \"#utility.yul\":2870:2906   */\n      gt\n        /* \"#utility.yul\":2867:3010   */\n      iszero\n      tag_277\n      jumpi\n        /* \"#utility.yul\":2921:3000   */\n      tag_278\n      tag_239\n      jump\t// in\n    tag_278:\n        /* \"#utility.yul\":2867:3010   */\n    tag_277:\n        /* \"#utility.yul\":3034:3035   */\n      0x00\n        /* \"#utility.yul\":3019:3257   */\n    tag_279:\n        /* \"#utility.yul\":3044:3050   */\n      dup6\n        /* \"#utility.yul\":3041:3042   */\n      dup2\n        /* \"#utility.yul\":3038:3051   */\n      lt\n        /* \"#utility.yul\":3019:3257   */\n      iszero\n      tag_281\n      jumpi\n        /* \"#utility.yul\":3112:3115   */\n      dup2\n        /* \"#utility.yul\":3141:3178   */\n      tag_282\n        /* \"#utility.yul\":3174:3177   */\n      dup9\n        /* \"#utility.yul\":3162:3172   */\n      dup3\n        /* \"#utility.yul\":3141:3178   */\n      tag_283\n      jump\t// in\n    tag_282:\n        /* \"#utility.yul\":3136:3139   */\n      dup5\n        /* \"#utility.yul\":3129:3179   */\n      mstore\n        /* \"#utility.yul\":3208:3212   */\n      0x20\n        /* \"#utility.yul\":3203:3206   */\n      dup5\n        /* \"#utility.yul\":3199:3213   */\n      add\n        /* \"#utility.yul\":3192:3213   */\n      swap4\n      pop\n        /* \"#utility.yul\":3242:3246   */\n      0x20\n        /* \"#utility.yul\":3237:3240   */\n      dup4\n        /* \"#utility.yul\":3233:3247   */\n      add\n        /* \"#utility.yul\":3226:3247   */\n      swap3\n      pop\n        /* \"#utility.yul\":3079:3257   */\n      pop\n        /* \"#utility.yul\":3066:3067   */\n      0x01\n        /* \"#utility.yul\":3063:3064   */\n      dup2\n        /* \"#utility.yul\":3059:3068   */\n      add\n        /* \"#utility.yul\":3054:3068   */\n      swap1\n      pop\n        /* \"#utility.yul\":3019:3257   */\n      jump(tag_279)\n    tag_281:\n        /* \"#utility.yul\":3023:3037   */\n      pop\n        /* \"#utility.yul\":2643:3263   */\n      pop\n      pop\n        /* \"#utility.yul\":2541:3263   */\n      swap4\n      swap3\n      pop\n      pop\n      pop\n      jump\t// out\n        /* \"#utility.yul\":3269:3408   */\n    tag_244:\n        /* \"#utility.yul\":3315:3320   */\n      0x00\n        /* \"#utility.yul\":3353:3359   */\n      dup2\n        /* \"#utility.yul\":3340:3360   */\n      calldataload\n        /* \"#utility.yul\":3331:3360   */\n      swap1\n      pop\n        /* \"#utility.yul\":3369:3402   */\n      tag_285\n        /* \"#utility.yul\":3396:3401   */\n      dup2\n        /* \"#utility.yul\":3369:3402   */\n      tag_286\n      jump\t// in\n    tag_285:\n        /* \"#utility.yul\":3269:3408   */\n      swap3\n      swap2\n      pop\n      pop\n      jump\t// out\n        /* \"#utility.yul\":3431:3801   */\n    tag_287:\n        /* \"#utility.yul\":3502:3507   */\n      0x00\n        /* \"#utility.yul\":3551:3554   */\n      dup3\n        /* \"#utility.yul\":3544:3548   */\n      0x1f\n        /* \"#utility.yul\":3536:3542   */\n      dup4\n        /* \"#utility.yul\":3532:3549   */\n      add\n        /* \"#utility.yul\":3528:3555   */\n      slt\n        /* \"#utility.yul\":3518:3640   */\n      tag_289\n      jumpi\n        /* \"#utility.yul\":3559:3638   */\n      tag_290\n      tag_257\n      jump\t// in\n    tag_290:\n        /* \"#utility.yul\":3518:3640   */\n    tag_289:\n        /* \"#utility.yul\":3676:3682   */\n      dup2\n        /* \"#utility.yul\":3663:3683   */\n      calldataload\n        /* \"#utility.yul\":3701:3795   */\n      tag_291\n        /* \"#utility.yul\":3791:3794   */\n      dup5\n        /* \"#utility.yul\":3783:3789   */\n      dup3\n        /* \"#utility.yul\":3776:3780   */\n      0x20\n        /* \"#utility.yul\":3768:3774   */\n      dup7\n        /* \"#utility.yul\":3764:3781   */\n      add\n        /* \"#utility.yul\":3701:3795   */\n      tag_231\n      jump\t// in\n    tag_291:\n        /* \"#utility.yul\":3692:3795   */\n      swap2\n      pop\n        /* \"#utility.yul\":3508:3801   */\n      pop\n        /* \"#utility.yul\":3431:3801   */\n      swap3\n      swap2\n      pop\n      pop\n      jump\t// out\n        /* \"#utility.yul\":3826:4246   */\n    tag_292:\n        /* \"#utility.yul\":3922:3927   */\n      0x00\n        /* \"#utility.yul\":3971:3974   */\n      dup3\n        /* \"#utility.yul\":3964:3968   */\n      0x1f\n        /* \"#utility.yul\":3956:3962   */\n      dup4\n        /* \"#utility.yul\":3952:3969   */\n      add\n        /* \"#utility.yul\":3948:3975   */\n      slt\n        /* \"#utility.yul\":3938:4060   */\n      tag_294\n      jumpi\n        /* \"#utility.yul\":3979:4058   */\n      tag_295\n      tag_257\n      jump\t// in\n    tag_295:\n        /* \"#utility.yul\":3938:4060   */\n    tag_294:\n        /* \"#utility.yul\":4096:4102   */\n      dup2\n        /* \"#utility.yul\":4083:4103   */\n      calldataload\n        /* \"#utility.yul\":4121:4240   */\n      tag_296\n        /* \"#utility.yul\":4236:4239   */\n      dup5\n        /* \"#utility.yul\":4228:4234   */\n      dup3\n        /* \"#utility.yul\":4221:4225   */\n      0x20\n        /* \"#utility.yul\":4213:4219   */\n      dup7\n        /* \"#utility.yul\":4209:4226   */\n      add\n        /* \"#utility.yul\":4121:4240   */\n      tag_245\n      jump\t// in\n    tag_296:\n        /* \"#utility.yul\":4112:4240   */\n      swap2\n      pop\n        /* \"#utility.yul\":3928:4246   */\n      pop\n        /* \"#utility.yul\":3826:4246   */\n      swap3\n      swap2\n      pop\n      pop\n      jump\t// out\n        /* \"#utility.yul\":4269:4639   */\n    tag_259:\n        /* \"#utility.yul\":4340:4345   */\n      0x00\n        /* \"#utility.yul\":4389:4392   */\n      dup3\n        /* \"#utility.yul\":4382:4386   */\n      0x1f\n        /* \"#utility.yul\":4374:4380   */\n      dup4\n        /* \"#utility.yul\":4370:4387   */\n      add\n        /* \"#utility.yul\":4366:4393   */\n      slt\n        /* \"#utility.yul\":4356:4478   */\n      tag_298\n      jumpi\n        /* \"#utility.yul\":4397:4476   */\n      tag_299\n      tag_257\n      jump\t// in\n    tag_299:\n        /* \"#utility.yul\":4356:4478   */\n    tag_298:\n        /* \"#utility.yul\":4514:4520   */\n      dup2\n        /* \"#utility.yul\":4501:4521   */\n      calldataload\n        /* \"#utility.yul\":4539:4633   */\n      tag_300\n        /* \"#utility.yul\":4629:4632   */\n      dup5\n        /* \"#utility.yul\":4621:4627   */\n      dup3\n        /* \"#utility.yul\":4614:4618   */\n      0x20\n        /* \"#utility.yul\":4606:4612   */\n      dup7\n        /* \"#utility.yul\":4602:4619   */\n      add\n        /* \"#utility.yul\":4539:4633   */\n      tag_260\n      jump\t// in\n    tag_300:\n        /* \"#utility.yul\":4530:4633   */\n      swap2\n      pop\n        /* \"#utility.yul\":4346:4639   */\n      pop\n        /* \"#utility.yul\":4269:4639   */\n      swap3\n      swap2\n      pop\n      pop\n      jump\t// out\n        /* \"#utility.yul\":4662:5032   */\n    tag_301:\n        /* \"#utility.yul\":4733:4738   */\n      0x00\n        /* \"#utility.yul\":4782:4785   */\n      dup3\n        /* \"#utility.yul\":4775:4779   */\n      0x1f\n        /* \"#utility.yul\":4767:4773   */\n      dup4\n        /* \"#utility.yul\":4763:4780   */\n      add\n        /* \"#utility.yul\":4759:4786   */\n      slt\n        /* \"#utility.yul\":4749:4871   */\n      tag_303\n      jumpi\n        /* \"#utility.yul\":4790:4869   */\n      tag_304\n      tag_257\n      jump\t// in\n    tag_304:\n        /* \"#utility.yul\":4749:4871   */\n    tag_303:\n        /* \"#utility.yul\":4907:4913   */\n      dup2\n        /* \"#utility.yul\":4894:4914   */\n      calldataload\n        /* \"#utility.yul\":4932:5026   */\n      tag_305\n        /* \"#utility.yul\":5022:5025   */\n      dup5\n        /* \"#utility.yul\":5014:5020   */\n      dup3\n        /* \"#utility.yul\":5007:5011   */\n      0x20\n        /* \"#utility.yul\":4999:5005   */\n      dup7\n        /* \"#utility.yul\":4995:5012   */\n      add\n        /* \"#utility.yul\":4932:5026   */\n      tag_272\n      jump\t// in\n    tag_305:\n        /* \"#utility.yul\":4923:5026   */\n      swap2\n      pop\n        /* \"#utility.yul\":4739:5032   */\n      pop\n        /* \"#utility.yul\":4662:5032   */\n      swap3\n      swap2\n      pop\n      pop\n      jump\t// out\n        /* \"#utility.yul\":5038:5175   */\n    tag_306:\n        /* \"#utility.yul\":5092:5097   */\n      0x00\n        /* \"#utility.yul\":5123:5129   */\n      dup2\n        /* \"#utility.yul\":5117:5130   */\n      mload\n        /* \"#utility.yul\":5108:5130   */\n      swap1\n      pop\n        /* \"#utility.yul\":5139:5169   */\n      tag_308\n        /* \"#utility.yul\":5163:5168   */\n      dup2\n        /* \"#utility.yul\":5139:5169   */\n      tag_309\n      jump\t// in\n    tag_308:\n        /* \"#utility.yul\":5038:5175   */\n      swap3\n      swap2\n      pop\n      pop\n      jump\t// out\n        /* \"#utility.yul\":5181:5320   */\n    tag_271:\n        /* \"#utility.yul\":5227:5232   */\n      0x00\n        /* \"#utility.yul\":5265:5271   */\n      dup2\n        /* \"#utility.yul\":5252:5272   */\n      calldataload\n        /* \"#utility.yul\":5243:5272   */\n      swap1\n      pop\n        /* \"#utility.yul\":5281:5314   */\n      tag_311\n        /* \"#utility.yul\":5308:5313   */\n      dup2\n        /* \"#utility.yul\":5281:5314   */\n      tag_312\n      jump\t// in\n    tag_311:\n        /* \"#utility.yul\":5181:5320   */\n      swap3\n      swap2\n      pop\n      pop\n      jump\t// out\n        /* \"#utility.yul\":5326:5465   */\n    tag_283:\n        /* \"#utility.yul\":5372:5377   */\n      0x00\n        /* \"#utility.yul\":5410:5416   */\n      dup2\n        /* \"#utility.yul\":5397:5417   */\n      calldataload\n        /* \"#utility.yul\":5388:5417   */\n      swap1\n      pop\n        /* \"#utility.yul\":5426:5459   */\n      tag_314\n        /* \"#utility.yul\":5453:5458   */\n      dup2\n        /* \"#utility.yul\":5426:5459   */\n      tag_315\n      jump\t// in\n    tag_314:\n        /* \"#utility.yul\":5326:5465   */\n      swap3\n      swap2\n      pop\n      pop\n      jump\t// out\n        /* \"#utility.yul\":5471:5800   */\n    tag_58:\n        /* \"#utility.yul\":5530:5536   */\n      0x00\n        /* \"#utility.yul\":5579:5581   */\n      0x20\n        /* \"#utility.yul\":5567:5576   */\n      dup3\n        /* \"#utility.yul\":5558:5565   */\n      dup5\n        /* \"#utility.yul\":5554:5577   */\n      sub\n        /* \"#utility.yul\":5550:5582   */\n      slt\n        /* \"#utility.yul\":5547:5666   */\n      iszero\n      tag_317\n      jumpi\n        /* \"#utility.yul\":5585:5664   */\n      tag_318\n      tag_319\n      jump\t// in\n    tag_318:\n        /* \"#utility.yul\":5547:5666   */\n    tag_317:\n        /* \"#utility.yul\":5705:5706   */\n      0x00\n        /* \"#utility.yul\":5730:5783   */\n      tag_320\n        /* \"#utility.yul\":5775:5782   */\n      dup5\n        /* \"#utility.yul\":5766:5772   */\n      dup3\n        /* \"#utility.yul\":5755:5764   */\n      dup6\n        /* \"#utility.yul\":5751:5773   */\n      add\n        /* \"#utility.yul\":5730:5783   */\n      tag_244\n      jump\t// in\n    tag_320:\n        /* \"#utility.yul\":5720:5783   */\n      swap2\n      pop\n        /* \"#utility.yul\":5676:5793   */\n      pop\n        /* \"#utility.yul\":5471:5800   */\n      swap3\n      swap2\n      pop\n      pop\n      jump\t// out\n        /* \"#utility.yul\":5806:7251   */\n    tag_42:\n        /* \"#utility.yul\":5992:5998   */\n      0x00\n        /* \"#utility.yul\":6000:6006   */\n      dup1\n        /* \"#utility.yul\":6008:6014   */\n      0x00\n        /* \"#utility.yul\":6016:6022   */\n      dup1\n        /* \"#utility.yul\":6065:6068   */\n      0x80\n        /* \"#utility.yul\":6053:6062   */\n      dup6\n        /* \"#utility.yul\":6044:6051   */\n      dup8\n        /* \"#utility.yul\":6040:6063   */\n      sub\n        /* \"#utility.yul\":6036:6069   */\n      slt\n        /* \"#utility.yul\":6033:6153   */\n      iszero\n      tag_322\n      jumpi\n        /* \"#utility.yul\":6072:6151   */\n      tag_323\n      tag_319\n      jump\t// in\n    tag_323:\n        /* \"#utility.yul\":6033:6153   */\n    tag_322:\n        /* \"#utility.yul\":6192:6193   */\n      0x00\n        /* \"#utility.yul\":6217:6270   */\n      tag_324\n        /* \"#utility.yul\":6262:6269   */\n      dup8\n        /* \"#utility.yul\":6253:6259   */\n      dup3\n        /* \"#utility.yul\":6242:6251   */\n      dup9\n        /* \"#utility.yul\":6238:6260   */\n      add\n        /* \"#utility.yul\":6217:6270   */\n      tag_244\n      jump\t// in\n    tag_324:\n        /* \"#utility.yul\":6207:6270   */\n      swap5\n      pop\n        /* \"#utility.yul\":6163:6280   */\n      pop\n        /* \"#utility.yul\":6347:6349   */\n      0x20\n        /* \"#utility.yul\":6336:6345   */\n      dup6\n        /* \"#utility.yul\":6332:6350   */\n      add\n        /* \"#utility.yul\":6319:6351   */\n      calldataload\n        /* \"#utility.yul\":6378:6396   */\n      0xffffffffffffffff\n        /* \"#utility.yul\":6370:6376   */\n      dup2\n        /* \"#utility.yul\":6367:6397   */\n      gt\n        /* \"#utility.yul\":6364:6481   */\n      iszero\n      tag_325\n      jumpi\n        /* \"#utility.yul\":6400:6479   */\n      tag_326\n      tag_327\n      jump\t// in\n    tag_326:\n        /* \"#utility.yul\":6364:6481   */\n    tag_325:\n        /* \"#utility.yul\":6505:6583   */\n      tag_328\n        /* \"#utility.yul\":6575:6582   */\n      dup8\n        /* \"#utility.yul\":6566:6572   */\n      dup3\n        /* \"#utility.yul\":6555:6564   */\n      dup9\n        /* \"#utility.yul\":6551:6573   */\n      add\n        /* \"#utility.yul\":6505:6583   */\n      tag_301\n      jump\t// in\n    tag_328:\n        /* \"#utility.yul\":6495:6583   */\n      swap4\n      pop\n        /* \"#utility.yul\":6290:6593   */\n      pop\n        /* \"#utility.yul\":6660:6662   */\n      0x40\n        /* \"#utility.yul\":6649:6658   */\n      dup6\n        /* \"#utility.yul\":6645:6663   */\n      add\n        /* \"#utility.yul\":6632:6664   */\n      calldataload\n        /* \"#utility.yul\":6691:6709   */\n      0xffffffffffffffff\n        /* \"#utility.yul\":6683:6689   */\n      dup2\n        /* \"#utility.yul\":6680:6710   */\n      gt\n        /* \"#utility.yul\":6677:6794   */\n      iszero\n      tag_329\n      jumpi\n        /* \"#utility.yul\":6713:6792   */\n      tag_330\n      tag_327\n      jump\t// in\n    tag_330:\n        /* \"#utility.yul\":6677:6794   */\n    tag_329:\n        /* \"#utility.yul\":6818:6896   */\n      tag_331\n        /* \"#utility.yul\":6888:6895   */\n      dup8\n        /* \"#utility.yul\":6879:6885   */\n      dup3\n        /* \"#utility.yul\":6868:6877   */\n      dup9\n        /* \"#utility.yul\":6864:6886   */\n      add\n        /* \"#utility.yul\":6818:6896   */\n      tag_301\n      jump\t// in\n    tag_331:\n        /* \"#utility.yul\":6808:6896   */\n      swap3\n      pop\n        /* \"#utility.yul\":6603:6906   */\n      pop\n        /* \"#utility.yul\":6973:6975   */\n      0x60\n        /* \"#utility.yul\":6962:6971   */\n      dup6\n        /* \"#utility.yul\":6958:6976   */\n      add\n        /* \"#utility.yul\":6945:6977   */\n      calldataload\n        /* \"#utility.yul\":7004:7022   */\n      0xffffffffffffffff\n        /* \"#utility.yul\":6996:7002   */\n      dup2\n        /* \"#utility.yul\":6993:7023   */\n      gt\n        /* \"#utility.yul\":6990:7107   */\n      iszero\n      tag_332\n      jumpi\n        /* \"#utility.yul\":7026:7105   */\n      tag_333\n      tag_327\n      jump\t// in\n    tag_333:\n        /* \"#utility.yul\":6990:7107   */\n    tag_332:\n        /* \"#utility.yul\":7131:7234   */\n      tag_334\n        /* \"#utility.yul\":7226:7233   */\n      dup8\n        /* \"#utility.yul\":7217:7223   */\n      dup3\n        /* \"#utility.yul\":7206:7215   */\n      dup9\n        /* \"#utility.yul\":7202:7224   */\n      add\n        /* \"#utility.yul\":7131:7234   */\n      tag_292\n      jump\t// in\n    tag_334:\n        /* \"#utility.yul\":7121:7234   */\n      swap2\n      pop\n        /* \"#utility.yul\":6916:7244   */\n      pop\n        /* \"#utility.yul\":5806:7251   */\n      swap3\n      swap6\n      swap2\n      swap5\n      pop\n      swap3\n      pop\n      jump\t// out\n        /* \"#utility.yul\":7257:7731   */\n    tag_26:\n        /* \"#utility.yul\":7325:7331   */\n      0x00\n        /* \"#utility.yul\":7333:7339   */\n      dup1\n        /* \"#utility.yul\":7382:7384   */\n      0x40\n        /* \"#utility.yul\":7370:7379   */\n      dup4\n        /* \"#utility.yul\":7361:7368   */\n      dup6\n        /* \"#utility.yul\":7357:7380   */\n      sub\n        /* \"#utility.yul\":7353:7385   */\n      slt\n        /* \"#utility.yul\":7350:7469   */\n      iszero\n      tag_336\n      jumpi\n        /* \"#utility.yul\":7388:7467   */\n      tag_337\n      tag_319\n      jump\t// in\n    tag_337:\n        /* \"#utility.yul\":7350:7469   */\n    tag_336:\n        /* \"#utility.yul\":7508:7509   */\n      0x00\n        /* \"#utility.yul\":7533:7586   */\n      tag_338\n        /* \"#utility.yul\":7578:7585   */\n      dup6\n        /* \"#utility.yul\":7569:7575   */\n      dup3\n        /* \"#utility.yul\":7558:7567   */\n      dup7\n        /* \"#utility.yul\":7554:7576   */\n      add\n        /* \"#utility.yul\":7533:7586   */\n      tag_244\n      jump\t// in\n    tag_338:\n        /* \"#utility.yul\":7523:7586   */\n      swap3\n      pop\n        /* \"#utility.yul\":7479:7596   */\n      pop\n        /* \"#utility.yul\":7635:7637   */\n      0x20\n        /* \"#utility.yul\":7661:7714   */\n      tag_339\n        /* \"#utility.yul\":7706:7713   */\n      dup6\n        /* \"#utility.yul\":7697:7703   */\n      dup3\n        /* \"#utility.yul\":7686:7695   */\n      dup7\n        /* \"#utility.yul\":7682:7704   */\n      add\n        /* \"#utility.yul\":7661:7714   */\n      tag_283\n      jump\t// in\n    tag_339:\n        /* \"#utility.yul\":7651:7714   */\n      swap2\n      pop\n        /* \"#utility.yul\":7606:7724   */\n      pop\n        /* \"#utility.yul\":7257:7731   */\n      swap3\n      pop\n      swap3\n      swap1\n      pop\n      jump\t// out\n        /* \"#utility.yul\":7737:8712   */\n    tag_53:\n        /* \"#utility.yul\":7848:7854   */\n      0x00\n        /* \"#utility.yul\":7856:7862   */\n      dup1\n        /* \"#utility.yul\":7864:7870   */\n      0x00\n        /* \"#utility.yul\":7872:7878   */\n      dup1\n        /* \"#utility.yul\":7921:7924   */\n      0x80\n        /* \"#utility.yul\":7909:7918   */\n      dup6\n        /* \"#utility.yul\":7900:7907   */\n      dup8\n        /* \"#utility.yul\":7896:7919   */\n      sub\n        /* \"#utility.yul\":7892:7925   */\n      slt\n        /* \"#utility.yul\":7889:8009   */\n      iszero\n      tag_341\n      jumpi\n        /* \"#utility.yul\":7928:8007   */\n      tag_342\n      tag_319\n      jump\t// in\n    tag_342:\n        /* \"#utility.yul\":7889:8009   */\n    tag_341:\n        /* \"#utility.yul\":8048:8049   */\n      0x00\n        /* \"#utility.yul\":8073:8126   */\n      tag_343\n        /* \"#utility.yul\":8118:8125   */\n      dup8\n        /* \"#utility.yul\":8109:8115   */\n      dup3\n        /* \"#utility.yul\":8098:8107   */\n      dup9\n        /* \"#utility.yul\":8094:8116   */\n      add\n        /* \"#utility.yul\":8073:8126   */\n      tag_244\n      jump\t// in\n    tag_343:\n        /* \"#utility.yul\":8063:8126   */\n      swap5\n      pop\n        /* \"#utility.yul\":8019:8136   */\n      pop\n        /* \"#utility.yul\":8175:8177   */\n      0x20\n        /* \"#utility.yul\":8201:8254   */\n      tag_344\n        /* \"#utility.yul\":8246:8253   */\n      dup8\n        /* \"#utility.yul\":8237:8243   */\n      dup3\n        /* \"#utility.yul\":8226:8235   */\n      dup9\n        /* \"#utility.yul\":8222:8244   */\n      add\n        /* \"#utility.yul\":8201:8254   */\n      tag_283\n      jump\t// in\n    tag_344:\n        /* \"#utility.yul\":8191:8254   */\n      swap4\n      pop\n        /* \"#utility.yul\":8146:8264   */\n      pop\n        /* \"#utility.yul\":8303:8305   */\n      0x40\n        /* \"#utility.yul\":8329:8382   */\n      tag_345\n        /* \"#utility.yul\":8374:8381   */\n      dup8\n        /* \"#utility.yul\":8365:8371   */\n      dup3\n        /* \"#utility.yul\":8354:8363   */\n      dup9\n        /* \"#utility.yul\":8350:8372   */\n      add\n        /* \"#utility.yul\":8329:8382   */\n      tag_283\n      jump\t// in\n    tag_345:\n        /* \"#utility.yul\":8319:8382   */\n      swap3\n      pop\n        /* \"#utility.yul\":8274:8392   */\n      pop\n        /* \"#utility.yul\":8459:8461   */\n      0x60\n        /* \"#utility.yul\":8448:8457   */\n      dup6\n        /* \"#utility.yul\":8444:8462   */\n      add\n        /* \"#utility.yul\":8431:8463   */\n      calldataload\n        /* \"#utility.yul\":8490:8508   */\n      0xffffffffffffffff\n        /* \"#utility.yul\":8482:8488   */\n      dup2\n        /* \"#utility.yul\":8479:8509   */\n      gt\n        /* \"#utility.yul\":8476:8593   */\n      iszero\n      tag_346\n      jumpi\n        /* \"#utility.yul\":8512:8591   */\n      tag_347\n      tag_327\n      jump\t// in\n    tag_347:\n        /* \"#utility.yul\":8476:8593   */\n    tag_346:\n        /* \"#utility.yul\":8617:8695   */\n      tag_348\n        /* \"#utility.yul\":8687:8694   */\n      dup8\n        /* \"#utility.yul\":8678:8684   */\n      dup3\n        /* \"#utility.yul\":8667:8676   */\n      dup9\n        /* \"#utility.yul\":8663:8685   */\n      add\n        /* \"#utility.yul\":8617:8695   */\n      tag_259\n      jump\t// in\n    tag_348:\n        /* \"#utility.yul\":8607:8695   */\n      swap2\n      pop\n        /* \"#utility.yul\":8402:8705   */\n      pop\n        /* \"#utility.yul\":7737:8712   */\n      swap3\n      swap6\n      swap2\n      swap5\n      pop\n      swap3\n      pop\n      jump\t// out\n        /* \"#utility.yul\":8718:9757   */\n    tag_46:\n        /* \"#utility.yul\":8845:8851   */\n      0x00\n        /* \"#utility.yul\":8853:8859   */\n      dup1\n        /* \"#utility.yul\":8861:8867   */\n      0x00\n        /* \"#utility.yul\":8910:8912   */\n      0x60\n        /* \"#utility.yul\":8898:8907   */\n      dup5\n        /* \"#utility.yul\":8889:8896   */\n      dup7\n        /* \"#utility.yul\":8885:8908   */\n      sub\n        /* \"#utility.yul\":8881:8913   */\n      slt\n        /* \"#utility.yul\":8878:8997   */\n      iszero\n      tag_350\n      jumpi\n        /* \"#utility.yul\":8916:8995   */\n      tag_351\n      tag_319\n      jump\t// in\n    tag_351:\n        /* \"#utility.yul\":8878:8997   */\n    tag_350:\n        /* \"#utility.yul\":9064:9065   */\n      0x00\n        /* \"#utility.yul\":9053:9062   */\n      dup5\n        /* \"#utility.yul\":9049:9066   */\n      add\n        /* \"#utility.yul\":9036:9067   */\n      calldataload\n        /* \"#utility.yul\":9094:9112   */\n      0xffffffffffffffff\n        /* \"#utility.yul\":9086:9092   */\n      dup2\n        /* \"#utility.yul\":9083:9113   */\n      gt\n        /* \"#utility.yul\":9080:9197   */\n      iszero\n      tag_352\n      jumpi\n        /* \"#utility.yul\":9116:9195   */\n      tag_353\n      tag_327\n      jump\t// in\n    tag_353:\n        /* \"#utility.yul\":9080:9197   */\n    tag_352:\n        /* \"#utility.yul\":9221:9299   */\n      tag_354\n        /* \"#utility.yul\":9291:9298   */\n      dup7\n        /* \"#utility.yul\":9282:9288   */\n      dup3\n        /* \"#utility.yul\":9271:9280   */\n      dup8\n        /* \"#utility.yul\":9267:9289   */\n      add\n        /* \"#utility.yul\":9221:9299   */\n      tag_287\n      jump\t// in\n    tag_354:\n        /* \"#utility.yul\":9211:9299   */\n      swap4\n      pop\n        /* \"#utility.yul\":9007:9309   */\n      pop\n        /* \"#utility.yul\":9376:9378   */\n      0x20\n        /* \"#utility.yul\":9365:9374   */\n      dup5\n        /* \"#utility.yul\":9361:9379   */\n      add\n        /* \"#utility.yul\":9348:9380   */\n      calldataload\n        /* \"#utility.yul\":9407:9425   */\n      0xffffffffffffffff\n        /* \"#utility.yul\":9399:9405   */\n      dup2\n        /* \"#utility.yul\":9396:9426   */\n      gt\n        /* \"#utility.yul\":9393:9510   */\n      iszero\n      tag_355\n      jumpi\n        /* \"#utility.yul\":9429:9508   */\n      tag_356\n      tag_327\n      jump\t// in\n    tag_356:\n        /* \"#utility.yul\":9393:9510   */\n    tag_355:\n        /* \"#utility.yul\":9534:9612   */\n      tag_357\n        /* \"#utility.yul\":9604:9611   */\n      dup7\n        /* \"#utility.yul\":9595:9601   */\n      dup3\n        /* \"#utility.yul\":9584:9593   */\n      dup8\n        /* \"#utility.yul\":9580:9602   */\n      add\n        /* \"#utility.yul\":9534:9612   */\n      tag_301\n      jump\t// in\n    tag_357:\n        /* \"#utility.yul\":9524:9612   */\n      swap3\n      pop\n        /* \"#utility.yul\":9319:9622   */\n      pop\n        /* \"#utility.yul\":9661:9663   */\n      0x40\n        /* \"#utility.yul\":9687:9740   */\n      tag_358\n        /* \"#utility.yul\":9732:9739   */\n      dup7\n        /* \"#utility.yul\":9723:9729   */\n      dup3\n        /* \"#utility.yul\":9712:9721   */\n      dup8\n        /* \"#utility.yul\":9708:9730   */\n      add\n        /* \"#utility.yul\":9687:9740   */\n      tag_283\n      jump\t// in\n    tag_358:\n        /* \"#utility.yul\":9677:9740   */\n      swap2\n      pop\n        /* \"#utility.yul\":9632:9750   */\n      pop\n        /* \"#utility.yul\":8718:9757   */\n      swap3\n      pop\n      swap3\n      pop\n      swap3\n      jump\t// out\n        /* \"#utility.yul\":9763:10108   */\n    tag_183:\n        /* \"#utility.yul\":9830:9836   */\n      0x00\n        /* \"#utility.yul\":9879:9881   */\n      0x20\n        /* \"#utility.yul\":9867:9876   */\n      dup3\n        /* \"#utility.yul\":9858:9865   */\n      dup5\n        /* \"#utility.yul\":9854:9877   */\n      sub\n        /* \"#utility.yul\":9850:9882   */\n      slt\n        /* \"#utility.yul\":9847:9966   */\n      iszero\n      tag_360\n      jumpi\n        /* \"#utility.yul\":9885:9964   */\n      tag_361\n      tag_319\n      jump\t// in\n    tag_361:\n        /* \"#utility.yul\":9847:9966   */\n    tag_360:\n        /* \"#utility.yul\":10005:10006   */\n      0x00\n        /* \"#utility.yul\":10030:10091   */\n      tag_362\n        /* \"#utility.yul\":10083:10090   */\n      dup5\n        /* \"#utility.yul\":10074:10080   */\n      dup3\n        /* \"#utility.yul\":10063:10072   */\n      dup6\n        /* \"#utility.yul\":10059:10081   */\n      add\n        /* \"#utility.yul\":10030:10091   */\n      tag_306\n      jump\t// in\n    tag_362:\n        /* \"#utility.yul\":10020:10091   */\n      swap2\n      pop\n        /* \"#utility.yul\":9976:10101   */\n      pop\n        /* \"#utility.yul\":9763:10108   */\n      swap3\n      swap2\n      pop\n      pop\n      jump\t// out\n        /* \"#utility.yul\":10114:10443   */\n    tag_32:\n        /* \"#utility.yul\":10173:10179   */\n      0x00\n        /* \"#utility.yul\":10222:10224   */\n      0x20\n        /* \"#utility.yul\":10210:10219   */\n      dup3\n        /* \"#utility.yul\":10201:10208   */\n      dup5\n        /* \"#utility.yul\":10197:10220   */\n      sub\n        /* \"#utility.yul\":10193:10225   */\n      slt\n        /* \"#utility.yul\":10190:10309   */\n      iszero\n      tag_364\n      jumpi\n        /* \"#utility.yul\":10228:10307   */\n      tag_365\n      tag_319\n      jump\t// in\n    tag_365:\n        /* \"#utility.yul\":10190:10309   */\n    tag_364:\n        /* \"#utility.yul\":10348:10349   */\n      0x00\n        /* \"#utility.yul\":10373:10426   */\n      tag_366\n        /* \"#utility.yul\":10418:10425   */\n      dup5\n        /* \"#utility.yul\":10409:10415   */\n      dup3\n        /* \"#utility.yul\":10398:10407   */\n      dup6\n        /* \"#utility.yul\":10394:10416   */\n      add\n        /* \"#utility.yul\":10373:10426   */\n      tag_283\n      jump\t// in\n    tag_366:\n        /* \"#utility.yul\":10363:10426   */\n      swap2\n      pop\n        /* \"#utility.yul\":10319:10436   */\n      pop\n        /* \"#utility.yul\":10114:10443   */\n      swap3\n      swap2\n      pop\n      pop\n      jump\t// out\n        /* \"#utility.yul\":10449:10923   */\n    tag_20:\n        /* \"#utility.yul\":10517:10523   */\n      0x00\n        /* \"#utility.yul\":10525:10531   */\n      dup1\n        /* \"#utility.yul\":10574:10576   */\n      0x40\n        /* \"#utility.yul\":10562:10571   */\n      dup4\n        /* \"#utility.yul\":10553:10560   */\n      dup6\n        /* \"#utility.yul\":10549:10572   */\n      sub\n        /* \"#utility.yul\":10545:10577   */\n      slt\n        /* \"#utility.yul\":10542:10661   */\n      iszero\n      tag_368\n      jumpi\n        /* \"#utility.yul\":10580:10659   */\n      tag_369\n      tag_319\n      jump\t// in\n    tag_369:\n        /* \"#utility.yul\":10542:10661   */\n    tag_368:\n        /* \"#utility.yul\":10700:10701   */\n      0x00\n        /* \"#utility.yul\":10725:10778   */\n      tag_370\n        /* \"#utility.yul\":10770:10777   */\n      dup6\n        /* \"#utility.yul\":10761:10767   */\n      dup3\n        /* \"#utility.yul\":10750:10759   */\n      dup7\n        /* \"#utility.yul\":10746:10768   */\n      add\n        /* \"#utility.yul\":10725:10778   */\n      tag_283\n      jump\t// in\n    tag_370:\n        /* \"#utility.yul\":10715:10778   */\n      swap3\n      pop\n        /* \"#utility.yul\":10671:10788   */\n      pop\n        /* \"#utility.yul\":10827:10829   */\n      0x20\n        /* \"#utility.yul\":10853:10906   */\n      tag_371\n        /* \"#utility.yul\":10898:10905   */\n      dup6\n        /* \"#utility.yul\":10889:10895   */\n      dup3\n        /* \"#utility.yul\":10878:10887   */\n      dup7\n        /* \"#utility.yul\":10874:10896   */\n      add\n        /* \"#utility.yul\":10853:10906   */\n      tag_244\n      jump\t// in\n    tag_371:\n        /* \"#utility.yul\":10843:10906   */\n      swap2\n      pop\n        /* \"#utility.yul\":10798:10916   */\n      pop\n        /* \"#utility.yul\":10449:10923   */\n      swap3\n      pop\n      swap3\n      swap1\n      pop\n      jump\t// out\n        /* \"#utility.yul\":10929:11047   */\n    tag_372:\n        /* \"#utility.yul\":11016:11040   */\n      tag_374\n        /* \"#utility.yul\":11034:11039   */\n      dup2\n        /* \"#utility.yul\":11016:11040   */\n      tag_375\n      jump\t// in\n    tag_374:\n        /* \"#utility.yul\":11011:11014   */\n      dup3\n        /* \"#utility.yul\":11004:11041   */\n      mstore\n        /* \"#utility.yul\":10929:11047   */\n      pop\n      pop\n      jump\t// out\n        /* \"#utility.yul\":11053:11210   */\n    tag_376:\n        /* \"#utility.yul\":11158:11203   */\n      tag_378\n        /* \"#utility.yul\":11178:11202   */\n      tag_379\n        /* \"#utility.yul\":11196:11201   */\n      dup3\n        /* \"#utility.yul\":11178:11202   */\n      tag_375\n      jump\t// in\n    tag_379:\n        /* \"#utility.yul\":11158:11203   */\n      tag_380\n      jump\t// in\n    tag_378:\n        /* \"#utility.yul\":11153:11156   */\n      dup3\n        /* \"#utility.yul\":11146:11204   */\n      mstore\n        /* \"#utility.yul\":11053:11210   */\n      pop\n      pop\n      jump\t// out\n        /* \"#utility.yul\":11216:11325   */\n    tag_381:\n        /* \"#utility.yul\":11297:11318   */\n      tag_383\n        /* \"#utility.yul\":11312:11317   */\n      dup2\n        /* \"#utility.yul\":11297:11318   */\n      tag_384\n      jump\t// in\n    tag_383:\n        /* \"#utility.yul\":11292:11295   */\n      dup3\n        /* \"#utility.yul\":11285:11319   */\n      mstore\n        /* \"#utility.yul\":11216:11325   */\n      pop\n      pop\n      jump\t// out\n        /* \"#utility.yul\":11331:11449   */\n    tag_385:\n        /* \"#utility.yul\":11418:11442   */\n      tag_387\n        /* \"#utility.yul\":11436:11441   */\n      dup2\n        /* \"#utility.yul\":11418:11442   */\n      tag_388\n      jump\t// in\n    tag_387:\n        /* \"#utility.yul\":11413:11416   */\n      dup3\n        /* \"#utility.yul\":11406:11443   */\n      mstore\n        /* \"#utility.yul\":11331:11449   */\n      pop\n      pop\n      jump\t// out\n        /* \"#utility.yul\":11455:11828   */\n    tag_389:\n        /* \"#utility.yul\":11559:11562   */\n      0x00\n        /* \"#utility.yul\":11587:11625   */\n      tag_391\n        /* \"#utility.yul\":11619:11624   */\n      dup3\n        /* \"#utility.yul\":11587:11625   */\n      tag_392\n      jump\t// in\n    tag_391:\n        /* \"#utility.yul\":11641:11729   */\n      tag_393\n        /* \"#utility.yul\":11722:11728   */\n      dup2\n        /* \"#utility.yul\":11717:11720   */\n      dup6\n        /* \"#utility.yul\":11641:11729   */\n      tag_394\n      jump\t// in\n    tag_393:\n        /* \"#utility.yul\":11634:11729   */\n      swap4\n      pop\n        /* \"#utility.yul\":11738:11790   */\n      tag_395\n        /* \"#utility.yul\":11783:11789   */\n      dup2\n        /* \"#utility.yul\":11778:11781   */\n      dup6\n        /* \"#utility.yul\":11771:11775   */\n      0x20\n        /* \"#utility.yul\":11764:11769   */\n      dup7\n        /* \"#utility.yul\":11760:11776   */\n      add\n        /* \"#utility.yul\":11738:11790   */\n      tag_396\n      jump\t// in\n    tag_395:\n        /* \"#utility.yul\":11815:11821   */\n      dup1\n        /* \"#utility.yul\":11810:11813   */\n      dup5\n        /* \"#utility.yul\":11806:11822   */\n      add\n        /* \"#utility.yul\":11799:11822   */\n      swap2\n      pop\n        /* \"#utility.yul\":11563:11828   */\n      pop\n        /* \"#utility.yul\":11455:11828   */\n      swap3\n      swap2\n      pop\n      pop\n      jump\t// out\n        /* \"#utility.yul\":11834:11993   */\n    tag_397:\n        /* \"#utility.yul\":11935:11986   */\n      tag_399\n        /* \"#utility.yul\":11980:11985   */\n      dup2\n        /* \"#utility.yul\":11935:11986   */\n      tag_400\n      jump\t// in\n    tag_399:\n        /* \"#utility.yul\":11930:11933   */\n      dup3\n        /* \"#utility.yul\":11923:11987   */\n      mstore\n        /* \"#utility.yul\":11834:11993   */\n      pop\n      pop\n      jump\t// out\n        /* \"#utility.yul\":11999:12363   */\n    tag_401:\n        /* \"#utility.yul\":12087:12090   */\n      0x00\n        /* \"#utility.yul\":12115:12154   */\n      tag_403\n        /* \"#utility.yul\":12148:12153   */\n      dup3\n        /* \"#utility.yul\":12115:12154   */\n      tag_404\n      jump\t// in\n    tag_403:\n        /* \"#utility.yul\":12170:12241   */\n      tag_405\n        /* \"#utility.yul\":12234:12240   */\n      dup2\n        /* \"#utility.yul\":12229:12232   */\n      dup6\n        /* \"#utility.yul\":12170:12241   */\n      tag_406\n      jump\t// in\n    tag_405:\n        /* \"#utility.yul\":12163:12241   */\n      swap4\n      pop\n        /* \"#utility.yul\":12250:12302   */\n      tag_407\n        /* \"#utility.yul\":12295:12301   */\n      dup2\n        /* \"#utility.yul\":12290:12293   */\n      dup6\n        /* \"#utility.yul\":12283:12287   */\n      0x20\n        /* \"#utility.yul\":12276:12281   */\n      dup7\n        /* \"#utility.yul\":12272:12288   */\n      add\n        /* \"#utility.yul\":12250:12302   */\n      tag_396\n      jump\t// in\n    tag_407:\n        /* \"#utility.yul\":12327:12356   */\n      tag_408\n        /* \"#utility.yul\":12349:12355   */\n      dup2\n        /* \"#utility.yul\":12327:12356   */\n      tag_409\n      jump\t// in\n    tag_408:\n        /* \"#utility.yul\":12322:12325   */\n      dup5\n        /* \"#utility.yul\":12318:12357   */\n      add\n        /* \"#utility.yul\":12311:12357   */\n      swap2\n      pop\n        /* \"#utility.yul\":12091:12363   */\n      pop\n        /* \"#utility.yul\":11999:12363   */\n      swap3\n      swap2\n      pop\n      pop\n      jump\t// out\n        /* \"#utility.yul\":12369:12735   */\n    tag_410:\n        /* \"#utility.yul\":12511:12514   */\n      0x00\n        /* \"#utility.yul\":12532:12599   */\n      tag_412\n        /* \"#utility.yul\":12596:12598   */\n      0x26\n        /* \"#utility.yul\":12591:12594   */\n      dup4\n        /* \"#utility.yul\":12532:12599   */\n      tag_406\n      jump\t// in\n    tag_412:\n        /* \"#utility.yul\":12525:12599   */\n      swap2\n      pop\n        /* \"#utility.yul\":12608:12701   */\n      tag_413\n        /* \"#utility.yul\":12697:12700   */\n      dup3\n        /* \"#utility.yul\":12608:12701   */\n      tag_414\n      jump\t// in\n    tag_413:\n        /* \"#utility.yul\":12726:12728   */\n      0x40\n        /* \"#utility.yul\":12721:12724   */\n      dup3\n        /* \"#utility.yul\":12717:12729   */\n      add\n        /* \"#utility.yul\":12710:12729   */\n      swap1\n      pop\n        /* \"#utility.yul\":12369:12735   */\n      swap2\n      swap1\n      pop\n      jump\t// out\n        /* \"#utility.yul\":12741:13107   */\n    tag_415:\n        /* \"#utility.yul\":12883:12886   */\n      0x00\n        /* \"#utility.yul\":12904:12971   */\n      tag_417\n        /* \"#utility.yul\":12968:12970   */\n      0x16\n        /* \"#utility.yul\":12963:12966   */\n      dup4\n        /* \"#utility.yul\":12904:12971   */\n      tag_406\n      jump\t// in\n    tag_417:\n        /* \"#utility.yul\":12897:12971   */\n      swap2\n      pop\n        /* \"#utility.yul\":12980:13073   */\n      tag_418\n        /* \"#utility.yul\":13069:13072   */\n      dup3\n        /* \"#utility.yul\":12980:13073   */\n      tag_419\n      jump\t// in\n    tag_418:\n        /* \"#utility.yul\":13098:13100   */\n      0x20\n        /* \"#utility.yul\":13093:13096   */\n      dup3\n        /* \"#utility.yul\":13089:13101   */\n      add\n        /* \"#utility.yul\":13082:13101   */\n      swap1\n      pop\n        /* \"#utility.yul\":12741:13107   */\n      swap2\n      swap1\n      pop\n      jump\t// out\n        /* \"#utility.yul\":13113:13479   */\n    tag_420:\n        /* \"#utility.yul\":13255:13258   */\n      0x00\n        /* \"#utility.yul\":13276:13343   */\n      tag_422\n        /* \"#utility.yul\":13340:13342   */\n      0x26\n        /* \"#utility.yul\":13335:13338   */\n      dup4\n        /* \"#utility.yul\":13276:13343   */\n      tag_406\n      jump\t// in\n    tag_422:\n        /* \"#utility.yul\":13269:13343   */\n      swap2\n      pop\n        /* \"#utility.yul\":13352:13445   */\n      tag_423\n        /* \"#utility.yul\":13441:13444   */\n      dup3\n        /* \"#utility.yul\":13352:13445   */\n      tag_424\n      jump\t// in\n    tag_423:\n        /* \"#utility.yul\":13470:13472   */\n      0x40\n        /* \"#utility.yul\":13465:13468   */\n      dup3\n        /* \"#utility.yul\":13461:13473   */\n      add\n        /* \"#utility.yul\":13454:13473   */\n      swap1\n      pop\n        /* \"#utility.yul\":13113:13479   */\n      swap2\n      swap1\n      pop\n      jump\t// out\n        /* \"#utility.yul\":13485:13851   */\n    tag_425:\n        /* \"#utility.yul\":13627:13630   */\n      0x00\n        /* \"#utility.yul\":13648:13715   */\n      tag_427\n        /* \"#utility.yul\":13712:13714   */\n      0x20\n        /* \"#utility.yul\":13707:13710   */\n      dup4\n        /* \"#utility.yul\":13648:13715   */\n      tag_406\n      jump\t// in\n    tag_427:\n        /* \"#utility.yul\":13641:13715   */\n      swap2\n      pop\n        /* \"#utility.yul\":13724:13817   */\n      tag_428\n        /* \"#utility.yul\":13813:13816   */\n      dup3\n        /* \"#utility.yul\":13724:13817   */\n      tag_429\n      jump\t// in\n    tag_428:\n        /* \"#utility.yul\":13842:13844   */\n      0x20\n        /* \"#utility.yul\":13837:13840   */\n      dup3\n        /* \"#utility.yul\":13833:13845   */\n      add\n        /* \"#utility.yul\":13826:13845   */\n      swap1\n      pop\n        /* \"#utility.yul\":13485:13851   */\n      swap2\n      swap1\n      pop\n      jump\t// out\n        /* \"#utility.yul\":13857:14223   */\n    tag_430:\n        /* \"#utility.yul\":13999:14002   */\n      0x00\n        /* \"#utility.yul\":14020:14087   */\n      tag_432\n        /* \"#utility.yul\":14084:14086   */\n      0x3d\n        /* \"#utility.yul\":14079:14082   */\n      dup4\n        /* \"#utility.yul\":14020:14087   */\n      tag_406\n      jump\t// in\n    tag_432:\n        /* \"#utility.yul\":14013:14087   */\n      swap2\n      pop\n        /* \"#utility.yul\":14096:14189   */\n      tag_433\n        /* \"#utility.yul\":14185:14188   */\n      dup3\n        /* \"#utility.yul\":14096:14189   */\n      tag_434\n      jump\t// in\n    tag_433:\n        /* \"#utility.yul\":14214:14216   */\n      0x40\n        /* \"#utility.yul\":14209:14212   */\n      dup3\n        /* \"#utility.yul\":14205:14217   */\n      add\n        /* \"#utility.yul\":14198:14217   */\n      swap1\n      pop\n        /* \"#utility.yul\":13857:14223   */\n      swap2\n      swap1\n      pop\n      jump\t// out\n        /* \"#utility.yul\":14229:14595   */\n    tag_435:\n        /* \"#utility.yul\":14371:14374   */\n      0x00\n        /* \"#utility.yul\":14392:14459   */\n      tag_437\n        /* \"#utility.yul\":14456:14458   */\n      0x16\n        /* \"#utility.yul\":14451:14454   */\n      dup4\n        /* \"#utility.yul\":14392:14459   */\n      tag_406\n      jump\t// in\n    tag_437:\n        /* \"#utility.yul\":14385:14459   */\n      swap2\n      pop\n        /* \"#utility.yul\":14468:14561   */\n      tag_438\n        /* \"#utility.yul\":14557:14560   */\n      dup3\n        /* \"#utility.yul\":14468:14561   */\n      tag_439\n      jump\t// in\n    tag_438:\n        /* \"#utility.yul\":14586:14588   */\n      0x20\n        /* \"#utility.yul\":14581:14584   */\n      dup3\n        /* \"#utility.yul\":14577:14589   */\n      add\n        /* \"#utility.yul\":14570:14589   */\n      swap1\n      pop\n        /* \"#utility.yul\":14229:14595   */\n      swap2\n      swap1\n      pop\n      jump\t// out\n        /* \"#utility.yul\":14601:14967   */\n    tag_440:\n        /* \"#utility.yul\":14743:14746   */\n      0x00\n        /* \"#utility.yul\":14764:14831   */\n      tag_442\n        /* \"#utility.yul\":14828:14830   */\n      0x1d\n        /* \"#utility.yul\":14823:14826   */\n      dup4\n        /* \"#utility.yul\":14764:14831   */\n      tag_406\n      jump\t// in\n    tag_442:\n        /* \"#utility.yul\":14757:14831   */\n      swap2\n      pop\n        /* \"#utility.yul\":14840:14933   */\n      tag_443\n        /* \"#utility.yul\":14929:14932   */\n      dup3\n        /* \"#utility.yul\":14840:14933   */\n      tag_444\n      jump\t// in\n    tag_443:\n        /* \"#utility.yul\":14958:14960   */\n      0x20\n        /* \"#utility.yul\":14953:14956   */\n      dup3\n        /* \"#utility.yul\":14949:14961   */\n      add\n        /* \"#utility.yul\":14942:14961   */\n      swap1\n      pop\n        /* \"#utility.yul\":14601:14967   */\n      swap2\n      swap1\n      pop\n      jump\t// out\n        /* \"#utility.yul\":14973:15339   */\n    tag_445:\n        /* \"#utility.yul\":15115:15118   */\n      0x00\n        /* \"#utility.yul\":15136:15203   */\n      tag_447\n        /* \"#utility.yul\":15200:15202   */\n      0x12\n        /* \"#utility.yul\":15195:15198   */\n      dup4\n        /* \"#utility.yul\":15136:15203   */\n      tag_406\n      jump\t// in\n    tag_447:\n        /* \"#utility.yul\":15129:15203   */\n      swap2\n      pop\n        /* \"#utility.yul\":15212:15305   */\n      tag_448\n        /* \"#utility.yul\":15301:15304   */\n      dup3\n        /* \"#utility.yul\":15212:15305   */\n      tag_449\n      jump\t// in\n    tag_448:\n        /* \"#utility.yul\":15330:15332   */\n      0x20\n        /* \"#utility.yul\":15325:15328   */\n      dup3\n        /* \"#utility.yul\":15321:15333   */\n      add\n        /* \"#utility.yul\":15314:15333   */\n      swap1\n      pop\n        /* \"#utility.yul\":14973:15339   */\n      swap2\n      swap1\n      pop\n      jump\t// out\n        /* \"#utility.yul\":15345:15711   */\n    tag_450:\n        /* \"#utility.yul\":15487:15490   */\n      0x00\n        /* \"#utility.yul\":15508:15575   */\n      tag_452\n        /* \"#utility.yul\":15572:15574   */\n      0x2a\n        /* \"#utility.yul\":15567:15570   */\n      dup4\n        /* \"#utility.yul\":15508:15575   */\n      tag_406\n      jump\t// in\n    tag_452:\n        /* \"#utility.yul\":15501:15575   */\n      swap2\n      pop\n        /* \"#utility.yul\":15584:15677   */\n      tag_453\n        /* \"#utility.yul\":15673:15676   */\n      dup3\n        /* \"#utility.yul\":15584:15677   */\n      tag_454\n      jump\t// in\n    tag_453:\n        /* \"#utility.yul\":15702:15704   */\n      0x40\n        /* \"#utility.yul\":15697:15700   */\n      dup3\n        /* \"#utility.yul\":15693:15705   */\n      add\n        /* \"#utility.yul\":15686:15705   */\n      swap1\n      pop\n        /* \"#utility.yul\":15345:15711   */\n      swap2\n      swap1\n      pop\n      jump\t// out\n        /* \"#utility.yul\":15717:15835   */\n    tag_455:\n        /* \"#utility.yul\":15804:15828   */\n      tag_457\n        /* \"#utility.yul\":15822:15827   */\n      dup2\n        /* \"#utility.yul\":15804:15828   */\n      tag_458\n      jump\t// in\n    tag_457:\n        /* \"#utility.yul\":15799:15802   */\n      dup3\n        /* \"#utility.yul\":15792:15829   */\n      mstore\n        /* \"#utility.yul\":15717:15835   */\n      pop\n      pop\n      jump\t// out\n        /* \"#utility.yul\":15841:15998   */\n    tag_459:\n        /* \"#utility.yul\":15946:15991   */\n      tag_461\n        /* \"#utility.yul\":15966:15990   */\n      tag_462\n        /* \"#utility.yul\":15984:15989   */\n      dup3\n        /* \"#utility.yul\":15966:15990   */\n      tag_458\n      jump\t// in\n    tag_462:\n        /* \"#utility.yul\":15946:15991   */\n      tag_463\n      jump\t// in\n    tag_461:\n        /* \"#utility.yul\":15941:15944   */\n      dup3\n        /* \"#utility.yul\":15934:15992   */\n      mstore\n        /* \"#utility.yul\":15841:15998   */\n      pop\n      pop\n      jump\t// out\n        /* \"#utility.yul\":16004:16401   */\n    tag_171:\n        /* \"#utility.yul\":16144:16147   */\n      0x00\n        /* \"#utility.yul\":16159:16234   */\n      tag_465\n        /* \"#utility.yul\":16230:16233   */\n      dup3\n        /* \"#utility.yul\":16221:16227   */\n      dup6\n        /* \"#utility.yul\":16159:16234   */\n      tag_376\n      jump\t// in\n    tag_465:\n        /* \"#utility.yul\":16259:16261   */\n      0x14\n        /* \"#utility.yul\":16254:16257   */\n      dup3\n        /* \"#utility.yul\":16250:16262   */\n      add\n        /* \"#utility.yul\":16243:16262   */\n      swap2\n      pop\n        /* \"#utility.yul\":16272:16347   */\n      tag_466\n        /* \"#utility.yul\":16343:16346   */\n      dup3\n        /* \"#utility.yul\":16334:16340   */\n      dup5\n        /* \"#utility.yul\":16272:16347   */\n      tag_459\n      jump\t// in\n    tag_466:\n        /* \"#utility.yul\":16372:16374   */\n      0x20\n        /* \"#utility.yul\":16367:16370   */\n      dup3\n        /* \"#utility.yul\":16363:16375   */\n      add\n        /* \"#utility.yul\":16356:16375   */\n      swap2\n      pop\n        /* \"#utility.yul\":16392:16395   */\n      dup2\n        /* \"#utility.yul\":16385:16395   */\n      swap1\n      pop\n        /* \"#utility.yul\":16004:16401   */\n      swap4\n      swap3\n      pop\n      pop\n      pop\n      jump\t// out\n        /* \"#utility.yul\":16407:16678   */\n    tag_215:\n        /* \"#utility.yul\":16537:16540   */\n      0x00\n        /* \"#utility.yul\":16559:16652   */\n      tag_468\n        /* \"#utility.yul\":16648:16651   */\n      dup3\n        /* \"#utility.yul\":16639:16645   */\n      dup5\n        /* \"#utility.yul\":16559:16652   */\n      tag_389\n      jump\t// in\n    tag_468:\n        /* \"#utility.yul\":16552:16652   */\n      swap2\n      pop\n        /* \"#utility.yul\":16669:16672   */\n      dup2\n        /* \"#utility.yul\":16662:16672   */\n      swap1\n      pop\n        /* \"#utility.yul\":16407:16678   */\n      swap3\n      swap2\n      pop\n      pop\n      jump\t// out\n        /* \"#utility.yul\":16684:16906   */\n    tag_39:\n        /* \"#utility.yul\":16777:16781   */\n      0x00\n        /* \"#utility.yul\":16815:16817   */\n      0x20\n        /* \"#utility.yul\":16804:16813   */\n      dup3\n        /* \"#utility.yul\":16800:16818   */\n      add\n        /* \"#utility.yul\":16792:16818   */\n      swap1\n      pop\n        /* \"#utility.yul\":16828:16899   */\n      tag_470\n        /* \"#utility.yul\":16896:16897   */\n      0x00\n        /* \"#utility.yul\":16885:16894   */\n      dup4\n        /* \"#utility.yul\":16881:16898   */\n      add\n        /* \"#utility.yul\":16872:16878   */\n      dup5\n        /* \"#utility.yul\":16828:16899   */\n      tag_372\n      jump\t// in\n    tag_470:\n        /* \"#utility.yul\":16684:16906   */\n      swap3\n      swap2\n      pop\n      pop\n      jump\t// out\n        /* \"#utility.yul\":16912:17354   */\n    tag_167:\n        /* \"#utility.yul\":17061:17065   */\n      0x00\n        /* \"#utility.yul\":17099:17101   */\n      0x60\n        /* \"#utility.yul\":17088:17097   */\n      dup3\n        /* \"#utility.yul\":17084:17102   */\n      add\n        /* \"#utility.yul\":17076:17102   */\n      swap1\n      pop\n        /* \"#utility.yul\":17112:17183   */\n      tag_472\n        /* \"#utility.yul\":17180:17181   */\n      0x00\n        /* \"#utility.yul\":17169:17178   */\n      dup4\n        /* \"#utility.yul\":17165:17182   */\n      add\n        /* \"#utility.yul\":17156:17162   */\n      dup7\n        /* \"#utility.yul\":17112:17183   */\n      tag_372\n      jump\t// in\n    tag_472:\n        /* \"#utility.yul\":17193:17265   */\n      tag_473\n        /* \"#utility.yul\":17261:17263   */\n      0x20\n        /* \"#utility.yul\":17250:17259   */\n      dup4\n        /* \"#utility.yul\":17246:17264   */\n      add\n        /* \"#utility.yul\":17237:17243   */\n      dup6\n        /* \"#utility.yul\":17193:17265   */\n      tag_372\n      jump\t// in\n    tag_473:\n        /* \"#utility.yul\":17275:17347   */\n      tag_474\n        /* \"#utility.yul\":17343:17345   */\n      0x40\n        /* \"#utility.yul\":17332:17341   */\n      dup4\n        /* \"#utility.yul\":17328:17346   */\n      add\n        /* \"#utility.yul\":17319:17325   */\n      dup5\n        /* \"#utility.yul\":17275:17347   */\n      tag_455\n      jump\t// in\n    tag_474:\n        /* \"#utility.yul\":16912:17354   */\n      swap5\n      swap4\n      pop\n      pop\n      pop\n      pop\n      jump\t// out\n        /* \"#utility.yul\":17360:17692   */\n    tag_177:\n        /* \"#utility.yul\":17481:17485   */\n      0x00\n        /* \"#utility.yul\":17519:17521   */\n      0x40\n        /* \"#utility.yul\":17508:17517   */\n      dup3\n        /* \"#utility.yul\":17504:17522   */\n      add\n        /* \"#utility.yul\":17496:17522   */\n      swap1\n      pop\n        /* \"#utility.yul\":17532:17603   */\n      tag_476\n        /* \"#utility.yul\":17600:17601   */\n      0x00\n        /* \"#utility.yul\":17589:17598   */\n      dup4\n        /* \"#utility.yul\":17585:17602   */\n      add\n        /* \"#utility.yul\":17576:17582   */\n      dup6\n        /* \"#utility.yul\":17532:17603   */\n      tag_372\n      jump\t// in\n    tag_476:\n        /* \"#utility.yul\":17613:17685   */\n      tag_477\n        /* \"#utility.yul\":17681:17683   */\n      0x20\n        /* \"#utility.yul\":17670:17679   */\n      dup4\n        /* \"#utility.yul\":17666:17684   */\n      add\n        /* \"#utility.yul\":17657:17663   */\n      dup5\n        /* \"#utility.yul\":17613:17685   */\n      tag_455\n      jump\t// in\n    tag_477:\n        /* \"#utility.yul\":17360:17692   */\n      swap4\n      swap3\n      pop\n      pop\n      pop\n      jump\t// out\n        /* \"#utility.yul\":17698:17908   */\n    tag_23:\n        /* \"#utility.yul\":17785:17789   */\n      0x00\n        /* \"#utility.yul\":17823:17825   */\n      0x20\n        /* \"#utility.yul\":17812:17821   */\n      dup3\n        /* \"#utility.yul\":17808:17826   */\n      add\n        /* \"#utility.yul\":17800:17826   */\n      swap1\n      pop\n        /* \"#utility.yul\":17836:17901   */\n      tag_479\n        /* \"#utility.yul\":17898:17899   */\n      0x00\n        /* \"#utility.yul\":17887:17896   */\n      dup4\n        /* \"#utility.yul\":17883:17900   */\n      add\n        /* \"#utility.yul\":17874:17880   */\n      dup5\n        /* \"#utility.yul\":17836:17901   */\n      tag_381\n      jump\t// in\n    tag_479:\n        /* \"#utility.yul\":17698:17908   */\n      swap3\n      swap2\n      pop\n      pop\n      jump\t// out\n        /* \"#utility.yul\":17914:18136   */\n    tag_35:\n        /* \"#utility.yul\":18007:18011   */\n      0x00\n        /* \"#utility.yul\":18045:18047   */\n      0x20\n        /* \"#utility.yul\":18034:18043   */\n      dup3\n        /* \"#utility.yul\":18030:18048   */\n      add\n        /* \"#utility.yul\":18022:18048   */\n      swap1\n      pop\n        /* \"#utility.yul\":18058:18129   */\n      tag_481\n        /* \"#utility.yul\":18126:18127   */\n      0x00\n        /* \"#utility.yul\":18115:18124   */\n      dup4\n        /* \"#utility.yul\":18111:18128   */\n      add\n        /* \"#utility.yul\":18102:18108   */\n      dup5\n        /* \"#utility.yul\":18058:18129   */\n      tag_385\n      jump\t// in\n    tag_481:\n        /* \"#utility.yul\":17914:18136   */\n      swap3\n      swap2\n      pop\n      pop\n      jump\t// out\n        /* \"#utility.yul\":18142:18392   */\n    tag_71:\n        /* \"#utility.yul\":18249:18253   */\n      0x00\n        /* \"#utility.yul\":18287:18289   */\n      0x20\n        /* \"#utility.yul\":18276:18285   */\n      dup3\n        /* \"#utility.yul\":18272:18290   */\n      add\n        /* \"#utility.yul\":18264:18290   */\n      swap1\n      pop\n        /* \"#utility.yul\":18300:18385   */\n      tag_483\n        /* \"#utility.yul\":18382:18383   */\n      0x00\n        /* \"#utility.yul\":18371:18380   */\n      dup4\n        /* \"#utility.yul\":18367:18384   */\n      add\n        /* \"#utility.yul\":18358:18364   */\n      dup5\n        /* \"#utility.yul\":18300:18385   */\n      tag_397\n      jump\t// in\n    tag_483:\n        /* \"#utility.yul\":18142:18392   */\n      swap3\n      swap2\n      pop\n      pop\n      jump\t// out\n        /* \"#utility.yul\":18398:18711   */\n    tag_229:\n        /* \"#utility.yul\":18511:18515   */\n      0x00\n        /* \"#utility.yul\":18549:18551   */\n      0x20\n        /* \"#utility.yul\":18538:18547   */\n      dup3\n        /* \"#utility.yul\":18534:18552   */\n      add\n        /* \"#utility.yul\":18526:18552   */\n      swap1\n      pop\n        /* \"#utility.yul\":18598:18607   */\n      dup2\n        /* \"#utility.yul\":18592:18596   */\n      dup2\n        /* \"#utility.yul\":18588:18608   */\n      sub\n        /* \"#utility.yul\":18584:18585   */\n      0x00\n        /* \"#utility.yul\":18573:18582   */\n      dup4\n        /* \"#utility.yul\":18569:18586   */\n      add\n        /* \"#utility.yul\":18562:18609   */\n      mstore\n        /* \"#utility.yul\":18626:18704   */\n      tag_485\n        /* \"#utility.yul\":18699:18703   */\n      dup2\n        /* \"#utility.yul\":18690:18696   */\n      dup5\n        /* \"#utility.yul\":18626:18704   */\n      tag_401\n      jump\t// in\n    tag_485:\n        /* \"#utility.yul\":18618:18704   */\n      swap1\n      pop\n        /* \"#utility.yul\":18398:18711   */\n      swap3\n      swap2\n      pop\n      pop\n      jump\t// out\n        /* \"#utility.yul\":18717:19136   */\n    tag_143:\n        /* \"#utility.yul\":18883:18887   */\n      0x00\n        /* \"#utility.yul\":18921:18923   */\n      0x20\n        /* \"#utility.yul\":18910:18919   */\n      dup3\n        /* \"#utility.yul\":18906:18924   */\n      add\n        /* \"#utility.yul\":18898:18924   */\n      swap1\n      pop\n        /* \"#utility.yul\":18970:18979   */\n      dup2\n        /* \"#utility.yul\":18964:18968   */\n      dup2\n        /* \"#utility.yul\":18960:18980   */\n      sub\n        /* \"#utility.yul\":18956:18957   */\n      0x00\n        /* \"#utility.yul\":18945:18954   */\n      dup4\n        /* \"#utility.yul\":18941:18958   */\n      add\n        /* \"#utility.yul\":18934:18981   */\n      mstore\n        /* \"#utility.yul\":18998:19129   */\n      tag_487\n        /* \"#utility.yul\":19124:19128   */\n      dup2\n        /* \"#utility.yul\":18998:19129   */\n      tag_410\n      jump\t// in\n    tag_487:\n        /* \"#utility.yul\":18990:19129   */\n      swap1\n      pop\n        /* \"#utility.yul\":18717:19136   */\n      swap2\n      swap1\n      pop\n      jump\t// out\n        /* \"#utility.yul\":19142:19561   */\n    tag_151:\n        /* \"#utility.yul\":19308:19312   */\n      0x00\n        /* \"#utility.yul\":19346:19348   */\n      0x20\n        /* \"#utility.yul\":19335:19344   */\n      dup3\n        /* \"#utility.yul\":19331:19349   */\n      add\n        /* \"#utility.yul\":19323:19349   */\n      swap1\n      pop\n        /* \"#utility.yul\":19395:19404   */\n      dup2\n        /* \"#utility.yul\":19389:19393   */\n      dup2\n        /* \"#utility.yul\":19385:19405   */\n      sub\n        /* \"#utility.yul\":19381:19382   */\n      0x00\n        /* \"#utility.yul\":19370:19379   */\n      dup4\n        /* \"#utility.yul\":19366:19383   */\n      add\n        /* \"#utility.yul\":19359:19406   */\n      mstore\n        /* \"#utility.yul\":19423:19554   */\n      tag_489\n        /* \"#utility.yul\":19549:19553   */\n      dup2\n        /* \"#utility.yul\":19423:19554   */\n      tag_415\n      jump\t// in\n    tag_489:\n        /* \"#utility.yul\":19415:19554   */\n      swap1\n      pop\n        /* \"#utility.yul\":19142:19561   */\n      swap2\n      swap1\n      pop\n      jump\t// out\n        /* \"#utility.yul\":19567:19986   */\n    tag_208:\n        /* \"#utility.yul\":19733:19737   */\n      0x00\n        /* \"#utility.yul\":19771:19773   */\n      0x20\n        /* \"#utility.yul\":19760:19769   */\n      dup3\n        /* \"#utility.yul\":19756:19774   */\n      add\n        /* \"#utility.yul\":19748:19774   */\n      swap1\n      pop\n        /* \"#utility.yul\":19820:19829   */\n      dup2\n        /* \"#utility.yul\":19814:19818   */\n      dup2\n        /* \"#utility.yul\":19810:19830   */\n      sub\n        /* \"#utility.yul\":19806:19807   */\n      0x00\n        /* \"#utility.yul\":19795:19804   */\n      dup4\n        /* \"#utility.yul\":19791:19808   */\n      add\n        /* \"#utility.yul\":19784:19831   */\n      mstore\n        /* \"#utility.yul\":19848:19979   */\n      tag_491\n        /* \"#utility.yul\":19974:19978   */\n      dup2\n        /* \"#utility.yul\":19848:19979   */\n      tag_420\n      jump\t// in\n    tag_491:\n        /* \"#utility.yul\":19840:19979   */\n      swap1\n      pop\n        /* \"#utility.yul\":19567:19986   */\n      swap2\n      swap1\n      pop\n      jump\t// out\n        /* \"#utility.yul\":19992:20411   */\n    tag_83:\n        /* \"#utility.yul\":20158:20162   */\n      0x00\n        /* \"#utility.yul\":20196:20198   */\n      0x20\n        /* \"#utility.yul\":20185:20194   */\n      dup3\n        /* \"#utility.yul\":20181:20199   */\n      add\n        /* \"#utility.yul\":20173:20199   */\n      swap1\n      pop\n        /* \"#utility.yul\":20245:20254   */\n      dup2\n        /* \"#utility.yul\":20239:20243   */\n      dup2\n        /* \"#utility.yul\":20235:20255   */\n      sub\n        /* \"#utility.yul\":20231:20232   */\n      0x00\n        /* \"#utility.yul\":20220:20229   */\n      dup4\n        /* \"#utility.yul\":20216:20233   */\n      add\n        /* \"#utility.yul\":20209:20256   */\n      mstore\n        /* \"#utility.yul\":20273:20404   */\n      tag_493\n        /* \"#utility.yul\":20399:20403   */\n      dup2\n        /* \"#utility.yul\":20273:20404   */\n      tag_425\n      jump\t// in\n    tag_493:\n        /* \"#utility.yul\":20265:20404   */\n      swap1\n      pop\n        /* \"#utility.yul\":19992:20411   */\n      swap2\n      swap1\n      pop\n      jump\t// out\n        /* \"#utility.yul\":20417:20836   */\n    tag_158:\n        /* \"#utility.yul\":20583:20587   */\n      0x00\n        /* \"#utility.yul\":20621:20623   */\n      0x20\n        /* \"#utility.yul\":20610:20619   */\n      dup3\n        /* \"#utility.yul\":20606:20624   */\n      add\n        /* \"#utility.yul\":20598:20624   */\n      swap1\n      pop\n        /* \"#utility.yul\":20670:20679   */\n      dup2\n        /* \"#utility.yul\":20664:20668   */\n      dup2\n        /* \"#utility.yul\":20660:20680   */\n      sub\n        /* \"#utility.yul\":20656:20657   */\n      0x00\n        /* \"#utility.yul\":20645:20654   */\n      dup4\n        /* \"#utility.yul\":20641:20658   */\n      add\n        /* \"#utility.yul\":20634:20681   */\n      mstore\n        /* \"#utility.yul\":20698:20829   */\n      tag_495\n        /* \"#utility.yul\":20824:20828   */\n      dup2\n        /* \"#utility.yul\":20698:20829   */\n      tag_430\n      jump\t// in\n    tag_495:\n        /* \"#utility.yul\":20690:20829   */\n      swap1\n      pop\n        /* \"#utility.yul\":20417:20836   */\n      swap2\n      swap1\n      pop\n      jump\t// out\n        /* \"#utility.yul\":20842:21261   */\n    tag_148:\n        /* \"#utility.yul\":21008:21012   */\n      0x00\n        /* \"#utility.yul\":21046:21048   */\n      0x20\n        /* \"#utility.yul\":21035:21044   */\n      dup3\n        /* \"#utility.yul\":21031:21049   */\n      add\n        /* \"#utility.yul\":21023:21049   */\n      swap1\n      pop\n        /* \"#utility.yul\":21095:21104   */\n      dup2\n        /* \"#utility.yul\":21089:21093   */\n      dup2\n        /* \"#utility.yul\":21085:21105   */\n      sub\n        /* \"#utility.yul\":21081:21082   */\n      0x00\n        /* \"#utility.yul\":21070:21079   */\n      dup4\n        /* \"#utility.yul\":21066:21083   */\n      add\n        /* \"#utility.yul\":21059:21106   */\n      mstore\n        /* \"#utility.yul\":21123:21254   */\n      tag_497\n        /* \"#utility.yul\":21249:21253   */\n      dup2\n        /* \"#utility.yul\":21123:21254   */\n      tag_435\n      jump\t// in\n    tag_497:\n        /* \"#utility.yul\":21115:21254   */\n      swap1\n      pop\n        /* \"#utility.yul\":20842:21261   */\n      swap2\n      swap1\n      pop\n      jump\t// out\n        /* \"#utility.yul\":21267:21686   */\n    tag_213:\n        /* \"#utility.yul\":21433:21437   */\n      0x00\n        /* \"#utility.yul\":21471:21473   */\n      0x20\n        /* \"#utility.yul\":21460:21469   */\n      dup3\n        /* \"#utility.yul\":21456:21474   */\n      add\n        /* \"#utility.yul\":21448:21474   */\n      swap1\n      pop\n        /* \"#utility.yul\":21520:21529   */\n      dup2\n        /* \"#utility.yul\":21514:21518   */\n      dup2\n        /* \"#utility.yul\":21510:21530   */\n      sub\n        /* \"#utility.yul\":21506:21507   */\n      0x00\n        /* \"#utility.yul\":21495:21504   */\n      dup4\n        /* \"#utility.yul\":21491:21508   */\n      add\n        /* \"#utility.yul\":21484:21531   */\n      mstore\n        /* \"#utility.yul\":21548:21679   */\n      tag_499\n        /* \"#utility.yul\":21674:21678   */\n      dup2\n        /* \"#utility.yul\":21548:21679   */\n      tag_440\n      jump\t// in\n    tag_499:\n        /* \"#utility.yul\":21540:21679   */\n      swap1\n      pop\n        /* \"#utility.yul\":21267:21686   */\n      swap2\n      swap1\n      pop\n      jump\t// out\n        /* \"#utility.yul\":21692:22111   */\n    tag_92:\n        /* \"#utility.yul\":21858:21862   */\n      0x00\n        /* \"#utility.yul\":21896:21898   */\n      0x20\n        /* \"#utility.yul\":21885:21894   */\n      dup3\n        /* \"#utility.yul\":21881:21899   */\n      add\n        /* \"#utility.yul\":21873:21899   */\n      swap1\n      pop\n        /* \"#utility.yul\":21945:21954   */\n      dup2\n        /* \"#utility.yul\":21939:21943   */\n      dup2\n        /* \"#utility.yul\":21935:21955   */\n      sub\n        /* \"#utility.yul\":21931:21932   */\n      0x00\n        /* \"#utility.yul\":21920:21929   */\n      dup4\n        /* \"#utility.yul\":21916:21933   */\n      add\n        /* \"#utility.yul\":21909:21956   */\n      mstore\n        /* \"#utility.yul\":21973:22104   */\n      tag_501\n        /* \"#utility.yul\":22099:22103   */\n      dup2\n        /* \"#utility.yul\":21973:22104   */\n      tag_445\n      jump\t// in\n    tag_501:\n        /* \"#utility.yul\":21965:22104   */\n      swap1\n      pop\n        /* \"#utility.yul\":21692:22111   */\n      swap2\n      swap1\n      pop\n      jump\t// out\n        /* \"#utility.yul\":22117:22536   */\n    tag_186:\n        /* \"#utility.yul\":22283:22287   */\n      0x00\n        /* \"#utility.yul\":22321:22323   */\n      0x20\n        /* \"#utility.yul\":22310:22319   */\n      dup3\n        /* \"#utility.yul\":22306:22324   */\n      add\n        /* \"#utility.yul\":22298:22324   */\n      swap1\n      pop\n        /* \"#utility.yul\":22370:22379   */\n      dup2\n        /* \"#utility.yul\":22364:22368   */\n      dup2\n        /* \"#utility.yul\":22360:22380   */\n      sub\n        /* \"#utility.yul\":22356:22357   */\n      0x00\n        /* \"#utility.yul\":22345:22354   */\n      dup4\n        /* \"#utility.yul\":22341:22358   */\n      add\n        /* \"#utility.yul\":22334:22381   */\n      mstore\n        /* \"#utility.yul\":22398:22529   */\n      tag_503\n        /* \"#utility.yul\":22524:22528   */\n      dup2\n        /* \"#utility.yul\":22398:22529   */\n      tag_450\n      jump\t// in\n    tag_503:\n        /* \"#utility.yul\":22390:22529   */\n      swap1\n      pop\n        /* \"#utility.yul\":22117:22536   */\n      swap2\n      swap1\n      pop\n      jump\t// out\n        /* \"#utility.yul\":22542:22764   */\n    tag_61:\n        /* \"#utility.yul\":22635:22639   */\n      0x00\n        /* \"#utility.yul\":22673:22675   */\n      0x20\n        /* \"#utility.yul\":22662:22671   */\n      dup3\n        /* \"#utility.yul\":22658:22676   */\n      add\n        /* \"#utility.yul\":22650:22676   */\n      swap1\n      pop\n        /* \"#utility.yul\":22686:22757   */\n      tag_505\n        /* \"#utility.yul\":22754:22755   */\n      0x00\n        /* \"#utility.yul\":22743:22752   */\n      dup4\n        /* \"#utility.yul\":22739:22756   */\n      add\n        /* \"#utility.yul\":22730:22736   */\n      dup5\n        /* \"#utility.yul\":22686:22757   */\n      tag_455\n      jump\t// in\n    tag_505:\n        /* \"#utility.yul\":22542:22764   */\n      swap3\n      swap2\n      pop\n      pop\n      jump\t// out\n        /* \"#utility.yul\":22770:22899   */\n    tag_236:\n        /* \"#utility.yul\":22804:22810   */\n      0x00\n        /* \"#utility.yul\":22831:22851   */\n      tag_507\n      tag_508\n      jump\t// in\n    tag_507:\n        /* \"#utility.yul\":22821:22851   */\n      swap1\n      pop\n        /* \"#utility.yul\":22860:22893   */\n      tag_509\n        /* \"#utility.yul\":22888:22892   */\n      dup3\n        /* \"#utility.yul\":22880:22886   */\n      dup3\n        /* \"#utility.yul\":22860:22893   */\n      tag_510\n      jump\t// in\n    tag_509:\n        /* \"#utility.yul\":22770:22899   */\n      swap2\n      swap1\n      pop\n      jump\t// out\n        /* \"#utility.yul\":22905:22980   */\n    tag_508:\n        /* \"#utility.yul\":22938:22944   */\n      0x00\n        /* \"#utility.yul\":22971:22973   */\n      0x40\n        /* \"#utility.yul\":22965:22974   */\n      mload\n        /* \"#utility.yul\":22955:22974   */\n      swap1\n      pop\n        /* \"#utility.yul\":22905:22980   */\n      swap1\n      jump\t// out\n        /* \"#utility.yul\":22986:23297   */\n    tag_235:\n        /* \"#utility.yul\":23063:23067   */\n      0x00\n        /* \"#utility.yul\":23153:23171   */\n      0xffffffffffffffff\n        /* \"#utility.yul\":23145:23151   */\n      dup3\n        /* \"#utility.yul\":23142:23172   */\n      gt\n        /* \"#utility.yul\":23139:23195   */\n      iszero\n      tag_513\n      jumpi\n        /* \"#utility.yul\":23175:23193   */\n      tag_514\n      tag_515\n      jump\t// in\n    tag_514:\n        /* \"#utility.yul\":23139:23195   */\n    tag_513:\n        /* \"#utility.yul\":23225:23229   */\n      0x20\n        /* \"#utility.yul\":23217:23223   */\n      dup3\n        /* \"#utility.yul\":23213:23230   */\n      mul\n        /* \"#utility.yul\":23205:23230   */\n      swap1\n      pop\n        /* \"#utility.yul\":23285:23289   */\n      0x20\n        /* \"#utility.yul\":23279:23283   */\n      dup2\n        /* \"#utility.yul\":23275:23290   */\n      add\n        /* \"#utility.yul\":23267:23290   */\n      swap1\n      pop\n        /* \"#utility.yul\":22986:23297   */\n      swap2\n      swap1\n      pop\n      jump\t// out\n        /* \"#utility.yul\":23303:23639   */\n    tag_249:\n        /* \"#utility.yul\":23405:23409   */\n      0x00\n        /* \"#utility.yul\":23495:23513   */\n      0xffffffffffffffff\n        /* \"#utility.yul\":23487:23493   */\n      dup3\n        /* \"#utility.yul\":23484:23514   */\n      gt\n        /* \"#utility.yul\":23481:23537   */\n      iszero\n      tag_517\n      jumpi\n        /* \"#utility.yul\":23517:23535   */\n      tag_518\n      tag_515\n      jump\t// in\n    tag_518:\n        /* \"#utility.yul\":23481:23537   */\n    tag_517:\n        /* \"#utility.yul\":23567:23571   */\n      0x20\n        /* \"#utility.yul\":23559:23565   */\n      dup3\n        /* \"#utility.yul\":23555:23572   */\n      mul\n        /* \"#utility.yul\":23547:23572   */\n      swap1\n      pop\n        /* \"#utility.yul\":23627:23631   */\n      0x20\n        /* \"#utility.yul\":23621:23625   */\n      dup2\n        /* \"#utility.yul\":23617:23632   */\n      add\n        /* \"#utility.yul\":23609:23632   */\n      swap1\n      pop\n        /* \"#utility.yul\":23303:23639   */\n      swap2\n      swap1\n      pop\n      jump\t// out\n        /* \"#utility.yul\":23645:23956   */\n    tag_264:\n        /* \"#utility.yul\":23722:23726   */\n      0x00\n        /* \"#utility.yul\":23812:23830   */\n      0xffffffffffffffff\n        /* \"#utility.yul\":23804:23810   */\n      dup3\n        /* \"#utility.yul\":23801:23831   */\n      gt\n        /* \"#utility.yul\":23798:23854   */\n      iszero\n      tag_520\n      jumpi\n        /* \"#utility.yul\":23834:23852   */\n      tag_521\n      tag_515\n      jump\t// in\n    tag_521:\n        /* \"#utility.yul\":23798:23854   */\n    tag_520:\n        /* \"#utility.yul\":23884:23888   */\n      0x20\n        /* \"#utility.yul\":23876:23882   */\n      dup3\n        /* \"#utility.yul\":23872:23889   */\n      mul\n        /* \"#utility.yul\":23864:23889   */\n      swap1\n      pop\n        /* \"#utility.yul\":23944:23948   */\n      0x20\n        /* \"#utility.yul\":23938:23942   */\n      dup2\n        /* \"#utility.yul\":23934:23949   */\n      add\n        /* \"#utility.yul\":23926:23949   */\n      swap1\n      pop\n        /* \"#utility.yul\":23645:23956   */\n      swap2\n      swap1\n      pop\n      jump\t// out\n        /* \"#utility.yul\":23962:24273   */\n    tag_276:\n        /* \"#utility.yul\":24039:24043   */\n      0x00\n        /* \"#utility.yul\":24129:24147   */\n      0xffffffffffffffff\n        /* \"#utility.yul\":24121:24127   */\n      dup3\n        /* \"#utility.yul\":24118:24148   */\n      gt\n        /* \"#utility.yul\":24115:24171   */\n      iszero\n      tag_523\n      jumpi\n        /* \"#utility.yul\":24151:24169   */\n      tag_524\n      tag_515\n      jump\t// in\n    tag_524:\n        /* \"#utility.yul\":24115:24171   */\n    tag_523:\n        /* \"#utility.yul\":24201:24205   */\n      0x20\n        /* \"#utility.yul\":24193:24199   */\n      dup3\n        /* \"#utility.yul\":24189:24206   */\n      mul\n        /* \"#utility.yul\":24181:24206   */\n      swap1\n      pop\n        /* \"#utility.yul\":24261:24265   */\n      0x20\n        /* \"#utility.yul\":24255:24259   */\n      dup2\n        /* \"#utility.yul\":24251:24266   */\n      add\n        /* \"#utility.yul\":24243:24266   */\n      swap1\n      pop\n        /* \"#utility.yul\":23962:24273   */\n      swap2\n      swap1\n      pop\n      jump\t// out\n        /* \"#utility.yul\":24279:24377   */\n    tag_392:\n        /* \"#utility.yul\":24330:24336   */\n      0x00\n        /* \"#utility.yul\":24364:24369   */\n      dup2\n        /* \"#utility.yul\":24358:24370   */\n      mload\n        /* \"#utility.yul\":24348:24370   */\n      swap1\n      pop\n        /* \"#utility.yul\":24279:24377   */\n      swap2\n      swap1\n      pop\n      jump\t// out\n        /* \"#utility.yul\":24383:24482   */\n    tag_404:\n        /* \"#utility.yul\":24435:24441   */\n      0x00\n        /* \"#utility.yul\":24469:24474   */\n      dup2\n        /* \"#utility.yul\":24463:24475   */\n      mload\n        /* \"#utility.yul\":24453:24475   */\n      swap1\n      pop\n        /* \"#utility.yul\":24383:24482   */\n      swap2\n      swap1\n      pop\n      jump\t// out\n        /* \"#utility.yul\":24488:24635   */\n    tag_394:\n        /* \"#utility.yul\":24589:24600   */\n      0x00\n        /* \"#utility.yul\":24626:24629   */\n      dup2\n        /* \"#utility.yul\":24611:24629   */\n      swap1\n      pop\n        /* \"#utility.yul\":24488:24635   */\n      swap3\n      swap2\n      pop\n      pop\n      jump\t// out\n        /* \"#utility.yul\":24641:24810   */\n    tag_406:\n        /* \"#utility.yul\":24725:24736   */\n      0x00\n        /* \"#utility.yul\":24759:24765   */\n      dup3\n        /* \"#utility.yul\":24754:24757   */\n      dup3\n        /* \"#utility.yul\":24747:24766   */\n      mstore\n        /* \"#utility.yul\":24799:24803   */\n      0x20\n        /* \"#utility.yul\":24794:24797   */\n      dup3\n        /* \"#utility.yul\":24790:24804   */\n      add\n        /* \"#utility.yul\":24775:24804   */\n      swap1\n      pop\n        /* \"#utility.yul\":24641:24810   */\n      swap3\n      swap2\n      pop\n      pop\n      jump\t// out\n        /* \"#utility.yul\":24816:25121   */\n    tag_163:\n        /* \"#utility.yul\":24856:24859   */\n      0x00\n        /* \"#utility.yul\":24875:24895   */\n      tag_530\n        /* \"#utility.yul\":24893:24894   */\n      dup3\n        /* \"#utility.yul\":24875:24895   */\n      tag_458\n      jump\t// in\n    tag_530:\n        /* \"#utility.yul\":24870:24895   */\n      swap2\n      pop\n        /* \"#utility.yul\":24909:24929   */\n      tag_531\n        /* \"#utility.yul\":24927:24928   */\n      dup4\n        /* \"#utility.yul\":24909:24929   */\n      tag_458\n      jump\t// in\n    tag_531:\n        /* \"#utility.yul\":24904:24929   */\n      swap3\n      pop\n        /* \"#utility.yul\":25063:25064   */\n      dup3\n        /* \"#utility.yul\":24995:25061   */\n      0xffffffffffffffffffffffffffffffffffffffffffffffffffffffffffffffff\n        /* \"#utility.yul\":24991:25065   */\n      sub\n        /* \"#utility.yul\":24988:24989   */\n      dup3\n        /* \"#utility.yul\":24985:25066   */\n      gt\n        /* \"#utility.yul\":24982:25089   */\n      iszero\n      tag_532\n      jumpi\n        /* \"#utility.yul\":25069:25087   */\n      tag_533\n      tag_534\n      jump\t// in\n    tag_533:\n        /* \"#utility.yul\":24982:25089   */\n    tag_532:\n        /* \"#utility.yul\":25113:25114   */\n      dup3\n        /* \"#utility.yul\":25110:25111   */\n      dup3\n        /* \"#utility.yul\":25106:25115   */\n      add\n        /* \"#utility.yul\":25099:25115   */\n      swap1\n      pop\n        /* \"#utility.yul\":24816:25121   */\n      swap3\n      swap2\n      pop\n      pop\n      jump\t// out\n        /* \"#utility.yul\":25127:25223   */\n    tag_375:\n        /* \"#utility.yul\":25164:25171   */\n      0x00\n        /* \"#utility.yul\":25193:25217   */\n      tag_536\n        /* \"#utility.yul\":25211:25216   */\n      dup3\n        /* \"#utility.yul\":25193:25217   */\n      tag_537\n      jump\t// in\n    tag_536:\n        /* \"#utility.yul\":25182:25217   */\n      swap1\n      pop\n        /* \"#utility.yul\":25127:25223   */\n      swap2\n      swap1\n      pop\n      jump\t// out\n        /* \"#utility.yul\":25229:25319   */\n    tag_384:\n        /* \"#utility.yul\":25263:25270   */\n      0x00\n        /* \"#utility.yul\":25306:25311   */\n      dup2\n        /* \"#utility.yul\":25299:25312   */\n      iszero\n        /* \"#utility.yul\":25292:25313   */\n      iszero\n        /* \"#utility.yul\":25281:25313   */\n      swap1\n      pop\n        /* \"#utility.yul\":25229:25319   */\n      swap2\n      swap1\n      pop\n      jump\t// out\n        /* \"#utility.yul\":25325:25402   */\n    tag_388:\n        /* \"#utility.yul\":25362:25369   */\n      0x00\n        /* \"#utility.yul\":25391:25396   */\n      dup2\n        /* \"#utility.yul\":25380:25396   */\n      swap1\n      pop\n        /* \"#utility.yul\":25325:25402   */\n      swap2\n      swap1\n      pop\n      jump\t// out\n        /* \"#utility.yul\":25408:25534   */\n    tag_537:\n        /* \"#utility.yul\":25445:25452   */\n      0x00\n        /* \"#utility.yul\":25485:25527   */\n      0xffffffffffffffffffffffffffffffffffffffff\n        /* \"#utility.yul\":25478:25483   */\n      dup3\n        /* \"#utility.yul\":25474:25528   */\n      and\n        /* \"#utility.yul\":25463:25528   */\n      swap1\n      pop\n        /* \"#utility.yul\":25408:25534   */\n      swap2\n      swap1\n      pop\n      jump\t// out\n        /* \"#utility.yul\":25540:25617   */\n    tag_458:\n        /* \"#utility.yul\":25577:25584   */\n      0x00\n        /* \"#utility.yul\":25606:25611   */\n      dup2\n        /* \"#utility.yul\":25595:25611   */\n      swap1\n      pop\n        /* \"#utility.yul\":25540:25617   */\n      swap2\n      swap1\n      pop\n      jump\t// out\n        /* \"#utility.yul\":25623:25763   */\n    tag_400:\n        /* \"#utility.yul\":25687:25696   */\n      0x00\n        /* \"#utility.yul\":25720:25757   */\n      tag_543\n        /* \"#utility.yul\":25751:25756   */\n      dup3\n        /* \"#utility.yul\":25720:25757   */\n      tag_544\n      jump\t// in\n    tag_543:\n        /* \"#utility.yul\":25707:25757   */\n      swap1\n      pop\n        /* \"#utility.yul\":25623:25763   */\n      swap2\n      swap1\n      pop\n      jump\t// out\n        /* \"#utility.yul\":25769:25895   */\n    tag_544:\n        /* \"#utility.yul\":25819:25828   */\n      0x00\n        /* \"#utility.yul\":25852:25889   */\n      tag_546\n        /* \"#utility.yul\":25883:25888   */\n      dup3\n        /* \"#utility.yul\":25852:25889   */\n      tag_547\n      jump\t// in\n    tag_546:\n        /* \"#utility.yul\":25839:25889   */\n      swap1\n      pop\n        /* \"#utility.yul\":25769:25895   */\n      swap2\n      swap1\n      pop\n      jump\t// out\n        /* \"#utility.yul\":25901:26014   */\n    tag_547:\n        /* \"#utility.yul\":25951:25960   */\n      0x00\n        /* \"#utility.yul\":25984:26008   */\n      tag_549\n        /* \"#utility.yul\":26002:26007   */\n      dup3\n        /* \"#utility.yul\":25984:26008   */\n      tag_537\n      jump\t// in\n    tag_549:\n        /* \"#utility.yul\":25971:26008   */\n      swap1\n      pop\n        /* \"#utility.yul\":25901:26014   */\n      swap2\n      swap1\n      pop\n      jump\t// out\n        /* \"#utility.yul\":26020:26327   */\n    tag_396:\n        /* \"#utility.yul\":26088:26089   */\n      0x00\n        /* \"#utility.yul\":26098:26211   */\n    tag_551:\n        /* \"#utility.yul\":26112:26118   */\n      dup4\n        /* \"#utility.yul\":26109:26110   */\n      dup2\n        /* \"#utility.yul\":26106:26119   */\n      lt\n        /* \"#utility.yul\":26098:26211   */\n      iszero\n      tag_553\n      jumpi\n        /* \"#utility.yul\":26197:26198   */\n      dup1\n        /* \"#utility.yul\":26192:26195   */\n      dup3\n        /* \"#utility.yul\":26188:26199   */\n      add\n        /* \"#utility.yul\":26182:26200   */\n      mload\n        /* \"#utility.yul\":26178:26179   */\n      dup2\n        /* \"#utility.yul\":26173:26176   */\n      dup5\n        /* \"#utility.yul\":26169:26180   */\n      add\n        /* \"#utility.yul\":26162:26201   */\n      mstore\n        /* \"#utility.yul\":26134:26136   */\n      0x20\n        /* \"#utility.yul\":26131:26132   */\n      dup2\n        /* \"#utility.yul\":26127:26137   */\n      add\n        /* \"#utility.yul\":26122:26137   */\n      swap1\n      pop\n        /* \"#utility.yul\":26098:26211   */\n      jump(tag_551)\n    tag_553:\n        /* \"#utility.yul\":26229:26235   */\n      dup4\n        /* \"#utility.yul\":26226:26227   */\n      dup2\n        /* \"#utility.yul\":26223:26236   */\n      gt\n        /* \"#utility.yul\":26220:26321   */\n      iszero\n      tag_554\n      jumpi\n        /* \"#utility.yul\":26309:26310   */\n      0x00\n        /* \"#utility.yul\":26300:26306   */\n      dup5\n        /* \"#utility.yul\":26295:26298   */\n      dup5\n        /* \"#utility.yul\":26291:26307   */\n      add\n        /* \"#utility.yul\":26284:26311   */\n      mstore\n        /* \"#utility.yul\":26220:26321   */\n    tag_554:\n        /* \"#utility.yul\":26069:26327   */\n      pop\n        /* \"#utility.yul\":26020:26327   */\n      pop\n      pop\n      pop\n      jump\t// out\n        /* \"#utility.yul\":26333:26614   */\n    tag_510:\n        /* \"#utility.yul\":26416:26443   */\n      tag_556\n        /* \"#utility.yul\":26438:26442   */\n      dup3\n        /* \"#utility.yul\":26416:26443   */\n      tag_409\n      jump\t// in\n    tag_556:\n        /* \"#utility.yul\":26408:26414   */\n      dup2\n        /* \"#utility.yul\":26404:26444   */\n      add\n        /* \"#utility.yul\":26546:26552   */\n      dup2\n        /* \"#utility.yul\":26534:26544   */\n      dup2\n        /* \"#utility.yul\":26531:26553   */\n      lt\n        /* \"#utility.yul\":26510:26528   */\n      0xffffffffffffffff\n        /* \"#utility.yul\":26498:26508   */\n      dup3\n        /* \"#utility.yul\":26495:26529   */\n      gt\n        /* \"#utility.yul\":26492:26554   */\n      or\n        /* \"#utility.yul\":26489:26577   */\n      iszero\n      tag_557\n      jumpi\n        /* \"#utility.yul\":26557:26575   */\n      tag_558\n      tag_515\n      jump\t// in\n    tag_558:\n        /* \"#utility.yul\":26489:26577   */\n    tag_557:\n        /* \"#utility.yul\":26597:26607   */\n      dup1\n        /* \"#utility.yul\":26593:26595   */\n      0x40\n        /* \"#utility.yul\":26586:26608   */\n      mstore\n        /* \"#utility.yul\":26376:26614   */\n      pop\n        /* \"#utility.yul\":26333:26614   */\n      pop\n      pop\n      jump\t// out\n        /* \"#utility.yul\":26620:26853   */\n    tag_105:\n        /* \"#utility.yul\":26659:26662   */\n      0x00\n        /* \"#utility.yul\":26682:26706   */\n      tag_560\n        /* \"#utility.yul\":26700:26705   */\n      dup3\n        /* \"#utility.yul\":26682:26706   */\n      tag_458\n      jump\t// in\n    tag_560:\n        /* \"#utility.yul\":26673:26706   */\n      swap2\n      pop\n        /* \"#utility.yul\":26728:26794   */\n      0xffffffffffffffffffffffffffffffffffffffffffffffffffffffffffffffff\n        /* \"#utility.yul\":26721:26726   */\n      dup3\n        /* \"#utility.yul\":26718:26795   */\n      eq\n        /* \"#utility.yul\":26715:26818   */\n      iszero\n      tag_561\n      jumpi\n        /* \"#utility.yul\":26798:26816   */\n      tag_562\n      tag_534\n      jump\t// in\n    tag_562:\n        /* \"#utility.yul\":26715:26818   */\n    tag_561:\n        /* \"#utility.yul\":26845:26846   */\n      0x01\n        /* \"#utility.yul\":26838:26843   */\n      dup3\n        /* \"#utility.yul\":26834:26847   */\n      add\n        /* \"#utility.yul\":26827:26847   */\n      swap1\n      pop\n        /* \"#utility.yul\":26620:26853   */\n      swap2\n      swap1\n      pop\n      jump\t// out\n        /* \"#utility.yul\":26859:26959   */\n    tag_380:\n        /* \"#utility.yul\":26898:26905   */\n      0x00\n        /* \"#utility.yul\":26927:26953   */\n      tag_564\n        /* \"#utility.yul\":26947:26952   */\n      dup3\n        /* \"#utility.yul\":26927:26953   */\n      tag_565\n      jump\t// in\n    tag_564:\n        /* \"#utility.yul\":26916:26953   */\n      swap1\n      pop\n        /* \"#utility.yul\":26859:26959   */\n      swap2\n      swap1\n      pop\n      jump\t// out\n        /* \"#utility.yul\":26965:27059   */\n    tag_565:\n        /* \"#utility.yul\":27004:27011   */\n      0x00\n        /* \"#utility.yul\":27033:27053   */\n      tag_567\n        /* \"#utility.yul\":27047:27052   */\n      dup3\n        /* \"#utility.yul\":27033:27053   */\n      tag_568\n      jump\t// in\n    tag_567:\n        /* \"#utility.yul\":27022:27053   */\n      swap1\n      pop\n        /* \"#utility.yul\":26965:27059   */\n      swap2\n      swap1\n      pop\n      jump\t// out\n        /* \"#utility.yul\":27065:27144   */\n    tag_463:\n        /* \"#utility.yul\":27104:27111   */\n      0x00\n        /* \"#utility.yul\":27133:27138   */\n      dup2\n        /* \"#utility.yul\":27122:27138   */\n      swap1\n      pop\n        /* \"#utility.yul\":27065:27144   */\n      swap2\n      swap1\n      pop\n      jump\t// out\n        /* \"#utility.yul\":27150:27330   */\n    tag_534:\n        /* \"#utility.yul\":27198:27275   */\n      0x4e487b7100000000000000000000000000000000000000000000000000000000\n        /* \"#utility.yul\":27195:27196   */\n      0x00\n        /* \"#utility.yul\":27188:27276   */\n      mstore\n        /* \"#utility.yul\":27295:27299   */\n      0x11\n        /* \"#utility.yul\":27292:27293   */\n      0x04\n        /* \"#utility.yul\":27285:27300   */\n      mstore\n        /* \"#utility.yul\":27319:27323   */\n      0x24\n        /* \"#utility.yul\":27316:27317   */\n      0x00\n        /* \"#utility.yul\":27309:27324   */\n      revert\n        /* \"#utility.yul\":27336:27516   */\n    tag_99:\n        /* \"#utility.yul\":27384:27461   */\n      0x4e487b7100000000000000000000000000000000000000000000000000000000\n        /* \"#utility.yul\":27381:27382   */\n      0x00\n        /* \"#utility.yul\":27374:27462   */\n      mstore\n        /* \"#utility.yul\":27481:27485   */\n      0x32\n        /* \"#utility.yul\":27478:27479   */\n      0x04\n        /* \"#utility.yul\":27471:27486   */\n      mstore\n        /* \"#utility.yul\":27505:27509   */\n      0x24\n        /* \"#utility.yul\":27502:27503   */\n      0x00\n        /* \"#utility.yul\":27495:27510   */\n      revert\n        /* \"#utility.yul\":27522:27702   */\n    tag_515:\n        /* \"#utility.yul\":27570:27647   */\n      0x4e487b7100000000000000000000000000000000000000000000000000000000\n        /* \"#utility.yul\":27567:27568   */\n      0x00\n        /* \"#utility.yul\":27560:27648   */\n      mstore\n        /* \"#utility.yul\":27667:27671   */\n      0x41\n        /* \"#utility.yul\":27664:27665   */\n      0x04\n        /* \"#utility.yul\":27657:27672   */\n      mstore\n        /* \"#utility.yul\":27691:27695   */\n      0x24\n        /* \"#utility.yul\":27688:27689   */\n      0x00\n        /* \"#utility.yul\":27681:27696   */\n      revert\n        /* \"#utility.yul\":27708:27825   */\n    tag_257:\n        /* \"#utility.yul\":27817:27818   */\n      0x00\n        /* \"#utility.yul\":27814:27815   */\n      dup1\n        /* \"#utility.yul\":27807:27819   */\n      revert\n        /* \"#utility.yul\":27831:27948   */\n    tag_239:\n        /* \"#utility.yul\":27940:27941   */\n      0x00\n        /* \"#utility.yul\":27937:27938   */\n      dup1\n        /* \"#utility.yul\":27930:27942   */\n      revert\n        /* \"#utility.yul\":27954:28071   */\n    tag_327:\n        /* \"#utility.yul\":28063:28064   */\n      0x00\n        /* \"#utility.yul\":28060:28061   */\n      dup1\n        /* \"#utility.yul\":28053:28065   */\n      revert\n        /* \"#utility.yul\":28077:28194   */\n    tag_319:\n        /* \"#utility.yul\":28186:28187   */\n      0x00\n        /* \"#utility.yul\":28183:28184   */\n      dup1\n        /* \"#utility.yul\":28176:28188   */\n      revert\n        /* \"#utility.yul\":28200:28302   */\n    tag_409:\n        /* \"#utility.yul\":28241:28247   */\n      0x00\n        /* \"#utility.yul\":28292:28294   */\n      0x1f\n        /* \"#utility.yul\":28288:28295   */\n      not\n        /* \"#utility.yul\":28283:28285   */\n      0x1f\n        /* \"#utility.yul\":28276:28281   */\n      dup4\n        /* \"#utility.yul\":28272:28286   */\n      add\n        /* \"#utility.yul\":28268:28296   */\n      and\n        /* \"#utility.yul\":28258:28296   */\n      swap1\n      pop\n        /* \"#utility.yul\":28200:28302   */\n      swap2\n      swap1\n      pop\n      jump\t// out\n        /* \"#utility.yul\":28308:28402   */\n    tag_568:\n        /* \"#utility.yul\":28341:28349   */\n      0x00\n        /* \"#utility.yul\":28389:28394   */\n      dup2\n        /* \"#utility.yul\":28385:28387   */\n      0x60\n        /* \"#utility.yul\":28381:28395   */\n      shl\n        /* \"#utility.yul\":28360:28395   */\n      swap1\n      pop\n        /* \"#utility.yul\":28308:28402   */\n      swap2\n      swap1\n      pop\n      jump\t// out\n        /* \"#utility.yul\":28408:28633   */\n    tag_414:\n        /* \"#utility.yul\":28548:28582   */\n      0x4f776e61626c653a206e6577206f776e657220697320746865207a65726f2061\n        /* \"#utility.yul\":28544:28545   */\n      0x00\n        /* \"#utility.yul\":28536:28542   */\n      dup3\n        /* \"#utility.yul\":28532:28546   */\n      add\n        /* \"#utility.yul\":28525:28583   */\n      mstore\n        /* \"#utility.yul\":28617:28625   */\n      0x6464726573730000000000000000000000000000000000000000000000000000\n        /* \"#utility.yul\":28612:28614   */\n      0x20\n        /* \"#utility.yul\":28604:28610   */\n      dup3\n        /* \"#utility.yul\":28600:28615   */\n      add\n        /* \"#utility.yul\":28593:28626   */\n      mstore\n        /* \"#utility.yul\":28408:28633   */\n      pop\n      jump\t// out\n        /* \"#utility.yul\":28639:28811   */\n    tag_419:\n        /* \"#utility.yul\":28779:28803   */\n      0x496e636f7272656374206d65726b6c652070726f6f6600000000000000000000\n        /* \"#utility.yul\":28775:28776   */\n      0x00\n        /* \"#utility.yul\":28767:28773   */\n      dup3\n        /* \"#utility.yul\":28763:28777   */\n      add\n        /* \"#utility.yul\":28756:28804   */\n      mstore\n        /* \"#utility.yul\":28639:28811   */\n      pop\n      jump\t// out\n        /* \"#utility.yul\":28817:29042   */\n    tag_424:\n        /* \"#utility.yul\":28957:28991   */\n      0x416464726573733a20696e73756666696369656e742062616c616e636520666f\n        /* \"#utility.yul\":28953:28954   */\n      0x00\n        /* \"#utility.yul\":28945:28951   */\n      dup3\n        /* \"#utility.yul\":28941:28955   */\n      add\n        /* \"#utility.yul\":28934:28992   */\n      mstore\n        /* \"#utility.yul\":29026:29034   */\n      0x722063616c6c0000000000000000000000000000000000000000000000000000\n        /* \"#utility.yul\":29021:29023   */\n      0x20\n        /* \"#utility.yul\":29013:29019   */\n      dup3\n        /* \"#utility.yul\":29009:29024   */\n      add\n        /* \"#utility.yul\":29002:29035   */\n      mstore\n        /* \"#utility.yul\":28817:29042   */\n      pop\n      jump\t// out\n        /* \"#utility.yul\":29048:29230   */\n    tag_429:\n        /* \"#utility.yul\":29188:29222   */\n      0x4f776e61626c653a2063616c6c6572206973206e6f7420746865206f776e6572\n        /* \"#utility.yul\":29184:29185   */\n      0x00\n        /* \"#utility.yul\":29176:29182   */\n      dup3\n        /* \"#utility.yul\":29172:29186   */\n      add\n        /* \"#utility.yul\":29165:29223   */\n      mstore\n        /* \"#utility.yul\":29048:29230   */\n      pop\n      jump\t// out\n        /* \"#utility.yul\":29236:29484   */\n    tag_434:\n        /* \"#utility.yul\":29376:29410   */\n      0x4e6f2062616c616e636520776f756c64206265207472616e7366657272656420\n        /* \"#utility.yul\":29372:29373   */\n      0x00\n        /* \"#utility.yul\":29364:29370   */\n      dup3\n        /* \"#utility.yul\":29360:29374   */\n      add\n        /* \"#utility.yul\":29353:29411   */\n      mstore\n        /* \"#utility.yul\":29445:29476   */\n      0x2d206e6f7420676f696e6720746f20776173746520796f757220676173000000\n        /* \"#utility.yul\":29440:29442   */\n      0x20\n        /* \"#utility.yul\":29432:29438   */\n      dup3\n        /* \"#utility.yul\":29428:29443   */\n      add\n        /* \"#utility.yul\":29421:29477   */\n      mstore\n        /* \"#utility.yul\":29236:29484   */\n      pop\n      jump\t// out\n        /* \"#utility.yul\":29490:29662   */\n    tag_439:\n        /* \"#utility.yul\":29630:29654   */\n      0x4c502068617320616c726561647920636c61696d656400000000000000000000\n        /* \"#utility.yul\":29626:29627   */\n      0x00\n        /* \"#utility.yul\":29618:29624   */\n      dup3\n        /* \"#utility.yul\":29614:29628   */\n      add\n        /* \"#utility.yul\":29607:29655   */\n      mstore\n        /* \"#utility.yul\":29490:29662   */\n      pop\n      jump\t// out\n        /* \"#utility.yul\":29668:29847   */\n    tag_444:\n        /* \"#utility.yul\":29808:29839   */\n      0x416464726573733a2063616c6c20746f206e6f6e2d636f6e7472616374000000\n        /* \"#utility.yul\":29804:29805   */\n      0x00\n        /* \"#utility.yul\":29796:29802   */\n      dup3\n        /* \"#utility.yul\":29792:29806   */\n      add\n        /* \"#utility.yul\":29785:29840   */\n      mstore\n        /* \"#utility.yul\":29668:29847   */\n      pop\n      jump\t// out\n        /* \"#utility.yul\":29853:30021   */\n    tag_449:\n        /* \"#utility.yul\":29993:30013   */\n      0x4d69736d61746368696e6720696e707574730000000000000000000000000000\n        /* \"#utility.yul\":29989:29990   */\n      0x00\n        /* \"#utility.yul\":29981:29987   */\n      dup3\n        /* \"#utility.yul\":29977:29991   */\n      add\n        /* \"#utility.yul\":29970:30014   */\n      mstore\n        /* \"#utility.yul\":29853:30021   */\n      pop\n      jump\t// out\n        /* \"#utility.yul\":30027:30256   */\n    tag_454:\n        /* \"#utility.yul\":30167:30201   */\n      0x5361666545524332303a204552433230206f7065726174696f6e20646964206e\n        /* \"#utility.yul\":30163:30164   */\n      0x00\n        /* \"#utility.yul\":30155:30161   */\n      dup3\n        /* \"#utility.yul\":30151:30165   */\n      add\n        /* \"#utility.yul\":30144:30202   */\n      mstore\n        /* \"#utility.yul\":30236:30248   */\n      0x6f74207375636365656400000000000000000000000000000000000000000000\n        /* \"#utility.yul\":30231:30233   */\n      0x20\n        /* \"#utility.yul\":30223:30229   */\n      dup3\n        /* \"#utility.yul\":30219:30234   */\n      add\n        /* \"#utility.yul\":30212:30249   */\n      mstore\n        /* \"#utility.yul\":30027:30256   */\n      pop\n      jump\t// out\n        /* \"#utility.yul\":30262:30384   */\n    tag_286:\n        /* \"#utility.yul\":30335:30359   */\n      tag_589\n        /* \"#utility.yul\":30353:30358   */\n      dup2\n        /* \"#utility.yul\":30335:30359   */\n      tag_375\n      jump\t// in\n    tag_589:\n        /* \"#utility.yul\":30328:30333   */\n      dup2\n        /* \"#utility.yul\":30325:30360   */\n      eq\n        /* \"#utility.yul\":30315:30378   */\n      tag_590\n      jumpi\n        /* \"#utility.yul\":30374:30375   */\n      0x00\n        /* \"#utility.yul\":30371:30372   */\n      dup1\n        /* \"#utility.yul\":30364:30376   */\n      revert\n        /* \"#utility.yul\":30315:30378   */\n    tag_590:\n        /* \"#utility.yul\":30262:30384   */\n      pop\n      jump\t// out\n        /* \"#utility.yul\":30390:30506   */\n    tag_309:\n        /* \"#utility.yul\":30460:30481   */\n      tag_592\n        /* \"#utility.yul\":30475:30480   */\n      dup2\n        /* \"#utility.yul\":30460:30481   */\n      tag_384\n      jump\t// in\n    tag_592:\n        /* \"#utility.yul\":30453:30458   */\n      dup2\n        /* \"#utility.yul\":30450:30482   */\n      eq\n        /* \"#utility.yul\":30440:30500   */\n      tag_593\n      jumpi\n        /* \"#utility.yul\":30496:30497   */\n      0x00\n        /* \"#utility.yul\":30493:30494   */\n      dup1\n        /* \"#utility.yul\":30486:30498   */\n      revert\n        /* \"#utility.yul\":30440:30500   */\n    tag_593:\n        /* \"#utility.yul\":30390:30506   */\n      pop\n      jump\t// out\n        /* \"#utility.yul\":30512:30634   */\n    tag_312:\n        /* \"#utility.yul\":30585:30609   */\n      tag_595\n        /* \"#utility.yul\":30603:30608   */\n      dup2\n        /* \"#utility.yul\":30585:30609   */\n      tag_388\n      jump\t// in\n    tag_595:\n        /* \"#utility.yul\":30578:30583   */\n      dup2\n        /* \"#utility.yul\":30575:30610   */\n      eq\n        /* \"#utility.yul\":30565:30628   */\n      tag_596\n      jumpi\n        /* \"#utility.yul\":30624:30625   */\n      0x00\n        /* \"#utility.yul\":30621:30622   */\n      dup1\n        /* \"#utility.yul\":30614:30626   */\n      revert\n        /* \"#utility.yul\":30565:30628   */\n    tag_596:\n        /* \"#utility.yul\":30512:30634   */\n      pop\n      jump\t// out\n        /* \"#utility.yul\":30640:30762   */\n    tag_315:\n        /* \"#utility.yul\":30713:30737   */\n      tag_598\n        /* \"#utility.yul\":30731:30736   */\n      dup2\n        /* \"#utility.yul\":30713:30737   */\n      tag_458\n      jump\t// in\n    tag_598:\n        /* \"#utility.yul\":30706:30711   */\n      dup2\n        /* \"#utility.yul\":30703:30738   */\n      eq\n        /* \"#utility.yul\":30693:30756   */\n      tag_599\n      jumpi\n        /* \"#utility.yul\":30752:30753   */\n      0x00\n        /* \"#utility.yul\":30749:30750   */\n      dup1\n        /* \"#utility.yul\":30742:30754   */\n      revert\n        /* \"#utility.yul\":30693:30756   */\n    tag_599:\n        /* \"#utility.yul\":30640:30762   */\n      pop\n      jump\t// out\n\n    auxdata: 0xa2646970667358221220adf46456edd485cbcd6c0b15ef5c5f85fd117848fc549e9efa66b3bb0063793e64736f6c63430008070033\n}\n",
				"bytecode": {
					"linkReferences": {},
					"object": "60806040523480156200001157600080fd5b50604051620021d2380380620021d2833981810160405281019062000037919062000182565b620000576200004b6200009f60201b60201c565b620000a760201b60201c565b80600160006101000a81548173ffffffffffffffffffffffffffffffffffffffff021916908373ffffffffffffffffffffffffffffffffffffffff160217905550506200021b565b600033905090565b60008060009054906101000a900473ffffffffffffffffffffffffffffffffffffffff169050816000806101000a81548173ffffffffffffffffffffffffffffffffffffffff021916908373ffffffffffffffffffffffffffffffffffffffff1602179055508173ffffffffffffffffffffffffffffffffffffffff168173ffffffffffffffffffffffffffffffffffffffff167f8be0079c531659141344cd1fd0a4f28419497f9722a3daafe3b4186f6b6457e060405160405180910390a35050565b6000815190506200017c8162000201565b92915050565b6000602082840312156200019b576200019a620001fc565b5b6000620001ab848285016200016b565b91505092915050565b6000620001c182620001dc565b9050919050565b6000620001d582620001b4565b9050919050565b600073ffffffffffffffffffffffffffffffffffffffff82169050919050565b600080fd5b6200020c81620001c8565b81146200021857600080fd5b50565b611fa7806200022b6000396000f3fe608060405234801561001057600080fd5b50600436106100cf5760003560e01c8063cf9aa8cc1161008c578063eb82031211610066578063eb820312146101fc578063ebf049171461022c578063f2fde38b1461024a578063fc0c546a14610266576100cf565b8063cf9aa8cc14610194578063d5efd20a146101b0578063eb0d07f5146101cc576100cf565b8063120aa877146100d4578063554d276114610104578063715018a61461012057806371c5ecb11461012a5780638da5cb5b1461015a578063ba59371414610178575b600080fd5b6100ee60048036038101906100e991906114c3565b610284565b6040516100fb91906117df565b60405180910390f35b61011e6004803603810190610119919061131b565b6102b3565b005b6101286102cb565b005b610144600480360381019061013f9190611496565b610353565b60405161015191906117fa565b60405180910390f35b61016261036b565b60405161016f9190611764565b60405180910390f35b610192600480360381019061018d9190611260565b610394565b005b6101ae60048036038101906101a991906113de565b61046e565b005b6101ca60048036038101906101c59190611496565b61061a565b005b6101e660048036038101906101e1919061135b565b6106eb565b6040516101f391906117df565b60405180910390f35b61021660048036038101906102119190611233565b610703565b6040516102239190611972565b60405180910390f35b61023461071b565b6040516102419190611972565b60405180910390f35b610264600480360381019061025f9190611233565b610721565b005b61026e610819565b60405161027b9190611815565b60405180910390f35b60046020528160005260406000206020528060005260406000206000915091509054906101000a900460ff1681565b6102bd828261083f565b6102c78282610947565b5050565b6102d36109e1565b73ffffffffffffffffffffffffffffffffffffffff166102f161036b565b73ffffffffffffffffffffffffffffffffffffffff1614610347576040517f08c379a000000000000000000000000000000000000000000000000000000000815260040161033e906118b2565b60405180910390fd5b61035160006109e9565b565b60036020528060005260406000206000915090505481565b60008060009054906101000a900473ffffffffffffffffffffffffffffffffffffffff16905090565b6000835190508251811480156103aa5750815181145b6103e9576040517f08c379a00000000000000000000000000000000000000000000000000000000081526004016103e090611932565b60405180910390fd5b6000805b8281101561045b576104198786838151811061040c5761040b611c7c565b5b602002602001015161083f565b61044685828151811061042f5761042e611c7c565b5b602002602001015183610aad90919063ffffffff16565b9150808061045390611bd6565b9150506103ed565b506104668682610947565b505050505050565b6104766109e1565b73ffffffffffffffffffffffffffffffffffffffff1661049461036b565b73ffffffffffffffffffffffffffffffffffffffff16146104ea576040517f08c379a00000000000000000000000000000000000000000000000000000000081526004016104e1906118b2565b60405180910390fd5b815183511461052e576040517f08c379a000000000000000000000000000000000000000000000000000000000815260040161052590611932565b60405180910390fd5b61057d333083600160009054906101000a900473ffffffffffffffffffffffffffffffffffffffff1673ffffffffffffffffffffffffffffffffffffffff16610ac3909392919063ffffffff16565b60005b83518110156106145782818151811061059c5761059b611c7c565b5b6020026020010151600260008684815181106105bb576105ba611c7c565b5b602002602001015173ffffffffffffffffffffffffffffffffffffffff1673ffffffffffffffffffffffffffffffffffffffff16815260200190815260200160002081905550808061060c90611bd6565b915050610580565b50505050565b6106226109e1565b73ffffffffffffffffffffffffffffffffffffffff1661064061036b565b73ffffffffffffffffffffffffffffffffffffffff1614610696576040517f08c379a000000000000000000000000000000000000000000000000000000000815260040161068d906118b2565b60405180910390fd5b6000801b60036000838152602001908152602001600020819055507fcc071cbd9ae50a4c78d1153b76bd2d46ba8d4c7662842718ec3de1d67a144daf816040516106e09190611972565b60405180910390a150565b60006106f985858585610b4c565b9050949350505050565b60026020528060005260406000206000915090505481565b60055481565b6107296109e1565b73ffffffffffffffffffffffffffffffffffffffff1661074761036b565b73ffffffffffffffffffffffffffffffffffffffff161461079d576040517f08c379a0000000000000000000000000000000000000000000000000000000008152600401610794906118b2565b60405180910390fd5b600073ffffffffffffffffffffffffffffffffffffffff168173ffffffffffffffffffffffffffffffffffffffff16141561080d576040517f08c379a000000000000000000000000000000000000000000000000000000000815260040161080490611852565b60405180910390fd5b610816816109e9565b50565b600160009054906101000a900473ffffffffffffffffffffffffffffffffffffffff1681565b6000600260008473ffffffffffffffffffffffffffffffffffffffff1673ffffffffffffffffffffffffffffffffffffffff16815260200190815260200160002054116108c1576040517f08c379a00000000000000000000000000000000000000000000000000000000081526004016108b8906118f2565b60405180910390fd5b80600260008473ffffffffffffffffffffffffffffffffffffffff1673ffffffffffffffffffffffffffffffffffffffff168152602001908152602001600020541015610943576040517f08c379a000000000000000000000000000000000000000000000000000000000815260040161093a90611872565b60405180910390fd5b5050565b60008111156109a25761099d8282600160009054906101000a900473ffffffffffffffffffffffffffffffffffffffff1673ffffffffffffffffffffffffffffffffffffffff16610ba39092919063ffffffff16565b6109dd565b6040517f08c379a00000000000000000000000000000000000000000000000000000000081526004016109d4906118d2565b60405180910390fd5b5050565b600033905090565b60008060009054906101000a900473ffffffffffffffffffffffffffffffffffffffff169050816000806101000a81548173ffffffffffffffffffffffffffffffffffffffff021916908373ffffffffffffffffffffffffffffffffffffffff1602179055508173ffffffffffffffffffffffffffffffffffffffff168173ffffffffffffffffffffffffffffffffffffffff167f8be0079c531659141344cd1fd0a4f28419497f9722a3daafe3b4186f6b6457e060405160405180910390a35050565b60008183610abb9190611a94565b905092915050565b610b46846323b872dd60e01b858585604051602401610ae49392919061177f565b604051602081830303815290604052907bffffffffffffffffffffffffffffffffffffffffffffffffffffffff19166020820180517bffffffffffffffffffffffffffffffffffffffffffffffffffffffff8381831617835250505050610c29565b50505050565b6000808584604051602001610b62929190611721565b604051602081830303815290604052805190602001209050610b9883600360008881526020019081526020016000205483610cf0565b915050949350505050565b610c248363a9059cbb60e01b8484604051602401610bc29291906117b6565b604051602081830303815290604052907bffffffffffffffffffffffffffffffffffffffffffffffffffffffff19166020820180517bffffffffffffffffffffffffffffffffffffffffffffffffffffffff8381831617835250505050610c29565b505050565b6000610c8b826040518060400160405280602081526020017f5361666545524332303a206c6f772d6c6576656c2063616c6c206661696c65648152508573ffffffffffffffffffffffffffffffffffffffff16610d079092919063ffffffff16565b9050600081511115610ceb5780806020019051810190610cab9190611469565b610cea576040517f08c379a0000000000000000000000000000000000000000000000000000000008152600401610ce190611952565b60405180910390fd5b5b505050565b600082610cfd8584610d1f565b1490509392505050565b6060610d168484600085610d94565b90509392505050565b60008082905060005b8451811015610d89576000858281518110610d4657610d45611c7c565b5b60200260200101519050808311610d6857610d618382610ea8565b9250610d75565b610d728184610ea8565b92505b508080610d8190611bd6565b915050610d28565b508091505092915050565b606082471015610dd9576040517f08c379a0000000000000000000000000000000000000000000000000000000008152600401610dd090611892565b60405180910390fd5b610de285610ebf565b610e21576040517f08c379a0000000000000000000000000000000000000000000000000000000008152600401610e1890611912565b60405180910390fd5b6000808673ffffffffffffffffffffffffffffffffffffffff168587604051610e4a919061174d565b60006040518083038185875af1925050503d8060008114610e87576040519150601f19603f3d011682016040523d82523d6000602084013e610e8c565b606091505b5091509150610e9c828286610ee2565b92505050949350505050565b600082600052816020526040600020905092915050565b6000808273ffffffffffffffffffffffffffffffffffffffff163b119050919050565b60608315610ef257829050610f42565b600083511115610f055782518084602001fd5b816040517f08c379a0000000000000000000000000000000000000000000000000000000008152600401610f399190611830565b60405180910390fd5b9392505050565b6000610f5c610f57846119b2565b61198d565b90508083825260208201905082856020860282011115610f7f57610f7e611cdf565b5b60005b85811015610faf5781610f958882611127565b845260208401935060208301925050600181019050610f82565b5050509392505050565b6000610fcc610fc7846119de565b61198d565b90508083825260208201905082856020860282011115610fef57610fee611cdf565b5b60005b8581101561103d57813567ffffffffffffffff81111561101557611014611cda565b5b8086016110228982611198565b85526020850194506020840193505050600181019050610ff2565b5050509392505050565b600061105a61105584611a0a565b61198d565b9050808382526020820190508285602086028201111561107d5761107c611cdf565b5b60005b858110156110ad57816110938882611209565b845260208401935060208301925050600181019050611080565b5050509392505050565b60006110ca6110c584611a36565b61198d565b905080838252602082019050828560208602820111156110ed576110ec611cdf565b5b60005b8581101561111d5781611103888261121e565b8452602084019350602083019250506001810190506110f0565b5050509392505050565b60008135905061113681611f15565b92915050565b600082601f83011261115157611150611cda565b5b8135611161848260208601610f49565b91505092915050565b600082601f83011261117f5761117e611cda565b5b813561118f848260208601610fb9565b91505092915050565b600082601f8301126111ad576111ac611cda565b5b81356111bd848260208601611047565b91505092915050565b600082601f8301126111db576111da611cda565b5b81356111eb8482602086016110b7565b91505092915050565b60008151905061120381611f2c565b92915050565b60008135905061121881611f43565b92915050565b60008135905061122d81611f5a565b92915050565b60006020828403121561124957611248611ce9565b5b600061125784828501611127565b91505092915050565b6000806000806080858703121561127a57611279611ce9565b5b600061128887828801611127565b945050602085013567ffffffffffffffff8111156112a9576112a8611ce4565b5b6112b5878288016111c6565b935050604085013567ffffffffffffffff8111156112d6576112d5611ce4565b5b6112e2878288016111c6565b925050606085013567ffffffffffffffff81111561130357611302611ce4565b5b61130f8782880161116a565b91505092959194509250565b6000806040838503121561133257611331611ce9565b5b600061134085828601611127565b92505060206113518582860161121e565b9150509250929050565b6000806000806080858703121561137557611374611ce9565b5b600061138387828801611127565b94505060206113948782880161121e565b93505060406113a58782880161121e565b925050606085013567ffffffffffffffff8111156113c6576113c5611ce4565b5b6113d287828801611198565b91505092959194509250565b6000806000606084860312156113f7576113f6611ce9565b5b600084013567ffffffffffffffff81111561141557611414611ce4565b5b6114218682870161113c565b935050602084013567ffffffffffffffff81111561144257611441611ce4565b5b61144e868287016111c6565b925050604061145f8682870161121e565b9150509250925092565b60006020828403121561147f5761147e611ce9565b5b600061148d848285016111f4565b91505092915050565b6000602082840312156114ac576114ab611ce9565b5b60006114ba8482850161121e565b91505092915050565b600080604083850312156114da576114d9611ce9565b5b60006114e88582860161121e565b92505060206114f985828601611127565b9150509250929050565b61150c81611aea565b82525050565b61152361151e82611aea565b611c1f565b82525050565b61153281611afc565b82525050565b61154181611b08565b82525050565b600061155282611a62565b61155c8185611a78565b935061156c818560208601611b72565b80840191505092915050565b61158181611b3c565b82525050565b600061159282611a6d565b61159c8185611a83565b93506115ac818560208601611b72565b6115b581611cee565b840191505092915050565b60006115cd602683611a83565b91506115d882611d0c565b604082019050919050565b60006115f0601683611a83565b91506115fb82611d5b565b602082019050919050565b6000611613602683611a83565b915061161e82611d84565b604082019050919050565b6000611636602083611a83565b915061164182611dd3565b602082019050919050565b6000611659603d83611a83565b915061166482611dfc565b604082019050919050565b600061167c601683611a83565b915061168782611e4b565b602082019050919050565b600061169f601d83611a83565b91506116aa82611e74565b602082019050919050565b60006116c2601283611a83565b91506116cd82611e9d565b602082019050919050565b60006116e5602a83611a83565b91506116f082611ec6565b604082019050919050565b61170481611b32565b82525050565b61171b61171682611b32565b611c43565b82525050565b600061172d8285611512565b60148201915061173d828461170a565b6020820191508190509392505050565b60006117598284611547565b915081905092915050565b60006020820190506117796000830184611503565b92915050565b60006060820190506117946000830186611503565b6117a16020830185611503565b6117ae60408301846116fb565b949350505050565b60006040820190506117cb6000830185611503565b6117d860208301846116fb565b9392505050565b60006020820190506117f46000830184611529565b92915050565b600060208201905061180f6000830184611538565b92915050565b600060208201905061182a6000830184611578565b92915050565b6000602082019050818103600083015261184a8184611587565b905092915050565b6000602082019050818103600083015261186b816115c0565b9050919050565b6000602082019050818103600083015261188b816115e3565b9050919050565b600060208201905081810360008301526118ab81611606565b9050919050565b600060208201905081810360008301526118cb81611629565b9050919050565b600060208201905081810360008301526118eb8161164c565b9050919050565b6000602082019050818103600083015261190b8161166f565b9050919050565b6000602082019050818103600083015261192b81611692565b9050919050565b6000602082019050818103600083015261194b816116b5565b9050919050565b6000602082019050818103600083015261196b816116d8565b9050919050565b600060208201905061198760008301846116fb565b92915050565b60006119976119a8565b90506119a38282611ba5565b919050565b6000604051905090565b600067ffffffffffffffff8211156119cd576119cc611cab565b5b602082029050602081019050919050565b600067ffffffffffffffff8211156119f9576119f8611cab565b5b602082029050602081019050919050565b600067ffffffffffffffff821115611a2557611a24611cab565b5b602082029050602081019050919050565b600067ffffffffffffffff821115611a5157611a50611cab565b5b602082029050602081019050919050565b600081519050919050565b600081519050919050565b600081905092915050565b600082825260208201905092915050565b6000611a9f82611b32565b9150611aaa83611b32565b9250827fffffffffffffffffffffffffffffffffffffffffffffffffffffffffffffffff03821115611adf57611ade611c4d565b5b828201905092915050565b6000611af582611b12565b9050919050565b60008115159050919050565b6000819050919050565b600073ffffffffffffffffffffffffffffffffffffffff82169050919050565b6000819050919050565b6000611b4782611b4e565b9050919050565b6000611b5982611b60565b9050919050565b6000611b6b82611b12565b9050919050565b60005b83811015611b90578082015181840152602081019050611b75565b83811115611b9f576000848401525b50505050565b611bae82611cee565b810181811067ffffffffffffffff82111715611bcd57611bcc611cab565b5b80604052505050565b6000611be182611b32565b91507fffffffffffffffffffffffffffffffffffffffffffffffffffffffffffffffff821415611c1457611c13611c4d565b5b600182019050919050565b6000611c2a82611c31565b9050919050565b6000611c3c82611cff565b9050919050565b6000819050919050565b7f4e487b7100000000000000000000000000000000000000000000000000000000600052601160045260246000fd5b7f4e487b7100000000000000000000000000000000000000000000000000000000600052603260045260246000fd5b7f4e487b7100000000000000000000000000000000000000000000000000000000600052604160045260246000fd5b600080fd5b600080fd5b600080fd5b600080fd5b6000601f19601f8301169050919050565b60008160601b9050919050565b7f4f776e61626c653a206e6577206f776e657220697320746865207a65726f206160008201527f6464726573730000000000000000000000000000000000000000000000000000602082015250565b7f496e636f7272656374206d65726b6c652070726f6f6600000000000000000000600082015250565b7f416464726573733a20696e73756666696369656e742062616c616e636520666f60008201527f722063616c6c0000000000000000000000000000000000000000000000000000602082015250565b7f4f776e61626c653a2063616c6c6572206973206e6f7420746865206f776e6572600082015250565b7f4e6f2062616c616e636520776f756c64206265207472616e736665727265642060008201527f2d206e6f7420676f696e6720746f20776173746520796f757220676173000000602082015250565b7f4c502068617320616c726561647920636c61696d656400000000000000000000600082015250565b7f416464726573733a2063616c6c20746f206e6f6e2d636f6e7472616374000000600082015250565b7f4d69736d61746368696e6720696e707574730000000000000000000000000000600082015250565b7f5361666545524332303a204552433230206f7065726174696f6e20646964206e60008201527f6f74207375636365656400000000000000000000000000000000000000000000602082015250565b611f1e81611aea565b8114611f2957600080fd5b50565b611f3581611afc565b8114611f4057600080fd5b50565b611f4c81611b08565b8114611f5757600080fd5b50565b611f6381611b32565b8114611f6e57600080fd5b5056fea2646970667358221220adf46456edd485cbcd6c0b15ef5c5f85fd117848fc549e9efa66b3bb0063793e64736f6c63430008070033",
					"opcodes": "PUSH1 0x80 PUSH1 0x40 MSTORE CALLVALUE DUP1 ISZERO PUSH3 0x11 JUMPI PUSH1 0x0 DUP1 REVERT JUMPDEST POP PUSH1 0x40 MLOAD PUSH3 0x21D2 CODESIZE SUB DUP1 PUSH3 0x21D2 DUP4 CODECOPY DUP2 DUP2 ADD PUSH1 0x40 MSTORE DUP2 ADD SWAP1 PUSH3 0x37 SWAP2 SWAP1 PUSH3 0x182 JUMP JUMPDEST PUSH3 0x57 PUSH3 0x4B PUSH3 0x9F PUSH1 0x20 SHL PUSH1 0x20 SHR JUMP JUMPDEST PUSH3 0xA7 PUSH1 0x20 SHL PUSH1 0x20 SHR JUMP JUMPDEST DUP1 PUSH1 0x1 PUSH1 0x0 PUSH2 0x100 EXP DUP2 SLOAD DUP2 PUSH20 0xFFFFFFFFFFFFFFFFFFFFFFFFFFFFFFFFFFFFFFFF MUL NOT AND SWAP1 DUP4 PUSH20 0xFFFFFFFFFFFFFFFFFFFFFFFFFFFFFFFFFFFFFFFF AND MUL OR SWAP1 SSTORE POP POP PUSH3 0x21B JUMP JUMPDEST PUSH1 0x0 CALLER SWAP1 POP SWAP1 JUMP JUMPDEST PUSH1 0x0 DUP1 PUSH1 0x0 SWAP1 SLOAD SWAP1 PUSH2 0x100 EXP SWAP1 DIV PUSH20 0xFFFFFFFFFFFFFFFFFFFFFFFFFFFFFFFFFFFFFFFF AND SWAP1 POP DUP2 PUSH1 0x0 DUP1 PUSH2 0x100 EXP DUP2 SLOAD DUP2 PUSH20 0xFFFFFFFFFFFFFFFFFFFFFFFFFFFFFFFFFFFFFFFF MUL NOT AND SWAP1 DUP4 PUSH20 0xFFFFFFFFFFFFFFFFFFFFFFFFFFFFFFFFFFFFFFFF AND MUL OR SWAP1 SSTORE POP DUP2 PUSH20 0xFFFFFFFFFFFFFFFFFFFFFFFFFFFFFFFFFFFFFFFF AND DUP2 PUSH20 0xFFFFFFFFFFFFFFFFFFFFFFFFFFFFFFFFFFFFFFFF AND PUSH32 0x8BE0079C531659141344CD1FD0A4F28419497F9722A3DAAFE3B4186F6B6457E0 PUSH1 0x40 MLOAD PUSH1 0x40 MLOAD DUP1 SWAP2 SUB SWAP1 LOG3 POP POP JUMP JUMPDEST PUSH1 0x0 DUP2 MLOAD SWAP1 POP PUSH3 0x17C DUP2 PUSH3 0x201 JUMP JUMPDEST SWAP3 SWAP2 POP POP JUMP JUMPDEST PUSH1 0x0 PUSH1 0x20 DUP3 DUP5 SUB SLT ISZERO PUSH3 0x19B JUMPI PUSH3 0x19A PUSH3 0x1FC JUMP JUMPDEST JUMPDEST PUSH1 0x0 PUSH3 0x1AB DUP5 DUP3 DUP6 ADD PUSH3 0x16B JUMP JUMPDEST SWAP2 POP POP SWAP3 SWAP2 POP POP JUMP JUMPDEST PUSH1 0x0 PUSH3 0x1C1 DUP3 PUSH3 0x1DC JUMP JUMPDEST SWAP1 POP SWAP2 SWAP1 POP JUMP JUMPDEST PUSH1 0x0 PUSH3 0x1D5 DUP3 PUSH3 0x1B4 JUMP JUMPDEST SWAP1 POP SWAP2 SWAP1 POP JUMP JUMPDEST PUSH1 0x0 PUSH20 0xFFFFFFFFFFFFFFFFFFFFFFFFFFFFFFFFFFFFFFFF DUP3 AND SWAP1 POP SWAP2 SWAP1 POP JUMP JUMPDEST PUSH1 0x0 DUP1 REVERT JUMPDEST PUSH3 0x20C DUP2 PUSH3 0x1C8 JUMP JUMPDEST DUP2 EQ PUSH3 0x218 JUMPI PUSH1 0x0 DUP1 REVERT JUMPDEST POP JUMP JUMPDEST PUSH2 0x1FA7 DUP1 PUSH3 0x22B PUSH1 0x0 CODECOPY PUSH1 0x0 RETURN INVALID PUSH1 0x80 PUSH1 0x40 MSTORE CALLVALUE DUP1 ISZERO PUSH2 0x10 JUMPI PUSH1 0x0 DUP1 REVERT JUMPDEST POP PUSH1 0x4 CALLDATASIZE LT PUSH2 0xCF JUMPI PUSH1 0x0 CALLDATALOAD PUSH1 0xE0 SHR DUP1 PUSH4 0xCF9AA8CC GT PUSH2 0x8C JUMPI DUP1 PUSH4 0xEB820312 GT PUSH2 0x66 JUMPI DUP1 PUSH4 0xEB820312 EQ PUSH2 0x1FC JUMPI DUP1 PUSH4 0xEBF04917 EQ PUSH2 0x22C JUMPI DUP1 PUSH4 0xF2FDE38B EQ PUSH2 0x24A JUMPI DUP1 PUSH4 0xFC0C546A EQ PUSH2 0x266 JUMPI PUSH2 0xCF JUMP JUMPDEST DUP1 PUSH4 0xCF9AA8CC EQ PUSH2 0x194 JUMPI DUP1 PUSH4 0xD5EFD20A EQ PUSH2 0x1B0 JUMPI DUP1 PUSH4 0xEB0D07F5 EQ PUSH2 0x1CC JUMPI PUSH2 0xCF JUMP JUMPDEST DUP1 PUSH4 0x120AA877 EQ PUSH2 0xD4 JUMPI DUP1 PUSH4 0x554D2761 EQ PUSH2 0x104 JUMPI DUP1 PUSH4 0x715018A6 EQ PUSH2 0x120 JUMPI DUP1 PUSH4 0x71C5ECB1 EQ PUSH2 0x12A JUMPI DUP1 PUSH4 0x8DA5CB5B EQ PUSH2 0x15A JUMPI DUP1 PUSH4 0xBA593714 EQ PUSH2 0x178 JUMPI JUMPDEST PUSH1 0x0 DUP1 REVERT JUMPDEST PUSH2 0xEE PUSH1 0x4 DUP1 CALLDATASIZE SUB DUP2 ADD SWAP1 PUSH2 0xE9 SWAP2 SWAP1 PUSH2 0x14C3 JUMP JUMPDEST PUSH2 0x284 JUMP JUMPDEST PUSH1 0x40 MLOAD PUSH2 0xFB SWAP2 SWAP1 PUSH2 0x17DF JUMP JUMPDEST PUSH1 0x40 MLOAD DUP1 SWAP2 SUB SWAP1 RETURN JUMPDEST PUSH2 0x11E PUSH1 0x4 DUP1 CALLDATASIZE SUB DUP2 ADD SWAP1 PUSH2 0x119 SWAP2 SWAP1 PUSH2 0x131B JUMP JUMPDEST PUSH2 0x2B3 JUMP JUMPDEST STOP JUMPDEST PUSH2 0x128 PUSH2 0x2CB JUMP JUMPDEST STOP JUMPDEST PUSH2 0x144 PUSH1 0x4 DUP1 CALLDATASIZE SUB DUP2 ADD SWAP1 PUSH2 0x13F SWAP2 SWAP1 PUSH2 0x1496 JUMP JUMPDEST PUSH2 0x353 JUMP JUMPDEST PUSH1 0x40 MLOAD PUSH2 0x151 SWAP2 SWAP1 PUSH2 0x17FA JUMP JUMPDEST PUSH1 0x40 MLOAD DUP1 SWAP2 SUB SWAP1 RETURN JUMPDEST PUSH2 0x162 PUSH2 0x36B JUMP JUMPDEST PUSH1 0x40 MLOAD PUSH2 0x16F SWAP2 SWAP1 PUSH2 0x1764 JUMP JUMPDEST PUSH1 0x40 MLOAD DUP1 SWAP2 SUB SWAP1 RETURN JUMPDEST PUSH2 0x192 PUSH1 0x4 DUP1 CALLDATASIZE SUB DUP2 ADD SWAP1 PUSH2 0x18D SWAP2 SWAP1 PUSH2 0x1260 JUMP JUMPDEST PUSH2 0x394 JUMP JUMPDEST STOP JUMPDEST PUSH2 0x1AE PUSH1 0x4 DUP1 CALLDATASIZE SUB DUP2 ADD SWAP1 PUSH2 0x1A9 SWAP2 SWAP1 PUSH2 0x13DE JUMP JUMPDEST PUSH2 0x46E JUMP JUMPDEST STOP JUMPDEST PUSH2 0x1CA PUSH1 0x4 DUP1 CALLDATASIZE SUB DUP2 ADD SWAP1 PUSH2 0x1C5 SWAP2 SWAP1 PUSH2 0x1496 JUMP JUMPDEST PUSH2 0x61A JUMP JUMPDEST STOP JUMPDEST PUSH2 0x1E6 PUSH1 0x4 DUP1 CALLDATASIZE SUB DUP2 ADD SWAP1 PUSH2 0x1E1 SWAP2 SWAP1 PUSH2 0x135B JUMP JUMPDEST PUSH2 0x6EB JUMP JUMPDEST PUSH1 0x40 MLOAD PUSH2 0x1F3 SWAP2 SWAP1 PUSH2 0x17DF JUMP JUMPDEST PUSH1 0x40 MLOAD DUP1 SWAP2 SUB SWAP1 RETURN JUMPDEST PUSH2 0x216 PUSH1 0x4 DUP1 CALLDATASIZE SUB DUP2 ADD SWAP1 PUSH2 0x211 SWAP2 SWAP1 PUSH2 0x1233 JUMP JUMPDEST PUSH2 0x703 JUMP JUMPDEST PUSH1 0x40 MLOAD PUSH2 0x223 SWAP2 SWAP1 PUSH2 0x1972 JUMP JUMPDEST PUSH1 0x40 MLOAD DUP1 SWAP2 SUB SWAP1 RETURN JUMPDEST PUSH2 0x234 PUSH2 0x71B JUMP JUMPDEST PUSH1 0x40 MLOAD PUSH2 0x241 SWAP2 SWAP1 PUSH2 0x1972 JUMP JUMPDEST PUSH1 0x40 MLOAD DUP1 SWAP2 SUB SWAP1 RETURN JUMPDEST PUSH2 0x264 PUSH1 0x4 DUP1 CALLDATASIZE SUB DUP2 ADD SWAP1 PUSH2 0x25F SWAP2 SWAP1 PUSH2 0x1233 JUMP JUMPDEST PUSH2 0x721 JUMP JUMPDEST STOP JUMPDEST PUSH2 0x26E PUSH2 0x819 JUMP JUMPDEST PUSH1 0x40 MLOAD PUSH2 0x27B SWAP2 SWAP1 PUSH2 0x1815 JUMP JUMPDEST PUSH1 0x40 MLOAD DUP1 SWAP2 SUB SWAP1 RETURN JUMPDEST PUSH1 0x4 PUSH1 0x20 MSTORE DUP2 PUSH1 0x0 MSTORE PUSH1 0x40 PUSH1 0x0 KECCAK256 PUSH1 0x20 MSTORE DUP1 PUSH1 0x0 MSTORE PUSH1 0x40 PUSH1 0x0 KECCAK256 PUSH1 0x0 SWAP2 POP SWAP2 POP SWAP1 SLOAD SWAP1 PUSH2 0x100 EXP SWAP1 DIV PUSH1 0xFF AND DUP2 JUMP JUMPDEST PUSH2 0x2BD DUP3 DUP3 PUSH2 0x83F JUMP JUMPDEST PUSH2 0x2C7 DUP3 DUP3 PUSH2 0x947 JUMP JUMPDEST POP POP JUMP JUMPDEST PUSH2 0x2D3 PUSH2 0x9E1 JUMP JUMPDEST PUSH20 0xFFFFFFFFFFFFFFFFFFFFFFFFFFFFFFFFFFFFFFFF AND PUSH2 0x2F1 PUSH2 0x36B JUMP JUMPDEST PUSH20 0xFFFFFFFFFFFFFFFFFFFFFFFFFFFFFFFFFFFFFFFF AND EQ PUSH2 0x347 JUMPI PUSH1 0x40 MLOAD PUSH32 0x8C379A000000000000000000000000000000000000000000000000000000000 DUP2 MSTORE PUSH1 0x4 ADD PUSH2 0x33E SWAP1 PUSH2 0x18B2 JUMP JUMPDEST PUSH1 0x40 MLOAD DUP1 SWAP2 SUB SWAP1 REVERT JUMPDEST PUSH2 0x351 PUSH1 0x0 PUSH2 0x9E9 JUMP JUMPDEST JUMP JUMPDEST PUSH1 0x3 PUSH1 0x20 MSTORE DUP1 PUSH1 0x0 MSTORE PUSH1 0x40 PUSH1 0x0 KECCAK256 PUSH1 0x0 SWAP2 POP SWAP1 POP SLOAD DUP2 JUMP JUMPDEST PUSH1 0x0 DUP1 PUSH1 0x0 SWAP1 SLOAD SWAP1 PUSH2 0x100 EXP SWAP1 DIV PUSH20 0xFFFFFFFFFFFFFFFFFFFFFFFFFFFFFFFFFFFFFFFF AND SWAP1 POP SWAP1 JUMP JUMPDEST PUSH1 0x0 DUP4 MLOAD SWAP1 POP DUP3 MLOAD DUP2 EQ DUP1 ISZERO PUSH2 0x3AA JUMPI POP DUP2 MLOAD DUP2 EQ JUMPDEST PUSH2 0x3E9 JUMPI PUSH1 0x40 MLOAD PUSH32 0x8C379A000000000000000000000000000000000000000000000000000000000 DUP2 MSTORE PUSH1 0x4 ADD PUSH2 0x3E0 SWAP1 PUSH2 0x1932 JUMP JUMPDEST PUSH1 0x40 MLOAD DUP1 SWAP2 SUB SWAP1 REVERT JUMPDEST PUSH1 0x0 DUP1 JUMPDEST DUP3 DUP2 LT ISZERO PUSH2 0x45B JUMPI PUSH2 0x419 DUP8 DUP7 DUP4 DUP2 MLOAD DUP2 LT PUSH2 0x40C JUMPI PUSH2 0x40B PUSH2 0x1C7C JUMP JUMPDEST JUMPDEST PUSH1 0x20 MUL PUSH1 0x20 ADD ADD MLOAD PUSH2 0x83F JUMP JUMPDEST PUSH2 0x446 DUP6 DUP3 DUP2 MLOAD DUP2 LT PUSH2 0x42F JUMPI PUSH2 0x42E PUSH2 0x1C7C JUMP JUMPDEST JUMPDEST PUSH1 0x20 MUL PUSH1 0x20 ADD ADD MLOAD DUP4 PUSH2 0xAAD SWAP1 SWAP2 SWAP1 PUSH4 0xFFFFFFFF AND JUMP JUMPDEST SWAP2 POP DUP1 DUP1 PUSH2 0x453 SWAP1 PUSH2 0x1BD6 JUMP JUMPDEST SWAP2 POP POP PUSH2 0x3ED JUMP JUMPDEST POP PUSH2 0x466 DUP7 DUP3 PUSH2 0x947 JUMP JUMPDEST POP POP POP POP POP POP JUMP JUMPDEST PUSH2 0x476 PUSH2 0x9E1 JUMP JUMPDEST PUSH20 0xFFFFFFFFFFFFFFFFFFFFFFFFFFFFFFFFFFFFFFFF AND PUSH2 0x494 PUSH2 0x36B JUMP JUMPDEST PUSH20 0xFFFFFFFFFFFFFFFFFFFFFFFFFFFFFFFFFFFFFFFF AND EQ PUSH2 0x4EA JUMPI PUSH1 0x40 MLOAD PUSH32 0x8C379A000000000000000000000000000000000000000000000000000000000 DUP2 MSTORE PUSH1 0x4 ADD PUSH2 0x4E1 SWAP1 PUSH2 0x18B2 JUMP JUMPDEST PUSH1 0x40 MLOAD DUP1 SWAP2 SUB SWAP1 REVERT JUMPDEST DUP2 MLOAD DUP4 MLOAD EQ PUSH2 0x52E JUMPI PUSH1 0x40 MLOAD PUSH32 0x8C379A000000000000000000000000000000000000000000000000000000000 DUP2 MSTORE PUSH1 0x4 ADD PUSH2 0x525 SWAP1 PUSH2 0x1932 JUMP JUMPDEST PUSH1 0x40 MLOAD DUP1 SWAP2 SUB SWAP1 REVERT JUMPDEST PUSH2 0x57D CALLER ADDRESS DUP4 PUSH1 0x1 PUSH1 0x0 SWAP1 SLOAD SWAP1 PUSH2 0x100 EXP SWAP1 DIV PUSH20 0xFFFFFFFFFFFFFFFFFFFFFFFFFFFFFFFFFFFFFFFF AND PUSH20 0xFFFFFFFFFFFFFFFFFFFFFFFFFFFFFFFFFFFFFFFF AND PUSH2 0xAC3 SWAP1 SWAP4 SWAP3 SWAP2 SWAP1 PUSH4 0xFFFFFFFF AND JUMP JUMPDEST PUSH1 0x0 JUMPDEST DUP4 MLOAD DUP2 LT ISZERO PUSH2 0x614 JUMPI DUP3 DUP2 DUP2 MLOAD DUP2 LT PUSH2 0x59C JUMPI PUSH2 0x59B PUSH2 0x1C7C JUMP JUMPDEST JUMPDEST PUSH1 0x20 MUL PUSH1 0x20 ADD ADD MLOAD PUSH1 0x2 PUSH1 0x0 DUP7 DUP5 DUP2 MLOAD DUP2 LT PUSH2 0x5BB JUMPI PUSH2 0x5BA PUSH2 0x1C7C JUMP JUMPDEST JUMPDEST PUSH1 0x20 MUL PUSH1 0x20 ADD ADD MLOAD PUSH20 0xFFFFFFFFFFFFFFFFFFFFFFFFFFFFFFFFFFFFFFFF AND PUSH20 0xFFFFFFFFFFFFFFFFFFFFFFFFFFFFFFFFFFFFFFFF AND DUP2 MSTORE PUSH1 0x20 ADD SWAP1 DUP2 MSTORE PUSH1 0x20 ADD PUSH1 0x0 KECCAK256 DUP2 SWAP1 SSTORE POP DUP1 DUP1 PUSH2 0x60C SWAP1 PUSH2 0x1BD6 JUMP JUMPDEST SWAP2 POP POP PUSH2 0x580 JUMP JUMPDEST POP POP POP POP JUMP JUMPDEST PUSH2 0x622 PUSH2 0x9E1 JUMP JUMPDEST PUSH20 0xFFFFFFFFFFFFFFFFFFFFFFFFFFFFFFFFFFFFFFFF AND PUSH2 0x640 PUSH2 0x36B JUMP JUMPDEST PUSH20 0xFFFFFFFFFFFFFFFFFFFFFFFFFFFFFFFFFFFFFFFF AND EQ PUSH2 0x696 JUMPI PUSH1 0x40 MLOAD PUSH32 0x8C379A000000000000000000000000000000000000000000000000000000000 DUP2 MSTORE PUSH1 0x4 ADD PUSH2 0x68D SWAP1 PUSH2 0x18B2 JUMP JUMPDEST PUSH1 0x40 MLOAD DUP1 SWAP2 SUB SWAP1 REVERT JUMPDEST PUSH1 0x0 DUP1 SHL PUSH1 0x3 PUSH1 0x0 DUP4 DUP2 MSTORE PUSH1 0x20 ADD SWAP1 DUP2 MSTORE PUSH1 0x20 ADD PUSH1 0x0 KECCAK256 DUP2 SWAP1 SSTORE POP PUSH32 0xCC071CBD9AE50A4C78D1153B76BD2D46BA8D4C7662842718EC3DE1D67A144DAF DUP2 PUSH1 0x40 MLOAD PUSH2 0x6E0 SWAP2 SWAP1 PUSH2 0x1972 JUMP JUMPDEST PUSH1 0x40 MLOAD DUP1 SWAP2 SUB SWAP1 LOG1 POP JUMP JUMPDEST PUSH1 0x0 PUSH2 0x6F9 DUP6 DUP6 DUP6 DUP6 PUSH2 0xB4C JUMP JUMPDEST SWAP1 POP SWAP5 SWAP4 POP POP POP POP JUMP JUMPDEST PUSH1 0x2 PUSH1 0x20 MSTORE DUP1 PUSH1 0x0 MSTORE PUSH1 0x40 PUSH1 0x0 KECCAK256 PUSH1 0x0 SWAP2 POP SWAP1 POP SLOAD DUP2 JUMP JUMPDEST PUSH1 0x5 SLOAD DUP2 JUMP JUMPDEST PUSH2 0x729 PUSH2 0x9E1 JUMP JUMPDEST PUSH20 0xFFFFFFFFFFFFFFFFFFFFFFFFFFFFFFFFFFFFFFFF AND PUSH2 0x747 PUSH2 0x36B JUMP JUMPDEST PUSH20 0xFFFFFFFFFFFFFFFFFFFFFFFFFFFFFFFFFFFFFFFF AND EQ PUSH2 0x79D JUMPI PUSH1 0x40 MLOAD PUSH32 0x8C379A000000000000000000000000000000000000000000000000000000000 DUP2 MSTORE PUSH1 0x4 ADD PUSH2 0x794 SWAP1 PUSH2 0x18B2 JUMP JUMPDEST PUSH1 0x40 MLOAD DUP1 SWAP2 SUB SWAP1 REVERT JUMPDEST PUSH1 0x0 PUSH20 0xFFFFFFFFFFFFFFFFFFFFFFFFFFFFFFFFFFFFFFFF AND DUP2 PUSH20 0xFFFFFFFFFFFFFFFFFFFFFFFFFFFFFFFFFFFFFFFF AND EQ ISZERO PUSH2 0x80D JUMPI PUSH1 0x40 MLOAD PUSH32 0x8C379A000000000000000000000000000000000000000000000000000000000 DUP2 MSTORE PUSH1 0x4 ADD PUSH2 0x804 SWAP1 PUSH2 0x1852 JUMP JUMPDEST PUSH1 0x40 MLOAD DUP1 SWAP2 SUB SWAP1 REVERT JUMPDEST PUSH2 0x816 DUP2 PUSH2 0x9E9 JUMP JUMPDEST POP JUMP JUMPDEST PUSH1 0x1 PUSH1 0x0 SWAP1 SLOAD SWAP1 PUSH2 0x100 EXP SWAP1 DIV PUSH20 0xFFFFFFFFFFFFFFFFFFFFFFFFFFFFFFFFFFFFFFFF AND DUP2 JUMP JUMPDEST PUSH1 0x0 PUSH1 0x2 PUSH1 0x0 DUP5 PUSH20 0xFFFFFFFFFFFFFFFFFFFFFFFFFFFFFFFFFFFFFFFF AND PUSH20 0xFFFFFFFFFFFFFFFFFFFFFFFFFFFFFFFFFFFFFFFF AND DUP2 MSTORE PUSH1 0x20 ADD SWAP1 DUP2 MSTORE PUSH1 0x20 ADD PUSH1 0x0 KECCAK256 SLOAD GT PUSH2 0x8C1 JUMPI PUSH1 0x40 MLOAD PUSH32 0x8C379A000000000000000000000000000000000000000000000000000000000 DUP2 MSTORE PUSH1 0x4 ADD PUSH2 0x8B8 SWAP1 PUSH2 0x18F2 JUMP JUMPDEST PUSH1 0x40 MLOAD DUP1 SWAP2 SUB SWAP1 REVERT JUMPDEST DUP1 PUSH1 0x2 PUSH1 0x0 DUP5 PUSH20 0xFFFFFFFFFFFFFFFFFFFFFFFFFFFFFFFFFFFFFFFF AND PUSH20 0xFFFFFFFFFFFFFFFFFFFFFFFFFFFFFFFFFFFFFFFF AND DUP2 MSTORE PUSH1 0x20 ADD SWAP1 DUP2 MSTORE PUSH1 0x20 ADD PUSH1 0x0 KECCAK256 SLOAD LT ISZERO PUSH2 0x943 JUMPI PUSH1 0x40 MLOAD PUSH32 0x8C379A000000000000000000000000000000000000000000000000000000000 DUP2 MSTORE PUSH1 0x4 ADD PUSH2 0x93A SWAP1 PUSH2 0x1872 JUMP JUMPDEST PUSH1 0x40 MLOAD DUP1 SWAP2 SUB SWAP1 REVERT JUMPDEST POP POP JUMP JUMPDEST PUSH1 0x0 DUP2 GT ISZERO PUSH2 0x9A2 JUMPI PUSH2 0x99D DUP3 DUP3 PUSH1 0x1 PUSH1 0x0 SWAP1 SLOAD SWAP1 PUSH2 0x100 EXP SWAP1 DIV PUSH20 0xFFFFFFFFFFFFFFFFFFFFFFFFFFFFFFFFFFFFFFFF AND PUSH20 0xFFFFFFFFFFFFFFFFFFFFFFFFFFFFFFFFFFFFFFFF AND PUSH2 0xBA3 SWAP1 SWAP3 SWAP2 SWAP1 PUSH4 0xFFFFFFFF AND JUMP JUMPDEST PUSH2 0x9DD JUMP JUMPDEST PUSH1 0x40 MLOAD PUSH32 0x8C379A000000000000000000000000000000000000000000000000000000000 DUP2 MSTORE PUSH1 0x4 ADD PUSH2 0x9D4 SWAP1 PUSH2 0x18D2 JUMP JUMPDEST PUSH1 0x40 MLOAD DUP1 SWAP2 SUB SWAP1 REVERT JUMPDEST POP POP JUMP JUMPDEST PUSH1 0x0 CALLER SWAP1 POP SWAP1 JUMP JUMPDEST PUSH1 0x0 DUP1 PUSH1 0x0 SWAP1 SLOAD SWAP1 PUSH2 0x100 EXP SWAP1 DIV PUSH20 0xFFFFFFFFFFFFFFFFFFFFFFFFFFFFFFFFFFFFFFFF AND SWAP1 POP DUP2 PUSH1 0x0 DUP1 PUSH2 0x100 EXP DUP2 SLOAD DUP2 PUSH20 0xFFFFFFFFFFFFFFFFFFFFFFFFFFFFFFFFFFFFFFFF MUL NOT AND SWAP1 DUP4 PUSH20 0xFFFFFFFFFFFFFFFFFFFFFFFFFFFFFFFFFFFFFFFF AND MUL OR SWAP1 SSTORE POP DUP2 PUSH20 0xFFFFFFFFFFFFFFFFFFFFFFFFFFFFFFFFFFFFFFFF AND DUP2 PUSH20 0xFFFFFFFFFFFFFFFFFFFFFFFFFFFFFFFFFFFFFFFF AND PUSH32 0x8BE0079C531659141344CD1FD0A4F28419497F9722A3DAAFE3B4186F6B6457E0 PUSH1 0x40 MLOAD PUSH1 0x40 MLOAD DUP1 SWAP2 SUB SWAP1 LOG3 POP POP JUMP JUMPDEST PUSH1 0x0 DUP2 DUP4 PUSH2 0xABB SWAP2 SWAP1 PUSH2 0x1A94 JUMP JUMPDEST SWAP1 POP SWAP3 SWAP2 POP POP JUMP JUMPDEST PUSH2 0xB46 DUP5 PUSH4 0x23B872DD PUSH1 0xE0 SHL DUP6 DUP6 DUP6 PUSH1 0x40 MLOAD PUSH1 0x24 ADD PUSH2 0xAE4 SWAP4 SWAP3 SWAP2 SWAP1 PUSH2 0x177F JUMP JUMPDEST PUSH1 0x40 MLOAD PUSH1 0x20 DUP2 DUP4 SUB SUB DUP2 MSTORE SWAP1 PUSH1 0x40 MSTORE SWAP1 PUSH28 0xFFFFFFFFFFFFFFFFFFFFFFFFFFFFFFFFFFFFFFFFFFFFFFFFFFFFFFFF NOT AND PUSH1 0x20 DUP3 ADD DUP1 MLOAD PUSH28 0xFFFFFFFFFFFFFFFFFFFFFFFFFFFFFFFFFFFFFFFFFFFFFFFFFFFFFFFF DUP4 DUP2 DUP4 AND OR DUP4 MSTORE POP POP POP POP PUSH2 0xC29 JUMP JUMPDEST POP POP POP POP JUMP JUMPDEST PUSH1 0x0 DUP1 DUP6 DUP5 PUSH1 0x40 MLOAD PUSH1 0x20 ADD PUSH2 0xB62 SWAP3 SWAP2 SWAP1 PUSH2 0x1721 JUMP JUMPDEST PUSH1 0x40 MLOAD PUSH1 0x20 DUP2 DUP4 SUB SUB DUP2 MSTORE SWAP1 PUSH1 0x40 MSTORE DUP1 MLOAD SWAP1 PUSH1 0x20 ADD KECCAK256 SWAP1 POP PUSH2 0xB98 DUP4 PUSH1 0x3 PUSH1 0x0 DUP9 DUP2 MSTORE PUSH1 0x20 ADD SWAP1 DUP2 MSTORE PUSH1 0x20 ADD PUSH1 0x0 KECCAK256 SLOAD DUP4 PUSH2 0xCF0 JUMP JUMPDEST SWAP2 POP POP SWAP5 SWAP4 POP POP POP POP JUMP JUMPDEST PUSH2 0xC24 DUP4 PUSH4 0xA9059CBB PUSH1 0xE0 SHL DUP5 DUP5 PUSH1 0x40 MLOAD PUSH1 0x24 ADD PUSH2 0xBC2 SWAP3 SWAP2 SWAP1 PUSH2 0x17B6 JUMP JUMPDEST PUSH1 0x40 MLOAD PUSH1 0x20 DUP2 DUP4 SUB SUB DUP2 MSTORE SWAP1 PUSH1 0x40 MSTORE SWAP1 PUSH28 0xFFFFFFFFFFFFFFFFFFFFFFFFFFFFFFFFFFFFFFFFFFFFFFFFFFFFFFFF NOT AND PUSH1 0x20 DUP3 ADD DUP1 MLOAD PUSH28 0xFFFFFFFFFFFFFFFFFFFFFFFFFFFFFFFFFFFFFFFFFFFFFFFFFFFFFFFF DUP4 DUP2 DUP4 AND OR DUP4 MSTORE POP POP POP POP PUSH2 0xC29 JUMP JUMPDEST POP POP POP JUMP JUMPDEST PUSH1 0x0 PUSH2 0xC8B DUP3 PUSH1 0x40 MLOAD DUP1 PUSH1 0x40 ADD PUSH1 0x40 MSTORE DUP1 PUSH1 0x20 DUP2 MSTORE PUSH1 0x20 ADD PUSH32 0x5361666545524332303A206C6F772D6C6576656C2063616C6C206661696C6564 DUP2 MSTORE POP DUP6 PUSH20 0xFFFFFFFFFFFFFFFFFFFFFFFFFFFFFFFFFFFFFFFF AND PUSH2 0xD07 SWAP1 SWAP3 SWAP2 SWAP1 PUSH4 0xFFFFFFFF AND JUMP JUMPDEST SWAP1 POP PUSH1 0x0 DUP2 MLOAD GT ISZERO PUSH2 0xCEB JUMPI DUP1 DUP1 PUSH1 0x20 ADD SWAP1 MLOAD DUP2 ADD SWAP1 PUSH2 0xCAB SWAP2 SWAP1 PUSH2 0x1469 JUMP JUMPDEST PUSH2 0xCEA JUMPI PUSH1 0x40 MLOAD PUSH32 0x8C379A000000000000000000000000000000000000000000000000000000000 DUP2 MSTORE PUSH1 0x4 ADD PUSH2 0xCE1 SWAP1 PUSH2 0x1952 JUMP JUMPDEST PUSH1 0x40 MLOAD DUP1 SWAP2 SUB SWAP1 REVERT JUMPDEST JUMPDEST POP POP POP JUMP JUMPDEST PUSH1 0x0 DUP3 PUSH2 0xCFD DUP6 DUP5 PUSH2 0xD1F JUMP JUMPDEST EQ SWAP1 POP SWAP4 SWAP3 POP POP POP JUMP JUMPDEST PUSH1 0x60 PUSH2 0xD16 DUP5 DUP5 PUSH1 0x0 DUP6 PUSH2 0xD94 JUMP JUMPDEST SWAP1 POP SWAP4 SWAP3 POP POP POP JUMP JUMPDEST PUSH1 0x0 DUP1 DUP3 SWAP1 POP PUSH1 0x0 JUMPDEST DUP5 MLOAD DUP2 LT ISZERO PUSH2 0xD89 JUMPI PUSH1 0x0 DUP6 DUP3 DUP2 MLOAD DUP2 LT PUSH2 0xD46 JUMPI PUSH2 0xD45 PUSH2 0x1C7C JUMP JUMPDEST JUMPDEST PUSH1 0x20 MUL PUSH1 0x20 ADD ADD MLOAD SWAP1 POP DUP1 DUP4 GT PUSH2 0xD68 JUMPI PUSH2 0xD61 DUP4 DUP3 PUSH2 0xEA8 JUMP JUMPDEST SWAP3 POP PUSH2 0xD75 JUMP JUMPDEST PUSH2 0xD72 DUP2 DUP5 PUSH2 0xEA8 JUMP JUMPDEST SWAP3 POP JUMPDEST POP DUP1 DUP1 PUSH2 0xD81 SWAP1 PUSH2 0x1BD6 JUMP JUMPDEST SWAP2 POP POP PUSH2 0xD28 JUMP JUMPDEST POP DUP1 SWAP2 POP POP SWAP3 SWAP2 POP POP JUMP JUMPDEST PUSH1 0x60 DUP3 SELFBALANCE LT ISZERO PUSH2 0xDD9 JUMPI PUSH1 0x40 MLOAD PUSH32 0x8C379A000000000000000000000000000000000000000000000000000000000 DUP2 MSTORE PUSH1 0x4 ADD PUSH2 0xDD0 SWAP1 PUSH2 0x1892 JUMP JUMPDEST PUSH1 0x40 MLOAD DUP1 SWAP2 SUB SWAP1 REVERT JUMPDEST PUSH2 0xDE2 DUP6 PUSH2 0xEBF JUMP JUMPDEST PUSH2 0xE21 JUMPI PUSH1 0x40 MLOAD PUSH32 0x8C379A000000000000000000000000000000000000000000000000000000000 DUP2 MSTORE PUSH1 0x4 ADD PUSH2 0xE18 SWAP1 PUSH2 0x1912 JUMP JUMPDEST PUSH1 0x40 MLOAD DUP1 SWAP2 SUB SWAP1 REVERT JUMPDEST PUSH1 0x0 DUP1 DUP7 PUSH20 0xFFFFFFFFFFFFFFFFFFFFFFFFFFFFFFFFFFFFFFFF AND DUP6 DUP8 PUSH1 0x40 MLOAD PUSH2 0xE4A SWAP2 SWAP1 PUSH2 0x174D JUMP JUMPDEST PUSH1 0x0 PUSH1 0x40 MLOAD DUP1 DUP4 SUB DUP2 DUP6 DUP8 GAS CALL SWAP3 POP POP POP RETURNDATASIZE DUP1 PUSH1 0x0 DUP2 EQ PUSH2 0xE87 JUMPI PUSH1 0x40 MLOAD SWAP2 POP PUSH1 0x1F NOT PUSH1 0x3F RETURNDATASIZE ADD AND DUP3 ADD PUSH1 0x40 MSTORE RETURNDATASIZE DUP3 MSTORE RETURNDATASIZE PUSH1 0x0 PUSH1 0x20 DUP5 ADD RETURNDATACOPY PUSH2 0xE8C JUMP JUMPDEST PUSH1 0x60 SWAP2 POP JUMPDEST POP SWAP2 POP SWAP2 POP PUSH2 0xE9C DUP3 DUP3 DUP7 PUSH2 0xEE2 JUMP JUMPDEST SWAP3 POP POP POP SWAP5 SWAP4 POP POP POP POP JUMP JUMPDEST PUSH1 0x0 DUP3 PUSH1 0x0 MSTORE DUP2 PUSH1 0x20 MSTORE PUSH1 0x40 PUSH1 0x0 KECCAK256 SWAP1 POP SWAP3 SWAP2 POP POP JUMP JUMPDEST PUSH1 0x0 DUP1 DUP3 PUSH20 0xFFFFFFFFFFFFFFFFFFFFFFFFFFFFFFFFFFFFFFFF AND EXTCODESIZE GT SWAP1 POP SWAP2 SWAP1 POP JUMP JUMPDEST PUSH1 0x60 DUP4 ISZERO PUSH2 0xEF2 JUMPI DUP3 SWAP1 POP PUSH2 0xF42 JUMP JUMPDEST PUSH1 0x0 DUP4 MLOAD GT ISZERO PUSH2 0xF05 JUMPI DUP3 MLOAD DUP1 DUP5 PUSH1 0x20 ADD REVERT JUMPDEST DUP2 PUSH1 0x40 MLOAD PUSH32 0x8C379A000000000000000000000000000000000000000000000000000000000 DUP2 MSTORE PUSH1 0x4 ADD PUSH2 0xF39 SWAP2 SWAP1 PUSH2 0x1830 JUMP JUMPDEST PUSH1 0x40 MLOAD DUP1 SWAP2 SUB SWAP1 REVERT JUMPDEST SWAP4 SWAP3 POP POP POP JUMP JUMPDEST PUSH1 0x0 PUSH2 0xF5C PUSH2 0xF57 DUP5 PUSH2 0x19B2 JUMP JUMPDEST PUSH2 0x198D JUMP JUMPDEST SWAP1 POP DUP1 DUP4 DUP3 MSTORE PUSH1 0x20 DUP3 ADD SWAP1 POP DUP3 DUP6 PUSH1 0x20 DUP7 MUL DUP3 ADD GT ISZERO PUSH2 0xF7F JUMPI PUSH2 0xF7E PUSH2 0x1CDF JUMP JUMPDEST JUMPDEST PUSH1 0x0 JUMPDEST DUP6 DUP2 LT ISZERO PUSH2 0xFAF JUMPI DUP2 PUSH2 0xF95 DUP9 DUP3 PUSH2 0x1127 JUMP JUMPDEST DUP5 MSTORE PUSH1 0x20 DUP5 ADD SWAP4 POP PUSH1 0x20 DUP4 ADD SWAP3 POP POP PUSH1 0x1 DUP2 ADD SWAP1 POP PUSH2 0xF82 JUMP JUMPDEST POP POP POP SWAP4 SWAP3 POP POP POP JUMP JUMPDEST PUSH1 0x0 PUSH2 0xFCC PUSH2 0xFC7 DUP5 PUSH2 0x19DE JUMP JUMPDEST PUSH2 0x198D JUMP JUMPDEST SWAP1 POP DUP1 DUP4 DUP3 MSTORE PUSH1 0x20 DUP3 ADD SWAP1 POP DUP3 DUP6 PUSH1 0x20 DUP7 MUL DUP3 ADD GT ISZERO PUSH2 0xFEF JUMPI PUSH2 0xFEE PUSH2 0x1CDF JUMP JUMPDEST JUMPDEST PUSH1 0x0 JUMPDEST DUP6 DUP2 LT ISZERO PUSH2 0x103D JUMPI DUP2 CALLDATALOAD PUSH8 0xFFFFFFFFFFFFFFFF DUP2 GT ISZERO PUSH2 0x1015 JUMPI PUSH2 0x1014 PUSH2 0x1CDA JUMP JUMPDEST JUMPDEST DUP1 DUP7 ADD PUSH2 0x1022 DUP10 DUP3 PUSH2 0x1198 JUMP JUMPDEST DUP6 MSTORE PUSH1 0x20 DUP6 ADD SWAP5 POP PUSH1 0x20 DUP5 ADD SWAP4 POP POP POP PUSH1 0x1 DUP2 ADD SWAP1 POP PUSH2 0xFF2 JUMP JUMPDEST POP POP POP SWAP4 SWAP3 POP POP POP JUMP JUMPDEST PUSH1 0x0 PUSH2 0x105A PUSH2 0x1055 DUP5 PUSH2 0x1A0A JUMP JUMPDEST PUSH2 0x198D JUMP JUMPDEST SWAP1 POP DUP1 DUP4 DUP3 MSTORE PUSH1 0x20 DUP3 ADD SWAP1 POP DUP3 DUP6 PUSH1 0x20 DUP7 MUL DUP3 ADD GT ISZERO PUSH2 0x107D JUMPI PUSH2 0x107C PUSH2 0x1CDF JUMP JUMPDEST JUMPDEST PUSH1 0x0 JUMPDEST DUP6 DUP2 LT ISZERO PUSH2 0x10AD JUMPI DUP2 PUSH2 0x1093 DUP9 DUP3 PUSH2 0x1209 JUMP JUMPDEST DUP5 MSTORE PUSH1 0x20 DUP5 ADD SWAP4 POP PUSH1 0x20 DUP4 ADD SWAP3 POP POP PUSH1 0x1 DUP2 ADD SWAP1 POP PUSH2 0x1080 JUMP JUMPDEST POP POP POP SWAP4 SWAP3 POP POP POP JUMP JUMPDEST PUSH1 0x0 PUSH2 0x10CA PUSH2 0x10C5 DUP5 PUSH2 0x1A36 JUMP JUMPDEST PUSH2 0x198D JUMP JUMPDEST SWAP1 POP DUP1 DUP4 DUP3 MSTORE PUSH1 0x20 DUP3 ADD SWAP1 POP DUP3 DUP6 PUSH1 0x20 DUP7 MUL DUP3 ADD GT ISZERO PUSH2 0x10ED JUMPI PUSH2 0x10EC PUSH2 0x1CDF JUMP JUMPDEST JUMPDEST PUSH1 0x0 JUMPDEST DUP6 DUP2 LT ISZERO PUSH2 0x111D JUMPI DUP2 PUSH2 0x1103 DUP9 DUP3 PUSH2 0x121E JUMP JUMPDEST DUP5 MSTORE PUSH1 0x20 DUP5 ADD SWAP4 POP PUSH1 0x20 DUP4 ADD SWAP3 POP POP PUSH1 0x1 DUP2 ADD SWAP1 POP PUSH2 0x10F0 JUMP JUMPDEST POP POP POP SWAP4 SWAP3 POP POP POP JUMP JUMPDEST PUSH1 0x0 DUP2 CALLDATALOAD SWAP1 POP PUSH2 0x1136 DUP2 PUSH2 0x1F15 JUMP JUMPDEST SWAP3 SWAP2 POP POP JUMP JUMPDEST PUSH1 0x0 DUP3 PUSH1 0x1F DUP4 ADD SLT PUSH2 0x1151 JUMPI PUSH2 0x1150 PUSH2 0x1CDA JUMP JUMPDEST JUMPDEST DUP2 CALLDATALOAD PUSH2 0x1161 DUP5 DUP3 PUSH1 0x20 DUP7 ADD PUSH2 0xF49 JUMP JUMPDEST SWAP2 POP POP SWAP3 SWAP2 POP POP JUMP JUMPDEST PUSH1 0x0 DUP3 PUSH1 0x1F DUP4 ADD SLT PUSH2 0x117F JUMPI PUSH2 0x117E PUSH2 0x1CDA JUMP JUMPDEST JUMPDEST DUP2 CALLDATALOAD PUSH2 0x118F DUP5 DUP3 PUSH1 0x20 DUP7 ADD PUSH2 0xFB9 JUMP JUMPDEST SWAP2 POP POP SWAP3 SWAP2 POP POP JUMP JUMPDEST PUSH1 0x0 DUP3 PUSH1 0x1F DUP4 ADD SLT PUSH2 0x11AD JUMPI PUSH2 0x11AC PUSH2 0x1CDA JUMP JUMPDEST JUMPDEST DUP2 CALLDATALOAD PUSH2 0x11BD DUP5 DUP3 PUSH1 0x20 DUP7 ADD PUSH2 0x1047 JUMP JUMPDEST SWAP2 POP POP SWAP3 SWAP2 POP POP JUMP JUMPDEST PUSH1 0x0 DUP3 PUSH1 0x1F DUP4 ADD SLT PUSH2 0x11DB JUMPI PUSH2 0x11DA PUSH2 0x1CDA JUMP JUMPDEST JUMPDEST DUP2 CALLDATALOAD PUSH2 0x11EB DUP5 DUP3 PUSH1 0x20 DUP7 ADD PUSH2 0x10B7 JUMP JUMPDEST SWAP2 POP POP SWAP3 SWAP2 POP POP JUMP JUMPDEST PUSH1 0x0 DUP2 MLOAD SWAP1 POP PUSH2 0x1203 DUP2 PUSH2 0x1F2C JUMP JUMPDEST SWAP3 SWAP2 POP POP JUMP JUMPDEST PUSH1 0x0 DUP2 CALLDATALOAD SWAP1 POP PUSH2 0x1218 DUP2 PUSH2 0x1F43 JUMP JUMPDEST SWAP3 SWAP2 POP POP JUMP JUMPDEST PUSH1 0x0 DUP2 CALLDATALOAD SWAP1 POP PUSH2 0x122D DUP2 PUSH2 0x1F5A JUMP JUMPDEST SWAP3 SWAP2 POP POP JUMP JUMPDEST PUSH1 0x0 PUSH1 0x20 DUP3 DUP5 SUB SLT ISZERO PUSH2 0x1249 JUMPI PUSH2 0x1248 PUSH2 0x1CE9 JUMP JUMPDEST JUMPDEST PUSH1 0x0 PUSH2 0x1257 DUP5 DUP3 DUP6 ADD PUSH2 0x1127 JUMP JUMPDEST SWAP2 POP POP SWAP3 SWAP2 POP POP JUMP JUMPDEST PUSH1 0x0 DUP1 PUSH1 0x0 DUP1 PUSH1 0x80 DUP6 DUP8 SUB SLT ISZERO PUSH2 0x127A JUMPI PUSH2 0x1279 PUSH2 0x1CE9 JUMP JUMPDEST JUMPDEST PUSH1 0x0 PUSH2 0x1288 DUP8 DUP3 DUP9 ADD PUSH2 0x1127 JUMP JUMPDEST SWAP5 POP POP PUSH1 0x20 DUP6 ADD CALLDATALOAD PUSH8 0xFFFFFFFFFFFFFFFF DUP2 GT ISZERO PUSH2 0x12A9 JUMPI PUSH2 0x12A8 PUSH2 0x1CE4 JUMP JUMPDEST JUMPDEST PUSH2 0x12B5 DUP8 DUP3 DUP9 ADD PUSH2 0x11C6 JUMP JUMPDEST SWAP4 POP POP PUSH1 0x40 DUP6 ADD CALLDATALOAD PUSH8 0xFFFFFFFFFFFFFFFF DUP2 GT ISZERO PUSH2 0x12D6 JUMPI PUSH2 0x12D5 PUSH2 0x1CE4 JUMP JUMPDEST JUMPDEST PUSH2 0x12E2 DUP8 DUP3 DUP9 ADD PUSH2 0x11C6 JUMP JUMPDEST SWAP3 POP POP PUSH1 0x60 DUP6 ADD CALLDATALOAD PUSH8 0xFFFFFFFFFFFFFFFF DUP2 GT ISZERO PUSH2 0x1303 JUMPI PUSH2 0x1302 PUSH2 0x1CE4 JUMP JUMPDEST JUMPDEST PUSH2 0x130F DUP8 DUP3 DUP9 ADD PUSH2 0x116A JUMP JUMPDEST SWAP2 POP POP SWAP3 SWAP6 SWAP2 SWAP5 POP SWAP3 POP JUMP JUMPDEST PUSH1 0x0 DUP1 PUSH1 0x40 DUP4 DUP6 SUB SLT ISZERO PUSH2 0x1332 JUMPI PUSH2 0x1331 PUSH2 0x1CE9 JUMP JUMPDEST JUMPDEST PUSH1 0x0 PUSH2 0x1340 DUP6 DUP3 DUP7 ADD PUSH2 0x1127 JUMP JUMPDEST SWAP3 POP POP PUSH1 0x20 PUSH2 0x1351 DUP6 DUP3 DUP7 ADD PUSH2 0x121E JUMP JUMPDEST SWAP2 POP POP SWAP3 POP SWAP3 SWAP1 POP JUMP JUMPDEST PUSH1 0x0 DUP1 PUSH1 0x0 DUP1 PUSH1 0x80 DUP6 DUP8 SUB SLT ISZERO PUSH2 0x1375 JUMPI PUSH2 0x1374 PUSH2 0x1CE9 JUMP JUMPDEST JUMPDEST PUSH1 0x0 PUSH2 0x1383 DUP8 DUP3 DUP9 ADD PUSH2 0x1127 JUMP JUMPDEST SWAP5 POP POP PUSH1 0x20 PUSH2 0x1394 DUP8 DUP3 DUP9 ADD PUSH2 0x121E JUMP JUMPDEST SWAP4 POP POP PUSH1 0x40 PUSH2 0x13A5 DUP8 DUP3 DUP9 ADD PUSH2 0x121E JUMP JUMPDEST SWAP3 POP POP PUSH1 0x60 DUP6 ADD CALLDATALOAD PUSH8 0xFFFFFFFFFFFFFFFF DUP2 GT ISZERO PUSH2 0x13C6 JUMPI PUSH2 0x13C5 PUSH2 0x1CE4 JUMP JUMPDEST JUMPDEST PUSH2 0x13D2 DUP8 DUP3 DUP9 ADD PUSH2 0x1198 JUMP JUMPDEST SWAP2 POP POP SWAP3 SWAP6 SWAP2 SWAP5 POP SWAP3 POP JUMP JUMPDEST PUSH1 0x0 DUP1 PUSH1 0x0 PUSH1 0x60 DUP5 DUP7 SUB SLT ISZERO PUSH2 0x13F7 JUMPI PUSH2 0x13F6 PUSH2 0x1CE9 JUMP JUMPDEST JUMPDEST PUSH1 0x0 DUP5 ADD CALLDATALOAD PUSH8 0xFFFFFFFFFFFFFFFF DUP2 GT ISZERO PUSH2 0x1415 JUMPI PUSH2 0x1414 PUSH2 0x1CE4 JUMP JUMPDEST JUMPDEST PUSH2 0x1421 DUP7 DUP3 DUP8 ADD PUSH2 0x113C JUMP JUMPDEST SWAP4 POP POP PUSH1 0x20 DUP5 ADD CALLDATALOAD PUSH8 0xFFFFFFFFFFFFFFFF DUP2 GT ISZERO PUSH2 0x1442 JUMPI PUSH2 0x1441 PUSH2 0x1CE4 JUMP JUMPDEST JUMPDEST PUSH2 0x144E DUP7 DUP3 DUP8 ADD PUSH2 0x11C6 JUMP JUMPDEST SWAP3 POP POP PUSH1 0x40 PUSH2 0x145F DUP7 DUP3 DUP8 ADD PUSH2 0x121E JUMP JUMPDEST SWAP2 POP POP SWAP3 POP SWAP3 POP SWAP3 JUMP JUMPDEST PUSH1 0x0 PUSH1 0x20 DUP3 DUP5 SUB SLT ISZERO PUSH2 0x147F JUMPI PUSH2 0x147E PUSH2 0x1CE9 JUMP JUMPDEST JUMPDEST PUSH1 0x0 PUSH2 0x148D DUP5 DUP3 DUP6 ADD PUSH2 0x11F4 JUMP JUMPDEST SWAP2 POP POP SWAP3 SWAP2 POP POP JUMP JUMPDEST PUSH1 0x0 PUSH1 0x20 DUP3 DUP5 SUB SLT ISZERO PUSH2 0x14AC JUMPI PUSH2 0x14AB PUSH2 0x1CE9 JUMP JUMPDEST JUMPDEST PUSH1 0x0 PUSH2 0x14BA DUP5 DUP3 DUP6 ADD PUSH2 0x121E JUMP JUMPDEST SWAP2 POP POP SWAP3 SWAP2 POP POP JUMP JUMPDEST PUSH1 0x0 DUP1 PUSH1 0x40 DUP4 DUP6 SUB SLT ISZERO PUSH2 0x14DA JUMPI PUSH2 0x14D9 PUSH2 0x1CE9 JUMP JUMPDEST JUMPDEST PUSH1 0x0 PUSH2 0x14E8 DUP6 DUP3 DUP7 ADD PUSH2 0x121E JUMP JUMPDEST SWAP3 POP POP PUSH1 0x20 PUSH2 0x14F9 DUP6 DUP3 DUP7 ADD PUSH2 0x1127 JUMP JUMPDEST SWAP2 POP POP SWAP3 POP SWAP3 SWAP1 POP JUMP JUMPDEST PUSH2 0x150C DUP2 PUSH2 0x1AEA JUMP JUMPDEST DUP3 MSTORE POP POP JUMP JUMPDEST PUSH2 0x1523 PUSH2 0x151E DUP3 PUSH2 0x1AEA JUMP JUMPDEST PUSH2 0x1C1F JUMP JUMPDEST DUP3 MSTORE POP POP JUMP JUMPDEST PUSH2 0x1532 DUP2 PUSH2 0x1AFC JUMP JUMPDEST DUP3 MSTORE POP POP JUMP JUMPDEST PUSH2 0x1541 DUP2 PUSH2 0x1B08 JUMP JUMPDEST DUP3 MSTORE POP POP JUMP JUMPDEST PUSH1 0x0 PUSH2 0x1552 DUP3 PUSH2 0x1A62 JUMP JUMPDEST PUSH2 0x155C DUP2 DUP6 PUSH2 0x1A78 JUMP JUMPDEST SWAP4 POP PUSH2 0x156C DUP2 DUP6 PUSH1 0x20 DUP7 ADD PUSH2 0x1B72 JUMP JUMPDEST DUP1 DUP5 ADD SWAP2 POP POP SWAP3 SWAP2 POP POP JUMP JUMPDEST PUSH2 0x1581 DUP2 PUSH2 0x1B3C JUMP JUMPDEST DUP3 MSTORE POP POP JUMP JUMPDEST PUSH1 0x0 PUSH2 0x1592 DUP3 PUSH2 0x1A6D JUMP JUMPDEST PUSH2 0x159C DUP2 DUP6 PUSH2 0x1A83 JUMP JUMPDEST SWAP4 POP PUSH2 0x15AC DUP2 DUP6 PUSH1 0x20 DUP7 ADD PUSH2 0x1B72 JUMP JUMPDEST PUSH2 0x15B5 DUP2 PUSH2 0x1CEE JUMP JUMPDEST DUP5 ADD SWAP2 POP POP SWAP3 SWAP2 POP POP JUMP JUMPDEST PUSH1 0x0 PUSH2 0x15CD PUSH1 0x26 DUP4 PUSH2 0x1A83 JUMP JUMPDEST SWAP2 POP PUSH2 0x15D8 DUP3 PUSH2 0x1D0C JUMP JUMPDEST PUSH1 0x40 DUP3 ADD SWAP1 POP SWAP2 SWAP1 POP JUMP JUMPDEST PUSH1 0x0 PUSH2 0x15F0 PUSH1 0x16 DUP4 PUSH2 0x1A83 JUMP JUMPDEST SWAP2 POP PUSH2 0x15FB DUP3 PUSH2 0x1D5B JUMP JUMPDEST PUSH1 0x20 DUP3 ADD SWAP1 POP SWAP2 SWAP1 POP JUMP JUMPDEST PUSH1 0x0 PUSH2 0x1613 PUSH1 0x26 DUP4 PUSH2 0x1A83 JUMP JUMPDEST SWAP2 POP PUSH2 0x161E DUP3 PUSH2 0x1D84 JUMP JUMPDEST PUSH1 0x40 DUP3 ADD SWAP1 POP SWAP2 SWAP1 POP JUMP JUMPDEST PUSH1 0x0 PUSH2 0x1636 PUSH1 0x20 DUP4 PUSH2 0x1A83 JUMP JUMPDEST SWAP2 POP PUSH2 0x1641 DUP3 PUSH2 0x1DD3 JUMP JUMPDEST PUSH1 0x20 DUP3 ADD SWAP1 POP SWAP2 SWAP1 POP JUMP JUMPDEST PUSH1 0x0 PUSH2 0x1659 PUSH1 0x3D DUP4 PUSH2 0x1A83 JUMP JUMPDEST SWAP2 POP PUSH2 0x1664 DUP3 PUSH2 0x1DFC JUMP JUMPDEST PUSH1 0x40 DUP3 ADD SWAP1 POP SWAP2 SWAP1 POP JUMP JUMPDEST PUSH1 0x0 PUSH2 0x167C PUSH1 0x16 DUP4 PUSH2 0x1A83 JUMP JUMPDEST SWAP2 POP PUSH2 0x1687 DUP3 PUSH2 0x1E4B JUMP JUMPDEST PUSH1 0x20 DUP3 ADD SWAP1 POP SWAP2 SWAP1 POP JUMP JUMPDEST PUSH1 0x0 PUSH2 0x169F PUSH1 0x1D DUP4 PUSH2 0x1A83 JUMP JUMPDEST SWAP2 POP PUSH2 0x16AA DUP3 PUSH2 0x1E74 JUMP JUMPDEST PUSH1 0x20 DUP3 ADD SWAP1 POP SWAP2 SWAP1 POP JUMP JUMPDEST PUSH1 0x0 PUSH2 0x16C2 PUSH1 0x12 DUP4 PUSH2 0x1A83 JUMP JUMPDEST SWAP2 POP PUSH2 0x16CD DUP3 PUSH2 0x1E9D JUMP JUMPDEST PUSH1 0x20 DUP3 ADD SWAP1 POP SWAP2 SWAP1 POP JUMP JUMPDEST PUSH1 0x0 PUSH2 0x16E5 PUSH1 0x2A DUP4 PUSH2 0x1A83 JUMP JUMPDEST SWAP2 POP PUSH2 0x16F0 DUP3 PUSH2 0x1EC6 JUMP JUMPDEST PUSH1 0x40 DUP3 ADD SWAP1 POP SWAP2 SWAP1 POP JUMP JUMPDEST PUSH2 0x1704 DUP2 PUSH2 0x1B32 JUMP JUMPDEST DUP3 MSTORE POP POP JUMP JUMPDEST PUSH2 0x171B PUSH2 0x1716 DUP3 PUSH2 0x1B32 JUMP JUMPDEST PUSH2 0x1C43 JUMP JUMPDEST DUP3 MSTORE POP POP JUMP JUMPDEST PUSH1 0x0 PUSH2 0x172D DUP3 DUP6 PUSH2 0x1512 JUMP JUMPDEST PUSH1 0x14 DUP3 ADD SWAP2 POP PUSH2 0x173D DUP3 DUP5 PUSH2 0x170A JUMP JUMPDEST PUSH1 0x20 DUP3 ADD SWAP2 POP DUP2 SWAP1 POP SWAP4 SWAP3 POP POP POP JUMP JUMPDEST PUSH1 0x0 PUSH2 0x1759 DUP3 DUP5 PUSH2 0x1547 JUMP JUMPDEST SWAP2 POP DUP2 SWAP1 POP SWAP3 SWAP2 POP POP JUMP JUMPDEST PUSH1 0x0 PUSH1 0x20 DUP3 ADD SWAP1 POP PUSH2 0x1779 PUSH1 0x0 DUP4 ADD DUP5 PUSH2 0x1503 JUMP JUMPDEST SWAP3 SWAP2 POP POP JUMP JUMPDEST PUSH1 0x0 PUSH1 0x60 DUP3 ADD SWAP1 POP PUSH2 0x1794 PUSH1 0x0 DUP4 ADD DUP7 PUSH2 0x1503 JUMP JUMPDEST PUSH2 0x17A1 PUSH1 0x20 DUP4 ADD DUP6 PUSH2 0x1503 JUMP JUMPDEST PUSH2 0x17AE PUSH1 0x40 DUP4 ADD DUP5 PUSH2 0x16FB JUMP JUMPDEST SWAP5 SWAP4 POP POP POP POP JUMP JUMPDEST PUSH1 0x0 PUSH1 0x40 DUP3 ADD SWAP1 POP PUSH2 0x17CB PUSH1 0x0 DUP4 ADD DUP6 PUSH2 0x1503 JUMP JUMPDEST PUSH2 0x17D8 PUSH1 0x20 DUP4 ADD DUP5 PUSH2 0x16FB JUMP JUMPDEST SWAP4 SWAP3 POP POP POP JUMP JUMPDEST PUSH1 0x0 PUSH1 0x20 DUP3 ADD SWAP1 POP PUSH2 0x17F4 PUSH1 0x0 DUP4 ADD DUP5 PUSH2 0x1529 JUMP JUMPDEST SWAP3 SWAP2 POP POP JUMP JUMPDEST PUSH1 0x0 PUSH1 0x20 DUP3 ADD SWAP1 POP PUSH2 0x180F PUSH1 0x0 DUP4 ADD DUP5 PUSH2 0x1538 JUMP JUMPDEST SWAP3 SWAP2 POP POP JUMP JUMPDEST PUSH1 0x0 PUSH1 0x20 DUP3 ADD SWAP1 POP PUSH2 0x182A PUSH1 0x0 DUP4 ADD DUP5 PUSH2 0x1578 JUMP JUMPDEST SWAP3 SWAP2 POP POP JUMP JUMPDEST PUSH1 0x0 PUSH1 0x20 DUP3 ADD SWAP1 POP DUP2 DUP2 SUB PUSH1 0x0 DUP4 ADD MSTORE PUSH2 0x184A DUP2 DUP5 PUSH2 0x1587 JUMP JUMPDEST SWAP1 POP SWAP3 SWAP2 POP POP JUMP JUMPDEST PUSH1 0x0 PUSH1 0x20 DUP3 ADD SWAP1 POP DUP2 DUP2 SUB PUSH1 0x0 DUP4 ADD MSTORE PUSH2 0x186B DUP2 PUSH2 0x15C0 JUMP JUMPDEST SWAP1 POP SWAP2 SWAP1 POP JUMP JUMPDEST PUSH1 0x0 PUSH1 0x20 DUP3 ADD SWAP1 POP DUP2 DUP2 SUB PUSH1 0x0 DUP4 ADD MSTORE PUSH2 0x188B DUP2 PUSH2 0x15E3 JUMP JUMPDEST SWAP1 POP SWAP2 SWAP1 POP JUMP JUMPDEST PUSH1 0x0 PUSH1 0x20 DUP3 ADD SWAP1 POP DUP2 DUP2 SUB PUSH1 0x0 DUP4 ADD MSTORE PUSH2 0x18AB DUP2 PUSH2 0x1606 JUMP JUMPDEST SWAP1 POP SWAP2 SWAP1 POP JUMP JUMPDEST PUSH1 0x0 PUSH1 0x20 DUP3 ADD SWAP1 POP DUP2 DUP2 SUB PUSH1 0x0 DUP4 ADD MSTORE PUSH2 0x18CB DUP2 PUSH2 0x1629 JUMP JUMPDEST SWAP1 POP SWAP2 SWAP1 POP JUMP JUMPDEST PUSH1 0x0 PUSH1 0x20 DUP3 ADD SWAP1 POP DUP2 DUP2 SUB PUSH1 0x0 DUP4 ADD MSTORE PUSH2 0x18EB DUP2 PUSH2 0x164C JUMP JUMPDEST SWAP1 POP SWAP2 SWAP1 POP JUMP JUMPDEST PUSH1 0x0 PUSH1 0x20 DUP3 ADD SWAP1 POP DUP2 DUP2 SUB PUSH1 0x0 DUP4 ADD MSTORE PUSH2 0x190B DUP2 PUSH2 0x166F JUMP JUMPDEST SWAP1 POP SWAP2 SWAP1 POP JUMP JUMPDEST PUSH1 0x0 PUSH1 0x20 DUP3 ADD SWAP1 POP DUP2 DUP2 SUB PUSH1 0x0 DUP4 ADD MSTORE PUSH2 0x192B DUP2 PUSH2 0x1692 JUMP JUMPDEST SWAP1 POP SWAP2 SWAP1 POP JUMP JUMPDEST PUSH1 0x0 PUSH1 0x20 DUP3 ADD SWAP1 POP DUP2 DUP2 SUB PUSH1 0x0 DUP4 ADD MSTORE PUSH2 0x194B DUP2 PUSH2 0x16B5 JUMP JUMPDEST SWAP1 POP SWAP2 SWAP1 POP JUMP JUMPDEST PUSH1 0x0 PUSH1 0x20 DUP3 ADD SWAP1 POP DUP2 DUP2 SUB PUSH1 0x0 DUP4 ADD MSTORE PUSH2 0x196B DUP2 PUSH2 0x16D8 JUMP JUMPDEST SWAP1 POP SWAP2 SWAP1 POP JUMP JUMPDEST PUSH1 0x0 PUSH1 0x20 DUP3 ADD SWAP1 POP PUSH2 0x1987 PUSH1 0x0 DUP4 ADD DUP5 PUSH2 0x16FB JUMP JUMPDEST SWAP3 SWAP2 POP POP JUMP JUMPDEST PUSH1 0x0 PUSH2 0x1997 PUSH2 0x19A8 JUMP JUMPDEST SWAP1 POP PUSH2 0x19A3 DUP3 DUP3 PUSH2 0x1BA5 JUMP JUMPDEST SWAP2 SWAP1 POP JUMP JUMPDEST PUSH1 0x0 PUSH1 0x40 MLOAD SWAP1 POP SWAP1 JUMP JUMPDEST PUSH1 0x0 PUSH8 0xFFFFFFFFFFFFFFFF DUP3 GT ISZERO PUSH2 0x19CD JUMPI PUSH2 0x19CC PUSH2 0x1CAB JUMP JUMPDEST JUMPDEST PUSH1 0x20 DUP3 MUL SWAP1 POP PUSH1 0x20 DUP2 ADD SWAP1 POP SWAP2 SWAP1 POP JUMP JUMPDEST PUSH1 0x0 PUSH8 0xFFFFFFFFFFFFFFFF DUP3 GT ISZERO PUSH2 0x19F9 JUMPI PUSH2 0x19F8 PUSH2 0x1CAB JUMP JUMPDEST JUMPDEST PUSH1 0x20 DUP3 MUL SWAP1 POP PUSH1 0x20 DUP2 ADD SWAP1 POP SWAP2 SWAP1 POP JUMP JUMPDEST PUSH1 0x0 PUSH8 0xFFFFFFFFFFFFFFFF DUP3 GT ISZERO PUSH2 0x1A25 JUMPI PUSH2 0x1A24 PUSH2 0x1CAB JUMP JUMPDEST JUMPDEST PUSH1 0x20 DUP3 MUL SWAP1 POP PUSH1 0x20 DUP2 ADD SWAP1 POP SWAP2 SWAP1 POP JUMP JUMPDEST PUSH1 0x0 PUSH8 0xFFFFFFFFFFFFFFFF DUP3 GT ISZERO PUSH2 0x1A51 JUMPI PUSH2 0x1A50 PUSH2 0x1CAB JUMP JUMPDEST JUMPDEST PUSH1 0x20 DUP3 MUL SWAP1 POP PUSH1 0x20 DUP2 ADD SWAP1 POP SWAP2 SWAP1 POP JUMP JUMPDEST PUSH1 0x0 DUP2 MLOAD SWAP1 POP SWAP2 SWAP1 POP JUMP JUMPDEST PUSH1 0x0 DUP2 MLOAD SWAP1 POP SWAP2 SWAP1 POP JUMP JUMPDEST PUSH1 0x0 DUP2 SWAP1 POP SWAP3 SWAP2 POP POP JUMP JUMPDEST PUSH1 0x0 DUP3 DUP3 MSTORE PUSH1 0x20 DUP3 ADD SWAP1 POP SWAP3 SWAP2 POP POP JUMP JUMPDEST PUSH1 0x0 PUSH2 0x1A9F DUP3 PUSH2 0x1B32 JUMP JUMPDEST SWAP2 POP PUSH2 0x1AAA DUP4 PUSH2 0x1B32 JUMP JUMPDEST SWAP3 POP DUP3 PUSH32 0xFFFFFFFFFFFFFFFFFFFFFFFFFFFFFFFFFFFFFFFFFFFFFFFFFFFFFFFFFFFFFFFF SUB DUP3 GT ISZERO PUSH2 0x1ADF JUMPI PUSH2 0x1ADE PUSH2 0x1C4D JUMP JUMPDEST JUMPDEST DUP3 DUP3 ADD SWAP1 POP SWAP3 SWAP2 POP POP JUMP JUMPDEST PUSH1 0x0 PUSH2 0x1AF5 DUP3 PUSH2 0x1B12 JUMP JUMPDEST SWAP1 POP SWAP2 SWAP1 POP JUMP JUMPDEST PUSH1 0x0 DUP2 ISZERO ISZERO SWAP1 POP SWAP2 SWAP1 POP JUMP JUMPDEST PUSH1 0x0 DUP2 SWAP1 POP SWAP2 SWAP1 POP JUMP JUMPDEST PUSH1 0x0 PUSH20 0xFFFFFFFFFFFFFFFFFFFFFFFFFFFFFFFFFFFFFFFF DUP3 AND SWAP1 POP SWAP2 SWAP1 POP JUMP JUMPDEST PUSH1 0x0 DUP2 SWAP1 POP SWAP2 SWAP1 POP JUMP JUMPDEST PUSH1 0x0 PUSH2 0x1B47 DUP3 PUSH2 0x1B4E JUMP JUMPDEST SWAP1 POP SWAP2 SWAP1 POP JUMP JUMPDEST PUSH1 0x0 PUSH2 0x1B59 DUP3 PUSH2 0x1B60 JUMP JUMPDEST SWAP1 POP SWAP2 SWAP1 POP JUMP JUMPDEST PUSH1 0x0 PUSH2 0x1B6B DUP3 PUSH2 0x1B12 JUMP JUMPDEST SWAP1 POP SWAP2 SWAP1 POP JUMP JUMPDEST PUSH1 0x0 JUMPDEST DUP4 DUP2 LT ISZERO PUSH2 0x1B90 JUMPI DUP1 DUP3 ADD MLOAD DUP2 DUP5 ADD MSTORE PUSH1 0x20 DUP2 ADD SWAP1 POP PUSH2 0x1B75 JUMP JUMPDEST DUP4 DUP2 GT ISZERO PUSH2 0x1B9F JUMPI PUSH1 0x0 DUP5 DUP5 ADD MSTORE JUMPDEST POP POP POP POP JUMP JUMPDEST PUSH2 0x1BAE DUP3 PUSH2 0x1CEE JUMP JUMPDEST DUP2 ADD DUP2 DUP2 LT PUSH8 0xFFFFFFFFFFFFFFFF DUP3 GT OR ISZERO PUSH2 0x1BCD JUMPI PUSH2 0x1BCC PUSH2 0x1CAB JUMP JUMPDEST JUMPDEST DUP1 PUSH1 0x40 MSTORE POP POP POP JUMP JUMPDEST PUSH1 0x0 PUSH2 0x1BE1 DUP3 PUSH2 0x1B32 JUMP JUMPDEST SWAP2 POP PUSH32 0xFFFFFFFFFFFFFFFFFFFFFFFFFFFFFFFFFFFFFFFFFFFFFFFFFFFFFFFFFFFFFFFF DUP3 EQ ISZERO PUSH2 0x1C14 JUMPI PUSH2 0x1C13 PUSH2 0x1C4D JUMP JUMPDEST JUMPDEST PUSH1 0x1 DUP3 ADD SWAP1 POP SWAP2 SWAP1 POP JUMP JUMPDEST PUSH1 0x0 PUSH2 0x1C2A DUP3 PUSH2 0x1C31 JUMP JUMPDEST SWAP1 POP SWAP2 SWAP1 POP JUMP JUMPDEST PUSH1 0x0 PUSH2 0x1C3C DUP3 PUSH2 0x1CFF JUMP JUMPDEST SWAP1 POP SWAP2 SWAP1 POP JUMP JUMPDEST PUSH1 0x0 DUP2 SWAP1 POP SWAP2 SWAP1 POP JUMP JUMPDEST PUSH32 0x4E487B7100000000000000000000000000000000000000000000000000000000 PUSH1 0x0 MSTORE PUSH1 0x11 PUSH1 0x4 MSTORE PUSH1 0x24 PUSH1 0x0 REVERT JUMPDEST PUSH32 0x4E487B7100000000000000000000000000000000000000000000000000000000 PUSH1 0x0 MSTORE PUSH1 0x32 PUSH1 0x4 MSTORE PUSH1 0x24 PUSH1 0x0 REVERT JUMPDEST PUSH32 0x4E487B7100000000000000000000000000000000000000000000000000000000 PUSH1 0x0 MSTORE PUSH1 0x41 PUSH1 0x4 MSTORE PUSH1 0x24 PUSH1 0x0 REVERT JUMPDEST PUSH1 0x0 DUP1 REVERT JUMPDEST PUSH1 0x0 DUP1 REVERT JUMPDEST PUSH1 0x0 DUP1 REVERT JUMPDEST PUSH1 0x0 DUP1 REVERT JUMPDEST PUSH1 0x0 PUSH1 0x1F NOT PUSH1 0x1F DUP4 ADD AND SWAP1 POP SWAP2 SWAP1 POP JUMP JUMPDEST PUSH1 0x0 DUP2 PUSH1 0x60 SHL SWAP1 POP SWAP2 SWAP1 POP JUMP JUMPDEST PUSH32 0x4F776E61626C653A206E6577206F776E657220697320746865207A65726F2061 PUSH1 0x0 DUP3 ADD MSTORE PUSH32 0x6464726573730000000000000000000000000000000000000000000000000000 PUSH1 0x20 DUP3 ADD MSTORE POP JUMP JUMPDEST PUSH32 0x496E636F7272656374206D65726B6C652070726F6F6600000000000000000000 PUSH1 0x0 DUP3 ADD MSTORE POP JUMP JUMPDEST PUSH32 0x416464726573733A20696E73756666696369656E742062616C616E636520666F PUSH1 0x0 DUP3 ADD MSTORE PUSH32 0x722063616C6C0000000000000000000000000000000000000000000000000000 PUSH1 0x20 DUP3 ADD MSTORE POP JUMP JUMPDEST PUSH32 0x4F776E61626C653A2063616C6C6572206973206E6F7420746865206F776E6572 PUSH1 0x0 DUP3 ADD MSTORE POP JUMP JUMPDEST PUSH32 0x4E6F2062616C616E636520776F756C64206265207472616E7366657272656420 PUSH1 0x0 DUP3 ADD MSTORE PUSH32 0x2D206E6F7420676F696E6720746F20776173746520796F757220676173000000 PUSH1 0x20 DUP3 ADD MSTORE POP JUMP JUMPDEST PUSH32 0x4C502068617320616C726561647920636C61696D656400000000000000000000 PUSH1 0x0 DUP3 ADD MSTORE POP JUMP JUMPDEST PUSH32 0x416464726573733A2063616C6C20746F206E6F6E2D636F6E7472616374000000 PUSH1 0x0 DUP3 ADD MSTORE POP JUMP JUMPDEST PUSH32 0x4D69736D61746368696E6720696E707574730000000000000000000000000000 PUSH1 0x0 DUP3 ADD MSTORE POP JUMP JUMPDEST PUSH32 0x5361666545524332303A204552433230206F7065726174696F6E20646964206E PUSH1 0x0 DUP3 ADD MSTORE PUSH32 0x6F74207375636365656400000000000000000000000000000000000000000000 PUSH1 0x20 DUP3 ADD MSTORE POP JUMP JUMPDEST PUSH2 0x1F1E DUP2 PUSH2 0x1AEA JUMP JUMPDEST DUP2 EQ PUSH2 0x1F29 JUMPI PUSH1 0x0 DUP1 REVERT JUMPDEST POP JUMP JUMPDEST PUSH2 0x1F35 DUP2 PUSH2 0x1AFC JUMP JUMPDEST DUP2 EQ PUSH2 0x1F40 JUMPI PUSH1 0x0 DUP1 REVERT JUMPDEST POP JUMP JUMPDEST PUSH2 0x1F4C DUP2 PUSH2 0x1B08 JUMP JUMPDEST DUP2 EQ PUSH2 0x1F57 JUMPI PUSH1 0x0 DUP1 REVERT JUMPDEST POP JUMP JUMPDEST PUSH2 0x1F63 DUP2 PUSH2 0x1B32 JUMP JUMPDEST DUP2 EQ PUSH2 0x1F6E JUMPI PUSH1 0x0 DUP1 REVERT JUMPDEST POP JUMP INVALID LOG2 PUSH5 0x6970667358 0x22 SLT KECCAK256 0xAD DELEGATECALL PUSH5 0x56EDD485CB 0xCD PUSH13 0xB15EF5C5F85FD117848FC549E SWAP15 STATICCALL PUSH7 0xB3BB0063793E64 PUSH20 0x6F6C634300080700330000000000000000000000 "
				},
				"gasEstimates": {
					"creation": {
						"codeDepositCost": "1620600",
						"executionCost": "infinite",
						"totalCost": "infinite"
					},
					"external": {
						"claimWeek(address,uint256)": "infinite",
						"claimWeeks(address,uint256[],uint256[],bytes32[][])": "infinite",
						"claimed(uint256,address)": "3088",
						"expireTranche(uint256)": "infinite",
						"merkleRoots(uint256)": "2832",
						"owner()": "2611",
						"recipients(address)": "2836",
						"renounceOwnership()": "30419",
						"seedNewAllocations(address[],uint256[],uint256)": "infinite",
						"token()": "2688",
						"tranches()": "2473",
						"transferOwnership(address)": "30789",
						"verifyClaim(address,uint256,uint256,bytes32[])": "infinite"
					},
					"internal": {
						"_claimWeek(address,uint256)": "infinite",
						"_disburse(address,uint256)": "infinite",
						"_verifyClaim(address,uint256,uint256,bytes32[] memory)": "infinite"
					}
				},
				"methodIdentifiers": {
					"claimWeek(address,uint256)": "554d2761",
					"claimWeeks(address,uint256[],uint256[],bytes32[][])": "ba593714",
					"claimed(uint256,address)": "120aa877",
					"expireTranche(uint256)": "d5efd20a",
					"merkleRoots(uint256)": "71c5ecb1",
					"owner()": "8da5cb5b",
					"recipients(address)": "eb820312",
					"renounceOwnership()": "715018a6",
					"seedNewAllocations(address[],uint256[],uint256)": "cf9aa8cc",
					"token()": "fc0c546a",
					"tranches()": "ebf04917",
					"transferOwnership(address)": "f2fde38b",
					"verifyClaim(address,uint256,uint256,bytes32[])": "eb0d07f5"
				}
			},
			"storageLayout": {
				"storage": [
					{
						"astId": 7,
						"contract": "contracts/MTMSAirdrop.sol:MTMSAirdrop",
						"label": "_owner",
						"offset": 0,
						"slot": "0",
						"type": "t_address"
					},
					{
						"astId": 1247,
						"contract": "contracts/MTMSAirdrop.sol:MTMSAirdrop",
						"label": "token",
						"offset": 0,
						"slot": "1",
						"type": "t_contract(IERC20)256"
					},
					{
						"astId": 1251,
						"contract": "contracts/MTMSAirdrop.sol:MTMSAirdrop",
						"label": "recipients",
						"offset": 0,
						"slot": "2",
						"type": "t_mapping(t_address,t_uint256)"
					},
					{
						"astId": 1255,
						"contract": "contracts/MTMSAirdrop.sol:MTMSAirdrop",
						"label": "merkleRoots",
						"offset": 0,
						"slot": "3",
						"type": "t_mapping(t_uint256,t_bytes32)"
					},
					{
						"astId": 1261,
						"contract": "contracts/MTMSAirdrop.sol:MTMSAirdrop",
						"label": "claimed",
						"offset": 0,
						"slot": "4",
						"type": "t_mapping(t_uint256,t_mapping(t_address,t_bool))"
					},
					{
						"astId": 1263,
						"contract": "contracts/MTMSAirdrop.sol:MTMSAirdrop",
						"label": "tranches",
						"offset": 0,
						"slot": "5",
						"type": "t_uint256"
					}
				],
				"types": {
					"t_address": {
						"encoding": "inplace",
						"label": "address",
						"numberOfBytes": "20"
					},
					"t_bool": {
						"encoding": "inplace",
						"label": "bool",
						"numberOfBytes": "1"
					},
					"t_bytes32": {
						"encoding": "inplace",
						"label": "bytes32",
						"numberOfBytes": "32"
					},
					"t_contract(IERC20)256": {
						"encoding": "inplace",
						"label": "contract IERC20",
						"numberOfBytes": "20"
					},
					"t_mapping(t_address,t_bool)": {
						"encoding": "mapping",
						"key": "t_address",
						"label": "mapping(address => bool)",
						"numberOfBytes": "32",
						"value": "t_bool"
					},
					"t_mapping(t_address,t_uint256)": {
						"encoding": "mapping",
						"key": "t_address",
						"label": "mapping(address => uint256)",
						"numberOfBytes": "32",
						"value": "t_uint256"
					},
					"t_mapping(t_uint256,t_bytes32)": {
						"encoding": "mapping",
						"key": "t_uint256",
						"label": "mapping(uint256 => bytes32)",
						"numberOfBytes": "32",
						"value": "t_bytes32"
					},
					"t_mapping(t_uint256,t_mapping(t_address,t_bool))": {
						"encoding": "mapping",
						"key": "t_uint256",
						"label": "mapping(uint256 => mapping(address => bool))",
						"numberOfBytes": "32",
						"value": "t_mapping(t_address,t_bool)"
					},
					"t_uint256": {
						"encoding": "inplace",
						"label": "uint256",
						"numberOfBytes": "32"
					}
				}
			},
			"userdoc": {
				"kind": "user",
				"methods": {},
				"version": 1
			}
		}
	}
}