{
	"contracts/token/ERC20/MTMSAirdrop.sol": {
		"MTMSAirdrop": {
			"abi": [
				{
					"inputs": [
						{
							"internalType": "contract IERC20",
							"name": "_token",
							"type": "address"
						}
					],
					"stateMutability": "nonpayable",
					"type": "constructor"
				},
				{
					"anonymous": false,
					"inputs": [
						{
							"indexed": false,
							"internalType": "address",
							"name": "claimant",
							"type": "address"
						},
						{
							"indexed": false,
							"internalType": "uint256",
							"name": "week",
							"type": "uint256"
						},
						{
							"indexed": false,
							"internalType": "uint256",
							"name": "balance",
							"type": "uint256"
						}
					],
					"name": "Claimed",
					"type": "event"
				},
				{
					"anonymous": false,
					"inputs": [
						{
							"indexed": true,
							"internalType": "address",
							"name": "previousOwner",
							"type": "address"
						},
						{
							"indexed": true,
							"internalType": "address",
							"name": "newOwner",
							"type": "address"
						}
					],
					"name": "OwnershipTransferred",
					"type": "event"
				},
				{
					"anonymous": false,
					"inputs": [
						{
							"indexed": true,
							"internalType": "address",
							"name": "_address",
							"type": "address"
						}
					],
					"name": "RemovedFunder",
					"type": "event"
				},
				{
					"anonymous": false,
					"inputs": [
						{
							"indexed": false,
							"internalType": "uint256",
							"name": "tranche",
							"type": "uint256"
						},
						{
							"indexed": false,
							"internalType": "bytes32",
							"name": "merkleRoot",
							"type": "bytes32"
						},
						{
							"indexed": false,
							"internalType": "uint256",
							"name": "totalAmount",
							"type": "uint256"
						}
					],
					"name": "TrancheAdded",
					"type": "event"
				},
				{
					"anonymous": false,
					"inputs": [
						{
							"indexed": false,
							"internalType": "uint256",
							"name": "tranche",
							"type": "uint256"
						}
					],
					"name": "TrancheExpired",
					"type": "event"
				},
				{
					"inputs": [
						{
							"internalType": "address",
							"name": "_liquidityProvider",
							"type": "address"
						},
						{
							"internalType": "uint256",
							"name": "_tranche",
							"type": "uint256"
						},
						{
							"internalType": "uint256",
							"name": "_balance",
							"type": "uint256"
						},
						{
							"internalType": "bytes32[]",
							"name": "_merkleProof",
							"type": "bytes32[]"
						}
					],
					"name": "claimWeek",
					"outputs": [],
					"stateMutability": "nonpayable",
					"type": "function"
				},
				{
					"inputs": [
						{
							"internalType": "address",
							"name": "_liquidityProvider",
							"type": "address"
						},
						{
							"internalType": "uint256[]",
							"name": "_tranches",
							"type": "uint256[]"
						},
						{
							"internalType": "uint256[]",
							"name": "_balances",
							"type": "uint256[]"
						},
						{
							"internalType": "bytes32[][]",
							"name": "_merkleProofs",
							"type": "bytes32[][]"
						}
					],
					"name": "claimWeeks",
					"outputs": [],
					"stateMutability": "nonpayable",
					"type": "function"
				},
				{
					"inputs": [
						{
							"internalType": "uint256",
							"name": "",
							"type": "uint256"
						},
						{
							"internalType": "address",
							"name": "",
							"type": "address"
						}
					],
					"name": "claimed",
					"outputs": [
						{
							"internalType": "bool",
							"name": "",
							"type": "bool"
						}
					],
					"stateMutability": "view",
					"type": "function"
				},
				{
					"inputs": [
						{
							"internalType": "uint256",
							"name": "_trancheId",
							"type": "uint256"
						}
					],
					"name": "expireTranche",
					"outputs": [],
					"stateMutability": "nonpayable",
					"type": "function"
				},
				{
					"inputs": [
						{
							"internalType": "uint256",
							"name": "",
							"type": "uint256"
						}
					],
					"name": "merkleRoots",
					"outputs": [
						{
							"internalType": "bytes32",
							"name": "",
							"type": "bytes32"
						}
					],
					"stateMutability": "view",
					"type": "function"
				},
				{
					"inputs": [],
					"name": "owner",
					"outputs": [
						{
							"internalType": "address",
							"name": "",
							"type": "address"
						}
					],
					"stateMutability": "view",
					"type": "function"
				},
				{
					"inputs": [
						{
							"internalType": "address[]",
							"name": "_address",
							"type": "address[]"
						},
						{
							"internalType": "uint256[]",
							"name": "_amount",
							"type": "uint256[]"
						},
						{
							"internalType": "uint256",
							"name": "_totalAllocation",
							"type": "uint256"
						}
					],
					"name": "seedNewAllocations",
					"outputs": [],
					"stateMutability": "nonpayable",
					"type": "function"
				},
				{
					"inputs": [],
					"name": "token",
					"outputs": [
						{
							"internalType": "contract IERC20",
							"name": "",
							"type": "address"
						}
					],
					"stateMutability": "view",
					"type": "function"
				},
				{
					"inputs": [],
					"name": "tranches",
					"outputs": [
						{
							"internalType": "uint256",
							"name": "",
							"type": "uint256"
						}
					],
					"stateMutability": "view",
					"type": "function"
				},
				{
					"inputs": [
						{
							"internalType": "address",
							"name": "newOwner",
							"type": "address"
						}
					],
					"name": "transferOwnership",
					"outputs": [],
					"stateMutability": "nonpayable",
					"type": "function"
				},
				{
					"inputs": [
						{
							"internalType": "uint256",
							"name": "",
							"type": "uint256"
						}
					],
					"name": "user_result",
					"outputs": [
						{
							"internalType": "address",
							"name": "",
							"type": "address"
						}
					],
					"stateMutability": "view",
					"type": "function"
				},
				{
					"inputs": [
						{
							"internalType": "address",
							"name": "_liquidityProvider",
							"type": "address"
						},
						{
							"internalType": "uint256",
							"name": "_tranche",
							"type": "uint256"
						},
						{
							"internalType": "uint256",
							"name": "_balance",
							"type": "uint256"
						},
						{
							"internalType": "bytes32[]",
							"name": "_merkleProof",
							"type": "bytes32[]"
						}
					],
					"name": "verifyClaim",
					"outputs": [
						{
							"internalType": "bool",
							"name": "valid",
							"type": "bool"
						}
					],
					"stateMutability": "view",
					"type": "function"
				}
			],
			"devdoc": {
				"kind": "dev",
				"methods": {
					"transferOwnership(address)": {
						"details": "Allows the current owner to transfer control of the contract to a newOwner.",
						"params": {
							"newOwner": "The address to transfer ownership to."
						}
					}
				},
				"version": 1
			},
			"evm": {
				"assembly": "    /* \"contracts/token/ERC20/MTMSAirdrop.sol\":244:4113  contract MTMSAirdrop is Ownable {\r... */\n  mstore(0x40, 0x80)\n    /* \"contracts/token/ERC20/MTMSAirdrop.sol\":939:1006  constructor(IERC20 _token) public {\r... */\n  callvalue\n  dup1\n  iszero\n  tag_1\n  jumpi\n  0x00\n  dup1\n  revert\ntag_1:\n  pop\n  mload(0x40)\n  sub(codesize, bytecodeSize)\n  dup1\n  bytecodeSize\n  dup4\n  codecopy\n  dup2\n  dup2\n  add\n  0x40\n  mstore\n  dup2\n  add\n  swap1\n  tag_2\n  swap2\n  swap1\n  tag_3\n  jump\t// in\ntag_2:\n    /* \"contracts/token/ERC20/Ownable.sol\":328:338  msg.sender */\n  caller\n    /* \"contracts/token/ERC20/Ownable.sol\":320:325  owner */\n  0x00\n  dup1\n    /* \"contracts/token/ERC20/Ownable.sol\":320:338  owner = msg.sender */\n  0x0100\n  exp\n  dup2\n  sload\n  dup2\n  0xffffffffffffffffffffffffffffffffffffffff\n  mul\n  not\n  and\n  swap1\n  dup4\n  0xffffffffffffffffffffffffffffffffffffffff\n  and\n  mul\n  or\n  swap1\n  sstore\n  pop\n    /* \"contracts/token/ERC20/MTMSAirdrop.sol\":992:998  _token */\n  dup1\n    /* \"contracts/token/ERC20/MTMSAirdrop.sol\":984:989  token */\n  0x03\n  0x00\n    /* \"contracts/token/ERC20/MTMSAirdrop.sol\":984:998  token = _token */\n  0x0100\n  exp\n  dup2\n  sload\n  dup2\n  0xffffffffffffffffffffffffffffffffffffffff\n  mul\n  not\n  and\n  swap1\n  dup4\n  0xffffffffffffffffffffffffffffffffffffffff\n  and\n  mul\n  or\n  swap1\n  sstore\n  pop\n    /* \"contracts/token/ERC20/MTMSAirdrop.sol\":939:1006  constructor(IERC20 _token) public {\r... */\n  pop\n    /* \"contracts/token/ERC20/MTMSAirdrop.sol\":244:4113  contract MTMSAirdrop is Ownable {\r... */\n  jump(tag_8)\n    /* \"#utility.yul\":7:178   */\ntag_10:\n    /* \"#utility.yul\":78:83   */\n  0x00\n    /* \"#utility.yul\":109:115   */\n  dup2\n    /* \"#utility.yul\":103:116   */\n  mload\n    /* \"#utility.yul\":94:116   */\n  swap1\n  pop\n    /* \"#utility.yul\":125:172   */\n  tag_12\n    /* \"#utility.yul\":166:171   */\n  dup2\n    /* \"#utility.yul\":125:172   */\n  tag_13\n  jump\t// in\ntag_12:\n    /* \"#utility.yul\":7:178   */\n  swap3\n  swap2\n  pop\n  pop\n  jump\t// out\n    /* \"#utility.yul\":184:563   */\ntag_3:\n    /* \"#utility.yul\":268:274   */\n  0x00\n    /* \"#utility.yul\":317:319   */\n  0x20\n    /* \"#utility.yul\":305:314   */\n  dup3\n    /* \"#utility.yul\":296:303   */\n  dup5\n    /* \"#utility.yul\":292:315   */\n  sub\n    /* \"#utility.yul\":288:320   */\n  slt\n    /* \"#utility.yul\":285:404   */\n  iszero\n  tag_15\n  jumpi\n    /* \"#utility.yul\":323:402   */\n  tag_16\n  tag_17\n  jump\t// in\ntag_16:\n    /* \"#utility.yul\":285:404   */\ntag_15:\n    /* \"#utility.yul\":443:444   */\n  0x00\n    /* \"#utility.yul\":468:546   */\n  tag_18\n    /* \"#utility.yul\":538:545   */\n  dup5\n    /* \"#utility.yul\":529:535   */\n  dup3\n    /* \"#utility.yul\":518:527   */\n  dup6\n    /* \"#utility.yul\":514:536   */\n  add\n    /* \"#utility.yul\":468:546   */\n  tag_10\n  jump\t// in\ntag_18:\n    /* \"#utility.yul\":458:546   */\n  swap2\n  pop\n    /* \"#utility.yul\":414:556   */\n  pop\n    /* \"#utility.yul\":184:563   */\n  swap3\n  swap2\n  pop\n  pop\n  jump\t// out\n    /* \"#utility.yul\":650:746   */\ntag_21:\n    /* \"#utility.yul\":687:694   */\n  0x00\n    /* \"#utility.yul\":716:740   */\n  tag_23\n    /* \"#utility.yul\":734:739   */\n  dup3\n    /* \"#utility.yul\":716:740   */\n  tag_24\n  jump\t// in\ntag_23:\n    /* \"#utility.yul\":705:740   */\n  swap1\n  pop\n    /* \"#utility.yul\":650:746   */\n  swap2\n  swap1\n  pop\n  jump\t// out\n    /* \"#utility.yul\":752:862   */\ntag_25:\n    /* \"#utility.yul\":803:810   */\n  0x00\n    /* \"#utility.yul\":832:856   */\n  tag_27\n    /* \"#utility.yul\":850:855   */\n  dup3\n    /* \"#utility.yul\":832:856   */\n  tag_21\n  jump\t// in\ntag_27:\n    /* \"#utility.yul\":821:856   */\n  swap1\n  pop\n    /* \"#utility.yul\":752:862   */\n  swap2\n  swap1\n  pop\n  jump\t// out\n    /* \"#utility.yul\":868:994   */\ntag_24:\n    /* \"#utility.yul\":905:912   */\n  0x00\n    /* \"#utility.yul\":945:987   */\n  0xffffffffffffffffffffffffffffffffffffffff\n    /* \"#utility.yul\":938:943   */\n  dup3\n    /* \"#utility.yul\":934:988   */\n  and\n    /* \"#utility.yul\":923:988   */\n  swap1\n  pop\n    /* \"#utility.yul\":868:994   */\n  swap2\n  swap1\n  pop\n  jump\t// out\n    /* \"#utility.yul\":1123:1240   */\ntag_17:\n    /* \"#utility.yul\":1232:1233   */\n  0x00\n    /* \"#utility.yul\":1229:1230   */\n  dup1\n    /* \"#utility.yul\":1222:1234   */\n  revert\n    /* \"#utility.yul\":1246:1396   */\ntag_13:\n    /* \"#utility.yul\":1333:1371   */\n  tag_33\n    /* \"#utility.yul\":1365:1370   */\n  dup2\n    /* \"#utility.yul\":1333:1371   */\n  tag_25\n  jump\t// in\ntag_33:\n    /* \"#utility.yul\":1326:1331   */\n  dup2\n    /* \"#utility.yul\":1323:1372   */\n  eq\n    /* \"#utility.yul\":1313:1390   */\n  tag_34\n  jumpi\n    /* \"#utility.yul\":1386:1387   */\n  0x00\n    /* \"#utility.yul\":1383:1384   */\n  dup1\n    /* \"#utility.yul\":1376:1388   */\n  revert\n    /* \"#utility.yul\":1313:1390   */\ntag_34:\n    /* \"#utility.yul\":1246:1396   */\n  pop\n  jump\t// out\n    /* \"contracts/token/ERC20/MTMSAirdrop.sol\":244:4113  contract MTMSAirdrop is Ownable {\r... */\ntag_8:\n  dataSize(sub_0)\n  dup1\n  dataOffset(sub_0)\n  0x00\n  codecopy\n  0x00\n  return\nstop\n\nsub_0: assembly {\n        /* \"contracts/token/ERC20/MTMSAirdrop.sol\":244:4113  contract MTMSAirdrop is Ownable {\r... */\n      mstore(0x40, 0x80)\n      callvalue\n      dup1\n      iszero\n      tag_1\n      jumpi\n      0x00\n      dup1\n      revert\n    tag_1:\n      pop\n      jumpi(tag_2, lt(calldatasize, 0x04))\n      shr(0xe0, calldataload(0x00))\n      dup1\n      0xcf9aa8cc\n      gt\n      tag_15\n      jumpi\n      dup1\n      0xcf9aa8cc\n      eq\n      tag_9\n      jumpi\n      dup1\n      0xd5efd20a\n      eq\n      tag_10\n      jumpi\n      dup1\n      0xeb0d07f5\n      eq\n      tag_11\n      jumpi\n      dup1\n      0xebf04917\n      eq\n      tag_12\n      jumpi\n      dup1\n      0xf2fde38b\n      eq\n      tag_13\n      jumpi\n      dup1\n      0xfc0c546a\n      eq\n      tag_14\n      jumpi\n      jump(tag_2)\n    tag_15:\n      dup1\n      0x120aa877\n      eq\n      tag_3\n      jumpi\n      dup1\n      0x58b4e4b4\n      eq\n      tag_4\n      jumpi\n      dup1\n      0x71c5ecb1\n      eq\n      tag_5\n      jumpi\n      dup1\n      0x8da5cb5b\n      eq\n      tag_6\n      jumpi\n      dup1\n      0x90c051e6\n      eq\n      tag_7\n      jumpi\n      dup1\n      0xba593714\n      eq\n      tag_8\n      jumpi\n    tag_2:\n      0x00\n      dup1\n      revert\n        /* \"contracts/token/ERC20/MTMSAirdrop.sol\":841:900  mapping(uint256 => mapping(address => bool)) public claimed */\n    tag_3:\n      tag_16\n      0x04\n      dup1\n      calldatasize\n      sub\n      dup2\n      add\n      swap1\n      tag_17\n      swap2\n      swap1\n      tag_18\n      jump\t// in\n    tag_17:\n      tag_19\n      jump\t// in\n    tag_16:\n      mload(0x40)\n      tag_20\n      swap2\n      swap1\n      tag_21\n      jump\t// in\n    tag_20:\n      mload(0x40)\n      dup1\n      swap2\n      sub\n      swap1\n      return\n        /* \"contracts/token/ERC20/MTMSAirdrop.sol\":1528:1839  function claimWeek(\r... */\n    tag_4:\n      tag_22\n      0x04\n      dup1\n      calldatasize\n      sub\n      dup2\n      add\n      swap1\n      tag_23\n      swap2\n      swap1\n      tag_24\n      jump\t// in\n    tag_23:\n      tag_25\n      jump\t// in\n    tag_22:\n      stop\n        /* \"contracts/token/ERC20/MTMSAirdrop.sol\":788:834  mapping(uint256 => bytes32) public merkleRoots */\n    tag_5:\n      tag_26\n      0x04\n      dup1\n      calldatasize\n      sub\n      dup2\n      add\n      swap1\n      tag_27\n      swap2\n      swap1\n      tag_28\n      jump\t// in\n    tag_27:\n      tag_29\n      jump\t// in\n    tag_26:\n      mload(0x40)\n      tag_30\n      swap2\n      swap1\n      tag_31\n      jump\t// in\n    tag_30:\n      mload(0x40)\n      dup1\n      swap2\n      sub\n      swap1\n      return\n        /* \"contracts/token/ERC20/Ownable.sol\":51:71  address public owner */\n    tag_6:\n      tag_32\n      tag_33\n      jump\t// in\n    tag_32:\n      mload(0x40)\n      tag_34\n      swap2\n      swap1\n      tag_35\n      jump\t// in\n    tag_34:\n      mload(0x40)\n      dup1\n      swap2\n      sub\n      swap1\n      return\n        /* \"contracts/token/ERC20/MTMSAirdrop.sol\":472:500  address[] public user_result */\n    tag_7:\n      tag_36\n      0x04\n      dup1\n      calldatasize\n      sub\n      dup2\n      add\n      swap1\n      tag_37\n      swap2\n      swap1\n      tag_28\n      jump\t// in\n    tag_37:\n      tag_38\n      jump\t// in\n    tag_36:\n      mload(0x40)\n      tag_39\n      swap2\n      swap1\n      tag_35\n      jump\t// in\n    tag_39:\n      mload(0x40)\n      dup1\n      swap2\n      sub\n      swap1\n      return\n        /* \"contracts/token/ERC20/MTMSAirdrop.sol\":1849:2493  function claimWeeks(\r... */\n    tag_8:\n      tag_40\n      0x04\n      dup1\n      calldatasize\n      sub\n      dup2\n      add\n      swap1\n      tag_41\n      swap2\n      swap1\n      tag_42\n      jump\t// in\n    tag_41:\n      tag_43\n      jump\t// in\n    tag_40:\n      stop\n        /* \"contracts/token/ERC20/MTMSAirdrop.sol\":1014:1330  function seedNewAllocations(address[] memory _address,uint256[] memory _amount, uint256 _totalAllocation)\r... */\n    tag_9:\n      tag_44\n      0x04\n      dup1\n      calldatasize\n      sub\n      dup2\n      add\n      swap1\n      tag_45\n      swap2\n      swap1\n      tag_46\n      jump\t// in\n    tag_45:\n      tag_47\n      jump\t// in\n    tag_44:\n      stop\n        /* \"contracts/token/ERC20/MTMSAirdrop.sol\":1338:1520  function expireTranche(uint256 _trancheId)\r... */\n    tag_10:\n      tag_48\n      0x04\n      dup1\n      calldatasize\n      sub\n      dup2\n      add\n      swap1\n      tag_49\n      swap2\n      swap1\n      tag_28\n      jump\t// in\n    tag_49:\n      tag_50\n      jump\t// in\n    tag_48:\n      stop\n        /* \"contracts/token/ERC20/MTMSAirdrop.sol\":2503:2819  function verifyClaim(\r... */\n    tag_11:\n      tag_51\n      0x04\n      dup1\n      calldatasize\n      sub\n      dup2\n      add\n      swap1\n      tag_52\n      swap2\n      swap1\n      tag_24\n      jump\t// in\n    tag_52:\n      tag_53\n      jump\t// in\n    tag_51:\n      mload(0x40)\n      tag_54\n      swap2\n      swap1\n      tag_21\n      jump\t// in\n    tag_54:\n      mload(0x40)\n      dup1\n      swap2\n      sub\n      swap1\n      return\n        /* \"contracts/token/ERC20/MTMSAirdrop.sol\":907:930  uint256 public tranches */\n    tag_12:\n      tag_55\n      tag_56\n      jump\t// in\n    tag_55:\n      mload(0x40)\n      tag_57\n      swap2\n      swap1\n      tag_58\n      jump\t// in\n    tag_57:\n      mload(0x40)\n      dup1\n      swap2\n      sub\n      swap1\n      return\n        /* \"contracts/token/ERC20/Ownable.sol\":670:848  function transferOwnership(address newOwner) onlyOwner public {\r... */\n    tag_13:\n      tag_59\n      0x04\n      dup1\n      calldatasize\n      sub\n      dup2\n      add\n      swap1\n      tag_60\n      swap2\n      swap1\n      tag_61\n      jump\t// in\n    tag_60:\n      tag_62\n      jump\t// in\n    tag_59:\n      stop\n        /* \"contracts/token/ERC20/MTMSAirdrop.sol\":760:779  IERC20 public token */\n    tag_14:\n      tag_63\n      tag_64\n      jump\t// in\n    tag_63:\n      mload(0x40)\n      tag_65\n      swap2\n      swap1\n      tag_66\n      jump\t// in\n    tag_65:\n      mload(0x40)\n      dup1\n      swap2\n      sub\n      swap1\n      return\n        /* \"contracts/token/ERC20/MTMSAirdrop.sol\":841:900  mapping(uint256 => mapping(address => bool)) public claimed */\n    tag_19:\n      mstore(0x20, 0x05)\n      dup2\n      0x00\n      mstore\n      mstore(0x20, keccak256(0x00, 0x40))\n      dup1\n      0x00\n      mstore\n      keccak256(0x00, 0x40)\n      0x00\n      swap2\n      pop\n      swap2\n      pop\n      swap1\n      sload\n      swap1\n      0x0100\n      exp\n      swap1\n      div\n      0xff\n      and\n      dup2\n      jump\t// out\n        /* \"contracts/token/ERC20/MTMSAirdrop.sol\":1528:1839  function claimWeek(\r... */\n    tag_25:\n        /* \"contracts/token/ERC20/MTMSAirdrop.sol\":1717:1781  _claimWeek(_liquidityProvider, _tranche, _balance, _merkleProof) */\n      tag_68\n        /* \"contracts/token/ERC20/MTMSAirdrop.sol\":1728:1746  _liquidityProvider */\n      dup5\n        /* \"contracts/token/ERC20/MTMSAirdrop.sol\":1748:1756  _tranche */\n      dup5\n        /* \"contracts/token/ERC20/MTMSAirdrop.sol\":1758:1766  _balance */\n      dup5\n        /* \"contracts/token/ERC20/MTMSAirdrop.sol\":1768:1780  _merkleProof */\n      dup5\n        /* \"contracts/token/ERC20/MTMSAirdrop.sol\":1717:1727  _claimWeek */\n      tag_69\n        /* \"contracts/token/ERC20/MTMSAirdrop.sol\":1717:1781  _claimWeek(_liquidityProvider, _tranche, _balance, _merkleProof) */\n      jump\t// in\n    tag_68:\n        /* \"contracts/token/ERC20/MTMSAirdrop.sol\":1792:1831  _disburse(_liquidityProvider, _balance) */\n      tag_70\n        /* \"contracts/token/ERC20/MTMSAirdrop.sol\":1802:1820  _liquidityProvider */\n      dup5\n        /* \"contracts/token/ERC20/MTMSAirdrop.sol\":1822:1830  _balance */\n      dup4\n        /* \"contracts/token/ERC20/MTMSAirdrop.sol\":1792:1801  _disburse */\n      tag_71\n        /* \"contracts/token/ERC20/MTMSAirdrop.sol\":1792:1831  _disburse(_liquidityProvider, _balance) */\n      jump\t// in\n    tag_70:\n        /* \"contracts/token/ERC20/MTMSAirdrop.sol\":1528:1839  function claimWeek(\r... */\n      pop\n      pop\n      pop\n      pop\n      jump\t// out\n        /* \"contracts/token/ERC20/MTMSAirdrop.sol\":788:834  mapping(uint256 => bytes32) public merkleRoots */\n    tag_29:\n      mstore(0x20, 0x04)\n      dup1\n      0x00\n      mstore\n      keccak256(0x00, 0x40)\n      0x00\n      swap2\n      pop\n      swap1\n      pop\n      sload\n      dup2\n      jump\t// out\n        /* \"contracts/token/ERC20/Ownable.sol\":51:71  address public owner */\n    tag_33:\n      0x00\n      dup1\n      sload\n      swap1\n      0x0100\n      exp\n      swap1\n      div\n      0xffffffffffffffffffffffffffffffffffffffff\n      and\n      dup2\n      jump\t// out\n        /* \"contracts/token/ERC20/MTMSAirdrop.sol\":472:500  address[] public user_result */\n    tag_38:\n      0x02\n      dup2\n      dup2\n      sload\n      dup2\n      lt\n      tag_72\n      jumpi\n      0x00\n      dup1\n      revert\n    tag_72:\n      swap1\n      0x00\n      mstore\n      keccak256(0x00, 0x20)\n      add\n      0x00\n      swap2\n      pop\n      sload\n      swap1\n      0x0100\n      exp\n      swap1\n      div\n      0xffffffffffffffffffffffffffffffffffffffff\n      and\n      dup2\n      jump\t// out\n        /* \"contracts/token/ERC20/MTMSAirdrop.sol\":1849:2493  function claimWeeks(\r... */\n    tag_43:\n        /* \"contracts/token/ERC20/MTMSAirdrop.sol\":2062:2073  uint256 len */\n      0x00\n        /* \"contracts/token/ERC20/MTMSAirdrop.sol\":2076:2085  _tranches */\n      dup4\n        /* \"contracts/token/ERC20/MTMSAirdrop.sol\":2076:2092  _tranches.length */\n      mload\n        /* \"contracts/token/ERC20/MTMSAirdrop.sol\":2062:2092  uint256 len = _tranches.length */\n      swap1\n      pop\n        /* \"contracts/token/ERC20/MTMSAirdrop.sol\":2118:2127  _balances */\n      dup3\n        /* \"contracts/token/ERC20/MTMSAirdrop.sol\":2118:2134  _balances.length */\n      mload\n        /* \"contracts/token/ERC20/MTMSAirdrop.sol\":2111:2114  len */\n      dup2\n        /* \"contracts/token/ERC20/MTMSAirdrop.sol\":2111:2134  len == _balances.length */\n      eq\n        /* \"contracts/token/ERC20/MTMSAirdrop.sol\":2111:2165  len == _balances.length && len == _merkleProofs.length */\n      dup1\n      iszero\n      tag_75\n      jumpi\n      pop\n        /* \"contracts/token/ERC20/MTMSAirdrop.sol\":2145:2158  _merkleProofs */\n      dup2\n        /* \"contracts/token/ERC20/MTMSAirdrop.sol\":2145:2165  _merkleProofs.length */\n      mload\n        /* \"contracts/token/ERC20/MTMSAirdrop.sol\":2138:2141  len */\n      dup2\n        /* \"contracts/token/ERC20/MTMSAirdrop.sol\":2138:2165  len == _merkleProofs.length */\n      eq\n        /* \"contracts/token/ERC20/MTMSAirdrop.sol\":2111:2165  len == _balances.length && len == _merkleProofs.length */\n    tag_75:\n        /* \"contracts/token/ERC20/MTMSAirdrop.sol\":2103:2188  require(len == _balances.length && len == _merkleProofs.length, \"Mismatching inputs\") */\n      tag_76\n      jumpi\n      mload(0x40)\n      0x08c379a000000000000000000000000000000000000000000000000000000000\n      dup2\n      mstore\n      0x04\n      add\n      tag_77\n      swap1\n      tag_78\n      jump\t// in\n    tag_77:\n      mload(0x40)\n      dup1\n      swap2\n      sub\n      swap1\n      revert\n    tag_76:\n        /* \"contracts/token/ERC20/MTMSAirdrop.sol\":2201:2221  uint256 totalBalance */\n      0x00\n        /* \"contracts/token/ERC20/MTMSAirdrop.sol\":2240:2249  uint256 i */\n      dup1\n        /* \"contracts/token/ERC20/MTMSAirdrop.sol\":2236:2432  for(uint256 i = 0; i < len; i++) {\r... */\n    tag_79:\n        /* \"contracts/token/ERC20/MTMSAirdrop.sol\":2259:2262  len */\n      dup3\n        /* \"contracts/token/ERC20/MTMSAirdrop.sol\":2255:2256  i */\n      dup2\n        /* \"contracts/token/ERC20/MTMSAirdrop.sol\":2255:2262  i < len */\n      lt\n        /* \"contracts/token/ERC20/MTMSAirdrop.sol\":2236:2432  for(uint256 i = 0; i < len; i++) {\r... */\n      iszero\n      tag_80\n      jumpi\n        /* \"contracts/token/ERC20/MTMSAirdrop.sol\":2284:2360  _claimWeek(_liquidityProvider, _tranches[i], _balances[i], _merkleProofs[i]) */\n      tag_82\n        /* \"contracts/token/ERC20/MTMSAirdrop.sol\":2295:2313  _liquidityProvider */\n      dup8\n        /* \"contracts/token/ERC20/MTMSAirdrop.sol\":2315:2324  _tranches */\n      dup8\n        /* \"contracts/token/ERC20/MTMSAirdrop.sol\":2325:2326  i */\n      dup4\n        /* \"contracts/token/ERC20/MTMSAirdrop.sol\":2315:2327  _tranches[i] */\n      dup2\n      mload\n      dup2\n      lt\n      tag_83\n      jumpi\n      tag_84\n      tag_85\n      jump\t// in\n    tag_84:\n    tag_83:\n      0x20\n      mul\n      0x20\n      add\n      add\n      mload\n        /* \"contracts/token/ERC20/MTMSAirdrop.sol\":2329:2338  _balances */\n      dup8\n        /* \"contracts/token/ERC20/MTMSAirdrop.sol\":2339:2340  i */\n      dup5\n        /* \"contracts/token/ERC20/MTMSAirdrop.sol\":2329:2341  _balances[i] */\n      dup2\n      mload\n      dup2\n      lt\n      tag_86\n      jumpi\n      tag_87\n      tag_85\n      jump\t// in\n    tag_87:\n    tag_86:\n      0x20\n      mul\n      0x20\n      add\n      add\n      mload\n        /* \"contracts/token/ERC20/MTMSAirdrop.sol\":2343:2356  _merkleProofs */\n      dup8\n        /* \"contracts/token/ERC20/MTMSAirdrop.sol\":2357:2358  i */\n      dup6\n        /* \"contracts/token/ERC20/MTMSAirdrop.sol\":2343:2359  _merkleProofs[i] */\n      dup2\n      mload\n      dup2\n      lt\n      tag_88\n      jumpi\n      tag_89\n      tag_85\n      jump\t// in\n    tag_89:\n    tag_88:\n      0x20\n      mul\n      0x20\n      add\n      add\n      mload\n        /* \"contracts/token/ERC20/MTMSAirdrop.sol\":2284:2294  _claimWeek */\n      tag_69\n        /* \"contracts/token/ERC20/MTMSAirdrop.sol\":2284:2360  _claimWeek(_liquidityProvider, _tranches[i], _balances[i], _merkleProofs[i]) */\n      jump\t// in\n    tag_82:\n        /* \"contracts/token/ERC20/MTMSAirdrop.sol\":2390:2420  totalBalance.add(_balances[i]) */\n      tag_90\n        /* \"contracts/token/ERC20/MTMSAirdrop.sol\":2407:2416  _balances */\n      dup6\n        /* \"contracts/token/ERC20/MTMSAirdrop.sol\":2417:2418  i */\n      dup3\n        /* \"contracts/token/ERC20/MTMSAirdrop.sol\":2407:2419  _balances[i] */\n      dup2\n      mload\n      dup2\n      lt\n      tag_91\n      jumpi\n      tag_92\n      tag_85\n      jump\t// in\n    tag_92:\n    tag_91:\n      0x20\n      mul\n      0x20\n      add\n      add\n      mload\n        /* \"contracts/token/ERC20/MTMSAirdrop.sol\":2390:2402  totalBalance */\n      dup4\n        /* \"contracts/token/ERC20/MTMSAirdrop.sol\":2390:2406  totalBalance.add */\n      tag_93\n      swap1\n        /* \"contracts/token/ERC20/MTMSAirdrop.sol\":2390:2420  totalBalance.add(_balances[i]) */\n      swap2\n      swap1\n      0xffffffff\n      and\n      jump\t// in\n    tag_90:\n        /* \"contracts/token/ERC20/MTMSAirdrop.sol\":2375:2420  totalBalance = totalBalance.add(_balances[i]) */\n      swap2\n      pop\n        /* \"contracts/token/ERC20/MTMSAirdrop.sol\":2264:2267  i++ */\n      dup1\n      dup1\n      tag_94\n      swap1\n      tag_95\n      jump\t// in\n    tag_94:\n      swap2\n      pop\n      pop\n        /* \"contracts/token/ERC20/MTMSAirdrop.sol\":2236:2432  for(uint256 i = 0; i < len; i++) {\r... */\n      jump(tag_79)\n    tag_80:\n      pop\n        /* \"contracts/token/ERC20/MTMSAirdrop.sol\":2442:2485  _disburse(_liquidityProvider, totalBalance) */\n      tag_96\n        /* \"contracts/token/ERC20/MTMSAirdrop.sol\":2452:2470  _liquidityProvider */\n      dup7\n        /* \"contracts/token/ERC20/MTMSAirdrop.sol\":2472:2484  totalBalance */\n      dup3\n        /* \"contracts/token/ERC20/MTMSAirdrop.sol\":2442:2451  _disburse */\n      tag_71\n        /* \"contracts/token/ERC20/MTMSAirdrop.sol\":2442:2485  _disburse(_liquidityProvider, totalBalance) */\n      jump\t// in\n    tag_96:\n        /* \"contracts/token/ERC20/MTMSAirdrop.sol\":2051:2493  {\r... */\n      pop\n      pop\n        /* \"contracts/token/ERC20/MTMSAirdrop.sol\":1849:2493  function claimWeeks(\r... */\n      pop\n      pop\n      pop\n      pop\n      jump\t// out\n        /* \"contracts/token/ERC20/MTMSAirdrop.sol\":1014:1330  function seedNewAllocations(address[] memory _address,uint256[] memory _amount, uint256 _totalAllocation)\r... */\n    tag_47:\n        /* \"contracts/token/ERC20/Ownable.sol\":481:486  owner */\n      0x00\n      dup1\n      sload\n      swap1\n      0x0100\n      exp\n      swap1\n      div\n      0xffffffffffffffffffffffffffffffffffffffff\n      and\n        /* \"contracts/token/ERC20/Ownable.sol\":467:486  msg.sender == owner */\n      0xffffffffffffffffffffffffffffffffffffffff\n      and\n        /* \"contracts/token/ERC20/Ownable.sol\":467:477  msg.sender */\n      caller\n        /* \"contracts/token/ERC20/Ownable.sol\":467:486  msg.sender == owner */\n      0xffffffffffffffffffffffffffffffffffffffff\n      and\n      eq\n        /* \"contracts/token/ERC20/Ownable.sol\":459:487  require(msg.sender == owner) */\n      tag_98\n      jumpi\n      0x00\n      dup1\n      revert\n    tag_98:\n        /* \"contracts/token/ERC20/MTMSAirdrop.sol\":1197:1204  _amount */\n      dup2\n        /* \"contracts/token/ERC20/MTMSAirdrop.sol\":1197:1211  _amount.length */\n      mload\n        /* \"contracts/token/ERC20/MTMSAirdrop.sol\":1179:1187  _address */\n      dup4\n        /* \"contracts/token/ERC20/MTMSAirdrop.sol\":1179:1194  _address.length */\n      mload\n        /* \"contracts/token/ERC20/MTMSAirdrop.sol\":1179:1211  _address.length < _amount.length */\n      lt\n        /* \"contracts/token/ERC20/MTMSAirdrop.sol\":1171:1244  require(_address.length < _amount.length, \"Week cannot be in the future\") */\n      tag_100\n      jumpi\n      mload(0x40)\n      0x08c379a000000000000000000000000000000000000000000000000000000000\n      dup2\n      mstore\n      0x04\n      add\n      tag_101\n      swap1\n      tag_102\n      jump\t// in\n    tag_101:\n      mload(0x40)\n      dup1\n      swap2\n      sub\n      swap1\n      revert\n    tag_100:\n        /* \"contracts/token/ERC20/MTMSAirdrop.sol\":1255:1322  token.safeTransferFrom(msg.sender, address(this), _totalAllocation) */\n      tag_103\n        /* \"contracts/token/ERC20/MTMSAirdrop.sol\":1278:1288  msg.sender */\n      caller\n        /* \"contracts/token/ERC20/MTMSAirdrop.sol\":1298:1302  this */\n      address\n        /* \"contracts/token/ERC20/MTMSAirdrop.sol\":1305:1321  _totalAllocation */\n      dup4\n        /* \"contracts/token/ERC20/MTMSAirdrop.sol\":1255:1260  token */\n      0x03\n      0x00\n      swap1\n      sload\n      swap1\n      0x0100\n      exp\n      swap1\n      div\n      0xffffffffffffffffffffffffffffffffffffffff\n      and\n        /* \"contracts/token/ERC20/MTMSAirdrop.sol\":1255:1277  token.safeTransferFrom */\n      0xffffffffffffffffffffffffffffffffffffffff\n      and\n      tag_104\n      swap1\n        /* \"contracts/token/ERC20/MTMSAirdrop.sol\":1255:1322  token.safeTransferFrom(msg.sender, address(this), _totalAllocation) */\n      swap4\n      swap3\n      swap2\n      swap1\n      0xffffffff\n      and\n      jump\t// in\n    tag_103:\n        /* \"contracts/token/ERC20/MTMSAirdrop.sol\":1014:1330  function seedNewAllocations(address[] memory _address,uint256[] memory _amount, uint256 _totalAllocation)\r... */\n      pop\n      pop\n      pop\n      jump\t// out\n        /* \"contracts/token/ERC20/MTMSAirdrop.sol\":1338:1520  function expireTranche(uint256 _trancheId)\r... */\n    tag_50:\n        /* \"contracts/token/ERC20/Ownable.sol\":481:486  owner */\n      0x00\n      dup1\n      sload\n      swap1\n      0x0100\n      exp\n      swap1\n      div\n      0xffffffffffffffffffffffffffffffffffffffff\n      and\n        /* \"contracts/token/ERC20/Ownable.sol\":467:486  msg.sender == owner */\n      0xffffffffffffffffffffffffffffffffffffffff\n      and\n        /* \"contracts/token/ERC20/Ownable.sol\":467:477  msg.sender */\n      caller\n        /* \"contracts/token/ERC20/Ownable.sol\":467:486  msg.sender == owner */\n      0xffffffffffffffffffffffffffffffffffffffff\n      and\n      eq\n        /* \"contracts/token/ERC20/Ownable.sol\":459:487  require(msg.sender == owner) */\n      tag_106\n      jumpi\n      0x00\n      dup1\n      revert\n    tag_106:\n        /* \"contracts/token/ERC20/MTMSAirdrop.sol\":1466:1467  0 */\n      0x00\n        /* \"contracts/token/ERC20/MTMSAirdrop.sol\":1458:1468  bytes32(0) */\n      dup1\n      shl\n        /* \"contracts/token/ERC20/MTMSAirdrop.sol\":1432:1443  merkleRoots */\n      0x04\n        /* \"contracts/token/ERC20/MTMSAirdrop.sol\":1432:1455  merkleRoots[_trancheId] */\n      0x00\n        /* \"contracts/token/ERC20/MTMSAirdrop.sol\":1444:1454  _trancheId */\n      dup4\n        /* \"contracts/token/ERC20/MTMSAirdrop.sol\":1432:1455  merkleRoots[_trancheId] */\n      dup2\n      mstore\n      0x20\n      add\n      swap1\n      dup2\n      mstore\n      0x20\n      add\n      0x00\n      keccak256\n        /* \"contracts/token/ERC20/MTMSAirdrop.sol\":1432:1468  merkleRoots[_trancheId] = bytes32(0) */\n      dup2\n      swap1\n      sstore\n      pop\n        /* \"contracts/token/ERC20/MTMSAirdrop.sol\":1486:1512  TrancheExpired(_trancheId) */\n      0xcc071cbd9ae50a4c78d1153b76bd2d46ba8d4c7662842718ec3de1d67a144daf\n        /* \"contracts/token/ERC20/MTMSAirdrop.sol\":1501:1511  _trancheId */\n      dup2\n        /* \"contracts/token/ERC20/MTMSAirdrop.sol\":1486:1512  TrancheExpired(_trancheId) */\n      mload(0x40)\n      tag_108\n      swap2\n      swap1\n      tag_58\n      jump\t// in\n    tag_108:\n      mload(0x40)\n      dup1\n      swap2\n      sub\n      swap1\n      log1\n        /* \"contracts/token/ERC20/MTMSAirdrop.sol\":1338:1520  function expireTranche(uint256 _trancheId)\r... */\n      pop\n      jump\t// out\n        /* \"contracts/token/ERC20/MTMSAirdrop.sol\":2503:2819  function verifyClaim(\r... */\n    tag_53:\n        /* \"contracts/token/ERC20/MTMSAirdrop.sol\":2710:2720  bool valid */\n      0x00\n        /* \"contracts/token/ERC20/MTMSAirdrop.sol\":2745:2811  _verifyClaim(_liquidityProvider, _tranche, _balance, _merkleProof) */\n      tag_110\n        /* \"contracts/token/ERC20/MTMSAirdrop.sol\":2758:2776  _liquidityProvider */\n      dup6\n        /* \"contracts/token/ERC20/MTMSAirdrop.sol\":2778:2786  _tranche */\n      dup6\n        /* \"contracts/token/ERC20/MTMSAirdrop.sol\":2788:2796  _balance */\n      dup6\n        /* \"contracts/token/ERC20/MTMSAirdrop.sol\":2798:2810  _merkleProof */\n      dup6\n        /* \"contracts/token/ERC20/MTMSAirdrop.sol\":2745:2757  _verifyClaim */\n      tag_111\n        /* \"contracts/token/ERC20/MTMSAirdrop.sol\":2745:2811  _verifyClaim(_liquidityProvider, _tranche, _balance, _merkleProof) */\n      jump\t// in\n    tag_110:\n        /* \"contracts/token/ERC20/MTMSAirdrop.sol\":2738:2811  return _verifyClaim(_liquidityProvider, _tranche, _balance, _merkleProof) */\n      swap1\n      pop\n        /* \"contracts/token/ERC20/MTMSAirdrop.sol\":2503:2819  function verifyClaim(\r... */\n      swap5\n      swap4\n      pop\n      pop\n      pop\n      pop\n      jump\t// out\n        /* \"contracts/token/ERC20/MTMSAirdrop.sol\":907:930  uint256 public tranches */\n    tag_56:\n      sload(0x06)\n      dup2\n      jump\t// out\n        /* \"contracts/token/ERC20/Ownable.sol\":670:848  function transferOwnership(address newOwner) onlyOwner public {\r... */\n    tag_62:\n        /* \"contracts/token/ERC20/Ownable.sol\":481:486  owner */\n      0x00\n      dup1\n      sload\n      swap1\n      0x0100\n      exp\n      swap1\n      div\n      0xffffffffffffffffffffffffffffffffffffffff\n      and\n        /* \"contracts/token/ERC20/Ownable.sol\":467:486  msg.sender == owner */\n      0xffffffffffffffffffffffffffffffffffffffff\n      and\n        /* \"contracts/token/ERC20/Ownable.sol\":467:477  msg.sender */\n      caller\n        /* \"contracts/token/ERC20/Ownable.sol\":467:486  msg.sender == owner */\n      0xffffffffffffffffffffffffffffffffffffffff\n      and\n      eq\n        /* \"contracts/token/ERC20/Ownable.sol\":459:487  require(msg.sender == owner) */\n      tag_113\n      jumpi\n      0x00\n      dup1\n      revert\n    tag_113:\n        /* \"contracts/token/ERC20/Ownable.sol\":767:768  0 */\n      0x00\n        /* \"contracts/token/ERC20/Ownable.sol\":747:769  newOwner != address(0) */\n      0xffffffffffffffffffffffffffffffffffffffff\n      and\n        /* \"contracts/token/ERC20/Ownable.sol\":747:755  newOwner */\n      dup2\n        /* \"contracts/token/ERC20/Ownable.sol\":747:769  newOwner != address(0) */\n      0xffffffffffffffffffffffffffffffffffffffff\n      and\n      eq\n      iszero\n        /* \"contracts/token/ERC20/Ownable.sol\":739:770  require(newOwner != address(0)) */\n      tag_115\n      jumpi\n      0x00\n      dup1\n      revert\n    tag_115:\n        /* \"contracts/token/ERC20/Ownable.sol\":810:818  newOwner */\n      dup1\n        /* \"contracts/token/ERC20/Ownable.sol\":782:819  OwnershipTransferred(owner, newOwner) */\n      0xffffffffffffffffffffffffffffffffffffffff\n      and\n        /* \"contracts/token/ERC20/Ownable.sol\":803:808  owner */\n      0x00\n      dup1\n      sload\n      swap1\n      0x0100\n      exp\n      swap1\n      div\n      0xffffffffffffffffffffffffffffffffffffffff\n      and\n        /* \"contracts/token/ERC20/Ownable.sol\":782:819  OwnershipTransferred(owner, newOwner) */\n      0xffffffffffffffffffffffffffffffffffffffff\n      and\n      0x8be0079c531659141344cd1fd0a4f28419497f9722a3daafe3b4186f6b6457e0\n      mload(0x40)\n      mload(0x40)\n      dup1\n      swap2\n      sub\n      swap1\n      log3\n        /* \"contracts/token/ERC20/Ownable.sol\":834:842  newOwner */\n      dup1\n        /* \"contracts/token/ERC20/Ownable.sol\":826:831  owner */\n      0x00\n      dup1\n        /* \"contracts/token/ERC20/Ownable.sol\":826:842  owner = newOwner */\n      0x0100\n      exp\n      dup2\n      sload\n      dup2\n      0xffffffffffffffffffffffffffffffffffffffff\n      mul\n      not\n      and\n      swap1\n      dup4\n      0xffffffffffffffffffffffffffffffffffffffff\n      and\n      mul\n      or\n      swap1\n      sstore\n      pop\n        /* \"contracts/token/ERC20/Ownable.sol\":670:848  function transferOwnership(address newOwner) onlyOwner public {\r... */\n      pop\n      jump\t// out\n        /* \"contracts/token/ERC20/MTMSAirdrop.sol\":760:779  IERC20 public token */\n    tag_64:\n      0x03\n      0x00\n      swap1\n      sload\n      swap1\n      0x0100\n      exp\n      swap1\n      div\n      0xffffffffffffffffffffffffffffffffffffffff\n      and\n      dup2\n      jump\t// out\n        /* \"contracts/token/ERC20/MTMSAirdrop.sol\":2827:3406  function _claimWeek(\r... */\n    tag_69:\n        /* \"contracts/token/ERC20/MTMSAirdrop.sol\":3037:3045  tranches */\n      sload(0x06)\n        /* \"contracts/token/ERC20/MTMSAirdrop.sol\":3026:3034  _tranche */\n      dup4\n        /* \"contracts/token/ERC20/MTMSAirdrop.sol\":3026:3045  _tranche < tranches */\n      lt\n        /* \"contracts/token/ERC20/MTMSAirdrop.sol\":3018:3078  require(_tranche < tranches, \"Week cannot be in the future\") */\n      tag_117\n      jumpi\n      mload(0x40)\n      0x08c379a000000000000000000000000000000000000000000000000000000000\n      dup2\n      mstore\n      0x04\n      add\n      tag_118\n      swap1\n      tag_102\n      jump\t// in\n    tag_118:\n      mload(0x40)\n      dup1\n      swap2\n      sub\n      swap1\n      revert\n    tag_117:\n        /* \"contracts/token/ERC20/MTMSAirdrop.sol\":3100:3107  claimed */\n      0x05\n        /* \"contracts/token/ERC20/MTMSAirdrop.sol\":3100:3117  claimed[_tranche] */\n      0x00\n        /* \"contracts/token/ERC20/MTMSAirdrop.sol\":3108:3116  _tranche */\n      dup5\n        /* \"contracts/token/ERC20/MTMSAirdrop.sol\":3100:3117  claimed[_tranche] */\n      dup2\n      mstore\n      0x20\n      add\n      swap1\n      dup2\n      mstore\n      0x20\n      add\n      0x00\n      keccak256\n        /* \"contracts/token/ERC20/MTMSAirdrop.sol\":3100:3137  claimed[_tranche][_liquidityProvider] */\n      0x00\n        /* \"contracts/token/ERC20/MTMSAirdrop.sol\":3118:3136  _liquidityProvider */\n      dup6\n        /* \"contracts/token/ERC20/MTMSAirdrop.sol\":3100:3137  claimed[_tranche][_liquidityProvider] */\n      0xffffffffffffffffffffffffffffffffffffffff\n      and\n      0xffffffffffffffffffffffffffffffffffffffff\n      and\n      dup2\n      mstore\n      0x20\n      add\n      swap1\n      dup2\n      mstore\n      0x20\n      add\n      0x00\n      keccak256\n      0x00\n      swap1\n      sload\n      swap1\n      0x0100\n      exp\n      swap1\n      div\n      0xff\n      and\n        /* \"contracts/token/ERC20/MTMSAirdrop.sol\":3099:3137  !claimed[_tranche][_liquidityProvider] */\n      iszero\n        /* \"contracts/token/ERC20/MTMSAirdrop.sol\":3091:3164  require(!claimed[_tranche][_liquidityProvider], \"LP has already claimed\") */\n      tag_119\n      jumpi\n      mload(0x40)\n      0x08c379a000000000000000000000000000000000000000000000000000000000\n      dup2\n      mstore\n      0x04\n      add\n      tag_120\n      swap1\n      tag_121\n      jump\t// in\n    tag_120:\n      mload(0x40)\n      dup1\n      swap2\n      sub\n      swap1\n      revert\n    tag_119:\n        /* \"contracts/token/ERC20/MTMSAirdrop.sol\":3183:3249  _verifyClaim(_liquidityProvider, _tranche, _balance, _merkleProof) */\n      tag_122\n        /* \"contracts/token/ERC20/MTMSAirdrop.sol\":3196:3214  _liquidityProvider */\n      dup5\n        /* \"contracts/token/ERC20/MTMSAirdrop.sol\":3216:3224  _tranche */\n      dup5\n        /* \"contracts/token/ERC20/MTMSAirdrop.sol\":3226:3234  _balance */\n      dup5\n        /* \"contracts/token/ERC20/MTMSAirdrop.sol\":3236:3248  _merkleProof */\n      dup5\n        /* \"contracts/token/ERC20/MTMSAirdrop.sol\":3183:3195  _verifyClaim */\n      tag_111\n        /* \"contracts/token/ERC20/MTMSAirdrop.sol\":3183:3249  _verifyClaim(_liquidityProvider, _tranche, _balance, _merkleProof) */\n      jump\t// in\n    tag_122:\n        /* \"contracts/token/ERC20/MTMSAirdrop.sol\":3175:3276  require(_verifyClaim(_liquidityProvider, _tranche, _balance, _merkleProof), \"Incorrect merkle proof\") */\n      tag_123\n      jumpi\n      mload(0x40)\n      0x08c379a000000000000000000000000000000000000000000000000000000000\n      dup2\n      mstore\n      0x04\n      add\n      tag_124\n      swap1\n      tag_125\n      jump\t// in\n    tag_124:\n      mload(0x40)\n      dup1\n      swap2\n      sub\n      swap1\n      revert\n    tag_123:\n        /* \"contracts/token/ERC20/MTMSAirdrop.sol\":3329:3333  true */\n      0x01\n        /* \"contracts/token/ERC20/MTMSAirdrop.sol\":3289:3296  claimed */\n      0x05\n        /* \"contracts/token/ERC20/MTMSAirdrop.sol\":3289:3306  claimed[_tranche] */\n      0x00\n        /* \"contracts/token/ERC20/MTMSAirdrop.sol\":3297:3305  _tranche */\n      dup6\n        /* \"contracts/token/ERC20/MTMSAirdrop.sol\":3289:3306  claimed[_tranche] */\n      dup2\n      mstore\n      0x20\n      add\n      swap1\n      dup2\n      mstore\n      0x20\n      add\n      0x00\n      keccak256\n        /* \"contracts/token/ERC20/MTMSAirdrop.sol\":3289:3326  claimed[_tranche][_liquidityProvider] */\n      0x00\n        /* \"contracts/token/ERC20/MTMSAirdrop.sol\":3307:3325  _liquidityProvider */\n      dup7\n        /* \"contracts/token/ERC20/MTMSAirdrop.sol\":3289:3326  claimed[_tranche][_liquidityProvider] */\n      0xffffffffffffffffffffffffffffffffffffffff\n      and\n      0xffffffffffffffffffffffffffffffffffffffff\n      and\n      dup2\n      mstore\n      0x20\n      add\n      swap1\n      dup2\n      mstore\n      0x20\n      add\n      0x00\n      keccak256\n      0x00\n        /* \"contracts/token/ERC20/MTMSAirdrop.sol\":3289:3333  claimed[_tranche][_liquidityProvider] = true */\n      0x0100\n      exp\n      dup2\n      sload\n      dup2\n      0xff\n      mul\n      not\n      and\n      swap1\n      dup4\n      iszero\n      iszero\n      mul\n      or\n      swap1\n      sstore\n      pop\n        /* \"contracts/token/ERC20/MTMSAirdrop.sol\":3351:3398  Claimed(_liquidityProvider, _tranche, _balance) */\n      0x987d620f307ff6b94d58743cb7a7509f24071586a77759b77c2d4e29f75a2f9a\n        /* \"contracts/token/ERC20/MTMSAirdrop.sol\":3359:3377  _liquidityProvider */\n      dup5\n        /* \"contracts/token/ERC20/MTMSAirdrop.sol\":3379:3387  _tranche */\n      dup5\n        /* \"contracts/token/ERC20/MTMSAirdrop.sol\":3389:3397  _balance */\n      dup5\n        /* \"contracts/token/ERC20/MTMSAirdrop.sol\":3351:3398  Claimed(_liquidityProvider, _tranche, _balance) */\n      mload(0x40)\n      tag_126\n      swap4\n      swap3\n      swap2\n      swap1\n      tag_127\n      jump\t// in\n    tag_126:\n      mload(0x40)\n      dup1\n      swap2\n      sub\n      swap1\n      log1\n        /* \"contracts/token/ERC20/MTMSAirdrop.sol\":2827:3406  function _claimWeek(\r... */\n      pop\n      pop\n      pop\n      pop\n      jump\t// out\n        /* \"contracts/token/ERC20/MTMSAirdrop.sol\":3822:4110  function _disburse(address _liquidityProvider, uint256 _balance) private {\r... */\n    tag_71:\n        /* \"contracts/token/ERC20/MTMSAirdrop.sol\":3921:3922  0 */\n      0x00\n        /* \"contracts/token/ERC20/MTMSAirdrop.sol\":3910:3918  _balance */\n      dup2\n        /* \"contracts/token/ERC20/MTMSAirdrop.sol\":3910:3922  _balance > 0 */\n      gt\n        /* \"contracts/token/ERC20/MTMSAirdrop.sol\":3906:4103  if (_balance > 0) {\r... */\n      iszero\n      tag_129\n      jumpi\n        /* \"contracts/token/ERC20/MTMSAirdrop.sol\":3939:3987  token.safeTransfer(_liquidityProvider, _balance) */\n      tag_130\n        /* \"contracts/token/ERC20/MTMSAirdrop.sol\":3958:3976  _liquidityProvider */\n      dup3\n        /* \"contracts/token/ERC20/MTMSAirdrop.sol\":3978:3986  _balance */\n      dup3\n        /* \"contracts/token/ERC20/MTMSAirdrop.sol\":3939:3944  token */\n      0x03\n      0x00\n      swap1\n      sload\n      swap1\n      0x0100\n      exp\n      swap1\n      div\n      0xffffffffffffffffffffffffffffffffffffffff\n      and\n        /* \"contracts/token/ERC20/MTMSAirdrop.sol\":3939:3957  token.safeTransfer */\n      0xffffffffffffffffffffffffffffffffffffffff\n      and\n      tag_131\n      swap1\n        /* \"contracts/token/ERC20/MTMSAirdrop.sol\":3939:3987  token.safeTransfer(_liquidityProvider, _balance) */\n      swap3\n      swap2\n      swap1\n      0xffffffff\n      and\n      jump\t// in\n    tag_130:\n        /* \"contracts/token/ERC20/MTMSAirdrop.sol\":3906:4103  if (_balance > 0) {\r... */\n      jump(tag_132)\n    tag_129:\n        /* \"contracts/token/ERC20/MTMSAirdrop.sol\":4020:4091  revert(\"No balance would be transferred - not going to waste your gas\") */\n      mload(0x40)\n      0x08c379a000000000000000000000000000000000000000000000000000000000\n      dup2\n      mstore\n      0x04\n      add\n      tag_133\n      swap1\n      tag_134\n      jump\t// in\n    tag_133:\n      mload(0x40)\n      dup1\n      swap2\n      sub\n      swap1\n      revert\n        /* \"contracts/token/ERC20/MTMSAirdrop.sol\":3906:4103  if (_balance > 0) {\r... */\n    tag_132:\n        /* \"contracts/token/ERC20/MTMSAirdrop.sol\":3822:4110  function _disburse(address _liquidityProvider, uint256 _balance) private {\r... */\n      pop\n      pop\n      jump\t// out\n        /* \"contracts/token/ERC20/SafeMath.sol\":1998:2163  function add(uint256 a, uint256 b) internal pure returns (uint256) {\r... */\n    tag_93:\n        /* \"contracts/token/ERC20/SafeMath.sol\":2056:2063  uint256 */\n      0x00\n        /* \"contracts/token/ERC20/SafeMath.sol\":2072:2081  uint256 c */\n      dup1\n        /* \"contracts/token/ERC20/SafeMath.sol\":2088:2089  b */\n      dup3\n        /* \"contracts/token/ERC20/SafeMath.sol\":2084:2085  a */\n      dup5\n        /* \"contracts/token/ERC20/SafeMath.sol\":2084:2089  a + b */\n      tag_136\n      swap2\n      swap1\n      tag_137\n      jump\t// in\n    tag_136:\n        /* \"contracts/token/ERC20/SafeMath.sol\":2072:2089  uint256 c = a + b */\n      swap1\n      pop\n        /* \"contracts/token/ERC20/SafeMath.sol\":2109:2110  a */\n      dup4\n        /* \"contracts/token/ERC20/SafeMath.sol\":2104:2105  c */\n      dup2\n        /* \"contracts/token/ERC20/SafeMath.sol\":2104:2110  c >= a */\n      lt\n      iszero\n        /* \"contracts/token/ERC20/SafeMath.sol\":2096:2142  require(c >= a, \"SafeMath: addition overflow\") */\n      tag_138\n      jumpi\n      mload(0x40)\n      0x08c379a000000000000000000000000000000000000000000000000000000000\n      dup2\n      mstore\n      0x04\n      add\n      tag_139\n      swap1\n      tag_140\n      jump\t// in\n    tag_139:\n      mload(0x40)\n      dup1\n      swap2\n      sub\n      swap1\n      revert\n    tag_138:\n        /* \"contracts/token/ERC20/SafeMath.sol\":2156:2157  c */\n      dup1\n        /* \"contracts/token/ERC20/SafeMath.sol\":2149:2157  return c */\n      swap2\n      pop\n      pop\n        /* \"contracts/token/ERC20/SafeMath.sol\":1998:2163  function add(uint256 a, uint256 b) internal pure returns (uint256) {\r... */\n      swap3\n      swap2\n      pop\n      pop\n      jump\t// out\n        /* \"contracts/token/ERC20/SafeERC20.sol\":936:1184  function safeTransferFrom(\r... */\n    tag_104:\n        /* \"contracts/token/ERC20/SafeERC20.sol\":1080:1176  _callOptionalReturn(token, abi.encodeWithSelector(token.transferFrom.selector, from, to, value)) */\n      tag_142\n        /* \"contracts/token/ERC20/SafeERC20.sol\":1100:1105  token */\n      dup5\n        /* \"contracts/token/ERC20/SafeERC20.sol\":1130:1157  token.transferFrom.selector */\n      shl(0xe0, 0x23b872dd)\n        /* \"contracts/token/ERC20/SafeERC20.sol\":1159:1163  from */\n      dup6\n        /* \"contracts/token/ERC20/SafeERC20.sol\":1165:1167  to */\n      dup6\n        /* \"contracts/token/ERC20/SafeERC20.sol\":1169:1174  value */\n      dup6\n        /* \"contracts/token/ERC20/SafeERC20.sol\":1107:1175  abi.encodeWithSelector(token.transferFrom.selector, from, to, value) */\n      add(0x24, mload(0x40))\n      tag_143\n      swap4\n      swap3\n      swap2\n      swap1\n      tag_144\n      jump\t// in\n    tag_143:\n      mload(0x40)\n      0x20\n      dup2\n      dup4\n      sub\n      sub\n      dup2\n      mstore\n      swap1\n      0x40\n      mstore\n      swap1\n      not(0xffffffffffffffffffffffffffffffffffffffffffffffffffffffff)\n      and\n      0x20\n      dup3\n      add\n      dup1\n      mload\n      0xffffffffffffffffffffffffffffffffffffffffffffffffffffffff\n      dup4\n      dup2\n      dup4\n      and\n      or\n      dup4\n      mstore\n      pop\n      pop\n      pop\n      pop\n        /* \"contracts/token/ERC20/SafeERC20.sol\":1080:1099  _callOptionalReturn */\n      tag_145\n        /* \"contracts/token/ERC20/SafeERC20.sol\":1080:1176  _callOptionalReturn(token, abi.encodeWithSelector(token.transferFrom.selector, from, to, value)) */\n      jump\t// in\n    tag_142:\n        /* \"contracts/token/ERC20/SafeERC20.sol\":936:1184  function safeTransferFrom(\r... */\n      pop\n      pop\n      pop\n      pop\n      jump\t// out\n        /* \"contracts/token/ERC20/MTMSAirdrop.sol\":3416:3812  function _verifyClaim(\r... */\n    tag_111:\n        /* \"contracts/token/ERC20/MTMSAirdrop.sol\":3625:3635  bool valid */\n      0x00\n        /* \"contracts/token/ERC20/MTMSAirdrop.sol\":3653:3665  bytes32 leaf */\n      dup1\n        /* \"contracts/token/ERC20/MTMSAirdrop.sol\":3695:3713  _liquidityProvider */\n      dup6\n        /* \"contracts/token/ERC20/MTMSAirdrop.sol\":3715:3723  _balance */\n      dup5\n        /* \"contracts/token/ERC20/MTMSAirdrop.sol\":3678:3724  abi.encodePacked(_liquidityProvider, _balance) */\n      add(0x20, mload(0x40))\n      tag_147\n      swap3\n      swap2\n      swap1\n      tag_148\n      jump\t// in\n    tag_147:\n      mload(0x40)\n      0x20\n      dup2\n      dup4\n      sub\n      sub\n      dup2\n      mstore\n      swap1\n      0x40\n      mstore\n        /* \"contracts/token/ERC20/MTMSAirdrop.sol\":3668:3725  keccak256(abi.encodePacked(_liquidityProvider, _balance)) */\n      dup1\n      mload\n      swap1\n      0x20\n      add\n      keccak256\n        /* \"contracts/token/ERC20/MTMSAirdrop.sol\":3653:3725  bytes32 leaf = keccak256(abi.encodePacked(_liquidityProvider, _balance)) */\n      swap1\n      pop\n        /* \"contracts/token/ERC20/MTMSAirdrop.sol\":3743:3804  MerkleProof.verify(_merkleProof, merkleRoots[_tranche], leaf) */\n      tag_149\n        /* \"contracts/token/ERC20/MTMSAirdrop.sol\":3762:3774  _merkleProof */\n      dup4\n        /* \"contracts/token/ERC20/MTMSAirdrop.sol\":3776:3787  merkleRoots */\n      0x04\n        /* \"contracts/token/ERC20/MTMSAirdrop.sol\":3776:3797  merkleRoots[_tranche] */\n      0x00\n        /* \"contracts/token/ERC20/MTMSAirdrop.sol\":3788:3796  _tranche */\n      dup9\n        /* \"contracts/token/ERC20/MTMSAirdrop.sol\":3776:3797  merkleRoots[_tranche] */\n      dup2\n      mstore\n      0x20\n      add\n      swap1\n      dup2\n      mstore\n      0x20\n      add\n      0x00\n      keccak256\n      sload\n        /* \"contracts/token/ERC20/MTMSAirdrop.sol\":3799:3803  leaf */\n      dup4\n        /* \"contracts/token/ERC20/MTMSAirdrop.sol\":3743:3761  MerkleProof.verify */\n      tag_150\n        /* \"contracts/token/ERC20/MTMSAirdrop.sol\":3743:3804  MerkleProof.verify(_merkleProof, merkleRoots[_tranche], leaf) */\n      jump\t// in\n    tag_149:\n        /* \"contracts/token/ERC20/MTMSAirdrop.sol\":3736:3804  return MerkleProof.verify(_merkleProof, merkleRoots[_tranche], leaf) */\n      swap2\n      pop\n      pop\n        /* \"contracts/token/ERC20/MTMSAirdrop.sol\":3416:3812  function _verifyClaim(\r... */\n      swap5\n      swap4\n      pop\n      pop\n      pop\n      pop\n      jump\t// out\n        /* \"contracts/token/ERC20/SafeERC20.sol\":717:928  function safeTransfer(\r... */\n    tag_131:\n        /* \"contracts/token/ERC20/SafeERC20.sol\":834:920  _callOptionalReturn(token, abi.encodeWithSelector(token.transfer.selector, to, value)) */\n      tag_152\n        /* \"contracts/token/ERC20/SafeERC20.sol\":854:859  token */\n      dup4\n        /* \"contracts/token/ERC20/SafeERC20.sol\":884:907  token.transfer.selector */\n      shl(0xe0, 0xa9059cbb)\n        /* \"contracts/token/ERC20/SafeERC20.sol\":909:911  to */\n      dup5\n        /* \"contracts/token/ERC20/SafeERC20.sol\":913:918  value */\n      dup5\n        /* \"contracts/token/ERC20/SafeERC20.sol\":861:919  abi.encodeWithSelector(token.transfer.selector, to, value) */\n      add(0x24, mload(0x40))\n      tag_153\n      swap3\n      swap2\n      swap1\n      tag_154\n      jump\t// in\n    tag_153:\n      mload(0x40)\n      0x20\n      dup2\n      dup4\n      sub\n      sub\n      dup2\n      mstore\n      swap1\n      0x40\n      mstore\n      swap1\n      not(0xffffffffffffffffffffffffffffffffffffffffffffffffffffffff)\n      and\n      0x20\n      dup3\n      add\n      dup1\n      mload\n      0xffffffffffffffffffffffffffffffffffffffffffffffffffffffff\n      dup4\n      dup2\n      dup4\n      and\n      or\n      dup4\n      mstore\n      pop\n      pop\n      pop\n      pop\n        /* \"contracts/token/ERC20/SafeERC20.sol\":834:853  _callOptionalReturn */\n      tag_145\n        /* \"contracts/token/ERC20/SafeERC20.sol\":834:920  _callOptionalReturn(token, abi.encodeWithSelector(token.transfer.selector, to, value)) */\n      jump\t// in\n    tag_152:\n        /* \"contracts/token/ERC20/SafeERC20.sol\":717:928  function safeTransfer(\r... */\n      pop\n      pop\n      pop\n      jump\t// out\n        /* \"contracts/token/ERC20/SafeERC20.sol\":3290:4006  function _callOptionalReturn(IERC20 token, bytes memory data) private {\r... */\n    tag_145:\n        /* \"contracts/token/ERC20/SafeERC20.sol\":3714:3737  bytes memory returndata */\n      0x00\n        /* \"contracts/token/ERC20/SafeERC20.sol\":3740:3809  address(token).functionCall(data, \"SafeERC20: low-level call failed\") */\n      tag_156\n        /* \"contracts/token/ERC20/SafeERC20.sol\":3768:3772  data */\n      dup3\n        /* \"contracts/token/ERC20/SafeERC20.sol\":3740:3809  address(token).functionCall(data, \"SafeERC20: low-level call failed\") */\n      mload(0x40)\n      dup1\n      0x40\n      add\n      0x40\n      mstore\n      dup1\n      0x20\n      dup2\n      mstore\n      0x20\n      add\n      0x5361666545524332303a206c6f772d6c6576656c2063616c6c206661696c6564\n      dup2\n      mstore\n      pop\n        /* \"contracts/token/ERC20/SafeERC20.sol\":3748:3753  token */\n      dup6\n        /* \"contracts/token/ERC20/SafeERC20.sol\":3740:3767  address(token).functionCall */\n      0xffffffffffffffffffffffffffffffffffffffff\n      and\n      tag_157\n      swap1\n        /* \"contracts/token/ERC20/SafeERC20.sol\":3740:3809  address(token).functionCall(data, \"SafeERC20: low-level call failed\") */\n      swap3\n      swap2\n      swap1\n      0xffffffff\n      and\n      jump\t// in\n    tag_156:\n        /* \"contracts/token/ERC20/SafeERC20.sol\":3714:3809  bytes memory returndata = address(token).functionCall(data, \"SafeERC20: low-level call failed\") */\n      swap1\n      pop\n        /* \"contracts/token/ERC20/SafeERC20.sol\":3844:3845  0 */\n      0x00\n        /* \"contracts/token/ERC20/SafeERC20.sol\":3824:3834  returndata */\n      dup2\n        /* \"contracts/token/ERC20/SafeERC20.sol\":3824:3841  returndata.length */\n      mload\n        /* \"contracts/token/ERC20/SafeERC20.sol\":3824:3845  returndata.length > 0 */\n      gt\n        /* \"contracts/token/ERC20/SafeERC20.sol\":3820:3999  if (returndata.length > 0) {\r... */\n      iszero\n      tag_158\n      jumpi\n        /* \"contracts/token/ERC20/SafeERC20.sol\":3921:3931  returndata */\n      dup1\n        /* \"contracts/token/ERC20/SafeERC20.sol\":3910:3940  abi.decode(returndata, (bool)) */\n      dup1\n      0x20\n      add\n      swap1\n      mload\n      dup2\n      add\n      swap1\n      tag_159\n      swap2\n      swap1\n      tag_160\n      jump\t// in\n    tag_159:\n        /* \"contracts/token/ERC20/SafeERC20.sol\":3902:3987  require(abi.decode(returndata, (bool)), \"SafeERC20: ERC20 operation did not succeed\") */\n      tag_161\n      jumpi\n      mload(0x40)\n      0x08c379a000000000000000000000000000000000000000000000000000000000\n      dup2\n      mstore\n      0x04\n      add\n      tag_162\n      swap1\n      tag_163\n      jump\t// in\n    tag_162:\n      mload(0x40)\n      dup1\n      swap2\n      sub\n      swap1\n      revert\n    tag_161:\n        /* \"contracts/token/ERC20/SafeERC20.sol\":3820:3999  if (returndata.length > 0) {\r... */\n    tag_158:\n        /* \"contracts/token/ERC20/SafeERC20.sol\":3360:4006  {\r... */\n      pop\n        /* \"contracts/token/ERC20/SafeERC20.sol\":3290:4006  function _callOptionalReturn(IERC20 token, bytes memory data) private {\r... */\n      pop\n      pop\n      jump\t// out\n        /* \"contracts/MerkleProof.sol\":476:1272  function verify(bytes32[] memory proof, bytes32 root, bytes32 leaf) internal pure returns (bool) {\r... */\n    tag_150:\n        /* \"contracts/MerkleProof.sol\":567:571  bool */\n      0x00\n        /* \"contracts/MerkleProof.sol\":584:604  bytes32 computedHash */\n      dup1\n        /* \"contracts/MerkleProof.sol\":607:611  leaf */\n      dup3\n        /* \"contracts/MerkleProof.sol\":584:611  bytes32 computedHash = leaf */\n      swap1\n      pop\n        /* \"contracts/MerkleProof.sol\":629:638  uint256 i */\n      0x00\n        /* \"contracts/MerkleProof.sol\":624:1149  for (uint256 i = 0; i < proof.length; i++) {\r... */\n    tag_165:\n        /* \"contracts/MerkleProof.sol\":648:653  proof */\n      dup6\n        /* \"contracts/MerkleProof.sol\":648:660  proof.length */\n      mload\n        /* \"contracts/MerkleProof.sol\":644:645  i */\n      dup2\n        /* \"contracts/MerkleProof.sol\":644:660  i < proof.length */\n      lt\n        /* \"contracts/MerkleProof.sol\":624:1149  for (uint256 i = 0; i < proof.length; i++) {\r... */\n      iszero\n      tag_166\n      jumpi\n        /* \"contracts/MerkleProof.sol\":682:702  bytes32 proofElement */\n      0x00\n        /* \"contracts/MerkleProof.sol\":705:710  proof */\n      dup7\n        /* \"contracts/MerkleProof.sol\":711:712  i */\n      dup3\n        /* \"contracts/MerkleProof.sol\":705:713  proof[i] */\n      dup2\n      mload\n      dup2\n      lt\n      tag_168\n      jumpi\n      tag_169\n      tag_85\n      jump\t// in\n    tag_169:\n    tag_168:\n      0x20\n      mul\n      0x20\n      add\n      add\n      mload\n        /* \"contracts/MerkleProof.sol\":682:713  bytes32 proofElement = proof[i] */\n      swap1\n      pop\n        /* \"contracts/MerkleProof.sol\":750:762  proofElement */\n      dup1\n        /* \"contracts/MerkleProof.sol\":734:746  computedHash */\n      dup4\n        /* \"contracts/MerkleProof.sol\":734:762  computedHash <= proofElement */\n      gt\n        /* \"contracts/MerkleProof.sol\":730:1138  if (computedHash <= proofElement) {\r... */\n      tag_170\n      jumpi\n        /* \"contracts/MerkleProof.sol\":904:916  computedHash */\n      dup3\n        /* \"contracts/MerkleProof.sol\":918:930  proofElement */\n      dup2\n        /* \"contracts/MerkleProof.sol\":887:931  abi.encodePacked(computedHash, proofElement) */\n      add(0x20, mload(0x40))\n      tag_171\n      swap3\n      swap2\n      swap1\n      tag_172\n      jump\t// in\n    tag_171:\n      mload(0x40)\n      0x20\n      dup2\n      dup4\n      sub\n      sub\n      dup2\n      mstore\n      swap1\n      0x40\n      mstore\n        /* \"contracts/MerkleProof.sol\":877:932  keccak256(abi.encodePacked(computedHash, proofElement)) */\n      dup1\n      mload\n      swap1\n      0x20\n      add\n      keccak256\n        /* \"contracts/MerkleProof.sol\":862:932  computedHash = keccak256(abi.encodePacked(computedHash, proofElement)) */\n      swap3\n      pop\n        /* \"contracts/MerkleProof.sol\":730:1138  if (computedHash <= proofElement) {\r... */\n      jump(tag_173)\n    tag_170:\n        /* \"contracts/MerkleProof.sol\":1094:1106  proofElement */\n      dup1\n        /* \"contracts/MerkleProof.sol\":1108:1120  computedHash */\n      dup4\n        /* \"contracts/MerkleProof.sol\":1077:1121  abi.encodePacked(proofElement, computedHash) */\n      add(0x20, mload(0x40))\n      tag_174\n      swap3\n      swap2\n      swap1\n      tag_172\n      jump\t// in\n    tag_174:\n      mload(0x40)\n      0x20\n      dup2\n      dup4\n      sub\n      sub\n      dup2\n      mstore\n      swap1\n      0x40\n      mstore\n        /* \"contracts/MerkleProof.sol\":1067:1122  keccak256(abi.encodePacked(proofElement, computedHash)) */\n      dup1\n      mload\n      swap1\n      0x20\n      add\n      keccak256\n        /* \"contracts/MerkleProof.sol\":1052:1122  computedHash = keccak256(abi.encodePacked(proofElement, computedHash)) */\n      swap3\n      pop\n        /* \"contracts/MerkleProof.sol\":730:1138  if (computedHash <= proofElement) {\r... */\n    tag_173:\n        /* \"contracts/MerkleProof.sol\":667:1149  {\r... */\n      pop\n        /* \"contracts/MerkleProof.sol\":662:665  i++ */\n      dup1\n      dup1\n      tag_175\n      swap1\n      tag_95\n      jump\t// in\n    tag_175:\n      swap2\n      pop\n      pop\n        /* \"contracts/MerkleProof.sol\":624:1149  for (uint256 i = 0; i < proof.length; i++) {\r... */\n      jump(tag_165)\n    tag_166:\n      pop\n        /* \"contracts/MerkleProof.sol\":1260:1264  root */\n      dup4\n        /* \"contracts/MerkleProof.sol\":1244:1256  computedHash */\n      dup2\n        /* \"contracts/MerkleProof.sol\":1244:1264  computedHash == root */\n      eq\n        /* \"contracts/MerkleProof.sol\":1237:1264  return computedHash == root */\n      swap2\n      pop\n      pop\n        /* \"contracts/MerkleProof.sol\":476:1272  function verify(bytes32[] memory proof, bytes32 root, bytes32 leaf) internal pure returns (bool) {\r... */\n      swap4\n      swap3\n      pop\n      pop\n      pop\n      jump\t// out\n        /* \"contracts/utils/Address.sol\":3955:4184  function functionCall(\r... */\n    tag_157:\n        /* \"contracts/utils/Address.sol\":4092:4104  bytes memory */\n      0x60\n        /* \"contracts/utils/Address.sol\":4124:4176  functionCallWithValue(target, data, 0, errorMessage) */\n      tag_177\n        /* \"contracts/utils/Address.sol\":4146:4152  target */\n      dup5\n        /* \"contracts/utils/Address.sol\":4154:4158  data */\n      dup5\n        /* \"contracts/utils/Address.sol\":4160:4161  0 */\n      0x00\n        /* \"contracts/utils/Address.sol\":4163:4175  errorMessage */\n      dup6\n        /* \"contracts/utils/Address.sol\":4124:4145  functionCallWithValue */\n      tag_178\n        /* \"contracts/utils/Address.sol\":4124:4176  functionCallWithValue(target, data, 0, errorMessage) */\n      jump\t// in\n    tag_177:\n        /* \"contracts/utils/Address.sol\":4117:4176  return functionCallWithValue(target, data, 0, errorMessage) */\n      swap1\n      pop\n        /* \"contracts/utils/Address.sol\":3955:4184  function functionCall(\r... */\n      swap4\n      swap3\n      pop\n      pop\n      pop\n      jump\t// out\n        /* \"contracts/utils/Address.sol\":5075:5585  function functionCallWithValue(\r... */\n    tag_178:\n        /* \"contracts/utils/Address.sol\":5245:5257  bytes memory */\n      0x60\n        /* \"contracts/utils/Address.sol\":5303:5308  value */\n      dup3\n        /* \"contracts/utils/Address.sol\":5278:5299  address(this).balance */\n      selfbalance\n        /* \"contracts/utils/Address.sol\":5278:5308  address(this).balance >= value */\n      lt\n      iszero\n        /* \"contracts/utils/Address.sol\":5270:5351  require(address(this).balance >= value, \"Address: insufficient balance for call\") */\n      tag_180\n      jumpi\n      mload(0x40)\n      0x08c379a000000000000000000000000000000000000000000000000000000000\n      dup2\n      mstore\n      0x04\n      add\n      tag_181\n      swap1\n      tag_182\n      jump\t// in\n    tag_181:\n      mload(0x40)\n      dup1\n      swap2\n      sub\n      swap1\n      revert\n    tag_180:\n        /* \"contracts/utils/Address.sol\":5370:5388  isContract(target) */\n      tag_183\n        /* \"contracts/utils/Address.sol\":5381:5387  target */\n      dup6\n        /* \"contracts/utils/Address.sol\":5370:5380  isContract */\n      tag_184\n        /* \"contracts/utils/Address.sol\":5370:5388  isContract(target) */\n      jump\t// in\n    tag_183:\n        /* \"contracts/utils/Address.sol\":5362:5422  require(isContract(target), \"Address: call to non-contract\") */\n      tag_185\n      jumpi\n      mload(0x40)\n      0x08c379a000000000000000000000000000000000000000000000000000000000\n      dup2\n      mstore\n      0x04\n      add\n      tag_186\n      swap1\n      tag_187\n      jump\t// in\n    tag_186:\n      mload(0x40)\n      dup1\n      swap2\n      sub\n      swap1\n      revert\n    tag_185:\n        /* \"contracts/utils/Address.sol\":5436:5448  bool success */\n      0x00\n        /* \"contracts/utils/Address.sol\":5450:5473  bytes memory returndata */\n      dup1\n        /* \"contracts/utils/Address.sol\":5477:5483  target */\n      dup7\n        /* \"contracts/utils/Address.sol\":5477:5488  target.call */\n      0xffffffffffffffffffffffffffffffffffffffff\n      and\n        /* \"contracts/utils/Address.sol\":5496:5501  value */\n      dup6\n        /* \"contracts/utils/Address.sol\":5503:5507  data */\n      dup8\n        /* \"contracts/utils/Address.sol\":5477:5508  target.call{value: value}(data) */\n      mload(0x40)\n      tag_188\n      swap2\n      swap1\n      tag_189\n      jump\t// in\n    tag_188:\n      0x00\n      mload(0x40)\n      dup1\n      dup4\n      sub\n      dup2\n      dup6\n      dup8\n      gas\n      call\n      swap3\n      pop\n      pop\n      pop\n      returndatasize\n      dup1\n      0x00\n      dup2\n      eq\n      tag_192\n      jumpi\n      mload(0x40)\n      swap2\n      pop\n      and(add(returndatasize, 0x3f), not(0x1f))\n      dup3\n      add\n      0x40\n      mstore\n      returndatasize\n      dup3\n      mstore\n      returndatasize\n      0x00\n      0x20\n      dup5\n      add\n      returndatacopy\n      jump(tag_191)\n    tag_192:\n      0x60\n      swap2\n      pop\n    tag_191:\n      pop\n        /* \"contracts/utils/Address.sol\":5435:5508  (bool success, bytes memory returndata) = target.call{value: value}(data) */\n      swap2\n      pop\n      swap2\n      pop\n        /* \"contracts/utils/Address.sol\":5526:5577  verifyCallResult(success, returndata, errorMessage) */\n      tag_193\n        /* \"contracts/utils/Address.sol\":5543:5550  success */\n      dup3\n        /* \"contracts/utils/Address.sol\":5552:5562  returndata */\n      dup3\n        /* \"contracts/utils/Address.sol\":5564:5576  errorMessage */\n      dup7\n        /* \"contracts/utils/Address.sol\":5526:5542  verifyCallResult */\n      tag_194\n        /* \"contracts/utils/Address.sol\":5526:5577  verifyCallResult(success, returndata, errorMessage) */\n      jump\t// in\n    tag_193:\n        /* \"contracts/utils/Address.sol\":5519:5577  return verifyCallResult(success, returndata, errorMessage) */\n      swap3\n      pop\n      pop\n      pop\n        /* \"contracts/utils/Address.sol\":5075:5585  function functionCallWithValue(\r... */\n      swap5\n      swap4\n      pop\n      pop\n      pop\n      pop\n      jump\t// out\n        /* \"contracts/utils/Address.sol\":1210:1536  function isContract(address account) internal view returns (bool) {\r... */\n    tag_184:\n        /* \"contracts/utils/Address.sol\":1270:1274  bool */\n      0x00\n        /* \"contracts/utils/Address.sol\":1527:1528  0 */\n      dup1\n        /* \"contracts/utils/Address.sol\":1505:1512  account */\n      dup3\n        /* \"contracts/utils/Address.sol\":1505:1524  account.code.length */\n      0xffffffffffffffffffffffffffffffffffffffff\n      and\n      extcodesize\n        /* \"contracts/utils/Address.sol\":1505:1528  account.code.length > 0 */\n      gt\n        /* \"contracts/utils/Address.sol\":1498:1528  return account.code.length > 0 */\n      swap1\n      pop\n        /* \"contracts/utils/Address.sol\":1210:1536  function isContract(address account) internal view returns (bool) {\r... */\n      swap2\n      swap1\n      pop\n      jump\t// out\n        /* \"contracts/utils/Address.sol\":7761:8473  function verifyCallResult(\r... */\n    tag_194:\n        /* \"contracts/utils/Address.sol\":7911:7923  bytes memory */\n      0x60\n        /* \"contracts/utils/Address.sol\":7940:7947  success */\n      dup4\n        /* \"contracts/utils/Address.sol\":7936:8466  if (success) {\r... */\n      iszero\n      tag_197\n      jumpi\n        /* \"contracts/utils/Address.sol\":7971:7981  returndata */\n      dup3\n        /* \"contracts/utils/Address.sol\":7964:7981  return returndata */\n      swap1\n      pop\n      jump(tag_196)\n        /* \"contracts/utils/Address.sol\":7936:8466  if (success) {\r... */\n    tag_197:\n        /* \"contracts/utils/Address.sol\":8105:8106  0 */\n      0x00\n        /* \"contracts/utils/Address.sol\":8085:8095  returndata */\n      dup4\n        /* \"contracts/utils/Address.sol\":8085:8102  returndata.length */\n      mload\n        /* \"contracts/utils/Address.sol\":8085:8106  returndata.length > 0 */\n      gt\n        /* \"contracts/utils/Address.sol\":8081:8455  if (returndata.length > 0) {\r... */\n      iszero\n      tag_199\n      jumpi\n        /* \"contracts/utils/Address.sol\":8283:8293  returndata */\n      dup3\n        /* \"contracts/utils/Address.sol\":8277:8294  mload(returndata) */\n      mload\n        /* \"contracts/utils/Address.sol\":8344:8359  returndata_size */\n      dup1\n        /* \"contracts/utils/Address.sol\":8331:8341  returndata */\n      dup5\n        /* \"contracts/utils/Address.sol\":8327:8329  32 */\n      0x20\n        /* \"contracts/utils/Address.sol\":8323:8342  add(32, returndata) */\n      add\n        /* \"contracts/utils/Address.sol\":8316:8360  revert(add(32, returndata), returndata_size) */\n      revert\n        /* \"contracts/utils/Address.sol\":8081:8455  if (returndata.length > 0) {\r... */\n    tag_199:\n        /* \"contracts/utils/Address.sol\":8426:8438  errorMessage */\n      dup2\n        /* \"contracts/utils/Address.sol\":8419:8439  revert(errorMessage) */\n      mload(0x40)\n      0x08c379a000000000000000000000000000000000000000000000000000000000\n      dup2\n      mstore\n      0x04\n      add\n      tag_201\n      swap2\n      swap1\n      tag_202\n      jump\t// in\n    tag_201:\n      mload(0x40)\n      dup1\n      swap2\n      sub\n      swap1\n      revert\n        /* \"contracts/utils/Address.sol\":7761:8473  function verifyCallResult(\r... */\n    tag_196:\n      swap4\n      swap3\n      pop\n      pop\n      pop\n      jump\t// out\n        /* \"#utility.yul\":24:746   */\n    tag_204:\n        /* \"#utility.yul\":120:125   */\n      0x00\n        /* \"#utility.yul\":145:226   */\n      tag_206\n        /* \"#utility.yul\":161:225   */\n      tag_207\n        /* \"#utility.yul\":218:224   */\n      dup5\n        /* \"#utility.yul\":161:225   */\n      tag_208\n      jump\t// in\n    tag_207:\n        /* \"#utility.yul\":145:226   */\n      tag_209\n      jump\t// in\n    tag_206:\n        /* \"#utility.yul\":136:226   */\n      swap1\n      pop\n        /* \"#utility.yul\":246:251   */\n      dup1\n        /* \"#utility.yul\":275:281   */\n      dup4\n        /* \"#utility.yul\":268:273   */\n      dup3\n        /* \"#utility.yul\":261:282   */\n      mstore\n        /* \"#utility.yul\":309:313   */\n      0x20\n        /* \"#utility.yul\":302:307   */\n      dup3\n        /* \"#utility.yul\":298:314   */\n      add\n        /* \"#utility.yul\":291:314   */\n      swap1\n      pop\n        /* \"#utility.yul\":335:341   */\n      dup3\n        /* \"#utility.yul\":385:388   */\n      dup6\n        /* \"#utility.yul\":377:381   */\n      0x20\n        /* \"#utility.yul\":369:375   */\n      dup7\n        /* \"#utility.yul\":365:382   */\n      mul\n        /* \"#utility.yul\":360:363   */\n      dup3\n        /* \"#utility.yul\":356:383   */\n      add\n        /* \"#utility.yul\":353:389   */\n      gt\n        /* \"#utility.yul\":350:493   */\n      iszero\n      tag_210\n      jumpi\n        /* \"#utility.yul\":404:483   */\n      tag_211\n      tag_212\n      jump\t// in\n    tag_211:\n        /* \"#utility.yul\":350:493   */\n    tag_210:\n        /* \"#utility.yul\":517:518   */\n      0x00\n        /* \"#utility.yul\":502:740   */\n    tag_213:\n        /* \"#utility.yul\":527:533   */\n      dup6\n        /* \"#utility.yul\":524:525   */\n      dup2\n        /* \"#utility.yul\":521:534   */\n      lt\n        /* \"#utility.yul\":502:740   */\n      iszero\n      tag_215\n      jumpi\n        /* \"#utility.yul\":595:598   */\n      dup2\n        /* \"#utility.yul\":624:661   */\n      tag_216\n        /* \"#utility.yul\":657:660   */\n      dup9\n        /* \"#utility.yul\":645:655   */\n      dup3\n        /* \"#utility.yul\":624:661   */\n      tag_217\n      jump\t// in\n    tag_216:\n        /* \"#utility.yul\":619:622   */\n      dup5\n        /* \"#utility.yul\":612:662   */\n      mstore\n        /* \"#utility.yul\":691:695   */\n      0x20\n        /* \"#utility.yul\":686:689   */\n      dup5\n        /* \"#utility.yul\":682:696   */\n      add\n        /* \"#utility.yul\":675:696   */\n      swap4\n      pop\n        /* \"#utility.yul\":725:729   */\n      0x20\n        /* \"#utility.yul\":720:723   */\n      dup4\n        /* \"#utility.yul\":716:730   */\n      add\n        /* \"#utility.yul\":709:730   */\n      swap3\n      pop\n        /* \"#utility.yul\":562:740   */\n      pop\n        /* \"#utility.yul\":549:550   */\n      0x01\n        /* \"#utility.yul\":546:547   */\n      dup2\n        /* \"#utility.yul\":542:551   */\n      add\n        /* \"#utility.yul\":537:551   */\n      swap1\n      pop\n        /* \"#utility.yul\":502:740   */\n      jump(tag_213)\n    tag_215:\n        /* \"#utility.yul\":506:520   */\n      pop\n        /* \"#utility.yul\":126:746   */\n      pop\n      pop\n        /* \"#utility.yul\":24:746   */\n      swap4\n      swap3\n      pop\n      pop\n      pop\n      jump\t// out\n        /* \"#utility.yul\":771:1773   */\n    tag_218:\n        /* \"#utility.yul\":892:897   */\n      0x00\n        /* \"#utility.yul\":917:1023   */\n      tag_220\n        /* \"#utility.yul\":933:1022   */\n      tag_221\n        /* \"#utility.yul\":1015:1021   */\n      dup5\n        /* \"#utility.yul\":933:1022   */\n      tag_222\n      jump\t// in\n    tag_221:\n        /* \"#utility.yul\":917:1023   */\n      tag_209\n      jump\t// in\n    tag_220:\n        /* \"#utility.yul\":908:1023   */\n      swap1\n      pop\n        /* \"#utility.yul\":1043:1048   */\n      dup1\n        /* \"#utility.yul\":1072:1078   */\n      dup4\n        /* \"#utility.yul\":1065:1070   */\n      dup3\n        /* \"#utility.yul\":1058:1079   */\n      mstore\n        /* \"#utility.yul\":1106:1110   */\n      0x20\n        /* \"#utility.yul\":1099:1104   */\n      dup3\n        /* \"#utility.yul\":1095:1111   */\n      add\n        /* \"#utility.yul\":1088:1111   */\n      swap1\n      pop\n        /* \"#utility.yul\":1132:1138   */\n      dup3\n        /* \"#utility.yul\":1182:1185   */\n      dup6\n        /* \"#utility.yul\":1174:1178   */\n      0x20\n        /* \"#utility.yul\":1166:1172   */\n      dup7\n        /* \"#utility.yul\":1162:1179   */\n      mul\n        /* \"#utility.yul\":1157:1160   */\n      dup3\n        /* \"#utility.yul\":1153:1180   */\n      add\n        /* \"#utility.yul\":1150:1186   */\n      gt\n        /* \"#utility.yul\":1147:1290   */\n      iszero\n      tag_223\n      jumpi\n        /* \"#utility.yul\":1201:1280   */\n      tag_224\n      tag_212\n      jump\t// in\n    tag_224:\n        /* \"#utility.yul\":1147:1290   */\n    tag_223:\n        /* \"#utility.yul\":1314:1315   */\n      0x00\n        /* \"#utility.yul\":1299:1767   */\n    tag_225:\n        /* \"#utility.yul\":1324:1330   */\n      dup6\n        /* \"#utility.yul\":1321:1322   */\n      dup2\n        /* \"#utility.yul\":1318:1331   */\n      lt\n        /* \"#utility.yul\":1299:1767   */\n      iszero\n      tag_227\n      jumpi\n        /* \"#utility.yul\":1406:1409   */\n      dup2\n        /* \"#utility.yul\":1393:1410   */\n      calldataload\n        /* \"#utility.yul\":1442:1460   */\n      0xffffffffffffffff\n        /* \"#utility.yul\":1429:1440   */\n      dup2\n        /* \"#utility.yul\":1426:1461   */\n      gt\n        /* \"#utility.yul\":1423:1545   */\n      iszero\n      tag_228\n      jumpi\n        /* \"#utility.yul\":1464:1543   */\n      tag_229\n      tag_230\n      jump\t// in\n    tag_229:\n        /* \"#utility.yul\":1423:1545   */\n    tag_228:\n        /* \"#utility.yul\":1588:1599   */\n      dup1\n        /* \"#utility.yul\":1580:1586   */\n      dup7\n        /* \"#utility.yul\":1576:1600   */\n      add\n        /* \"#utility.yul\":1626:1688   */\n      tag_231\n        /* \"#utility.yul\":1684:1687   */\n      dup10\n        /* \"#utility.yul\":1672:1682   */\n      dup3\n        /* \"#utility.yul\":1626:1688   */\n      tag_232\n      jump\t// in\n    tag_231:\n        /* \"#utility.yul\":1621:1624   */\n      dup6\n        /* \"#utility.yul\":1614:1689   */\n      mstore\n        /* \"#utility.yul\":1718:1722   */\n      0x20\n        /* \"#utility.yul\":1713:1716   */\n      dup6\n        /* \"#utility.yul\":1709:1723   */\n      add\n        /* \"#utility.yul\":1702:1723   */\n      swap5\n      pop\n        /* \"#utility.yul\":1752:1756   */\n      0x20\n        /* \"#utility.yul\":1747:1750   */\n      dup5\n        /* \"#utility.yul\":1743:1757   */\n      add\n        /* \"#utility.yul\":1736:1757   */\n      swap4\n      pop\n        /* \"#utility.yul\":1359:1767   */\n      pop\n      pop\n        /* \"#utility.yul\":1346:1347   */\n      0x01\n        /* \"#utility.yul\":1343:1344   */\n      dup2\n        /* \"#utility.yul\":1339:1348   */\n      add\n        /* \"#utility.yul\":1334:1348   */\n      swap1\n      pop\n        /* \"#utility.yul\":1299:1767   */\n      jump(tag_225)\n    tag_227:\n        /* \"#utility.yul\":1303:1317   */\n      pop\n        /* \"#utility.yul\":898:1773   */\n      pop\n      pop\n        /* \"#utility.yul\":771:1773   */\n      swap4\n      swap3\n      pop\n      pop\n      pop\n      jump\t// out\n        /* \"#utility.yul\":1796:2518   */\n    tag_233:\n        /* \"#utility.yul\":1892:1897   */\n      0x00\n        /* \"#utility.yul\":1917:1998   */\n      tag_235\n        /* \"#utility.yul\":1933:1997   */\n      tag_236\n        /* \"#utility.yul\":1990:1996   */\n      dup5\n        /* \"#utility.yul\":1933:1997   */\n      tag_237\n      jump\t// in\n    tag_236:\n        /* \"#utility.yul\":1917:1998   */\n      tag_209\n      jump\t// in\n    tag_235:\n        /* \"#utility.yul\":1908:1998   */\n      swap1\n      pop\n        /* \"#utility.yul\":2018:2023   */\n      dup1\n        /* \"#utility.yul\":2047:2053   */\n      dup4\n        /* \"#utility.yul\":2040:2045   */\n      dup3\n        /* \"#utility.yul\":2033:2054   */\n      mstore\n        /* \"#utility.yul\":2081:2085   */\n      0x20\n        /* \"#utility.yul\":2074:2079   */\n      dup3\n        /* \"#utility.yul\":2070:2086   */\n      add\n        /* \"#utility.yul\":2063:2086   */\n      swap1\n      pop\n        /* \"#utility.yul\":2107:2113   */\n      dup3\n        /* \"#utility.yul\":2157:2160   */\n      dup6\n        /* \"#utility.yul\":2149:2153   */\n      0x20\n        /* \"#utility.yul\":2141:2147   */\n      dup7\n        /* \"#utility.yul\":2137:2154   */\n      mul\n        /* \"#utility.yul\":2132:2135   */\n      dup3\n        /* \"#utility.yul\":2128:2155   */\n      add\n        /* \"#utility.yul\":2125:2161   */\n      gt\n        /* \"#utility.yul\":2122:2265   */\n      iszero\n      tag_238\n      jumpi\n        /* \"#utility.yul\":2176:2255   */\n      tag_239\n      tag_212\n      jump\t// in\n    tag_239:\n        /* \"#utility.yul\":2122:2265   */\n    tag_238:\n        /* \"#utility.yul\":2289:2290   */\n      0x00\n        /* \"#utility.yul\":2274:2512   */\n    tag_240:\n        /* \"#utility.yul\":2299:2305   */\n      dup6\n        /* \"#utility.yul\":2296:2297   */\n      dup2\n        /* \"#utility.yul\":2293:2306   */\n      lt\n        /* \"#utility.yul\":2274:2512   */\n      iszero\n      tag_242\n      jumpi\n        /* \"#utility.yul\":2367:2370   */\n      dup2\n        /* \"#utility.yul\":2396:2433   */\n      tag_243\n        /* \"#utility.yul\":2429:2432   */\n      dup9\n        /* \"#utility.yul\":2417:2427   */\n      dup3\n        /* \"#utility.yul\":2396:2433   */\n      tag_244\n      jump\t// in\n    tag_243:\n        /* \"#utility.yul\":2391:2394   */\n      dup5\n        /* \"#utility.yul\":2384:2434   */\n      mstore\n        /* \"#utility.yul\":2463:2467   */\n      0x20\n        /* \"#utility.yul\":2458:2461   */\n      dup5\n        /* \"#utility.yul\":2454:2468   */\n      add\n        /* \"#utility.yul\":2447:2468   */\n      swap4\n      pop\n        /* \"#utility.yul\":2497:2501   */\n      0x20\n        /* \"#utility.yul\":2492:2495   */\n      dup4\n        /* \"#utility.yul\":2488:2502   */\n      add\n        /* \"#utility.yul\":2481:2502   */\n      swap3\n      pop\n        /* \"#utility.yul\":2334:2512   */\n      pop\n        /* \"#utility.yul\":2321:2322   */\n      0x01\n        /* \"#utility.yul\":2318:2319   */\n      dup2\n        /* \"#utility.yul\":2314:2323   */\n      add\n        /* \"#utility.yul\":2309:2323   */\n      swap1\n      pop\n        /* \"#utility.yul\":2274:2512   */\n      jump(tag_240)\n    tag_242:\n        /* \"#utility.yul\":2278:2292   */\n      pop\n        /* \"#utility.yul\":1898:2518   */\n      pop\n      pop\n        /* \"#utility.yul\":1796:2518   */\n      swap4\n      swap3\n      pop\n      pop\n      pop\n      jump\t// out\n        /* \"#utility.yul\":2541:3263   */\n    tag_245:\n        /* \"#utility.yul\":2637:2642   */\n      0x00\n        /* \"#utility.yul\":2662:2743   */\n      tag_247\n        /* \"#utility.yul\":2678:2742   */\n      tag_248\n        /* \"#utility.yul\":2735:2741   */\n      dup5\n        /* \"#utility.yul\":2678:2742   */\n      tag_249\n      jump\t// in\n    tag_248:\n        /* \"#utility.yul\":2662:2743   */\n      tag_209\n      jump\t// in\n    tag_247:\n        /* \"#utility.yul\":2653:2743   */\n      swap1\n      pop\n        /* \"#utility.yul\":2763:2768   */\n      dup1\n        /* \"#utility.yul\":2792:2798   */\n      dup4\n        /* \"#utility.yul\":2785:2790   */\n      dup3\n        /* \"#utility.yul\":2778:2799   */\n      mstore\n        /* \"#utility.yul\":2826:2830   */\n      0x20\n        /* \"#utility.yul\":2819:2824   */\n      dup3\n        /* \"#utility.yul\":2815:2831   */\n      add\n        /* \"#utility.yul\":2808:2831   */\n      swap1\n      pop\n        /* \"#utility.yul\":2852:2858   */\n      dup3\n        /* \"#utility.yul\":2902:2905   */\n      dup6\n        /* \"#utility.yul\":2894:2898   */\n      0x20\n        /* \"#utility.yul\":2886:2892   */\n      dup7\n        /* \"#utility.yul\":2882:2899   */\n      mul\n        /* \"#utility.yul\":2877:2880   */\n      dup3\n        /* \"#utility.yul\":2873:2900   */\n      add\n        /* \"#utility.yul\":2870:2906   */\n      gt\n        /* \"#utility.yul\":2867:3010   */\n      iszero\n      tag_250\n      jumpi\n        /* \"#utility.yul\":2921:3000   */\n      tag_251\n      tag_212\n      jump\t// in\n    tag_251:\n        /* \"#utility.yul\":2867:3010   */\n    tag_250:\n        /* \"#utility.yul\":3034:3035   */\n      0x00\n        /* \"#utility.yul\":3019:3257   */\n    tag_252:\n        /* \"#utility.yul\":3044:3050   */\n      dup6\n        /* \"#utility.yul\":3041:3042   */\n      dup2\n        /* \"#utility.yul\":3038:3051   */\n      lt\n        /* \"#utility.yul\":3019:3257   */\n      iszero\n      tag_254\n      jumpi\n        /* \"#utility.yul\":3112:3115   */\n      dup2\n        /* \"#utility.yul\":3141:3178   */\n      tag_255\n        /* \"#utility.yul\":3174:3177   */\n      dup9\n        /* \"#utility.yul\":3162:3172   */\n      dup3\n        /* \"#utility.yul\":3141:3178   */\n      tag_256\n      jump\t// in\n    tag_255:\n        /* \"#utility.yul\":3136:3139   */\n      dup5\n        /* \"#utility.yul\":3129:3179   */\n      mstore\n        /* \"#utility.yul\":3208:3212   */\n      0x20\n        /* \"#utility.yul\":3203:3206   */\n      dup5\n        /* \"#utility.yul\":3199:3213   */\n      add\n        /* \"#utility.yul\":3192:3213   */\n      swap4\n      pop\n        /* \"#utility.yul\":3242:3246   */\n      0x20\n        /* \"#utility.yul\":3237:3240   */\n      dup4\n        /* \"#utility.yul\":3233:3247   */\n      add\n        /* \"#utility.yul\":3226:3247   */\n      swap3\n      pop\n        /* \"#utility.yul\":3079:3257   */\n      pop\n        /* \"#utility.yul\":3066:3067   */\n      0x01\n        /* \"#utility.yul\":3063:3064   */\n      dup2\n        /* \"#utility.yul\":3059:3068   */\n      add\n        /* \"#utility.yul\":3054:3068   */\n      swap1\n      pop\n        /* \"#utility.yul\":3019:3257   */\n      jump(tag_252)\n    tag_254:\n        /* \"#utility.yul\":3023:3037   */\n      pop\n        /* \"#utility.yul\":2643:3263   */\n      pop\n      pop\n        /* \"#utility.yul\":2541:3263   */\n      swap4\n      swap3\n      pop\n      pop\n      pop\n      jump\t// out\n        /* \"#utility.yul\":3269:3408   */\n    tag_217:\n        /* \"#utility.yul\":3315:3320   */\n      0x00\n        /* \"#utility.yul\":3353:3359   */\n      dup2\n        /* \"#utility.yul\":3340:3360   */\n      calldataload\n        /* \"#utility.yul\":3331:3360   */\n      swap1\n      pop\n        /* \"#utility.yul\":3369:3402   */\n      tag_258\n        /* \"#utility.yul\":3396:3401   */\n      dup2\n        /* \"#utility.yul\":3369:3402   */\n      tag_259\n      jump\t// in\n    tag_258:\n        /* \"#utility.yul\":3269:3408   */\n      swap3\n      swap2\n      pop\n      pop\n      jump\t// out\n        /* \"#utility.yul\":3431:3801   */\n    tag_260:\n        /* \"#utility.yul\":3502:3507   */\n      0x00\n        /* \"#utility.yul\":3551:3554   */\n      dup3\n        /* \"#utility.yul\":3544:3548   */\n      0x1f\n        /* \"#utility.yul\":3536:3542   */\n      dup4\n        /* \"#utility.yul\":3532:3549   */\n      add\n        /* \"#utility.yul\":3528:3555   */\n      slt\n        /* \"#utility.yul\":3518:3640   */\n      tag_262\n      jumpi\n        /* \"#utility.yul\":3559:3638   */\n      tag_263\n      tag_230\n      jump\t// in\n    tag_263:\n        /* \"#utility.yul\":3518:3640   */\n    tag_262:\n        /* \"#utility.yul\":3676:3682   */\n      dup2\n        /* \"#utility.yul\":3663:3683   */\n      calldataload\n        /* \"#utility.yul\":3701:3795   */\n      tag_264\n        /* \"#utility.yul\":3791:3794   */\n      dup5\n        /* \"#utility.yul\":3783:3789   */\n      dup3\n        /* \"#utility.yul\":3776:3780   */\n      0x20\n        /* \"#utility.yul\":3768:3774   */\n      dup7\n        /* \"#utility.yul\":3764:3781   */\n      add\n        /* \"#utility.yul\":3701:3795   */\n      tag_204\n      jump\t// in\n    tag_264:\n        /* \"#utility.yul\":3692:3795   */\n      swap2\n      pop\n        /* \"#utility.yul\":3508:3801   */\n      pop\n        /* \"#utility.yul\":3431:3801   */\n      swap3\n      swap2\n      pop\n      pop\n      jump\t// out\n        /* \"#utility.yul\":3826:4246   */\n    tag_265:\n        /* \"#utility.yul\":3922:3927   */\n      0x00\n        /* \"#utility.yul\":3971:3974   */\n      dup3\n        /* \"#utility.yul\":3964:3968   */\n      0x1f\n        /* \"#utility.yul\":3956:3962   */\n      dup4\n        /* \"#utility.yul\":3952:3969   */\n      add\n        /* \"#utility.yul\":3948:3975   */\n      slt\n        /* \"#utility.yul\":3938:4060   */\n      tag_267\n      jumpi\n        /* \"#utility.yul\":3979:4058   */\n      tag_268\n      tag_230\n      jump\t// in\n    tag_268:\n        /* \"#utility.yul\":3938:4060   */\n    tag_267:\n        /* \"#utility.yul\":4096:4102   */\n      dup2\n        /* \"#utility.yul\":4083:4103   */\n      calldataload\n        /* \"#utility.yul\":4121:4240   */\n      tag_269\n        /* \"#utility.yul\":4236:4239   */\n      dup5\n        /* \"#utility.yul\":4228:4234   */\n      dup3\n        /* \"#utility.yul\":4221:4225   */\n      0x20\n        /* \"#utility.yul\":4213:4219   */\n      dup7\n        /* \"#utility.yul\":4209:4226   */\n      add\n        /* \"#utility.yul\":4121:4240   */\n      tag_218\n      jump\t// in\n    tag_269:\n        /* \"#utility.yul\":4112:4240   */\n      swap2\n      pop\n        /* \"#utility.yul\":3928:4246   */\n      pop\n        /* \"#utility.yul\":3826:4246   */\n      swap3\n      swap2\n      pop\n      pop\n      jump\t// out\n        /* \"#utility.yul\":4269:4639   */\n    tag_232:\n        /* \"#utility.yul\":4340:4345   */\n      0x00\n        /* \"#utility.yul\":4389:4392   */\n      dup3\n        /* \"#utility.yul\":4382:4386   */\n      0x1f\n        /* \"#utility.yul\":4374:4380   */\n      dup4\n        /* \"#utility.yul\":4370:4387   */\n      add\n        /* \"#utility.yul\":4366:4393   */\n      slt\n        /* \"#utility.yul\":4356:4478   */\n      tag_271\n      jumpi\n        /* \"#utility.yul\":4397:4476   */\n      tag_272\n      tag_230\n      jump\t// in\n    tag_272:\n        /* \"#utility.yul\":4356:4478   */\n    tag_271:\n        /* \"#utility.yul\":4514:4520   */\n      dup2\n        /* \"#utility.yul\":4501:4521   */\n      calldataload\n        /* \"#utility.yul\":4539:4633   */\n      tag_273\n        /* \"#utility.yul\":4629:4632   */\n      dup5\n        /* \"#utility.yul\":4621:4627   */\n      dup3\n        /* \"#utility.yul\":4614:4618   */\n      0x20\n        /* \"#utility.yul\":4606:4612   */\n      dup7\n        /* \"#utility.yul\":4602:4619   */\n      add\n        /* \"#utility.yul\":4539:4633   */\n      tag_233\n      jump\t// in\n    tag_273:\n        /* \"#utility.yul\":4530:4633   */\n      swap2\n      pop\n        /* \"#utility.yul\":4346:4639   */\n      pop\n        /* \"#utility.yul\":4269:4639   */\n      swap3\n      swap2\n      pop\n      pop\n      jump\t// out\n        /* \"#utility.yul\":4662:5032   */\n    tag_274:\n        /* \"#utility.yul\":4733:4738   */\n      0x00\n        /* \"#utility.yul\":4782:4785   */\n      dup3\n        /* \"#utility.yul\":4775:4779   */\n      0x1f\n        /* \"#utility.yul\":4767:4773   */\n      dup4\n        /* \"#utility.yul\":4763:4780   */\n      add\n        /* \"#utility.yul\":4759:4786   */\n      slt\n        /* \"#utility.yul\":4749:4871   */\n      tag_276\n      jumpi\n        /* \"#utility.yul\":4790:4869   */\n      tag_277\n      tag_230\n      jump\t// in\n    tag_277:\n        /* \"#utility.yul\":4749:4871   */\n    tag_276:\n        /* \"#utility.yul\":4907:4913   */\n      dup2\n        /* \"#utility.yul\":4894:4914   */\n      calldataload\n        /* \"#utility.yul\":4932:5026   */\n      tag_278\n        /* \"#utility.yul\":5022:5025   */\n      dup5\n        /* \"#utility.yul\":5014:5020   */\n      dup3\n        /* \"#utility.yul\":5007:5011   */\n      0x20\n        /* \"#utility.yul\":4999:5005   */\n      dup7\n        /* \"#utility.yul\":4995:5012   */\n      add\n        /* \"#utility.yul\":4932:5026   */\n      tag_245\n      jump\t// in\n    tag_278:\n        /* \"#utility.yul\":4923:5026   */\n      swap2\n      pop\n        /* \"#utility.yul\":4739:5032   */\n      pop\n        /* \"#utility.yul\":4662:5032   */\n      swap3\n      swap2\n      pop\n      pop\n      jump\t// out\n        /* \"#utility.yul\":5038:5175   */\n    tag_279:\n        /* \"#utility.yul\":5092:5097   */\n      0x00\n        /* \"#utility.yul\":5123:5129   */\n      dup2\n        /* \"#utility.yul\":5117:5130   */\n      mload\n        /* \"#utility.yul\":5108:5130   */\n      swap1\n      pop\n        /* \"#utility.yul\":5139:5169   */\n      tag_281\n        /* \"#utility.yul\":5163:5168   */\n      dup2\n        /* \"#utility.yul\":5139:5169   */\n      tag_282\n      jump\t// in\n    tag_281:\n        /* \"#utility.yul\":5038:5175   */\n      swap3\n      swap2\n      pop\n      pop\n      jump\t// out\n        /* \"#utility.yul\":5181:5320   */\n    tag_244:\n        /* \"#utility.yul\":5227:5232   */\n      0x00\n        /* \"#utility.yul\":5265:5271   */\n      dup2\n        /* \"#utility.yul\":5252:5272   */\n      calldataload\n        /* \"#utility.yul\":5243:5272   */\n      swap1\n      pop\n        /* \"#utility.yul\":5281:5314   */\n      tag_284\n        /* \"#utility.yul\":5308:5313   */\n      dup2\n        /* \"#utility.yul\":5281:5314   */\n      tag_285\n      jump\t// in\n    tag_284:\n        /* \"#utility.yul\":5181:5320   */\n      swap3\n      swap2\n      pop\n      pop\n      jump\t// out\n        /* \"#utility.yul\":5326:5465   */\n    tag_256:\n        /* \"#utility.yul\":5372:5377   */\n      0x00\n        /* \"#utility.yul\":5410:5416   */\n      dup2\n        /* \"#utility.yul\":5397:5417   */\n      calldataload\n        /* \"#utility.yul\":5388:5417   */\n      swap1\n      pop\n        /* \"#utility.yul\":5426:5459   */\n      tag_287\n        /* \"#utility.yul\":5453:5458   */\n      dup2\n        /* \"#utility.yul\":5426:5459   */\n      tag_288\n      jump\t// in\n    tag_287:\n        /* \"#utility.yul\":5326:5465   */\n      swap3\n      swap2\n      pop\n      pop\n      jump\t// out\n        /* \"#utility.yul\":5471:5800   */\n    tag_61:\n        /* \"#utility.yul\":5530:5536   */\n      0x00\n        /* \"#utility.yul\":5579:5581   */\n      0x20\n        /* \"#utility.yul\":5567:5576   */\n      dup3\n        /* \"#utility.yul\":5558:5565   */\n      dup5\n        /* \"#utility.yul\":5554:5577   */\n      sub\n        /* \"#utility.yul\":5550:5582   */\n      slt\n        /* \"#utility.yul\":5547:5666   */\n      iszero\n      tag_290\n      jumpi\n        /* \"#utility.yul\":5585:5664   */\n      tag_291\n      tag_292\n      jump\t// in\n    tag_291:\n        /* \"#utility.yul\":5547:5666   */\n    tag_290:\n        /* \"#utility.yul\":5705:5706   */\n      0x00\n        /* \"#utility.yul\":5730:5783   */\n      tag_293\n        /* \"#utility.yul\":5775:5782   */\n      dup5\n        /* \"#utility.yul\":5766:5772   */\n      dup3\n        /* \"#utility.yul\":5755:5764   */\n      dup6\n        /* \"#utility.yul\":5751:5773   */\n      add\n        /* \"#utility.yul\":5730:5783   */\n      tag_217\n      jump\t// in\n    tag_293:\n        /* \"#utility.yul\":5720:5783   */\n      swap2\n      pop\n        /* \"#utility.yul\":5676:5793   */\n      pop\n        /* \"#utility.yul\":5471:5800   */\n      swap3\n      swap2\n      pop\n      pop\n      jump\t// out\n        /* \"#utility.yul\":5806:7251   */\n    tag_42:\n        /* \"#utility.yul\":5992:5998   */\n      0x00\n        /* \"#utility.yul\":6000:6006   */\n      dup1\n        /* \"#utility.yul\":6008:6014   */\n      0x00\n        /* \"#utility.yul\":6016:6022   */\n      dup1\n        /* \"#utility.yul\":6065:6068   */\n      0x80\n        /* \"#utility.yul\":6053:6062   */\n      dup6\n        /* \"#utility.yul\":6044:6051   */\n      dup8\n        /* \"#utility.yul\":6040:6063   */\n      sub\n        /* \"#utility.yul\":6036:6069   */\n      slt\n        /* \"#utility.yul\":6033:6153   */\n      iszero\n      tag_295\n      jumpi\n        /* \"#utility.yul\":6072:6151   */\n      tag_296\n      tag_292\n      jump\t// in\n    tag_296:\n        /* \"#utility.yul\":6033:6153   */\n    tag_295:\n        /* \"#utility.yul\":6192:6193   */\n      0x00\n        /* \"#utility.yul\":6217:6270   */\n      tag_297\n        /* \"#utility.yul\":6262:6269   */\n      dup8\n        /* \"#utility.yul\":6253:6259   */\n      dup3\n        /* \"#utility.yul\":6242:6251   */\n      dup9\n        /* \"#utility.yul\":6238:6260   */\n      add\n        /* \"#utility.yul\":6217:6270   */\n      tag_217\n      jump\t// in\n    tag_297:\n        /* \"#utility.yul\":6207:6270   */\n      swap5\n      pop\n        /* \"#utility.yul\":6163:6280   */\n      pop\n        /* \"#utility.yul\":6347:6349   */\n      0x20\n        /* \"#utility.yul\":6336:6345   */\n      dup6\n        /* \"#utility.yul\":6332:6350   */\n      add\n        /* \"#utility.yul\":6319:6351   */\n      calldataload\n        /* \"#utility.yul\":6378:6396   */\n      0xffffffffffffffff\n        /* \"#utility.yul\":6370:6376   */\n      dup2\n        /* \"#utility.yul\":6367:6397   */\n      gt\n        /* \"#utility.yul\":6364:6481   */\n      iszero\n      tag_298\n      jumpi\n        /* \"#utility.yul\":6400:6479   */\n      tag_299\n      tag_300\n      jump\t// in\n    tag_299:\n        /* \"#utility.yul\":6364:6481   */\n    tag_298:\n        /* \"#utility.yul\":6505:6583   */\n      tag_301\n        /* \"#utility.yul\":6575:6582   */\n      dup8\n        /* \"#utility.yul\":6566:6572   */\n      dup3\n        /* \"#utility.yul\":6555:6564   */\n      dup9\n        /* \"#utility.yul\":6551:6573   */\n      add\n        /* \"#utility.yul\":6505:6583   */\n      tag_274\n      jump\t// in\n    tag_301:\n        /* \"#utility.yul\":6495:6583   */\n      swap4\n      pop\n        /* \"#utility.yul\":6290:6593   */\n      pop\n        /* \"#utility.yul\":6660:6662   */\n      0x40\n        /* \"#utility.yul\":6649:6658   */\n      dup6\n        /* \"#utility.yul\":6645:6663   */\n      add\n        /* \"#utility.yul\":6632:6664   */\n      calldataload\n        /* \"#utility.yul\":6691:6709   */\n      0xffffffffffffffff\n        /* \"#utility.yul\":6683:6689   */\n      dup2\n        /* \"#utility.yul\":6680:6710   */\n      gt\n        /* \"#utility.yul\":6677:6794   */\n      iszero\n      tag_302\n      jumpi\n        /* \"#utility.yul\":6713:6792   */\n      tag_303\n      tag_300\n      jump\t// in\n    tag_303:\n        /* \"#utility.yul\":6677:6794   */\n    tag_302:\n        /* \"#utility.yul\":6818:6896   */\n      tag_304\n        /* \"#utility.yul\":6888:6895   */\n      dup8\n        /* \"#utility.yul\":6879:6885   */\n      dup3\n        /* \"#utility.yul\":6868:6877   */\n      dup9\n        /* \"#utility.yul\":6864:6886   */\n      add\n        /* \"#utility.yul\":6818:6896   */\n      tag_274\n      jump\t// in\n    tag_304:\n        /* \"#utility.yul\":6808:6896   */\n      swap3\n      pop\n        /* \"#utility.yul\":6603:6906   */\n      pop\n        /* \"#utility.yul\":6973:6975   */\n      0x60\n        /* \"#utility.yul\":6962:6971   */\n      dup6\n        /* \"#utility.yul\":6958:6976   */\n      add\n        /* \"#utility.yul\":6945:6977   */\n      calldataload\n        /* \"#utility.yul\":7004:7022   */\n      0xffffffffffffffff\n        /* \"#utility.yul\":6996:7002   */\n      dup2\n        /* \"#utility.yul\":6993:7023   */\n      gt\n        /* \"#utility.yul\":6990:7107   */\n      iszero\n      tag_305\n      jumpi\n        /* \"#utility.yul\":7026:7105   */\n      tag_306\n      tag_300\n      jump\t// in\n    tag_306:\n        /* \"#utility.yul\":6990:7107   */\n    tag_305:\n        /* \"#utility.yul\":7131:7234   */\n      tag_307\n        /* \"#utility.yul\":7226:7233   */\n      dup8\n        /* \"#utility.yul\":7217:7223   */\n      dup3\n        /* \"#utility.yul\":7206:7215   */\n      dup9\n        /* \"#utility.yul\":7202:7224   */\n      add\n        /* \"#utility.yul\":7131:7234   */\n      tag_265\n      jump\t// in\n    tag_307:\n        /* \"#utility.yul\":7121:7234   */\n      swap2\n      pop\n        /* \"#utility.yul\":6916:7244   */\n      pop\n        /* \"#utility.yul\":5806:7251   */\n      swap3\n      swap6\n      swap2\n      swap5\n      pop\n      swap3\n      pop\n      jump\t// out\n        /* \"#utility.yul\":7257:8232   */\n    tag_24:\n        /* \"#utility.yul\":7368:7374   */\n      0x00\n        /* \"#utility.yul\":7376:7382   */\n      dup1\n        /* \"#utility.yul\":7384:7390   */\n      0x00\n        /* \"#utility.yul\":7392:7398   */\n      dup1\n        /* \"#utility.yul\":7441:7444   */\n      0x80\n        /* \"#utility.yul\":7429:7438   */\n      dup6\n        /* \"#utility.yul\":7420:7427   */\n      dup8\n        /* \"#utility.yul\":7416:7439   */\n      sub\n        /* \"#utility.yul\":7412:7445   */\n      slt\n        /* \"#utility.yul\":7409:7529   */\n      iszero\n      tag_309\n      jumpi\n        /* \"#utility.yul\":7448:7527   */\n      tag_310\n      tag_292\n      jump\t// in\n    tag_310:\n        /* \"#utility.yul\":7409:7529   */\n    tag_309:\n        /* \"#utility.yul\":7568:7569   */\n      0x00\n        /* \"#utility.yul\":7593:7646   */\n      tag_311\n        /* \"#utility.yul\":7638:7645   */\n      dup8\n        /* \"#utility.yul\":7629:7635   */\n      dup3\n        /* \"#utility.yul\":7618:7627   */\n      dup9\n        /* \"#utility.yul\":7614:7636   */\n      add\n        /* \"#utility.yul\":7593:7646   */\n      tag_217\n      jump\t// in\n    tag_311:\n        /* \"#utility.yul\":7583:7646   */\n      swap5\n      pop\n        /* \"#utility.yul\":7539:7656   */\n      pop\n        /* \"#utility.yul\":7695:7697   */\n      0x20\n        /* \"#utility.yul\":7721:7774   */\n      tag_312\n        /* \"#utility.yul\":7766:7773   */\n      dup8\n        /* \"#utility.yul\":7757:7763   */\n      dup3\n        /* \"#utility.yul\":7746:7755   */\n      dup9\n        /* \"#utility.yul\":7742:7764   */\n      add\n        /* \"#utility.yul\":7721:7774   */\n      tag_256\n      jump\t// in\n    tag_312:\n        /* \"#utility.yul\":7711:7774   */\n      swap4\n      pop\n        /* \"#utility.yul\":7666:7784   */\n      pop\n        /* \"#utility.yul\":7823:7825   */\n      0x40\n        /* \"#utility.yul\":7849:7902   */\n      tag_313\n        /* \"#utility.yul\":7894:7901   */\n      dup8\n        /* \"#utility.yul\":7885:7891   */\n      dup3\n        /* \"#utility.yul\":7874:7883   */\n      dup9\n        /* \"#utility.yul\":7870:7892   */\n      add\n        /* \"#utility.yul\":7849:7902   */\n      tag_256\n      jump\t// in\n    tag_313:\n        /* \"#utility.yul\":7839:7902   */\n      swap3\n      pop\n        /* \"#utility.yul\":7794:7912   */\n      pop\n        /* \"#utility.yul\":7979:7981   */\n      0x60\n        /* \"#utility.yul\":7968:7977   */\n      dup6\n        /* \"#utility.yul\":7964:7982   */\n      add\n        /* \"#utility.yul\":7951:7983   */\n      calldataload\n        /* \"#utility.yul\":8010:8028   */\n      0xffffffffffffffff\n        /* \"#utility.yul\":8002:8008   */\n      dup2\n        /* \"#utility.yul\":7999:8029   */\n      gt\n        /* \"#utility.yul\":7996:8113   */\n      iszero\n      tag_314\n      jumpi\n        /* \"#utility.yul\":8032:8111   */\n      tag_315\n      tag_300\n      jump\t// in\n    tag_315:\n        /* \"#utility.yul\":7996:8113   */\n    tag_314:\n        /* \"#utility.yul\":8137:8215   */\n      tag_316\n        /* \"#utility.yul\":8207:8214   */\n      dup8\n        /* \"#utility.yul\":8198:8204   */\n      dup3\n        /* \"#utility.yul\":8187:8196   */\n      dup9\n        /* \"#utility.yul\":8183:8205   */\n      add\n        /* \"#utility.yul\":8137:8215   */\n      tag_232\n      jump\t// in\n    tag_316:\n        /* \"#utility.yul\":8127:8215   */\n      swap2\n      pop\n        /* \"#utility.yul\":7922:8225   */\n      pop\n        /* \"#utility.yul\":7257:8232   */\n      swap3\n      swap6\n      swap2\n      swap5\n      pop\n      swap3\n      pop\n      jump\t// out\n        /* \"#utility.yul\":8238:9277   */\n    tag_46:\n        /* \"#utility.yul\":8365:8371   */\n      0x00\n        /* \"#utility.yul\":8373:8379   */\n      dup1\n        /* \"#utility.yul\":8381:8387   */\n      0x00\n        /* \"#utility.yul\":8430:8432   */\n      0x60\n        /* \"#utility.yul\":8418:8427   */\n      dup5\n        /* \"#utility.yul\":8409:8416   */\n      dup7\n        /* \"#utility.yul\":8405:8428   */\n      sub\n        /* \"#utility.yul\":8401:8433   */\n      slt\n        /* \"#utility.yul\":8398:8517   */\n      iszero\n      tag_318\n      jumpi\n        /* \"#utility.yul\":8436:8515   */\n      tag_319\n      tag_292\n      jump\t// in\n    tag_319:\n        /* \"#utility.yul\":8398:8517   */\n    tag_318:\n        /* \"#utility.yul\":8584:8585   */\n      0x00\n        /* \"#utility.yul\":8573:8582   */\n      dup5\n        /* \"#utility.yul\":8569:8586   */\n      add\n        /* \"#utility.yul\":8556:8587   */\n      calldataload\n        /* \"#utility.yul\":8614:8632   */\n      0xffffffffffffffff\n        /* \"#utility.yul\":8606:8612   */\n      dup2\n        /* \"#utility.yul\":8603:8633   */\n      gt\n        /* \"#utility.yul\":8600:8717   */\n      iszero\n      tag_320\n      jumpi\n        /* \"#utility.yul\":8636:8715   */\n      tag_321\n      tag_300\n      jump\t// in\n    tag_321:\n        /* \"#utility.yul\":8600:8717   */\n    tag_320:\n        /* \"#utility.yul\":8741:8819   */\n      tag_322\n        /* \"#utility.yul\":8811:8818   */\n      dup7\n        /* \"#utility.yul\":8802:8808   */\n      dup3\n        /* \"#utility.yul\":8791:8800   */\n      dup8\n        /* \"#utility.yul\":8787:8809   */\n      add\n        /* \"#utility.yul\":8741:8819   */\n      tag_260\n      jump\t// in\n    tag_322:\n        /* \"#utility.yul\":8731:8819   */\n      swap4\n      pop\n        /* \"#utility.yul\":8527:8829   */\n      pop\n        /* \"#utility.yul\":8896:8898   */\n      0x20\n        /* \"#utility.yul\":8885:8894   */\n      dup5\n        /* \"#utility.yul\":8881:8899   */\n      add\n        /* \"#utility.yul\":8868:8900   */\n      calldataload\n        /* \"#utility.yul\":8927:8945   */\n      0xffffffffffffffff\n        /* \"#utility.yul\":8919:8925   */\n      dup2\n        /* \"#utility.yul\":8916:8946   */\n      gt\n        /* \"#utility.yul\":8913:9030   */\n      iszero\n      tag_323\n      jumpi\n        /* \"#utility.yul\":8949:9028   */\n      tag_324\n      tag_300\n      jump\t// in\n    tag_324:\n        /* \"#utility.yul\":8913:9030   */\n    tag_323:\n        /* \"#utility.yul\":9054:9132   */\n      tag_325\n        /* \"#utility.yul\":9124:9131   */\n      dup7\n        /* \"#utility.yul\":9115:9121   */\n      dup3\n        /* \"#utility.yul\":9104:9113   */\n      dup8\n        /* \"#utility.yul\":9100:9122   */\n      add\n        /* \"#utility.yul\":9054:9132   */\n      tag_274\n      jump\t// in\n    tag_325:\n        /* \"#utility.yul\":9044:9132   */\n      swap3\n      pop\n        /* \"#utility.yul\":8839:9142   */\n      pop\n        /* \"#utility.yul\":9181:9183   */\n      0x40\n        /* \"#utility.yul\":9207:9260   */\n      tag_326\n        /* \"#utility.yul\":9252:9259   */\n      dup7\n        /* \"#utility.yul\":9243:9249   */\n      dup3\n        /* \"#utility.yul\":9232:9241   */\n      dup8\n        /* \"#utility.yul\":9228:9250   */\n      add\n        /* \"#utility.yul\":9207:9260   */\n      tag_256\n      jump\t// in\n    tag_326:\n        /* \"#utility.yul\":9197:9260   */\n      swap2\n      pop\n        /* \"#utility.yul\":9152:9270   */\n      pop\n        /* \"#utility.yul\":8238:9277   */\n      swap3\n      pop\n      swap3\n      pop\n      swap3\n      jump\t// out\n        /* \"#utility.yul\":9283:9628   */\n    tag_160:\n        /* \"#utility.yul\":9350:9356   */\n      0x00\n        /* \"#utility.yul\":9399:9401   */\n      0x20\n        /* \"#utility.yul\":9387:9396   */\n      dup3\n        /* \"#utility.yul\":9378:9385   */\n      dup5\n        /* \"#utility.yul\":9374:9397   */\n      sub\n        /* \"#utility.yul\":9370:9402   */\n      slt\n        /* \"#utility.yul\":9367:9486   */\n      iszero\n      tag_328\n      jumpi\n        /* \"#utility.yul\":9405:9484   */\n      tag_329\n      tag_292\n      jump\t// in\n    tag_329:\n        /* \"#utility.yul\":9367:9486   */\n    tag_328:\n        /* \"#utility.yul\":9525:9526   */\n      0x00\n        /* \"#utility.yul\":9550:9611   */\n      tag_330\n        /* \"#utility.yul\":9603:9610   */\n      dup5\n        /* \"#utility.yul\":9594:9600   */\n      dup3\n        /* \"#utility.yul\":9583:9592   */\n      dup6\n        /* \"#utility.yul\":9579:9601   */\n      add\n        /* \"#utility.yul\":9550:9611   */\n      tag_279\n      jump\t// in\n    tag_330:\n        /* \"#utility.yul\":9540:9611   */\n      swap2\n      pop\n        /* \"#utility.yul\":9496:9621   */\n      pop\n        /* \"#utility.yul\":9283:9628   */\n      swap3\n      swap2\n      pop\n      pop\n      jump\t// out\n        /* \"#utility.yul\":9634:9963   */\n    tag_28:\n        /* \"#utility.yul\":9693:9699   */\n      0x00\n        /* \"#utility.yul\":9742:9744   */\n      0x20\n        /* \"#utility.yul\":9730:9739   */\n      dup3\n        /* \"#utility.yul\":9721:9728   */\n      dup5\n        /* \"#utility.yul\":9717:9740   */\n      sub\n        /* \"#utility.yul\":9713:9745   */\n      slt\n        /* \"#utility.yul\":9710:9829   */\n      iszero\n      tag_332\n      jumpi\n        /* \"#utility.yul\":9748:9827   */\n      tag_333\n      tag_292\n      jump\t// in\n    tag_333:\n        /* \"#utility.yul\":9710:9829   */\n    tag_332:\n        /* \"#utility.yul\":9868:9869   */\n      0x00\n        /* \"#utility.yul\":9893:9946   */\n      tag_334\n        /* \"#utility.yul\":9938:9945   */\n      dup5\n        /* \"#utility.yul\":9929:9935   */\n      dup3\n        /* \"#utility.yul\":9918:9927   */\n      dup6\n        /* \"#utility.yul\":9914:9936   */\n      add\n        /* \"#utility.yul\":9893:9946   */\n      tag_256\n      jump\t// in\n    tag_334:\n        /* \"#utility.yul\":9883:9946   */\n      swap2\n      pop\n        /* \"#utility.yul\":9839:9956   */\n      pop\n        /* \"#utility.yul\":9634:9963   */\n      swap3\n      swap2\n      pop\n      pop\n      jump\t// out\n        /* \"#utility.yul\":9969:10443   */\n    tag_18:\n        /* \"#utility.yul\":10037:10043   */\n      0x00\n        /* \"#utility.yul\":10045:10051   */\n      dup1\n        /* \"#utility.yul\":10094:10096   */\n      0x40\n        /* \"#utility.yul\":10082:10091   */\n      dup4\n        /* \"#utility.yul\":10073:10080   */\n      dup6\n        /* \"#utility.yul\":10069:10092   */\n      sub\n        /* \"#utility.yul\":10065:10097   */\n      slt\n        /* \"#utility.yul\":10062:10181   */\n      iszero\n      tag_336\n      jumpi\n        /* \"#utility.yul\":10100:10179   */\n      tag_337\n      tag_292\n      jump\t// in\n    tag_337:\n        /* \"#utility.yul\":10062:10181   */\n    tag_336:\n        /* \"#utility.yul\":10220:10221   */\n      0x00\n        /* \"#utility.yul\":10245:10298   */\n      tag_338\n        /* \"#utility.yul\":10290:10297   */\n      dup6\n        /* \"#utility.yul\":10281:10287   */\n      dup3\n        /* \"#utility.yul\":10270:10279   */\n      dup7\n        /* \"#utility.yul\":10266:10288   */\n      add\n        /* \"#utility.yul\":10245:10298   */\n      tag_256\n      jump\t// in\n    tag_338:\n        /* \"#utility.yul\":10235:10298   */\n      swap3\n      pop\n        /* \"#utility.yul\":10191:10308   */\n      pop\n        /* \"#utility.yul\":10347:10349   */\n      0x20\n        /* \"#utility.yul\":10373:10426   */\n      tag_339\n        /* \"#utility.yul\":10418:10425   */\n      dup6\n        /* \"#utility.yul\":10409:10415   */\n      dup3\n        /* \"#utility.yul\":10398:10407   */\n      dup7\n        /* \"#utility.yul\":10394:10416   */\n      add\n        /* \"#utility.yul\":10373:10426   */\n      tag_217\n      jump\t// in\n    tag_339:\n        /* \"#utility.yul\":10363:10426   */\n      swap2\n      pop\n        /* \"#utility.yul\":10318:10436   */\n      pop\n        /* \"#utility.yul\":9969:10443   */\n      swap3\n      pop\n      swap3\n      swap1\n      pop\n      jump\t// out\n        /* \"#utility.yul\":10449:10567   */\n    tag_340:\n        /* \"#utility.yul\":10536:10560   */\n      tag_342\n        /* \"#utility.yul\":10554:10559   */\n      dup2\n        /* \"#utility.yul\":10536:10560   */\n      tag_343\n      jump\t// in\n    tag_342:\n        /* \"#utility.yul\":10531:10534   */\n      dup3\n        /* \"#utility.yul\":10524:10561   */\n      mstore\n        /* \"#utility.yul\":10449:10567   */\n      pop\n      pop\n      jump\t// out\n        /* \"#utility.yul\":10573:10730   */\n    tag_344:\n        /* \"#utility.yul\":10678:10723   */\n      tag_346\n        /* \"#utility.yul\":10698:10722   */\n      tag_347\n        /* \"#utility.yul\":10716:10721   */\n      dup3\n        /* \"#utility.yul\":10698:10722   */\n      tag_343\n      jump\t// in\n    tag_347:\n        /* \"#utility.yul\":10678:10723   */\n      tag_348\n      jump\t// in\n    tag_346:\n        /* \"#utility.yul\":10673:10676   */\n      dup3\n        /* \"#utility.yul\":10666:10724   */\n      mstore\n        /* \"#utility.yul\":10573:10730   */\n      pop\n      pop\n      jump\t// out\n        /* \"#utility.yul\":10736:10845   */\n    tag_349:\n        /* \"#utility.yul\":10817:10838   */\n      tag_351\n        /* \"#utility.yul\":10832:10837   */\n      dup2\n        /* \"#utility.yul\":10817:10838   */\n      tag_352\n      jump\t// in\n    tag_351:\n        /* \"#utility.yul\":10812:10815   */\n      dup3\n        /* \"#utility.yul\":10805:10839   */\n      mstore\n        /* \"#utility.yul\":10736:10845   */\n      pop\n      pop\n      jump\t// out\n        /* \"#utility.yul\":10851:10969   */\n    tag_353:\n        /* \"#utility.yul\":10938:10962   */\n      tag_355\n        /* \"#utility.yul\":10956:10961   */\n      dup2\n        /* \"#utility.yul\":10938:10962   */\n      tag_356\n      jump\t// in\n    tag_355:\n        /* \"#utility.yul\":10933:10936   */\n      dup3\n        /* \"#utility.yul\":10926:10963   */\n      mstore\n        /* \"#utility.yul\":10851:10969   */\n      pop\n      pop\n      jump\t// out\n        /* \"#utility.yul\":10975:11132   */\n    tag_357:\n        /* \"#utility.yul\":11080:11125   */\n      tag_359\n        /* \"#utility.yul\":11100:11124   */\n      tag_360\n        /* \"#utility.yul\":11118:11123   */\n      dup3\n        /* \"#utility.yul\":11100:11124   */\n      tag_356\n      jump\t// in\n    tag_360:\n        /* \"#utility.yul\":11080:11125   */\n      tag_361\n      jump\t// in\n    tag_359:\n        /* \"#utility.yul\":11075:11078   */\n      dup3\n        /* \"#utility.yul\":11068:11126   */\n      mstore\n        /* \"#utility.yul\":10975:11132   */\n      pop\n      pop\n      jump\t// out\n        /* \"#utility.yul\":11138:11511   */\n    tag_362:\n        /* \"#utility.yul\":11242:11245   */\n      0x00\n        /* \"#utility.yul\":11270:11308   */\n      tag_364\n        /* \"#utility.yul\":11302:11307   */\n      dup3\n        /* \"#utility.yul\":11270:11308   */\n      tag_365\n      jump\t// in\n    tag_364:\n        /* \"#utility.yul\":11324:11412   */\n      tag_366\n        /* \"#utility.yul\":11405:11411   */\n      dup2\n        /* \"#utility.yul\":11400:11403   */\n      dup6\n        /* \"#utility.yul\":11324:11412   */\n      tag_367\n      jump\t// in\n    tag_366:\n        /* \"#utility.yul\":11317:11412   */\n      swap4\n      pop\n        /* \"#utility.yul\":11421:11473   */\n      tag_368\n        /* \"#utility.yul\":11466:11472   */\n      dup2\n        /* \"#utility.yul\":11461:11464   */\n      dup6\n        /* \"#utility.yul\":11454:11458   */\n      0x20\n        /* \"#utility.yul\":11447:11452   */\n      dup7\n        /* \"#utility.yul\":11443:11459   */\n      add\n        /* \"#utility.yul\":11421:11473   */\n      tag_369\n      jump\t// in\n    tag_368:\n        /* \"#utility.yul\":11498:11504   */\n      dup1\n        /* \"#utility.yul\":11493:11496   */\n      dup5\n        /* \"#utility.yul\":11489:11505   */\n      add\n        /* \"#utility.yul\":11482:11505   */\n      swap2\n      pop\n        /* \"#utility.yul\":11246:11511   */\n      pop\n        /* \"#utility.yul\":11138:11511   */\n      swap3\n      swap2\n      pop\n      pop\n      jump\t// out\n        /* \"#utility.yul\":11517:11676   */\n    tag_370:\n        /* \"#utility.yul\":11618:11669   */\n      tag_372\n        /* \"#utility.yul\":11663:11668   */\n      dup2\n        /* \"#utility.yul\":11618:11669   */\n      tag_373\n      jump\t// in\n    tag_372:\n        /* \"#utility.yul\":11613:11616   */\n      dup3\n        /* \"#utility.yul\":11606:11670   */\n      mstore\n        /* \"#utility.yul\":11517:11676   */\n      pop\n      pop\n      jump\t// out\n        /* \"#utility.yul\":11682:12046   */\n    tag_374:\n        /* \"#utility.yul\":11770:11773   */\n      0x00\n        /* \"#utility.yul\":11798:11837   */\n      tag_376\n        /* \"#utility.yul\":11831:11836   */\n      dup3\n        /* \"#utility.yul\":11798:11837   */\n      tag_377\n      jump\t// in\n    tag_376:\n        /* \"#utility.yul\":11853:11924   */\n      tag_378\n        /* \"#utility.yul\":11917:11923   */\n      dup2\n        /* \"#utility.yul\":11912:11915   */\n      dup6\n        /* \"#utility.yul\":11853:11924   */\n      tag_379\n      jump\t// in\n    tag_378:\n        /* \"#utility.yul\":11846:11924   */\n      swap4\n      pop\n        /* \"#utility.yul\":11933:11985   */\n      tag_380\n        /* \"#utility.yul\":11978:11984   */\n      dup2\n        /* \"#utility.yul\":11973:11976   */\n      dup6\n        /* \"#utility.yul\":11966:11970   */\n      0x20\n        /* \"#utility.yul\":11959:11964   */\n      dup7\n        /* \"#utility.yul\":11955:11971   */\n      add\n        /* \"#utility.yul\":11933:11985   */\n      tag_369\n      jump\t// in\n    tag_380:\n        /* \"#utility.yul\":12010:12039   */\n      tag_381\n        /* \"#utility.yul\":12032:12038   */\n      dup2\n        /* \"#utility.yul\":12010:12039   */\n      tag_382\n      jump\t// in\n    tag_381:\n        /* \"#utility.yul\":12005:12008   */\n      dup5\n        /* \"#utility.yul\":12001:12040   */\n      add\n        /* \"#utility.yul\":11994:12040   */\n      swap2\n      pop\n        /* \"#utility.yul\":11774:12046   */\n      pop\n        /* \"#utility.yul\":11682:12046   */\n      swap3\n      swap2\n      pop\n      pop\n      jump\t// out\n        /* \"#utility.yul\":12052:12418   */\n    tag_383:\n        /* \"#utility.yul\":12194:12197   */\n      0x00\n        /* \"#utility.yul\":12215:12282   */\n      tag_385\n        /* \"#utility.yul\":12279:12281   */\n      0x1c\n        /* \"#utility.yul\":12274:12277   */\n      dup4\n        /* \"#utility.yul\":12215:12282   */\n      tag_379\n      jump\t// in\n    tag_385:\n        /* \"#utility.yul\":12208:12282   */\n      swap2\n      pop\n        /* \"#utility.yul\":12291:12384   */\n      tag_386\n        /* \"#utility.yul\":12380:12383   */\n      dup3\n        /* \"#utility.yul\":12291:12384   */\n      tag_387\n      jump\t// in\n    tag_386:\n        /* \"#utility.yul\":12409:12411   */\n      0x20\n        /* \"#utility.yul\":12404:12407   */\n      dup3\n        /* \"#utility.yul\":12400:12412   */\n      add\n        /* \"#utility.yul\":12393:12412   */\n      swap1\n      pop\n        /* \"#utility.yul\":12052:12418   */\n      swap2\n      swap1\n      pop\n      jump\t// out\n        /* \"#utility.yul\":12424:12790   */\n    tag_388:\n        /* \"#utility.yul\":12566:12569   */\n      0x00\n        /* \"#utility.yul\":12587:12654   */\n      tag_390\n        /* \"#utility.yul\":12651:12653   */\n      0x16\n        /* \"#utility.yul\":12646:12649   */\n      dup4\n        /* \"#utility.yul\":12587:12654   */\n      tag_379\n      jump\t// in\n    tag_390:\n        /* \"#utility.yul\":12580:12654   */\n      swap2\n      pop\n        /* \"#utility.yul\":12663:12756   */\n      tag_391\n        /* \"#utility.yul\":12752:12755   */\n      dup3\n        /* \"#utility.yul\":12663:12756   */\n      tag_392\n      jump\t// in\n    tag_391:\n        /* \"#utility.yul\":12781:12783   */\n      0x20\n        /* \"#utility.yul\":12776:12779   */\n      dup3\n        /* \"#utility.yul\":12772:12784   */\n      add\n        /* \"#utility.yul\":12765:12784   */\n      swap1\n      pop\n        /* \"#utility.yul\":12424:12790   */\n      swap2\n      swap1\n      pop\n      jump\t// out\n        /* \"#utility.yul\":12796:13162   */\n    tag_393:\n        /* \"#utility.yul\":12938:12941   */\n      0x00\n        /* \"#utility.yul\":12959:13026   */\n      tag_395\n        /* \"#utility.yul\":13023:13025   */\n      0x1b\n        /* \"#utility.yul\":13018:13021   */\n      dup4\n        /* \"#utility.yul\":12959:13026   */\n      tag_379\n      jump\t// in\n    tag_395:\n        /* \"#utility.yul\":12952:13026   */\n      swap2\n      pop\n        /* \"#utility.yul\":13035:13128   */\n      tag_396\n        /* \"#utility.yul\":13124:13127   */\n      dup3\n        /* \"#utility.yul\":13035:13128   */\n      tag_397\n      jump\t// in\n    tag_396:\n        /* \"#utility.yul\":13153:13155   */\n      0x20\n        /* \"#utility.yul\":13148:13151   */\n      dup3\n        /* \"#utility.yul\":13144:13156   */\n      add\n        /* \"#utility.yul\":13137:13156   */\n      swap1\n      pop\n        /* \"#utility.yul\":12796:13162   */\n      swap2\n      swap1\n      pop\n      jump\t// out\n        /* \"#utility.yul\":13168:13534   */\n    tag_398:\n        /* \"#utility.yul\":13310:13313   */\n      0x00\n        /* \"#utility.yul\":13331:13398   */\n      tag_400\n        /* \"#utility.yul\":13395:13397   */\n      0x26\n        /* \"#utility.yul\":13390:13393   */\n      dup4\n        /* \"#utility.yul\":13331:13398   */\n      tag_379\n      jump\t// in\n    tag_400:\n        /* \"#utility.yul\":13324:13398   */\n      swap2\n      pop\n        /* \"#utility.yul\":13407:13500   */\n      tag_401\n        /* \"#utility.yul\":13496:13499   */\n      dup3\n        /* \"#utility.yul\":13407:13500   */\n      tag_402\n      jump\t// in\n    tag_401:\n        /* \"#utility.yul\":13525:13527   */\n      0x40\n        /* \"#utility.yul\":13520:13523   */\n      dup3\n        /* \"#utility.yul\":13516:13528   */\n      add\n        /* \"#utility.yul\":13509:13528   */\n      swap1\n      pop\n        /* \"#utility.yul\":13168:13534   */\n      swap2\n      swap1\n      pop\n      jump\t// out\n        /* \"#utility.yul\":13540:13906   */\n    tag_403:\n        /* \"#utility.yul\":13682:13685   */\n      0x00\n        /* \"#utility.yul\":13703:13770   */\n      tag_405\n        /* \"#utility.yul\":13767:13769   */\n      0x3d\n        /* \"#utility.yul\":13762:13765   */\n      dup4\n        /* \"#utility.yul\":13703:13770   */\n      tag_379\n      jump\t// in\n    tag_405:\n        /* \"#utility.yul\":13696:13770   */\n      swap2\n      pop\n        /* \"#utility.yul\":13779:13872   */\n      tag_406\n        /* \"#utility.yul\":13868:13871   */\n      dup3\n        /* \"#utility.yul\":13779:13872   */\n      tag_407\n      jump\t// in\n    tag_406:\n        /* \"#utility.yul\":13897:13899   */\n      0x40\n        /* \"#utility.yul\":13892:13895   */\n      dup3\n        /* \"#utility.yul\":13888:13900   */\n      add\n        /* \"#utility.yul\":13881:13900   */\n      swap1\n      pop\n        /* \"#utility.yul\":13540:13906   */\n      swap2\n      swap1\n      pop\n      jump\t// out\n        /* \"#utility.yul\":13912:14278   */\n    tag_408:\n        /* \"#utility.yul\":14054:14057   */\n      0x00\n        /* \"#utility.yul\":14075:14142   */\n      tag_410\n        /* \"#utility.yul\":14139:14141   */\n      0x16\n        /* \"#utility.yul\":14134:14137   */\n      dup4\n        /* \"#utility.yul\":14075:14142   */\n      tag_379\n      jump\t// in\n    tag_410:\n        /* \"#utility.yul\":14068:14142   */\n      swap2\n      pop\n        /* \"#utility.yul\":14151:14244   */\n      tag_411\n        /* \"#utility.yul\":14240:14243   */\n      dup3\n        /* \"#utility.yul\":14151:14244   */\n      tag_412\n      jump\t// in\n    tag_411:\n        /* \"#utility.yul\":14269:14271   */\n      0x20\n        /* \"#utility.yul\":14264:14267   */\n      dup3\n        /* \"#utility.yul\":14260:14272   */\n      add\n        /* \"#utility.yul\":14253:14272   */\n      swap1\n      pop\n        /* \"#utility.yul\":13912:14278   */\n      swap2\n      swap1\n      pop\n      jump\t// out\n        /* \"#utility.yul\":14284:14650   */\n    tag_413:\n        /* \"#utility.yul\":14426:14429   */\n      0x00\n        /* \"#utility.yul\":14447:14514   */\n      tag_415\n        /* \"#utility.yul\":14511:14513   */\n      0x1d\n        /* \"#utility.yul\":14506:14509   */\n      dup4\n        /* \"#utility.yul\":14447:14514   */\n      tag_379\n      jump\t// in\n    tag_415:\n        /* \"#utility.yul\":14440:14514   */\n      swap2\n      pop\n        /* \"#utility.yul\":14523:14616   */\n      tag_416\n        /* \"#utility.yul\":14612:14615   */\n      dup3\n        /* \"#utility.yul\":14523:14616   */\n      tag_417\n      jump\t// in\n    tag_416:\n        /* \"#utility.yul\":14641:14643   */\n      0x20\n        /* \"#utility.yul\":14636:14639   */\n      dup3\n        /* \"#utility.yul\":14632:14644   */\n      add\n        /* \"#utility.yul\":14625:14644   */\n      swap1\n      pop\n        /* \"#utility.yul\":14284:14650   */\n      swap2\n      swap1\n      pop\n      jump\t// out\n        /* \"#utility.yul\":14656:15022   */\n    tag_418:\n        /* \"#utility.yul\":14798:14801   */\n      0x00\n        /* \"#utility.yul\":14819:14886   */\n      tag_420\n        /* \"#utility.yul\":14883:14885   */\n      0x12\n        /* \"#utility.yul\":14878:14881   */\n      dup4\n        /* \"#utility.yul\":14819:14886   */\n      tag_379\n      jump\t// in\n    tag_420:\n        /* \"#utility.yul\":14812:14886   */\n      swap2\n      pop\n        /* \"#utility.yul\":14895:14988   */\n      tag_421\n        /* \"#utility.yul\":14984:14987   */\n      dup3\n        /* \"#utility.yul\":14895:14988   */\n      tag_422\n      jump\t// in\n    tag_421:\n        /* \"#utility.yul\":15013:15015   */\n      0x20\n        /* \"#utility.yul\":15008:15011   */\n      dup3\n        /* \"#utility.yul\":15004:15016   */\n      add\n        /* \"#utility.yul\":14997:15016   */\n      swap1\n      pop\n        /* \"#utility.yul\":14656:15022   */\n      swap2\n      swap1\n      pop\n      jump\t// out\n        /* \"#utility.yul\":15028:15394   */\n    tag_423:\n        /* \"#utility.yul\":15170:15173   */\n      0x00\n        /* \"#utility.yul\":15191:15258   */\n      tag_425\n        /* \"#utility.yul\":15255:15257   */\n      0x2a\n        /* \"#utility.yul\":15250:15253   */\n      dup4\n        /* \"#utility.yul\":15191:15258   */\n      tag_379\n      jump\t// in\n    tag_425:\n        /* \"#utility.yul\":15184:15258   */\n      swap2\n      pop\n        /* \"#utility.yul\":15267:15360   */\n      tag_426\n        /* \"#utility.yul\":15356:15359   */\n      dup3\n        /* \"#utility.yul\":15267:15360   */\n      tag_427\n      jump\t// in\n    tag_426:\n        /* \"#utility.yul\":15385:15387   */\n      0x40\n        /* \"#utility.yul\":15380:15383   */\n      dup3\n        /* \"#utility.yul\":15376:15388   */\n      add\n        /* \"#utility.yul\":15369:15388   */\n      swap1\n      pop\n        /* \"#utility.yul\":15028:15394   */\n      swap2\n      swap1\n      pop\n      jump\t// out\n        /* \"#utility.yul\":15400:15518   */\n    tag_428:\n        /* \"#utility.yul\":15487:15511   */\n      tag_430\n        /* \"#utility.yul\":15505:15510   */\n      dup2\n        /* \"#utility.yul\":15487:15511   */\n      tag_431\n      jump\t// in\n    tag_430:\n        /* \"#utility.yul\":15482:15485   */\n      dup3\n        /* \"#utility.yul\":15475:15512   */\n      mstore\n        /* \"#utility.yul\":15400:15518   */\n      pop\n      pop\n      jump\t// out\n        /* \"#utility.yul\":15524:15681   */\n    tag_432:\n        /* \"#utility.yul\":15629:15674   */\n      tag_434\n        /* \"#utility.yul\":15649:15673   */\n      tag_435\n        /* \"#utility.yul\":15667:15672   */\n      dup3\n        /* \"#utility.yul\":15649:15673   */\n      tag_431\n      jump\t// in\n    tag_435:\n        /* \"#utility.yul\":15629:15674   */\n      tag_436\n      jump\t// in\n    tag_434:\n        /* \"#utility.yul\":15624:15627   */\n      dup3\n        /* \"#utility.yul\":15617:15675   */\n      mstore\n        /* \"#utility.yul\":15524:15681   */\n      pop\n      pop\n      jump\t// out\n        /* \"#utility.yul\":15687:16084   */\n    tag_148:\n        /* \"#utility.yul\":15827:15830   */\n      0x00\n        /* \"#utility.yul\":15842:15917   */\n      tag_438\n        /* \"#utility.yul\":15913:15916   */\n      dup3\n        /* \"#utility.yul\":15904:15910   */\n      dup6\n        /* \"#utility.yul\":15842:15917   */\n      tag_344\n      jump\t// in\n    tag_438:\n        /* \"#utility.yul\":15942:15944   */\n      0x14\n        /* \"#utility.yul\":15937:15940   */\n      dup3\n        /* \"#utility.yul\":15933:15945   */\n      add\n        /* \"#utility.yul\":15926:15945   */\n      swap2\n      pop\n        /* \"#utility.yul\":15955:16030   */\n      tag_439\n        /* \"#utility.yul\":16026:16029   */\n      dup3\n        /* \"#utility.yul\":16017:16023   */\n      dup5\n        /* \"#utility.yul\":15955:16030   */\n      tag_432\n      jump\t// in\n    tag_439:\n        /* \"#utility.yul\":16055:16057   */\n      0x20\n        /* \"#utility.yul\":16050:16053   */\n      dup3\n        /* \"#utility.yul\":16046:16058   */\n      add\n        /* \"#utility.yul\":16039:16058   */\n      swap2\n      pop\n        /* \"#utility.yul\":16075:16078   */\n      dup2\n        /* \"#utility.yul\":16068:16078   */\n      swap1\n      pop\n        /* \"#utility.yul\":15687:16084   */\n      swap4\n      swap3\n      pop\n      pop\n      pop\n      jump\t// out\n        /* \"#utility.yul\":16090:16487   */\n    tag_172:\n        /* \"#utility.yul\":16230:16233   */\n      0x00\n        /* \"#utility.yul\":16245:16320   */\n      tag_441\n        /* \"#utility.yul\":16316:16319   */\n      dup3\n        /* \"#utility.yul\":16307:16313   */\n      dup6\n        /* \"#utility.yul\":16245:16320   */\n      tag_357\n      jump\t// in\n    tag_441:\n        /* \"#utility.yul\":16345:16347   */\n      0x20\n        /* \"#utility.yul\":16340:16343   */\n      dup3\n        /* \"#utility.yul\":16336:16348   */\n      add\n        /* \"#utility.yul\":16329:16348   */\n      swap2\n      pop\n        /* \"#utility.yul\":16358:16433   */\n      tag_442\n        /* \"#utility.yul\":16429:16432   */\n      dup3\n        /* \"#utility.yul\":16420:16426   */\n      dup5\n        /* \"#utility.yul\":16358:16433   */\n      tag_357\n      jump\t// in\n    tag_442:\n        /* \"#utility.yul\":16458:16460   */\n      0x20\n        /* \"#utility.yul\":16453:16456   */\n      dup3\n        /* \"#utility.yul\":16449:16461   */\n      add\n        /* \"#utility.yul\":16442:16461   */\n      swap2\n      pop\n        /* \"#utility.yul\":16478:16481   */\n      dup2\n        /* \"#utility.yul\":16471:16481   */\n      swap1\n      pop\n        /* \"#utility.yul\":16090:16487   */\n      swap4\n      swap3\n      pop\n      pop\n      pop\n      jump\t// out\n        /* \"#utility.yul\":16493:16764   */\n    tag_189:\n        /* \"#utility.yul\":16623:16626   */\n      0x00\n        /* \"#utility.yul\":16645:16738   */\n      tag_444\n        /* \"#utility.yul\":16734:16737   */\n      dup3\n        /* \"#utility.yul\":16725:16731   */\n      dup5\n        /* \"#utility.yul\":16645:16738   */\n      tag_362\n      jump\t// in\n    tag_444:\n        /* \"#utility.yul\":16638:16738   */\n      swap2\n      pop\n        /* \"#utility.yul\":16755:16758   */\n      dup2\n        /* \"#utility.yul\":16748:16758   */\n      swap1\n      pop\n        /* \"#utility.yul\":16493:16764   */\n      swap3\n      swap2\n      pop\n      pop\n      jump\t// out\n        /* \"#utility.yul\":16770:16992   */\n    tag_35:\n        /* \"#utility.yul\":16863:16867   */\n      0x00\n        /* \"#utility.yul\":16901:16903   */\n      0x20\n        /* \"#utility.yul\":16890:16899   */\n      dup3\n        /* \"#utility.yul\":16886:16904   */\n      add\n        /* \"#utility.yul\":16878:16904   */\n      swap1\n      pop\n        /* \"#utility.yul\":16914:16985   */\n      tag_446\n        /* \"#utility.yul\":16982:16983   */\n      0x00\n        /* \"#utility.yul\":16971:16980   */\n      dup4\n        /* \"#utility.yul\":16967:16984   */\n      add\n        /* \"#utility.yul\":16958:16964   */\n      dup5\n        /* \"#utility.yul\":16914:16985   */\n      tag_340\n      jump\t// in\n    tag_446:\n        /* \"#utility.yul\":16770:16992   */\n      swap3\n      swap2\n      pop\n      pop\n      jump\t// out\n        /* \"#utility.yul\":16998:17440   */\n    tag_144:\n        /* \"#utility.yul\":17147:17151   */\n      0x00\n        /* \"#utility.yul\":17185:17187   */\n      0x60\n        /* \"#utility.yul\":17174:17183   */\n      dup3\n        /* \"#utility.yul\":17170:17188   */\n      add\n        /* \"#utility.yul\":17162:17188   */\n      swap1\n      pop\n        /* \"#utility.yul\":17198:17269   */\n      tag_448\n        /* \"#utility.yul\":17266:17267   */\n      0x00\n        /* \"#utility.yul\":17255:17264   */\n      dup4\n        /* \"#utility.yul\":17251:17268   */\n      add\n        /* \"#utility.yul\":17242:17248   */\n      dup7\n        /* \"#utility.yul\":17198:17269   */\n      tag_340\n      jump\t// in\n    tag_448:\n        /* \"#utility.yul\":17279:17351   */\n      tag_449\n        /* \"#utility.yul\":17347:17349   */\n      0x20\n        /* \"#utility.yul\":17336:17345   */\n      dup4\n        /* \"#utility.yul\":17332:17350   */\n      add\n        /* \"#utility.yul\":17323:17329   */\n      dup6\n        /* \"#utility.yul\":17279:17351   */\n      tag_340\n      jump\t// in\n    tag_449:\n        /* \"#utility.yul\":17361:17433   */\n      tag_450\n        /* \"#utility.yul\":17429:17431   */\n      0x40\n        /* \"#utility.yul\":17418:17427   */\n      dup4\n        /* \"#utility.yul\":17414:17432   */\n      add\n        /* \"#utility.yul\":17405:17411   */\n      dup5\n        /* \"#utility.yul\":17361:17433   */\n      tag_428\n      jump\t// in\n    tag_450:\n        /* \"#utility.yul\":16998:17440   */\n      swap5\n      swap4\n      pop\n      pop\n      pop\n      pop\n      jump\t// out\n        /* \"#utility.yul\":17446:17778   */\n    tag_154:\n        /* \"#utility.yul\":17567:17571   */\n      0x00\n        /* \"#utility.yul\":17605:17607   */\n      0x40\n        /* \"#utility.yul\":17594:17603   */\n      dup3\n        /* \"#utility.yul\":17590:17608   */\n      add\n        /* \"#utility.yul\":17582:17608   */\n      swap1\n      pop\n        /* \"#utility.yul\":17618:17689   */\n      tag_452\n        /* \"#utility.yul\":17686:17687   */\n      0x00\n        /* \"#utility.yul\":17675:17684   */\n      dup4\n        /* \"#utility.yul\":17671:17688   */\n      add\n        /* \"#utility.yul\":17662:17668   */\n      dup6\n        /* \"#utility.yul\":17618:17689   */\n      tag_340\n      jump\t// in\n    tag_452:\n        /* \"#utility.yul\":17699:17771   */\n      tag_453\n        /* \"#utility.yul\":17767:17769   */\n      0x20\n        /* \"#utility.yul\":17756:17765   */\n      dup4\n        /* \"#utility.yul\":17752:17770   */\n      add\n        /* \"#utility.yul\":17743:17749   */\n      dup5\n        /* \"#utility.yul\":17699:17771   */\n      tag_428\n      jump\t// in\n    tag_453:\n        /* \"#utility.yul\":17446:17778   */\n      swap4\n      swap3\n      pop\n      pop\n      pop\n      jump\t// out\n        /* \"#utility.yul\":17784:18226   */\n    tag_127:\n        /* \"#utility.yul\":17933:17937   */\n      0x00\n        /* \"#utility.yul\":17971:17973   */\n      0x60\n        /* \"#utility.yul\":17960:17969   */\n      dup3\n        /* \"#utility.yul\":17956:17974   */\n      add\n        /* \"#utility.yul\":17948:17974   */\n      swap1\n      pop\n        /* \"#utility.yul\":17984:18055   */\n      tag_455\n        /* \"#utility.yul\":18052:18053   */\n      0x00\n        /* \"#utility.yul\":18041:18050   */\n      dup4\n        /* \"#utility.yul\":18037:18054   */\n      add\n        /* \"#utility.yul\":18028:18034   */\n      dup7\n        /* \"#utility.yul\":17984:18055   */\n      tag_340\n      jump\t// in\n    tag_455:\n        /* \"#utility.yul\":18065:18137   */\n      tag_456\n        /* \"#utility.yul\":18133:18135   */\n      0x20\n        /* \"#utility.yul\":18122:18131   */\n      dup4\n        /* \"#utility.yul\":18118:18136   */\n      add\n        /* \"#utility.yul\":18109:18115   */\n      dup6\n        /* \"#utility.yul\":18065:18137   */\n      tag_428\n      jump\t// in\n    tag_456:\n        /* \"#utility.yul\":18147:18219   */\n      tag_457\n        /* \"#utility.yul\":18215:18217   */\n      0x40\n        /* \"#utility.yul\":18204:18213   */\n      dup4\n        /* \"#utility.yul\":18200:18218   */\n      add\n        /* \"#utility.yul\":18191:18197   */\n      dup5\n        /* \"#utility.yul\":18147:18219   */\n      tag_428\n      jump\t// in\n    tag_457:\n        /* \"#utility.yul\":17784:18226   */\n      swap5\n      swap4\n      pop\n      pop\n      pop\n      pop\n      jump\t// out\n        /* \"#utility.yul\":18232:18442   */\n    tag_21:\n        /* \"#utility.yul\":18319:18323   */\n      0x00\n        /* \"#utility.yul\":18357:18359   */\n      0x20\n        /* \"#utility.yul\":18346:18355   */\n      dup3\n        /* \"#utility.yul\":18342:18360   */\n      add\n        /* \"#utility.yul\":18334:18360   */\n      swap1\n      pop\n        /* \"#utility.yul\":18370:18435   */\n      tag_459\n        /* \"#utility.yul\":18432:18433   */\n      0x00\n        /* \"#utility.yul\":18421:18430   */\n      dup4\n        /* \"#utility.yul\":18417:18434   */\n      add\n        /* \"#utility.yul\":18408:18414   */\n      dup5\n        /* \"#utility.yul\":18370:18435   */\n      tag_349\n      jump\t// in\n    tag_459:\n        /* \"#utility.yul\":18232:18442   */\n      swap3\n      swap2\n      pop\n      pop\n      jump\t// out\n        /* \"#utility.yul\":18448:18670   */\n    tag_31:\n        /* \"#utility.yul\":18541:18545   */\n      0x00\n        /* \"#utility.yul\":18579:18581   */\n      0x20\n        /* \"#utility.yul\":18568:18577   */\n      dup3\n        /* \"#utility.yul\":18564:18582   */\n      add\n        /* \"#utility.yul\":18556:18582   */\n      swap1\n      pop\n        /* \"#utility.yul\":18592:18663   */\n      tag_461\n        /* \"#utility.yul\":18660:18661   */\n      0x00\n        /* \"#utility.yul\":18649:18658   */\n      dup4\n        /* \"#utility.yul\":18645:18662   */\n      add\n        /* \"#utility.yul\":18636:18642   */\n      dup5\n        /* \"#utility.yul\":18592:18663   */\n      tag_353\n      jump\t// in\n    tag_461:\n        /* \"#utility.yul\":18448:18670   */\n      swap3\n      swap2\n      pop\n      pop\n      jump\t// out\n        /* \"#utility.yul\":18676:18926   */\n    tag_66:\n        /* \"#utility.yul\":18783:18787   */\n      0x00\n        /* \"#utility.yul\":18821:18823   */\n      0x20\n        /* \"#utility.yul\":18810:18819   */\n      dup3\n        /* \"#utility.yul\":18806:18824   */\n      add\n        /* \"#utility.yul\":18798:18824   */\n      swap1\n      pop\n        /* \"#utility.yul\":18834:18919   */\n      tag_463\n        /* \"#utility.yul\":18916:18917   */\n      0x00\n        /* \"#utility.yul\":18905:18914   */\n      dup4\n        /* \"#utility.yul\":18901:18918   */\n      add\n        /* \"#utility.yul\":18892:18898   */\n      dup5\n        /* \"#utility.yul\":18834:18919   */\n      tag_370\n      jump\t// in\n    tag_463:\n        /* \"#utility.yul\":18676:18926   */\n      swap3\n      swap2\n      pop\n      pop\n      jump\t// out\n        /* \"#utility.yul\":18932:19245   */\n    tag_202:\n        /* \"#utility.yul\":19045:19049   */\n      0x00\n        /* \"#utility.yul\":19083:19085   */\n      0x20\n        /* \"#utility.yul\":19072:19081   */\n      dup3\n        /* \"#utility.yul\":19068:19086   */\n      add\n        /* \"#utility.yul\":19060:19086   */\n      swap1\n      pop\n        /* \"#utility.yul\":19132:19141   */\n      dup2\n        /* \"#utility.yul\":19126:19130   */\n      dup2\n        /* \"#utility.yul\":19122:19142   */\n      sub\n        /* \"#utility.yul\":19118:19119   */\n      0x00\n        /* \"#utility.yul\":19107:19116   */\n      dup4\n        /* \"#utility.yul\":19103:19120   */\n      add\n        /* \"#utility.yul\":19096:19143   */\n      mstore\n        /* \"#utility.yul\":19160:19238   */\n      tag_465\n        /* \"#utility.yul\":19233:19237   */\n      dup2\n        /* \"#utility.yul\":19224:19230   */\n      dup5\n        /* \"#utility.yul\":19160:19238   */\n      tag_374\n      jump\t// in\n    tag_465:\n        /* \"#utility.yul\":19152:19238   */\n      swap1\n      pop\n        /* \"#utility.yul\":18932:19245   */\n      swap3\n      swap2\n      pop\n      pop\n      jump\t// out\n        /* \"#utility.yul\":19251:19670   */\n    tag_102:\n        /* \"#utility.yul\":19417:19421   */\n      0x00\n        /* \"#utility.yul\":19455:19457   */\n      0x20\n        /* \"#utility.yul\":19444:19453   */\n      dup3\n        /* \"#utility.yul\":19440:19458   */\n      add\n        /* \"#utility.yul\":19432:19458   */\n      swap1\n      pop\n        /* \"#utility.yul\":19504:19513   */\n      dup2\n        /* \"#utility.yul\":19498:19502   */\n      dup2\n        /* \"#utility.yul\":19494:19514   */\n      sub\n        /* \"#utility.yul\":19490:19491   */\n      0x00\n        /* \"#utility.yul\":19479:19488   */\n      dup4\n        /* \"#utility.yul\":19475:19492   */\n      add\n        /* \"#utility.yul\":19468:19515   */\n      mstore\n        /* \"#utility.yul\":19532:19663   */\n      tag_467\n        /* \"#utility.yul\":19658:19662   */\n      dup2\n        /* \"#utility.yul\":19532:19663   */\n      tag_383\n      jump\t// in\n    tag_467:\n        /* \"#utility.yul\":19524:19663   */\n      swap1\n      pop\n        /* \"#utility.yul\":19251:19670   */\n      swap2\n      swap1\n      pop\n      jump\t// out\n        /* \"#utility.yul\":19676:20095   */\n    tag_125:\n        /* \"#utility.yul\":19842:19846   */\n      0x00\n        /* \"#utility.yul\":19880:19882   */\n      0x20\n        /* \"#utility.yul\":19869:19878   */\n      dup3\n        /* \"#utility.yul\":19865:19883   */\n      add\n        /* \"#utility.yul\":19857:19883   */\n      swap1\n      pop\n        /* \"#utility.yul\":19929:19938   */\n      dup2\n        /* \"#utility.yul\":19923:19927   */\n      dup2\n        /* \"#utility.yul\":19919:19939   */\n      sub\n        /* \"#utility.yul\":19915:19916   */\n      0x00\n        /* \"#utility.yul\":19904:19913   */\n      dup4\n        /* \"#utility.yul\":19900:19917   */\n      add\n        /* \"#utility.yul\":19893:19940   */\n      mstore\n        /* \"#utility.yul\":19957:20088   */\n      tag_469\n        /* \"#utility.yul\":20083:20087   */\n      dup2\n        /* \"#utility.yul\":19957:20088   */\n      tag_388\n      jump\t// in\n    tag_469:\n        /* \"#utility.yul\":19949:20088   */\n      swap1\n      pop\n        /* \"#utility.yul\":19676:20095   */\n      swap2\n      swap1\n      pop\n      jump\t// out\n        /* \"#utility.yul\":20101:20520   */\n    tag_140:\n        /* \"#utility.yul\":20267:20271   */\n      0x00\n        /* \"#utility.yul\":20305:20307   */\n      0x20\n        /* \"#utility.yul\":20294:20303   */\n      dup3\n        /* \"#utility.yul\":20290:20308   */\n      add\n        /* \"#utility.yul\":20282:20308   */\n      swap1\n      pop\n        /* \"#utility.yul\":20354:20363   */\n      dup2\n        /* \"#utility.yul\":20348:20352   */\n      dup2\n        /* \"#utility.yul\":20344:20364   */\n      sub\n        /* \"#utility.yul\":20340:20341   */\n      0x00\n        /* \"#utility.yul\":20329:20338   */\n      dup4\n        /* \"#utility.yul\":20325:20342   */\n      add\n        /* \"#utility.yul\":20318:20365   */\n      mstore\n        /* \"#utility.yul\":20382:20513   */\n      tag_471\n        /* \"#utility.yul\":20508:20512   */\n      dup2\n        /* \"#utility.yul\":20382:20513   */\n      tag_393\n      jump\t// in\n    tag_471:\n        /* \"#utility.yul\":20374:20513   */\n      swap1\n      pop\n        /* \"#utility.yul\":20101:20520   */\n      swap2\n      swap1\n      pop\n      jump\t// out\n        /* \"#utility.yul\":20526:20945   */\n    tag_182:\n        /* \"#utility.yul\":20692:20696   */\n      0x00\n        /* \"#utility.yul\":20730:20732   */\n      0x20\n        /* \"#utility.yul\":20719:20728   */\n      dup3\n        /* \"#utility.yul\":20715:20733   */\n      add\n        /* \"#utility.yul\":20707:20733   */\n      swap1\n      pop\n        /* \"#utility.yul\":20779:20788   */\n      dup2\n        /* \"#utility.yul\":20773:20777   */\n      dup2\n        /* \"#utility.yul\":20769:20789   */\n      sub\n        /* \"#utility.yul\":20765:20766   */\n      0x00\n        /* \"#utility.yul\":20754:20763   */\n      dup4\n        /* \"#utility.yul\":20750:20767   */\n      add\n        /* \"#utility.yul\":20743:20790   */\n      mstore\n        /* \"#utility.yul\":20807:20938   */\n      tag_473\n        /* \"#utility.yul\":20933:20937   */\n      dup2\n        /* \"#utility.yul\":20807:20938   */\n      tag_398\n      jump\t// in\n    tag_473:\n        /* \"#utility.yul\":20799:20938   */\n      swap1\n      pop\n        /* \"#utility.yul\":20526:20945   */\n      swap2\n      swap1\n      pop\n      jump\t// out\n        /* \"#utility.yul\":20951:21370   */\n    tag_134:\n        /* \"#utility.yul\":21117:21121   */\n      0x00\n        /* \"#utility.yul\":21155:21157   */\n      0x20\n        /* \"#utility.yul\":21144:21153   */\n      dup3\n        /* \"#utility.yul\":21140:21158   */\n      add\n        /* \"#utility.yul\":21132:21158   */\n      swap1\n      pop\n        /* \"#utility.yul\":21204:21213   */\n      dup2\n        /* \"#utility.yul\":21198:21202   */\n      dup2\n        /* \"#utility.yul\":21194:21214   */\n      sub\n        /* \"#utility.yul\":21190:21191   */\n      0x00\n        /* \"#utility.yul\":21179:21188   */\n      dup4\n        /* \"#utility.yul\":21175:21192   */\n      add\n        /* \"#utility.yul\":21168:21215   */\n      mstore\n        /* \"#utility.yul\":21232:21363   */\n      tag_475\n        /* \"#utility.yul\":21358:21362   */\n      dup2\n        /* \"#utility.yul\":21232:21363   */\n      tag_403\n      jump\t// in\n    tag_475:\n        /* \"#utility.yul\":21224:21363   */\n      swap1\n      pop\n        /* \"#utility.yul\":20951:21370   */\n      swap2\n      swap1\n      pop\n      jump\t// out\n        /* \"#utility.yul\":21376:21795   */\n    tag_121:\n        /* \"#utility.yul\":21542:21546   */\n      0x00\n        /* \"#utility.yul\":21580:21582   */\n      0x20\n        /* \"#utility.yul\":21569:21578   */\n      dup3\n        /* \"#utility.yul\":21565:21583   */\n      add\n        /* \"#utility.yul\":21557:21583   */\n      swap1\n      pop\n        /* \"#utility.yul\":21629:21638   */\n      dup2\n        /* \"#utility.yul\":21623:21627   */\n      dup2\n        /* \"#utility.yul\":21619:21639   */\n      sub\n        /* \"#utility.yul\":21615:21616   */\n      0x00\n        /* \"#utility.yul\":21604:21613   */\n      dup4\n        /* \"#utility.yul\":21600:21617   */\n      add\n        /* \"#utility.yul\":21593:21640   */\n      mstore\n        /* \"#utility.yul\":21657:21788   */\n      tag_477\n        /* \"#utility.yul\":21783:21787   */\n      dup2\n        /* \"#utility.yul\":21657:21788   */\n      tag_408\n      jump\t// in\n    tag_477:\n        /* \"#utility.yul\":21649:21788   */\n      swap1\n      pop\n        /* \"#utility.yul\":21376:21795   */\n      swap2\n      swap1\n      pop\n      jump\t// out\n        /* \"#utility.yul\":21801:22220   */\n    tag_187:\n        /* \"#utility.yul\":21967:21971   */\n      0x00\n        /* \"#utility.yul\":22005:22007   */\n      0x20\n        /* \"#utility.yul\":21994:22003   */\n      dup3\n        /* \"#utility.yul\":21990:22008   */\n      add\n        /* \"#utility.yul\":21982:22008   */\n      swap1\n      pop\n        /* \"#utility.yul\":22054:22063   */\n      dup2\n        /* \"#utility.yul\":22048:22052   */\n      dup2\n        /* \"#utility.yul\":22044:22064   */\n      sub\n        /* \"#utility.yul\":22040:22041   */\n      0x00\n        /* \"#utility.yul\":22029:22038   */\n      dup4\n        /* \"#utility.yul\":22025:22042   */\n      add\n        /* \"#utility.yul\":22018:22065   */\n      mstore\n        /* \"#utility.yul\":22082:22213   */\n      tag_479\n        /* \"#utility.yul\":22208:22212   */\n      dup2\n        /* \"#utility.yul\":22082:22213   */\n      tag_413\n      jump\t// in\n    tag_479:\n        /* \"#utility.yul\":22074:22213   */\n      swap1\n      pop\n        /* \"#utility.yul\":21801:22220   */\n      swap2\n      swap1\n      pop\n      jump\t// out\n        /* \"#utility.yul\":22226:22645   */\n    tag_78:\n        /* \"#utility.yul\":22392:22396   */\n      0x00\n        /* \"#utility.yul\":22430:22432   */\n      0x20\n        /* \"#utility.yul\":22419:22428   */\n      dup3\n        /* \"#utility.yul\":22415:22433   */\n      add\n        /* \"#utility.yul\":22407:22433   */\n      swap1\n      pop\n        /* \"#utility.yul\":22479:22488   */\n      dup2\n        /* \"#utility.yul\":22473:22477   */\n      dup2\n        /* \"#utility.yul\":22469:22489   */\n      sub\n        /* \"#utility.yul\":22465:22466   */\n      0x00\n        /* \"#utility.yul\":22454:22463   */\n      dup4\n        /* \"#utility.yul\":22450:22467   */\n      add\n        /* \"#utility.yul\":22443:22490   */\n      mstore\n        /* \"#utility.yul\":22507:22638   */\n      tag_481\n        /* \"#utility.yul\":22633:22637   */\n      dup2\n        /* \"#utility.yul\":22507:22638   */\n      tag_418\n      jump\t// in\n    tag_481:\n        /* \"#utility.yul\":22499:22638   */\n      swap1\n      pop\n        /* \"#utility.yul\":22226:22645   */\n      swap2\n      swap1\n      pop\n      jump\t// out\n        /* \"#utility.yul\":22651:23070   */\n    tag_163:\n        /* \"#utility.yul\":22817:22821   */\n      0x00\n        /* \"#utility.yul\":22855:22857   */\n      0x20\n        /* \"#utility.yul\":22844:22853   */\n      dup3\n        /* \"#utility.yul\":22840:22858   */\n      add\n        /* \"#utility.yul\":22832:22858   */\n      swap1\n      pop\n        /* \"#utility.yul\":22904:22913   */\n      dup2\n        /* \"#utility.yul\":22898:22902   */\n      dup2\n        /* \"#utility.yul\":22894:22914   */\n      sub\n        /* \"#utility.yul\":22890:22891   */\n      0x00\n        /* \"#utility.yul\":22879:22888   */\n      dup4\n        /* \"#utility.yul\":22875:22892   */\n      add\n        /* \"#utility.yul\":22868:22915   */\n      mstore\n        /* \"#utility.yul\":22932:23063   */\n      tag_483\n        /* \"#utility.yul\":23058:23062   */\n      dup2\n        /* \"#utility.yul\":22932:23063   */\n      tag_423\n      jump\t// in\n    tag_483:\n        /* \"#utility.yul\":22924:23063   */\n      swap1\n      pop\n        /* \"#utility.yul\":22651:23070   */\n      swap2\n      swap1\n      pop\n      jump\t// out\n        /* \"#utility.yul\":23076:23298   */\n    tag_58:\n        /* \"#utility.yul\":23169:23173   */\n      0x00\n        /* \"#utility.yul\":23207:23209   */\n      0x20\n        /* \"#utility.yul\":23196:23205   */\n      dup3\n        /* \"#utility.yul\":23192:23210   */\n      add\n        /* \"#utility.yul\":23184:23210   */\n      swap1\n      pop\n        /* \"#utility.yul\":23220:23291   */\n      tag_485\n        /* \"#utility.yul\":23288:23289   */\n      0x00\n        /* \"#utility.yul\":23277:23286   */\n      dup4\n        /* \"#utility.yul\":23273:23290   */\n      add\n        /* \"#utility.yul\":23264:23270   */\n      dup5\n        /* \"#utility.yul\":23220:23291   */\n      tag_428\n      jump\t// in\n    tag_485:\n        /* \"#utility.yul\":23076:23298   */\n      swap3\n      swap2\n      pop\n      pop\n      jump\t// out\n        /* \"#utility.yul\":23304:23433   */\n    tag_209:\n        /* \"#utility.yul\":23338:23344   */\n      0x00\n        /* \"#utility.yul\":23365:23385   */\n      tag_487\n      tag_488\n      jump\t// in\n    tag_487:\n        /* \"#utility.yul\":23355:23385   */\n      swap1\n      pop\n        /* \"#utility.yul\":23394:23427   */\n      tag_489\n        /* \"#utility.yul\":23422:23426   */\n      dup3\n        /* \"#utility.yul\":23414:23420   */\n      dup3\n        /* \"#utility.yul\":23394:23427   */\n      tag_490\n      jump\t// in\n    tag_489:\n        /* \"#utility.yul\":23304:23433   */\n      swap2\n      swap1\n      pop\n      jump\t// out\n        /* \"#utility.yul\":23439:23514   */\n    tag_488:\n        /* \"#utility.yul\":23472:23478   */\n      0x00\n        /* \"#utility.yul\":23505:23507   */\n      0x40\n        /* \"#utility.yul\":23499:23508   */\n      mload\n        /* \"#utility.yul\":23489:23508   */\n      swap1\n      pop\n        /* \"#utility.yul\":23439:23514   */\n      swap1\n      jump\t// out\n        /* \"#utility.yul\":23520:23831   */\n    tag_208:\n        /* \"#utility.yul\":23597:23601   */\n      0x00\n        /* \"#utility.yul\":23687:23705   */\n      0xffffffffffffffff\n        /* \"#utility.yul\":23679:23685   */\n      dup3\n        /* \"#utility.yul\":23676:23706   */\n      gt\n        /* \"#utility.yul\":23673:23729   */\n      iszero\n      tag_493\n      jumpi\n        /* \"#utility.yul\":23709:23727   */\n      tag_494\n      tag_495\n      jump\t// in\n    tag_494:\n        /* \"#utility.yul\":23673:23729   */\n    tag_493:\n        /* \"#utility.yul\":23759:23763   */\n      0x20\n        /* \"#utility.yul\":23751:23757   */\n      dup3\n        /* \"#utility.yul\":23747:23764   */\n      mul\n        /* \"#utility.yul\":23739:23764   */\n      swap1\n      pop\n        /* \"#utility.yul\":23819:23823   */\n      0x20\n        /* \"#utility.yul\":23813:23817   */\n      dup2\n        /* \"#utility.yul\":23809:23824   */\n      add\n        /* \"#utility.yul\":23801:23824   */\n      swap1\n      pop\n        /* \"#utility.yul\":23520:23831   */\n      swap2\n      swap1\n      pop\n      jump\t// out\n        /* \"#utility.yul\":23837:24173   */\n    tag_222:\n        /* \"#utility.yul\":23939:23943   */\n      0x00\n        /* \"#utility.yul\":24029:24047   */\n      0xffffffffffffffff\n        /* \"#utility.yul\":24021:24027   */\n      dup3\n        /* \"#utility.yul\":24018:24048   */\n      gt\n        /* \"#utility.yul\":24015:24071   */\n      iszero\n      tag_497\n      jumpi\n        /* \"#utility.yul\":24051:24069   */\n      tag_498\n      tag_495\n      jump\t// in\n    tag_498:\n        /* \"#utility.yul\":24015:24071   */\n    tag_497:\n        /* \"#utility.yul\":24101:24105   */\n      0x20\n        /* \"#utility.yul\":24093:24099   */\n      dup3\n        /* \"#utility.yul\":24089:24106   */\n      mul\n        /* \"#utility.yul\":24081:24106   */\n      swap1\n      pop\n        /* \"#utility.yul\":24161:24165   */\n      0x20\n        /* \"#utility.yul\":24155:24159   */\n      dup2\n        /* \"#utility.yul\":24151:24166   */\n      add\n        /* \"#utility.yul\":24143:24166   */\n      swap1\n      pop\n        /* \"#utility.yul\":23837:24173   */\n      swap2\n      swap1\n      pop\n      jump\t// out\n        /* \"#utility.yul\":24179:24490   */\n    tag_237:\n        /* \"#utility.yul\":24256:24260   */\n      0x00\n        /* \"#utility.yul\":24346:24364   */\n      0xffffffffffffffff\n        /* \"#utility.yul\":24338:24344   */\n      dup3\n        /* \"#utility.yul\":24335:24365   */\n      gt\n        /* \"#utility.yul\":24332:24388   */\n      iszero\n      tag_500\n      jumpi\n        /* \"#utility.yul\":24368:24386   */\n      tag_501\n      tag_495\n      jump\t// in\n    tag_501:\n        /* \"#utility.yul\":24332:24388   */\n    tag_500:\n        /* \"#utility.yul\":24418:24422   */\n      0x20\n        /* \"#utility.yul\":24410:24416   */\n      dup3\n        /* \"#utility.yul\":24406:24423   */\n      mul\n        /* \"#utility.yul\":24398:24423   */\n      swap1\n      pop\n        /* \"#utility.yul\":24478:24482   */\n      0x20\n        /* \"#utility.yul\":24472:24476   */\n      dup2\n        /* \"#utility.yul\":24468:24483   */\n      add\n        /* \"#utility.yul\":24460:24483   */\n      swap1\n      pop\n        /* \"#utility.yul\":24179:24490   */\n      swap2\n      swap1\n      pop\n      jump\t// out\n        /* \"#utility.yul\":24496:24807   */\n    tag_249:\n        /* \"#utility.yul\":24573:24577   */\n      0x00\n        /* \"#utility.yul\":24663:24681   */\n      0xffffffffffffffff\n        /* \"#utility.yul\":24655:24661   */\n      dup3\n        /* \"#utility.yul\":24652:24682   */\n      gt\n        /* \"#utility.yul\":24649:24705   */\n      iszero\n      tag_503\n      jumpi\n        /* \"#utility.yul\":24685:24703   */\n      tag_504\n      tag_495\n      jump\t// in\n    tag_504:\n        /* \"#utility.yul\":24649:24705   */\n    tag_503:\n        /* \"#utility.yul\":24735:24739   */\n      0x20\n        /* \"#utility.yul\":24727:24733   */\n      dup3\n        /* \"#utility.yul\":24723:24740   */\n      mul\n        /* \"#utility.yul\":24715:24740   */\n      swap1\n      pop\n        /* \"#utility.yul\":24795:24799   */\n      0x20\n        /* \"#utility.yul\":24789:24793   */\n      dup2\n        /* \"#utility.yul\":24785:24800   */\n      add\n        /* \"#utility.yul\":24777:24800   */\n      swap1\n      pop\n        /* \"#utility.yul\":24496:24807   */\n      swap2\n      swap1\n      pop\n      jump\t// out\n        /* \"#utility.yul\":24813:24911   */\n    tag_365:\n        /* \"#utility.yul\":24864:24870   */\n      0x00\n        /* \"#utility.yul\":24898:24903   */\n      dup2\n        /* \"#utility.yul\":24892:24904   */\n      mload\n        /* \"#utility.yul\":24882:24904   */\n      swap1\n      pop\n        /* \"#utility.yul\":24813:24911   */\n      swap2\n      swap1\n      pop\n      jump\t// out\n        /* \"#utility.yul\":24917:25016   */\n    tag_377:\n        /* \"#utility.yul\":24969:24975   */\n      0x00\n        /* \"#utility.yul\":25003:25008   */\n      dup2\n        /* \"#utility.yul\":24997:25009   */\n      mload\n        /* \"#utility.yul\":24987:25009   */\n      swap1\n      pop\n        /* \"#utility.yul\":24917:25016   */\n      swap2\n      swap1\n      pop\n      jump\t// out\n        /* \"#utility.yul\":25022:25169   */\n    tag_367:\n        /* \"#utility.yul\":25123:25134   */\n      0x00\n        /* \"#utility.yul\":25160:25163   */\n      dup2\n        /* \"#utility.yul\":25145:25163   */\n      swap1\n      pop\n        /* \"#utility.yul\":25022:25169   */\n      swap3\n      swap2\n      pop\n      pop\n      jump\t// out\n        /* \"#utility.yul\":25175:25344   */\n    tag_379:\n        /* \"#utility.yul\":25259:25270   */\n      0x00\n        /* \"#utility.yul\":25293:25299   */\n      dup3\n        /* \"#utility.yul\":25288:25291   */\n      dup3\n        /* \"#utility.yul\":25281:25300   */\n      mstore\n        /* \"#utility.yul\":25333:25337   */\n      0x20\n        /* \"#utility.yul\":25328:25331   */\n      dup3\n        /* \"#utility.yul\":25324:25338   */\n      add\n        /* \"#utility.yul\":25309:25338   */\n      swap1\n      pop\n        /* \"#utility.yul\":25175:25344   */\n      swap3\n      swap2\n      pop\n      pop\n      jump\t// out\n        /* \"#utility.yul\":25350:25655   */\n    tag_137:\n        /* \"#utility.yul\":25390:25393   */\n      0x00\n        /* \"#utility.yul\":25409:25429   */\n      tag_510\n        /* \"#utility.yul\":25427:25428   */\n      dup3\n        /* \"#utility.yul\":25409:25429   */\n      tag_431\n      jump\t// in\n    tag_510:\n        /* \"#utility.yul\":25404:25429   */\n      swap2\n      pop\n        /* \"#utility.yul\":25443:25463   */\n      tag_511\n        /* \"#utility.yul\":25461:25462   */\n      dup4\n        /* \"#utility.yul\":25443:25463   */\n      tag_431\n      jump\t// in\n    tag_511:\n        /* \"#utility.yul\":25438:25463   */\n      swap3\n      pop\n        /* \"#utility.yul\":25597:25598   */\n      dup3\n        /* \"#utility.yul\":25529:25595   */\n      0xffffffffffffffffffffffffffffffffffffffffffffffffffffffffffffffff\n        /* \"#utility.yul\":25525:25599   */\n      sub\n        /* \"#utility.yul\":25522:25523   */\n      dup3\n        /* \"#utility.yul\":25519:25600   */\n      gt\n        /* \"#utility.yul\":25516:25623   */\n      iszero\n      tag_512\n      jumpi\n        /* \"#utility.yul\":25603:25621   */\n      tag_513\n      tag_514\n      jump\t// in\n    tag_513:\n        /* \"#utility.yul\":25516:25623   */\n    tag_512:\n        /* \"#utility.yul\":25647:25648   */\n      dup3\n        /* \"#utility.yul\":25644:25645   */\n      dup3\n        /* \"#utility.yul\":25640:25649   */\n      add\n        /* \"#utility.yul\":25633:25649   */\n      swap1\n      pop\n        /* \"#utility.yul\":25350:25655   */\n      swap3\n      swap2\n      pop\n      pop\n      jump\t// out\n        /* \"#utility.yul\":25661:25757   */\n    tag_343:\n        /* \"#utility.yul\":25698:25705   */\n      0x00\n        /* \"#utility.yul\":25727:25751   */\n      tag_516\n        /* \"#utility.yul\":25745:25750   */\n      dup3\n        /* \"#utility.yul\":25727:25751   */\n      tag_517\n      jump\t// in\n    tag_516:\n        /* \"#utility.yul\":25716:25751   */\n      swap1\n      pop\n        /* \"#utility.yul\":25661:25757   */\n      swap2\n      swap1\n      pop\n      jump\t// out\n        /* \"#utility.yul\":25763:25853   */\n    tag_352:\n        /* \"#utility.yul\":25797:25804   */\n      0x00\n        /* \"#utility.yul\":25840:25845   */\n      dup2\n        /* \"#utility.yul\":25833:25846   */\n      iszero\n        /* \"#utility.yul\":25826:25847   */\n      iszero\n        /* \"#utility.yul\":25815:25847   */\n      swap1\n      pop\n        /* \"#utility.yul\":25763:25853   */\n      swap2\n      swap1\n      pop\n      jump\t// out\n        /* \"#utility.yul\":25859:25936   */\n    tag_356:\n        /* \"#utility.yul\":25896:25903   */\n      0x00\n        /* \"#utility.yul\":25925:25930   */\n      dup2\n        /* \"#utility.yul\":25914:25930   */\n      swap1\n      pop\n        /* \"#utility.yul\":25859:25936   */\n      swap2\n      swap1\n      pop\n      jump\t// out\n        /* \"#utility.yul\":25942:26068   */\n    tag_517:\n        /* \"#utility.yul\":25979:25986   */\n      0x00\n        /* \"#utility.yul\":26019:26061   */\n      0xffffffffffffffffffffffffffffffffffffffff\n        /* \"#utility.yul\":26012:26017   */\n      dup3\n        /* \"#utility.yul\":26008:26062   */\n      and\n        /* \"#utility.yul\":25997:26062   */\n      swap1\n      pop\n        /* \"#utility.yul\":25942:26068   */\n      swap2\n      swap1\n      pop\n      jump\t// out\n        /* \"#utility.yul\":26074:26151   */\n    tag_431:\n        /* \"#utility.yul\":26111:26118   */\n      0x00\n        /* \"#utility.yul\":26140:26145   */\n      dup2\n        /* \"#utility.yul\":26129:26145   */\n      swap1\n      pop\n        /* \"#utility.yul\":26074:26151   */\n      swap2\n      swap1\n      pop\n      jump\t// out\n        /* \"#utility.yul\":26157:26297   */\n    tag_373:\n        /* \"#utility.yul\":26221:26230   */\n      0x00\n        /* \"#utility.yul\":26254:26291   */\n      tag_523\n        /* \"#utility.yul\":26285:26290   */\n      dup3\n        /* \"#utility.yul\":26254:26291   */\n      tag_524\n      jump\t// in\n    tag_523:\n        /* \"#utility.yul\":26241:26291   */\n      swap1\n      pop\n        /* \"#utility.yul\":26157:26297   */\n      swap2\n      swap1\n      pop\n      jump\t// out\n        /* \"#utility.yul\":26303:26429   */\n    tag_524:\n        /* \"#utility.yul\":26353:26362   */\n      0x00\n        /* \"#utility.yul\":26386:26423   */\n      tag_526\n        /* \"#utility.yul\":26417:26422   */\n      dup3\n        /* \"#utility.yul\":26386:26423   */\n      tag_527\n      jump\t// in\n    tag_526:\n        /* \"#utility.yul\":26373:26423   */\n      swap1\n      pop\n        /* \"#utility.yul\":26303:26429   */\n      swap2\n      swap1\n      pop\n      jump\t// out\n        /* \"#utility.yul\":26435:26548   */\n    tag_527:\n        /* \"#utility.yul\":26485:26494   */\n      0x00\n        /* \"#utility.yul\":26518:26542   */\n      tag_529\n        /* \"#utility.yul\":26536:26541   */\n      dup3\n        /* \"#utility.yul\":26518:26542   */\n      tag_517\n      jump\t// in\n    tag_529:\n        /* \"#utility.yul\":26505:26542   */\n      swap1\n      pop\n        /* \"#utility.yul\":26435:26548   */\n      swap2\n      swap1\n      pop\n      jump\t// out\n        /* \"#utility.yul\":26554:26861   */\n    tag_369:\n        /* \"#utility.yul\":26622:26623   */\n      0x00\n        /* \"#utility.yul\":26632:26745   */\n    tag_531:\n        /* \"#utility.yul\":26646:26652   */\n      dup4\n        /* \"#utility.yul\":26643:26644   */\n      dup2\n        /* \"#utility.yul\":26640:26653   */\n      lt\n        /* \"#utility.yul\":26632:26745   */\n      iszero\n      tag_533\n      jumpi\n        /* \"#utility.yul\":26731:26732   */\n      dup1\n        /* \"#utility.yul\":26726:26729   */\n      dup3\n        /* \"#utility.yul\":26722:26733   */\n      add\n        /* \"#utility.yul\":26716:26734   */\n      mload\n        /* \"#utility.yul\":26712:26713   */\n      dup2\n        /* \"#utility.yul\":26707:26710   */\n      dup5\n        /* \"#utility.yul\":26703:26714   */\n      add\n        /* \"#utility.yul\":26696:26735   */\n      mstore\n        /* \"#utility.yul\":26668:26670   */\n      0x20\n        /* \"#utility.yul\":26665:26666   */\n      dup2\n        /* \"#utility.yul\":26661:26671   */\n      add\n        /* \"#utility.yul\":26656:26671   */\n      swap1\n      pop\n        /* \"#utility.yul\":26632:26745   */\n      jump(tag_531)\n    tag_533:\n        /* \"#utility.yul\":26763:26769   */\n      dup4\n        /* \"#utility.yul\":26760:26761   */\n      dup2\n        /* \"#utility.yul\":26757:26770   */\n      gt\n        /* \"#utility.yul\":26754:26855   */\n      iszero\n      tag_534\n      jumpi\n        /* \"#utility.yul\":26843:26844   */\n      0x00\n        /* \"#utility.yul\":26834:26840   */\n      dup5\n        /* \"#utility.yul\":26829:26832   */\n      dup5\n        /* \"#utility.yul\":26825:26841   */\n      add\n        /* \"#utility.yul\":26818:26845   */\n      mstore\n        /* \"#utility.yul\":26754:26855   */\n    tag_534:\n        /* \"#utility.yul\":26603:26861   */\n      pop\n        /* \"#utility.yul\":26554:26861   */\n      pop\n      pop\n      pop\n      jump\t// out\n        /* \"#utility.yul\":26867:27148   */\n    tag_490:\n        /* \"#utility.yul\":26950:26977   */\n      tag_536\n        /* \"#utility.yul\":26972:26976   */\n      dup3\n        /* \"#utility.yul\":26950:26977   */\n      tag_382\n      jump\t// in\n    tag_536:\n        /* \"#utility.yul\":26942:26948   */\n      dup2\n        /* \"#utility.yul\":26938:26978   */\n      add\n        /* \"#utility.yul\":27080:27086   */\n      dup2\n        /* \"#utility.yul\":27068:27078   */\n      dup2\n        /* \"#utility.yul\":27065:27087   */\n      lt\n        /* \"#utility.yul\":27044:27062   */\n      0xffffffffffffffff\n        /* \"#utility.yul\":27032:27042   */\n      dup3\n        /* \"#utility.yul\":27029:27063   */\n      gt\n        /* \"#utility.yul\":27026:27088   */\n      or\n        /* \"#utility.yul\":27023:27111   */\n      iszero\n      tag_537\n      jumpi\n        /* \"#utility.yul\":27091:27109   */\n      tag_538\n      tag_495\n      jump\t// in\n    tag_538:\n        /* \"#utility.yul\":27023:27111   */\n    tag_537:\n        /* \"#utility.yul\":27131:27141   */\n      dup1\n        /* \"#utility.yul\":27127:27129   */\n      0x40\n        /* \"#utility.yul\":27120:27142   */\n      mstore\n        /* \"#utility.yul\":26910:27148   */\n      pop\n        /* \"#utility.yul\":26867:27148   */\n      pop\n      pop\n      jump\t// out\n        /* \"#utility.yul\":27154:27387   */\n    tag_95:\n        /* \"#utility.yul\":27193:27196   */\n      0x00\n        /* \"#utility.yul\":27216:27240   */\n      tag_540\n        /* \"#utility.yul\":27234:27239   */\n      dup3\n        /* \"#utility.yul\":27216:27240   */\n      tag_431\n      jump\t// in\n    tag_540:\n        /* \"#utility.yul\":27207:27240   */\n      swap2\n      pop\n        /* \"#utility.yul\":27262:27328   */\n      0xffffffffffffffffffffffffffffffffffffffffffffffffffffffffffffffff\n        /* \"#utility.yul\":27255:27260   */\n      dup3\n        /* \"#utility.yul\":27252:27329   */\n      eq\n        /* \"#utility.yul\":27249:27352   */\n      iszero\n      tag_541\n      jumpi\n        /* \"#utility.yul\":27332:27350   */\n      tag_542\n      tag_514\n      jump\t// in\n    tag_542:\n        /* \"#utility.yul\":27249:27352   */\n    tag_541:\n        /* \"#utility.yul\":27379:27380   */\n      0x01\n        /* \"#utility.yul\":27372:27377   */\n      dup3\n        /* \"#utility.yul\":27368:27381   */\n      add\n        /* \"#utility.yul\":27361:27381   */\n      swap1\n      pop\n        /* \"#utility.yul\":27154:27387   */\n      swap2\n      swap1\n      pop\n      jump\t// out\n        /* \"#utility.yul\":27393:27493   */\n    tag_348:\n        /* \"#utility.yul\":27432:27439   */\n      0x00\n        /* \"#utility.yul\":27461:27487   */\n      tag_544\n        /* \"#utility.yul\":27481:27486   */\n      dup3\n        /* \"#utility.yul\":27461:27487   */\n      tag_545\n      jump\t// in\n    tag_544:\n        /* \"#utility.yul\":27450:27487   */\n      swap1\n      pop\n        /* \"#utility.yul\":27393:27493   */\n      swap2\n      swap1\n      pop\n      jump\t// out\n        /* \"#utility.yul\":27499:27578   */\n    tag_361:\n        /* \"#utility.yul\":27538:27545   */\n      0x00\n        /* \"#utility.yul\":27567:27572   */\n      dup2\n        /* \"#utility.yul\":27556:27572   */\n      swap1\n      pop\n        /* \"#utility.yul\":27499:27578   */\n      swap2\n      swap1\n      pop\n      jump\t// out\n        /* \"#utility.yul\":27584:27678   */\n    tag_545:\n        /* \"#utility.yul\":27623:27630   */\n      0x00\n        /* \"#utility.yul\":27652:27672   */\n      tag_548\n        /* \"#utility.yul\":27666:27671   */\n      dup3\n        /* \"#utility.yul\":27652:27672   */\n      tag_549\n      jump\t// in\n    tag_548:\n        /* \"#utility.yul\":27641:27672   */\n      swap1\n      pop\n        /* \"#utility.yul\":27584:27678   */\n      swap2\n      swap1\n      pop\n      jump\t// out\n        /* \"#utility.yul\":27684:27763   */\n    tag_436:\n        /* \"#utility.yul\":27723:27730   */\n      0x00\n        /* \"#utility.yul\":27752:27757   */\n      dup2\n        /* \"#utility.yul\":27741:27757   */\n      swap1\n      pop\n        /* \"#utility.yul\":27684:27763   */\n      swap2\n      swap1\n      pop\n      jump\t// out\n        /* \"#utility.yul\":27769:27949   */\n    tag_514:\n        /* \"#utility.yul\":27817:27894   */\n      0x4e487b7100000000000000000000000000000000000000000000000000000000\n        /* \"#utility.yul\":27814:27815   */\n      0x00\n        /* \"#utility.yul\":27807:27895   */\n      mstore\n        /* \"#utility.yul\":27914:27918   */\n      0x11\n        /* \"#utility.yul\":27911:27912   */\n      0x04\n        /* \"#utility.yul\":27904:27919   */\n      mstore\n        /* \"#utility.yul\":27938:27942   */\n      0x24\n        /* \"#utility.yul\":27935:27936   */\n      0x00\n        /* \"#utility.yul\":27928:27943   */\n      revert\n        /* \"#utility.yul\":27955:28135   */\n    tag_85:\n        /* \"#utility.yul\":28003:28080   */\n      0x4e487b7100000000000000000000000000000000000000000000000000000000\n        /* \"#utility.yul\":28000:28001   */\n      0x00\n        /* \"#utility.yul\":27993:28081   */\n      mstore\n        /* \"#utility.yul\":28100:28104   */\n      0x32\n        /* \"#utility.yul\":28097:28098   */\n      0x04\n        /* \"#utility.yul\":28090:28105   */\n      mstore\n        /* \"#utility.yul\":28124:28128   */\n      0x24\n        /* \"#utility.yul\":28121:28122   */\n      0x00\n        /* \"#utility.yul\":28114:28129   */\n      revert\n        /* \"#utility.yul\":28141:28321   */\n    tag_495:\n        /* \"#utility.yul\":28189:28266   */\n      0x4e487b7100000000000000000000000000000000000000000000000000000000\n        /* \"#utility.yul\":28186:28187   */\n      0x00\n        /* \"#utility.yul\":28179:28267   */\n      mstore\n        /* \"#utility.yul\":28286:28290   */\n      0x41\n        /* \"#utility.yul\":28283:28284   */\n      0x04\n        /* \"#utility.yul\":28276:28291   */\n      mstore\n        /* \"#utility.yul\":28310:28314   */\n      0x24\n        /* \"#utility.yul\":28307:28308   */\n      0x00\n        /* \"#utility.yul\":28300:28315   */\n      revert\n        /* \"#utility.yul\":28327:28444   */\n    tag_230:\n        /* \"#utility.yul\":28436:28437   */\n      0x00\n        /* \"#utility.yul\":28433:28434   */\n      dup1\n        /* \"#utility.yul\":28426:28438   */\n      revert\n        /* \"#utility.yul\":28450:28567   */\n    tag_212:\n        /* \"#utility.yul\":28559:28560   */\n      0x00\n        /* \"#utility.yul\":28556:28557   */\n      dup1\n        /* \"#utility.yul\":28549:28561   */\n      revert\n        /* \"#utility.yul\":28573:28690   */\n    tag_300:\n        /* \"#utility.yul\":28682:28683   */\n      0x00\n        /* \"#utility.yul\":28679:28680   */\n      dup1\n        /* \"#utility.yul\":28672:28684   */\n      revert\n        /* \"#utility.yul\":28696:28813   */\n    tag_292:\n        /* \"#utility.yul\":28805:28806   */\n      0x00\n        /* \"#utility.yul\":28802:28803   */\n      dup1\n        /* \"#utility.yul\":28795:28807   */\n      revert\n        /* \"#utility.yul\":28819:28921   */\n    tag_382:\n        /* \"#utility.yul\":28860:28866   */\n      0x00\n        /* \"#utility.yul\":28911:28913   */\n      0x1f\n        /* \"#utility.yul\":28907:28914   */\n      not\n        /* \"#utility.yul\":28902:28904   */\n      0x1f\n        /* \"#utility.yul\":28895:28900   */\n      dup4\n        /* \"#utility.yul\":28891:28905   */\n      add\n        /* \"#utility.yul\":28887:28915   */\n      and\n        /* \"#utility.yul\":28877:28915   */\n      swap1\n      pop\n        /* \"#utility.yul\":28819:28921   */\n      swap2\n      swap1\n      pop\n      jump\t// out\n        /* \"#utility.yul\":28927:29021   */\n    tag_549:\n        /* \"#utility.yul\":28960:28968   */\n      0x00\n        /* \"#utility.yul\":29008:29013   */\n      dup2\n        /* \"#utility.yul\":29004:29006   */\n      0x60\n        /* \"#utility.yul\":29000:29014   */\n      shl\n        /* \"#utility.yul\":28979:29014   */\n      swap1\n      pop\n        /* \"#utility.yul\":28927:29021   */\n      swap2\n      swap1\n      pop\n      jump\t// out\n        /* \"#utility.yul\":29027:29205   */\n    tag_387:\n        /* \"#utility.yul\":29167:29197   */\n      0x5765656b2063616e6e6f7420626520696e207468652066757475726500000000\n        /* \"#utility.yul\":29163:29164   */\n      0x00\n        /* \"#utility.yul\":29155:29161   */\n      dup3\n        /* \"#utility.yul\":29151:29165   */\n      add\n        /* \"#utility.yul\":29144:29198   */\n      mstore\n        /* \"#utility.yul\":29027:29205   */\n      pop\n      jump\t// out\n        /* \"#utility.yul\":29211:29383   */\n    tag_392:\n        /* \"#utility.yul\":29351:29375   */\n      0x496e636f7272656374206d65726b6c652070726f6f6600000000000000000000\n        /* \"#utility.yul\":29347:29348   */\n      0x00\n        /* \"#utility.yul\":29339:29345   */\n      dup3\n        /* \"#utility.yul\":29335:29349   */\n      add\n        /* \"#utility.yul\":29328:29376   */\n      mstore\n        /* \"#utility.yul\":29211:29383   */\n      pop\n      jump\t// out\n        /* \"#utility.yul\":29389:29566   */\n    tag_397:\n        /* \"#utility.yul\":29529:29558   */\n      0x536166654d6174683a206164646974696f6e206f766572666c6f770000000000\n        /* \"#utility.yul\":29525:29526   */\n      0x00\n        /* \"#utility.yul\":29517:29523   */\n      dup3\n        /* \"#utility.yul\":29513:29527   */\n      add\n        /* \"#utility.yul\":29506:29559   */\n      mstore\n        /* \"#utility.yul\":29389:29566   */\n      pop\n      jump\t// out\n        /* \"#utility.yul\":29572:29797   */\n    tag_402:\n        /* \"#utility.yul\":29712:29746   */\n      0x416464726573733a20696e73756666696369656e742062616c616e636520666f\n        /* \"#utility.yul\":29708:29709   */\n      0x00\n        /* \"#utility.yul\":29700:29706   */\n      dup3\n        /* \"#utility.yul\":29696:29710   */\n      add\n        /* \"#utility.yul\":29689:29747   */\n      mstore\n        /* \"#utility.yul\":29781:29789   */\n      0x722063616c6c0000000000000000000000000000000000000000000000000000\n        /* \"#utility.yul\":29776:29778   */\n      0x20\n        /* \"#utility.yul\":29768:29774   */\n      dup3\n        /* \"#utility.yul\":29764:29779   */\n      add\n        /* \"#utility.yul\":29757:29790   */\n      mstore\n        /* \"#utility.yul\":29572:29797   */\n      pop\n      jump\t// out\n        /* \"#utility.yul\":29803:30051   */\n    tag_407:\n        /* \"#utility.yul\":29943:29977   */\n      0x4e6f2062616c616e636520776f756c64206265207472616e7366657272656420\n        /* \"#utility.yul\":29939:29940   */\n      0x00\n        /* \"#utility.yul\":29931:29937   */\n      dup3\n        /* \"#utility.yul\":29927:29941   */\n      add\n        /* \"#utility.yul\":29920:29978   */\n      mstore\n        /* \"#utility.yul\":30012:30043   */\n      0x2d206e6f7420676f696e6720746f20776173746520796f757220676173000000\n        /* \"#utility.yul\":30007:30009   */\n      0x20\n        /* \"#utility.yul\":29999:30005   */\n      dup3\n        /* \"#utility.yul\":29995:30010   */\n      add\n        /* \"#utility.yul\":29988:30044   */\n      mstore\n        /* \"#utility.yul\":29803:30051   */\n      pop\n      jump\t// out\n        /* \"#utility.yul\":30057:30229   */\n    tag_412:\n        /* \"#utility.yul\":30197:30221   */\n      0x4c502068617320616c726561647920636c61696d656400000000000000000000\n        /* \"#utility.yul\":30193:30194   */\n      0x00\n        /* \"#utility.yul\":30185:30191   */\n      dup3\n        /* \"#utility.yul\":30181:30195   */\n      add\n        /* \"#utility.yul\":30174:30222   */\n      mstore\n        /* \"#utility.yul\":30057:30229   */\n      pop\n      jump\t// out\n        /* \"#utility.yul\":30235:30414   */\n    tag_417:\n        /* \"#utility.yul\":30375:30406   */\n      0x416464726573733a2063616c6c20746f206e6f6e2d636f6e7472616374000000\n        /* \"#utility.yul\":30371:30372   */\n      0x00\n        /* \"#utility.yul\":30363:30369   */\n      dup3\n        /* \"#utility.yul\":30359:30373   */\n      add\n        /* \"#utility.yul\":30352:30407   */\n      mstore\n        /* \"#utility.yul\":30235:30414   */\n      pop\n      jump\t// out\n        /* \"#utility.yul\":30420:30588   */\n    tag_422:\n        /* \"#utility.yul\":30560:30580   */\n      0x4d69736d61746368696e6720696e707574730000000000000000000000000000\n        /* \"#utility.yul\":30556:30557   */\n      0x00\n        /* \"#utility.yul\":30548:30554   */\n      dup3\n        /* \"#utility.yul\":30544:30558   */\n      add\n        /* \"#utility.yul\":30537:30581   */\n      mstore\n        /* \"#utility.yul\":30420:30588   */\n      pop\n      jump\t// out\n        /* \"#utility.yul\":30594:30823   */\n    tag_427:\n        /* \"#utility.yul\":30734:30768   */\n      0x5361666545524332303a204552433230206f7065726174696f6e20646964206e\n        /* \"#utility.yul\":30730:30731   */\n      0x00\n        /* \"#utility.yul\":30722:30728   */\n      dup3\n        /* \"#utility.yul\":30718:30732   */\n      add\n        /* \"#utility.yul\":30711:30769   */\n      mstore\n        /* \"#utility.yul\":30803:30815   */\n      0x6f74207375636365656400000000000000000000000000000000000000000000\n        /* \"#utility.yul\":30798:30800   */\n      0x20\n        /* \"#utility.yul\":30790:30796   */\n      dup3\n        /* \"#utility.yul\":30786:30801   */\n      add\n        /* \"#utility.yul\":30779:30816   */\n      mstore\n        /* \"#utility.yul\":30594:30823   */\n      pop\n      jump\t// out\n        /* \"#utility.yul\":30829:30951   */\n    tag_259:\n        /* \"#utility.yul\":30902:30926   */\n      tag_570\n        /* \"#utility.yul\":30920:30925   */\n      dup2\n        /* \"#utility.yul\":30902:30926   */\n      tag_343\n      jump\t// in\n    tag_570:\n        /* \"#utility.yul\":30895:30900   */\n      dup2\n        /* \"#utility.yul\":30892:30927   */\n      eq\n        /* \"#utility.yul\":30882:30945   */\n      tag_571\n      jumpi\n        /* \"#utility.yul\":30941:30942   */\n      0x00\n        /* \"#utility.yul\":30938:30939   */\n      dup1\n        /* \"#utility.yul\":30931:30943   */\n      revert\n        /* \"#utility.yul\":30882:30945   */\n    tag_571:\n        /* \"#utility.yul\":30829:30951   */\n      pop\n      jump\t// out\n        /* \"#utility.yul\":30957:31073   */\n    tag_282:\n        /* \"#utility.yul\":31027:31048   */\n      tag_573\n        /* \"#utility.yul\":31042:31047   */\n      dup2\n        /* \"#utility.yul\":31027:31048   */\n      tag_352\n      jump\t// in\n    tag_573:\n        /* \"#utility.yul\":31020:31025   */\n      dup2\n        /* \"#utility.yul\":31017:31049   */\n      eq\n        /* \"#utility.yul\":31007:31067   */\n      tag_574\n      jumpi\n        /* \"#utility.yul\":31063:31064   */\n      0x00\n        /* \"#utility.yul\":31060:31061   */\n      dup1\n        /* \"#utility.yul\":31053:31065   */\n      revert\n        /* \"#utility.yul\":31007:31067   */\n    tag_574:\n        /* \"#utility.yul\":30957:31073   */\n      pop\n      jump\t// out\n        /* \"#utility.yul\":31079:31201   */\n    tag_285:\n        /* \"#utility.yul\":31152:31176   */\n      tag_576\n        /* \"#utility.yul\":31170:31175   */\n      dup2\n        /* \"#utility.yul\":31152:31176   */\n      tag_356\n      jump\t// in\n    tag_576:\n        /* \"#utility.yul\":31145:31150   */\n      dup2\n        /* \"#utility.yul\":31142:31177   */\n      eq\n        /* \"#utility.yul\":31132:31195   */\n      tag_577\n      jumpi\n        /* \"#utility.yul\":31191:31192   */\n      0x00\n        /* \"#utility.yul\":31188:31189   */\n      dup1\n        /* \"#utility.yul\":31181:31193   */\n      revert\n        /* \"#utility.yul\":31132:31195   */\n    tag_577:\n        /* \"#utility.yul\":31079:31201   */\n      pop\n      jump\t// out\n        /* \"#utility.yul\":31207:31329   */\n    tag_288:\n        /* \"#utility.yul\":31280:31304   */\n      tag_579\n        /* \"#utility.yul\":31298:31303   */\n      dup2\n        /* \"#utility.yul\":31280:31304   */\n      tag_431\n      jump\t// in\n    tag_579:\n        /* \"#utility.yul\":31273:31278   */\n      dup2\n        /* \"#utility.yul\":31270:31305   */\n      eq\n        /* \"#utility.yul\":31260:31323   */\n      tag_580\n      jumpi\n        /* \"#utility.yul\":31319:31320   */\n      0x00\n        /* \"#utility.yul\":31316:31317   */\n      dup1\n        /* \"#utility.yul\":31309:31321   */\n      revert\n        /* \"#utility.yul\":31260:31323   */\n    tag_580:\n        /* \"#utility.yul\":31207:31329   */\n      pop\n      jump\t// out\n\n    auxdata: 0xa2646970667358221220682a2e7b0830c9f22b012ecc4b0467e03542165f4e9a858b46d57002e511ab9364736f6c63430008070033\n}\n",
				"bytecode": {
					"linkReferences": {},
					"object": "60806040523480156200001157600080fd5b50604051620020c8380380620020c88339818101604052810190620000379190620000d6565b336000806101000a81548173ffffffffffffffffffffffffffffffffffffffff021916908373ffffffffffffffffffffffffffffffffffffffff16021790555080600360006101000a81548173ffffffffffffffffffffffffffffffffffffffff021916908373ffffffffffffffffffffffffffffffffffffffff160217905550506200016f565b600081519050620000d08162000155565b92915050565b600060208284031215620000ef57620000ee62000150565b5b6000620000ff84828501620000bf565b91505092915050565b6000620001158262000130565b9050919050565b6000620001298262000108565b9050919050565b600073ffffffffffffffffffffffffffffffffffffffff82169050919050565b600080fd5b62000160816200011c565b81146200016c57600080fd5b50565b611f49806200017f6000396000f3fe608060405234801561001057600080fd5b50600436106100b45760003560e01c8063cf9aa8cc11610071578063cf9aa8cc1461019f578063d5efd20a146101bb578063eb0d07f5146101d7578063ebf0491714610207578063f2fde38b14610225578063fc0c546a14610241576100b4565b8063120aa877146100b957806358b4e4b4146100e957806371c5ecb1146101055780638da5cb5b1461013557806390c051e614610153578063ba59371414610183575b600080fd5b6100d360048036038101906100ce9190611407565b61025f565b6040516100e0919061179d565b60405180910390f35b61010360048036038101906100fe919061129f565b61028e565b005b61011f600480360381019061011a91906113da565b6102aa565b60405161012c91906117b8565b60405180910390f35b61013d6102c2565b60405161014a91906116eb565b60405180910390f35b61016d600480360381019061016891906113da565b6102e6565b60405161017a91906116eb565b60405180910390f35b61019d600480360381019061019891906111e4565b610325565b005b6101b960048036038101906101b49190611322565b610435565b005b6101d560048036038101906101d091906113da565b610525565b005b6101f160048036038101906101ec919061129f565b6105d2565b6040516101fe919061179d565b60405180910390f35b61020f6105ea565b60405161021c9190611930565b60405180910390f35b61023f600480360381019061023a91906111b7565b6105f0565b005b61024961073f565b60405161025691906117d3565b60405180910390f35b60056020528160005260406000206020528060005260406000206000915091509054906101000a900460ff1681565b61029a84848484610765565b6102a4848361093c565b50505050565b60046020528060005260406000206000915090505481565b60008054906101000a900473ffffffffffffffffffffffffffffffffffffffff1681565b600281815481106102f657600080fd5b906000526020600020016000915054906101000a900473ffffffffffffffffffffffffffffffffffffffff1681565b60008351905082518114801561033b5750815181145b61037a576040517f08c379a0000000000000000000000000000000000000000000000000000000008152600401610371906118f0565b60405180910390fd5b6000805b82811015610422576103e08787838151811061039d5761039c611c44565b5b60200260200101518784815181106103b8576103b7611c44565b5b60200260200101518785815181106103d3576103d2611c44565b5b6020026020010151610765565b61040d8582815181106103f6576103f5611c44565b5b6020026020010151836109d690919063ffffffff16565b9150808061041a90611b94565b91505061037e565b5061042d868261093c565b505050505050565b60008054906101000a900473ffffffffffffffffffffffffffffffffffffffff1673ffffffffffffffffffffffffffffffffffffffff163373ffffffffffffffffffffffffffffffffffffffff161461048d57600080fd5b81518351106104d1576040517f08c379a00000000000000000000000000000000000000000000000000000000081526004016104c890611810565b60405180910390fd5b610520333083600360009054906101000a900473ffffffffffffffffffffffffffffffffffffffff1673ffffffffffffffffffffffffffffffffffffffff16610a34909392919063ffffffff16565b505050565b60008054906101000a900473ffffffffffffffffffffffffffffffffffffffff1673ffffffffffffffffffffffffffffffffffffffff163373ffffffffffffffffffffffffffffffffffffffff161461057d57600080fd5b6000801b60046000838152602001908152602001600020819055507fcc071cbd9ae50a4c78d1153b76bd2d46ba8d4c7662842718ec3de1d67a144daf816040516105c79190611930565b60405180910390a150565b60006105e085858585610abd565b9050949350505050565b60065481565b60008054906101000a900473ffffffffffffffffffffffffffffffffffffffff1673ffffffffffffffffffffffffffffffffffffffff163373ffffffffffffffffffffffffffffffffffffffff161461064857600080fd5b600073ffffffffffffffffffffffffffffffffffffffff168173ffffffffffffffffffffffffffffffffffffffff16141561068257600080fd5b8073ffffffffffffffffffffffffffffffffffffffff1660008054906101000a900473ffffffffffffffffffffffffffffffffffffffff1673ffffffffffffffffffffffffffffffffffffffff167f8be0079c531659141344cd1fd0a4f28419497f9722a3daafe3b4186f6b6457e060405160405180910390a3806000806101000a81548173ffffffffffffffffffffffffffffffffffffffff021916908373ffffffffffffffffffffffffffffffffffffffff16021790555050565b600360009054906101000a900473ffffffffffffffffffffffffffffffffffffffff1681565b60065483106107a9576040517f08c379a00000000000000000000000000000000000000000000000000000000081526004016107a090611810565b60405180910390fd5b6005600084815260200190815260200160002060008573ffffffffffffffffffffffffffffffffffffffff1673ffffffffffffffffffffffffffffffffffffffff16815260200190815260200160002060009054906101000a900460ff1615610847576040517f08c379a000000000000000000000000000000000000000000000000000000000815260040161083e906118b0565b60405180910390fd5b61085384848484610abd565b610892576040517f08c379a000000000000000000000000000000000000000000000000000000000815260040161088990611830565b60405180910390fd5b60016005600085815260200190815260200160002060008673ffffffffffffffffffffffffffffffffffffffff1673ffffffffffffffffffffffffffffffffffffffff16815260200190815260200160002060006101000a81548160ff0219169083151502179055507f987d620f307ff6b94d58743cb7a7509f24071586a77759b77c2d4e29f75a2f9a84848460405161092e93929190611766565b60405180910390a150505050565b6000811115610997576109928282600360009054906101000a900473ffffffffffffffffffffffffffffffffffffffff1673ffffffffffffffffffffffffffffffffffffffff16610b149092919063ffffffff16565b6109d2565b6040517f08c379a00000000000000000000000000000000000000000000000000000000081526004016109c990611890565b60405180910390fd5b5050565b60008082846109e59190611a52565b905083811015610a2a576040517f08c379a0000000000000000000000000000000000000000000000000000000008152600401610a2190611850565b60405180910390fd5b8091505092915050565b610ab7846323b872dd60e01b858585604051602401610a5593929190611706565b604051602081830303815290604052907bffffffffffffffffffffffffffffffffffffffffffffffffffffffff19166020820180517bffffffffffffffffffffffffffffffffffffffffffffffffffffffff8381831617835250505050610b9a565b50505050565b6000808584604051602001610ad392919061167c565b604051602081830303815290604052805190602001209050610b0983600460008881526020019081526020016000205483610c61565b915050949350505050565b610b958363a9059cbb60e01b8484604051602401610b3392919061173d565b604051602081830303815290604052907bffffffffffffffffffffffffffffffffffffffffffffffffffffffff19166020820180517bffffffffffffffffffffffffffffffffffffffffffffffffffffffff8381831617835250505050610b9a565b505050565b6000610bfc826040518060400160405280602081526020017f5361666545524332303a206c6f772d6c6576656c2063616c6c206661696c65648152508573ffffffffffffffffffffffffffffffffffffffff16610d179092919063ffffffff16565b9050600081511115610c5c5780806020019051810190610c1c91906113ad565b610c5b576040517f08c379a0000000000000000000000000000000000000000000000000000000008152600401610c5290611910565b60405180910390fd5b5b505050565b60008082905060005b8551811015610d09576000868281518110610c8857610c87611c44565b5b60200260200101519050808311610cc9578281604051602001610cac9291906116a8565b604051602081830303815290604052805190602001209250610cf5565b8083604051602001610cdc9291906116a8565b6040516020818303038152906040528051906020012092505b508080610d0190611b94565b915050610c6a565b508381149150509392505050565b6060610d268484600085610d2f565b90509392505050565b606082471015610d74576040517f08c379a0000000000000000000000000000000000000000000000000000000008152600401610d6b90611870565b60405180910390fd5b610d7d85610e43565b610dbc576040517f08c379a0000000000000000000000000000000000000000000000000000000008152600401610db3906118d0565b60405180910390fd5b6000808673ffffffffffffffffffffffffffffffffffffffff168587604051610de591906116d4565b60006040518083038185875af1925050503d8060008114610e22576040519150601f19603f3d011682016040523d82523d6000602084013e610e27565b606091505b5091509150610e37828286610e66565b92505050949350505050565b6000808273ffffffffffffffffffffffffffffffffffffffff163b119050919050565b60608315610e7657829050610ec6565b600083511115610e895782518084602001fd5b816040517f08c379a0000000000000000000000000000000000000000000000000000000008152600401610ebd91906117ee565b60405180910390fd5b9392505050565b6000610ee0610edb84611970565b61194b565b90508083825260208201905082856020860282011115610f0357610f02611ca7565b5b60005b85811015610f335781610f1988826110ab565b845260208401935060208301925050600181019050610f06565b5050509392505050565b6000610f50610f4b8461199c565b61194b565b90508083825260208201905082856020860282011115610f7357610f72611ca7565b5b60005b85811015610fc157813567ffffffffffffffff811115610f9957610f98611ca2565b5b808601610fa6898261111c565b85526020850194506020840193505050600181019050610f76565b5050509392505050565b6000610fde610fd9846119c8565b61194b565b9050808382526020820190508285602086028201111561100157611000611ca7565b5b60005b858110156110315781611017888261118d565b845260208401935060208301925050600181019050611004565b5050509392505050565b600061104e611049846119f4565b61194b565b9050808382526020820190508285602086028201111561107157611070611ca7565b5b60005b858110156110a1578161108788826111a2565b845260208401935060208301925050600181019050611074565b5050509392505050565b6000813590506110ba81611eb7565b92915050565b600082601f8301126110d5576110d4611ca2565b5b81356110e5848260208601610ecd565b91505092915050565b600082601f83011261110357611102611ca2565b5b8135611113848260208601610f3d565b91505092915050565b600082601f83011261113157611130611ca2565b5b8135611141848260208601610fcb565b91505092915050565b600082601f83011261115f5761115e611ca2565b5b813561116f84826020860161103b565b91505092915050565b60008151905061118781611ece565b92915050565b60008135905061119c81611ee5565b92915050565b6000813590506111b181611efc565b92915050565b6000602082840312156111cd576111cc611cb1565b5b60006111db848285016110ab565b91505092915050565b600080600080608085870312156111fe576111fd611cb1565b5b600061120c878288016110ab565b945050602085013567ffffffffffffffff81111561122d5761122c611cac565b5b6112398782880161114a565b935050604085013567ffffffffffffffff81111561125a57611259611cac565b5b6112668782880161114a565b925050606085013567ffffffffffffffff81111561128757611286611cac565b5b611293878288016110ee565b91505092959194509250565b600080600080608085870312156112b9576112b8611cb1565b5b60006112c7878288016110ab565b94505060206112d8878288016111a2565b93505060406112e9878288016111a2565b925050606085013567ffffffffffffffff81111561130a57611309611cac565b5b6113168782880161111c565b91505092959194509250565b60008060006060848603121561133b5761133a611cb1565b5b600084013567ffffffffffffffff81111561135957611358611cac565b5b611365868287016110c0565b935050602084013567ffffffffffffffff81111561138657611385611cac565b5b6113928682870161114a565b92505060406113a3868287016111a2565b9150509250925092565b6000602082840312156113c3576113c2611cb1565b5b60006113d184828501611178565b91505092915050565b6000602082840312156113f0576113ef611cb1565b5b60006113fe848285016111a2565b91505092915050565b6000806040838503121561141e5761141d611cb1565b5b600061142c858286016111a2565b925050602061143d858286016110ab565b9150509250929050565b61145081611aa8565b82525050565b61146761146282611aa8565b611bdd565b82525050565b61147681611aba565b82525050565b61148581611ac6565b82525050565b61149c61149782611ac6565b611bef565b82525050565b60006114ad82611a20565b6114b78185611a36565b93506114c7818560208601611b30565b80840191505092915050565b6114dc81611afa565b82525050565b60006114ed82611a2b565b6114f78185611a41565b9350611507818560208601611b30565b61151081611cb6565b840191505092915050565b6000611528601c83611a41565b915061153382611cd4565b602082019050919050565b600061154b601683611a41565b915061155682611cfd565b602082019050919050565b600061156e601b83611a41565b915061157982611d26565b602082019050919050565b6000611591602683611a41565b915061159c82611d4f565b604082019050919050565b60006115b4603d83611a41565b91506115bf82611d9e565b604082019050919050565b60006115d7601683611a41565b91506115e282611ded565b602082019050919050565b60006115fa601d83611a41565b915061160582611e16565b602082019050919050565b600061161d601283611a41565b915061162882611e3f565b602082019050919050565b6000611640602a83611a41565b915061164b82611e68565b604082019050919050565b61165f81611af0565b82525050565b61167661167182611af0565b611c0b565b82525050565b60006116888285611456565b6014820191506116988284611665565b6020820191508190509392505050565b60006116b4828561148b565b6020820191506116c4828461148b565b6020820191508190509392505050565b60006116e082846114a2565b915081905092915050565b60006020820190506117006000830184611447565b92915050565b600060608201905061171b6000830186611447565b6117286020830185611447565b6117356040830184611656565b949350505050565b60006040820190506117526000830185611447565b61175f6020830184611656565b9392505050565b600060608201905061177b6000830186611447565b6117886020830185611656565b6117956040830184611656565b949350505050565b60006020820190506117b2600083018461146d565b92915050565b60006020820190506117cd600083018461147c565b92915050565b60006020820190506117e860008301846114d3565b92915050565b6000602082019050818103600083015261180881846114e2565b905092915050565b600060208201905081810360008301526118298161151b565b9050919050565b600060208201905081810360008301526118498161153e565b9050919050565b6000602082019050818103600083015261186981611561565b9050919050565b6000602082019050818103600083015261188981611584565b9050919050565b600060208201905081810360008301526118a9816115a7565b9050919050565b600060208201905081810360008301526118c9816115ca565b9050919050565b600060208201905081810360008301526118e9816115ed565b9050919050565b6000602082019050818103600083015261190981611610565b9050919050565b6000602082019050818103600083015261192981611633565b9050919050565b60006020820190506119456000830184611656565b92915050565b6000611955611966565b90506119618282611b63565b919050565b6000604051905090565b600067ffffffffffffffff82111561198b5761198a611c73565b5b602082029050602081019050919050565b600067ffffffffffffffff8211156119b7576119b6611c73565b5b602082029050602081019050919050565b600067ffffffffffffffff8211156119e3576119e2611c73565b5b602082029050602081019050919050565b600067ffffffffffffffff821115611a0f57611a0e611c73565b5b602082029050602081019050919050565b600081519050919050565b600081519050919050565b600081905092915050565b600082825260208201905092915050565b6000611a5d82611af0565b9150611a6883611af0565b9250827fffffffffffffffffffffffffffffffffffffffffffffffffffffffffffffffff03821115611a9d57611a9c611c15565b5b828201905092915050565b6000611ab382611ad0565b9050919050565b60008115159050919050565b6000819050919050565b600073ffffffffffffffffffffffffffffffffffffffff82169050919050565b6000819050919050565b6000611b0582611b0c565b9050919050565b6000611b1782611b1e565b9050919050565b6000611b2982611ad0565b9050919050565b60005b83811015611b4e578082015181840152602081019050611b33565b83811115611b5d576000848401525b50505050565b611b6c82611cb6565b810181811067ffffffffffffffff82111715611b8b57611b8a611c73565b5b80604052505050565b6000611b9f82611af0565b91507fffffffffffffffffffffffffffffffffffffffffffffffffffffffffffffffff821415611bd257611bd1611c15565b5b600182019050919050565b6000611be882611bf9565b9050919050565b6000819050919050565b6000611c0482611cc7565b9050919050565b6000819050919050565b7f4e487b7100000000000000000000000000000000000000000000000000000000600052601160045260246000fd5b7f4e487b7100000000000000000000000000000000000000000000000000000000600052603260045260246000fd5b7f4e487b7100000000000000000000000000000000000000000000000000000000600052604160045260246000fd5b600080fd5b600080fd5b600080fd5b600080fd5b6000601f19601f8301169050919050565b60008160601b9050919050565b7f5765656b2063616e6e6f7420626520696e207468652066757475726500000000600082015250565b7f496e636f7272656374206d65726b6c652070726f6f6600000000000000000000600082015250565b7f536166654d6174683a206164646974696f6e206f766572666c6f770000000000600082015250565b7f416464726573733a20696e73756666696369656e742062616c616e636520666f60008201527f722063616c6c0000000000000000000000000000000000000000000000000000602082015250565b7f4e6f2062616c616e636520776f756c64206265207472616e736665727265642060008201527f2d206e6f7420676f696e6720746f20776173746520796f757220676173000000602082015250565b7f4c502068617320616c726561647920636c61696d656400000000000000000000600082015250565b7f416464726573733a2063616c6c20746f206e6f6e2d636f6e7472616374000000600082015250565b7f4d69736d61746368696e6720696e707574730000000000000000000000000000600082015250565b7f5361666545524332303a204552433230206f7065726174696f6e20646964206e60008201527f6f74207375636365656400000000000000000000000000000000000000000000602082015250565b611ec081611aa8565b8114611ecb57600080fd5b50565b611ed781611aba565b8114611ee257600080fd5b50565b611eee81611ac6565b8114611ef957600080fd5b50565b611f0581611af0565b8114611f1057600080fd5b5056fea2646970667358221220682a2e7b0830c9f22b012ecc4b0467e03542165f4e9a858b46d57002e511ab9364736f6c63430008070033",
					"opcodes": "PUSH1 0x80 PUSH1 0x40 MSTORE CALLVALUE DUP1 ISZERO PUSH3 0x11 JUMPI PUSH1 0x0 DUP1 REVERT JUMPDEST POP PUSH1 0x40 MLOAD PUSH3 0x20C8 CODESIZE SUB DUP1 PUSH3 0x20C8 DUP4 CODECOPY DUP2 DUP2 ADD PUSH1 0x40 MSTORE DUP2 ADD SWAP1 PUSH3 0x37 SWAP2 SWAP1 PUSH3 0xD6 JUMP JUMPDEST CALLER PUSH1 0x0 DUP1 PUSH2 0x100 EXP DUP2 SLOAD DUP2 PUSH20 0xFFFFFFFFFFFFFFFFFFFFFFFFFFFFFFFFFFFFFFFF MUL NOT AND SWAP1 DUP4 PUSH20 0xFFFFFFFFFFFFFFFFFFFFFFFFFFFFFFFFFFFFFFFF AND MUL OR SWAP1 SSTORE POP DUP1 PUSH1 0x3 PUSH1 0x0 PUSH2 0x100 EXP DUP2 SLOAD DUP2 PUSH20 0xFFFFFFFFFFFFFFFFFFFFFFFFFFFFFFFFFFFFFFFF MUL NOT AND SWAP1 DUP4 PUSH20 0xFFFFFFFFFFFFFFFFFFFFFFFFFFFFFFFFFFFFFFFF AND MUL OR SWAP1 SSTORE POP POP PUSH3 0x16F JUMP JUMPDEST PUSH1 0x0 DUP2 MLOAD SWAP1 POP PUSH3 0xD0 DUP2 PUSH3 0x155 JUMP JUMPDEST SWAP3 SWAP2 POP POP JUMP JUMPDEST PUSH1 0x0 PUSH1 0x20 DUP3 DUP5 SUB SLT ISZERO PUSH3 0xEF JUMPI PUSH3 0xEE PUSH3 0x150 JUMP JUMPDEST JUMPDEST PUSH1 0x0 PUSH3 0xFF DUP5 DUP3 DUP6 ADD PUSH3 0xBF JUMP JUMPDEST SWAP2 POP POP SWAP3 SWAP2 POP POP JUMP JUMPDEST PUSH1 0x0 PUSH3 0x115 DUP3 PUSH3 0x130 JUMP JUMPDEST SWAP1 POP SWAP2 SWAP1 POP JUMP JUMPDEST PUSH1 0x0 PUSH3 0x129 DUP3 PUSH3 0x108 JUMP JUMPDEST SWAP1 POP SWAP2 SWAP1 POP JUMP JUMPDEST PUSH1 0x0 PUSH20 0xFFFFFFFFFFFFFFFFFFFFFFFFFFFFFFFFFFFFFFFF DUP3 AND SWAP1 POP SWAP2 SWAP1 POP JUMP JUMPDEST PUSH1 0x0 DUP1 REVERT JUMPDEST PUSH3 0x160 DUP2 PUSH3 0x11C JUMP JUMPDEST DUP2 EQ PUSH3 0x16C JUMPI PUSH1 0x0 DUP1 REVERT JUMPDEST POP JUMP JUMPDEST PUSH2 0x1F49 DUP1 PUSH3 0x17F PUSH1 0x0 CODECOPY PUSH1 0x0 RETURN INVALID PUSH1 0x80 PUSH1 0x40 MSTORE CALLVALUE DUP1 ISZERO PUSH2 0x10 JUMPI PUSH1 0x0 DUP1 REVERT JUMPDEST POP PUSH1 0x4 CALLDATASIZE LT PUSH2 0xB4 JUMPI PUSH1 0x0 CALLDATALOAD PUSH1 0xE0 SHR DUP1 PUSH4 0xCF9AA8CC GT PUSH2 0x71 JUMPI DUP1 PUSH4 0xCF9AA8CC EQ PUSH2 0x19F JUMPI DUP1 PUSH4 0xD5EFD20A EQ PUSH2 0x1BB JUMPI DUP1 PUSH4 0xEB0D07F5 EQ PUSH2 0x1D7 JUMPI DUP1 PUSH4 0xEBF04917 EQ PUSH2 0x207 JUMPI DUP1 PUSH4 0xF2FDE38B EQ PUSH2 0x225 JUMPI DUP1 PUSH4 0xFC0C546A EQ PUSH2 0x241 JUMPI PUSH2 0xB4 JUMP JUMPDEST DUP1 PUSH4 0x120AA877 EQ PUSH2 0xB9 JUMPI DUP1 PUSH4 0x58B4E4B4 EQ PUSH2 0xE9 JUMPI DUP1 PUSH4 0x71C5ECB1 EQ PUSH2 0x105 JUMPI DUP1 PUSH4 0x8DA5CB5B EQ PUSH2 0x135 JUMPI DUP1 PUSH4 0x90C051E6 EQ PUSH2 0x153 JUMPI DUP1 PUSH4 0xBA593714 EQ PUSH2 0x183 JUMPI JUMPDEST PUSH1 0x0 DUP1 REVERT JUMPDEST PUSH2 0xD3 PUSH1 0x4 DUP1 CALLDATASIZE SUB DUP2 ADD SWAP1 PUSH2 0xCE SWAP2 SWAP1 PUSH2 0x1407 JUMP JUMPDEST PUSH2 0x25F JUMP JUMPDEST PUSH1 0x40 MLOAD PUSH2 0xE0 SWAP2 SWAP1 PUSH2 0x179D JUMP JUMPDEST PUSH1 0x40 MLOAD DUP1 SWAP2 SUB SWAP1 RETURN JUMPDEST PUSH2 0x103 PUSH1 0x4 DUP1 CALLDATASIZE SUB DUP2 ADD SWAP1 PUSH2 0xFE SWAP2 SWAP1 PUSH2 0x129F JUMP JUMPDEST PUSH2 0x28E JUMP JUMPDEST STOP JUMPDEST PUSH2 0x11F PUSH1 0x4 DUP1 CALLDATASIZE SUB DUP2 ADD SWAP1 PUSH2 0x11A SWAP2 SWAP1 PUSH2 0x13DA JUMP JUMPDEST PUSH2 0x2AA JUMP JUMPDEST PUSH1 0x40 MLOAD PUSH2 0x12C SWAP2 SWAP1 PUSH2 0x17B8 JUMP JUMPDEST PUSH1 0x40 MLOAD DUP1 SWAP2 SUB SWAP1 RETURN JUMPDEST PUSH2 0x13D PUSH2 0x2C2 JUMP JUMPDEST PUSH1 0x40 MLOAD PUSH2 0x14A SWAP2 SWAP1 PUSH2 0x16EB JUMP JUMPDEST PUSH1 0x40 MLOAD DUP1 SWAP2 SUB SWAP1 RETURN JUMPDEST PUSH2 0x16D PUSH1 0x4 DUP1 CALLDATASIZE SUB DUP2 ADD SWAP1 PUSH2 0x168 SWAP2 SWAP1 PUSH2 0x13DA JUMP JUMPDEST PUSH2 0x2E6 JUMP JUMPDEST PUSH1 0x40 MLOAD PUSH2 0x17A SWAP2 SWAP1 PUSH2 0x16EB JUMP JUMPDEST PUSH1 0x40 MLOAD DUP1 SWAP2 SUB SWAP1 RETURN JUMPDEST PUSH2 0x19D PUSH1 0x4 DUP1 CALLDATASIZE SUB DUP2 ADD SWAP1 PUSH2 0x198 SWAP2 SWAP1 PUSH2 0x11E4 JUMP JUMPDEST PUSH2 0x325 JUMP JUMPDEST STOP JUMPDEST PUSH2 0x1B9 PUSH1 0x4 DUP1 CALLDATASIZE SUB DUP2 ADD SWAP1 PUSH2 0x1B4 SWAP2 SWAP1 PUSH2 0x1322 JUMP JUMPDEST PUSH2 0x435 JUMP JUMPDEST STOP JUMPDEST PUSH2 0x1D5 PUSH1 0x4 DUP1 CALLDATASIZE SUB DUP2 ADD SWAP1 PUSH2 0x1D0 SWAP2 SWAP1 PUSH2 0x13DA JUMP JUMPDEST PUSH2 0x525 JUMP JUMPDEST STOP JUMPDEST PUSH2 0x1F1 PUSH1 0x4 DUP1 CALLDATASIZE SUB DUP2 ADD SWAP1 PUSH2 0x1EC SWAP2 SWAP1 PUSH2 0x129F JUMP JUMPDEST PUSH2 0x5D2 JUMP JUMPDEST PUSH1 0x40 MLOAD PUSH2 0x1FE SWAP2 SWAP1 PUSH2 0x179D JUMP JUMPDEST PUSH1 0x40 MLOAD DUP1 SWAP2 SUB SWAP1 RETURN JUMPDEST PUSH2 0x20F PUSH2 0x5EA JUMP JUMPDEST PUSH1 0x40 MLOAD PUSH2 0x21C SWAP2 SWAP1 PUSH2 0x1930 JUMP JUMPDEST PUSH1 0x40 MLOAD DUP1 SWAP2 SUB SWAP1 RETURN JUMPDEST PUSH2 0x23F PUSH1 0x4 DUP1 CALLDATASIZE SUB DUP2 ADD SWAP1 PUSH2 0x23A SWAP2 SWAP1 PUSH2 0x11B7 JUMP JUMPDEST PUSH2 0x5F0 JUMP JUMPDEST STOP JUMPDEST PUSH2 0x249 PUSH2 0x73F JUMP JUMPDEST PUSH1 0x40 MLOAD PUSH2 0x256 SWAP2 SWAP1 PUSH2 0x17D3 JUMP JUMPDEST PUSH1 0x40 MLOAD DUP1 SWAP2 SUB SWAP1 RETURN JUMPDEST PUSH1 0x5 PUSH1 0x20 MSTORE DUP2 PUSH1 0x0 MSTORE PUSH1 0x40 PUSH1 0x0 KECCAK256 PUSH1 0x20 MSTORE DUP1 PUSH1 0x0 MSTORE PUSH1 0x40 PUSH1 0x0 KECCAK256 PUSH1 0x0 SWAP2 POP SWAP2 POP SWAP1 SLOAD SWAP1 PUSH2 0x100 EXP SWAP1 DIV PUSH1 0xFF AND DUP2 JUMP JUMPDEST PUSH2 0x29A DUP5 DUP5 DUP5 DUP5 PUSH2 0x765 JUMP JUMPDEST PUSH2 0x2A4 DUP5 DUP4 PUSH2 0x93C JUMP JUMPDEST POP POP POP POP JUMP JUMPDEST PUSH1 0x4 PUSH1 0x20 MSTORE DUP1 PUSH1 0x0 MSTORE PUSH1 0x40 PUSH1 0x0 KECCAK256 PUSH1 0x0 SWAP2 POP SWAP1 POP SLOAD DUP2 JUMP JUMPDEST PUSH1 0x0 DUP1 SLOAD SWAP1 PUSH2 0x100 EXP SWAP1 DIV PUSH20 0xFFFFFFFFFFFFFFFFFFFFFFFFFFFFFFFFFFFFFFFF AND DUP2 JUMP JUMPDEST PUSH1 0x2 DUP2 DUP2 SLOAD DUP2 LT PUSH2 0x2F6 JUMPI PUSH1 0x0 DUP1 REVERT JUMPDEST SWAP1 PUSH1 0x0 MSTORE PUSH1 0x20 PUSH1 0x0 KECCAK256 ADD PUSH1 0x0 SWAP2 POP SLOAD SWAP1 PUSH2 0x100 EXP SWAP1 DIV PUSH20 0xFFFFFFFFFFFFFFFFFFFFFFFFFFFFFFFFFFFFFFFF AND DUP2 JUMP JUMPDEST PUSH1 0x0 DUP4 MLOAD SWAP1 POP DUP3 MLOAD DUP2 EQ DUP1 ISZERO PUSH2 0x33B JUMPI POP DUP2 MLOAD DUP2 EQ JUMPDEST PUSH2 0x37A JUMPI PUSH1 0x40 MLOAD PUSH32 0x8C379A000000000000000000000000000000000000000000000000000000000 DUP2 MSTORE PUSH1 0x4 ADD PUSH2 0x371 SWAP1 PUSH2 0x18F0 JUMP JUMPDEST PUSH1 0x40 MLOAD DUP1 SWAP2 SUB SWAP1 REVERT JUMPDEST PUSH1 0x0 DUP1 JUMPDEST DUP3 DUP2 LT ISZERO PUSH2 0x422 JUMPI PUSH2 0x3E0 DUP8 DUP8 DUP4 DUP2 MLOAD DUP2 LT PUSH2 0x39D JUMPI PUSH2 0x39C PUSH2 0x1C44 JUMP JUMPDEST JUMPDEST PUSH1 0x20 MUL PUSH1 0x20 ADD ADD MLOAD DUP8 DUP5 DUP2 MLOAD DUP2 LT PUSH2 0x3B8 JUMPI PUSH2 0x3B7 PUSH2 0x1C44 JUMP JUMPDEST JUMPDEST PUSH1 0x20 MUL PUSH1 0x20 ADD ADD MLOAD DUP8 DUP6 DUP2 MLOAD DUP2 LT PUSH2 0x3D3 JUMPI PUSH2 0x3D2 PUSH2 0x1C44 JUMP JUMPDEST JUMPDEST PUSH1 0x20 MUL PUSH1 0x20 ADD ADD MLOAD PUSH2 0x765 JUMP JUMPDEST PUSH2 0x40D DUP6 DUP3 DUP2 MLOAD DUP2 LT PUSH2 0x3F6 JUMPI PUSH2 0x3F5 PUSH2 0x1C44 JUMP JUMPDEST JUMPDEST PUSH1 0x20 MUL PUSH1 0x20 ADD ADD MLOAD DUP4 PUSH2 0x9D6 SWAP1 SWAP2 SWAP1 PUSH4 0xFFFFFFFF AND JUMP JUMPDEST SWAP2 POP DUP1 DUP1 PUSH2 0x41A SWAP1 PUSH2 0x1B94 JUMP JUMPDEST SWAP2 POP POP PUSH2 0x37E JUMP JUMPDEST POP PUSH2 0x42D DUP7 DUP3 PUSH2 0x93C JUMP JUMPDEST POP POP POP POP POP POP JUMP JUMPDEST PUSH1 0x0 DUP1 SLOAD SWAP1 PUSH2 0x100 EXP SWAP1 DIV PUSH20 0xFFFFFFFFFFFFFFFFFFFFFFFFFFFFFFFFFFFFFFFF AND PUSH20 0xFFFFFFFFFFFFFFFFFFFFFFFFFFFFFFFFFFFFFFFF AND CALLER PUSH20 0xFFFFFFFFFFFFFFFFFFFFFFFFFFFFFFFFFFFFFFFF AND EQ PUSH2 0x48D JUMPI PUSH1 0x0 DUP1 REVERT JUMPDEST DUP2 MLOAD DUP4 MLOAD LT PUSH2 0x4D1 JUMPI PUSH1 0x40 MLOAD PUSH32 0x8C379A000000000000000000000000000000000000000000000000000000000 DUP2 MSTORE PUSH1 0x4 ADD PUSH2 0x4C8 SWAP1 PUSH2 0x1810 JUMP JUMPDEST PUSH1 0x40 MLOAD DUP1 SWAP2 SUB SWAP1 REVERT JUMPDEST PUSH2 0x520 CALLER ADDRESS DUP4 PUSH1 0x3 PUSH1 0x0 SWAP1 SLOAD SWAP1 PUSH2 0x100 EXP SWAP1 DIV PUSH20 0xFFFFFFFFFFFFFFFFFFFFFFFFFFFFFFFFFFFFFFFF AND PUSH20 0xFFFFFFFFFFFFFFFFFFFFFFFFFFFFFFFFFFFFFFFF AND PUSH2 0xA34 SWAP1 SWAP4 SWAP3 SWAP2 SWAP1 PUSH4 0xFFFFFFFF AND JUMP JUMPDEST POP POP POP JUMP JUMPDEST PUSH1 0x0 DUP1 SLOAD SWAP1 PUSH2 0x100 EXP SWAP1 DIV PUSH20 0xFFFFFFFFFFFFFFFFFFFFFFFFFFFFFFFFFFFFFFFF AND PUSH20 0xFFFFFFFFFFFFFFFFFFFFFFFFFFFFFFFFFFFFFFFF AND CALLER PUSH20 0xFFFFFFFFFFFFFFFFFFFFFFFFFFFFFFFFFFFFFFFF AND EQ PUSH2 0x57D JUMPI PUSH1 0x0 DUP1 REVERT JUMPDEST PUSH1 0x0 DUP1 SHL PUSH1 0x4 PUSH1 0x0 DUP4 DUP2 MSTORE PUSH1 0x20 ADD SWAP1 DUP2 MSTORE PUSH1 0x20 ADD PUSH1 0x0 KECCAK256 DUP2 SWAP1 SSTORE POP PUSH32 0xCC071CBD9AE50A4C78D1153B76BD2D46BA8D4C7662842718EC3DE1D67A144DAF DUP2 PUSH1 0x40 MLOAD PUSH2 0x5C7 SWAP2 SWAP1 PUSH2 0x1930 JUMP JUMPDEST PUSH1 0x40 MLOAD DUP1 SWAP2 SUB SWAP1 LOG1 POP JUMP JUMPDEST PUSH1 0x0 PUSH2 0x5E0 DUP6 DUP6 DUP6 DUP6 PUSH2 0xABD JUMP JUMPDEST SWAP1 POP SWAP5 SWAP4 POP POP POP POP JUMP JUMPDEST PUSH1 0x6 SLOAD DUP2 JUMP JUMPDEST PUSH1 0x0 DUP1 SLOAD SWAP1 PUSH2 0x100 EXP SWAP1 DIV PUSH20 0xFFFFFFFFFFFFFFFFFFFFFFFFFFFFFFFFFFFFFFFF AND PUSH20 0xFFFFFFFFFFFFFFFFFFFFFFFFFFFFFFFFFFFFFFFF AND CALLER PUSH20 0xFFFFFFFFFFFFFFFFFFFFFFFFFFFFFFFFFFFFFFFF AND EQ PUSH2 0x648 JUMPI PUSH1 0x0 DUP1 REVERT JUMPDEST PUSH1 0x0 PUSH20 0xFFFFFFFFFFFFFFFFFFFFFFFFFFFFFFFFFFFFFFFF AND DUP2 PUSH20 0xFFFFFFFFFFFFFFFFFFFFFFFFFFFFFFFFFFFFFFFF AND EQ ISZERO PUSH2 0x682 JUMPI PUSH1 0x0 DUP1 REVERT JUMPDEST DUP1 PUSH20 0xFFFFFFFFFFFFFFFFFFFFFFFFFFFFFFFFFFFFFFFF AND PUSH1 0x0 DUP1 SLOAD SWAP1 PUSH2 0x100 EXP SWAP1 DIV PUSH20 0xFFFFFFFFFFFFFFFFFFFFFFFFFFFFFFFFFFFFFFFF AND PUSH20 0xFFFFFFFFFFFFFFFFFFFFFFFFFFFFFFFFFFFFFFFF AND PUSH32 0x8BE0079C531659141344CD1FD0A4F28419497F9722A3DAAFE3B4186F6B6457E0 PUSH1 0x40 MLOAD PUSH1 0x40 MLOAD DUP1 SWAP2 SUB SWAP1 LOG3 DUP1 PUSH1 0x0 DUP1 PUSH2 0x100 EXP DUP2 SLOAD DUP2 PUSH20 0xFFFFFFFFFFFFFFFFFFFFFFFFFFFFFFFFFFFFFFFF MUL NOT AND SWAP1 DUP4 PUSH20 0xFFFFFFFFFFFFFFFFFFFFFFFFFFFFFFFFFFFFFFFF AND MUL OR SWAP1 SSTORE POP POP JUMP JUMPDEST PUSH1 0x3 PUSH1 0x0 SWAP1 SLOAD SWAP1 PUSH2 0x100 EXP SWAP1 DIV PUSH20 0xFFFFFFFFFFFFFFFFFFFFFFFFFFFFFFFFFFFFFFFF AND DUP2 JUMP JUMPDEST PUSH1 0x6 SLOAD DUP4 LT PUSH2 0x7A9 JUMPI PUSH1 0x40 MLOAD PUSH32 0x8C379A000000000000000000000000000000000000000000000000000000000 DUP2 MSTORE PUSH1 0x4 ADD PUSH2 0x7A0 SWAP1 PUSH2 0x1810 JUMP JUMPDEST PUSH1 0x40 MLOAD DUP1 SWAP2 SUB SWAP1 REVERT JUMPDEST PUSH1 0x5 PUSH1 0x0 DUP5 DUP2 MSTORE PUSH1 0x20 ADD SWAP1 DUP2 MSTORE PUSH1 0x20 ADD PUSH1 0x0 KECCAK256 PUSH1 0x0 DUP6 PUSH20 0xFFFFFFFFFFFFFFFFFFFFFFFFFFFFFFFFFFFFFFFF AND PUSH20 0xFFFFFFFFFFFFFFFFFFFFFFFFFFFFFFFFFFFFFFFF AND DUP2 MSTORE PUSH1 0x20 ADD SWAP1 DUP2 MSTORE PUSH1 0x20 ADD PUSH1 0x0 KECCAK256 PUSH1 0x0 SWAP1 SLOAD SWAP1 PUSH2 0x100 EXP SWAP1 DIV PUSH1 0xFF AND ISZERO PUSH2 0x847 JUMPI PUSH1 0x40 MLOAD PUSH32 0x8C379A000000000000000000000000000000000000000000000000000000000 DUP2 MSTORE PUSH1 0x4 ADD PUSH2 0x83E SWAP1 PUSH2 0x18B0 JUMP JUMPDEST PUSH1 0x40 MLOAD DUP1 SWAP2 SUB SWAP1 REVERT JUMPDEST PUSH2 0x853 DUP5 DUP5 DUP5 DUP5 PUSH2 0xABD JUMP JUMPDEST PUSH2 0x892 JUMPI PUSH1 0x40 MLOAD PUSH32 0x8C379A000000000000000000000000000000000000000000000000000000000 DUP2 MSTORE PUSH1 0x4 ADD PUSH2 0x889 SWAP1 PUSH2 0x1830 JUMP JUMPDEST PUSH1 0x40 MLOAD DUP1 SWAP2 SUB SWAP1 REVERT JUMPDEST PUSH1 0x1 PUSH1 0x5 PUSH1 0x0 DUP6 DUP2 MSTORE PUSH1 0x20 ADD SWAP1 DUP2 MSTORE PUSH1 0x20 ADD PUSH1 0x0 KECCAK256 PUSH1 0x0 DUP7 PUSH20 0xFFFFFFFFFFFFFFFFFFFFFFFFFFFFFFFFFFFFFFFF AND PUSH20 0xFFFFFFFFFFFFFFFFFFFFFFFFFFFFFFFFFFFFFFFF AND DUP2 MSTORE PUSH1 0x20 ADD SWAP1 DUP2 MSTORE PUSH1 0x20 ADD PUSH1 0x0 KECCAK256 PUSH1 0x0 PUSH2 0x100 EXP DUP2 SLOAD DUP2 PUSH1 0xFF MUL NOT AND SWAP1 DUP4 ISZERO ISZERO MUL OR SWAP1 SSTORE POP PUSH32 0x987D620F307FF6B94D58743CB7A7509F24071586A77759B77C2D4E29F75A2F9A DUP5 DUP5 DUP5 PUSH1 0x40 MLOAD PUSH2 0x92E SWAP4 SWAP3 SWAP2 SWAP1 PUSH2 0x1766 JUMP JUMPDEST PUSH1 0x40 MLOAD DUP1 SWAP2 SUB SWAP1 LOG1 POP POP POP POP JUMP JUMPDEST PUSH1 0x0 DUP2 GT ISZERO PUSH2 0x997 JUMPI PUSH2 0x992 DUP3 DUP3 PUSH1 0x3 PUSH1 0x0 SWAP1 SLOAD SWAP1 PUSH2 0x100 EXP SWAP1 DIV PUSH20 0xFFFFFFFFFFFFFFFFFFFFFFFFFFFFFFFFFFFFFFFF AND PUSH20 0xFFFFFFFFFFFFFFFFFFFFFFFFFFFFFFFFFFFFFFFF AND PUSH2 0xB14 SWAP1 SWAP3 SWAP2 SWAP1 PUSH4 0xFFFFFFFF AND JUMP JUMPDEST PUSH2 0x9D2 JUMP JUMPDEST PUSH1 0x40 MLOAD PUSH32 0x8C379A000000000000000000000000000000000000000000000000000000000 DUP2 MSTORE PUSH1 0x4 ADD PUSH2 0x9C9 SWAP1 PUSH2 0x1890 JUMP JUMPDEST PUSH1 0x40 MLOAD DUP1 SWAP2 SUB SWAP1 REVERT JUMPDEST POP POP JUMP JUMPDEST PUSH1 0x0 DUP1 DUP3 DUP5 PUSH2 0x9E5 SWAP2 SWAP1 PUSH2 0x1A52 JUMP JUMPDEST SWAP1 POP DUP4 DUP2 LT ISZERO PUSH2 0xA2A JUMPI PUSH1 0x40 MLOAD PUSH32 0x8C379A000000000000000000000000000000000000000000000000000000000 DUP2 MSTORE PUSH1 0x4 ADD PUSH2 0xA21 SWAP1 PUSH2 0x1850 JUMP JUMPDEST PUSH1 0x40 MLOAD DUP1 SWAP2 SUB SWAP1 REVERT JUMPDEST DUP1 SWAP2 POP POP SWAP3 SWAP2 POP POP JUMP JUMPDEST PUSH2 0xAB7 DUP5 PUSH4 0x23B872DD PUSH1 0xE0 SHL DUP6 DUP6 DUP6 PUSH1 0x40 MLOAD PUSH1 0x24 ADD PUSH2 0xA55 SWAP4 SWAP3 SWAP2 SWAP1 PUSH2 0x1706 JUMP JUMPDEST PUSH1 0x40 MLOAD PUSH1 0x20 DUP2 DUP4 SUB SUB DUP2 MSTORE SWAP1 PUSH1 0x40 MSTORE SWAP1 PUSH28 0xFFFFFFFFFFFFFFFFFFFFFFFFFFFFFFFFFFFFFFFFFFFFFFFFFFFFFFFF NOT AND PUSH1 0x20 DUP3 ADD DUP1 MLOAD PUSH28 0xFFFFFFFFFFFFFFFFFFFFFFFFFFFFFFFFFFFFFFFFFFFFFFFFFFFFFFFF DUP4 DUP2 DUP4 AND OR DUP4 MSTORE POP POP POP POP PUSH2 0xB9A JUMP JUMPDEST POP POP POP POP JUMP JUMPDEST PUSH1 0x0 DUP1 DUP6 DUP5 PUSH1 0x40 MLOAD PUSH1 0x20 ADD PUSH2 0xAD3 SWAP3 SWAP2 SWAP1 PUSH2 0x167C JUMP JUMPDEST PUSH1 0x40 MLOAD PUSH1 0x20 DUP2 DUP4 SUB SUB DUP2 MSTORE SWAP1 PUSH1 0x40 MSTORE DUP1 MLOAD SWAP1 PUSH1 0x20 ADD KECCAK256 SWAP1 POP PUSH2 0xB09 DUP4 PUSH1 0x4 PUSH1 0x0 DUP9 DUP2 MSTORE PUSH1 0x20 ADD SWAP1 DUP2 MSTORE PUSH1 0x20 ADD PUSH1 0x0 KECCAK256 SLOAD DUP4 PUSH2 0xC61 JUMP JUMPDEST SWAP2 POP POP SWAP5 SWAP4 POP POP POP POP JUMP JUMPDEST PUSH2 0xB95 DUP4 PUSH4 0xA9059CBB PUSH1 0xE0 SHL DUP5 DUP5 PUSH1 0x40 MLOAD PUSH1 0x24 ADD PUSH2 0xB33 SWAP3 SWAP2 SWAP1 PUSH2 0x173D JUMP JUMPDEST PUSH1 0x40 MLOAD PUSH1 0x20 DUP2 DUP4 SUB SUB DUP2 MSTORE SWAP1 PUSH1 0x40 MSTORE SWAP1 PUSH28 0xFFFFFFFFFFFFFFFFFFFFFFFFFFFFFFFFFFFFFFFFFFFFFFFFFFFFFFFF NOT AND PUSH1 0x20 DUP3 ADD DUP1 MLOAD PUSH28 0xFFFFFFFFFFFFFFFFFFFFFFFFFFFFFFFFFFFFFFFFFFFFFFFFFFFFFFFF DUP4 DUP2 DUP4 AND OR DUP4 MSTORE POP POP POP POP PUSH2 0xB9A JUMP JUMPDEST POP POP POP JUMP JUMPDEST PUSH1 0x0 PUSH2 0xBFC DUP3 PUSH1 0x40 MLOAD DUP1 PUSH1 0x40 ADD PUSH1 0x40 MSTORE DUP1 PUSH1 0x20 DUP2 MSTORE PUSH1 0x20 ADD PUSH32 0x5361666545524332303A206C6F772D6C6576656C2063616C6C206661696C6564 DUP2 MSTORE POP DUP6 PUSH20 0xFFFFFFFFFFFFFFFFFFFFFFFFFFFFFFFFFFFFFFFF AND PUSH2 0xD17 SWAP1 SWAP3 SWAP2 SWAP1 PUSH4 0xFFFFFFFF AND JUMP JUMPDEST SWAP1 POP PUSH1 0x0 DUP2 MLOAD GT ISZERO PUSH2 0xC5C JUMPI DUP1 DUP1 PUSH1 0x20 ADD SWAP1 MLOAD DUP2 ADD SWAP1 PUSH2 0xC1C SWAP2 SWAP1 PUSH2 0x13AD JUMP JUMPDEST PUSH2 0xC5B JUMPI PUSH1 0x40 MLOAD PUSH32 0x8C379A000000000000000000000000000000000000000000000000000000000 DUP2 MSTORE PUSH1 0x4 ADD PUSH2 0xC52 SWAP1 PUSH2 0x1910 JUMP JUMPDEST PUSH1 0x40 MLOAD DUP1 SWAP2 SUB SWAP1 REVERT JUMPDEST JUMPDEST POP POP POP JUMP JUMPDEST PUSH1 0x0 DUP1 DUP3 SWAP1 POP PUSH1 0x0 JUMPDEST DUP6 MLOAD DUP2 LT ISZERO PUSH2 0xD09 JUMPI PUSH1 0x0 DUP7 DUP3 DUP2 MLOAD DUP2 LT PUSH2 0xC88 JUMPI PUSH2 0xC87 PUSH2 0x1C44 JUMP JUMPDEST JUMPDEST PUSH1 0x20 MUL PUSH1 0x20 ADD ADD MLOAD SWAP1 POP DUP1 DUP4 GT PUSH2 0xCC9 JUMPI DUP3 DUP2 PUSH1 0x40 MLOAD PUSH1 0x20 ADD PUSH2 0xCAC SWAP3 SWAP2 SWAP1 PUSH2 0x16A8 JUMP JUMPDEST PUSH1 0x40 MLOAD PUSH1 0x20 DUP2 DUP4 SUB SUB DUP2 MSTORE SWAP1 PUSH1 0x40 MSTORE DUP1 MLOAD SWAP1 PUSH1 0x20 ADD KECCAK256 SWAP3 POP PUSH2 0xCF5 JUMP JUMPDEST DUP1 DUP4 PUSH1 0x40 MLOAD PUSH1 0x20 ADD PUSH2 0xCDC SWAP3 SWAP2 SWAP1 PUSH2 0x16A8 JUMP JUMPDEST PUSH1 0x40 MLOAD PUSH1 0x20 DUP2 DUP4 SUB SUB DUP2 MSTORE SWAP1 PUSH1 0x40 MSTORE DUP1 MLOAD SWAP1 PUSH1 0x20 ADD KECCAK256 SWAP3 POP JUMPDEST POP DUP1 DUP1 PUSH2 0xD01 SWAP1 PUSH2 0x1B94 JUMP JUMPDEST SWAP2 POP POP PUSH2 0xC6A JUMP JUMPDEST POP DUP4 DUP2 EQ SWAP2 POP POP SWAP4 SWAP3 POP POP POP JUMP JUMPDEST PUSH1 0x60 PUSH2 0xD26 DUP5 DUP5 PUSH1 0x0 DUP6 PUSH2 0xD2F JUMP JUMPDEST SWAP1 POP SWAP4 SWAP3 POP POP POP JUMP JUMPDEST PUSH1 0x60 DUP3 SELFBALANCE LT ISZERO PUSH2 0xD74 JUMPI PUSH1 0x40 MLOAD PUSH32 0x8C379A000000000000000000000000000000000000000000000000000000000 DUP2 MSTORE PUSH1 0x4 ADD PUSH2 0xD6B SWAP1 PUSH2 0x1870 JUMP JUMPDEST PUSH1 0x40 MLOAD DUP1 SWAP2 SUB SWAP1 REVERT JUMPDEST PUSH2 0xD7D DUP6 PUSH2 0xE43 JUMP JUMPDEST PUSH2 0xDBC JUMPI PUSH1 0x40 MLOAD PUSH32 0x8C379A000000000000000000000000000000000000000000000000000000000 DUP2 MSTORE PUSH1 0x4 ADD PUSH2 0xDB3 SWAP1 PUSH2 0x18D0 JUMP JUMPDEST PUSH1 0x40 MLOAD DUP1 SWAP2 SUB SWAP1 REVERT JUMPDEST PUSH1 0x0 DUP1 DUP7 PUSH20 0xFFFFFFFFFFFFFFFFFFFFFFFFFFFFFFFFFFFFFFFF AND DUP6 DUP8 PUSH1 0x40 MLOAD PUSH2 0xDE5 SWAP2 SWAP1 PUSH2 0x16D4 JUMP JUMPDEST PUSH1 0x0 PUSH1 0x40 MLOAD DUP1 DUP4 SUB DUP2 DUP6 DUP8 GAS CALL SWAP3 POP POP POP RETURNDATASIZE DUP1 PUSH1 0x0 DUP2 EQ PUSH2 0xE22 JUMPI PUSH1 0x40 MLOAD SWAP2 POP PUSH1 0x1F NOT PUSH1 0x3F RETURNDATASIZE ADD AND DUP3 ADD PUSH1 0x40 MSTORE RETURNDATASIZE DUP3 MSTORE RETURNDATASIZE PUSH1 0x0 PUSH1 0x20 DUP5 ADD RETURNDATACOPY PUSH2 0xE27 JUMP JUMPDEST PUSH1 0x60 SWAP2 POP JUMPDEST POP SWAP2 POP SWAP2 POP PUSH2 0xE37 DUP3 DUP3 DUP7 PUSH2 0xE66 JUMP JUMPDEST SWAP3 POP POP POP SWAP5 SWAP4 POP POP POP POP JUMP JUMPDEST PUSH1 0x0 DUP1 DUP3 PUSH20 0xFFFFFFFFFFFFFFFFFFFFFFFFFFFFFFFFFFFFFFFF AND EXTCODESIZE GT SWAP1 POP SWAP2 SWAP1 POP JUMP JUMPDEST PUSH1 0x60 DUP4 ISZERO PUSH2 0xE76 JUMPI DUP3 SWAP1 POP PUSH2 0xEC6 JUMP JUMPDEST PUSH1 0x0 DUP4 MLOAD GT ISZERO PUSH2 0xE89 JUMPI DUP3 MLOAD DUP1 DUP5 PUSH1 0x20 ADD REVERT JUMPDEST DUP2 PUSH1 0x40 MLOAD PUSH32 0x8C379A000000000000000000000000000000000000000000000000000000000 DUP2 MSTORE PUSH1 0x4 ADD PUSH2 0xEBD SWAP2 SWAP1 PUSH2 0x17EE JUMP JUMPDEST PUSH1 0x40 MLOAD DUP1 SWAP2 SUB SWAP1 REVERT JUMPDEST SWAP4 SWAP3 POP POP POP JUMP JUMPDEST PUSH1 0x0 PUSH2 0xEE0 PUSH2 0xEDB DUP5 PUSH2 0x1970 JUMP JUMPDEST PUSH2 0x194B JUMP JUMPDEST SWAP1 POP DUP1 DUP4 DUP3 MSTORE PUSH1 0x20 DUP3 ADD SWAP1 POP DUP3 DUP6 PUSH1 0x20 DUP7 MUL DUP3 ADD GT ISZERO PUSH2 0xF03 JUMPI PUSH2 0xF02 PUSH2 0x1CA7 JUMP JUMPDEST JUMPDEST PUSH1 0x0 JUMPDEST DUP6 DUP2 LT ISZERO PUSH2 0xF33 JUMPI DUP2 PUSH2 0xF19 DUP9 DUP3 PUSH2 0x10AB JUMP JUMPDEST DUP5 MSTORE PUSH1 0x20 DUP5 ADD SWAP4 POP PUSH1 0x20 DUP4 ADD SWAP3 POP POP PUSH1 0x1 DUP2 ADD SWAP1 POP PUSH2 0xF06 JUMP JUMPDEST POP POP POP SWAP4 SWAP3 POP POP POP JUMP JUMPDEST PUSH1 0x0 PUSH2 0xF50 PUSH2 0xF4B DUP5 PUSH2 0x199C JUMP JUMPDEST PUSH2 0x194B JUMP JUMPDEST SWAP1 POP DUP1 DUP4 DUP3 MSTORE PUSH1 0x20 DUP3 ADD SWAP1 POP DUP3 DUP6 PUSH1 0x20 DUP7 MUL DUP3 ADD GT ISZERO PUSH2 0xF73 JUMPI PUSH2 0xF72 PUSH2 0x1CA7 JUMP JUMPDEST JUMPDEST PUSH1 0x0 JUMPDEST DUP6 DUP2 LT ISZERO PUSH2 0xFC1 JUMPI DUP2 CALLDATALOAD PUSH8 0xFFFFFFFFFFFFFFFF DUP2 GT ISZERO PUSH2 0xF99 JUMPI PUSH2 0xF98 PUSH2 0x1CA2 JUMP JUMPDEST JUMPDEST DUP1 DUP7 ADD PUSH2 0xFA6 DUP10 DUP3 PUSH2 0x111C JUMP JUMPDEST DUP6 MSTORE PUSH1 0x20 DUP6 ADD SWAP5 POP PUSH1 0x20 DUP5 ADD SWAP4 POP POP POP PUSH1 0x1 DUP2 ADD SWAP1 POP PUSH2 0xF76 JUMP JUMPDEST POP POP POP SWAP4 SWAP3 POP POP POP JUMP JUMPDEST PUSH1 0x0 PUSH2 0xFDE PUSH2 0xFD9 DUP5 PUSH2 0x19C8 JUMP JUMPDEST PUSH2 0x194B JUMP JUMPDEST SWAP1 POP DUP1 DUP4 DUP3 MSTORE PUSH1 0x20 DUP3 ADD SWAP1 POP DUP3 DUP6 PUSH1 0x20 DUP7 MUL DUP3 ADD GT ISZERO PUSH2 0x1001 JUMPI PUSH2 0x1000 PUSH2 0x1CA7 JUMP JUMPDEST JUMPDEST PUSH1 0x0 JUMPDEST DUP6 DUP2 LT ISZERO PUSH2 0x1031 JUMPI DUP2 PUSH2 0x1017 DUP9 DUP3 PUSH2 0x118D JUMP JUMPDEST DUP5 MSTORE PUSH1 0x20 DUP5 ADD SWAP4 POP PUSH1 0x20 DUP4 ADD SWAP3 POP POP PUSH1 0x1 DUP2 ADD SWAP1 POP PUSH2 0x1004 JUMP JUMPDEST POP POP POP SWAP4 SWAP3 POP POP POP JUMP JUMPDEST PUSH1 0x0 PUSH2 0x104E PUSH2 0x1049 DUP5 PUSH2 0x19F4 JUMP JUMPDEST PUSH2 0x194B JUMP JUMPDEST SWAP1 POP DUP1 DUP4 DUP3 MSTORE PUSH1 0x20 DUP3 ADD SWAP1 POP DUP3 DUP6 PUSH1 0x20 DUP7 MUL DUP3 ADD GT ISZERO PUSH2 0x1071 JUMPI PUSH2 0x1070 PUSH2 0x1CA7 JUMP JUMPDEST JUMPDEST PUSH1 0x0 JUMPDEST DUP6 DUP2 LT ISZERO PUSH2 0x10A1 JUMPI DUP2 PUSH2 0x1087 DUP9 DUP3 PUSH2 0x11A2 JUMP JUMPDEST DUP5 MSTORE PUSH1 0x20 DUP5 ADD SWAP4 POP PUSH1 0x20 DUP4 ADD SWAP3 POP POP PUSH1 0x1 DUP2 ADD SWAP1 POP PUSH2 0x1074 JUMP JUMPDEST POP POP POP SWAP4 SWAP3 POP POP POP JUMP JUMPDEST PUSH1 0x0 DUP2 CALLDATALOAD SWAP1 POP PUSH2 0x10BA DUP2 PUSH2 0x1EB7 JUMP JUMPDEST SWAP3 SWAP2 POP POP JUMP JUMPDEST PUSH1 0x0 DUP3 PUSH1 0x1F DUP4 ADD SLT PUSH2 0x10D5 JUMPI PUSH2 0x10D4 PUSH2 0x1CA2 JUMP JUMPDEST JUMPDEST DUP2 CALLDATALOAD PUSH2 0x10E5 DUP5 DUP3 PUSH1 0x20 DUP7 ADD PUSH2 0xECD JUMP JUMPDEST SWAP2 POP POP SWAP3 SWAP2 POP POP JUMP JUMPDEST PUSH1 0x0 DUP3 PUSH1 0x1F DUP4 ADD SLT PUSH2 0x1103 JUMPI PUSH2 0x1102 PUSH2 0x1CA2 JUMP JUMPDEST JUMPDEST DUP2 CALLDATALOAD PUSH2 0x1113 DUP5 DUP3 PUSH1 0x20 DUP7 ADD PUSH2 0xF3D JUMP JUMPDEST SWAP2 POP POP SWAP3 SWAP2 POP POP JUMP JUMPDEST PUSH1 0x0 DUP3 PUSH1 0x1F DUP4 ADD SLT PUSH2 0x1131 JUMPI PUSH2 0x1130 PUSH2 0x1CA2 JUMP JUMPDEST JUMPDEST DUP2 CALLDATALOAD PUSH2 0x1141 DUP5 DUP3 PUSH1 0x20 DUP7 ADD PUSH2 0xFCB JUMP JUMPDEST SWAP2 POP POP SWAP3 SWAP2 POP POP JUMP JUMPDEST PUSH1 0x0 DUP3 PUSH1 0x1F DUP4 ADD SLT PUSH2 0x115F JUMPI PUSH2 0x115E PUSH2 0x1CA2 JUMP JUMPDEST JUMPDEST DUP2 CALLDATALOAD PUSH2 0x116F DUP5 DUP3 PUSH1 0x20 DUP7 ADD PUSH2 0x103B JUMP JUMPDEST SWAP2 POP POP SWAP3 SWAP2 POP POP JUMP JUMPDEST PUSH1 0x0 DUP2 MLOAD SWAP1 POP PUSH2 0x1187 DUP2 PUSH2 0x1ECE JUMP JUMPDEST SWAP3 SWAP2 POP POP JUMP JUMPDEST PUSH1 0x0 DUP2 CALLDATALOAD SWAP1 POP PUSH2 0x119C DUP2 PUSH2 0x1EE5 JUMP JUMPDEST SWAP3 SWAP2 POP POP JUMP JUMPDEST PUSH1 0x0 DUP2 CALLDATALOAD SWAP1 POP PUSH2 0x11B1 DUP2 PUSH2 0x1EFC JUMP JUMPDEST SWAP3 SWAP2 POP POP JUMP JUMPDEST PUSH1 0x0 PUSH1 0x20 DUP3 DUP5 SUB SLT ISZERO PUSH2 0x11CD JUMPI PUSH2 0x11CC PUSH2 0x1CB1 JUMP JUMPDEST JUMPDEST PUSH1 0x0 PUSH2 0x11DB DUP5 DUP3 DUP6 ADD PUSH2 0x10AB JUMP JUMPDEST SWAP2 POP POP SWAP3 SWAP2 POP POP JUMP JUMPDEST PUSH1 0x0 DUP1 PUSH1 0x0 DUP1 PUSH1 0x80 DUP6 DUP8 SUB SLT ISZERO PUSH2 0x11FE JUMPI PUSH2 0x11FD PUSH2 0x1CB1 JUMP JUMPDEST JUMPDEST PUSH1 0x0 PUSH2 0x120C DUP8 DUP3 DUP9 ADD PUSH2 0x10AB JUMP JUMPDEST SWAP5 POP POP PUSH1 0x20 DUP6 ADD CALLDATALOAD PUSH8 0xFFFFFFFFFFFFFFFF DUP2 GT ISZERO PUSH2 0x122D JUMPI PUSH2 0x122C PUSH2 0x1CAC JUMP JUMPDEST JUMPDEST PUSH2 0x1239 DUP8 DUP3 DUP9 ADD PUSH2 0x114A JUMP JUMPDEST SWAP4 POP POP PUSH1 0x40 DUP6 ADD CALLDATALOAD PUSH8 0xFFFFFFFFFFFFFFFF DUP2 GT ISZERO PUSH2 0x125A JUMPI PUSH2 0x1259 PUSH2 0x1CAC JUMP JUMPDEST JUMPDEST PUSH2 0x1266 DUP8 DUP3 DUP9 ADD PUSH2 0x114A JUMP JUMPDEST SWAP3 POP POP PUSH1 0x60 DUP6 ADD CALLDATALOAD PUSH8 0xFFFFFFFFFFFFFFFF DUP2 GT ISZERO PUSH2 0x1287 JUMPI PUSH2 0x1286 PUSH2 0x1CAC JUMP JUMPDEST JUMPDEST PUSH2 0x1293 DUP8 DUP3 DUP9 ADD PUSH2 0x10EE JUMP JUMPDEST SWAP2 POP POP SWAP3 SWAP6 SWAP2 SWAP5 POP SWAP3 POP JUMP JUMPDEST PUSH1 0x0 DUP1 PUSH1 0x0 DUP1 PUSH1 0x80 DUP6 DUP8 SUB SLT ISZERO PUSH2 0x12B9 JUMPI PUSH2 0x12B8 PUSH2 0x1CB1 JUMP JUMPDEST JUMPDEST PUSH1 0x0 PUSH2 0x12C7 DUP8 DUP3 DUP9 ADD PUSH2 0x10AB JUMP JUMPDEST SWAP5 POP POP PUSH1 0x20 PUSH2 0x12D8 DUP8 DUP3 DUP9 ADD PUSH2 0x11A2 JUMP JUMPDEST SWAP4 POP POP PUSH1 0x40 PUSH2 0x12E9 DUP8 DUP3 DUP9 ADD PUSH2 0x11A2 JUMP JUMPDEST SWAP3 POP POP PUSH1 0x60 DUP6 ADD CALLDATALOAD PUSH8 0xFFFFFFFFFFFFFFFF DUP2 GT ISZERO PUSH2 0x130A JUMPI PUSH2 0x1309 PUSH2 0x1CAC JUMP JUMPDEST JUMPDEST PUSH2 0x1316 DUP8 DUP3 DUP9 ADD PUSH2 0x111C JUMP JUMPDEST SWAP2 POP POP SWAP3 SWAP6 SWAP2 SWAP5 POP SWAP3 POP JUMP JUMPDEST PUSH1 0x0 DUP1 PUSH1 0x0 PUSH1 0x60 DUP5 DUP7 SUB SLT ISZERO PUSH2 0x133B JUMPI PUSH2 0x133A PUSH2 0x1CB1 JUMP JUMPDEST JUMPDEST PUSH1 0x0 DUP5 ADD CALLDATALOAD PUSH8 0xFFFFFFFFFFFFFFFF DUP2 GT ISZERO PUSH2 0x1359 JUMPI PUSH2 0x1358 PUSH2 0x1CAC JUMP JUMPDEST JUMPDEST PUSH2 0x1365 DUP7 DUP3 DUP8 ADD PUSH2 0x10C0 JUMP JUMPDEST SWAP4 POP POP PUSH1 0x20 DUP5 ADD CALLDATALOAD PUSH8 0xFFFFFFFFFFFFFFFF DUP2 GT ISZERO PUSH2 0x1386 JUMPI PUSH2 0x1385 PUSH2 0x1CAC JUMP JUMPDEST JUMPDEST PUSH2 0x1392 DUP7 DUP3 DUP8 ADD PUSH2 0x114A JUMP JUMPDEST SWAP3 POP POP PUSH1 0x40 PUSH2 0x13A3 DUP7 DUP3 DUP8 ADD PUSH2 0x11A2 JUMP JUMPDEST SWAP2 POP POP SWAP3 POP SWAP3 POP SWAP3 JUMP JUMPDEST PUSH1 0x0 PUSH1 0x20 DUP3 DUP5 SUB SLT ISZERO PUSH2 0x13C3 JUMPI PUSH2 0x13C2 PUSH2 0x1CB1 JUMP JUMPDEST JUMPDEST PUSH1 0x0 PUSH2 0x13D1 DUP5 DUP3 DUP6 ADD PUSH2 0x1178 JUMP JUMPDEST SWAP2 POP POP SWAP3 SWAP2 POP POP JUMP JUMPDEST PUSH1 0x0 PUSH1 0x20 DUP3 DUP5 SUB SLT ISZERO PUSH2 0x13F0 JUMPI PUSH2 0x13EF PUSH2 0x1CB1 JUMP JUMPDEST JUMPDEST PUSH1 0x0 PUSH2 0x13FE DUP5 DUP3 DUP6 ADD PUSH2 0x11A2 JUMP JUMPDEST SWAP2 POP POP SWAP3 SWAP2 POP POP JUMP JUMPDEST PUSH1 0x0 DUP1 PUSH1 0x40 DUP4 DUP6 SUB SLT ISZERO PUSH2 0x141E JUMPI PUSH2 0x141D PUSH2 0x1CB1 JUMP JUMPDEST JUMPDEST PUSH1 0x0 PUSH2 0x142C DUP6 DUP3 DUP7 ADD PUSH2 0x11A2 JUMP JUMPDEST SWAP3 POP POP PUSH1 0x20 PUSH2 0x143D DUP6 DUP3 DUP7 ADD PUSH2 0x10AB JUMP JUMPDEST SWAP2 POP POP SWAP3 POP SWAP3 SWAP1 POP JUMP JUMPDEST PUSH2 0x1450 DUP2 PUSH2 0x1AA8 JUMP JUMPDEST DUP3 MSTORE POP POP JUMP JUMPDEST PUSH2 0x1467 PUSH2 0x1462 DUP3 PUSH2 0x1AA8 JUMP JUMPDEST PUSH2 0x1BDD JUMP JUMPDEST DUP3 MSTORE POP POP JUMP JUMPDEST PUSH2 0x1476 DUP2 PUSH2 0x1ABA JUMP JUMPDEST DUP3 MSTORE POP POP JUMP JUMPDEST PUSH2 0x1485 DUP2 PUSH2 0x1AC6 JUMP JUMPDEST DUP3 MSTORE POP POP JUMP JUMPDEST PUSH2 0x149C PUSH2 0x1497 DUP3 PUSH2 0x1AC6 JUMP JUMPDEST PUSH2 0x1BEF JUMP JUMPDEST DUP3 MSTORE POP POP JUMP JUMPDEST PUSH1 0x0 PUSH2 0x14AD DUP3 PUSH2 0x1A20 JUMP JUMPDEST PUSH2 0x14B7 DUP2 DUP6 PUSH2 0x1A36 JUMP JUMPDEST SWAP4 POP PUSH2 0x14C7 DUP2 DUP6 PUSH1 0x20 DUP7 ADD PUSH2 0x1B30 JUMP JUMPDEST DUP1 DUP5 ADD SWAP2 POP POP SWAP3 SWAP2 POP POP JUMP JUMPDEST PUSH2 0x14DC DUP2 PUSH2 0x1AFA JUMP JUMPDEST DUP3 MSTORE POP POP JUMP JUMPDEST PUSH1 0x0 PUSH2 0x14ED DUP3 PUSH2 0x1A2B JUMP JUMPDEST PUSH2 0x14F7 DUP2 DUP6 PUSH2 0x1A41 JUMP JUMPDEST SWAP4 POP PUSH2 0x1507 DUP2 DUP6 PUSH1 0x20 DUP7 ADD PUSH2 0x1B30 JUMP JUMPDEST PUSH2 0x1510 DUP2 PUSH2 0x1CB6 JUMP JUMPDEST DUP5 ADD SWAP2 POP POP SWAP3 SWAP2 POP POP JUMP JUMPDEST PUSH1 0x0 PUSH2 0x1528 PUSH1 0x1C DUP4 PUSH2 0x1A41 JUMP JUMPDEST SWAP2 POP PUSH2 0x1533 DUP3 PUSH2 0x1CD4 JUMP JUMPDEST PUSH1 0x20 DUP3 ADD SWAP1 POP SWAP2 SWAP1 POP JUMP JUMPDEST PUSH1 0x0 PUSH2 0x154B PUSH1 0x16 DUP4 PUSH2 0x1A41 JUMP JUMPDEST SWAP2 POP PUSH2 0x1556 DUP3 PUSH2 0x1CFD JUMP JUMPDEST PUSH1 0x20 DUP3 ADD SWAP1 POP SWAP2 SWAP1 POP JUMP JUMPDEST PUSH1 0x0 PUSH2 0x156E PUSH1 0x1B DUP4 PUSH2 0x1A41 JUMP JUMPDEST SWAP2 POP PUSH2 0x1579 DUP3 PUSH2 0x1D26 JUMP JUMPDEST PUSH1 0x20 DUP3 ADD SWAP1 POP SWAP2 SWAP1 POP JUMP JUMPDEST PUSH1 0x0 PUSH2 0x1591 PUSH1 0x26 DUP4 PUSH2 0x1A41 JUMP JUMPDEST SWAP2 POP PUSH2 0x159C DUP3 PUSH2 0x1D4F JUMP JUMPDEST PUSH1 0x40 DUP3 ADD SWAP1 POP SWAP2 SWAP1 POP JUMP JUMPDEST PUSH1 0x0 PUSH2 0x15B4 PUSH1 0x3D DUP4 PUSH2 0x1A41 JUMP JUMPDEST SWAP2 POP PUSH2 0x15BF DUP3 PUSH2 0x1D9E JUMP JUMPDEST PUSH1 0x40 DUP3 ADD SWAP1 POP SWAP2 SWAP1 POP JUMP JUMPDEST PUSH1 0x0 PUSH2 0x15D7 PUSH1 0x16 DUP4 PUSH2 0x1A41 JUMP JUMPDEST SWAP2 POP PUSH2 0x15E2 DUP3 PUSH2 0x1DED JUMP JUMPDEST PUSH1 0x20 DUP3 ADD SWAP1 POP SWAP2 SWAP1 POP JUMP JUMPDEST PUSH1 0x0 PUSH2 0x15FA PUSH1 0x1D DUP4 PUSH2 0x1A41 JUMP JUMPDEST SWAP2 POP PUSH2 0x1605 DUP3 PUSH2 0x1E16 JUMP JUMPDEST PUSH1 0x20 DUP3 ADD SWAP1 POP SWAP2 SWAP1 POP JUMP JUMPDEST PUSH1 0x0 PUSH2 0x161D PUSH1 0x12 DUP4 PUSH2 0x1A41 JUMP JUMPDEST SWAP2 POP PUSH2 0x1628 DUP3 PUSH2 0x1E3F JUMP JUMPDEST PUSH1 0x20 DUP3 ADD SWAP1 POP SWAP2 SWAP1 POP JUMP JUMPDEST PUSH1 0x0 PUSH2 0x1640 PUSH1 0x2A DUP4 PUSH2 0x1A41 JUMP JUMPDEST SWAP2 POP PUSH2 0x164B DUP3 PUSH2 0x1E68 JUMP JUMPDEST PUSH1 0x40 DUP3 ADD SWAP1 POP SWAP2 SWAP1 POP JUMP JUMPDEST PUSH2 0x165F DUP2 PUSH2 0x1AF0 JUMP JUMPDEST DUP3 MSTORE POP POP JUMP JUMPDEST PUSH2 0x1676 PUSH2 0x1671 DUP3 PUSH2 0x1AF0 JUMP JUMPDEST PUSH2 0x1C0B JUMP JUMPDEST DUP3 MSTORE POP POP JUMP JUMPDEST PUSH1 0x0 PUSH2 0x1688 DUP3 DUP6 PUSH2 0x1456 JUMP JUMPDEST PUSH1 0x14 DUP3 ADD SWAP2 POP PUSH2 0x1698 DUP3 DUP5 PUSH2 0x1665 JUMP JUMPDEST PUSH1 0x20 DUP3 ADD SWAP2 POP DUP2 SWAP1 POP SWAP4 SWAP3 POP POP POP JUMP JUMPDEST PUSH1 0x0 PUSH2 0x16B4 DUP3 DUP6 PUSH2 0x148B JUMP JUMPDEST PUSH1 0x20 DUP3 ADD SWAP2 POP PUSH2 0x16C4 DUP3 DUP5 PUSH2 0x148B JUMP JUMPDEST PUSH1 0x20 DUP3 ADD SWAP2 POP DUP2 SWAP1 POP SWAP4 SWAP3 POP POP POP JUMP JUMPDEST PUSH1 0x0 PUSH2 0x16E0 DUP3 DUP5 PUSH2 0x14A2 JUMP JUMPDEST SWAP2 POP DUP2 SWAP1 POP SWAP3 SWAP2 POP POP JUMP JUMPDEST PUSH1 0x0 PUSH1 0x20 DUP3 ADD SWAP1 POP PUSH2 0x1700 PUSH1 0x0 DUP4 ADD DUP5 PUSH2 0x1447 JUMP JUMPDEST SWAP3 SWAP2 POP POP JUMP JUMPDEST PUSH1 0x0 PUSH1 0x60 DUP3 ADD SWAP1 POP PUSH2 0x171B PUSH1 0x0 DUP4 ADD DUP7 PUSH2 0x1447 JUMP JUMPDEST PUSH2 0x1728 PUSH1 0x20 DUP4 ADD DUP6 PUSH2 0x1447 JUMP JUMPDEST PUSH2 0x1735 PUSH1 0x40 DUP4 ADD DUP5 PUSH2 0x1656 JUMP JUMPDEST SWAP5 SWAP4 POP POP POP POP JUMP JUMPDEST PUSH1 0x0 PUSH1 0x40 DUP3 ADD SWAP1 POP PUSH2 0x1752 PUSH1 0x0 DUP4 ADD DUP6 PUSH2 0x1447 JUMP JUMPDEST PUSH2 0x175F PUSH1 0x20 DUP4 ADD DUP5 PUSH2 0x1656 JUMP JUMPDEST SWAP4 SWAP3 POP POP POP JUMP JUMPDEST PUSH1 0x0 PUSH1 0x60 DUP3 ADD SWAP1 POP PUSH2 0x177B PUSH1 0x0 DUP4 ADD DUP7 PUSH2 0x1447 JUMP JUMPDEST PUSH2 0x1788 PUSH1 0x20 DUP4 ADD DUP6 PUSH2 0x1656 JUMP JUMPDEST PUSH2 0x1795 PUSH1 0x40 DUP4 ADD DUP5 PUSH2 0x1656 JUMP JUMPDEST SWAP5 SWAP4 POP POP POP POP JUMP JUMPDEST PUSH1 0x0 PUSH1 0x20 DUP3 ADD SWAP1 POP PUSH2 0x17B2 PUSH1 0x0 DUP4 ADD DUP5 PUSH2 0x146D JUMP JUMPDEST SWAP3 SWAP2 POP POP JUMP JUMPDEST PUSH1 0x0 PUSH1 0x20 DUP3 ADD SWAP1 POP PUSH2 0x17CD PUSH1 0x0 DUP4 ADD DUP5 PUSH2 0x147C JUMP JUMPDEST SWAP3 SWAP2 POP POP JUMP JUMPDEST PUSH1 0x0 PUSH1 0x20 DUP3 ADD SWAP1 POP PUSH2 0x17E8 PUSH1 0x0 DUP4 ADD DUP5 PUSH2 0x14D3 JUMP JUMPDEST SWAP3 SWAP2 POP POP JUMP JUMPDEST PUSH1 0x0 PUSH1 0x20 DUP3 ADD SWAP1 POP DUP2 DUP2 SUB PUSH1 0x0 DUP4 ADD MSTORE PUSH2 0x1808 DUP2 DUP5 PUSH2 0x14E2 JUMP JUMPDEST SWAP1 POP SWAP3 SWAP2 POP POP JUMP JUMPDEST PUSH1 0x0 PUSH1 0x20 DUP3 ADD SWAP1 POP DUP2 DUP2 SUB PUSH1 0x0 DUP4 ADD MSTORE PUSH2 0x1829 DUP2 PUSH2 0x151B JUMP JUMPDEST SWAP1 POP SWAP2 SWAP1 POP JUMP JUMPDEST PUSH1 0x0 PUSH1 0x20 DUP3 ADD SWAP1 POP DUP2 DUP2 SUB PUSH1 0x0 DUP4 ADD MSTORE PUSH2 0x1849 DUP2 PUSH2 0x153E JUMP JUMPDEST SWAP1 POP SWAP2 SWAP1 POP JUMP JUMPDEST PUSH1 0x0 PUSH1 0x20 DUP3 ADD SWAP1 POP DUP2 DUP2 SUB PUSH1 0x0 DUP4 ADD MSTORE PUSH2 0x1869 DUP2 PUSH2 0x1561 JUMP JUMPDEST SWAP1 POP SWAP2 SWAP1 POP JUMP JUMPDEST PUSH1 0x0 PUSH1 0x20 DUP3 ADD SWAP1 POP DUP2 DUP2 SUB PUSH1 0x0 DUP4 ADD MSTORE PUSH2 0x1889 DUP2 PUSH2 0x1584 JUMP JUMPDEST SWAP1 POP SWAP2 SWAP1 POP JUMP JUMPDEST PUSH1 0x0 PUSH1 0x20 DUP3 ADD SWAP1 POP DUP2 DUP2 SUB PUSH1 0x0 DUP4 ADD MSTORE PUSH2 0x18A9 DUP2 PUSH2 0x15A7 JUMP JUMPDEST SWAP1 POP SWAP2 SWAP1 POP JUMP JUMPDEST PUSH1 0x0 PUSH1 0x20 DUP3 ADD SWAP1 POP DUP2 DUP2 SUB PUSH1 0x0 DUP4 ADD MSTORE PUSH2 0x18C9 DUP2 PUSH2 0x15CA JUMP JUMPDEST SWAP1 POP SWAP2 SWAP1 POP JUMP JUMPDEST PUSH1 0x0 PUSH1 0x20 DUP3 ADD SWAP1 POP DUP2 DUP2 SUB PUSH1 0x0 DUP4 ADD MSTORE PUSH2 0x18E9 DUP2 PUSH2 0x15ED JUMP JUMPDEST SWAP1 POP SWAP2 SWAP1 POP JUMP JUMPDEST PUSH1 0x0 PUSH1 0x20 DUP3 ADD SWAP1 POP DUP2 DUP2 SUB PUSH1 0x0 DUP4 ADD MSTORE PUSH2 0x1909 DUP2 PUSH2 0x1610 JUMP JUMPDEST SWAP1 POP SWAP2 SWAP1 POP JUMP JUMPDEST PUSH1 0x0 PUSH1 0x20 DUP3 ADD SWAP1 POP DUP2 DUP2 SUB PUSH1 0x0 DUP4 ADD MSTORE PUSH2 0x1929 DUP2 PUSH2 0x1633 JUMP JUMPDEST SWAP1 POP SWAP2 SWAP1 POP JUMP JUMPDEST PUSH1 0x0 PUSH1 0x20 DUP3 ADD SWAP1 POP PUSH2 0x1945 PUSH1 0x0 DUP4 ADD DUP5 PUSH2 0x1656 JUMP JUMPDEST SWAP3 SWAP2 POP POP JUMP JUMPDEST PUSH1 0x0 PUSH2 0x1955 PUSH2 0x1966 JUMP JUMPDEST SWAP1 POP PUSH2 0x1961 DUP3 DUP3 PUSH2 0x1B63 JUMP JUMPDEST SWAP2 SWAP1 POP JUMP JUMPDEST PUSH1 0x0 PUSH1 0x40 MLOAD SWAP1 POP SWAP1 JUMP JUMPDEST PUSH1 0x0 PUSH8 0xFFFFFFFFFFFFFFFF DUP3 GT ISZERO PUSH2 0x198B JUMPI PUSH2 0x198A PUSH2 0x1C73 JUMP JUMPDEST JUMPDEST PUSH1 0x20 DUP3 MUL SWAP1 POP PUSH1 0x20 DUP2 ADD SWAP1 POP SWAP2 SWAP1 POP JUMP JUMPDEST PUSH1 0x0 PUSH8 0xFFFFFFFFFFFFFFFF DUP3 GT ISZERO PUSH2 0x19B7 JUMPI PUSH2 0x19B6 PUSH2 0x1C73 JUMP JUMPDEST JUMPDEST PUSH1 0x20 DUP3 MUL SWAP1 POP PUSH1 0x20 DUP2 ADD SWAP1 POP SWAP2 SWAP1 POP JUMP JUMPDEST PUSH1 0x0 PUSH8 0xFFFFFFFFFFFFFFFF DUP3 GT ISZERO PUSH2 0x19E3 JUMPI PUSH2 0x19E2 PUSH2 0x1C73 JUMP JUMPDEST JUMPDEST PUSH1 0x20 DUP3 MUL SWAP1 POP PUSH1 0x20 DUP2 ADD SWAP1 POP SWAP2 SWAP1 POP JUMP JUMPDEST PUSH1 0x0 PUSH8 0xFFFFFFFFFFFFFFFF DUP3 GT ISZERO PUSH2 0x1A0F JUMPI PUSH2 0x1A0E PUSH2 0x1C73 JUMP JUMPDEST JUMPDEST PUSH1 0x20 DUP3 MUL SWAP1 POP PUSH1 0x20 DUP2 ADD SWAP1 POP SWAP2 SWAP1 POP JUMP JUMPDEST PUSH1 0x0 DUP2 MLOAD SWAP1 POP SWAP2 SWAP1 POP JUMP JUMPDEST PUSH1 0x0 DUP2 MLOAD SWAP1 POP SWAP2 SWAP1 POP JUMP JUMPDEST PUSH1 0x0 DUP2 SWAP1 POP SWAP3 SWAP2 POP POP JUMP JUMPDEST PUSH1 0x0 DUP3 DUP3 MSTORE PUSH1 0x20 DUP3 ADD SWAP1 POP SWAP3 SWAP2 POP POP JUMP JUMPDEST PUSH1 0x0 PUSH2 0x1A5D DUP3 PUSH2 0x1AF0 JUMP JUMPDEST SWAP2 POP PUSH2 0x1A68 DUP4 PUSH2 0x1AF0 JUMP JUMPDEST SWAP3 POP DUP3 PUSH32 0xFFFFFFFFFFFFFFFFFFFFFFFFFFFFFFFFFFFFFFFFFFFFFFFFFFFFFFFFFFFFFFFF SUB DUP3 GT ISZERO PUSH2 0x1A9D JUMPI PUSH2 0x1A9C PUSH2 0x1C15 JUMP JUMPDEST JUMPDEST DUP3 DUP3 ADD SWAP1 POP SWAP3 SWAP2 POP POP JUMP JUMPDEST PUSH1 0x0 PUSH2 0x1AB3 DUP3 PUSH2 0x1AD0 JUMP JUMPDEST SWAP1 POP SWAP2 SWAP1 POP JUMP JUMPDEST PUSH1 0x0 DUP2 ISZERO ISZERO SWAP1 POP SWAP2 SWAP1 POP JUMP JUMPDEST PUSH1 0x0 DUP2 SWAP1 POP SWAP2 SWAP1 POP JUMP JUMPDEST PUSH1 0x0 PUSH20 0xFFFFFFFFFFFFFFFFFFFFFFFFFFFFFFFFFFFFFFFF DUP3 AND SWAP1 POP SWAP2 SWAP1 POP JUMP JUMPDEST PUSH1 0x0 DUP2 SWAP1 POP SWAP2 SWAP1 POP JUMP JUMPDEST PUSH1 0x0 PUSH2 0x1B05 DUP3 PUSH2 0x1B0C JUMP JUMPDEST SWAP1 POP SWAP2 SWAP1 POP JUMP JUMPDEST PUSH1 0x0 PUSH2 0x1B17 DUP3 PUSH2 0x1B1E JUMP JUMPDEST SWAP1 POP SWAP2 SWAP1 POP JUMP JUMPDEST PUSH1 0x0 PUSH2 0x1B29 DUP3 PUSH2 0x1AD0 JUMP JUMPDEST SWAP1 POP SWAP2 SWAP1 POP JUMP JUMPDEST PUSH1 0x0 JUMPDEST DUP4 DUP2 LT ISZERO PUSH2 0x1B4E JUMPI DUP1 DUP3 ADD MLOAD DUP2 DUP5 ADD MSTORE PUSH1 0x20 DUP2 ADD SWAP1 POP PUSH2 0x1B33 JUMP JUMPDEST DUP4 DUP2 GT ISZERO PUSH2 0x1B5D JUMPI PUSH1 0x0 DUP5 DUP5 ADD MSTORE JUMPDEST POP POP POP POP JUMP JUMPDEST PUSH2 0x1B6C DUP3 PUSH2 0x1CB6 JUMP JUMPDEST DUP2 ADD DUP2 DUP2 LT PUSH8 0xFFFFFFFFFFFFFFFF DUP3 GT OR ISZERO PUSH2 0x1B8B JUMPI PUSH2 0x1B8A PUSH2 0x1C73 JUMP JUMPDEST JUMPDEST DUP1 PUSH1 0x40 MSTORE POP POP POP JUMP JUMPDEST PUSH1 0x0 PUSH2 0x1B9F DUP3 PUSH2 0x1AF0 JUMP JUMPDEST SWAP2 POP PUSH32 0xFFFFFFFFFFFFFFFFFFFFFFFFFFFFFFFFFFFFFFFFFFFFFFFFFFFFFFFFFFFFFFFF DUP3 EQ ISZERO PUSH2 0x1BD2 JUMPI PUSH2 0x1BD1 PUSH2 0x1C15 JUMP JUMPDEST JUMPDEST PUSH1 0x1 DUP3 ADD SWAP1 POP SWAP2 SWAP1 POP JUMP JUMPDEST PUSH1 0x0 PUSH2 0x1BE8 DUP3 PUSH2 0x1BF9 JUMP JUMPDEST SWAP1 POP SWAP2 SWAP1 POP JUMP JUMPDEST PUSH1 0x0 DUP2 SWAP1 POP SWAP2 SWAP1 POP JUMP JUMPDEST PUSH1 0x0 PUSH2 0x1C04 DUP3 PUSH2 0x1CC7 JUMP JUMPDEST SWAP1 POP SWAP2 SWAP1 POP JUMP JUMPDEST PUSH1 0x0 DUP2 SWAP1 POP SWAP2 SWAP1 POP JUMP JUMPDEST PUSH32 0x4E487B7100000000000000000000000000000000000000000000000000000000 PUSH1 0x0 MSTORE PUSH1 0x11 PUSH1 0x4 MSTORE PUSH1 0x24 PUSH1 0x0 REVERT JUMPDEST PUSH32 0x4E487B7100000000000000000000000000000000000000000000000000000000 PUSH1 0x0 MSTORE PUSH1 0x32 PUSH1 0x4 MSTORE PUSH1 0x24 PUSH1 0x0 REVERT JUMPDEST PUSH32 0x4E487B7100000000000000000000000000000000000000000000000000000000 PUSH1 0x0 MSTORE PUSH1 0x41 PUSH1 0x4 MSTORE PUSH1 0x24 PUSH1 0x0 REVERT JUMPDEST PUSH1 0x0 DUP1 REVERT JUMPDEST PUSH1 0x0 DUP1 REVERT JUMPDEST PUSH1 0x0 DUP1 REVERT JUMPDEST PUSH1 0x0 DUP1 REVERT JUMPDEST PUSH1 0x0 PUSH1 0x1F NOT PUSH1 0x1F DUP4 ADD AND SWAP1 POP SWAP2 SWAP1 POP JUMP JUMPDEST PUSH1 0x0 DUP2 PUSH1 0x60 SHL SWAP1 POP SWAP2 SWAP1 POP JUMP JUMPDEST PUSH32 0x5765656B2063616E6E6F7420626520696E207468652066757475726500000000 PUSH1 0x0 DUP3 ADD MSTORE POP JUMP JUMPDEST PUSH32 0x496E636F7272656374206D65726B6C652070726F6F6600000000000000000000 PUSH1 0x0 DUP3 ADD MSTORE POP JUMP JUMPDEST PUSH32 0x536166654D6174683A206164646974696F6E206F766572666C6F770000000000 PUSH1 0x0 DUP3 ADD MSTORE POP JUMP JUMPDEST PUSH32 0x416464726573733A20696E73756666696369656E742062616C616E636520666F PUSH1 0x0 DUP3 ADD MSTORE PUSH32 0x722063616C6C0000000000000000000000000000000000000000000000000000 PUSH1 0x20 DUP3 ADD MSTORE POP JUMP JUMPDEST PUSH32 0x4E6F2062616C616E636520776F756C64206265207472616E7366657272656420 PUSH1 0x0 DUP3 ADD MSTORE PUSH32 0x2D206E6F7420676F696E6720746F20776173746520796F757220676173000000 PUSH1 0x20 DUP3 ADD MSTORE POP JUMP JUMPDEST PUSH32 0x4C502068617320616C726561647920636C61696D656400000000000000000000 PUSH1 0x0 DUP3 ADD MSTORE POP JUMP JUMPDEST PUSH32 0x416464726573733A2063616C6C20746F206E6F6E2D636F6E7472616374000000 PUSH1 0x0 DUP3 ADD MSTORE POP JUMP JUMPDEST PUSH32 0x4D69736D61746368696E6720696E707574730000000000000000000000000000 PUSH1 0x0 DUP3 ADD MSTORE POP JUMP JUMPDEST PUSH32 0x5361666545524332303A204552433230206F7065726174696F6E20646964206E PUSH1 0x0 DUP3 ADD MSTORE PUSH32 0x6F74207375636365656400000000000000000000000000000000000000000000 PUSH1 0x20 DUP3 ADD MSTORE POP JUMP JUMPDEST PUSH2 0x1EC0 DUP2 PUSH2 0x1AA8 JUMP JUMPDEST DUP2 EQ PUSH2 0x1ECB JUMPI PUSH1 0x0 DUP1 REVERT JUMPDEST POP JUMP JUMPDEST PUSH2 0x1ED7 DUP2 PUSH2 0x1ABA JUMP JUMPDEST DUP2 EQ PUSH2 0x1EE2 JUMPI PUSH1 0x0 DUP1 REVERT JUMPDEST POP JUMP JUMPDEST PUSH2 0x1EEE DUP2 PUSH2 0x1AC6 JUMP JUMPDEST DUP2 EQ PUSH2 0x1EF9 JUMPI PUSH1 0x0 DUP1 REVERT JUMPDEST POP JUMP JUMPDEST PUSH2 0x1F05 DUP2 PUSH2 0x1AF0 JUMP JUMPDEST DUP2 EQ PUSH2 0x1F10 JUMPI PUSH1 0x0 DUP1 REVERT JUMPDEST POP JUMP INVALID LOG2 PUSH5 0x6970667358 0x22 SLT KECCAK256 PUSH9 0x2A2E7B0830C9F22B01 0x2E 0xCC 0x4B DIV PUSH8 0xE03542165F4E9A85 DUP12 CHAINID 0xD5 PUSH17 0x2E511AB9364736F6C6343000807003300 "
				},
				"gasEstimates": {
					"creation": {
						"codeDepositCost": "1601800",
						"executionCost": "infinite",
						"totalCost": "infinite"
					},
					"external": {
						"claimWeek(address,uint256,uint256,bytes32[])": "infinite",
						"claimWeeks(address,uint256[],uint256[],bytes32[][])": "infinite",
						"claimed(uint256,address)": "3088",
						"expireTranche(uint256)": "infinite",
						"merkleRoots(uint256)": "2810",
						"owner()": "2578",
						"seedNewAllocations(address[],uint256[],uint256)": "infinite",
						"token()": "2710",
						"tranches()": "2495",
						"transferOwnership(address)": "30693",
						"user_result(uint256)": "5045",
						"verifyClaim(address,uint256,uint256,bytes32[])": "infinite"
					},
					"internal": {
						"_claimWeek(address,uint256,uint256,bytes32[] memory)": "infinite",
						"_disburse(address,uint256)": "infinite",
						"_verifyClaim(address,uint256,uint256,bytes32[] memory)": "infinite"
					}
				},
				"methodIdentifiers": {
					"claimWeek(address,uint256,uint256,bytes32[])": "58b4e4b4",
					"claimWeeks(address,uint256[],uint256[],bytes32[][])": "ba593714",
					"claimed(uint256,address)": "120aa877",
					"expireTranche(uint256)": "d5efd20a",
					"merkleRoots(uint256)": "71c5ecb1",
					"owner()": "8da5cb5b",
					"seedNewAllocations(address[],uint256[],uint256)": "cf9aa8cc",
					"token()": "fc0c546a",
					"tranches()": "ebf04917",
					"transferOwnership(address)": "f2fde38b",
					"user_result(uint256)": "90c051e6",
					"verifyClaim(address,uint256,uint256,bytes32[])": "eb0d07f5"
				}
			},
			"storageLayout": {
				"storage": [
					{
						"astId": 527,
						"contract": "contracts/token/ERC20/MTMSAirdrop.sol:MTMSAirdrop",
						"label": "owner",
						"offset": 0,
						"slot": "0",
						"type": "t_address"
					},
					{
						"astId": 176,
						"contract": "contracts/token/ERC20/MTMSAirdrop.sol:MTMSAirdrop",
						"label": "result",
						"offset": 0,
						"slot": "1",
						"type": "t_mapping(t_address,t_struct(user)171_storage)"
					},
					{
						"astId": 179,
						"contract": "contracts/token/ERC20/MTMSAirdrop.sol:MTMSAirdrop",
						"label": "user_result",
						"offset": 0,
						"slot": "2",
						"type": "t_array(t_address)dyn_storage"
					},
					{
						"astId": 206,
						"contract": "contracts/token/ERC20/MTMSAirdrop.sol:MTMSAirdrop",
						"label": "token",
						"offset": 0,
						"slot": "3",
						"type": "t_contract(IERC20)148"
					},
					{
						"astId": 210,
						"contract": "contracts/token/ERC20/MTMSAirdrop.sol:MTMSAirdrop",
						"label": "merkleRoots",
						"offset": 0,
						"slot": "4",
						"type": "t_mapping(t_uint256,t_bytes32)"
					},
					{
						"astId": 216,
						"contract": "contracts/token/ERC20/MTMSAirdrop.sol:MTMSAirdrop",
						"label": "claimed",
						"offset": 0,
						"slot": "5",
						"type": "t_mapping(t_uint256,t_mapping(t_address,t_bool))"
					},
					{
						"astId": 218,
						"contract": "contracts/token/ERC20/MTMSAirdrop.sol:MTMSAirdrop",
						"label": "tranches",
						"offset": 0,
						"slot": "6",
						"type": "t_uint256"
					}
				],
				"types": {
					"t_address": {
						"encoding": "inplace",
						"label": "address",
						"numberOfBytes": "20"
					},
					"t_array(t_address)dyn_storage": {
						"base": "t_address",
						"encoding": "dynamic_array",
						"label": "address[]",
						"numberOfBytes": "32"
					},
					"t_bool": {
						"encoding": "inplace",
						"label": "bool",
						"numberOfBytes": "1"
					},
					"t_bytes32": {
						"encoding": "inplace",
						"label": "bytes32",
						"numberOfBytes": "32"
					},
					"t_contract(IERC20)148": {
						"encoding": "inplace",
						"label": "contract IERC20",
						"numberOfBytes": "20"
					},
					"t_mapping(t_address,t_bool)": {
						"encoding": "mapping",
						"key": "t_address",
						"label": "mapping(address => bool)",
						"numberOfBytes": "32",
						"value": "t_bool"
					},
					"t_mapping(t_address,t_struct(user)171_storage)": {
						"encoding": "mapping",
						"key": "t_address",
						"label": "mapping(address => struct MTMSAirdrop.user)",
						"numberOfBytes": "32",
						"value": "t_struct(user)171_storage"
					},
					"t_mapping(t_uint256,t_bytes32)": {
						"encoding": "mapping",
						"key": "t_uint256",
						"label": "mapping(uint256 => bytes32)",
						"numberOfBytes": "32",
						"value": "t_bytes32"
					},
					"t_mapping(t_uint256,t_mapping(t_address,t_bool))": {
						"encoding": "mapping",
						"key": "t_uint256",
						"label": "mapping(uint256 => mapping(address => bool))",
						"numberOfBytes": "32",
						"value": "t_mapping(t_address,t_bool)"
					},
					"t_string_storage": {
						"encoding": "bytes",
						"label": "string",
						"numberOfBytes": "32"
					},
					"t_struct(user)171_storage": {
						"encoding": "inplace",
						"label": "struct MTMSAirdrop.user",
						"members": [
							{
								"astId": 168,
								"contract": "contracts/token/ERC20/MTMSAirdrop.sol:MTMSAirdrop",
								"label": "mAddress",
								"offset": 0,
								"slot": "0",
								"type": "t_string_storage"
							},
							{
								"astId": 170,
								"contract": "contracts/token/ERC20/MTMSAirdrop.sol:MTMSAirdrop",
								"label": "amount",
								"offset": 0,
								"slot": "1",
								"type": "t_uint8"
							}
						],
						"numberOfBytes": "64"
					},
					"t_uint256": {
						"encoding": "inplace",
						"label": "uint256",
						"numberOfBytes": "32"
					},
					"t_uint8": {
						"encoding": "inplace",
						"label": "uint8",
						"numberOfBytes": "1"
					}
				}
			},
			"userdoc": {
				"kind": "user",
				"methods": {},
				"version": 1
			}
		}
	}
}