{
	"contracts/token/ERC20/MTMSAirdrop.sol": {
		"MTMSAirdrop": {
			"abi": [
				{
					"inputs": [
						{
							"internalType": "contract IERC20",
							"name": "_token",
							"type": "address"
						}
					],
					"stateMutability": "nonpayable",
					"type": "constructor"
				},
				{
					"anonymous": false,
					"inputs": [
						{
							"indexed": false,
							"internalType": "address",
							"name": "claimant",
							"type": "address"
						},
						{
							"indexed": false,
							"internalType": "uint256",
							"name": "week",
							"type": "uint256"
						},
						{
							"indexed": false,
							"internalType": "uint256",
							"name": "balance",
							"type": "uint256"
						}
					],
					"name": "Claimed",
					"type": "event"
				},
				{
					"anonymous": false,
					"inputs": [
						{
							"indexed": true,
							"internalType": "address",
							"name": "previousOwner",
							"type": "address"
						},
						{
							"indexed": true,
							"internalType": "address",
							"name": "newOwner",
							"type": "address"
						}
					],
					"name": "OwnershipTransferred",
					"type": "event"
				},
				{
					"anonymous": false,
					"inputs": [
						{
							"indexed": true,
							"internalType": "address",
							"name": "_address",
							"type": "address"
						}
					],
					"name": "RemovedFunder",
					"type": "event"
				},
				{
					"anonymous": false,
					"inputs": [
						{
							"indexed": false,
							"internalType": "uint256",
							"name": "tranche",
							"type": "uint256"
						},
						{
							"indexed": false,
							"internalType": "bytes32",
							"name": "merkleRoot",
							"type": "bytes32"
						},
						{
							"indexed": false,
							"internalType": "uint256",
							"name": "totalAmount",
							"type": "uint256"
						}
					],
					"name": "TrancheAdded",
					"type": "event"
				},
				{
					"anonymous": false,
					"inputs": [
						{
							"indexed": false,
							"internalType": "uint256",
							"name": "tranche",
							"type": "uint256"
						}
					],
					"name": "TrancheExpired",
					"type": "event"
				},
				{
					"inputs": [
						{
							"internalType": "address",
							"name": "_liquidityProvider",
							"type": "address"
						},
						{
							"internalType": "uint256",
							"name": "_tranche",
							"type": "uint256"
						},
						{
							"internalType": "uint256",
							"name": "_balance",
							"type": "uint256"
						},
						{
							"internalType": "bytes32[]",
							"name": "_merkleProof",
							"type": "bytes32[]"
						}
					],
					"name": "claimWeek",
					"outputs": [],
					"stateMutability": "nonpayable",
					"type": "function"
				},
				{
					"inputs": [
						{
							"internalType": "address",
							"name": "_liquidityProvider",
							"type": "address"
						},
						{
							"internalType": "uint256[]",
							"name": "_tranches",
							"type": "uint256[]"
						},
						{
							"internalType": "uint256[]",
							"name": "_balances",
							"type": "uint256[]"
						},
						{
							"internalType": "bytes32[][]",
							"name": "_merkleProofs",
							"type": "bytes32[][]"
						}
					],
					"name": "claimWeeks",
					"outputs": [],
					"stateMutability": "nonpayable",
					"type": "function"
				},
				{
					"inputs": [
						{
							"internalType": "uint256",
							"name": "",
							"type": "uint256"
						},
						{
							"internalType": "address",
							"name": "",
							"type": "address"
						}
					],
					"name": "claimed",
					"outputs": [
						{
							"internalType": "bool",
							"name": "",
							"type": "bool"
						}
					],
					"stateMutability": "view",
					"type": "function"
				},
				{
					"inputs": [
						{
							"internalType": "uint256",
							"name": "_trancheId",
							"type": "uint256"
						}
					],
					"name": "expireTranche",
					"outputs": [],
					"stateMutability": "nonpayable",
					"type": "function"
				},
				{
					"inputs": [
						{
							"internalType": "uint256",
							"name": "",
							"type": "uint256"
						}
					],
					"name": "merkleRoots",
					"outputs": [
						{
							"internalType": "bytes32",
							"name": "",
							"type": "bytes32"
						}
					],
					"stateMutability": "view",
					"type": "function"
				},
				{
					"inputs": [],
					"name": "owner",
					"outputs": [
						{
							"internalType": "address",
							"name": "",
							"type": "address"
						}
					],
					"stateMutability": "view",
					"type": "function"
				},
				{
					"inputs": [
						{
							"internalType": "bytes32",
							"name": "_merkleRoot",
							"type": "bytes32"
						},
						{
							"internalType": "uint256",
							"name": "_totalAllocation",
							"type": "uint256"
						}
					],
					"name": "seedNewAllocations",
					"outputs": [
						{
							"internalType": "uint256",
							"name": "trancheId",
							"type": "uint256"
						}
					],
					"stateMutability": "nonpayable",
					"type": "function"
				},
				{
					"inputs": [],
					"name": "token",
					"outputs": [
						{
							"internalType": "contract IERC20",
							"name": "",
							"type": "address"
						}
					],
					"stateMutability": "view",
					"type": "function"
				},
				{
					"inputs": [],
					"name": "tranches",
					"outputs": [
						{
							"internalType": "uint256",
							"name": "",
							"type": "uint256"
						}
					],
					"stateMutability": "view",
					"type": "function"
				},
				{
					"inputs": [
						{
							"internalType": "address",
							"name": "newOwner",
							"type": "address"
						}
					],
					"name": "transferOwnership",
					"outputs": [],
					"stateMutability": "nonpayable",
					"type": "function"
				},
				{
					"inputs": [
						{
							"internalType": "address",
							"name": "_liquidityProvider",
							"type": "address"
						},
						{
							"internalType": "uint256",
							"name": "_tranche",
							"type": "uint256"
						},
						{
							"internalType": "uint256",
							"name": "_balance",
							"type": "uint256"
						},
						{
							"internalType": "bytes32[]",
							"name": "_merkleProof",
							"type": "bytes32[]"
						}
					],
					"name": "verifyClaim",
					"outputs": [
						{
							"internalType": "bool",
							"name": "valid",
							"type": "bool"
						}
					],
					"stateMutability": "view",
					"type": "function"
				}
			],
			"devdoc": {
				"kind": "dev",
				"methods": {
					"transferOwnership(address)": {
						"details": "Allows the current owner to transfer control of the contract to a newOwner.",
						"params": {
							"newOwner": "The address to transfer ownership to."
						}
					}
				},
				"version": 1
			},
			"evm": {
				"assembly": "    /* \"contracts/token/ERC20/MTMSAirdrop.sol\":244:4149  contract MTMSAirdrop is Ownable {\r... */\n  mstore(0x40, 0x80)\n    /* \"contracts/token/ERC20/MTMSAirdrop.sol\":862:929  constructor(IERC20 _token) public {\r... */\n  callvalue\n  dup1\n  iszero\n  tag_1\n  jumpi\n  0x00\n  dup1\n  revert\ntag_1:\n  pop\n  mload(0x40)\n  sub(codesize, bytecodeSize)\n  dup1\n  bytecodeSize\n  dup4\n  codecopy\n  dup2\n  dup2\n  add\n  0x40\n  mstore\n  dup2\n  add\n  swap1\n  tag_2\n  swap2\n  swap1\n  tag_3\n  jump\t// in\ntag_2:\n    /* \"contracts/token/ERC20/Ownable.sol\":328:338  msg.sender */\n  caller\n    /* \"contracts/token/ERC20/Ownable.sol\":320:325  owner */\n  0x00\n  dup1\n    /* \"contracts/token/ERC20/Ownable.sol\":320:338  owner = msg.sender */\n  0x0100\n  exp\n  dup2\n  sload\n  dup2\n  0xffffffffffffffffffffffffffffffffffffffff\n  mul\n  not\n  and\n  swap1\n  dup4\n  0xffffffffffffffffffffffffffffffffffffffff\n  and\n  mul\n  or\n  swap1\n  sstore\n  pop\n    /* \"contracts/token/ERC20/MTMSAirdrop.sol\":915:921  _token */\n  dup1\n    /* \"contracts/token/ERC20/MTMSAirdrop.sol\":907:912  token */\n  0x01\n  0x00\n    /* \"contracts/token/ERC20/MTMSAirdrop.sol\":907:921  token = _token */\n  0x0100\n  exp\n  dup2\n  sload\n  dup2\n  0xffffffffffffffffffffffffffffffffffffffff\n  mul\n  not\n  and\n  swap1\n  dup4\n  0xffffffffffffffffffffffffffffffffffffffff\n  and\n  mul\n  or\n  swap1\n  sstore\n  pop\n    /* \"contracts/token/ERC20/MTMSAirdrop.sol\":862:929  constructor(IERC20 _token) public {\r... */\n  pop\n    /* \"contracts/token/ERC20/MTMSAirdrop.sol\":244:4149  contract MTMSAirdrop is Ownable {\r... */\n  jump(tag_8)\n    /* \"#utility.yul\":7:178   */\ntag_10:\n    /* \"#utility.yul\":78:83   */\n  0x00\n    /* \"#utility.yul\":109:115   */\n  dup2\n    /* \"#utility.yul\":103:116   */\n  mload\n    /* \"#utility.yul\":94:116   */\n  swap1\n  pop\n    /* \"#utility.yul\":125:172   */\n  tag_12\n    /* \"#utility.yul\":166:171   */\n  dup2\n    /* \"#utility.yul\":125:172   */\n  tag_13\n  jump\t// in\ntag_12:\n    /* \"#utility.yul\":7:178   */\n  swap3\n  swap2\n  pop\n  pop\n  jump\t// out\n    /* \"#utility.yul\":184:563   */\ntag_3:\n    /* \"#utility.yul\":268:274   */\n  0x00\n    /* \"#utility.yul\":317:319   */\n  0x20\n    /* \"#utility.yul\":305:314   */\n  dup3\n    /* \"#utility.yul\":296:303   */\n  dup5\n    /* \"#utility.yul\":292:315   */\n  sub\n    /* \"#utility.yul\":288:320   */\n  slt\n    /* \"#utility.yul\":285:404   */\n  iszero\n  tag_15\n  jumpi\n    /* \"#utility.yul\":323:402   */\n  tag_16\n  tag_17\n  jump\t// in\ntag_16:\n    /* \"#utility.yul\":285:404   */\ntag_15:\n    /* \"#utility.yul\":443:444   */\n  0x00\n    /* \"#utility.yul\":468:546   */\n  tag_18\n    /* \"#utility.yul\":538:545   */\n  dup5\n    /* \"#utility.yul\":529:535   */\n  dup3\n    /* \"#utility.yul\":518:527   */\n  dup6\n    /* \"#utility.yul\":514:536   */\n  add\n    /* \"#utility.yul\":468:546   */\n  tag_10\n  jump\t// in\ntag_18:\n    /* \"#utility.yul\":458:546   */\n  swap2\n  pop\n    /* \"#utility.yul\":414:556   */\n  pop\n    /* \"#utility.yul\":184:563   */\n  swap3\n  swap2\n  pop\n  pop\n  jump\t// out\n    /* \"#utility.yul\":650:746   */\ntag_21:\n    /* \"#utility.yul\":687:694   */\n  0x00\n    /* \"#utility.yul\":716:740   */\n  tag_23\n    /* \"#utility.yul\":734:739   */\n  dup3\n    /* \"#utility.yul\":716:740   */\n  tag_24\n  jump\t// in\ntag_23:\n    /* \"#utility.yul\":705:740   */\n  swap1\n  pop\n    /* \"#utility.yul\":650:746   */\n  swap2\n  swap1\n  pop\n  jump\t// out\n    /* \"#utility.yul\":752:862   */\ntag_25:\n    /* \"#utility.yul\":803:810   */\n  0x00\n    /* \"#utility.yul\":832:856   */\n  tag_27\n    /* \"#utility.yul\":850:855   */\n  dup3\n    /* \"#utility.yul\":832:856   */\n  tag_21\n  jump\t// in\ntag_27:\n    /* \"#utility.yul\":821:856   */\n  swap1\n  pop\n    /* \"#utility.yul\":752:862   */\n  swap2\n  swap1\n  pop\n  jump\t// out\n    /* \"#utility.yul\":868:994   */\ntag_24:\n    /* \"#utility.yul\":905:912   */\n  0x00\n    /* \"#utility.yul\":945:987   */\n  0xffffffffffffffffffffffffffffffffffffffff\n    /* \"#utility.yul\":938:943   */\n  dup3\n    /* \"#utility.yul\":934:988   */\n  and\n    /* \"#utility.yul\":923:988   */\n  swap1\n  pop\n    /* \"#utility.yul\":868:994   */\n  swap2\n  swap1\n  pop\n  jump\t// out\n    /* \"#utility.yul\":1123:1240   */\ntag_17:\n    /* \"#utility.yul\":1232:1233   */\n  0x00\n    /* \"#utility.yul\":1229:1230   */\n  dup1\n    /* \"#utility.yul\":1222:1234   */\n  revert\n    /* \"#utility.yul\":1246:1396   */\ntag_13:\n    /* \"#utility.yul\":1333:1371   */\n  tag_33\n    /* \"#utility.yul\":1365:1370   */\n  dup2\n    /* \"#utility.yul\":1333:1371   */\n  tag_25\n  jump\t// in\ntag_33:\n    /* \"#utility.yul\":1326:1331   */\n  dup2\n    /* \"#utility.yul\":1323:1372   */\n  eq\n    /* \"#utility.yul\":1313:1390   */\n  tag_34\n  jumpi\n    /* \"#utility.yul\":1386:1387   */\n  0x00\n    /* \"#utility.yul\":1383:1384   */\n  dup1\n    /* \"#utility.yul\":1376:1388   */\n  revert\n    /* \"#utility.yul\":1313:1390   */\ntag_34:\n    /* \"#utility.yul\":1246:1396   */\n  pop\n  jump\t// out\n    /* \"contracts/token/ERC20/MTMSAirdrop.sol\":244:4149  contract MTMSAirdrop is Ownable {\r... */\ntag_8:\n  dataSize(sub_0)\n  dup1\n  dataOffset(sub_0)\n  0x00\n  codecopy\n  0x00\n  return\nstop\n\nsub_0: assembly {\n        /* \"contracts/token/ERC20/MTMSAirdrop.sol\":244:4149  contract MTMSAirdrop is Ownable {\r... */\n      mstore(0x40, 0x80)\n      callvalue\n      dup1\n      iszero\n      tag_1\n      jumpi\n      0x00\n      dup1\n      revert\n    tag_1:\n      pop\n      jumpi(tag_2, lt(calldatasize, 0x04))\n      shr(0xe0, calldataload(0x00))\n      dup1\n      0xba593714\n      gt\n      tag_14\n      jumpi\n      dup1\n      0xba593714\n      eq\n      tag_8\n      jumpi\n      dup1\n      0xd5efd20a\n      eq\n      tag_9\n      jumpi\n      dup1\n      0xeb0d07f5\n      eq\n      tag_10\n      jumpi\n      dup1\n      0xebf04917\n      eq\n      tag_11\n      jumpi\n      dup1\n      0xf2fde38b\n      eq\n      tag_12\n      jumpi\n      dup1\n      0xfc0c546a\n      eq\n      tag_13\n      jumpi\n      jump(tag_2)\n    tag_14:\n      dup1\n      0x120aa877\n      eq\n      tag_3\n      jumpi\n      dup1\n      0x58b4e4b4\n      eq\n      tag_4\n      jumpi\n      dup1\n      0x65ef53b1\n      eq\n      tag_5\n      jumpi\n      dup1\n      0x71c5ecb1\n      eq\n      tag_6\n      jumpi\n      dup1\n      0x8da5cb5b\n      eq\n      tag_7\n      jumpi\n    tag_2:\n      0x00\n      dup1\n      revert\n        /* \"contracts/token/ERC20/MTMSAirdrop.sol\":764:823  mapping(uint256 => mapping(address => bool)) public claimed */\n    tag_3:\n      tag_15\n      0x04\n      dup1\n      calldatasize\n      sub\n      dup2\n      add\n      swap1\n      tag_16\n      swap2\n      swap1\n      tag_17\n      jump\t// in\n    tag_16:\n      tag_18\n      jump\t// in\n    tag_15:\n      mload(0x40)\n      tag_19\n      swap2\n      swap1\n      tag_20\n      jump\t// in\n    tag_19:\n      mload(0x40)\n      dup1\n      swap2\n      sub\n      swap1\n      return\n        /* \"contracts/token/ERC20/MTMSAirdrop.sol\":1564:1875  function claimWeek(\r... */\n    tag_4:\n      tag_21\n      0x04\n      dup1\n      calldatasize\n      sub\n      dup2\n      add\n      swap1\n      tag_22\n      swap2\n      swap1\n      tag_23\n      jump\t// in\n    tag_22:\n      tag_24\n      jump\t// in\n    tag_21:\n      stop\n        /* \"contracts/token/ERC20/MTMSAirdrop.sol\":937:1366  function seedNewAllocations(bytes32 _merkleRoot, uint256 _totalAllocation)\r... */\n    tag_5:\n      tag_25\n      0x04\n      dup1\n      calldatasize\n      sub\n      dup2\n      add\n      swap1\n      tag_26\n      swap2\n      swap1\n      tag_27\n      jump\t// in\n    tag_26:\n      tag_28\n      jump\t// in\n    tag_25:\n      mload(0x40)\n      tag_29\n      swap2\n      swap1\n      tag_30\n      jump\t// in\n    tag_29:\n      mload(0x40)\n      dup1\n      swap2\n      sub\n      swap1\n      return\n        /* \"contracts/token/ERC20/MTMSAirdrop.sol\":711:757  mapping(uint256 => bytes32) public merkleRoots */\n    tag_6:\n      tag_31\n      0x04\n      dup1\n      calldatasize\n      sub\n      dup2\n      add\n      swap1\n      tag_32\n      swap2\n      swap1\n      tag_33\n      jump\t// in\n    tag_32:\n      tag_34\n      jump\t// in\n    tag_31:\n      mload(0x40)\n      tag_35\n      swap2\n      swap1\n      tag_36\n      jump\t// in\n    tag_35:\n      mload(0x40)\n      dup1\n      swap2\n      sub\n      swap1\n      return\n        /* \"contracts/token/ERC20/Ownable.sol\":51:71  address public owner */\n    tag_7:\n      tag_37\n      tag_38\n      jump\t// in\n    tag_37:\n      mload(0x40)\n      tag_39\n      swap2\n      swap1\n      tag_40\n      jump\t// in\n    tag_39:\n      mload(0x40)\n      dup1\n      swap2\n      sub\n      swap1\n      return\n        /* \"contracts/token/ERC20/MTMSAirdrop.sol\":1885:2529  function claimWeeks(\r... */\n    tag_8:\n      tag_41\n      0x04\n      dup1\n      calldatasize\n      sub\n      dup2\n      add\n      swap1\n      tag_42\n      swap2\n      swap1\n      tag_43\n      jump\t// in\n    tag_42:\n      tag_44\n      jump\t// in\n    tag_41:\n      stop\n        /* \"contracts/token/ERC20/MTMSAirdrop.sol\":1374:1556  function expireTranche(uint256 _trancheId)\r... */\n    tag_9:\n      tag_45\n      0x04\n      dup1\n      calldatasize\n      sub\n      dup2\n      add\n      swap1\n      tag_46\n      swap2\n      swap1\n      tag_33\n      jump\t// in\n    tag_46:\n      tag_47\n      jump\t// in\n    tag_45:\n      stop\n        /* \"contracts/token/ERC20/MTMSAirdrop.sol\":2539:2855  function verifyClaim(\r... */\n    tag_10:\n      tag_48\n      0x04\n      dup1\n      calldatasize\n      sub\n      dup2\n      add\n      swap1\n      tag_49\n      swap2\n      swap1\n      tag_23\n      jump\t// in\n    tag_49:\n      tag_50\n      jump\t// in\n    tag_48:\n      mload(0x40)\n      tag_51\n      swap2\n      swap1\n      tag_20\n      jump\t// in\n    tag_51:\n      mload(0x40)\n      dup1\n      swap2\n      sub\n      swap1\n      return\n        /* \"contracts/token/ERC20/MTMSAirdrop.sol\":830:853  uint256 public tranches */\n    tag_11:\n      tag_52\n      tag_53\n      jump\t// in\n    tag_52:\n      mload(0x40)\n      tag_54\n      swap2\n      swap1\n      tag_30\n      jump\t// in\n    tag_54:\n      mload(0x40)\n      dup1\n      swap2\n      sub\n      swap1\n      return\n        /* \"contracts/token/ERC20/Ownable.sol\":670:848  function transferOwnership(address newOwner) onlyOwner public {\r... */\n    tag_12:\n      tag_55\n      0x04\n      dup1\n      calldatasize\n      sub\n      dup2\n      add\n      swap1\n      tag_56\n      swap2\n      swap1\n      tag_57\n      jump\t// in\n    tag_56:\n      tag_58\n      jump\t// in\n    tag_55:\n      stop\n        /* \"contracts/token/ERC20/MTMSAirdrop.sol\":683:702  IERC20 public token */\n    tag_13:\n      tag_59\n      tag_60\n      jump\t// in\n    tag_59:\n      mload(0x40)\n      tag_61\n      swap2\n      swap1\n      tag_62\n      jump\t// in\n    tag_61:\n      mload(0x40)\n      dup1\n      swap2\n      sub\n      swap1\n      return\n        /* \"contracts/token/ERC20/MTMSAirdrop.sol\":764:823  mapping(uint256 => mapping(address => bool)) public claimed */\n    tag_18:\n      mstore(0x20, 0x03)\n      dup2\n      0x00\n      mstore\n      mstore(0x20, keccak256(0x00, 0x40))\n      dup1\n      0x00\n      mstore\n      keccak256(0x00, 0x40)\n      0x00\n      swap2\n      pop\n      swap2\n      pop\n      swap1\n      sload\n      swap1\n      0x0100\n      exp\n      swap1\n      div\n      0xff\n      and\n      dup2\n      jump\t// out\n        /* \"contracts/token/ERC20/MTMSAirdrop.sol\":1564:1875  function claimWeek(\r... */\n    tag_24:\n        /* \"contracts/token/ERC20/MTMSAirdrop.sol\":1753:1817  _claimWeek(_liquidityProvider, _tranche, _balance, _merkleProof) */\n      tag_64\n        /* \"contracts/token/ERC20/MTMSAirdrop.sol\":1764:1782  _liquidityProvider */\n      dup5\n        /* \"contracts/token/ERC20/MTMSAirdrop.sol\":1784:1792  _tranche */\n      dup5\n        /* \"contracts/token/ERC20/MTMSAirdrop.sol\":1794:1802  _balance */\n      dup5\n        /* \"contracts/token/ERC20/MTMSAirdrop.sol\":1804:1816  _merkleProof */\n      dup5\n        /* \"contracts/token/ERC20/MTMSAirdrop.sol\":1753:1763  _claimWeek */\n      tag_65\n        /* \"contracts/token/ERC20/MTMSAirdrop.sol\":1753:1817  _claimWeek(_liquidityProvider, _tranche, _balance, _merkleProof) */\n      jump\t// in\n    tag_64:\n        /* \"contracts/token/ERC20/MTMSAirdrop.sol\":1828:1867  _disburse(_liquidityProvider, _balance) */\n      tag_66\n        /* \"contracts/token/ERC20/MTMSAirdrop.sol\":1838:1856  _liquidityProvider */\n      dup5\n        /* \"contracts/token/ERC20/MTMSAirdrop.sol\":1858:1866  _balance */\n      dup4\n        /* \"contracts/token/ERC20/MTMSAirdrop.sol\":1828:1837  _disburse */\n      tag_67\n        /* \"contracts/token/ERC20/MTMSAirdrop.sol\":1828:1867  _disburse(_liquidityProvider, _balance) */\n      jump\t// in\n    tag_66:\n        /* \"contracts/token/ERC20/MTMSAirdrop.sol\":1564:1875  function claimWeek(\r... */\n      pop\n      pop\n      pop\n      pop\n      jump\t// out\n        /* \"contracts/token/ERC20/MTMSAirdrop.sol\":937:1366  function seedNewAllocations(bytes32 _merkleRoot, uint256 _totalAllocation)\r... */\n    tag_28:\n        /* \"contracts/token/ERC20/MTMSAirdrop.sol\":1065:1082  uint256 trancheId */\n      0x00\n        /* \"contracts/token/ERC20/Ownable.sol\":481:486  owner */\n      dup1\n      0x00\n      swap1\n      sload\n      swap1\n      0x0100\n      exp\n      swap1\n      div\n      0xffffffffffffffffffffffffffffffffffffffff\n      and\n        /* \"contracts/token/ERC20/Ownable.sol\":467:486  msg.sender == owner */\n      0xffffffffffffffffffffffffffffffffffffffff\n      and\n        /* \"contracts/token/ERC20/Ownable.sol\":467:477  msg.sender */\n      caller\n        /* \"contracts/token/ERC20/Ownable.sol\":467:486  msg.sender == owner */\n      0xffffffffffffffffffffffffffffffffffffffff\n      and\n      eq\n        /* \"contracts/token/ERC20/Ownable.sol\":459:487  require(msg.sender == owner) */\n      tag_69\n      jumpi\n      0x00\n      dup1\n      revert\n    tag_69:\n        /* \"contracts/token/ERC20/MTMSAirdrop.sol\":1100:1167  token.safeTransferFrom(msg.sender, address(this), _totalAllocation) */\n      tag_71\n        /* \"contracts/token/ERC20/MTMSAirdrop.sol\":1123:1133  msg.sender */\n      caller\n        /* \"contracts/token/ERC20/MTMSAirdrop.sol\":1143:1147  this */\n      address\n        /* \"contracts/token/ERC20/MTMSAirdrop.sol\":1150:1166  _totalAllocation */\n      dup5\n        /* \"contracts/token/ERC20/MTMSAirdrop.sol\":1100:1105  token */\n      0x01\n      0x00\n      swap1\n      sload\n      swap1\n      0x0100\n      exp\n      swap1\n      div\n      0xffffffffffffffffffffffffffffffffffffffff\n      and\n        /* \"contracts/token/ERC20/MTMSAirdrop.sol\":1100:1122  token.safeTransferFrom */\n      0xffffffffffffffffffffffffffffffffffffffff\n      and\n      tag_72\n      swap1\n        /* \"contracts/token/ERC20/MTMSAirdrop.sol\":1100:1167  token.safeTransferFrom(msg.sender, address(this), _totalAllocation) */\n      swap4\n      swap3\n      swap2\n      swap1\n      0xffffffff\n      and\n      jump\t// in\n    tag_71:\n        /* \"contracts/token/ERC20/MTMSAirdrop.sol\":1192:1200  tranches */\n      sload(0x04)\n        /* \"contracts/token/ERC20/MTMSAirdrop.sol\":1180:1200  trancheId = tranches */\n      swap1\n      pop\n        /* \"contracts/token/ERC20/MTMSAirdrop.sol\":1236:1247  _merkleRoot */\n      dup3\n        /* \"contracts/token/ERC20/MTMSAirdrop.sol\":1211:1222  merkleRoots */\n      0x02\n        /* \"contracts/token/ERC20/MTMSAirdrop.sol\":1211:1233  merkleRoots[trancheId] */\n      0x00\n        /* \"contracts/token/ERC20/MTMSAirdrop.sol\":1223:1232  trancheId */\n      dup4\n        /* \"contracts/token/ERC20/MTMSAirdrop.sol\":1211:1233  merkleRoots[trancheId] */\n      dup2\n      mstore\n      0x20\n      add\n      swap1\n      dup2\n      mstore\n      0x20\n      add\n      0x00\n      keccak256\n        /* \"contracts/token/ERC20/MTMSAirdrop.sol\":1211:1247  merkleRoots[trancheId] = _merkleRoot */\n      dup2\n      swap1\n      sstore\n      pop\n        /* \"contracts/token/ERC20/MTMSAirdrop.sol\":1271:1286  tranches.add(1) */\n      tag_73\n        /* \"contracts/token/ERC20/MTMSAirdrop.sol\":1284:1285  1 */\n      0x01\n        /* \"contracts/token/ERC20/MTMSAirdrop.sol\":1271:1279  tranches */\n      sload(0x04)\n        /* \"contracts/token/ERC20/MTMSAirdrop.sol\":1271:1283  tranches.add */\n      tag_74\n      swap1\n        /* \"contracts/token/ERC20/MTMSAirdrop.sol\":1271:1286  tranches.add(1) */\n      swap2\n      swap1\n      0xffffffff\n      and\n      jump\t// in\n    tag_73:\n        /* \"contracts/token/ERC20/MTMSAirdrop.sol\":1260:1268  tranches */\n      0x04\n        /* \"contracts/token/ERC20/MTMSAirdrop.sol\":1260:1286  tranches = tranches.add(1) */\n      dup2\n      swap1\n      sstore\n      pop\n        /* \"contracts/token/ERC20/MTMSAirdrop.sol\":1304:1358  TrancheAdded(trancheId, _merkleRoot, _totalAllocation) */\n      0x5c8770684b8f82e9ade880fb05ccfb53c969170cd40e9746a3703f241c9023ec\n        /* \"contracts/token/ERC20/MTMSAirdrop.sol\":1317:1326  trancheId */\n      dup2\n        /* \"contracts/token/ERC20/MTMSAirdrop.sol\":1328:1339  _merkleRoot */\n      dup5\n        /* \"contracts/token/ERC20/MTMSAirdrop.sol\":1341:1357  _totalAllocation */\n      dup5\n        /* \"contracts/token/ERC20/MTMSAirdrop.sol\":1304:1358  TrancheAdded(trancheId, _merkleRoot, _totalAllocation) */\n      mload(0x40)\n      tag_75\n      swap4\n      swap3\n      swap2\n      swap1\n      tag_76\n      jump\t// in\n    tag_75:\n      mload(0x40)\n      dup1\n      swap2\n      sub\n      swap1\n      log1\n        /* \"contracts/token/ERC20/MTMSAirdrop.sol\":937:1366  function seedNewAllocations(bytes32 _merkleRoot, uint256 _totalAllocation)\r... */\n      swap3\n      swap2\n      pop\n      pop\n      jump\t// out\n        /* \"contracts/token/ERC20/MTMSAirdrop.sol\":711:757  mapping(uint256 => bytes32) public merkleRoots */\n    tag_34:\n      mstore(0x20, 0x02)\n      dup1\n      0x00\n      mstore\n      keccak256(0x00, 0x40)\n      0x00\n      swap2\n      pop\n      swap1\n      pop\n      sload\n      dup2\n      jump\t// out\n        /* \"contracts/token/ERC20/Ownable.sol\":51:71  address public owner */\n    tag_38:\n      0x00\n      dup1\n      sload\n      swap1\n      0x0100\n      exp\n      swap1\n      div\n      0xffffffffffffffffffffffffffffffffffffffff\n      and\n      dup2\n      jump\t// out\n        /* \"contracts/token/ERC20/MTMSAirdrop.sol\":1885:2529  function claimWeeks(\r... */\n    tag_44:\n        /* \"contracts/token/ERC20/MTMSAirdrop.sol\":2098:2109  uint256 len */\n      0x00\n        /* \"contracts/token/ERC20/MTMSAirdrop.sol\":2112:2121  _tranches */\n      dup4\n        /* \"contracts/token/ERC20/MTMSAirdrop.sol\":2112:2128  _tranches.length */\n      mload\n        /* \"contracts/token/ERC20/MTMSAirdrop.sol\":2098:2128  uint256 len = _tranches.length */\n      swap1\n      pop\n        /* \"contracts/token/ERC20/MTMSAirdrop.sol\":2154:2163  _balances */\n      dup3\n        /* \"contracts/token/ERC20/MTMSAirdrop.sol\":2154:2170  _balances.length */\n      mload\n        /* \"contracts/token/ERC20/MTMSAirdrop.sol\":2147:2150  len */\n      dup2\n        /* \"contracts/token/ERC20/MTMSAirdrop.sol\":2147:2170  len == _balances.length */\n      eq\n        /* \"contracts/token/ERC20/MTMSAirdrop.sol\":2147:2201  len == _balances.length && len == _merkleProofs.length */\n      dup1\n      iszero\n      tag_78\n      jumpi\n      pop\n        /* \"contracts/token/ERC20/MTMSAirdrop.sol\":2181:2194  _merkleProofs */\n      dup2\n        /* \"contracts/token/ERC20/MTMSAirdrop.sol\":2181:2201  _merkleProofs.length */\n      mload\n        /* \"contracts/token/ERC20/MTMSAirdrop.sol\":2174:2177  len */\n      dup2\n        /* \"contracts/token/ERC20/MTMSAirdrop.sol\":2174:2201  len == _merkleProofs.length */\n      eq\n        /* \"contracts/token/ERC20/MTMSAirdrop.sol\":2147:2201  len == _balances.length && len == _merkleProofs.length */\n    tag_78:\n        /* \"contracts/token/ERC20/MTMSAirdrop.sol\":2139:2224  require(len == _balances.length && len == _merkleProofs.length, \"Mismatching inputs\") */\n      tag_79\n      jumpi\n      mload(0x40)\n      0x08c379a000000000000000000000000000000000000000000000000000000000\n      dup2\n      mstore\n      0x04\n      add\n      tag_80\n      swap1\n      tag_81\n      jump\t// in\n    tag_80:\n      mload(0x40)\n      dup1\n      swap2\n      sub\n      swap1\n      revert\n    tag_79:\n        /* \"contracts/token/ERC20/MTMSAirdrop.sol\":2237:2257  uint256 totalBalance */\n      0x00\n        /* \"contracts/token/ERC20/MTMSAirdrop.sol\":2276:2285  uint256 i */\n      dup1\n        /* \"contracts/token/ERC20/MTMSAirdrop.sol\":2272:2468  for(uint256 i = 0; i < len; i++) {\r... */\n    tag_82:\n        /* \"contracts/token/ERC20/MTMSAirdrop.sol\":2295:2298  len */\n      dup3\n        /* \"contracts/token/ERC20/MTMSAirdrop.sol\":2291:2292  i */\n      dup2\n        /* \"contracts/token/ERC20/MTMSAirdrop.sol\":2291:2298  i < len */\n      lt\n        /* \"contracts/token/ERC20/MTMSAirdrop.sol\":2272:2468  for(uint256 i = 0; i < len; i++) {\r... */\n      iszero\n      tag_83\n      jumpi\n        /* \"contracts/token/ERC20/MTMSAirdrop.sol\":2320:2396  _claimWeek(_liquidityProvider, _tranches[i], _balances[i], _merkleProofs[i]) */\n      tag_85\n        /* \"contracts/token/ERC20/MTMSAirdrop.sol\":2331:2349  _liquidityProvider */\n      dup8\n        /* \"contracts/token/ERC20/MTMSAirdrop.sol\":2351:2360  _tranches */\n      dup8\n        /* \"contracts/token/ERC20/MTMSAirdrop.sol\":2361:2362  i */\n      dup4\n        /* \"contracts/token/ERC20/MTMSAirdrop.sol\":2351:2363  _tranches[i] */\n      dup2\n      mload\n      dup2\n      lt\n      tag_86\n      jumpi\n      tag_87\n      tag_88\n      jump\t// in\n    tag_87:\n    tag_86:\n      0x20\n      mul\n      0x20\n      add\n      add\n      mload\n        /* \"contracts/token/ERC20/MTMSAirdrop.sol\":2365:2374  _balances */\n      dup8\n        /* \"contracts/token/ERC20/MTMSAirdrop.sol\":2375:2376  i */\n      dup5\n        /* \"contracts/token/ERC20/MTMSAirdrop.sol\":2365:2377  _balances[i] */\n      dup2\n      mload\n      dup2\n      lt\n      tag_89\n      jumpi\n      tag_90\n      tag_88\n      jump\t// in\n    tag_90:\n    tag_89:\n      0x20\n      mul\n      0x20\n      add\n      add\n      mload\n        /* \"contracts/token/ERC20/MTMSAirdrop.sol\":2379:2392  _merkleProofs */\n      dup8\n        /* \"contracts/token/ERC20/MTMSAirdrop.sol\":2393:2394  i */\n      dup6\n        /* \"contracts/token/ERC20/MTMSAirdrop.sol\":2379:2395  _merkleProofs[i] */\n      dup2\n      mload\n      dup2\n      lt\n      tag_91\n      jumpi\n      tag_92\n      tag_88\n      jump\t// in\n    tag_92:\n    tag_91:\n      0x20\n      mul\n      0x20\n      add\n      add\n      mload\n        /* \"contracts/token/ERC20/MTMSAirdrop.sol\":2320:2330  _claimWeek */\n      tag_65\n        /* \"contracts/token/ERC20/MTMSAirdrop.sol\":2320:2396  _claimWeek(_liquidityProvider, _tranches[i], _balances[i], _merkleProofs[i]) */\n      jump\t// in\n    tag_85:\n        /* \"contracts/token/ERC20/MTMSAirdrop.sol\":2426:2456  totalBalance.add(_balances[i]) */\n      tag_93\n        /* \"contracts/token/ERC20/MTMSAirdrop.sol\":2443:2452  _balances */\n      dup6\n        /* \"contracts/token/ERC20/MTMSAirdrop.sol\":2453:2454  i */\n      dup3\n        /* \"contracts/token/ERC20/MTMSAirdrop.sol\":2443:2455  _balances[i] */\n      dup2\n      mload\n      dup2\n      lt\n      tag_94\n      jumpi\n      tag_95\n      tag_88\n      jump\t// in\n    tag_95:\n    tag_94:\n      0x20\n      mul\n      0x20\n      add\n      add\n      mload\n        /* \"contracts/token/ERC20/MTMSAirdrop.sol\":2426:2438  totalBalance */\n      dup4\n        /* \"contracts/token/ERC20/MTMSAirdrop.sol\":2426:2442  totalBalance.add */\n      tag_74\n      swap1\n        /* \"contracts/token/ERC20/MTMSAirdrop.sol\":2426:2456  totalBalance.add(_balances[i]) */\n      swap2\n      swap1\n      0xffffffff\n      and\n      jump\t// in\n    tag_93:\n        /* \"contracts/token/ERC20/MTMSAirdrop.sol\":2411:2456  totalBalance = totalBalance.add(_balances[i]) */\n      swap2\n      pop\n        /* \"contracts/token/ERC20/MTMSAirdrop.sol\":2300:2303  i++ */\n      dup1\n      dup1\n      tag_96\n      swap1\n      tag_97\n      jump\t// in\n    tag_96:\n      swap2\n      pop\n      pop\n        /* \"contracts/token/ERC20/MTMSAirdrop.sol\":2272:2468  for(uint256 i = 0; i < len; i++) {\r... */\n      jump(tag_82)\n    tag_83:\n      pop\n        /* \"contracts/token/ERC20/MTMSAirdrop.sol\":2478:2521  _disburse(_liquidityProvider, totalBalance) */\n      tag_98\n        /* \"contracts/token/ERC20/MTMSAirdrop.sol\":2488:2506  _liquidityProvider */\n      dup7\n        /* \"contracts/token/ERC20/MTMSAirdrop.sol\":2508:2520  totalBalance */\n      dup3\n        /* \"contracts/token/ERC20/MTMSAirdrop.sol\":2478:2487  _disburse */\n      tag_67\n        /* \"contracts/token/ERC20/MTMSAirdrop.sol\":2478:2521  _disburse(_liquidityProvider, totalBalance) */\n      jump\t// in\n    tag_98:\n        /* \"contracts/token/ERC20/MTMSAirdrop.sol\":2087:2529  {\r... */\n      pop\n      pop\n        /* \"contracts/token/ERC20/MTMSAirdrop.sol\":1885:2529  function claimWeeks(\r... */\n      pop\n      pop\n      pop\n      pop\n      jump\t// out\n        /* \"contracts/token/ERC20/MTMSAirdrop.sol\":1374:1556  function expireTranche(uint256 _trancheId)\r... */\n    tag_47:\n        /* \"contracts/token/ERC20/Ownable.sol\":481:486  owner */\n      0x00\n      dup1\n      sload\n      swap1\n      0x0100\n      exp\n      swap1\n      div\n      0xffffffffffffffffffffffffffffffffffffffff\n      and\n        /* \"contracts/token/ERC20/Ownable.sol\":467:486  msg.sender == owner */\n      0xffffffffffffffffffffffffffffffffffffffff\n      and\n        /* \"contracts/token/ERC20/Ownable.sol\":467:477  msg.sender */\n      caller\n        /* \"contracts/token/ERC20/Ownable.sol\":467:486  msg.sender == owner */\n      0xffffffffffffffffffffffffffffffffffffffff\n      and\n      eq\n        /* \"contracts/token/ERC20/Ownable.sol\":459:487  require(msg.sender == owner) */\n      tag_100\n      jumpi\n      0x00\n      dup1\n      revert\n    tag_100:\n        /* \"contracts/token/ERC20/MTMSAirdrop.sol\":1502:1503  0 */\n      0x00\n        /* \"contracts/token/ERC20/MTMSAirdrop.sol\":1494:1504  bytes32(0) */\n      dup1\n      shl\n        /* \"contracts/token/ERC20/MTMSAirdrop.sol\":1468:1479  merkleRoots */\n      0x02\n        /* \"contracts/token/ERC20/MTMSAirdrop.sol\":1468:1491  merkleRoots[_trancheId] */\n      0x00\n        /* \"contracts/token/ERC20/MTMSAirdrop.sol\":1480:1490  _trancheId */\n      dup4\n        /* \"contracts/token/ERC20/MTMSAirdrop.sol\":1468:1491  merkleRoots[_trancheId] */\n      dup2\n      mstore\n      0x20\n      add\n      swap1\n      dup2\n      mstore\n      0x20\n      add\n      0x00\n      keccak256\n        /* \"contracts/token/ERC20/MTMSAirdrop.sol\":1468:1504  merkleRoots[_trancheId] = bytes32(0) */\n      dup2\n      swap1\n      sstore\n      pop\n        /* \"contracts/token/ERC20/MTMSAirdrop.sol\":1522:1548  TrancheExpired(_trancheId) */\n      0xcc071cbd9ae50a4c78d1153b76bd2d46ba8d4c7662842718ec3de1d67a144daf\n        /* \"contracts/token/ERC20/MTMSAirdrop.sol\":1537:1547  _trancheId */\n      dup2\n        /* \"contracts/token/ERC20/MTMSAirdrop.sol\":1522:1548  TrancheExpired(_trancheId) */\n      mload(0x40)\n      tag_102\n      swap2\n      swap1\n      tag_30\n      jump\t// in\n    tag_102:\n      mload(0x40)\n      dup1\n      swap2\n      sub\n      swap1\n      log1\n        /* \"contracts/token/ERC20/MTMSAirdrop.sol\":1374:1556  function expireTranche(uint256 _trancheId)\r... */\n      pop\n      jump\t// out\n        /* \"contracts/token/ERC20/MTMSAirdrop.sol\":2539:2855  function verifyClaim(\r... */\n    tag_50:\n        /* \"contracts/token/ERC20/MTMSAirdrop.sol\":2746:2756  bool valid */\n      0x00\n        /* \"contracts/token/ERC20/MTMSAirdrop.sol\":2781:2847  _verifyClaim(_liquidityProvider, _tranche, _balance, _merkleProof) */\n      tag_104\n        /* \"contracts/token/ERC20/MTMSAirdrop.sol\":2794:2812  _liquidityProvider */\n      dup6\n        /* \"contracts/token/ERC20/MTMSAirdrop.sol\":2814:2822  _tranche */\n      dup6\n        /* \"contracts/token/ERC20/MTMSAirdrop.sol\":2824:2832  _balance */\n      dup6\n        /* \"contracts/token/ERC20/MTMSAirdrop.sol\":2834:2846  _merkleProof */\n      dup6\n        /* \"contracts/token/ERC20/MTMSAirdrop.sol\":2781:2793  _verifyClaim */\n      tag_105\n        /* \"contracts/token/ERC20/MTMSAirdrop.sol\":2781:2847  _verifyClaim(_liquidityProvider, _tranche, _balance, _merkleProof) */\n      jump\t// in\n    tag_104:\n        /* \"contracts/token/ERC20/MTMSAirdrop.sol\":2774:2847  return _verifyClaim(_liquidityProvider, _tranche, _balance, _merkleProof) */\n      swap1\n      pop\n        /* \"contracts/token/ERC20/MTMSAirdrop.sol\":2539:2855  function verifyClaim(\r... */\n      swap5\n      swap4\n      pop\n      pop\n      pop\n      pop\n      jump\t// out\n        /* \"contracts/token/ERC20/MTMSAirdrop.sol\":830:853  uint256 public tranches */\n    tag_53:\n      sload(0x04)\n      dup2\n      jump\t// out\n        /* \"contracts/token/ERC20/Ownable.sol\":670:848  function transferOwnership(address newOwner) onlyOwner public {\r... */\n    tag_58:\n        /* \"contracts/token/ERC20/Ownable.sol\":481:486  owner */\n      0x00\n      dup1\n      sload\n      swap1\n      0x0100\n      exp\n      swap1\n      div\n      0xffffffffffffffffffffffffffffffffffffffff\n      and\n        /* \"contracts/token/ERC20/Ownable.sol\":467:486  msg.sender == owner */\n      0xffffffffffffffffffffffffffffffffffffffff\n      and\n        /* \"contracts/token/ERC20/Ownable.sol\":467:477  msg.sender */\n      caller\n        /* \"contracts/token/ERC20/Ownable.sol\":467:486  msg.sender == owner */\n      0xffffffffffffffffffffffffffffffffffffffff\n      and\n      eq\n        /* \"contracts/token/ERC20/Ownable.sol\":459:487  require(msg.sender == owner) */\n      tag_107\n      jumpi\n      0x00\n      dup1\n      revert\n    tag_107:\n        /* \"contracts/token/ERC20/Ownable.sol\":767:768  0 */\n      0x00\n        /* \"contracts/token/ERC20/Ownable.sol\":747:769  newOwner != address(0) */\n      0xffffffffffffffffffffffffffffffffffffffff\n      and\n        /* \"contracts/token/ERC20/Ownable.sol\":747:755  newOwner */\n      dup2\n        /* \"contracts/token/ERC20/Ownable.sol\":747:769  newOwner != address(0) */\n      0xffffffffffffffffffffffffffffffffffffffff\n      and\n      eq\n      iszero\n        /* \"contracts/token/ERC20/Ownable.sol\":739:770  require(newOwner != address(0)) */\n      tag_109\n      jumpi\n      0x00\n      dup1\n      revert\n    tag_109:\n        /* \"contracts/token/ERC20/Ownable.sol\":810:818  newOwner */\n      dup1\n        /* \"contracts/token/ERC20/Ownable.sol\":782:819  OwnershipTransferred(owner, newOwner) */\n      0xffffffffffffffffffffffffffffffffffffffff\n      and\n        /* \"contracts/token/ERC20/Ownable.sol\":803:808  owner */\n      0x00\n      dup1\n      sload\n      swap1\n      0x0100\n      exp\n      swap1\n      div\n      0xffffffffffffffffffffffffffffffffffffffff\n      and\n        /* \"contracts/token/ERC20/Ownable.sol\":782:819  OwnershipTransferred(owner, newOwner) */\n      0xffffffffffffffffffffffffffffffffffffffff\n      and\n      0x8be0079c531659141344cd1fd0a4f28419497f9722a3daafe3b4186f6b6457e0\n      mload(0x40)\n      mload(0x40)\n      dup1\n      swap2\n      sub\n      swap1\n      log3\n        /* \"contracts/token/ERC20/Ownable.sol\":834:842  newOwner */\n      dup1\n        /* \"contracts/token/ERC20/Ownable.sol\":826:831  owner */\n      0x00\n      dup1\n        /* \"contracts/token/ERC20/Ownable.sol\":826:842  owner = newOwner */\n      0x0100\n      exp\n      dup2\n      sload\n      dup2\n      0xffffffffffffffffffffffffffffffffffffffff\n      mul\n      not\n      and\n      swap1\n      dup4\n      0xffffffffffffffffffffffffffffffffffffffff\n      and\n      mul\n      or\n      swap1\n      sstore\n      pop\n        /* \"contracts/token/ERC20/Ownable.sol\":670:848  function transferOwnership(address newOwner) onlyOwner public {\r... */\n      pop\n      jump\t// out\n        /* \"contracts/token/ERC20/MTMSAirdrop.sol\":683:702  IERC20 public token */\n    tag_60:\n      0x01\n      0x00\n      swap1\n      sload\n      swap1\n      0x0100\n      exp\n      swap1\n      div\n      0xffffffffffffffffffffffffffffffffffffffff\n      and\n      dup2\n      jump\t// out\n        /* \"contracts/token/ERC20/MTMSAirdrop.sol\":2863:3442  function _claimWeek(\r... */\n    tag_65:\n        /* \"contracts/token/ERC20/MTMSAirdrop.sol\":3073:3081  tranches */\n      sload(0x04)\n        /* \"contracts/token/ERC20/MTMSAirdrop.sol\":3062:3070  _tranche */\n      dup4\n        /* \"contracts/token/ERC20/MTMSAirdrop.sol\":3062:3081  _tranche < tranches */\n      lt\n        /* \"contracts/token/ERC20/MTMSAirdrop.sol\":3054:3114  require(_tranche < tranches, \"Week cannot be in the future\") */\n      tag_111\n      jumpi\n      mload(0x40)\n      0x08c379a000000000000000000000000000000000000000000000000000000000\n      dup2\n      mstore\n      0x04\n      add\n      tag_112\n      swap1\n      tag_113\n      jump\t// in\n    tag_112:\n      mload(0x40)\n      dup1\n      swap2\n      sub\n      swap1\n      revert\n    tag_111:\n        /* \"contracts/token/ERC20/MTMSAirdrop.sol\":3136:3143  claimed */\n      0x03\n        /* \"contracts/token/ERC20/MTMSAirdrop.sol\":3136:3153  claimed[_tranche] */\n      0x00\n        /* \"contracts/token/ERC20/MTMSAirdrop.sol\":3144:3152  _tranche */\n      dup5\n        /* \"contracts/token/ERC20/MTMSAirdrop.sol\":3136:3153  claimed[_tranche] */\n      dup2\n      mstore\n      0x20\n      add\n      swap1\n      dup2\n      mstore\n      0x20\n      add\n      0x00\n      keccak256\n        /* \"contracts/token/ERC20/MTMSAirdrop.sol\":3136:3173  claimed[_tranche][_liquidityProvider] */\n      0x00\n        /* \"contracts/token/ERC20/MTMSAirdrop.sol\":3154:3172  _liquidityProvider */\n      dup6\n        /* \"contracts/token/ERC20/MTMSAirdrop.sol\":3136:3173  claimed[_tranche][_liquidityProvider] */\n      0xffffffffffffffffffffffffffffffffffffffff\n      and\n      0xffffffffffffffffffffffffffffffffffffffff\n      and\n      dup2\n      mstore\n      0x20\n      add\n      swap1\n      dup2\n      mstore\n      0x20\n      add\n      0x00\n      keccak256\n      0x00\n      swap1\n      sload\n      swap1\n      0x0100\n      exp\n      swap1\n      div\n      0xff\n      and\n        /* \"contracts/token/ERC20/MTMSAirdrop.sol\":3135:3173  !claimed[_tranche][_liquidityProvider] */\n      iszero\n        /* \"contracts/token/ERC20/MTMSAirdrop.sol\":3127:3200  require(!claimed[_tranche][_liquidityProvider], \"LP has already claimed\") */\n      tag_114\n      jumpi\n      mload(0x40)\n      0x08c379a000000000000000000000000000000000000000000000000000000000\n      dup2\n      mstore\n      0x04\n      add\n      tag_115\n      swap1\n      tag_116\n      jump\t// in\n    tag_115:\n      mload(0x40)\n      dup1\n      swap2\n      sub\n      swap1\n      revert\n    tag_114:\n        /* \"contracts/token/ERC20/MTMSAirdrop.sol\":3219:3285  _verifyClaim(_liquidityProvider, _tranche, _balance, _merkleProof) */\n      tag_117\n        /* \"contracts/token/ERC20/MTMSAirdrop.sol\":3232:3250  _liquidityProvider */\n      dup5\n        /* \"contracts/token/ERC20/MTMSAirdrop.sol\":3252:3260  _tranche */\n      dup5\n        /* \"contracts/token/ERC20/MTMSAirdrop.sol\":3262:3270  _balance */\n      dup5\n        /* \"contracts/token/ERC20/MTMSAirdrop.sol\":3272:3284  _merkleProof */\n      dup5\n        /* \"contracts/token/ERC20/MTMSAirdrop.sol\":3219:3231  _verifyClaim */\n      tag_105\n        /* \"contracts/token/ERC20/MTMSAirdrop.sol\":3219:3285  _verifyClaim(_liquidityProvider, _tranche, _balance, _merkleProof) */\n      jump\t// in\n    tag_117:\n        /* \"contracts/token/ERC20/MTMSAirdrop.sol\":3211:3312  require(_verifyClaim(_liquidityProvider, _tranche, _balance, _merkleProof), \"Incorrect merkle proof\") */\n      tag_118\n      jumpi\n      mload(0x40)\n      0x08c379a000000000000000000000000000000000000000000000000000000000\n      dup2\n      mstore\n      0x04\n      add\n      tag_119\n      swap1\n      tag_120\n      jump\t// in\n    tag_119:\n      mload(0x40)\n      dup1\n      swap2\n      sub\n      swap1\n      revert\n    tag_118:\n        /* \"contracts/token/ERC20/MTMSAirdrop.sol\":3365:3369  true */\n      0x01\n        /* \"contracts/token/ERC20/MTMSAirdrop.sol\":3325:3332  claimed */\n      0x03\n        /* \"contracts/token/ERC20/MTMSAirdrop.sol\":3325:3342  claimed[_tranche] */\n      0x00\n        /* \"contracts/token/ERC20/MTMSAirdrop.sol\":3333:3341  _tranche */\n      dup6\n        /* \"contracts/token/ERC20/MTMSAirdrop.sol\":3325:3342  claimed[_tranche] */\n      dup2\n      mstore\n      0x20\n      add\n      swap1\n      dup2\n      mstore\n      0x20\n      add\n      0x00\n      keccak256\n        /* \"contracts/token/ERC20/MTMSAirdrop.sol\":3325:3362  claimed[_tranche][_liquidityProvider] */\n      0x00\n        /* \"contracts/token/ERC20/MTMSAirdrop.sol\":3343:3361  _liquidityProvider */\n      dup7\n        /* \"contracts/token/ERC20/MTMSAirdrop.sol\":3325:3362  claimed[_tranche][_liquidityProvider] */\n      0xffffffffffffffffffffffffffffffffffffffff\n      and\n      0xffffffffffffffffffffffffffffffffffffffff\n      and\n      dup2\n      mstore\n      0x20\n      add\n      swap1\n      dup2\n      mstore\n      0x20\n      add\n      0x00\n      keccak256\n      0x00\n        /* \"contracts/token/ERC20/MTMSAirdrop.sol\":3325:3369  claimed[_tranche][_liquidityProvider] = true */\n      0x0100\n      exp\n      dup2\n      sload\n      dup2\n      0xff\n      mul\n      not\n      and\n      swap1\n      dup4\n      iszero\n      iszero\n      mul\n      or\n      swap1\n      sstore\n      pop\n        /* \"contracts/token/ERC20/MTMSAirdrop.sol\":3387:3434  Claimed(_liquidityProvider, _tranche, _balance) */\n      0x987d620f307ff6b94d58743cb7a7509f24071586a77759b77c2d4e29f75a2f9a\n        /* \"contracts/token/ERC20/MTMSAirdrop.sol\":3395:3413  _liquidityProvider */\n      dup5\n        /* \"contracts/token/ERC20/MTMSAirdrop.sol\":3415:3423  _tranche */\n      dup5\n        /* \"contracts/token/ERC20/MTMSAirdrop.sol\":3425:3433  _balance */\n      dup5\n        /* \"contracts/token/ERC20/MTMSAirdrop.sol\":3387:3434  Claimed(_liquidityProvider, _tranche, _balance) */\n      mload(0x40)\n      tag_121\n      swap4\n      swap3\n      swap2\n      swap1\n      tag_122\n      jump\t// in\n    tag_121:\n      mload(0x40)\n      dup1\n      swap2\n      sub\n      swap1\n      log1\n        /* \"contracts/token/ERC20/MTMSAirdrop.sol\":2863:3442  function _claimWeek(\r... */\n      pop\n      pop\n      pop\n      pop\n      jump\t// out\n        /* \"contracts/token/ERC20/MTMSAirdrop.sol\":3858:4146  function _disburse(address _liquidityProvider, uint256 _balance) private {\r... */\n    tag_67:\n        /* \"contracts/token/ERC20/MTMSAirdrop.sol\":3957:3958  0 */\n      0x00\n        /* \"contracts/token/ERC20/MTMSAirdrop.sol\":3946:3954  _balance */\n      dup2\n        /* \"contracts/token/ERC20/MTMSAirdrop.sol\":3946:3958  _balance > 0 */\n      gt\n        /* \"contracts/token/ERC20/MTMSAirdrop.sol\":3942:4139  if (_balance > 0) {\r... */\n      iszero\n      tag_124\n      jumpi\n        /* \"contracts/token/ERC20/MTMSAirdrop.sol\":3975:4023  token.safeTransfer(_liquidityProvider, _balance) */\n      tag_125\n        /* \"contracts/token/ERC20/MTMSAirdrop.sol\":3994:4012  _liquidityProvider */\n      dup3\n        /* \"contracts/token/ERC20/MTMSAirdrop.sol\":4014:4022  _balance */\n      dup3\n        /* \"contracts/token/ERC20/MTMSAirdrop.sol\":3975:3980  token */\n      0x01\n      0x00\n      swap1\n      sload\n      swap1\n      0x0100\n      exp\n      swap1\n      div\n      0xffffffffffffffffffffffffffffffffffffffff\n      and\n        /* \"contracts/token/ERC20/MTMSAirdrop.sol\":3975:3993  token.safeTransfer */\n      0xffffffffffffffffffffffffffffffffffffffff\n      and\n      tag_126\n      swap1\n        /* \"contracts/token/ERC20/MTMSAirdrop.sol\":3975:4023  token.safeTransfer(_liquidityProvider, _balance) */\n      swap3\n      swap2\n      swap1\n      0xffffffff\n      and\n      jump\t// in\n    tag_125:\n        /* \"contracts/token/ERC20/MTMSAirdrop.sol\":3942:4139  if (_balance > 0) {\r... */\n      jump(tag_127)\n    tag_124:\n        /* \"contracts/token/ERC20/MTMSAirdrop.sol\":4056:4127  revert(\"No balance would be transferred - not going to waste your gas\") */\n      mload(0x40)\n      0x08c379a000000000000000000000000000000000000000000000000000000000\n      dup2\n      mstore\n      0x04\n      add\n      tag_128\n      swap1\n      tag_129\n      jump\t// in\n    tag_128:\n      mload(0x40)\n      dup1\n      swap2\n      sub\n      swap1\n      revert\n        /* \"contracts/token/ERC20/MTMSAirdrop.sol\":3942:4139  if (_balance > 0) {\r... */\n    tag_127:\n        /* \"contracts/token/ERC20/MTMSAirdrop.sol\":3858:4146  function _disburse(address _liquidityProvider, uint256 _balance) private {\r... */\n      pop\n      pop\n      jump\t// out\n        /* \"contracts/token/ERC20/SafeERC20.sol\":936:1184  function safeTransferFrom(\r... */\n    tag_72:\n        /* \"contracts/token/ERC20/SafeERC20.sol\":1080:1176  _callOptionalReturn(token, abi.encodeWithSelector(token.transferFrom.selector, from, to, value)) */\n      tag_131\n        /* \"contracts/token/ERC20/SafeERC20.sol\":1100:1105  token */\n      dup5\n        /* \"contracts/token/ERC20/SafeERC20.sol\":1130:1157  token.transferFrom.selector */\n      shl(0xe0, 0x23b872dd)\n        /* \"contracts/token/ERC20/SafeERC20.sol\":1159:1163  from */\n      dup6\n        /* \"contracts/token/ERC20/SafeERC20.sol\":1165:1167  to */\n      dup6\n        /* \"contracts/token/ERC20/SafeERC20.sol\":1169:1174  value */\n      dup6\n        /* \"contracts/token/ERC20/SafeERC20.sol\":1107:1175  abi.encodeWithSelector(token.transferFrom.selector, from, to, value) */\n      add(0x24, mload(0x40))\n      tag_132\n      swap4\n      swap3\n      swap2\n      swap1\n      tag_133\n      jump\t// in\n    tag_132:\n      mload(0x40)\n      0x20\n      dup2\n      dup4\n      sub\n      sub\n      dup2\n      mstore\n      swap1\n      0x40\n      mstore\n      swap1\n      not(0xffffffffffffffffffffffffffffffffffffffffffffffffffffffff)\n      and\n      0x20\n      dup3\n      add\n      dup1\n      mload\n      0xffffffffffffffffffffffffffffffffffffffffffffffffffffffff\n      dup4\n      dup2\n      dup4\n      and\n      or\n      dup4\n      mstore\n      pop\n      pop\n      pop\n      pop\n        /* \"contracts/token/ERC20/SafeERC20.sol\":1080:1099  _callOptionalReturn */\n      tag_134\n        /* \"contracts/token/ERC20/SafeERC20.sol\":1080:1176  _callOptionalReturn(token, abi.encodeWithSelector(token.transferFrom.selector, from, to, value)) */\n      jump\t// in\n    tag_131:\n        /* \"contracts/token/ERC20/SafeERC20.sol\":936:1184  function safeTransferFrom(\r... */\n      pop\n      pop\n      pop\n      pop\n      jump\t// out\n        /* \"contracts/token/ERC20/SafeMath.sol\":1998:2163  function add(uint256 a, uint256 b) internal pure returns (uint256) {\r... */\n    tag_74:\n        /* \"contracts/token/ERC20/SafeMath.sol\":2056:2063  uint256 */\n      0x00\n        /* \"contracts/token/ERC20/SafeMath.sol\":2072:2081  uint256 c */\n      dup1\n        /* \"contracts/token/ERC20/SafeMath.sol\":2088:2089  b */\n      dup3\n        /* \"contracts/token/ERC20/SafeMath.sol\":2084:2085  a */\n      dup5\n        /* \"contracts/token/ERC20/SafeMath.sol\":2084:2089  a + b */\n      tag_136\n      swap2\n      swap1\n      tag_137\n      jump\t// in\n    tag_136:\n        /* \"contracts/token/ERC20/SafeMath.sol\":2072:2089  uint256 c = a + b */\n      swap1\n      pop\n        /* \"contracts/token/ERC20/SafeMath.sol\":2109:2110  a */\n      dup4\n        /* \"contracts/token/ERC20/SafeMath.sol\":2104:2105  c */\n      dup2\n        /* \"contracts/token/ERC20/SafeMath.sol\":2104:2110  c >= a */\n      lt\n      iszero\n        /* \"contracts/token/ERC20/SafeMath.sol\":2096:2142  require(c >= a, \"SafeMath: addition overflow\") */\n      tag_138\n      jumpi\n      mload(0x40)\n      0x08c379a000000000000000000000000000000000000000000000000000000000\n      dup2\n      mstore\n      0x04\n      add\n      tag_139\n      swap1\n      tag_140\n      jump\t// in\n    tag_139:\n      mload(0x40)\n      dup1\n      swap2\n      sub\n      swap1\n      revert\n    tag_138:\n        /* \"contracts/token/ERC20/SafeMath.sol\":2156:2157  c */\n      dup1\n        /* \"contracts/token/ERC20/SafeMath.sol\":2149:2157  return c */\n      swap2\n      pop\n      pop\n        /* \"contracts/token/ERC20/SafeMath.sol\":1998:2163  function add(uint256 a, uint256 b) internal pure returns (uint256) {\r... */\n      swap3\n      swap2\n      pop\n      pop\n      jump\t// out\n        /* \"contracts/token/ERC20/MTMSAirdrop.sol\":3452:3848  function _verifyClaim(\r... */\n    tag_105:\n        /* \"contracts/token/ERC20/MTMSAirdrop.sol\":3661:3671  bool valid */\n      0x00\n        /* \"contracts/token/ERC20/MTMSAirdrop.sol\":3689:3701  bytes32 leaf */\n      dup1\n        /* \"contracts/token/ERC20/MTMSAirdrop.sol\":3731:3749  _liquidityProvider */\n      dup6\n        /* \"contracts/token/ERC20/MTMSAirdrop.sol\":3751:3759  _balance */\n      dup5\n        /* \"contracts/token/ERC20/MTMSAirdrop.sol\":3714:3760  abi.encodePacked(_liquidityProvider, _balance) */\n      add(0x20, mload(0x40))\n      tag_142\n      swap3\n      swap2\n      swap1\n      tag_143\n      jump\t// in\n    tag_142:\n      mload(0x40)\n      0x20\n      dup2\n      dup4\n      sub\n      sub\n      dup2\n      mstore\n      swap1\n      0x40\n      mstore\n        /* \"contracts/token/ERC20/MTMSAirdrop.sol\":3704:3761  keccak256(abi.encodePacked(_liquidityProvider, _balance)) */\n      dup1\n      mload\n      swap1\n      0x20\n      add\n      keccak256\n        /* \"contracts/token/ERC20/MTMSAirdrop.sol\":3689:3761  bytes32 leaf = keccak256(abi.encodePacked(_liquidityProvider, _balance)) */\n      swap1\n      pop\n        /* \"contracts/token/ERC20/MTMSAirdrop.sol\":3779:3840  MerkleProof.verify(_merkleProof, merkleRoots[_tranche], leaf) */\n      tag_144\n        /* \"contracts/token/ERC20/MTMSAirdrop.sol\":3798:3810  _merkleProof */\n      dup4\n        /* \"contracts/token/ERC20/MTMSAirdrop.sol\":3812:3823  merkleRoots */\n      0x02\n        /* \"contracts/token/ERC20/MTMSAirdrop.sol\":3812:3833  merkleRoots[_tranche] */\n      0x00\n        /* \"contracts/token/ERC20/MTMSAirdrop.sol\":3824:3832  _tranche */\n      dup9\n        /* \"contracts/token/ERC20/MTMSAirdrop.sol\":3812:3833  merkleRoots[_tranche] */\n      dup2\n      mstore\n      0x20\n      add\n      swap1\n      dup2\n      mstore\n      0x20\n      add\n      0x00\n      keccak256\n      sload\n        /* \"contracts/token/ERC20/MTMSAirdrop.sol\":3835:3839  leaf */\n      dup4\n        /* \"contracts/token/ERC20/MTMSAirdrop.sol\":3779:3797  MerkleProof.verify */\n      tag_145\n        /* \"contracts/token/ERC20/MTMSAirdrop.sol\":3779:3840  MerkleProof.verify(_merkleProof, merkleRoots[_tranche], leaf) */\n      jump\t// in\n    tag_144:\n        /* \"contracts/token/ERC20/MTMSAirdrop.sol\":3772:3840  return MerkleProof.verify(_merkleProof, merkleRoots[_tranche], leaf) */\n      swap2\n      pop\n      pop\n        /* \"contracts/token/ERC20/MTMSAirdrop.sol\":3452:3848  function _verifyClaim(\r... */\n      swap5\n      swap4\n      pop\n      pop\n      pop\n      pop\n      jump\t// out\n        /* \"contracts/token/ERC20/SafeERC20.sol\":717:928  function safeTransfer(\r... */\n    tag_126:\n        /* \"contracts/token/ERC20/SafeERC20.sol\":834:920  _callOptionalReturn(token, abi.encodeWithSelector(token.transfer.selector, to, value)) */\n      tag_147\n        /* \"contracts/token/ERC20/SafeERC20.sol\":854:859  token */\n      dup4\n        /* \"contracts/token/ERC20/SafeERC20.sol\":884:907  token.transfer.selector */\n      shl(0xe0, 0xa9059cbb)\n        /* \"contracts/token/ERC20/SafeERC20.sol\":909:911  to */\n      dup5\n        /* \"contracts/token/ERC20/SafeERC20.sol\":913:918  value */\n      dup5\n        /* \"contracts/token/ERC20/SafeERC20.sol\":861:919  abi.encodeWithSelector(token.transfer.selector, to, value) */\n      add(0x24, mload(0x40))\n      tag_148\n      swap3\n      swap2\n      swap1\n      tag_149\n      jump\t// in\n    tag_148:\n      mload(0x40)\n      0x20\n      dup2\n      dup4\n      sub\n      sub\n      dup2\n      mstore\n      swap1\n      0x40\n      mstore\n      swap1\n      not(0xffffffffffffffffffffffffffffffffffffffffffffffffffffffff)\n      and\n      0x20\n      dup3\n      add\n      dup1\n      mload\n      0xffffffffffffffffffffffffffffffffffffffffffffffffffffffff\n      dup4\n      dup2\n      dup4\n      and\n      or\n      dup4\n      mstore\n      pop\n      pop\n      pop\n      pop\n        /* \"contracts/token/ERC20/SafeERC20.sol\":834:853  _callOptionalReturn */\n      tag_134\n        /* \"contracts/token/ERC20/SafeERC20.sol\":834:920  _callOptionalReturn(token, abi.encodeWithSelector(token.transfer.selector, to, value)) */\n      jump\t// in\n    tag_147:\n        /* \"contracts/token/ERC20/SafeERC20.sol\":717:928  function safeTransfer(\r... */\n      pop\n      pop\n      pop\n      jump\t// out\n        /* \"contracts/token/ERC20/SafeERC20.sol\":3290:4006  function _callOptionalReturn(IERC20 token, bytes memory data) private {\r... */\n    tag_134:\n        /* \"contracts/token/ERC20/SafeERC20.sol\":3714:3737  bytes memory returndata */\n      0x00\n        /* \"contracts/token/ERC20/SafeERC20.sol\":3740:3809  address(token).functionCall(data, \"SafeERC20: low-level call failed\") */\n      tag_151\n        /* \"contracts/token/ERC20/SafeERC20.sol\":3768:3772  data */\n      dup3\n        /* \"contracts/token/ERC20/SafeERC20.sol\":3740:3809  address(token).functionCall(data, \"SafeERC20: low-level call failed\") */\n      mload(0x40)\n      dup1\n      0x40\n      add\n      0x40\n      mstore\n      dup1\n      0x20\n      dup2\n      mstore\n      0x20\n      add\n      0x5361666545524332303a206c6f772d6c6576656c2063616c6c206661696c6564\n      dup2\n      mstore\n      pop\n        /* \"contracts/token/ERC20/SafeERC20.sol\":3748:3753  token */\n      dup6\n        /* \"contracts/token/ERC20/SafeERC20.sol\":3740:3767  address(token).functionCall */\n      0xffffffffffffffffffffffffffffffffffffffff\n      and\n      tag_152\n      swap1\n        /* \"contracts/token/ERC20/SafeERC20.sol\":3740:3809  address(token).functionCall(data, \"SafeERC20: low-level call failed\") */\n      swap3\n      swap2\n      swap1\n      0xffffffff\n      and\n      jump\t// in\n    tag_151:\n        /* \"contracts/token/ERC20/SafeERC20.sol\":3714:3809  bytes memory returndata = address(token).functionCall(data, \"SafeERC20: low-level call failed\") */\n      swap1\n      pop\n        /* \"contracts/token/ERC20/SafeERC20.sol\":3844:3845  0 */\n      0x00\n        /* \"contracts/token/ERC20/SafeERC20.sol\":3824:3834  returndata */\n      dup2\n        /* \"contracts/token/ERC20/SafeERC20.sol\":3824:3841  returndata.length */\n      mload\n        /* \"contracts/token/ERC20/SafeERC20.sol\":3824:3845  returndata.length > 0 */\n      gt\n        /* \"contracts/token/ERC20/SafeERC20.sol\":3820:3999  if (returndata.length > 0) {\r... */\n      iszero\n      tag_153\n      jumpi\n        /* \"contracts/token/ERC20/SafeERC20.sol\":3921:3931  returndata */\n      dup1\n        /* \"contracts/token/ERC20/SafeERC20.sol\":3910:3940  abi.decode(returndata, (bool)) */\n      dup1\n      0x20\n      add\n      swap1\n      mload\n      dup2\n      add\n      swap1\n      tag_154\n      swap2\n      swap1\n      tag_155\n      jump\t// in\n    tag_154:\n        /* \"contracts/token/ERC20/SafeERC20.sol\":3902:3987  require(abi.decode(returndata, (bool)), \"SafeERC20: ERC20 operation did not succeed\") */\n      tag_156\n      jumpi\n      mload(0x40)\n      0x08c379a000000000000000000000000000000000000000000000000000000000\n      dup2\n      mstore\n      0x04\n      add\n      tag_157\n      swap1\n      tag_158\n      jump\t// in\n    tag_157:\n      mload(0x40)\n      dup1\n      swap2\n      sub\n      swap1\n      revert\n    tag_156:\n        /* \"contracts/token/ERC20/SafeERC20.sol\":3820:3999  if (returndata.length > 0) {\r... */\n    tag_153:\n        /* \"contracts/token/ERC20/SafeERC20.sol\":3360:4006  {\r... */\n      pop\n        /* \"contracts/token/ERC20/SafeERC20.sol\":3290:4006  function _callOptionalReturn(IERC20 token, bytes memory data) private {\r... */\n      pop\n      pop\n      jump\t// out\n        /* \"contracts/MerkleProof.sol\":476:1272  function verify(bytes32[] memory proof, bytes32 root, bytes32 leaf) internal pure returns (bool) {\r... */\n    tag_145:\n        /* \"contracts/MerkleProof.sol\":567:571  bool */\n      0x00\n        /* \"contracts/MerkleProof.sol\":584:604  bytes32 computedHash */\n      dup1\n        /* \"contracts/MerkleProof.sol\":607:611  leaf */\n      dup3\n        /* \"contracts/MerkleProof.sol\":584:611  bytes32 computedHash = leaf */\n      swap1\n      pop\n        /* \"contracts/MerkleProof.sol\":629:638  uint256 i */\n      0x00\n        /* \"contracts/MerkleProof.sol\":624:1149  for (uint256 i = 0; i < proof.length; i++) {\r... */\n    tag_160:\n        /* \"contracts/MerkleProof.sol\":648:653  proof */\n      dup6\n        /* \"contracts/MerkleProof.sol\":648:660  proof.length */\n      mload\n        /* \"contracts/MerkleProof.sol\":644:645  i */\n      dup2\n        /* \"contracts/MerkleProof.sol\":644:660  i < proof.length */\n      lt\n        /* \"contracts/MerkleProof.sol\":624:1149  for (uint256 i = 0; i < proof.length; i++) {\r... */\n      iszero\n      tag_161\n      jumpi\n        /* \"contracts/MerkleProof.sol\":682:702  bytes32 proofElement */\n      0x00\n        /* \"contracts/MerkleProof.sol\":705:710  proof */\n      dup7\n        /* \"contracts/MerkleProof.sol\":711:712  i */\n      dup3\n        /* \"contracts/MerkleProof.sol\":705:713  proof[i] */\n      dup2\n      mload\n      dup2\n      lt\n      tag_163\n      jumpi\n      tag_164\n      tag_88\n      jump\t// in\n    tag_164:\n    tag_163:\n      0x20\n      mul\n      0x20\n      add\n      add\n      mload\n        /* \"contracts/MerkleProof.sol\":682:713  bytes32 proofElement = proof[i] */\n      swap1\n      pop\n        /* \"contracts/MerkleProof.sol\":750:762  proofElement */\n      dup1\n        /* \"contracts/MerkleProof.sol\":734:746  computedHash */\n      dup4\n        /* \"contracts/MerkleProof.sol\":734:762  computedHash <= proofElement */\n      gt\n        /* \"contracts/MerkleProof.sol\":730:1138  if (computedHash <= proofElement) {\r... */\n      tag_165\n      jumpi\n        /* \"contracts/MerkleProof.sol\":904:916  computedHash */\n      dup3\n        /* \"contracts/MerkleProof.sol\":918:930  proofElement */\n      dup2\n        /* \"contracts/MerkleProof.sol\":887:931  abi.encodePacked(computedHash, proofElement) */\n      add(0x20, mload(0x40))\n      tag_166\n      swap3\n      swap2\n      swap1\n      tag_167\n      jump\t// in\n    tag_166:\n      mload(0x40)\n      0x20\n      dup2\n      dup4\n      sub\n      sub\n      dup2\n      mstore\n      swap1\n      0x40\n      mstore\n        /* \"contracts/MerkleProof.sol\":877:932  keccak256(abi.encodePacked(computedHash, proofElement)) */\n      dup1\n      mload\n      swap1\n      0x20\n      add\n      keccak256\n        /* \"contracts/MerkleProof.sol\":862:932  computedHash = keccak256(abi.encodePacked(computedHash, proofElement)) */\n      swap3\n      pop\n        /* \"contracts/MerkleProof.sol\":730:1138  if (computedHash <= proofElement) {\r... */\n      jump(tag_168)\n    tag_165:\n        /* \"contracts/MerkleProof.sol\":1094:1106  proofElement */\n      dup1\n        /* \"contracts/MerkleProof.sol\":1108:1120  computedHash */\n      dup4\n        /* \"contracts/MerkleProof.sol\":1077:1121  abi.encodePacked(proofElement, computedHash) */\n      add(0x20, mload(0x40))\n      tag_169\n      swap3\n      swap2\n      swap1\n      tag_167\n      jump\t// in\n    tag_169:\n      mload(0x40)\n      0x20\n      dup2\n      dup4\n      sub\n      sub\n      dup2\n      mstore\n      swap1\n      0x40\n      mstore\n        /* \"contracts/MerkleProof.sol\":1067:1122  keccak256(abi.encodePacked(proofElement, computedHash)) */\n      dup1\n      mload\n      swap1\n      0x20\n      add\n      keccak256\n        /* \"contracts/MerkleProof.sol\":1052:1122  computedHash = keccak256(abi.encodePacked(proofElement, computedHash)) */\n      swap3\n      pop\n        /* \"contracts/MerkleProof.sol\":730:1138  if (computedHash <= proofElement) {\r... */\n    tag_168:\n        /* \"contracts/MerkleProof.sol\":667:1149  {\r... */\n      pop\n        /* \"contracts/MerkleProof.sol\":662:665  i++ */\n      dup1\n      dup1\n      tag_170\n      swap1\n      tag_97\n      jump\t// in\n    tag_170:\n      swap2\n      pop\n      pop\n        /* \"contracts/MerkleProof.sol\":624:1149  for (uint256 i = 0; i < proof.length; i++) {\r... */\n      jump(tag_160)\n    tag_161:\n      pop\n        /* \"contracts/MerkleProof.sol\":1260:1264  root */\n      dup4\n        /* \"contracts/MerkleProof.sol\":1244:1256  computedHash */\n      dup2\n        /* \"contracts/MerkleProof.sol\":1244:1264  computedHash == root */\n      eq\n        /* \"contracts/MerkleProof.sol\":1237:1264  return computedHash == root */\n      swap2\n      pop\n      pop\n        /* \"contracts/MerkleProof.sol\":476:1272  function verify(bytes32[] memory proof, bytes32 root, bytes32 leaf) internal pure returns (bool) {\r... */\n      swap4\n      swap3\n      pop\n      pop\n      pop\n      jump\t// out\n        /* \"contracts/utils/Address.sol\":3955:4184  function functionCall(\r... */\n    tag_152:\n        /* \"contracts/utils/Address.sol\":4092:4104  bytes memory */\n      0x60\n        /* \"contracts/utils/Address.sol\":4124:4176  functionCallWithValue(target, data, 0, errorMessage) */\n      tag_172\n        /* \"contracts/utils/Address.sol\":4146:4152  target */\n      dup5\n        /* \"contracts/utils/Address.sol\":4154:4158  data */\n      dup5\n        /* \"contracts/utils/Address.sol\":4160:4161  0 */\n      0x00\n        /* \"contracts/utils/Address.sol\":4163:4175  errorMessage */\n      dup6\n        /* \"contracts/utils/Address.sol\":4124:4145  functionCallWithValue */\n      tag_173\n        /* \"contracts/utils/Address.sol\":4124:4176  functionCallWithValue(target, data, 0, errorMessage) */\n      jump\t// in\n    tag_172:\n        /* \"contracts/utils/Address.sol\":4117:4176  return functionCallWithValue(target, data, 0, errorMessage) */\n      swap1\n      pop\n        /* \"contracts/utils/Address.sol\":3955:4184  function functionCall(\r... */\n      swap4\n      swap3\n      pop\n      pop\n      pop\n      jump\t// out\n        /* \"contracts/utils/Address.sol\":5075:5585  function functionCallWithValue(\r... */\n    tag_173:\n        /* \"contracts/utils/Address.sol\":5245:5257  bytes memory */\n      0x60\n        /* \"contracts/utils/Address.sol\":5303:5308  value */\n      dup3\n        /* \"contracts/utils/Address.sol\":5278:5299  address(this).balance */\n      selfbalance\n        /* \"contracts/utils/Address.sol\":5278:5308  address(this).balance >= value */\n      lt\n      iszero\n        /* \"contracts/utils/Address.sol\":5270:5351  require(address(this).balance >= value, \"Address: insufficient balance for call\") */\n      tag_175\n      jumpi\n      mload(0x40)\n      0x08c379a000000000000000000000000000000000000000000000000000000000\n      dup2\n      mstore\n      0x04\n      add\n      tag_176\n      swap1\n      tag_177\n      jump\t// in\n    tag_176:\n      mload(0x40)\n      dup1\n      swap2\n      sub\n      swap1\n      revert\n    tag_175:\n        /* \"contracts/utils/Address.sol\":5370:5388  isContract(target) */\n      tag_178\n        /* \"contracts/utils/Address.sol\":5381:5387  target */\n      dup6\n        /* \"contracts/utils/Address.sol\":5370:5380  isContract */\n      tag_179\n        /* \"contracts/utils/Address.sol\":5370:5388  isContract(target) */\n      jump\t// in\n    tag_178:\n        /* \"contracts/utils/Address.sol\":5362:5422  require(isContract(target), \"Address: call to non-contract\") */\n      tag_180\n      jumpi\n      mload(0x40)\n      0x08c379a000000000000000000000000000000000000000000000000000000000\n      dup2\n      mstore\n      0x04\n      add\n      tag_181\n      swap1\n      tag_182\n      jump\t// in\n    tag_181:\n      mload(0x40)\n      dup1\n      swap2\n      sub\n      swap1\n      revert\n    tag_180:\n        /* \"contracts/utils/Address.sol\":5436:5448  bool success */\n      0x00\n        /* \"contracts/utils/Address.sol\":5450:5473  bytes memory returndata */\n      dup1\n        /* \"contracts/utils/Address.sol\":5477:5483  target */\n      dup7\n        /* \"contracts/utils/Address.sol\":5477:5488  target.call */\n      0xffffffffffffffffffffffffffffffffffffffff\n      and\n        /* \"contracts/utils/Address.sol\":5496:5501  value */\n      dup6\n        /* \"contracts/utils/Address.sol\":5503:5507  data */\n      dup8\n        /* \"contracts/utils/Address.sol\":5477:5508  target.call{value: value}(data) */\n      mload(0x40)\n      tag_183\n      swap2\n      swap1\n      tag_184\n      jump\t// in\n    tag_183:\n      0x00\n      mload(0x40)\n      dup1\n      dup4\n      sub\n      dup2\n      dup6\n      dup8\n      gas\n      call\n      swap3\n      pop\n      pop\n      pop\n      returndatasize\n      dup1\n      0x00\n      dup2\n      eq\n      tag_187\n      jumpi\n      mload(0x40)\n      swap2\n      pop\n      and(add(returndatasize, 0x3f), not(0x1f))\n      dup3\n      add\n      0x40\n      mstore\n      returndatasize\n      dup3\n      mstore\n      returndatasize\n      0x00\n      0x20\n      dup5\n      add\n      returndatacopy\n      jump(tag_186)\n    tag_187:\n      0x60\n      swap2\n      pop\n    tag_186:\n      pop\n        /* \"contracts/utils/Address.sol\":5435:5508  (bool success, bytes memory returndata) = target.call{value: value}(data) */\n      swap2\n      pop\n      swap2\n      pop\n        /* \"contracts/utils/Address.sol\":5526:5577  verifyCallResult(success, returndata, errorMessage) */\n      tag_188\n        /* \"contracts/utils/Address.sol\":5543:5550  success */\n      dup3\n        /* \"contracts/utils/Address.sol\":5552:5562  returndata */\n      dup3\n        /* \"contracts/utils/Address.sol\":5564:5576  errorMessage */\n      dup7\n        /* \"contracts/utils/Address.sol\":5526:5542  verifyCallResult */\n      tag_189\n        /* \"contracts/utils/Address.sol\":5526:5577  verifyCallResult(success, returndata, errorMessage) */\n      jump\t// in\n    tag_188:\n        /* \"contracts/utils/Address.sol\":5519:5577  return verifyCallResult(success, returndata, errorMessage) */\n      swap3\n      pop\n      pop\n      pop\n        /* \"contracts/utils/Address.sol\":5075:5585  function functionCallWithValue(\r... */\n      swap5\n      swap4\n      pop\n      pop\n      pop\n      pop\n      jump\t// out\n        /* \"contracts/utils/Address.sol\":1210:1536  function isContract(address account) internal view returns (bool) {\r... */\n    tag_179:\n        /* \"contracts/utils/Address.sol\":1270:1274  bool */\n      0x00\n        /* \"contracts/utils/Address.sol\":1527:1528  0 */\n      dup1\n        /* \"contracts/utils/Address.sol\":1505:1512  account */\n      dup3\n        /* \"contracts/utils/Address.sol\":1505:1524  account.code.length */\n      0xffffffffffffffffffffffffffffffffffffffff\n      and\n      extcodesize\n        /* \"contracts/utils/Address.sol\":1505:1528  account.code.length > 0 */\n      gt\n        /* \"contracts/utils/Address.sol\":1498:1528  return account.code.length > 0 */\n      swap1\n      pop\n        /* \"contracts/utils/Address.sol\":1210:1536  function isContract(address account) internal view returns (bool) {\r... */\n      swap2\n      swap1\n      pop\n      jump\t// out\n        /* \"contracts/utils/Address.sol\":7761:8473  function verifyCallResult(\r... */\n    tag_189:\n        /* \"contracts/utils/Address.sol\":7911:7923  bytes memory */\n      0x60\n        /* \"contracts/utils/Address.sol\":7940:7947  success */\n      dup4\n        /* \"contracts/utils/Address.sol\":7936:8466  if (success) {\r... */\n      iszero\n      tag_192\n      jumpi\n        /* \"contracts/utils/Address.sol\":7971:7981  returndata */\n      dup3\n        /* \"contracts/utils/Address.sol\":7964:7981  return returndata */\n      swap1\n      pop\n      jump(tag_191)\n        /* \"contracts/utils/Address.sol\":7936:8466  if (success) {\r... */\n    tag_192:\n        /* \"contracts/utils/Address.sol\":8105:8106  0 */\n      0x00\n        /* \"contracts/utils/Address.sol\":8085:8095  returndata */\n      dup4\n        /* \"contracts/utils/Address.sol\":8085:8102  returndata.length */\n      mload\n        /* \"contracts/utils/Address.sol\":8085:8106  returndata.length > 0 */\n      gt\n        /* \"contracts/utils/Address.sol\":8081:8455  if (returndata.length > 0) {\r... */\n      iszero\n      tag_194\n      jumpi\n        /* \"contracts/utils/Address.sol\":8283:8293  returndata */\n      dup3\n        /* \"contracts/utils/Address.sol\":8277:8294  mload(returndata) */\n      mload\n        /* \"contracts/utils/Address.sol\":8344:8359  returndata_size */\n      dup1\n        /* \"contracts/utils/Address.sol\":8331:8341  returndata */\n      dup5\n        /* \"contracts/utils/Address.sol\":8327:8329  32 */\n      0x20\n        /* \"contracts/utils/Address.sol\":8323:8342  add(32, returndata) */\n      add\n        /* \"contracts/utils/Address.sol\":8316:8360  revert(add(32, returndata), returndata_size) */\n      revert\n        /* \"contracts/utils/Address.sol\":8081:8455  if (returndata.length > 0) {\r... */\n    tag_194:\n        /* \"contracts/utils/Address.sol\":8426:8438  errorMessage */\n      dup2\n        /* \"contracts/utils/Address.sol\":8419:8439  revert(errorMessage) */\n      mload(0x40)\n      0x08c379a000000000000000000000000000000000000000000000000000000000\n      dup2\n      mstore\n      0x04\n      add\n      tag_196\n      swap2\n      swap1\n      tag_197\n      jump\t// in\n    tag_196:\n      mload(0x40)\n      dup1\n      swap2\n      sub\n      swap1\n      revert\n        /* \"contracts/utils/Address.sol\":7761:8473  function verifyCallResult(\r... */\n    tag_191:\n      swap4\n      swap3\n      pop\n      pop\n      pop\n      jump\t// out\n        /* \"#utility.yul\":26:1028   */\n    tag_199:\n        /* \"#utility.yul\":147:152   */\n      0x00\n        /* \"#utility.yul\":172:278   */\n      tag_201\n        /* \"#utility.yul\":188:277   */\n      tag_202\n        /* \"#utility.yul\":270:276   */\n      dup5\n        /* \"#utility.yul\":188:277   */\n      tag_203\n      jump\t// in\n    tag_202:\n        /* \"#utility.yul\":172:278   */\n      tag_204\n      jump\t// in\n    tag_201:\n        /* \"#utility.yul\":163:278   */\n      swap1\n      pop\n        /* \"#utility.yul\":298:303   */\n      dup1\n        /* \"#utility.yul\":327:333   */\n      dup4\n        /* \"#utility.yul\":320:325   */\n      dup3\n        /* \"#utility.yul\":313:334   */\n      mstore\n        /* \"#utility.yul\":361:365   */\n      0x20\n        /* \"#utility.yul\":354:359   */\n      dup3\n        /* \"#utility.yul\":350:366   */\n      add\n        /* \"#utility.yul\":343:366   */\n      swap1\n      pop\n        /* \"#utility.yul\":387:393   */\n      dup3\n        /* \"#utility.yul\":437:440   */\n      dup6\n        /* \"#utility.yul\":429:433   */\n      0x20\n        /* \"#utility.yul\":421:427   */\n      dup7\n        /* \"#utility.yul\":417:434   */\n      mul\n        /* \"#utility.yul\":412:415   */\n      dup3\n        /* \"#utility.yul\":408:435   */\n      add\n        /* \"#utility.yul\":405:441   */\n      gt\n        /* \"#utility.yul\":402:545   */\n      iszero\n      tag_205\n      jumpi\n        /* \"#utility.yul\":456:535   */\n      tag_206\n      tag_207\n      jump\t// in\n    tag_206:\n        /* \"#utility.yul\":402:545   */\n    tag_205:\n        /* \"#utility.yul\":569:570   */\n      0x00\n        /* \"#utility.yul\":554:1022   */\n    tag_208:\n        /* \"#utility.yul\":579:585   */\n      dup6\n        /* \"#utility.yul\":576:577   */\n      dup2\n        /* \"#utility.yul\":573:586   */\n      lt\n        /* \"#utility.yul\":554:1022   */\n      iszero\n      tag_210\n      jumpi\n        /* \"#utility.yul\":661:664   */\n      dup2\n        /* \"#utility.yul\":648:665   */\n      calldataload\n        /* \"#utility.yul\":697:715   */\n      0xffffffffffffffff\n        /* \"#utility.yul\":684:695   */\n      dup2\n        /* \"#utility.yul\":681:716   */\n      gt\n        /* \"#utility.yul\":678:800   */\n      iszero\n      tag_211\n      jumpi\n        /* \"#utility.yul\":719:798   */\n      tag_212\n      tag_213\n      jump\t// in\n    tag_212:\n        /* \"#utility.yul\":678:800   */\n    tag_211:\n        /* \"#utility.yul\":843:854   */\n      dup1\n        /* \"#utility.yul\":835:841   */\n      dup7\n        /* \"#utility.yul\":831:855   */\n      add\n        /* \"#utility.yul\":881:943   */\n      tag_214\n        /* \"#utility.yul\":939:942   */\n      dup10\n        /* \"#utility.yul\":927:937   */\n      dup3\n        /* \"#utility.yul\":881:943   */\n      tag_215\n      jump\t// in\n    tag_214:\n        /* \"#utility.yul\":876:879   */\n      dup6\n        /* \"#utility.yul\":869:944   */\n      mstore\n        /* \"#utility.yul\":973:977   */\n      0x20\n        /* \"#utility.yul\":968:971   */\n      dup6\n        /* \"#utility.yul\":964:978   */\n      add\n        /* \"#utility.yul\":957:978   */\n      swap5\n      pop\n        /* \"#utility.yul\":1007:1011   */\n      0x20\n        /* \"#utility.yul\":1002:1005   */\n      dup5\n        /* \"#utility.yul\":998:1012   */\n      add\n        /* \"#utility.yul\":991:1012   */\n      swap4\n      pop\n        /* \"#utility.yul\":614:1022   */\n      pop\n      pop\n        /* \"#utility.yul\":601:602   */\n      0x01\n        /* \"#utility.yul\":598:599   */\n      dup2\n        /* \"#utility.yul\":594:603   */\n      add\n        /* \"#utility.yul\":589:603   */\n      swap1\n      pop\n        /* \"#utility.yul\":554:1022   */\n      jump(tag_208)\n    tag_210:\n        /* \"#utility.yul\":558:572   */\n      pop\n        /* \"#utility.yul\":153:1028   */\n      pop\n      pop\n        /* \"#utility.yul\":26:1028   */\n      swap4\n      swap3\n      pop\n      pop\n      pop\n      jump\t// out\n        /* \"#utility.yul\":1051:1773   */\n    tag_216:\n        /* \"#utility.yul\":1147:1152   */\n      0x00\n        /* \"#utility.yul\":1172:1253   */\n      tag_218\n        /* \"#utility.yul\":1188:1252   */\n      tag_219\n        /* \"#utility.yul\":1245:1251   */\n      dup5\n        /* \"#utility.yul\":1188:1252   */\n      tag_220\n      jump\t// in\n    tag_219:\n        /* \"#utility.yul\":1172:1253   */\n      tag_204\n      jump\t// in\n    tag_218:\n        /* \"#utility.yul\":1163:1253   */\n      swap1\n      pop\n        /* \"#utility.yul\":1273:1278   */\n      dup1\n        /* \"#utility.yul\":1302:1308   */\n      dup4\n        /* \"#utility.yul\":1295:1300   */\n      dup3\n        /* \"#utility.yul\":1288:1309   */\n      mstore\n        /* \"#utility.yul\":1336:1340   */\n      0x20\n        /* \"#utility.yul\":1329:1334   */\n      dup3\n        /* \"#utility.yul\":1325:1341   */\n      add\n        /* \"#utility.yul\":1318:1341   */\n      swap1\n      pop\n        /* \"#utility.yul\":1362:1368   */\n      dup3\n        /* \"#utility.yul\":1412:1415   */\n      dup6\n        /* \"#utility.yul\":1404:1408   */\n      0x20\n        /* \"#utility.yul\":1396:1402   */\n      dup7\n        /* \"#utility.yul\":1392:1409   */\n      mul\n        /* \"#utility.yul\":1387:1390   */\n      dup3\n        /* \"#utility.yul\":1383:1410   */\n      add\n        /* \"#utility.yul\":1380:1416   */\n      gt\n        /* \"#utility.yul\":1377:1520   */\n      iszero\n      tag_221\n      jumpi\n        /* \"#utility.yul\":1431:1510   */\n      tag_222\n      tag_207\n      jump\t// in\n    tag_222:\n        /* \"#utility.yul\":1377:1520   */\n    tag_221:\n        /* \"#utility.yul\":1544:1545   */\n      0x00\n        /* \"#utility.yul\":1529:1767   */\n    tag_223:\n        /* \"#utility.yul\":1554:1560   */\n      dup6\n        /* \"#utility.yul\":1551:1552   */\n      dup2\n        /* \"#utility.yul\":1548:1561   */\n      lt\n        /* \"#utility.yul\":1529:1767   */\n      iszero\n      tag_225\n      jumpi\n        /* \"#utility.yul\":1622:1625   */\n      dup2\n        /* \"#utility.yul\":1651:1688   */\n      tag_226\n        /* \"#utility.yul\":1684:1687   */\n      dup9\n        /* \"#utility.yul\":1672:1682   */\n      dup3\n        /* \"#utility.yul\":1651:1688   */\n      tag_227\n      jump\t// in\n    tag_226:\n        /* \"#utility.yul\":1646:1649   */\n      dup5\n        /* \"#utility.yul\":1639:1689   */\n      mstore\n        /* \"#utility.yul\":1718:1722   */\n      0x20\n        /* \"#utility.yul\":1713:1716   */\n      dup5\n        /* \"#utility.yul\":1709:1723   */\n      add\n        /* \"#utility.yul\":1702:1723   */\n      swap4\n      pop\n        /* \"#utility.yul\":1752:1756   */\n      0x20\n        /* \"#utility.yul\":1747:1750   */\n      dup4\n        /* \"#utility.yul\":1743:1757   */\n      add\n        /* \"#utility.yul\":1736:1757   */\n      swap3\n      pop\n        /* \"#utility.yul\":1589:1767   */\n      pop\n        /* \"#utility.yul\":1576:1577   */\n      0x01\n        /* \"#utility.yul\":1573:1574   */\n      dup2\n        /* \"#utility.yul\":1569:1578   */\n      add\n        /* \"#utility.yul\":1564:1578   */\n      swap1\n      pop\n        /* \"#utility.yul\":1529:1767   */\n      jump(tag_223)\n    tag_225:\n        /* \"#utility.yul\":1533:1547   */\n      pop\n        /* \"#utility.yul\":1153:1773   */\n      pop\n      pop\n        /* \"#utility.yul\":1051:1773   */\n      swap4\n      swap3\n      pop\n      pop\n      pop\n      jump\t// out\n        /* \"#utility.yul\":1796:2518   */\n    tag_228:\n        /* \"#utility.yul\":1892:1897   */\n      0x00\n        /* \"#utility.yul\":1917:1998   */\n      tag_230\n        /* \"#utility.yul\":1933:1997   */\n      tag_231\n        /* \"#utility.yul\":1990:1996   */\n      dup5\n        /* \"#utility.yul\":1933:1997   */\n      tag_232\n      jump\t// in\n    tag_231:\n        /* \"#utility.yul\":1917:1998   */\n      tag_204\n      jump\t// in\n    tag_230:\n        /* \"#utility.yul\":1908:1998   */\n      swap1\n      pop\n        /* \"#utility.yul\":2018:2023   */\n      dup1\n        /* \"#utility.yul\":2047:2053   */\n      dup4\n        /* \"#utility.yul\":2040:2045   */\n      dup3\n        /* \"#utility.yul\":2033:2054   */\n      mstore\n        /* \"#utility.yul\":2081:2085   */\n      0x20\n        /* \"#utility.yul\":2074:2079   */\n      dup3\n        /* \"#utility.yul\":2070:2086   */\n      add\n        /* \"#utility.yul\":2063:2086   */\n      swap1\n      pop\n        /* \"#utility.yul\":2107:2113   */\n      dup3\n        /* \"#utility.yul\":2157:2160   */\n      dup6\n        /* \"#utility.yul\":2149:2153   */\n      0x20\n        /* \"#utility.yul\":2141:2147   */\n      dup7\n        /* \"#utility.yul\":2137:2154   */\n      mul\n        /* \"#utility.yul\":2132:2135   */\n      dup3\n        /* \"#utility.yul\":2128:2155   */\n      add\n        /* \"#utility.yul\":2125:2161   */\n      gt\n        /* \"#utility.yul\":2122:2265   */\n      iszero\n      tag_233\n      jumpi\n        /* \"#utility.yul\":2176:2255   */\n      tag_234\n      tag_207\n      jump\t// in\n    tag_234:\n        /* \"#utility.yul\":2122:2265   */\n    tag_233:\n        /* \"#utility.yul\":2289:2290   */\n      0x00\n        /* \"#utility.yul\":2274:2512   */\n    tag_235:\n        /* \"#utility.yul\":2299:2305   */\n      dup6\n        /* \"#utility.yul\":2296:2297   */\n      dup2\n        /* \"#utility.yul\":2293:2306   */\n      lt\n        /* \"#utility.yul\":2274:2512   */\n      iszero\n      tag_237\n      jumpi\n        /* \"#utility.yul\":2367:2370   */\n      dup2\n        /* \"#utility.yul\":2396:2433   */\n      tag_238\n        /* \"#utility.yul\":2429:2432   */\n      dup9\n        /* \"#utility.yul\":2417:2427   */\n      dup3\n        /* \"#utility.yul\":2396:2433   */\n      tag_239\n      jump\t// in\n    tag_238:\n        /* \"#utility.yul\":2391:2394   */\n      dup5\n        /* \"#utility.yul\":2384:2434   */\n      mstore\n        /* \"#utility.yul\":2463:2467   */\n      0x20\n        /* \"#utility.yul\":2458:2461   */\n      dup5\n        /* \"#utility.yul\":2454:2468   */\n      add\n        /* \"#utility.yul\":2447:2468   */\n      swap4\n      pop\n        /* \"#utility.yul\":2497:2501   */\n      0x20\n        /* \"#utility.yul\":2492:2495   */\n      dup4\n        /* \"#utility.yul\":2488:2502   */\n      add\n        /* \"#utility.yul\":2481:2502   */\n      swap3\n      pop\n        /* \"#utility.yul\":2334:2512   */\n      pop\n        /* \"#utility.yul\":2321:2322   */\n      0x01\n        /* \"#utility.yul\":2318:2319   */\n      dup2\n        /* \"#utility.yul\":2314:2323   */\n      add\n        /* \"#utility.yul\":2309:2323   */\n      swap1\n      pop\n        /* \"#utility.yul\":2274:2512   */\n      jump(tag_235)\n    tag_237:\n        /* \"#utility.yul\":2278:2292   */\n      pop\n        /* \"#utility.yul\":1898:2518   */\n      pop\n      pop\n        /* \"#utility.yul\":1796:2518   */\n      swap4\n      swap3\n      pop\n      pop\n      pop\n      jump\t// out\n        /* \"#utility.yul\":2524:2663   */\n    tag_240:\n        /* \"#utility.yul\":2570:2575   */\n      0x00\n        /* \"#utility.yul\":2608:2614   */\n      dup2\n        /* \"#utility.yul\":2595:2615   */\n      calldataload\n        /* \"#utility.yul\":2586:2615   */\n      swap1\n      pop\n        /* \"#utility.yul\":2624:2657   */\n      tag_242\n        /* \"#utility.yul\":2651:2656   */\n      dup2\n        /* \"#utility.yul\":2624:2657   */\n      tag_243\n      jump\t// in\n    tag_242:\n        /* \"#utility.yul\":2524:2663   */\n      swap3\n      swap2\n      pop\n      pop\n      jump\t// out\n        /* \"#utility.yul\":2688:3108   */\n    tag_244:\n        /* \"#utility.yul\":2784:2789   */\n      0x00\n        /* \"#utility.yul\":2833:2836   */\n      dup3\n        /* \"#utility.yul\":2826:2830   */\n      0x1f\n        /* \"#utility.yul\":2818:2824   */\n      dup4\n        /* \"#utility.yul\":2814:2831   */\n      add\n        /* \"#utility.yul\":2810:2837   */\n      slt\n        /* \"#utility.yul\":2800:2922   */\n      tag_246\n      jumpi\n        /* \"#utility.yul\":2841:2920   */\n      tag_247\n      tag_213\n      jump\t// in\n    tag_247:\n        /* \"#utility.yul\":2800:2922   */\n    tag_246:\n        /* \"#utility.yul\":2958:2964   */\n      dup2\n        /* \"#utility.yul\":2945:2965   */\n      calldataload\n        /* \"#utility.yul\":2983:3102   */\n      tag_248\n        /* \"#utility.yul\":3098:3101   */\n      dup5\n        /* \"#utility.yul\":3090:3096   */\n      dup3\n        /* \"#utility.yul\":3083:3087   */\n      0x20\n        /* \"#utility.yul\":3075:3081   */\n      dup7\n        /* \"#utility.yul\":3071:3088   */\n      add\n        /* \"#utility.yul\":2983:3102   */\n      tag_199\n      jump\t// in\n    tag_248:\n        /* \"#utility.yul\":2974:3102   */\n      swap2\n      pop\n        /* \"#utility.yul\":2790:3108   */\n      pop\n        /* \"#utility.yul\":2688:3108   */\n      swap3\n      swap2\n      pop\n      pop\n      jump\t// out\n        /* \"#utility.yul\":3131:3501   */\n    tag_215:\n        /* \"#utility.yul\":3202:3207   */\n      0x00\n        /* \"#utility.yul\":3251:3254   */\n      dup3\n        /* \"#utility.yul\":3244:3248   */\n      0x1f\n        /* \"#utility.yul\":3236:3242   */\n      dup4\n        /* \"#utility.yul\":3232:3249   */\n      add\n        /* \"#utility.yul\":3228:3255   */\n      slt\n        /* \"#utility.yul\":3218:3340   */\n      tag_250\n      jumpi\n        /* \"#utility.yul\":3259:3338   */\n      tag_251\n      tag_213\n      jump\t// in\n    tag_251:\n        /* \"#utility.yul\":3218:3340   */\n    tag_250:\n        /* \"#utility.yul\":3376:3382   */\n      dup2\n        /* \"#utility.yul\":3363:3383   */\n      calldataload\n        /* \"#utility.yul\":3401:3495   */\n      tag_252\n        /* \"#utility.yul\":3491:3494   */\n      dup5\n        /* \"#utility.yul\":3483:3489   */\n      dup3\n        /* \"#utility.yul\":3476:3480   */\n      0x20\n        /* \"#utility.yul\":3468:3474   */\n      dup7\n        /* \"#utility.yul\":3464:3481   */\n      add\n        /* \"#utility.yul\":3401:3495   */\n      tag_216\n      jump\t// in\n    tag_252:\n        /* \"#utility.yul\":3392:3495   */\n      swap2\n      pop\n        /* \"#utility.yul\":3208:3501   */\n      pop\n        /* \"#utility.yul\":3131:3501   */\n      swap3\n      swap2\n      pop\n      pop\n      jump\t// out\n        /* \"#utility.yul\":3524:3894   */\n    tag_253:\n        /* \"#utility.yul\":3595:3600   */\n      0x00\n        /* \"#utility.yul\":3644:3647   */\n      dup3\n        /* \"#utility.yul\":3637:3641   */\n      0x1f\n        /* \"#utility.yul\":3629:3635   */\n      dup4\n        /* \"#utility.yul\":3625:3642   */\n      add\n        /* \"#utility.yul\":3621:3648   */\n      slt\n        /* \"#utility.yul\":3611:3733   */\n      tag_255\n      jumpi\n        /* \"#utility.yul\":3652:3731   */\n      tag_256\n      tag_213\n      jump\t// in\n    tag_256:\n        /* \"#utility.yul\":3611:3733   */\n    tag_255:\n        /* \"#utility.yul\":3769:3775   */\n      dup2\n        /* \"#utility.yul\":3756:3776   */\n      calldataload\n        /* \"#utility.yul\":3794:3888   */\n      tag_257\n        /* \"#utility.yul\":3884:3887   */\n      dup5\n        /* \"#utility.yul\":3876:3882   */\n      dup3\n        /* \"#utility.yul\":3869:3873   */\n      0x20\n        /* \"#utility.yul\":3861:3867   */\n      dup7\n        /* \"#utility.yul\":3857:3874   */\n      add\n        /* \"#utility.yul\":3794:3888   */\n      tag_228\n      jump\t// in\n    tag_257:\n        /* \"#utility.yul\":3785:3888   */\n      swap2\n      pop\n        /* \"#utility.yul\":3601:3894   */\n      pop\n        /* \"#utility.yul\":3524:3894   */\n      swap3\n      swap2\n      pop\n      pop\n      jump\t// out\n        /* \"#utility.yul\":3900:4037   */\n    tag_258:\n        /* \"#utility.yul\":3954:3959   */\n      0x00\n        /* \"#utility.yul\":3985:3991   */\n      dup2\n        /* \"#utility.yul\":3979:3992   */\n      mload\n        /* \"#utility.yul\":3970:3992   */\n      swap1\n      pop\n        /* \"#utility.yul\":4001:4031   */\n      tag_260\n        /* \"#utility.yul\":4025:4030   */\n      dup2\n        /* \"#utility.yul\":4001:4031   */\n      tag_261\n      jump\t// in\n    tag_260:\n        /* \"#utility.yul\":3900:4037   */\n      swap3\n      swap2\n      pop\n      pop\n      jump\t// out\n        /* \"#utility.yul\":4043:4182   */\n    tag_227:\n        /* \"#utility.yul\":4089:4094   */\n      0x00\n        /* \"#utility.yul\":4127:4133   */\n      dup2\n        /* \"#utility.yul\":4114:4134   */\n      calldataload\n        /* \"#utility.yul\":4105:4134   */\n      swap1\n      pop\n        /* \"#utility.yul\":4143:4176   */\n      tag_263\n        /* \"#utility.yul\":4170:4175   */\n      dup2\n        /* \"#utility.yul\":4143:4176   */\n      tag_264\n      jump\t// in\n    tag_263:\n        /* \"#utility.yul\":4043:4182   */\n      swap3\n      swap2\n      pop\n      pop\n      jump\t// out\n        /* \"#utility.yul\":4188:4327   */\n    tag_239:\n        /* \"#utility.yul\":4234:4239   */\n      0x00\n        /* \"#utility.yul\":4272:4278   */\n      dup2\n        /* \"#utility.yul\":4259:4279   */\n      calldataload\n        /* \"#utility.yul\":4250:4279   */\n      swap1\n      pop\n        /* \"#utility.yul\":4288:4321   */\n      tag_266\n        /* \"#utility.yul\":4315:4320   */\n      dup2\n        /* \"#utility.yul\":4288:4321   */\n      tag_267\n      jump\t// in\n    tag_266:\n        /* \"#utility.yul\":4188:4327   */\n      swap3\n      swap2\n      pop\n      pop\n      jump\t// out\n        /* \"#utility.yul\":4333:4662   */\n    tag_57:\n        /* \"#utility.yul\":4392:4398   */\n      0x00\n        /* \"#utility.yul\":4441:4443   */\n      0x20\n        /* \"#utility.yul\":4429:4438   */\n      dup3\n        /* \"#utility.yul\":4420:4427   */\n      dup5\n        /* \"#utility.yul\":4416:4439   */\n      sub\n        /* \"#utility.yul\":4412:4444   */\n      slt\n        /* \"#utility.yul\":4409:4528   */\n      iszero\n      tag_269\n      jumpi\n        /* \"#utility.yul\":4447:4526   */\n      tag_270\n      tag_271\n      jump\t// in\n    tag_270:\n        /* \"#utility.yul\":4409:4528   */\n    tag_269:\n        /* \"#utility.yul\":4567:4568   */\n      0x00\n        /* \"#utility.yul\":4592:4645   */\n      tag_272\n        /* \"#utility.yul\":4637:4644   */\n      dup5\n        /* \"#utility.yul\":4628:4634   */\n      dup3\n        /* \"#utility.yul\":4617:4626   */\n      dup6\n        /* \"#utility.yul\":4613:4635   */\n      add\n        /* \"#utility.yul\":4592:4645   */\n      tag_240\n      jump\t// in\n    tag_272:\n        /* \"#utility.yul\":4582:4645   */\n      swap2\n      pop\n        /* \"#utility.yul\":4538:4655   */\n      pop\n        /* \"#utility.yul\":4333:4662   */\n      swap3\n      swap2\n      pop\n      pop\n      jump\t// out\n        /* \"#utility.yul\":4668:6113   */\n    tag_43:\n        /* \"#utility.yul\":4854:4860   */\n      0x00\n        /* \"#utility.yul\":4862:4868   */\n      dup1\n        /* \"#utility.yul\":4870:4876   */\n      0x00\n        /* \"#utility.yul\":4878:4884   */\n      dup1\n        /* \"#utility.yul\":4927:4930   */\n      0x80\n        /* \"#utility.yul\":4915:4924   */\n      dup6\n        /* \"#utility.yul\":4906:4913   */\n      dup8\n        /* \"#utility.yul\":4902:4925   */\n      sub\n        /* \"#utility.yul\":4898:4931   */\n      slt\n        /* \"#utility.yul\":4895:5015   */\n      iszero\n      tag_274\n      jumpi\n        /* \"#utility.yul\":4934:5013   */\n      tag_275\n      tag_271\n      jump\t// in\n    tag_275:\n        /* \"#utility.yul\":4895:5015   */\n    tag_274:\n        /* \"#utility.yul\":5054:5055   */\n      0x00\n        /* \"#utility.yul\":5079:5132   */\n      tag_276\n        /* \"#utility.yul\":5124:5131   */\n      dup8\n        /* \"#utility.yul\":5115:5121   */\n      dup3\n        /* \"#utility.yul\":5104:5113   */\n      dup9\n        /* \"#utility.yul\":5100:5122   */\n      add\n        /* \"#utility.yul\":5079:5132   */\n      tag_240\n      jump\t// in\n    tag_276:\n        /* \"#utility.yul\":5069:5132   */\n      swap5\n      pop\n        /* \"#utility.yul\":5025:5142   */\n      pop\n        /* \"#utility.yul\":5209:5211   */\n      0x20\n        /* \"#utility.yul\":5198:5207   */\n      dup6\n        /* \"#utility.yul\":5194:5212   */\n      add\n        /* \"#utility.yul\":5181:5213   */\n      calldataload\n        /* \"#utility.yul\":5240:5258   */\n      0xffffffffffffffff\n        /* \"#utility.yul\":5232:5238   */\n      dup2\n        /* \"#utility.yul\":5229:5259   */\n      gt\n        /* \"#utility.yul\":5226:5343   */\n      iszero\n      tag_277\n      jumpi\n        /* \"#utility.yul\":5262:5341   */\n      tag_278\n      tag_279\n      jump\t// in\n    tag_278:\n        /* \"#utility.yul\":5226:5343   */\n    tag_277:\n        /* \"#utility.yul\":5367:5445   */\n      tag_280\n        /* \"#utility.yul\":5437:5444   */\n      dup8\n        /* \"#utility.yul\":5428:5434   */\n      dup3\n        /* \"#utility.yul\":5417:5426   */\n      dup9\n        /* \"#utility.yul\":5413:5435   */\n      add\n        /* \"#utility.yul\":5367:5445   */\n      tag_253\n      jump\t// in\n    tag_280:\n        /* \"#utility.yul\":5357:5445   */\n      swap4\n      pop\n        /* \"#utility.yul\":5152:5455   */\n      pop\n        /* \"#utility.yul\":5522:5524   */\n      0x40\n        /* \"#utility.yul\":5511:5520   */\n      dup6\n        /* \"#utility.yul\":5507:5525   */\n      add\n        /* \"#utility.yul\":5494:5526   */\n      calldataload\n        /* \"#utility.yul\":5553:5571   */\n      0xffffffffffffffff\n        /* \"#utility.yul\":5545:5551   */\n      dup2\n        /* \"#utility.yul\":5542:5572   */\n      gt\n        /* \"#utility.yul\":5539:5656   */\n      iszero\n      tag_281\n      jumpi\n        /* \"#utility.yul\":5575:5654   */\n      tag_282\n      tag_279\n      jump\t// in\n    tag_282:\n        /* \"#utility.yul\":5539:5656   */\n    tag_281:\n        /* \"#utility.yul\":5680:5758   */\n      tag_283\n        /* \"#utility.yul\":5750:5757   */\n      dup8\n        /* \"#utility.yul\":5741:5747   */\n      dup3\n        /* \"#utility.yul\":5730:5739   */\n      dup9\n        /* \"#utility.yul\":5726:5748   */\n      add\n        /* \"#utility.yul\":5680:5758   */\n      tag_253\n      jump\t// in\n    tag_283:\n        /* \"#utility.yul\":5670:5758   */\n      swap3\n      pop\n        /* \"#utility.yul\":5465:5768   */\n      pop\n        /* \"#utility.yul\":5835:5837   */\n      0x60\n        /* \"#utility.yul\":5824:5833   */\n      dup6\n        /* \"#utility.yul\":5820:5838   */\n      add\n        /* \"#utility.yul\":5807:5839   */\n      calldataload\n        /* \"#utility.yul\":5866:5884   */\n      0xffffffffffffffff\n        /* \"#utility.yul\":5858:5864   */\n      dup2\n        /* \"#utility.yul\":5855:5885   */\n      gt\n        /* \"#utility.yul\":5852:5969   */\n      iszero\n      tag_284\n      jumpi\n        /* \"#utility.yul\":5888:5967   */\n      tag_285\n      tag_279\n      jump\t// in\n    tag_285:\n        /* \"#utility.yul\":5852:5969   */\n    tag_284:\n        /* \"#utility.yul\":5993:6096   */\n      tag_286\n        /* \"#utility.yul\":6088:6095   */\n      dup8\n        /* \"#utility.yul\":6079:6085   */\n      dup3\n        /* \"#utility.yul\":6068:6077   */\n      dup9\n        /* \"#utility.yul\":6064:6086   */\n      add\n        /* \"#utility.yul\":5993:6096   */\n      tag_244\n      jump\t// in\n    tag_286:\n        /* \"#utility.yul\":5983:6096   */\n      swap2\n      pop\n        /* \"#utility.yul\":5778:6106   */\n      pop\n        /* \"#utility.yul\":4668:6113   */\n      swap3\n      swap6\n      swap2\n      swap5\n      pop\n      swap3\n      pop\n      jump\t// out\n        /* \"#utility.yul\":6119:7094   */\n    tag_23:\n        /* \"#utility.yul\":6230:6236   */\n      0x00\n        /* \"#utility.yul\":6238:6244   */\n      dup1\n        /* \"#utility.yul\":6246:6252   */\n      0x00\n        /* \"#utility.yul\":6254:6260   */\n      dup1\n        /* \"#utility.yul\":6303:6306   */\n      0x80\n        /* \"#utility.yul\":6291:6300   */\n      dup6\n        /* \"#utility.yul\":6282:6289   */\n      dup8\n        /* \"#utility.yul\":6278:6301   */\n      sub\n        /* \"#utility.yul\":6274:6307   */\n      slt\n        /* \"#utility.yul\":6271:6391   */\n      iszero\n      tag_288\n      jumpi\n        /* \"#utility.yul\":6310:6389   */\n      tag_289\n      tag_271\n      jump\t// in\n    tag_289:\n        /* \"#utility.yul\":6271:6391   */\n    tag_288:\n        /* \"#utility.yul\":6430:6431   */\n      0x00\n        /* \"#utility.yul\":6455:6508   */\n      tag_290\n        /* \"#utility.yul\":6500:6507   */\n      dup8\n        /* \"#utility.yul\":6491:6497   */\n      dup3\n        /* \"#utility.yul\":6480:6489   */\n      dup9\n        /* \"#utility.yul\":6476:6498   */\n      add\n        /* \"#utility.yul\":6455:6508   */\n      tag_240\n      jump\t// in\n    tag_290:\n        /* \"#utility.yul\":6445:6508   */\n      swap5\n      pop\n        /* \"#utility.yul\":6401:6518   */\n      pop\n        /* \"#utility.yul\":6557:6559   */\n      0x20\n        /* \"#utility.yul\":6583:6636   */\n      tag_291\n        /* \"#utility.yul\":6628:6635   */\n      dup8\n        /* \"#utility.yul\":6619:6625   */\n      dup3\n        /* \"#utility.yul\":6608:6617   */\n      dup9\n        /* \"#utility.yul\":6604:6626   */\n      add\n        /* \"#utility.yul\":6583:6636   */\n      tag_239\n      jump\t// in\n    tag_291:\n        /* \"#utility.yul\":6573:6636   */\n      swap4\n      pop\n        /* \"#utility.yul\":6528:6646   */\n      pop\n        /* \"#utility.yul\":6685:6687   */\n      0x40\n        /* \"#utility.yul\":6711:6764   */\n      tag_292\n        /* \"#utility.yul\":6756:6763   */\n      dup8\n        /* \"#utility.yul\":6747:6753   */\n      dup3\n        /* \"#utility.yul\":6736:6745   */\n      dup9\n        /* \"#utility.yul\":6732:6754   */\n      add\n        /* \"#utility.yul\":6711:6764   */\n      tag_239\n      jump\t// in\n    tag_292:\n        /* \"#utility.yul\":6701:6764   */\n      swap3\n      pop\n        /* \"#utility.yul\":6656:6774   */\n      pop\n        /* \"#utility.yul\":6841:6843   */\n      0x60\n        /* \"#utility.yul\":6830:6839   */\n      dup6\n        /* \"#utility.yul\":6826:6844   */\n      add\n        /* \"#utility.yul\":6813:6845   */\n      calldataload\n        /* \"#utility.yul\":6872:6890   */\n      0xffffffffffffffff\n        /* \"#utility.yul\":6864:6870   */\n      dup2\n        /* \"#utility.yul\":6861:6891   */\n      gt\n        /* \"#utility.yul\":6858:6975   */\n      iszero\n      tag_293\n      jumpi\n        /* \"#utility.yul\":6894:6973   */\n      tag_294\n      tag_279\n      jump\t// in\n    tag_294:\n        /* \"#utility.yul\":6858:6975   */\n    tag_293:\n        /* \"#utility.yul\":6999:7077   */\n      tag_295\n        /* \"#utility.yul\":7069:7076   */\n      dup8\n        /* \"#utility.yul\":7060:7066   */\n      dup3\n        /* \"#utility.yul\":7049:7058   */\n      dup9\n        /* \"#utility.yul\":7045:7067   */\n      add\n        /* \"#utility.yul\":6999:7077   */\n      tag_215\n      jump\t// in\n    tag_295:\n        /* \"#utility.yul\":6989:7077   */\n      swap2\n      pop\n        /* \"#utility.yul\":6784:7087   */\n      pop\n        /* \"#utility.yul\":6119:7094   */\n      swap3\n      swap6\n      swap2\n      swap5\n      pop\n      swap3\n      pop\n      jump\t// out\n        /* \"#utility.yul\":7100:7445   */\n    tag_155:\n        /* \"#utility.yul\":7167:7173   */\n      0x00\n        /* \"#utility.yul\":7216:7218   */\n      0x20\n        /* \"#utility.yul\":7204:7213   */\n      dup3\n        /* \"#utility.yul\":7195:7202   */\n      dup5\n        /* \"#utility.yul\":7191:7214   */\n      sub\n        /* \"#utility.yul\":7187:7219   */\n      slt\n        /* \"#utility.yul\":7184:7303   */\n      iszero\n      tag_297\n      jumpi\n        /* \"#utility.yul\":7222:7301   */\n      tag_298\n      tag_271\n      jump\t// in\n    tag_298:\n        /* \"#utility.yul\":7184:7303   */\n    tag_297:\n        /* \"#utility.yul\":7342:7343   */\n      0x00\n        /* \"#utility.yul\":7367:7428   */\n      tag_299\n        /* \"#utility.yul\":7420:7427   */\n      dup5\n        /* \"#utility.yul\":7411:7417   */\n      dup3\n        /* \"#utility.yul\":7400:7409   */\n      dup6\n        /* \"#utility.yul\":7396:7418   */\n      add\n        /* \"#utility.yul\":7367:7428   */\n      tag_258\n      jump\t// in\n    tag_299:\n        /* \"#utility.yul\":7357:7428   */\n      swap2\n      pop\n        /* \"#utility.yul\":7313:7438   */\n      pop\n        /* \"#utility.yul\":7100:7445   */\n      swap3\n      swap2\n      pop\n      pop\n      jump\t// out\n        /* \"#utility.yul\":7451:7925   */\n    tag_27:\n        /* \"#utility.yul\":7519:7525   */\n      0x00\n        /* \"#utility.yul\":7527:7533   */\n      dup1\n        /* \"#utility.yul\":7576:7578   */\n      0x40\n        /* \"#utility.yul\":7564:7573   */\n      dup4\n        /* \"#utility.yul\":7555:7562   */\n      dup6\n        /* \"#utility.yul\":7551:7574   */\n      sub\n        /* \"#utility.yul\":7547:7579   */\n      slt\n        /* \"#utility.yul\":7544:7663   */\n      iszero\n      tag_301\n      jumpi\n        /* \"#utility.yul\":7582:7661   */\n      tag_302\n      tag_271\n      jump\t// in\n    tag_302:\n        /* \"#utility.yul\":7544:7663   */\n    tag_301:\n        /* \"#utility.yul\":7702:7703   */\n      0x00\n        /* \"#utility.yul\":7727:7780   */\n      tag_303\n        /* \"#utility.yul\":7772:7779   */\n      dup6\n        /* \"#utility.yul\":7763:7769   */\n      dup3\n        /* \"#utility.yul\":7752:7761   */\n      dup7\n        /* \"#utility.yul\":7748:7770   */\n      add\n        /* \"#utility.yul\":7727:7780   */\n      tag_227\n      jump\t// in\n    tag_303:\n        /* \"#utility.yul\":7717:7780   */\n      swap3\n      pop\n        /* \"#utility.yul\":7673:7790   */\n      pop\n        /* \"#utility.yul\":7829:7831   */\n      0x20\n        /* \"#utility.yul\":7855:7908   */\n      tag_304\n        /* \"#utility.yul\":7900:7907   */\n      dup6\n        /* \"#utility.yul\":7891:7897   */\n      dup3\n        /* \"#utility.yul\":7880:7889   */\n      dup7\n        /* \"#utility.yul\":7876:7898   */\n      add\n        /* \"#utility.yul\":7855:7908   */\n      tag_239\n      jump\t// in\n    tag_304:\n        /* \"#utility.yul\":7845:7908   */\n      swap2\n      pop\n        /* \"#utility.yul\":7800:7918   */\n      pop\n        /* \"#utility.yul\":7451:7925   */\n      swap3\n      pop\n      swap3\n      swap1\n      pop\n      jump\t// out\n        /* \"#utility.yul\":7931:8260   */\n    tag_33:\n        /* \"#utility.yul\":7990:7996   */\n      0x00\n        /* \"#utility.yul\":8039:8041   */\n      0x20\n        /* \"#utility.yul\":8027:8036   */\n      dup3\n        /* \"#utility.yul\":8018:8025   */\n      dup5\n        /* \"#utility.yul\":8014:8037   */\n      sub\n        /* \"#utility.yul\":8010:8042   */\n      slt\n        /* \"#utility.yul\":8007:8126   */\n      iszero\n      tag_306\n      jumpi\n        /* \"#utility.yul\":8045:8124   */\n      tag_307\n      tag_271\n      jump\t// in\n    tag_307:\n        /* \"#utility.yul\":8007:8126   */\n    tag_306:\n        /* \"#utility.yul\":8165:8166   */\n      0x00\n        /* \"#utility.yul\":8190:8243   */\n      tag_308\n        /* \"#utility.yul\":8235:8242   */\n      dup5\n        /* \"#utility.yul\":8226:8232   */\n      dup3\n        /* \"#utility.yul\":8215:8224   */\n      dup6\n        /* \"#utility.yul\":8211:8233   */\n      add\n        /* \"#utility.yul\":8190:8243   */\n      tag_239\n      jump\t// in\n    tag_308:\n        /* \"#utility.yul\":8180:8243   */\n      swap2\n      pop\n        /* \"#utility.yul\":8136:8253   */\n      pop\n        /* \"#utility.yul\":7931:8260   */\n      swap3\n      swap2\n      pop\n      pop\n      jump\t// out\n        /* \"#utility.yul\":8266:8740   */\n    tag_17:\n        /* \"#utility.yul\":8334:8340   */\n      0x00\n        /* \"#utility.yul\":8342:8348   */\n      dup1\n        /* \"#utility.yul\":8391:8393   */\n      0x40\n        /* \"#utility.yul\":8379:8388   */\n      dup4\n        /* \"#utility.yul\":8370:8377   */\n      dup6\n        /* \"#utility.yul\":8366:8389   */\n      sub\n        /* \"#utility.yul\":8362:8394   */\n      slt\n        /* \"#utility.yul\":8359:8478   */\n      iszero\n      tag_310\n      jumpi\n        /* \"#utility.yul\":8397:8476   */\n      tag_311\n      tag_271\n      jump\t// in\n    tag_311:\n        /* \"#utility.yul\":8359:8478   */\n    tag_310:\n        /* \"#utility.yul\":8517:8518   */\n      0x00\n        /* \"#utility.yul\":8542:8595   */\n      tag_312\n        /* \"#utility.yul\":8587:8594   */\n      dup6\n        /* \"#utility.yul\":8578:8584   */\n      dup3\n        /* \"#utility.yul\":8567:8576   */\n      dup7\n        /* \"#utility.yul\":8563:8585   */\n      add\n        /* \"#utility.yul\":8542:8595   */\n      tag_239\n      jump\t// in\n    tag_312:\n        /* \"#utility.yul\":8532:8595   */\n      swap3\n      pop\n        /* \"#utility.yul\":8488:8605   */\n      pop\n        /* \"#utility.yul\":8644:8646   */\n      0x20\n        /* \"#utility.yul\":8670:8723   */\n      tag_313\n        /* \"#utility.yul\":8715:8722   */\n      dup6\n        /* \"#utility.yul\":8706:8712   */\n      dup3\n        /* \"#utility.yul\":8695:8704   */\n      dup7\n        /* \"#utility.yul\":8691:8713   */\n      add\n        /* \"#utility.yul\":8670:8723   */\n      tag_240\n      jump\t// in\n    tag_313:\n        /* \"#utility.yul\":8660:8723   */\n      swap2\n      pop\n        /* \"#utility.yul\":8615:8733   */\n      pop\n        /* \"#utility.yul\":8266:8740   */\n      swap3\n      pop\n      swap3\n      swap1\n      pop\n      jump\t// out\n        /* \"#utility.yul\":8746:8864   */\n    tag_314:\n        /* \"#utility.yul\":8833:8857   */\n      tag_316\n        /* \"#utility.yul\":8851:8856   */\n      dup2\n        /* \"#utility.yul\":8833:8857   */\n      tag_317\n      jump\t// in\n    tag_316:\n        /* \"#utility.yul\":8828:8831   */\n      dup3\n        /* \"#utility.yul\":8821:8858   */\n      mstore\n        /* \"#utility.yul\":8746:8864   */\n      pop\n      pop\n      jump\t// out\n        /* \"#utility.yul\":8870:9027   */\n    tag_318:\n        /* \"#utility.yul\":8975:9020   */\n      tag_320\n        /* \"#utility.yul\":8995:9019   */\n      tag_321\n        /* \"#utility.yul\":9013:9018   */\n      dup3\n        /* \"#utility.yul\":8995:9019   */\n      tag_317\n      jump\t// in\n    tag_321:\n        /* \"#utility.yul\":8975:9020   */\n      tag_322\n      jump\t// in\n    tag_320:\n        /* \"#utility.yul\":8970:8973   */\n      dup3\n        /* \"#utility.yul\":8963:9021   */\n      mstore\n        /* \"#utility.yul\":8870:9027   */\n      pop\n      pop\n      jump\t// out\n        /* \"#utility.yul\":9033:9142   */\n    tag_323:\n        /* \"#utility.yul\":9114:9135   */\n      tag_325\n        /* \"#utility.yul\":9129:9134   */\n      dup2\n        /* \"#utility.yul\":9114:9135   */\n      tag_326\n      jump\t// in\n    tag_325:\n        /* \"#utility.yul\":9109:9112   */\n      dup3\n        /* \"#utility.yul\":9102:9136   */\n      mstore\n        /* \"#utility.yul\":9033:9142   */\n      pop\n      pop\n      jump\t// out\n        /* \"#utility.yul\":9148:9266   */\n    tag_327:\n        /* \"#utility.yul\":9235:9259   */\n      tag_329\n        /* \"#utility.yul\":9253:9258   */\n      dup2\n        /* \"#utility.yul\":9235:9259   */\n      tag_330\n      jump\t// in\n    tag_329:\n        /* \"#utility.yul\":9230:9233   */\n      dup3\n        /* \"#utility.yul\":9223:9260   */\n      mstore\n        /* \"#utility.yul\":9148:9266   */\n      pop\n      pop\n      jump\t// out\n        /* \"#utility.yul\":9272:9429   */\n    tag_331:\n        /* \"#utility.yul\":9377:9422   */\n      tag_333\n        /* \"#utility.yul\":9397:9421   */\n      tag_334\n        /* \"#utility.yul\":9415:9420   */\n      dup3\n        /* \"#utility.yul\":9397:9421   */\n      tag_330\n      jump\t// in\n    tag_334:\n        /* \"#utility.yul\":9377:9422   */\n      tag_335\n      jump\t// in\n    tag_333:\n        /* \"#utility.yul\":9372:9375   */\n      dup3\n        /* \"#utility.yul\":9365:9423   */\n      mstore\n        /* \"#utility.yul\":9272:9429   */\n      pop\n      pop\n      jump\t// out\n        /* \"#utility.yul\":9435:9808   */\n    tag_336:\n        /* \"#utility.yul\":9539:9542   */\n      0x00\n        /* \"#utility.yul\":9567:9605   */\n      tag_338\n        /* \"#utility.yul\":9599:9604   */\n      dup3\n        /* \"#utility.yul\":9567:9605   */\n      tag_339\n      jump\t// in\n    tag_338:\n        /* \"#utility.yul\":9621:9709   */\n      tag_340\n        /* \"#utility.yul\":9702:9708   */\n      dup2\n        /* \"#utility.yul\":9697:9700   */\n      dup6\n        /* \"#utility.yul\":9621:9709   */\n      tag_341\n      jump\t// in\n    tag_340:\n        /* \"#utility.yul\":9614:9709   */\n      swap4\n      pop\n        /* \"#utility.yul\":9718:9770   */\n      tag_342\n        /* \"#utility.yul\":9763:9769   */\n      dup2\n        /* \"#utility.yul\":9758:9761   */\n      dup6\n        /* \"#utility.yul\":9751:9755   */\n      0x20\n        /* \"#utility.yul\":9744:9749   */\n      dup7\n        /* \"#utility.yul\":9740:9756   */\n      add\n        /* \"#utility.yul\":9718:9770   */\n      tag_343\n      jump\t// in\n    tag_342:\n        /* \"#utility.yul\":9795:9801   */\n      dup1\n        /* \"#utility.yul\":9790:9793   */\n      dup5\n        /* \"#utility.yul\":9786:9802   */\n      add\n        /* \"#utility.yul\":9779:9802   */\n      swap2\n      pop\n        /* \"#utility.yul\":9543:9808   */\n      pop\n        /* \"#utility.yul\":9435:9808   */\n      swap3\n      swap2\n      pop\n      pop\n      jump\t// out\n        /* \"#utility.yul\":9814:9973   */\n    tag_344:\n        /* \"#utility.yul\":9915:9966   */\n      tag_346\n        /* \"#utility.yul\":9960:9965   */\n      dup2\n        /* \"#utility.yul\":9915:9966   */\n      tag_347\n      jump\t// in\n    tag_346:\n        /* \"#utility.yul\":9910:9913   */\n      dup3\n        /* \"#utility.yul\":9903:9967   */\n      mstore\n        /* \"#utility.yul\":9814:9973   */\n      pop\n      pop\n      jump\t// out\n        /* \"#utility.yul\":9979:10343   */\n    tag_348:\n        /* \"#utility.yul\":10067:10070   */\n      0x00\n        /* \"#utility.yul\":10095:10134   */\n      tag_350\n        /* \"#utility.yul\":10128:10133   */\n      dup3\n        /* \"#utility.yul\":10095:10134   */\n      tag_351\n      jump\t// in\n    tag_350:\n        /* \"#utility.yul\":10150:10221   */\n      tag_352\n        /* \"#utility.yul\":10214:10220   */\n      dup2\n        /* \"#utility.yul\":10209:10212   */\n      dup6\n        /* \"#utility.yul\":10150:10221   */\n      tag_353\n      jump\t// in\n    tag_352:\n        /* \"#utility.yul\":10143:10221   */\n      swap4\n      pop\n        /* \"#utility.yul\":10230:10282   */\n      tag_354\n        /* \"#utility.yul\":10275:10281   */\n      dup2\n        /* \"#utility.yul\":10270:10273   */\n      dup6\n        /* \"#utility.yul\":10263:10267   */\n      0x20\n        /* \"#utility.yul\":10256:10261   */\n      dup7\n        /* \"#utility.yul\":10252:10268   */\n      add\n        /* \"#utility.yul\":10230:10282   */\n      tag_343\n      jump\t// in\n    tag_354:\n        /* \"#utility.yul\":10307:10336   */\n      tag_355\n        /* \"#utility.yul\":10329:10335   */\n      dup2\n        /* \"#utility.yul\":10307:10336   */\n      tag_356\n      jump\t// in\n    tag_355:\n        /* \"#utility.yul\":10302:10305   */\n      dup5\n        /* \"#utility.yul\":10298:10337   */\n      add\n        /* \"#utility.yul\":10291:10337   */\n      swap2\n      pop\n        /* \"#utility.yul\":10071:10343   */\n      pop\n        /* \"#utility.yul\":9979:10343   */\n      swap3\n      swap2\n      pop\n      pop\n      jump\t// out\n        /* \"#utility.yul\":10349:10715   */\n    tag_357:\n        /* \"#utility.yul\":10491:10494   */\n      0x00\n        /* \"#utility.yul\":10512:10579   */\n      tag_359\n        /* \"#utility.yul\":10576:10578   */\n      0x1c\n        /* \"#utility.yul\":10571:10574   */\n      dup4\n        /* \"#utility.yul\":10512:10579   */\n      tag_353\n      jump\t// in\n    tag_359:\n        /* \"#utility.yul\":10505:10579   */\n      swap2\n      pop\n        /* \"#utility.yul\":10588:10681   */\n      tag_360\n        /* \"#utility.yul\":10677:10680   */\n      dup3\n        /* \"#utility.yul\":10588:10681   */\n      tag_361\n      jump\t// in\n    tag_360:\n        /* \"#utility.yul\":10706:10708   */\n      0x20\n        /* \"#utility.yul\":10701:10704   */\n      dup3\n        /* \"#utility.yul\":10697:10709   */\n      add\n        /* \"#utility.yul\":10690:10709   */\n      swap1\n      pop\n        /* \"#utility.yul\":10349:10715   */\n      swap2\n      swap1\n      pop\n      jump\t// out\n        /* \"#utility.yul\":10721:11087   */\n    tag_362:\n        /* \"#utility.yul\":10863:10866   */\n      0x00\n        /* \"#utility.yul\":10884:10951   */\n      tag_364\n        /* \"#utility.yul\":10948:10950   */\n      0x16\n        /* \"#utility.yul\":10943:10946   */\n      dup4\n        /* \"#utility.yul\":10884:10951   */\n      tag_353\n      jump\t// in\n    tag_364:\n        /* \"#utility.yul\":10877:10951   */\n      swap2\n      pop\n        /* \"#utility.yul\":10960:11053   */\n      tag_365\n        /* \"#utility.yul\":11049:11052   */\n      dup3\n        /* \"#utility.yul\":10960:11053   */\n      tag_366\n      jump\t// in\n    tag_365:\n        /* \"#utility.yul\":11078:11080   */\n      0x20\n        /* \"#utility.yul\":11073:11076   */\n      dup3\n        /* \"#utility.yul\":11069:11081   */\n      add\n        /* \"#utility.yul\":11062:11081   */\n      swap1\n      pop\n        /* \"#utility.yul\":10721:11087   */\n      swap2\n      swap1\n      pop\n      jump\t// out\n        /* \"#utility.yul\":11093:11459   */\n    tag_367:\n        /* \"#utility.yul\":11235:11238   */\n      0x00\n        /* \"#utility.yul\":11256:11323   */\n      tag_369\n        /* \"#utility.yul\":11320:11322   */\n      0x1b\n        /* \"#utility.yul\":11315:11318   */\n      dup4\n        /* \"#utility.yul\":11256:11323   */\n      tag_353\n      jump\t// in\n    tag_369:\n        /* \"#utility.yul\":11249:11323   */\n      swap2\n      pop\n        /* \"#utility.yul\":11332:11425   */\n      tag_370\n        /* \"#utility.yul\":11421:11424   */\n      dup3\n        /* \"#utility.yul\":11332:11425   */\n      tag_371\n      jump\t// in\n    tag_370:\n        /* \"#utility.yul\":11450:11452   */\n      0x20\n        /* \"#utility.yul\":11445:11448   */\n      dup3\n        /* \"#utility.yul\":11441:11453   */\n      add\n        /* \"#utility.yul\":11434:11453   */\n      swap1\n      pop\n        /* \"#utility.yul\":11093:11459   */\n      swap2\n      swap1\n      pop\n      jump\t// out\n        /* \"#utility.yul\":11465:11831   */\n    tag_372:\n        /* \"#utility.yul\":11607:11610   */\n      0x00\n        /* \"#utility.yul\":11628:11695   */\n      tag_374\n        /* \"#utility.yul\":11692:11694   */\n      0x26\n        /* \"#utility.yul\":11687:11690   */\n      dup4\n        /* \"#utility.yul\":11628:11695   */\n      tag_353\n      jump\t// in\n    tag_374:\n        /* \"#utility.yul\":11621:11695   */\n      swap2\n      pop\n        /* \"#utility.yul\":11704:11797   */\n      tag_375\n        /* \"#utility.yul\":11793:11796   */\n      dup3\n        /* \"#utility.yul\":11704:11797   */\n      tag_376\n      jump\t// in\n    tag_375:\n        /* \"#utility.yul\":11822:11824   */\n      0x40\n        /* \"#utility.yul\":11817:11820   */\n      dup3\n        /* \"#utility.yul\":11813:11825   */\n      add\n        /* \"#utility.yul\":11806:11825   */\n      swap1\n      pop\n        /* \"#utility.yul\":11465:11831   */\n      swap2\n      swap1\n      pop\n      jump\t// out\n        /* \"#utility.yul\":11837:12203   */\n    tag_377:\n        /* \"#utility.yul\":11979:11982   */\n      0x00\n        /* \"#utility.yul\":12000:12067   */\n      tag_379\n        /* \"#utility.yul\":12064:12066   */\n      0x3d\n        /* \"#utility.yul\":12059:12062   */\n      dup4\n        /* \"#utility.yul\":12000:12067   */\n      tag_353\n      jump\t// in\n    tag_379:\n        /* \"#utility.yul\":11993:12067   */\n      swap2\n      pop\n        /* \"#utility.yul\":12076:12169   */\n      tag_380\n        /* \"#utility.yul\":12165:12168   */\n      dup3\n        /* \"#utility.yul\":12076:12169   */\n      tag_381\n      jump\t// in\n    tag_380:\n        /* \"#utility.yul\":12194:12196   */\n      0x40\n        /* \"#utility.yul\":12189:12192   */\n      dup3\n        /* \"#utility.yul\":12185:12197   */\n      add\n        /* \"#utility.yul\":12178:12197   */\n      swap1\n      pop\n        /* \"#utility.yul\":11837:12203   */\n      swap2\n      swap1\n      pop\n      jump\t// out\n        /* \"#utility.yul\":12209:12575   */\n    tag_382:\n        /* \"#utility.yul\":12351:12354   */\n      0x00\n        /* \"#utility.yul\":12372:12439   */\n      tag_384\n        /* \"#utility.yul\":12436:12438   */\n      0x16\n        /* \"#utility.yul\":12431:12434   */\n      dup4\n        /* \"#utility.yul\":12372:12439   */\n      tag_353\n      jump\t// in\n    tag_384:\n        /* \"#utility.yul\":12365:12439   */\n      swap2\n      pop\n        /* \"#utility.yul\":12448:12541   */\n      tag_385\n        /* \"#utility.yul\":12537:12540   */\n      dup3\n        /* \"#utility.yul\":12448:12541   */\n      tag_386\n      jump\t// in\n    tag_385:\n        /* \"#utility.yul\":12566:12568   */\n      0x20\n        /* \"#utility.yul\":12561:12564   */\n      dup3\n        /* \"#utility.yul\":12557:12569   */\n      add\n        /* \"#utility.yul\":12550:12569   */\n      swap1\n      pop\n        /* \"#utility.yul\":12209:12575   */\n      swap2\n      swap1\n      pop\n      jump\t// out\n        /* \"#utility.yul\":12581:12947   */\n    tag_387:\n        /* \"#utility.yul\":12723:12726   */\n      0x00\n        /* \"#utility.yul\":12744:12811   */\n      tag_389\n        /* \"#utility.yul\":12808:12810   */\n      0x1d\n        /* \"#utility.yul\":12803:12806   */\n      dup4\n        /* \"#utility.yul\":12744:12811   */\n      tag_353\n      jump\t// in\n    tag_389:\n        /* \"#utility.yul\":12737:12811   */\n      swap2\n      pop\n        /* \"#utility.yul\":12820:12913   */\n      tag_390\n        /* \"#utility.yul\":12909:12912   */\n      dup3\n        /* \"#utility.yul\":12820:12913   */\n      tag_391\n      jump\t// in\n    tag_390:\n        /* \"#utility.yul\":12938:12940   */\n      0x20\n        /* \"#utility.yul\":12933:12936   */\n      dup3\n        /* \"#utility.yul\":12929:12941   */\n      add\n        /* \"#utility.yul\":12922:12941   */\n      swap1\n      pop\n        /* \"#utility.yul\":12581:12947   */\n      swap2\n      swap1\n      pop\n      jump\t// out\n        /* \"#utility.yul\":12953:13319   */\n    tag_392:\n        /* \"#utility.yul\":13095:13098   */\n      0x00\n        /* \"#utility.yul\":13116:13183   */\n      tag_394\n        /* \"#utility.yul\":13180:13182   */\n      0x12\n        /* \"#utility.yul\":13175:13178   */\n      dup4\n        /* \"#utility.yul\":13116:13183   */\n      tag_353\n      jump\t// in\n    tag_394:\n        /* \"#utility.yul\":13109:13183   */\n      swap2\n      pop\n        /* \"#utility.yul\":13192:13285   */\n      tag_395\n        /* \"#utility.yul\":13281:13284   */\n      dup3\n        /* \"#utility.yul\":13192:13285   */\n      tag_396\n      jump\t// in\n    tag_395:\n        /* \"#utility.yul\":13310:13312   */\n      0x20\n        /* \"#utility.yul\":13305:13308   */\n      dup3\n        /* \"#utility.yul\":13301:13313   */\n      add\n        /* \"#utility.yul\":13294:13313   */\n      swap1\n      pop\n        /* \"#utility.yul\":12953:13319   */\n      swap2\n      swap1\n      pop\n      jump\t// out\n        /* \"#utility.yul\":13325:13691   */\n    tag_397:\n        /* \"#utility.yul\":13467:13470   */\n      0x00\n        /* \"#utility.yul\":13488:13555   */\n      tag_399\n        /* \"#utility.yul\":13552:13554   */\n      0x2a\n        /* \"#utility.yul\":13547:13550   */\n      dup4\n        /* \"#utility.yul\":13488:13555   */\n      tag_353\n      jump\t// in\n    tag_399:\n        /* \"#utility.yul\":13481:13555   */\n      swap2\n      pop\n        /* \"#utility.yul\":13564:13657   */\n      tag_400\n        /* \"#utility.yul\":13653:13656   */\n      dup3\n        /* \"#utility.yul\":13564:13657   */\n      tag_401\n      jump\t// in\n    tag_400:\n        /* \"#utility.yul\":13682:13684   */\n      0x40\n        /* \"#utility.yul\":13677:13680   */\n      dup3\n        /* \"#utility.yul\":13673:13685   */\n      add\n        /* \"#utility.yul\":13666:13685   */\n      swap1\n      pop\n        /* \"#utility.yul\":13325:13691   */\n      swap2\n      swap1\n      pop\n      jump\t// out\n        /* \"#utility.yul\":13697:13815   */\n    tag_402:\n        /* \"#utility.yul\":13784:13808   */\n      tag_404\n        /* \"#utility.yul\":13802:13807   */\n      dup2\n        /* \"#utility.yul\":13784:13808   */\n      tag_405\n      jump\t// in\n    tag_404:\n        /* \"#utility.yul\":13779:13782   */\n      dup3\n        /* \"#utility.yul\":13772:13809   */\n      mstore\n        /* \"#utility.yul\":13697:13815   */\n      pop\n      pop\n      jump\t// out\n        /* \"#utility.yul\":13821:13978   */\n    tag_406:\n        /* \"#utility.yul\":13926:13971   */\n      tag_408\n        /* \"#utility.yul\":13946:13970   */\n      tag_409\n        /* \"#utility.yul\":13964:13969   */\n      dup3\n        /* \"#utility.yul\":13946:13970   */\n      tag_405\n      jump\t// in\n    tag_409:\n        /* \"#utility.yul\":13926:13971   */\n      tag_410\n      jump\t// in\n    tag_408:\n        /* \"#utility.yul\":13921:13924   */\n      dup3\n        /* \"#utility.yul\":13914:13972   */\n      mstore\n        /* \"#utility.yul\":13821:13978   */\n      pop\n      pop\n      jump\t// out\n        /* \"#utility.yul\":13984:14381   */\n    tag_143:\n        /* \"#utility.yul\":14124:14127   */\n      0x00\n        /* \"#utility.yul\":14139:14214   */\n      tag_412\n        /* \"#utility.yul\":14210:14213   */\n      dup3\n        /* \"#utility.yul\":14201:14207   */\n      dup6\n        /* \"#utility.yul\":14139:14214   */\n      tag_318\n      jump\t// in\n    tag_412:\n        /* \"#utility.yul\":14239:14241   */\n      0x14\n        /* \"#utility.yul\":14234:14237   */\n      dup3\n        /* \"#utility.yul\":14230:14242   */\n      add\n        /* \"#utility.yul\":14223:14242   */\n      swap2\n      pop\n        /* \"#utility.yul\":14252:14327   */\n      tag_413\n        /* \"#utility.yul\":14323:14326   */\n      dup3\n        /* \"#utility.yul\":14314:14320   */\n      dup5\n        /* \"#utility.yul\":14252:14327   */\n      tag_406\n      jump\t// in\n    tag_413:\n        /* \"#utility.yul\":14352:14354   */\n      0x20\n        /* \"#utility.yul\":14347:14350   */\n      dup3\n        /* \"#utility.yul\":14343:14355   */\n      add\n        /* \"#utility.yul\":14336:14355   */\n      swap2\n      pop\n        /* \"#utility.yul\":14372:14375   */\n      dup2\n        /* \"#utility.yul\":14365:14375   */\n      swap1\n      pop\n        /* \"#utility.yul\":13984:14381   */\n      swap4\n      swap3\n      pop\n      pop\n      pop\n      jump\t// out\n        /* \"#utility.yul\":14387:14784   */\n    tag_167:\n        /* \"#utility.yul\":14527:14530   */\n      0x00\n        /* \"#utility.yul\":14542:14617   */\n      tag_415\n        /* \"#utility.yul\":14613:14616   */\n      dup3\n        /* \"#utility.yul\":14604:14610   */\n      dup6\n        /* \"#utility.yul\":14542:14617   */\n      tag_331\n      jump\t// in\n    tag_415:\n        /* \"#utility.yul\":14642:14644   */\n      0x20\n        /* \"#utility.yul\":14637:14640   */\n      dup3\n        /* \"#utility.yul\":14633:14645   */\n      add\n        /* \"#utility.yul\":14626:14645   */\n      swap2\n      pop\n        /* \"#utility.yul\":14655:14730   */\n      tag_416\n        /* \"#utility.yul\":14726:14729   */\n      dup3\n        /* \"#utility.yul\":14717:14723   */\n      dup5\n        /* \"#utility.yul\":14655:14730   */\n      tag_331\n      jump\t// in\n    tag_416:\n        /* \"#utility.yul\":14755:14757   */\n      0x20\n        /* \"#utility.yul\":14750:14753   */\n      dup3\n        /* \"#utility.yul\":14746:14758   */\n      add\n        /* \"#utility.yul\":14739:14758   */\n      swap2\n      pop\n        /* \"#utility.yul\":14775:14778   */\n      dup2\n        /* \"#utility.yul\":14768:14778   */\n      swap1\n      pop\n        /* \"#utility.yul\":14387:14784   */\n      swap4\n      swap3\n      pop\n      pop\n      pop\n      jump\t// out\n        /* \"#utility.yul\":14790:15061   */\n    tag_184:\n        /* \"#utility.yul\":14920:14923   */\n      0x00\n        /* \"#utility.yul\":14942:15035   */\n      tag_418\n        /* \"#utility.yul\":15031:15034   */\n      dup3\n        /* \"#utility.yul\":15022:15028   */\n      dup5\n        /* \"#utility.yul\":14942:15035   */\n      tag_336\n      jump\t// in\n    tag_418:\n        /* \"#utility.yul\":14935:15035   */\n      swap2\n      pop\n        /* \"#utility.yul\":15052:15055   */\n      dup2\n        /* \"#utility.yul\":15045:15055   */\n      swap1\n      pop\n        /* \"#utility.yul\":14790:15061   */\n      swap3\n      swap2\n      pop\n      pop\n      jump\t// out\n        /* \"#utility.yul\":15067:15289   */\n    tag_40:\n        /* \"#utility.yul\":15160:15164   */\n      0x00\n        /* \"#utility.yul\":15198:15200   */\n      0x20\n        /* \"#utility.yul\":15187:15196   */\n      dup3\n        /* \"#utility.yul\":15183:15201   */\n      add\n        /* \"#utility.yul\":15175:15201   */\n      swap1\n      pop\n        /* \"#utility.yul\":15211:15282   */\n      tag_420\n        /* \"#utility.yul\":15279:15280   */\n      0x00\n        /* \"#utility.yul\":15268:15277   */\n      dup4\n        /* \"#utility.yul\":15264:15281   */\n      add\n        /* \"#utility.yul\":15255:15261   */\n      dup5\n        /* \"#utility.yul\":15211:15282   */\n      tag_314\n      jump\t// in\n    tag_420:\n        /* \"#utility.yul\":15067:15289   */\n      swap3\n      swap2\n      pop\n      pop\n      jump\t// out\n        /* \"#utility.yul\":15295:15737   */\n    tag_133:\n        /* \"#utility.yul\":15444:15448   */\n      0x00\n        /* \"#utility.yul\":15482:15484   */\n      0x60\n        /* \"#utility.yul\":15471:15480   */\n      dup3\n        /* \"#utility.yul\":15467:15485   */\n      add\n        /* \"#utility.yul\":15459:15485   */\n      swap1\n      pop\n        /* \"#utility.yul\":15495:15566   */\n      tag_422\n        /* \"#utility.yul\":15563:15564   */\n      0x00\n        /* \"#utility.yul\":15552:15561   */\n      dup4\n        /* \"#utility.yul\":15548:15565   */\n      add\n        /* \"#utility.yul\":15539:15545   */\n      dup7\n        /* \"#utility.yul\":15495:15566   */\n      tag_314\n      jump\t// in\n    tag_422:\n        /* \"#utility.yul\":15576:15648   */\n      tag_423\n        /* \"#utility.yul\":15644:15646   */\n      0x20\n        /* \"#utility.yul\":15633:15642   */\n      dup4\n        /* \"#utility.yul\":15629:15647   */\n      add\n        /* \"#utility.yul\":15620:15626   */\n      dup6\n        /* \"#utility.yul\":15576:15648   */\n      tag_314\n      jump\t// in\n    tag_423:\n        /* \"#utility.yul\":15658:15730   */\n      tag_424\n        /* \"#utility.yul\":15726:15728   */\n      0x40\n        /* \"#utility.yul\":15715:15724   */\n      dup4\n        /* \"#utility.yul\":15711:15729   */\n      add\n        /* \"#utility.yul\":15702:15708   */\n      dup5\n        /* \"#utility.yul\":15658:15730   */\n      tag_402\n      jump\t// in\n    tag_424:\n        /* \"#utility.yul\":15295:15737   */\n      swap5\n      swap4\n      pop\n      pop\n      pop\n      pop\n      jump\t// out\n        /* \"#utility.yul\":15743:16075   */\n    tag_149:\n        /* \"#utility.yul\":15864:15868   */\n      0x00\n        /* \"#utility.yul\":15902:15904   */\n      0x40\n        /* \"#utility.yul\":15891:15900   */\n      dup3\n        /* \"#utility.yul\":15887:15905   */\n      add\n        /* \"#utility.yul\":15879:15905   */\n      swap1\n      pop\n        /* \"#utility.yul\":15915:15986   */\n      tag_426\n        /* \"#utility.yul\":15983:15984   */\n      0x00\n        /* \"#utility.yul\":15972:15981   */\n      dup4\n        /* \"#utility.yul\":15968:15985   */\n      add\n        /* \"#utility.yul\":15959:15965   */\n      dup6\n        /* \"#utility.yul\":15915:15986   */\n      tag_314\n      jump\t// in\n    tag_426:\n        /* \"#utility.yul\":15996:16068   */\n      tag_427\n        /* \"#utility.yul\":16064:16066   */\n      0x20\n        /* \"#utility.yul\":16053:16062   */\n      dup4\n        /* \"#utility.yul\":16049:16067   */\n      add\n        /* \"#utility.yul\":16040:16046   */\n      dup5\n        /* \"#utility.yul\":15996:16068   */\n      tag_402\n      jump\t// in\n    tag_427:\n        /* \"#utility.yul\":15743:16075   */\n      swap4\n      swap3\n      pop\n      pop\n      pop\n      jump\t// out\n        /* \"#utility.yul\":16081:16523   */\n    tag_122:\n        /* \"#utility.yul\":16230:16234   */\n      0x00\n        /* \"#utility.yul\":16268:16270   */\n      0x60\n        /* \"#utility.yul\":16257:16266   */\n      dup3\n        /* \"#utility.yul\":16253:16271   */\n      add\n        /* \"#utility.yul\":16245:16271   */\n      swap1\n      pop\n        /* \"#utility.yul\":16281:16352   */\n      tag_429\n        /* \"#utility.yul\":16349:16350   */\n      0x00\n        /* \"#utility.yul\":16338:16347   */\n      dup4\n        /* \"#utility.yul\":16334:16351   */\n      add\n        /* \"#utility.yul\":16325:16331   */\n      dup7\n        /* \"#utility.yul\":16281:16352   */\n      tag_314\n      jump\t// in\n    tag_429:\n        /* \"#utility.yul\":16362:16434   */\n      tag_430\n        /* \"#utility.yul\":16430:16432   */\n      0x20\n        /* \"#utility.yul\":16419:16428   */\n      dup4\n        /* \"#utility.yul\":16415:16433   */\n      add\n        /* \"#utility.yul\":16406:16412   */\n      dup6\n        /* \"#utility.yul\":16362:16434   */\n      tag_402\n      jump\t// in\n    tag_430:\n        /* \"#utility.yul\":16444:16516   */\n      tag_431\n        /* \"#utility.yul\":16512:16514   */\n      0x40\n        /* \"#utility.yul\":16501:16510   */\n      dup4\n        /* \"#utility.yul\":16497:16515   */\n      add\n        /* \"#utility.yul\":16488:16494   */\n      dup5\n        /* \"#utility.yul\":16444:16516   */\n      tag_402\n      jump\t// in\n    tag_431:\n        /* \"#utility.yul\":16081:16523   */\n      swap5\n      swap4\n      pop\n      pop\n      pop\n      pop\n      jump\t// out\n        /* \"#utility.yul\":16529:16739   */\n    tag_20:\n        /* \"#utility.yul\":16616:16620   */\n      0x00\n        /* \"#utility.yul\":16654:16656   */\n      0x20\n        /* \"#utility.yul\":16643:16652   */\n      dup3\n        /* \"#utility.yul\":16639:16657   */\n      add\n        /* \"#utility.yul\":16631:16657   */\n      swap1\n      pop\n        /* \"#utility.yul\":16667:16732   */\n      tag_433\n        /* \"#utility.yul\":16729:16730   */\n      0x00\n        /* \"#utility.yul\":16718:16727   */\n      dup4\n        /* \"#utility.yul\":16714:16731   */\n      add\n        /* \"#utility.yul\":16705:16711   */\n      dup5\n        /* \"#utility.yul\":16667:16732   */\n      tag_323\n      jump\t// in\n    tag_433:\n        /* \"#utility.yul\":16529:16739   */\n      swap3\n      swap2\n      pop\n      pop\n      jump\t// out\n        /* \"#utility.yul\":16745:16967   */\n    tag_36:\n        /* \"#utility.yul\":16838:16842   */\n      0x00\n        /* \"#utility.yul\":16876:16878   */\n      0x20\n        /* \"#utility.yul\":16865:16874   */\n      dup3\n        /* \"#utility.yul\":16861:16879   */\n      add\n        /* \"#utility.yul\":16853:16879   */\n      swap1\n      pop\n        /* \"#utility.yul\":16889:16960   */\n      tag_435\n        /* \"#utility.yul\":16957:16958   */\n      0x00\n        /* \"#utility.yul\":16946:16955   */\n      dup4\n        /* \"#utility.yul\":16942:16959   */\n      add\n        /* \"#utility.yul\":16933:16939   */\n      dup5\n        /* \"#utility.yul\":16889:16960   */\n      tag_327\n      jump\t// in\n    tag_435:\n        /* \"#utility.yul\":16745:16967   */\n      swap3\n      swap2\n      pop\n      pop\n      jump\t// out\n        /* \"#utility.yul\":16973:17223   */\n    tag_62:\n        /* \"#utility.yul\":17080:17084   */\n      0x00\n        /* \"#utility.yul\":17118:17120   */\n      0x20\n        /* \"#utility.yul\":17107:17116   */\n      dup3\n        /* \"#utility.yul\":17103:17121   */\n      add\n        /* \"#utility.yul\":17095:17121   */\n      swap1\n      pop\n        /* \"#utility.yul\":17131:17216   */\n      tag_437\n        /* \"#utility.yul\":17213:17214   */\n      0x00\n        /* \"#utility.yul\":17202:17211   */\n      dup4\n        /* \"#utility.yul\":17198:17215   */\n      add\n        /* \"#utility.yul\":17189:17195   */\n      dup5\n        /* \"#utility.yul\":17131:17216   */\n      tag_344\n      jump\t// in\n    tag_437:\n        /* \"#utility.yul\":16973:17223   */\n      swap3\n      swap2\n      pop\n      pop\n      jump\t// out\n        /* \"#utility.yul\":17229:17542   */\n    tag_197:\n        /* \"#utility.yul\":17342:17346   */\n      0x00\n        /* \"#utility.yul\":17380:17382   */\n      0x20\n        /* \"#utility.yul\":17369:17378   */\n      dup3\n        /* \"#utility.yul\":17365:17383   */\n      add\n        /* \"#utility.yul\":17357:17383   */\n      swap1\n      pop\n        /* \"#utility.yul\":17429:17438   */\n      dup2\n        /* \"#utility.yul\":17423:17427   */\n      dup2\n        /* \"#utility.yul\":17419:17439   */\n      sub\n        /* \"#utility.yul\":17415:17416   */\n      0x00\n        /* \"#utility.yul\":17404:17413   */\n      dup4\n        /* \"#utility.yul\":17400:17417   */\n      add\n        /* \"#utility.yul\":17393:17440   */\n      mstore\n        /* \"#utility.yul\":17457:17535   */\n      tag_439\n        /* \"#utility.yul\":17530:17534   */\n      dup2\n        /* \"#utility.yul\":17521:17527   */\n      dup5\n        /* \"#utility.yul\":17457:17535   */\n      tag_348\n      jump\t// in\n    tag_439:\n        /* \"#utility.yul\":17449:17535   */\n      swap1\n      pop\n        /* \"#utility.yul\":17229:17542   */\n      swap3\n      swap2\n      pop\n      pop\n      jump\t// out\n        /* \"#utility.yul\":17548:17967   */\n    tag_113:\n        /* \"#utility.yul\":17714:17718   */\n      0x00\n        /* \"#utility.yul\":17752:17754   */\n      0x20\n        /* \"#utility.yul\":17741:17750   */\n      dup3\n        /* \"#utility.yul\":17737:17755   */\n      add\n        /* \"#utility.yul\":17729:17755   */\n      swap1\n      pop\n        /* \"#utility.yul\":17801:17810   */\n      dup2\n        /* \"#utility.yul\":17795:17799   */\n      dup2\n        /* \"#utility.yul\":17791:17811   */\n      sub\n        /* \"#utility.yul\":17787:17788   */\n      0x00\n        /* \"#utility.yul\":17776:17785   */\n      dup4\n        /* \"#utility.yul\":17772:17789   */\n      add\n        /* \"#utility.yul\":17765:17812   */\n      mstore\n        /* \"#utility.yul\":17829:17960   */\n      tag_441\n        /* \"#utility.yul\":17955:17959   */\n      dup2\n        /* \"#utility.yul\":17829:17960   */\n      tag_357\n      jump\t// in\n    tag_441:\n        /* \"#utility.yul\":17821:17960   */\n      swap1\n      pop\n        /* \"#utility.yul\":17548:17967   */\n      swap2\n      swap1\n      pop\n      jump\t// out\n        /* \"#utility.yul\":17973:18392   */\n    tag_120:\n        /* \"#utility.yul\":18139:18143   */\n      0x00\n        /* \"#utility.yul\":18177:18179   */\n      0x20\n        /* \"#utility.yul\":18166:18175   */\n      dup3\n        /* \"#utility.yul\":18162:18180   */\n      add\n        /* \"#utility.yul\":18154:18180   */\n      swap1\n      pop\n        /* \"#utility.yul\":18226:18235   */\n      dup2\n        /* \"#utility.yul\":18220:18224   */\n      dup2\n        /* \"#utility.yul\":18216:18236   */\n      sub\n        /* \"#utility.yul\":18212:18213   */\n      0x00\n        /* \"#utility.yul\":18201:18210   */\n      dup4\n        /* \"#utility.yul\":18197:18214   */\n      add\n        /* \"#utility.yul\":18190:18237   */\n      mstore\n        /* \"#utility.yul\":18254:18385   */\n      tag_443\n        /* \"#utility.yul\":18380:18384   */\n      dup2\n        /* \"#utility.yul\":18254:18385   */\n      tag_362\n      jump\t// in\n    tag_443:\n        /* \"#utility.yul\":18246:18385   */\n      swap1\n      pop\n        /* \"#utility.yul\":17973:18392   */\n      swap2\n      swap1\n      pop\n      jump\t// out\n        /* \"#utility.yul\":18398:18817   */\n    tag_140:\n        /* \"#utility.yul\":18564:18568   */\n      0x00\n        /* \"#utility.yul\":18602:18604   */\n      0x20\n        /* \"#utility.yul\":18591:18600   */\n      dup3\n        /* \"#utility.yul\":18587:18605   */\n      add\n        /* \"#utility.yul\":18579:18605   */\n      swap1\n      pop\n        /* \"#utility.yul\":18651:18660   */\n      dup2\n        /* \"#utility.yul\":18645:18649   */\n      dup2\n        /* \"#utility.yul\":18641:18661   */\n      sub\n        /* \"#utility.yul\":18637:18638   */\n      0x00\n        /* \"#utility.yul\":18626:18635   */\n      dup4\n        /* \"#utility.yul\":18622:18639   */\n      add\n        /* \"#utility.yul\":18615:18662   */\n      mstore\n        /* \"#utility.yul\":18679:18810   */\n      tag_445\n        /* \"#utility.yul\":18805:18809   */\n      dup2\n        /* \"#utility.yul\":18679:18810   */\n      tag_367\n      jump\t// in\n    tag_445:\n        /* \"#utility.yul\":18671:18810   */\n      swap1\n      pop\n        /* \"#utility.yul\":18398:18817   */\n      swap2\n      swap1\n      pop\n      jump\t// out\n        /* \"#utility.yul\":18823:19242   */\n    tag_177:\n        /* \"#utility.yul\":18989:18993   */\n      0x00\n        /* \"#utility.yul\":19027:19029   */\n      0x20\n        /* \"#utility.yul\":19016:19025   */\n      dup3\n        /* \"#utility.yul\":19012:19030   */\n      add\n        /* \"#utility.yul\":19004:19030   */\n      swap1\n      pop\n        /* \"#utility.yul\":19076:19085   */\n      dup2\n        /* \"#utility.yul\":19070:19074   */\n      dup2\n        /* \"#utility.yul\":19066:19086   */\n      sub\n        /* \"#utility.yul\":19062:19063   */\n      0x00\n        /* \"#utility.yul\":19051:19060   */\n      dup4\n        /* \"#utility.yul\":19047:19064   */\n      add\n        /* \"#utility.yul\":19040:19087   */\n      mstore\n        /* \"#utility.yul\":19104:19235   */\n      tag_447\n        /* \"#utility.yul\":19230:19234   */\n      dup2\n        /* \"#utility.yul\":19104:19235   */\n      tag_372\n      jump\t// in\n    tag_447:\n        /* \"#utility.yul\":19096:19235   */\n      swap1\n      pop\n        /* \"#utility.yul\":18823:19242   */\n      swap2\n      swap1\n      pop\n      jump\t// out\n        /* \"#utility.yul\":19248:19667   */\n    tag_129:\n        /* \"#utility.yul\":19414:19418   */\n      0x00\n        /* \"#utility.yul\":19452:19454   */\n      0x20\n        /* \"#utility.yul\":19441:19450   */\n      dup3\n        /* \"#utility.yul\":19437:19455   */\n      add\n        /* \"#utility.yul\":19429:19455   */\n      swap1\n      pop\n        /* \"#utility.yul\":19501:19510   */\n      dup2\n        /* \"#utility.yul\":19495:19499   */\n      dup2\n        /* \"#utility.yul\":19491:19511   */\n      sub\n        /* \"#utility.yul\":19487:19488   */\n      0x00\n        /* \"#utility.yul\":19476:19485   */\n      dup4\n        /* \"#utility.yul\":19472:19489   */\n      add\n        /* \"#utility.yul\":19465:19512   */\n      mstore\n        /* \"#utility.yul\":19529:19660   */\n      tag_449\n        /* \"#utility.yul\":19655:19659   */\n      dup2\n        /* \"#utility.yul\":19529:19660   */\n      tag_377\n      jump\t// in\n    tag_449:\n        /* \"#utility.yul\":19521:19660   */\n      swap1\n      pop\n        /* \"#utility.yul\":19248:19667   */\n      swap2\n      swap1\n      pop\n      jump\t// out\n        /* \"#utility.yul\":19673:20092   */\n    tag_116:\n        /* \"#utility.yul\":19839:19843   */\n      0x00\n        /* \"#utility.yul\":19877:19879   */\n      0x20\n        /* \"#utility.yul\":19866:19875   */\n      dup3\n        /* \"#utility.yul\":19862:19880   */\n      add\n        /* \"#utility.yul\":19854:19880   */\n      swap1\n      pop\n        /* \"#utility.yul\":19926:19935   */\n      dup2\n        /* \"#utility.yul\":19920:19924   */\n      dup2\n        /* \"#utility.yul\":19916:19936   */\n      sub\n        /* \"#utility.yul\":19912:19913   */\n      0x00\n        /* \"#utility.yul\":19901:19910   */\n      dup4\n        /* \"#utility.yul\":19897:19914   */\n      add\n        /* \"#utility.yul\":19890:19937   */\n      mstore\n        /* \"#utility.yul\":19954:20085   */\n      tag_451\n        /* \"#utility.yul\":20080:20084   */\n      dup2\n        /* \"#utility.yul\":19954:20085   */\n      tag_382\n      jump\t// in\n    tag_451:\n        /* \"#utility.yul\":19946:20085   */\n      swap1\n      pop\n        /* \"#utility.yul\":19673:20092   */\n      swap2\n      swap1\n      pop\n      jump\t// out\n        /* \"#utility.yul\":20098:20517   */\n    tag_182:\n        /* \"#utility.yul\":20264:20268   */\n      0x00\n        /* \"#utility.yul\":20302:20304   */\n      0x20\n        /* \"#utility.yul\":20291:20300   */\n      dup3\n        /* \"#utility.yul\":20287:20305   */\n      add\n        /* \"#utility.yul\":20279:20305   */\n      swap1\n      pop\n        /* \"#utility.yul\":20351:20360   */\n      dup2\n        /* \"#utility.yul\":20345:20349   */\n      dup2\n        /* \"#utility.yul\":20341:20361   */\n      sub\n        /* \"#utility.yul\":20337:20338   */\n      0x00\n        /* \"#utility.yul\":20326:20335   */\n      dup4\n        /* \"#utility.yul\":20322:20339   */\n      add\n        /* \"#utility.yul\":20315:20362   */\n      mstore\n        /* \"#utility.yul\":20379:20510   */\n      tag_453\n        /* \"#utility.yul\":20505:20509   */\n      dup2\n        /* \"#utility.yul\":20379:20510   */\n      tag_387\n      jump\t// in\n    tag_453:\n        /* \"#utility.yul\":20371:20510   */\n      swap1\n      pop\n        /* \"#utility.yul\":20098:20517   */\n      swap2\n      swap1\n      pop\n      jump\t// out\n        /* \"#utility.yul\":20523:20942   */\n    tag_81:\n        /* \"#utility.yul\":20689:20693   */\n      0x00\n        /* \"#utility.yul\":20727:20729   */\n      0x20\n        /* \"#utility.yul\":20716:20725   */\n      dup3\n        /* \"#utility.yul\":20712:20730   */\n      add\n        /* \"#utility.yul\":20704:20730   */\n      swap1\n      pop\n        /* \"#utility.yul\":20776:20785   */\n      dup2\n        /* \"#utility.yul\":20770:20774   */\n      dup2\n        /* \"#utility.yul\":20766:20786   */\n      sub\n        /* \"#utility.yul\":20762:20763   */\n      0x00\n        /* \"#utility.yul\":20751:20760   */\n      dup4\n        /* \"#utility.yul\":20747:20764   */\n      add\n        /* \"#utility.yul\":20740:20787   */\n      mstore\n        /* \"#utility.yul\":20804:20935   */\n      tag_455\n        /* \"#utility.yul\":20930:20934   */\n      dup2\n        /* \"#utility.yul\":20804:20935   */\n      tag_392\n      jump\t// in\n    tag_455:\n        /* \"#utility.yul\":20796:20935   */\n      swap1\n      pop\n        /* \"#utility.yul\":20523:20942   */\n      swap2\n      swap1\n      pop\n      jump\t// out\n        /* \"#utility.yul\":20948:21367   */\n    tag_158:\n        /* \"#utility.yul\":21114:21118   */\n      0x00\n        /* \"#utility.yul\":21152:21154   */\n      0x20\n        /* \"#utility.yul\":21141:21150   */\n      dup3\n        /* \"#utility.yul\":21137:21155   */\n      add\n        /* \"#utility.yul\":21129:21155   */\n      swap1\n      pop\n        /* \"#utility.yul\":21201:21210   */\n      dup2\n        /* \"#utility.yul\":21195:21199   */\n      dup2\n        /* \"#utility.yul\":21191:21211   */\n      sub\n        /* \"#utility.yul\":21187:21188   */\n      0x00\n        /* \"#utility.yul\":21176:21185   */\n      dup4\n        /* \"#utility.yul\":21172:21189   */\n      add\n        /* \"#utility.yul\":21165:21212   */\n      mstore\n        /* \"#utility.yul\":21229:21360   */\n      tag_457\n        /* \"#utility.yul\":21355:21359   */\n      dup2\n        /* \"#utility.yul\":21229:21360   */\n      tag_397\n      jump\t// in\n    tag_457:\n        /* \"#utility.yul\":21221:21360   */\n      swap1\n      pop\n        /* \"#utility.yul\":20948:21367   */\n      swap2\n      swap1\n      pop\n      jump\t// out\n        /* \"#utility.yul\":21373:21595   */\n    tag_30:\n        /* \"#utility.yul\":21466:21470   */\n      0x00\n        /* \"#utility.yul\":21504:21506   */\n      0x20\n        /* \"#utility.yul\":21493:21502   */\n      dup3\n        /* \"#utility.yul\":21489:21507   */\n      add\n        /* \"#utility.yul\":21481:21507   */\n      swap1\n      pop\n        /* \"#utility.yul\":21517:21588   */\n      tag_459\n        /* \"#utility.yul\":21585:21586   */\n      0x00\n        /* \"#utility.yul\":21574:21583   */\n      dup4\n        /* \"#utility.yul\":21570:21587   */\n      add\n        /* \"#utility.yul\":21561:21567   */\n      dup5\n        /* \"#utility.yul\":21517:21588   */\n      tag_402\n      jump\t// in\n    tag_459:\n        /* \"#utility.yul\":21373:21595   */\n      swap3\n      swap2\n      pop\n      pop\n      jump\t// out\n        /* \"#utility.yul\":21601:22043   */\n    tag_76:\n        /* \"#utility.yul\":21750:21754   */\n      0x00\n        /* \"#utility.yul\":21788:21790   */\n      0x60\n        /* \"#utility.yul\":21777:21786   */\n      dup3\n        /* \"#utility.yul\":21773:21791   */\n      add\n        /* \"#utility.yul\":21765:21791   */\n      swap1\n      pop\n        /* \"#utility.yul\":21801:21872   */\n      tag_461\n        /* \"#utility.yul\":21869:21870   */\n      0x00\n        /* \"#utility.yul\":21858:21867   */\n      dup4\n        /* \"#utility.yul\":21854:21871   */\n      add\n        /* \"#utility.yul\":21845:21851   */\n      dup7\n        /* \"#utility.yul\":21801:21872   */\n      tag_402\n      jump\t// in\n    tag_461:\n        /* \"#utility.yul\":21882:21954   */\n      tag_462\n        /* \"#utility.yul\":21950:21952   */\n      0x20\n        /* \"#utility.yul\":21939:21948   */\n      dup4\n        /* \"#utility.yul\":21935:21953   */\n      add\n        /* \"#utility.yul\":21926:21932   */\n      dup6\n        /* \"#utility.yul\":21882:21954   */\n      tag_327\n      jump\t// in\n    tag_462:\n        /* \"#utility.yul\":21964:22036   */\n      tag_463\n        /* \"#utility.yul\":22032:22034   */\n      0x40\n        /* \"#utility.yul\":22021:22030   */\n      dup4\n        /* \"#utility.yul\":22017:22035   */\n      add\n        /* \"#utility.yul\":22008:22014   */\n      dup5\n        /* \"#utility.yul\":21964:22036   */\n      tag_402\n      jump\t// in\n    tag_463:\n        /* \"#utility.yul\":21601:22043   */\n      swap5\n      swap4\n      pop\n      pop\n      pop\n      pop\n      jump\t// out\n        /* \"#utility.yul\":22049:22178   */\n    tag_204:\n        /* \"#utility.yul\":22083:22089   */\n      0x00\n        /* \"#utility.yul\":22110:22130   */\n      tag_465\n      tag_466\n      jump\t// in\n    tag_465:\n        /* \"#utility.yul\":22100:22130   */\n      swap1\n      pop\n        /* \"#utility.yul\":22139:22172   */\n      tag_467\n        /* \"#utility.yul\":22167:22171   */\n      dup3\n        /* \"#utility.yul\":22159:22165   */\n      dup3\n        /* \"#utility.yul\":22139:22172   */\n      tag_468\n      jump\t// in\n    tag_467:\n        /* \"#utility.yul\":22049:22178   */\n      swap2\n      swap1\n      pop\n      jump\t// out\n        /* \"#utility.yul\":22184:22259   */\n    tag_466:\n        /* \"#utility.yul\":22217:22223   */\n      0x00\n        /* \"#utility.yul\":22250:22252   */\n      0x40\n        /* \"#utility.yul\":22244:22253   */\n      mload\n        /* \"#utility.yul\":22234:22253   */\n      swap1\n      pop\n        /* \"#utility.yul\":22184:22259   */\n      swap1\n      jump\t// out\n        /* \"#utility.yul\":22265:22601   */\n    tag_203:\n        /* \"#utility.yul\":22367:22371   */\n      0x00\n        /* \"#utility.yul\":22457:22475   */\n      0xffffffffffffffff\n        /* \"#utility.yul\":22449:22455   */\n      dup3\n        /* \"#utility.yul\":22446:22476   */\n      gt\n        /* \"#utility.yul\":22443:22499   */\n      iszero\n      tag_471\n      jumpi\n        /* \"#utility.yul\":22479:22497   */\n      tag_472\n      tag_473\n      jump\t// in\n    tag_472:\n        /* \"#utility.yul\":22443:22499   */\n    tag_471:\n        /* \"#utility.yul\":22529:22533   */\n      0x20\n        /* \"#utility.yul\":22521:22527   */\n      dup3\n        /* \"#utility.yul\":22517:22534   */\n      mul\n        /* \"#utility.yul\":22509:22534   */\n      swap1\n      pop\n        /* \"#utility.yul\":22589:22593   */\n      0x20\n        /* \"#utility.yul\":22583:22587   */\n      dup2\n        /* \"#utility.yul\":22579:22594   */\n      add\n        /* \"#utility.yul\":22571:22594   */\n      swap1\n      pop\n        /* \"#utility.yul\":22265:22601   */\n      swap2\n      swap1\n      pop\n      jump\t// out\n        /* \"#utility.yul\":22607:22918   */\n    tag_220:\n        /* \"#utility.yul\":22684:22688   */\n      0x00\n        /* \"#utility.yul\":22774:22792   */\n      0xffffffffffffffff\n        /* \"#utility.yul\":22766:22772   */\n      dup3\n        /* \"#utility.yul\":22763:22793   */\n      gt\n        /* \"#utility.yul\":22760:22816   */\n      iszero\n      tag_475\n      jumpi\n        /* \"#utility.yul\":22796:22814   */\n      tag_476\n      tag_473\n      jump\t// in\n    tag_476:\n        /* \"#utility.yul\":22760:22816   */\n    tag_475:\n        /* \"#utility.yul\":22846:22850   */\n      0x20\n        /* \"#utility.yul\":22838:22844   */\n      dup3\n        /* \"#utility.yul\":22834:22851   */\n      mul\n        /* \"#utility.yul\":22826:22851   */\n      swap1\n      pop\n        /* \"#utility.yul\":22906:22910   */\n      0x20\n        /* \"#utility.yul\":22900:22904   */\n      dup2\n        /* \"#utility.yul\":22896:22911   */\n      add\n        /* \"#utility.yul\":22888:22911   */\n      swap1\n      pop\n        /* \"#utility.yul\":22607:22918   */\n      swap2\n      swap1\n      pop\n      jump\t// out\n        /* \"#utility.yul\":22924:23235   */\n    tag_232:\n        /* \"#utility.yul\":23001:23005   */\n      0x00\n        /* \"#utility.yul\":23091:23109   */\n      0xffffffffffffffff\n        /* \"#utility.yul\":23083:23089   */\n      dup3\n        /* \"#utility.yul\":23080:23110   */\n      gt\n        /* \"#utility.yul\":23077:23133   */\n      iszero\n      tag_478\n      jumpi\n        /* \"#utility.yul\":23113:23131   */\n      tag_479\n      tag_473\n      jump\t// in\n    tag_479:\n        /* \"#utility.yul\":23077:23133   */\n    tag_478:\n        /* \"#utility.yul\":23163:23167   */\n      0x20\n        /* \"#utility.yul\":23155:23161   */\n      dup3\n        /* \"#utility.yul\":23151:23168   */\n      mul\n        /* \"#utility.yul\":23143:23168   */\n      swap1\n      pop\n        /* \"#utility.yul\":23223:23227   */\n      0x20\n        /* \"#utility.yul\":23217:23221   */\n      dup2\n        /* \"#utility.yul\":23213:23228   */\n      add\n        /* \"#utility.yul\":23205:23228   */\n      swap1\n      pop\n        /* \"#utility.yul\":22924:23235   */\n      swap2\n      swap1\n      pop\n      jump\t// out\n        /* \"#utility.yul\":23241:23339   */\n    tag_339:\n        /* \"#utility.yul\":23292:23298   */\n      0x00\n        /* \"#utility.yul\":23326:23331   */\n      dup2\n        /* \"#utility.yul\":23320:23332   */\n      mload\n        /* \"#utility.yul\":23310:23332   */\n      swap1\n      pop\n        /* \"#utility.yul\":23241:23339   */\n      swap2\n      swap1\n      pop\n      jump\t// out\n        /* \"#utility.yul\":23345:23444   */\n    tag_351:\n        /* \"#utility.yul\":23397:23403   */\n      0x00\n        /* \"#utility.yul\":23431:23436   */\n      dup2\n        /* \"#utility.yul\":23425:23437   */\n      mload\n        /* \"#utility.yul\":23415:23437   */\n      swap1\n      pop\n        /* \"#utility.yul\":23345:23444   */\n      swap2\n      swap1\n      pop\n      jump\t// out\n        /* \"#utility.yul\":23450:23597   */\n    tag_341:\n        /* \"#utility.yul\":23551:23562   */\n      0x00\n        /* \"#utility.yul\":23588:23591   */\n      dup2\n        /* \"#utility.yul\":23573:23591   */\n      swap1\n      pop\n        /* \"#utility.yul\":23450:23597   */\n      swap3\n      swap2\n      pop\n      pop\n      jump\t// out\n        /* \"#utility.yul\":23603:23772   */\n    tag_353:\n        /* \"#utility.yul\":23687:23698   */\n      0x00\n        /* \"#utility.yul\":23721:23727   */\n      dup3\n        /* \"#utility.yul\":23716:23719   */\n      dup3\n        /* \"#utility.yul\":23709:23728   */\n      mstore\n        /* \"#utility.yul\":23761:23765   */\n      0x20\n        /* \"#utility.yul\":23756:23759   */\n      dup3\n        /* \"#utility.yul\":23752:23766   */\n      add\n        /* \"#utility.yul\":23737:23766   */\n      swap1\n      pop\n        /* \"#utility.yul\":23603:23772   */\n      swap3\n      swap2\n      pop\n      pop\n      jump\t// out\n        /* \"#utility.yul\":23778:24083   */\n    tag_137:\n        /* \"#utility.yul\":23818:23821   */\n      0x00\n        /* \"#utility.yul\":23837:23857   */\n      tag_485\n        /* \"#utility.yul\":23855:23856   */\n      dup3\n        /* \"#utility.yul\":23837:23857   */\n      tag_405\n      jump\t// in\n    tag_485:\n        /* \"#utility.yul\":23832:23857   */\n      swap2\n      pop\n        /* \"#utility.yul\":23871:23891   */\n      tag_486\n        /* \"#utility.yul\":23889:23890   */\n      dup4\n        /* \"#utility.yul\":23871:23891   */\n      tag_405\n      jump\t// in\n    tag_486:\n        /* \"#utility.yul\":23866:23891   */\n      swap3\n      pop\n        /* \"#utility.yul\":24025:24026   */\n      dup3\n        /* \"#utility.yul\":23957:24023   */\n      0xffffffffffffffffffffffffffffffffffffffffffffffffffffffffffffffff\n        /* \"#utility.yul\":23953:24027   */\n      sub\n        /* \"#utility.yul\":23950:23951   */\n      dup3\n        /* \"#utility.yul\":23947:24028   */\n      gt\n        /* \"#utility.yul\":23944:24051   */\n      iszero\n      tag_487\n      jumpi\n        /* \"#utility.yul\":24031:24049   */\n      tag_488\n      tag_489\n      jump\t// in\n    tag_488:\n        /* \"#utility.yul\":23944:24051   */\n    tag_487:\n        /* \"#utility.yul\":24075:24076   */\n      dup3\n        /* \"#utility.yul\":24072:24073   */\n      dup3\n        /* \"#utility.yul\":24068:24077   */\n      add\n        /* \"#utility.yul\":24061:24077   */\n      swap1\n      pop\n        /* \"#utility.yul\":23778:24083   */\n      swap3\n      swap2\n      pop\n      pop\n      jump\t// out\n        /* \"#utility.yul\":24089:24185   */\n    tag_317:\n        /* \"#utility.yul\":24126:24133   */\n      0x00\n        /* \"#utility.yul\":24155:24179   */\n      tag_491\n        /* \"#utility.yul\":24173:24178   */\n      dup3\n        /* \"#utility.yul\":24155:24179   */\n      tag_492\n      jump\t// in\n    tag_491:\n        /* \"#utility.yul\":24144:24179   */\n      swap1\n      pop\n        /* \"#utility.yul\":24089:24185   */\n      swap2\n      swap1\n      pop\n      jump\t// out\n        /* \"#utility.yul\":24191:24281   */\n    tag_326:\n        /* \"#utility.yul\":24225:24232   */\n      0x00\n        /* \"#utility.yul\":24268:24273   */\n      dup2\n        /* \"#utility.yul\":24261:24274   */\n      iszero\n        /* \"#utility.yul\":24254:24275   */\n      iszero\n        /* \"#utility.yul\":24243:24275   */\n      swap1\n      pop\n        /* \"#utility.yul\":24191:24281   */\n      swap2\n      swap1\n      pop\n      jump\t// out\n        /* \"#utility.yul\":24287:24364   */\n    tag_330:\n        /* \"#utility.yul\":24324:24331   */\n      0x00\n        /* \"#utility.yul\":24353:24358   */\n      dup2\n        /* \"#utility.yul\":24342:24358   */\n      swap1\n      pop\n        /* \"#utility.yul\":24287:24364   */\n      swap2\n      swap1\n      pop\n      jump\t// out\n        /* \"#utility.yul\":24370:24496   */\n    tag_492:\n        /* \"#utility.yul\":24407:24414   */\n      0x00\n        /* \"#utility.yul\":24447:24489   */\n      0xffffffffffffffffffffffffffffffffffffffff\n        /* \"#utility.yul\":24440:24445   */\n      dup3\n        /* \"#utility.yul\":24436:24490   */\n      and\n        /* \"#utility.yul\":24425:24490   */\n      swap1\n      pop\n        /* \"#utility.yul\":24370:24496   */\n      swap2\n      swap1\n      pop\n      jump\t// out\n        /* \"#utility.yul\":24502:24579   */\n    tag_405:\n        /* \"#utility.yul\":24539:24546   */\n      0x00\n        /* \"#utility.yul\":24568:24573   */\n      dup2\n        /* \"#utility.yul\":24557:24573   */\n      swap1\n      pop\n        /* \"#utility.yul\":24502:24579   */\n      swap2\n      swap1\n      pop\n      jump\t// out\n        /* \"#utility.yul\":24585:24725   */\n    tag_347:\n        /* \"#utility.yul\":24649:24658   */\n      0x00\n        /* \"#utility.yul\":24682:24719   */\n      tag_498\n        /* \"#utility.yul\":24713:24718   */\n      dup3\n        /* \"#utility.yul\":24682:24719   */\n      tag_499\n      jump\t// in\n    tag_498:\n        /* \"#utility.yul\":24669:24719   */\n      swap1\n      pop\n        /* \"#utility.yul\":24585:24725   */\n      swap2\n      swap1\n      pop\n      jump\t// out\n        /* \"#utility.yul\":24731:24857   */\n    tag_499:\n        /* \"#utility.yul\":24781:24790   */\n      0x00\n        /* \"#utility.yul\":24814:24851   */\n      tag_501\n        /* \"#utility.yul\":24845:24850   */\n      dup3\n        /* \"#utility.yul\":24814:24851   */\n      tag_502\n      jump\t// in\n    tag_501:\n        /* \"#utility.yul\":24801:24851   */\n      swap1\n      pop\n        /* \"#utility.yul\":24731:24857   */\n      swap2\n      swap1\n      pop\n      jump\t// out\n        /* \"#utility.yul\":24863:24976   */\n    tag_502:\n        /* \"#utility.yul\":24913:24922   */\n      0x00\n        /* \"#utility.yul\":24946:24970   */\n      tag_504\n        /* \"#utility.yul\":24964:24969   */\n      dup3\n        /* \"#utility.yul\":24946:24970   */\n      tag_492\n      jump\t// in\n    tag_504:\n        /* \"#utility.yul\":24933:24970   */\n      swap1\n      pop\n        /* \"#utility.yul\":24863:24976   */\n      swap2\n      swap1\n      pop\n      jump\t// out\n        /* \"#utility.yul\":24982:25289   */\n    tag_343:\n        /* \"#utility.yul\":25050:25051   */\n      0x00\n        /* \"#utility.yul\":25060:25173   */\n    tag_506:\n        /* \"#utility.yul\":25074:25080   */\n      dup4\n        /* \"#utility.yul\":25071:25072   */\n      dup2\n        /* \"#utility.yul\":25068:25081   */\n      lt\n        /* \"#utility.yul\":25060:25173   */\n      iszero\n      tag_508\n      jumpi\n        /* \"#utility.yul\":25159:25160   */\n      dup1\n        /* \"#utility.yul\":25154:25157   */\n      dup3\n        /* \"#utility.yul\":25150:25161   */\n      add\n        /* \"#utility.yul\":25144:25162   */\n      mload\n        /* \"#utility.yul\":25140:25141   */\n      dup2\n        /* \"#utility.yul\":25135:25138   */\n      dup5\n        /* \"#utility.yul\":25131:25142   */\n      add\n        /* \"#utility.yul\":25124:25163   */\n      mstore\n        /* \"#utility.yul\":25096:25098   */\n      0x20\n        /* \"#utility.yul\":25093:25094   */\n      dup2\n        /* \"#utility.yul\":25089:25099   */\n      add\n        /* \"#utility.yul\":25084:25099   */\n      swap1\n      pop\n        /* \"#utility.yul\":25060:25173   */\n      jump(tag_506)\n    tag_508:\n        /* \"#utility.yul\":25191:25197   */\n      dup4\n        /* \"#utility.yul\":25188:25189   */\n      dup2\n        /* \"#utility.yul\":25185:25198   */\n      gt\n        /* \"#utility.yul\":25182:25283   */\n      iszero\n      tag_509\n      jumpi\n        /* \"#utility.yul\":25271:25272   */\n      0x00\n        /* \"#utility.yul\":25262:25268   */\n      dup5\n        /* \"#utility.yul\":25257:25260   */\n      dup5\n        /* \"#utility.yul\":25253:25269   */\n      add\n        /* \"#utility.yul\":25246:25273   */\n      mstore\n        /* \"#utility.yul\":25182:25283   */\n    tag_509:\n        /* \"#utility.yul\":25031:25289   */\n      pop\n        /* \"#utility.yul\":24982:25289   */\n      pop\n      pop\n      pop\n      jump\t// out\n        /* \"#utility.yul\":25295:25576   */\n    tag_468:\n        /* \"#utility.yul\":25378:25405   */\n      tag_511\n        /* \"#utility.yul\":25400:25404   */\n      dup3\n        /* \"#utility.yul\":25378:25405   */\n      tag_356\n      jump\t// in\n    tag_511:\n        /* \"#utility.yul\":25370:25376   */\n      dup2\n        /* \"#utility.yul\":25366:25406   */\n      add\n        /* \"#utility.yul\":25508:25514   */\n      dup2\n        /* \"#utility.yul\":25496:25506   */\n      dup2\n        /* \"#utility.yul\":25493:25515   */\n      lt\n        /* \"#utility.yul\":25472:25490   */\n      0xffffffffffffffff\n        /* \"#utility.yul\":25460:25470   */\n      dup3\n        /* \"#utility.yul\":25457:25491   */\n      gt\n        /* \"#utility.yul\":25454:25516   */\n      or\n        /* \"#utility.yul\":25451:25539   */\n      iszero\n      tag_512\n      jumpi\n        /* \"#utility.yul\":25519:25537   */\n      tag_513\n      tag_473\n      jump\t// in\n    tag_513:\n        /* \"#utility.yul\":25451:25539   */\n    tag_512:\n        /* \"#utility.yul\":25559:25569   */\n      dup1\n        /* \"#utility.yul\":25555:25557   */\n      0x40\n        /* \"#utility.yul\":25548:25570   */\n      mstore\n        /* \"#utility.yul\":25338:25576   */\n      pop\n        /* \"#utility.yul\":25295:25576   */\n      pop\n      pop\n      jump\t// out\n        /* \"#utility.yul\":25582:25815   */\n    tag_97:\n        /* \"#utility.yul\":25621:25624   */\n      0x00\n        /* \"#utility.yul\":25644:25668   */\n      tag_515\n        /* \"#utility.yul\":25662:25667   */\n      dup3\n        /* \"#utility.yul\":25644:25668   */\n      tag_405\n      jump\t// in\n    tag_515:\n        /* \"#utility.yul\":25635:25668   */\n      swap2\n      pop\n        /* \"#utility.yul\":25690:25756   */\n      0xffffffffffffffffffffffffffffffffffffffffffffffffffffffffffffffff\n        /* \"#utility.yul\":25683:25688   */\n      dup3\n        /* \"#utility.yul\":25680:25757   */\n      eq\n        /* \"#utility.yul\":25677:25780   */\n      iszero\n      tag_516\n      jumpi\n        /* \"#utility.yul\":25760:25778   */\n      tag_517\n      tag_489\n      jump\t// in\n    tag_517:\n        /* \"#utility.yul\":25677:25780   */\n    tag_516:\n        /* \"#utility.yul\":25807:25808   */\n      0x01\n        /* \"#utility.yul\":25800:25805   */\n      dup3\n        /* \"#utility.yul\":25796:25809   */\n      add\n        /* \"#utility.yul\":25789:25809   */\n      swap1\n      pop\n        /* \"#utility.yul\":25582:25815   */\n      swap2\n      swap1\n      pop\n      jump\t// out\n        /* \"#utility.yul\":25821:25921   */\n    tag_322:\n        /* \"#utility.yul\":25860:25867   */\n      0x00\n        /* \"#utility.yul\":25889:25915   */\n      tag_519\n        /* \"#utility.yul\":25909:25914   */\n      dup3\n        /* \"#utility.yul\":25889:25915   */\n      tag_520\n      jump\t// in\n    tag_519:\n        /* \"#utility.yul\":25878:25915   */\n      swap1\n      pop\n        /* \"#utility.yul\":25821:25921   */\n      swap2\n      swap1\n      pop\n      jump\t// out\n        /* \"#utility.yul\":25927:26006   */\n    tag_335:\n        /* \"#utility.yul\":25966:25973   */\n      0x00\n        /* \"#utility.yul\":25995:26000   */\n      dup2\n        /* \"#utility.yul\":25984:26000   */\n      swap1\n      pop\n        /* \"#utility.yul\":25927:26006   */\n      swap2\n      swap1\n      pop\n      jump\t// out\n        /* \"#utility.yul\":26012:26106   */\n    tag_520:\n        /* \"#utility.yul\":26051:26058   */\n      0x00\n        /* \"#utility.yul\":26080:26100   */\n      tag_523\n        /* \"#utility.yul\":26094:26099   */\n      dup3\n        /* \"#utility.yul\":26080:26100   */\n      tag_524\n      jump\t// in\n    tag_523:\n        /* \"#utility.yul\":26069:26100   */\n      swap1\n      pop\n        /* \"#utility.yul\":26012:26106   */\n      swap2\n      swap1\n      pop\n      jump\t// out\n        /* \"#utility.yul\":26112:26191   */\n    tag_410:\n        /* \"#utility.yul\":26151:26158   */\n      0x00\n        /* \"#utility.yul\":26180:26185   */\n      dup2\n        /* \"#utility.yul\":26169:26185   */\n      swap1\n      pop\n        /* \"#utility.yul\":26112:26191   */\n      swap2\n      swap1\n      pop\n      jump\t// out\n        /* \"#utility.yul\":26197:26377   */\n    tag_489:\n        /* \"#utility.yul\":26245:26322   */\n      0x4e487b7100000000000000000000000000000000000000000000000000000000\n        /* \"#utility.yul\":26242:26243   */\n      0x00\n        /* \"#utility.yul\":26235:26323   */\n      mstore\n        /* \"#utility.yul\":26342:26346   */\n      0x11\n        /* \"#utility.yul\":26339:26340   */\n      0x04\n        /* \"#utility.yul\":26332:26347   */\n      mstore\n        /* \"#utility.yul\":26366:26370   */\n      0x24\n        /* \"#utility.yul\":26363:26364   */\n      0x00\n        /* \"#utility.yul\":26356:26371   */\n      revert\n        /* \"#utility.yul\":26383:26563   */\n    tag_88:\n        /* \"#utility.yul\":26431:26508   */\n      0x4e487b7100000000000000000000000000000000000000000000000000000000\n        /* \"#utility.yul\":26428:26429   */\n      0x00\n        /* \"#utility.yul\":26421:26509   */\n      mstore\n        /* \"#utility.yul\":26528:26532   */\n      0x32\n        /* \"#utility.yul\":26525:26526   */\n      0x04\n        /* \"#utility.yul\":26518:26533   */\n      mstore\n        /* \"#utility.yul\":26552:26556   */\n      0x24\n        /* \"#utility.yul\":26549:26550   */\n      0x00\n        /* \"#utility.yul\":26542:26557   */\n      revert\n        /* \"#utility.yul\":26569:26749   */\n    tag_473:\n        /* \"#utility.yul\":26617:26694   */\n      0x4e487b7100000000000000000000000000000000000000000000000000000000\n        /* \"#utility.yul\":26614:26615   */\n      0x00\n        /* \"#utility.yul\":26607:26695   */\n      mstore\n        /* \"#utility.yul\":26714:26718   */\n      0x41\n        /* \"#utility.yul\":26711:26712   */\n      0x04\n        /* \"#utility.yul\":26704:26719   */\n      mstore\n        /* \"#utility.yul\":26738:26742   */\n      0x24\n        /* \"#utility.yul\":26735:26736   */\n      0x00\n        /* \"#utility.yul\":26728:26743   */\n      revert\n        /* \"#utility.yul\":26755:26872   */\n    tag_213:\n        /* \"#utility.yul\":26864:26865   */\n      0x00\n        /* \"#utility.yul\":26861:26862   */\n      dup1\n        /* \"#utility.yul\":26854:26866   */\n      revert\n        /* \"#utility.yul\":26878:26995   */\n    tag_207:\n        /* \"#utility.yul\":26987:26988   */\n      0x00\n        /* \"#utility.yul\":26984:26985   */\n      dup1\n        /* \"#utility.yul\":26977:26989   */\n      revert\n        /* \"#utility.yul\":27001:27118   */\n    tag_279:\n        /* \"#utility.yul\":27110:27111   */\n      0x00\n        /* \"#utility.yul\":27107:27108   */\n      dup1\n        /* \"#utility.yul\":27100:27112   */\n      revert\n        /* \"#utility.yul\":27124:27241   */\n    tag_271:\n        /* \"#utility.yul\":27233:27234   */\n      0x00\n        /* \"#utility.yul\":27230:27231   */\n      dup1\n        /* \"#utility.yul\":27223:27235   */\n      revert\n        /* \"#utility.yul\":27247:27349   */\n    tag_356:\n        /* \"#utility.yul\":27288:27294   */\n      0x00\n        /* \"#utility.yul\":27339:27341   */\n      0x1f\n        /* \"#utility.yul\":27335:27342   */\n      not\n        /* \"#utility.yul\":27330:27332   */\n      0x1f\n        /* \"#utility.yul\":27323:27328   */\n      dup4\n        /* \"#utility.yul\":27319:27333   */\n      add\n        /* \"#utility.yul\":27315:27343   */\n      and\n        /* \"#utility.yul\":27305:27343   */\n      swap1\n      pop\n        /* \"#utility.yul\":27247:27349   */\n      swap2\n      swap1\n      pop\n      jump\t// out\n        /* \"#utility.yul\":27355:27449   */\n    tag_524:\n        /* \"#utility.yul\":27388:27396   */\n      0x00\n        /* \"#utility.yul\":27436:27441   */\n      dup2\n        /* \"#utility.yul\":27432:27434   */\n      0x60\n        /* \"#utility.yul\":27428:27442   */\n      shl\n        /* \"#utility.yul\":27407:27442   */\n      swap1\n      pop\n        /* \"#utility.yul\":27355:27449   */\n      swap2\n      swap1\n      pop\n      jump\t// out\n        /* \"#utility.yul\":27455:27633   */\n    tag_361:\n        /* \"#utility.yul\":27595:27625   */\n      0x5765656b2063616e6e6f7420626520696e207468652066757475726500000000\n        /* \"#utility.yul\":27591:27592   */\n      0x00\n        /* \"#utility.yul\":27583:27589   */\n      dup3\n        /* \"#utility.yul\":27579:27593   */\n      add\n        /* \"#utility.yul\":27572:27626   */\n      mstore\n        /* \"#utility.yul\":27455:27633   */\n      pop\n      jump\t// out\n        /* \"#utility.yul\":27639:27811   */\n    tag_366:\n        /* \"#utility.yul\":27779:27803   */\n      0x496e636f7272656374206d65726b6c652070726f6f6600000000000000000000\n        /* \"#utility.yul\":27775:27776   */\n      0x00\n        /* \"#utility.yul\":27767:27773   */\n      dup3\n        /* \"#utility.yul\":27763:27777   */\n      add\n        /* \"#utility.yul\":27756:27804   */\n      mstore\n        /* \"#utility.yul\":27639:27811   */\n      pop\n      jump\t// out\n        /* \"#utility.yul\":27817:27994   */\n    tag_371:\n        /* \"#utility.yul\":27957:27986   */\n      0x536166654d6174683a206164646974696f6e206f766572666c6f770000000000\n        /* \"#utility.yul\":27953:27954   */\n      0x00\n        /* \"#utility.yul\":27945:27951   */\n      dup3\n        /* \"#utility.yul\":27941:27955   */\n      add\n        /* \"#utility.yul\":27934:27987   */\n      mstore\n        /* \"#utility.yul\":27817:27994   */\n      pop\n      jump\t// out\n        /* \"#utility.yul\":28000:28225   */\n    tag_376:\n        /* \"#utility.yul\":28140:28174   */\n      0x416464726573733a20696e73756666696369656e742062616c616e636520666f\n        /* \"#utility.yul\":28136:28137   */\n      0x00\n        /* \"#utility.yul\":28128:28134   */\n      dup3\n        /* \"#utility.yul\":28124:28138   */\n      add\n        /* \"#utility.yul\":28117:28175   */\n      mstore\n        /* \"#utility.yul\":28209:28217   */\n      0x722063616c6c0000000000000000000000000000000000000000000000000000\n        /* \"#utility.yul\":28204:28206   */\n      0x20\n        /* \"#utility.yul\":28196:28202   */\n      dup3\n        /* \"#utility.yul\":28192:28207   */\n      add\n        /* \"#utility.yul\":28185:28218   */\n      mstore\n        /* \"#utility.yul\":28000:28225   */\n      pop\n      jump\t// out\n        /* \"#utility.yul\":28231:28479   */\n    tag_381:\n        /* \"#utility.yul\":28371:28405   */\n      0x4e6f2062616c616e636520776f756c64206265207472616e7366657272656420\n        /* \"#utility.yul\":28367:28368   */\n      0x00\n        /* \"#utility.yul\":28359:28365   */\n      dup3\n        /* \"#utility.yul\":28355:28369   */\n      add\n        /* \"#utility.yul\":28348:28406   */\n      mstore\n        /* \"#utility.yul\":28440:28471   */\n      0x2d206e6f7420676f696e6720746f20776173746520796f757220676173000000\n        /* \"#utility.yul\":28435:28437   */\n      0x20\n        /* \"#utility.yul\":28427:28433   */\n      dup3\n        /* \"#utility.yul\":28423:28438   */\n      add\n        /* \"#utility.yul\":28416:28472   */\n      mstore\n        /* \"#utility.yul\":28231:28479   */\n      pop\n      jump\t// out\n        /* \"#utility.yul\":28485:28657   */\n    tag_386:\n        /* \"#utility.yul\":28625:28649   */\n      0x4c502068617320616c726561647920636c61696d656400000000000000000000\n        /* \"#utility.yul\":28621:28622   */\n      0x00\n        /* \"#utility.yul\":28613:28619   */\n      dup3\n        /* \"#utility.yul\":28609:28623   */\n      add\n        /* \"#utility.yul\":28602:28650   */\n      mstore\n        /* \"#utility.yul\":28485:28657   */\n      pop\n      jump\t// out\n        /* \"#utility.yul\":28663:28842   */\n    tag_391:\n        /* \"#utility.yul\":28803:28834   */\n      0x416464726573733a2063616c6c20746f206e6f6e2d636f6e7472616374000000\n        /* \"#utility.yul\":28799:28800   */\n      0x00\n        /* \"#utility.yul\":28791:28797   */\n      dup3\n        /* \"#utility.yul\":28787:28801   */\n      add\n        /* \"#utility.yul\":28780:28835   */\n      mstore\n        /* \"#utility.yul\":28663:28842   */\n      pop\n      jump\t// out\n        /* \"#utility.yul\":28848:29016   */\n    tag_396:\n        /* \"#utility.yul\":28988:29008   */\n      0x4d69736d61746368696e6720696e707574730000000000000000000000000000\n        /* \"#utility.yul\":28984:28985   */\n      0x00\n        /* \"#utility.yul\":28976:28982   */\n      dup3\n        /* \"#utility.yul\":28972:28986   */\n      add\n        /* \"#utility.yul\":28965:29009   */\n      mstore\n        /* \"#utility.yul\":28848:29016   */\n      pop\n      jump\t// out\n        /* \"#utility.yul\":29022:29251   */\n    tag_401:\n        /* \"#utility.yul\":29162:29196   */\n      0x5361666545524332303a204552433230206f7065726174696f6e20646964206e\n        /* \"#utility.yul\":29158:29159   */\n      0x00\n        /* \"#utility.yul\":29150:29156   */\n      dup3\n        /* \"#utility.yul\":29146:29160   */\n      add\n        /* \"#utility.yul\":29139:29197   */\n      mstore\n        /* \"#utility.yul\":29231:29243   */\n      0x6f74207375636365656400000000000000000000000000000000000000000000\n        /* \"#utility.yul\":29226:29228   */\n      0x20\n        /* \"#utility.yul\":29218:29224   */\n      dup3\n        /* \"#utility.yul\":29214:29229   */\n      add\n        /* \"#utility.yul\":29207:29244   */\n      mstore\n        /* \"#utility.yul\":29022:29251   */\n      pop\n      jump\t// out\n        /* \"#utility.yul\":29257:29379   */\n    tag_243:\n        /* \"#utility.yul\":29330:29354   */\n      tag_545\n        /* \"#utility.yul\":29348:29353   */\n      dup2\n        /* \"#utility.yul\":29330:29354   */\n      tag_317\n      jump\t// in\n    tag_545:\n        /* \"#utility.yul\":29323:29328   */\n      dup2\n        /* \"#utility.yul\":29320:29355   */\n      eq\n        /* \"#utility.yul\":29310:29373   */\n      tag_546\n      jumpi\n        /* \"#utility.yul\":29369:29370   */\n      0x00\n        /* \"#utility.yul\":29366:29367   */\n      dup1\n        /* \"#utility.yul\":29359:29371   */\n      revert\n        /* \"#utility.yul\":29310:29373   */\n    tag_546:\n        /* \"#utility.yul\":29257:29379   */\n      pop\n      jump\t// out\n        /* \"#utility.yul\":29385:29501   */\n    tag_261:\n        /* \"#utility.yul\":29455:29476   */\n      tag_548\n        /* \"#utility.yul\":29470:29475   */\n      dup2\n        /* \"#utility.yul\":29455:29476   */\n      tag_326\n      jump\t// in\n    tag_548:\n        /* \"#utility.yul\":29448:29453   */\n      dup2\n        /* \"#utility.yul\":29445:29477   */\n      eq\n        /* \"#utility.yul\":29435:29495   */\n      tag_549\n      jumpi\n        /* \"#utility.yul\":29491:29492   */\n      0x00\n        /* \"#utility.yul\":29488:29489   */\n      dup1\n        /* \"#utility.yul\":29481:29493   */\n      revert\n        /* \"#utility.yul\":29435:29495   */\n    tag_549:\n        /* \"#utility.yul\":29385:29501   */\n      pop\n      jump\t// out\n        /* \"#utility.yul\":29507:29629   */\n    tag_264:\n        /* \"#utility.yul\":29580:29604   */\n      tag_551\n        /* \"#utility.yul\":29598:29603   */\n      dup2\n        /* \"#utility.yul\":29580:29604   */\n      tag_330\n      jump\t// in\n    tag_551:\n        /* \"#utility.yul\":29573:29578   */\n      dup2\n        /* \"#utility.yul\":29570:29605   */\n      eq\n        /* \"#utility.yul\":29560:29623   */\n      tag_552\n      jumpi\n        /* \"#utility.yul\":29619:29620   */\n      0x00\n        /* \"#utility.yul\":29616:29617   */\n      dup1\n        /* \"#utility.yul\":29609:29621   */\n      revert\n        /* \"#utility.yul\":29560:29623   */\n    tag_552:\n        /* \"#utility.yul\":29507:29629   */\n      pop\n      jump\t// out\n        /* \"#utility.yul\":29635:29757   */\n    tag_267:\n        /* \"#utility.yul\":29708:29732   */\n      tag_554\n        /* \"#utility.yul\":29726:29731   */\n      dup2\n        /* \"#utility.yul\":29708:29732   */\n      tag_405\n      jump\t// in\n    tag_554:\n        /* \"#utility.yul\":29701:29706   */\n      dup2\n        /* \"#utility.yul\":29698:29733   */\n      eq\n        /* \"#utility.yul\":29688:29751   */\n      tag_555\n      jumpi\n        /* \"#utility.yul\":29747:29748   */\n      0x00\n        /* \"#utility.yul\":29744:29745   */\n      dup1\n        /* \"#utility.yul\":29737:29749   */\n      revert\n        /* \"#utility.yul\":29688:29751   */\n    tag_555:\n        /* \"#utility.yul\":29635:29757   */\n      pop\n      jump\t// out\n\n    auxdata: 0xa2646970667358221220b5b810306b6ac552952c6b80829d691b31decf6a99fdeecd40da48c67442ef6e64736f6c63430008070033\n}\n",
				"bytecode": {
					"linkReferences": {},
					"object": "60806040523480156200001157600080fd5b5060405162001fb838038062001fb88339818101604052810190620000379190620000d6565b336000806101000a81548173ffffffffffffffffffffffffffffffffffffffff021916908373ffffffffffffffffffffffffffffffffffffffff16021790555080600160006101000a81548173ffffffffffffffffffffffffffffffffffffffff021916908373ffffffffffffffffffffffffffffffffffffffff160217905550506200016f565b600081519050620000d08162000155565b92915050565b600060208284031215620000ef57620000ee62000150565b5b6000620000ff84828501620000bf565b91505092915050565b6000620001158262000130565b9050919050565b6000620001298262000108565b9050919050565b600073ffffffffffffffffffffffffffffffffffffffff82169050919050565b600080fd5b62000160816200011c565b81146200016c57600080fd5b50565b611e39806200017f6000396000f3fe608060405234801561001057600080fd5b50600436106100a95760003560e01c8063ba59371411610071578063ba59371414610178578063d5efd20a14610194578063eb0d07f5146101b0578063ebf04917146101e0578063f2fde38b146101fe578063fc0c546a1461021a576100a9565b8063120aa877146100ae57806358b4e4b4146100de57806365ef53b1146100fa57806371c5ecb11461012a5780638da5cb5b1461015a575b600080fd5b6100c860048036038101906100c391906112ec565b610238565b6040516100d59190611682565b60405180910390f35b6100f860048036038101906100f391906111cf565b610267565b005b610114600480360381019061010f919061127f565b610283565b6040516101219190611815565b60405180910390f35b610144600480360381019061013f91906112bf565b6103a7565b604051610151919061169d565b60405180910390f35b6101626103bf565b60405161016f91906115d0565b60405180910390f35b610192600480360381019061018d9190611114565b6103e3565b005b6101ae60048036038101906101a991906112bf565b6104f3565b005b6101ca60048036038101906101c591906111cf565b6105a0565b6040516101d79190611682565b60405180910390f35b6101e86105b8565b6040516101f59190611815565b60405180910390f35b610218600480360381019061021391906110e7565b6105be565b005b61022261070d565b60405161022f91906116b8565b60405180910390f35b60036020528160005260406000206020528060005260406000206000915091509054906101000a900460ff1681565b61027384848484610733565b61027d848361090a565b50505050565b60008060009054906101000a900473ffffffffffffffffffffffffffffffffffffffff1673ffffffffffffffffffffffffffffffffffffffff163373ffffffffffffffffffffffffffffffffffffffff16146102de57600080fd5b61032d333084600160009054906101000a900473ffffffffffffffffffffffffffffffffffffffff1673ffffffffffffffffffffffffffffffffffffffff166109a4909392919063ffffffff16565b60045490508260026000838152602001908152602001600020819055506103606001600454610a2d90919063ffffffff16565b6004819055507f5c8770684b8f82e9ade880fb05ccfb53c969170cd40e9746a3703f241c9023ec81848460405161039993929190611830565b60405180910390a192915050565b60026020528060005260406000206000915090505481565b60008054906101000a900473ffffffffffffffffffffffffffffffffffffffff1681565b6000835190508251811480156103f95750815181145b610438576040517f08c379a000000000000000000000000000000000000000000000000000000000815260040161042f906117d5565b60405180910390fd5b6000805b828110156104e05761049e8787838151811061045b5761045a611b34565b5b602002602001015187848151811061047657610475611b34565b5b602002602001015187858151811061049157610490611b34565b5b6020026020010151610733565b6104cb8582815181106104b4576104b3611b34565b5b602002602001015183610a2d90919063ffffffff16565b915080806104d890611a84565b91505061043c565b506104eb868261090a565b505050505050565b60008054906101000a900473ffffffffffffffffffffffffffffffffffffffff1673ffffffffffffffffffffffffffffffffffffffff163373ffffffffffffffffffffffffffffffffffffffff161461054b57600080fd5b6000801b60026000838152602001908152602001600020819055507fcc071cbd9ae50a4c78d1153b76bd2d46ba8d4c7662842718ec3de1d67a144daf816040516105959190611815565b60405180910390a150565b60006105ae85858585610a8b565b9050949350505050565b60045481565b60008054906101000a900473ffffffffffffffffffffffffffffffffffffffff1673ffffffffffffffffffffffffffffffffffffffff163373ffffffffffffffffffffffffffffffffffffffff161461061657600080fd5b600073ffffffffffffffffffffffffffffffffffffffff168173ffffffffffffffffffffffffffffffffffffffff16141561065057600080fd5b8073ffffffffffffffffffffffffffffffffffffffff1660008054906101000a900473ffffffffffffffffffffffffffffffffffffffff1673ffffffffffffffffffffffffffffffffffffffff167f8be0079c531659141344cd1fd0a4f28419497f9722a3daafe3b4186f6b6457e060405160405180910390a3806000806101000a81548173ffffffffffffffffffffffffffffffffffffffff021916908373ffffffffffffffffffffffffffffffffffffffff16021790555050565b600160009054906101000a900473ffffffffffffffffffffffffffffffffffffffff1681565b6004548310610777576040517f08c379a000000000000000000000000000000000000000000000000000000000815260040161076e906116f5565b60405180910390fd5b6003600084815260200190815260200160002060008573ffffffffffffffffffffffffffffffffffffffff1673ffffffffffffffffffffffffffffffffffffffff16815260200190815260200160002060009054906101000a900460ff1615610815576040517f08c379a000000000000000000000000000000000000000000000000000000000815260040161080c90611795565b60405180910390fd5b61082184848484610a8b565b610860576040517f08c379a000000000000000000000000000000000000000000000000000000000815260040161085790611715565b60405180910390fd5b60016003600085815260200190815260200160002060008673ffffffffffffffffffffffffffffffffffffffff1673ffffffffffffffffffffffffffffffffffffffff16815260200190815260200160002060006101000a81548160ff0219169083151502179055507f987d620f307ff6b94d58743cb7a7509f24071586a77759b77c2d4e29f75a2f9a8484846040516108fc9392919061164b565b60405180910390a150505050565b6000811115610965576109608282600160009054906101000a900473ffffffffffffffffffffffffffffffffffffffff1673ffffffffffffffffffffffffffffffffffffffff16610ae29092919063ffffffff16565b6109a0565b6040517f08c379a000000000000000000000000000000000000000000000000000000000815260040161099790611775565b60405180910390fd5b5050565b610a27846323b872dd60e01b8585856040516024016109c5939291906115eb565b604051602081830303815290604052907bffffffffffffffffffffffffffffffffffffffffffffffffffffffff19166020820180517bffffffffffffffffffffffffffffffffffffffffffffffffffffffff8381831617835250505050610b68565b50505050565b6000808284610a3c9190611942565b905083811015610a81576040517f08c379a0000000000000000000000000000000000000000000000000000000008152600401610a7890611735565b60405180910390fd5b8091505092915050565b6000808584604051602001610aa1929190611561565b604051602081830303815290604052805190602001209050610ad783600260008881526020019081526020016000205483610c2f565b915050949350505050565b610b638363a9059cbb60e01b8484604051602401610b01929190611622565b604051602081830303815290604052907bffffffffffffffffffffffffffffffffffffffffffffffffffffffff19166020820180517bffffffffffffffffffffffffffffffffffffffffffffffffffffffff8381831617835250505050610b68565b505050565b6000610bca826040518060400160405280602081526020017f5361666545524332303a206c6f772d6c6576656c2063616c6c206661696c65648152508573ffffffffffffffffffffffffffffffffffffffff16610ce59092919063ffffffff16565b9050600081511115610c2a5780806020019051810190610bea9190611252565b610c29576040517f08c379a0000000000000000000000000000000000000000000000000000000008152600401610c20906117f5565b60405180910390fd5b5b505050565b60008082905060005b8551811015610cd7576000868281518110610c5657610c55611b34565b5b60200260200101519050808311610c97578281604051602001610c7a92919061158d565b604051602081830303815290604052805190602001209250610cc3565b8083604051602001610caa92919061158d565b6040516020818303038152906040528051906020012092505b508080610ccf90611a84565b915050610c38565b508381149150509392505050565b6060610cf48484600085610cfd565b90509392505050565b606082471015610d42576040517f08c379a0000000000000000000000000000000000000000000000000000000008152600401610d3990611755565b60405180910390fd5b610d4b85610e11565b610d8a576040517f08c379a0000000000000000000000000000000000000000000000000000000008152600401610d81906117b5565b60405180910390fd5b6000808673ffffffffffffffffffffffffffffffffffffffff168587604051610db391906115b9565b60006040518083038185875af1925050503d8060008114610df0576040519150601f19603f3d011682016040523d82523d6000602084013e610df5565b606091505b5091509150610e05828286610e34565b92505050949350505050565b6000808273ffffffffffffffffffffffffffffffffffffffff163b119050919050565b60608315610e4457829050610e94565b600083511115610e575782518084602001fd5b816040517f08c379a0000000000000000000000000000000000000000000000000000000008152600401610e8b91906116d3565b60405180910390fd5b9392505050565b6000610eae610ea98461188c565b611867565b90508083825260208201905082856020860282011115610ed157610ed0611b97565b5b60005b85811015610f1f57813567ffffffffffffffff811115610ef757610ef6611b92565b5b808601610f04898261104c565b85526020850194506020840193505050600181019050610ed4565b5050509392505050565b6000610f3c610f37846118b8565b611867565b90508083825260208201905082856020860282011115610f5f57610f5e611b97565b5b60005b85811015610f8f5781610f7588826110bd565b845260208401935060208301925050600181019050610f62565b5050509392505050565b6000610fac610fa7846118e4565b611867565b90508083825260208201905082856020860282011115610fcf57610fce611b97565b5b60005b85811015610fff5781610fe588826110d2565b845260208401935060208301925050600181019050610fd2565b5050509392505050565b60008135905061101881611da7565b92915050565b600082601f83011261103357611032611b92565b5b8135611043848260208601610e9b565b91505092915050565b600082601f83011261106157611060611b92565b5b8135611071848260208601610f29565b91505092915050565b600082601f83011261108f5761108e611b92565b5b813561109f848260208601610f99565b91505092915050565b6000815190506110b781611dbe565b92915050565b6000813590506110cc81611dd5565b92915050565b6000813590506110e181611dec565b92915050565b6000602082840312156110fd576110fc611ba1565b5b600061110b84828501611009565b91505092915050565b6000806000806080858703121561112e5761112d611ba1565b5b600061113c87828801611009565b945050602085013567ffffffffffffffff81111561115d5761115c611b9c565b5b6111698782880161107a565b935050604085013567ffffffffffffffff81111561118a57611189611b9c565b5b6111968782880161107a565b925050606085013567ffffffffffffffff8111156111b7576111b6611b9c565b5b6111c38782880161101e565b91505092959194509250565b600080600080608085870312156111e9576111e8611ba1565b5b60006111f787828801611009565b9450506020611208878288016110d2565b9350506040611219878288016110d2565b925050606085013567ffffffffffffffff81111561123a57611239611b9c565b5b6112468782880161104c565b91505092959194509250565b60006020828403121561126857611267611ba1565b5b6000611276848285016110a8565b91505092915050565b6000806040838503121561129657611295611ba1565b5b60006112a4858286016110bd565b92505060206112b5858286016110d2565b9150509250929050565b6000602082840312156112d5576112d4611ba1565b5b60006112e3848285016110d2565b91505092915050565b6000806040838503121561130357611302611ba1565b5b6000611311858286016110d2565b925050602061132285828601611009565b9150509250929050565b61133581611998565b82525050565b61134c61134782611998565b611acd565b82525050565b61135b816119aa565b82525050565b61136a816119b6565b82525050565b61138161137c826119b6565b611adf565b82525050565b600061139282611910565b61139c8185611926565b93506113ac818560208601611a20565b80840191505092915050565b6113c1816119ea565b82525050565b60006113d28261191b565b6113dc8185611931565b93506113ec818560208601611a20565b6113f581611ba6565b840191505092915050565b600061140d601c83611931565b915061141882611bc4565b602082019050919050565b6000611430601683611931565b915061143b82611bed565b602082019050919050565b6000611453601b83611931565b915061145e82611c16565b602082019050919050565b6000611476602683611931565b915061148182611c3f565b604082019050919050565b6000611499603d83611931565b91506114a482611c8e565b604082019050919050565b60006114bc601683611931565b91506114c782611cdd565b602082019050919050565b60006114df601d83611931565b91506114ea82611d06565b602082019050919050565b6000611502601283611931565b915061150d82611d2f565b602082019050919050565b6000611525602a83611931565b915061153082611d58565b604082019050919050565b611544816119e0565b82525050565b61155b611556826119e0565b611afb565b82525050565b600061156d828561133b565b60148201915061157d828461154a565b6020820191508190509392505050565b60006115998285611370565b6020820191506115a98284611370565b6020820191508190509392505050565b60006115c58284611387565b915081905092915050565b60006020820190506115e5600083018461132c565b92915050565b6000606082019050611600600083018661132c565b61160d602083018561132c565b61161a604083018461153b565b949350505050565b6000604082019050611637600083018561132c565b611644602083018461153b565b9392505050565b6000606082019050611660600083018661132c565b61166d602083018561153b565b61167a604083018461153b565b949350505050565b60006020820190506116976000830184611352565b92915050565b60006020820190506116b26000830184611361565b92915050565b60006020820190506116cd60008301846113b8565b92915050565b600060208201905081810360008301526116ed81846113c7565b905092915050565b6000602082019050818103600083015261170e81611400565b9050919050565b6000602082019050818103600083015261172e81611423565b9050919050565b6000602082019050818103600083015261174e81611446565b9050919050565b6000602082019050818103600083015261176e81611469565b9050919050565b6000602082019050818103600083015261178e8161148c565b9050919050565b600060208201905081810360008301526117ae816114af565b9050919050565b600060208201905081810360008301526117ce816114d2565b9050919050565b600060208201905081810360008301526117ee816114f5565b9050919050565b6000602082019050818103600083015261180e81611518565b9050919050565b600060208201905061182a600083018461153b565b92915050565b6000606082019050611845600083018661153b565b6118526020830185611361565b61185f604083018461153b565b949350505050565b6000611871611882565b905061187d8282611a53565b919050565b6000604051905090565b600067ffffffffffffffff8211156118a7576118a6611b63565b5b602082029050602081019050919050565b600067ffffffffffffffff8211156118d3576118d2611b63565b5b602082029050602081019050919050565b600067ffffffffffffffff8211156118ff576118fe611b63565b5b602082029050602081019050919050565b600081519050919050565b600081519050919050565b600081905092915050565b600082825260208201905092915050565b600061194d826119e0565b9150611958836119e0565b9250827fffffffffffffffffffffffffffffffffffffffffffffffffffffffffffffffff0382111561198d5761198c611b05565b5b828201905092915050565b60006119a3826119c0565b9050919050565b60008115159050919050565b6000819050919050565b600073ffffffffffffffffffffffffffffffffffffffff82169050919050565b6000819050919050565b60006119f5826119fc565b9050919050565b6000611a0782611a0e565b9050919050565b6000611a19826119c0565b9050919050565b60005b83811015611a3e578082015181840152602081019050611a23565b83811115611a4d576000848401525b50505050565b611a5c82611ba6565b810181811067ffffffffffffffff82111715611a7b57611a7a611b63565b5b80604052505050565b6000611a8f826119e0565b91507fffffffffffffffffffffffffffffffffffffffffffffffffffffffffffffffff821415611ac257611ac1611b05565b5b600182019050919050565b6000611ad882611ae9565b9050919050565b6000819050919050565b6000611af482611bb7565b9050919050565b6000819050919050565b7f4e487b7100000000000000000000000000000000000000000000000000000000600052601160045260246000fd5b7f4e487b7100000000000000000000000000000000000000000000000000000000600052603260045260246000fd5b7f4e487b7100000000000000000000000000000000000000000000000000000000600052604160045260246000fd5b600080fd5b600080fd5b600080fd5b600080fd5b6000601f19601f8301169050919050565b60008160601b9050919050565b7f5765656b2063616e6e6f7420626520696e207468652066757475726500000000600082015250565b7f496e636f7272656374206d65726b6c652070726f6f6600000000000000000000600082015250565b7f536166654d6174683a206164646974696f6e206f766572666c6f770000000000600082015250565b7f416464726573733a20696e73756666696369656e742062616c616e636520666f60008201527f722063616c6c0000000000000000000000000000000000000000000000000000602082015250565b7f4e6f2062616c616e636520776f756c64206265207472616e736665727265642060008201527f2d206e6f7420676f696e6720746f20776173746520796f757220676173000000602082015250565b7f4c502068617320616c726561647920636c61696d656400000000000000000000600082015250565b7f416464726573733a2063616c6c20746f206e6f6e2d636f6e7472616374000000600082015250565b7f4d69736d61746368696e6720696e707574730000000000000000000000000000600082015250565b7f5361666545524332303a204552433230206f7065726174696f6e20646964206e60008201527f6f74207375636365656400000000000000000000000000000000000000000000602082015250565b611db081611998565b8114611dbb57600080fd5b50565b611dc7816119aa565b8114611dd257600080fd5b50565b611dde816119b6565b8114611de957600080fd5b50565b611df5816119e0565b8114611e0057600080fd5b5056fea2646970667358221220b5b810306b6ac552952c6b80829d691b31decf6a99fdeecd40da48c67442ef6e64736f6c63430008070033",
					"opcodes": "PUSH1 0x80 PUSH1 0x40 MSTORE CALLVALUE DUP1 ISZERO PUSH3 0x11 JUMPI PUSH1 0x0 DUP1 REVERT JUMPDEST POP PUSH1 0x40 MLOAD PUSH3 0x1FB8 CODESIZE SUB DUP1 PUSH3 0x1FB8 DUP4 CODECOPY DUP2 DUP2 ADD PUSH1 0x40 MSTORE DUP2 ADD SWAP1 PUSH3 0x37 SWAP2 SWAP1 PUSH3 0xD6 JUMP JUMPDEST CALLER PUSH1 0x0 DUP1 PUSH2 0x100 EXP DUP2 SLOAD DUP2 PUSH20 0xFFFFFFFFFFFFFFFFFFFFFFFFFFFFFFFFFFFFFFFF MUL NOT AND SWAP1 DUP4 PUSH20 0xFFFFFFFFFFFFFFFFFFFFFFFFFFFFFFFFFFFFFFFF AND MUL OR SWAP1 SSTORE POP DUP1 PUSH1 0x1 PUSH1 0x0 PUSH2 0x100 EXP DUP2 SLOAD DUP2 PUSH20 0xFFFFFFFFFFFFFFFFFFFFFFFFFFFFFFFFFFFFFFFF MUL NOT AND SWAP1 DUP4 PUSH20 0xFFFFFFFFFFFFFFFFFFFFFFFFFFFFFFFFFFFFFFFF AND MUL OR SWAP1 SSTORE POP POP PUSH3 0x16F JUMP JUMPDEST PUSH1 0x0 DUP2 MLOAD SWAP1 POP PUSH3 0xD0 DUP2 PUSH3 0x155 JUMP JUMPDEST SWAP3 SWAP2 POP POP JUMP JUMPDEST PUSH1 0x0 PUSH1 0x20 DUP3 DUP5 SUB SLT ISZERO PUSH3 0xEF JUMPI PUSH3 0xEE PUSH3 0x150 JUMP JUMPDEST JUMPDEST PUSH1 0x0 PUSH3 0xFF DUP5 DUP3 DUP6 ADD PUSH3 0xBF JUMP JUMPDEST SWAP2 POP POP SWAP3 SWAP2 POP POP JUMP JUMPDEST PUSH1 0x0 PUSH3 0x115 DUP3 PUSH3 0x130 JUMP JUMPDEST SWAP1 POP SWAP2 SWAP1 POP JUMP JUMPDEST PUSH1 0x0 PUSH3 0x129 DUP3 PUSH3 0x108 JUMP JUMPDEST SWAP1 POP SWAP2 SWAP1 POP JUMP JUMPDEST PUSH1 0x0 PUSH20 0xFFFFFFFFFFFFFFFFFFFFFFFFFFFFFFFFFFFFFFFF DUP3 AND SWAP1 POP SWAP2 SWAP1 POP JUMP JUMPDEST PUSH1 0x0 DUP1 REVERT JUMPDEST PUSH3 0x160 DUP2 PUSH3 0x11C JUMP JUMPDEST DUP2 EQ PUSH3 0x16C JUMPI PUSH1 0x0 DUP1 REVERT JUMPDEST POP JUMP JUMPDEST PUSH2 0x1E39 DUP1 PUSH3 0x17F PUSH1 0x0 CODECOPY PUSH1 0x0 RETURN INVALID PUSH1 0x80 PUSH1 0x40 MSTORE CALLVALUE DUP1 ISZERO PUSH2 0x10 JUMPI PUSH1 0x0 DUP1 REVERT JUMPDEST POP PUSH1 0x4 CALLDATASIZE LT PUSH2 0xA9 JUMPI PUSH1 0x0 CALLDATALOAD PUSH1 0xE0 SHR DUP1 PUSH4 0xBA593714 GT PUSH2 0x71 JUMPI DUP1 PUSH4 0xBA593714 EQ PUSH2 0x178 JUMPI DUP1 PUSH4 0xD5EFD20A EQ PUSH2 0x194 JUMPI DUP1 PUSH4 0xEB0D07F5 EQ PUSH2 0x1B0 JUMPI DUP1 PUSH4 0xEBF04917 EQ PUSH2 0x1E0 JUMPI DUP1 PUSH4 0xF2FDE38B EQ PUSH2 0x1FE JUMPI DUP1 PUSH4 0xFC0C546A EQ PUSH2 0x21A JUMPI PUSH2 0xA9 JUMP JUMPDEST DUP1 PUSH4 0x120AA877 EQ PUSH2 0xAE JUMPI DUP1 PUSH4 0x58B4E4B4 EQ PUSH2 0xDE JUMPI DUP1 PUSH4 0x65EF53B1 EQ PUSH2 0xFA JUMPI DUP1 PUSH4 0x71C5ECB1 EQ PUSH2 0x12A JUMPI DUP1 PUSH4 0x8DA5CB5B EQ PUSH2 0x15A JUMPI JUMPDEST PUSH1 0x0 DUP1 REVERT JUMPDEST PUSH2 0xC8 PUSH1 0x4 DUP1 CALLDATASIZE SUB DUP2 ADD SWAP1 PUSH2 0xC3 SWAP2 SWAP1 PUSH2 0x12EC JUMP JUMPDEST PUSH2 0x238 JUMP JUMPDEST PUSH1 0x40 MLOAD PUSH2 0xD5 SWAP2 SWAP1 PUSH2 0x1682 JUMP JUMPDEST PUSH1 0x40 MLOAD DUP1 SWAP2 SUB SWAP1 RETURN JUMPDEST PUSH2 0xF8 PUSH1 0x4 DUP1 CALLDATASIZE SUB DUP2 ADD SWAP1 PUSH2 0xF3 SWAP2 SWAP1 PUSH2 0x11CF JUMP JUMPDEST PUSH2 0x267 JUMP JUMPDEST STOP JUMPDEST PUSH2 0x114 PUSH1 0x4 DUP1 CALLDATASIZE SUB DUP2 ADD SWAP1 PUSH2 0x10F SWAP2 SWAP1 PUSH2 0x127F JUMP JUMPDEST PUSH2 0x283 JUMP JUMPDEST PUSH1 0x40 MLOAD PUSH2 0x121 SWAP2 SWAP1 PUSH2 0x1815 JUMP JUMPDEST PUSH1 0x40 MLOAD DUP1 SWAP2 SUB SWAP1 RETURN JUMPDEST PUSH2 0x144 PUSH1 0x4 DUP1 CALLDATASIZE SUB DUP2 ADD SWAP1 PUSH2 0x13F SWAP2 SWAP1 PUSH2 0x12BF JUMP JUMPDEST PUSH2 0x3A7 JUMP JUMPDEST PUSH1 0x40 MLOAD PUSH2 0x151 SWAP2 SWAP1 PUSH2 0x169D JUMP JUMPDEST PUSH1 0x40 MLOAD DUP1 SWAP2 SUB SWAP1 RETURN JUMPDEST PUSH2 0x162 PUSH2 0x3BF JUMP JUMPDEST PUSH1 0x40 MLOAD PUSH2 0x16F SWAP2 SWAP1 PUSH2 0x15D0 JUMP JUMPDEST PUSH1 0x40 MLOAD DUP1 SWAP2 SUB SWAP1 RETURN JUMPDEST PUSH2 0x192 PUSH1 0x4 DUP1 CALLDATASIZE SUB DUP2 ADD SWAP1 PUSH2 0x18D SWAP2 SWAP1 PUSH2 0x1114 JUMP JUMPDEST PUSH2 0x3E3 JUMP JUMPDEST STOP JUMPDEST PUSH2 0x1AE PUSH1 0x4 DUP1 CALLDATASIZE SUB DUP2 ADD SWAP1 PUSH2 0x1A9 SWAP2 SWAP1 PUSH2 0x12BF JUMP JUMPDEST PUSH2 0x4F3 JUMP JUMPDEST STOP JUMPDEST PUSH2 0x1CA PUSH1 0x4 DUP1 CALLDATASIZE SUB DUP2 ADD SWAP1 PUSH2 0x1C5 SWAP2 SWAP1 PUSH2 0x11CF JUMP JUMPDEST PUSH2 0x5A0 JUMP JUMPDEST PUSH1 0x40 MLOAD PUSH2 0x1D7 SWAP2 SWAP1 PUSH2 0x1682 JUMP JUMPDEST PUSH1 0x40 MLOAD DUP1 SWAP2 SUB SWAP1 RETURN JUMPDEST PUSH2 0x1E8 PUSH2 0x5B8 JUMP JUMPDEST PUSH1 0x40 MLOAD PUSH2 0x1F5 SWAP2 SWAP1 PUSH2 0x1815 JUMP JUMPDEST PUSH1 0x40 MLOAD DUP1 SWAP2 SUB SWAP1 RETURN JUMPDEST PUSH2 0x218 PUSH1 0x4 DUP1 CALLDATASIZE SUB DUP2 ADD SWAP1 PUSH2 0x213 SWAP2 SWAP1 PUSH2 0x10E7 JUMP JUMPDEST PUSH2 0x5BE JUMP JUMPDEST STOP JUMPDEST PUSH2 0x222 PUSH2 0x70D JUMP JUMPDEST PUSH1 0x40 MLOAD PUSH2 0x22F SWAP2 SWAP1 PUSH2 0x16B8 JUMP JUMPDEST PUSH1 0x40 MLOAD DUP1 SWAP2 SUB SWAP1 RETURN JUMPDEST PUSH1 0x3 PUSH1 0x20 MSTORE DUP2 PUSH1 0x0 MSTORE PUSH1 0x40 PUSH1 0x0 KECCAK256 PUSH1 0x20 MSTORE DUP1 PUSH1 0x0 MSTORE PUSH1 0x40 PUSH1 0x0 KECCAK256 PUSH1 0x0 SWAP2 POP SWAP2 POP SWAP1 SLOAD SWAP1 PUSH2 0x100 EXP SWAP1 DIV PUSH1 0xFF AND DUP2 JUMP JUMPDEST PUSH2 0x273 DUP5 DUP5 DUP5 DUP5 PUSH2 0x733 JUMP JUMPDEST PUSH2 0x27D DUP5 DUP4 PUSH2 0x90A JUMP JUMPDEST POP POP POP POP JUMP JUMPDEST PUSH1 0x0 DUP1 PUSH1 0x0 SWAP1 SLOAD SWAP1 PUSH2 0x100 EXP SWAP1 DIV PUSH20 0xFFFFFFFFFFFFFFFFFFFFFFFFFFFFFFFFFFFFFFFF AND PUSH20 0xFFFFFFFFFFFFFFFFFFFFFFFFFFFFFFFFFFFFFFFF AND CALLER PUSH20 0xFFFFFFFFFFFFFFFFFFFFFFFFFFFFFFFFFFFFFFFF AND EQ PUSH2 0x2DE JUMPI PUSH1 0x0 DUP1 REVERT JUMPDEST PUSH2 0x32D CALLER ADDRESS DUP5 PUSH1 0x1 PUSH1 0x0 SWAP1 SLOAD SWAP1 PUSH2 0x100 EXP SWAP1 DIV PUSH20 0xFFFFFFFFFFFFFFFFFFFFFFFFFFFFFFFFFFFFFFFF AND PUSH20 0xFFFFFFFFFFFFFFFFFFFFFFFFFFFFFFFFFFFFFFFF AND PUSH2 0x9A4 SWAP1 SWAP4 SWAP3 SWAP2 SWAP1 PUSH4 0xFFFFFFFF AND JUMP JUMPDEST PUSH1 0x4 SLOAD SWAP1 POP DUP3 PUSH1 0x2 PUSH1 0x0 DUP4 DUP2 MSTORE PUSH1 0x20 ADD SWAP1 DUP2 MSTORE PUSH1 0x20 ADD PUSH1 0x0 KECCAK256 DUP2 SWAP1 SSTORE POP PUSH2 0x360 PUSH1 0x1 PUSH1 0x4 SLOAD PUSH2 0xA2D SWAP1 SWAP2 SWAP1 PUSH4 0xFFFFFFFF AND JUMP JUMPDEST PUSH1 0x4 DUP2 SWAP1 SSTORE POP PUSH32 0x5C8770684B8F82E9ADE880FB05CCFB53C969170CD40E9746A3703F241C9023EC DUP2 DUP5 DUP5 PUSH1 0x40 MLOAD PUSH2 0x399 SWAP4 SWAP3 SWAP2 SWAP1 PUSH2 0x1830 JUMP JUMPDEST PUSH1 0x40 MLOAD DUP1 SWAP2 SUB SWAP1 LOG1 SWAP3 SWAP2 POP POP JUMP JUMPDEST PUSH1 0x2 PUSH1 0x20 MSTORE DUP1 PUSH1 0x0 MSTORE PUSH1 0x40 PUSH1 0x0 KECCAK256 PUSH1 0x0 SWAP2 POP SWAP1 POP SLOAD DUP2 JUMP JUMPDEST PUSH1 0x0 DUP1 SLOAD SWAP1 PUSH2 0x100 EXP SWAP1 DIV PUSH20 0xFFFFFFFFFFFFFFFFFFFFFFFFFFFFFFFFFFFFFFFF AND DUP2 JUMP JUMPDEST PUSH1 0x0 DUP4 MLOAD SWAP1 POP DUP3 MLOAD DUP2 EQ DUP1 ISZERO PUSH2 0x3F9 JUMPI POP DUP2 MLOAD DUP2 EQ JUMPDEST PUSH2 0x438 JUMPI PUSH1 0x40 MLOAD PUSH32 0x8C379A000000000000000000000000000000000000000000000000000000000 DUP2 MSTORE PUSH1 0x4 ADD PUSH2 0x42F SWAP1 PUSH2 0x17D5 JUMP JUMPDEST PUSH1 0x40 MLOAD DUP1 SWAP2 SUB SWAP1 REVERT JUMPDEST PUSH1 0x0 DUP1 JUMPDEST DUP3 DUP2 LT ISZERO PUSH2 0x4E0 JUMPI PUSH2 0x49E DUP8 DUP8 DUP4 DUP2 MLOAD DUP2 LT PUSH2 0x45B JUMPI PUSH2 0x45A PUSH2 0x1B34 JUMP JUMPDEST JUMPDEST PUSH1 0x20 MUL PUSH1 0x20 ADD ADD MLOAD DUP8 DUP5 DUP2 MLOAD DUP2 LT PUSH2 0x476 JUMPI PUSH2 0x475 PUSH2 0x1B34 JUMP JUMPDEST JUMPDEST PUSH1 0x20 MUL PUSH1 0x20 ADD ADD MLOAD DUP8 DUP6 DUP2 MLOAD DUP2 LT PUSH2 0x491 JUMPI PUSH2 0x490 PUSH2 0x1B34 JUMP JUMPDEST JUMPDEST PUSH1 0x20 MUL PUSH1 0x20 ADD ADD MLOAD PUSH2 0x733 JUMP JUMPDEST PUSH2 0x4CB DUP6 DUP3 DUP2 MLOAD DUP2 LT PUSH2 0x4B4 JUMPI PUSH2 0x4B3 PUSH2 0x1B34 JUMP JUMPDEST JUMPDEST PUSH1 0x20 MUL PUSH1 0x20 ADD ADD MLOAD DUP4 PUSH2 0xA2D SWAP1 SWAP2 SWAP1 PUSH4 0xFFFFFFFF AND JUMP JUMPDEST SWAP2 POP DUP1 DUP1 PUSH2 0x4D8 SWAP1 PUSH2 0x1A84 JUMP JUMPDEST SWAP2 POP POP PUSH2 0x43C JUMP JUMPDEST POP PUSH2 0x4EB DUP7 DUP3 PUSH2 0x90A JUMP JUMPDEST POP POP POP POP POP POP JUMP JUMPDEST PUSH1 0x0 DUP1 SLOAD SWAP1 PUSH2 0x100 EXP SWAP1 DIV PUSH20 0xFFFFFFFFFFFFFFFFFFFFFFFFFFFFFFFFFFFFFFFF AND PUSH20 0xFFFFFFFFFFFFFFFFFFFFFFFFFFFFFFFFFFFFFFFF AND CALLER PUSH20 0xFFFFFFFFFFFFFFFFFFFFFFFFFFFFFFFFFFFFFFFF AND EQ PUSH2 0x54B JUMPI PUSH1 0x0 DUP1 REVERT JUMPDEST PUSH1 0x0 DUP1 SHL PUSH1 0x2 PUSH1 0x0 DUP4 DUP2 MSTORE PUSH1 0x20 ADD SWAP1 DUP2 MSTORE PUSH1 0x20 ADD PUSH1 0x0 KECCAK256 DUP2 SWAP1 SSTORE POP PUSH32 0xCC071CBD9AE50A4C78D1153B76BD2D46BA8D4C7662842718EC3DE1D67A144DAF DUP2 PUSH1 0x40 MLOAD PUSH2 0x595 SWAP2 SWAP1 PUSH2 0x1815 JUMP JUMPDEST PUSH1 0x40 MLOAD DUP1 SWAP2 SUB SWAP1 LOG1 POP JUMP JUMPDEST PUSH1 0x0 PUSH2 0x5AE DUP6 DUP6 DUP6 DUP6 PUSH2 0xA8B JUMP JUMPDEST SWAP1 POP SWAP5 SWAP4 POP POP POP POP JUMP JUMPDEST PUSH1 0x4 SLOAD DUP2 JUMP JUMPDEST PUSH1 0x0 DUP1 SLOAD SWAP1 PUSH2 0x100 EXP SWAP1 DIV PUSH20 0xFFFFFFFFFFFFFFFFFFFFFFFFFFFFFFFFFFFFFFFF AND PUSH20 0xFFFFFFFFFFFFFFFFFFFFFFFFFFFFFFFFFFFFFFFF AND CALLER PUSH20 0xFFFFFFFFFFFFFFFFFFFFFFFFFFFFFFFFFFFFFFFF AND EQ PUSH2 0x616 JUMPI PUSH1 0x0 DUP1 REVERT JUMPDEST PUSH1 0x0 PUSH20 0xFFFFFFFFFFFFFFFFFFFFFFFFFFFFFFFFFFFFFFFF AND DUP2 PUSH20 0xFFFFFFFFFFFFFFFFFFFFFFFFFFFFFFFFFFFFFFFF AND EQ ISZERO PUSH2 0x650 JUMPI PUSH1 0x0 DUP1 REVERT JUMPDEST DUP1 PUSH20 0xFFFFFFFFFFFFFFFFFFFFFFFFFFFFFFFFFFFFFFFF AND PUSH1 0x0 DUP1 SLOAD SWAP1 PUSH2 0x100 EXP SWAP1 DIV PUSH20 0xFFFFFFFFFFFFFFFFFFFFFFFFFFFFFFFFFFFFFFFF AND PUSH20 0xFFFFFFFFFFFFFFFFFFFFFFFFFFFFFFFFFFFFFFFF AND PUSH32 0x8BE0079C531659141344CD1FD0A4F28419497F9722A3DAAFE3B4186F6B6457E0 PUSH1 0x40 MLOAD PUSH1 0x40 MLOAD DUP1 SWAP2 SUB SWAP1 LOG3 DUP1 PUSH1 0x0 DUP1 PUSH2 0x100 EXP DUP2 SLOAD DUP2 PUSH20 0xFFFFFFFFFFFFFFFFFFFFFFFFFFFFFFFFFFFFFFFF MUL NOT AND SWAP1 DUP4 PUSH20 0xFFFFFFFFFFFFFFFFFFFFFFFFFFFFFFFFFFFFFFFF AND MUL OR SWAP1 SSTORE POP POP JUMP JUMPDEST PUSH1 0x1 PUSH1 0x0 SWAP1 SLOAD SWAP1 PUSH2 0x100 EXP SWAP1 DIV PUSH20 0xFFFFFFFFFFFFFFFFFFFFFFFFFFFFFFFFFFFFFFFF AND DUP2 JUMP JUMPDEST PUSH1 0x4 SLOAD DUP4 LT PUSH2 0x777 JUMPI PUSH1 0x40 MLOAD PUSH32 0x8C379A000000000000000000000000000000000000000000000000000000000 DUP2 MSTORE PUSH1 0x4 ADD PUSH2 0x76E SWAP1 PUSH2 0x16F5 JUMP JUMPDEST PUSH1 0x40 MLOAD DUP1 SWAP2 SUB SWAP1 REVERT JUMPDEST PUSH1 0x3 PUSH1 0x0 DUP5 DUP2 MSTORE PUSH1 0x20 ADD SWAP1 DUP2 MSTORE PUSH1 0x20 ADD PUSH1 0x0 KECCAK256 PUSH1 0x0 DUP6 PUSH20 0xFFFFFFFFFFFFFFFFFFFFFFFFFFFFFFFFFFFFFFFF AND PUSH20 0xFFFFFFFFFFFFFFFFFFFFFFFFFFFFFFFFFFFFFFFF AND DUP2 MSTORE PUSH1 0x20 ADD SWAP1 DUP2 MSTORE PUSH1 0x20 ADD PUSH1 0x0 KECCAK256 PUSH1 0x0 SWAP1 SLOAD SWAP1 PUSH2 0x100 EXP SWAP1 DIV PUSH1 0xFF AND ISZERO PUSH2 0x815 JUMPI PUSH1 0x40 MLOAD PUSH32 0x8C379A000000000000000000000000000000000000000000000000000000000 DUP2 MSTORE PUSH1 0x4 ADD PUSH2 0x80C SWAP1 PUSH2 0x1795 JUMP JUMPDEST PUSH1 0x40 MLOAD DUP1 SWAP2 SUB SWAP1 REVERT JUMPDEST PUSH2 0x821 DUP5 DUP5 DUP5 DUP5 PUSH2 0xA8B JUMP JUMPDEST PUSH2 0x860 JUMPI PUSH1 0x40 MLOAD PUSH32 0x8C379A000000000000000000000000000000000000000000000000000000000 DUP2 MSTORE PUSH1 0x4 ADD PUSH2 0x857 SWAP1 PUSH2 0x1715 JUMP JUMPDEST PUSH1 0x40 MLOAD DUP1 SWAP2 SUB SWAP1 REVERT JUMPDEST PUSH1 0x1 PUSH1 0x3 PUSH1 0x0 DUP6 DUP2 MSTORE PUSH1 0x20 ADD SWAP1 DUP2 MSTORE PUSH1 0x20 ADD PUSH1 0x0 KECCAK256 PUSH1 0x0 DUP7 PUSH20 0xFFFFFFFFFFFFFFFFFFFFFFFFFFFFFFFFFFFFFFFF AND PUSH20 0xFFFFFFFFFFFFFFFFFFFFFFFFFFFFFFFFFFFFFFFF AND DUP2 MSTORE PUSH1 0x20 ADD SWAP1 DUP2 MSTORE PUSH1 0x20 ADD PUSH1 0x0 KECCAK256 PUSH1 0x0 PUSH2 0x100 EXP DUP2 SLOAD DUP2 PUSH1 0xFF MUL NOT AND SWAP1 DUP4 ISZERO ISZERO MUL OR SWAP1 SSTORE POP PUSH32 0x987D620F307FF6B94D58743CB7A7509F24071586A77759B77C2D4E29F75A2F9A DUP5 DUP5 DUP5 PUSH1 0x40 MLOAD PUSH2 0x8FC SWAP4 SWAP3 SWAP2 SWAP1 PUSH2 0x164B JUMP JUMPDEST PUSH1 0x40 MLOAD DUP1 SWAP2 SUB SWAP1 LOG1 POP POP POP POP JUMP JUMPDEST PUSH1 0x0 DUP2 GT ISZERO PUSH2 0x965 JUMPI PUSH2 0x960 DUP3 DUP3 PUSH1 0x1 PUSH1 0x0 SWAP1 SLOAD SWAP1 PUSH2 0x100 EXP SWAP1 DIV PUSH20 0xFFFFFFFFFFFFFFFFFFFFFFFFFFFFFFFFFFFFFFFF AND PUSH20 0xFFFFFFFFFFFFFFFFFFFFFFFFFFFFFFFFFFFFFFFF AND PUSH2 0xAE2 SWAP1 SWAP3 SWAP2 SWAP1 PUSH4 0xFFFFFFFF AND JUMP JUMPDEST PUSH2 0x9A0 JUMP JUMPDEST PUSH1 0x40 MLOAD PUSH32 0x8C379A000000000000000000000000000000000000000000000000000000000 DUP2 MSTORE PUSH1 0x4 ADD PUSH2 0x997 SWAP1 PUSH2 0x1775 JUMP JUMPDEST PUSH1 0x40 MLOAD DUP1 SWAP2 SUB SWAP1 REVERT JUMPDEST POP POP JUMP JUMPDEST PUSH2 0xA27 DUP5 PUSH4 0x23B872DD PUSH1 0xE0 SHL DUP6 DUP6 DUP6 PUSH1 0x40 MLOAD PUSH1 0x24 ADD PUSH2 0x9C5 SWAP4 SWAP3 SWAP2 SWAP1 PUSH2 0x15EB JUMP JUMPDEST PUSH1 0x40 MLOAD PUSH1 0x20 DUP2 DUP4 SUB SUB DUP2 MSTORE SWAP1 PUSH1 0x40 MSTORE SWAP1 PUSH28 0xFFFFFFFFFFFFFFFFFFFFFFFFFFFFFFFFFFFFFFFFFFFFFFFFFFFFFFFF NOT AND PUSH1 0x20 DUP3 ADD DUP1 MLOAD PUSH28 0xFFFFFFFFFFFFFFFFFFFFFFFFFFFFFFFFFFFFFFFFFFFFFFFFFFFFFFFF DUP4 DUP2 DUP4 AND OR DUP4 MSTORE POP POP POP POP PUSH2 0xB68 JUMP JUMPDEST POP POP POP POP JUMP JUMPDEST PUSH1 0x0 DUP1 DUP3 DUP5 PUSH2 0xA3C SWAP2 SWAP1 PUSH2 0x1942 JUMP JUMPDEST SWAP1 POP DUP4 DUP2 LT ISZERO PUSH2 0xA81 JUMPI PUSH1 0x40 MLOAD PUSH32 0x8C379A000000000000000000000000000000000000000000000000000000000 DUP2 MSTORE PUSH1 0x4 ADD PUSH2 0xA78 SWAP1 PUSH2 0x1735 JUMP JUMPDEST PUSH1 0x40 MLOAD DUP1 SWAP2 SUB SWAP1 REVERT JUMPDEST DUP1 SWAP2 POP POP SWAP3 SWAP2 POP POP JUMP JUMPDEST PUSH1 0x0 DUP1 DUP6 DUP5 PUSH1 0x40 MLOAD PUSH1 0x20 ADD PUSH2 0xAA1 SWAP3 SWAP2 SWAP1 PUSH2 0x1561 JUMP JUMPDEST PUSH1 0x40 MLOAD PUSH1 0x20 DUP2 DUP4 SUB SUB DUP2 MSTORE SWAP1 PUSH1 0x40 MSTORE DUP1 MLOAD SWAP1 PUSH1 0x20 ADD KECCAK256 SWAP1 POP PUSH2 0xAD7 DUP4 PUSH1 0x2 PUSH1 0x0 DUP9 DUP2 MSTORE PUSH1 0x20 ADD SWAP1 DUP2 MSTORE PUSH1 0x20 ADD PUSH1 0x0 KECCAK256 SLOAD DUP4 PUSH2 0xC2F JUMP JUMPDEST SWAP2 POP POP SWAP5 SWAP4 POP POP POP POP JUMP JUMPDEST PUSH2 0xB63 DUP4 PUSH4 0xA9059CBB PUSH1 0xE0 SHL DUP5 DUP5 PUSH1 0x40 MLOAD PUSH1 0x24 ADD PUSH2 0xB01 SWAP3 SWAP2 SWAP1 PUSH2 0x1622 JUMP JUMPDEST PUSH1 0x40 MLOAD PUSH1 0x20 DUP2 DUP4 SUB SUB DUP2 MSTORE SWAP1 PUSH1 0x40 MSTORE SWAP1 PUSH28 0xFFFFFFFFFFFFFFFFFFFFFFFFFFFFFFFFFFFFFFFFFFFFFFFFFFFFFFFF NOT AND PUSH1 0x20 DUP3 ADD DUP1 MLOAD PUSH28 0xFFFFFFFFFFFFFFFFFFFFFFFFFFFFFFFFFFFFFFFFFFFFFFFFFFFFFFFF DUP4 DUP2 DUP4 AND OR DUP4 MSTORE POP POP POP POP PUSH2 0xB68 JUMP JUMPDEST POP POP POP JUMP JUMPDEST PUSH1 0x0 PUSH2 0xBCA DUP3 PUSH1 0x40 MLOAD DUP1 PUSH1 0x40 ADD PUSH1 0x40 MSTORE DUP1 PUSH1 0x20 DUP2 MSTORE PUSH1 0x20 ADD PUSH32 0x5361666545524332303A206C6F772D6C6576656C2063616C6C206661696C6564 DUP2 MSTORE POP DUP6 PUSH20 0xFFFFFFFFFFFFFFFFFFFFFFFFFFFFFFFFFFFFFFFF AND PUSH2 0xCE5 SWAP1 SWAP3 SWAP2 SWAP1 PUSH4 0xFFFFFFFF AND JUMP JUMPDEST SWAP1 POP PUSH1 0x0 DUP2 MLOAD GT ISZERO PUSH2 0xC2A JUMPI DUP1 DUP1 PUSH1 0x20 ADD SWAP1 MLOAD DUP2 ADD SWAP1 PUSH2 0xBEA SWAP2 SWAP1 PUSH2 0x1252 JUMP JUMPDEST PUSH2 0xC29 JUMPI PUSH1 0x40 MLOAD PUSH32 0x8C379A000000000000000000000000000000000000000000000000000000000 DUP2 MSTORE PUSH1 0x4 ADD PUSH2 0xC20 SWAP1 PUSH2 0x17F5 JUMP JUMPDEST PUSH1 0x40 MLOAD DUP1 SWAP2 SUB SWAP1 REVERT JUMPDEST JUMPDEST POP POP POP JUMP JUMPDEST PUSH1 0x0 DUP1 DUP3 SWAP1 POP PUSH1 0x0 JUMPDEST DUP6 MLOAD DUP2 LT ISZERO PUSH2 0xCD7 JUMPI PUSH1 0x0 DUP7 DUP3 DUP2 MLOAD DUP2 LT PUSH2 0xC56 JUMPI PUSH2 0xC55 PUSH2 0x1B34 JUMP JUMPDEST JUMPDEST PUSH1 0x20 MUL PUSH1 0x20 ADD ADD MLOAD SWAP1 POP DUP1 DUP4 GT PUSH2 0xC97 JUMPI DUP3 DUP2 PUSH1 0x40 MLOAD PUSH1 0x20 ADD PUSH2 0xC7A SWAP3 SWAP2 SWAP1 PUSH2 0x158D JUMP JUMPDEST PUSH1 0x40 MLOAD PUSH1 0x20 DUP2 DUP4 SUB SUB DUP2 MSTORE SWAP1 PUSH1 0x40 MSTORE DUP1 MLOAD SWAP1 PUSH1 0x20 ADD KECCAK256 SWAP3 POP PUSH2 0xCC3 JUMP JUMPDEST DUP1 DUP4 PUSH1 0x40 MLOAD PUSH1 0x20 ADD PUSH2 0xCAA SWAP3 SWAP2 SWAP1 PUSH2 0x158D JUMP JUMPDEST PUSH1 0x40 MLOAD PUSH1 0x20 DUP2 DUP4 SUB SUB DUP2 MSTORE SWAP1 PUSH1 0x40 MSTORE DUP1 MLOAD SWAP1 PUSH1 0x20 ADD KECCAK256 SWAP3 POP JUMPDEST POP DUP1 DUP1 PUSH2 0xCCF SWAP1 PUSH2 0x1A84 JUMP JUMPDEST SWAP2 POP POP PUSH2 0xC38 JUMP JUMPDEST POP DUP4 DUP2 EQ SWAP2 POP POP SWAP4 SWAP3 POP POP POP JUMP JUMPDEST PUSH1 0x60 PUSH2 0xCF4 DUP5 DUP5 PUSH1 0x0 DUP6 PUSH2 0xCFD JUMP JUMPDEST SWAP1 POP SWAP4 SWAP3 POP POP POP JUMP JUMPDEST PUSH1 0x60 DUP3 SELFBALANCE LT ISZERO PUSH2 0xD42 JUMPI PUSH1 0x40 MLOAD PUSH32 0x8C379A000000000000000000000000000000000000000000000000000000000 DUP2 MSTORE PUSH1 0x4 ADD PUSH2 0xD39 SWAP1 PUSH2 0x1755 JUMP JUMPDEST PUSH1 0x40 MLOAD DUP1 SWAP2 SUB SWAP1 REVERT JUMPDEST PUSH2 0xD4B DUP6 PUSH2 0xE11 JUMP JUMPDEST PUSH2 0xD8A JUMPI PUSH1 0x40 MLOAD PUSH32 0x8C379A000000000000000000000000000000000000000000000000000000000 DUP2 MSTORE PUSH1 0x4 ADD PUSH2 0xD81 SWAP1 PUSH2 0x17B5 JUMP JUMPDEST PUSH1 0x40 MLOAD DUP1 SWAP2 SUB SWAP1 REVERT JUMPDEST PUSH1 0x0 DUP1 DUP7 PUSH20 0xFFFFFFFFFFFFFFFFFFFFFFFFFFFFFFFFFFFFFFFF AND DUP6 DUP8 PUSH1 0x40 MLOAD PUSH2 0xDB3 SWAP2 SWAP1 PUSH2 0x15B9 JUMP JUMPDEST PUSH1 0x0 PUSH1 0x40 MLOAD DUP1 DUP4 SUB DUP2 DUP6 DUP8 GAS CALL SWAP3 POP POP POP RETURNDATASIZE DUP1 PUSH1 0x0 DUP2 EQ PUSH2 0xDF0 JUMPI PUSH1 0x40 MLOAD SWAP2 POP PUSH1 0x1F NOT PUSH1 0x3F RETURNDATASIZE ADD AND DUP3 ADD PUSH1 0x40 MSTORE RETURNDATASIZE DUP3 MSTORE RETURNDATASIZE PUSH1 0x0 PUSH1 0x20 DUP5 ADD RETURNDATACOPY PUSH2 0xDF5 JUMP JUMPDEST PUSH1 0x60 SWAP2 POP JUMPDEST POP SWAP2 POP SWAP2 POP PUSH2 0xE05 DUP3 DUP3 DUP7 PUSH2 0xE34 JUMP JUMPDEST SWAP3 POP POP POP SWAP5 SWAP4 POP POP POP POP JUMP JUMPDEST PUSH1 0x0 DUP1 DUP3 PUSH20 0xFFFFFFFFFFFFFFFFFFFFFFFFFFFFFFFFFFFFFFFF AND EXTCODESIZE GT SWAP1 POP SWAP2 SWAP1 POP JUMP JUMPDEST PUSH1 0x60 DUP4 ISZERO PUSH2 0xE44 JUMPI DUP3 SWAP1 POP PUSH2 0xE94 JUMP JUMPDEST PUSH1 0x0 DUP4 MLOAD GT ISZERO PUSH2 0xE57 JUMPI DUP3 MLOAD DUP1 DUP5 PUSH1 0x20 ADD REVERT JUMPDEST DUP2 PUSH1 0x40 MLOAD PUSH32 0x8C379A000000000000000000000000000000000000000000000000000000000 DUP2 MSTORE PUSH1 0x4 ADD PUSH2 0xE8B SWAP2 SWAP1 PUSH2 0x16D3 JUMP JUMPDEST PUSH1 0x40 MLOAD DUP1 SWAP2 SUB SWAP1 REVERT JUMPDEST SWAP4 SWAP3 POP POP POP JUMP JUMPDEST PUSH1 0x0 PUSH2 0xEAE PUSH2 0xEA9 DUP5 PUSH2 0x188C JUMP JUMPDEST PUSH2 0x1867 JUMP JUMPDEST SWAP1 POP DUP1 DUP4 DUP3 MSTORE PUSH1 0x20 DUP3 ADD SWAP1 POP DUP3 DUP6 PUSH1 0x20 DUP7 MUL DUP3 ADD GT ISZERO PUSH2 0xED1 JUMPI PUSH2 0xED0 PUSH2 0x1B97 JUMP JUMPDEST JUMPDEST PUSH1 0x0 JUMPDEST DUP6 DUP2 LT ISZERO PUSH2 0xF1F JUMPI DUP2 CALLDATALOAD PUSH8 0xFFFFFFFFFFFFFFFF DUP2 GT ISZERO PUSH2 0xEF7 JUMPI PUSH2 0xEF6 PUSH2 0x1B92 JUMP JUMPDEST JUMPDEST DUP1 DUP7 ADD PUSH2 0xF04 DUP10 DUP3 PUSH2 0x104C JUMP JUMPDEST DUP6 MSTORE PUSH1 0x20 DUP6 ADD SWAP5 POP PUSH1 0x20 DUP5 ADD SWAP4 POP POP POP PUSH1 0x1 DUP2 ADD SWAP1 POP PUSH2 0xED4 JUMP JUMPDEST POP POP POP SWAP4 SWAP3 POP POP POP JUMP JUMPDEST PUSH1 0x0 PUSH2 0xF3C PUSH2 0xF37 DUP5 PUSH2 0x18B8 JUMP JUMPDEST PUSH2 0x1867 JUMP JUMPDEST SWAP1 POP DUP1 DUP4 DUP3 MSTORE PUSH1 0x20 DUP3 ADD SWAP1 POP DUP3 DUP6 PUSH1 0x20 DUP7 MUL DUP3 ADD GT ISZERO PUSH2 0xF5F JUMPI PUSH2 0xF5E PUSH2 0x1B97 JUMP JUMPDEST JUMPDEST PUSH1 0x0 JUMPDEST DUP6 DUP2 LT ISZERO PUSH2 0xF8F JUMPI DUP2 PUSH2 0xF75 DUP9 DUP3 PUSH2 0x10BD JUMP JUMPDEST DUP5 MSTORE PUSH1 0x20 DUP5 ADD SWAP4 POP PUSH1 0x20 DUP4 ADD SWAP3 POP POP PUSH1 0x1 DUP2 ADD SWAP1 POP PUSH2 0xF62 JUMP JUMPDEST POP POP POP SWAP4 SWAP3 POP POP POP JUMP JUMPDEST PUSH1 0x0 PUSH2 0xFAC PUSH2 0xFA7 DUP5 PUSH2 0x18E4 JUMP JUMPDEST PUSH2 0x1867 JUMP JUMPDEST SWAP1 POP DUP1 DUP4 DUP3 MSTORE PUSH1 0x20 DUP3 ADD SWAP1 POP DUP3 DUP6 PUSH1 0x20 DUP7 MUL DUP3 ADD GT ISZERO PUSH2 0xFCF JUMPI PUSH2 0xFCE PUSH2 0x1B97 JUMP JUMPDEST JUMPDEST PUSH1 0x0 JUMPDEST DUP6 DUP2 LT ISZERO PUSH2 0xFFF JUMPI DUP2 PUSH2 0xFE5 DUP9 DUP3 PUSH2 0x10D2 JUMP JUMPDEST DUP5 MSTORE PUSH1 0x20 DUP5 ADD SWAP4 POP PUSH1 0x20 DUP4 ADD SWAP3 POP POP PUSH1 0x1 DUP2 ADD SWAP1 POP PUSH2 0xFD2 JUMP JUMPDEST POP POP POP SWAP4 SWAP3 POP POP POP JUMP JUMPDEST PUSH1 0x0 DUP2 CALLDATALOAD SWAP1 POP PUSH2 0x1018 DUP2 PUSH2 0x1DA7 JUMP JUMPDEST SWAP3 SWAP2 POP POP JUMP JUMPDEST PUSH1 0x0 DUP3 PUSH1 0x1F DUP4 ADD SLT PUSH2 0x1033 JUMPI PUSH2 0x1032 PUSH2 0x1B92 JUMP JUMPDEST JUMPDEST DUP2 CALLDATALOAD PUSH2 0x1043 DUP5 DUP3 PUSH1 0x20 DUP7 ADD PUSH2 0xE9B JUMP JUMPDEST SWAP2 POP POP SWAP3 SWAP2 POP POP JUMP JUMPDEST PUSH1 0x0 DUP3 PUSH1 0x1F DUP4 ADD SLT PUSH2 0x1061 JUMPI PUSH2 0x1060 PUSH2 0x1B92 JUMP JUMPDEST JUMPDEST DUP2 CALLDATALOAD PUSH2 0x1071 DUP5 DUP3 PUSH1 0x20 DUP7 ADD PUSH2 0xF29 JUMP JUMPDEST SWAP2 POP POP SWAP3 SWAP2 POP POP JUMP JUMPDEST PUSH1 0x0 DUP3 PUSH1 0x1F DUP4 ADD SLT PUSH2 0x108F JUMPI PUSH2 0x108E PUSH2 0x1B92 JUMP JUMPDEST JUMPDEST DUP2 CALLDATALOAD PUSH2 0x109F DUP5 DUP3 PUSH1 0x20 DUP7 ADD PUSH2 0xF99 JUMP JUMPDEST SWAP2 POP POP SWAP3 SWAP2 POP POP JUMP JUMPDEST PUSH1 0x0 DUP2 MLOAD SWAP1 POP PUSH2 0x10B7 DUP2 PUSH2 0x1DBE JUMP JUMPDEST SWAP3 SWAP2 POP POP JUMP JUMPDEST PUSH1 0x0 DUP2 CALLDATALOAD SWAP1 POP PUSH2 0x10CC DUP2 PUSH2 0x1DD5 JUMP JUMPDEST SWAP3 SWAP2 POP POP JUMP JUMPDEST PUSH1 0x0 DUP2 CALLDATALOAD SWAP1 POP PUSH2 0x10E1 DUP2 PUSH2 0x1DEC JUMP JUMPDEST SWAP3 SWAP2 POP POP JUMP JUMPDEST PUSH1 0x0 PUSH1 0x20 DUP3 DUP5 SUB SLT ISZERO PUSH2 0x10FD JUMPI PUSH2 0x10FC PUSH2 0x1BA1 JUMP JUMPDEST JUMPDEST PUSH1 0x0 PUSH2 0x110B DUP5 DUP3 DUP6 ADD PUSH2 0x1009 JUMP JUMPDEST SWAP2 POP POP SWAP3 SWAP2 POP POP JUMP JUMPDEST PUSH1 0x0 DUP1 PUSH1 0x0 DUP1 PUSH1 0x80 DUP6 DUP8 SUB SLT ISZERO PUSH2 0x112E JUMPI PUSH2 0x112D PUSH2 0x1BA1 JUMP JUMPDEST JUMPDEST PUSH1 0x0 PUSH2 0x113C DUP8 DUP3 DUP9 ADD PUSH2 0x1009 JUMP JUMPDEST SWAP5 POP POP PUSH1 0x20 DUP6 ADD CALLDATALOAD PUSH8 0xFFFFFFFFFFFFFFFF DUP2 GT ISZERO PUSH2 0x115D JUMPI PUSH2 0x115C PUSH2 0x1B9C JUMP JUMPDEST JUMPDEST PUSH2 0x1169 DUP8 DUP3 DUP9 ADD PUSH2 0x107A JUMP JUMPDEST SWAP4 POP POP PUSH1 0x40 DUP6 ADD CALLDATALOAD PUSH8 0xFFFFFFFFFFFFFFFF DUP2 GT ISZERO PUSH2 0x118A JUMPI PUSH2 0x1189 PUSH2 0x1B9C JUMP JUMPDEST JUMPDEST PUSH2 0x1196 DUP8 DUP3 DUP9 ADD PUSH2 0x107A JUMP JUMPDEST SWAP3 POP POP PUSH1 0x60 DUP6 ADD CALLDATALOAD PUSH8 0xFFFFFFFFFFFFFFFF DUP2 GT ISZERO PUSH2 0x11B7 JUMPI PUSH2 0x11B6 PUSH2 0x1B9C JUMP JUMPDEST JUMPDEST PUSH2 0x11C3 DUP8 DUP3 DUP9 ADD PUSH2 0x101E JUMP JUMPDEST SWAP2 POP POP SWAP3 SWAP6 SWAP2 SWAP5 POP SWAP3 POP JUMP JUMPDEST PUSH1 0x0 DUP1 PUSH1 0x0 DUP1 PUSH1 0x80 DUP6 DUP8 SUB SLT ISZERO PUSH2 0x11E9 JUMPI PUSH2 0x11E8 PUSH2 0x1BA1 JUMP JUMPDEST JUMPDEST PUSH1 0x0 PUSH2 0x11F7 DUP8 DUP3 DUP9 ADD PUSH2 0x1009 JUMP JUMPDEST SWAP5 POP POP PUSH1 0x20 PUSH2 0x1208 DUP8 DUP3 DUP9 ADD PUSH2 0x10D2 JUMP JUMPDEST SWAP4 POP POP PUSH1 0x40 PUSH2 0x1219 DUP8 DUP3 DUP9 ADD PUSH2 0x10D2 JUMP JUMPDEST SWAP3 POP POP PUSH1 0x60 DUP6 ADD CALLDATALOAD PUSH8 0xFFFFFFFFFFFFFFFF DUP2 GT ISZERO PUSH2 0x123A JUMPI PUSH2 0x1239 PUSH2 0x1B9C JUMP JUMPDEST JUMPDEST PUSH2 0x1246 DUP8 DUP3 DUP9 ADD PUSH2 0x104C JUMP JUMPDEST SWAP2 POP POP SWAP3 SWAP6 SWAP2 SWAP5 POP SWAP3 POP JUMP JUMPDEST PUSH1 0x0 PUSH1 0x20 DUP3 DUP5 SUB SLT ISZERO PUSH2 0x1268 JUMPI PUSH2 0x1267 PUSH2 0x1BA1 JUMP JUMPDEST JUMPDEST PUSH1 0x0 PUSH2 0x1276 DUP5 DUP3 DUP6 ADD PUSH2 0x10A8 JUMP JUMPDEST SWAP2 POP POP SWAP3 SWAP2 POP POP JUMP JUMPDEST PUSH1 0x0 DUP1 PUSH1 0x40 DUP4 DUP6 SUB SLT ISZERO PUSH2 0x1296 JUMPI PUSH2 0x1295 PUSH2 0x1BA1 JUMP JUMPDEST JUMPDEST PUSH1 0x0 PUSH2 0x12A4 DUP6 DUP3 DUP7 ADD PUSH2 0x10BD JUMP JUMPDEST SWAP3 POP POP PUSH1 0x20 PUSH2 0x12B5 DUP6 DUP3 DUP7 ADD PUSH2 0x10D2 JUMP JUMPDEST SWAP2 POP POP SWAP3 POP SWAP3 SWAP1 POP JUMP JUMPDEST PUSH1 0x0 PUSH1 0x20 DUP3 DUP5 SUB SLT ISZERO PUSH2 0x12D5 JUMPI PUSH2 0x12D4 PUSH2 0x1BA1 JUMP JUMPDEST JUMPDEST PUSH1 0x0 PUSH2 0x12E3 DUP5 DUP3 DUP6 ADD PUSH2 0x10D2 JUMP JUMPDEST SWAP2 POP POP SWAP3 SWAP2 POP POP JUMP JUMPDEST PUSH1 0x0 DUP1 PUSH1 0x40 DUP4 DUP6 SUB SLT ISZERO PUSH2 0x1303 JUMPI PUSH2 0x1302 PUSH2 0x1BA1 JUMP JUMPDEST JUMPDEST PUSH1 0x0 PUSH2 0x1311 DUP6 DUP3 DUP7 ADD PUSH2 0x10D2 JUMP JUMPDEST SWAP3 POP POP PUSH1 0x20 PUSH2 0x1322 DUP6 DUP3 DUP7 ADD PUSH2 0x1009 JUMP JUMPDEST SWAP2 POP POP SWAP3 POP SWAP3 SWAP1 POP JUMP JUMPDEST PUSH2 0x1335 DUP2 PUSH2 0x1998 JUMP JUMPDEST DUP3 MSTORE POP POP JUMP JUMPDEST PUSH2 0x134C PUSH2 0x1347 DUP3 PUSH2 0x1998 JUMP JUMPDEST PUSH2 0x1ACD JUMP JUMPDEST DUP3 MSTORE POP POP JUMP JUMPDEST PUSH2 0x135B DUP2 PUSH2 0x19AA JUMP JUMPDEST DUP3 MSTORE POP POP JUMP JUMPDEST PUSH2 0x136A DUP2 PUSH2 0x19B6 JUMP JUMPDEST DUP3 MSTORE POP POP JUMP JUMPDEST PUSH2 0x1381 PUSH2 0x137C DUP3 PUSH2 0x19B6 JUMP JUMPDEST PUSH2 0x1ADF JUMP JUMPDEST DUP3 MSTORE POP POP JUMP JUMPDEST PUSH1 0x0 PUSH2 0x1392 DUP3 PUSH2 0x1910 JUMP JUMPDEST PUSH2 0x139C DUP2 DUP6 PUSH2 0x1926 JUMP JUMPDEST SWAP4 POP PUSH2 0x13AC DUP2 DUP6 PUSH1 0x20 DUP7 ADD PUSH2 0x1A20 JUMP JUMPDEST DUP1 DUP5 ADD SWAP2 POP POP SWAP3 SWAP2 POP POP JUMP JUMPDEST PUSH2 0x13C1 DUP2 PUSH2 0x19EA JUMP JUMPDEST DUP3 MSTORE POP POP JUMP JUMPDEST PUSH1 0x0 PUSH2 0x13D2 DUP3 PUSH2 0x191B JUMP JUMPDEST PUSH2 0x13DC DUP2 DUP6 PUSH2 0x1931 JUMP JUMPDEST SWAP4 POP PUSH2 0x13EC DUP2 DUP6 PUSH1 0x20 DUP7 ADD PUSH2 0x1A20 JUMP JUMPDEST PUSH2 0x13F5 DUP2 PUSH2 0x1BA6 JUMP JUMPDEST DUP5 ADD SWAP2 POP POP SWAP3 SWAP2 POP POP JUMP JUMPDEST PUSH1 0x0 PUSH2 0x140D PUSH1 0x1C DUP4 PUSH2 0x1931 JUMP JUMPDEST SWAP2 POP PUSH2 0x1418 DUP3 PUSH2 0x1BC4 JUMP JUMPDEST PUSH1 0x20 DUP3 ADD SWAP1 POP SWAP2 SWAP1 POP JUMP JUMPDEST PUSH1 0x0 PUSH2 0x1430 PUSH1 0x16 DUP4 PUSH2 0x1931 JUMP JUMPDEST SWAP2 POP PUSH2 0x143B DUP3 PUSH2 0x1BED JUMP JUMPDEST PUSH1 0x20 DUP3 ADD SWAP1 POP SWAP2 SWAP1 POP JUMP JUMPDEST PUSH1 0x0 PUSH2 0x1453 PUSH1 0x1B DUP4 PUSH2 0x1931 JUMP JUMPDEST SWAP2 POP PUSH2 0x145E DUP3 PUSH2 0x1C16 JUMP JUMPDEST PUSH1 0x20 DUP3 ADD SWAP1 POP SWAP2 SWAP1 POP JUMP JUMPDEST PUSH1 0x0 PUSH2 0x1476 PUSH1 0x26 DUP4 PUSH2 0x1931 JUMP JUMPDEST SWAP2 POP PUSH2 0x1481 DUP3 PUSH2 0x1C3F JUMP JUMPDEST PUSH1 0x40 DUP3 ADD SWAP1 POP SWAP2 SWAP1 POP JUMP JUMPDEST PUSH1 0x0 PUSH2 0x1499 PUSH1 0x3D DUP4 PUSH2 0x1931 JUMP JUMPDEST SWAP2 POP PUSH2 0x14A4 DUP3 PUSH2 0x1C8E JUMP JUMPDEST PUSH1 0x40 DUP3 ADD SWAP1 POP SWAP2 SWAP1 POP JUMP JUMPDEST PUSH1 0x0 PUSH2 0x14BC PUSH1 0x16 DUP4 PUSH2 0x1931 JUMP JUMPDEST SWAP2 POP PUSH2 0x14C7 DUP3 PUSH2 0x1CDD JUMP JUMPDEST PUSH1 0x20 DUP3 ADD SWAP1 POP SWAP2 SWAP1 POP JUMP JUMPDEST PUSH1 0x0 PUSH2 0x14DF PUSH1 0x1D DUP4 PUSH2 0x1931 JUMP JUMPDEST SWAP2 POP PUSH2 0x14EA DUP3 PUSH2 0x1D06 JUMP JUMPDEST PUSH1 0x20 DUP3 ADD SWAP1 POP SWAP2 SWAP1 POP JUMP JUMPDEST PUSH1 0x0 PUSH2 0x1502 PUSH1 0x12 DUP4 PUSH2 0x1931 JUMP JUMPDEST SWAP2 POP PUSH2 0x150D DUP3 PUSH2 0x1D2F JUMP JUMPDEST PUSH1 0x20 DUP3 ADD SWAP1 POP SWAP2 SWAP1 POP JUMP JUMPDEST PUSH1 0x0 PUSH2 0x1525 PUSH1 0x2A DUP4 PUSH2 0x1931 JUMP JUMPDEST SWAP2 POP PUSH2 0x1530 DUP3 PUSH2 0x1D58 JUMP JUMPDEST PUSH1 0x40 DUP3 ADD SWAP1 POP SWAP2 SWAP1 POP JUMP JUMPDEST PUSH2 0x1544 DUP2 PUSH2 0x19E0 JUMP JUMPDEST DUP3 MSTORE POP POP JUMP JUMPDEST PUSH2 0x155B PUSH2 0x1556 DUP3 PUSH2 0x19E0 JUMP JUMPDEST PUSH2 0x1AFB JUMP JUMPDEST DUP3 MSTORE POP POP JUMP JUMPDEST PUSH1 0x0 PUSH2 0x156D DUP3 DUP6 PUSH2 0x133B JUMP JUMPDEST PUSH1 0x14 DUP3 ADD SWAP2 POP PUSH2 0x157D DUP3 DUP5 PUSH2 0x154A JUMP JUMPDEST PUSH1 0x20 DUP3 ADD SWAP2 POP DUP2 SWAP1 POP SWAP4 SWAP3 POP POP POP JUMP JUMPDEST PUSH1 0x0 PUSH2 0x1599 DUP3 DUP6 PUSH2 0x1370 JUMP JUMPDEST PUSH1 0x20 DUP3 ADD SWAP2 POP PUSH2 0x15A9 DUP3 DUP5 PUSH2 0x1370 JUMP JUMPDEST PUSH1 0x20 DUP3 ADD SWAP2 POP DUP2 SWAP1 POP SWAP4 SWAP3 POP POP POP JUMP JUMPDEST PUSH1 0x0 PUSH2 0x15C5 DUP3 DUP5 PUSH2 0x1387 JUMP JUMPDEST SWAP2 POP DUP2 SWAP1 POP SWAP3 SWAP2 POP POP JUMP JUMPDEST PUSH1 0x0 PUSH1 0x20 DUP3 ADD SWAP1 POP PUSH2 0x15E5 PUSH1 0x0 DUP4 ADD DUP5 PUSH2 0x132C JUMP JUMPDEST SWAP3 SWAP2 POP POP JUMP JUMPDEST PUSH1 0x0 PUSH1 0x60 DUP3 ADD SWAP1 POP PUSH2 0x1600 PUSH1 0x0 DUP4 ADD DUP7 PUSH2 0x132C JUMP JUMPDEST PUSH2 0x160D PUSH1 0x20 DUP4 ADD DUP6 PUSH2 0x132C JUMP JUMPDEST PUSH2 0x161A PUSH1 0x40 DUP4 ADD DUP5 PUSH2 0x153B JUMP JUMPDEST SWAP5 SWAP4 POP POP POP POP JUMP JUMPDEST PUSH1 0x0 PUSH1 0x40 DUP3 ADD SWAP1 POP PUSH2 0x1637 PUSH1 0x0 DUP4 ADD DUP6 PUSH2 0x132C JUMP JUMPDEST PUSH2 0x1644 PUSH1 0x20 DUP4 ADD DUP5 PUSH2 0x153B JUMP JUMPDEST SWAP4 SWAP3 POP POP POP JUMP JUMPDEST PUSH1 0x0 PUSH1 0x60 DUP3 ADD SWAP1 POP PUSH2 0x1660 PUSH1 0x0 DUP4 ADD DUP7 PUSH2 0x132C JUMP JUMPDEST PUSH2 0x166D PUSH1 0x20 DUP4 ADD DUP6 PUSH2 0x153B JUMP JUMPDEST PUSH2 0x167A PUSH1 0x40 DUP4 ADD DUP5 PUSH2 0x153B JUMP JUMPDEST SWAP5 SWAP4 POP POP POP POP JUMP JUMPDEST PUSH1 0x0 PUSH1 0x20 DUP3 ADD SWAP1 POP PUSH2 0x1697 PUSH1 0x0 DUP4 ADD DUP5 PUSH2 0x1352 JUMP JUMPDEST SWAP3 SWAP2 POP POP JUMP JUMPDEST PUSH1 0x0 PUSH1 0x20 DUP3 ADD SWAP1 POP PUSH2 0x16B2 PUSH1 0x0 DUP4 ADD DUP5 PUSH2 0x1361 JUMP JUMPDEST SWAP3 SWAP2 POP POP JUMP JUMPDEST PUSH1 0x0 PUSH1 0x20 DUP3 ADD SWAP1 POP PUSH2 0x16CD PUSH1 0x0 DUP4 ADD DUP5 PUSH2 0x13B8 JUMP JUMPDEST SWAP3 SWAP2 POP POP JUMP JUMPDEST PUSH1 0x0 PUSH1 0x20 DUP3 ADD SWAP1 POP DUP2 DUP2 SUB PUSH1 0x0 DUP4 ADD MSTORE PUSH2 0x16ED DUP2 DUP5 PUSH2 0x13C7 JUMP JUMPDEST SWAP1 POP SWAP3 SWAP2 POP POP JUMP JUMPDEST PUSH1 0x0 PUSH1 0x20 DUP3 ADD SWAP1 POP DUP2 DUP2 SUB PUSH1 0x0 DUP4 ADD MSTORE PUSH2 0x170E DUP2 PUSH2 0x1400 JUMP JUMPDEST SWAP1 POP SWAP2 SWAP1 POP JUMP JUMPDEST PUSH1 0x0 PUSH1 0x20 DUP3 ADD SWAP1 POP DUP2 DUP2 SUB PUSH1 0x0 DUP4 ADD MSTORE PUSH2 0x172E DUP2 PUSH2 0x1423 JUMP JUMPDEST SWAP1 POP SWAP2 SWAP1 POP JUMP JUMPDEST PUSH1 0x0 PUSH1 0x20 DUP3 ADD SWAP1 POP DUP2 DUP2 SUB PUSH1 0x0 DUP4 ADD MSTORE PUSH2 0x174E DUP2 PUSH2 0x1446 JUMP JUMPDEST SWAP1 POP SWAP2 SWAP1 POP JUMP JUMPDEST PUSH1 0x0 PUSH1 0x20 DUP3 ADD SWAP1 POP DUP2 DUP2 SUB PUSH1 0x0 DUP4 ADD MSTORE PUSH2 0x176E DUP2 PUSH2 0x1469 JUMP JUMPDEST SWAP1 POP SWAP2 SWAP1 POP JUMP JUMPDEST PUSH1 0x0 PUSH1 0x20 DUP3 ADD SWAP1 POP DUP2 DUP2 SUB PUSH1 0x0 DUP4 ADD MSTORE PUSH2 0x178E DUP2 PUSH2 0x148C JUMP JUMPDEST SWAP1 POP SWAP2 SWAP1 POP JUMP JUMPDEST PUSH1 0x0 PUSH1 0x20 DUP3 ADD SWAP1 POP DUP2 DUP2 SUB PUSH1 0x0 DUP4 ADD MSTORE PUSH2 0x17AE DUP2 PUSH2 0x14AF JUMP JUMPDEST SWAP1 POP SWAP2 SWAP1 POP JUMP JUMPDEST PUSH1 0x0 PUSH1 0x20 DUP3 ADD SWAP1 POP DUP2 DUP2 SUB PUSH1 0x0 DUP4 ADD MSTORE PUSH2 0x17CE DUP2 PUSH2 0x14D2 JUMP JUMPDEST SWAP1 POP SWAP2 SWAP1 POP JUMP JUMPDEST PUSH1 0x0 PUSH1 0x20 DUP3 ADD SWAP1 POP DUP2 DUP2 SUB PUSH1 0x0 DUP4 ADD MSTORE PUSH2 0x17EE DUP2 PUSH2 0x14F5 JUMP JUMPDEST SWAP1 POP SWAP2 SWAP1 POP JUMP JUMPDEST PUSH1 0x0 PUSH1 0x20 DUP3 ADD SWAP1 POP DUP2 DUP2 SUB PUSH1 0x0 DUP4 ADD MSTORE PUSH2 0x180E DUP2 PUSH2 0x1518 JUMP JUMPDEST SWAP1 POP SWAP2 SWAP1 POP JUMP JUMPDEST PUSH1 0x0 PUSH1 0x20 DUP3 ADD SWAP1 POP PUSH2 0x182A PUSH1 0x0 DUP4 ADD DUP5 PUSH2 0x153B JUMP JUMPDEST SWAP3 SWAP2 POP POP JUMP JUMPDEST PUSH1 0x0 PUSH1 0x60 DUP3 ADD SWAP1 POP PUSH2 0x1845 PUSH1 0x0 DUP4 ADD DUP7 PUSH2 0x153B JUMP JUMPDEST PUSH2 0x1852 PUSH1 0x20 DUP4 ADD DUP6 PUSH2 0x1361 JUMP JUMPDEST PUSH2 0x185F PUSH1 0x40 DUP4 ADD DUP5 PUSH2 0x153B JUMP JUMPDEST SWAP5 SWAP4 POP POP POP POP JUMP JUMPDEST PUSH1 0x0 PUSH2 0x1871 PUSH2 0x1882 JUMP JUMPDEST SWAP1 POP PUSH2 0x187D DUP3 DUP3 PUSH2 0x1A53 JUMP JUMPDEST SWAP2 SWAP1 POP JUMP JUMPDEST PUSH1 0x0 PUSH1 0x40 MLOAD SWAP1 POP SWAP1 JUMP JUMPDEST PUSH1 0x0 PUSH8 0xFFFFFFFFFFFFFFFF DUP3 GT ISZERO PUSH2 0x18A7 JUMPI PUSH2 0x18A6 PUSH2 0x1B63 JUMP JUMPDEST JUMPDEST PUSH1 0x20 DUP3 MUL SWAP1 POP PUSH1 0x20 DUP2 ADD SWAP1 POP SWAP2 SWAP1 POP JUMP JUMPDEST PUSH1 0x0 PUSH8 0xFFFFFFFFFFFFFFFF DUP3 GT ISZERO PUSH2 0x18D3 JUMPI PUSH2 0x18D2 PUSH2 0x1B63 JUMP JUMPDEST JUMPDEST PUSH1 0x20 DUP3 MUL SWAP1 POP PUSH1 0x20 DUP2 ADD SWAP1 POP SWAP2 SWAP1 POP JUMP JUMPDEST PUSH1 0x0 PUSH8 0xFFFFFFFFFFFFFFFF DUP3 GT ISZERO PUSH2 0x18FF JUMPI PUSH2 0x18FE PUSH2 0x1B63 JUMP JUMPDEST JUMPDEST PUSH1 0x20 DUP3 MUL SWAP1 POP PUSH1 0x20 DUP2 ADD SWAP1 POP SWAP2 SWAP1 POP JUMP JUMPDEST PUSH1 0x0 DUP2 MLOAD SWAP1 POP SWAP2 SWAP1 POP JUMP JUMPDEST PUSH1 0x0 DUP2 MLOAD SWAP1 POP SWAP2 SWAP1 POP JUMP JUMPDEST PUSH1 0x0 DUP2 SWAP1 POP SWAP3 SWAP2 POP POP JUMP JUMPDEST PUSH1 0x0 DUP3 DUP3 MSTORE PUSH1 0x20 DUP3 ADD SWAP1 POP SWAP3 SWAP2 POP POP JUMP JUMPDEST PUSH1 0x0 PUSH2 0x194D DUP3 PUSH2 0x19E0 JUMP JUMPDEST SWAP2 POP PUSH2 0x1958 DUP4 PUSH2 0x19E0 JUMP JUMPDEST SWAP3 POP DUP3 PUSH32 0xFFFFFFFFFFFFFFFFFFFFFFFFFFFFFFFFFFFFFFFFFFFFFFFFFFFFFFFFFFFFFFFF SUB DUP3 GT ISZERO PUSH2 0x198D JUMPI PUSH2 0x198C PUSH2 0x1B05 JUMP JUMPDEST JUMPDEST DUP3 DUP3 ADD SWAP1 POP SWAP3 SWAP2 POP POP JUMP JUMPDEST PUSH1 0x0 PUSH2 0x19A3 DUP3 PUSH2 0x19C0 JUMP JUMPDEST SWAP1 POP SWAP2 SWAP1 POP JUMP JUMPDEST PUSH1 0x0 DUP2 ISZERO ISZERO SWAP1 POP SWAP2 SWAP1 POP JUMP JUMPDEST PUSH1 0x0 DUP2 SWAP1 POP SWAP2 SWAP1 POP JUMP JUMPDEST PUSH1 0x0 PUSH20 0xFFFFFFFFFFFFFFFFFFFFFFFFFFFFFFFFFFFFFFFF DUP3 AND SWAP1 POP SWAP2 SWAP1 POP JUMP JUMPDEST PUSH1 0x0 DUP2 SWAP1 POP SWAP2 SWAP1 POP JUMP JUMPDEST PUSH1 0x0 PUSH2 0x19F5 DUP3 PUSH2 0x19FC JUMP JUMPDEST SWAP1 POP SWAP2 SWAP1 POP JUMP JUMPDEST PUSH1 0x0 PUSH2 0x1A07 DUP3 PUSH2 0x1A0E JUMP JUMPDEST SWAP1 POP SWAP2 SWAP1 POP JUMP JUMPDEST PUSH1 0x0 PUSH2 0x1A19 DUP3 PUSH2 0x19C0 JUMP JUMPDEST SWAP1 POP SWAP2 SWAP1 POP JUMP JUMPDEST PUSH1 0x0 JUMPDEST DUP4 DUP2 LT ISZERO PUSH2 0x1A3E JUMPI DUP1 DUP3 ADD MLOAD DUP2 DUP5 ADD MSTORE PUSH1 0x20 DUP2 ADD SWAP1 POP PUSH2 0x1A23 JUMP JUMPDEST DUP4 DUP2 GT ISZERO PUSH2 0x1A4D JUMPI PUSH1 0x0 DUP5 DUP5 ADD MSTORE JUMPDEST POP POP POP POP JUMP JUMPDEST PUSH2 0x1A5C DUP3 PUSH2 0x1BA6 JUMP JUMPDEST DUP2 ADD DUP2 DUP2 LT PUSH8 0xFFFFFFFFFFFFFFFF DUP3 GT OR ISZERO PUSH2 0x1A7B JUMPI PUSH2 0x1A7A PUSH2 0x1B63 JUMP JUMPDEST JUMPDEST DUP1 PUSH1 0x40 MSTORE POP POP POP JUMP JUMPDEST PUSH1 0x0 PUSH2 0x1A8F DUP3 PUSH2 0x19E0 JUMP JUMPDEST SWAP2 POP PUSH32 0xFFFFFFFFFFFFFFFFFFFFFFFFFFFFFFFFFFFFFFFFFFFFFFFFFFFFFFFFFFFFFFFF DUP3 EQ ISZERO PUSH2 0x1AC2 JUMPI PUSH2 0x1AC1 PUSH2 0x1B05 JUMP JUMPDEST JUMPDEST PUSH1 0x1 DUP3 ADD SWAP1 POP SWAP2 SWAP1 POP JUMP JUMPDEST PUSH1 0x0 PUSH2 0x1AD8 DUP3 PUSH2 0x1AE9 JUMP JUMPDEST SWAP1 POP SWAP2 SWAP1 POP JUMP JUMPDEST PUSH1 0x0 DUP2 SWAP1 POP SWAP2 SWAP1 POP JUMP JUMPDEST PUSH1 0x0 PUSH2 0x1AF4 DUP3 PUSH2 0x1BB7 JUMP JUMPDEST SWAP1 POP SWAP2 SWAP1 POP JUMP JUMPDEST PUSH1 0x0 DUP2 SWAP1 POP SWAP2 SWAP1 POP JUMP JUMPDEST PUSH32 0x4E487B7100000000000000000000000000000000000000000000000000000000 PUSH1 0x0 MSTORE PUSH1 0x11 PUSH1 0x4 MSTORE PUSH1 0x24 PUSH1 0x0 REVERT JUMPDEST PUSH32 0x4E487B7100000000000000000000000000000000000000000000000000000000 PUSH1 0x0 MSTORE PUSH1 0x32 PUSH1 0x4 MSTORE PUSH1 0x24 PUSH1 0x0 REVERT JUMPDEST PUSH32 0x4E487B7100000000000000000000000000000000000000000000000000000000 PUSH1 0x0 MSTORE PUSH1 0x41 PUSH1 0x4 MSTORE PUSH1 0x24 PUSH1 0x0 REVERT JUMPDEST PUSH1 0x0 DUP1 REVERT JUMPDEST PUSH1 0x0 DUP1 REVERT JUMPDEST PUSH1 0x0 DUP1 REVERT JUMPDEST PUSH1 0x0 DUP1 REVERT JUMPDEST PUSH1 0x0 PUSH1 0x1F NOT PUSH1 0x1F DUP4 ADD AND SWAP1 POP SWAP2 SWAP1 POP JUMP JUMPDEST PUSH1 0x0 DUP2 PUSH1 0x60 SHL SWAP1 POP SWAP2 SWAP1 POP JUMP JUMPDEST PUSH32 0x5765656B2063616E6E6F7420626520696E207468652066757475726500000000 PUSH1 0x0 DUP3 ADD MSTORE POP JUMP JUMPDEST PUSH32 0x496E636F7272656374206D65726B6C652070726F6F6600000000000000000000 PUSH1 0x0 DUP3 ADD MSTORE POP JUMP JUMPDEST PUSH32 0x536166654D6174683A206164646974696F6E206F766572666C6F770000000000 PUSH1 0x0 DUP3 ADD MSTORE POP JUMP JUMPDEST PUSH32 0x416464726573733A20696E73756666696369656E742062616C616E636520666F PUSH1 0x0 DUP3 ADD MSTORE PUSH32 0x722063616C6C0000000000000000000000000000000000000000000000000000 PUSH1 0x20 DUP3 ADD MSTORE POP JUMP JUMPDEST PUSH32 0x4E6F2062616C616E636520776F756C64206265207472616E7366657272656420 PUSH1 0x0 DUP3 ADD MSTORE PUSH32 0x2D206E6F7420676F696E6720746F20776173746520796F757220676173000000 PUSH1 0x20 DUP3 ADD MSTORE POP JUMP JUMPDEST PUSH32 0x4C502068617320616C726561647920636C61696D656400000000000000000000 PUSH1 0x0 DUP3 ADD MSTORE POP JUMP JUMPDEST PUSH32 0x416464726573733A2063616C6C20746F206E6F6E2D636F6E7472616374000000 PUSH1 0x0 DUP3 ADD MSTORE POP JUMP JUMPDEST PUSH32 0x4D69736D61746368696E6720696E707574730000000000000000000000000000 PUSH1 0x0 DUP3 ADD MSTORE POP JUMP JUMPDEST PUSH32 0x5361666545524332303A204552433230206F7065726174696F6E20646964206E PUSH1 0x0 DUP3 ADD MSTORE PUSH32 0x6F74207375636365656400000000000000000000000000000000000000000000 PUSH1 0x20 DUP3 ADD MSTORE POP JUMP JUMPDEST PUSH2 0x1DB0 DUP2 PUSH2 0x1998 JUMP JUMPDEST DUP2 EQ PUSH2 0x1DBB JUMPI PUSH1 0x0 DUP1 REVERT JUMPDEST POP JUMP JUMPDEST PUSH2 0x1DC7 DUP2 PUSH2 0x19AA JUMP JUMPDEST DUP2 EQ PUSH2 0x1DD2 JUMPI PUSH1 0x0 DUP1 REVERT JUMPDEST POP JUMP JUMPDEST PUSH2 0x1DDE DUP2 PUSH2 0x19B6 JUMP JUMPDEST DUP2 EQ PUSH2 0x1DE9 JUMPI PUSH1 0x0 DUP1 REVERT JUMPDEST POP JUMP JUMPDEST PUSH2 0x1DF5 DUP2 PUSH2 0x19E0 JUMP JUMPDEST DUP2 EQ PUSH2 0x1E00 JUMPI PUSH1 0x0 DUP1 REVERT JUMPDEST POP JUMP INVALID LOG2 PUSH5 0x6970667358 0x22 SLT KECCAK256 0xB5 0xB8 LT ADDRESS PUSH12 0x6AC552952C6B80829D691B31 0xDE 0xCF PUSH11 0x99FDEECD40DA48C67442EF PUSH15 0x64736F6C6343000807003300000000 "
				},
				"gasEstimates": {
					"creation": {
						"codeDepositCost": "1547400",
						"executionCost": "infinite",
						"totalCost": "infinite"
					},
					"external": {
						"claimWeek(address,uint256,uint256,bytes32[])": "infinite",
						"claimWeeks(address,uint256[],uint256[],bytes32[][])": "infinite",
						"claimed(uint256,address)": "3088",
						"expireTranche(uint256)": "infinite",
						"merkleRoots(uint256)": "2832",
						"owner()": "2600",
						"seedNewAllocations(bytes32,uint256)": "infinite",
						"token()": "2710",
						"tranches()": "2495",
						"transferOwnership(address)": "30693",
						"verifyClaim(address,uint256,uint256,bytes32[])": "infinite"
					},
					"internal": {
						"_claimWeek(address,uint256,uint256,bytes32[] memory)": "infinite",
						"_disburse(address,uint256)": "infinite",
						"_verifyClaim(address,uint256,uint256,bytes32[] memory)": "infinite"
					}
				},
				"methodIdentifiers": {
					"claimWeek(address,uint256,uint256,bytes32[])": "58b4e4b4",
					"claimWeeks(address,uint256[],uint256[],bytes32[][])": "ba593714",
					"claimed(uint256,address)": "120aa877",
					"expireTranche(uint256)": "d5efd20a",
					"merkleRoots(uint256)": "71c5ecb1",
					"owner()": "8da5cb5b",
					"seedNewAllocations(bytes32,uint256)": "65ef53b1",
					"token()": "fc0c546a",
					"tranches()": "ebf04917",
					"transferOwnership(address)": "f2fde38b",
					"verifyClaim(address,uint256,uint256,bytes32[])": "eb0d07f5"
				}
			},
			"storageLayout": {
				"storage": [
					{
						"astId": 531,
						"contract": "contracts/token/ERC20/MTMSAirdrop.sol:MTMSAirdrop",
						"label": "owner",
						"offset": 0,
						"slot": "0",
						"type": "t_address"
					},
					{
						"astId": 198,
						"contract": "contracts/token/ERC20/MTMSAirdrop.sol:MTMSAirdrop",
						"label": "token",
						"offset": 0,
						"slot": "1",
						"type": "t_contract(IERC20)148"
					},
					{
						"astId": 202,
						"contract": "contracts/token/ERC20/MTMSAirdrop.sol:MTMSAirdrop",
						"label": "merkleRoots",
						"offset": 0,
						"slot": "2",
						"type": "t_mapping(t_uint256,t_bytes32)"
					},
					{
						"astId": 208,
						"contract": "contracts/token/ERC20/MTMSAirdrop.sol:MTMSAirdrop",
						"label": "claimed",
						"offset": 0,
						"slot": "3",
						"type": "t_mapping(t_uint256,t_mapping(t_address,t_bool))"
					},
					{
						"astId": 210,
						"contract": "contracts/token/ERC20/MTMSAirdrop.sol:MTMSAirdrop",
						"label": "tranches",
						"offset": 0,
						"slot": "4",
						"type": "t_uint256"
					}
				],
				"types": {
					"t_address": {
						"encoding": "inplace",
						"label": "address",
						"numberOfBytes": "20"
					},
					"t_bool": {
						"encoding": "inplace",
						"label": "bool",
						"numberOfBytes": "1"
					},
					"t_bytes32": {
						"encoding": "inplace",
						"label": "bytes32",
						"numberOfBytes": "32"
					},
					"t_contract(IERC20)148": {
						"encoding": "inplace",
						"label": "contract IERC20",
						"numberOfBytes": "20"
					},
					"t_mapping(t_address,t_bool)": {
						"encoding": "mapping",
						"key": "t_address",
						"label": "mapping(address => bool)",
						"numberOfBytes": "32",
						"value": "t_bool"
					},
					"t_mapping(t_uint256,t_bytes32)": {
						"encoding": "mapping",
						"key": "t_uint256",
						"label": "mapping(uint256 => bytes32)",
						"numberOfBytes": "32",
						"value": "t_bytes32"
					},
					"t_mapping(t_uint256,t_mapping(t_address,t_bool))": {
						"encoding": "mapping",
						"key": "t_uint256",
						"label": "mapping(uint256 => mapping(address => bool))",
						"numberOfBytes": "32",
						"value": "t_mapping(t_address,t_bool)"
					},
					"t_uint256": {
						"encoding": "inplace",
						"label": "uint256",
						"numberOfBytes": "32"
					}
				}
			},
			"userdoc": {
				"kind": "user",
				"methods": {},
				"version": 1
			}
		}
	}
}