{
	"contracts/token/ERC20/MTMSAirdrop.sol": {
		"MTMSAirdrop": {
			"abi": [
				{
					"inputs": [
						{
							"internalType": "contract IERC20",
							"name": "_token",
							"type": "address"
						}
					],
					"stateMutability": "nonpayable",
					"type": "constructor"
				},
				{
					"anonymous": false,
					"inputs": [
						{
							"indexed": false,
							"internalType": "address",
							"name": "claimant",
							"type": "address"
						},
						{
							"indexed": false,
							"internalType": "uint256",
							"name": "week",
							"type": "uint256"
						},
						{
							"indexed": false,
							"internalType": "uint256",
							"name": "balance",
							"type": "uint256"
						}
					],
					"name": "Claimed",
					"type": "event"
				},
				{
					"anonymous": false,
					"inputs": [
						{
							"indexed": true,
							"internalType": "address",
							"name": "previousOwner",
							"type": "address"
						},
						{
							"indexed": true,
							"internalType": "address",
							"name": "newOwner",
							"type": "address"
						}
					],
					"name": "OwnershipTransferred",
					"type": "event"
				},
				{
					"anonymous": false,
					"inputs": [
						{
							"indexed": true,
							"internalType": "address",
							"name": "_address",
							"type": "address"
						}
					],
					"name": "RemovedFunder",
					"type": "event"
				},
				{
					"anonymous": false,
					"inputs": [
						{
							"indexed": false,
							"internalType": "uint256",
							"name": "tranche",
							"type": "uint256"
						},
						{
							"indexed": false,
							"internalType": "bytes32",
							"name": "merkleRoot",
							"type": "bytes32"
						},
						{
							"indexed": false,
							"internalType": "uint256",
							"name": "totalAmount",
							"type": "uint256"
						}
					],
					"name": "TrancheAdded",
					"type": "event"
				},
				{
					"anonymous": false,
					"inputs": [
						{
							"indexed": false,
							"internalType": "uint256",
							"name": "tranche",
							"type": "uint256"
						}
					],
					"name": "TrancheExpired",
					"type": "event"
				},
				{
					"inputs": [
						{
							"internalType": "address",
							"name": "_liquidityProvider",
							"type": "address"
						},
						{
							"internalType": "uint256",
							"name": "_tranche",
							"type": "uint256"
						},
						{
							"internalType": "uint256",
							"name": "_balance",
							"type": "uint256"
						},
						{
							"internalType": "bytes32[]",
							"name": "_merkleProof",
							"type": "bytes32[]"
						}
					],
					"name": "claimWeek",
					"outputs": [],
					"stateMutability": "nonpayable",
					"type": "function"
				},
				{
					"inputs": [
						{
							"internalType": "address",
							"name": "_liquidityProvider",
							"type": "address"
						},
						{
							"internalType": "uint256[]",
							"name": "_tranches",
							"type": "uint256[]"
						},
						{
							"internalType": "uint256[]",
							"name": "_balances",
							"type": "uint256[]"
						},
						{
							"internalType": "bytes32[][]",
							"name": "_merkleProofs",
							"type": "bytes32[][]"
						}
					],
					"name": "claimWeeks",
					"outputs": [],
					"stateMutability": "nonpayable",
					"type": "function"
				},
				{
					"inputs": [
						{
							"internalType": "uint256",
							"name": "",
							"type": "uint256"
						},
						{
							"internalType": "address",
							"name": "",
							"type": "address"
						}
					],
					"name": "claimed",
					"outputs": [
						{
							"internalType": "bool",
							"name": "",
							"type": "bool"
						}
					],
					"stateMutability": "view",
					"type": "function"
				},
				{
					"inputs": [
						{
							"internalType": "uint256",
							"name": "_trancheId",
							"type": "uint256"
						}
					],
					"name": "expireTranche",
					"outputs": [],
					"stateMutability": "nonpayable",
					"type": "function"
				},
				{
					"inputs": [
						{
							"internalType": "uint256",
							"name": "",
							"type": "uint256"
						}
					],
					"name": "merkleRoots",
					"outputs": [
						{
							"internalType": "bytes32",
							"name": "",
							"type": "bytes32"
						}
					],
					"stateMutability": "view",
					"type": "function"
				},
				{
					"inputs": [],
					"name": "owner",
					"outputs": [
						{
							"internalType": "address",
							"name": "",
							"type": "address"
						}
					],
					"stateMutability": "view",
					"type": "function"
				},
				{
					"inputs": [
						{
							"internalType": "bytes32",
							"name": "_merkleRoot",
							"type": "bytes32"
						},
						{
							"internalType": "uint256",
							"name": "_totalAllocation",
							"type": "uint256"
						}
					],
					"name": "seedNewAllocations",
					"outputs": [
						{
							"internalType": "uint256",
							"name": "trancheId",
							"type": "uint256"
						}
					],
					"stateMutability": "nonpayable",
					"type": "function"
				},
				{
					"inputs": [
						{
							"internalType": "uint256",
							"name": "",
							"type": "uint256"
						}
					],
					"name": "student_result",
					"outputs": [
						{
							"internalType": "address",
							"name": "",
							"type": "address"
						}
					],
					"stateMutability": "view",
					"type": "function"
				},
				{
					"inputs": [],
					"name": "token",
					"outputs": [
						{
							"internalType": "contract IERC20",
							"name": "",
							"type": "address"
						}
					],
					"stateMutability": "view",
					"type": "function"
				},
				{
					"inputs": [],
					"name": "tranches",
					"outputs": [
						{
							"internalType": "uint256",
							"name": "",
							"type": "uint256"
						}
					],
					"stateMutability": "view",
					"type": "function"
				},
				{
					"inputs": [
						{
							"internalType": "address",
							"name": "newOwner",
							"type": "address"
						}
					],
					"name": "transferOwnership",
					"outputs": [],
					"stateMutability": "nonpayable",
					"type": "function"
				},
				{
					"inputs": [
						{
							"internalType": "address",
							"name": "_liquidityProvider",
							"type": "address"
						},
						{
							"internalType": "uint256",
							"name": "_tranche",
							"type": "uint256"
						},
						{
							"internalType": "uint256",
							"name": "_balance",
							"type": "uint256"
						},
						{
							"internalType": "bytes32[]",
							"name": "_merkleProof",
							"type": "bytes32[]"
						}
					],
					"name": "verifyClaim",
					"outputs": [
						{
							"internalType": "bool",
							"name": "valid",
							"type": "bool"
						}
					],
					"stateMutability": "view",
					"type": "function"
				}
			],
			"devdoc": {
				"kind": "dev",
				"methods": {
					"transferOwnership(address)": {
						"details": "Allows the current owner to transfer control of the contract to a newOwner.",
						"params": {
							"newOwner": "The address to transfer ownership to."
						}
					}
				},
				"version": 1
			},
			"evm": {
				"assembly": "    /* \"contracts/token/ERC20/MTMSAirdrop.sol\":244:4229  contract MTMSAirdrop is Ownable {\r... */\n  mstore(0x40, 0x80)\n    /* \"contracts/token/ERC20/MTMSAirdrop.sol\":942:1009  constructor(IERC20 _token) public {\r... */\n  callvalue\n  dup1\n  iszero\n  tag_1\n  jumpi\n  0x00\n  dup1\n  revert\ntag_1:\n  pop\n  mload(0x40)\n  sub(codesize, bytecodeSize)\n  dup1\n  bytecodeSize\n  dup4\n  codecopy\n  dup2\n  dup2\n  add\n  0x40\n  mstore\n  dup2\n  add\n  swap1\n  tag_2\n  swap2\n  swap1\n  tag_3\n  jump\t// in\ntag_2:\n    /* \"contracts/token/ERC20/Ownable.sol\":328:338  msg.sender */\n  caller\n    /* \"contracts/token/ERC20/Ownable.sol\":320:325  owner */\n  0x00\n  dup1\n    /* \"contracts/token/ERC20/Ownable.sol\":320:338  owner = msg.sender */\n  0x0100\n  exp\n  dup2\n  sload\n  dup2\n  0xffffffffffffffffffffffffffffffffffffffff\n  mul\n  not\n  and\n  swap1\n  dup4\n  0xffffffffffffffffffffffffffffffffffffffff\n  and\n  mul\n  or\n  swap1\n  sstore\n  pop\n    /* \"contracts/token/ERC20/MTMSAirdrop.sol\":995:1001  _token */\n  dup1\n    /* \"contracts/token/ERC20/MTMSAirdrop.sol\":987:992  token */\n  0x03\n  0x00\n    /* \"contracts/token/ERC20/MTMSAirdrop.sol\":987:1001  token = _token */\n  0x0100\n  exp\n  dup2\n  sload\n  dup2\n  0xffffffffffffffffffffffffffffffffffffffff\n  mul\n  not\n  and\n  swap1\n  dup4\n  0xffffffffffffffffffffffffffffffffffffffff\n  and\n  mul\n  or\n  swap1\n  sstore\n  pop\n    /* \"contracts/token/ERC20/MTMSAirdrop.sol\":942:1009  constructor(IERC20 _token) public {\r... */\n  pop\n    /* \"contracts/token/ERC20/MTMSAirdrop.sol\":244:4229  contract MTMSAirdrop is Ownable {\r... */\n  jump(tag_8)\n    /* \"#utility.yul\":7:178   */\ntag_10:\n    /* \"#utility.yul\":78:83   */\n  0x00\n    /* \"#utility.yul\":109:115   */\n  dup2\n    /* \"#utility.yul\":103:116   */\n  mload\n    /* \"#utility.yul\":94:116   */\n  swap1\n  pop\n    /* \"#utility.yul\":125:172   */\n  tag_12\n    /* \"#utility.yul\":166:171   */\n  dup2\n    /* \"#utility.yul\":125:172   */\n  tag_13\n  jump\t// in\ntag_12:\n    /* \"#utility.yul\":7:178   */\n  swap3\n  swap2\n  pop\n  pop\n  jump\t// out\n    /* \"#utility.yul\":184:563   */\ntag_3:\n    /* \"#utility.yul\":268:274   */\n  0x00\n    /* \"#utility.yul\":317:319   */\n  0x20\n    /* \"#utility.yul\":305:314   */\n  dup3\n    /* \"#utility.yul\":296:303   */\n  dup5\n    /* \"#utility.yul\":292:315   */\n  sub\n    /* \"#utility.yul\":288:320   */\n  slt\n    /* \"#utility.yul\":285:404   */\n  iszero\n  tag_15\n  jumpi\n    /* \"#utility.yul\":323:402   */\n  tag_16\n  tag_17\n  jump\t// in\ntag_16:\n    /* \"#utility.yul\":285:404   */\ntag_15:\n    /* \"#utility.yul\":443:444   */\n  0x00\n    /* \"#utility.yul\":468:546   */\n  tag_18\n    /* \"#utility.yul\":538:545   */\n  dup5\n    /* \"#utility.yul\":529:535   */\n  dup3\n    /* \"#utility.yul\":518:527   */\n  dup6\n    /* \"#utility.yul\":514:536   */\n  add\n    /* \"#utility.yul\":468:546   */\n  tag_10\n  jump\t// in\ntag_18:\n    /* \"#utility.yul\":458:546   */\n  swap2\n  pop\n    /* \"#utility.yul\":414:556   */\n  pop\n    /* \"#utility.yul\":184:563   */\n  swap3\n  swap2\n  pop\n  pop\n  jump\t// out\n    /* \"#utility.yul\":650:746   */\ntag_21:\n    /* \"#utility.yul\":687:694   */\n  0x00\n    /* \"#utility.yul\":716:740   */\n  tag_23\n    /* \"#utility.yul\":734:739   */\n  dup3\n    /* \"#utility.yul\":716:740   */\n  tag_24\n  jump\t// in\ntag_23:\n    /* \"#utility.yul\":705:740   */\n  swap1\n  pop\n    /* \"#utility.yul\":650:746   */\n  swap2\n  swap1\n  pop\n  jump\t// out\n    /* \"#utility.yul\":752:862   */\ntag_25:\n    /* \"#utility.yul\":803:810   */\n  0x00\n    /* \"#utility.yul\":832:856   */\n  tag_27\n    /* \"#utility.yul\":850:855   */\n  dup3\n    /* \"#utility.yul\":832:856   */\n  tag_21\n  jump\t// in\ntag_27:\n    /* \"#utility.yul\":821:856   */\n  swap1\n  pop\n    /* \"#utility.yul\":752:862   */\n  swap2\n  swap1\n  pop\n  jump\t// out\n    /* \"#utility.yul\":868:994   */\ntag_24:\n    /* \"#utility.yul\":905:912   */\n  0x00\n    /* \"#utility.yul\":945:987   */\n  0xffffffffffffffffffffffffffffffffffffffff\n    /* \"#utility.yul\":938:943   */\n  dup3\n    /* \"#utility.yul\":934:988   */\n  and\n    /* \"#utility.yul\":923:988   */\n  swap1\n  pop\n    /* \"#utility.yul\":868:994   */\n  swap2\n  swap1\n  pop\n  jump\t// out\n    /* \"#utility.yul\":1123:1240   */\ntag_17:\n    /* \"#utility.yul\":1232:1233   */\n  0x00\n    /* \"#utility.yul\":1229:1230   */\n  dup1\n    /* \"#utility.yul\":1222:1234   */\n  revert\n    /* \"#utility.yul\":1246:1396   */\ntag_13:\n    /* \"#utility.yul\":1333:1371   */\n  tag_33\n    /* \"#utility.yul\":1365:1370   */\n  dup2\n    /* \"#utility.yul\":1333:1371   */\n  tag_25\n  jump\t// in\ntag_33:\n    /* \"#utility.yul\":1326:1331   */\n  dup2\n    /* \"#utility.yul\":1323:1372   */\n  eq\n    /* \"#utility.yul\":1313:1390   */\n  tag_34\n  jumpi\n    /* \"#utility.yul\":1386:1387   */\n  0x00\n    /* \"#utility.yul\":1383:1384   */\n  dup1\n    /* \"#utility.yul\":1376:1388   */\n  revert\n    /* \"#utility.yul\":1313:1390   */\ntag_34:\n    /* \"#utility.yul\":1246:1396   */\n  pop\n  jump\t// out\n    /* \"contracts/token/ERC20/MTMSAirdrop.sol\":244:4229  contract MTMSAirdrop is Ownable {\r... */\ntag_8:\n  dataSize(sub_0)\n  dup1\n  dataOffset(sub_0)\n  0x00\n  codecopy\n  0x00\n  return\nstop\n\nsub_0: assembly {\n        /* \"contracts/token/ERC20/MTMSAirdrop.sol\":244:4229  contract MTMSAirdrop is Ownable {\r... */\n      mstore(0x40, 0x80)\n      callvalue\n      dup1\n      iszero\n      tag_1\n      jumpi\n      0x00\n      dup1\n      revert\n    tag_1:\n      pop\n      jumpi(tag_2, lt(calldatasize, 0x04))\n      shr(0xe0, calldataload(0x00))\n      dup1\n      0xba593714\n      gt\n      tag_15\n      jumpi\n      dup1\n      0xba593714\n      eq\n      tag_9\n      jumpi\n      dup1\n      0xd5efd20a\n      eq\n      tag_10\n      jumpi\n      dup1\n      0xeb0d07f5\n      eq\n      tag_11\n      jumpi\n      dup1\n      0xebf04917\n      eq\n      tag_12\n      jumpi\n      dup1\n      0xf2fde38b\n      eq\n      tag_13\n      jumpi\n      dup1\n      0xfc0c546a\n      eq\n      tag_14\n      jumpi\n      jump(tag_2)\n    tag_15:\n      dup1\n      0x120aa877\n      eq\n      tag_3\n      jumpi\n      dup1\n      0x275bf03b\n      eq\n      tag_4\n      jumpi\n      dup1\n      0x58b4e4b4\n      eq\n      tag_5\n      jumpi\n      dup1\n      0x65ef53b1\n      eq\n      tag_6\n      jumpi\n      dup1\n      0x71c5ecb1\n      eq\n      tag_7\n      jumpi\n      dup1\n      0x8da5cb5b\n      eq\n      tag_8\n      jumpi\n    tag_2:\n      0x00\n      dup1\n      revert\n        /* \"contracts/token/ERC20/MTMSAirdrop.sol\":844:903  mapping(uint256 => mapping(address => bool)) public claimed */\n    tag_3:\n      tag_16\n      0x04\n      dup1\n      calldatasize\n      sub\n      dup2\n      add\n      swap1\n      tag_17\n      swap2\n      swap1\n      tag_18\n      jump\t// in\n    tag_17:\n      tag_19\n      jump\t// in\n    tag_16:\n      mload(0x40)\n      tag_20\n      swap2\n      swap1\n      tag_21\n      jump\t// in\n    tag_20:\n      mload(0x40)\n      dup1\n      swap2\n      sub\n      swap1\n      return\n        /* \"contracts/token/ERC20/MTMSAirdrop.sol\":472:503  address[] public student_result */\n    tag_4:\n      tag_22\n      0x04\n      dup1\n      calldatasize\n      sub\n      dup2\n      add\n      swap1\n      tag_23\n      swap2\n      swap1\n      tag_24\n      jump\t// in\n    tag_23:\n      tag_25\n      jump\t// in\n    tag_22:\n      mload(0x40)\n      tag_26\n      swap2\n      swap1\n      tag_27\n      jump\t// in\n    tag_26:\n      mload(0x40)\n      dup1\n      swap2\n      sub\n      swap1\n      return\n        /* \"contracts/token/ERC20/MTMSAirdrop.sol\":1644:1955  function claimWeek(\r... */\n    tag_5:\n      tag_28\n      0x04\n      dup1\n      calldatasize\n      sub\n      dup2\n      add\n      swap1\n      tag_29\n      swap2\n      swap1\n      tag_30\n      jump\t// in\n    tag_29:\n      tag_31\n      jump\t// in\n    tag_28:\n      stop\n        /* \"contracts/token/ERC20/MTMSAirdrop.sol\":1017:1446  function seedNewAllocations(bytes32 _merkleRoot, uint256 _totalAllocation)\r... */\n    tag_6:\n      tag_32\n      0x04\n      dup1\n      calldatasize\n      sub\n      dup2\n      add\n      swap1\n      tag_33\n      swap2\n      swap1\n      tag_34\n      jump\t// in\n    tag_33:\n      tag_35\n      jump\t// in\n    tag_32:\n      mload(0x40)\n      tag_36\n      swap2\n      swap1\n      tag_37\n      jump\t// in\n    tag_36:\n      mload(0x40)\n      dup1\n      swap2\n      sub\n      swap1\n      return\n        /* \"contracts/token/ERC20/MTMSAirdrop.sol\":791:837  mapping(uint256 => bytes32) public merkleRoots */\n    tag_7:\n      tag_38\n      0x04\n      dup1\n      calldatasize\n      sub\n      dup2\n      add\n      swap1\n      tag_39\n      swap2\n      swap1\n      tag_24\n      jump\t// in\n    tag_39:\n      tag_40\n      jump\t// in\n    tag_38:\n      mload(0x40)\n      tag_41\n      swap2\n      swap1\n      tag_42\n      jump\t// in\n    tag_41:\n      mload(0x40)\n      dup1\n      swap2\n      sub\n      swap1\n      return\n        /* \"contracts/token/ERC20/Ownable.sol\":51:71  address public owner */\n    tag_8:\n      tag_43\n      tag_44\n      jump\t// in\n    tag_43:\n      mload(0x40)\n      tag_45\n      swap2\n      swap1\n      tag_27\n      jump\t// in\n    tag_45:\n      mload(0x40)\n      dup1\n      swap2\n      sub\n      swap1\n      return\n        /* \"contracts/token/ERC20/MTMSAirdrop.sol\":1965:2609  function claimWeeks(\r... */\n    tag_9:\n      tag_46\n      0x04\n      dup1\n      calldatasize\n      sub\n      dup2\n      add\n      swap1\n      tag_47\n      swap2\n      swap1\n      tag_48\n      jump\t// in\n    tag_47:\n      tag_49\n      jump\t// in\n    tag_46:\n      stop\n        /* \"contracts/token/ERC20/MTMSAirdrop.sol\":1454:1636  function expireTranche(uint256 _trancheId)\r... */\n    tag_10:\n      tag_50\n      0x04\n      dup1\n      calldatasize\n      sub\n      dup2\n      add\n      swap1\n      tag_51\n      swap2\n      swap1\n      tag_24\n      jump\t// in\n    tag_51:\n      tag_52\n      jump\t// in\n    tag_50:\n      stop\n        /* \"contracts/token/ERC20/MTMSAirdrop.sol\":2619:2935  function verifyClaim(\r... */\n    tag_11:\n      tag_53\n      0x04\n      dup1\n      calldatasize\n      sub\n      dup2\n      add\n      swap1\n      tag_54\n      swap2\n      swap1\n      tag_30\n      jump\t// in\n    tag_54:\n      tag_55\n      jump\t// in\n    tag_53:\n      mload(0x40)\n      tag_56\n      swap2\n      swap1\n      tag_21\n      jump\t// in\n    tag_56:\n      mload(0x40)\n      dup1\n      swap2\n      sub\n      swap1\n      return\n        /* \"contracts/token/ERC20/MTMSAirdrop.sol\":910:933  uint256 public tranches */\n    tag_12:\n      tag_57\n      tag_58\n      jump\t// in\n    tag_57:\n      mload(0x40)\n      tag_59\n      swap2\n      swap1\n      tag_37\n      jump\t// in\n    tag_59:\n      mload(0x40)\n      dup1\n      swap2\n      sub\n      swap1\n      return\n        /* \"contracts/token/ERC20/Ownable.sol\":670:848  function transferOwnership(address newOwner) onlyOwner public {\r... */\n    tag_13:\n      tag_60\n      0x04\n      dup1\n      calldatasize\n      sub\n      dup2\n      add\n      swap1\n      tag_61\n      swap2\n      swap1\n      tag_62\n      jump\t// in\n    tag_61:\n      tag_63\n      jump\t// in\n    tag_60:\n      stop\n        /* \"contracts/token/ERC20/MTMSAirdrop.sol\":763:782  IERC20 public token */\n    tag_14:\n      tag_64\n      tag_65\n      jump\t// in\n    tag_64:\n      mload(0x40)\n      tag_66\n      swap2\n      swap1\n      tag_67\n      jump\t// in\n    tag_66:\n      mload(0x40)\n      dup1\n      swap2\n      sub\n      swap1\n      return\n        /* \"contracts/token/ERC20/MTMSAirdrop.sol\":844:903  mapping(uint256 => mapping(address => bool)) public claimed */\n    tag_19:\n      mstore(0x20, 0x05)\n      dup2\n      0x00\n      mstore\n      mstore(0x20, keccak256(0x00, 0x40))\n      dup1\n      0x00\n      mstore\n      keccak256(0x00, 0x40)\n      0x00\n      swap2\n      pop\n      swap2\n      pop\n      swap1\n      sload\n      swap1\n      0x0100\n      exp\n      swap1\n      div\n      0xff\n      and\n      dup2\n      jump\t// out\n        /* \"contracts/token/ERC20/MTMSAirdrop.sol\":472:503  address[] public student_result */\n    tag_25:\n      0x02\n      dup2\n      dup2\n      sload\n      dup2\n      lt\n      tag_68\n      jumpi\n      0x00\n      dup1\n      revert\n    tag_68:\n      swap1\n      0x00\n      mstore\n      keccak256(0x00, 0x20)\n      add\n      0x00\n      swap2\n      pop\n      sload\n      swap1\n      0x0100\n      exp\n      swap1\n      div\n      0xffffffffffffffffffffffffffffffffffffffff\n      and\n      dup2\n      jump\t// out\n        /* \"contracts/token/ERC20/MTMSAirdrop.sol\":1644:1955  function claimWeek(\r... */\n    tag_31:\n        /* \"contracts/token/ERC20/MTMSAirdrop.sol\":1833:1897  _claimWeek(_liquidityProvider, _tranche, _balance, _merkleProof) */\n      tag_71\n        /* \"contracts/token/ERC20/MTMSAirdrop.sol\":1844:1862  _liquidityProvider */\n      dup5\n        /* \"contracts/token/ERC20/MTMSAirdrop.sol\":1864:1872  _tranche */\n      dup5\n        /* \"contracts/token/ERC20/MTMSAirdrop.sol\":1874:1882  _balance */\n      dup5\n        /* \"contracts/token/ERC20/MTMSAirdrop.sol\":1884:1896  _merkleProof */\n      dup5\n        /* \"contracts/token/ERC20/MTMSAirdrop.sol\":1833:1843  _claimWeek */\n      tag_72\n        /* \"contracts/token/ERC20/MTMSAirdrop.sol\":1833:1897  _claimWeek(_liquidityProvider, _tranche, _balance, _merkleProof) */\n      jump\t// in\n    tag_71:\n        /* \"contracts/token/ERC20/MTMSAirdrop.sol\":1908:1947  _disburse(_liquidityProvider, _balance) */\n      tag_73\n        /* \"contracts/token/ERC20/MTMSAirdrop.sol\":1918:1936  _liquidityProvider */\n      dup5\n        /* \"contracts/token/ERC20/MTMSAirdrop.sol\":1938:1946  _balance */\n      dup4\n        /* \"contracts/token/ERC20/MTMSAirdrop.sol\":1908:1917  _disburse */\n      tag_74\n        /* \"contracts/token/ERC20/MTMSAirdrop.sol\":1908:1947  _disburse(_liquidityProvider, _balance) */\n      jump\t// in\n    tag_73:\n        /* \"contracts/token/ERC20/MTMSAirdrop.sol\":1644:1955  function claimWeek(\r... */\n      pop\n      pop\n      pop\n      pop\n      jump\t// out\n        /* \"contracts/token/ERC20/MTMSAirdrop.sol\":1017:1446  function seedNewAllocations(bytes32 _merkleRoot, uint256 _totalAllocation)\r... */\n    tag_35:\n        /* \"contracts/token/ERC20/MTMSAirdrop.sol\":1145:1162  uint256 trancheId */\n      0x00\n        /* \"contracts/token/ERC20/Ownable.sol\":481:486  owner */\n      dup1\n      0x00\n      swap1\n      sload\n      swap1\n      0x0100\n      exp\n      swap1\n      div\n      0xffffffffffffffffffffffffffffffffffffffff\n      and\n        /* \"contracts/token/ERC20/Ownable.sol\":467:486  msg.sender == owner */\n      0xffffffffffffffffffffffffffffffffffffffff\n      and\n        /* \"contracts/token/ERC20/Ownable.sol\":467:477  msg.sender */\n      caller\n        /* \"contracts/token/ERC20/Ownable.sol\":467:486  msg.sender == owner */\n      0xffffffffffffffffffffffffffffffffffffffff\n      and\n      eq\n        /* \"contracts/token/ERC20/Ownable.sol\":459:487  require(msg.sender == owner) */\n      tag_76\n      jumpi\n      0x00\n      dup1\n      revert\n    tag_76:\n        /* \"contracts/token/ERC20/MTMSAirdrop.sol\":1180:1247  token.safeTransferFrom(msg.sender, address(this), _totalAllocation) */\n      tag_78\n        /* \"contracts/token/ERC20/MTMSAirdrop.sol\":1203:1213  msg.sender */\n      caller\n        /* \"contracts/token/ERC20/MTMSAirdrop.sol\":1223:1227  this */\n      address\n        /* \"contracts/token/ERC20/MTMSAirdrop.sol\":1230:1246  _totalAllocation */\n      dup5\n        /* \"contracts/token/ERC20/MTMSAirdrop.sol\":1180:1185  token */\n      0x03\n      0x00\n      swap1\n      sload\n      swap1\n      0x0100\n      exp\n      swap1\n      div\n      0xffffffffffffffffffffffffffffffffffffffff\n      and\n        /* \"contracts/token/ERC20/MTMSAirdrop.sol\":1180:1202  token.safeTransferFrom */\n      0xffffffffffffffffffffffffffffffffffffffff\n      and\n      tag_79\n      swap1\n        /* \"contracts/token/ERC20/MTMSAirdrop.sol\":1180:1247  token.safeTransferFrom(msg.sender, address(this), _totalAllocation) */\n      swap4\n      swap3\n      swap2\n      swap1\n      0xffffffff\n      and\n      jump\t// in\n    tag_78:\n        /* \"contracts/token/ERC20/MTMSAirdrop.sol\":1272:1280  tranches */\n      sload(0x06)\n        /* \"contracts/token/ERC20/MTMSAirdrop.sol\":1260:1280  trancheId = tranches */\n      swap1\n      pop\n        /* \"contracts/token/ERC20/MTMSAirdrop.sol\":1316:1327  _merkleRoot */\n      dup3\n        /* \"contracts/token/ERC20/MTMSAirdrop.sol\":1291:1302  merkleRoots */\n      0x04\n        /* \"contracts/token/ERC20/MTMSAirdrop.sol\":1291:1313  merkleRoots[trancheId] */\n      0x00\n        /* \"contracts/token/ERC20/MTMSAirdrop.sol\":1303:1312  trancheId */\n      dup4\n        /* \"contracts/token/ERC20/MTMSAirdrop.sol\":1291:1313  merkleRoots[trancheId] */\n      dup2\n      mstore\n      0x20\n      add\n      swap1\n      dup2\n      mstore\n      0x20\n      add\n      0x00\n      keccak256\n        /* \"contracts/token/ERC20/MTMSAirdrop.sol\":1291:1327  merkleRoots[trancheId] = _merkleRoot */\n      dup2\n      swap1\n      sstore\n      pop\n        /* \"contracts/token/ERC20/MTMSAirdrop.sol\":1351:1366  tranches.add(1) */\n      tag_80\n        /* \"contracts/token/ERC20/MTMSAirdrop.sol\":1364:1365  1 */\n      0x01\n        /* \"contracts/token/ERC20/MTMSAirdrop.sol\":1351:1359  tranches */\n      sload(0x06)\n        /* \"contracts/token/ERC20/MTMSAirdrop.sol\":1351:1363  tranches.add */\n      tag_81\n      swap1\n        /* \"contracts/token/ERC20/MTMSAirdrop.sol\":1351:1366  tranches.add(1) */\n      swap2\n      swap1\n      0xffffffff\n      and\n      jump\t// in\n    tag_80:\n        /* \"contracts/token/ERC20/MTMSAirdrop.sol\":1340:1348  tranches */\n      0x06\n        /* \"contracts/token/ERC20/MTMSAirdrop.sol\":1340:1366  tranches = tranches.add(1) */\n      dup2\n      swap1\n      sstore\n      pop\n        /* \"contracts/token/ERC20/MTMSAirdrop.sol\":1384:1438  TrancheAdded(trancheId, _merkleRoot, _totalAllocation) */\n      0x5c8770684b8f82e9ade880fb05ccfb53c969170cd40e9746a3703f241c9023ec\n        /* \"contracts/token/ERC20/MTMSAirdrop.sol\":1397:1406  trancheId */\n      dup2\n        /* \"contracts/token/ERC20/MTMSAirdrop.sol\":1408:1419  _merkleRoot */\n      dup5\n        /* \"contracts/token/ERC20/MTMSAirdrop.sol\":1421:1437  _totalAllocation */\n      dup5\n        /* \"contracts/token/ERC20/MTMSAirdrop.sol\":1384:1438  TrancheAdded(trancheId, _merkleRoot, _totalAllocation) */\n      mload(0x40)\n      tag_82\n      swap4\n      swap3\n      swap2\n      swap1\n      tag_83\n      jump\t// in\n    tag_82:\n      mload(0x40)\n      dup1\n      swap2\n      sub\n      swap1\n      log1\n        /* \"contracts/token/ERC20/MTMSAirdrop.sol\":1017:1446  function seedNewAllocations(bytes32 _merkleRoot, uint256 _totalAllocation)\r... */\n      swap3\n      swap2\n      pop\n      pop\n      jump\t// out\n        /* \"contracts/token/ERC20/MTMSAirdrop.sol\":791:837  mapping(uint256 => bytes32) public merkleRoots */\n    tag_40:\n      mstore(0x20, 0x04)\n      dup1\n      0x00\n      mstore\n      keccak256(0x00, 0x40)\n      0x00\n      swap2\n      pop\n      swap1\n      pop\n      sload\n      dup2\n      jump\t// out\n        /* \"contracts/token/ERC20/Ownable.sol\":51:71  address public owner */\n    tag_44:\n      0x00\n      dup1\n      sload\n      swap1\n      0x0100\n      exp\n      swap1\n      div\n      0xffffffffffffffffffffffffffffffffffffffff\n      and\n      dup2\n      jump\t// out\n        /* \"contracts/token/ERC20/MTMSAirdrop.sol\":1965:2609  function claimWeeks(\r... */\n    tag_49:\n        /* \"contracts/token/ERC20/MTMSAirdrop.sol\":2178:2189  uint256 len */\n      0x00\n        /* \"contracts/token/ERC20/MTMSAirdrop.sol\":2192:2201  _tranches */\n      dup4\n        /* \"contracts/token/ERC20/MTMSAirdrop.sol\":2192:2208  _tranches.length */\n      mload\n        /* \"contracts/token/ERC20/MTMSAirdrop.sol\":2178:2208  uint256 len = _tranches.length */\n      swap1\n      pop\n        /* \"contracts/token/ERC20/MTMSAirdrop.sol\":2234:2243  _balances */\n      dup3\n        /* \"contracts/token/ERC20/MTMSAirdrop.sol\":2234:2250  _balances.length */\n      mload\n        /* \"contracts/token/ERC20/MTMSAirdrop.sol\":2227:2230  len */\n      dup2\n        /* \"contracts/token/ERC20/MTMSAirdrop.sol\":2227:2250  len == _balances.length */\n      eq\n        /* \"contracts/token/ERC20/MTMSAirdrop.sol\":2227:2281  len == _balances.length && len == _merkleProofs.length */\n      dup1\n      iszero\n      tag_85\n      jumpi\n      pop\n        /* \"contracts/token/ERC20/MTMSAirdrop.sol\":2261:2274  _merkleProofs */\n      dup2\n        /* \"contracts/token/ERC20/MTMSAirdrop.sol\":2261:2281  _merkleProofs.length */\n      mload\n        /* \"contracts/token/ERC20/MTMSAirdrop.sol\":2254:2257  len */\n      dup2\n        /* \"contracts/token/ERC20/MTMSAirdrop.sol\":2254:2281  len == _merkleProofs.length */\n      eq\n        /* \"contracts/token/ERC20/MTMSAirdrop.sol\":2227:2281  len == _balances.length && len == _merkleProofs.length */\n    tag_85:\n        /* \"contracts/token/ERC20/MTMSAirdrop.sol\":2219:2304  require(len == _balances.length && len == _merkleProofs.length, \"Mismatching inputs\") */\n      tag_86\n      jumpi\n      mload(0x40)\n      0x08c379a000000000000000000000000000000000000000000000000000000000\n      dup2\n      mstore\n      0x04\n      add\n      tag_87\n      swap1\n      tag_88\n      jump\t// in\n    tag_87:\n      mload(0x40)\n      dup1\n      swap2\n      sub\n      swap1\n      revert\n    tag_86:\n        /* \"contracts/token/ERC20/MTMSAirdrop.sol\":2317:2337  uint256 totalBalance */\n      0x00\n        /* \"contracts/token/ERC20/MTMSAirdrop.sol\":2356:2365  uint256 i */\n      dup1\n        /* \"contracts/token/ERC20/MTMSAirdrop.sol\":2352:2548  for(uint256 i = 0; i < len; i++) {\r... */\n    tag_89:\n        /* \"contracts/token/ERC20/MTMSAirdrop.sol\":2375:2378  len */\n      dup3\n        /* \"contracts/token/ERC20/MTMSAirdrop.sol\":2371:2372  i */\n      dup2\n        /* \"contracts/token/ERC20/MTMSAirdrop.sol\":2371:2378  i < len */\n      lt\n        /* \"contracts/token/ERC20/MTMSAirdrop.sol\":2352:2548  for(uint256 i = 0; i < len; i++) {\r... */\n      iszero\n      tag_90\n      jumpi\n        /* \"contracts/token/ERC20/MTMSAirdrop.sol\":2400:2476  _claimWeek(_liquidityProvider, _tranches[i], _balances[i], _merkleProofs[i]) */\n      tag_92\n        /* \"contracts/token/ERC20/MTMSAirdrop.sol\":2411:2429  _liquidityProvider */\n      dup8\n        /* \"contracts/token/ERC20/MTMSAirdrop.sol\":2431:2440  _tranches */\n      dup8\n        /* \"contracts/token/ERC20/MTMSAirdrop.sol\":2441:2442  i */\n      dup4\n        /* \"contracts/token/ERC20/MTMSAirdrop.sol\":2431:2443  _tranches[i] */\n      dup2\n      mload\n      dup2\n      lt\n      tag_93\n      jumpi\n      tag_94\n      tag_95\n      jump\t// in\n    tag_94:\n    tag_93:\n      0x20\n      mul\n      0x20\n      add\n      add\n      mload\n        /* \"contracts/token/ERC20/MTMSAirdrop.sol\":2445:2454  _balances */\n      dup8\n        /* \"contracts/token/ERC20/MTMSAirdrop.sol\":2455:2456  i */\n      dup5\n        /* \"contracts/token/ERC20/MTMSAirdrop.sol\":2445:2457  _balances[i] */\n      dup2\n      mload\n      dup2\n      lt\n      tag_96\n      jumpi\n      tag_97\n      tag_95\n      jump\t// in\n    tag_97:\n    tag_96:\n      0x20\n      mul\n      0x20\n      add\n      add\n      mload\n        /* \"contracts/token/ERC20/MTMSAirdrop.sol\":2459:2472  _merkleProofs */\n      dup8\n        /* \"contracts/token/ERC20/MTMSAirdrop.sol\":2473:2474  i */\n      dup6\n        /* \"contracts/token/ERC20/MTMSAirdrop.sol\":2459:2475  _merkleProofs[i] */\n      dup2\n      mload\n      dup2\n      lt\n      tag_98\n      jumpi\n      tag_99\n      tag_95\n      jump\t// in\n    tag_99:\n    tag_98:\n      0x20\n      mul\n      0x20\n      add\n      add\n      mload\n        /* \"contracts/token/ERC20/MTMSAirdrop.sol\":2400:2410  _claimWeek */\n      tag_72\n        /* \"contracts/token/ERC20/MTMSAirdrop.sol\":2400:2476  _claimWeek(_liquidityProvider, _tranches[i], _balances[i], _merkleProofs[i]) */\n      jump\t// in\n    tag_92:\n        /* \"contracts/token/ERC20/MTMSAirdrop.sol\":2506:2536  totalBalance.add(_balances[i]) */\n      tag_100\n        /* \"contracts/token/ERC20/MTMSAirdrop.sol\":2523:2532  _balances */\n      dup6\n        /* \"contracts/token/ERC20/MTMSAirdrop.sol\":2533:2534  i */\n      dup3\n        /* \"contracts/token/ERC20/MTMSAirdrop.sol\":2523:2535  _balances[i] */\n      dup2\n      mload\n      dup2\n      lt\n      tag_101\n      jumpi\n      tag_102\n      tag_95\n      jump\t// in\n    tag_102:\n    tag_101:\n      0x20\n      mul\n      0x20\n      add\n      add\n      mload\n        /* \"contracts/token/ERC20/MTMSAirdrop.sol\":2506:2518  totalBalance */\n      dup4\n        /* \"contracts/token/ERC20/MTMSAirdrop.sol\":2506:2522  totalBalance.add */\n      tag_81\n      swap1\n        /* \"contracts/token/ERC20/MTMSAirdrop.sol\":2506:2536  totalBalance.add(_balances[i]) */\n      swap2\n      swap1\n      0xffffffff\n      and\n      jump\t// in\n    tag_100:\n        /* \"contracts/token/ERC20/MTMSAirdrop.sol\":2491:2536  totalBalance = totalBalance.add(_balances[i]) */\n      swap2\n      pop\n        /* \"contracts/token/ERC20/MTMSAirdrop.sol\":2380:2383  i++ */\n      dup1\n      dup1\n      tag_103\n      swap1\n      tag_104\n      jump\t// in\n    tag_103:\n      swap2\n      pop\n      pop\n        /* \"contracts/token/ERC20/MTMSAirdrop.sol\":2352:2548  for(uint256 i = 0; i < len; i++) {\r... */\n      jump(tag_89)\n    tag_90:\n      pop\n        /* \"contracts/token/ERC20/MTMSAirdrop.sol\":2558:2601  _disburse(_liquidityProvider, totalBalance) */\n      tag_105\n        /* \"contracts/token/ERC20/MTMSAirdrop.sol\":2568:2586  _liquidityProvider */\n      dup7\n        /* \"contracts/token/ERC20/MTMSAirdrop.sol\":2588:2600  totalBalance */\n      dup3\n        /* \"contracts/token/ERC20/MTMSAirdrop.sol\":2558:2567  _disburse */\n      tag_74\n        /* \"contracts/token/ERC20/MTMSAirdrop.sol\":2558:2601  _disburse(_liquidityProvider, totalBalance) */\n      jump\t// in\n    tag_105:\n        /* \"contracts/token/ERC20/MTMSAirdrop.sol\":2167:2609  {\r... */\n      pop\n      pop\n        /* \"contracts/token/ERC20/MTMSAirdrop.sol\":1965:2609  function claimWeeks(\r... */\n      pop\n      pop\n      pop\n      pop\n      jump\t// out\n        /* \"contracts/token/ERC20/MTMSAirdrop.sol\":1454:1636  function expireTranche(uint256 _trancheId)\r... */\n    tag_52:\n        /* \"contracts/token/ERC20/Ownable.sol\":481:486  owner */\n      0x00\n      dup1\n      sload\n      swap1\n      0x0100\n      exp\n      swap1\n      div\n      0xffffffffffffffffffffffffffffffffffffffff\n      and\n        /* \"contracts/token/ERC20/Ownable.sol\":467:486  msg.sender == owner */\n      0xffffffffffffffffffffffffffffffffffffffff\n      and\n        /* \"contracts/token/ERC20/Ownable.sol\":467:477  msg.sender */\n      caller\n        /* \"contracts/token/ERC20/Ownable.sol\":467:486  msg.sender == owner */\n      0xffffffffffffffffffffffffffffffffffffffff\n      and\n      eq\n        /* \"contracts/token/ERC20/Ownable.sol\":459:487  require(msg.sender == owner) */\n      tag_107\n      jumpi\n      0x00\n      dup1\n      revert\n    tag_107:\n        /* \"contracts/token/ERC20/MTMSAirdrop.sol\":1582:1583  0 */\n      0x00\n        /* \"contracts/token/ERC20/MTMSAirdrop.sol\":1574:1584  bytes32(0) */\n      dup1\n      shl\n        /* \"contracts/token/ERC20/MTMSAirdrop.sol\":1548:1559  merkleRoots */\n      0x04\n        /* \"contracts/token/ERC20/MTMSAirdrop.sol\":1548:1571  merkleRoots[_trancheId] */\n      0x00\n        /* \"contracts/token/ERC20/MTMSAirdrop.sol\":1560:1570  _trancheId */\n      dup4\n        /* \"contracts/token/ERC20/MTMSAirdrop.sol\":1548:1571  merkleRoots[_trancheId] */\n      dup2\n      mstore\n      0x20\n      add\n      swap1\n      dup2\n      mstore\n      0x20\n      add\n      0x00\n      keccak256\n        /* \"contracts/token/ERC20/MTMSAirdrop.sol\":1548:1584  merkleRoots[_trancheId] = bytes32(0) */\n      dup2\n      swap1\n      sstore\n      pop\n        /* \"contracts/token/ERC20/MTMSAirdrop.sol\":1602:1628  TrancheExpired(_trancheId) */\n      0xcc071cbd9ae50a4c78d1153b76bd2d46ba8d4c7662842718ec3de1d67a144daf\n        /* \"contracts/token/ERC20/MTMSAirdrop.sol\":1617:1627  _trancheId */\n      dup2\n        /* \"contracts/token/ERC20/MTMSAirdrop.sol\":1602:1628  TrancheExpired(_trancheId) */\n      mload(0x40)\n      tag_109\n      swap2\n      swap1\n      tag_37\n      jump\t// in\n    tag_109:\n      mload(0x40)\n      dup1\n      swap2\n      sub\n      swap1\n      log1\n        /* \"contracts/token/ERC20/MTMSAirdrop.sol\":1454:1636  function expireTranche(uint256 _trancheId)\r... */\n      pop\n      jump\t// out\n        /* \"contracts/token/ERC20/MTMSAirdrop.sol\":2619:2935  function verifyClaim(\r... */\n    tag_55:\n        /* \"contracts/token/ERC20/MTMSAirdrop.sol\":2826:2836  bool valid */\n      0x00\n        /* \"contracts/token/ERC20/MTMSAirdrop.sol\":2861:2927  _verifyClaim(_liquidityProvider, _tranche, _balance, _merkleProof) */\n      tag_111\n        /* \"contracts/token/ERC20/MTMSAirdrop.sol\":2874:2892  _liquidityProvider */\n      dup6\n        /* \"contracts/token/ERC20/MTMSAirdrop.sol\":2894:2902  _tranche */\n      dup6\n        /* \"contracts/token/ERC20/MTMSAirdrop.sol\":2904:2912  _balance */\n      dup6\n        /* \"contracts/token/ERC20/MTMSAirdrop.sol\":2914:2926  _merkleProof */\n      dup6\n        /* \"contracts/token/ERC20/MTMSAirdrop.sol\":2861:2873  _verifyClaim */\n      tag_112\n        /* \"contracts/token/ERC20/MTMSAirdrop.sol\":2861:2927  _verifyClaim(_liquidityProvider, _tranche, _balance, _merkleProof) */\n      jump\t// in\n    tag_111:\n        /* \"contracts/token/ERC20/MTMSAirdrop.sol\":2854:2927  return _verifyClaim(_liquidityProvider, _tranche, _balance, _merkleProof) */\n      swap1\n      pop\n        /* \"contracts/token/ERC20/MTMSAirdrop.sol\":2619:2935  function verifyClaim(\r... */\n      swap5\n      swap4\n      pop\n      pop\n      pop\n      pop\n      jump\t// out\n        /* \"contracts/token/ERC20/MTMSAirdrop.sol\":910:933  uint256 public tranches */\n    tag_58:\n      sload(0x06)\n      dup2\n      jump\t// out\n        /* \"contracts/token/ERC20/Ownable.sol\":670:848  function transferOwnership(address newOwner) onlyOwner public {\r... */\n    tag_63:\n        /* \"contracts/token/ERC20/Ownable.sol\":481:486  owner */\n      0x00\n      dup1\n      sload\n      swap1\n      0x0100\n      exp\n      swap1\n      div\n      0xffffffffffffffffffffffffffffffffffffffff\n      and\n        /* \"contracts/token/ERC20/Ownable.sol\":467:486  msg.sender == owner */\n      0xffffffffffffffffffffffffffffffffffffffff\n      and\n        /* \"contracts/token/ERC20/Ownable.sol\":467:477  msg.sender */\n      caller\n        /* \"contracts/token/ERC20/Ownable.sol\":467:486  msg.sender == owner */\n      0xffffffffffffffffffffffffffffffffffffffff\n      and\n      eq\n        /* \"contracts/token/ERC20/Ownable.sol\":459:487  require(msg.sender == owner) */\n      tag_114\n      jumpi\n      0x00\n      dup1\n      revert\n    tag_114:\n        /* \"contracts/token/ERC20/Ownable.sol\":767:768  0 */\n      0x00\n        /* \"contracts/token/ERC20/Ownable.sol\":747:769  newOwner != address(0) */\n      0xffffffffffffffffffffffffffffffffffffffff\n      and\n        /* \"contracts/token/ERC20/Ownable.sol\":747:755  newOwner */\n      dup2\n        /* \"contracts/token/ERC20/Ownable.sol\":747:769  newOwner != address(0) */\n      0xffffffffffffffffffffffffffffffffffffffff\n      and\n      eq\n      iszero\n        /* \"contracts/token/ERC20/Ownable.sol\":739:770  require(newOwner != address(0)) */\n      tag_116\n      jumpi\n      0x00\n      dup1\n      revert\n    tag_116:\n        /* \"contracts/token/ERC20/Ownable.sol\":810:818  newOwner */\n      dup1\n        /* \"contracts/token/ERC20/Ownable.sol\":782:819  OwnershipTransferred(owner, newOwner) */\n      0xffffffffffffffffffffffffffffffffffffffff\n      and\n        /* \"contracts/token/ERC20/Ownable.sol\":803:808  owner */\n      0x00\n      dup1\n      sload\n      swap1\n      0x0100\n      exp\n      swap1\n      div\n      0xffffffffffffffffffffffffffffffffffffffff\n      and\n        /* \"contracts/token/ERC20/Ownable.sol\":782:819  OwnershipTransferred(owner, newOwner) */\n      0xffffffffffffffffffffffffffffffffffffffff\n      and\n      0x8be0079c531659141344cd1fd0a4f28419497f9722a3daafe3b4186f6b6457e0\n      mload(0x40)\n      mload(0x40)\n      dup1\n      swap2\n      sub\n      swap1\n      log3\n        /* \"contracts/token/ERC20/Ownable.sol\":834:842  newOwner */\n      dup1\n        /* \"contracts/token/ERC20/Ownable.sol\":826:831  owner */\n      0x00\n      dup1\n        /* \"contracts/token/ERC20/Ownable.sol\":826:842  owner = newOwner */\n      0x0100\n      exp\n      dup2\n      sload\n      dup2\n      0xffffffffffffffffffffffffffffffffffffffff\n      mul\n      not\n      and\n      swap1\n      dup4\n      0xffffffffffffffffffffffffffffffffffffffff\n      and\n      mul\n      or\n      swap1\n      sstore\n      pop\n        /* \"contracts/token/ERC20/Ownable.sol\":670:848  function transferOwnership(address newOwner) onlyOwner public {\r... */\n      pop\n      jump\t// out\n        /* \"contracts/token/ERC20/MTMSAirdrop.sol\":763:782  IERC20 public token */\n    tag_65:\n      0x03\n      0x00\n      swap1\n      sload\n      swap1\n      0x0100\n      exp\n      swap1\n      div\n      0xffffffffffffffffffffffffffffffffffffffff\n      and\n      dup2\n      jump\t// out\n        /* \"contracts/token/ERC20/MTMSAirdrop.sol\":2943:3522  function _claimWeek(\r... */\n    tag_72:\n        /* \"contracts/token/ERC20/MTMSAirdrop.sol\":3153:3161  tranches */\n      sload(0x06)\n        /* \"contracts/token/ERC20/MTMSAirdrop.sol\":3142:3150  _tranche */\n      dup4\n        /* \"contracts/token/ERC20/MTMSAirdrop.sol\":3142:3161  _tranche < tranches */\n      lt\n        /* \"contracts/token/ERC20/MTMSAirdrop.sol\":3134:3194  require(_tranche < tranches, \"Week cannot be in the future\") */\n      tag_118\n      jumpi\n      mload(0x40)\n      0x08c379a000000000000000000000000000000000000000000000000000000000\n      dup2\n      mstore\n      0x04\n      add\n      tag_119\n      swap1\n      tag_120\n      jump\t// in\n    tag_119:\n      mload(0x40)\n      dup1\n      swap2\n      sub\n      swap1\n      revert\n    tag_118:\n        /* \"contracts/token/ERC20/MTMSAirdrop.sol\":3216:3223  claimed */\n      0x05\n        /* \"contracts/token/ERC20/MTMSAirdrop.sol\":3216:3233  claimed[_tranche] */\n      0x00\n        /* \"contracts/token/ERC20/MTMSAirdrop.sol\":3224:3232  _tranche */\n      dup5\n        /* \"contracts/token/ERC20/MTMSAirdrop.sol\":3216:3233  claimed[_tranche] */\n      dup2\n      mstore\n      0x20\n      add\n      swap1\n      dup2\n      mstore\n      0x20\n      add\n      0x00\n      keccak256\n        /* \"contracts/token/ERC20/MTMSAirdrop.sol\":3216:3253  claimed[_tranche][_liquidityProvider] */\n      0x00\n        /* \"contracts/token/ERC20/MTMSAirdrop.sol\":3234:3252  _liquidityProvider */\n      dup6\n        /* \"contracts/token/ERC20/MTMSAirdrop.sol\":3216:3253  claimed[_tranche][_liquidityProvider] */\n      0xffffffffffffffffffffffffffffffffffffffff\n      and\n      0xffffffffffffffffffffffffffffffffffffffff\n      and\n      dup2\n      mstore\n      0x20\n      add\n      swap1\n      dup2\n      mstore\n      0x20\n      add\n      0x00\n      keccak256\n      0x00\n      swap1\n      sload\n      swap1\n      0x0100\n      exp\n      swap1\n      div\n      0xff\n      and\n        /* \"contracts/token/ERC20/MTMSAirdrop.sol\":3215:3253  !claimed[_tranche][_liquidityProvider] */\n      iszero\n        /* \"contracts/token/ERC20/MTMSAirdrop.sol\":3207:3280  require(!claimed[_tranche][_liquidityProvider], \"LP has already claimed\") */\n      tag_121\n      jumpi\n      mload(0x40)\n      0x08c379a000000000000000000000000000000000000000000000000000000000\n      dup2\n      mstore\n      0x04\n      add\n      tag_122\n      swap1\n      tag_123\n      jump\t// in\n    tag_122:\n      mload(0x40)\n      dup1\n      swap2\n      sub\n      swap1\n      revert\n    tag_121:\n        /* \"contracts/token/ERC20/MTMSAirdrop.sol\":3299:3365  _verifyClaim(_liquidityProvider, _tranche, _balance, _merkleProof) */\n      tag_124\n        /* \"contracts/token/ERC20/MTMSAirdrop.sol\":3312:3330  _liquidityProvider */\n      dup5\n        /* \"contracts/token/ERC20/MTMSAirdrop.sol\":3332:3340  _tranche */\n      dup5\n        /* \"contracts/token/ERC20/MTMSAirdrop.sol\":3342:3350  _balance */\n      dup5\n        /* \"contracts/token/ERC20/MTMSAirdrop.sol\":3352:3364  _merkleProof */\n      dup5\n        /* \"contracts/token/ERC20/MTMSAirdrop.sol\":3299:3311  _verifyClaim */\n      tag_112\n        /* \"contracts/token/ERC20/MTMSAirdrop.sol\":3299:3365  _verifyClaim(_liquidityProvider, _tranche, _balance, _merkleProof) */\n      jump\t// in\n    tag_124:\n        /* \"contracts/token/ERC20/MTMSAirdrop.sol\":3291:3392  require(_verifyClaim(_liquidityProvider, _tranche, _balance, _merkleProof), \"Incorrect merkle proof\") */\n      tag_125\n      jumpi\n      mload(0x40)\n      0x08c379a000000000000000000000000000000000000000000000000000000000\n      dup2\n      mstore\n      0x04\n      add\n      tag_126\n      swap1\n      tag_127\n      jump\t// in\n    tag_126:\n      mload(0x40)\n      dup1\n      swap2\n      sub\n      swap1\n      revert\n    tag_125:\n        /* \"contracts/token/ERC20/MTMSAirdrop.sol\":3445:3449  true */\n      0x01\n        /* \"contracts/token/ERC20/MTMSAirdrop.sol\":3405:3412  claimed */\n      0x05\n        /* \"contracts/token/ERC20/MTMSAirdrop.sol\":3405:3422  claimed[_tranche] */\n      0x00\n        /* \"contracts/token/ERC20/MTMSAirdrop.sol\":3413:3421  _tranche */\n      dup6\n        /* \"contracts/token/ERC20/MTMSAirdrop.sol\":3405:3422  claimed[_tranche] */\n      dup2\n      mstore\n      0x20\n      add\n      swap1\n      dup2\n      mstore\n      0x20\n      add\n      0x00\n      keccak256\n        /* \"contracts/token/ERC20/MTMSAirdrop.sol\":3405:3442  claimed[_tranche][_liquidityProvider] */\n      0x00\n        /* \"contracts/token/ERC20/MTMSAirdrop.sol\":3423:3441  _liquidityProvider */\n      dup7\n        /* \"contracts/token/ERC20/MTMSAirdrop.sol\":3405:3442  claimed[_tranche][_liquidityProvider] */\n      0xffffffffffffffffffffffffffffffffffffffff\n      and\n      0xffffffffffffffffffffffffffffffffffffffff\n      and\n      dup2\n      mstore\n      0x20\n      add\n      swap1\n      dup2\n      mstore\n      0x20\n      add\n      0x00\n      keccak256\n      0x00\n        /* \"contracts/token/ERC20/MTMSAirdrop.sol\":3405:3449  claimed[_tranche][_liquidityProvider] = true */\n      0x0100\n      exp\n      dup2\n      sload\n      dup2\n      0xff\n      mul\n      not\n      and\n      swap1\n      dup4\n      iszero\n      iszero\n      mul\n      or\n      swap1\n      sstore\n      pop\n        /* \"contracts/token/ERC20/MTMSAirdrop.sol\":3467:3514  Claimed(_liquidityProvider, _tranche, _balance) */\n      0x987d620f307ff6b94d58743cb7a7509f24071586a77759b77c2d4e29f75a2f9a\n        /* \"contracts/token/ERC20/MTMSAirdrop.sol\":3475:3493  _liquidityProvider */\n      dup5\n        /* \"contracts/token/ERC20/MTMSAirdrop.sol\":3495:3503  _tranche */\n      dup5\n        /* \"contracts/token/ERC20/MTMSAirdrop.sol\":3505:3513  _balance */\n      dup5\n        /* \"contracts/token/ERC20/MTMSAirdrop.sol\":3467:3514  Claimed(_liquidityProvider, _tranche, _balance) */\n      mload(0x40)\n      tag_128\n      swap4\n      swap3\n      swap2\n      swap1\n      tag_129\n      jump\t// in\n    tag_128:\n      mload(0x40)\n      dup1\n      swap2\n      sub\n      swap1\n      log1\n        /* \"contracts/token/ERC20/MTMSAirdrop.sol\":2943:3522  function _claimWeek(\r... */\n      pop\n      pop\n      pop\n      pop\n      jump\t// out\n        /* \"contracts/token/ERC20/MTMSAirdrop.sol\":3938:4226  function _disburse(address _liquidityProvider, uint256 _balance) private {\r... */\n    tag_74:\n        /* \"contracts/token/ERC20/MTMSAirdrop.sol\":4037:4038  0 */\n      0x00\n        /* \"contracts/token/ERC20/MTMSAirdrop.sol\":4026:4034  _balance */\n      dup2\n        /* \"contracts/token/ERC20/MTMSAirdrop.sol\":4026:4038  _balance > 0 */\n      gt\n        /* \"contracts/token/ERC20/MTMSAirdrop.sol\":4022:4219  if (_balance > 0) {\r... */\n      iszero\n      tag_131\n      jumpi\n        /* \"contracts/token/ERC20/MTMSAirdrop.sol\":4055:4103  token.safeTransfer(_liquidityProvider, _balance) */\n      tag_132\n        /* \"contracts/token/ERC20/MTMSAirdrop.sol\":4074:4092  _liquidityProvider */\n      dup3\n        /* \"contracts/token/ERC20/MTMSAirdrop.sol\":4094:4102  _balance */\n      dup3\n        /* \"contracts/token/ERC20/MTMSAirdrop.sol\":4055:4060  token */\n      0x03\n      0x00\n      swap1\n      sload\n      swap1\n      0x0100\n      exp\n      swap1\n      div\n      0xffffffffffffffffffffffffffffffffffffffff\n      and\n        /* \"contracts/token/ERC20/MTMSAirdrop.sol\":4055:4073  token.safeTransfer */\n      0xffffffffffffffffffffffffffffffffffffffff\n      and\n      tag_133\n      swap1\n        /* \"contracts/token/ERC20/MTMSAirdrop.sol\":4055:4103  token.safeTransfer(_liquidityProvider, _balance) */\n      swap3\n      swap2\n      swap1\n      0xffffffff\n      and\n      jump\t// in\n    tag_132:\n        /* \"contracts/token/ERC20/MTMSAirdrop.sol\":4022:4219  if (_balance > 0) {\r... */\n      jump(tag_134)\n    tag_131:\n        /* \"contracts/token/ERC20/MTMSAirdrop.sol\":4136:4207  revert(\"No balance would be transferred - not going to waste your gas\") */\n      mload(0x40)\n      0x08c379a000000000000000000000000000000000000000000000000000000000\n      dup2\n      mstore\n      0x04\n      add\n      tag_135\n      swap1\n      tag_136\n      jump\t// in\n    tag_135:\n      mload(0x40)\n      dup1\n      swap2\n      sub\n      swap1\n      revert\n        /* \"contracts/token/ERC20/MTMSAirdrop.sol\":4022:4219  if (_balance > 0) {\r... */\n    tag_134:\n        /* \"contracts/token/ERC20/MTMSAirdrop.sol\":3938:4226  function _disburse(address _liquidityProvider, uint256 _balance) private {\r... */\n      pop\n      pop\n      jump\t// out\n        /* \"contracts/token/ERC20/SafeERC20.sol\":936:1184  function safeTransferFrom(\r... */\n    tag_79:\n        /* \"contracts/token/ERC20/SafeERC20.sol\":1080:1176  _callOptionalReturn(token, abi.encodeWithSelector(token.transferFrom.selector, from, to, value)) */\n      tag_138\n        /* \"contracts/token/ERC20/SafeERC20.sol\":1100:1105  token */\n      dup5\n        /* \"contracts/token/ERC20/SafeERC20.sol\":1130:1157  token.transferFrom.selector */\n      shl(0xe0, 0x23b872dd)\n        /* \"contracts/token/ERC20/SafeERC20.sol\":1159:1163  from */\n      dup6\n        /* \"contracts/token/ERC20/SafeERC20.sol\":1165:1167  to */\n      dup6\n        /* \"contracts/token/ERC20/SafeERC20.sol\":1169:1174  value */\n      dup6\n        /* \"contracts/token/ERC20/SafeERC20.sol\":1107:1175  abi.encodeWithSelector(token.transferFrom.selector, from, to, value) */\n      add(0x24, mload(0x40))\n      tag_139\n      swap4\n      swap3\n      swap2\n      swap1\n      tag_140\n      jump\t// in\n    tag_139:\n      mload(0x40)\n      0x20\n      dup2\n      dup4\n      sub\n      sub\n      dup2\n      mstore\n      swap1\n      0x40\n      mstore\n      swap1\n      not(0xffffffffffffffffffffffffffffffffffffffffffffffffffffffff)\n      and\n      0x20\n      dup3\n      add\n      dup1\n      mload\n      0xffffffffffffffffffffffffffffffffffffffffffffffffffffffff\n      dup4\n      dup2\n      dup4\n      and\n      or\n      dup4\n      mstore\n      pop\n      pop\n      pop\n      pop\n        /* \"contracts/token/ERC20/SafeERC20.sol\":1080:1099  _callOptionalReturn */\n      tag_141\n        /* \"contracts/token/ERC20/SafeERC20.sol\":1080:1176  _callOptionalReturn(token, abi.encodeWithSelector(token.transferFrom.selector, from, to, value)) */\n      jump\t// in\n    tag_138:\n        /* \"contracts/token/ERC20/SafeERC20.sol\":936:1184  function safeTransferFrom(\r... */\n      pop\n      pop\n      pop\n      pop\n      jump\t// out\n        /* \"contracts/token/ERC20/SafeMath.sol\":1998:2163  function add(uint256 a, uint256 b) internal pure returns (uint256) {\r... */\n    tag_81:\n        /* \"contracts/token/ERC20/SafeMath.sol\":2056:2063  uint256 */\n      0x00\n        /* \"contracts/token/ERC20/SafeMath.sol\":2072:2081  uint256 c */\n      dup1\n        /* \"contracts/token/ERC20/SafeMath.sol\":2088:2089  b */\n      dup3\n        /* \"contracts/token/ERC20/SafeMath.sol\":2084:2085  a */\n      dup5\n        /* \"contracts/token/ERC20/SafeMath.sol\":2084:2089  a + b */\n      tag_143\n      swap2\n      swap1\n      tag_144\n      jump\t// in\n    tag_143:\n        /* \"contracts/token/ERC20/SafeMath.sol\":2072:2089  uint256 c = a + b */\n      swap1\n      pop\n        /* \"contracts/token/ERC20/SafeMath.sol\":2109:2110  a */\n      dup4\n        /* \"contracts/token/ERC20/SafeMath.sol\":2104:2105  c */\n      dup2\n        /* \"contracts/token/ERC20/SafeMath.sol\":2104:2110  c >= a */\n      lt\n      iszero\n        /* \"contracts/token/ERC20/SafeMath.sol\":2096:2142  require(c >= a, \"SafeMath: addition overflow\") */\n      tag_145\n      jumpi\n      mload(0x40)\n      0x08c379a000000000000000000000000000000000000000000000000000000000\n      dup2\n      mstore\n      0x04\n      add\n      tag_146\n      swap1\n      tag_147\n      jump\t// in\n    tag_146:\n      mload(0x40)\n      dup1\n      swap2\n      sub\n      swap1\n      revert\n    tag_145:\n        /* \"contracts/token/ERC20/SafeMath.sol\":2156:2157  c */\n      dup1\n        /* \"contracts/token/ERC20/SafeMath.sol\":2149:2157  return c */\n      swap2\n      pop\n      pop\n        /* \"contracts/token/ERC20/SafeMath.sol\":1998:2163  function add(uint256 a, uint256 b) internal pure returns (uint256) {\r... */\n      swap3\n      swap2\n      pop\n      pop\n      jump\t// out\n        /* \"contracts/token/ERC20/MTMSAirdrop.sol\":3532:3928  function _verifyClaim(\r... */\n    tag_112:\n        /* \"contracts/token/ERC20/MTMSAirdrop.sol\":3741:3751  bool valid */\n      0x00\n        /* \"contracts/token/ERC20/MTMSAirdrop.sol\":3769:3781  bytes32 leaf */\n      dup1\n        /* \"contracts/token/ERC20/MTMSAirdrop.sol\":3811:3829  _liquidityProvider */\n      dup6\n        /* \"contracts/token/ERC20/MTMSAirdrop.sol\":3831:3839  _balance */\n      dup5\n        /* \"contracts/token/ERC20/MTMSAirdrop.sol\":3794:3840  abi.encodePacked(_liquidityProvider, _balance) */\n      add(0x20, mload(0x40))\n      tag_149\n      swap3\n      swap2\n      swap1\n      tag_150\n      jump\t// in\n    tag_149:\n      mload(0x40)\n      0x20\n      dup2\n      dup4\n      sub\n      sub\n      dup2\n      mstore\n      swap1\n      0x40\n      mstore\n        /* \"contracts/token/ERC20/MTMSAirdrop.sol\":3784:3841  keccak256(abi.encodePacked(_liquidityProvider, _balance)) */\n      dup1\n      mload\n      swap1\n      0x20\n      add\n      keccak256\n        /* \"contracts/token/ERC20/MTMSAirdrop.sol\":3769:3841  bytes32 leaf = keccak256(abi.encodePacked(_liquidityProvider, _balance)) */\n      swap1\n      pop\n        /* \"contracts/token/ERC20/MTMSAirdrop.sol\":3859:3920  MerkleProof.verify(_merkleProof, merkleRoots[_tranche], leaf) */\n      tag_151\n        /* \"contracts/token/ERC20/MTMSAirdrop.sol\":3878:3890  _merkleProof */\n      dup4\n        /* \"contracts/token/ERC20/MTMSAirdrop.sol\":3892:3903  merkleRoots */\n      0x04\n        /* \"contracts/token/ERC20/MTMSAirdrop.sol\":3892:3913  merkleRoots[_tranche] */\n      0x00\n        /* \"contracts/token/ERC20/MTMSAirdrop.sol\":3904:3912  _tranche */\n      dup9\n        /* \"contracts/token/ERC20/MTMSAirdrop.sol\":3892:3913  merkleRoots[_tranche] */\n      dup2\n      mstore\n      0x20\n      add\n      swap1\n      dup2\n      mstore\n      0x20\n      add\n      0x00\n      keccak256\n      sload\n        /* \"contracts/token/ERC20/MTMSAirdrop.sol\":3915:3919  leaf */\n      dup4\n        /* \"contracts/token/ERC20/MTMSAirdrop.sol\":3859:3877  MerkleProof.verify */\n      tag_152\n        /* \"contracts/token/ERC20/MTMSAirdrop.sol\":3859:3920  MerkleProof.verify(_merkleProof, merkleRoots[_tranche], leaf) */\n      jump\t// in\n    tag_151:\n        /* \"contracts/token/ERC20/MTMSAirdrop.sol\":3852:3920  return MerkleProof.verify(_merkleProof, merkleRoots[_tranche], leaf) */\n      swap2\n      pop\n      pop\n        /* \"contracts/token/ERC20/MTMSAirdrop.sol\":3532:3928  function _verifyClaim(\r... */\n      swap5\n      swap4\n      pop\n      pop\n      pop\n      pop\n      jump\t// out\n        /* \"contracts/token/ERC20/SafeERC20.sol\":717:928  function safeTransfer(\r... */\n    tag_133:\n        /* \"contracts/token/ERC20/SafeERC20.sol\":834:920  _callOptionalReturn(token, abi.encodeWithSelector(token.transfer.selector, to, value)) */\n      tag_154\n        /* \"contracts/token/ERC20/SafeERC20.sol\":854:859  token */\n      dup4\n        /* \"contracts/token/ERC20/SafeERC20.sol\":884:907  token.transfer.selector */\n      shl(0xe0, 0xa9059cbb)\n        /* \"contracts/token/ERC20/SafeERC20.sol\":909:911  to */\n      dup5\n        /* \"contracts/token/ERC20/SafeERC20.sol\":913:918  value */\n      dup5\n        /* \"contracts/token/ERC20/SafeERC20.sol\":861:919  abi.encodeWithSelector(token.transfer.selector, to, value) */\n      add(0x24, mload(0x40))\n      tag_155\n      swap3\n      swap2\n      swap1\n      tag_156\n      jump\t// in\n    tag_155:\n      mload(0x40)\n      0x20\n      dup2\n      dup4\n      sub\n      sub\n      dup2\n      mstore\n      swap1\n      0x40\n      mstore\n      swap1\n      not(0xffffffffffffffffffffffffffffffffffffffffffffffffffffffff)\n      and\n      0x20\n      dup3\n      add\n      dup1\n      mload\n      0xffffffffffffffffffffffffffffffffffffffffffffffffffffffff\n      dup4\n      dup2\n      dup4\n      and\n      or\n      dup4\n      mstore\n      pop\n      pop\n      pop\n      pop\n        /* \"contracts/token/ERC20/SafeERC20.sol\":834:853  _callOptionalReturn */\n      tag_141\n        /* \"contracts/token/ERC20/SafeERC20.sol\":834:920  _callOptionalReturn(token, abi.encodeWithSelector(token.transfer.selector, to, value)) */\n      jump\t// in\n    tag_154:\n        /* \"contracts/token/ERC20/SafeERC20.sol\":717:928  function safeTransfer(\r... */\n      pop\n      pop\n      pop\n      jump\t// out\n        /* \"contracts/token/ERC20/SafeERC20.sol\":3290:4006  function _callOptionalReturn(IERC20 token, bytes memory data) private {\r... */\n    tag_141:\n        /* \"contracts/token/ERC20/SafeERC20.sol\":3714:3737  bytes memory returndata */\n      0x00\n        /* \"contracts/token/ERC20/SafeERC20.sol\":3740:3809  address(token).functionCall(data, \"SafeERC20: low-level call failed\") */\n      tag_158\n        /* \"contracts/token/ERC20/SafeERC20.sol\":3768:3772  data */\n      dup3\n        /* \"contracts/token/ERC20/SafeERC20.sol\":3740:3809  address(token).functionCall(data, \"SafeERC20: low-level call failed\") */\n      mload(0x40)\n      dup1\n      0x40\n      add\n      0x40\n      mstore\n      dup1\n      0x20\n      dup2\n      mstore\n      0x20\n      add\n      0x5361666545524332303a206c6f772d6c6576656c2063616c6c206661696c6564\n      dup2\n      mstore\n      pop\n        /* \"contracts/token/ERC20/SafeERC20.sol\":3748:3753  token */\n      dup6\n        /* \"contracts/token/ERC20/SafeERC20.sol\":3740:3767  address(token).functionCall */\n      0xffffffffffffffffffffffffffffffffffffffff\n      and\n      tag_159\n      swap1\n        /* \"contracts/token/ERC20/SafeERC20.sol\":3740:3809  address(token).functionCall(data, \"SafeERC20: low-level call failed\") */\n      swap3\n      swap2\n      swap1\n      0xffffffff\n      and\n      jump\t// in\n    tag_158:\n        /* \"contracts/token/ERC20/SafeERC20.sol\":3714:3809  bytes memory returndata = address(token).functionCall(data, \"SafeERC20: low-level call failed\") */\n      swap1\n      pop\n        /* \"contracts/token/ERC20/SafeERC20.sol\":3844:3845  0 */\n      0x00\n        /* \"contracts/token/ERC20/SafeERC20.sol\":3824:3834  returndata */\n      dup2\n        /* \"contracts/token/ERC20/SafeERC20.sol\":3824:3841  returndata.length */\n      mload\n        /* \"contracts/token/ERC20/SafeERC20.sol\":3824:3845  returndata.length > 0 */\n      gt\n        /* \"contracts/token/ERC20/SafeERC20.sol\":3820:3999  if (returndata.length > 0) {\r... */\n      iszero\n      tag_160\n      jumpi\n        /* \"contracts/token/ERC20/SafeERC20.sol\":3921:3931  returndata */\n      dup1\n        /* \"contracts/token/ERC20/SafeERC20.sol\":3910:3940  abi.decode(returndata, (bool)) */\n      dup1\n      0x20\n      add\n      swap1\n      mload\n      dup2\n      add\n      swap1\n      tag_161\n      swap2\n      swap1\n      tag_162\n      jump\t// in\n    tag_161:\n        /* \"contracts/token/ERC20/SafeERC20.sol\":3902:3987  require(abi.decode(returndata, (bool)), \"SafeERC20: ERC20 operation did not succeed\") */\n      tag_163\n      jumpi\n      mload(0x40)\n      0x08c379a000000000000000000000000000000000000000000000000000000000\n      dup2\n      mstore\n      0x04\n      add\n      tag_164\n      swap1\n      tag_165\n      jump\t// in\n    tag_164:\n      mload(0x40)\n      dup1\n      swap2\n      sub\n      swap1\n      revert\n    tag_163:\n        /* \"contracts/token/ERC20/SafeERC20.sol\":3820:3999  if (returndata.length > 0) {\r... */\n    tag_160:\n        /* \"contracts/token/ERC20/SafeERC20.sol\":3360:4006  {\r... */\n      pop\n        /* \"contracts/token/ERC20/SafeERC20.sol\":3290:4006  function _callOptionalReturn(IERC20 token, bytes memory data) private {\r... */\n      pop\n      pop\n      jump\t// out\n        /* \"contracts/MerkleProof.sol\":476:1272  function verify(bytes32[] memory proof, bytes32 root, bytes32 leaf) internal pure returns (bool) {\r... */\n    tag_152:\n        /* \"contracts/MerkleProof.sol\":567:571  bool */\n      0x00\n        /* \"contracts/MerkleProof.sol\":584:604  bytes32 computedHash */\n      dup1\n        /* \"contracts/MerkleProof.sol\":607:611  leaf */\n      dup3\n        /* \"contracts/MerkleProof.sol\":584:611  bytes32 computedHash = leaf */\n      swap1\n      pop\n        /* \"contracts/MerkleProof.sol\":629:638  uint256 i */\n      0x00\n        /* \"contracts/MerkleProof.sol\":624:1149  for (uint256 i = 0; i < proof.length; i++) {\r... */\n    tag_167:\n        /* \"contracts/MerkleProof.sol\":648:653  proof */\n      dup6\n        /* \"contracts/MerkleProof.sol\":648:660  proof.length */\n      mload\n        /* \"contracts/MerkleProof.sol\":644:645  i */\n      dup2\n        /* \"contracts/MerkleProof.sol\":644:660  i < proof.length */\n      lt\n        /* \"contracts/MerkleProof.sol\":624:1149  for (uint256 i = 0; i < proof.length; i++) {\r... */\n      iszero\n      tag_168\n      jumpi\n        /* \"contracts/MerkleProof.sol\":682:702  bytes32 proofElement */\n      0x00\n        /* \"contracts/MerkleProof.sol\":705:710  proof */\n      dup7\n        /* \"contracts/MerkleProof.sol\":711:712  i */\n      dup3\n        /* \"contracts/MerkleProof.sol\":705:713  proof[i] */\n      dup2\n      mload\n      dup2\n      lt\n      tag_170\n      jumpi\n      tag_171\n      tag_95\n      jump\t// in\n    tag_171:\n    tag_170:\n      0x20\n      mul\n      0x20\n      add\n      add\n      mload\n        /* \"contracts/MerkleProof.sol\":682:713  bytes32 proofElement = proof[i] */\n      swap1\n      pop\n        /* \"contracts/MerkleProof.sol\":750:762  proofElement */\n      dup1\n        /* \"contracts/MerkleProof.sol\":734:746  computedHash */\n      dup4\n        /* \"contracts/MerkleProof.sol\":734:762  computedHash <= proofElement */\n      gt\n        /* \"contracts/MerkleProof.sol\":730:1138  if (computedHash <= proofElement) {\r... */\n      tag_172\n      jumpi\n        /* \"contracts/MerkleProof.sol\":904:916  computedHash */\n      dup3\n        /* \"contracts/MerkleProof.sol\":918:930  proofElement */\n      dup2\n        /* \"contracts/MerkleProof.sol\":887:931  abi.encodePacked(computedHash, proofElement) */\n      add(0x20, mload(0x40))\n      tag_173\n      swap3\n      swap2\n      swap1\n      tag_174\n      jump\t// in\n    tag_173:\n      mload(0x40)\n      0x20\n      dup2\n      dup4\n      sub\n      sub\n      dup2\n      mstore\n      swap1\n      0x40\n      mstore\n        /* \"contracts/MerkleProof.sol\":877:932  keccak256(abi.encodePacked(computedHash, proofElement)) */\n      dup1\n      mload\n      swap1\n      0x20\n      add\n      keccak256\n        /* \"contracts/MerkleProof.sol\":862:932  computedHash = keccak256(abi.encodePacked(computedHash, proofElement)) */\n      swap3\n      pop\n        /* \"contracts/MerkleProof.sol\":730:1138  if (computedHash <= proofElement) {\r... */\n      jump(tag_175)\n    tag_172:\n        /* \"contracts/MerkleProof.sol\":1094:1106  proofElement */\n      dup1\n        /* \"contracts/MerkleProof.sol\":1108:1120  computedHash */\n      dup4\n        /* \"contracts/MerkleProof.sol\":1077:1121  abi.encodePacked(proofElement, computedHash) */\n      add(0x20, mload(0x40))\n      tag_176\n      swap3\n      swap2\n      swap1\n      tag_174\n      jump\t// in\n    tag_176:\n      mload(0x40)\n      0x20\n      dup2\n      dup4\n      sub\n      sub\n      dup2\n      mstore\n      swap1\n      0x40\n      mstore\n        /* \"contracts/MerkleProof.sol\":1067:1122  keccak256(abi.encodePacked(proofElement, computedHash)) */\n      dup1\n      mload\n      swap1\n      0x20\n      add\n      keccak256\n        /* \"contracts/MerkleProof.sol\":1052:1122  computedHash = keccak256(abi.encodePacked(proofElement, computedHash)) */\n      swap3\n      pop\n        /* \"contracts/MerkleProof.sol\":730:1138  if (computedHash <= proofElement) {\r... */\n    tag_175:\n        /* \"contracts/MerkleProof.sol\":667:1149  {\r... */\n      pop\n        /* \"contracts/MerkleProof.sol\":662:665  i++ */\n      dup1\n      dup1\n      tag_177\n      swap1\n      tag_104\n      jump\t// in\n    tag_177:\n      swap2\n      pop\n      pop\n        /* \"contracts/MerkleProof.sol\":624:1149  for (uint256 i = 0; i < proof.length; i++) {\r... */\n      jump(tag_167)\n    tag_168:\n      pop\n        /* \"contracts/MerkleProof.sol\":1260:1264  root */\n      dup4\n        /* \"contracts/MerkleProof.sol\":1244:1256  computedHash */\n      dup2\n        /* \"contracts/MerkleProof.sol\":1244:1264  computedHash == root */\n      eq\n        /* \"contracts/MerkleProof.sol\":1237:1264  return computedHash == root */\n      swap2\n      pop\n      pop\n        /* \"contracts/MerkleProof.sol\":476:1272  function verify(bytes32[] memory proof, bytes32 root, bytes32 leaf) internal pure returns (bool) {\r... */\n      swap4\n      swap3\n      pop\n      pop\n      pop\n      jump\t// out\n        /* \"contracts/utils/Address.sol\":3955:4184  function functionCall(\r... */\n    tag_159:\n        /* \"contracts/utils/Address.sol\":4092:4104  bytes memory */\n      0x60\n        /* \"contracts/utils/Address.sol\":4124:4176  functionCallWithValue(target, data, 0, errorMessage) */\n      tag_179\n        /* \"contracts/utils/Address.sol\":4146:4152  target */\n      dup5\n        /* \"contracts/utils/Address.sol\":4154:4158  data */\n      dup5\n        /* \"contracts/utils/Address.sol\":4160:4161  0 */\n      0x00\n        /* \"contracts/utils/Address.sol\":4163:4175  errorMessage */\n      dup6\n        /* \"contracts/utils/Address.sol\":4124:4145  functionCallWithValue */\n      tag_180\n        /* \"contracts/utils/Address.sol\":4124:4176  functionCallWithValue(target, data, 0, errorMessage) */\n      jump\t// in\n    tag_179:\n        /* \"contracts/utils/Address.sol\":4117:4176  return functionCallWithValue(target, data, 0, errorMessage) */\n      swap1\n      pop\n        /* \"contracts/utils/Address.sol\":3955:4184  function functionCall(\r... */\n      swap4\n      swap3\n      pop\n      pop\n      pop\n      jump\t// out\n        /* \"contracts/utils/Address.sol\":5075:5585  function functionCallWithValue(\r... */\n    tag_180:\n        /* \"contracts/utils/Address.sol\":5245:5257  bytes memory */\n      0x60\n        /* \"contracts/utils/Address.sol\":5303:5308  value */\n      dup3\n        /* \"contracts/utils/Address.sol\":5278:5299  address(this).balance */\n      selfbalance\n        /* \"contracts/utils/Address.sol\":5278:5308  address(this).balance >= value */\n      lt\n      iszero\n        /* \"contracts/utils/Address.sol\":5270:5351  require(address(this).balance >= value, \"Address: insufficient balance for call\") */\n      tag_182\n      jumpi\n      mload(0x40)\n      0x08c379a000000000000000000000000000000000000000000000000000000000\n      dup2\n      mstore\n      0x04\n      add\n      tag_183\n      swap1\n      tag_184\n      jump\t// in\n    tag_183:\n      mload(0x40)\n      dup1\n      swap2\n      sub\n      swap1\n      revert\n    tag_182:\n        /* \"contracts/utils/Address.sol\":5370:5388  isContract(target) */\n      tag_185\n        /* \"contracts/utils/Address.sol\":5381:5387  target */\n      dup6\n        /* \"contracts/utils/Address.sol\":5370:5380  isContract */\n      tag_186\n        /* \"contracts/utils/Address.sol\":5370:5388  isContract(target) */\n      jump\t// in\n    tag_185:\n        /* \"contracts/utils/Address.sol\":5362:5422  require(isContract(target), \"Address: call to non-contract\") */\n      tag_187\n      jumpi\n      mload(0x40)\n      0x08c379a000000000000000000000000000000000000000000000000000000000\n      dup2\n      mstore\n      0x04\n      add\n      tag_188\n      swap1\n      tag_189\n      jump\t// in\n    tag_188:\n      mload(0x40)\n      dup1\n      swap2\n      sub\n      swap1\n      revert\n    tag_187:\n        /* \"contracts/utils/Address.sol\":5436:5448  bool success */\n      0x00\n        /* \"contracts/utils/Address.sol\":5450:5473  bytes memory returndata */\n      dup1\n        /* \"contracts/utils/Address.sol\":5477:5483  target */\n      dup7\n        /* \"contracts/utils/Address.sol\":5477:5488  target.call */\n      0xffffffffffffffffffffffffffffffffffffffff\n      and\n        /* \"contracts/utils/Address.sol\":5496:5501  value */\n      dup6\n        /* \"contracts/utils/Address.sol\":5503:5507  data */\n      dup8\n        /* \"contracts/utils/Address.sol\":5477:5508  target.call{value: value}(data) */\n      mload(0x40)\n      tag_190\n      swap2\n      swap1\n      tag_191\n      jump\t// in\n    tag_190:\n      0x00\n      mload(0x40)\n      dup1\n      dup4\n      sub\n      dup2\n      dup6\n      dup8\n      gas\n      call\n      swap3\n      pop\n      pop\n      pop\n      returndatasize\n      dup1\n      0x00\n      dup2\n      eq\n      tag_194\n      jumpi\n      mload(0x40)\n      swap2\n      pop\n      and(add(returndatasize, 0x3f), not(0x1f))\n      dup3\n      add\n      0x40\n      mstore\n      returndatasize\n      dup3\n      mstore\n      returndatasize\n      0x00\n      0x20\n      dup5\n      add\n      returndatacopy\n      jump(tag_193)\n    tag_194:\n      0x60\n      swap2\n      pop\n    tag_193:\n      pop\n        /* \"contracts/utils/Address.sol\":5435:5508  (bool success, bytes memory returndata) = target.call{value: value}(data) */\n      swap2\n      pop\n      swap2\n      pop\n        /* \"contracts/utils/Address.sol\":5526:5577  verifyCallResult(success, returndata, errorMessage) */\n      tag_195\n        /* \"contracts/utils/Address.sol\":5543:5550  success */\n      dup3\n        /* \"contracts/utils/Address.sol\":5552:5562  returndata */\n      dup3\n        /* \"contracts/utils/Address.sol\":5564:5576  errorMessage */\n      dup7\n        /* \"contracts/utils/Address.sol\":5526:5542  verifyCallResult */\n      tag_196\n        /* \"contracts/utils/Address.sol\":5526:5577  verifyCallResult(success, returndata, errorMessage) */\n      jump\t// in\n    tag_195:\n        /* \"contracts/utils/Address.sol\":5519:5577  return verifyCallResult(success, returndata, errorMessage) */\n      swap3\n      pop\n      pop\n      pop\n        /* \"contracts/utils/Address.sol\":5075:5585  function functionCallWithValue(\r... */\n      swap5\n      swap4\n      pop\n      pop\n      pop\n      pop\n      jump\t// out\n        /* \"contracts/utils/Address.sol\":1210:1536  function isContract(address account) internal view returns (bool) {\r... */\n    tag_186:\n        /* \"contracts/utils/Address.sol\":1270:1274  bool */\n      0x00\n        /* \"contracts/utils/Address.sol\":1527:1528  0 */\n      dup1\n        /* \"contracts/utils/Address.sol\":1505:1512  account */\n      dup3\n        /* \"contracts/utils/Address.sol\":1505:1524  account.code.length */\n      0xffffffffffffffffffffffffffffffffffffffff\n      and\n      extcodesize\n        /* \"contracts/utils/Address.sol\":1505:1528  account.code.length > 0 */\n      gt\n        /* \"contracts/utils/Address.sol\":1498:1528  return account.code.length > 0 */\n      swap1\n      pop\n        /* \"contracts/utils/Address.sol\":1210:1536  function isContract(address account) internal view returns (bool) {\r... */\n      swap2\n      swap1\n      pop\n      jump\t// out\n        /* \"contracts/utils/Address.sol\":7761:8473  function verifyCallResult(\r... */\n    tag_196:\n        /* \"contracts/utils/Address.sol\":7911:7923  bytes memory */\n      0x60\n        /* \"contracts/utils/Address.sol\":7940:7947  success */\n      dup4\n        /* \"contracts/utils/Address.sol\":7936:8466  if (success) {\r... */\n      iszero\n      tag_199\n      jumpi\n        /* \"contracts/utils/Address.sol\":7971:7981  returndata */\n      dup3\n        /* \"contracts/utils/Address.sol\":7964:7981  return returndata */\n      swap1\n      pop\n      jump(tag_198)\n        /* \"contracts/utils/Address.sol\":7936:8466  if (success) {\r... */\n    tag_199:\n        /* \"contracts/utils/Address.sol\":8105:8106  0 */\n      0x00\n        /* \"contracts/utils/Address.sol\":8085:8095  returndata */\n      dup4\n        /* \"contracts/utils/Address.sol\":8085:8102  returndata.length */\n      mload\n        /* \"contracts/utils/Address.sol\":8085:8106  returndata.length > 0 */\n      gt\n        /* \"contracts/utils/Address.sol\":8081:8455  if (returndata.length > 0) {\r... */\n      iszero\n      tag_201\n      jumpi\n        /* \"contracts/utils/Address.sol\":8283:8293  returndata */\n      dup3\n        /* \"contracts/utils/Address.sol\":8277:8294  mload(returndata) */\n      mload\n        /* \"contracts/utils/Address.sol\":8344:8359  returndata_size */\n      dup1\n        /* \"contracts/utils/Address.sol\":8331:8341  returndata */\n      dup5\n        /* \"contracts/utils/Address.sol\":8327:8329  32 */\n      0x20\n        /* \"contracts/utils/Address.sol\":8323:8342  add(32, returndata) */\n      add\n        /* \"contracts/utils/Address.sol\":8316:8360  revert(add(32, returndata), returndata_size) */\n      revert\n        /* \"contracts/utils/Address.sol\":8081:8455  if (returndata.length > 0) {\r... */\n    tag_201:\n        /* \"contracts/utils/Address.sol\":8426:8438  errorMessage */\n      dup2\n        /* \"contracts/utils/Address.sol\":8419:8439  revert(errorMessage) */\n      mload(0x40)\n      0x08c379a000000000000000000000000000000000000000000000000000000000\n      dup2\n      mstore\n      0x04\n      add\n      tag_203\n      swap2\n      swap1\n      tag_204\n      jump\t// in\n    tag_203:\n      mload(0x40)\n      dup1\n      swap2\n      sub\n      swap1\n      revert\n        /* \"contracts/utils/Address.sol\":7761:8473  function verifyCallResult(\r... */\n    tag_198:\n      swap4\n      swap3\n      pop\n      pop\n      pop\n      jump\t// out\n        /* \"#utility.yul\":26:1028   */\n    tag_206:\n        /* \"#utility.yul\":147:152   */\n      0x00\n        /* \"#utility.yul\":172:278   */\n      tag_208\n        /* \"#utility.yul\":188:277   */\n      tag_209\n        /* \"#utility.yul\":270:276   */\n      dup5\n        /* \"#utility.yul\":188:277   */\n      tag_210\n      jump\t// in\n    tag_209:\n        /* \"#utility.yul\":172:278   */\n      tag_211\n      jump\t// in\n    tag_208:\n        /* \"#utility.yul\":163:278   */\n      swap1\n      pop\n        /* \"#utility.yul\":298:303   */\n      dup1\n        /* \"#utility.yul\":327:333   */\n      dup4\n        /* \"#utility.yul\":320:325   */\n      dup3\n        /* \"#utility.yul\":313:334   */\n      mstore\n        /* \"#utility.yul\":361:365   */\n      0x20\n        /* \"#utility.yul\":354:359   */\n      dup3\n        /* \"#utility.yul\":350:366   */\n      add\n        /* \"#utility.yul\":343:366   */\n      swap1\n      pop\n        /* \"#utility.yul\":387:393   */\n      dup3\n        /* \"#utility.yul\":437:440   */\n      dup6\n        /* \"#utility.yul\":429:433   */\n      0x20\n        /* \"#utility.yul\":421:427   */\n      dup7\n        /* \"#utility.yul\":417:434   */\n      mul\n        /* \"#utility.yul\":412:415   */\n      dup3\n        /* \"#utility.yul\":408:435   */\n      add\n        /* \"#utility.yul\":405:441   */\n      gt\n        /* \"#utility.yul\":402:545   */\n      iszero\n      tag_212\n      jumpi\n        /* \"#utility.yul\":456:535   */\n      tag_213\n      tag_214\n      jump\t// in\n    tag_213:\n        /* \"#utility.yul\":402:545   */\n    tag_212:\n        /* \"#utility.yul\":569:570   */\n      0x00\n        /* \"#utility.yul\":554:1022   */\n    tag_215:\n        /* \"#utility.yul\":579:585   */\n      dup6\n        /* \"#utility.yul\":576:577   */\n      dup2\n        /* \"#utility.yul\":573:586   */\n      lt\n        /* \"#utility.yul\":554:1022   */\n      iszero\n      tag_217\n      jumpi\n        /* \"#utility.yul\":661:664   */\n      dup2\n        /* \"#utility.yul\":648:665   */\n      calldataload\n        /* \"#utility.yul\":697:715   */\n      0xffffffffffffffff\n        /* \"#utility.yul\":684:695   */\n      dup2\n        /* \"#utility.yul\":681:716   */\n      gt\n        /* \"#utility.yul\":678:800   */\n      iszero\n      tag_218\n      jumpi\n        /* \"#utility.yul\":719:798   */\n      tag_219\n      tag_220\n      jump\t// in\n    tag_219:\n        /* \"#utility.yul\":678:800   */\n    tag_218:\n        /* \"#utility.yul\":843:854   */\n      dup1\n        /* \"#utility.yul\":835:841   */\n      dup7\n        /* \"#utility.yul\":831:855   */\n      add\n        /* \"#utility.yul\":881:943   */\n      tag_221\n        /* \"#utility.yul\":939:942   */\n      dup10\n        /* \"#utility.yul\":927:937   */\n      dup3\n        /* \"#utility.yul\":881:943   */\n      tag_222\n      jump\t// in\n    tag_221:\n        /* \"#utility.yul\":876:879   */\n      dup6\n        /* \"#utility.yul\":869:944   */\n      mstore\n        /* \"#utility.yul\":973:977   */\n      0x20\n        /* \"#utility.yul\":968:971   */\n      dup6\n        /* \"#utility.yul\":964:978   */\n      add\n        /* \"#utility.yul\":957:978   */\n      swap5\n      pop\n        /* \"#utility.yul\":1007:1011   */\n      0x20\n        /* \"#utility.yul\":1002:1005   */\n      dup5\n        /* \"#utility.yul\":998:1012   */\n      add\n        /* \"#utility.yul\":991:1012   */\n      swap4\n      pop\n        /* \"#utility.yul\":614:1022   */\n      pop\n      pop\n        /* \"#utility.yul\":601:602   */\n      0x01\n        /* \"#utility.yul\":598:599   */\n      dup2\n        /* \"#utility.yul\":594:603   */\n      add\n        /* \"#utility.yul\":589:603   */\n      swap1\n      pop\n        /* \"#utility.yul\":554:1022   */\n      jump(tag_215)\n    tag_217:\n        /* \"#utility.yul\":558:572   */\n      pop\n        /* \"#utility.yul\":153:1028   */\n      pop\n      pop\n        /* \"#utility.yul\":26:1028   */\n      swap4\n      swap3\n      pop\n      pop\n      pop\n      jump\t// out\n        /* \"#utility.yul\":1051:1773   */\n    tag_223:\n        /* \"#utility.yul\":1147:1152   */\n      0x00\n        /* \"#utility.yul\":1172:1253   */\n      tag_225\n        /* \"#utility.yul\":1188:1252   */\n      tag_226\n        /* \"#utility.yul\":1245:1251   */\n      dup5\n        /* \"#utility.yul\":1188:1252   */\n      tag_227\n      jump\t// in\n    tag_226:\n        /* \"#utility.yul\":1172:1253   */\n      tag_211\n      jump\t// in\n    tag_225:\n        /* \"#utility.yul\":1163:1253   */\n      swap1\n      pop\n        /* \"#utility.yul\":1273:1278   */\n      dup1\n        /* \"#utility.yul\":1302:1308   */\n      dup4\n        /* \"#utility.yul\":1295:1300   */\n      dup3\n        /* \"#utility.yul\":1288:1309   */\n      mstore\n        /* \"#utility.yul\":1336:1340   */\n      0x20\n        /* \"#utility.yul\":1329:1334   */\n      dup3\n        /* \"#utility.yul\":1325:1341   */\n      add\n        /* \"#utility.yul\":1318:1341   */\n      swap1\n      pop\n        /* \"#utility.yul\":1362:1368   */\n      dup3\n        /* \"#utility.yul\":1412:1415   */\n      dup6\n        /* \"#utility.yul\":1404:1408   */\n      0x20\n        /* \"#utility.yul\":1396:1402   */\n      dup7\n        /* \"#utility.yul\":1392:1409   */\n      mul\n        /* \"#utility.yul\":1387:1390   */\n      dup3\n        /* \"#utility.yul\":1383:1410   */\n      add\n        /* \"#utility.yul\":1380:1416   */\n      gt\n        /* \"#utility.yul\":1377:1520   */\n      iszero\n      tag_228\n      jumpi\n        /* \"#utility.yul\":1431:1510   */\n      tag_229\n      tag_214\n      jump\t// in\n    tag_229:\n        /* \"#utility.yul\":1377:1520   */\n    tag_228:\n        /* \"#utility.yul\":1544:1545   */\n      0x00\n        /* \"#utility.yul\":1529:1767   */\n    tag_230:\n        /* \"#utility.yul\":1554:1560   */\n      dup6\n        /* \"#utility.yul\":1551:1552   */\n      dup2\n        /* \"#utility.yul\":1548:1561   */\n      lt\n        /* \"#utility.yul\":1529:1767   */\n      iszero\n      tag_232\n      jumpi\n        /* \"#utility.yul\":1622:1625   */\n      dup2\n        /* \"#utility.yul\":1651:1688   */\n      tag_233\n        /* \"#utility.yul\":1684:1687   */\n      dup9\n        /* \"#utility.yul\":1672:1682   */\n      dup3\n        /* \"#utility.yul\":1651:1688   */\n      tag_234\n      jump\t// in\n    tag_233:\n        /* \"#utility.yul\":1646:1649   */\n      dup5\n        /* \"#utility.yul\":1639:1689   */\n      mstore\n        /* \"#utility.yul\":1718:1722   */\n      0x20\n        /* \"#utility.yul\":1713:1716   */\n      dup5\n        /* \"#utility.yul\":1709:1723   */\n      add\n        /* \"#utility.yul\":1702:1723   */\n      swap4\n      pop\n        /* \"#utility.yul\":1752:1756   */\n      0x20\n        /* \"#utility.yul\":1747:1750   */\n      dup4\n        /* \"#utility.yul\":1743:1757   */\n      add\n        /* \"#utility.yul\":1736:1757   */\n      swap3\n      pop\n        /* \"#utility.yul\":1589:1767   */\n      pop\n        /* \"#utility.yul\":1576:1577   */\n      0x01\n        /* \"#utility.yul\":1573:1574   */\n      dup2\n        /* \"#utility.yul\":1569:1578   */\n      add\n        /* \"#utility.yul\":1564:1578   */\n      swap1\n      pop\n        /* \"#utility.yul\":1529:1767   */\n      jump(tag_230)\n    tag_232:\n        /* \"#utility.yul\":1533:1547   */\n      pop\n        /* \"#utility.yul\":1153:1773   */\n      pop\n      pop\n        /* \"#utility.yul\":1051:1773   */\n      swap4\n      swap3\n      pop\n      pop\n      pop\n      jump\t// out\n        /* \"#utility.yul\":1796:2518   */\n    tag_235:\n        /* \"#utility.yul\":1892:1897   */\n      0x00\n        /* \"#utility.yul\":1917:1998   */\n      tag_237\n        /* \"#utility.yul\":1933:1997   */\n      tag_238\n        /* \"#utility.yul\":1990:1996   */\n      dup5\n        /* \"#utility.yul\":1933:1997   */\n      tag_239\n      jump\t// in\n    tag_238:\n        /* \"#utility.yul\":1917:1998   */\n      tag_211\n      jump\t// in\n    tag_237:\n        /* \"#utility.yul\":1908:1998   */\n      swap1\n      pop\n        /* \"#utility.yul\":2018:2023   */\n      dup1\n        /* \"#utility.yul\":2047:2053   */\n      dup4\n        /* \"#utility.yul\":2040:2045   */\n      dup3\n        /* \"#utility.yul\":2033:2054   */\n      mstore\n        /* \"#utility.yul\":2081:2085   */\n      0x20\n        /* \"#utility.yul\":2074:2079   */\n      dup3\n        /* \"#utility.yul\":2070:2086   */\n      add\n        /* \"#utility.yul\":2063:2086   */\n      swap1\n      pop\n        /* \"#utility.yul\":2107:2113   */\n      dup3\n        /* \"#utility.yul\":2157:2160   */\n      dup6\n        /* \"#utility.yul\":2149:2153   */\n      0x20\n        /* \"#utility.yul\":2141:2147   */\n      dup7\n        /* \"#utility.yul\":2137:2154   */\n      mul\n        /* \"#utility.yul\":2132:2135   */\n      dup3\n        /* \"#utility.yul\":2128:2155   */\n      add\n        /* \"#utility.yul\":2125:2161   */\n      gt\n        /* \"#utility.yul\":2122:2265   */\n      iszero\n      tag_240\n      jumpi\n        /* \"#utility.yul\":2176:2255   */\n      tag_241\n      tag_214\n      jump\t// in\n    tag_241:\n        /* \"#utility.yul\":2122:2265   */\n    tag_240:\n        /* \"#utility.yul\":2289:2290   */\n      0x00\n        /* \"#utility.yul\":2274:2512   */\n    tag_242:\n        /* \"#utility.yul\":2299:2305   */\n      dup6\n        /* \"#utility.yul\":2296:2297   */\n      dup2\n        /* \"#utility.yul\":2293:2306   */\n      lt\n        /* \"#utility.yul\":2274:2512   */\n      iszero\n      tag_244\n      jumpi\n        /* \"#utility.yul\":2367:2370   */\n      dup2\n        /* \"#utility.yul\":2396:2433   */\n      tag_245\n        /* \"#utility.yul\":2429:2432   */\n      dup9\n        /* \"#utility.yul\":2417:2427   */\n      dup3\n        /* \"#utility.yul\":2396:2433   */\n      tag_246\n      jump\t// in\n    tag_245:\n        /* \"#utility.yul\":2391:2394   */\n      dup5\n        /* \"#utility.yul\":2384:2434   */\n      mstore\n        /* \"#utility.yul\":2463:2467   */\n      0x20\n        /* \"#utility.yul\":2458:2461   */\n      dup5\n        /* \"#utility.yul\":2454:2468   */\n      add\n        /* \"#utility.yul\":2447:2468   */\n      swap4\n      pop\n        /* \"#utility.yul\":2497:2501   */\n      0x20\n        /* \"#utility.yul\":2492:2495   */\n      dup4\n        /* \"#utility.yul\":2488:2502   */\n      add\n        /* \"#utility.yul\":2481:2502   */\n      swap3\n      pop\n        /* \"#utility.yul\":2334:2512   */\n      pop\n        /* \"#utility.yul\":2321:2322   */\n      0x01\n        /* \"#utility.yul\":2318:2319   */\n      dup2\n        /* \"#utility.yul\":2314:2323   */\n      add\n        /* \"#utility.yul\":2309:2323   */\n      swap1\n      pop\n        /* \"#utility.yul\":2274:2512   */\n      jump(tag_242)\n    tag_244:\n        /* \"#utility.yul\":2278:2292   */\n      pop\n        /* \"#utility.yul\":1898:2518   */\n      pop\n      pop\n        /* \"#utility.yul\":1796:2518   */\n      swap4\n      swap3\n      pop\n      pop\n      pop\n      jump\t// out\n        /* \"#utility.yul\":2524:2663   */\n    tag_247:\n        /* \"#utility.yul\":2570:2575   */\n      0x00\n        /* \"#utility.yul\":2608:2614   */\n      dup2\n        /* \"#utility.yul\":2595:2615   */\n      calldataload\n        /* \"#utility.yul\":2586:2615   */\n      swap1\n      pop\n        /* \"#utility.yul\":2624:2657   */\n      tag_249\n        /* \"#utility.yul\":2651:2656   */\n      dup2\n        /* \"#utility.yul\":2624:2657   */\n      tag_250\n      jump\t// in\n    tag_249:\n        /* \"#utility.yul\":2524:2663   */\n      swap3\n      swap2\n      pop\n      pop\n      jump\t// out\n        /* \"#utility.yul\":2688:3108   */\n    tag_251:\n        /* \"#utility.yul\":2784:2789   */\n      0x00\n        /* \"#utility.yul\":2833:2836   */\n      dup3\n        /* \"#utility.yul\":2826:2830   */\n      0x1f\n        /* \"#utility.yul\":2818:2824   */\n      dup4\n        /* \"#utility.yul\":2814:2831   */\n      add\n        /* \"#utility.yul\":2810:2837   */\n      slt\n        /* \"#utility.yul\":2800:2922   */\n      tag_253\n      jumpi\n        /* \"#utility.yul\":2841:2920   */\n      tag_254\n      tag_220\n      jump\t// in\n    tag_254:\n        /* \"#utility.yul\":2800:2922   */\n    tag_253:\n        /* \"#utility.yul\":2958:2964   */\n      dup2\n        /* \"#utility.yul\":2945:2965   */\n      calldataload\n        /* \"#utility.yul\":2983:3102   */\n      tag_255\n        /* \"#utility.yul\":3098:3101   */\n      dup5\n        /* \"#utility.yul\":3090:3096   */\n      dup3\n        /* \"#utility.yul\":3083:3087   */\n      0x20\n        /* \"#utility.yul\":3075:3081   */\n      dup7\n        /* \"#utility.yul\":3071:3088   */\n      add\n        /* \"#utility.yul\":2983:3102   */\n      tag_206\n      jump\t// in\n    tag_255:\n        /* \"#utility.yul\":2974:3102   */\n      swap2\n      pop\n        /* \"#utility.yul\":2790:3108   */\n      pop\n        /* \"#utility.yul\":2688:3108   */\n      swap3\n      swap2\n      pop\n      pop\n      jump\t// out\n        /* \"#utility.yul\":3131:3501   */\n    tag_222:\n        /* \"#utility.yul\":3202:3207   */\n      0x00\n        /* \"#utility.yul\":3251:3254   */\n      dup3\n        /* \"#utility.yul\":3244:3248   */\n      0x1f\n        /* \"#utility.yul\":3236:3242   */\n      dup4\n        /* \"#utility.yul\":3232:3249   */\n      add\n        /* \"#utility.yul\":3228:3255   */\n      slt\n        /* \"#utility.yul\":3218:3340   */\n      tag_257\n      jumpi\n        /* \"#utility.yul\":3259:3338   */\n      tag_258\n      tag_220\n      jump\t// in\n    tag_258:\n        /* \"#utility.yul\":3218:3340   */\n    tag_257:\n        /* \"#utility.yul\":3376:3382   */\n      dup2\n        /* \"#utility.yul\":3363:3383   */\n      calldataload\n        /* \"#utility.yul\":3401:3495   */\n      tag_259\n        /* \"#utility.yul\":3491:3494   */\n      dup5\n        /* \"#utility.yul\":3483:3489   */\n      dup3\n        /* \"#utility.yul\":3476:3480   */\n      0x20\n        /* \"#utility.yul\":3468:3474   */\n      dup7\n        /* \"#utility.yul\":3464:3481   */\n      add\n        /* \"#utility.yul\":3401:3495   */\n      tag_223\n      jump\t// in\n    tag_259:\n        /* \"#utility.yul\":3392:3495   */\n      swap2\n      pop\n        /* \"#utility.yul\":3208:3501   */\n      pop\n        /* \"#utility.yul\":3131:3501   */\n      swap3\n      swap2\n      pop\n      pop\n      jump\t// out\n        /* \"#utility.yul\":3524:3894   */\n    tag_260:\n        /* \"#utility.yul\":3595:3600   */\n      0x00\n        /* \"#utility.yul\":3644:3647   */\n      dup3\n        /* \"#utility.yul\":3637:3641   */\n      0x1f\n        /* \"#utility.yul\":3629:3635   */\n      dup4\n        /* \"#utility.yul\":3625:3642   */\n      add\n        /* \"#utility.yul\":3621:3648   */\n      slt\n        /* \"#utility.yul\":3611:3733   */\n      tag_262\n      jumpi\n        /* \"#utility.yul\":3652:3731   */\n      tag_263\n      tag_220\n      jump\t// in\n    tag_263:\n        /* \"#utility.yul\":3611:3733   */\n    tag_262:\n        /* \"#utility.yul\":3769:3775   */\n      dup2\n        /* \"#utility.yul\":3756:3776   */\n      calldataload\n        /* \"#utility.yul\":3794:3888   */\n      tag_264\n        /* \"#utility.yul\":3884:3887   */\n      dup5\n        /* \"#utility.yul\":3876:3882   */\n      dup3\n        /* \"#utility.yul\":3869:3873   */\n      0x20\n        /* \"#utility.yul\":3861:3867   */\n      dup7\n        /* \"#utility.yul\":3857:3874   */\n      add\n        /* \"#utility.yul\":3794:3888   */\n      tag_235\n      jump\t// in\n    tag_264:\n        /* \"#utility.yul\":3785:3888   */\n      swap2\n      pop\n        /* \"#utility.yul\":3601:3894   */\n      pop\n        /* \"#utility.yul\":3524:3894   */\n      swap3\n      swap2\n      pop\n      pop\n      jump\t// out\n        /* \"#utility.yul\":3900:4037   */\n    tag_265:\n        /* \"#utility.yul\":3954:3959   */\n      0x00\n        /* \"#utility.yul\":3985:3991   */\n      dup2\n        /* \"#utility.yul\":3979:3992   */\n      mload\n        /* \"#utility.yul\":3970:3992   */\n      swap1\n      pop\n        /* \"#utility.yul\":4001:4031   */\n      tag_267\n        /* \"#utility.yul\":4025:4030   */\n      dup2\n        /* \"#utility.yul\":4001:4031   */\n      tag_268\n      jump\t// in\n    tag_267:\n        /* \"#utility.yul\":3900:4037   */\n      swap3\n      swap2\n      pop\n      pop\n      jump\t// out\n        /* \"#utility.yul\":4043:4182   */\n    tag_234:\n        /* \"#utility.yul\":4089:4094   */\n      0x00\n        /* \"#utility.yul\":4127:4133   */\n      dup2\n        /* \"#utility.yul\":4114:4134   */\n      calldataload\n        /* \"#utility.yul\":4105:4134   */\n      swap1\n      pop\n        /* \"#utility.yul\":4143:4176   */\n      tag_270\n        /* \"#utility.yul\":4170:4175   */\n      dup2\n        /* \"#utility.yul\":4143:4176   */\n      tag_271\n      jump\t// in\n    tag_270:\n        /* \"#utility.yul\":4043:4182   */\n      swap3\n      swap2\n      pop\n      pop\n      jump\t// out\n        /* \"#utility.yul\":4188:4327   */\n    tag_246:\n        /* \"#utility.yul\":4234:4239   */\n      0x00\n        /* \"#utility.yul\":4272:4278   */\n      dup2\n        /* \"#utility.yul\":4259:4279   */\n      calldataload\n        /* \"#utility.yul\":4250:4279   */\n      swap1\n      pop\n        /* \"#utility.yul\":4288:4321   */\n      tag_273\n        /* \"#utility.yul\":4315:4320   */\n      dup2\n        /* \"#utility.yul\":4288:4321   */\n      tag_274\n      jump\t// in\n    tag_273:\n        /* \"#utility.yul\":4188:4327   */\n      swap3\n      swap2\n      pop\n      pop\n      jump\t// out\n        /* \"#utility.yul\":4333:4662   */\n    tag_62:\n        /* \"#utility.yul\":4392:4398   */\n      0x00\n        /* \"#utility.yul\":4441:4443   */\n      0x20\n        /* \"#utility.yul\":4429:4438   */\n      dup3\n        /* \"#utility.yul\":4420:4427   */\n      dup5\n        /* \"#utility.yul\":4416:4439   */\n      sub\n        /* \"#utility.yul\":4412:4444   */\n      slt\n        /* \"#utility.yul\":4409:4528   */\n      iszero\n      tag_276\n      jumpi\n        /* \"#utility.yul\":4447:4526   */\n      tag_277\n      tag_278\n      jump\t// in\n    tag_277:\n        /* \"#utility.yul\":4409:4528   */\n    tag_276:\n        /* \"#utility.yul\":4567:4568   */\n      0x00\n        /* \"#utility.yul\":4592:4645   */\n      tag_279\n        /* \"#utility.yul\":4637:4644   */\n      dup5\n        /* \"#utility.yul\":4628:4634   */\n      dup3\n        /* \"#utility.yul\":4617:4626   */\n      dup6\n        /* \"#utility.yul\":4613:4635   */\n      add\n        /* \"#utility.yul\":4592:4645   */\n      tag_247\n      jump\t// in\n    tag_279:\n        /* \"#utility.yul\":4582:4645   */\n      swap2\n      pop\n        /* \"#utility.yul\":4538:4655   */\n      pop\n        /* \"#utility.yul\":4333:4662   */\n      swap3\n      swap2\n      pop\n      pop\n      jump\t// out\n        /* \"#utility.yul\":4668:6113   */\n    tag_48:\n        /* \"#utility.yul\":4854:4860   */\n      0x00\n        /* \"#utility.yul\":4862:4868   */\n      dup1\n        /* \"#utility.yul\":4870:4876   */\n      0x00\n        /* \"#utility.yul\":4878:4884   */\n      dup1\n        /* \"#utility.yul\":4927:4930   */\n      0x80\n        /* \"#utility.yul\":4915:4924   */\n      dup6\n        /* \"#utility.yul\":4906:4913   */\n      dup8\n        /* \"#utility.yul\":4902:4925   */\n      sub\n        /* \"#utility.yul\":4898:4931   */\n      slt\n        /* \"#utility.yul\":4895:5015   */\n      iszero\n      tag_281\n      jumpi\n        /* \"#utility.yul\":4934:5013   */\n      tag_282\n      tag_278\n      jump\t// in\n    tag_282:\n        /* \"#utility.yul\":4895:5015   */\n    tag_281:\n        /* \"#utility.yul\":5054:5055   */\n      0x00\n        /* \"#utility.yul\":5079:5132   */\n      tag_283\n        /* \"#utility.yul\":5124:5131   */\n      dup8\n        /* \"#utility.yul\":5115:5121   */\n      dup3\n        /* \"#utility.yul\":5104:5113   */\n      dup9\n        /* \"#utility.yul\":5100:5122   */\n      add\n        /* \"#utility.yul\":5079:5132   */\n      tag_247\n      jump\t// in\n    tag_283:\n        /* \"#utility.yul\":5069:5132   */\n      swap5\n      pop\n        /* \"#utility.yul\":5025:5142   */\n      pop\n        /* \"#utility.yul\":5209:5211   */\n      0x20\n        /* \"#utility.yul\":5198:5207   */\n      dup6\n        /* \"#utility.yul\":5194:5212   */\n      add\n        /* \"#utility.yul\":5181:5213   */\n      calldataload\n        /* \"#utility.yul\":5240:5258   */\n      0xffffffffffffffff\n        /* \"#utility.yul\":5232:5238   */\n      dup2\n        /* \"#utility.yul\":5229:5259   */\n      gt\n        /* \"#utility.yul\":5226:5343   */\n      iszero\n      tag_284\n      jumpi\n        /* \"#utility.yul\":5262:5341   */\n      tag_285\n      tag_286\n      jump\t// in\n    tag_285:\n        /* \"#utility.yul\":5226:5343   */\n    tag_284:\n        /* \"#utility.yul\":5367:5445   */\n      tag_287\n        /* \"#utility.yul\":5437:5444   */\n      dup8\n        /* \"#utility.yul\":5428:5434   */\n      dup3\n        /* \"#utility.yul\":5417:5426   */\n      dup9\n        /* \"#utility.yul\":5413:5435   */\n      add\n        /* \"#utility.yul\":5367:5445   */\n      tag_260\n      jump\t// in\n    tag_287:\n        /* \"#utility.yul\":5357:5445   */\n      swap4\n      pop\n        /* \"#utility.yul\":5152:5455   */\n      pop\n        /* \"#utility.yul\":5522:5524   */\n      0x40\n        /* \"#utility.yul\":5511:5520   */\n      dup6\n        /* \"#utility.yul\":5507:5525   */\n      add\n        /* \"#utility.yul\":5494:5526   */\n      calldataload\n        /* \"#utility.yul\":5553:5571   */\n      0xffffffffffffffff\n        /* \"#utility.yul\":5545:5551   */\n      dup2\n        /* \"#utility.yul\":5542:5572   */\n      gt\n        /* \"#utility.yul\":5539:5656   */\n      iszero\n      tag_288\n      jumpi\n        /* \"#utility.yul\":5575:5654   */\n      tag_289\n      tag_286\n      jump\t// in\n    tag_289:\n        /* \"#utility.yul\":5539:5656   */\n    tag_288:\n        /* \"#utility.yul\":5680:5758   */\n      tag_290\n        /* \"#utility.yul\":5750:5757   */\n      dup8\n        /* \"#utility.yul\":5741:5747   */\n      dup3\n        /* \"#utility.yul\":5730:5739   */\n      dup9\n        /* \"#utility.yul\":5726:5748   */\n      add\n        /* \"#utility.yul\":5680:5758   */\n      tag_260\n      jump\t// in\n    tag_290:\n        /* \"#utility.yul\":5670:5758   */\n      swap3\n      pop\n        /* \"#utility.yul\":5465:5768   */\n      pop\n        /* \"#utility.yul\":5835:5837   */\n      0x60\n        /* \"#utility.yul\":5824:5833   */\n      dup6\n        /* \"#utility.yul\":5820:5838   */\n      add\n        /* \"#utility.yul\":5807:5839   */\n      calldataload\n        /* \"#utility.yul\":5866:5884   */\n      0xffffffffffffffff\n        /* \"#utility.yul\":5858:5864   */\n      dup2\n        /* \"#utility.yul\":5855:5885   */\n      gt\n        /* \"#utility.yul\":5852:5969   */\n      iszero\n      tag_291\n      jumpi\n        /* \"#utility.yul\":5888:5967   */\n      tag_292\n      tag_286\n      jump\t// in\n    tag_292:\n        /* \"#utility.yul\":5852:5969   */\n    tag_291:\n        /* \"#utility.yul\":5993:6096   */\n      tag_293\n        /* \"#utility.yul\":6088:6095   */\n      dup8\n        /* \"#utility.yul\":6079:6085   */\n      dup3\n        /* \"#utility.yul\":6068:6077   */\n      dup9\n        /* \"#utility.yul\":6064:6086   */\n      add\n        /* \"#utility.yul\":5993:6096   */\n      tag_251\n      jump\t// in\n    tag_293:\n        /* \"#utility.yul\":5983:6096   */\n      swap2\n      pop\n        /* \"#utility.yul\":5778:6106   */\n      pop\n        /* \"#utility.yul\":4668:6113   */\n      swap3\n      swap6\n      swap2\n      swap5\n      pop\n      swap3\n      pop\n      jump\t// out\n        /* \"#utility.yul\":6119:7094   */\n    tag_30:\n        /* \"#utility.yul\":6230:6236   */\n      0x00\n        /* \"#utility.yul\":6238:6244   */\n      dup1\n        /* \"#utility.yul\":6246:6252   */\n      0x00\n        /* \"#utility.yul\":6254:6260   */\n      dup1\n        /* \"#utility.yul\":6303:6306   */\n      0x80\n        /* \"#utility.yul\":6291:6300   */\n      dup6\n        /* \"#utility.yul\":6282:6289   */\n      dup8\n        /* \"#utility.yul\":6278:6301   */\n      sub\n        /* \"#utility.yul\":6274:6307   */\n      slt\n        /* \"#utility.yul\":6271:6391   */\n      iszero\n      tag_295\n      jumpi\n        /* \"#utility.yul\":6310:6389   */\n      tag_296\n      tag_278\n      jump\t// in\n    tag_296:\n        /* \"#utility.yul\":6271:6391   */\n    tag_295:\n        /* \"#utility.yul\":6430:6431   */\n      0x00\n        /* \"#utility.yul\":6455:6508   */\n      tag_297\n        /* \"#utility.yul\":6500:6507   */\n      dup8\n        /* \"#utility.yul\":6491:6497   */\n      dup3\n        /* \"#utility.yul\":6480:6489   */\n      dup9\n        /* \"#utility.yul\":6476:6498   */\n      add\n        /* \"#utility.yul\":6455:6508   */\n      tag_247\n      jump\t// in\n    tag_297:\n        /* \"#utility.yul\":6445:6508   */\n      swap5\n      pop\n        /* \"#utility.yul\":6401:6518   */\n      pop\n        /* \"#utility.yul\":6557:6559   */\n      0x20\n        /* \"#utility.yul\":6583:6636   */\n      tag_298\n        /* \"#utility.yul\":6628:6635   */\n      dup8\n        /* \"#utility.yul\":6619:6625   */\n      dup3\n        /* \"#utility.yul\":6608:6617   */\n      dup9\n        /* \"#utility.yul\":6604:6626   */\n      add\n        /* \"#utility.yul\":6583:6636   */\n      tag_246\n      jump\t// in\n    tag_298:\n        /* \"#utility.yul\":6573:6636   */\n      swap4\n      pop\n        /* \"#utility.yul\":6528:6646   */\n      pop\n        /* \"#utility.yul\":6685:6687   */\n      0x40\n        /* \"#utility.yul\":6711:6764   */\n      tag_299\n        /* \"#utility.yul\":6756:6763   */\n      dup8\n        /* \"#utility.yul\":6747:6753   */\n      dup3\n        /* \"#utility.yul\":6736:6745   */\n      dup9\n        /* \"#utility.yul\":6732:6754   */\n      add\n        /* \"#utility.yul\":6711:6764   */\n      tag_246\n      jump\t// in\n    tag_299:\n        /* \"#utility.yul\":6701:6764   */\n      swap3\n      pop\n        /* \"#utility.yul\":6656:6774   */\n      pop\n        /* \"#utility.yul\":6841:6843   */\n      0x60\n        /* \"#utility.yul\":6830:6839   */\n      dup6\n        /* \"#utility.yul\":6826:6844   */\n      add\n        /* \"#utility.yul\":6813:6845   */\n      calldataload\n        /* \"#utility.yul\":6872:6890   */\n      0xffffffffffffffff\n        /* \"#utility.yul\":6864:6870   */\n      dup2\n        /* \"#utility.yul\":6861:6891   */\n      gt\n        /* \"#utility.yul\":6858:6975   */\n      iszero\n      tag_300\n      jumpi\n        /* \"#utility.yul\":6894:6973   */\n      tag_301\n      tag_286\n      jump\t// in\n    tag_301:\n        /* \"#utility.yul\":6858:6975   */\n    tag_300:\n        /* \"#utility.yul\":6999:7077   */\n      tag_302\n        /* \"#utility.yul\":7069:7076   */\n      dup8\n        /* \"#utility.yul\":7060:7066   */\n      dup3\n        /* \"#utility.yul\":7049:7058   */\n      dup9\n        /* \"#utility.yul\":7045:7067   */\n      add\n        /* \"#utility.yul\":6999:7077   */\n      tag_222\n      jump\t// in\n    tag_302:\n        /* \"#utility.yul\":6989:7077   */\n      swap2\n      pop\n        /* \"#utility.yul\":6784:7087   */\n      pop\n        /* \"#utility.yul\":6119:7094   */\n      swap3\n      swap6\n      swap2\n      swap5\n      pop\n      swap3\n      pop\n      jump\t// out\n        /* \"#utility.yul\":7100:7445   */\n    tag_162:\n        /* \"#utility.yul\":7167:7173   */\n      0x00\n        /* \"#utility.yul\":7216:7218   */\n      0x20\n        /* \"#utility.yul\":7204:7213   */\n      dup3\n        /* \"#utility.yul\":7195:7202   */\n      dup5\n        /* \"#utility.yul\":7191:7214   */\n      sub\n        /* \"#utility.yul\":7187:7219   */\n      slt\n        /* \"#utility.yul\":7184:7303   */\n      iszero\n      tag_304\n      jumpi\n        /* \"#utility.yul\":7222:7301   */\n      tag_305\n      tag_278\n      jump\t// in\n    tag_305:\n        /* \"#utility.yul\":7184:7303   */\n    tag_304:\n        /* \"#utility.yul\":7342:7343   */\n      0x00\n        /* \"#utility.yul\":7367:7428   */\n      tag_306\n        /* \"#utility.yul\":7420:7427   */\n      dup5\n        /* \"#utility.yul\":7411:7417   */\n      dup3\n        /* \"#utility.yul\":7400:7409   */\n      dup6\n        /* \"#utility.yul\":7396:7418   */\n      add\n        /* \"#utility.yul\":7367:7428   */\n      tag_265\n      jump\t// in\n    tag_306:\n        /* \"#utility.yul\":7357:7428   */\n      swap2\n      pop\n        /* \"#utility.yul\":7313:7438   */\n      pop\n        /* \"#utility.yul\":7100:7445   */\n      swap3\n      swap2\n      pop\n      pop\n      jump\t// out\n        /* \"#utility.yul\":7451:7925   */\n    tag_34:\n        /* \"#utility.yul\":7519:7525   */\n      0x00\n        /* \"#utility.yul\":7527:7533   */\n      dup1\n        /* \"#utility.yul\":7576:7578   */\n      0x40\n        /* \"#utility.yul\":7564:7573   */\n      dup4\n        /* \"#utility.yul\":7555:7562   */\n      dup6\n        /* \"#utility.yul\":7551:7574   */\n      sub\n        /* \"#utility.yul\":7547:7579   */\n      slt\n        /* \"#utility.yul\":7544:7663   */\n      iszero\n      tag_308\n      jumpi\n        /* \"#utility.yul\":7582:7661   */\n      tag_309\n      tag_278\n      jump\t// in\n    tag_309:\n        /* \"#utility.yul\":7544:7663   */\n    tag_308:\n        /* \"#utility.yul\":7702:7703   */\n      0x00\n        /* \"#utility.yul\":7727:7780   */\n      tag_310\n        /* \"#utility.yul\":7772:7779   */\n      dup6\n        /* \"#utility.yul\":7763:7769   */\n      dup3\n        /* \"#utility.yul\":7752:7761   */\n      dup7\n        /* \"#utility.yul\":7748:7770   */\n      add\n        /* \"#utility.yul\":7727:7780   */\n      tag_234\n      jump\t// in\n    tag_310:\n        /* \"#utility.yul\":7717:7780   */\n      swap3\n      pop\n        /* \"#utility.yul\":7673:7790   */\n      pop\n        /* \"#utility.yul\":7829:7831   */\n      0x20\n        /* \"#utility.yul\":7855:7908   */\n      tag_311\n        /* \"#utility.yul\":7900:7907   */\n      dup6\n        /* \"#utility.yul\":7891:7897   */\n      dup3\n        /* \"#utility.yul\":7880:7889   */\n      dup7\n        /* \"#utility.yul\":7876:7898   */\n      add\n        /* \"#utility.yul\":7855:7908   */\n      tag_246\n      jump\t// in\n    tag_311:\n        /* \"#utility.yul\":7845:7908   */\n      swap2\n      pop\n        /* \"#utility.yul\":7800:7918   */\n      pop\n        /* \"#utility.yul\":7451:7925   */\n      swap3\n      pop\n      swap3\n      swap1\n      pop\n      jump\t// out\n        /* \"#utility.yul\":7931:8260   */\n    tag_24:\n        /* \"#utility.yul\":7990:7996   */\n      0x00\n        /* \"#utility.yul\":8039:8041   */\n      0x20\n        /* \"#utility.yul\":8027:8036   */\n      dup3\n        /* \"#utility.yul\":8018:8025   */\n      dup5\n        /* \"#utility.yul\":8014:8037   */\n      sub\n        /* \"#utility.yul\":8010:8042   */\n      slt\n        /* \"#utility.yul\":8007:8126   */\n      iszero\n      tag_313\n      jumpi\n        /* \"#utility.yul\":8045:8124   */\n      tag_314\n      tag_278\n      jump\t// in\n    tag_314:\n        /* \"#utility.yul\":8007:8126   */\n    tag_313:\n        /* \"#utility.yul\":8165:8166   */\n      0x00\n        /* \"#utility.yul\":8190:8243   */\n      tag_315\n        /* \"#utility.yul\":8235:8242   */\n      dup5\n        /* \"#utility.yul\":8226:8232   */\n      dup3\n        /* \"#utility.yul\":8215:8224   */\n      dup6\n        /* \"#utility.yul\":8211:8233   */\n      add\n        /* \"#utility.yul\":8190:8243   */\n      tag_246\n      jump\t// in\n    tag_315:\n        /* \"#utility.yul\":8180:8243   */\n      swap2\n      pop\n        /* \"#utility.yul\":8136:8253   */\n      pop\n        /* \"#utility.yul\":7931:8260   */\n      swap3\n      swap2\n      pop\n      pop\n      jump\t// out\n        /* \"#utility.yul\":8266:8740   */\n    tag_18:\n        /* \"#utility.yul\":8334:8340   */\n      0x00\n        /* \"#utility.yul\":8342:8348   */\n      dup1\n        /* \"#utility.yul\":8391:8393   */\n      0x40\n        /* \"#utility.yul\":8379:8388   */\n      dup4\n        /* \"#utility.yul\":8370:8377   */\n      dup6\n        /* \"#utility.yul\":8366:8389   */\n      sub\n        /* \"#utility.yul\":8362:8394   */\n      slt\n        /* \"#utility.yul\":8359:8478   */\n      iszero\n      tag_317\n      jumpi\n        /* \"#utility.yul\":8397:8476   */\n      tag_318\n      tag_278\n      jump\t// in\n    tag_318:\n        /* \"#utility.yul\":8359:8478   */\n    tag_317:\n        /* \"#utility.yul\":8517:8518   */\n      0x00\n        /* \"#utility.yul\":8542:8595   */\n      tag_319\n        /* \"#utility.yul\":8587:8594   */\n      dup6\n        /* \"#utility.yul\":8578:8584   */\n      dup3\n        /* \"#utility.yul\":8567:8576   */\n      dup7\n        /* \"#utility.yul\":8563:8585   */\n      add\n        /* \"#utility.yul\":8542:8595   */\n      tag_246\n      jump\t// in\n    tag_319:\n        /* \"#utility.yul\":8532:8595   */\n      swap3\n      pop\n        /* \"#utility.yul\":8488:8605   */\n      pop\n        /* \"#utility.yul\":8644:8646   */\n      0x20\n        /* \"#utility.yul\":8670:8723   */\n      tag_320\n        /* \"#utility.yul\":8715:8722   */\n      dup6\n        /* \"#utility.yul\":8706:8712   */\n      dup3\n        /* \"#utility.yul\":8695:8704   */\n      dup7\n        /* \"#utility.yul\":8691:8713   */\n      add\n        /* \"#utility.yul\":8670:8723   */\n      tag_247\n      jump\t// in\n    tag_320:\n        /* \"#utility.yul\":8660:8723   */\n      swap2\n      pop\n        /* \"#utility.yul\":8615:8733   */\n      pop\n        /* \"#utility.yul\":8266:8740   */\n      swap3\n      pop\n      swap3\n      swap1\n      pop\n      jump\t// out\n        /* \"#utility.yul\":8746:8864   */\n    tag_321:\n        /* \"#utility.yul\":8833:8857   */\n      tag_323\n        /* \"#utility.yul\":8851:8856   */\n      dup2\n        /* \"#utility.yul\":8833:8857   */\n      tag_324\n      jump\t// in\n    tag_323:\n        /* \"#utility.yul\":8828:8831   */\n      dup3\n        /* \"#utility.yul\":8821:8858   */\n      mstore\n        /* \"#utility.yul\":8746:8864   */\n      pop\n      pop\n      jump\t// out\n        /* \"#utility.yul\":8870:9027   */\n    tag_325:\n        /* \"#utility.yul\":8975:9020   */\n      tag_327\n        /* \"#utility.yul\":8995:9019   */\n      tag_328\n        /* \"#utility.yul\":9013:9018   */\n      dup3\n        /* \"#utility.yul\":8995:9019   */\n      tag_324\n      jump\t// in\n    tag_328:\n        /* \"#utility.yul\":8975:9020   */\n      tag_329\n      jump\t// in\n    tag_327:\n        /* \"#utility.yul\":8970:8973   */\n      dup3\n        /* \"#utility.yul\":8963:9021   */\n      mstore\n        /* \"#utility.yul\":8870:9027   */\n      pop\n      pop\n      jump\t// out\n        /* \"#utility.yul\":9033:9142   */\n    tag_330:\n        /* \"#utility.yul\":9114:9135   */\n      tag_332\n        /* \"#utility.yul\":9129:9134   */\n      dup2\n        /* \"#utility.yul\":9114:9135   */\n      tag_333\n      jump\t// in\n    tag_332:\n        /* \"#utility.yul\":9109:9112   */\n      dup3\n        /* \"#utility.yul\":9102:9136   */\n      mstore\n        /* \"#utility.yul\":9033:9142   */\n      pop\n      pop\n      jump\t// out\n        /* \"#utility.yul\":9148:9266   */\n    tag_334:\n        /* \"#utility.yul\":9235:9259   */\n      tag_336\n        /* \"#utility.yul\":9253:9258   */\n      dup2\n        /* \"#utility.yul\":9235:9259   */\n      tag_337\n      jump\t// in\n    tag_336:\n        /* \"#utility.yul\":9230:9233   */\n      dup3\n        /* \"#utility.yul\":9223:9260   */\n      mstore\n        /* \"#utility.yul\":9148:9266   */\n      pop\n      pop\n      jump\t// out\n        /* \"#utility.yul\":9272:9429   */\n    tag_338:\n        /* \"#utility.yul\":9377:9422   */\n      tag_340\n        /* \"#utility.yul\":9397:9421   */\n      tag_341\n        /* \"#utility.yul\":9415:9420   */\n      dup3\n        /* \"#utility.yul\":9397:9421   */\n      tag_337\n      jump\t// in\n    tag_341:\n        /* \"#utility.yul\":9377:9422   */\n      tag_342\n      jump\t// in\n    tag_340:\n        /* \"#utility.yul\":9372:9375   */\n      dup3\n        /* \"#utility.yul\":9365:9423   */\n      mstore\n        /* \"#utility.yul\":9272:9429   */\n      pop\n      pop\n      jump\t// out\n        /* \"#utility.yul\":9435:9808   */\n    tag_343:\n        /* \"#utility.yul\":9539:9542   */\n      0x00\n        /* \"#utility.yul\":9567:9605   */\n      tag_345\n        /* \"#utility.yul\":9599:9604   */\n      dup3\n        /* \"#utility.yul\":9567:9605   */\n      tag_346\n      jump\t// in\n    tag_345:\n        /* \"#utility.yul\":9621:9709   */\n      tag_347\n        /* \"#utility.yul\":9702:9708   */\n      dup2\n        /* \"#utility.yul\":9697:9700   */\n      dup6\n        /* \"#utility.yul\":9621:9709   */\n      tag_348\n      jump\t// in\n    tag_347:\n        /* \"#utility.yul\":9614:9709   */\n      swap4\n      pop\n        /* \"#utility.yul\":9718:9770   */\n      tag_349\n        /* \"#utility.yul\":9763:9769   */\n      dup2\n        /* \"#utility.yul\":9758:9761   */\n      dup6\n        /* \"#utility.yul\":9751:9755   */\n      0x20\n        /* \"#utility.yul\":9744:9749   */\n      dup7\n        /* \"#utility.yul\":9740:9756   */\n      add\n        /* \"#utility.yul\":9718:9770   */\n      tag_350\n      jump\t// in\n    tag_349:\n        /* \"#utility.yul\":9795:9801   */\n      dup1\n        /* \"#utility.yul\":9790:9793   */\n      dup5\n        /* \"#utility.yul\":9786:9802   */\n      add\n        /* \"#utility.yul\":9779:9802   */\n      swap2\n      pop\n        /* \"#utility.yul\":9543:9808   */\n      pop\n        /* \"#utility.yul\":9435:9808   */\n      swap3\n      swap2\n      pop\n      pop\n      jump\t// out\n        /* \"#utility.yul\":9814:9973   */\n    tag_351:\n        /* \"#utility.yul\":9915:9966   */\n      tag_353\n        /* \"#utility.yul\":9960:9965   */\n      dup2\n        /* \"#utility.yul\":9915:9966   */\n      tag_354\n      jump\t// in\n    tag_353:\n        /* \"#utility.yul\":9910:9913   */\n      dup3\n        /* \"#utility.yul\":9903:9967   */\n      mstore\n        /* \"#utility.yul\":9814:9973   */\n      pop\n      pop\n      jump\t// out\n        /* \"#utility.yul\":9979:10343   */\n    tag_355:\n        /* \"#utility.yul\":10067:10070   */\n      0x00\n        /* \"#utility.yul\":10095:10134   */\n      tag_357\n        /* \"#utility.yul\":10128:10133   */\n      dup3\n        /* \"#utility.yul\":10095:10134   */\n      tag_358\n      jump\t// in\n    tag_357:\n        /* \"#utility.yul\":10150:10221   */\n      tag_359\n        /* \"#utility.yul\":10214:10220   */\n      dup2\n        /* \"#utility.yul\":10209:10212   */\n      dup6\n        /* \"#utility.yul\":10150:10221   */\n      tag_360\n      jump\t// in\n    tag_359:\n        /* \"#utility.yul\":10143:10221   */\n      swap4\n      pop\n        /* \"#utility.yul\":10230:10282   */\n      tag_361\n        /* \"#utility.yul\":10275:10281   */\n      dup2\n        /* \"#utility.yul\":10270:10273   */\n      dup6\n        /* \"#utility.yul\":10263:10267   */\n      0x20\n        /* \"#utility.yul\":10256:10261   */\n      dup7\n        /* \"#utility.yul\":10252:10268   */\n      add\n        /* \"#utility.yul\":10230:10282   */\n      tag_350\n      jump\t// in\n    tag_361:\n        /* \"#utility.yul\":10307:10336   */\n      tag_362\n        /* \"#utility.yul\":10329:10335   */\n      dup2\n        /* \"#utility.yul\":10307:10336   */\n      tag_363\n      jump\t// in\n    tag_362:\n        /* \"#utility.yul\":10302:10305   */\n      dup5\n        /* \"#utility.yul\":10298:10337   */\n      add\n        /* \"#utility.yul\":10291:10337   */\n      swap2\n      pop\n        /* \"#utility.yul\":10071:10343   */\n      pop\n        /* \"#utility.yul\":9979:10343   */\n      swap3\n      swap2\n      pop\n      pop\n      jump\t// out\n        /* \"#utility.yul\":10349:10715   */\n    tag_364:\n        /* \"#utility.yul\":10491:10494   */\n      0x00\n        /* \"#utility.yul\":10512:10579   */\n      tag_366\n        /* \"#utility.yul\":10576:10578   */\n      0x1c\n        /* \"#utility.yul\":10571:10574   */\n      dup4\n        /* \"#utility.yul\":10512:10579   */\n      tag_360\n      jump\t// in\n    tag_366:\n        /* \"#utility.yul\":10505:10579   */\n      swap2\n      pop\n        /* \"#utility.yul\":10588:10681   */\n      tag_367\n        /* \"#utility.yul\":10677:10680   */\n      dup3\n        /* \"#utility.yul\":10588:10681   */\n      tag_368\n      jump\t// in\n    tag_367:\n        /* \"#utility.yul\":10706:10708   */\n      0x20\n        /* \"#utility.yul\":10701:10704   */\n      dup3\n        /* \"#utility.yul\":10697:10709   */\n      add\n        /* \"#utility.yul\":10690:10709   */\n      swap1\n      pop\n        /* \"#utility.yul\":10349:10715   */\n      swap2\n      swap1\n      pop\n      jump\t// out\n        /* \"#utility.yul\":10721:11087   */\n    tag_369:\n        /* \"#utility.yul\":10863:10866   */\n      0x00\n        /* \"#utility.yul\":10884:10951   */\n      tag_371\n        /* \"#utility.yul\":10948:10950   */\n      0x16\n        /* \"#utility.yul\":10943:10946   */\n      dup4\n        /* \"#utility.yul\":10884:10951   */\n      tag_360\n      jump\t// in\n    tag_371:\n        /* \"#utility.yul\":10877:10951   */\n      swap2\n      pop\n        /* \"#utility.yul\":10960:11053   */\n      tag_372\n        /* \"#utility.yul\":11049:11052   */\n      dup3\n        /* \"#utility.yul\":10960:11053   */\n      tag_373\n      jump\t// in\n    tag_372:\n        /* \"#utility.yul\":11078:11080   */\n      0x20\n        /* \"#utility.yul\":11073:11076   */\n      dup3\n        /* \"#utility.yul\":11069:11081   */\n      add\n        /* \"#utility.yul\":11062:11081   */\n      swap1\n      pop\n        /* \"#utility.yul\":10721:11087   */\n      swap2\n      swap1\n      pop\n      jump\t// out\n        /* \"#utility.yul\":11093:11459   */\n    tag_374:\n        /* \"#utility.yul\":11235:11238   */\n      0x00\n        /* \"#utility.yul\":11256:11323   */\n      tag_376\n        /* \"#utility.yul\":11320:11322   */\n      0x1b\n        /* \"#utility.yul\":11315:11318   */\n      dup4\n        /* \"#utility.yul\":11256:11323   */\n      tag_360\n      jump\t// in\n    tag_376:\n        /* \"#utility.yul\":11249:11323   */\n      swap2\n      pop\n        /* \"#utility.yul\":11332:11425   */\n      tag_377\n        /* \"#utility.yul\":11421:11424   */\n      dup3\n        /* \"#utility.yul\":11332:11425   */\n      tag_378\n      jump\t// in\n    tag_377:\n        /* \"#utility.yul\":11450:11452   */\n      0x20\n        /* \"#utility.yul\":11445:11448   */\n      dup3\n        /* \"#utility.yul\":11441:11453   */\n      add\n        /* \"#utility.yul\":11434:11453   */\n      swap1\n      pop\n        /* \"#utility.yul\":11093:11459   */\n      swap2\n      swap1\n      pop\n      jump\t// out\n        /* \"#utility.yul\":11465:11831   */\n    tag_379:\n        /* \"#utility.yul\":11607:11610   */\n      0x00\n        /* \"#utility.yul\":11628:11695   */\n      tag_381\n        /* \"#utility.yul\":11692:11694   */\n      0x26\n        /* \"#utility.yul\":11687:11690   */\n      dup4\n        /* \"#utility.yul\":11628:11695   */\n      tag_360\n      jump\t// in\n    tag_381:\n        /* \"#utility.yul\":11621:11695   */\n      swap2\n      pop\n        /* \"#utility.yul\":11704:11797   */\n      tag_382\n        /* \"#utility.yul\":11793:11796   */\n      dup3\n        /* \"#utility.yul\":11704:11797   */\n      tag_383\n      jump\t// in\n    tag_382:\n        /* \"#utility.yul\":11822:11824   */\n      0x40\n        /* \"#utility.yul\":11817:11820   */\n      dup3\n        /* \"#utility.yul\":11813:11825   */\n      add\n        /* \"#utility.yul\":11806:11825   */\n      swap1\n      pop\n        /* \"#utility.yul\":11465:11831   */\n      swap2\n      swap1\n      pop\n      jump\t// out\n        /* \"#utility.yul\":11837:12203   */\n    tag_384:\n        /* \"#utility.yul\":11979:11982   */\n      0x00\n        /* \"#utility.yul\":12000:12067   */\n      tag_386\n        /* \"#utility.yul\":12064:12066   */\n      0x3d\n        /* \"#utility.yul\":12059:12062   */\n      dup4\n        /* \"#utility.yul\":12000:12067   */\n      tag_360\n      jump\t// in\n    tag_386:\n        /* \"#utility.yul\":11993:12067   */\n      swap2\n      pop\n        /* \"#utility.yul\":12076:12169   */\n      tag_387\n        /* \"#utility.yul\":12165:12168   */\n      dup3\n        /* \"#utility.yul\":12076:12169   */\n      tag_388\n      jump\t// in\n    tag_387:\n        /* \"#utility.yul\":12194:12196   */\n      0x40\n        /* \"#utility.yul\":12189:12192   */\n      dup3\n        /* \"#utility.yul\":12185:12197   */\n      add\n        /* \"#utility.yul\":12178:12197   */\n      swap1\n      pop\n        /* \"#utility.yul\":11837:12203   */\n      swap2\n      swap1\n      pop\n      jump\t// out\n        /* \"#utility.yul\":12209:12575   */\n    tag_389:\n        /* \"#utility.yul\":12351:12354   */\n      0x00\n        /* \"#utility.yul\":12372:12439   */\n      tag_391\n        /* \"#utility.yul\":12436:12438   */\n      0x16\n        /* \"#utility.yul\":12431:12434   */\n      dup4\n        /* \"#utility.yul\":12372:12439   */\n      tag_360\n      jump\t// in\n    tag_391:\n        /* \"#utility.yul\":12365:12439   */\n      swap2\n      pop\n        /* \"#utility.yul\":12448:12541   */\n      tag_392\n        /* \"#utility.yul\":12537:12540   */\n      dup3\n        /* \"#utility.yul\":12448:12541   */\n      tag_393\n      jump\t// in\n    tag_392:\n        /* \"#utility.yul\":12566:12568   */\n      0x20\n        /* \"#utility.yul\":12561:12564   */\n      dup3\n        /* \"#utility.yul\":12557:12569   */\n      add\n        /* \"#utility.yul\":12550:12569   */\n      swap1\n      pop\n        /* \"#utility.yul\":12209:12575   */\n      swap2\n      swap1\n      pop\n      jump\t// out\n        /* \"#utility.yul\":12581:12947   */\n    tag_394:\n        /* \"#utility.yul\":12723:12726   */\n      0x00\n        /* \"#utility.yul\":12744:12811   */\n      tag_396\n        /* \"#utility.yul\":12808:12810   */\n      0x1d\n        /* \"#utility.yul\":12803:12806   */\n      dup4\n        /* \"#utility.yul\":12744:12811   */\n      tag_360\n      jump\t// in\n    tag_396:\n        /* \"#utility.yul\":12737:12811   */\n      swap2\n      pop\n        /* \"#utility.yul\":12820:12913   */\n      tag_397\n        /* \"#utility.yul\":12909:12912   */\n      dup3\n        /* \"#utility.yul\":12820:12913   */\n      tag_398\n      jump\t// in\n    tag_397:\n        /* \"#utility.yul\":12938:12940   */\n      0x20\n        /* \"#utility.yul\":12933:12936   */\n      dup3\n        /* \"#utility.yul\":12929:12941   */\n      add\n        /* \"#utility.yul\":12922:12941   */\n      swap1\n      pop\n        /* \"#utility.yul\":12581:12947   */\n      swap2\n      swap1\n      pop\n      jump\t// out\n        /* \"#utility.yul\":12953:13319   */\n    tag_399:\n        /* \"#utility.yul\":13095:13098   */\n      0x00\n        /* \"#utility.yul\":13116:13183   */\n      tag_401\n        /* \"#utility.yul\":13180:13182   */\n      0x12\n        /* \"#utility.yul\":13175:13178   */\n      dup4\n        /* \"#utility.yul\":13116:13183   */\n      tag_360\n      jump\t// in\n    tag_401:\n        /* \"#utility.yul\":13109:13183   */\n      swap2\n      pop\n        /* \"#utility.yul\":13192:13285   */\n      tag_402\n        /* \"#utility.yul\":13281:13284   */\n      dup3\n        /* \"#utility.yul\":13192:13285   */\n      tag_403\n      jump\t// in\n    tag_402:\n        /* \"#utility.yul\":13310:13312   */\n      0x20\n        /* \"#utility.yul\":13305:13308   */\n      dup3\n        /* \"#utility.yul\":13301:13313   */\n      add\n        /* \"#utility.yul\":13294:13313   */\n      swap1\n      pop\n        /* \"#utility.yul\":12953:13319   */\n      swap2\n      swap1\n      pop\n      jump\t// out\n        /* \"#utility.yul\":13325:13691   */\n    tag_404:\n        /* \"#utility.yul\":13467:13470   */\n      0x00\n        /* \"#utility.yul\":13488:13555   */\n      tag_406\n        /* \"#utility.yul\":13552:13554   */\n      0x2a\n        /* \"#utility.yul\":13547:13550   */\n      dup4\n        /* \"#utility.yul\":13488:13555   */\n      tag_360\n      jump\t// in\n    tag_406:\n        /* \"#utility.yul\":13481:13555   */\n      swap2\n      pop\n        /* \"#utility.yul\":13564:13657   */\n      tag_407\n        /* \"#utility.yul\":13653:13656   */\n      dup3\n        /* \"#utility.yul\":13564:13657   */\n      tag_408\n      jump\t// in\n    tag_407:\n        /* \"#utility.yul\":13682:13684   */\n      0x40\n        /* \"#utility.yul\":13677:13680   */\n      dup3\n        /* \"#utility.yul\":13673:13685   */\n      add\n        /* \"#utility.yul\":13666:13685   */\n      swap1\n      pop\n        /* \"#utility.yul\":13325:13691   */\n      swap2\n      swap1\n      pop\n      jump\t// out\n        /* \"#utility.yul\":13697:13815   */\n    tag_409:\n        /* \"#utility.yul\":13784:13808   */\n      tag_411\n        /* \"#utility.yul\":13802:13807   */\n      dup2\n        /* \"#utility.yul\":13784:13808   */\n      tag_412\n      jump\t// in\n    tag_411:\n        /* \"#utility.yul\":13779:13782   */\n      dup3\n        /* \"#utility.yul\":13772:13809   */\n      mstore\n        /* \"#utility.yul\":13697:13815   */\n      pop\n      pop\n      jump\t// out\n        /* \"#utility.yul\":13821:13978   */\n    tag_413:\n        /* \"#utility.yul\":13926:13971   */\n      tag_415\n        /* \"#utility.yul\":13946:13970   */\n      tag_416\n        /* \"#utility.yul\":13964:13969   */\n      dup3\n        /* \"#utility.yul\":13946:13970   */\n      tag_412\n      jump\t// in\n    tag_416:\n        /* \"#utility.yul\":13926:13971   */\n      tag_417\n      jump\t// in\n    tag_415:\n        /* \"#utility.yul\":13921:13924   */\n      dup3\n        /* \"#utility.yul\":13914:13972   */\n      mstore\n        /* \"#utility.yul\":13821:13978   */\n      pop\n      pop\n      jump\t// out\n        /* \"#utility.yul\":13984:14381   */\n    tag_150:\n        /* \"#utility.yul\":14124:14127   */\n      0x00\n        /* \"#utility.yul\":14139:14214   */\n      tag_419\n        /* \"#utility.yul\":14210:14213   */\n      dup3\n        /* \"#utility.yul\":14201:14207   */\n      dup6\n        /* \"#utility.yul\":14139:14214   */\n      tag_325\n      jump\t// in\n    tag_419:\n        /* \"#utility.yul\":14239:14241   */\n      0x14\n        /* \"#utility.yul\":14234:14237   */\n      dup3\n        /* \"#utility.yul\":14230:14242   */\n      add\n        /* \"#utility.yul\":14223:14242   */\n      swap2\n      pop\n        /* \"#utility.yul\":14252:14327   */\n      tag_420\n        /* \"#utility.yul\":14323:14326   */\n      dup3\n        /* \"#utility.yul\":14314:14320   */\n      dup5\n        /* \"#utility.yul\":14252:14327   */\n      tag_413\n      jump\t// in\n    tag_420:\n        /* \"#utility.yul\":14352:14354   */\n      0x20\n        /* \"#utility.yul\":14347:14350   */\n      dup3\n        /* \"#utility.yul\":14343:14355   */\n      add\n        /* \"#utility.yul\":14336:14355   */\n      swap2\n      pop\n        /* \"#utility.yul\":14372:14375   */\n      dup2\n        /* \"#utility.yul\":14365:14375   */\n      swap1\n      pop\n        /* \"#utility.yul\":13984:14381   */\n      swap4\n      swap3\n      pop\n      pop\n      pop\n      jump\t// out\n        /* \"#utility.yul\":14387:14784   */\n    tag_174:\n        /* \"#utility.yul\":14527:14530   */\n      0x00\n        /* \"#utility.yul\":14542:14617   */\n      tag_422\n        /* \"#utility.yul\":14613:14616   */\n      dup3\n        /* \"#utility.yul\":14604:14610   */\n      dup6\n        /* \"#utility.yul\":14542:14617   */\n      tag_338\n      jump\t// in\n    tag_422:\n        /* \"#utility.yul\":14642:14644   */\n      0x20\n        /* \"#utility.yul\":14637:14640   */\n      dup3\n        /* \"#utility.yul\":14633:14645   */\n      add\n        /* \"#utility.yul\":14626:14645   */\n      swap2\n      pop\n        /* \"#utility.yul\":14655:14730   */\n      tag_423\n        /* \"#utility.yul\":14726:14729   */\n      dup3\n        /* \"#utility.yul\":14717:14723   */\n      dup5\n        /* \"#utility.yul\":14655:14730   */\n      tag_338\n      jump\t// in\n    tag_423:\n        /* \"#utility.yul\":14755:14757   */\n      0x20\n        /* \"#utility.yul\":14750:14753   */\n      dup3\n        /* \"#utility.yul\":14746:14758   */\n      add\n        /* \"#utility.yul\":14739:14758   */\n      swap2\n      pop\n        /* \"#utility.yul\":14775:14778   */\n      dup2\n        /* \"#utility.yul\":14768:14778   */\n      swap1\n      pop\n        /* \"#utility.yul\":14387:14784   */\n      swap4\n      swap3\n      pop\n      pop\n      pop\n      jump\t// out\n        /* \"#utility.yul\":14790:15061   */\n    tag_191:\n        /* \"#utility.yul\":14920:14923   */\n      0x00\n        /* \"#utility.yul\":14942:15035   */\n      tag_425\n        /* \"#utility.yul\":15031:15034   */\n      dup3\n        /* \"#utility.yul\":15022:15028   */\n      dup5\n        /* \"#utility.yul\":14942:15035   */\n      tag_343\n      jump\t// in\n    tag_425:\n        /* \"#utility.yul\":14935:15035   */\n      swap2\n      pop\n        /* \"#utility.yul\":15052:15055   */\n      dup2\n        /* \"#utility.yul\":15045:15055   */\n      swap1\n      pop\n        /* \"#utility.yul\":14790:15061   */\n      swap3\n      swap2\n      pop\n      pop\n      jump\t// out\n        /* \"#utility.yul\":15067:15289   */\n    tag_27:\n        /* \"#utility.yul\":15160:15164   */\n      0x00\n        /* \"#utility.yul\":15198:15200   */\n      0x20\n        /* \"#utility.yul\":15187:15196   */\n      dup3\n        /* \"#utility.yul\":15183:15201   */\n      add\n        /* \"#utility.yul\":15175:15201   */\n      swap1\n      pop\n        /* \"#utility.yul\":15211:15282   */\n      tag_427\n        /* \"#utility.yul\":15279:15280   */\n      0x00\n        /* \"#utility.yul\":15268:15277   */\n      dup4\n        /* \"#utility.yul\":15264:15281   */\n      add\n        /* \"#utility.yul\":15255:15261   */\n      dup5\n        /* \"#utility.yul\":15211:15282   */\n      tag_321\n      jump\t// in\n    tag_427:\n        /* \"#utility.yul\":15067:15289   */\n      swap3\n      swap2\n      pop\n      pop\n      jump\t// out\n        /* \"#utility.yul\":15295:15737   */\n    tag_140:\n        /* \"#utility.yul\":15444:15448   */\n      0x00\n        /* \"#utility.yul\":15482:15484   */\n      0x60\n        /* \"#utility.yul\":15471:15480   */\n      dup3\n        /* \"#utility.yul\":15467:15485   */\n      add\n        /* \"#utility.yul\":15459:15485   */\n      swap1\n      pop\n        /* \"#utility.yul\":15495:15566   */\n      tag_429\n        /* \"#utility.yul\":15563:15564   */\n      0x00\n        /* \"#utility.yul\":15552:15561   */\n      dup4\n        /* \"#utility.yul\":15548:15565   */\n      add\n        /* \"#utility.yul\":15539:15545   */\n      dup7\n        /* \"#utility.yul\":15495:15566   */\n      tag_321\n      jump\t// in\n    tag_429:\n        /* \"#utility.yul\":15576:15648   */\n      tag_430\n        /* \"#utility.yul\":15644:15646   */\n      0x20\n        /* \"#utility.yul\":15633:15642   */\n      dup4\n        /* \"#utility.yul\":15629:15647   */\n      add\n        /* \"#utility.yul\":15620:15626   */\n      dup6\n        /* \"#utility.yul\":15576:15648   */\n      tag_321\n      jump\t// in\n    tag_430:\n        /* \"#utility.yul\":15658:15730   */\n      tag_431\n        /* \"#utility.yul\":15726:15728   */\n      0x40\n        /* \"#utility.yul\":15715:15724   */\n      dup4\n        /* \"#utility.yul\":15711:15729   */\n      add\n        /* \"#utility.yul\":15702:15708   */\n      dup5\n        /* \"#utility.yul\":15658:15730   */\n      tag_409\n      jump\t// in\n    tag_431:\n        /* \"#utility.yul\":15295:15737   */\n      swap5\n      swap4\n      pop\n      pop\n      pop\n      pop\n      jump\t// out\n        /* \"#utility.yul\":15743:16075   */\n    tag_156:\n        /* \"#utility.yul\":15864:15868   */\n      0x00\n        /* \"#utility.yul\":15902:15904   */\n      0x40\n        /* \"#utility.yul\":15891:15900   */\n      dup3\n        /* \"#utility.yul\":15887:15905   */\n      add\n        /* \"#utility.yul\":15879:15905   */\n      swap1\n      pop\n        /* \"#utility.yul\":15915:15986   */\n      tag_433\n        /* \"#utility.yul\":15983:15984   */\n      0x00\n        /* \"#utility.yul\":15972:15981   */\n      dup4\n        /* \"#utility.yul\":15968:15985   */\n      add\n        /* \"#utility.yul\":15959:15965   */\n      dup6\n        /* \"#utility.yul\":15915:15986   */\n      tag_321\n      jump\t// in\n    tag_433:\n        /* \"#utility.yul\":15996:16068   */\n      tag_434\n        /* \"#utility.yul\":16064:16066   */\n      0x20\n        /* \"#utility.yul\":16053:16062   */\n      dup4\n        /* \"#utility.yul\":16049:16067   */\n      add\n        /* \"#utility.yul\":16040:16046   */\n      dup5\n        /* \"#utility.yul\":15996:16068   */\n      tag_409\n      jump\t// in\n    tag_434:\n        /* \"#utility.yul\":15743:16075   */\n      swap4\n      swap3\n      pop\n      pop\n      pop\n      jump\t// out\n        /* \"#utility.yul\":16081:16523   */\n    tag_129:\n        /* \"#utility.yul\":16230:16234   */\n      0x00\n        /* \"#utility.yul\":16268:16270   */\n      0x60\n        /* \"#utility.yul\":16257:16266   */\n      dup3\n        /* \"#utility.yul\":16253:16271   */\n      add\n        /* \"#utility.yul\":16245:16271   */\n      swap1\n      pop\n        /* \"#utility.yul\":16281:16352   */\n      tag_436\n        /* \"#utility.yul\":16349:16350   */\n      0x00\n        /* \"#utility.yul\":16338:16347   */\n      dup4\n        /* \"#utility.yul\":16334:16351   */\n      add\n        /* \"#utility.yul\":16325:16331   */\n      dup7\n        /* \"#utility.yul\":16281:16352   */\n      tag_321\n      jump\t// in\n    tag_436:\n        /* \"#utility.yul\":16362:16434   */\n      tag_437\n        /* \"#utility.yul\":16430:16432   */\n      0x20\n        /* \"#utility.yul\":16419:16428   */\n      dup4\n        /* \"#utility.yul\":16415:16433   */\n      add\n        /* \"#utility.yul\":16406:16412   */\n      dup6\n        /* \"#utility.yul\":16362:16434   */\n      tag_409\n      jump\t// in\n    tag_437:\n        /* \"#utility.yul\":16444:16516   */\n      tag_438\n        /* \"#utility.yul\":16512:16514   */\n      0x40\n        /* \"#utility.yul\":16501:16510   */\n      dup4\n        /* \"#utility.yul\":16497:16515   */\n      add\n        /* \"#utility.yul\":16488:16494   */\n      dup5\n        /* \"#utility.yul\":16444:16516   */\n      tag_409\n      jump\t// in\n    tag_438:\n        /* \"#utility.yul\":16081:16523   */\n      swap5\n      swap4\n      pop\n      pop\n      pop\n      pop\n      jump\t// out\n        /* \"#utility.yul\":16529:16739   */\n    tag_21:\n        /* \"#utility.yul\":16616:16620   */\n      0x00\n        /* \"#utility.yul\":16654:16656   */\n      0x20\n        /* \"#utility.yul\":16643:16652   */\n      dup3\n        /* \"#utility.yul\":16639:16657   */\n      add\n        /* \"#utility.yul\":16631:16657   */\n      swap1\n      pop\n        /* \"#utility.yul\":16667:16732   */\n      tag_440\n        /* \"#utility.yul\":16729:16730   */\n      0x00\n        /* \"#utility.yul\":16718:16727   */\n      dup4\n        /* \"#utility.yul\":16714:16731   */\n      add\n        /* \"#utility.yul\":16705:16711   */\n      dup5\n        /* \"#utility.yul\":16667:16732   */\n      tag_330\n      jump\t// in\n    tag_440:\n        /* \"#utility.yul\":16529:16739   */\n      swap3\n      swap2\n      pop\n      pop\n      jump\t// out\n        /* \"#utility.yul\":16745:16967   */\n    tag_42:\n        /* \"#utility.yul\":16838:16842   */\n      0x00\n        /* \"#utility.yul\":16876:16878   */\n      0x20\n        /* \"#utility.yul\":16865:16874   */\n      dup3\n        /* \"#utility.yul\":16861:16879   */\n      add\n        /* \"#utility.yul\":16853:16879   */\n      swap1\n      pop\n        /* \"#utility.yul\":16889:16960   */\n      tag_442\n        /* \"#utility.yul\":16957:16958   */\n      0x00\n        /* \"#utility.yul\":16946:16955   */\n      dup4\n        /* \"#utility.yul\":16942:16959   */\n      add\n        /* \"#utility.yul\":16933:16939   */\n      dup5\n        /* \"#utility.yul\":16889:16960   */\n      tag_334\n      jump\t// in\n    tag_442:\n        /* \"#utility.yul\":16745:16967   */\n      swap3\n      swap2\n      pop\n      pop\n      jump\t// out\n        /* \"#utility.yul\":16973:17223   */\n    tag_67:\n        /* \"#utility.yul\":17080:17084   */\n      0x00\n        /* \"#utility.yul\":17118:17120   */\n      0x20\n        /* \"#utility.yul\":17107:17116   */\n      dup3\n        /* \"#utility.yul\":17103:17121   */\n      add\n        /* \"#utility.yul\":17095:17121   */\n      swap1\n      pop\n        /* \"#utility.yul\":17131:17216   */\n      tag_444\n        /* \"#utility.yul\":17213:17214   */\n      0x00\n        /* \"#utility.yul\":17202:17211   */\n      dup4\n        /* \"#utility.yul\":17198:17215   */\n      add\n        /* \"#utility.yul\":17189:17195   */\n      dup5\n        /* \"#utility.yul\":17131:17216   */\n      tag_351\n      jump\t// in\n    tag_444:\n        /* \"#utility.yul\":16973:17223   */\n      swap3\n      swap2\n      pop\n      pop\n      jump\t// out\n        /* \"#utility.yul\":17229:17542   */\n    tag_204:\n        /* \"#utility.yul\":17342:17346   */\n      0x00\n        /* \"#utility.yul\":17380:17382   */\n      0x20\n        /* \"#utility.yul\":17369:17378   */\n      dup3\n        /* \"#utility.yul\":17365:17383   */\n      add\n        /* \"#utility.yul\":17357:17383   */\n      swap1\n      pop\n        /* \"#utility.yul\":17429:17438   */\n      dup2\n        /* \"#utility.yul\":17423:17427   */\n      dup2\n        /* \"#utility.yul\":17419:17439   */\n      sub\n        /* \"#utility.yul\":17415:17416   */\n      0x00\n        /* \"#utility.yul\":17404:17413   */\n      dup4\n        /* \"#utility.yul\":17400:17417   */\n      add\n        /* \"#utility.yul\":17393:17440   */\n      mstore\n        /* \"#utility.yul\":17457:17535   */\n      tag_446\n        /* \"#utility.yul\":17530:17534   */\n      dup2\n        /* \"#utility.yul\":17521:17527   */\n      dup5\n        /* \"#utility.yul\":17457:17535   */\n      tag_355\n      jump\t// in\n    tag_446:\n        /* \"#utility.yul\":17449:17535   */\n      swap1\n      pop\n        /* \"#utility.yul\":17229:17542   */\n      swap3\n      swap2\n      pop\n      pop\n      jump\t// out\n        /* \"#utility.yul\":17548:17967   */\n    tag_120:\n        /* \"#utility.yul\":17714:17718   */\n      0x00\n        /* \"#utility.yul\":17752:17754   */\n      0x20\n        /* \"#utility.yul\":17741:17750   */\n      dup3\n        /* \"#utility.yul\":17737:17755   */\n      add\n        /* \"#utility.yul\":17729:17755   */\n      swap1\n      pop\n        /* \"#utility.yul\":17801:17810   */\n      dup2\n        /* \"#utility.yul\":17795:17799   */\n      dup2\n        /* \"#utility.yul\":17791:17811   */\n      sub\n        /* \"#utility.yul\":17787:17788   */\n      0x00\n        /* \"#utility.yul\":17776:17785   */\n      dup4\n        /* \"#utility.yul\":17772:17789   */\n      add\n        /* \"#utility.yul\":17765:17812   */\n      mstore\n        /* \"#utility.yul\":17829:17960   */\n      tag_448\n        /* \"#utility.yul\":17955:17959   */\n      dup2\n        /* \"#utility.yul\":17829:17960   */\n      tag_364\n      jump\t// in\n    tag_448:\n        /* \"#utility.yul\":17821:17960   */\n      swap1\n      pop\n        /* \"#utility.yul\":17548:17967   */\n      swap2\n      swap1\n      pop\n      jump\t// out\n        /* \"#utility.yul\":17973:18392   */\n    tag_127:\n        /* \"#utility.yul\":18139:18143   */\n      0x00\n        /* \"#utility.yul\":18177:18179   */\n      0x20\n        /* \"#utility.yul\":18166:18175   */\n      dup3\n        /* \"#utility.yul\":18162:18180   */\n      add\n        /* \"#utility.yul\":18154:18180   */\n      swap1\n      pop\n        /* \"#utility.yul\":18226:18235   */\n      dup2\n        /* \"#utility.yul\":18220:18224   */\n      dup2\n        /* \"#utility.yul\":18216:18236   */\n      sub\n        /* \"#utility.yul\":18212:18213   */\n      0x00\n        /* \"#utility.yul\":18201:18210   */\n      dup4\n        /* \"#utility.yul\":18197:18214   */\n      add\n        /* \"#utility.yul\":18190:18237   */\n      mstore\n        /* \"#utility.yul\":18254:18385   */\n      tag_450\n        /* \"#utility.yul\":18380:18384   */\n      dup2\n        /* \"#utility.yul\":18254:18385   */\n      tag_369\n      jump\t// in\n    tag_450:\n        /* \"#utility.yul\":18246:18385   */\n      swap1\n      pop\n        /* \"#utility.yul\":17973:18392   */\n      swap2\n      swap1\n      pop\n      jump\t// out\n        /* \"#utility.yul\":18398:18817   */\n    tag_147:\n        /* \"#utility.yul\":18564:18568   */\n      0x00\n        /* \"#utility.yul\":18602:18604   */\n      0x20\n        /* \"#utility.yul\":18591:18600   */\n      dup3\n        /* \"#utility.yul\":18587:18605   */\n      add\n        /* \"#utility.yul\":18579:18605   */\n      swap1\n      pop\n        /* \"#utility.yul\":18651:18660   */\n      dup2\n        /* \"#utility.yul\":18645:18649   */\n      dup2\n        /* \"#utility.yul\":18641:18661   */\n      sub\n        /* \"#utility.yul\":18637:18638   */\n      0x00\n        /* \"#utility.yul\":18626:18635   */\n      dup4\n        /* \"#utility.yul\":18622:18639   */\n      add\n        /* \"#utility.yul\":18615:18662   */\n      mstore\n        /* \"#utility.yul\":18679:18810   */\n      tag_452\n        /* \"#utility.yul\":18805:18809   */\n      dup2\n        /* \"#utility.yul\":18679:18810   */\n      tag_374\n      jump\t// in\n    tag_452:\n        /* \"#utility.yul\":18671:18810   */\n      swap1\n      pop\n        /* \"#utility.yul\":18398:18817   */\n      swap2\n      swap1\n      pop\n      jump\t// out\n        /* \"#utility.yul\":18823:19242   */\n    tag_184:\n        /* \"#utility.yul\":18989:18993   */\n      0x00\n        /* \"#utility.yul\":19027:19029   */\n      0x20\n        /* \"#utility.yul\":19016:19025   */\n      dup3\n        /* \"#utility.yul\":19012:19030   */\n      add\n        /* \"#utility.yul\":19004:19030   */\n      swap1\n      pop\n        /* \"#utility.yul\":19076:19085   */\n      dup2\n        /* \"#utility.yul\":19070:19074   */\n      dup2\n        /* \"#utility.yul\":19066:19086   */\n      sub\n        /* \"#utility.yul\":19062:19063   */\n      0x00\n        /* \"#utility.yul\":19051:19060   */\n      dup4\n        /* \"#utility.yul\":19047:19064   */\n      add\n        /* \"#utility.yul\":19040:19087   */\n      mstore\n        /* \"#utility.yul\":19104:19235   */\n      tag_454\n        /* \"#utility.yul\":19230:19234   */\n      dup2\n        /* \"#utility.yul\":19104:19235   */\n      tag_379\n      jump\t// in\n    tag_454:\n        /* \"#utility.yul\":19096:19235   */\n      swap1\n      pop\n        /* \"#utility.yul\":18823:19242   */\n      swap2\n      swap1\n      pop\n      jump\t// out\n        /* \"#utility.yul\":19248:19667   */\n    tag_136:\n        /* \"#utility.yul\":19414:19418   */\n      0x00\n        /* \"#utility.yul\":19452:19454   */\n      0x20\n        /* \"#utility.yul\":19441:19450   */\n      dup3\n        /* \"#utility.yul\":19437:19455   */\n      add\n        /* \"#utility.yul\":19429:19455   */\n      swap1\n      pop\n        /* \"#utility.yul\":19501:19510   */\n      dup2\n        /* \"#utility.yul\":19495:19499   */\n      dup2\n        /* \"#utility.yul\":19491:19511   */\n      sub\n        /* \"#utility.yul\":19487:19488   */\n      0x00\n        /* \"#utility.yul\":19476:19485   */\n      dup4\n        /* \"#utility.yul\":19472:19489   */\n      add\n        /* \"#utility.yul\":19465:19512   */\n      mstore\n        /* \"#utility.yul\":19529:19660   */\n      tag_456\n        /* \"#utility.yul\":19655:19659   */\n      dup2\n        /* \"#utility.yul\":19529:19660   */\n      tag_384\n      jump\t// in\n    tag_456:\n        /* \"#utility.yul\":19521:19660   */\n      swap1\n      pop\n        /* \"#utility.yul\":19248:19667   */\n      swap2\n      swap1\n      pop\n      jump\t// out\n        /* \"#utility.yul\":19673:20092   */\n    tag_123:\n        /* \"#utility.yul\":19839:19843   */\n      0x00\n        /* \"#utility.yul\":19877:19879   */\n      0x20\n        /* \"#utility.yul\":19866:19875   */\n      dup3\n        /* \"#utility.yul\":19862:19880   */\n      add\n        /* \"#utility.yul\":19854:19880   */\n      swap1\n      pop\n        /* \"#utility.yul\":19926:19935   */\n      dup2\n        /* \"#utility.yul\":19920:19924   */\n      dup2\n        /* \"#utility.yul\":19916:19936   */\n      sub\n        /* \"#utility.yul\":19912:19913   */\n      0x00\n        /* \"#utility.yul\":19901:19910   */\n      dup4\n        /* \"#utility.yul\":19897:19914   */\n      add\n        /* \"#utility.yul\":19890:19937   */\n      mstore\n        /* \"#utility.yul\":19954:20085   */\n      tag_458\n        /* \"#utility.yul\":20080:20084   */\n      dup2\n        /* \"#utility.yul\":19954:20085   */\n      tag_389\n      jump\t// in\n    tag_458:\n        /* \"#utility.yul\":19946:20085   */\n      swap1\n      pop\n        /* \"#utility.yul\":19673:20092   */\n      swap2\n      swap1\n      pop\n      jump\t// out\n        /* \"#utility.yul\":20098:20517   */\n    tag_189:\n        /* \"#utility.yul\":20264:20268   */\n      0x00\n        /* \"#utility.yul\":20302:20304   */\n      0x20\n        /* \"#utility.yul\":20291:20300   */\n      dup3\n        /* \"#utility.yul\":20287:20305   */\n      add\n        /* \"#utility.yul\":20279:20305   */\n      swap1\n      pop\n        /* \"#utility.yul\":20351:20360   */\n      dup2\n        /* \"#utility.yul\":20345:20349   */\n      dup2\n        /* \"#utility.yul\":20341:20361   */\n      sub\n        /* \"#utility.yul\":20337:20338   */\n      0x00\n        /* \"#utility.yul\":20326:20335   */\n      dup4\n        /* \"#utility.yul\":20322:20339   */\n      add\n        /* \"#utility.yul\":20315:20362   */\n      mstore\n        /* \"#utility.yul\":20379:20510   */\n      tag_460\n        /* \"#utility.yul\":20505:20509   */\n      dup2\n        /* \"#utility.yul\":20379:20510   */\n      tag_394\n      jump\t// in\n    tag_460:\n        /* \"#utility.yul\":20371:20510   */\n      swap1\n      pop\n        /* \"#utility.yul\":20098:20517   */\n      swap2\n      swap1\n      pop\n      jump\t// out\n        /* \"#utility.yul\":20523:20942   */\n    tag_88:\n        /* \"#utility.yul\":20689:20693   */\n      0x00\n        /* \"#utility.yul\":20727:20729   */\n      0x20\n        /* \"#utility.yul\":20716:20725   */\n      dup3\n        /* \"#utility.yul\":20712:20730   */\n      add\n        /* \"#utility.yul\":20704:20730   */\n      swap1\n      pop\n        /* \"#utility.yul\":20776:20785   */\n      dup2\n        /* \"#utility.yul\":20770:20774   */\n      dup2\n        /* \"#utility.yul\":20766:20786   */\n      sub\n        /* \"#utility.yul\":20762:20763   */\n      0x00\n        /* \"#utility.yul\":20751:20760   */\n      dup4\n        /* \"#utility.yul\":20747:20764   */\n      add\n        /* \"#utility.yul\":20740:20787   */\n      mstore\n        /* \"#utility.yul\":20804:20935   */\n      tag_462\n        /* \"#utility.yul\":20930:20934   */\n      dup2\n        /* \"#utility.yul\":20804:20935   */\n      tag_399\n      jump\t// in\n    tag_462:\n        /* \"#utility.yul\":20796:20935   */\n      swap1\n      pop\n        /* \"#utility.yul\":20523:20942   */\n      swap2\n      swap1\n      pop\n      jump\t// out\n        /* \"#utility.yul\":20948:21367   */\n    tag_165:\n        /* \"#utility.yul\":21114:21118   */\n      0x00\n        /* \"#utility.yul\":21152:21154   */\n      0x20\n        /* \"#utility.yul\":21141:21150   */\n      dup3\n        /* \"#utility.yul\":21137:21155   */\n      add\n        /* \"#utility.yul\":21129:21155   */\n      swap1\n      pop\n        /* \"#utility.yul\":21201:21210   */\n      dup2\n        /* \"#utility.yul\":21195:21199   */\n      dup2\n        /* \"#utility.yul\":21191:21211   */\n      sub\n        /* \"#utility.yul\":21187:21188   */\n      0x00\n        /* \"#utility.yul\":21176:21185   */\n      dup4\n        /* \"#utility.yul\":21172:21189   */\n      add\n        /* \"#utility.yul\":21165:21212   */\n      mstore\n        /* \"#utility.yul\":21229:21360   */\n      tag_464\n        /* \"#utility.yul\":21355:21359   */\n      dup2\n        /* \"#utility.yul\":21229:21360   */\n      tag_404\n      jump\t// in\n    tag_464:\n        /* \"#utility.yul\":21221:21360   */\n      swap1\n      pop\n        /* \"#utility.yul\":20948:21367   */\n      swap2\n      swap1\n      pop\n      jump\t// out\n        /* \"#utility.yul\":21373:21595   */\n    tag_37:\n        /* \"#utility.yul\":21466:21470   */\n      0x00\n        /* \"#utility.yul\":21504:21506   */\n      0x20\n        /* \"#utility.yul\":21493:21502   */\n      dup3\n        /* \"#utility.yul\":21489:21507   */\n      add\n        /* \"#utility.yul\":21481:21507   */\n      swap1\n      pop\n        /* \"#utility.yul\":21517:21588   */\n      tag_466\n        /* \"#utility.yul\":21585:21586   */\n      0x00\n        /* \"#utility.yul\":21574:21583   */\n      dup4\n        /* \"#utility.yul\":21570:21587   */\n      add\n        /* \"#utility.yul\":21561:21567   */\n      dup5\n        /* \"#utility.yul\":21517:21588   */\n      tag_409\n      jump\t// in\n    tag_466:\n        /* \"#utility.yul\":21373:21595   */\n      swap3\n      swap2\n      pop\n      pop\n      jump\t// out\n        /* \"#utility.yul\":21601:22043   */\n    tag_83:\n        /* \"#utility.yul\":21750:21754   */\n      0x00\n        /* \"#utility.yul\":21788:21790   */\n      0x60\n        /* \"#utility.yul\":21777:21786   */\n      dup3\n        /* \"#utility.yul\":21773:21791   */\n      add\n        /* \"#utility.yul\":21765:21791   */\n      swap1\n      pop\n        /* \"#utility.yul\":21801:21872   */\n      tag_468\n        /* \"#utility.yul\":21869:21870   */\n      0x00\n        /* \"#utility.yul\":21858:21867   */\n      dup4\n        /* \"#utility.yul\":21854:21871   */\n      add\n        /* \"#utility.yul\":21845:21851   */\n      dup7\n        /* \"#utility.yul\":21801:21872   */\n      tag_409\n      jump\t// in\n    tag_468:\n        /* \"#utility.yul\":21882:21954   */\n      tag_469\n        /* \"#utility.yul\":21950:21952   */\n      0x20\n        /* \"#utility.yul\":21939:21948   */\n      dup4\n        /* \"#utility.yul\":21935:21953   */\n      add\n        /* \"#utility.yul\":21926:21932   */\n      dup6\n        /* \"#utility.yul\":21882:21954   */\n      tag_334\n      jump\t// in\n    tag_469:\n        /* \"#utility.yul\":21964:22036   */\n      tag_470\n        /* \"#utility.yul\":22032:22034   */\n      0x40\n        /* \"#utility.yul\":22021:22030   */\n      dup4\n        /* \"#utility.yul\":22017:22035   */\n      add\n        /* \"#utility.yul\":22008:22014   */\n      dup5\n        /* \"#utility.yul\":21964:22036   */\n      tag_409\n      jump\t// in\n    tag_470:\n        /* \"#utility.yul\":21601:22043   */\n      swap5\n      swap4\n      pop\n      pop\n      pop\n      pop\n      jump\t// out\n        /* \"#utility.yul\":22049:22178   */\n    tag_211:\n        /* \"#utility.yul\":22083:22089   */\n      0x00\n        /* \"#utility.yul\":22110:22130   */\n      tag_472\n      tag_473\n      jump\t// in\n    tag_472:\n        /* \"#utility.yul\":22100:22130   */\n      swap1\n      pop\n        /* \"#utility.yul\":22139:22172   */\n      tag_474\n        /* \"#utility.yul\":22167:22171   */\n      dup3\n        /* \"#utility.yul\":22159:22165   */\n      dup3\n        /* \"#utility.yul\":22139:22172   */\n      tag_475\n      jump\t// in\n    tag_474:\n        /* \"#utility.yul\":22049:22178   */\n      swap2\n      swap1\n      pop\n      jump\t// out\n        /* \"#utility.yul\":22184:22259   */\n    tag_473:\n        /* \"#utility.yul\":22217:22223   */\n      0x00\n        /* \"#utility.yul\":22250:22252   */\n      0x40\n        /* \"#utility.yul\":22244:22253   */\n      mload\n        /* \"#utility.yul\":22234:22253   */\n      swap1\n      pop\n        /* \"#utility.yul\":22184:22259   */\n      swap1\n      jump\t// out\n        /* \"#utility.yul\":22265:22601   */\n    tag_210:\n        /* \"#utility.yul\":22367:22371   */\n      0x00\n        /* \"#utility.yul\":22457:22475   */\n      0xffffffffffffffff\n        /* \"#utility.yul\":22449:22455   */\n      dup3\n        /* \"#utility.yul\":22446:22476   */\n      gt\n        /* \"#utility.yul\":22443:22499   */\n      iszero\n      tag_478\n      jumpi\n        /* \"#utility.yul\":22479:22497   */\n      tag_479\n      tag_480\n      jump\t// in\n    tag_479:\n        /* \"#utility.yul\":22443:22499   */\n    tag_478:\n        /* \"#utility.yul\":22529:22533   */\n      0x20\n        /* \"#utility.yul\":22521:22527   */\n      dup3\n        /* \"#utility.yul\":22517:22534   */\n      mul\n        /* \"#utility.yul\":22509:22534   */\n      swap1\n      pop\n        /* \"#utility.yul\":22589:22593   */\n      0x20\n        /* \"#utility.yul\":22583:22587   */\n      dup2\n        /* \"#utility.yul\":22579:22594   */\n      add\n        /* \"#utility.yul\":22571:22594   */\n      swap1\n      pop\n        /* \"#utility.yul\":22265:22601   */\n      swap2\n      swap1\n      pop\n      jump\t// out\n        /* \"#utility.yul\":22607:22918   */\n    tag_227:\n        /* \"#utility.yul\":22684:22688   */\n      0x00\n        /* \"#utility.yul\":22774:22792   */\n      0xffffffffffffffff\n        /* \"#utility.yul\":22766:22772   */\n      dup3\n        /* \"#utility.yul\":22763:22793   */\n      gt\n        /* \"#utility.yul\":22760:22816   */\n      iszero\n      tag_482\n      jumpi\n        /* \"#utility.yul\":22796:22814   */\n      tag_483\n      tag_480\n      jump\t// in\n    tag_483:\n        /* \"#utility.yul\":22760:22816   */\n    tag_482:\n        /* \"#utility.yul\":22846:22850   */\n      0x20\n        /* \"#utility.yul\":22838:22844   */\n      dup3\n        /* \"#utility.yul\":22834:22851   */\n      mul\n        /* \"#utility.yul\":22826:22851   */\n      swap1\n      pop\n        /* \"#utility.yul\":22906:22910   */\n      0x20\n        /* \"#utility.yul\":22900:22904   */\n      dup2\n        /* \"#utility.yul\":22896:22911   */\n      add\n        /* \"#utility.yul\":22888:22911   */\n      swap1\n      pop\n        /* \"#utility.yul\":22607:22918   */\n      swap2\n      swap1\n      pop\n      jump\t// out\n        /* \"#utility.yul\":22924:23235   */\n    tag_239:\n        /* \"#utility.yul\":23001:23005   */\n      0x00\n        /* \"#utility.yul\":23091:23109   */\n      0xffffffffffffffff\n        /* \"#utility.yul\":23083:23089   */\n      dup3\n        /* \"#utility.yul\":23080:23110   */\n      gt\n        /* \"#utility.yul\":23077:23133   */\n      iszero\n      tag_485\n      jumpi\n        /* \"#utility.yul\":23113:23131   */\n      tag_486\n      tag_480\n      jump\t// in\n    tag_486:\n        /* \"#utility.yul\":23077:23133   */\n    tag_485:\n        /* \"#utility.yul\":23163:23167   */\n      0x20\n        /* \"#utility.yul\":23155:23161   */\n      dup3\n        /* \"#utility.yul\":23151:23168   */\n      mul\n        /* \"#utility.yul\":23143:23168   */\n      swap1\n      pop\n        /* \"#utility.yul\":23223:23227   */\n      0x20\n        /* \"#utility.yul\":23217:23221   */\n      dup2\n        /* \"#utility.yul\":23213:23228   */\n      add\n        /* \"#utility.yul\":23205:23228   */\n      swap1\n      pop\n        /* \"#utility.yul\":22924:23235   */\n      swap2\n      swap1\n      pop\n      jump\t// out\n        /* \"#utility.yul\":23241:23339   */\n    tag_346:\n        /* \"#utility.yul\":23292:23298   */\n      0x00\n        /* \"#utility.yul\":23326:23331   */\n      dup2\n        /* \"#utility.yul\":23320:23332   */\n      mload\n        /* \"#utility.yul\":23310:23332   */\n      swap1\n      pop\n        /* \"#utility.yul\":23241:23339   */\n      swap2\n      swap1\n      pop\n      jump\t// out\n        /* \"#utility.yul\":23345:23444   */\n    tag_358:\n        /* \"#utility.yul\":23397:23403   */\n      0x00\n        /* \"#utility.yul\":23431:23436   */\n      dup2\n        /* \"#utility.yul\":23425:23437   */\n      mload\n        /* \"#utility.yul\":23415:23437   */\n      swap1\n      pop\n        /* \"#utility.yul\":23345:23444   */\n      swap2\n      swap1\n      pop\n      jump\t// out\n        /* \"#utility.yul\":23450:23597   */\n    tag_348:\n        /* \"#utility.yul\":23551:23562   */\n      0x00\n        /* \"#utility.yul\":23588:23591   */\n      dup2\n        /* \"#utility.yul\":23573:23591   */\n      swap1\n      pop\n        /* \"#utility.yul\":23450:23597   */\n      swap3\n      swap2\n      pop\n      pop\n      jump\t// out\n        /* \"#utility.yul\":23603:23772   */\n    tag_360:\n        /* \"#utility.yul\":23687:23698   */\n      0x00\n        /* \"#utility.yul\":23721:23727   */\n      dup3\n        /* \"#utility.yul\":23716:23719   */\n      dup3\n        /* \"#utility.yul\":23709:23728   */\n      mstore\n        /* \"#utility.yul\":23761:23765   */\n      0x20\n        /* \"#utility.yul\":23756:23759   */\n      dup3\n        /* \"#utility.yul\":23752:23766   */\n      add\n        /* \"#utility.yul\":23737:23766   */\n      swap1\n      pop\n        /* \"#utility.yul\":23603:23772   */\n      swap3\n      swap2\n      pop\n      pop\n      jump\t// out\n        /* \"#utility.yul\":23778:24083   */\n    tag_144:\n        /* \"#utility.yul\":23818:23821   */\n      0x00\n        /* \"#utility.yul\":23837:23857   */\n      tag_492\n        /* \"#utility.yul\":23855:23856   */\n      dup3\n        /* \"#utility.yul\":23837:23857   */\n      tag_412\n      jump\t// in\n    tag_492:\n        /* \"#utility.yul\":23832:23857   */\n      swap2\n      pop\n        /* \"#utility.yul\":23871:23891   */\n      tag_493\n        /* \"#utility.yul\":23889:23890   */\n      dup4\n        /* \"#utility.yul\":23871:23891   */\n      tag_412\n      jump\t// in\n    tag_493:\n        /* \"#utility.yul\":23866:23891   */\n      swap3\n      pop\n        /* \"#utility.yul\":24025:24026   */\n      dup3\n        /* \"#utility.yul\":23957:24023   */\n      0xffffffffffffffffffffffffffffffffffffffffffffffffffffffffffffffff\n        /* \"#utility.yul\":23953:24027   */\n      sub\n        /* \"#utility.yul\":23950:23951   */\n      dup3\n        /* \"#utility.yul\":23947:24028   */\n      gt\n        /* \"#utility.yul\":23944:24051   */\n      iszero\n      tag_494\n      jumpi\n        /* \"#utility.yul\":24031:24049   */\n      tag_495\n      tag_496\n      jump\t// in\n    tag_495:\n        /* \"#utility.yul\":23944:24051   */\n    tag_494:\n        /* \"#utility.yul\":24075:24076   */\n      dup3\n        /* \"#utility.yul\":24072:24073   */\n      dup3\n        /* \"#utility.yul\":24068:24077   */\n      add\n        /* \"#utility.yul\":24061:24077   */\n      swap1\n      pop\n        /* \"#utility.yul\":23778:24083   */\n      swap3\n      swap2\n      pop\n      pop\n      jump\t// out\n        /* \"#utility.yul\":24089:24185   */\n    tag_324:\n        /* \"#utility.yul\":24126:24133   */\n      0x00\n        /* \"#utility.yul\":24155:24179   */\n      tag_498\n        /* \"#utility.yul\":24173:24178   */\n      dup3\n        /* \"#utility.yul\":24155:24179   */\n      tag_499\n      jump\t// in\n    tag_498:\n        /* \"#utility.yul\":24144:24179   */\n      swap1\n      pop\n        /* \"#utility.yul\":24089:24185   */\n      swap2\n      swap1\n      pop\n      jump\t// out\n        /* \"#utility.yul\":24191:24281   */\n    tag_333:\n        /* \"#utility.yul\":24225:24232   */\n      0x00\n        /* \"#utility.yul\":24268:24273   */\n      dup2\n        /* \"#utility.yul\":24261:24274   */\n      iszero\n        /* \"#utility.yul\":24254:24275   */\n      iszero\n        /* \"#utility.yul\":24243:24275   */\n      swap1\n      pop\n        /* \"#utility.yul\":24191:24281   */\n      swap2\n      swap1\n      pop\n      jump\t// out\n        /* \"#utility.yul\":24287:24364   */\n    tag_337:\n        /* \"#utility.yul\":24324:24331   */\n      0x00\n        /* \"#utility.yul\":24353:24358   */\n      dup2\n        /* \"#utility.yul\":24342:24358   */\n      swap1\n      pop\n        /* \"#utility.yul\":24287:24364   */\n      swap2\n      swap1\n      pop\n      jump\t// out\n        /* \"#utility.yul\":24370:24496   */\n    tag_499:\n        /* \"#utility.yul\":24407:24414   */\n      0x00\n        /* \"#utility.yul\":24447:24489   */\n      0xffffffffffffffffffffffffffffffffffffffff\n        /* \"#utility.yul\":24440:24445   */\n      dup3\n        /* \"#utility.yul\":24436:24490   */\n      and\n        /* \"#utility.yul\":24425:24490   */\n      swap1\n      pop\n        /* \"#utility.yul\":24370:24496   */\n      swap2\n      swap1\n      pop\n      jump\t// out\n        /* \"#utility.yul\":24502:24579   */\n    tag_412:\n        /* \"#utility.yul\":24539:24546   */\n      0x00\n        /* \"#utility.yul\":24568:24573   */\n      dup2\n        /* \"#utility.yul\":24557:24573   */\n      swap1\n      pop\n        /* \"#utility.yul\":24502:24579   */\n      swap2\n      swap1\n      pop\n      jump\t// out\n        /* \"#utility.yul\":24585:24725   */\n    tag_354:\n        /* \"#utility.yul\":24649:24658   */\n      0x00\n        /* \"#utility.yul\":24682:24719   */\n      tag_505\n        /* \"#utility.yul\":24713:24718   */\n      dup3\n        /* \"#utility.yul\":24682:24719   */\n      tag_506\n      jump\t// in\n    tag_505:\n        /* \"#utility.yul\":24669:24719   */\n      swap1\n      pop\n        /* \"#utility.yul\":24585:24725   */\n      swap2\n      swap1\n      pop\n      jump\t// out\n        /* \"#utility.yul\":24731:24857   */\n    tag_506:\n        /* \"#utility.yul\":24781:24790   */\n      0x00\n        /* \"#utility.yul\":24814:24851   */\n      tag_508\n        /* \"#utility.yul\":24845:24850   */\n      dup3\n        /* \"#utility.yul\":24814:24851   */\n      tag_509\n      jump\t// in\n    tag_508:\n        /* \"#utility.yul\":24801:24851   */\n      swap1\n      pop\n        /* \"#utility.yul\":24731:24857   */\n      swap2\n      swap1\n      pop\n      jump\t// out\n        /* \"#utility.yul\":24863:24976   */\n    tag_509:\n        /* \"#utility.yul\":24913:24922   */\n      0x00\n        /* \"#utility.yul\":24946:24970   */\n      tag_511\n        /* \"#utility.yul\":24964:24969   */\n      dup3\n        /* \"#utility.yul\":24946:24970   */\n      tag_499\n      jump\t// in\n    tag_511:\n        /* \"#utility.yul\":24933:24970   */\n      swap1\n      pop\n        /* \"#utility.yul\":24863:24976   */\n      swap2\n      swap1\n      pop\n      jump\t// out\n        /* \"#utility.yul\":24982:25289   */\n    tag_350:\n        /* \"#utility.yul\":25050:25051   */\n      0x00\n        /* \"#utility.yul\":25060:25173   */\n    tag_513:\n        /* \"#utility.yul\":25074:25080   */\n      dup4\n        /* \"#utility.yul\":25071:25072   */\n      dup2\n        /* \"#utility.yul\":25068:25081   */\n      lt\n        /* \"#utility.yul\":25060:25173   */\n      iszero\n      tag_515\n      jumpi\n        /* \"#utility.yul\":25159:25160   */\n      dup1\n        /* \"#utility.yul\":25154:25157   */\n      dup3\n        /* \"#utility.yul\":25150:25161   */\n      add\n        /* \"#utility.yul\":25144:25162   */\n      mload\n        /* \"#utility.yul\":25140:25141   */\n      dup2\n        /* \"#utility.yul\":25135:25138   */\n      dup5\n        /* \"#utility.yul\":25131:25142   */\n      add\n        /* \"#utility.yul\":25124:25163   */\n      mstore\n        /* \"#utility.yul\":25096:25098   */\n      0x20\n        /* \"#utility.yul\":25093:25094   */\n      dup2\n        /* \"#utility.yul\":25089:25099   */\n      add\n        /* \"#utility.yul\":25084:25099   */\n      swap1\n      pop\n        /* \"#utility.yul\":25060:25173   */\n      jump(tag_513)\n    tag_515:\n        /* \"#utility.yul\":25191:25197   */\n      dup4\n        /* \"#utility.yul\":25188:25189   */\n      dup2\n        /* \"#utility.yul\":25185:25198   */\n      gt\n        /* \"#utility.yul\":25182:25283   */\n      iszero\n      tag_516\n      jumpi\n        /* \"#utility.yul\":25271:25272   */\n      0x00\n        /* \"#utility.yul\":25262:25268   */\n      dup5\n        /* \"#utility.yul\":25257:25260   */\n      dup5\n        /* \"#utility.yul\":25253:25269   */\n      add\n        /* \"#utility.yul\":25246:25273   */\n      mstore\n        /* \"#utility.yul\":25182:25283   */\n    tag_516:\n        /* \"#utility.yul\":25031:25289   */\n      pop\n        /* \"#utility.yul\":24982:25289   */\n      pop\n      pop\n      pop\n      jump\t// out\n        /* \"#utility.yul\":25295:25576   */\n    tag_475:\n        /* \"#utility.yul\":25378:25405   */\n      tag_518\n        /* \"#utility.yul\":25400:25404   */\n      dup3\n        /* \"#utility.yul\":25378:25405   */\n      tag_363\n      jump\t// in\n    tag_518:\n        /* \"#utility.yul\":25370:25376   */\n      dup2\n        /* \"#utility.yul\":25366:25406   */\n      add\n        /* \"#utility.yul\":25508:25514   */\n      dup2\n        /* \"#utility.yul\":25496:25506   */\n      dup2\n        /* \"#utility.yul\":25493:25515   */\n      lt\n        /* \"#utility.yul\":25472:25490   */\n      0xffffffffffffffff\n        /* \"#utility.yul\":25460:25470   */\n      dup3\n        /* \"#utility.yul\":25457:25491   */\n      gt\n        /* \"#utility.yul\":25454:25516   */\n      or\n        /* \"#utility.yul\":25451:25539   */\n      iszero\n      tag_519\n      jumpi\n        /* \"#utility.yul\":25519:25537   */\n      tag_520\n      tag_480\n      jump\t// in\n    tag_520:\n        /* \"#utility.yul\":25451:25539   */\n    tag_519:\n        /* \"#utility.yul\":25559:25569   */\n      dup1\n        /* \"#utility.yul\":25555:25557   */\n      0x40\n        /* \"#utility.yul\":25548:25570   */\n      mstore\n        /* \"#utility.yul\":25338:25576   */\n      pop\n        /* \"#utility.yul\":25295:25576   */\n      pop\n      pop\n      jump\t// out\n        /* \"#utility.yul\":25582:25815   */\n    tag_104:\n        /* \"#utility.yul\":25621:25624   */\n      0x00\n        /* \"#utility.yul\":25644:25668   */\n      tag_522\n        /* \"#utility.yul\":25662:25667   */\n      dup3\n        /* \"#utility.yul\":25644:25668   */\n      tag_412\n      jump\t// in\n    tag_522:\n        /* \"#utility.yul\":25635:25668   */\n      swap2\n      pop\n        /* \"#utility.yul\":25690:25756   */\n      0xffffffffffffffffffffffffffffffffffffffffffffffffffffffffffffffff\n        /* \"#utility.yul\":25683:25688   */\n      dup3\n        /* \"#utility.yul\":25680:25757   */\n      eq\n        /* \"#utility.yul\":25677:25780   */\n      iszero\n      tag_523\n      jumpi\n        /* \"#utility.yul\":25760:25778   */\n      tag_524\n      tag_496\n      jump\t// in\n    tag_524:\n        /* \"#utility.yul\":25677:25780   */\n    tag_523:\n        /* \"#utility.yul\":25807:25808   */\n      0x01\n        /* \"#utility.yul\":25800:25805   */\n      dup3\n        /* \"#utility.yul\":25796:25809   */\n      add\n        /* \"#utility.yul\":25789:25809   */\n      swap1\n      pop\n        /* \"#utility.yul\":25582:25815   */\n      swap2\n      swap1\n      pop\n      jump\t// out\n        /* \"#utility.yul\":25821:25921   */\n    tag_329:\n        /* \"#utility.yul\":25860:25867   */\n      0x00\n        /* \"#utility.yul\":25889:25915   */\n      tag_526\n        /* \"#utility.yul\":25909:25914   */\n      dup3\n        /* \"#utility.yul\":25889:25915   */\n      tag_527\n      jump\t// in\n    tag_526:\n        /* \"#utility.yul\":25878:25915   */\n      swap1\n      pop\n        /* \"#utility.yul\":25821:25921   */\n      swap2\n      swap1\n      pop\n      jump\t// out\n        /* \"#utility.yul\":25927:26006   */\n    tag_342:\n        /* \"#utility.yul\":25966:25973   */\n      0x00\n        /* \"#utility.yul\":25995:26000   */\n      dup2\n        /* \"#utility.yul\":25984:26000   */\n      swap1\n      pop\n        /* \"#utility.yul\":25927:26006   */\n      swap2\n      swap1\n      pop\n      jump\t// out\n        /* \"#utility.yul\":26012:26106   */\n    tag_527:\n        /* \"#utility.yul\":26051:26058   */\n      0x00\n        /* \"#utility.yul\":26080:26100   */\n      tag_530\n        /* \"#utility.yul\":26094:26099   */\n      dup3\n        /* \"#utility.yul\":26080:26100   */\n      tag_531\n      jump\t// in\n    tag_530:\n        /* \"#utility.yul\":26069:26100   */\n      swap1\n      pop\n        /* \"#utility.yul\":26012:26106   */\n      swap2\n      swap1\n      pop\n      jump\t// out\n        /* \"#utility.yul\":26112:26191   */\n    tag_417:\n        /* \"#utility.yul\":26151:26158   */\n      0x00\n        /* \"#utility.yul\":26180:26185   */\n      dup2\n        /* \"#utility.yul\":26169:26185   */\n      swap1\n      pop\n        /* \"#utility.yul\":26112:26191   */\n      swap2\n      swap1\n      pop\n      jump\t// out\n        /* \"#utility.yul\":26197:26377   */\n    tag_496:\n        /* \"#utility.yul\":26245:26322   */\n      0x4e487b7100000000000000000000000000000000000000000000000000000000\n        /* \"#utility.yul\":26242:26243   */\n      0x00\n        /* \"#utility.yul\":26235:26323   */\n      mstore\n        /* \"#utility.yul\":26342:26346   */\n      0x11\n        /* \"#utility.yul\":26339:26340   */\n      0x04\n        /* \"#utility.yul\":26332:26347   */\n      mstore\n        /* \"#utility.yul\":26366:26370   */\n      0x24\n        /* \"#utility.yul\":26363:26364   */\n      0x00\n        /* \"#utility.yul\":26356:26371   */\n      revert\n        /* \"#utility.yul\":26383:26563   */\n    tag_95:\n        /* \"#utility.yul\":26431:26508   */\n      0x4e487b7100000000000000000000000000000000000000000000000000000000\n        /* \"#utility.yul\":26428:26429   */\n      0x00\n        /* \"#utility.yul\":26421:26509   */\n      mstore\n        /* \"#utility.yul\":26528:26532   */\n      0x32\n        /* \"#utility.yul\":26525:26526   */\n      0x04\n        /* \"#utility.yul\":26518:26533   */\n      mstore\n        /* \"#utility.yul\":26552:26556   */\n      0x24\n        /* \"#utility.yul\":26549:26550   */\n      0x00\n        /* \"#utility.yul\":26542:26557   */\n      revert\n        /* \"#utility.yul\":26569:26749   */\n    tag_480:\n        /* \"#utility.yul\":26617:26694   */\n      0x4e487b7100000000000000000000000000000000000000000000000000000000\n        /* \"#utility.yul\":26614:26615   */\n      0x00\n        /* \"#utility.yul\":26607:26695   */\n      mstore\n        /* \"#utility.yul\":26714:26718   */\n      0x41\n        /* \"#utility.yul\":26711:26712   */\n      0x04\n        /* \"#utility.yul\":26704:26719   */\n      mstore\n        /* \"#utility.yul\":26738:26742   */\n      0x24\n        /* \"#utility.yul\":26735:26736   */\n      0x00\n        /* \"#utility.yul\":26728:26743   */\n      revert\n        /* \"#utility.yul\":26755:26872   */\n    tag_220:\n        /* \"#utility.yul\":26864:26865   */\n      0x00\n        /* \"#utility.yul\":26861:26862   */\n      dup1\n        /* \"#utility.yul\":26854:26866   */\n      revert\n        /* \"#utility.yul\":26878:26995   */\n    tag_214:\n        /* \"#utility.yul\":26987:26988   */\n      0x00\n        /* \"#utility.yul\":26984:26985   */\n      dup1\n        /* \"#utility.yul\":26977:26989   */\n      revert\n        /* \"#utility.yul\":27001:27118   */\n    tag_286:\n        /* \"#utility.yul\":27110:27111   */\n      0x00\n        /* \"#utility.yul\":27107:27108   */\n      dup1\n        /* \"#utility.yul\":27100:27112   */\n      revert\n        /* \"#utility.yul\":27124:27241   */\n    tag_278:\n        /* \"#utility.yul\":27233:27234   */\n      0x00\n        /* \"#utility.yul\":27230:27231   */\n      dup1\n        /* \"#utility.yul\":27223:27235   */\n      revert\n        /* \"#utility.yul\":27247:27349   */\n    tag_363:\n        /* \"#utility.yul\":27288:27294   */\n      0x00\n        /* \"#utility.yul\":27339:27341   */\n      0x1f\n        /* \"#utility.yul\":27335:27342   */\n      not\n        /* \"#utility.yul\":27330:27332   */\n      0x1f\n        /* \"#utility.yul\":27323:27328   */\n      dup4\n        /* \"#utility.yul\":27319:27333   */\n      add\n        /* \"#utility.yul\":27315:27343   */\n      and\n        /* \"#utility.yul\":27305:27343   */\n      swap1\n      pop\n        /* \"#utility.yul\":27247:27349   */\n      swap2\n      swap1\n      pop\n      jump\t// out\n        /* \"#utility.yul\":27355:27449   */\n    tag_531:\n        /* \"#utility.yul\":27388:27396   */\n      0x00\n        /* \"#utility.yul\":27436:27441   */\n      dup2\n        /* \"#utility.yul\":27432:27434   */\n      0x60\n        /* \"#utility.yul\":27428:27442   */\n      shl\n        /* \"#utility.yul\":27407:27442   */\n      swap1\n      pop\n        /* \"#utility.yul\":27355:27449   */\n      swap2\n      swap1\n      pop\n      jump\t// out\n        /* \"#utility.yul\":27455:27633   */\n    tag_368:\n        /* \"#utility.yul\":27595:27625   */\n      0x5765656b2063616e6e6f7420626520696e207468652066757475726500000000\n        /* \"#utility.yul\":27591:27592   */\n      0x00\n        /* \"#utility.yul\":27583:27589   */\n      dup3\n        /* \"#utility.yul\":27579:27593   */\n      add\n        /* \"#utility.yul\":27572:27626   */\n      mstore\n        /* \"#utility.yul\":27455:27633   */\n      pop\n      jump\t// out\n        /* \"#utility.yul\":27639:27811   */\n    tag_373:\n        /* \"#utility.yul\":27779:27803   */\n      0x496e636f7272656374206d65726b6c652070726f6f6600000000000000000000\n        /* \"#utility.yul\":27775:27776   */\n      0x00\n        /* \"#utility.yul\":27767:27773   */\n      dup3\n        /* \"#utility.yul\":27763:27777   */\n      add\n        /* \"#utility.yul\":27756:27804   */\n      mstore\n        /* \"#utility.yul\":27639:27811   */\n      pop\n      jump\t// out\n        /* \"#utility.yul\":27817:27994   */\n    tag_378:\n        /* \"#utility.yul\":27957:27986   */\n      0x536166654d6174683a206164646974696f6e206f766572666c6f770000000000\n        /* \"#utility.yul\":27953:27954   */\n      0x00\n        /* \"#utility.yul\":27945:27951   */\n      dup3\n        /* \"#utility.yul\":27941:27955   */\n      add\n        /* \"#utility.yul\":27934:27987   */\n      mstore\n        /* \"#utility.yul\":27817:27994   */\n      pop\n      jump\t// out\n        /* \"#utility.yul\":28000:28225   */\n    tag_383:\n        /* \"#utility.yul\":28140:28174   */\n      0x416464726573733a20696e73756666696369656e742062616c616e636520666f\n        /* \"#utility.yul\":28136:28137   */\n      0x00\n        /* \"#utility.yul\":28128:28134   */\n      dup3\n        /* \"#utility.yul\":28124:28138   */\n      add\n        /* \"#utility.yul\":28117:28175   */\n      mstore\n        /* \"#utility.yul\":28209:28217   */\n      0x722063616c6c0000000000000000000000000000000000000000000000000000\n        /* \"#utility.yul\":28204:28206   */\n      0x20\n        /* \"#utility.yul\":28196:28202   */\n      dup3\n        /* \"#utility.yul\":28192:28207   */\n      add\n        /* \"#utility.yul\":28185:28218   */\n      mstore\n        /* \"#utility.yul\":28000:28225   */\n      pop\n      jump\t// out\n        /* \"#utility.yul\":28231:28479   */\n    tag_388:\n        /* \"#utility.yul\":28371:28405   */\n      0x4e6f2062616c616e636520776f756c64206265207472616e7366657272656420\n        /* \"#utility.yul\":28367:28368   */\n      0x00\n        /* \"#utility.yul\":28359:28365   */\n      dup3\n        /* \"#utility.yul\":28355:28369   */\n      add\n        /* \"#utility.yul\":28348:28406   */\n      mstore\n        /* \"#utility.yul\":28440:28471   */\n      0x2d206e6f7420676f696e6720746f20776173746520796f757220676173000000\n        /* \"#utility.yul\":28435:28437   */\n      0x20\n        /* \"#utility.yul\":28427:28433   */\n      dup3\n        /* \"#utility.yul\":28423:28438   */\n      add\n        /* \"#utility.yul\":28416:28472   */\n      mstore\n        /* \"#utility.yul\":28231:28479   */\n      pop\n      jump\t// out\n        /* \"#utility.yul\":28485:28657   */\n    tag_393:\n        /* \"#utility.yul\":28625:28649   */\n      0x4c502068617320616c726561647920636c61696d656400000000000000000000\n        /* \"#utility.yul\":28621:28622   */\n      0x00\n        /* \"#utility.yul\":28613:28619   */\n      dup3\n        /* \"#utility.yul\":28609:28623   */\n      add\n        /* \"#utility.yul\":28602:28650   */\n      mstore\n        /* \"#utility.yul\":28485:28657   */\n      pop\n      jump\t// out\n        /* \"#utility.yul\":28663:28842   */\n    tag_398:\n        /* \"#utility.yul\":28803:28834   */\n      0x416464726573733a2063616c6c20746f206e6f6e2d636f6e7472616374000000\n        /* \"#utility.yul\":28799:28800   */\n      0x00\n        /* \"#utility.yul\":28791:28797   */\n      dup3\n        /* \"#utility.yul\":28787:28801   */\n      add\n        /* \"#utility.yul\":28780:28835   */\n      mstore\n        /* \"#utility.yul\":28663:28842   */\n      pop\n      jump\t// out\n        /* \"#utility.yul\":28848:29016   */\n    tag_403:\n        /* \"#utility.yul\":28988:29008   */\n      0x4d69736d61746368696e6720696e707574730000000000000000000000000000\n        /* \"#utility.yul\":28984:28985   */\n      0x00\n        /* \"#utility.yul\":28976:28982   */\n      dup3\n        /* \"#utility.yul\":28972:28986   */\n      add\n        /* \"#utility.yul\":28965:29009   */\n      mstore\n        /* \"#utility.yul\":28848:29016   */\n      pop\n      jump\t// out\n        /* \"#utility.yul\":29022:29251   */\n    tag_408:\n        /* \"#utility.yul\":29162:29196   */\n      0x5361666545524332303a204552433230206f7065726174696f6e20646964206e\n        /* \"#utility.yul\":29158:29159   */\n      0x00\n        /* \"#utility.yul\":29150:29156   */\n      dup3\n        /* \"#utility.yul\":29146:29160   */\n      add\n        /* \"#utility.yul\":29139:29197   */\n      mstore\n        /* \"#utility.yul\":29231:29243   */\n      0x6f74207375636365656400000000000000000000000000000000000000000000\n        /* \"#utility.yul\":29226:29228   */\n      0x20\n        /* \"#utility.yul\":29218:29224   */\n      dup3\n        /* \"#utility.yul\":29214:29229   */\n      add\n        /* \"#utility.yul\":29207:29244   */\n      mstore\n        /* \"#utility.yul\":29022:29251   */\n      pop\n      jump\t// out\n        /* \"#utility.yul\":29257:29379   */\n    tag_250:\n        /* \"#utility.yul\":29330:29354   */\n      tag_552\n        /* \"#utility.yul\":29348:29353   */\n      dup2\n        /* \"#utility.yul\":29330:29354   */\n      tag_324\n      jump\t// in\n    tag_552:\n        /* \"#utility.yul\":29323:29328   */\n      dup2\n        /* \"#utility.yul\":29320:29355   */\n      eq\n        /* \"#utility.yul\":29310:29373   */\n      tag_553\n      jumpi\n        /* \"#utility.yul\":29369:29370   */\n      0x00\n        /* \"#utility.yul\":29366:29367   */\n      dup1\n        /* \"#utility.yul\":29359:29371   */\n      revert\n        /* \"#utility.yul\":29310:29373   */\n    tag_553:\n        /* \"#utility.yul\":29257:29379   */\n      pop\n      jump\t// out\n        /* \"#utility.yul\":29385:29501   */\n    tag_268:\n        /* \"#utility.yul\":29455:29476   */\n      tag_555\n        /* \"#utility.yul\":29470:29475   */\n      dup2\n        /* \"#utility.yul\":29455:29476   */\n      tag_333\n      jump\t// in\n    tag_555:\n        /* \"#utility.yul\":29448:29453   */\n      dup2\n        /* \"#utility.yul\":29445:29477   */\n      eq\n        /* \"#utility.yul\":29435:29495   */\n      tag_556\n      jumpi\n        /* \"#utility.yul\":29491:29492   */\n      0x00\n        /* \"#utility.yul\":29488:29489   */\n      dup1\n        /* \"#utility.yul\":29481:29493   */\n      revert\n        /* \"#utility.yul\":29435:29495   */\n    tag_556:\n        /* \"#utility.yul\":29385:29501   */\n      pop\n      jump\t// out\n        /* \"#utility.yul\":29507:29629   */\n    tag_271:\n        /* \"#utility.yul\":29580:29604   */\n      tag_558\n        /* \"#utility.yul\":29598:29603   */\n      dup2\n        /* \"#utility.yul\":29580:29604   */\n      tag_337\n      jump\t// in\n    tag_558:\n        /* \"#utility.yul\":29573:29578   */\n      dup2\n        /* \"#utility.yul\":29570:29605   */\n      eq\n        /* \"#utility.yul\":29560:29623   */\n      tag_559\n      jumpi\n        /* \"#utility.yul\":29619:29620   */\n      0x00\n        /* \"#utility.yul\":29616:29617   */\n      dup1\n        /* \"#utility.yul\":29609:29621   */\n      revert\n        /* \"#utility.yul\":29560:29623   */\n    tag_559:\n        /* \"#utility.yul\":29507:29629   */\n      pop\n      jump\t// out\n        /* \"#utility.yul\":29635:29757   */\n    tag_274:\n        /* \"#utility.yul\":29708:29732   */\n      tag_561\n        /* \"#utility.yul\":29726:29731   */\n      dup2\n        /* \"#utility.yul\":29708:29732   */\n      tag_412\n      jump\t// in\n    tag_561:\n        /* \"#utility.yul\":29701:29706   */\n      dup2\n        /* \"#utility.yul\":29698:29733   */\n      eq\n        /* \"#utility.yul\":29688:29751   */\n      tag_562\n      jumpi\n        /* \"#utility.yul\":29747:29748   */\n      0x00\n        /* \"#utility.yul\":29744:29745   */\n      dup1\n        /* \"#utility.yul\":29737:29749   */\n      revert\n        /* \"#utility.yul\":29688:29751   */\n    tag_562:\n        /* \"#utility.yul\":29635:29757   */\n      pop\n      jump\t// out\n\n    auxdata: 0xa264697066735822122086f5569139ce0e66da202819fd7a4d110a9af52c205d4cd66520bcd02007da3464736f6c63430008070033\n}\n",
				"bytecode": {
					"linkReferences": {},
					"object": "60806040523480156200001157600080fd5b5060405162002032380380620020328339818101604052810190620000379190620000d6565b336000806101000a81548173ffffffffffffffffffffffffffffffffffffffff021916908373ffffffffffffffffffffffffffffffffffffffff16021790555080600360006101000a81548173ffffffffffffffffffffffffffffffffffffffff021916908373ffffffffffffffffffffffffffffffffffffffff160217905550506200016f565b600081519050620000d08162000155565b92915050565b600060208284031215620000ef57620000ee62000150565b5b6000620000ff84828501620000bf565b91505092915050565b6000620001158262000130565b9050919050565b6000620001298262000108565b9050919050565b600073ffffffffffffffffffffffffffffffffffffffff82169050919050565b600080fd5b62000160816200011c565b81146200016c57600080fd5b50565b611eb3806200017f6000396000f3fe608060405234801561001057600080fd5b50600436106100b45760003560e01c8063ba59371411610071578063ba593714146101b3578063d5efd20a146101cf578063eb0d07f5146101eb578063ebf049171461021b578063f2fde38b14610239578063fc0c546a14610255576100b4565b8063120aa877146100b9578063275bf03b146100e957806358b4e4b41461011957806365ef53b11461013557806371c5ecb1146101655780638da5cb5b14610195575b600080fd5b6100d360048036038101906100ce9190611366565b610273565b6040516100e091906116fc565b60405180910390f35b61010360048036038101906100fe9190611339565b6102a2565b604051610110919061164a565b60405180910390f35b610133600480360381019061012e9190611249565b6102e1565b005b61014f600480360381019061014a91906112f9565b6102fd565b60405161015c919061188f565b60405180910390f35b61017f600480360381019061017a9190611339565b610421565b60405161018c9190611717565b60405180910390f35b61019d610439565b6040516101aa919061164a565b60405180910390f35b6101cd60048036038101906101c8919061118e565b61045d565b005b6101e960048036038101906101e49190611339565b61056d565b005b61020560048036038101906102009190611249565b61061a565b60405161021291906116fc565b60405180910390f35b610223610632565b604051610230919061188f565b60405180910390f35b610253600480360381019061024e9190611161565b610638565b005b61025d610787565b60405161026a9190611732565b60405180910390f35b60056020528160005260406000206020528060005260406000206000915091509054906101000a900460ff1681565b600281815481106102b257600080fd5b906000526020600020016000915054906101000a900473ffffffffffffffffffffffffffffffffffffffff1681565b6102ed848484846107ad565b6102f78483610984565b50505050565b60008060009054906101000a900473ffffffffffffffffffffffffffffffffffffffff1673ffffffffffffffffffffffffffffffffffffffff163373ffffffffffffffffffffffffffffffffffffffff161461035857600080fd5b6103a7333084600360009054906101000a900473ffffffffffffffffffffffffffffffffffffffff1673ffffffffffffffffffffffffffffffffffffffff16610a1e909392919063ffffffff16565b60065490508260046000838152602001908152602001600020819055506103da6001600654610aa790919063ffffffff16565b6006819055507f5c8770684b8f82e9ade880fb05ccfb53c969170cd40e9746a3703f241c9023ec818484604051610413939291906118aa565b60405180910390a192915050565b60046020528060005260406000206000915090505481565b60008054906101000a900473ffffffffffffffffffffffffffffffffffffffff1681565b6000835190508251811480156104735750815181145b6104b2576040517f08c379a00000000000000000000000000000000000000000000000000000000081526004016104a99061184f565b60405180910390fd5b6000805b8281101561055a57610518878783815181106104d5576104d4611bae565b5b60200260200101518784815181106104f0576104ef611bae565b5b602002602001015187858151811061050b5761050a611bae565b5b60200260200101516107ad565b61054585828151811061052e5761052d611bae565b5b602002602001015183610aa790919063ffffffff16565b9150808061055290611afe565b9150506104b6565b506105658682610984565b505050505050565b60008054906101000a900473ffffffffffffffffffffffffffffffffffffffff1673ffffffffffffffffffffffffffffffffffffffff163373ffffffffffffffffffffffffffffffffffffffff16146105c557600080fd5b6000801b60046000838152602001908152602001600020819055507fcc071cbd9ae50a4c78d1153b76bd2d46ba8d4c7662842718ec3de1d67a144daf8160405161060f919061188f565b60405180910390a150565b600061062885858585610b05565b9050949350505050565b60065481565b60008054906101000a900473ffffffffffffffffffffffffffffffffffffffff1673ffffffffffffffffffffffffffffffffffffffff163373ffffffffffffffffffffffffffffffffffffffff161461069057600080fd5b600073ffffffffffffffffffffffffffffffffffffffff168173ffffffffffffffffffffffffffffffffffffffff1614156106ca57600080fd5b8073ffffffffffffffffffffffffffffffffffffffff1660008054906101000a900473ffffffffffffffffffffffffffffffffffffffff1673ffffffffffffffffffffffffffffffffffffffff167f8be0079c531659141344cd1fd0a4f28419497f9722a3daafe3b4186f6b6457e060405160405180910390a3806000806101000a81548173ffffffffffffffffffffffffffffffffffffffff021916908373ffffffffffffffffffffffffffffffffffffffff16021790555050565b600360009054906101000a900473ffffffffffffffffffffffffffffffffffffffff1681565b60065483106107f1576040517f08c379a00000000000000000000000000000000000000000000000000000000081526004016107e89061176f565b60405180910390fd5b6005600084815260200190815260200160002060008573ffffffffffffffffffffffffffffffffffffffff1673ffffffffffffffffffffffffffffffffffffffff16815260200190815260200160002060009054906101000a900460ff161561088f576040517f08c379a00000000000000000000000000000000000000000000000000000000081526004016108869061180f565b60405180910390fd5b61089b84848484610b05565b6108da576040517f08c379a00000000000000000000000000000000000000000000000000000000081526004016108d19061178f565b60405180910390fd5b60016005600085815260200190815260200160002060008673ffffffffffffffffffffffffffffffffffffffff1673ffffffffffffffffffffffffffffffffffffffff16815260200190815260200160002060006101000a81548160ff0219169083151502179055507f987d620f307ff6b94d58743cb7a7509f24071586a77759b77c2d4e29f75a2f9a848484604051610976939291906116c5565b60405180910390a150505050565b60008111156109df576109da8282600360009054906101000a900473ffffffffffffffffffffffffffffffffffffffff1673ffffffffffffffffffffffffffffffffffffffff16610b5c9092919063ffffffff16565b610a1a565b6040517f08c379a0000000000000000000000000000000000000000000000000000000008152600401610a11906117ef565b60405180910390fd5b5050565b610aa1846323b872dd60e01b858585604051602401610a3f93929190611665565b604051602081830303815290604052907bffffffffffffffffffffffffffffffffffffffffffffffffffffffff19166020820180517bffffffffffffffffffffffffffffffffffffffffffffffffffffffff8381831617835250505050610be2565b50505050565b6000808284610ab691906119bc565b905083811015610afb576040517f08c379a0000000000000000000000000000000000000000000000000000000008152600401610af2906117af565b60405180910390fd5b8091505092915050565b6000808584604051602001610b1b9291906115db565b604051602081830303815290604052805190602001209050610b5183600460008881526020019081526020016000205483610ca9565b915050949350505050565b610bdd8363a9059cbb60e01b8484604051602401610b7b92919061169c565b604051602081830303815290604052907bffffffffffffffffffffffffffffffffffffffffffffffffffffffff19166020820180517bffffffffffffffffffffffffffffffffffffffffffffffffffffffff8381831617835250505050610be2565b505050565b6000610c44826040518060400160405280602081526020017f5361666545524332303a206c6f772d6c6576656c2063616c6c206661696c65648152508573ffffffffffffffffffffffffffffffffffffffff16610d5f9092919063ffffffff16565b9050600081511115610ca45780806020019051810190610c6491906112cc565b610ca3576040517f08c379a0000000000000000000000000000000000000000000000000000000008152600401610c9a9061186f565b60405180910390fd5b5b505050565b60008082905060005b8551811015610d51576000868281518110610cd057610ccf611bae565b5b60200260200101519050808311610d11578281604051602001610cf4929190611607565b604051602081830303815290604052805190602001209250610d3d565b8083604051602001610d24929190611607565b6040516020818303038152906040528051906020012092505b508080610d4990611afe565b915050610cb2565b508381149150509392505050565b6060610d6e8484600085610d77565b90509392505050565b606082471015610dbc576040517f08c379a0000000000000000000000000000000000000000000000000000000008152600401610db3906117cf565b60405180910390fd5b610dc585610e8b565b610e04576040517f08c379a0000000000000000000000000000000000000000000000000000000008152600401610dfb9061182f565b60405180910390fd5b6000808673ffffffffffffffffffffffffffffffffffffffff168587604051610e2d9190611633565b60006040518083038185875af1925050503d8060008114610e6a576040519150601f19603f3d011682016040523d82523d6000602084013e610e6f565b606091505b5091509150610e7f828286610eae565b92505050949350505050565b6000808273ffffffffffffffffffffffffffffffffffffffff163b119050919050565b60608315610ebe57829050610f0e565b600083511115610ed15782518084602001fd5b816040517f08c379a0000000000000000000000000000000000000000000000000000000008152600401610f05919061174d565b60405180910390fd5b9392505050565b6000610f28610f2384611906565b6118e1565b90508083825260208201905082856020860282011115610f4b57610f4a611c11565b5b60005b85811015610f9957813567ffffffffffffffff811115610f7157610f70611c0c565b5b808601610f7e89826110c6565b85526020850194506020840193505050600181019050610f4e565b5050509392505050565b6000610fb6610fb184611932565b6118e1565b90508083825260208201905082856020860282011115610fd957610fd8611c11565b5b60005b858110156110095781610fef8882611137565b845260208401935060208301925050600181019050610fdc565b5050509392505050565b60006110266110218461195e565b6118e1565b9050808382526020820190508285602086028201111561104957611048611c11565b5b60005b85811015611079578161105f888261114c565b84526020840193506020830192505060018101905061104c565b5050509392505050565b60008135905061109281611e21565b92915050565b600082601f8301126110ad576110ac611c0c565b5b81356110bd848260208601610f15565b91505092915050565b600082601f8301126110db576110da611c0c565b5b81356110eb848260208601610fa3565b91505092915050565b600082601f83011261110957611108611c0c565b5b8135611119848260208601611013565b91505092915050565b60008151905061113181611e38565b92915050565b60008135905061114681611e4f565b92915050565b60008135905061115b81611e66565b92915050565b60006020828403121561117757611176611c1b565b5b600061118584828501611083565b91505092915050565b600080600080608085870312156111a8576111a7611c1b565b5b60006111b687828801611083565b945050602085013567ffffffffffffffff8111156111d7576111d6611c16565b5b6111e3878288016110f4565b935050604085013567ffffffffffffffff81111561120457611203611c16565b5b611210878288016110f4565b925050606085013567ffffffffffffffff81111561123157611230611c16565b5b61123d87828801611098565b91505092959194509250565b6000806000806080858703121561126357611262611c1b565b5b600061127187828801611083565b94505060206112828782880161114c565b93505060406112938782880161114c565b925050606085013567ffffffffffffffff8111156112b4576112b3611c16565b5b6112c0878288016110c6565b91505092959194509250565b6000602082840312156112e2576112e1611c1b565b5b60006112f084828501611122565b91505092915050565b600080604083850312156113105761130f611c1b565b5b600061131e85828601611137565b925050602061132f8582860161114c565b9150509250929050565b60006020828403121561134f5761134e611c1b565b5b600061135d8482850161114c565b91505092915050565b6000806040838503121561137d5761137c611c1b565b5b600061138b8582860161114c565b925050602061139c85828601611083565b9150509250929050565b6113af81611a12565b82525050565b6113c66113c182611a12565b611b47565b82525050565b6113d581611a24565b82525050565b6113e481611a30565b82525050565b6113fb6113f682611a30565b611b59565b82525050565b600061140c8261198a565b61141681856119a0565b9350611426818560208601611a9a565b80840191505092915050565b61143b81611a64565b82525050565b600061144c82611995565b61145681856119ab565b9350611466818560208601611a9a565b61146f81611c20565b840191505092915050565b6000611487601c836119ab565b915061149282611c3e565b602082019050919050565b60006114aa6016836119ab565b91506114b582611c67565b602082019050919050565b60006114cd601b836119ab565b91506114d882611c90565b602082019050919050565b60006114f06026836119ab565b91506114fb82611cb9565b604082019050919050565b6000611513603d836119ab565b915061151e82611d08565b604082019050919050565b60006115366016836119ab565b915061154182611d57565b602082019050919050565b6000611559601d836119ab565b915061156482611d80565b602082019050919050565b600061157c6012836119ab565b915061158782611da9565b602082019050919050565b600061159f602a836119ab565b91506115aa82611dd2565b604082019050919050565b6115be81611a5a565b82525050565b6115d56115d082611a5a565b611b75565b82525050565b60006115e782856113b5565b6014820191506115f782846115c4565b6020820191508190509392505050565b600061161382856113ea565b60208201915061162382846113ea565b6020820191508190509392505050565b600061163f8284611401565b915081905092915050565b600060208201905061165f60008301846113a6565b92915050565b600060608201905061167a60008301866113a6565b61168760208301856113a6565b61169460408301846115b5565b949350505050565b60006040820190506116b160008301856113a6565b6116be60208301846115b5565b9392505050565b60006060820190506116da60008301866113a6565b6116e760208301856115b5565b6116f460408301846115b5565b949350505050565b600060208201905061171160008301846113cc565b92915050565b600060208201905061172c60008301846113db565b92915050565b60006020820190506117476000830184611432565b92915050565b600060208201905081810360008301526117678184611441565b905092915050565b600060208201905081810360008301526117888161147a565b9050919050565b600060208201905081810360008301526117a88161149d565b9050919050565b600060208201905081810360008301526117c8816114c0565b9050919050565b600060208201905081810360008301526117e8816114e3565b9050919050565b6000602082019050818103600083015261180881611506565b9050919050565b6000602082019050818103600083015261182881611529565b9050919050565b600060208201905081810360008301526118488161154c565b9050919050565b600060208201905081810360008301526118688161156f565b9050919050565b6000602082019050818103600083015261188881611592565b9050919050565b60006020820190506118a460008301846115b5565b92915050565b60006060820190506118bf60008301866115b5565b6118cc60208301856113db565b6118d960408301846115b5565b949350505050565b60006118eb6118fc565b90506118f78282611acd565b919050565b6000604051905090565b600067ffffffffffffffff82111561192157611920611bdd565b5b602082029050602081019050919050565b600067ffffffffffffffff82111561194d5761194c611bdd565b5b602082029050602081019050919050565b600067ffffffffffffffff82111561197957611978611bdd565b5b602082029050602081019050919050565b600081519050919050565b600081519050919050565b600081905092915050565b600082825260208201905092915050565b60006119c782611a5a565b91506119d283611a5a565b9250827fffffffffffffffffffffffffffffffffffffffffffffffffffffffffffffffff03821115611a0757611a06611b7f565b5b828201905092915050565b6000611a1d82611a3a565b9050919050565b60008115159050919050565b6000819050919050565b600073ffffffffffffffffffffffffffffffffffffffff82169050919050565b6000819050919050565b6000611a6f82611a76565b9050919050565b6000611a8182611a88565b9050919050565b6000611a9382611a3a565b9050919050565b60005b83811015611ab8578082015181840152602081019050611a9d565b83811115611ac7576000848401525b50505050565b611ad682611c20565b810181811067ffffffffffffffff82111715611af557611af4611bdd565b5b80604052505050565b6000611b0982611a5a565b91507fffffffffffffffffffffffffffffffffffffffffffffffffffffffffffffffff821415611b3c57611b3b611b7f565b5b600182019050919050565b6000611b5282611b63565b9050919050565b6000819050919050565b6000611b6e82611c31565b9050919050565b6000819050919050565b7f4e487b7100000000000000000000000000000000000000000000000000000000600052601160045260246000fd5b7f4e487b7100000000000000000000000000000000000000000000000000000000600052603260045260246000fd5b7f4e487b7100000000000000000000000000000000000000000000000000000000600052604160045260246000fd5b600080fd5b600080fd5b600080fd5b600080fd5b6000601f19601f8301169050919050565b60008160601b9050919050565b7f5765656b2063616e6e6f7420626520696e207468652066757475726500000000600082015250565b7f496e636f7272656374206d65726b6c652070726f6f6600000000000000000000600082015250565b7f536166654d6174683a206164646974696f6e206f766572666c6f770000000000600082015250565b7f416464726573733a20696e73756666696369656e742062616c616e636520666f60008201527f722063616c6c0000000000000000000000000000000000000000000000000000602082015250565b7f4e6f2062616c616e636520776f756c64206265207472616e736665727265642060008201527f2d206e6f7420676f696e6720746f20776173746520796f757220676173000000602082015250565b7f4c502068617320616c726561647920636c61696d656400000000000000000000600082015250565b7f416464726573733a2063616c6c20746f206e6f6e2d636f6e7472616374000000600082015250565b7f4d69736d61746368696e6720696e707574730000000000000000000000000000600082015250565b7f5361666545524332303a204552433230206f7065726174696f6e20646964206e60008201527f6f74207375636365656400000000000000000000000000000000000000000000602082015250565b611e2a81611a12565b8114611e3557600080fd5b50565b611e4181611a24565b8114611e4c57600080fd5b50565b611e5881611a30565b8114611e6357600080fd5b50565b611e6f81611a5a565b8114611e7a57600080fd5b5056fea264697066735822122086f5569139ce0e66da202819fd7a4d110a9af52c205d4cd66520bcd02007da3464736f6c63430008070033",
					"opcodes": "PUSH1 0x80 PUSH1 0x40 MSTORE CALLVALUE DUP1 ISZERO PUSH3 0x11 JUMPI PUSH1 0x0 DUP1 REVERT JUMPDEST POP PUSH1 0x40 MLOAD PUSH3 0x2032 CODESIZE SUB DUP1 PUSH3 0x2032 DUP4 CODECOPY DUP2 DUP2 ADD PUSH1 0x40 MSTORE DUP2 ADD SWAP1 PUSH3 0x37 SWAP2 SWAP1 PUSH3 0xD6 JUMP JUMPDEST CALLER PUSH1 0x0 DUP1 PUSH2 0x100 EXP DUP2 SLOAD DUP2 PUSH20 0xFFFFFFFFFFFFFFFFFFFFFFFFFFFFFFFFFFFFFFFF MUL NOT AND SWAP1 DUP4 PUSH20 0xFFFFFFFFFFFFFFFFFFFFFFFFFFFFFFFFFFFFFFFF AND MUL OR SWAP1 SSTORE POP DUP1 PUSH1 0x3 PUSH1 0x0 PUSH2 0x100 EXP DUP2 SLOAD DUP2 PUSH20 0xFFFFFFFFFFFFFFFFFFFFFFFFFFFFFFFFFFFFFFFF MUL NOT AND SWAP1 DUP4 PUSH20 0xFFFFFFFFFFFFFFFFFFFFFFFFFFFFFFFFFFFFFFFF AND MUL OR SWAP1 SSTORE POP POP PUSH3 0x16F JUMP JUMPDEST PUSH1 0x0 DUP2 MLOAD SWAP1 POP PUSH3 0xD0 DUP2 PUSH3 0x155 JUMP JUMPDEST SWAP3 SWAP2 POP POP JUMP JUMPDEST PUSH1 0x0 PUSH1 0x20 DUP3 DUP5 SUB SLT ISZERO PUSH3 0xEF JUMPI PUSH3 0xEE PUSH3 0x150 JUMP JUMPDEST JUMPDEST PUSH1 0x0 PUSH3 0xFF DUP5 DUP3 DUP6 ADD PUSH3 0xBF JUMP JUMPDEST SWAP2 POP POP SWAP3 SWAP2 POP POP JUMP JUMPDEST PUSH1 0x0 PUSH3 0x115 DUP3 PUSH3 0x130 JUMP JUMPDEST SWAP1 POP SWAP2 SWAP1 POP JUMP JUMPDEST PUSH1 0x0 PUSH3 0x129 DUP3 PUSH3 0x108 JUMP JUMPDEST SWAP1 POP SWAP2 SWAP1 POP JUMP JUMPDEST PUSH1 0x0 PUSH20 0xFFFFFFFFFFFFFFFFFFFFFFFFFFFFFFFFFFFFFFFF DUP3 AND SWAP1 POP SWAP2 SWAP1 POP JUMP JUMPDEST PUSH1 0x0 DUP1 REVERT JUMPDEST PUSH3 0x160 DUP2 PUSH3 0x11C JUMP JUMPDEST DUP2 EQ PUSH3 0x16C JUMPI PUSH1 0x0 DUP1 REVERT JUMPDEST POP JUMP JUMPDEST PUSH2 0x1EB3 DUP1 PUSH3 0x17F PUSH1 0x0 CODECOPY PUSH1 0x0 RETURN INVALID PUSH1 0x80 PUSH1 0x40 MSTORE CALLVALUE DUP1 ISZERO PUSH2 0x10 JUMPI PUSH1 0x0 DUP1 REVERT JUMPDEST POP PUSH1 0x4 CALLDATASIZE LT PUSH2 0xB4 JUMPI PUSH1 0x0 CALLDATALOAD PUSH1 0xE0 SHR DUP1 PUSH4 0xBA593714 GT PUSH2 0x71 JUMPI DUP1 PUSH4 0xBA593714 EQ PUSH2 0x1B3 JUMPI DUP1 PUSH4 0xD5EFD20A EQ PUSH2 0x1CF JUMPI DUP1 PUSH4 0xEB0D07F5 EQ PUSH2 0x1EB JUMPI DUP1 PUSH4 0xEBF04917 EQ PUSH2 0x21B JUMPI DUP1 PUSH4 0xF2FDE38B EQ PUSH2 0x239 JUMPI DUP1 PUSH4 0xFC0C546A EQ PUSH2 0x255 JUMPI PUSH2 0xB4 JUMP JUMPDEST DUP1 PUSH4 0x120AA877 EQ PUSH2 0xB9 JUMPI DUP1 PUSH4 0x275BF03B EQ PUSH2 0xE9 JUMPI DUP1 PUSH4 0x58B4E4B4 EQ PUSH2 0x119 JUMPI DUP1 PUSH4 0x65EF53B1 EQ PUSH2 0x135 JUMPI DUP1 PUSH4 0x71C5ECB1 EQ PUSH2 0x165 JUMPI DUP1 PUSH4 0x8DA5CB5B EQ PUSH2 0x195 JUMPI JUMPDEST PUSH1 0x0 DUP1 REVERT JUMPDEST PUSH2 0xD3 PUSH1 0x4 DUP1 CALLDATASIZE SUB DUP2 ADD SWAP1 PUSH2 0xCE SWAP2 SWAP1 PUSH2 0x1366 JUMP JUMPDEST PUSH2 0x273 JUMP JUMPDEST PUSH1 0x40 MLOAD PUSH2 0xE0 SWAP2 SWAP1 PUSH2 0x16FC JUMP JUMPDEST PUSH1 0x40 MLOAD DUP1 SWAP2 SUB SWAP1 RETURN JUMPDEST PUSH2 0x103 PUSH1 0x4 DUP1 CALLDATASIZE SUB DUP2 ADD SWAP1 PUSH2 0xFE SWAP2 SWAP1 PUSH2 0x1339 JUMP JUMPDEST PUSH2 0x2A2 JUMP JUMPDEST PUSH1 0x40 MLOAD PUSH2 0x110 SWAP2 SWAP1 PUSH2 0x164A JUMP JUMPDEST PUSH1 0x40 MLOAD DUP1 SWAP2 SUB SWAP1 RETURN JUMPDEST PUSH2 0x133 PUSH1 0x4 DUP1 CALLDATASIZE SUB DUP2 ADD SWAP1 PUSH2 0x12E SWAP2 SWAP1 PUSH2 0x1249 JUMP JUMPDEST PUSH2 0x2E1 JUMP JUMPDEST STOP JUMPDEST PUSH2 0x14F PUSH1 0x4 DUP1 CALLDATASIZE SUB DUP2 ADD SWAP1 PUSH2 0x14A SWAP2 SWAP1 PUSH2 0x12F9 JUMP JUMPDEST PUSH2 0x2FD JUMP JUMPDEST PUSH1 0x40 MLOAD PUSH2 0x15C SWAP2 SWAP1 PUSH2 0x188F JUMP JUMPDEST PUSH1 0x40 MLOAD DUP1 SWAP2 SUB SWAP1 RETURN JUMPDEST PUSH2 0x17F PUSH1 0x4 DUP1 CALLDATASIZE SUB DUP2 ADD SWAP1 PUSH2 0x17A SWAP2 SWAP1 PUSH2 0x1339 JUMP JUMPDEST PUSH2 0x421 JUMP JUMPDEST PUSH1 0x40 MLOAD PUSH2 0x18C SWAP2 SWAP1 PUSH2 0x1717 JUMP JUMPDEST PUSH1 0x40 MLOAD DUP1 SWAP2 SUB SWAP1 RETURN JUMPDEST PUSH2 0x19D PUSH2 0x439 JUMP JUMPDEST PUSH1 0x40 MLOAD PUSH2 0x1AA SWAP2 SWAP1 PUSH2 0x164A JUMP JUMPDEST PUSH1 0x40 MLOAD DUP1 SWAP2 SUB SWAP1 RETURN JUMPDEST PUSH2 0x1CD PUSH1 0x4 DUP1 CALLDATASIZE SUB DUP2 ADD SWAP1 PUSH2 0x1C8 SWAP2 SWAP1 PUSH2 0x118E JUMP JUMPDEST PUSH2 0x45D JUMP JUMPDEST STOP JUMPDEST PUSH2 0x1E9 PUSH1 0x4 DUP1 CALLDATASIZE SUB DUP2 ADD SWAP1 PUSH2 0x1E4 SWAP2 SWAP1 PUSH2 0x1339 JUMP JUMPDEST PUSH2 0x56D JUMP JUMPDEST STOP JUMPDEST PUSH2 0x205 PUSH1 0x4 DUP1 CALLDATASIZE SUB DUP2 ADD SWAP1 PUSH2 0x200 SWAP2 SWAP1 PUSH2 0x1249 JUMP JUMPDEST PUSH2 0x61A JUMP JUMPDEST PUSH1 0x40 MLOAD PUSH2 0x212 SWAP2 SWAP1 PUSH2 0x16FC JUMP JUMPDEST PUSH1 0x40 MLOAD DUP1 SWAP2 SUB SWAP1 RETURN JUMPDEST PUSH2 0x223 PUSH2 0x632 JUMP JUMPDEST PUSH1 0x40 MLOAD PUSH2 0x230 SWAP2 SWAP1 PUSH2 0x188F JUMP JUMPDEST PUSH1 0x40 MLOAD DUP1 SWAP2 SUB SWAP1 RETURN JUMPDEST PUSH2 0x253 PUSH1 0x4 DUP1 CALLDATASIZE SUB DUP2 ADD SWAP1 PUSH2 0x24E SWAP2 SWAP1 PUSH2 0x1161 JUMP JUMPDEST PUSH2 0x638 JUMP JUMPDEST STOP JUMPDEST PUSH2 0x25D PUSH2 0x787 JUMP JUMPDEST PUSH1 0x40 MLOAD PUSH2 0x26A SWAP2 SWAP1 PUSH2 0x1732 JUMP JUMPDEST PUSH1 0x40 MLOAD DUP1 SWAP2 SUB SWAP1 RETURN JUMPDEST PUSH1 0x5 PUSH1 0x20 MSTORE DUP2 PUSH1 0x0 MSTORE PUSH1 0x40 PUSH1 0x0 KECCAK256 PUSH1 0x20 MSTORE DUP1 PUSH1 0x0 MSTORE PUSH1 0x40 PUSH1 0x0 KECCAK256 PUSH1 0x0 SWAP2 POP SWAP2 POP SWAP1 SLOAD SWAP1 PUSH2 0x100 EXP SWAP1 DIV PUSH1 0xFF AND DUP2 JUMP JUMPDEST PUSH1 0x2 DUP2 DUP2 SLOAD DUP2 LT PUSH2 0x2B2 JUMPI PUSH1 0x0 DUP1 REVERT JUMPDEST SWAP1 PUSH1 0x0 MSTORE PUSH1 0x20 PUSH1 0x0 KECCAK256 ADD PUSH1 0x0 SWAP2 POP SLOAD SWAP1 PUSH2 0x100 EXP SWAP1 DIV PUSH20 0xFFFFFFFFFFFFFFFFFFFFFFFFFFFFFFFFFFFFFFFF AND DUP2 JUMP JUMPDEST PUSH2 0x2ED DUP5 DUP5 DUP5 DUP5 PUSH2 0x7AD JUMP JUMPDEST PUSH2 0x2F7 DUP5 DUP4 PUSH2 0x984 JUMP JUMPDEST POP POP POP POP JUMP JUMPDEST PUSH1 0x0 DUP1 PUSH1 0x0 SWAP1 SLOAD SWAP1 PUSH2 0x100 EXP SWAP1 DIV PUSH20 0xFFFFFFFFFFFFFFFFFFFFFFFFFFFFFFFFFFFFFFFF AND PUSH20 0xFFFFFFFFFFFFFFFFFFFFFFFFFFFFFFFFFFFFFFFF AND CALLER PUSH20 0xFFFFFFFFFFFFFFFFFFFFFFFFFFFFFFFFFFFFFFFF AND EQ PUSH2 0x358 JUMPI PUSH1 0x0 DUP1 REVERT JUMPDEST PUSH2 0x3A7 CALLER ADDRESS DUP5 PUSH1 0x3 PUSH1 0x0 SWAP1 SLOAD SWAP1 PUSH2 0x100 EXP SWAP1 DIV PUSH20 0xFFFFFFFFFFFFFFFFFFFFFFFFFFFFFFFFFFFFFFFF AND PUSH20 0xFFFFFFFFFFFFFFFFFFFFFFFFFFFFFFFFFFFFFFFF AND PUSH2 0xA1E SWAP1 SWAP4 SWAP3 SWAP2 SWAP1 PUSH4 0xFFFFFFFF AND JUMP JUMPDEST PUSH1 0x6 SLOAD SWAP1 POP DUP3 PUSH1 0x4 PUSH1 0x0 DUP4 DUP2 MSTORE PUSH1 0x20 ADD SWAP1 DUP2 MSTORE PUSH1 0x20 ADD PUSH1 0x0 KECCAK256 DUP2 SWAP1 SSTORE POP PUSH2 0x3DA PUSH1 0x1 PUSH1 0x6 SLOAD PUSH2 0xAA7 SWAP1 SWAP2 SWAP1 PUSH4 0xFFFFFFFF AND JUMP JUMPDEST PUSH1 0x6 DUP2 SWAP1 SSTORE POP PUSH32 0x5C8770684B8F82E9ADE880FB05CCFB53C969170CD40E9746A3703F241C9023EC DUP2 DUP5 DUP5 PUSH1 0x40 MLOAD PUSH2 0x413 SWAP4 SWAP3 SWAP2 SWAP1 PUSH2 0x18AA JUMP JUMPDEST PUSH1 0x40 MLOAD DUP1 SWAP2 SUB SWAP1 LOG1 SWAP3 SWAP2 POP POP JUMP JUMPDEST PUSH1 0x4 PUSH1 0x20 MSTORE DUP1 PUSH1 0x0 MSTORE PUSH1 0x40 PUSH1 0x0 KECCAK256 PUSH1 0x0 SWAP2 POP SWAP1 POP SLOAD DUP2 JUMP JUMPDEST PUSH1 0x0 DUP1 SLOAD SWAP1 PUSH2 0x100 EXP SWAP1 DIV PUSH20 0xFFFFFFFFFFFFFFFFFFFFFFFFFFFFFFFFFFFFFFFF AND DUP2 JUMP JUMPDEST PUSH1 0x0 DUP4 MLOAD SWAP1 POP DUP3 MLOAD DUP2 EQ DUP1 ISZERO PUSH2 0x473 JUMPI POP DUP2 MLOAD DUP2 EQ JUMPDEST PUSH2 0x4B2 JUMPI PUSH1 0x40 MLOAD PUSH32 0x8C379A000000000000000000000000000000000000000000000000000000000 DUP2 MSTORE PUSH1 0x4 ADD PUSH2 0x4A9 SWAP1 PUSH2 0x184F JUMP JUMPDEST PUSH1 0x40 MLOAD DUP1 SWAP2 SUB SWAP1 REVERT JUMPDEST PUSH1 0x0 DUP1 JUMPDEST DUP3 DUP2 LT ISZERO PUSH2 0x55A JUMPI PUSH2 0x518 DUP8 DUP8 DUP4 DUP2 MLOAD DUP2 LT PUSH2 0x4D5 JUMPI PUSH2 0x4D4 PUSH2 0x1BAE JUMP JUMPDEST JUMPDEST PUSH1 0x20 MUL PUSH1 0x20 ADD ADD MLOAD DUP8 DUP5 DUP2 MLOAD DUP2 LT PUSH2 0x4F0 JUMPI PUSH2 0x4EF PUSH2 0x1BAE JUMP JUMPDEST JUMPDEST PUSH1 0x20 MUL PUSH1 0x20 ADD ADD MLOAD DUP8 DUP6 DUP2 MLOAD DUP2 LT PUSH2 0x50B JUMPI PUSH2 0x50A PUSH2 0x1BAE JUMP JUMPDEST JUMPDEST PUSH1 0x20 MUL PUSH1 0x20 ADD ADD MLOAD PUSH2 0x7AD JUMP JUMPDEST PUSH2 0x545 DUP6 DUP3 DUP2 MLOAD DUP2 LT PUSH2 0x52E JUMPI PUSH2 0x52D PUSH2 0x1BAE JUMP JUMPDEST JUMPDEST PUSH1 0x20 MUL PUSH1 0x20 ADD ADD MLOAD DUP4 PUSH2 0xAA7 SWAP1 SWAP2 SWAP1 PUSH4 0xFFFFFFFF AND JUMP JUMPDEST SWAP2 POP DUP1 DUP1 PUSH2 0x552 SWAP1 PUSH2 0x1AFE JUMP JUMPDEST SWAP2 POP POP PUSH2 0x4B6 JUMP JUMPDEST POP PUSH2 0x565 DUP7 DUP3 PUSH2 0x984 JUMP JUMPDEST POP POP POP POP POP POP JUMP JUMPDEST PUSH1 0x0 DUP1 SLOAD SWAP1 PUSH2 0x100 EXP SWAP1 DIV PUSH20 0xFFFFFFFFFFFFFFFFFFFFFFFFFFFFFFFFFFFFFFFF AND PUSH20 0xFFFFFFFFFFFFFFFFFFFFFFFFFFFFFFFFFFFFFFFF AND CALLER PUSH20 0xFFFFFFFFFFFFFFFFFFFFFFFFFFFFFFFFFFFFFFFF AND EQ PUSH2 0x5C5 JUMPI PUSH1 0x0 DUP1 REVERT JUMPDEST PUSH1 0x0 DUP1 SHL PUSH1 0x4 PUSH1 0x0 DUP4 DUP2 MSTORE PUSH1 0x20 ADD SWAP1 DUP2 MSTORE PUSH1 0x20 ADD PUSH1 0x0 KECCAK256 DUP2 SWAP1 SSTORE POP PUSH32 0xCC071CBD9AE50A4C78D1153B76BD2D46BA8D4C7662842718EC3DE1D67A144DAF DUP2 PUSH1 0x40 MLOAD PUSH2 0x60F SWAP2 SWAP1 PUSH2 0x188F JUMP JUMPDEST PUSH1 0x40 MLOAD DUP1 SWAP2 SUB SWAP1 LOG1 POP JUMP JUMPDEST PUSH1 0x0 PUSH2 0x628 DUP6 DUP6 DUP6 DUP6 PUSH2 0xB05 JUMP JUMPDEST SWAP1 POP SWAP5 SWAP4 POP POP POP POP JUMP JUMPDEST PUSH1 0x6 SLOAD DUP2 JUMP JUMPDEST PUSH1 0x0 DUP1 SLOAD SWAP1 PUSH2 0x100 EXP SWAP1 DIV PUSH20 0xFFFFFFFFFFFFFFFFFFFFFFFFFFFFFFFFFFFFFFFF AND PUSH20 0xFFFFFFFFFFFFFFFFFFFFFFFFFFFFFFFFFFFFFFFF AND CALLER PUSH20 0xFFFFFFFFFFFFFFFFFFFFFFFFFFFFFFFFFFFFFFFF AND EQ PUSH2 0x690 JUMPI PUSH1 0x0 DUP1 REVERT JUMPDEST PUSH1 0x0 PUSH20 0xFFFFFFFFFFFFFFFFFFFFFFFFFFFFFFFFFFFFFFFF AND DUP2 PUSH20 0xFFFFFFFFFFFFFFFFFFFFFFFFFFFFFFFFFFFFFFFF AND EQ ISZERO PUSH2 0x6CA JUMPI PUSH1 0x0 DUP1 REVERT JUMPDEST DUP1 PUSH20 0xFFFFFFFFFFFFFFFFFFFFFFFFFFFFFFFFFFFFFFFF AND PUSH1 0x0 DUP1 SLOAD SWAP1 PUSH2 0x100 EXP SWAP1 DIV PUSH20 0xFFFFFFFFFFFFFFFFFFFFFFFFFFFFFFFFFFFFFFFF AND PUSH20 0xFFFFFFFFFFFFFFFFFFFFFFFFFFFFFFFFFFFFFFFF AND PUSH32 0x8BE0079C531659141344CD1FD0A4F28419497F9722A3DAAFE3B4186F6B6457E0 PUSH1 0x40 MLOAD PUSH1 0x40 MLOAD DUP1 SWAP2 SUB SWAP1 LOG3 DUP1 PUSH1 0x0 DUP1 PUSH2 0x100 EXP DUP2 SLOAD DUP2 PUSH20 0xFFFFFFFFFFFFFFFFFFFFFFFFFFFFFFFFFFFFFFFF MUL NOT AND SWAP1 DUP4 PUSH20 0xFFFFFFFFFFFFFFFFFFFFFFFFFFFFFFFFFFFFFFFF AND MUL OR SWAP1 SSTORE POP POP JUMP JUMPDEST PUSH1 0x3 PUSH1 0x0 SWAP1 SLOAD SWAP1 PUSH2 0x100 EXP SWAP1 DIV PUSH20 0xFFFFFFFFFFFFFFFFFFFFFFFFFFFFFFFFFFFFFFFF AND DUP2 JUMP JUMPDEST PUSH1 0x6 SLOAD DUP4 LT PUSH2 0x7F1 JUMPI PUSH1 0x40 MLOAD PUSH32 0x8C379A000000000000000000000000000000000000000000000000000000000 DUP2 MSTORE PUSH1 0x4 ADD PUSH2 0x7E8 SWAP1 PUSH2 0x176F JUMP JUMPDEST PUSH1 0x40 MLOAD DUP1 SWAP2 SUB SWAP1 REVERT JUMPDEST PUSH1 0x5 PUSH1 0x0 DUP5 DUP2 MSTORE PUSH1 0x20 ADD SWAP1 DUP2 MSTORE PUSH1 0x20 ADD PUSH1 0x0 KECCAK256 PUSH1 0x0 DUP6 PUSH20 0xFFFFFFFFFFFFFFFFFFFFFFFFFFFFFFFFFFFFFFFF AND PUSH20 0xFFFFFFFFFFFFFFFFFFFFFFFFFFFFFFFFFFFFFFFF AND DUP2 MSTORE PUSH1 0x20 ADD SWAP1 DUP2 MSTORE PUSH1 0x20 ADD PUSH1 0x0 KECCAK256 PUSH1 0x0 SWAP1 SLOAD SWAP1 PUSH2 0x100 EXP SWAP1 DIV PUSH1 0xFF AND ISZERO PUSH2 0x88F JUMPI PUSH1 0x40 MLOAD PUSH32 0x8C379A000000000000000000000000000000000000000000000000000000000 DUP2 MSTORE PUSH1 0x4 ADD PUSH2 0x886 SWAP1 PUSH2 0x180F JUMP JUMPDEST PUSH1 0x40 MLOAD DUP1 SWAP2 SUB SWAP1 REVERT JUMPDEST PUSH2 0x89B DUP5 DUP5 DUP5 DUP5 PUSH2 0xB05 JUMP JUMPDEST PUSH2 0x8DA JUMPI PUSH1 0x40 MLOAD PUSH32 0x8C379A000000000000000000000000000000000000000000000000000000000 DUP2 MSTORE PUSH1 0x4 ADD PUSH2 0x8D1 SWAP1 PUSH2 0x178F JUMP JUMPDEST PUSH1 0x40 MLOAD DUP1 SWAP2 SUB SWAP1 REVERT JUMPDEST PUSH1 0x1 PUSH1 0x5 PUSH1 0x0 DUP6 DUP2 MSTORE PUSH1 0x20 ADD SWAP1 DUP2 MSTORE PUSH1 0x20 ADD PUSH1 0x0 KECCAK256 PUSH1 0x0 DUP7 PUSH20 0xFFFFFFFFFFFFFFFFFFFFFFFFFFFFFFFFFFFFFFFF AND PUSH20 0xFFFFFFFFFFFFFFFFFFFFFFFFFFFFFFFFFFFFFFFF AND DUP2 MSTORE PUSH1 0x20 ADD SWAP1 DUP2 MSTORE PUSH1 0x20 ADD PUSH1 0x0 KECCAK256 PUSH1 0x0 PUSH2 0x100 EXP DUP2 SLOAD DUP2 PUSH1 0xFF MUL NOT AND SWAP1 DUP4 ISZERO ISZERO MUL OR SWAP1 SSTORE POP PUSH32 0x987D620F307FF6B94D58743CB7A7509F24071586A77759B77C2D4E29F75A2F9A DUP5 DUP5 DUP5 PUSH1 0x40 MLOAD PUSH2 0x976 SWAP4 SWAP3 SWAP2 SWAP1 PUSH2 0x16C5 JUMP JUMPDEST PUSH1 0x40 MLOAD DUP1 SWAP2 SUB SWAP1 LOG1 POP POP POP POP JUMP JUMPDEST PUSH1 0x0 DUP2 GT ISZERO PUSH2 0x9DF JUMPI PUSH2 0x9DA DUP3 DUP3 PUSH1 0x3 PUSH1 0x0 SWAP1 SLOAD SWAP1 PUSH2 0x100 EXP SWAP1 DIV PUSH20 0xFFFFFFFFFFFFFFFFFFFFFFFFFFFFFFFFFFFFFFFF AND PUSH20 0xFFFFFFFFFFFFFFFFFFFFFFFFFFFFFFFFFFFFFFFF AND PUSH2 0xB5C SWAP1 SWAP3 SWAP2 SWAP1 PUSH4 0xFFFFFFFF AND JUMP JUMPDEST PUSH2 0xA1A JUMP JUMPDEST PUSH1 0x40 MLOAD PUSH32 0x8C379A000000000000000000000000000000000000000000000000000000000 DUP2 MSTORE PUSH1 0x4 ADD PUSH2 0xA11 SWAP1 PUSH2 0x17EF JUMP JUMPDEST PUSH1 0x40 MLOAD DUP1 SWAP2 SUB SWAP1 REVERT JUMPDEST POP POP JUMP JUMPDEST PUSH2 0xAA1 DUP5 PUSH4 0x23B872DD PUSH1 0xE0 SHL DUP6 DUP6 DUP6 PUSH1 0x40 MLOAD PUSH1 0x24 ADD PUSH2 0xA3F SWAP4 SWAP3 SWAP2 SWAP1 PUSH2 0x1665 JUMP JUMPDEST PUSH1 0x40 MLOAD PUSH1 0x20 DUP2 DUP4 SUB SUB DUP2 MSTORE SWAP1 PUSH1 0x40 MSTORE SWAP1 PUSH28 0xFFFFFFFFFFFFFFFFFFFFFFFFFFFFFFFFFFFFFFFFFFFFFFFFFFFFFFFF NOT AND PUSH1 0x20 DUP3 ADD DUP1 MLOAD PUSH28 0xFFFFFFFFFFFFFFFFFFFFFFFFFFFFFFFFFFFFFFFFFFFFFFFFFFFFFFFF DUP4 DUP2 DUP4 AND OR DUP4 MSTORE POP POP POP POP PUSH2 0xBE2 JUMP JUMPDEST POP POP POP POP JUMP JUMPDEST PUSH1 0x0 DUP1 DUP3 DUP5 PUSH2 0xAB6 SWAP2 SWAP1 PUSH2 0x19BC JUMP JUMPDEST SWAP1 POP DUP4 DUP2 LT ISZERO PUSH2 0xAFB JUMPI PUSH1 0x40 MLOAD PUSH32 0x8C379A000000000000000000000000000000000000000000000000000000000 DUP2 MSTORE PUSH1 0x4 ADD PUSH2 0xAF2 SWAP1 PUSH2 0x17AF JUMP JUMPDEST PUSH1 0x40 MLOAD DUP1 SWAP2 SUB SWAP1 REVERT JUMPDEST DUP1 SWAP2 POP POP SWAP3 SWAP2 POP POP JUMP JUMPDEST PUSH1 0x0 DUP1 DUP6 DUP5 PUSH1 0x40 MLOAD PUSH1 0x20 ADD PUSH2 0xB1B SWAP3 SWAP2 SWAP1 PUSH2 0x15DB JUMP JUMPDEST PUSH1 0x40 MLOAD PUSH1 0x20 DUP2 DUP4 SUB SUB DUP2 MSTORE SWAP1 PUSH1 0x40 MSTORE DUP1 MLOAD SWAP1 PUSH1 0x20 ADD KECCAK256 SWAP1 POP PUSH2 0xB51 DUP4 PUSH1 0x4 PUSH1 0x0 DUP9 DUP2 MSTORE PUSH1 0x20 ADD SWAP1 DUP2 MSTORE PUSH1 0x20 ADD PUSH1 0x0 KECCAK256 SLOAD DUP4 PUSH2 0xCA9 JUMP JUMPDEST SWAP2 POP POP SWAP5 SWAP4 POP POP POP POP JUMP JUMPDEST PUSH2 0xBDD DUP4 PUSH4 0xA9059CBB PUSH1 0xE0 SHL DUP5 DUP5 PUSH1 0x40 MLOAD PUSH1 0x24 ADD PUSH2 0xB7B SWAP3 SWAP2 SWAP1 PUSH2 0x169C JUMP JUMPDEST PUSH1 0x40 MLOAD PUSH1 0x20 DUP2 DUP4 SUB SUB DUP2 MSTORE SWAP1 PUSH1 0x40 MSTORE SWAP1 PUSH28 0xFFFFFFFFFFFFFFFFFFFFFFFFFFFFFFFFFFFFFFFFFFFFFFFFFFFFFFFF NOT AND PUSH1 0x20 DUP3 ADD DUP1 MLOAD PUSH28 0xFFFFFFFFFFFFFFFFFFFFFFFFFFFFFFFFFFFFFFFFFFFFFFFFFFFFFFFF DUP4 DUP2 DUP4 AND OR DUP4 MSTORE POP POP POP POP PUSH2 0xBE2 JUMP JUMPDEST POP POP POP JUMP JUMPDEST PUSH1 0x0 PUSH2 0xC44 DUP3 PUSH1 0x40 MLOAD DUP1 PUSH1 0x40 ADD PUSH1 0x40 MSTORE DUP1 PUSH1 0x20 DUP2 MSTORE PUSH1 0x20 ADD PUSH32 0x5361666545524332303A206C6F772D6C6576656C2063616C6C206661696C6564 DUP2 MSTORE POP DUP6 PUSH20 0xFFFFFFFFFFFFFFFFFFFFFFFFFFFFFFFFFFFFFFFF AND PUSH2 0xD5F SWAP1 SWAP3 SWAP2 SWAP1 PUSH4 0xFFFFFFFF AND JUMP JUMPDEST SWAP1 POP PUSH1 0x0 DUP2 MLOAD GT ISZERO PUSH2 0xCA4 JUMPI DUP1 DUP1 PUSH1 0x20 ADD SWAP1 MLOAD DUP2 ADD SWAP1 PUSH2 0xC64 SWAP2 SWAP1 PUSH2 0x12CC JUMP JUMPDEST PUSH2 0xCA3 JUMPI PUSH1 0x40 MLOAD PUSH32 0x8C379A000000000000000000000000000000000000000000000000000000000 DUP2 MSTORE PUSH1 0x4 ADD PUSH2 0xC9A SWAP1 PUSH2 0x186F JUMP JUMPDEST PUSH1 0x40 MLOAD DUP1 SWAP2 SUB SWAP1 REVERT JUMPDEST JUMPDEST POP POP POP JUMP JUMPDEST PUSH1 0x0 DUP1 DUP3 SWAP1 POP PUSH1 0x0 JUMPDEST DUP6 MLOAD DUP2 LT ISZERO PUSH2 0xD51 JUMPI PUSH1 0x0 DUP7 DUP3 DUP2 MLOAD DUP2 LT PUSH2 0xCD0 JUMPI PUSH2 0xCCF PUSH2 0x1BAE JUMP JUMPDEST JUMPDEST PUSH1 0x20 MUL PUSH1 0x20 ADD ADD MLOAD SWAP1 POP DUP1 DUP4 GT PUSH2 0xD11 JUMPI DUP3 DUP2 PUSH1 0x40 MLOAD PUSH1 0x20 ADD PUSH2 0xCF4 SWAP3 SWAP2 SWAP1 PUSH2 0x1607 JUMP JUMPDEST PUSH1 0x40 MLOAD PUSH1 0x20 DUP2 DUP4 SUB SUB DUP2 MSTORE SWAP1 PUSH1 0x40 MSTORE DUP1 MLOAD SWAP1 PUSH1 0x20 ADD KECCAK256 SWAP3 POP PUSH2 0xD3D JUMP JUMPDEST DUP1 DUP4 PUSH1 0x40 MLOAD PUSH1 0x20 ADD PUSH2 0xD24 SWAP3 SWAP2 SWAP1 PUSH2 0x1607 JUMP JUMPDEST PUSH1 0x40 MLOAD PUSH1 0x20 DUP2 DUP4 SUB SUB DUP2 MSTORE SWAP1 PUSH1 0x40 MSTORE DUP1 MLOAD SWAP1 PUSH1 0x20 ADD KECCAK256 SWAP3 POP JUMPDEST POP DUP1 DUP1 PUSH2 0xD49 SWAP1 PUSH2 0x1AFE JUMP JUMPDEST SWAP2 POP POP PUSH2 0xCB2 JUMP JUMPDEST POP DUP4 DUP2 EQ SWAP2 POP POP SWAP4 SWAP3 POP POP POP JUMP JUMPDEST PUSH1 0x60 PUSH2 0xD6E DUP5 DUP5 PUSH1 0x0 DUP6 PUSH2 0xD77 JUMP JUMPDEST SWAP1 POP SWAP4 SWAP3 POP POP POP JUMP JUMPDEST PUSH1 0x60 DUP3 SELFBALANCE LT ISZERO PUSH2 0xDBC JUMPI PUSH1 0x40 MLOAD PUSH32 0x8C379A000000000000000000000000000000000000000000000000000000000 DUP2 MSTORE PUSH1 0x4 ADD PUSH2 0xDB3 SWAP1 PUSH2 0x17CF JUMP JUMPDEST PUSH1 0x40 MLOAD DUP1 SWAP2 SUB SWAP1 REVERT JUMPDEST PUSH2 0xDC5 DUP6 PUSH2 0xE8B JUMP JUMPDEST PUSH2 0xE04 JUMPI PUSH1 0x40 MLOAD PUSH32 0x8C379A000000000000000000000000000000000000000000000000000000000 DUP2 MSTORE PUSH1 0x4 ADD PUSH2 0xDFB SWAP1 PUSH2 0x182F JUMP JUMPDEST PUSH1 0x40 MLOAD DUP1 SWAP2 SUB SWAP1 REVERT JUMPDEST PUSH1 0x0 DUP1 DUP7 PUSH20 0xFFFFFFFFFFFFFFFFFFFFFFFFFFFFFFFFFFFFFFFF AND DUP6 DUP8 PUSH1 0x40 MLOAD PUSH2 0xE2D SWAP2 SWAP1 PUSH2 0x1633 JUMP JUMPDEST PUSH1 0x0 PUSH1 0x40 MLOAD DUP1 DUP4 SUB DUP2 DUP6 DUP8 GAS CALL SWAP3 POP POP POP RETURNDATASIZE DUP1 PUSH1 0x0 DUP2 EQ PUSH2 0xE6A JUMPI PUSH1 0x40 MLOAD SWAP2 POP PUSH1 0x1F NOT PUSH1 0x3F RETURNDATASIZE ADD AND DUP3 ADD PUSH1 0x40 MSTORE RETURNDATASIZE DUP3 MSTORE RETURNDATASIZE PUSH1 0x0 PUSH1 0x20 DUP5 ADD RETURNDATACOPY PUSH2 0xE6F JUMP JUMPDEST PUSH1 0x60 SWAP2 POP JUMPDEST POP SWAP2 POP SWAP2 POP PUSH2 0xE7F DUP3 DUP3 DUP7 PUSH2 0xEAE JUMP JUMPDEST SWAP3 POP POP POP SWAP5 SWAP4 POP POP POP POP JUMP JUMPDEST PUSH1 0x0 DUP1 DUP3 PUSH20 0xFFFFFFFFFFFFFFFFFFFFFFFFFFFFFFFFFFFFFFFF AND EXTCODESIZE GT SWAP1 POP SWAP2 SWAP1 POP JUMP JUMPDEST PUSH1 0x60 DUP4 ISZERO PUSH2 0xEBE JUMPI DUP3 SWAP1 POP PUSH2 0xF0E JUMP JUMPDEST PUSH1 0x0 DUP4 MLOAD GT ISZERO PUSH2 0xED1 JUMPI DUP3 MLOAD DUP1 DUP5 PUSH1 0x20 ADD REVERT JUMPDEST DUP2 PUSH1 0x40 MLOAD PUSH32 0x8C379A000000000000000000000000000000000000000000000000000000000 DUP2 MSTORE PUSH1 0x4 ADD PUSH2 0xF05 SWAP2 SWAP1 PUSH2 0x174D JUMP JUMPDEST PUSH1 0x40 MLOAD DUP1 SWAP2 SUB SWAP1 REVERT JUMPDEST SWAP4 SWAP3 POP POP POP JUMP JUMPDEST PUSH1 0x0 PUSH2 0xF28 PUSH2 0xF23 DUP5 PUSH2 0x1906 JUMP JUMPDEST PUSH2 0x18E1 JUMP JUMPDEST SWAP1 POP DUP1 DUP4 DUP3 MSTORE PUSH1 0x20 DUP3 ADD SWAP1 POP DUP3 DUP6 PUSH1 0x20 DUP7 MUL DUP3 ADD GT ISZERO PUSH2 0xF4B JUMPI PUSH2 0xF4A PUSH2 0x1C11 JUMP JUMPDEST JUMPDEST PUSH1 0x0 JUMPDEST DUP6 DUP2 LT ISZERO PUSH2 0xF99 JUMPI DUP2 CALLDATALOAD PUSH8 0xFFFFFFFFFFFFFFFF DUP2 GT ISZERO PUSH2 0xF71 JUMPI PUSH2 0xF70 PUSH2 0x1C0C JUMP JUMPDEST JUMPDEST DUP1 DUP7 ADD PUSH2 0xF7E DUP10 DUP3 PUSH2 0x10C6 JUMP JUMPDEST DUP6 MSTORE PUSH1 0x20 DUP6 ADD SWAP5 POP PUSH1 0x20 DUP5 ADD SWAP4 POP POP POP PUSH1 0x1 DUP2 ADD SWAP1 POP PUSH2 0xF4E JUMP JUMPDEST POP POP POP SWAP4 SWAP3 POP POP POP JUMP JUMPDEST PUSH1 0x0 PUSH2 0xFB6 PUSH2 0xFB1 DUP5 PUSH2 0x1932 JUMP JUMPDEST PUSH2 0x18E1 JUMP JUMPDEST SWAP1 POP DUP1 DUP4 DUP3 MSTORE PUSH1 0x20 DUP3 ADD SWAP1 POP DUP3 DUP6 PUSH1 0x20 DUP7 MUL DUP3 ADD GT ISZERO PUSH2 0xFD9 JUMPI PUSH2 0xFD8 PUSH2 0x1C11 JUMP JUMPDEST JUMPDEST PUSH1 0x0 JUMPDEST DUP6 DUP2 LT ISZERO PUSH2 0x1009 JUMPI DUP2 PUSH2 0xFEF DUP9 DUP3 PUSH2 0x1137 JUMP JUMPDEST DUP5 MSTORE PUSH1 0x20 DUP5 ADD SWAP4 POP PUSH1 0x20 DUP4 ADD SWAP3 POP POP PUSH1 0x1 DUP2 ADD SWAP1 POP PUSH2 0xFDC JUMP JUMPDEST POP POP POP SWAP4 SWAP3 POP POP POP JUMP JUMPDEST PUSH1 0x0 PUSH2 0x1026 PUSH2 0x1021 DUP5 PUSH2 0x195E JUMP JUMPDEST PUSH2 0x18E1 JUMP JUMPDEST SWAP1 POP DUP1 DUP4 DUP3 MSTORE PUSH1 0x20 DUP3 ADD SWAP1 POP DUP3 DUP6 PUSH1 0x20 DUP7 MUL DUP3 ADD GT ISZERO PUSH2 0x1049 JUMPI PUSH2 0x1048 PUSH2 0x1C11 JUMP JUMPDEST JUMPDEST PUSH1 0x0 JUMPDEST DUP6 DUP2 LT ISZERO PUSH2 0x1079 JUMPI DUP2 PUSH2 0x105F DUP9 DUP3 PUSH2 0x114C JUMP JUMPDEST DUP5 MSTORE PUSH1 0x20 DUP5 ADD SWAP4 POP PUSH1 0x20 DUP4 ADD SWAP3 POP POP PUSH1 0x1 DUP2 ADD SWAP1 POP PUSH2 0x104C JUMP JUMPDEST POP POP POP SWAP4 SWAP3 POP POP POP JUMP JUMPDEST PUSH1 0x0 DUP2 CALLDATALOAD SWAP1 POP PUSH2 0x1092 DUP2 PUSH2 0x1E21 JUMP JUMPDEST SWAP3 SWAP2 POP POP JUMP JUMPDEST PUSH1 0x0 DUP3 PUSH1 0x1F DUP4 ADD SLT PUSH2 0x10AD JUMPI PUSH2 0x10AC PUSH2 0x1C0C JUMP JUMPDEST JUMPDEST DUP2 CALLDATALOAD PUSH2 0x10BD DUP5 DUP3 PUSH1 0x20 DUP7 ADD PUSH2 0xF15 JUMP JUMPDEST SWAP2 POP POP SWAP3 SWAP2 POP POP JUMP JUMPDEST PUSH1 0x0 DUP3 PUSH1 0x1F DUP4 ADD SLT PUSH2 0x10DB JUMPI PUSH2 0x10DA PUSH2 0x1C0C JUMP JUMPDEST JUMPDEST DUP2 CALLDATALOAD PUSH2 0x10EB DUP5 DUP3 PUSH1 0x20 DUP7 ADD PUSH2 0xFA3 JUMP JUMPDEST SWAP2 POP POP SWAP3 SWAP2 POP POP JUMP JUMPDEST PUSH1 0x0 DUP3 PUSH1 0x1F DUP4 ADD SLT PUSH2 0x1109 JUMPI PUSH2 0x1108 PUSH2 0x1C0C JUMP JUMPDEST JUMPDEST DUP2 CALLDATALOAD PUSH2 0x1119 DUP5 DUP3 PUSH1 0x20 DUP7 ADD PUSH2 0x1013 JUMP JUMPDEST SWAP2 POP POP SWAP3 SWAP2 POP POP JUMP JUMPDEST PUSH1 0x0 DUP2 MLOAD SWAP1 POP PUSH2 0x1131 DUP2 PUSH2 0x1E38 JUMP JUMPDEST SWAP3 SWAP2 POP POP JUMP JUMPDEST PUSH1 0x0 DUP2 CALLDATALOAD SWAP1 POP PUSH2 0x1146 DUP2 PUSH2 0x1E4F JUMP JUMPDEST SWAP3 SWAP2 POP POP JUMP JUMPDEST PUSH1 0x0 DUP2 CALLDATALOAD SWAP1 POP PUSH2 0x115B DUP2 PUSH2 0x1E66 JUMP JUMPDEST SWAP3 SWAP2 POP POP JUMP JUMPDEST PUSH1 0x0 PUSH1 0x20 DUP3 DUP5 SUB SLT ISZERO PUSH2 0x1177 JUMPI PUSH2 0x1176 PUSH2 0x1C1B JUMP JUMPDEST JUMPDEST PUSH1 0x0 PUSH2 0x1185 DUP5 DUP3 DUP6 ADD PUSH2 0x1083 JUMP JUMPDEST SWAP2 POP POP SWAP3 SWAP2 POP POP JUMP JUMPDEST PUSH1 0x0 DUP1 PUSH1 0x0 DUP1 PUSH1 0x80 DUP6 DUP8 SUB SLT ISZERO PUSH2 0x11A8 JUMPI PUSH2 0x11A7 PUSH2 0x1C1B JUMP JUMPDEST JUMPDEST PUSH1 0x0 PUSH2 0x11B6 DUP8 DUP3 DUP9 ADD PUSH2 0x1083 JUMP JUMPDEST SWAP5 POP POP PUSH1 0x20 DUP6 ADD CALLDATALOAD PUSH8 0xFFFFFFFFFFFFFFFF DUP2 GT ISZERO PUSH2 0x11D7 JUMPI PUSH2 0x11D6 PUSH2 0x1C16 JUMP JUMPDEST JUMPDEST PUSH2 0x11E3 DUP8 DUP3 DUP9 ADD PUSH2 0x10F4 JUMP JUMPDEST SWAP4 POP POP PUSH1 0x40 DUP6 ADD CALLDATALOAD PUSH8 0xFFFFFFFFFFFFFFFF DUP2 GT ISZERO PUSH2 0x1204 JUMPI PUSH2 0x1203 PUSH2 0x1C16 JUMP JUMPDEST JUMPDEST PUSH2 0x1210 DUP8 DUP3 DUP9 ADD PUSH2 0x10F4 JUMP JUMPDEST SWAP3 POP POP PUSH1 0x60 DUP6 ADD CALLDATALOAD PUSH8 0xFFFFFFFFFFFFFFFF DUP2 GT ISZERO PUSH2 0x1231 JUMPI PUSH2 0x1230 PUSH2 0x1C16 JUMP JUMPDEST JUMPDEST PUSH2 0x123D DUP8 DUP3 DUP9 ADD PUSH2 0x1098 JUMP JUMPDEST SWAP2 POP POP SWAP3 SWAP6 SWAP2 SWAP5 POP SWAP3 POP JUMP JUMPDEST PUSH1 0x0 DUP1 PUSH1 0x0 DUP1 PUSH1 0x80 DUP6 DUP8 SUB SLT ISZERO PUSH2 0x1263 JUMPI PUSH2 0x1262 PUSH2 0x1C1B JUMP JUMPDEST JUMPDEST PUSH1 0x0 PUSH2 0x1271 DUP8 DUP3 DUP9 ADD PUSH2 0x1083 JUMP JUMPDEST SWAP5 POP POP PUSH1 0x20 PUSH2 0x1282 DUP8 DUP3 DUP9 ADD PUSH2 0x114C JUMP JUMPDEST SWAP4 POP POP PUSH1 0x40 PUSH2 0x1293 DUP8 DUP3 DUP9 ADD PUSH2 0x114C JUMP JUMPDEST SWAP3 POP POP PUSH1 0x60 DUP6 ADD CALLDATALOAD PUSH8 0xFFFFFFFFFFFFFFFF DUP2 GT ISZERO PUSH2 0x12B4 JUMPI PUSH2 0x12B3 PUSH2 0x1C16 JUMP JUMPDEST JUMPDEST PUSH2 0x12C0 DUP8 DUP3 DUP9 ADD PUSH2 0x10C6 JUMP JUMPDEST SWAP2 POP POP SWAP3 SWAP6 SWAP2 SWAP5 POP SWAP3 POP JUMP JUMPDEST PUSH1 0x0 PUSH1 0x20 DUP3 DUP5 SUB SLT ISZERO PUSH2 0x12E2 JUMPI PUSH2 0x12E1 PUSH2 0x1C1B JUMP JUMPDEST JUMPDEST PUSH1 0x0 PUSH2 0x12F0 DUP5 DUP3 DUP6 ADD PUSH2 0x1122 JUMP JUMPDEST SWAP2 POP POP SWAP3 SWAP2 POP POP JUMP JUMPDEST PUSH1 0x0 DUP1 PUSH1 0x40 DUP4 DUP6 SUB SLT ISZERO PUSH2 0x1310 JUMPI PUSH2 0x130F PUSH2 0x1C1B JUMP JUMPDEST JUMPDEST PUSH1 0x0 PUSH2 0x131E DUP6 DUP3 DUP7 ADD PUSH2 0x1137 JUMP JUMPDEST SWAP3 POP POP PUSH1 0x20 PUSH2 0x132F DUP6 DUP3 DUP7 ADD PUSH2 0x114C JUMP JUMPDEST SWAP2 POP POP SWAP3 POP SWAP3 SWAP1 POP JUMP JUMPDEST PUSH1 0x0 PUSH1 0x20 DUP3 DUP5 SUB SLT ISZERO PUSH2 0x134F JUMPI PUSH2 0x134E PUSH2 0x1C1B JUMP JUMPDEST JUMPDEST PUSH1 0x0 PUSH2 0x135D DUP5 DUP3 DUP6 ADD PUSH2 0x114C JUMP JUMPDEST SWAP2 POP POP SWAP3 SWAP2 POP POP JUMP JUMPDEST PUSH1 0x0 DUP1 PUSH1 0x40 DUP4 DUP6 SUB SLT ISZERO PUSH2 0x137D JUMPI PUSH2 0x137C PUSH2 0x1C1B JUMP JUMPDEST JUMPDEST PUSH1 0x0 PUSH2 0x138B DUP6 DUP3 DUP7 ADD PUSH2 0x114C JUMP JUMPDEST SWAP3 POP POP PUSH1 0x20 PUSH2 0x139C DUP6 DUP3 DUP7 ADD PUSH2 0x1083 JUMP JUMPDEST SWAP2 POP POP SWAP3 POP SWAP3 SWAP1 POP JUMP JUMPDEST PUSH2 0x13AF DUP2 PUSH2 0x1A12 JUMP JUMPDEST DUP3 MSTORE POP POP JUMP JUMPDEST PUSH2 0x13C6 PUSH2 0x13C1 DUP3 PUSH2 0x1A12 JUMP JUMPDEST PUSH2 0x1B47 JUMP JUMPDEST DUP3 MSTORE POP POP JUMP JUMPDEST PUSH2 0x13D5 DUP2 PUSH2 0x1A24 JUMP JUMPDEST DUP3 MSTORE POP POP JUMP JUMPDEST PUSH2 0x13E4 DUP2 PUSH2 0x1A30 JUMP JUMPDEST DUP3 MSTORE POP POP JUMP JUMPDEST PUSH2 0x13FB PUSH2 0x13F6 DUP3 PUSH2 0x1A30 JUMP JUMPDEST PUSH2 0x1B59 JUMP JUMPDEST DUP3 MSTORE POP POP JUMP JUMPDEST PUSH1 0x0 PUSH2 0x140C DUP3 PUSH2 0x198A JUMP JUMPDEST PUSH2 0x1416 DUP2 DUP6 PUSH2 0x19A0 JUMP JUMPDEST SWAP4 POP PUSH2 0x1426 DUP2 DUP6 PUSH1 0x20 DUP7 ADD PUSH2 0x1A9A JUMP JUMPDEST DUP1 DUP5 ADD SWAP2 POP POP SWAP3 SWAP2 POP POP JUMP JUMPDEST PUSH2 0x143B DUP2 PUSH2 0x1A64 JUMP JUMPDEST DUP3 MSTORE POP POP JUMP JUMPDEST PUSH1 0x0 PUSH2 0x144C DUP3 PUSH2 0x1995 JUMP JUMPDEST PUSH2 0x1456 DUP2 DUP6 PUSH2 0x19AB JUMP JUMPDEST SWAP4 POP PUSH2 0x1466 DUP2 DUP6 PUSH1 0x20 DUP7 ADD PUSH2 0x1A9A JUMP JUMPDEST PUSH2 0x146F DUP2 PUSH2 0x1C20 JUMP JUMPDEST DUP5 ADD SWAP2 POP POP SWAP3 SWAP2 POP POP JUMP JUMPDEST PUSH1 0x0 PUSH2 0x1487 PUSH1 0x1C DUP4 PUSH2 0x19AB JUMP JUMPDEST SWAP2 POP PUSH2 0x1492 DUP3 PUSH2 0x1C3E JUMP JUMPDEST PUSH1 0x20 DUP3 ADD SWAP1 POP SWAP2 SWAP1 POP JUMP JUMPDEST PUSH1 0x0 PUSH2 0x14AA PUSH1 0x16 DUP4 PUSH2 0x19AB JUMP JUMPDEST SWAP2 POP PUSH2 0x14B5 DUP3 PUSH2 0x1C67 JUMP JUMPDEST PUSH1 0x20 DUP3 ADD SWAP1 POP SWAP2 SWAP1 POP JUMP JUMPDEST PUSH1 0x0 PUSH2 0x14CD PUSH1 0x1B DUP4 PUSH2 0x19AB JUMP JUMPDEST SWAP2 POP PUSH2 0x14D8 DUP3 PUSH2 0x1C90 JUMP JUMPDEST PUSH1 0x20 DUP3 ADD SWAP1 POP SWAP2 SWAP1 POP JUMP JUMPDEST PUSH1 0x0 PUSH2 0x14F0 PUSH1 0x26 DUP4 PUSH2 0x19AB JUMP JUMPDEST SWAP2 POP PUSH2 0x14FB DUP3 PUSH2 0x1CB9 JUMP JUMPDEST PUSH1 0x40 DUP3 ADD SWAP1 POP SWAP2 SWAP1 POP JUMP JUMPDEST PUSH1 0x0 PUSH2 0x1513 PUSH1 0x3D DUP4 PUSH2 0x19AB JUMP JUMPDEST SWAP2 POP PUSH2 0x151E DUP3 PUSH2 0x1D08 JUMP JUMPDEST PUSH1 0x40 DUP3 ADD SWAP1 POP SWAP2 SWAP1 POP JUMP JUMPDEST PUSH1 0x0 PUSH2 0x1536 PUSH1 0x16 DUP4 PUSH2 0x19AB JUMP JUMPDEST SWAP2 POP PUSH2 0x1541 DUP3 PUSH2 0x1D57 JUMP JUMPDEST PUSH1 0x20 DUP3 ADD SWAP1 POP SWAP2 SWAP1 POP JUMP JUMPDEST PUSH1 0x0 PUSH2 0x1559 PUSH1 0x1D DUP4 PUSH2 0x19AB JUMP JUMPDEST SWAP2 POP PUSH2 0x1564 DUP3 PUSH2 0x1D80 JUMP JUMPDEST PUSH1 0x20 DUP3 ADD SWAP1 POP SWAP2 SWAP1 POP JUMP JUMPDEST PUSH1 0x0 PUSH2 0x157C PUSH1 0x12 DUP4 PUSH2 0x19AB JUMP JUMPDEST SWAP2 POP PUSH2 0x1587 DUP3 PUSH2 0x1DA9 JUMP JUMPDEST PUSH1 0x20 DUP3 ADD SWAP1 POP SWAP2 SWAP1 POP JUMP JUMPDEST PUSH1 0x0 PUSH2 0x159F PUSH1 0x2A DUP4 PUSH2 0x19AB JUMP JUMPDEST SWAP2 POP PUSH2 0x15AA DUP3 PUSH2 0x1DD2 JUMP JUMPDEST PUSH1 0x40 DUP3 ADD SWAP1 POP SWAP2 SWAP1 POP JUMP JUMPDEST PUSH2 0x15BE DUP2 PUSH2 0x1A5A JUMP JUMPDEST DUP3 MSTORE POP POP JUMP JUMPDEST PUSH2 0x15D5 PUSH2 0x15D0 DUP3 PUSH2 0x1A5A JUMP JUMPDEST PUSH2 0x1B75 JUMP JUMPDEST DUP3 MSTORE POP POP JUMP JUMPDEST PUSH1 0x0 PUSH2 0x15E7 DUP3 DUP6 PUSH2 0x13B5 JUMP JUMPDEST PUSH1 0x14 DUP3 ADD SWAP2 POP PUSH2 0x15F7 DUP3 DUP5 PUSH2 0x15C4 JUMP JUMPDEST PUSH1 0x20 DUP3 ADD SWAP2 POP DUP2 SWAP1 POP SWAP4 SWAP3 POP POP POP JUMP JUMPDEST PUSH1 0x0 PUSH2 0x1613 DUP3 DUP6 PUSH2 0x13EA JUMP JUMPDEST PUSH1 0x20 DUP3 ADD SWAP2 POP PUSH2 0x1623 DUP3 DUP5 PUSH2 0x13EA JUMP JUMPDEST PUSH1 0x20 DUP3 ADD SWAP2 POP DUP2 SWAP1 POP SWAP4 SWAP3 POP POP POP JUMP JUMPDEST PUSH1 0x0 PUSH2 0x163F DUP3 DUP5 PUSH2 0x1401 JUMP JUMPDEST SWAP2 POP DUP2 SWAP1 POP SWAP3 SWAP2 POP POP JUMP JUMPDEST PUSH1 0x0 PUSH1 0x20 DUP3 ADD SWAP1 POP PUSH2 0x165F PUSH1 0x0 DUP4 ADD DUP5 PUSH2 0x13A6 JUMP JUMPDEST SWAP3 SWAP2 POP POP JUMP JUMPDEST PUSH1 0x0 PUSH1 0x60 DUP3 ADD SWAP1 POP PUSH2 0x167A PUSH1 0x0 DUP4 ADD DUP7 PUSH2 0x13A6 JUMP JUMPDEST PUSH2 0x1687 PUSH1 0x20 DUP4 ADD DUP6 PUSH2 0x13A6 JUMP JUMPDEST PUSH2 0x1694 PUSH1 0x40 DUP4 ADD DUP5 PUSH2 0x15B5 JUMP JUMPDEST SWAP5 SWAP4 POP POP POP POP JUMP JUMPDEST PUSH1 0x0 PUSH1 0x40 DUP3 ADD SWAP1 POP PUSH2 0x16B1 PUSH1 0x0 DUP4 ADD DUP6 PUSH2 0x13A6 JUMP JUMPDEST PUSH2 0x16BE PUSH1 0x20 DUP4 ADD DUP5 PUSH2 0x15B5 JUMP JUMPDEST SWAP4 SWAP3 POP POP POP JUMP JUMPDEST PUSH1 0x0 PUSH1 0x60 DUP3 ADD SWAP1 POP PUSH2 0x16DA PUSH1 0x0 DUP4 ADD DUP7 PUSH2 0x13A6 JUMP JUMPDEST PUSH2 0x16E7 PUSH1 0x20 DUP4 ADD DUP6 PUSH2 0x15B5 JUMP JUMPDEST PUSH2 0x16F4 PUSH1 0x40 DUP4 ADD DUP5 PUSH2 0x15B5 JUMP JUMPDEST SWAP5 SWAP4 POP POP POP POP JUMP JUMPDEST PUSH1 0x0 PUSH1 0x20 DUP3 ADD SWAP1 POP PUSH2 0x1711 PUSH1 0x0 DUP4 ADD DUP5 PUSH2 0x13CC JUMP JUMPDEST SWAP3 SWAP2 POP POP JUMP JUMPDEST PUSH1 0x0 PUSH1 0x20 DUP3 ADD SWAP1 POP PUSH2 0x172C PUSH1 0x0 DUP4 ADD DUP5 PUSH2 0x13DB JUMP JUMPDEST SWAP3 SWAP2 POP POP JUMP JUMPDEST PUSH1 0x0 PUSH1 0x20 DUP3 ADD SWAP1 POP PUSH2 0x1747 PUSH1 0x0 DUP4 ADD DUP5 PUSH2 0x1432 JUMP JUMPDEST SWAP3 SWAP2 POP POP JUMP JUMPDEST PUSH1 0x0 PUSH1 0x20 DUP3 ADD SWAP1 POP DUP2 DUP2 SUB PUSH1 0x0 DUP4 ADD MSTORE PUSH2 0x1767 DUP2 DUP5 PUSH2 0x1441 JUMP JUMPDEST SWAP1 POP SWAP3 SWAP2 POP POP JUMP JUMPDEST PUSH1 0x0 PUSH1 0x20 DUP3 ADD SWAP1 POP DUP2 DUP2 SUB PUSH1 0x0 DUP4 ADD MSTORE PUSH2 0x1788 DUP2 PUSH2 0x147A JUMP JUMPDEST SWAP1 POP SWAP2 SWAP1 POP JUMP JUMPDEST PUSH1 0x0 PUSH1 0x20 DUP3 ADD SWAP1 POP DUP2 DUP2 SUB PUSH1 0x0 DUP4 ADD MSTORE PUSH2 0x17A8 DUP2 PUSH2 0x149D JUMP JUMPDEST SWAP1 POP SWAP2 SWAP1 POP JUMP JUMPDEST PUSH1 0x0 PUSH1 0x20 DUP3 ADD SWAP1 POP DUP2 DUP2 SUB PUSH1 0x0 DUP4 ADD MSTORE PUSH2 0x17C8 DUP2 PUSH2 0x14C0 JUMP JUMPDEST SWAP1 POP SWAP2 SWAP1 POP JUMP JUMPDEST PUSH1 0x0 PUSH1 0x20 DUP3 ADD SWAP1 POP DUP2 DUP2 SUB PUSH1 0x0 DUP4 ADD MSTORE PUSH2 0x17E8 DUP2 PUSH2 0x14E3 JUMP JUMPDEST SWAP1 POP SWAP2 SWAP1 POP JUMP JUMPDEST PUSH1 0x0 PUSH1 0x20 DUP3 ADD SWAP1 POP DUP2 DUP2 SUB PUSH1 0x0 DUP4 ADD MSTORE PUSH2 0x1808 DUP2 PUSH2 0x1506 JUMP JUMPDEST SWAP1 POP SWAP2 SWAP1 POP JUMP JUMPDEST PUSH1 0x0 PUSH1 0x20 DUP3 ADD SWAP1 POP DUP2 DUP2 SUB PUSH1 0x0 DUP4 ADD MSTORE PUSH2 0x1828 DUP2 PUSH2 0x1529 JUMP JUMPDEST SWAP1 POP SWAP2 SWAP1 POP JUMP JUMPDEST PUSH1 0x0 PUSH1 0x20 DUP3 ADD SWAP1 POP DUP2 DUP2 SUB PUSH1 0x0 DUP4 ADD MSTORE PUSH2 0x1848 DUP2 PUSH2 0x154C JUMP JUMPDEST SWAP1 POP SWAP2 SWAP1 POP JUMP JUMPDEST PUSH1 0x0 PUSH1 0x20 DUP3 ADD SWAP1 POP DUP2 DUP2 SUB PUSH1 0x0 DUP4 ADD MSTORE PUSH2 0x1868 DUP2 PUSH2 0x156F JUMP JUMPDEST SWAP1 POP SWAP2 SWAP1 POP JUMP JUMPDEST PUSH1 0x0 PUSH1 0x20 DUP3 ADD SWAP1 POP DUP2 DUP2 SUB PUSH1 0x0 DUP4 ADD MSTORE PUSH2 0x1888 DUP2 PUSH2 0x1592 JUMP JUMPDEST SWAP1 POP SWAP2 SWAP1 POP JUMP JUMPDEST PUSH1 0x0 PUSH1 0x20 DUP3 ADD SWAP1 POP PUSH2 0x18A4 PUSH1 0x0 DUP4 ADD DUP5 PUSH2 0x15B5 JUMP JUMPDEST SWAP3 SWAP2 POP POP JUMP JUMPDEST PUSH1 0x0 PUSH1 0x60 DUP3 ADD SWAP1 POP PUSH2 0x18BF PUSH1 0x0 DUP4 ADD DUP7 PUSH2 0x15B5 JUMP JUMPDEST PUSH2 0x18CC PUSH1 0x20 DUP4 ADD DUP6 PUSH2 0x13DB JUMP JUMPDEST PUSH2 0x18D9 PUSH1 0x40 DUP4 ADD DUP5 PUSH2 0x15B5 JUMP JUMPDEST SWAP5 SWAP4 POP POP POP POP JUMP JUMPDEST PUSH1 0x0 PUSH2 0x18EB PUSH2 0x18FC JUMP JUMPDEST SWAP1 POP PUSH2 0x18F7 DUP3 DUP3 PUSH2 0x1ACD JUMP JUMPDEST SWAP2 SWAP1 POP JUMP JUMPDEST PUSH1 0x0 PUSH1 0x40 MLOAD SWAP1 POP SWAP1 JUMP JUMPDEST PUSH1 0x0 PUSH8 0xFFFFFFFFFFFFFFFF DUP3 GT ISZERO PUSH2 0x1921 JUMPI PUSH2 0x1920 PUSH2 0x1BDD JUMP JUMPDEST JUMPDEST PUSH1 0x20 DUP3 MUL SWAP1 POP PUSH1 0x20 DUP2 ADD SWAP1 POP SWAP2 SWAP1 POP JUMP JUMPDEST PUSH1 0x0 PUSH8 0xFFFFFFFFFFFFFFFF DUP3 GT ISZERO PUSH2 0x194D JUMPI PUSH2 0x194C PUSH2 0x1BDD JUMP JUMPDEST JUMPDEST PUSH1 0x20 DUP3 MUL SWAP1 POP PUSH1 0x20 DUP2 ADD SWAP1 POP SWAP2 SWAP1 POP JUMP JUMPDEST PUSH1 0x0 PUSH8 0xFFFFFFFFFFFFFFFF DUP3 GT ISZERO PUSH2 0x1979 JUMPI PUSH2 0x1978 PUSH2 0x1BDD JUMP JUMPDEST JUMPDEST PUSH1 0x20 DUP3 MUL SWAP1 POP PUSH1 0x20 DUP2 ADD SWAP1 POP SWAP2 SWAP1 POP JUMP JUMPDEST PUSH1 0x0 DUP2 MLOAD SWAP1 POP SWAP2 SWAP1 POP JUMP JUMPDEST PUSH1 0x0 DUP2 MLOAD SWAP1 POP SWAP2 SWAP1 POP JUMP JUMPDEST PUSH1 0x0 DUP2 SWAP1 POP SWAP3 SWAP2 POP POP JUMP JUMPDEST PUSH1 0x0 DUP3 DUP3 MSTORE PUSH1 0x20 DUP3 ADD SWAP1 POP SWAP3 SWAP2 POP POP JUMP JUMPDEST PUSH1 0x0 PUSH2 0x19C7 DUP3 PUSH2 0x1A5A JUMP JUMPDEST SWAP2 POP PUSH2 0x19D2 DUP4 PUSH2 0x1A5A JUMP JUMPDEST SWAP3 POP DUP3 PUSH32 0xFFFFFFFFFFFFFFFFFFFFFFFFFFFFFFFFFFFFFFFFFFFFFFFFFFFFFFFFFFFFFFFF SUB DUP3 GT ISZERO PUSH2 0x1A07 JUMPI PUSH2 0x1A06 PUSH2 0x1B7F JUMP JUMPDEST JUMPDEST DUP3 DUP3 ADD SWAP1 POP SWAP3 SWAP2 POP POP JUMP JUMPDEST PUSH1 0x0 PUSH2 0x1A1D DUP3 PUSH2 0x1A3A JUMP JUMPDEST SWAP1 POP SWAP2 SWAP1 POP JUMP JUMPDEST PUSH1 0x0 DUP2 ISZERO ISZERO SWAP1 POP SWAP2 SWAP1 POP JUMP JUMPDEST PUSH1 0x0 DUP2 SWAP1 POP SWAP2 SWAP1 POP JUMP JUMPDEST PUSH1 0x0 PUSH20 0xFFFFFFFFFFFFFFFFFFFFFFFFFFFFFFFFFFFFFFFF DUP3 AND SWAP1 POP SWAP2 SWAP1 POP JUMP JUMPDEST PUSH1 0x0 DUP2 SWAP1 POP SWAP2 SWAP1 POP JUMP JUMPDEST PUSH1 0x0 PUSH2 0x1A6F DUP3 PUSH2 0x1A76 JUMP JUMPDEST SWAP1 POP SWAP2 SWAP1 POP JUMP JUMPDEST PUSH1 0x0 PUSH2 0x1A81 DUP3 PUSH2 0x1A88 JUMP JUMPDEST SWAP1 POP SWAP2 SWAP1 POP JUMP JUMPDEST PUSH1 0x0 PUSH2 0x1A93 DUP3 PUSH2 0x1A3A JUMP JUMPDEST SWAP1 POP SWAP2 SWAP1 POP JUMP JUMPDEST PUSH1 0x0 JUMPDEST DUP4 DUP2 LT ISZERO PUSH2 0x1AB8 JUMPI DUP1 DUP3 ADD MLOAD DUP2 DUP5 ADD MSTORE PUSH1 0x20 DUP2 ADD SWAP1 POP PUSH2 0x1A9D JUMP JUMPDEST DUP4 DUP2 GT ISZERO PUSH2 0x1AC7 JUMPI PUSH1 0x0 DUP5 DUP5 ADD MSTORE JUMPDEST POP POP POP POP JUMP JUMPDEST PUSH2 0x1AD6 DUP3 PUSH2 0x1C20 JUMP JUMPDEST DUP2 ADD DUP2 DUP2 LT PUSH8 0xFFFFFFFFFFFFFFFF DUP3 GT OR ISZERO PUSH2 0x1AF5 JUMPI PUSH2 0x1AF4 PUSH2 0x1BDD JUMP JUMPDEST JUMPDEST DUP1 PUSH1 0x40 MSTORE POP POP POP JUMP JUMPDEST PUSH1 0x0 PUSH2 0x1B09 DUP3 PUSH2 0x1A5A JUMP JUMPDEST SWAP2 POP PUSH32 0xFFFFFFFFFFFFFFFFFFFFFFFFFFFFFFFFFFFFFFFFFFFFFFFFFFFFFFFFFFFFFFFF DUP3 EQ ISZERO PUSH2 0x1B3C JUMPI PUSH2 0x1B3B PUSH2 0x1B7F JUMP JUMPDEST JUMPDEST PUSH1 0x1 DUP3 ADD SWAP1 POP SWAP2 SWAP1 POP JUMP JUMPDEST PUSH1 0x0 PUSH2 0x1B52 DUP3 PUSH2 0x1B63 JUMP JUMPDEST SWAP1 POP SWAP2 SWAP1 POP JUMP JUMPDEST PUSH1 0x0 DUP2 SWAP1 POP SWAP2 SWAP1 POP JUMP JUMPDEST PUSH1 0x0 PUSH2 0x1B6E DUP3 PUSH2 0x1C31 JUMP JUMPDEST SWAP1 POP SWAP2 SWAP1 POP JUMP JUMPDEST PUSH1 0x0 DUP2 SWAP1 POP SWAP2 SWAP1 POP JUMP JUMPDEST PUSH32 0x4E487B7100000000000000000000000000000000000000000000000000000000 PUSH1 0x0 MSTORE PUSH1 0x11 PUSH1 0x4 MSTORE PUSH1 0x24 PUSH1 0x0 REVERT JUMPDEST PUSH32 0x4E487B7100000000000000000000000000000000000000000000000000000000 PUSH1 0x0 MSTORE PUSH1 0x32 PUSH1 0x4 MSTORE PUSH1 0x24 PUSH1 0x0 REVERT JUMPDEST PUSH32 0x4E487B7100000000000000000000000000000000000000000000000000000000 PUSH1 0x0 MSTORE PUSH1 0x41 PUSH1 0x4 MSTORE PUSH1 0x24 PUSH1 0x0 REVERT JUMPDEST PUSH1 0x0 DUP1 REVERT JUMPDEST PUSH1 0x0 DUP1 REVERT JUMPDEST PUSH1 0x0 DUP1 REVERT JUMPDEST PUSH1 0x0 DUP1 REVERT JUMPDEST PUSH1 0x0 PUSH1 0x1F NOT PUSH1 0x1F DUP4 ADD AND SWAP1 POP SWAP2 SWAP1 POP JUMP JUMPDEST PUSH1 0x0 DUP2 PUSH1 0x60 SHL SWAP1 POP SWAP2 SWAP1 POP JUMP JUMPDEST PUSH32 0x5765656B2063616E6E6F7420626520696E207468652066757475726500000000 PUSH1 0x0 DUP3 ADD MSTORE POP JUMP JUMPDEST PUSH32 0x496E636F7272656374206D65726B6C652070726F6F6600000000000000000000 PUSH1 0x0 DUP3 ADD MSTORE POP JUMP JUMPDEST PUSH32 0x536166654D6174683A206164646974696F6E206F766572666C6F770000000000 PUSH1 0x0 DUP3 ADD MSTORE POP JUMP JUMPDEST PUSH32 0x416464726573733A20696E73756666696369656E742062616C616E636520666F PUSH1 0x0 DUP3 ADD MSTORE PUSH32 0x722063616C6C0000000000000000000000000000000000000000000000000000 PUSH1 0x20 DUP3 ADD MSTORE POP JUMP JUMPDEST PUSH32 0x4E6F2062616C616E636520776F756C64206265207472616E7366657272656420 PUSH1 0x0 DUP3 ADD MSTORE PUSH32 0x2D206E6F7420676F696E6720746F20776173746520796F757220676173000000 PUSH1 0x20 DUP3 ADD MSTORE POP JUMP JUMPDEST PUSH32 0x4C502068617320616C726561647920636C61696D656400000000000000000000 PUSH1 0x0 DUP3 ADD MSTORE POP JUMP JUMPDEST PUSH32 0x416464726573733A2063616C6C20746F206E6F6E2D636F6E7472616374000000 PUSH1 0x0 DUP3 ADD MSTORE POP JUMP JUMPDEST PUSH32 0x4D69736D61746368696E6720696E707574730000000000000000000000000000 PUSH1 0x0 DUP3 ADD MSTORE POP JUMP JUMPDEST PUSH32 0x5361666545524332303A204552433230206F7065726174696F6E20646964206E PUSH1 0x0 DUP3 ADD MSTORE PUSH32 0x6F74207375636365656400000000000000000000000000000000000000000000 PUSH1 0x20 DUP3 ADD MSTORE POP JUMP JUMPDEST PUSH2 0x1E2A DUP2 PUSH2 0x1A12 JUMP JUMPDEST DUP2 EQ PUSH2 0x1E35 JUMPI PUSH1 0x0 DUP1 REVERT JUMPDEST POP JUMP JUMPDEST PUSH2 0x1E41 DUP2 PUSH2 0x1A24 JUMP JUMPDEST DUP2 EQ PUSH2 0x1E4C JUMPI PUSH1 0x0 DUP1 REVERT JUMPDEST POP JUMP JUMPDEST PUSH2 0x1E58 DUP2 PUSH2 0x1A30 JUMP JUMPDEST DUP2 EQ PUSH2 0x1E63 JUMPI PUSH1 0x0 DUP1 REVERT JUMPDEST POP JUMP JUMPDEST PUSH2 0x1E6F DUP2 PUSH2 0x1A5A JUMP JUMPDEST DUP2 EQ PUSH2 0x1E7A JUMPI PUSH1 0x0 DUP1 REVERT JUMPDEST POP JUMP INVALID LOG2 PUSH5 0x6970667358 0x22 SLT KECCAK256 DUP7 CREATE2 JUMP SWAP2 CODECOPY 0xCE 0xE PUSH7 0xDA202819FD7A4D GT EXP SWAP11 CREATE2 0x2C KECCAK256 0x5D 0x4C 0xD6 PUSH6 0x20BCD02007DA CALLVALUE PUSH5 0x736F6C6343 STOP ADDMOD SMOD STOP CALLER "
				},
				"gasEstimates": {
					"creation": {
						"codeDepositCost": "1571800",
						"executionCost": "infinite",
						"totalCost": "infinite"
					},
					"external": {
						"claimWeek(address,uint256,uint256,bytes32[])": "infinite",
						"claimWeeks(address,uint256[],uint256[],bytes32[][])": "infinite",
						"claimed(uint256,address)": "3088",
						"expireTranche(uint256)": "infinite",
						"merkleRoots(uint256)": "2854",
						"owner()": "2622",
						"seedNewAllocations(bytes32,uint256)": "infinite",
						"student_result(uint256)": "4979",
						"token()": "2710",
						"tranches()": "2495",
						"transferOwnership(address)": "30693",
						"verifyClaim(address,uint256,uint256,bytes32[])": "infinite"
					},
					"internal": {
						"_claimWeek(address,uint256,uint256,bytes32[] memory)": "infinite",
						"_disburse(address,uint256)": "infinite",
						"_verifyClaim(address,uint256,uint256,bytes32[] memory)": "infinite"
					}
				},
				"methodIdentifiers": {
					"claimWeek(address,uint256,uint256,bytes32[])": "58b4e4b4",
					"claimWeeks(address,uint256[],uint256[],bytes32[][])": "ba593714",
					"claimed(uint256,address)": "120aa877",
					"expireTranche(uint256)": "d5efd20a",
					"merkleRoots(uint256)": "71c5ecb1",
					"owner()": "8da5cb5b",
					"seedNewAllocations(bytes32,uint256)": "65ef53b1",
					"student_result(uint256)": "275bf03b",
					"token()": "fc0c546a",
					"tranches()": "ebf04917",
					"transferOwnership(address)": "f2fde38b",
					"verifyClaim(address,uint256,uint256,bytes32[])": "eb0d07f5"
				}
			},
			"storageLayout": {
				"storage": [
					{
						"astId": 539,
						"contract": "contracts/token/ERC20/MTMSAirdrop.sol:MTMSAirdrop",
						"label": "owner",
						"offset": 0,
						"slot": "0",
						"type": "t_address"
					},
					{
						"astId": 176,
						"contract": "contracts/token/ERC20/MTMSAirdrop.sol:MTMSAirdrop",
						"label": "result",
						"offset": 0,
						"slot": "1",
						"type": "t_mapping(t_address,t_struct(user)171_storage)"
					},
					{
						"astId": 179,
						"contract": "contracts/token/ERC20/MTMSAirdrop.sol:MTMSAirdrop",
						"label": "student_result",
						"offset": 0,
						"slot": "2",
						"type": "t_array(t_address)dyn_storage"
					},
					{
						"astId": 206,
						"contract": "contracts/token/ERC20/MTMSAirdrop.sol:MTMSAirdrop",
						"label": "token",
						"offset": 0,
						"slot": "3",
						"type": "t_contract(IERC20)148"
					},
					{
						"astId": 210,
						"contract": "contracts/token/ERC20/MTMSAirdrop.sol:MTMSAirdrop",
						"label": "merkleRoots",
						"offset": 0,
						"slot": "4",
						"type": "t_mapping(t_uint256,t_bytes32)"
					},
					{
						"astId": 216,
						"contract": "contracts/token/ERC20/MTMSAirdrop.sol:MTMSAirdrop",
						"label": "claimed",
						"offset": 0,
						"slot": "5",
						"type": "t_mapping(t_uint256,t_mapping(t_address,t_bool))"
					},
					{
						"astId": 218,
						"contract": "contracts/token/ERC20/MTMSAirdrop.sol:MTMSAirdrop",
						"label": "tranches",
						"offset": 0,
						"slot": "6",
						"type": "t_uint256"
					}
				],
				"types": {
					"t_address": {
						"encoding": "inplace",
						"label": "address",
						"numberOfBytes": "20"
					},
					"t_array(t_address)dyn_storage": {
						"base": "t_address",
						"encoding": "dynamic_array",
						"label": "address[]",
						"numberOfBytes": "32"
					},
					"t_bool": {
						"encoding": "inplace",
						"label": "bool",
						"numberOfBytes": "1"
					},
					"t_bytes32": {
						"encoding": "inplace",
						"label": "bytes32",
						"numberOfBytes": "32"
					},
					"t_contract(IERC20)148": {
						"encoding": "inplace",
						"label": "contract IERC20",
						"numberOfBytes": "20"
					},
					"t_mapping(t_address,t_bool)": {
						"encoding": "mapping",
						"key": "t_address",
						"label": "mapping(address => bool)",
						"numberOfBytes": "32",
						"value": "t_bool"
					},
					"t_mapping(t_address,t_struct(user)171_storage)": {
						"encoding": "mapping",
						"key": "t_address",
						"label": "mapping(address => struct MTMSAirdrop.user)",
						"numberOfBytes": "32",
						"value": "t_struct(user)171_storage"
					},
					"t_mapping(t_uint256,t_bytes32)": {
						"encoding": "mapping",
						"key": "t_uint256",
						"label": "mapping(uint256 => bytes32)",
						"numberOfBytes": "32",
						"value": "t_bytes32"
					},
					"t_mapping(t_uint256,t_mapping(t_address,t_bool))": {
						"encoding": "mapping",
						"key": "t_uint256",
						"label": "mapping(uint256 => mapping(address => bool))",
						"numberOfBytes": "32",
						"value": "t_mapping(t_address,t_bool)"
					},
					"t_string_storage": {
						"encoding": "bytes",
						"label": "string",
						"numberOfBytes": "32"
					},
					"t_struct(user)171_storage": {
						"encoding": "inplace",
						"label": "struct MTMSAirdrop.user",
						"members": [
							{
								"astId": 168,
								"contract": "contracts/token/ERC20/MTMSAirdrop.sol:MTMSAirdrop",
								"label": "mAddress",
								"offset": 0,
								"slot": "0",
								"type": "t_string_storage"
							},
							{
								"astId": 170,
								"contract": "contracts/token/ERC20/MTMSAirdrop.sol:MTMSAirdrop",
								"label": "amount",
								"offset": 0,
								"slot": "1",
								"type": "t_uint8"
							}
						],
						"numberOfBytes": "64"
					},
					"t_uint256": {
						"encoding": "inplace",
						"label": "uint256",
						"numberOfBytes": "32"
					},
					"t_uint8": {
						"encoding": "inplace",
						"label": "uint8",
						"numberOfBytes": "1"
					}
				}
			},
			"userdoc": {
				"kind": "user",
				"methods": {},
				"version": 1
			}
		}
	}
}